{"abi":[{"type":"constructor","inputs":[{"name":"axelarIts","type":"address","internalType":"address"},{"name":"ipcGateway","type":"address","internalType":"address"},{"name":"admin","type":"address","internalType":"address"}],"stateMutability":"nonpayable"},{"type":"function","name":"_admin","inputs":[],"outputs":[{"name":"","type":"address","internalType":"address"}],"stateMutability":"view"},{"type":"function","name":"_fallibleFundSubnet","inputs":[{"name":"data","type":"bytes","internalType":"bytes"},{"name":"amount","type":"uint256","internalType":"uint256"}],"outputs":[],"stateMutability":"nonpayable"},{"type":"function","name":"_ipcGateway","inputs":[],"outputs":[{"name":"","type":"address","internalType":"contract TokenFundedGateway"}],"stateMutability":"view"},{"type":"function","name":"adminTokenIncreaseAllowance","inputs":[{"name":"token","type":"address","internalType":"address"},{"name":"amount","type":"uint256","internalType":"uint256"}],"outputs":[],"stateMutability":"nonpayable"},{"type":"function","name":"executeWithInterchainToken","inputs":[{"name":"commandId","type":"bytes32","internalType":"bytes32"},{"name":"sourceChain","type":"string","internalType":"string"},{"name":"sourceAddress","type":"bytes","internalType":"bytes"},{"name":"data","type":"bytes","internalType":"bytes"},{"name":"tokenId","type":"bytes32","internalType":"bytes32"},{"name":"token","type":"address","internalType":"address"},{"name":"amount","type":"uint256","internalType":"uint256"}],"outputs":[{"name":"","type":"bytes32","internalType":"bytes32"}],"stateMutability":"nonpayable"},{"type":"function","name":"handleIpcMessage","inputs":[{"name":"envelope","type":"tuple","internalType":"struct IpcEnvelope","components":[{"name":"kind","type":"uint8","internalType":"enum IpcMsgKind"},{"name":"to","type":"tuple","internalType":"struct IPCAddress","components":[{"name":"subnetId","type":"tuple","internalType":"struct SubnetID","components":[{"name":"root","type":"uint64","internalType":"uint64"},{"name":"route","type":"address[]","internalType":"address[]"}]},{"name":"rawAddress","type":"tuple","internalType":"struct FvmAddress","components":[{"name":"addrType","type":"uint8","internalType":"uint8"},{"name":"payload","type":"bytes","internalType":"bytes"}]}]},{"name":"from","type":"tuple","internalType":"struct IPCAddress","components":[{"name":"subnetId","type":"tuple","internalType":"struct SubnetID","components":[{"name":"root","type":"uint64","internalType":"uint64"},{"name":"route","type":"address[]","internalType":"address[]"}]},{"name":"rawAddress","type":"tuple","internalType":"struct FvmAddress","components":[{"name":"addrType","type":"uint8","internalType":"uint8"},{"name":"payload","type":"bytes","internalType":"bytes"}]}]},{"name":"nonce","type":"uint64","internalType":"uint64"},{"name":"value","type":"uint256","internalType":"uint256"},{"name":"message","type":"bytes","internalType":"bytes"}]}],"outputs":[{"name":"ret","type":"bytes","internalType":"bytes"}],"stateMutability":"payable"},{"type":"function","name":"interchainTokenService","inputs":[],"outputs":[{"name":"","type":"address","internalType":"address"}],"stateMutability":"view"},{"type":"event","name":"FundingFailed","inputs":[{"name":"subnet","type":"tuple","indexed":true,"internalType":"struct SubnetID","components":[{"name":"root","type":"uint64","internalType":"uint64"},{"name":"route","type":"address[]","internalType":"address[]"}]},{"name":"recipient","type":"address","indexed":true,"internalType":"address"},{"name":"value","type":"uint256","indexed":false,"internalType":"uint256"}],"anonymous":false},{"type":"event","name":"SubnetFunded","inputs":[{"name":"subnet","type":"tuple","indexed":true,"internalType":"struct SubnetID","components":[{"name":"root","type":"uint64","internalType":"uint64"},{"name":"route","type":"address[]","internalType":"address[]"}]},{"name":"recipient","type":"address","indexed":true,"internalType":"address"},{"name":"value","type":"uint256","indexed":false,"internalType":"uint256"}],"anonymous":false},{"type":"error","name":"AddressEmptyCode","inputs":[{"name":"target","type":"address","internalType":"address"}]},{"type":"error","name":"AddressInsufficientBalance","inputs":[{"name":"account","type":"address","internalType":"address"}]},{"type":"error","name":"CallerIsNotGateway","inputs":[]},{"type":"error","name":"FailedInnerCall","inputs":[]},{"type":"error","name":"NotDelegatedEvmAddress","inputs":[]},{"type":"error","name":"NotService","inputs":[{"name":"caller","type":"address","internalType":"address"}]},{"type":"error","name":"NothingToWithdraw","inputs":[]},{"type":"error","name":"SafeERC20FailedDecreaseAllowance","inputs":[{"name":"spender","type":"address","internalType":"address"},{"name":"currentAllowance","type":"uint256","internalType":"uint256"},{"name":"requestedDecrease","type":"uint256","internalType":"uint256"}]},{"type":"error","name":"SafeERC20FailedOperation","inputs":[{"name":"token","type":"address","internalType":"address"}]},{"type":"error","name":"UnrecognizedResult","inputs":[]},{"type":"error","name":"UnsupportedMsgKind","inputs":[]}],"bytecode":{"object":"0x60a06040523480156200001157600080fd5b506040516200199a3803806200199a833981016040819052620000349162000088565b6001600160a01b03928316608052600080549284166001600160a01b031993841617905560018054919093169116179055620000d2565b80516001600160a01b03811681146200008357600080fd5b919050565b6000806000606084860312156200009e57600080fd5b620000a9846200006b565b9250620000b9602085016200006b565b9150620000c9604085016200006b565b90509250925092565b6080516118a6620000f46000396000818160c401526102c601526118a66000f3fe6080604052600436106100705760003560e01c806311f772571161004e57806311f77257146101065780632924150214610128578063500d3d5814610156578063a9490a041461017657600080fd5b806301bc45c91461007557806309c6bed9146100b25780630fdfcfb4146100e6575b600080fd5b34801561008157600080fd5b50600154610095906001600160a01b031681565b6040516001600160a01b0390911681526020015b60405180910390f35b3480156100be57600080fd5b506100957f000000000000000000000000000000000000000000000000000000000000000081565b3480156100f257600080fd5b50600054610095906001600160a01b031681565b34801561011257600080fd5b50610126610121366004610e81565b610196565b005b34801561013457600080fd5b50610148610143366004610ee1565b6102b9565b6040519081526020016100a9565b34801561016257600080fd5b50610126610171366004610faa565b610348565b610189610184366004610fd6565b6103af565b6040516100a99190611060565b3330146101d95760405162461bcd60e51b815260206004820152600c60248201526b1d5b985d5d1a1bdc9a5e995960a21b60448201526064015b60405180910390fd5b6000806101e8848601866111e8565b60005491935091506001600160a01b0390811690630517e1aa90849061020f90851661068d565b866040518463ffffffff1660e01b815260040161022e93929190611239565b600060405180830381600087803b15801561024857600080fd5b505af115801561025c573d6000803e3d6000fd5b50505050806001600160a01b03168260405161027891906112d8565b604051908190038120858252907f390d6a9437d2dd078a7a9f6227d8778d7f5f83aa1f1d65a7f7f70ec7eaac353b9060200160405180910390a35050505050565b6000336001600160a01b037f0000000000000000000000000000000000000000000000000000000000000000161461030657604051630d6c7be960e01b81523360048201526024016101d0565b6103188b8b8b8b8b8b8b8b8b8b61073b565b507fe84001f3dedacf7f9ddc370e9f09c26b37473e9e959ffdc4925f6fe33c9877e49a9950505050505050505050565b6001546001600160a01b031633146103915760405162461bcd60e51b815260206004820152600c60248201526b1d5b985d5d1a1bdc9a5e995960a21b60448201526064016101d0565b6001546103ab906001600160a01b0384811691168361094b565b5050565b6000546060906001600160a01b031633146103dd57604051632a83f42360e01b815260040160405180910390fd5b60026103ec6020840184611352565b60028111156103fd576103fd61132f565b1461041b57604051635934721160e11b815260040160405180910390fd5b600061042a60a084018461136f565b8101906104379190611432565b90506000816020015160028111156104515761045161132f565b1461067757600061046560408501856114bb565b61046f90806114bb565b610478906114db565b6040516304e384ff60e21b815273__$45564d49ccf89091861f66bc85120d7d21$__9163138e13fc916104ae91906004016114e7565b602060405180830381865af41580156104cb573d6000803e3d6000fd5b505050506040513d601f19601f820116820180604052508101906104ef9190611543565b6001600160a01b03166380875df76040518163ffffffff1660e01b815260040160408051808303816000875af115801561052d573d6000803e3d6000fd5b505050506040513d601f19601f820116820180604052508101906105519190611560565b90506001815160018111156105685761056861132f565b146105b55760405162461bcd60e51b815260206004820152601c60248201527f657870656374656420455243323020737570706c7920736f757263650000000060448201526064016101d0565b60015460208201516105d8916001600160a01b039182169116608087013561094b565b60006106066105ea60408701876114bb565b6105f89060208101906114bb565b610601906115a5565b6109db565b90506001600160a01b03811661061f60408701876114bb565b61062990806114bb565b6040516106369190611603565b60405190819003812060808801358252907fd96ad9901991dfe7bfbb1a6e4b05b12a4407aa24ff4050c5f402f1d39af36f1a9060200160405180910390a350505b5050604080516020810190915260008152919050565b60408051808201909152600081526060602082015260006040518060600160405280600a6001600160401b0316815260200160146001600160801b03168152602001846040516020016106f8919060609190911b6bffffffffffffffffffffffff1916815260140190565b60408051601f1981840301815291815291525161071891906020016116a7565b60408051601f198184030181528282019091526004825260208201529392505050565b6040516370a0823160e01b8152306004820152829082906001600160a01b038316906370a0823190602401602060405180830381865afa158015610783573d6000803e3d6000fd5b505050506040513d601f19601f820116820180604052508101906107a791906116f0565b10156107ec5760405162461bcd60e51b8152602060048201526014602482015273696e73756666696369656e742062616c616e636560601b60448201526064016101d0565b600054610806906001600160a01b0383811691168461094b565b6000306001600160a01b031687878560405160240161082793929190611709565b60408051601f198184030181529181526020820180516001600160e01b03166311f7725760e01b1790525161085c9190611742565b6000604051808303816000865af19150503d8060008114610899576040519150601f19603f3d011682016040523d82523d6000602084013e61089e565b606091505b505090508061093d576000546108c1906001600160a01b03848116911685610ab0565b6001546108db906001600160a01b0384811691168561094b565b6040805180820190915260008152606060208201526040516000906109019083906112d8565b604051908190038120868252907fd96ad9901991dfe7bfbb1a6e4b05b12a4407aa24ff4050c5f402f1d39af36f1a9060200160405180910390a3505b505050505050505050505050565b604051636eb1769f60e11b81523060048201526001600160a01b0383811660248301526000919085169063dd62ed3e90604401602060405180830381865afa15801561099b573d6000803e3d6000fd5b505050506040513d601f19601f820116820180604052508101906109bf91906116f0565b90506109d584846109d08585611754565b610b69565b50505050565b805160009060ff16600414610a035760405163c5f8961f60e01b815260040160405180910390fd5b60008260200151806020019051810190610a1d9190611775565b80519091506001600160401b0316600a14610a4b5760405163c5f8961f60e01b815260040160405180910390fd5b80602001516001600160801b0316601414610a795760405163c5f8961f60e01b815260040160405180910390fd5b806040015151601414610a9f5760405163c5f8961f60e01b815260040160405180910390fd5b6040810151601401515b9392505050565b604051636eb1769f60e11b81523060048201526001600160a01b0383811660248301526000919085169063dd62ed3e90604401602060405180830381865afa158015610b00573d6000803e3d6000fd5b505050506040513d601f19601f82011682018060405250810190610b2491906116f0565b905081811015610b605760405163e570110f60e01b81526001600160a01b038416600482015260248101829052604481018390526064016101d0565b6109d584848484035b604080516001600160a01b038416602482015260448082018490528251808303909101815260649091019091526020810180516001600160e01b031663095ea7b360e01b179052610bba8482610c1d565b6109d557604080516001600160a01b038516602482015260006044808301919091528251808303909101815260649091019091526020810180516001600160e01b031663095ea7b360e01b179052610c13908590610cc7565b6109d58482610cc7565b6000806000846001600160a01b031684604051610c3a9190611742565b6000604051808303816000865af19150503d8060008114610c77576040519150601f19603f3d011682016040523d82523d6000602084013e610c7c565b606091505b5091509150818015610ca6575080511580610ca6575080806020019051810190610ca6919061184e565b8015610cbc57506000856001600160a01b03163b115b925050505b92915050565b6000610cdc6001600160a01b03841683610d2f565b90508051600014158015610d01575080806020019051810190610cff919061184e565b155b15610d2a57604051635274afe760e01b81526001600160a01b03841660048201526024016101d0565b505050565b6060610aa98383600084600080856001600160a01b03168486604051610d559190611742565b60006040518083038185875af1925050503d8060008114610d92576040519150601f19603f3d011682016040523d82523d6000602084013e610d97565b606091505b5091509150610da7868383610db1565b9695505050505050565b606082610dc657610dc182610e0d565b610aa9565b8151158015610ddd57506001600160a01b0384163b155b15610e0657604051639996b31560e01b81526001600160a01b03851660048201526024016101d0565b5080610aa9565b805115610e1d5780518082602001fd5b604051630a12f52160e11b815260040160405180910390fd5b50565b60008083601f840112610e4b57600080fd5b5081356001600160401b03811115610e6257600080fd5b602083019150836020828501011115610e7a57600080fd5b9250929050565b600080600060408486031215610e9657600080fd5b83356001600160401b03811115610eac57600080fd5b610eb886828701610e39565b909790965060209590950135949350505050565b6001600160a01b0381168114610e3657600080fd5b60008060008060008060008060008060e08b8d031215610f0057600080fd5b8a35995060208b01356001600160401b0380821115610f1e57600080fd5b610f2a8e838f01610e39565b909b50995060408d0135915080821115610f4357600080fd5b610f4f8e838f01610e39565b909950975060608d0135915080821115610f6857600080fd5b50610f758d828e01610e39565b90965094505060808b0135925060a08b0135610f9081610ecc565b8092505060c08b013590509295989b9194979a5092959850565b60008060408385031215610fbd57600080fd5b8235610fc881610ecc565b946020939093013593505050565b600060208284031215610fe857600080fd5b81356001600160401b03811115610ffe57600080fd5b820160c08185031215610aa957600080fd5b60005b8381101561102b578181015183820152602001611013565b50506000910152565b6000815180845261104c816020860160208601611010565b601f01601f19169290920160200192915050565b602081526000610aa96020830184611034565b634e487b7160e01b600052604160045260246000fd5b604080519081016001600160401b03811182821017156110ab576110ab611073565b60405290565b604051606081016001600160401b03811182821017156110ab576110ab611073565b604051601f8201601f191681016001600160401b03811182821017156110fb576110fb611073565b604052919050565b6001600160401b0381168114610e3657600080fd5b60006040828403121561112a57600080fd5b611132611089565b9050813561113f81611103565b81526020828101356001600160401b038082111561115c57600080fd5b818501915085601f83011261117057600080fd5b81358181111561118257611182611073565b8060051b91506111938483016110d3565b81815291830184019184810190888411156111ad57600080fd5b938501935b838510156111d757843592506111c783610ecc565b82825293850193908501906111b2565b808688015250505050505092915050565b600080604083850312156111fb57600080fd5b82356001600160401b0381111561121157600080fd5b61121d85828601611118565b925050602083013561122e81610ecc565b809150509250929050565b606080825284516001600160401b03169082015260208085015160406080840152805160a084018190526000929182019190839060c08601905b8083101561129c5784516001600160a01b03168252938301936001929092019190830190611273565b508581038387015260ff88511681528288015193506040838201526112c46040820185611034565b945050505050826040830152949350505050565b81516001600160401b031681526020808301518051600092918201908390838601905b808310156113245783516001600160a01b031682529284019260019290920191908401906112fb565b509695505050505050565b634e487b7160e01b600052602160045260246000fd5b60038110610e3657600080fd5b60006020828403121561136457600080fd5b8135610aa981611345565b6000808335601e1984360301811261138657600080fd5b8301803591506001600160401b038211156113a057600080fd5b602001915036819003821315610e7a57600080fd5b60006001600160401b038211156113ce576113ce611073565b50601f01601f191660200190565b600082601f8301126113ed57600080fd5b81356114006113fb826113b5565b6110d3565b81815284602083860101111561141557600080fd5b816020850160208301376000918101602001919091529392505050565b60006020828403121561144457600080fd5b81356001600160401b038082111561145b57600080fd5b908301906060828603121561146f57600080fd5b6114776110b1565b82358152602083013561148981611345565b60208201526040830135828111156114a057600080fd5b6114ac878286016113dc565b60408301525095945050505050565b60008235603e198336030181126114d157600080fd5b9190910192915050565b6000610cc13683611118565b602080825282516001600160401b03168282015282810151604080840152805160608401819052600092918201908390608086019080156113245783516001600160a01b031682529284019260019290920191908401906112fb565b60006020828403121561155557600080fd5b8151610aa981610ecc565b60006040828403121561157257600080fd5b61157a611089565b82516002811061158957600080fd5b8152602083015161159981610ecc565b60208201529392505050565b6000604082360312156115b757600080fd5b6115bf611089565b823560ff811681146115d057600080fd5b815260208301356001600160401b038111156115eb57600080fd5b6115f7368286016113dc565b60208301525092915050565b6000823561161081611103565b6001600160401b0390811683526020908184018583013536879003601e1901811261163a57600080fd5b86016020810190358381111561164f57600080fd5b8060051b360382131561166157600080fd5b919250906000905b8082101561169b57823561167c81610ecc565b6001600160a01b03168452928401929184019160019190910190611669565b50919695505050505050565b602081526001600160401b0382511660208201526001600160801b036020830151166040820152600060408301516060808401526116e86080840182611034565b949350505050565b60006020828403121561170257600080fd5b5051919050565b604081528260408201528284606083013760006060848301015260006060601f19601f8601168301019050826020830152949350505050565b600082516114d1818460208701611010565b80820180821115610cc157634e487b7160e01b600052601160045260246000fd5b6000602080838503121561178857600080fd5b82516001600160401b038082111561179f57600080fd5b90840190606082870312156117b357600080fd5b6117bb6110b1565b82516117c681611103565b8152828401516001600160801b03811681146117e157600080fd5b818501526040830151828111156117f757600080fd5b80840193505086601f84011261180c57600080fd5b8251915061181c6113fb836113b5565b828152878584860101111561183057600080fd5b61183f83868301878701611010565b60408201529695505050505050565b60006020828403121561186057600080fd5b81518015158114610aa957600080fdfea2646970667358221220939482a82d94f8a1de88283976c76c5c20fe6ae1ccd3ce99a8dda91465c2649064736f6c63430008170033","linkReferences":{"../../contracts/src/lib/SubnetIDHelper.sol":{"SubnetIDHelper":[{"start":1403,"length":20}]}}},"methodIdentifiers":{"_admin()":"01bc45c9","_fallibleFundSubnet(bytes,uint256)":"11f77257","_ipcGateway()":"0fdfcfb4","adminTokenIncreaseAllowance(address,uint256)":"500d3d58","executeWithInterchainToken(bytes32,string,bytes,bytes,bytes32,address,uint256)":"29241502","handleIpcMessage((uint8,((uint64,address[]),(uint8,bytes)),((uint64,address[]),(uint8,bytes)),uint64,uint256,bytes))":"a9490a04","interchainTokenService()":"09c6bed9"},"id":101}