{"abi":[{"type":"function","name":"addProviderToAccessList","inputs":[{"name":"provider","type":"address","internalType":"address"}],"outputs":[],"stateMutability":"nonpayable"},{"type":"function","name":"appCID","inputs":[],"outputs":[{"name":"","type":"tuple","internalType":"struct CIDV1","components":[{"name":"prefixes","type":"bytes4","internalType":"bytes4"},{"name":"hash","type":"bytes32","internalType":"bytes32"}]}],"stateMutability":"view"},{"type":"function","name":"changeProvidersAccessType","inputs":[{"name":"accessType","type":"uint8","internalType":"enum IConfig.AccessType"}],"outputs":[],"stateMutability":"nonpayable"},{"type":"function","name":"creationBlock","inputs":[],"outputs":[{"name":"","type":"uint256","internalType":"uint256"}],"stateMutability":"view"},{"type":"function","name":"effectors","inputs":[],"outputs":[{"name":"","type":"tuple[]","internalType":"struct CIDV1[]","components":[{"name":"prefixes","type":"bytes4","internalType":"bytes4"},{"name":"hash","type":"bytes32","internalType":"bytes32"}]}],"stateMutability":"view"},{"type":"function","name":"getComputeUnit","inputs":[{"name":"id","type":"bytes32","internalType":"bytes32"}],"outputs":[{"name":"","type":"tuple","internalType":"struct IWorkerManager.ComputeUnit","components":[{"name":"id","type":"bytes32","internalType":"bytes32"},{"name":"workerId","type":"bytes32","internalType":"bytes32"},{"name":"peerId","type":"bytes32","internalType":"bytes32"},{"name":"provider","type":"address","internalType":"address"},{"name":"joinedEpoch","type":"uint256","internalType":"uint256"}]}],"stateMutability":"view"},{"type":"function","name":"getComputeUnitCount","inputs":[],"outputs":[{"name":"","type":"uint256","internalType":"uint256"}],"stateMutability":"view"},{"type":"function","name":"getComputeUnitCount","inputs":[{"name":"provider","type":"address","internalType":"address"}],"outputs":[{"name":"","type":"uint256","internalType":"uint256"}],"stateMutability":"view"},{"type":"function","name":"getComputeUnits","inputs":[],"outputs":[{"name":"","type":"tuple[]","internalType":"struct IWorkerManager.ComputeUnit[]","components":[{"name":"id","type":"bytes32","internalType":"bytes32"},{"name":"workerId","type":"bytes32","internalType":"bytes32"},{"name":"peerId","type":"bytes32","internalType":"bytes32"},{"name":"provider","type":"address","internalType":"address"},{"name":"joinedEpoch","type":"uint256","internalType":"uint256"}]}],"stateMutability":"view"},{"type":"function","name":"getWorkerCount","inputs":[],"outputs":[{"name":"","type":"uint256","internalType":"uint256"}],"stateMutability":"view"},{"type":"function","name":"isComputePeerExist","inputs":[{"name":"peerId","type":"bytes32","internalType":"bytes32"}],"outputs":[{"name":"","type":"bool","internalType":"bool"}],"stateMutability":"view"},{"type":"function","name":"isProviderAllowed","inputs":[{"name":"account","type":"address","internalType":"address"}],"outputs":[{"name":"","type":"bool","internalType":"bool"}],"stateMutability":"view"},{"type":"function","name":"maxWorkersPerProvider","inputs":[],"outputs":[{"name":"","type":"uint256","internalType":"uint256"}],"stateMutability":"view"},{"type":"function","name":"minWorkers","inputs":[],"outputs":[{"name":"","type":"uint256","internalType":"uint256"}],"stateMutability":"view"},{"type":"function","name":"owner","inputs":[],"outputs":[{"name":"","type":"address","internalType":"address"}],"stateMutability":"view"},{"type":"function","name":"paymentToken","inputs":[],"outputs":[{"name":"","type":"address","internalType":"contract IERC20"}],"stateMutability":"view"},{"type":"function","name":"pricePerWorkerEpoch","inputs":[],"outputs":[{"name":"","type":"uint256","internalType":"uint256"}],"stateMutability":"view"},{"type":"function","name":"providersAccessType","inputs":[],"outputs":[{"name":"","type":"uint8","internalType":"enum IConfig.AccessType"}],"stateMutability":"view"},{"type":"function","name":"removeProviderFromAccessList","inputs":[{"name":"provider","type":"address","internalType":"address"}],"outputs":[],"stateMutability":"nonpayable"},{"type":"function","name":"renounceOwnership","inputs":[],"outputs":[],"stateMutability":"nonpayable"},{"type":"function","name":"setAppCID","inputs":[{"name":"appCID_","type":"tuple","internalType":"struct CIDV1","components":[{"name":"prefixes","type":"bytes4","internalType":"bytes4"},{"name":"hash","type":"bytes32","internalType":"bytes32"}]}],"outputs":[],"stateMutability":"nonpayable"},{"type":"function","name":"targetWorkers","inputs":[],"outputs":[{"name":"","type":"uint256","internalType":"uint256"}],"stateMutability":"view"},{"type":"function","name":"transferOwnership","inputs":[{"name":"newOwner","type":"address","internalType":"address"}],"outputs":[],"stateMutability":"nonpayable"},{"type":"event","name":"AppCIDChanged","inputs":[{"name":"newAppCID","type":"tuple","indexed":false,"internalType":"struct CIDV1","components":[{"name":"prefixes","type":"bytes4","internalType":"bytes4"},{"name":"hash","type":"bytes32","internalType":"bytes32"}]}],"anonymous":false},{"type":"event","name":"ComputeUnitJoined","inputs":[{"name":"peerId","type":"bytes32","indexed":true,"internalType":"bytes32"},{"name":"unitId","type":"bytes32","indexed":false,"internalType":"bytes32"}],"anonymous":false},{"type":"event","name":"ComputeUnitRemoved","inputs":[{"name":"peerId","type":"bytes32","indexed":true,"internalType":"bytes32"},{"name":"unitId","type":"bytes32","indexed":false,"internalType":"bytes32"}],"anonymous":false},{"type":"event","name":"Initialized","inputs":[{"name":"version","type":"uint8","indexed":false,"internalType":"uint8"}],"anonymous":false},{"type":"event","name":"OwnershipTransferred","inputs":[{"name":"previousOwner","type":"address","indexed":true,"internalType":"address"},{"name":"newOwner","type":"address","indexed":true,"internalType":"address"}],"anonymous":false},{"type":"event","name":"ProviderAddedToAccessList","inputs":[{"name":"provider","type":"address","indexed":false,"internalType":"address"}],"anonymous":false},{"type":"event","name":"ProviderRemovedFromAccessList","inputs":[{"name":"provider","type":"address","indexed":false,"internalType":"address"}],"anonymous":false},{"type":"event","name":"ProvidersAccessTypeChanged","inputs":[{"name":"newAccessType","type":"uint8","indexed":false,"internalType":"enum IConfig.AccessType"}],"anonymous":false},{"type":"event","name":"WorkerIdUpdated","inputs":[{"name":"computeUnitId","type":"bytes32","indexed":false,"internalType":"bytes32"},{"name":"workerId","type":"bytes32","indexed":false,"internalType":"bytes32"}],"anonymous":false},{"type":"error","name":"OwnableInvalidOwner","inputs":[{"name":"owner","type":"address","internalType":"address"}]},{"type":"error","name":"OwnableUnauthorizedAccount","inputs":[{"name":"account","type":"address","internalType":"address"}]}],"bytecode":{"object":"0x6080806040523461001657610f51908161001c8239f35b600080fdfe60806040908082526004908136101561001757600080fd5b60009060e092823560e01c918263108d2f5214610bde575081631763451414610ba0578163176474cf14610b0e5781632943dcab14610ad05781632db3119314610a925781633013ce2914610a4a5781633e8ae1ae14610a0f578163444e6a5a146109935781634b66a309146107fd5781634d7599f1146107bf578163636fcefb146106cf5781636cd1344814610691578163715018a61461063957816373134c1514610540578163745e920b146104795781638a0c725b1461043b5781638da5cb5b146104055781639bc6686814610395578163cb45f02314610348578163d4773ff01461030c578163e2581238146102b2578163f2fde38b14610221575063fc1e5e2a1461012657600080fd5b3461021e578060031936011261021e5782907f8953f5482bc1a621075e75537625fa3bd2025e7df7baf6ba1dbfbf2212912d0e90815461016581610d96565b9061017285519283610d73565b80825260209586830190819585528785209085925b8484106101dd575050505050835194859481860192828752518093528086019493905b8382106101b75786860387f35b9184965082866101cd6001949698849851610c4f565b01960192018695949293916101aa565b60028a6001928b9c99989a9b516101f381610d58565b63ffffffff60e01b8754871b1681528487015483820152815201930193019291989796949598610187565b80fd5b905083346102ae5760203660031901126102ae576001600160a01b038235818116939192908490036102aa57610255610e02565b8315610294575050600080516020610e9c83398151915280546001600160a01b03198116841790915516600080516020610e7c8339815191528380a380f35b51631e4fbdf760e01b8152908101849052602490fd5b8480fd5b8280fd5b849150346102ae5760203660031901126102ae57356001600160a01b038116908190036102ae57828291602094527fec986952a0671e4b2e5ec4461085fb880bc7a7b88668240f8d55173039155d22845220549051908152f35b8285346103445781600319360112610344576103409060ff600080516020610e5c8339815191525416905191829182610c68565b0390f35b5080fd5b849150346102ae5760203660031901126102ae578160209360ff923581527fec986952a0671e4b2e5ec4461085fb880bc7a7b88668240f8d55173039155d24855220541690519015158152f35b84833461021e578060031936011261021e57602082516103b481610d58565b828152015280516103c481610d58565b63ffffffff60e01b600080516020610ebc8339815191525460e01b168152600080516020610e3c83398151915254602082015261040382518092610c4f565bf35b828534610344578160031936011261034457600080516020610e9c8339815191525490516001600160a01b039091168152602090f35b8285346103445781600319360112610344576020907f8953f5482bc1a621075e75537625fa3bd2025e7df7baf6ba1dbfbf2212912d0c549051908152f35b9250503461021e57602036600319011261021e578290610497610dad565b5082358152600080516020610efc83398151915260205220908251916104bc83610d27565b805483526001810154602084015260028101548484015260038101546001600160a01b03166060840181905290820154608084015215610505575061040360a092518092610c19565b606490602084519162461bcd60e51b8352820152601560248201527410dbdb5c1d5d19555b9a5d081b9bdd08199bdd5b99605a1b6044820152fd5b905083346102ae5760203660031901126102ae5781356001600160a01b038116929083900361063557610571610e02565b60ff600080516020610e5c8339815191525416600381101561062257156105e25750816020917f4c26e4de691e265be6cf03e639754839907bf74687cd524a6734851331527ffd938552600080516020610edc8339815191528352808520600160ff1982541617905551908152a180f35b6020606492519162461bcd60e51b8352820152601b60248201527a436f6e6669673a206163636573732074797065206973204e4f4e4560281b6044820152fd5b634e487b7160e01b855260218252602485fd5b8380fd5b823461021e578060031936011261021e57610652610e02565b600080516020610e9c83398151915280546001600160a01b0319811690915581906001600160a01b0316600080516020610e7c8339815191528280a380f35b8285346103445781600319360112610344576020907f8953f5482bc1a621075e75537625fa3bd2025e7df7baf6ba1dbfbf2212912d0d549051908152f35b905083346102ae5760203660031901126102ae578135916003831015610635576106f7610e02565b600080516020610e5c8339815191529081549060ff821660038110156107ac57851461075e575060ff191660ff8416179055517f1f5a251428f76335a835fcae94ab6a9bcf09ac33bd3c782eb6a81bdf878a73939181906107589082610c68565b0390a180f35b608490602085519162461bcd60e51b8352820152602260248201527f436f6e6669673a20616363657373207479706520697320616c72656164792073604482015261195d60f21b6064820152fd5b634e487b7160e01b875260218252602487fd5b8285346103445781600319360112610344576020907fec986952a0671e4b2e5ec4461085fb880bc7a7b88668240f8d55173039155d21549051908152f35b849150346102ae57826003193601126102ae5781519081927fec986952a0671e4b2e5ec4461085fb880bc7a7b88668240f8d55173039155d2584815491828652602080960190885285882092885b8782821061097d5750505061086292500385610d73565b83519461088661087187610d96565b9661087e84519889610d73565b808852610d96565b601f190184825b82811061096757505050805b855181101561091c57806108af60019288610dd8565b518352600080516020610efc8339815191528652838320858551916108d383610d27565b805483528481015489840152600281015487840152848060a01b0360038201541660608401520154608082015261090a828a610dd8565b526109158189610dd8565b5001610899565b50908584918051928080850192818652845180945285019301945b8281106109445784840385f35b9091928260a0826109586001948a51610c19565b01960191019492919094610937565b61096f610dad565b82828b01015201859061088d565b855484526001958601958a95509301920161084b565b849150346102ae5760203660031901126102ae57356001600160a01b03811691908290036102ae577f38fb081a0b484406977bd94ff8edb79be44b5ca514130361182516b39e2c4528916020916109e8610e02565b818552600080516020610edc8339815191528352808520805460ff1916905551908152a180f35b849150346102ae5760203660031901126102ae5735916001600160a01b038316830361021e5750610a41602092610c91565b90519015158152f35b8285346103445781600319360112610344577f8953f5482bc1a621075e75537625fa3bd2025e7df7baf6ba1dbfbf2212912d085490516001600160a01b039091168152602090f35b8285346103445781600319360112610344576020907f8953f5482bc1a621075e75537625fa3bd2025e7df7baf6ba1dbfbf2212912d0a549051908152f35b8285346103445781600319360112610344576020907f8953f5482bc1a621075e75537625fa3bd2025e7df7baf6ba1dbfbf2212912d0b549051908152f35b849150346102ae57816003193601126102ae57610b29610e02565b35906001600160e01b03198216808303610635577fc820a66d3bdd50a45cf12cda6dc8ec9e94fb5123edd7da736eea18316f8523a092600080516020610ebc8339815191529060e01c63ffffffff1982541617905560243580600080516020610e3c8339815191525582519182526020820152a180f35b8285346103445781600319360112610344576020907f8953f5482bc1a621075e75537625fa3bd2025e7df7baf6ba1dbfbf2212912d05549051908152f35b8390346103445781600319360112610344576020907fec986952a0671e4b2e5ec4461085fb880bc7a7b88668240f8d55173039155d20548152f35b8051825260208082015190830152604080820151908301526060808201516001600160a01b031690830152608090810151910152565b80516001600160e01b0319168252602090810151910152565b919060208301926003821015610c7b5752565b634e487b7160e01b600052602160045260246000fd5b60ff600080516020610e5c83398151915254166003811015610c7b578015610d205760018114610cf457600214610cc85750600090565b6001600160a01b03166000908152600080516020610edc833981519152602052604090205460ff161590565b506001600160a01b03166000908152600080516020610edc833981519152602052604090205460ff1690565b5050600190565b60a081019081106001600160401b03821117610d4257604052565b634e487b7160e01b600052604160045260246000fd5b604081019081106001600160401b03821117610d4257604052565b601f909101601f19168101906001600160401b03821190821017610d4257604052565b6001600160401b038111610d425760051b60200190565b60405190610dba82610d27565b60006080838281528260208201528260408201528260608201520152565b8051821015610dec5760209160051b010190565b634e487b7160e01b600052603260045260246000fd5b600080516020610e9c833981519152546001600160a01b03163303610e2357565b60405163118cdaa760e01b8152336004820152602490fdfe8953f5482bc1a621075e75537625fa3bd2025e7df7baf6ba1dbfbf2212912d078953f5482bc1a621075e75537625fa3bd2025e7df7baf6ba1dbfbf2212912d0f8be0079c531659141344cd1fd0a4f28419497f9722a3daafe3b4186f6b6457e0b13d3e7783d509d8d65d3e1e62ec0b103a07e0cbfa1ee74ae19127f297dddfcc8953f5482bc1a621075e75537625fa3bd2025e7df7baf6ba1dbfbf2212912d068953f5482bc1a621075e75537625fa3bd2025e7df7baf6ba1dbfbf2212912d10ec986952a0671e4b2e5ec4461085fb880bc7a7b88668240f8d55173039155d23a2646970667358221220c17f5fc548f98c79257afbee3a7630b38fa8e7730671da36ac48619dead94bce64736f6c63430008180033","linkReferences":{}},"methodIdentifiers":{"addProviderToAccessList(address)":"73134c15","appCID()":"9bc66868","changeProvidersAccessType(uint8)":"636fcefb","creationBlock()":"17634514","effectors()":"fc1e5e2a","getComputeUnit(bytes32)":"745e920b","getComputeUnitCount()":"108d2f52","getComputeUnitCount(address)":"e2581238","getComputeUnits()":"4b66a309","getWorkerCount()":"4d7599f1","isComputePeerExist(bytes32)":"cb45f023","isProviderAllowed(address)":"3e8ae1ae","maxWorkersPerProvider()":"8a0c725b","minWorkers()":"2db31193","owner()":"8da5cb5b","paymentToken()":"3013ce29","pricePerWorkerEpoch()":"6cd13448","providersAccessType()":"d4773ff0","removeProviderFromAccessList(address)":"444e6a5a","renounceOwnership()":"715018a6","setAppCID((bytes4,bytes32))":"176474cf","targetWorkers()":"2943dcab","transferOwnership(address)":"f2fde38b"},"storageLayout":{"storage":[{"astId":4469,"contract":"src/deal/WorkerManager.sol:WorkerManager","label":"_initialized","offset":0,"slot":"0","type":"t_uint8"},{"astId":4472,"contract":"src/deal/WorkerManager.sol:WorkerManager","label":"_initializing","offset":1,"slot":"0","type":"t_bool"}],"types":{"t_bool":{"encoding":"inplace","label":"bool","numberOfBytes":"1"},"t_uint8":{"encoding":"inplace","label":"uint8","numberOfBytes":"1"}}},"devdoc":{"version":1,"kind":"dev","methods":{"addProviderToAccessList(address)":{"details":"Adds a provider to the access list"},"appCID()":{"details":"Returns the app CID"},"changeProvidersAccessType(uint8)":{"details":"Change the providers access type"},"creationBlock()":{"details":"Returns the creation block of the deal"},"effectors()":{"details":"Returns the effector CIDs"},"getComputeUnit(bytes32)":{"details":"Returns the compute unit info by ID"},"getComputeUnitCount()":{"details":"Returns total number of compute units"},"getComputeUnitCount(address)":{"details":"Returns the compute units by provider"},"getComputeUnits()":{"details":"Returns the compute units info by provider"},"getWorkerCount()":{"details":"Returns the worker count. Worker is a compute unit that has a worker ID"},"isComputePeerExist(bytes32)":{"details":"Returns the boolean flag indicating whether the peer exists in the deal"},"isProviderAllowed(address)":{"details":"Returns the boolean indicating whether the provider is allowed or not"},"maxWorkersPerProvider()":{"details":"Returns the max number of workers per provider"},"minWorkers()":{"details":"Returns the min number of workers"},"owner()":{"details":"Returns the address of the current owner."},"paymentToken()":{"details":"Returns the payment token address"},"pricePerWorkerEpoch()":{"details":"Returns the price per worker per epoch"},"providersAccessType()":{"details":"Returns the providers access type"},"removeProviderFromAccessList(address)":{"details":"Removes a provider from the access list"},"renounceOwnership()":{"details":"Leaves the contract without owner. It will not be possible to call `onlyOwner` functions. Can only be called by the current owner. NOTE: Renouncing ownership will leave the contract without an owner, thereby disabling any functionality that is only available to the owner."},"setAppCID((bytes4,bytes32))":{"details":"Sets the app CID"},"targetWorkers()":{"details":"Returns the max number of workers"},"transferOwnership(address)":{"details":"Transfers ownership of the contract to a new account (`newOwner`). Can only be called by the current owner."}},"events":{"AppCIDChanged((bytes4,bytes32))":{"details":"Emitted when the app CID is changed","params":{"newAppCID":"The new app CID"}},"ComputeUnitJoined(bytes32,bytes32)":{"details":"Emitted when a new compute unit is added","params":{"unitId":"The compute unit ID"}},"ComputeUnitRemoved(bytes32,bytes32)":{"details":"Emitted when a compute unit is removed","params":{"unitId":"The compute unit ID"}},"Initialized(uint8)":{"details":"Triggered when the contract has been initialized or reinitialized."},"ProviderAddedToAccessList(address)":{"details":"Emitted when a provider is added to the access list","params":{"provider":"The provider address"}},"ProviderRemovedFromAccessList(address)":{"details":"Emitted when a provider is removed from the access list","params":{"provider":"The provider address"}},"ProvidersAccessTypeChanged(uint8)":{"details":"Emitted when the providers access type is changed","params":{"newAccessType":"The new access type"}},"WorkerIdUpdated(bytes32,bytes32)":{"details":"Emitted when a worker ID is updated","params":{"computeUnitId":"The compute unit","workerId":"The new worker ID"}}},"errors":{"OwnableInvalidOwner(address)":[{"details":"The owner is not a valid owner account. (eg. `address(0)`)"}],"OwnableUnauthorizedAccount(address)":[{"details":"The caller account is not authorized to perform an operation."}]}},"id":95}