{"abi":[{"type":"constructor","inputs":[{"name":"core_","type":"address","internalType":"contract ICore"}],"stateMutability":"nonpayable"},{"type":"function","name":"core","inputs":[],"outputs":[{"name":"","type":"address","internalType":"contract ICore"}],"stateMutability":"view"},{"type":"function","name":"createCommitment","inputs":[{"name":"peerId","type":"bytes32","internalType":"bytes32"},{"name":"duration","type":"uint256","internalType":"uint256"},{"name":"delegator","type":"address","internalType":"address"},{"name":"rewardDelegationRate","type":"uint256","internalType":"uint256"}],"outputs":[{"name":"","type":"bytes32","internalType":"bytes32"}],"stateMutability":"nonpayable"},{"type":"function","name":"depositCollateral","inputs":[{"name":"commitmentIds","type":"bytes32[]","internalType":"bytes32[]"}],"outputs":[],"stateMutability":"payable"},{"type":"function","name":"finishCommitment","inputs":[{"name":"commitmentId","type":"bytes32","internalType":"bytes32"}],"outputs":[],"stateMutability":"nonpayable"},{"type":"function","name":"getCommitment","inputs":[{"name":"commitmentId","type":"bytes32","internalType":"bytes32"}],"outputs":[{"name":"","type":"tuple","internalType":"struct ICapacity.CommitmentView","components":[{"name":"status","type":"uint8","internalType":"enum ICapacity.CCStatus"},{"name":"peerId","type":"bytes32","internalType":"bytes32"},{"name":"collateralPerUnit","type":"uint256","internalType":"uint256"},{"name":"unitCount","type":"uint256","internalType":"uint256"},{"name":"startEpoch","type":"uint256","internalType":"uint256"},{"name":"endEpoch","type":"uint256","internalType":"uint256"},{"name":"rewardDelegatorRate","type":"uint256","internalType":"uint256"},{"name":"delegator","type":"address","internalType":"address"},{"name":"totalFailCount","type":"uint256","internalType":"uint256"},{"name":"failedEpoch","type":"uint256","internalType":"uint256"},{"name":"exitedUnitCount","type":"uint256","internalType":"uint256"}]}],"stateMutability":"view"},{"type":"function","name":"getGlobalNonce","inputs":[],"outputs":[{"name":"","type":"bytes32","internalType":"bytes32"}],"stateMutability":"view"},{"type":"function","name":"getStatus","inputs":[{"name":"commitmentId","type":"bytes32","internalType":"bytes32"}],"outputs":[{"name":"","type":"uint8","internalType":"enum ICapacity.CCStatus"}],"stateMutability":"view"},{"type":"function","name":"initialize","inputs":[{"name":"initGlobalNonce_","type":"bytes32","internalType":"bytes32"}],"outputs":[],"stateMutability":"nonpayable"},{"type":"function","name":"multicall","inputs":[{"name":"data","type":"bytes[]","internalType":"bytes[]"}],"outputs":[{"name":"results","type":"bytes[]","internalType":"bytes[]"}],"stateMutability":"nonpayable"},{"type":"function","name":"onUnitMovedToDeal","inputs":[{"name":"commitmentId","type":"bytes32","internalType":"bytes32"},{"name":"unitId","type":"bytes32","internalType":"bytes32"}],"outputs":[],"stateMutability":"nonpayable"},{"type":"function","name":"onUnitReturnedFromDeal","inputs":[{"name":"commitmentId","type":"bytes32","internalType":"bytes32"},{"name":"unitId","type":"bytes32","internalType":"bytes32"}],"outputs":[],"stateMutability":"nonpayable"},{"type":"function","name":"owner","inputs":[],"outputs":[{"name":"","type":"address","internalType":"address"}],"stateMutability":"view"},{"type":"function","name":"proxiableUUID","inputs":[],"outputs":[{"name":"","type":"bytes32","internalType":"bytes32"}],"stateMutability":"view"},{"type":"function","name":"removeCUFromCC","inputs":[{"name":"commitmentId","type":"bytes32","internalType":"bytes32"},{"name":"unitIds","type":"bytes32[]","internalType":"bytes32[]"}],"outputs":[],"stateMutability":"nonpayable"},{"type":"function","name":"removeCommitment","inputs":[{"name":"commitmentId","type":"bytes32","internalType":"bytes32"}],"outputs":[],"stateMutability":"nonpayable"},{"type":"function","name":"submitProof","inputs":[{"name":"unitId","type":"bytes32","internalType":"bytes32"},{"name":"localUnitNonce","type":"bytes32","internalType":"bytes32"},{"name":"resultHash","type":"bytes32","internalType":"bytes32"}],"outputs":[],"stateMutability":"nonpayable"},{"type":"function","name":"totalRewards","inputs":[{"name":"commitmentId","type":"bytes32","internalType":"bytes32"}],"outputs":[{"name":"","type":"uint256","internalType":"uint256"}],"stateMutability":"view"},{"type":"function","name":"unlockedRewards","inputs":[{"name":"commitmentId","type":"bytes32","internalType":"bytes32"}],"outputs":[{"name":"","type":"uint256","internalType":"uint256"}],"stateMutability":"view"},{"type":"function","name":"upgradeTo","inputs":[{"name":"newImplementation","type":"address","internalType":"address"}],"outputs":[],"stateMutability":"nonpayable"},{"type":"function","name":"upgradeToAndCall","inputs":[{"name":"newImplementation","type":"address","internalType":"address"},{"name":"data","type":"bytes","internalType":"bytes"}],"outputs":[],"stateMutability":"payable"},{"type":"function","name":"withdrawReward","inputs":[{"name":"commitmentId","type":"bytes32","internalType":"bytes32"}],"outputs":[],"stateMutability":"nonpayable"},{"type":"event","name":"AdminChanged","inputs":[{"name":"previousAdmin","type":"address","indexed":false,"internalType":"address"},{"name":"newAdmin","type":"address","indexed":false,"internalType":"address"}],"anonymous":false},{"type":"event","name":"BeaconUpgraded","inputs":[{"name":"beacon","type":"address","indexed":true,"internalType":"address"}],"anonymous":false},{"type":"event","name":"CollateralDeposited","inputs":[{"name":"commitmentId","type":"bytes32","indexed":true,"internalType":"bytes32"},{"name":"totalCollateral","type":"uint256","indexed":false,"internalType":"uint256"}],"anonymous":false},{"type":"event","name":"CommitmentActivated","inputs":[{"name":"peerId","type":"bytes32","indexed":true,"internalType":"bytes32"},{"name":"commitmentId","type":"bytes32","indexed":true,"internalType":"bytes32"},{"name":"startEpoch","type":"uint256","indexed":false,"internalType":"uint256"},{"name":"endEpoch","type":"uint256","indexed":false,"internalType":"uint256"},{"name":"unitIds","type":"bytes32[]","indexed":false,"internalType":"bytes32[]"}],"anonymous":false},{"type":"event","name":"CommitmentCreated","inputs":[{"name":"peerId","type":"bytes32","indexed":true,"internalType":"bytes32"},{"name":"commitmentId","type":"bytes32","indexed":false,"internalType":"bytes32"},{"name":"duration","type":"uint256","indexed":false,"internalType":"uint256"},{"name":"delegator","type":"address","indexed":false,"internalType":"address"},{"name":"rewardDelegationRate","type":"uint256","indexed":false,"internalType":"uint256"},{"name":"fltCollateralPerUnit","type":"uint256","indexed":false,"internalType":"uint256"}],"anonymous":false},{"type":"event","name":"CommitmentFailed","inputs":[{"name":"commitmentId","type":"bytes32","indexed":true,"internalType":"bytes32"},{"name":"failedEpoch","type":"uint256","indexed":false,"internalType":"uint256"}],"anonymous":false},{"type":"event","name":"CommitmentFinished","inputs":[{"name":"commitmentId","type":"bytes32","indexed":true,"internalType":"bytes32"}],"anonymous":false},{"type":"event","name":"CommitmentRemoved","inputs":[{"name":"commitmentId","type":"bytes32","indexed":true,"internalType":"bytes32"}],"anonymous":false},{"type":"event","name":"CommitmentStatsUpdated","inputs":[{"name":"commitmentId","type":"bytes32","indexed":false,"internalType":"bytes32"},{"name":"totalFailCount","type":"uint256","indexed":false,"internalType":"uint256"},{"name":"exitedUnitCount","type":"uint256","indexed":false,"internalType":"uint256"},{"name":"activeUnitCount","type":"uint256","indexed":false,"internalType":"uint256"},{"name":"nextAdditionalActiveUnitCount","type":"uint256","indexed":false,"internalType":"uint256"},{"name":"changedEpoch","type":"uint256","indexed":false,"internalType":"uint256"}],"anonymous":false},{"type":"event","name":"Initialized","inputs":[{"name":"version","type":"uint8","indexed":false,"internalType":"uint8"}],"anonymous":false},{"type":"event","name":"ProofSubmitted","inputs":[{"name":"commitmentId","type":"bytes32","indexed":true,"internalType":"bytes32"},{"name":"unitId","type":"bytes32","indexed":true,"internalType":"bytes32"},{"name":"localUnitNonce","type":"bytes32","indexed":false,"internalType":"bytes32"}],"anonymous":false},{"type":"event","name":"RewardWithdrawn","inputs":[{"name":"commitmentId","type":"bytes32","indexed":true,"internalType":"bytes32"},{"name":"amount","type":"uint256","indexed":false,"internalType":"uint256"}],"anonymous":false},{"type":"event","name":"UnitActivated","inputs":[{"name":"commitmentId","type":"bytes32","indexed":true,"internalType":"bytes32"},{"name":"unitId","type":"bytes32","indexed":true,"internalType":"bytes32"},{"name":"startEpoch","type":"uint256","indexed":false,"internalType":"uint256"}],"anonymous":false},{"type":"event","name":"UnitDeactivated","inputs":[{"name":"commitmentId","type":"bytes32","indexed":true,"internalType":"bytes32"},{"name":"unitId","type":"bytes32","indexed":true,"internalType":"bytes32"}],"anonymous":false},{"type":"event","name":"Upgraded","inputs":[{"name":"implementation","type":"address","indexed":true,"internalType":"address"}],"anonymous":false},{"type":"error","name":"BytesLengthMismatch","inputs":[{"name":"expected","type":"uint256","internalType":"uint256"},{"name":"actual","type":"uint256","internalType":"uint256"}]},{"type":"error","name":"CapacityCommitmentIsActive","inputs":[{"name":"status","type":"uint8","internalType":"enum ICapacity.CCStatus"}]},{"type":"error","name":"CapacityCommitmentIsNotActive","inputs":[{"name":"status","type":"uint8","internalType":"enum ICapacity.CCStatus"}]},{"type":"error","name":"TooManyProofs","inputs":[]}],"bytecode":{"object":"0x60c0346200023357601f62005c0b38819003918201601f19168301916001600160401b0383118484101762000238578084926020946040528339810103126200023357516001600160a01b038116810362000233573060805260a05260005460ff8160081c16620001de5760ff80821603620001a2575b6040516159bc90816200024f8239608051818181611e2f01528181611f2a01526135f1015260a05181818161011901528181610173015281816101c201528181610471015281816105f8015281816106da0152818161097901528181610eba01528181611058015281816114e2015281816115360152818161160d0152818161167801528181611c2f01528181611f8c015281816121d50152818161221d015281816124160152818161255d01528181612628015281816128c301528181612bcb01528181612fc1015281816130fe01528181613194015281816131d901528181613225015281816135600152818161364f01528181613db601528181613f590152818161403f015281816141a10152818161477a01528181614bd801528181614ce70152614f1e0152f35b60ff90811916176000557f7f26b83ff96e1f2b6a682f133852f6798a09c465da95921460cefb3847402498602060405160ff8152a13862000076565b60405162461bcd60e51b815260206004820152602760248201527f496e697469616c697a61626c653a20636f6e747261637420697320696e697469604482015266616c697a696e6760c81b6064820152608490fd5b600080fd5b634e487b7160e01b600052604160045260246000fdfe6080604052600436101561001257600080fd5b60003560e01c80633659cfe6146135cc5780633d081790146135135780633d5f526c14612f7f578063474b580914612b9a5780634ece5685146121a65780634f1ef28614611edb57806352d1902d14611e1c5780635de28ae014611def5780637795820c14611b79578063886f0e87146114a35780638da5cb5b146114765780638e7af1d11461101857806392163b4b14610ffd5780639498bd7114610e30578063ac9650d814610cd3578063ba50cbd414610950578063d6a1c7f8146106a5578063de64484914610662578063dee7f881146105cb578063ea03ef521461014d5763f2f4eb261461010357600080fd5b34610148576000366003190112610148576040517f00000000000000000000000000000000000000000000000000000000000000006001600160a01b03168152602090f35b600080fd5b34610148576020366003190112610148576040516380f5560560e01b81526020816004817f00000000000000000000000000000000000000000000000000000000000000006001600160a01b03165afa9081156103825760009161059c575b50604051630ecce30160e31b81526020816004817f00000000000000000000000000000000000000000000000000000000000000006001600160a01b03165afa9081156103825760009161056a575b506004356000526000805160206158e783398151915260205260406000209060018201546040516321b9a09560e21b815281600482015260808160248160018060a01b0389165afa9081156103825760009161053b575b50835492600660ff85161015806104f25760ff851615158061052a575b610508576104f257600460ff85161490811591610454575b50156103ec57604001519182600f8501540361038e5760ff191660051783556001600160a01b0384163b15610148576040516332763a3760e11b8152600481019190915260006024820181905290938490604490829084906001600160a01b03165af1908115610382576103499361033092610373575b5061032a601061031f60018060a01b03600587015416936002870154613bca565b940193845490613bdd565b90614dcb565b6001600160a01b03610340613f44565b16905490614dcb565b6004357f9e2d7a240cc27393d69de7eebd70ec786ebc4d7a123669543c02276b488118dc600080a2005b61037c906138d4565b846102fe565b6040513d6000823e3d90fd5b60405162461bcd60e51b815260206004820152603060248201527f466f722066696e69736820636f6d6d69746d656e7420616c6c20756e6974732060448201526f1cda1bdd5b1908189948195e1a5d195960821b6064820152608490fd5b60405162461bcd60e51b815260206004820152603a60248201527f436170616369747920636f6d6d69746d656e74206973206661696c656420616e60448201527919081b9bdd08195b9bdd59da08195c1bd8da1cc81c185cdcd95960321b6064820152608490fd5b600c860154604051636f16797760e01b81529192506020826004817f00000000000000000000000000000000000000000000000000000000000000006001600160a01b03165afa908115610382576000916104bc575b6104b49250613bea565b111586610287565b90506020823d6020116104ea575b816104d760209383613954565b81010312610148576104b49151906104aa565b3d91506104ca565b634e487b7160e01b600052602160045260246000fd5b604051636d25971960e11b81526024906105286004820160ff89166139c9565bfd5b50506000600460ff8616141561026f565b61055d915060803d608011610563575b6105558183613954565b810190613b75565b85610252565b503d61054b565b90506020813d602011610594575b8161058560209383613954565b810103126101485751826101fb565b3d9150610578565b6105be915060203d6020116105c4575b6105b68183613954565b810190613aca565b816101ac565b503d6105ac565b34610148576105d936613a16565b6040516380f5560560e01b81526001600160a01b0392906020816004817f000000000000000000000000000000000000000000000000000000000000000088165afa80156103825761063f9461063a92600092610641575b501633146140fa565b61417d565b005b61065b91925060203d6020116105c4576105b68183613954565b9086610631565b34610148576020366003190112610148576004356000526000805160206158e7833981519152602052602061069d6011604060002001615580565b604051908152f35b3461014857602080600319360112610148576040516380f5560560e01b81526004803592906001600160a01b039082908490817f000000000000000000000000000000000000000000000000000000000000000085165afa92831561038257600093610931575b50836000526000805160206158e7833981519152808352600191806001604060002001549516906040516321b9a09560e21b8152866004820152608081602481865afa90811561038257600091610912575b50519060405191631ab2f71960e31b8352600483015260c082602481865afa801561038257610799926000916108e3575b5051163314613fc9565b6107a286613d96565b9460068610156104f2576107b96002809714613af9565b813b15610148576000916044839260405194859384926332763a3760e11b845260048401528160248401525af18015610382576108d4575b5084600052825260126040600020600081556000600182015560006002820155600060038201556000600482015560006005820155600060068201556108396007820161415f565b610845600c820161415f565b6000601182015501918254926000815583610883575b857f159bd9560f82a1e39125a438288d0cfb97f2dd09bd7338cf55ef5e8c566cff44600080a2005b6001600160ff1b03841684036108be576000526000209160011b8201915b8281106108ae578061085b565b60008082558282015583016108a1565b634e487b7160e01b600052601160045260246000fd5b6108dd906138d4565b856107f1565b610905915060c03d60c01161090b575b6108fd8183613954565b810190613c0e565b8961078f565b503d6108f3565b61092b915060803d608011610563576105558183613954565b8861075e565b610949919350823d84116105c4576105b68183613954565b918461070c565b346101485761095e36613a16565b6040516380f5560560e01b8082529192916001600160a01b037f00000000000000000000000000000000000000000000000000000000000000008116929091906020908181600481885afa8015610382576109c591600091610cb6575b50841633146140fa565b6040519182528082600481875afa91821561038257600092610c97575b50604051630ecce30160e31b8152918183600481885afa92831561038257600093610c68575b50856000526000805160206158e78339815191528252604060002090608060018301546040519283916321b9a09560e21b83526004830152816024988992165afa90811561038257600091610c49575b5087600052601382018352604060002090610a7c6006840154600385015490613bea565b90610a938287610a8b876145ef565b9384886146e3565b610a9e82868c6149f0565b6006811015610c345760018103610c185750840151840151610ac291868486614ea3565b50600160ff19825416179055600a810194610add8654614152565b8655604051637e81538160e01b81528381600481855afa93841561038257600094610be8575b506000199380850191508111610bd357813b15610148576000918683926040519485938492634597226960e11b845260048401525af1801561038257610bc4575b50600881015493600b600f8301549654920154928401938411610bb0575091610b86916000805160206158078339815191529594936040519586958987613c9e565b0390a17fbd9cde1bbc961036d34368ae328c38917036a98eacfb025a1ff6d2c6235d0a14600080a3005b634e487b7160e01b60009081526011600452fd5b610bcd906138d4565b87610b44565b85634e487b7160e01b60005260116004526000fd5b9080929450813d8311610c11575b610c008183613954565b810103126101485751918880610b03565b503d610bf6565b6040516242963960e51b815288916105289060048301906139c9565b87634e487b7160e01b60005260216004526000fd5b610c62915060803d608011610563576105558183613954565b88610a58565b9092508181813d8311610c90575b610c808183613954565b8101031261014857519187610a08565b503d610c76565b81610caf9293503d84116105c4576105b68183613954565b90866109e2565b610ccd9150833d85116105c4576105b68183613954565b886109bb565b3461014857602080600319360112610148576001600160401b0360043581811161014857610d059036906004016138a4565b9091610d1082613bf7565b92610d1e6040519485613954565b828452610d2a83613bf7565b601f19018560005b828110610e215750505060005b838110610da457604080518781528651818901819052600092600582901b8301810191898b01918b9085015b828710610d785785850386f35b909192938280610d94600193603f198a820301865288516139d6565b9601920196019592919092610d6b565b8060051b820135601e198336030181121561014857820190813591848311610148578701823603811361014857610de2610e05916001943691613992565b600080610ded615537565b928b81519101305af4610dfe613d10565b9030615709565b610e0f82886140e6565b52610e1a81876140e6565b5001610d3f565b60608782018301528101610d32565b3461014857602080600319360112610148576000549060ff8260081c161591828093610ff0575b8015610fd9575b15610f7d5760ff19811660011760005582610f6b575b5060005491610e9160ff8460081c16610e8c816154d7565b6154d7565b600480356000805160206157a783398151915255604051630ecce30160e31b81529083908290817f00000000000000000000000000000000000000000000000000000000000000006001600160a01b03165afa90811561038257600091610f3e575b506000805160206157c783398151915255610f0a57005b7f7f26b83ff96e1f2b6a682f133852f6798a09c465da95921460cefb38474024989161ff00191660005560405160018152a1005b90508281813d8311610f64575b610f558183613954565b81010312610148575184610ef3565b503d610f4b565b61ffff19166101011760005582610e74565b60405162461bcd60e51b815260048101839052602e60248201527f496e697469616c697a61626c653a20636f6e747261637420697320616c72656160448201526d191e481a5b9a5d1a585b1a5e995960921b6064820152608490fd5b50303b158015610e5e5750600160ff821614610e5e565b50600160ff821610610e57565b3461014857600036600319011261014857602061069d61402a565b34610148576040366003190112610148576024356001600160401b038111610148576110489036906004016138a4565b6040516380f5560560e01b8152917f00000000000000000000000000000000000000000000000000000000000000006001600160a01b03169190602084600481865afa92831561038257600494600094611454575b5060209060405195868092630ecce30160e31b82525afa93841561038257600094611420575b506004356000526000805160206158e78339815191526020526040600020926110f56006850154600386015490613bea565b60018501546040516321b9a09560e21b815260048101829052946080866024816001600160a01b0388165afa958615610382576000966113ff575b508551604051631ab2f71960e31b8152600481019190915260c0816024816001600160a01b0389165afa80156103825761117e916000916113e0575b50516001600160a01b03163314613fc9565b611194838961118c8a6145ef565b98898b6146e3565b6111a187896004356149f0565b60068110156104f257801515806113d5575b6113b7575060005b81811061120c576008880154600f890154600a8a0154600b8b015492906000198d018d81116108be57600080516020615807833981519152946112079260405195869560043587613c9e565b0390a1005b611217818388613ae9565b60405163745e920b60e01b8152903560048201819052906060816024816001600160a01b038b165afa90811561038257600091611388575b508460208201510361132857516001600160a01b03166112d1575b6000526013880160205260406000209061128e6020808a01510151868c858d614ea3565b61129d575b60019150016111bb565b600f8901546001810181116108be576001928360029201600f8c015501546112ca60108b01918254613bea565b9055611293565b6001600160a01b0386163b1561014857604051630a57e6a960e11b815260048101829052600081602481836001600160a01b038c165af1801561038257611319575b5061126a565b611322906138d4565b8a611313565b60405162461bcd60e51b815260206004820152603260248201527f436f6d7075746520756e697420646f65736e27742062656c6f6e6720746f2063604482015271185c1858da5d1e4818dbdb5b5a5d1b595b9d60721b6064820152608490fd5b6113aa915060603d6060116113b0575b6113a28183613954565b810190613cc6565b8b61124f565b503d611398565b604051636d25971960e11b81526024916105289060048301906139c9565b5060048114156111b3565b6113f9915060c03d60c01161090b576108fd8183613954565b8a61116c565b61141991965060803d608011610563576105558183613954565b9488611130565b9093506020813d60201161144c575b8161143c60209383613954565b81010312610148575192846110c3565b3d915061142f565b602091945061146f90823d84116105c4576105b68183613954565b939061109d565b34610148576000366003190112610148576020611491613f44565b6040516001600160a01b039091168152f35b34610148576080366003190112610148576044356001600160a01b03811690036101485760405163673448dd60e01b81523360048201526020816024817f00000000000000000000000000000000000000000000000000000000000000006001600160a01b03165afa90811561038257600091611b3e575b5015611aed576040516380f5560560e01b81526020816004817f00000000000000000000000000000000000000000000000000000000000000006001600160a01b03165afa90811561038257600091611ace575b506040516321b9a09560e21b815260048035908201526080816024816001600160a01b0386165afa90811561038257600091611aaf575b506020810151611a6c5751604051631ab2f71960e31b8152600481019190915260c0816024816001600160a01b0386165afa90811561038257600091611a4d575b50516001600160a01b031633036119f357604051635671576160e01b81526020816004817f00000000000000000000000000000000000000000000000000000000000000006001600160a01b03165afa908115610382576000916119c1575b5060243510611957576064351561190c5762989680606435116118c0576040516327f9efeb60e11b81526020816004817f00000000000000000000000000000000000000000000000000000000000000006001600160a01b03165afa9081156103825760009161188e575b5060405160208101904382526004356040820152602435606082015260018060601b031960443560601b1660808201526064356094820152609481526116f68161391e565b51902090816000526000805160206158e783398151915260205260406000206040518060e081011060018060401b0360e083011117611878576000918260c08360e0600695016040526002815260043560208201528660408201526024356060820152606435608082015260018060a01b036044351660a08201520152600260ff198254161781556004356001820155836002820155602435600382015560643560048201556005810160018060a01b036044351660018060a01b0319825416179055015560018060a01b0383163b15610148576040516332763a3760e11b8152600480359082015260248101839052926000908490604490829084906001600160a01b03165af192831561038257602093611869575b50604051908282526024358483015260018060a01b03604435166040830152606435606083015260808201527f2764696d7b2884dde865501f6b61168dcd00f8bed537f0aca4a1f583341a4c6560a060043592a2604051908152f35b611872906138d4565b8361180d565b634e487b7160e01b600052604160045260246000fd5b90506020813d6020116118b8575b816118a960209383613954565b810103126101485751826116b1565b3d915061189c565b60405162461bcd60e51b8152602060048201526030602482015260008051602061582783398151915260448201526f206c657373206f7220657175616c203160801b6064820152608490fd5b60405162461bcd60e51b815260206004820152602f602482015260008051602061582783398151915260448201526e02067726561746572207468616e203608c1b6064820152608490fd5b608460405162461bcd60e51b815260206004820152604060248201527f4475726174696f6e2073686f756c642062652067726561746572207468616e2060448201527f6d696e20636170616369747920636f6d6d69746d656e74206475726174696f6e6064820152fd5b90506020813d6020116119eb575b816119dc60209383613954565b81010312610148575182611646565b3d91506119cf565b60405162461bcd60e51b815260206004820152602c60248201527f4f6e6c792070726f76696465722063616e20637265617465206361706163697460448201526b1e4818dbdb5b5a5d1b595b9d60a21b6064820152608490fd5b611a66915060c03d60c01161090b576108fd8183613954565b826115e7565b60405162461bcd60e51b815260206004820152601b60248201527a1419595c88185b1c9958591e481a185cc818dbdb5b5a5d1b595b9d602a1b6044820152606490fd5b611ac8915060803d608011610563576105558183613954565b826115a6565b611ae7915060203d6020116105c4576105b68183613954565b8161156f565b60405162461bcd60e51b815260206004820152602360248201527f57686974656c6973743a2070726f7669646572206973206e6f7420617070726f6044820152621d995960ea1b6064820152608490fd5b90506020813d602011611b71575b81611b5960209383613954565b8101031261014857518015158103610148578161151b565b3d9150611b4c565b34610148576020366003190112610148576004356000610140604051611b9e816138e7565b8281528260208201528260408201528260608201528260808201528260a08201528260c08201528260e082015282610100820152826101208201520152806000526000805160206158e7833981519152602052604060002090611c10600183015491611c0b831515613d40565b613d96565b60028301546040516380f5560560e01b815293919291906020856004817f00000000000000000000000000000000000000000000000000000000000000006001600160a01b03165afa94851561038257602495608091600091611dd0575b506040516321b9a09560e21b81526004810186905296879182906001600160a01b03165afa9485156103825761016095604091600091611db1575b5001516006830154611cbf600385015482613bea565b60048501549160018060a01b0360058701541693600887015495600f600c89015498015498611cfa6040519b611cf48d6138e7565b8c613f2b565b60208b015260408a01526060890152608088015260a087015260c086015260e085015261010084015261012083015261014082015261014060405191611d418382516139c9565b6020810151602084015260408101516040840152606081015160608401526080810151608084015260a081015160a084015260c081015160c084015260018060a01b0360e08201511660e08401526101008101516101008401526101208101516101208401520151610140820152f35b611dca915060803d608011610563576105558183613954565b87611ca9565b611de9915060203d6020116105c4576105b68183613954565b87611c6e565b34610148576020366003190112610148576020611e0d600435613d96565b611e1a60405180926139c9565bf35b34610148576000366003190112610148577f00000000000000000000000000000000000000000000000000000000000000006001600160a01b03163003611e755760206040516000805160206158678339815191528152f35b60405162461bcd60e51b815260206004820152603860248201527f555550535570677261646561626c653a206d757374206e6f742062652063616c6044820152771b1959081d1a1c9bdd59da0819195b1959d85d1958d85b1b60421b6064820152608490fd5b604036600319011261014857611eef61388e565b6024356001600160401b038111610148573660238201121561014857611f1f903690602481600401359101613992565b906001600160a01b037f00000000000000000000000000000000000000000000000000000000000000008116611f5730821415613a2c565b611f74600080516020615867833981519152918383541614613a7b565b604051638da5cb5b60e01b81526020929083816004817f000000000000000000000000000000000000000000000000000000000000000086165afa90811561038257600091612171575b508133911603612132576000805160206157e78339815191525460ff1615611fed5750505061063f91506155b0565b83929316906040516352d1902d60e01b81528481600481865afa60009181612103575b5061205f5760405162461bcd60e51b815260048101869052602e602482015260008051602061596783398151915260448201526d6f6e206973206e6f74205555505360901b6064820152608490fd5b036120be5761206d826155b0565b6000805160206158c7833981519152600080a28251158015906120b6575b61209157005b60008061063f946120a0615537565b9481519101845af46120b0613d10565b91615709565b50600161208b565b60405162461bcd60e51b815260048101849052602960248201526000805160206159278339815191526044820152681a58589b195555525160ba1b6064820152608490fd5b9091508581813d831161212b575b61211b8183613954565b8101031261014857519087612010565b503d612111565b60405162461bcd60e51b815260048101849052602360248201526000805160206158878339815191526044820152623732b960e91b6064820152608490fd5b90508381813d831161219f575b6121888183613954565b810103126101485761219990613b61565b86611fbe565b503d61217e565b34610148576060366003190112610148576040516380f5560560e01b81526001600160a01b03906020816004817f000000000000000000000000000000000000000000000000000000000000000086165afa90811561038257600091612b7b575b50604051630ecce30160e31b81526020816004817f000000000000000000000000000000000000000000000000000000000000000087165afa918215610382578391600093612b44575b501660405163745e920b60e01b81526004356004820152606081602481855afa90811561038257608091602091600091612b25575b5001516024604051809481936321b9a09560e21b835260048301525afa90811561038257600091612b06575b50826060820151163303612ab0576020810151928315612a5f57836000526000805160206158e7833981519152602052604060002091600683015490818510612a0f5760043560005260138401602052612316604060002092600386015490613bea565b9061232d8287612325886145ef565b9384896146e3565b60068110156104f257600181036129f25750906020808361235261235f95898c6149f0565b0151015190868487614ea3565b50836000805160206157c7833981519152818154036129ca575b50506000805160206157a78339815191525490436000198101116108be57604051602081019083825260001943014060408201526004356060820152602435608082015260443560a082015260a081526123d28161391e565b519020600080516020615947833981519152558460005260038101602052604060002054916001830183116108be5760405163280c5e5160e01b81526020816004817f000000000000000000000000000000000000000000000000000000000000000089165afa90811561038257600091612998575b506001840111612986576040516020810191825260043560408201526040815261247181613939565b5190209182600052600080516020615907833981519152602052604060002060243560005260205260ff60406000205416612930578260005260008051602061590783398151915260205260406000206024356000526020526040600020600160ff19825416179055856000526000805160206158a78339815191526020526040600020805480156128ad575b60018301810361287557506007860154926001840184116108be5760016003928180960160078a0155016125358585018254613bea565b90555b87600052016020520160406000205560405163919f49f960e01b8152602081600481867f0000000000000000000000000000000000000000000000000000000000000000165afa9081156103825760009161283b575b506040519163315fef3560e21b6020840152602483015260243560448301526044825281608081011060018060401b036080840111176118785781600092916080849301604052602082519201905af46125e6613d10565b90156127fc578051602081036127dd57506000906000905b6020821061278c5750506044350361275257602060049160405192838092630ce5723160e11b82527f0000000000000000000000000000000000000000000000000000000000000000165afa90811561038257600091612720575b50604435116126db576008810154600f82015491600b600a8201549101549360001981019081116108be57600080516020615807833981519152946126a5926040519586958987613c9e565b0390a16040519060243582527f32c9117442431c0bcfdbbef33bc9918d148ad082e0f38d70bbde857f01d225c8602060043593a3005b60405162461bcd60e51b815260206004820152601f60248201527f50726f6f6620697320626967676572207468616e20646966666963756c7479006044820152606490fd5b90506020813d60201161274a575b8161273b60209383613954565b81010312610148575184612659565b3d915061272e565b60405162461bcd60e51b8152602060048201526012602482015271141c9bdbd9881a5cc81b9bdd081d985b1a5960721b6044820152606490fd5b909181518310156127c75760ff60f81b602084840101511690838060031b04600814841517156108be576001918460031b1c179201906125fe565b634e487b7160e01b600052603260045260246000fd5b6044906040519063c1cd44b360e01b8252602060048301526024820152fd5b60405162461bcd60e51b815260206004820152601760248201527614985b991bdb56141c9bde1e4b9c9d5b8819985a5b1959604a1b6044820152606490fd5b90506020813d60201161286d575b8161285660209383613954565b810103126101485761286790613b61565b8661258e565b3d9150612849565b600183011161288a575b506003600192612538565b6001810154909260001982146108be57600193848060039401910155925061287f565b50604051630e79c62760e41b81526020816004817f00000000000000000000000000000000000000000000000000000000000000008a165afa908115610382576000916128fe575b508082556124fe565b90506020813d602011612928575b8161291960209383613954565b810103126101485751896128f5565b3d915061290c565b60405162461bcd60e51b815260206004820152602860248201527f50726f6f6620697320616c7265616479207375626d697474656420666f7220746044820152671a1a5cc81d5b9a5d60c21b6064820152608490fd5b60405163e5d50da760e01b8152600490fd5b90506020813d6020116129c2575b816129b360209383613954565b81010312610148575188612448565b3d91506129a6565b55600080516020615947833981519152546000805160206157a7833981519152558386612379565b6040516242963960e51b81526024916105289060048301906139c9565b60405162461bcd60e51b815260206004820152602260248201527f436170616369747920636f6d6d69746d656e74206973206e6f74207374617274604482015261195960f21b6064820152608490fd5b60405162461bcd60e51b8152602060048201526024808201527f436f6d7075746520756e697420646f65736e2774206861766520636f6d6d69746044820152631b595b9d60e21b6064820152608490fd5b60405162461bcd60e51b815260206004820152602860248201527f4f6e6c7920636f6d707574652070656572206f776e65722063616e207375626d60448201526734ba10383937b7b360c11b6064820152608490fd5b612b1f915060803d608011610563576105558183613954565b836122b2565b612b3e915060603d6060116113b0576113a28183613954565b86612286565b915091506020813d602011612b73575b81612b6160209383613954565b81010312610148578290519184612251565b3d9150612b54565b612b94915060203d6020116105c4576105b68183613954565b82612207565b3461014857602080600319360112610148576040516380f5560560e01b8152906004803591906001600160a01b03907f00000000000000000000000000000000000000000000000000000000000000008216908390869081845afa94851561038257600095612f59575b50908260049260405193848092630ecce30160e31b82525afa91821561038257600092612f2a575b508190846000526000805160206158e78339815191528452806040600020961692600187015493604051946321b9a09560e21b865260048601526024946080818781855afa90811561038257600091612f0b575b5080519060405193631ab2f71960e31b92838652600486015260c09485818a81885afa8015610382578791600091612eee575b50511633148015612edf575b15612e8457908880612cf9612cff8b958f8f612cda826145ef565b948593612cf06006850154600386015490613bea565b908a86866146e3565b506149f0565b0151015180612e7c575b5051604051928352600483015290918391839182905afa908115610382578392600092612e5f575b5050511660118701612d438482615640565b60008112612e255791600195949391612d7c612d75612d68612daf9660128e0161454d565b508354998a910154613bdd565b8098613bea565b9055612daa62989680612d9360048c015489613bca565b04612d9e8189613bdd565b9360058c015416614dcb565b614dcb565b600886015491600f87015496600b600a820154910154916000198401938411610bb057507f9b5336625f529f36cb0543297bdf5075b7f6b830bb892ff97c09fbfeae6255d59697926000805160206158078339815191529492612e19926040519586958c87613c9e565b0390a1604051908152a2005b60405162461bcd60e51b815260048101889052601381880152724e6f7468696e6720746f20776974686472617760681b6044820152606490fd5b612e759250803d1061090b576108fd8183613954565b8880612d31565b965084612d09565b60405162461bcd60e51b8152600481018a9052602e818a01527f4f6e6c792070726f7669646572206f722064656c656761746f722063616e207760448201526d1a5d1a191c985dc81c995dd85c9960921b6064820152608490fd5b50338660058d01541614612cbf565b612f059150873d891161090b576108fd8183613954565b8d612cb3565b612f24915060803d608011610563576105558183613954565b89612c80565b9091508281813d8311612f52575b612f428183613954565b8101031261014857519085612c2c565b503d612f38565b600492919550612f768491823d84116105c4576105b68183613954565b95919250612c04565b6020366003190112610148576004356001600160401b03811161014857612faa9036906004016138a4565b6040516380f5560560e01b815290916020826004817f00000000000000000000000000000000000000000000000000000000000000006001600160a01b03165afa918215610382576000926134f2575b50349260005b818110613045578461300e57005b60405162461bcd60e51b815260206004820152600f60248201526e4578636573736976652076616c756560881b6044820152606490fd5b613050818385613ae9565b35806000526000805160206158e7833981519152602052604060002061307582613d96565b60068110156104f257600261308a9114613af9565b60018101546040516321b9a09560e21b8152600481018290529091906080816024816001600160a01b038c165afa8015610382576040916000916134d3575b500151906130e56130de600283015484613bca565b809a613bdd565b604051630ecce30160e31b8152909990926020846004817f00000000000000000000000000000000000000000000000000000000000000006001600160a01b03165afa9384156103825760009461349f575b506005830180546001600160a01b0381168061344657506001600160a01b031916331790555b6001840184116108be5760018401600684015560098301849055600a8301819055604051637e81538160e01b8152906020826004817f00000000000000000000000000000000000000000000000000000000000000006001600160a01b03165afa801561038257600090613412575b6131d69250613bea565b917f00000000000000000000000000000000000000000000000000000000000000006001600160a01b03163b1561014857604051634597226960e11b81526004810193909352600083602481837f00000000000000000000000000000000000000000000000000000000000000006001600160a01b03165af1918215610382577fd752175fe73028b933ce110fbf0ff2e6e254cd0384b5773960fe1114e29bdda6602088926132a596600396613403575b50845460ff19166001178555604051908152a2015460018301613bea565b60405163315631fd60e11b81526004810184905290916000826024816001600160a01b038d165afa9182156103825760009261335d575b50604051926060906001828601930185526020850152604084015281518091526020608084019201906000905b80821061334557505050816001959493927f0b0a4688a90d1b24732d05ddf4925af69f02cd7d9a921b1cdcd4a7c2b6d57d68920390a301613000565b90919260208060019286518152019401920190613309565b9091503d806000833e6133708183613954565b8101602082820312610148578151916001600160401b0383116101485781601f8483010112156101485782810151906133a882613bf7565b936133b66040519586613954565b828552602085019360208460051b83850101011161014857602081830101935b60208460051b838501010185106133f3575050505050908a6132dc565b84518152602094850194016133d6565b61340c906138d4565b8f613287565b506020823d60201161343e575b8161342c60209383613954565b81010312610148576131d691516131cc565b3d915061341f565b915050331461315d5760405162461bcd60e51b815260206004820152602260248201527f4f6e6c792064656c656761746f722063616e206c6f636b20636f6c6c61746572604482015261185b60f21b6064820152608490fd5b9093506020813d6020116134cb575b816134bb60209383613954565b810103126101485751928b613137565b3d91506134ae565b6134ec915060803d608011610563576105558183613954565b8a6130c9565b61350c91925060203d6020116105c4576105b68183613954565b9083612ffa565b3461014857602080600319360112610148576004356000526000805160206158e78339815191528152601160406000200160405190630ecce30160e31b8252828260048160018060a01b037f0000000000000000000000000000000000000000000000000000000000000000165afa9081156103825760009161359b575b61069d9250614569565b90508282813d83116135c5575b6135b28183613954565b810103126101485761069d915190613591565b503d6135a8565b3461014857602080600319360112610148576135e661388e565b6001600160a01b03917f0000000000000000000000000000000000000000000000000000000000000000831661361e30821415613a2c565b61363b600080516020615867833981519152918583541614613a7b565b604051638da5cb5b60e01b815282816004817f000000000000000000000000000000000000000000000000000000000000000089165afa90811561038257600091613859575b50843391160361381a57604051828101949091906001600160401b0386118387101761187857856040526000835260ff6000805160206157e783398151915254166000146136d7575050505061063f91506155b0565b8492939416906040516352d1902d60e01b81528581600481865afa600091816137eb575b5061374a5760405162461bcd60e51b815260048101879052602e602482015260008051602061596783398151915260448201526d6f6e206973206e6f74205555505360901b6064820152608490fd5b9491929394036137a7575061375e826155b0565b6000805160206158c7833981519152600080a281511580159061379f575b61378257005b60008061063f94613791615537565b945190845af46120b0613d10565b50600061377c565b6084906040519062461bcd60e51b82526004820152602960248201526000805160206159278339815191526044820152681a58589b195555525160ba1b6064820152fd5b9091508681813d8311613813575b6138038183613954565b81010312610148575190886136fb565b503d6137f9565b60405162461bcd60e51b815260048101839052602360248201526000805160206158878339815191526044820152623732b960e91b6064820152608490fd5b90508281813d8311613887575b6138708183613954565b810103126101485761388190613b61565b85613681565b503d613866565b600435906001600160a01b038216820361014857565b9181601f84011215610148578235916001600160401b038311610148576020808501948460051b01011161014857565b6001600160401b03811161187857604052565b61016081019081106001600160401b0382111761187857604052565b604081019081106001600160401b0382111761187857604052565b60c081019081106001600160401b0382111761187857604052565b606081019081106001600160401b0382111761187857604052565b601f909101601f19168101906001600160401b0382119082101761187857604052565b6001600160401b03811161187857601f01601f191660200190565b92919261399e82613977565b916139ac6040519384613954565b829481845281830111610148578281602093846000960137010152565b9060068210156104f25752565b919082519283825260005b848110613a02575050826000602080949584010152601f8019910116010190565b6020818301810151848301820152016139e1565b6040906003190112610148576004359060243590565b15613a3357565b60405162461bcd60e51b815260206004820152602c602482015260008051602061584783398151915260448201526b19195b1959d85d1958d85b1b60a21b6064820152608490fd5b15613a8257565b60405162461bcd60e51b815260206004820152602c602482015260008051602061584783398151915260448201526b6163746976652070726f787960a01b6064820152608490fd5b9081602091031261014857516001600160a01b03811681036101485790565b91908110156127c75760051b0190565b15613b0057565b60405162461bcd60e51b815260206004820152603360248201527f436170616369747920636f6d6d69746d656e74206973206e6f7420696e205761604482015272697444656c65676174696f6e2073746174757360681b6064820152608490fd5b51906001600160a01b038216820361014857565b908160809103126101485760405190608082016001600160401b0381118382101761187857613bc29160609160405280518452602081015160208501526040810151604085015201613b61565b606082015290565b818102929181159184041417156108be57565b919082039182116108be57565b919082018092116108be57565b6001600160401b0381116118785760051b60200190565b908160c0910312610148576040519060c08201906001600160401b038211838310176118785760a091604052613c4381613b61565b835260208101516020840152613c5b60408201613b61565b60408401526060810151606084015260808101516080840152015160a082015290565b8115613c88570490565b634e487b7160e01b600052601260045260246000fd5b9260a094919796959260c0850198855260208501526040840152606083015260808201520152565b90816060910312610148576040519060608201906001600160401b03821183831017611878576040918252613cfa81613b61565b8352602081015160208401520151604082015290565b3d15613d3b573d90613d2182613977565b91613d2f6040519384613954565b82523d6000602084013e565b606090565b15613d4757565b60405162461bcd60e51b815260206004820152602160248201527f436170616369747920636f6d6d69746d656e7420646f65736e277420657869736044820152601d60fa1b6064820152608490fd5b604080516380f5560560e01b81526001600160a01b0393929091906020907f00000000000000000000000000000000000000000000000000000000000000008616908285600481855afa948515613f2057600095613f01575b506000526000805160206158e783398151915282526080836000209460246001870154613e1d811515613d40565b8651998a9384926321b9a09560e21b84526004840152165afa918215613ef65760049596600093613ed5575b5080613e54866145ef565b92855197888092630ecce30160e31b82525afa938415613ecb5750600093613e99575b50613e969450613e906006850154600386015490613bea565b936146e3565b90565b90925084813d8311613ec4575b613eb08183613954565b8101031261014857613e9693519138613e77565b503d613ea6565b513d6000823e3d90fd5b613eef91935060803d608011610563576105558183613954565b9138613e49565b83513d6000823e3d90fd5b613f19919550833d85116105c4576105b68183613954565b9338613def565b84513d6000823e3d90fd5b60068210156104f25752565b5160068110156104f25790565b604051638da5cb5b60e01b81526020816004817f00000000000000000000000000000000000000000000000000000000000000006001600160a01b03165afa90811561038257600091613f95575090565b90506020813d602011613fc1575b81613fb060209383613954565b8101031261014857613e9690613b61565b3d9150613fa3565b15613fd057565b60405162461bcd60e51b815260206004820152602c60248201527f4f6e6c792070726f76696465722063616e2072656d6f7665206361706163697460448201526b1e4818dbdb5b5a5d1b595b9d60a21b6064820152608490fd5b604051630ecce30160e31b81526020816004817f00000000000000000000000000000000000000000000000000000000000000006001600160a01b03165afa908115610382576000916140b4575b506000805160206157c783398151915254036140a1576000805160206157a78339815191525490565b6000805160206159478339815191525490565b90506020813d6020116140de575b816140cf60209383613954565b81010312610148575138614078565b3d91506140c2565b80518210156127c75760209160051b010190565b1561410157565b60405162461bcd60e51b8152602060048201526024808201527f426173654d6f64756c653a2063616c6c6572206973206e6f7420746865206d616044820152631c9ad95d60e21b6064820152608490fd5b80156108be576000190190565b60046000918281558260018201558260028201558260038201550155565b604080516380f5560560e01b81526001600160a01b039493909291906020906000907f0000000000000000000000000000000000000000000000000000000000000000881690600484888281865afa978815614543578498614524575b508551630ecce30160e31b81529285848381845afa93841561451a5785946144e7575b50600184018085116144d45760001985019b858d116144c1578987526000805160206158e783398151915288528887209a169160018b0154958951966321b9a09560e21b8852858801526024966080818981885afa908115614459578d6142a78e94938e8e8c8f60019781956144a0575b50526013850190528d20926142a161428f6006830154600384015490613bea565b87614299846145ef565b9485856146e3565b966149f0565b60ff1981541681550155858b7f8e4b27eeb3194deef0b3140997e6b82f53eb7350daceb9355268009b92f70add8b8d51878152a3600681101561448e57848115918215614484575b505061447557600b8b01978854600181018091116144635789558951637e81538160e01b815281818781865afa91821561445957899261442b575b50506001810180911161441957813b156144155787918783928c519485938492634597226960e11b84528a8401525af1801561440b576143f8575b50813b156143f45791856044928195948a5197889687956307a42ef960e21b87528601528401525af180156143ea576143d3575b5050946143ce916000805160206158078339815191529596600886015495600a600f8201549101549154925196879687613c9e565b0390a1565b6143dd82916138d4565b6143e75780614399565b80fd5b84513d84823e3d90fd5b8580fd5b614404909691966138d4565b9438614365565b89513d89823e3d90fd5b8780fd5b634e487b7160e01b8852601185528688fd5b90809250813d8311614452575b6144428183613954565b810103126144155751388061432a565b503d614438565b8b513d8b823e3d90fd5b634e487b7160e01b8952601186528789fd5b50505050505050505050509050565b14905084386142ef565b634e487b7160e01b8852602185528688fd5b6144ba91955060803d608011610563576105558183613954565b933861426e565b634e487b7160e01b875260118452602487fd5b634e487b7160e01b865260118352602486fd5b9093508581813d8311614513575b6144ff8183613954565b8101031261450f575192386141fd565b8480fd5b503d6144f5565b87513d87823e3d90fd5b61453c919850853d87116105c4576105b68183613954565b96386141da565b86513d86823e3d90fd5b80548210156127c75760005260206000209060011b0190600090565b906145749082615640565b906000821261459957600161458e613e969382840161454d565b500154905490613bdd565b5050600090565b6040519061010082016001600160401b03811183821017611878576040528160e06000918281528260208201528260408201528260608201528260808201528260a08201528260c08201520152565b906040516145fc81613903565b6146046145a0565b815260e08060208301926146166145a0565b84526007819661462b60ff8254168451613f2b565b600c810154602084510152600d8101546040845101526008810154606084510152600a810154608084510152600b81015460a084510152600981015460c084510152015482825101526146886146818251613f37565b8551613f2b565b60208151015160208551015260408151015160408551015260608151015160608551015260808151015160808551015260a08151015160a08551015260c08151015160c08551015251015191510152565b8115613c88570690565b9192936020809201936146f68551613f37565b9260c0865101519260001997888101908082116108be57600682980154801560001461472c575050505050505050505050600290565b116149e25760068610156104f2576001958681148015906149d8575b6149cb5750859882019182116108be578111156149bf575b5060405163a376fb9160e01b8152600493909290828486817f00000000000000000000000000000000000000000000000000000000000000006001600160a01b03165afa93841561038257600094614990575b5087519260808401519160a0850151946147dd606082015197604060e08a94015197015190613bca565b946147f16147eb848d613bdd565b86613bca565b808210614973575b505084871015614890575b505050505050606085510152835160a08101519081614870575b5050600685101561485b57509160e0916000938503614844575b60c08251015251015290565b83608083510152614856858351613f2b565b614838565b602190634e487b7160e01b6000525260246000fd5b608061487f9101918251613bea565b9052600060a085510152388061481e565b9092949a50836148a39294965095613bdd565b918599838510156000146148f157508682018092116148dc57885101526148ca91906146d9565b6040865101525b388080808080614804565b601186634e487b7160e01b6000525260246000fd5b9361490161490792949582613bea565b94613bdd565b6149118482613c7e565b938488019081891161495e576149289082936146d9565b948561494a575b505061493a91613bea565b90875101526040865101526148d1565b600201915081106148dc5761493a3861492f565b601188634e487b7160e01b6000525260246000fd5b61498892989161498291613bdd565b90613bea565b9538806147f9565b9093508281813d83116149b8575b6149a88183613954565b81010312610148575192386147b3565b503d61499e565b60009750945038614760565b9850505050505050505090565b5085821115614748565b505050505050505050600390565b6149fa8351613f37565b9260209384820192614a0c8451613f37565b9060009160069384821015614db75784811015614db75703614b69575b50614a348351613f37565b614a3e8551613f37565b9183831015614b555783821015614b55575003614b28575b5060e0918291519085820151905195860151809103614b1d575b5060408101516040860151809103614b12575b5060608101516060860151809103614b07575b5060808101516080860151809103614afc575b5060a081015160a0860151809103614af1575b5060c081015160c0860151809103614ae6575b500151920151809203614ae0575050565b60070155565b600985015538614acf565b600b85015538614abc565b600a85015538614aa9565b600885015538614a96565b600d85015538614a83565b600c85015538614a70565b9091614b348151613f37565b918210156104f25760e092839260ff80198754169116178555915091614a56565b634e487b7160e01b81526021600452602490fd5b614b7e845160a0608082015191015190613bea565b90614b898651613f37565b9084821015614db7576004918203614cb8577f1ec6d9e2b340c6cc9d5b6690a2d2a1558f252aa30668b45dbdb83bb7728984f2898089510151604051908152a2604051637e81538160e01b81527f00000000000000000000000000000000000000000000000000000000000000006001600160a01b03169289828481875afa8015614cad578590614c7e575b614c1f9250613bdd565b90823b15614c7a579060248492836040519586948593634597226960e11b85528401525af18015614c6f57908291614c5b575b50505b38614a29565b614c64906138d4565b6143e7578038614c52565b6040513d84823e3d90fd5b8380fd5b508982813d8311614ca6575b614c948183613954565b8101031261014857614c1f9151614c15565b503d614c8a565b6040513d87823e3d90fd5b50614cc38651613f37565b84811015614da45715614cd8575b5050614c55565b604051637e81538160e01b81527f00000000000000000000000000000000000000000000000000000000000000006001600160a01b03169289828481875afa8015614cad578590614d73575b614d2e9250613bdd565b90823b15614c7a579060248492836040519586948593634597226960e11b85528401525af18015614c6f57614d64575b80614cd1565b614d6d906138d4565b38614d5e565b50908981813d8311614d9d575b614d8a8183613954565b8101031261450f5790614d2e9151614d24565b503d614d80565b634e487b7160e01b845260218252602484fd5b634e487b7160e01b84526021600452602484fd5b814710614e5e576000918291829182916001600160a01b03165af1614dee613d10565b5015614df657565b60405162461bcd60e51b815260206004820152603a60248201527f416464726573733a20756e61626c6520746f2073656e642076616c75652c20726044820152791958da5c1a595b9d081b585e481a185d99481c995d995c9d195960321b6064820152608490fd5b60405162461bcd60e51b815260206004820152601d60248201527f416464726573733a20696e73756666696369656e742062616c616e63650000006044820152606490fd5b9093600019830193909284116108be578360ff8654166154995760001982019182116108be5781106154cf575b50811515806154c6575b6154bd575b600184019283549384156154a4575b8482111561549957819055600285015490600283015491614f0f8184613bdd565b6040516313baa06960e01b81527f00000000000000000000000000000000000000000000000000000000000000006001600160a01b031696919490939091906020856004818b5afa94851561038257600095615465575b50614f718982613bdd565b91816000526000805160206158a7833981519152602052604060002054801515908161544e575b5061543e575b86151580615435575b615376575b505050505050506001830183116108be5760018301600052600384016020526040600020546000805160206158a783398151915260205260406000208054821061536b5760010154801561536b5760405163173ea47d60e21b8152600186016004820152602081602481885afa90811561038257600091615337575b5061503b9261503691613bca565b613c7e565b908161505f575b505050906001600392016000520160205260006040812055600190565b604051630640d94160e01b815292602084600481845afa93841561038257600094615302575b50906020600493926040519485809263dad0189560e01b82525afa928315610382576000936152ce575b506150bf83601283015493613c7e565b916150e26150d96150d38760018a016146d9565b87613bdd565b60018801613bea565b6150ef8160118501615640565b956000198714806152c5575b6152665760009260008812158061524f575b61522b575b600097935b87891061512957505050505050615042565b600085121580615222575b156151835750615147846012870161454d565b50600181015460018a018a116108be57600195869261516f61517993614982868f018d613bca565b97889101556156f5565b985b019793615117565b93976151986151928285613bca565b85613bea565b906001810181116108be576151b96151b3600183018a613bca565b87613bea565b604051926151c684613903565b835260208301526012870154600160401b811015611878578060016151f4920160128a01556012890161454d565b61520c5760016020848295518455015191015561517b565b634e487b7160e01b600052600060045260246000fd5b50818512615134565b9692506152496001615240856012880161454d565b500154936156f5565b96615112565b508261525e896012880161454d565b50541061510d565b60405162461bcd60e51b815260206004820152603160248201527f56657374696e673a20737461727445706f63682069732062656c6f77207468616044820152706e20616c6c207365656e2065706f63687360781b6064820152608490fd5b508215156150fb565b9092506020813d6020116152fa575b816152ea60209383613954565b81010312610148575191386150af565b3d91506152dd565b90936020823d60201161532f575b8161531d60209383613954565b810103126143e7575051926020615085565b3d9150615310565b90506020813d602011615363575b8161535260209383613954565b81010312610148575161503b615028565b3d9150615345565b505050505050600190565b600d88015491148061542c575b6153cd575b506153aa9361539e62989680936153a393613bca565b613bca565b0490613bea565b908082116153c5575b50600285015538808080808080614fac565b9050386153b3565b600e8701805492939291821061540757505060001982019182116108be576153aa9361539e6153a39262989680945b935093505093615388565b600182939692018093116108be576153aa9562989680946153a39461539e93556153fc565b50801515615383565b50821515614fa7565b9161544890614152565b91614f9e565b905060038c01602052604060002054101538614f98565b9094506020813d602011615491575b8161548160209383613954565b8101031261014857519338614f66565b3d9150615474565b505050505050600090565b9350600682015460001981019081116108be5793614eee565b91508091614edf565b50818311614eda565b925038614ed0565b156154de57565b60405162461bcd60e51b815260206004820152602b60248201527f496e697469616c697a61626c653a20636f6e7472616374206973206e6f74206960448201526a6e697469616c697a696e6760a81b6064820152608490fd5b6040519061554482613939565b60278252660819985a5b195960ca1b6040837f416464726573733a206c6f772d6c6576656c2064656c65676174652063616c6c60208201520152565b6001810190815480156155a85760001981019081116108be5761458e600191613e969461454d565b505050600090565b803b156155e55760008051602061586783398151915280546001600160a01b0319166001600160a01b03909216919091179055565b60405162461bcd60e51b815260206004820152602d60248201527f455243313936373a206e657720696d706c656d656e746174696f6e206973206e60448201526c1bdd08184818dbdb9d1c9858dd609a1b6064820152608490fd5b6001908101805460001994939192919080156156ef5760009060001981019081116108be5793929190935b8085111561567a575050505050565b90919293956156898288613bea565b841c96615696888761454d565b5054808511156156b7575050508286018087116108be575b9392919061566b565b9197909250908310156156e757806156d55750600019955050505050565b60001981019081116108be57906156ae565b955050505050565b50505050565b6001600160ff1b0381146108be5760010190565b9192901561576b575081511561571d575090565b3b156157265790565b60405162461bcd60e51b815260206004820152601d60248201527f416464726573733a2063616c6c20746f206e6f6e2d636f6e74726163740000006044820152606490fd5b82519091501561577e5750805190602001fd5b60405162461bcd60e51b8152602060048201529081906157a29060248301906139d6565b0390fdfea8de0abb18de6e730ac24d7fe02c877d293683811fc3ac5d8e62e2a52c0d20d9a8de0abb18de6e730ac24d7fe02c877d293683811fc3ac5d8e62e2a52c0d20db4910fdfa16fed3260ed0e7147f7cc6da11a60208b5b9406d12a635614ffd9143bd5605b4405616555ea2583cbd913ecf346c52c37520187117aadcea54e7d1495265776172642064656c65676174696f6e20726174652073686f756c6420626546756e6374696f6e206d7573742062652063616c6c6564207468726f75676820360894a13ba1a3210667c828492db98dca3e2076cc3735a920a3ca505d382bbc426173654d6f64756c653a2063616c6c6572206973206e6f7420746865206f77a8de0abb18de6e730ac24d7fe02c877d293683811fc3ac5d8e62e2a52c0d20d8bc7cd75a20ee27fd9adebab32041f755214dbc6bffa90cc0225b39da2e5c2d3ba8de0abb18de6e730ac24d7fe02c877d293683811fc3ac5d8e62e2a52c0d20d7a8de0abb18de6e730ac24d7fe02c877d293683811fc3ac5d8e62e2a52c0d20dc45524331393637557067726164653a20756e737570706f727465642070726f78a8de0abb18de6e730ac24d7fe02c877d293683811fc3ac5d8e62e2a52c0d20da45524331393637557067726164653a206e657720696d706c656d656e74617469a2646970667358221220a6fe20934a94bf98a33340e5e7c59af7a56a98d65dfc96305839c178b91f9faf64736f6c63430008180033","linkReferences":{}},"methodIdentifiers":{"core()":"f2f4eb26","createCommitment(bytes32,uint256,address,uint256)":"886f0e87","depositCollateral(bytes32[])":"3d5f526c","finishCommitment(bytes32)":"ea03ef52","getCommitment(bytes32)":"7795820c","getGlobalNonce()":"92163b4b","getStatus(bytes32)":"5de28ae0","initialize(bytes32)":"9498bd71","multicall(bytes[])":"ac9650d8","onUnitMovedToDeal(bytes32,bytes32)":"ba50cbd4","onUnitReturnedFromDeal(bytes32,bytes32)":"dee7f881","owner()":"8da5cb5b","proxiableUUID()":"52d1902d","removeCUFromCC(bytes32,bytes32[])":"8e7af1d1","removeCommitment(bytes32)":"d6a1c7f8","submitProof(bytes32,bytes32,bytes32)":"4ece5685","totalRewards(bytes32)":"de644849","unlockedRewards(bytes32)":"3d081790","upgradeTo(address)":"3659cfe6","upgradeToAndCall(address,bytes)":"4f1ef286","withdrawReward(bytes32)":"474b5809"},"devdoc":{"version":1,"kind":"dev","methods":{"createCommitment(bytes32,uint256,address,uint256)":{"details":"Creates a new commitment","params":{"delegator":"The delegator address. If address is zero, the commitment has no delegator","duration":"The duration of the commitment in Epochs","peerId":"Peer id which linked to the commitment","rewardDelegationRate":"The reward delegation rate in precision"}},"depositCollateral(bytes32[])":{"details":"Deposits collateral for commitments. It makes commitments activeNote: this method consists of indirect potential delegator address update(set delegator to msg.sender if 0x0 before).","params":{"commitmentIds":"Commitment ids"}},"finishCommitment(bytes32)":{"details":"Finishes the commitment if it is in Failed or Ended status","params":{"commitmentId":"Commitment id"}},"getCommitment(bytes32)":{"details":"Returns the commitment info","params":{"commitmentId":"Commitment id"},"returns":{"_0":"info commitment info"}},"getStatus(bytes32)":{"details":"Returns the commitment status","params":{"commitmentId":"Commitment id"},"returns":{"_0":"status commitment status"}},"multicall(bytes[])":{"details":"Receives and executes a batch of function calls on this contract."},"proxiableUUID()":{"details":"Implementation of the ERC1822 {proxiableUUID} function. This returns the storage slot used by the implementation. It is used to validate the implementation's compatibility when performing an upgrade. IMPORTANT: A proxy pointing at a proxiable contract should not be considered proxiable itself, because this risks bricking a proxy that upgrades to it, by delegating to itself until out of gas. Thus it is critical that this function revert if invoked through a proxy. This is guaranteed by the `notDelegated` modifier."},"removeCUFromCC(bytes32,bytes32[])":{"details":"Remove CU from Ended or Failed CC. Need to call this function before finish the commitment","params":{"commitmentId":"Commitment id","unitIds":"Compute unit ids which will be removed from the commitment"}},"removeCommitment(bytes32)":{"details":"Removes the commitment if it is in WaitDelegation status","params":{"commitmentId":"Commitment id"}},"submitProof(bytes32,bytes32,bytes32)":{"details":"Submits a proof for the commitment","params":{"localUnitNonce":"The local nonce of the unit for calculating the target hash. It's the proof","resultHash":"The target hash of this proof","unitId":"Compute unit id which provied the proof"}},"totalRewards(bytes32)":{"details":"Returns the total reward of the commitment. It includes the reward in vesting","params":{"commitmentId":"Commitment id"},"returns":{"_0":"totalRewards total reward of the commitment"}},"unlockedRewards(bytes32)":{"details":"Returns the total vested reward of the commitment","params":{"commitmentId":"Commitment id"},"returns":{"_0":"totalVestedRewards total vested reward of the commitment"}},"upgradeTo(address)":{"details":"Upgrade the implementation of the proxy to `newImplementation`. Calls {_authorizeUpgrade}. Emits an {Upgraded} event."},"upgradeToAndCall(address,bytes)":{"details":"Upgrade the implementation of the proxy to `newImplementation`, and subsequently execute the function call encoded in `data`. Calls {_authorizeUpgrade}. Emits an {Upgraded} event."},"withdrawReward(bytes32)":{"details":"Withdraws the reward from the commitment","params":{"commitmentId":"Commitment id"}}},"events":{"AdminChanged(address,address)":{"details":"Emitted when the admin account has changed."},"BeaconUpgraded(address)":{"details":"Emitted when the beacon is changed."},"CollateralDeposited(bytes32,uint256)":{"details":"Emitted when a delegator deposited collateral to commitment","params":{"commitmentId":"Commitment id","totalCollateral":"The total collateral deposited to commitment"}},"CommitmentActivated(bytes32,bytes32,uint256,uint256,bytes32[])":{"details":"Emitted when a commitment is activated. Commitment can be activated only if delegator deposited collateral.","params":{"commitmentId":"Commitment id which activated","endEpoch":"The end epoch of the commitment","peerId":"Peer id which linked to the commitment","startEpoch":"The start epoch of the commitment","unitIds":"Compute unit ids which linked to the commitment"}},"CommitmentCreated(bytes32,bytes32,uint256,address,uint256,uint256)":{"details":"Emitted when a new commitment is created","params":{"commitmentId":"Commitment id","delegator":"The delegator address. If address is zero, the commitment has no delegator","duration":"The duration of the commitment in Epochs","fltCollateralPerUnit":"The flt collateral per compute unit","peerId":"Peer id which linked to the commitment","rewardDelegationRate":"The reward delegation rate in precision"}},"CommitmentFinished(bytes32)":{"details":"Emitted when a commitment is finished. Commitment can be finished only if it is in Failed or Ended","params":{"commitmentId":"Commitment id which finished"}},"CommitmentRemoved(bytes32)":{"details":"Emitted when a commitment is removed. Commitment can be removed only if it is in WaitDelegation status","params":{"commitmentId":"Commitment id"}},"Initialized(uint8)":{"details":"Triggered when the contract has been initialized or reinitialized."},"ProofSubmitted(bytes32,bytes32,bytes32)":{"details":"Emitted when a proof is submitted","params":{"commitmentId":"Commitment id","localUnitNonce":"The local nonce of the unit for calculating the target hash","unitId":"Compute unit id which linked to the proof"}},"RewardWithdrawn(bytes32,uint256)":{"details":"Emitted when a reward is withdrawn","params":{"amount":"The amount of the withdrawn reward","commitmentId":"Commitment id"}},"UnitActivated(bytes32,bytes32,uint256)":{"details":"Emitted when a unit activated. Unit is activated when it returned from deal","params":{"commitmentId":"Commitment id","unitId":"Compute unit id which activated"}},"UnitDeactivated(bytes32,bytes32)":{"details":"Emitted when a unit deactivated. Unit is deactivated when it moved to deal","params":{"commitmentId":"Commitment id","unitId":"Compute unit id which deactivated"}},"Upgraded(address)":{"details":"Emitted when the implementation is upgraded."}},"errors":{"CapacityCommitmentIsActive(uint8)":[{"details":"Capacity commitment is active"}],"CapacityCommitmentIsNotActive(uint8)":[{"details":"Capacity commitment is not active"}],"TooManyProofs()":[{"details":"Throws if peer sent too many proofs for the commitment by unit per epoch"}]}},"id":77}