{"abi":[{"type":"constructor","inputs":[{"name":"core_","type":"address","internalType":"contract ICore"}],"stateMutability":"nonpayable"},{"type":"receive","stateMutability":"payable"},{"type":"function","name":"core","inputs":[],"outputs":[{"name":"","type":"address","internalType":"contract ICore"}],"stateMutability":"view"},{"type":"function","name":"createCommitment","inputs":[{"name":"peerId","type":"bytes32","internalType":"bytes32"},{"name":"duration","type":"uint256","internalType":"uint256"},{"name":"delegator","type":"address","internalType":"address"},{"name":"rewardDelegationRate","type":"uint256","internalType":"uint256"}],"outputs":[{"name":"","type":"bytes32","internalType":"bytes32"}],"stateMutability":"nonpayable"},{"type":"function","name":"depositCollateral","inputs":[{"name":"commitmentIds","type":"bytes32[]","internalType":"bytes32[]"}],"outputs":[],"stateMutability":"payable"},{"type":"function","name":"finishCommitment","inputs":[{"name":"commitmentId","type":"bytes32","internalType":"bytes32"}],"outputs":[],"stateMutability":"nonpayable"},{"type":"function","name":"getCommitment","inputs":[{"name":"commitmentId","type":"bytes32","internalType":"bytes32"}],"outputs":[{"name":"","type":"tuple","internalType":"struct ICapacity.CommitmentView","components":[{"name":"status","type":"uint8","internalType":"enum ICapacity.CCStatus"},{"name":"peerId","type":"bytes32","internalType":"bytes32"},{"name":"collateralPerUnit","type":"uint256","internalType":"uint256"},{"name":"unitCount","type":"uint256","internalType":"uint256"},{"name":"startEpoch","type":"uint256","internalType":"uint256"},{"name":"endEpoch","type":"uint256","internalType":"uint256"},{"name":"rewardDelegatorRate","type":"uint256","internalType":"uint256"},{"name":"delegator","type":"address","internalType":"address"},{"name":"totalFailCount","type":"uint256","internalType":"uint256"},{"name":"failedEpoch","type":"uint256","internalType":"uint256"},{"name":"exitedUnitCount","type":"uint256","internalType":"uint256"}]}],"stateMutability":"view"},{"type":"function","name":"getGlobalNonce","inputs":[],"outputs":[{"name":"","type":"bytes32","internalType":"bytes32"}],"stateMutability":"view"},{"type":"function","name":"getStatus","inputs":[{"name":"commitmentId","type":"bytes32","internalType":"bytes32"}],"outputs":[{"name":"","type":"uint8","internalType":"enum ICapacity.CCStatus"}],"stateMutability":"view"},{"type":"function","name":"initialize","inputs":[{"name":"initGlobalNonce_","type":"bytes32","internalType":"bytes32"}],"outputs":[],"stateMutability":"nonpayable"},{"type":"function","name":"multicall","inputs":[{"name":"data","type":"bytes[]","internalType":"bytes[]"}],"outputs":[{"name":"results","type":"bytes[]","internalType":"bytes[]"}],"stateMutability":"nonpayable"},{"type":"function","name":"onUnitMovedToDeal","inputs":[{"name":"commitmentId","type":"bytes32","internalType":"bytes32"},{"name":"unitId","type":"bytes32","internalType":"bytes32"}],"outputs":[],"stateMutability":"nonpayable"},{"type":"function","name":"onUnitReturnedFromDeal","inputs":[{"name":"commitmentId","type":"bytes32","internalType":"bytes32"},{"name":"unitId","type":"bytes32","internalType":"bytes32"}],"outputs":[],"stateMutability":"nonpayable"},{"type":"function","name":"owner","inputs":[],"outputs":[{"name":"","type":"address","internalType":"address"}],"stateMutability":"view"},{"type":"function","name":"proxiableUUID","inputs":[],"outputs":[{"name":"","type":"bytes32","internalType":"bytes32"}],"stateMutability":"view"},{"type":"function","name":"removeCUFromCC","inputs":[{"name":"commitmentId","type":"bytes32","internalType":"bytes32"},{"name":"unitIds","type":"bytes32[]","internalType":"bytes32[]"}],"outputs":[],"stateMutability":"nonpayable"},{"type":"function","name":"removeCommitment","inputs":[{"name":"commitmentId","type":"bytes32","internalType":"bytes32"}],"outputs":[],"stateMutability":"nonpayable"},{"type":"function","name":"submitProof","inputs":[{"name":"unitId","type":"bytes32","internalType":"bytes32"},{"name":"localUnitNonce","type":"bytes32","internalType":"bytes32"},{"name":"resultHash","type":"bytes32","internalType":"bytes32"}],"outputs":[],"stateMutability":"nonpayable"},{"type":"function","name":"totalRewards","inputs":[{"name":"commitmentId","type":"bytes32","internalType":"bytes32"}],"outputs":[{"name":"","type":"uint256","internalType":"uint256"}],"stateMutability":"view"},{"type":"function","name":"unlockedRewards","inputs":[{"name":"commitmentId","type":"bytes32","internalType":"bytes32"}],"outputs":[{"name":"","type":"uint256","internalType":"uint256"}],"stateMutability":"view"},{"type":"function","name":"upgradeTo","inputs":[{"name":"newImplementation","type":"address","internalType":"address"}],"outputs":[],"stateMutability":"nonpayable"},{"type":"function","name":"upgradeToAndCall","inputs":[{"name":"newImplementation","type":"address","internalType":"address"},{"name":"data","type":"bytes","internalType":"bytes"}],"outputs":[],"stateMutability":"payable"},{"type":"function","name":"withdrawReward","inputs":[{"name":"commitmentId","type":"bytes32","internalType":"bytes32"}],"outputs":[],"stateMutability":"nonpayable"},{"type":"event","name":"AdminChanged","inputs":[{"name":"previousAdmin","type":"address","indexed":false,"internalType":"address"},{"name":"newAdmin","type":"address","indexed":false,"internalType":"address"}],"anonymous":false},{"type":"event","name":"BeaconUpgraded","inputs":[{"name":"beacon","type":"address","indexed":true,"internalType":"address"}],"anonymous":false},{"type":"event","name":"CollateralDeposited","inputs":[{"name":"commitmentId","type":"bytes32","indexed":true,"internalType":"bytes32"},{"name":"totalCollateral","type":"uint256","indexed":false,"internalType":"uint256"}],"anonymous":false},{"type":"event","name":"CommitmentActivated","inputs":[{"name":"peerId","type":"bytes32","indexed":true,"internalType":"bytes32"},{"name":"commitmentId","type":"bytes32","indexed":true,"internalType":"bytes32"},{"name":"startEpoch","type":"uint256","indexed":false,"internalType":"uint256"},{"name":"endEpoch","type":"uint256","indexed":false,"internalType":"uint256"},{"name":"unitIds","type":"bytes32[]","indexed":false,"internalType":"bytes32[]"}],"anonymous":false},{"type":"event","name":"CommitmentCreated","inputs":[{"name":"peerId","type":"bytes32","indexed":true,"internalType":"bytes32"},{"name":"commitmentId","type":"bytes32","indexed":false,"internalType":"bytes32"},{"name":"duration","type":"uint256","indexed":false,"internalType":"uint256"},{"name":"delegator","type":"address","indexed":false,"internalType":"address"},{"name":"rewardDelegationRate","type":"uint256","indexed":false,"internalType":"uint256"},{"name":"fltCollateralPerUnit","type":"uint256","indexed":false,"internalType":"uint256"}],"anonymous":false},{"type":"event","name":"CommitmentFailed","inputs":[{"name":"commitmentId","type":"bytes32","indexed":true,"internalType":"bytes32"},{"name":"failedEpoch","type":"uint256","indexed":false,"internalType":"uint256"}],"anonymous":false},{"type":"event","name":"CommitmentFinished","inputs":[{"name":"commitmentId","type":"bytes32","indexed":true,"internalType":"bytes32"}],"anonymous":false},{"type":"event","name":"CommitmentRemoved","inputs":[{"name":"commitmentId","type":"bytes32","indexed":true,"internalType":"bytes32"}],"anonymous":false},{"type":"event","name":"CommitmentStatsUpdated","inputs":[{"name":"commitmentId","type":"bytes32","indexed":false,"internalType":"bytes32"},{"name":"totalFailCount","type":"uint256","indexed":false,"internalType":"uint256"},{"name":"exitedUnitCount","type":"uint256","indexed":false,"internalType":"uint256"},{"name":"activeUnitCount","type":"uint256","indexed":false,"internalType":"uint256"},{"name":"nextAdditionalActiveUnitCount","type":"uint256","indexed":false,"internalType":"uint256"},{"name":"changedEpoch","type":"uint256","indexed":false,"internalType":"uint256"}],"anonymous":false},{"type":"event","name":"Initialized","inputs":[{"name":"version","type":"uint8","indexed":false,"internalType":"uint8"}],"anonymous":false},{"type":"event","name":"Loggo","inputs":[{"name":"","type":"string","indexed":false,"internalType":"string"},{"name":"","type":"uint256","indexed":false,"internalType":"uint256"}],"anonymous":false},{"type":"event","name":"Loggo","inputs":[{"name":"","type":"string","indexed":false,"internalType":"string"}],"anonymous":false},{"type":"event","name":"ProofSubmitted","inputs":[{"name":"commitmentId","type":"bytes32","indexed":true,"internalType":"bytes32"},{"name":"unitId","type":"bytes32","indexed":true,"internalType":"bytes32"},{"name":"localUnitNonce","type":"bytes32","indexed":false,"internalType":"bytes32"}],"anonymous":false},{"type":"event","name":"RewardWithdrawn","inputs":[{"name":"commitmentId","type":"bytes32","indexed":true,"internalType":"bytes32"},{"name":"amount","type":"uint256","indexed":false,"internalType":"uint256"}],"anonymous":false},{"type":"event","name":"UnitActivated","inputs":[{"name":"commitmentId","type":"bytes32","indexed":true,"internalType":"bytes32"},{"name":"unitId","type":"bytes32","indexed":true,"internalType":"bytes32"},{"name":"startEpoch","type":"uint256","indexed":false,"internalType":"uint256"}],"anonymous":false},{"type":"event","name":"UnitDeactivated","inputs":[{"name":"commitmentId","type":"bytes32","indexed":true,"internalType":"bytes32"},{"name":"unitId","type":"bytes32","indexed":true,"internalType":"bytes32"}],"anonymous":false},{"type":"event","name":"Upgraded","inputs":[{"name":"implementation","type":"address","indexed":true,"internalType":"address"}],"anonymous":false},{"type":"error","name":"BytesLengthMismatch","inputs":[{"name":"expected","type":"uint256","internalType":"uint256"},{"name":"actual","type":"uint256","internalType":"uint256"}]},{"type":"error","name":"CapacityCommitmentIsActive","inputs":[{"name":"status","type":"uint8","internalType":"enum ICapacity.CCStatus"}]},{"type":"error","name":"CapacityCommitmentIsNotActive","inputs":[{"name":"status","type":"uint8","internalType":"enum ICapacity.CCStatus"}]},{"type":"error","name":"TooManyProofs","inputs":[]}],"bytecode":{"object":"0x60c0346200025d57601f620060dd38819003918201601f19168301916001600160401b0383118484101762000262578084926020946040528339810103126200025d57516001600160a01b03811681036200025d573060805260a05260005460ff8160081c16620002085760ff80821603620001cc575b604051615e6490816200027982396080518181816121e8015281816122e30152613a42015260a05181818161013901528181610193015281816101e20152818161049101528181610618015281816106fa015281816109a001528181610a2801528181610a7001528181610d3201528181610dd101528181610e1401528181610e5a015281816111ff0152818161139d0152818161189b015281816118ef015281816119c601528181611a3101528181611fe8015281816123450152818161258e015281816125d6015281816127cf01528181612916015281816129e101528181612c7c01528181612f66015281816134120152818161354f015281816135e50152818161362a01528181613676015281816139b101528181613aa001528181614207015281816143aa01528181614490015281816145f201528181614bcb0152818161502901528181615138015261536f0152f35b60ff90811916176000557f7f26b83ff96e1f2b6a682f133852f6798a09c465da95921460cefb3847402498602060405160ff8152a13862000076565b60405162461bcd60e51b815260206004820152602760248201527f496e697469616c697a61626c653a20636f6e747261637420697320696e697469604482015266616c697a696e6760c81b6064820152608490fd5b600080fd5b634e487b7160e01b600052604160045260246000fdfe60806040526004361015610037575b361561001957600080fd5b600080516020615daf83398151915261003334825461403b565b9055005b60003560e01c80633659cfe614613a1d5780633d081790146139645780633d5f526c146133d0578063474b580914612f365780634ece56851461255f5780634f1ef2861461229457806352d1902d146121d55780635de28ae0146121a85780637795820c14611f32578063886f0e871461185c5780638da5cb5b1461182f5780638e7af1d11461135d57806392163b4b146113425780639498bd7114611175578063ac9650d814611018578063ba50cbd414610970578063d6a1c7f8146106c5578063de64484914610682578063dee7f881146105eb578063ea03ef521461016d5763f2f4eb260361000e5734610168576000366003190112610168576040517f00000000000000000000000000000000000000000000000000000000000000006001600160a01b03168152602090f35b600080fd5b34610168576020366003190112610168576040516380f5560560e01b81526020816004817f00000000000000000000000000000000000000000000000000000000000000006001600160a01b03165afa9081156103a2576000916105bc575b50604051630ecce30160e31b81526020816004817f00000000000000000000000000000000000000000000000000000000000000006001600160a01b03165afa9081156103a25760009161058a575b50600435600052600080516020615d2f83398151915260205260406000209060018201546040516321b9a09560e21b815281600482015260808160248160018060a01b0389165afa9081156103a25760009161055b575b50835492600660ff85161015806105125760ff851615158061054a575b6105285761051257600460ff85161490811591610474575b501561040c57604001519182600f850154036103ae5760ff191660051783556001600160a01b0384163b15610168576040516332763a3760e11b8152600481019190915260006024820181905290938490604490829084906001600160a01b03165af19081156103a2576103699361035092610393575b5061034a601061033f60018060a01b0360058701541693600287015461401b565b94019384549061402e565b9061521c565b6001600160a01b03610360614395565b1690549061521c565b6004357f9e2d7a240cc27393d69de7eebd70ec786ebc4d7a123669543c02276b488118dc600080a2005b61039c90613d25565b8461031e565b6040513d6000823e3d90fd5b60405162461bcd60e51b815260206004820152603060248201527f466f722066696e69736820636f6d6d69746d656e7420616c6c20756e6974732060448201526f1cda1bdd5b1908189948195e1a5d195960821b6064820152608490fd5b60405162461bcd60e51b815260206004820152603a60248201527f436170616369747920636f6d6d69746d656e74206973206661696c656420616e60448201527919081b9bdd08195b9bdd59da08195c1bd8da1cc81c185cdcd95960321b6064820152608490fd5b600c860154604051636f16797760e01b81529192506020826004817f00000000000000000000000000000000000000000000000000000000000000006001600160a01b03165afa9081156103a2576000916104dc575b6104d4925061403b565b1115866102a7565b90506020823d60201161050a575b816104f760209383613da5565b81010312610168576104d49151906104ca565b3d91506104ea565b634e487b7160e01b600052602160045260246000fd5b604051636d25971960e11b81526024906105486004820160ff8916613e1a565bfd5b50506000600460ff8616141561028f565b61057d915060803d608011610583575b6105758183613da5565b810190613fc6565b85610272565b503d61056b565b90506020813d6020116105b4575b816105a560209383613da5565b8101031261016857518261021b565b3d9150610598565b6105de915060203d6020116105e4575b6105d68183613da5565b810190613f1b565b816101cc565b503d6105cc565b34610168576105f936613e67565b6040516380f5560560e01b81526001600160a01b0392906020816004817f000000000000000000000000000000000000000000000000000000000000000088165afa80156103a25761065f9461065a92600092610661575b5016331461454b565b6145ce565b005b61067b91925060203d6020116105e4576105d68183613da5565b9086610651565b3461016857602036600319011261016857600435600052600080516020615d2f83398151915260205260206106bd60116040600020016159c8565b604051908152f35b3461016857602080600319360112610168576040516380f5560560e01b81526004803592906001600160a01b039082908490817f000000000000000000000000000000000000000000000000000000000000000085165afa9283156103a257600093610951575b5083600052600080516020615d2f833981519152808352600191806001604060002001549516906040516321b9a09560e21b8152866004820152608081602481865afa9081156103a257600091610932575b50519060405191631ab2f71960e31b8352600483015260c082602481865afa80156103a2576107b992600091610903575b505116331461441a565b6107c2866141e7565b946006861015610512576107d96002809714613f4a565b813b15610168576000916044839260405194859384926332763a3760e11b845260048401528160248401525af180156103a2576108f4575b508460005282526012604060002060008155600060018201556000600282015560006003820155600060048201556000600582015560006006820155610859600782016145b0565b610865600c82016145b0565b60006011820155019182549260008155836108a3575b857f159bd9560f82a1e39125a438288d0cfb97f2dd09bd7338cf55ef5e8c566cff44600080a2005b6001600160ff1b03841684036108de576000526000209160011b8201915b8281106108ce578061087b565b60008082558282015583016108c1565b634e487b7160e01b600052601160045260246000fd5b6108fd90613d25565b85610811565b610925915060c03d60c01161092b575b61091d8183613da5565b81019061405f565b896107af565b503d610913565b61094b915060803d608011610583576105758183613da5565b8861077e565b610969919350823d84116105e4576105d68183613da5565b918461072c565b346101685761097e36613e67565b6040516380f5560560e01b8082529192916001600160a01b03916020816004817f000000000000000000000000000000000000000000000000000000000000000087165afa80156103a2576109df91600091610ff9575b508316331461454b565b600080516020615d4f83398151915260606040516020815260116020820152701bdb955b9a5d135bdd9959151bd119585b607a1b6040820152a1604051908152602081600481857f0000000000000000000000000000000000000000000000000000000000000000165afa9081156103a257600091610fda575b50604051630ecce30160e31b8152906020826004817f000000000000000000000000000000000000000000000000000000000000000087165afa9081156103a2578392600092610fa3575b50600080516020615dcf8339815191526080604051604081526013604082015272636f72652e63757272656e7445706f6368282960681b6060820152846020820152a184600052600080516020615d2f83398151915260205260806040600020916024600184015460405197889384926321b9a09560e21b84526004840152165afa9384156103a257600094610f82575b508560005260138101602052604060002093610b5a600683015460038401549061403b565b90600080516020615dcf83398151915260806040516040815260116040820152705f6578706972656445706f63682863632960781b6060820152846020820152a1610bb18285610ba986614a40565b938487614b34565b600080516020615d4f833981519152608060405160208152602460208201527f4265666f7265205f706f7374436f6d6d6974436f6d6d69746d656e74536e61706040820152631cda1bdd60e21b6060820152a1610c0f82858a614e41565b60068110156105125760018103610f65575090602080610c8693600080516020615d4f83398151915260806040518481526023858201527f4166746572205f706f7374436f6d6d6974436f6d6d69746d656e74536e6170736040820152621a1bdd60ea1b6060820152a101510151908487856152f4565b50600080516020615d4f833981519152606060405160208152601960208201527810599d195c8817d8dbdb5b5a5d155b9a5d14db985c1cda1bdd603a1b6040820152a1600a810192600080516020615dcf833981519152608085546040519060408252601b60408301527a18d8cb9c1c9bd9dc995cdccb9858dd1a5d99555b9a5d10dbdd5b9d602a1b60608301526020820152a1604051637e81538160e01b80825295906020816004817f000000000000000000000000000000000000000000000000000000000000000087165afa9081156103a257600091610f32575b506080600080516020615dcf8339815191529160405190604082526016604083015275636f72652e616374697665556e6974436f756e74282960501b60608301526020820152a1600160ff19825416179055610dc084546145a3565b8455604051948552602085600481847f0000000000000000000000000000000000000000000000000000000000000000165afa9485156103a257600095610efe575b50600019948086019081116108de57817f0000000000000000000000000000000000000000000000000000000000000000163b1561016857600091602483926040519485938492634597226960e11b845260048401527f0000000000000000000000000000000000000000000000000000000000000000165af180156103a257610eef575b50600881015491600b600f83015494549201549481019081116108de57600080516020615c4f83398151915294610ec59260405195869589876140ef565b0390a17fbd9cde1bbc961036d34368ae328c38917036a98eacfb025a1ff6d2c6235d0a14600080a3005b610ef890613d25565b86610e87565b9094506020813d602011610f2a575b81610f1a60209383613da5565b8101031261016857519387610e02565b3d9150610f0d565b90506020813d602011610f5d575b81610f4d60209383613da5565b8101031261016857516080610d64565b3d9150610f40565b6040516242963960e51b8152602491610548906004830190613e1a565b610f9c91945060803d608011610583576105758183613da5565b9286610b35565b925090506020823d602011610fd2575b81610fc060209383613da5565b81010312610168578291519086610aa4565b3d9150610fb3565b610ff3915060203d6020116105e4576105d68183613da5565b84610a59565b611012915060203d6020116105e4576105d68183613da5565b866109d5565b3461016857602080600319360112610168576001600160401b036004358181116101685761104a903690600401613cf5565b909161105582614048565b926110636040519485613da5565b82845261106f83614048565b601f19018560005b8281106111665750505060005b8381106110e957604080518781528651818901819052600092600582901b8301810191898b01918b9085015b8287106110bd5785850386f35b9091929382806110d9600193603f198a82030186528851613e27565b96019201960195929190926110b0565b8060051b820135601e19833603018112156101685782019081359184831161016857870182360381136101685761112761114a916001943691613de3565b60008061113261597f565b928b81519101305af4611143614161565b9030615b51565b6111548288614537565b5261115f8187614537565b5001611084565b60608782018301528101611077565b3461016857602080600319360112610168576000549060ff8260081c161591828093611335575b801561131e575b156112c25760ff198116600117600055826112b0575b50600054916111d660ff8460081c166111d18161591f565b61591f565b60048035600080516020615def83398151915255604051630ecce30160e31b81529083908290817f00000000000000000000000000000000000000000000000000000000000000006001600160a01b03165afa9081156103a257600091611283575b50600080516020615d6f8339815191525561124f57005b7f7f26b83ff96e1f2b6a682f133852f6798a09c465da95921460cefb38474024989161ff00191660005560405160018152a1005b90508281813d83116112a9575b61129a8183613da5565b81010312610168575184611238565b503d611290565b61ffff191661010117600055826111b9565b60405162461bcd60e51b815260048101839052602e60248201527f496e697469616c697a61626c653a20636f6e747261637420697320616c72656160448201526d191e481a5b9a5d1a585b1a5e995960921b6064820152608490fd5b50303b1580156111a35750600160ff8216146111a3565b50600160ff82161061119c565b346101685760003660031901126101685760206106bd61447b565b34610168576040366003190112610168576024356001600160401b0381116101685761138d903690600401613cf5565b6040516380f5560560e01b8152917f00000000000000000000000000000000000000000000000000000000000000006001600160a01b03169190602084600481865afa9283156103a25760049460009461180d575b5060209060405195868092630ecce30160e31b82525afa9384156103a2576000946117d9575b50600435600052600080516020615d2f83398151915260205260406000209261143a600685015460038601549061403b565b60018501546040516321b9a09560e21b81526004810182905294909291906080866024816001600160a01b0387165afa9586156103a2576000966117b8575b508551604051631ab2f71960e31b8152600481019190915260c0816024816001600160a01b0388165afa80156103a2576114c791600091611799575b50516001600160a01b0316331461441a565b6114dd82896114d58a614a40565b98898b614b34565b6114ea8789600435614e41565b6006811015610512578015158061178e575b611770575060005b818110611555576008880154600f890154600a8a0154600b8b015492906000198d018d81116108de57600080516020615c4f8339815191529461155092604051958695600435876140ef565b0390a1005b611560818388613f3a565b60405163745e920b60e01b815290356004820181905291906060816024816001600160a01b038a165afa9081156103a257600091611741575b50866020820151036116e1578260005260148a0160205260ff604060002054166116a357516001600160a01b0316611645575b8160209260005260138a0183526115f38a868d8c87604060002098899201510151936152f4565b50600f8a0154926001840184116108de576002611621918c600f6001809801910155015460108c015461403b565b60108b01556000526014890160205260406000208260ff1982541617905501611504565b6001600160a01b0385163b1561016857604051630a57e6a960e11b81526004810183905291600083602481836001600160a01b038b165af19283156103a257602093611694575b5091506115cc565b61169d90613d25565b8b61168c565b60405162461bcd60e51b815260206004820152601660248201527510dbdb5c1d5d19481d5b9a5d081a5cc8195e1a5d195960521b6044820152606490fd5b60405162461bcd60e51b815260206004820152603260248201527f436f6d7075746520756e697420646f65736e27742062656c6f6e6720746f2063604482015271185c1858da5d1e4818dbdb5b5a5d1b595b9d60721b6064820152608490fd5b611763915060603d606011611769575b61175b8183613da5565b810190614117565b8b611599565b503d611751565b604051636d25971960e11b8152602491610548906004830190613e1a565b5060048114156114fc565b6117b2915060c03d60c01161092b5761091d8183613da5565b8a6114b5565b6117d291965060803d608011610583576105758183613da5565b9488611479565b9093506020813d602011611805575b816117f560209383613da5565b8101031261016857519284611408565b3d91506117e8565b602091945061182890823d84116105e4576105d68183613da5565b93906113e2565b3461016857600036600319011261016857602061184a614395565b6040516001600160a01b039091168152f35b34610168576080366003190112610168576044356001600160a01b03811690036101685760405163673448dd60e01b81523360048201526020816024817f00000000000000000000000000000000000000000000000000000000000000006001600160a01b03165afa9081156103a257600091611ef7575b5015611ea6576040516380f5560560e01b81526020816004817f00000000000000000000000000000000000000000000000000000000000000006001600160a01b03165afa9081156103a257600091611e87575b506040516321b9a09560e21b815260048035908201526080816024816001600160a01b0386165afa9081156103a257600091611e68575b506020810151611e255751604051631ab2f71960e31b8152600481019190915260c0816024816001600160a01b0386165afa9081156103a257600091611e06575b50516001600160a01b03163303611dac57604051635671576160e01b81526020816004817f00000000000000000000000000000000000000000000000000000000000000006001600160a01b03165afa9081156103a257600091611d7a575b5060243510611d105760643515611cc5576298968060643511611c79576040516327f9efeb60e11b81526020816004817f00000000000000000000000000000000000000000000000000000000000000006001600160a01b03165afa9081156103a257600091611c47575b5060405160208101904382526004356040820152602435606082015260018060601b031960443560601b166080820152606435609482015260948152611aaf81613d6f565b5190209081600052600080516020615d2f83398151915260205260406000206040518060e081011060018060401b0360e083011117611c31576000918260c08360e0600695016040526002815260043560208201528660408201526024356060820152606435608082015260018060a01b036044351660a08201520152600260ff198254161781556004356001820155836002820155602435600382015560643560048201556005810160018060a01b036044351660018060a01b0319825416179055015560018060a01b0383163b15610168576040516332763a3760e11b8152600480359082015260248101839052926000908490604490829084906001600160a01b03165af19283156103a257602093611c22575b50604051908282526024358483015260018060a01b03604435166040830152606435606083015260808201527f2764696d7b2884dde865501f6b61168dcd00f8bed537f0aca4a1f583341a4c6560a060043592a2604051908152f35b611c2b90613d25565b83611bc6565b634e487b7160e01b600052604160045260246000fd5b90506020813d602011611c71575b81611c6260209383613da5565b81010312610168575182611a6a565b3d9150611c55565b60405162461bcd60e51b81526020600482015260306024820152600080516020615c6f83398151915260448201526f206c657373206f7220657175616c203160801b6064820152608490fd5b60405162461bcd60e51b815260206004820152602f6024820152600080516020615c6f83398151915260448201526e02067726561746572207468616e203608c1b6064820152608490fd5b608460405162461bcd60e51b815260206004820152604060248201527f4475726174696f6e2073686f756c642062652067726561746572207468616e2060448201527f6d696e20636170616369747920636f6d6d69746d656e74206475726174696f6e6064820152fd5b90506020813d602011611da4575b81611d9560209383613da5565b810103126101685751826119ff565b3d9150611d88565b60405162461bcd60e51b815260206004820152602c60248201527f4f6e6c792070726f76696465722063616e20637265617465206361706163697460448201526b1e4818dbdb5b5a5d1b595b9d60a21b6064820152608490fd5b611e1f915060c03d60c01161092b5761091d8183613da5565b826119a0565b60405162461bcd60e51b815260206004820152601b60248201527a1419595c88185b1c9958591e481a185cc818dbdb5b5a5d1b595b9d602a1b6044820152606490fd5b611e81915060803d608011610583576105758183613da5565b8261195f565b611ea0915060203d6020116105e4576105d68183613da5565b81611928565b60405162461bcd60e51b815260206004820152602360248201527f57686974656c6973743a2070726f7669646572206973206e6f7420617070726f6044820152621d995960ea1b6064820152608490fd5b90506020813d602011611f2a575b81611f1260209383613da5565b810103126101685751801515810361016857816118d4565b3d9150611f05565b34610168576020366003190112610168576004356000610140604051611f5781613d38565b8281528260208201528260408201528260608201528260808201528260a08201528260c08201528260e08201528261010082015282610120820152015280600052600080516020615d2f833981519152602052604060002090611fc9600183015491611fc4831515614191565b6141e7565b60028301546040516380f5560560e01b815293919291906020856004817f00000000000000000000000000000000000000000000000000000000000000006001600160a01b03165afa9485156103a257602495608091600091612189575b506040516321b9a09560e21b81526004810186905296879182906001600160a01b03165afa9485156103a2576101609560409160009161216a575b500151600683015461207860038501548261403b565b60048501549160018060a01b0360058701541693600887015495600f600c890154980154986120b36040519b6120ad8d613d38565b8c61437c565b60208b015260408a01526060890152608088015260a087015260c086015260e0850152610100840152610120830152610140820152610140604051916120fa838251613e1a565b6020810151602084015260408101516040840152606081015160608401526080810151608084015260a081015160a084015260c081015160c084015260018060a01b0360e08201511660e08401526101008101516101008401526101208101516101208401520151610140820152f35b612183915060803d608011610583576105758183613da5565b87612062565b6121a2915060203d6020116105e4576105d68183613da5565b87612027565b346101685760203660031901126101685760206121c66004356141e7565b6121d36040518092613e1a565bf35b34610168576000366003190112610168577f00000000000000000000000000000000000000000000000000000000000000006001600160a01b0316300361222e576020604051600080516020615caf8339815191528152f35b60405162461bcd60e51b815260206004820152603860248201527f555550535570677261646561626c653a206d757374206e6f742062652063616c6044820152771b1959081d1a1c9bdd59da0819195b1959d85d1958d85b1b60421b6064820152608490fd5b6040366003190112610168576122a8613cdf565b6024356001600160401b0381116101685736602382011215610168576122d8903690602481600401359101613de3565b906001600160a01b037f0000000000000000000000000000000000000000000000000000000000000000811661231030821415613e7d565b61232d600080516020615caf833981519152918383541614613ecc565b604051638da5cb5b60e01b81526020929083816004817f000000000000000000000000000000000000000000000000000000000000000086165afa9081156103a25760009161252a575b5081339116036124eb57600080516020615c2f8339815191525460ff16156123a65750505061065f91506159f8565b83929316906040516352d1902d60e01b81528481600481865afa600091816124bc575b506124185760405162461bcd60e51b815260048101869052602e6024820152600080516020615e0f83398151915260448201526d6f6e206973206e6f74205555505360901b6064820152608490fd5b0361247757612426826159f8565b600080516020615d0f833981519152600080a282511580159061246f575b61244a57005b60008061065f9461245961597f565b9481519101845af4612469614161565b91615b51565b506001612444565b60405162461bcd60e51b81526004810184905260296024820152600080516020615d8f8339815191526044820152681a58589b195555525160ba1b6064820152608490fd5b9091508581813d83116124e4575b6124d48183613da5565b81010312610168575190876123c9565b503d6124ca565b60405162461bcd60e51b81526004810184905260236024820152600080516020615ccf8339815191526044820152623732b960e91b6064820152608490fd5b90508381813d8311612558575b6125418183613da5565b810103126101685761255290613fb2565b86612377565b503d612537565b34610168576060366003190112610168576040516380f5560560e01b81526001600160a01b03906020816004817f000000000000000000000000000000000000000000000000000000000000000086165afa9081156103a257600091612f17575b50604051630ecce30160e31b81526020816004817f000000000000000000000000000000000000000000000000000000000000000087165afa9182156103a2578391600093612ee0575b501660405163745e920b60e01b81526004356004820152606081602481855afa9081156103a257608091602091600091612ec1575b5001516024604051809481936321b9a09560e21b835260048301525afa9081156103a257600091612ea2575b50826060820151163303612e4c576020810151928315612dfb5783600052600080516020615d2f833981519152602052604060002091600683015490818510612dab57600435600052601384016020526126cf60406000209260038601549061403b565b906126e682876126de88614a40565b938489614b34565b60068110156105125760018103610f655750906020808361270b61271895898c614e41565b01510151908684876152f4565b5083600080516020615d6f83398151915281815403612d83575b5050600080516020615def8339815191525490436000198101116108de57604051602081019083825260001943014060408201526004356060820152602435608082015260443560a082015260a0815261278b81613d6f565b519020600080516020615c0f833981519152558460005260038101602052604060002054916001830183116108de5760405163280c5e5160e01b81526020816004817f000000000000000000000000000000000000000000000000000000000000000089165afa9081156103a257600091612d51575b506001840111612d3f576040516020810191825260043560408201526040815261282a81613d8a565b5190209182600052600080516020615bef833981519152602052604060002060243560005260205260ff60406000205416612ce95782600052600080516020615bef83398151915260205260406000206024356000526020526040600020600160ff1982541617905585600052600080516020615cef833981519152602052604060002080548015612c66575b600183018103612c2e57506007860154926001840184116108de5760016003928180960160078a0155016128ee858501825461403b565b90555b87600052016020520160406000205560405163919f49f960e01b8152602081600481867f0000000000000000000000000000000000000000000000000000000000000000165afa9081156103a257600091612bf4575b506040519163315fef3560e21b6020840152602483015260243560448301526044825281608081011060018060401b03608084011117611c315781600092916080849301604052602082519201905af461299f614161565b9015612bb557805160208103612b9657506000906000905b60208210612b4557505060443503612b0b57602060049160405192838092630ce5723160e11b82527f0000000000000000000000000000000000000000000000000000000000000000165afa9081156103a257600091612ad9575b5060443511612a94576008810154600f82015491600b600a8201549101549360001981019081116108de57600080516020615c4f83398151915294612a5e9260405195869589876140ef565b0390a16040519060243582527f32c9117442431c0bcfdbbef33bc9918d148ad082e0f38d70bbde857f01d225c8602060043593a3005b60405162461bcd60e51b815260206004820152601f60248201527f50726f6f6620697320626967676572207468616e20646966666963756c7479006044820152606490fd5b90506020813d602011612b03575b81612af460209383613da5565b81010312610168575184612a12565b3d9150612ae7565b60405162461bcd60e51b8152602060048201526012602482015271141c9bdbd9881a5cc81b9bdd081d985b1a5960721b6044820152606490fd5b90918151831015612b805760ff60f81b602084840101511690838060031b04600814841517156108de576001918460031b1c179201906129b7565b634e487b7160e01b600052603260045260246000fd5b6044906040519063c1cd44b360e01b8252602060048301526024820152fd5b60405162461bcd60e51b815260206004820152601760248201527614985b991bdb56141c9bde1e4b9c9d5b8819985a5b1959604a1b6044820152606490fd5b90506020813d602011612c26575b81612c0f60209383613da5565b8101031261016857612c2090613fb2565b86612947565b3d9150612c02565b6001830111612c43575b5060036001926128f1565b6001810154909260001982146108de576001938480600394019101559250612c38565b50604051630e79c62760e41b81526020816004817f00000000000000000000000000000000000000000000000000000000000000008a165afa9081156103a257600091612cb7575b508082556128b7565b90506020813d602011612ce1575b81612cd260209383613da5565b81010312610168575189612cae565b3d9150612cc5565b60405162461bcd60e51b815260206004820152602860248201527f50726f6f6620697320616c7265616479207375626d697474656420666f7220746044820152671a1a5cc81d5b9a5d60c21b6064820152608490fd5b60405163e5d50da760e01b8152600490fd5b90506020813d602011612d7b575b81612d6c60209383613da5565b81010312610168575188612801565b3d9150612d5f565b55600080516020615c0f83398151915254600080516020615def833981519152558386612732565b60405162461bcd60e51b815260206004820152602260248201527f436170616369747920636f6d6d69746d656e74206973206e6f74207374617274604482015261195960f21b6064820152608490fd5b60405162461bcd60e51b8152602060048201526024808201527f436f6d7075746520756e697420646f65736e2774206861766520636f6d6d69746044820152631b595b9d60e21b6064820152608490fd5b60405162461bcd60e51b815260206004820152602860248201527f4f6e6c7920636f6d707574652070656572206f776e65722063616e207375626d60448201526734ba10383937b7b360c11b6064820152608490fd5b612ebb915060803d608011610583576105758183613da5565b8361266b565b612eda915060603d6060116117695761175b8183613da5565b8661263f565b915091506020813d602011612f0f575b81612efd60209383613da5565b8101031261016857829051918461260a565b3d9150612ef0565b612f30915060203d6020116105e4576105d68183613da5565b826125c0565b3461016857602080600319360112610168576040516380f5560560e01b81526001600160a01b03916004803591907f00000000000000000000000000000000000000000000000000000000000000008516908290859081845afa9384156103a2576000946133ac575b508160049160405192838092630ecce30160e31b82525afa9081156103a25760009161337f575b508083600052600080516020615d2f8339815191528352856040600020951691600186015492604051936321b9a09560e21b855260048501526024936080818681855afa9081156103a257600091613360575b5080519060405193631ab2f71960e31b92838652600486015260c09485818981885afa80156103a2578c91600091613343575b50511633148015613334575b156132d9579087806130926130988a958e8e61307382614a40565b948593613089600685015460038601549061403b565b908a8686614b34565b50614e41565b01510151806132d1575b5051604051928352600483015290918391839182905afa9081156103a25788926000926132b4575b505051169560118601966130de8389615a88565b976000891261327a5761311361310c6130ff8a9b601260019a9b9c0161499e565b508354988991015461402e565b809761403b565b9055600080516020615daf83398151915280548087116131fa579061313d8761317095949361402e565b905561316b6298968061315460048c01548961401b565b0461315f818961402e565b9360058c01541661521c565b61521c565b600886015491600f87015496600b600a8201549101549160001984019384116131e657507f9b5336625f529f36cb0543297bdf5075b7f6b830bb892ff97c09fbfeae6255d5969792600080516020615c4f83398151915294926131da926040519586958c876140ef565b0390a1604051908152a2005b634e487b7160e01b60009081526011600452fd5b60405162461bcd60e51b815260048101899052604d818801527f4e6f7420656e6f756768207265776172642062616c616e636520706f6f6c206f60448201527f6e2074686520636f6e74726163742e2057616974207768656e2044414f20776960648201526c3636103932b334b6361034ba1760991b608482015260a490fd5b60405162461bcd60e51b815260048101879052601381870152724e6f7468696e6720746f20776974686472617760681b6044820152606490fd5b6132ca9250803d1061092b5761091d8183613da5565b88806130ca565b9550846130a2565b60405162461bcd60e51b815260048101899052602e818901527f4f6e6c792070726f7669646572206f722064656c656761746f722063616e207760448201526d1a5d1a191c985dc81c995dd85c9960921b6064820152608490fd5b50338b60058c01541614613058565b61335a9150873d891161092b5761091d8183613da5565b8d61304c565b613379915060803d608011610583576105758183613da5565b89613019565b90508181813d83116133a5575b6133968183613da5565b81010312610168575185612fc6565b503d61338c565b60049194506133c88391823d84116105e4576105d68183613da5565b949150612f9f565b6020366003190112610168576004356001600160401b038111610168576133fb903690600401613cf5565b6040516380f5560560e01b815290916020826004817f00000000000000000000000000000000000000000000000000000000000000006001600160a01b03165afa9182156103a257600092613943575b50349260005b818110613496578461345f57005b60405162461bcd60e51b815260206004820152600f60248201526e4578636573736976652076616c756560881b6044820152606490fd5b6134a1818385613f3a565b3580600052600080516020615d2f83398151915260205260406000206134c6826141e7565b60068110156105125760026134db9114613f4a565b60018101546040516321b9a09560e21b8152600481018290529091906080816024816001600160a01b038c165afa80156103a257604091600091613924575b5001519061353661352f60028301548461401b565b809a61402e565b604051630ecce30160e31b8152909990926020846004817f00000000000000000000000000000000000000000000000000000000000000006001600160a01b03165afa9384156103a2576000946138f0575b506005830180546001600160a01b0381168061389757506001600160a01b031916331790555b6001840184116108de5760018401600684015560098301849055600a8301819055604051637e81538160e01b8152906020826004817f00000000000000000000000000000000000000000000000000000000000000006001600160a01b03165afa80156103a257600090613863575b613627925061403b565b917f00000000000000000000000000000000000000000000000000000000000000006001600160a01b03163b1561016857604051634597226960e11b81526004810193909352600083602481837f00000000000000000000000000000000000000000000000000000000000000006001600160a01b03165af19182156103a2577fd752175fe73028b933ce110fbf0ff2e6e254cd0384b5773960fe1114e29bdda6602088926136f696600396613854575b50845460ff19166001178555604051908152a201546001830161403b565b60405163315631fd60e11b81526004810184905290916000826024816001600160a01b038d165afa9182156103a2576000926137ae575b50604051926060906001828601930185526020850152604084015281518091526020608084019201906000905b80821061379657505050816001959493927f0b0a4688a90d1b24732d05ddf4925af69f02cd7d9a921b1cdcd4a7c2b6d57d68920390a301613451565b9091926020806001928651815201940192019061375a565b9091503d806000833e6137c18183613da5565b8101602082820312610168578151916001600160401b0383116101685781601f8483010112156101685782810151906137f982614048565b936138076040519586613da5565b828552602085019360208460051b83850101011161016857602081830101935b60208460051b83850101018510613844575050505050908a61372d565b8451815260209485019401613827565b61385d90613d25565b8f6136d8565b506020823d60201161388f575b8161387d60209383613da5565b8101031261016857613627915161361d565b3d9150613870565b91505033146135ae5760405162461bcd60e51b815260206004820152602260248201527f4f6e6c792064656c656761746f722063616e206c6f636b20636f6c6c61746572604482015261185b60f21b6064820152608490fd5b9093506020813d60201161391c575b8161390c60209383613da5565b810103126101685751928b613588565b3d91506138ff565b61393d915060803d608011610583576105758183613da5565b8a61351a565b61395d91925060203d6020116105e4576105d68183613da5565b908361344b565b346101685760208060031936011261016857600435600052600080516020615d2f8339815191528152601160406000200160405190630ecce30160e31b8252828260048160018060a01b037f0000000000000000000000000000000000000000000000000000000000000000165afa9081156103a2576000916139ec575b6106bd92506149ba565b90508282813d8311613a16575b613a038183613da5565b81010312610168576106bd9151906139e2565b503d6139f9565b346101685760208060031936011261016857613a37613cdf565b6001600160a01b03917f00000000000000000000000000000000000000000000000000000000000000008316613a6f30821415613e7d565b613a8c600080516020615caf833981519152918583541614613ecc565b604051638da5cb5b60e01b815282816004817f000000000000000000000000000000000000000000000000000000000000000089165afa9081156103a257600091613caa575b508433911603613c6b57604051828101949091906001600160401b03861183871017611c3157856040526000835260ff600080516020615c2f8339815191525416600014613b28575050505061065f91506159f8565b8492939416906040516352d1902d60e01b81528581600481865afa60009181613c3c575b50613b9b5760405162461bcd60e51b815260048101879052602e6024820152600080516020615e0f83398151915260448201526d6f6e206973206e6f74205555505360901b6064820152608490fd5b949192939403613bf85750613baf826159f8565b600080516020615d0f833981519152600080a2815115801590613bf0575b613bd357005b60008061065f94613be261597f565b945190845af4612469614161565b506000613bcd565b6084906040519062461bcd60e51b8252600482015260296024820152600080516020615d8f8339815191526044820152681a58589b195555525160ba1b6064820152fd5b9091508681813d8311613c64575b613c548183613da5565b8101031261016857519088613b4c565b503d613c4a565b60405162461bcd60e51b81526004810183905260236024820152600080516020615ccf8339815191526044820152623732b960e91b6064820152608490fd5b90508281813d8311613cd8575b613cc18183613da5565b8101031261016857613cd290613fb2565b85613ad2565b503d613cb7565b600435906001600160a01b038216820361016857565b9181601f84011215610168578235916001600160401b038311610168576020808501948460051b01011161016857565b6001600160401b038111611c3157604052565b61016081019081106001600160401b03821117611c3157604052565b604081019081106001600160401b03821117611c3157604052565b60c081019081106001600160401b03821117611c3157604052565b606081019081106001600160401b03821117611c3157604052565b601f909101601f19168101906001600160401b03821190821017611c3157604052565b6001600160401b038111611c3157601f01601f191660200190565b929192613def82613dc8565b91613dfd6040519384613da5565b829481845281830111610168578281602093846000960137010152565b9060068210156105125752565b919082519283825260005b848110613e53575050826000602080949584010152601f8019910116010190565b602081830181015184830182015201613e32565b6040906003190112610168576004359060243590565b15613e8457565b60405162461bcd60e51b815260206004820152602c6024820152600080516020615c8f83398151915260448201526b19195b1959d85d1958d85b1b60a21b6064820152608490fd5b15613ed357565b60405162461bcd60e51b815260206004820152602c6024820152600080516020615c8f83398151915260448201526b6163746976652070726f787960a01b6064820152608490fd5b9081602091031261016857516001600160a01b03811681036101685790565b9190811015612b805760051b0190565b15613f5157565b60405162461bcd60e51b815260206004820152603360248201527f436170616369747920636f6d6d69746d656e74206973206e6f7420696e205761604482015272697444656c65676174696f6e2073746174757360681b6064820152608490fd5b51906001600160a01b038216820361016857565b908160809103126101685760405190608082016001600160401b03811183821017611c31576140139160609160405280518452602081015160208501526040810151604085015201613fb2565b606082015290565b818102929181159184041417156108de57565b919082039182116108de57565b919082018092116108de57565b6001600160401b038111611c315760051b60200190565b908160c0910312610168576040519060c08201906001600160401b03821183831017611c315760a09160405261409481613fb2565b8352602081015160208401526140ac60408201613fb2565b60408401526060810151606084015260808101516080840152015160a082015290565b81156140d9570490565b634e487b7160e01b600052601260045260246000fd5b9260a094919796959260c0850198855260208501526040840152606083015260808201520152565b90816060910312610168576040519060608201906001600160401b03821183831017611c3157604091825261414b81613fb2565b8352602081015160208401520151604082015290565b3d1561418c573d9061417282613dc8565b916141806040519384613da5565b82523d6000602084013e565b606090565b1561419857565b60405162461bcd60e51b815260206004820152602160248201527f436170616369747920636f6d6d69746d656e7420646f65736e277420657869736044820152601d60fa1b6064820152608490fd5b604080516380f5560560e01b81526001600160a01b0393929091906020907f00000000000000000000000000000000000000000000000000000000000000008616908285600481855afa94851561437157600095614352575b50600052600080516020615d2f8339815191528252608083600020946024600187015461426e811515614191565b8651998a9384926321b9a09560e21b84526004840152165afa9182156143475760049596600093614326575b50806142a586614a40565b92855197888092630ecce30160e31b82525afa93841561431c57506000936142ea575b506142e794506142e1600685015460038601549061403b565b93614b34565b90565b90925084813d8311614315575b6143018183613da5565b81010312610168576142e7935191386142c8565b503d6142f7565b513d6000823e3d90fd5b61434091935060803d608011610583576105758183613da5565b913861429a565b83513d6000823e3d90fd5b61436a919550833d85116105e4576105d68183613da5565b9338614240565b84513d6000823e3d90fd5b60068210156105125752565b5160068110156105125790565b604051638da5cb5b60e01b81526020816004817f00000000000000000000000000000000000000000000000000000000000000006001600160a01b03165afa9081156103a2576000916143e6575090565b90506020813d602011614412575b8161440160209383613da5565b81010312610168576142e790613fb2565b3d91506143f4565b1561442157565b60405162461bcd60e51b815260206004820152602c60248201527f4f6e6c792070726f76696465722063616e2072656d6f7665206361706163697460448201526b1e4818dbdb5b5a5d1b595b9d60a21b6064820152608490fd5b604051630ecce30160e31b81526020816004817f00000000000000000000000000000000000000000000000000000000000000006001600160a01b03165afa9081156103a257600091614505575b50600080516020615d6f83398151915254036144f257600080516020615def8339815191525490565b600080516020615c0f8339815191525490565b90506020813d60201161452f575b8161452060209383613da5565b810103126101685751386144c9565b3d9150614513565b8051821015612b805760209160051b010190565b1561455257565b60405162461bcd60e51b8152602060048201526024808201527f426173654d6f64756c653a2063616c6c6572206973206e6f7420746865206d616044820152631c9ad95d60e21b6064820152608490fd5b80156108de576000190190565b60046000918281558260018201558260028201558260038201550155565b604080516380f5560560e01b81526001600160a01b039493909291906020906000907f0000000000000000000000000000000000000000000000000000000000000000881690600484888281865afa978815614994578498614975575b508551630ecce30160e31b81529285848381845afa93841561496b578594614938575b50600184018085116149255760001985019b858d1161491257898752600080516020615d2f83398151915288528887209a169160018b0154958951966321b9a09560e21b8852858801526024966080818981885afa9081156148aa578d6146f88e94938e8e8c8f60019781956148f1575b50526013850190528d20926146f26146e0600683015460038401549061403b565b876146ea84614a40565b948585614b34565b96614e41565b60ff1981541681550155858b7f8e4b27eeb3194deef0b3140997e6b82f53eb7350daceb9355268009b92f70add8b8d51878152a360068110156148df578481159182156148d5575b50506148c657600b8b01978854600181018091116148b45789558951637e81538160e01b815281818781865afa9182156148aa57899261487c575b50506001810180911161486a57813b156148665787918783928c519485938492634597226960e11b84528a8401525af1801561485c57614849575b50813b156148455791856044928195948a5197889687956307a42ef960e21b87528601528401525af1801561483b57614824575b50509461481f91600080516020615c4f8339815191529596600886015495600a600f82015491015491549251968796876140ef565b0390a1565b61482e8291613d25565b61483857806147ea565b80fd5b84513d84823e3d90fd5b8580fd5b61485590969196613d25565b94386147b6565b89513d89823e3d90fd5b8780fd5b634e487b7160e01b8852601185528688fd5b90809250813d83116148a3575b6148938183613da5565b810103126148665751388061477b565b503d614889565b8b513d8b823e3d90fd5b634e487b7160e01b8952601186528789fd5b50505050505050505050509050565b1490508438614740565b634e487b7160e01b8852602185528688fd5b61490b91955060803d608011610583576105758183613da5565b93386146bf565b634e487b7160e01b875260118452602487fd5b634e487b7160e01b865260118352602486fd5b9093508581813d8311614964575b6149508183613da5565b810103126149605751923861464e565b8480fd5b503d614946565b87513d87823e3d90fd5b61498d919850853d87116105e4576105d68183613da5565b963861462b565b86513d86823e3d90fd5b8054821015612b805760005260206000209060011b0190600090565b906149c59082615a88565b90600082126149ea5760016149df6142e79382840161499e565b50015490549061402e565b5050600090565b6040519061010082016001600160401b03811183821017611c31576040528160e06000918281528260208201528260408201528260608201528260808201528260a08201528260c08201520152565b90604051614a4d81613d54565b614a556149f1565b815260e0806020830192614a676149f1565b845260078196614a7c60ff825416845161437c565b600c810154602084510152600d8101546040845101526008810154606084510152600a810154608084510152600b81015460a084510152600981015460c08451015201548282510152614ad9614ad28251614388565b855161437c565b60208151015160208551015260408151015160408551015260608151015160608551015260808151015160808551015260a08151015160a08551015260c08151015160c08551015251015191510152565b81156140d9570690565b919293602080920193614b478551614388565b9260c0865101519260001997888101908082116108de576006829801548015600014614b7d575050505050505050505050600290565b11614e3357600686101561051257600195868114801590614e29575b614e1c5750859882019182116108de57811115614e10575b5060405163a376fb9160e01b8152600493909290828486817f00000000000000000000000000000000000000000000000000000000000000006001600160a01b03165afa9384156103a257600094614de1575b5087519260808401519160a085015194614c2e606082015197604060e08a9401519701519061401b565b94614c42614c3c848d61402e565b8661401b565b808210614dc4575b505084871015614ce1575b505050505050606085510152835160a08101519081614cc1575b50506006851015614cac57509160e0916000938503614c95575b60c08251015251015290565b83608083510152614ca785835161437c565b614c89565b602190634e487b7160e01b6000525260246000fd5b6080614cd0910191825161403b565b9052600060a0855101523880614c6f565b9092949a5083614cf4929496509561402e565b91859983851015600014614d425750868201809211614d2d5788510152614d1b9190614b2a565b6040865101525b388080808080614c55565b601186634e487b7160e01b6000525260246000fd5b93614d52614d589294958261403b565b9461402e565b614d6284826140cf565b9384880190818911614daf57614d79908293614b2a565b9485614d9b575b5050614d8b9161403b565b9087510152604086510152614d22565b60020191508110614d2d57614d8b38614d80565b601188634e487b7160e01b6000525260246000fd5b614dd9929891614dd39161402e565b9061403b565b953880614c4a565b9093508281813d8311614e09575b614df98183613da5565b8101031261016857519238614c04565b503d614def565b60009750945038614bb1565b9850505050505050505090565b5085821115614b99565b505050505050505050600390565b614e4b8351614388565b9260209384820192614e5d8451614388565b906000916006938482101561520857848110156152085703614fba575b50614e858351614388565b614e8f8551614388565b9183831015614fa65783821015614fa6575003614f79575b5060e0918291519085820151905195860151809103614f6e575b5060408101516040860151809103614f63575b5060608101516060860151809103614f58575b5060808101516080860151809103614f4d575b5060a081015160a0860151809103614f42575b5060c081015160c0860151809103614f37575b500151920151809203614f31575050565b60070155565b600985015538614f20565b600b85015538614f0d565b600a85015538614efa565b600885015538614ee7565b600d85015538614ed4565b600c85015538614ec1565b9091614f858151614388565b918210156105125760e092839260ff80198754169116178555915091614ea7565b634e487b7160e01b81526021600452602490fd5b614fcf845160a060808201519101519061403b565b90614fda8651614388565b9084821015615208576004918203615109577f1ec6d9e2b340c6cc9d5b6690a2d2a1558f252aa30668b45dbdb83bb7728984f2898089510151604051908152a2604051637e81538160e01b81527f00000000000000000000000000000000000000000000000000000000000000006001600160a01b03169289828481875afa80156150fe5785906150cf575b615070925061402e565b90823b156150cb579060248492836040519586948593634597226960e11b85528401525af180156150c0579082916150ac575b50505b38614e7a565b6150b590613d25565b6148385780386150a3565b6040513d84823e3d90fd5b8380fd5b508982813d83116150f7575b6150e58183613da5565b81010312610168576150709151615066565b503d6150db565b6040513d87823e3d90fd5b506151148651614388565b848110156151f55715615129575b50506150a6565b604051637e81538160e01b81527f00000000000000000000000000000000000000000000000000000000000000006001600160a01b03169289828481875afa80156150fe5785906151c4575b61517f925061402e565b90823b156150cb579060248492836040519586948593634597226960e11b85528401525af180156150c0576151b5575b80615122565b6151be90613d25565b386151af565b50908981813d83116151ee575b6151db8183613da5565b81010312614960579061517f9151615175565b503d6151d1565b634e487b7160e01b845260218252602484fd5b634e487b7160e01b84526021600452602484fd5b8147106152af576000918291829182916001600160a01b03165af161523f614161565b501561524757565b60405162461bcd60e51b815260206004820152603a60248201527f416464726573733a20756e61626c6520746f2073656e642076616c75652c20726044820152791958da5c1a595b9d081b585e481a185d99481c995d995c9d195960321b6064820152608490fd5b60405162461bcd60e51b815260206004820152601d60248201527f416464726573733a20696e73756666696369656e742062616c616e63650000006044820152606490fd5b929391909360001982019182116108de578160ff8654166158e35760001982019182116108de578110615917575b508115158061590e575b615907575b600184019283549384156158ee575b848311156158e3578290556002850154600282015493615360828661402e565b6040516313baa06960e01b81527f00000000000000000000000000000000000000000000000000000000000000006001600160a01b031696919390929091906020846004818b5afa9384156103a2576000946158af575b506153c2898861402e565b9087600052600080516020615cef8339815191526020526040600020548015159081615898575b50615888575b8515158061587f575b6157c0575b5050505050506001840184116108de576001840160005260038501602052604060002054600080516020615cef8339815191526020526040600020805482106157b4576001015480156157b45760405163173ea47d60e21b8152600187016004820152602081602481895afa9081156103a257600091615780575b5061548b926154869161401b565b6140cf565b806154af575b50505050906001600392016000520160205260006040812055600190565b604051630640d94160e01b815293602085600481845afa9485156103a25760009561574b575b5090602060049493926040519586809263dad0189560e01b82525afa9384156103a257600094615717575b50615527615513856012850154936140cf565b93614dd36155218883614b2a565b8861402e565b6155348160118501615a88565b9560001987148061570e575b6156af57600092600088121580615698575b615674575b600097935b87891061556d575050505050615491565b60008512158061566b575b156155cc575061558b846012870161499e565b509360018501549460018a018a116108de576001916155c291836155ba6155b4828f018d61401b565b8a61403b565b910155615b3d565b985b01979361555c565b93976155e16155db828561401b565b8561403b565b906001810181116108de576156026155fc600183018a61401b565b8761403b565b6040519261560f84613d54565b835260208301526012870154600160401b811015611c315780600161563d920160128a01556012890161499e565b615655576001602084829551845501519101556155c4565b634e487b7160e01b600052600060045260246000fd5b50818512615578565b9692506156926001615689856012880161499e565b50015493615b3d565b96615557565b50826156a7896012880161499e565b505410615552565b60405162461bcd60e51b815260206004820152603160248201527f56657374696e673a20737461727445706f63682069732062656c6f77207468616044820152706e20616c6c207365656e2065706f63687360781b6064820152608490fd5b50821515615540565b9093506020813d602011615743575b8161573360209383613da5565b8101031261016857519238615500565b3d9150615726565b90946020823d602011615778575b8161576660209383613da5565b810103126148385750519360206154d5565b3d9150615759565b90506020813d6020116157ac575b8161579b60209383613da5565b81010312610168575161548b615478565b3d915061578e565b50505050505050600190565b600d87015490881480615876575b615817575b506157f5936157e962989680936157ee9361401b565b61401b565b049061403b565b9080821161580f575b5060028601553880808080806153fd565b9050386157fe565b600e8701805492939291821061585157505060001982019182116108de576157f5936157e96157ee9262989680945b9350935050936157d3565b600182939692018093116108de576157f59562989680946157ee946157e99355615846565b508015156157ce565b508115156153f8565b90615892906145a3565b906153ef565b905060038c016020526040600020541015386153e9565b9093506020813d6020116158db575b816158cb60209383613da5565b81010312610168575192386153b7565b3d91506158be565b505050505050600090565b9350600681015460001981019081116108de5793615340565b5080615331565b5081811161532c565b905038615322565b1561592657565b60405162461bcd60e51b815260206004820152602b60248201527f496e697469616c697a61626c653a20636f6e7472616374206973206e6f74206960448201526a6e697469616c697a696e6760a81b6064820152608490fd5b6040519061598c82613d8a565b60278252660819985a5b195960ca1b6040837f416464726573733a206c6f772d6c6576656c2064656c65676174652063616c6c60208201520152565b6001810190815480156159f05760001981019081116108de576149df6001916142e79461499e565b505050600090565b803b15615a2d57600080516020615caf83398151915280546001600160a01b0319166001600160a01b03909216919091179055565b60405162461bcd60e51b815260206004820152602d60248201527f455243313936373a206e657720696d706c656d656e746174696f6e206973206e60448201526c1bdd08184818dbdb9d1c9858dd609a1b6064820152608490fd5b600190810180546000199493919291908015615b375760009060001981019081116108de5793929190935b80851115615ac2575050505050565b9091929395615ad1828861403b565b841c96615ade888761499e565b505480851115615aff575050508286018087116108de575b93929190615ab3565b919790925090831015615b2f5780615b1d5750600019955050505050565b60001981019081116108de5790615af6565b955050505050565b50505050565b6001600160ff1b0381146108de5760010190565b91929015615bb35750815115615b65575090565b3b15615b6e5790565b60405162461bcd60e51b815260206004820152601d60248201527f416464726573733a2063616c6c20746f206e6f6e2d636f6e74726163740000006044820152606490fd5b825190915015615bc65750805190602001fd5b60405162461bcd60e51b815260206004820152908190615bea906024830190613e27565b0390fdfea8de0abb18de6e730ac24d7fe02c877d293683811fc3ac5d8e62e2a52c0d20d9a8de0abb18de6e730ac24d7fe02c877d293683811fc3ac5d8e62e2a52c0d20db4910fdfa16fed3260ed0e7147f7cc6da11a60208b5b9406d12a635614ffd9143bd5605b4405616555ea2583cbd913ecf346c52c37520187117aadcea54e7d1495265776172642064656c65676174696f6e20726174652073686f756c6420626546756e6374696f6e206d7573742062652063616c6c6564207468726f75676820360894a13ba1a3210667c828492db98dca3e2076cc3735a920a3ca505d382bbc426173654d6f64756c653a2063616c6c6572206973206e6f7420746865206f77a8de0abb18de6e730ac24d7fe02c877d293683811fc3ac5d8e62e2a52c0d20d8bc7cd75a20ee27fd9adebab32041f755214dbc6bffa90cc0225b39da2e5c2d3ba8de0abb18de6e730ac24d7fe02c877d293683811fc3ac5d8e62e2a52c0d20d7767f7ba680e5ebc3578c294e7db471374e320e57f96ffd2db36de96e80dccc7fa8de0abb18de6e730ac24d7fe02c877d293683811fc3ac5d8e62e2a52c0d20dc45524331393637557067726164653a20756e737570706f727465642070726f78a8de0abb18de6e730ac24d7fe02c877d293683811fc3ac5d8e62e2a52c0d20dd5f8025ba38ff2456c1d8eedea85432270bf89c9cc7a675431505ad6085d7d974a8de0abb18de6e730ac24d7fe02c877d293683811fc3ac5d8e62e2a52c0d20da45524331393637557067726164653a206e657720696d706c656d656e74617469a264697066735822122070610d44ac59b23b0ad70b95082ab6e343b23e3500844a2cbf662613dbcb041064736f6c63430008180033","linkReferences":{}},"methodIdentifiers":{"core()":"f2f4eb26","createCommitment(bytes32,uint256,address,uint256)":"886f0e87","depositCollateral(bytes32[])":"3d5f526c","finishCommitment(bytes32)":"ea03ef52","getCommitment(bytes32)":"7795820c","getGlobalNonce()":"92163b4b","getStatus(bytes32)":"5de28ae0","initialize(bytes32)":"9498bd71","multicall(bytes[])":"ac9650d8","onUnitMovedToDeal(bytes32,bytes32)":"ba50cbd4","onUnitReturnedFromDeal(bytes32,bytes32)":"dee7f881","owner()":"8da5cb5b","proxiableUUID()":"52d1902d","removeCUFromCC(bytes32,bytes32[])":"8e7af1d1","removeCommitment(bytes32)":"d6a1c7f8","submitProof(bytes32,bytes32,bytes32)":"4ece5685","totalRewards(bytes32)":"de644849","unlockedRewards(bytes32)":"3d081790","upgradeTo(address)":"3659cfe6","upgradeToAndCall(address,bytes)":"4f1ef286","withdrawReward(bytes32)":"474b5809"},"storageLayout":{"storage":[{"astId":4469,"contract":"src/core/modules/capacity/Capacity.sol:Capacity","label":"_initialized","offset":0,"slot":"0","type":"t_uint8"},{"astId":4472,"contract":"src/core/modules/capacity/Capacity.sol:Capacity","label":"_initializing","offset":1,"slot":"0","type":"t_bool"},{"astId":4451,"contract":"src/core/modules/capacity/Capacity.sol:Capacity","label":"__gap","offset":0,"slot":"1","type":"t_array(t_uint256)50_storage"},{"astId":4766,"contract":"src/core/modules/capacity/Capacity.sol:Capacity","label":"__gap","offset":0,"slot":"51","type":"t_array(t_uint256)50_storage"},{"astId":5171,"contract":"src/core/modules/capacity/Capacity.sol:Capacity","label":"__gap","offset":0,"slot":"101","type":"t_array(t_uint256)50_storage"}],"types":{"t_array(t_uint256)50_storage":{"encoding":"inplace","label":"uint256[50]","numberOfBytes":"1600","base":"t_uint256"},"t_bool":{"encoding":"inplace","label":"bool","numberOfBytes":"1"},"t_uint256":{"encoding":"inplace","label":"uint256","numberOfBytes":"32"},"t_uint8":{"encoding":"inplace","label":"uint8","numberOfBytes":"1"}}},"devdoc":{"version":1,"kind":"dev","methods":{"createCommitment(bytes32,uint256,address,uint256)":{"details":"Creates a new commitment","params":{"delegator":"The delegator address. If address is zero, the commitment has no delegator","duration":"The duration of the commitment in Epochs","peerId":"Peer id which linked to the commitment","rewardDelegationRate":"The reward delegation rate in precision"}},"depositCollateral(bytes32[])":{"details":"Deposits collateral for commitments. It makes commitments activeNote: this method consists of indirect potential delegator address update(set delegator to msg.sender if 0x0 before).","params":{"commitmentIds":"Commitment ids"}},"finishCommitment(bytes32)":{"details":"Finishes the commitment if it is in Failed or Ended status","params":{"commitmentId":"Commitment id"}},"getCommitment(bytes32)":{"details":"Returns the commitment info","params":{"commitmentId":"Commitment id"},"returns":{"_0":"info commitment info"}},"getStatus(bytes32)":{"details":"Returns the commitment status","params":{"commitmentId":"Commitment id"},"returns":{"_0":"status commitment status"}},"multicall(bytes[])":{"details":"Receives and executes a batch of function calls on this contract."},"proxiableUUID()":{"details":"Implementation of the ERC1822 {proxiableUUID} function. This returns the storage slot used by the implementation. It is used to validate the implementation's compatibility when performing an upgrade. IMPORTANT: A proxy pointing at a proxiable contract should not be considered proxiable itself, because this risks bricking a proxy that upgrades to it, by delegating to itself until out of gas. Thus it is critical that this function revert if invoked through a proxy. This is guaranteed by the `notDelegated` modifier."},"removeCUFromCC(bytes32,bytes32[])":{"details":"Remove CU from Ended or Failed CC. Need to call this function before finish the commitment","params":{"commitmentId":"Commitment id","unitIds":"Compute unit ids which will be removed from the commitment"}},"removeCommitment(bytes32)":{"details":"Removes the commitment if it is in WaitDelegation status","params":{"commitmentId":"Commitment id"}},"submitProof(bytes32,bytes32,bytes32)":{"details":"Submits a proof for the commitment","params":{"localUnitNonce":"The local nonce of the unit for calculating the target hash. It's the proof","resultHash":"The target hash of this proof","unitId":"Compute unit id which provied the proof"}},"totalRewards(bytes32)":{"details":"Returns the total reward of the commitment. It includes the reward in vesting","params":{"commitmentId":"Commitment id"},"returns":{"_0":"totalRewards total reward of the commitment"}},"unlockedRewards(bytes32)":{"details":"Returns the total vested reward of the commitment","params":{"commitmentId":"Commitment id"},"returns":{"_0":"totalVestedRewards total vested reward of the commitment"}},"upgradeTo(address)":{"details":"Upgrade the implementation of the proxy to `newImplementation`. Calls {_authorizeUpgrade}. Emits an {Upgraded} event."},"upgradeToAndCall(address,bytes)":{"details":"Upgrade the implementation of the proxy to `newImplementation`, and subsequently execute the function call encoded in `data`. Calls {_authorizeUpgrade}. Emits an {Upgraded} event."},"withdrawReward(bytes32)":{"details":"Withdraws the reward from the commitment","params":{"commitmentId":"Commitment id"}}},"events":{"AdminChanged(address,address)":{"details":"Emitted when the admin account has changed."},"BeaconUpgraded(address)":{"details":"Emitted when the beacon is changed."},"CollateralDeposited(bytes32,uint256)":{"details":"Emitted when a delegator deposited collateral to commitment","params":{"commitmentId":"Commitment id","totalCollateral":"The total collateral deposited to commitment"}},"CommitmentActivated(bytes32,bytes32,uint256,uint256,bytes32[])":{"details":"Emitted when a commitment is activated. Commitment can be activated only if delegator deposited collateral.","params":{"commitmentId":"Commitment id which activated","endEpoch":"The end epoch of the commitment","peerId":"Peer id which linked to the commitment","startEpoch":"The start epoch of the commitment","unitIds":"Compute unit ids which linked to the commitment"}},"CommitmentCreated(bytes32,bytes32,uint256,address,uint256,uint256)":{"details":"Emitted when a new commitment is created","params":{"commitmentId":"Commitment id","delegator":"The delegator address. If address is zero, the commitment has no delegator","duration":"The duration of the commitment in Epochs","fltCollateralPerUnit":"The flt collateral per compute unit","peerId":"Peer id which linked to the commitment","rewardDelegationRate":"The reward delegation rate in precision"}},"CommitmentFinished(bytes32)":{"details":"Emitted when a commitment is finished. Commitment can be finished only if it is in Failed or Ended","params":{"commitmentId":"Commitment id which finished"}},"CommitmentRemoved(bytes32)":{"details":"Emitted when a commitment is removed. Commitment can be removed only if it is in WaitDelegation status","params":{"commitmentId":"Commitment id"}},"Initialized(uint8)":{"details":"Triggered when the contract has been initialized or reinitialized."},"ProofSubmitted(bytes32,bytes32,bytes32)":{"details":"Emitted when a proof is submitted","params":{"commitmentId":"Commitment id","localUnitNonce":"The local nonce of the unit for calculating the target hash","unitId":"Compute unit id which linked to the proof"}},"RewardWithdrawn(bytes32,uint256)":{"details":"Emitted when a reward is withdrawn","params":{"amount":"The amount of the withdrawn reward","commitmentId":"Commitment id"}},"UnitActivated(bytes32,bytes32,uint256)":{"details":"Emitted when a unit activated. Unit is activated when it returned from deal","params":{"commitmentId":"Commitment id","unitId":"Compute unit id which activated"}},"UnitDeactivated(bytes32,bytes32)":{"details":"Emitted when a unit deactivated. Unit is deactivated when it moved to deal","params":{"commitmentId":"Commitment id","unitId":"Compute unit id which deactivated"}},"Upgraded(address)":{"details":"Emitted when the implementation is upgraded."}},"errors":{"CapacityCommitmentIsActive(uint8)":[{"details":"Capacity commitment is active"}],"CapacityCommitmentIsNotActive(uint8)":[{"details":"Capacity commitment is not active"}],"TooManyProofs()":[{"details":"Throws if peer sent too many proofs for the commitment by unit per epoch"}]}},"id":79}