{"abi":[{"type":"function","name":"disableWhitelist","inputs":[],"outputs":[],"stateMutability":"nonpayable"},{"type":"function","name":"enableWhitelist","inputs":[],"outputs":[],"stateMutability":"nonpayable"},{"type":"event","name":"WhitelistDisabled","inputs":[],"anonymous":false},{"type":"event","name":"WhitelistEnabled","inputs":[],"anonymous":false}],"bytecode":{"object":"0x608080604052346015576101b7908161001a8239f35b5f80fdfe60806040526004361015610011575f80fd5b5f3560e01c8063cdfb2b4e146100875763d6b0f4841461002f575f80fd5b34610083575f366003190112610083576100476100de565b5f80516020610162833981519152805460ff191690557f212c6e1d3045c9581ef0adf2504dbb1d137f52f38162ccf77a16c69d14eba5c35f80a1005b5f80fd5b34610083575f3660031901126100835761009f6100de565b5f80516020610162833981519152805460ff191660011790557fe5e5846f783279948f6ec5faad38318cde86fe5be7ea845ede56d62f16c374345f80a1005b7fc8fcad8db84d3cc18b4c41d551ea0ee66dd599cde068d998e57d5e09332c1320546001600160a01b0316330361011157565b60405162461bcd60e51b815260206004820152602260248201527f4c69624469616d6f6e643a204d75737420626520636f6e7472616374206f776e60448201526132b960f11b6064820152608490fdfe1f364d5cd815a7922b0808e606a82391642c337151b3addb3f98eaf82cfb172ea26469706673582212200567f76f1ee3fa162e9486b65e986eab82d08f56c7a2959c9533a4727e8de0ec64736f6c634300081a0033","linkReferences":{}},"methodIdentifiers":{"disableWhitelist()":"d6b0f484","enableWhitelist()":"cdfb2b4e"},"storageLayout":{"storage":[],"types":{}},"devdoc":{"version":1,"kind":"dev"},"id":125}