{"abi":[{"type":"function","name":"grantAccess","inputs":[{"name":"account","type":"address","internalType":"address"}],"outputs":[],"stateMutability":"nonpayable"},{"type":"function","name":"isApproved","inputs":[{"name":"account","type":"address","internalType":"address"}],"outputs":[{"name":"","type":"bool","internalType":"bool"}],"stateMutability":"view"},{"type":"function","name":"owner","inputs":[],"outputs":[{"name":"","type":"address","internalType":"address"}],"stateMutability":"view"},{"type":"function","name":"renounceOwnership","inputs":[],"outputs":[],"stateMutability":"nonpayable"},{"type":"function","name":"revokeAccess","inputs":[{"name":"account","type":"address","internalType":"address"}],"outputs":[],"stateMutability":"nonpayable"},{"type":"function","name":"transferOwnership","inputs":[{"name":"newOwner","type":"address","internalType":"address"}],"outputs":[],"stateMutability":"nonpayable"},{"type":"event","name":"Initialized","inputs":[{"name":"version","type":"uint8","indexed":false,"internalType":"uint8"}],"anonymous":false},{"type":"event","name":"OwnershipTransferred","inputs":[{"name":"previousOwner","type":"address","indexed":true,"internalType":"address"},{"name":"newOwner","type":"address","indexed":true,"internalType":"address"}],"anonymous":false},{"type":"event","name":"WhitelistAccessGranted","inputs":[{"name":"account","type":"address","indexed":false,"internalType":"address"}],"anonymous":false},{"type":"event","name":"WhitelistAccessRevoked","inputs":[{"name":"account","type":"address","indexed":false,"internalType":"address"}],"anonymous":false},{"type":"error","name":"OwnableInvalidOwner","inputs":[{"name":"owner","type":"address","internalType":"address"}]},{"type":"error","name":"OwnableUnauthorizedAccount","inputs":[{"name":"account","type":"address","internalType":"address"}]}],"bytecode":{"object":"0x60808060405234610016576103d2908161001c8239f35b600080fdfe60406080815260048036101561001457600080fd5b600091823560e01c80630ae5e73914610285578063673448dd14610200578063715018a6146101a557806385e685311461012a5780638da5cb5b146100f05763f2fde38b1461006257600080fd5b346100ec5760203660031901126100ec576001600160a01b038235818116939192908490036100e857610093610303565b83156100d257505060008051602061035d83398151915280546001600160a01b0319811684179091551660008051602061033d8339815191528380a380f35b51631e4fbdf760e01b8152908101849052602490fd5b8480fd5b8280fd5b83823461012657816003193601126101265760008051602061035d8339815191525490516001600160a01b039091168152602090f35b5080fd5b5090346100ec5760203660031901126100ec57356001600160a01b03811691908290036100ec577fbf16401515c3259ef6fd204d106ff51a2a7185ecd4e3ed51d42612a218fc8c779160209161017e610303565b81855260008051602061037d8339815191528352808520805460ff1916905551908152a180f35b83346101fd57806003193601126101fd576101be610303565b60008051602061035d83398151915280546001600160a01b0319811690915581906001600160a01b031660008051602061033d8339815191528280a380f35b80fd5b5090346100ec5760203660031901126100ec57356001600160a01b03811691908290036100ec5760209260ff7f1f364d5cd815a7922b0808e606a82391642c337151b3addb3f98eaf82cfb172e541615928315610262575b5050519015158152f35b815260008051602061037d83398151915284528190205460ff1691503880610258565b5090346100ec5760203660031901126100ec57356001600160a01b03811691908290036100ec577fab9a16269e54e8ae681de331f196f57a4b158e28d53818a27ff5e5698e291749916020916102d9610303565b81855260008051602061037d8339815191528352808520805460ff1916600117905551908152a180f35b60008051602061035d833981519152546001600160a01b0316330361032457565b60405163118cdaa760e01b8152336004820152602490fdfe8be0079c531659141344cd1fd0a4f28419497f9722a3daafe3b4186f6b6457e0b13d3e7783d509d8d65d3e1e62ec0b103a07e0cbfa1ee74ae19127f297dddfcc1f364d5cd815a7922b0808e606a82391642c337151b3addb3f98eaf82cfb172fa2646970667358221220bf5a1305d4aabc05d6aa22fcffe1ab5719c227102247e20d0bde1be496eeba1a64736f6c63430008180033","linkReferences":{}},"methodIdentifiers":{"grantAccess(address)":"0ae5e739","isApproved(address)":"673448dd","owner()":"8da5cb5b","renounceOwnership()":"715018a6","revokeAccess(address)":"85e68531","transferOwnership(address)":"f2fde38b"},"storageLayout":{"storage":[{"astId":4469,"contract":"src/utils/Whitelist.sol:Whitelist","label":"_initialized","offset":0,"slot":"0","type":"t_uint8"},{"astId":4472,"contract":"src/utils/Whitelist.sol:Whitelist","label":"_initializing","offset":1,"slot":"0","type":"t_bool"}],"types":{"t_bool":{"encoding":"inplace","label":"bool","numberOfBytes":"1"},"t_uint8":{"encoding":"inplace","label":"uint8","numberOfBytes":"1"}}},"devdoc":{"version":1,"kind":"dev","methods":{"owner()":{"details":"Returns the address of the current owner."},"renounceOwnership()":{"details":"Leaves the contract without owner. It will not be possible to call `onlyOwner` functions. Can only be called by the current owner. NOTE: Renouncing ownership will leave the contract without an owner, thereby disabling any functionality that is only available to the owner."},"transferOwnership(address)":{"details":"Transfers ownership of the contract to a new account (`newOwner`). Can only be called by the current owner."}},"events":{"Initialized(uint8)":{"details":"Triggered when the contract has been initialized or reinitialized."}},"errors":{"OwnableInvalidOwner(address)":[{"details":"The owner is not a valid owner account. (eg. `address(0)`)"}],"OwnableUnauthorizedAccount(address)":[{"details":"The caller account is not authorized to perform an operation."}]}},"id":108}