{"abi":[{"type":"function","name":"grantAccess","inputs":[{"name":"account","type":"address","internalType":"address"}],"outputs":[],"stateMutability":"nonpayable"},{"type":"function","name":"isApproved","inputs":[{"name":"account","type":"address","internalType":"address"}],"outputs":[{"name":"","type":"bool","internalType":"bool"}],"stateMutability":"view"},{"type":"function","name":"owner","inputs":[],"outputs":[{"name":"","type":"address","internalType":"address"}],"stateMutability":"view"},{"type":"function","name":"renounceOwnership","inputs":[],"outputs":[],"stateMutability":"nonpayable"},{"type":"function","name":"revokeAccess","inputs":[{"name":"account","type":"address","internalType":"address"}],"outputs":[],"stateMutability":"nonpayable"},{"type":"function","name":"transferOwnership","inputs":[{"name":"newOwner","type":"address","internalType":"address"}],"outputs":[],"stateMutability":"nonpayable"},{"type":"event","name":"Initialized","inputs":[{"name":"version","type":"uint64","indexed":false,"internalType":"uint64"}],"anonymous":false},{"type":"event","name":"OwnershipTransferred","inputs":[{"name":"previousOwner","type":"address","indexed":true,"internalType":"address"},{"name":"newOwner","type":"address","indexed":true,"internalType":"address"}],"anonymous":false},{"type":"event","name":"WhitelistAccessGranted","inputs":[{"name":"account","type":"address","indexed":false,"internalType":"address"}],"anonymous":false},{"type":"event","name":"WhitelistAccessRevoked","inputs":[{"name":"account","type":"address","indexed":false,"internalType":"address"}],"anonymous":false},{"type":"error","name":"InvalidInitialization","inputs":[]},{"type":"error","name":"NotInitializing","inputs":[]},{"type":"error","name":"OwnableInvalidOwner","inputs":[{"name":"owner","type":"address","internalType":"address"}]},{"type":"error","name":"OwnableUnauthorizedAccount","inputs":[{"name":"account","type":"address","internalType":"address"}]}],"bytecode":{"object":"0x60808060405234601557610436908161001a8239f35b5f80fdfe60806040526004361015610011575f80fd5b5f3560e01c80630ae5e7391461026d578063673448dd146101e4578063715018a61461019057806385e68531146101165780638da5cb5b146100e25763f2fde38b1461005b575f80fd5b346100de5760203660031901126100de576004356001600160a01b038116908190036100de5761008961036d565b80156100cb575f805160206103c183398151915280546001600160a01b0319811683179091556001600160a01b03165f805160206103a18339815191525f80a3005b631e4fbdf760e01b5f525f60045260245ffd5b5f80fd5b346100de575f3660031901126100de575f805160206103c1833981519152546040516001600160a01b039091168152602090f35b346100de5760203660031901126100de576004356001600160a01b038116908190036100de5760207fbf16401515c3259ef6fd204d106ff51a2a7185ecd4e3ed51d42612a218fc8c77916101686102ea565b805f525f805160206103e1833981519152825260405f2060ff198154169055604051908152a1005b346100de575f3660031901126100de576101a861036d565b5f805160206103c183398151915280546001600160a01b031981169091555f906001600160a01b03165f805160206103a18339815191528280a3005b346100de5760203660031901126100de576004356001600160a01b03811681036100de5760ff7f1f364d5cd815a7922b0808e606a82391642c337151b3addb3f98eaf82cfb172e5416158015610242575b6020906040519015158152f35b5060018060a01b03165f525f805160206103e1833981519152602052602060ff60405f205416610235565b346100de5760203660031901126100de576004356001600160a01b038116908190036100de5760207fab9a16269e54e8ae681de331f196f57a4b158e28d53818a27ff5e5698e291749916102bf6102ea565b805f525f805160206103e1833981519152825260405f20600160ff19825416179055604051908152a1005b7fc8fcad8db84d3cc18b4c41d551ea0ee66dd599cde068d998e57d5e09332c1320546001600160a01b0316330361031d57565b60405162461bcd60e51b815260206004820152602260248201527f4c69624469616d6f6e643a204d75737420626520636f6e7472616374206f776e60448201526132b960f11b6064820152608490fd5b5f805160206103c1833981519152546001600160a01b0316330361038d57565b63118cdaa760e01b5f523360045260245ffdfe8be0079c531659141344cd1fd0a4f28419497f9722a3daafe3b4186f6b6457e0b13d3e7783d509d8d65d3e1e62ec0b103a07e0cbfa1ee74ae19127f297dddfcc1f364d5cd815a7922b0808e606a82391642c337151b3addb3f98eaf82cfb172fa264697066735822122015895fc8cd13c681ef3561cf95ca4dc0011fda7f8f4f07c31d3e3b100097642b64736f6c634300081a0033","linkReferences":{}},"methodIdentifiers":{"grantAccess(address)":"0ae5e739","isApproved(address)":"673448dd","owner()":"8da5cb5b","renounceOwnership()":"715018a6","revokeAccess(address)":"85e68531","transferOwnership(address)":"f2fde38b"},"storageLayout":{"storage":[],"types":{}},"devdoc":{"version":1,"kind":"dev","methods":{"owner()":{"details":"Returns the address of the current owner."},"renounceOwnership()":{"details":"Leaves the contract without owner. It will not be possible to call `onlyOwner` functions. Can only be called by the current owner. NOTE: Renouncing ownership will leave the contract without an owner, thereby disabling any functionality that is only available to the owner."},"transferOwnership(address)":{"details":"Transfers ownership of the contract to a new account (`newOwner`). Can only be called by the current owner."}},"events":{"Initialized(uint64)":{"details":"Triggered when the contract has been initialized or reinitialized."}},"errors":{"InvalidInitialization()":[{"details":"The contract is already initialized."}],"NotInitializing()":[{"details":"The contract is not initializing."}],"OwnableInvalidOwner(address)":[{"details":"The owner is not a valid owner account. (eg. `address(0)`)"}],"OwnableUnauthorizedAccount(address)":[{"details":"The caller account is not authorized to perform an operation."}]}},"id":164}