{"abi":[{"type":"constructor","inputs":[{"name":"core_","type":"address","internalType":"contract ICore"}],"stateMutability":"nonpayable"},{"type":"function","name":"core","inputs":[],"outputs":[{"name":"","type":"address","internalType":"contract ICore"}],"stateMutability":"view"},{"type":"function","name":"deployDeal","inputs":[{"name":"appCID_","type":"tuple","internalType":"struct CIDV1","components":[{"name":"prefixes","type":"bytes4","internalType":"bytes4"},{"name":"hash","type":"bytes32","internalType":"bytes32"}]},{"name":"paymentToken_","type":"address","internalType":"contract IERC20"},{"name":"depositAmount_","type":"uint256","internalType":"uint256"},{"name":"minWorkers_","type":"uint256","internalType":"uint256"},{"name":"targetWorkers_","type":"uint256","internalType":"uint256"},{"name":"maxWorkersPerProvider_","type":"uint256","internalType":"uint256"},{"name":"pricePerWorkerEpoch_","type":"uint256","internalType":"uint256"},{"name":"effectors_","type":"tuple[]","internalType":"struct CIDV1[]","components":[{"name":"prefixes","type":"bytes4","internalType":"bytes4"},{"name":"hash","type":"bytes32","internalType":"bytes32"}]},{"name":"providersAccessType_","type":"uint8","internalType":"enum IConfig.AccessType"},{"name":"providersAccessList_","type":"address[]","internalType":"address[]"},{"name":"protocolVersion_","type":"uint256","internalType":"uint256"}],"outputs":[{"name":"","type":"address","internalType":"contract IDeal"}],"stateMutability":"nonpayable"},{"type":"function","name":"hasDeal","inputs":[{"name":"deal","type":"address","internalType":"contract IDeal"}],"outputs":[{"name":"","type":"bool","internalType":"bool"}],"stateMutability":"view"},{"type":"function","name":"initialize","inputs":[],"outputs":[],"stateMutability":"nonpayable"},{"type":"function","name":"owner","inputs":[],"outputs":[{"name":"","type":"address","internalType":"address"}],"stateMutability":"view"},{"type":"function","name":"proxiableUUID","inputs":[],"outputs":[{"name":"","type":"bytes32","internalType":"bytes32"}],"stateMutability":"view"},{"type":"function","name":"upgradeTo","inputs":[{"name":"newImplementation","type":"address","internalType":"address"}],"outputs":[],"stateMutability":"nonpayable"},{"type":"function","name":"upgradeToAndCall","inputs":[{"name":"newImplementation","type":"address","internalType":"address"},{"name":"data","type":"bytes","internalType":"bytes"}],"outputs":[],"stateMutability":"payable"},{"type":"event","name":"AdminChanged","inputs":[{"name":"previousAdmin","type":"address","indexed":false,"internalType":"address"},{"name":"newAdmin","type":"address","indexed":false,"internalType":"address"}],"anonymous":false},{"type":"event","name":"BeaconUpgraded","inputs":[{"name":"beacon","type":"address","indexed":true,"internalType":"address"}],"anonymous":false},{"type":"event","name":"DealCreated","inputs":[{"name":"owner","type":"address","indexed":true,"internalType":"address"},{"name":"deal","type":"address","indexed":false,"internalType":"contract IDeal"},{"name":"createdAtEpoch","type":"uint256","indexed":false,"internalType":"uint256"},{"name":"paymentToken","type":"address","indexed":false,"internalType":"contract IERC20"},{"name":"minWorkers","type":"uint256","indexed":false,"internalType":"uint256"},{"name":"targetWorkers","type":"uint256","indexed":false,"internalType":"uint256"},{"name":"maxWorkersPerProvider","type":"uint256","indexed":false,"internalType":"uint256"},{"name":"pricePerWorkerEpoch","type":"uint256","indexed":false,"internalType":"uint256"},{"name":"effectors","type":"tuple[]","indexed":false,"internalType":"struct CIDV1[]","components":[{"name":"prefixes","type":"bytes4","internalType":"bytes4"},{"name":"hash","type":"bytes32","internalType":"bytes32"}]},{"name":"appCID","type":"tuple","indexed":false,"internalType":"struct CIDV1","components":[{"name":"prefixes","type":"bytes4","internalType":"bytes4"},{"name":"hash","type":"bytes32","internalType":"bytes32"}]},{"name":"providersAccessType_","type":"uint8","indexed":false,"internalType":"enum IConfig.AccessType"},{"name":"providersAccessList_","type":"address[]","indexed":false,"internalType":"address[]"},{"name":"protocolVersion_","type":"uint256","indexed":false,"internalType":"uint256"}],"anonymous":false},{"type":"event","name":"Initialized","inputs":[{"name":"version","type":"uint8","indexed":false,"internalType":"uint8"}],"anonymous":false},{"type":"event","name":"Upgraded","inputs":[{"name":"implementation","type":"address","indexed":true,"internalType":"address"}],"anonymous":false}],"bytecode":{"object":"0x60c03461015d57601f611f4838819003918201601f19168301916001600160401b038311848410176101625780849260209460405283398101031261015d57516001600160a01b038116810361015d573060805260a05260005460ff8160081c166101085760ff808216036100cd575b604051611dcf90816101798239608051818181610313015281816104480152610eff015260a05181818160990152818160fb015281816104ac015281816108190152818161092b015281816109cc01528181610b7c0152610f620152f35b60ff90811916176000557f7f26b83ff96e1f2b6a682f133852f6798a09c465da95921460cefb3847402498602060405160ff8152a13861006f565b60405162461bcd60e51b815260206004820152602760248201527f496e697469616c697a61626c653a20636f6e747261637420697320696e697469604482015266616c697a696e6760c81b6064820152608490fd5b600080fd5b634e487b7160e01b600052604160045260246000fdfe60808060405260043610156200001457600080fd5b600090813560e01c9081632105305314620011e2575080633659cfe61462000ed65780634a0e216914620007315780634f1ef28614620003c157806352d1902d14620002fe5780638129fc1c146200017b5780638da5cb5b14620000cb5763f2f4eb26146200008257600080fd5b34620000c85780600319360112620000c8576040517f00000000000000000000000000000000000000000000000000000000000000006001600160a01b03168152602090f35b80fd5b5034620000c85780600319360112620000c857604051638da5cb5b60e01b81526001600160a01b036020826004817f000000000000000000000000000000000000000000000000000000000000000085165afa9182156200017057602093926200013a575b5060405191168152f35b62000160919250833d851162000168575b6200015781836200128f565b810190620014cb565b903862000130565b503d6200014b565b6040513d85823e3d90fd5b5034620000c85780600319360112620000c857805460ff8160081c161590818092620002f0575b8015620002d7575b156200027b5760ff19811660011783558162000269575b5081549060ff8260081c16156200021057620001db575080f35b61ff00191681557f7f26b83ff96e1f2b6a682f133852f6798a09c465da95921460cefb3847402498602060405160018152a180f35b60405162461bcd60e51b815260206004820152602b60248201527f496e697469616c697a61626c653a20636f6e7472616374206973206e6f74206960448201526a6e697469616c697a696e6760a81b6064820152608490fd5b61ffff191661010117825538620001c1565b60405162461bcd60e51b815260206004820152602e60248201527f496e697469616c697a61626c653a20636f6e747261637420697320616c72656160448201526d191e481a5b9a5d1a585b1a5e995960921b6064820152608490fd5b50303b158015620001aa5750600160ff821614620001aa565b50600160ff821610620001a2565b5034620000c85780600319360112620000c8577f00000000000000000000000000000000000000000000000000000000000000006001600160a01b031630036200035b57602060405160008051602062001cba8339815191528152f35b60405162461bcd60e51b815260206004820152603860248201527f555550535570677261646561626c653a206d757374206e6f742062652063616c6044820152771b1959081d1a1c9bdd59da0819195b1959d85d1958d85b1b60421b6064820152608490fd5b506040366003190112620000c857620003d962001232565b6024919082356001600160401b0381116200072d57366023820112156200072d578060040135906200040b82620012b3565b906200041b60405192836200128f565b82825260209283830191368883830101116200072957818792898793018537840101526001600160a01b037f00000000000000000000000000000000000000000000000000000000000000008116906200047830831415620012cf565b6200049860008051602062001cba83398151915292828454161462001320565b604051638da5cb5b60e01b815285816004817f000000000000000000000000000000000000000000000000000000000000000086165afa9081156200071e578891620006fc575b508133911603620006bd5760008051602062001c5a8339815191525460ff16156200051957505050505062000516919250620014ec565b80f35b859394969516906040516352d1902d60e01b81528781600481865afa6000918162000683575b506200058f5760405162461bcd60e51b815260048101899052602e818b015260008051602062001d7a83398151915260448201526d6f6e206973206e6f74205555505360901b6064820152608490fd5b9791929394969597036200063f5750620005a983620014ec565b60008051602062001cfa833981519152600080a283511580159062000636575b620005d6575b5050505080f35b600080916200062b9560008051602062001d5a83398151915260405196620005fe8862001273565b60278852870152660819985a5b195960ca1b60408701525190845af4620006246200168d565b91620016c2565b5038808080620005cf565b506001620005c9565b8460296084926040519262461bcd60e51b8452600484015282015260008051602062001d3a8339815191526044820152681a58589b195555525160ba1b6064820152fd5b9091508881813d8311620006b5575b6200069e81836200128f565b81010312620006b0575190386200053f565b600080fd5b503d62000692565b60405162461bcd60e51b8152600481018690526023818a015260008051602062001cda8339815191526044820152623732b960e91b6064820152608490fd5b620007179150863d881162000168576200015781836200128f565b38620004df565b6040513d8a823e3d90fd5b8680fd5b8280fd5b5034620000c8573660031901610180811262000ed257604013620000c8576044356001600160a01b0381169003620000c857610104356001600160401b03811162000ed2573660238201121562000ed2576001600160401b0360048201351162000ed257366024826004013560061b8301011162000ed257600361012435101562000ed2576001600160401b03610144351162000ed2573660236101443501121562000ed2576001600160401b0360046101443501351162000ed257366024610144356004013560051b6101443501011162000ed257604051633671033160e01b60208201527f00000000000000000000000000000000000000000000000000000000000000006001600160a01b03166024820152620008546044820162001371565b60018060a01b0360443516608482015260843560a482015260a43560c482015260c43560e482015260e435610104820152610180610124820152620008fd81620008e4620008af6101a4830186600401356024880162001392565b620008c2610144840161012435620013ef565b6023198382030161016484015261014435600401356024610144350162001413565b6101643561018483015203601f1981018352826200128f565b604051906001600160401b036104f483019081119083111762000d2d576200096c82916104f46200176684397f00000000000000000000000000000000000000000000000000000000000000006001600160a01b03166104f4840190815260406020820181905201906200145f565b039083f090811562000d01576001600160a01b038216835260008051602062001c7a83398151915260205260408320805460ff19166001179055620009b660a43560e435620014a1565b6040516372ea4f2360e01b8152906020826004817f00000000000000000000000000000000000000000000000000000000000000006001600160a01b03165afa90811562000ec757859162000e86575b62000a129250620014a1565b6064351062000e2c576040516323b872dd60e01b6020820152336024820152306044820152606480358183015281526001600160401b0360a082019081119082111762000d2d578060a062000a6e92016040526044356200157e565b60643515801562000da5575b1562000d415760405163095ea7b360e01b60208201526001600160a01b038316602482015260643560448083019190915281526001600160401b03608082019081119082111762000d2d5780608062000ada92016040526044356200157e565b6001600160a01b0382163b156200072d5760405163b6b55f2560e01b815260643560048201528381602481836001600160a01b0388165af1801562000d225762000d0c575b506001600160a01b0382163b156200072d5760405163f2fde38b60e01b815233600482015283908181602481836001600160a01b0389165af1801562000d015762000ce9575b5050604051630ecce30160e31b81526020816004817f00000000000000000000000000000000000000000000000000000000000000006001600160a01b03165afa93841562000cdd579362000c94575b509160008051602062001d1a83398151915262000c7162000c31602095604051946101a09060018060a01b03881687528887015260018060a01b03604435166040870152608435606087015260a435608087015260c43560a087015260e43560c08701528060e087015285019060248160040135910162001392565b62000c40610100850162001371565b62000c53610140850161012435620013ef565b83810361016085015261014435600401356024610144350162001413565b91610164356101808201528033930390a26040516001600160a01b039091168152f35b92506020833d60201162000cd4575b8162000cb2602093836200128f565b81010312620006b05791519160008051602062001d1a83398151915262000bb5565b3d915062000ca3565b604051903d90823e3d90fd5b62000cf49062001249565b6200072d57823862000b65565b6040513d84823e3d90fd5b62000d1a9093919362001249565b913862000b1f565b6040513d86823e3d90fd5b634e487b7160e01b84526041600452602484fd5b60405162461bcd60e51b815260206004820152603660248201527f5361666545524332303a20617070726f76652066726f6d206e6f6e2d7a65726f60448201527520746f206e6f6e2d7a65726f20616c6c6f77616e636560501b6064820152608490fd5b50604051636eb1769f60e11b81523060048201526001600160a01b038381166024830152602090829060449082908235165afa90811562000d2257849162000df0575b501562000a7a565b90506020813d60201162000e23575b8162000e0e602093836200128f565b8101031262000e1f57513862000de8565b8380fd5b3d915062000dff565b60405162461bcd60e51b815260206004820152602c60248201527f4465706f73697420616d6f756e74206973206c657373207468616e206d696e6960448201526b1b5d5b481c995c5d5a5c995960a21b6064820152608490fd5b90506020823d60201162000ebe575b8162000ea4602093836200128f565b8101031262000eba5762000a1291519062000a06565b8480fd5b3d915062000e95565b6040513d87823e3d90fd5b5080fd5b5034620000c85760208060031936011262000ed25762000ef562001232565b6001600160a01b037f0000000000000000000000000000000000000000000000000000000000000000811662000f2e30821415620012cf565b62000f4e60008051602062001cba83398151915291838354161462001320565b604051638da5cb5b60e01b815284816004817f000000000000000000000000000000000000000000000000000000000000000087165afa908115620011d7578691620011b5575b5082339116036200117557604051848101929091906001600160401b0384118385101762001161578360405286835260ff60008051602062001c5a833981519152541660001462000ff05750505050620005169150620014ec565b84939416906040516352d1902d60e01b81528681600481865afa88918162001128575b50620010645760405162461bcd60e51b815260048101889052602e602482015260008051602062001d7a83398151915260448201526d6f6e206973206e6f74205555505360901b6064820152608490fd5b95949503620010e2579085916200107b84620014ec565b60008051602062001cfa8339815191528380a2805115801590620010da575b620010a8575b505050505080f35b620010ce94829160008051602062001d5a83398151915260405196620005fe8862001273565b503880808381620010a0565b50816200109a565b60405162461bcd60e51b8152600481018590526029602482015260008051602062001d3a8339815191526044820152681a58589b195555525160ba1b6064820152608490fd5b9091508781813d831162001159575b6200114381836200128f565b81010312620011555751903862001013565b8880fd5b503d62001137565b634e487b7160e01b87526041600452602487fd5b60405162461bcd60e51b8152600481018590526023602482015260008051602062001cda8339815191526044820152623732b960e91b6064820152608490fd5b620011d09150853d871162000168576200015781836200128f565b3862000f95565b6040513d88823e3d90fd5b90503462000ed257602036600319011262000ed2576004356001600160a01b038116908190036200072d5760408360ff926020955260008051602062001c7a833981519152855220541615158152f35b600435906001600160a01b0382168203620006b057565b6001600160401b0381116200125d57604052565b634e487b7160e01b600052604160045260246000fd5b606081019081106001600160401b038211176200125d57604052565b601f909101601f19168101906001600160401b038211908210176200125d57604052565b6001600160401b0381116200125d57601f01601f191660200190565b15620012d757565b60405162461bcd60e51b815260206004820152602c602482015260008051602062001c9a83398151915260448201526b19195b1959d85d1958d85b1b60a21b6064820152608490fd5b156200132857565b60405162461bcd60e51b815260206004820152602c602482015260008051602062001c9a83398151915260448201526b6163746976652070726f787960a01b6064820152608490fd5b60043563ffffffff60e01b8116809103620006b05781526020602435910152565b91818152602080910192916000916000905b828210620013b457505050505090565b9091929394853563ffffffff60e01b8116809103620013eb57815285820135828201526040908101950193929160010190620013a4565b8580fd5b906003821015620013fd5752565b634e487b7160e01b600052602160045260246000fd5b9190808252602080920192916000805b8382106200143357505050505090565b9091929394853560018060a01b0381168091036200072d57815283019483019392916001019062001423565b919082519283825260005b8481106200148c575050826000602080949584010152601f8019910116010190565b6020818301810151848301820152016200146a565b81810292918115918404141715620014b557565b634e487b7160e01b600052601160045260246000fd5b90816020910312620006b057516001600160a01b0381168103620006b05790565b803b15620015235760008051602062001cba83398151915280546001600160a01b0319166001600160a01b03909216919091179055565b60405162461bcd60e51b815260206004820152602d60248201527f455243313936373a206e657720696d706c656d656e746174696f6e206973206e60448201526c1bdd08184818dbdb9d1c9858dd609a1b6064820152608490fd5b604080516001600160a01b03929092169291908101906001600160401b038211818310176200125d57620015f2916040526020938482527f5361666545524332303a206c6f772d6c6576656c2063616c6c206661696c6564858301526000808587829751910182855af1620006246200168d565b80519182159184831562001666575b5050509050156200160f5750565b6084906040519062461bcd60e51b82526004820152602a60248201527f5361666545524332303a204552433230206f7065726174696f6e20646964206e6044820152691bdd081cdd58d8d9595960b21b6064820152fd5b91938180945001031262000ed257820151908115158203620000c857508038808462001601565b3d15620016bd573d90620016a182620012b3565b91620016b160405193846200128f565b82523d6000602084013e565b606090565b91929015620017275750815115620016d8575090565b3b15620016e25790565b60405162461bcd60e51b815260206004820152601d60248201527f416464726573733a2063616c6c20746f206e6f6e2d636f6e74726163740000006044820152606490fd5b8251909150156200173b5750805190602001fd5b60405162461bcd60e51b815260206004820152908190620017619060248301906200145f565b0390fdfe60a0604090808252346101e5576104f4803803809161001e82856101ea565b8339810182828203126101e55781516001600160a01b039283821691908282036101e5576020928382015160018060401b03928382116101e557019285601f850112156101e5578351936100718561020d565b9461007e8a5196876101ea565b808652868601978782840101116101e557878761009b9301610228565b60805282516100c1575b86516101f590816102ff82396080518181816025015260e20152f35b8360049188519283809263d6a5a04b60e01b82525afa9081156101da5760009161019d575b5090865194606086019186831090831117610187576101729660009384938a52602788527f416464726573733a206c6f772d6c6576656c2064656c65676174652063616c6c87890152660819985a5b195960ca1b8a89015216935190845af4903d1561017e573d6101568161020d565b90610163885192836101ea565b8152600081943d92013e61024b565b503880808080806100a5565b6060925061024b565b634e487b7160e01b600052604160045260246000fd5b8481813d83116101d3575b6101b281836101ea565b810103126101cf57519086821682036101cc5750386100e6565b80fd5b5080fd5b503d6101a8565b87513d6000823e3d90fd5b600080fd5b601f909101601f19168101906001600160401b0382119082101761018757604052565b6001600160401b03811161018757601f01601f191660200190565b60005b83811061023b5750506000910152565b818101518382015260200161022b565b919290156102ad575081511561025f575090565b3b156102685790565b60405162461bcd60e51b815260206004820152601d60248201527f416464726573733a2063616c6c20746f206e6f6e2d636f6e74726163740000006044820152606490fd5b8251909150156102c05750805190602001fd5b6044604051809262461bcd60e51b8252602060048301526102f08151809281602486015260208686019101610228565b601f01601f19168101030190fdfe608080604052366100c45763d6a5a04b60e01b81526001600160a01b03906020816004817f000000000000000000000000000000000000000000000000000000000000000086165afa9081156100b85760009161005e575b50166101a0565b905060203d6020116100b1575b601f8101601f19168201916001600160401b0383118184101761009b57610095926040520161015a565b38610057565b634e487b7160e01b600052604160045260246000fd5b503d61006b565b6040513d6000823e3d90fd5b60405163d6a5a04b60e01b81526001600160a01b03906020816004817f000000000000000000000000000000000000000000000000000000000000000086165afa9081156100b85760009161011a5750166101a0565b602091503d8211610152575b601f8201601f19168101916001600160401b0383118284101761009b5761009592604052810190610181565b3d9150610126565b602090607f19011261017c576080516001600160a01b038116810361017c5790565b600080fd5b9081602091031261017c57516001600160a01b038116810361017c5790565b6000808092368280378136915af43d82803e156101bb573d90f35b3d90fdfea2646970667358221220ee7c6c70860729a312ccf6c7db7f28f334f314e89a25b9b9c90f823454b14be464736f6c634300081800334910fdfa16fed3260ed0e7147f7cc6da11a60208b5b9406d12a635614ffd914321811dc5bb11da2b2076245a2c14796806445512606a02297e6b92fb1172810746756e6374696f6e206d7573742062652063616c6c6564207468726f75676820360894a13ba1a3210667c828492db98dca3e2076cc3735a920a3ca505d382bbc426173654d6f64756c653a2063616c6c6572206973206e6f7420746865206f77bc7cd75a20ee27fd9adebab32041f755214dbc6bffa90cc0225b39da2e5c2d3bb713fb1962af63e77449fd5d1fdf718c9ec7582040f62658c15d12f28310352f45524331393637557067726164653a20756e737570706f727465642070726f78416464726573733a206c6f772d6c6576656c2064656c65676174652063616c6c45524331393637557067726164653a206e657720696d706c656d656e74617469a26469706673582212200f01814d78c7cee0820007c0d816263d3681c4daae460454be916ac3b0c4899e64736f6c63430008180033","linkReferences":{}},"methodIdentifiers":{"core()":"f2f4eb26","deployDeal((bytes4,bytes32),address,uint256,uint256,uint256,uint256,uint256,(bytes4,bytes32)[],uint8,address[],uint256)":"4a0e2169","hasDeal(address)":"21053053","initialize()":"8129fc1c","owner()":"8da5cb5b","proxiableUUID()":"52d1902d","upgradeTo(address)":"3659cfe6","upgradeToAndCall(address,bytes)":"4f1ef286"},"devdoc":{"version":1,"kind":"dev","methods":{"deployDeal((bytes4,bytes32),address,uint256,uint256,uint256,uint256,uint256,(bytes4,bytes32)[],uint8,address[],uint256)":{"details":"Creates a new deal","params":{"appCID_":"The app cid of the deal","depositAmount_":"The deposit amount of the deal","effectors_":"The effectors of the deal","maxWorkersPerProvider_":"The max workers per provider of the deal","minWorkers_":"The min workers of the deal. Deel will be activated only if the number of workers is greater","paymentToken_":"The payment token of the deal. User can choose any ERC20 token for payment","pricePerWorkerEpoch_":"The price per worker per epoch of the deal","protocolVersion_":"Protocol version","providersAccessList_":"The providers access list of the deal","providersAccessType_":"The providers access type of the deal (None, Whitelist, Blacklist)","targetWorkers_":"The target workers of the deal. It's the max number of workers for the deal"},"returns":{"_0":"The deal address"}},"hasDeal(address)":{"details":"Returns true if the deal exists","params":{"deal":"The deal address"}},"proxiableUUID()":{"details":"Implementation of the ERC1822 {proxiableUUID} function. This returns the storage slot used by the implementation. It is used to validate the implementation's compatibility when performing an upgrade. IMPORTANT: A proxy pointing at a proxiable contract should not be considered proxiable itself, because this risks bricking a proxy that upgrades to it, by delegating to itself until out of gas. Thus it is critical that this function revert if invoked through a proxy. This is guaranteed by the `notDelegated` modifier."},"upgradeTo(address)":{"details":"Upgrade the implementation of the proxy to `newImplementation`. Calls {_authorizeUpgrade}. Emits an {Upgraded} event."},"upgradeToAndCall(address,bytes)":{"details":"Upgrade the implementation of the proxy to `newImplementation`, and subsequently execute the function call encoded in `data`. Calls {_authorizeUpgrade}. Emits an {Upgraded} event."}},"events":{"AdminChanged(address,address)":{"details":"Emitted when the admin account has changed."},"BeaconUpgraded(address)":{"details":"Emitted when the beacon is changed."},"DealCreated(address,address,uint256,address,uint256,uint256,uint256,uint256,(bytes4,bytes32)[],(bytes4,bytes32),uint8,address[],uint256)":{"details":"Emitted when a new deal is created","params":{"appCID":"The app cid of the deal","createdAtEpoch":"The creation time of the deal in Epochs","deal":"The deal address","effectors":"The effectors of the deal","maxWorkersPerProvider":"The max workers per provider of the deal","minWorkers":"The min workers of the deal. Deel will be activated only if the number of workers is greater","owner":"The owner of the deal","paymentToken":"The payment token of the deal. User can choose any ERC20 token for payment","pricePerWorkerEpoch":"The price per worker per epoch of the deal","protocolVersion_":"Protocol version","providersAccessList_":"The providers access list of the deal","providersAccessType_":"The providers access type of the deal (None, Whitelist, Blacklist)","targetWorkers":"The target workers of the deal. It's the max number of workers for the deal"}},"Initialized(uint8)":{"details":"Triggered when the contract has been initialized or reinitialized."},"Upgraded(address)":{"details":"Emitted when the implementation is upgraded."}}},"id":81}