{"abi":[{"type":"function","name":"applyFinalityChanges","inputs":[],"outputs":[{"name":"","type":"uint64","internalType":"uint64"}],"stateMutability":"nonpayable"},{"type":"function","name":"commitParentFinality","inputs":[{"name":"finality","type":"tuple","internalType":"struct ParentFinality","components":[{"name":"height","type":"uint256","internalType":"uint256"},{"name":"blockHash","type":"bytes32","internalType":"bytes32"}]}],"outputs":[{"name":"hasCommittedBefore","type":"bool","internalType":"bool"},{"name":"previousFinality","type":"tuple","internalType":"struct ParentFinality","components":[{"name":"height","type":"uint256","internalType":"uint256"},{"name":"blockHash","type":"bytes32","internalType":"bytes32"}]}],"stateMutability":"nonpayable"},{"type":"function","name":"storeValidatorChanges","inputs":[{"name":"changeRequests","type":"tuple[]","internalType":"struct StakingChangeRequest[]","components":[{"name":"change","type":"tuple","internalType":"struct StakingChange","components":[{"name":"op","type":"uint8","internalType":"enum StakingOperation"},{"name":"payload","type":"bytes","internalType":"bytes"},{"name":"validator","type":"address","internalType":"address"}]},{"name":"configurationNumber","type":"uint64","internalType":"uint64"}]}],"outputs":[],"stateMutability":"nonpayable"},{"type":"event","name":"ActiveValidatorCollateralUpdated","inputs":[{"name":"validator","type":"address","indexed":false,"internalType":"address"},{"name":"newPower","type":"uint256","indexed":false,"internalType":"uint256"}],"anonymous":false},{"type":"event","name":"ActiveValidatorLeft","inputs":[{"name":"validator","type":"address","indexed":false,"internalType":"address"}],"anonymous":false},{"type":"event","name":"ActiveValidatorReplaced","inputs":[{"name":"oldValidator","type":"address","indexed":false,"internalType":"address"},{"name":"newValidator","type":"address","indexed":false,"internalType":"address"}],"anonymous":false},{"type":"event","name":"MembershipUpdated","inputs":[{"name":"","type":"tuple","indexed":false,"internalType":"struct Membership","components":[{"name":"validators","type":"tuple[]","internalType":"struct Validator[]","components":[{"name":"weight","type":"uint256","internalType":"uint256"},{"name":"addr","type":"address","internalType":"address"},{"name":"metadata","type":"bytes","internalType":"bytes"}]},{"name":"configurationNumber","type":"uint64","internalType":"uint64"}]}],"anonymous":false},{"type":"event","name":"NewActiveValidator","inputs":[{"name":"validator","type":"address","indexed":false,"internalType":"address"},{"name":"power","type":"uint256","indexed":false,"internalType":"uint256"}],"anonymous":false},{"type":"event","name":"NewWaitingValidator","inputs":[{"name":"validator","type":"address","indexed":false,"internalType":"address"},{"name":"power","type":"uint256","indexed":false,"internalType":"uint256"}],"anonymous":false},{"type":"event","name":"WaitingValidatorCollateralUpdated","inputs":[{"name":"validator","type":"address","indexed":false,"internalType":"address"},{"name":"newPower","type":"uint256","indexed":false,"internalType":"uint256"}],"anonymous":false},{"type":"event","name":"WaitingValidatorLeft","inputs":[{"name":"validator","type":"address","indexed":false,"internalType":"address"}],"anonymous":false},{"type":"error","name":"AddressShouldBeValidator","inputs":[]},{"type":"error","name":"CannotConfirmFutureChanges","inputs":[]},{"type":"error","name":"InvalidConfigurationNumber","inputs":[]},{"type":"error","name":"NotSystemActor","inputs":[]},{"type":"error","name":"OldConfigurationNumber","inputs":[]},{"type":"error","name":"PQDoesNotContainAddress","inputs":[]},{"type":"error","name":"PQEmpty","inputs":[]},{"type":"error","name":"ParentFinalityAlreadyCommitted","inputs":[]}],"bytecode":{"object":"0x608060405234801561001057600080fd5b50612690806100206000396000f3fe608060405234801561001057600080fd5b50600436106100415760003560e01c80630df1446114610046578063111969741461006b578063e49a547d146100a2575b600080fd5b61004e6100b7565b6040516001600160401b0390911681526020015b60405180910390f35b61007e610079366004611f87565b6102e5565b60408051921515835281516020808501919091529091015190820152606001610062565b6100b56100b0366004611f9f565b61031a565b005b60006100c1610332565b601d546000906100dc906001906001600160401b0316612029565b601d54909150600160401b90046001600160401b03166100fd826001612050565b6001600160401b03160361011357600091505090565b61011e6014826103c4565b600061012a60146106ef565b80519091506000816001600160401b0381111561014957610149612070565b60405190808252806020026020018201604052801561019657816020015b604080516060808201835260008083526020830152918101919091528152602001906001900390816101675790505b50905060005b828110156102b55760008482815181106101b8576101b8612086565b6020908102919091018101516001600160a01b03811660008181526016845260409081902081516060810183526001820154815294850192909252600382018054939550919392908301919061020d9061209c565b80601f01602080910402602001604051908101604052809291908181526020018280546102399061209c565b80156102865780601f1061025b57610100808354040283529160200191610286565b820191906000526020600020905b81548152906001019060200180831161026957829003601f168201915b50505050508152508484815181106102a0576102a0612086565b6020908102919091010152505060010161019c565b506102dc6040518060400160405280838152602001866001600160401b03168152506107c4565b50919250505090565b6040805180820190915260008082526020820181905290610304610332565b61030d83610bac565b8051151594909350915050565b610322610332565b61032e60148383610c2e565b5050565b604051635d3f8a6960e01b815233600482015273__$e800e3908cdbb6b1b5bd452383a17b18f7$__90635d3f8a6990602401602060405180830381865af4158015610381573d6000803e3d6000fd5b505050506040513d601f19601f820116820180604052508101906103a591906120d0565b6103c25760405163f0d97f3b60e01b815260040160405180910390fd5b565b60098201546001600160401b03908116908216106103f55760405163040aaa0560e11b815260040160405180910390fd5b60098201546001600160401b03600160401b90910481169082161015610419575050565b6009820154600160401b90046001600160401b0316805b826001600160401b0316816001600160401b0316116106aa5760006104586009860183610c7e565b60028181015482549293506001600160a01b03169160ff166003811115610481576104816120f2565b036104b6576001600160a01b038116600090815260028701602052604090206003016104b06001840182612150565b50610693565b6003825460ff1660038111156104ce576104ce6120f2565b036105b5576000808360010180546104e59061209c565b80601f01602080910402602001604051908101604052809291908181526020018280546105119061209c565b801561055e5780601f106105335761010080835404028352916020019161055e565b820191906000526020600020905b81548152906001019060200180831161054157829003601f168201915b50505050508060200190518101906105769190612250565b6001600160a01b038516600090815260028b016020526040902091935091506003016105a28382612306565b506105ae888483610c9f565b5050610693565b60008260010180546105c69061209c565b80601f01602080910402602001604051908101604052809291908181526020018280546105f29061209c565b801561063f5780601f106106145761010080835404028352916020019161063f565b820191906000526020600020905b81548152906001019060200180831161062257829003601f168201915b505050505080602001905181019061065791906123bd565b90506001835460ff166003811115610671576106716120f2565b0361068657610681878383610cef565b610691565b610691878383610dd6565b505b6106a06009870184610e49565b5050600101610430565b506106b6826001612050565b600990930180546001600160401b0394909416600160401b026fffffffffffffffff000000000000000019909416939093179092555050565b60606000610702836003015461ffff1690565b90508061ffff166001600160401b0381111561072057610720612070565b604051908082528060200260200182016040528015610749578160200160208202803683370190505b50915060015b8161ffff168161ffff16116107bd5761ffff811660009081526005850160205260409020546001600160a01b0316836107896001846123d6565b61ffff168151811061079d5761079d612086565b6001600160a01b039092166020928302919091019091015260010161074f565b5050919050565b7f7ecdac482334c36fccbe374318cfe74ea0c8181394890ddec894a10f0fcc7481816040516107f3919061248a565b60405180910390a16008546000906001600160401b0316156109a457600a81015460208301516001600160401b0391821691160361082f575050565b600a81015460208301516001600160401b039182169116101561086557604051633746be2560e11b815260040160405180910390fd5b6040805160078301805460606020820284018101855293830181815261099b948794939284929184919060009085015b8282101561097957600084815260209081902060408051606081018252600386029092018054835260018101546001600160a01b031693830193909352600283018054929392918401916108e89061209c565b80601f01602080910402602001604051908101604052809291908181526020018280546109149061209c565b80156109615780601f1061093657610100808354040283529160200191610961565b820191906000526020600020905b81548152906001019060200180831161094457829003601f168201915b50505050508152505081526020019060010190610895565b50505090825250600191909101546001600160401b0316602090910152610e90565b156109a4575050565b60078101805460098301906109bc9082908490611e70565b506001918201549101805467ffffffffffffffff19166001600160401b03909216919091179055815151600782015460005b82811015610b135781811015610a8b578451805182908110610a1257610a12612086565b6020026020010151846007016000018281548110610a3257610a32612086565b6000918252602091829020835160039290920201908155908201516001820180546001600160a01b0319166001600160a01b0390921691909117905560408201516002820190610a829082612306565b50905050610b0b565b8451805160078601919083908110610aa557610aa5612086565b60209081029190910181015182546001808201855560009485529383902082516003909202019081559181015192820180546001600160a01b0319166001600160a01b039094169390931790925560408201516002820190610b079082612306565b5050505b6001016109ee565b50602084015160088401805467ffffffffffffffff19166001600160401b0390921691909117905581811115610ba657815b81811015610ba45760078401805480610b6057610b606124c5565b6000828152602081206003600019909301928302018181556001810180546001600160a01b031916905590610b986002830182611f03565b50509055600101610b45565b505b50505050565b60408051808201909152600080825260208201819052805483358110610be55760405163153ad84160e11b815260040160405180910390fd5b6000908152602082810180825260408084208151808301835281548152600191820154818601528835808752938552919094208281559690920135959092019490945590555090565b806000819003610c3e5750505050565b60005b81811015610ba457610c7685858584818110610c5f57610c5f612086565b9050602002810190610c7191906124db565b610f50565b600101610c41565b6001600160401b038116600090815260018301602052604090205b92915050565b6001600160a01b03821660009081526002840160205260409020805490829055818103610ccc5750505050565b81811015610ce457610cdf848484611029565b610ba6565b610ba6848484611276565b6001600160a01b0382166000908152600284016020526040812060010154610d189083906124fb565b6001600160a01b038416600090815260028087016020526040909120015490915081158015610d45575080155b15610d8a576001600160a01b03841660009081526002808701602052604082208281556001810183905590810182905590610d836003830182611f03565b5050610dab565b6001600160a01b038416600090815260028601602052604090206001018290555b610db6858584611276565b82856001016000828254610dca91906124fb565b90915550505050505050565b6001600160a01b0382166000908152600284016020526040812060010154610dff90839061250e565b6001600160a01b038416600090815260028601602052604081206001908101839055860180549293508492909190610e3890849061250e565b90915550610ba69050848483611029565b6001600160401b0381166000908152600180840160205260408220805460ff191681559190610e7a90830182611f03565b5060020180546001600160a01b03191690555050565b600081602001516001600160401b031683602001516001600160401b031614610ebb57506000610c99565b610ec482611526565b610ecd84611526565b14610eda57506000610c99565b81515183515114610eed57506000610c99565b8251604051600091610f0191602001612521565b60408051601f198184030181529082905280516020918201208551909350600092610f2c9201612521565b60408051601f19818403018152919052805160209091012091909114949350505050565b6000610fe1610f5f8380612534565b610f7090606081019060400161254a565b610f7a8480612534565b610f88906020810190612573565b610f928580612534565b610fa0906020810190612594565b8080601f0160208091040260200160405190810160405280939291908181526020018383808284376000920191909152505060098901949392915050611574565b9050610ff360408301602084016125da565b6001600160401b0316816001600160401b03161461102457604051631aba532960e21b815260040160405180910390fd5b505050565b611036600384018361166b565b1561109157611049600384018484611694565b604080516001600160a01b0384168152602081018390527f143db27bc2036653dc6f962ff9d0b803163d4af50c256ca9e6927b3d6dcd019791015b60405180910390a1505050565b825461ffff6101009091041660006110ae600386015461ffff1690565b90508061ffff168261ffff161115611118576110ce6003860186866116bc565b604080516001600160a01b0386168152602081018590527f2e8038f5812f763c6ef0c5427cb5a05ce6d7064af2ba7d1d270bc02660b019fd91015b60405180910390a15050505050565b6000806111286003880188611742565b91509150848110156111ca576111416003880188611784565b61114e600688018761166b565b15611161576111616006880188886117e2565b61116f6003880188886116bc565b61117d60068801888461187a565b604080516001600160a01b038085168252881660208201527ffaeb8de771b867cf357f6b459a7002b62ec45d544a8078a3ecd91200cc826d7591015b60405180910390a150505050505050565b6111d7600688018761166b565b15611229576111ea600688018888611900565b604080516001600160a01b0388168152602081018790527fda148fac2e1063174be7bc0895576bdaba90fd14e575463fa26a967cb895cadd91016111b9565b61123760068801888861187a565b604080516001600160a01b0388168152602081018790527f19fe3ca603e87854a0747cc10abf06bac64d61bac73d6d15f2fd3ca448f1526491016111b9565b611283600684018361166b565b1561132457806000036112d75761129e6006840184846117e2565b6040516001600160a01b03831681527f3168ba660eed6ef1dc2258b2247cc05fd0f2f350d39e6ad2e2ebc76a8000b40b90602001611084565b6112e560068401848461191a565b604080516001600160a01b0384168152602081018390527fda148fac2e1063174be7bc0895576bdaba90fd14e575463fa26a967cb895cadd9101611084565b611331600384018361166b565b61134e57604051632a55ca5360e01b815260040160405180910390fd5b8060000361141d57611364600384018484611942565b6040516001600160a01b03831681527f4a4c5d1a281180eea1e99d8177fa4798b9f7e019d5c57e7d8d73c6a22199aa5b9060200160405180910390a1600683015461ffff1615611024576000806113be6006860186611742565b90925090506113d060068601866119d2565b6113de6003860186846116bc565b604080516001600160a01b0384168152602081018390527f2e8038f5812f763c6ef0c5427cb5a05ce6d7064af2ba7d1d270bc02660b019fd9101611109565b61142b600384018484611a30565b600683015461ffff1660000361144057505050565b6000806114506003860186611742565b90925090506000806114656006880188611742565b91509150808310156114e75761147e6003880188611784565b61148b60068801886119d2565b6114996003880188846116bc565b6114a760068801888661187a565b604080516001600160a01b038087168252841660208201527ffaeb8de771b867cf357f6b459a7002b62ec45d544a8078a3ecd91200cc826d7591016111b9565b604080516001600160a01b0388168152602081018790527f143db27bc2036653dc6f962ff9d0b803163d4af50c256ca9e6927b3d6dcd019791016111b9565b80515160009081805b8281101561156c57845180518290811061154b5761154b612086565b60200260200101516000015182611562919061250e565b915060010161152f565b509392505050565b835460408051606081019091526001600160401b0390911690808460038111156115a0576115a06120f2565b815260208082018590526001600160a01b0387166040928301526001600160401b03841660009081526001808a01909252919091208251815491929091839160ff19909116908360038111156115f8576115f86120f2565b0217905550602082015160018201906116119082612306565b5060409190910151600290910180546001600160a01b0319166001600160a01b03909216919091179055611646816001612050565b855467ffffffffffffffff19166001600160401b039190911617909455509192915050565b6001600160a01b038116600090815260018301602052604081205461ffff1615155b9392505050565b60006116a08483611a4a565b905060006116ae8484611a8a565b9050610ba485858484611aed565b82546000906116d09061ffff166001612603565b6001600160a01b03831660008181526001870160209081526040808320805461ffff871661ffff19918216811790925581855260028b0190935290832080546001600160a01b03191690941790935587541690911786559091506117348484611a8a565b9050610ba485858484611b87565b60008061174e84611bcb565b600160009081526002850160205260408120546001600160a01b0316906117758583611a8a565b919350909150505b9250929050565b61178d82611bcb565b815461ffff1661179f83600183611bf4565b6117aa6001826123d6565b835461ffff191661ffff919091161783556117c58382611ca9565b60006117d384846001611cee565b9050610ba68484600184611aed565b60006117ee8483611a4a565b845490915061ffff16611802858383611bf4565b61180d6001826123d6565b855461ffff191661ffff919091161785556118288582611ca9565b8161ffff168161ffff160361183e575050505050565b600061184b868685611cee565b905061185986868584611d20565b611864868685611cee565b905061187286868584611d64565b505050505050565b825460009061188e9061ffff166001612603565b6001600160a01b03831660008181526001870160209081526040808320805461ffff871661ffff19918216811790925581855260028b0190935290832080546001600160a01b03191690941790935587541690911786559091506118f28484611a8a565b9050610ba485858484611d20565b600061190c8483611a4a565b905060006118f28484611a8a565b60006119268483611a4a565b905060006119348484611a8a565b9050610ba485858484611d64565b600061194e8483611a4a565b845490915061ffff16611962858383611bf4565b61196d6001826123d6565b855461ffff191661ffff919091161785556119888582611ca9565b8161ffff168161ffff160361199e575050505050565b60006119ab868685611cee565b90506119b986868584611b87565b6119c4868685611cee565b905061187286868584611aed565b6119db82611bcb565b815461ffff166119ed83600183611bf4565b6119f86001826123d6565b835461ffff191661ffff91909116178355611a138382611ca9565b6000611a2184846001611cee565b9050610ba68484600184611d64565b6000611a3c8483611a4a565b905060006117348484611a8a565b6001600160a01b038116600090815260018301602052604081205461ffff1690819003610c995760405163f2755e3760e01b815260040160405180910390fd5b60006001835460ff166002811115611aa457611aa46120f2565b03611aca57506001600160a01b0381166000908152600283016020526040902054610c99565b506001600160a01b03166000908152600291909101602052604090206001015490565b6000611afa83600261261e565b855490915060009061ffff165b8061ffff168361ffff1611611b7e578061ffff168361ffff161015611b4657611b3c878785611b37816001612603565b611dec565b9093509150611b54565b611b51878785611cee565b91505b83821015611b7e57611b67878487611bf4565b829450846002611b77919061261e565b9250611b07565b50505050505050565b6000805b60018461ffff16111561187257617fff600185901c169150611bae868684611cee565b90508083101561187257611bc3868386611bf4565b819350611b8b565b805461ffff16600003611bf1576040516340d9b01160e01b815260040160405180910390fd5b50565b825461ffff9081169083161115611c0d57611c0d612644565b825461ffff9081169082161115611c2657611c26612644565b61ffff9182166000818152600285016020818152604080842080549690971680855281852080546001600160a01b039889168088526001909b018552838720805461ffff19908116909417905590971680865291852080549091168617905591905283546001600160a01b03199081169096179093555281549092169091179055565b61ffff166000908152600282016020908152604080832080546001600160a01b031981169091556001600160a01b031683526001909301905220805461ffff19169055565b61ffff811660009081526002840160205260408120546001600160a01b0316611d178482611a8a565b95945050505050565b6000805b60018461ffff16111561187257617fff600185901c169150611d47868684611cee565b90508083111561187257611d5c868386611bf4565b819350611d24565b83546201fffe600184901b169060009061ffff165b8061ffff168361ffff1611611b7e578061ffff168361ffff161015611db857611dae878785611da9816001612603565b611e2e565b9093509150611dc6565b611dc3878785611cee565b91505b83821115611b7e57611dd9878487611bf4565b9193506201fffe600185901b1691611d79565b60008080611dfb878787611cee565b90506000611e0a888887611cee565b9050818110611e1e57508492509050611e25565b8493509150505b94509492505050565b60008080611e3d878787611cee565b90506000611e4c888887611cee565b905081811115611e62578493509150611e259050565b509396939550929350505050565b828054828255906000526020600020906003028101928215611ef35760005260206000209160030282015b82811115611ef3578254825560018084015490830180546001600160a01b0319166001600160a01b039092169190911790558282600280820190611ee190840182612150565b50505091600301919060030190611e9b565b50611eff929150611f3d565b5090565b508054611f0f9061209c565b6000825580601f10611f1f575050565b601f016020900490600052602060002090810190611bf19190611f72565b80821115611eff5760008082556001820180546001600160a01b0319169055611f696002830182611f03565b50600301611f3d565b5b80821115611eff5760008155600101611f73565b600060408284031215611f9957600080fd5b50919050565b60008060208385031215611fb257600080fd5b82356001600160401b0380821115611fc957600080fd5b818501915085601f830112611fdd57600080fd5b813581811115611fec57600080fd5b8660208260051b850101111561200157600080fd5b60209290920196919550909350505050565b634e487b7160e01b600052601160045260246000fd5b6001600160401b0382811682821603908082111561204957612049612013565b5092915050565b6001600160401b0381811683821601908082111561204957612049612013565b634e487b7160e01b600052604160045260246000fd5b634e487b7160e01b600052603260045260246000fd5b600181811c908216806120b057607f821691505b602082108103611f9957634e487b7160e01b600052602260045260246000fd5b6000602082840312156120e257600080fd5b8151801515811461168d57600080fd5b634e487b7160e01b600052602160045260246000fd5b601f821115611024576000816000526020600020601f850160051c810160208610156121315750805b601f850160051c820191505b818110156118725782815560010161213d565b81810361215b575050565b612165825461209c565b6001600160401b0381111561217c5761217c612070565b6121908161218a845461209c565b84612108565b6000601f8211600181146121c457600083156121ac5750848201545b600019600385901b1c1916600184901b178455610ba4565b600085815260209020601f19841690600086815260209020845b838110156121fe57828601548255600195860195909101906020016121de565b508583101561221c5781850154600019600388901b60f8161c191681555b5050505050600190811b01905550565b60005b8381101561224757818101518382015260200161222f565b50506000910152565b6000806040838503121561226357600080fd5b82516001600160401b038082111561227a57600080fd5b818501915085601f83011261228e57600080fd5b8151818111156122a0576122a0612070565b604051601f8201601f19908116603f011681019083821181831017156122c8576122c8612070565b816040528281528860208487010111156122e157600080fd5b6122f283602083016020880161222c565b602097909701519698969750505050505050565b81516001600160401b0381111561231f5761231f612070565b61232d8161218a845461209c565b602080601f831160018114612362576000841561234a5750858301515b600019600386901b1c1916600185901b178555611872565b600085815260208120601f198616915b8281101561239157888601518255948401946001909101908401612372565b508582101561221c57939096015160001960f8600387901b161c19169092555050600190811b01905550565b6000602082840312156123cf57600080fd5b5051919050565b61ffff82811682821603908082111561204957612049612013565b600082825180855260208086019550808260051b84010181860160005b8481101561247d57601f1986840381018a52825180518552858101516001600160a01b031686860152604090810151606091860182905280519186018290529060809061246081838901858b0161222c565b9b87019b601f01909216949094010192509083019060010161240e565b5090979650505050505050565b6020815260008251604060208401526124a660608401826123f1565b90506001600160401b0360208501511660408401528091505092915050565b634e487b7160e01b600052603160045260246000fd5b60008235603e198336030181126124f157600080fd5b9190910192915050565b81810381811115610c9957610c99612013565b80820180821115610c9957610c99612013565b60208152600061168d60208301846123f1565b60008235605e198336030181126124f157600080fd5b60006020828403121561255c57600080fd5b81356001600160a01b038116811461168d57600080fd5b60006020828403121561258557600080fd5b81356004811061168d57600080fd5b6000808335601e198436030181126125ab57600080fd5b8301803591506001600160401b038211156125c557600080fd5b60200191503681900382131561177d57600080fd5b6000602082840312156125ec57600080fd5b81356001600160401b038116811461168d57600080fd5b61ffff81811683821601908082111561204957612049612013565b61ffff81811683821602808216919082811461263c5761263c612013565b505092915050565b634e487b7160e01b600052600160045260246000fdfea26469706673582212200c1c8a189cab96f754fc8dd7be9187cf0ba17a51330a0433632d911130f504b964736f6c63430008180033","linkReferences":{"src/lib/AccountHelper.sol":{"AccountHelper":[{"start":871,"length":20}]}}},"methodIdentifiers":{"applyFinalityChanges()":"0df14461","commitParentFinality((uint256,bytes32))":"11196974","storeValidatorChanges(((uint8,bytes,address),uint64)[])":"e49a547d"},"id":63}