{"abi":[{"type":"function","name":"DOMAIN_SEPARATOR","inputs":[],"outputs":[{"name":"","type":"bytes32","internalType":"bytes32"}],"stateMutability":"view"},{"type":"function","name":"allowance","inputs":[{"name":"","type":"address","internalType":"address"},{"name":"","type":"address","internalType":"address"}],"outputs":[{"name":"","type":"uint256","internalType":"uint256"}],"stateMutability":"view"},{"type":"function","name":"approve","inputs":[{"name":"spender","type":"address","internalType":"address"},{"name":"amount","type":"uint256","internalType":"uint256"}],"outputs":[{"name":"","type":"bool","internalType":"bool"}],"stateMutability":"nonpayable"},{"type":"function","name":"balanceOf","inputs":[{"name":"","type":"address","internalType":"address"}],"outputs":[{"name":"","type":"uint256","internalType":"uint256"}],"stateMutability":"view"},{"type":"function","name":"decimals","inputs":[],"outputs":[{"name":"","type":"uint8","internalType":"uint8"}],"stateMutability":"view"},{"type":"function","name":"initialize","inputs":[{"name":"_name","type":"string","internalType":"string"},{"name":"_symbol","type":"string","internalType":"string"},{"name":"_decimals","type":"uint8","internalType":"uint8"}],"outputs":[],"stateMutability":"nonpayable"},{"type":"function","name":"name","inputs":[],"outputs":[{"name":"","type":"string","internalType":"string"}],"stateMutability":"view"},{"type":"function","name":"nonces","inputs":[{"name":"","type":"address","internalType":"address"}],"outputs":[{"name":"","type":"uint256","internalType":"uint256"}],"stateMutability":"view"},{"type":"function","name":"permit","inputs":[{"name":"owner","type":"address","internalType":"address"},{"name":"spender","type":"address","internalType":"address"},{"name":"value","type":"uint256","internalType":"uint256"},{"name":"deadline","type":"uint256","internalType":"uint256"},{"name":"v","type":"uint8","internalType":"uint8"},{"name":"r","type":"bytes32","internalType":"bytes32"},{"name":"s","type":"bytes32","internalType":"bytes32"}],"outputs":[],"stateMutability":"nonpayable"},{"type":"function","name":"symbol","inputs":[],"outputs":[{"name":"","type":"string","internalType":"string"}],"stateMutability":"view"},{"type":"function","name":"totalSupply","inputs":[],"outputs":[{"name":"","type":"uint256","internalType":"uint256"}],"stateMutability":"view"},{"type":"function","name":"transfer","inputs":[{"name":"to","type":"address","internalType":"address"},{"name":"amount","type":"uint256","internalType":"uint256"}],"outputs":[{"name":"","type":"bool","internalType":"bool"}],"stateMutability":"nonpayable"},{"type":"function","name":"transferFrom","inputs":[{"name":"from","type":"address","internalType":"address"},{"name":"to","type":"address","internalType":"address"},{"name":"amount","type":"uint256","internalType":"uint256"}],"outputs":[{"name":"","type":"bool","internalType":"bool"}],"stateMutability":"nonpayable"},{"type":"event","name":"Approval","inputs":[{"name":"owner","type":"address","indexed":true,"internalType":"address"},{"name":"spender","type":"address","indexed":true,"internalType":"address"},{"name":"amount","type":"uint256","indexed":false,"internalType":"uint256"}],"anonymous":false},{"type":"event","name":"Transfer","inputs":[{"name":"from","type":"address","indexed":true,"internalType":"address"},{"name":"to","type":"address","indexed":true,"internalType":"address"},{"name":"amount","type":"uint256","indexed":false,"internalType":"uint256"}],"anonymous":false}],"bytecode":{"object":"0x6080806040523461001657610def908161001c8239f35b600080fdfe608060408181526004918236101561001657600080fd5b600092833560e01c91826306fdde031461098557508163095ea7b3146109265781631624f6c61461062b57816318160ddd1461060c57816323b872dd1461053b578163313ce567146105195781633644e515146104f557816370a08231146104bf5781637ecebe001461048757816395d89b41146103c8578163a9059cbb14610347578163d505accf146100ff575063dd62ed3e146100b457600080fd5b346100fb57806003193601126100fb57806020926100d0610aec565b6100d8610b07565b6001600160a01b0391821683526005865283832091168252845220549051908152f35b5080fd5b9050346103435760e03660031901126103435761011a610aec565b610122610b07565b9260443590606435936084359360ff851680950361033f5742861061030257610149610b73565b9660018060a01b0380921696878a5260209660088852858b20998a549a6000198c146102ef5760018c019055865192858a8501957f6e71edae12b1b97f4d1f60370fef10105fa2faae0126114a169c64845d6126c987528c8a870152169b8c606086015289608086015260a085015260c084015260c0835260e0830160018060401b0394848210868311176102dc578189528451902061010085019261190160f01b845261010286015261012285015260428152610160840194818610908611176102c957848852519020835261018082015260a4356101a082015260c4356101c0909101528880528590899060809060015afa156102bf5787511690811515806102b6575b156102825750865260058352808620858752835280862082905551908152600080516020610d9a8339815191529190a380f35b825162461bcd60e51b8152908101859052600e60248201526d24a72b20a624a22fa9a4a3a722a960911b6044820152606490fd5b5085821461024f565b82513d89823e3d90fd5b634e487b7160e01b8d526041875260248dfd5b634e487b7160e01b8e526041885260248efd5b634e487b7160e01b8d526011875260248dfd5b506020606492519162461bcd60e51b8352820152601760248201527614115493525517d11150511312539157d1561412549151604a1b6044820152fd5b8780fd5b8280fd5b90503461034357816003193601126103435791602092610365610aec565b90836024359233855282875261037e8483872054610cb7565b3386528388528286205560018060a01b0316938481526103a18483832054610d25565b92858252875220558251908152600080516020610d7a833981519152843392a35160018152f35b5050346100fb57816003193601126100fb5780519082600190600154916103ee83610a30565b91828652602093600181169081600014610465575060011461042a575b610426868661041c828b0383610a6a565b5191829182610aa3565b0390f35b929550600183528583205b82841061045257505050826104269461041c92820101943861040b565b8054868501880152928601928101610435565b60ff191687860152505050151560051b830101925061041c826104263861040b565b5050346100fb5760203660031901126100fb5760209181906001600160a01b036104af610aec565b1681526008845220549051908152f35b9050346103435760203660031901126103435760209282916001600160a01b036104e7610aec565b168252845220549051908152f35b5050346100fb57816003193601126100fb57602090610512610b73565b9051908152f35b5050346100fb57816003193601126100fb5760209060ff600254169051908152f35b82843461060957606036600319011261060957610556610aec565b92600080516020610d7a83398151915261056e610b07565b60443560018060a01b038097169384865286602098899460058652828920338a528652828920548560001982036105e6575b50508789528386526105b585848b2054610cb7565b888a52848752838a205516968781526105d18483832054610d25565b92888252855220558551908152a35160018152f35b6105ef91610cb7565b888a5260058752838a20338b528752838a20558b856105a0565b80fd5b5050346100fb57816003193601126100fb576020906003549051908152f35b839150346100fb5760603660031901126100fb576001600160401b039281358481116109225761065e9036908401610b1d565b9360243581811161091e576106769036908501610b1d565b926044359260ff841680940361091a5760ff600954166108e1575085518281116108ce57806106a58754610a30565b97601f98898111610880575b5060209089831160011461081d578892610812575b50508160011b916000199060031b1c19161785555b83519182116107ff57506001926106f28454610a30565b8681116107ba575b50602095821160011461075a57948495829394959261074f575b5050600019600383901b1c191690831b1782555b60ff199081600254161760025546600655610741610b8d565b600755600954161760095580f35b015190508580610714565b601f1982169584865280862091865b8881106107a45750838697989695961061078b575b505050811b018255610728565b015160001960f88460031b161c1916905585808061077e565b8183015184559286019260209283019201610769565b848652602086208780850160051c820192602086106107f6575b0160051c019085905b8281106107eb5750506106fa565b8781550185906107dd565b925081926107d4565b634e487b7160e01b855260419052602484fd5b0151905088806106c6565b8880528189209250601f198416895b818110610868575090846001959493921061084f575b505050811b0185556106db565b015160001960f88460031b161c19169055888080610842565b9293602060018192878601518155019501930161082c565b909150878052602088208980850160051c820192602086106108c5575b9085949392910160051c01905b8181106108b757506106b1565b8981558493506001016108aa565b9250819261089d565b634e487b7160e01b865260418252602486fd5b906020606492519162461bcd60e51b835282015260136024820152721053149150511657d253925512505312569151606a1b6044820152fd5b8580fd5b8480fd5b8380fd5b5050346100fb57806003193601126100fb5760209181610944610aec565b91602435918291338152600587528181209460018060a01b031694858252875220558251908152600080516020610d9a833981519152843392a35160018152f35b849084346103435782600319360112610343578280546109a481610a30565b90818552602092600191600181169081600014610a0e57506001146109d457610426868661041c828b0383610a6a565b8080949750528583205b8284106109fb57505050826104269461041c92820101948661040b565b80548685018801529286019281016109de565b60ff191687860152505050151560051b830101925061041c826104268661040b565b90600182811c92168015610a60575b6020831014610a4a57565b634e487b7160e01b600052602260045260246000fd5b91607f1691610a3f565b601f909101601f19168101906001600160401b03821190821017610a8d57604052565b634e487b7160e01b600052604160045260246000fd5b6020808252825181830181905290939260005b828110610ad857505060409293506000838284010152601f8019910116010190565b818101860151848201604001528501610ab6565b600435906001600160a01b0382168203610b0257565b600080fd5b602435906001600160a01b0382168203610b0257565b81601f82011215610b02578035906001600160401b038211610a8d5760405192610b51601f8401601f191660200185610a6a565b82845260208383010111610b0257816000926020809301838601378301015290565b6006544603610b825760075490565b610b8a610b8d565b90565b60405160009060005490610ba082610a30565b808252816020948582019460019087600182169182600014610c99575050600114610c5a575b50610bd392500382610a6a565b51902090604051908101917f8b73c3c69bb8fe3d512ecc4cf759cc79239f7b179b0ffacaa9a75d522b39400f835260408201527fc89efdaa54c0f20c7adf612882df0950f5a951637e0307cdcb4c672f298b8bc660608201524660808201523060a082015260a0815260c0810181811060018060401b03821117610a8d5760405251902090565b8691506000805281600020906000915b858310610c81575050610bd3935082010138610bc6565b80548388018501528694508893909201918101610c6a565b60ff19168852610bd395151560051b8501019250389150610bc69050565b90808210610ce1578103908111610ccb5790565b634e487b7160e01b600052601160045260246000fd5b60405162461bcd60e51b815260206004820152601c60248201527b45524332303a207375627472616374696f6e20756e646572666c6f7760201b6044820152606490fd5b90810190818111610ccb578110610d395790565b60405162461bcd60e51b815260206004820152601860248201527745524332303a206164646974696f6e206f766572666c6f7760401b6044820152606490fdfeddf252ad1be2c89b69c2b068fc378daa952ba7f163c4a11628f55a4df523b3ef8c5be1e5ebec7d5bd14f71427d1e84f3dd0314c0f7b2291e5b200ac8c7c3b925a2646970667358221220951d098cb29e23f65675971d1ad1af6965ddc2c490249902c0d8bd2b3447e51e64736f6c63430008180033","linkReferences":{}},"methodIdentifiers":{"DOMAIN_SEPARATOR()":"3644e515","allowance(address,address)":"dd62ed3e","approve(address,uint256)":"095ea7b3","balanceOf(address)":"70a08231","decimals()":"313ce567","initialize(string,string,uint8)":"1624f6c6","name()":"06fdde03","nonces(address)":"7ecebe00","permit(address,address,uint256,uint256,uint8,bytes32,bytes32)":"d505accf","symbol()":"95d89b41","totalSupply()":"18160ddd","transfer(address,uint256)":"a9059cbb","transferFrom(address,address,uint256)":"23b872dd"},"storageLayout":{"storage":[{"astId":36015,"contract":"lib/forge-std/src/mocks/MockERC20.sol:MockERC20","label":"name","offset":0,"slot":"0","type":"t_string_storage"},{"astId":36017,"contract":"lib/forge-std/src/mocks/MockERC20.sol:MockERC20","label":"symbol","offset":0,"slot":"1","type":"t_string_storage"},{"astId":36019,"contract":"lib/forge-std/src/mocks/MockERC20.sol:MockERC20","label":"decimals","offset":0,"slot":"2","type":"t_uint8"},{"astId":36021,"contract":"lib/forge-std/src/mocks/MockERC20.sol:MockERC20","label":"totalSupply","offset":0,"slot":"3","type":"t_uint256"},{"astId":36025,"contract":"lib/forge-std/src/mocks/MockERC20.sol:MockERC20","label":"balanceOf","offset":0,"slot":"4","type":"t_mapping(t_address,t_uint256)"},{"astId":36031,"contract":"lib/forge-std/src/mocks/MockERC20.sol:MockERC20","label":"allowance","offset":0,"slot":"5","type":"t_mapping(t_address,t_mapping(t_address,t_uint256))"},{"astId":36033,"contract":"lib/forge-std/src/mocks/MockERC20.sol:MockERC20","label":"INITIAL_CHAIN_ID","offset":0,"slot":"6","type":"t_uint256"},{"astId":36035,"contract":"lib/forge-std/src/mocks/MockERC20.sol:MockERC20","label":"INITIAL_DOMAIN_SEPARATOR","offset":0,"slot":"7","type":"t_bytes32"},{"astId":36039,"contract":"lib/forge-std/src/mocks/MockERC20.sol:MockERC20","label":"nonces","offset":0,"slot":"8","type":"t_mapping(t_address,t_uint256)"},{"astId":36042,"contract":"lib/forge-std/src/mocks/MockERC20.sol:MockERC20","label":"initialized","offset":0,"slot":"9","type":"t_bool"}],"types":{"t_address":{"encoding":"inplace","label":"address","numberOfBytes":"20"},"t_bool":{"encoding":"inplace","label":"bool","numberOfBytes":"1"},"t_bytes32":{"encoding":"inplace","label":"bytes32","numberOfBytes":"32"},"t_mapping(t_address,t_mapping(t_address,t_uint256))":{"encoding":"mapping","key":"t_address","label":"mapping(address => mapping(address => uint256))","numberOfBytes":"32","value":"t_mapping(t_address,t_uint256)"},"t_mapping(t_address,t_uint256)":{"encoding":"mapping","key":"t_address","label":"mapping(address => uint256)","numberOfBytes":"32","value":"t_uint256"},"t_string_storage":{"encoding":"bytes","label":"string","numberOfBytes":"32"},"t_uint256":{"encoding":"inplace","label":"uint256","numberOfBytes":"32"},"t_uint8":{"encoding":"inplace","label":"uint8","numberOfBytes":"1"}}},"devdoc":{"version":1,"kind":"dev","details":"Forked from: https://github.com/transmissions11/solmate/blob/0384dbaaa4fcb5715738a9254a7c0a4cb62cf458/src/tokens/ERC20.sol","methods":{"initialize(string,string,uint8)":{"details":"To hide constructor warnings across solc versions due to different constructor visibility requirements and syntaxes, we add an initialization function that can be called only once."}}},"id":39}