{"abi":[{"type":"function","name":"diamondCut","inputs":[{"name":"_diamondCut","type":"tuple[]","internalType":"struct IDiamond.FacetCut[]","components":[{"name":"facetAddress","type":"address","internalType":"address"},{"name":"action","type":"uint8","internalType":"enum IDiamond.FacetCutAction"},{"name":"functionSelectors","type":"bytes4[]","internalType":"bytes4[]"}]},{"name":"_init","type":"address","internalType":"address"},{"name":"_calldata","type":"bytes","internalType":"bytes"}],"outputs":[],"stateMutability":"nonpayable"},{"type":"event","name":"DiamondCut","inputs":[{"name":"_diamondCut","type":"tuple[]","indexed":false,"internalType":"struct IDiamond.FacetCut[]","components":[{"name":"facetAddress","type":"address","internalType":"address"},{"name":"action","type":"uint8","internalType":"enum IDiamond.FacetCutAction"},{"name":"functionSelectors","type":"bytes4[]","internalType":"bytes4[]"}]},{"name":"_init","type":"address","indexed":false,"internalType":"address"},{"name":"_calldata","type":"bytes","indexed":false,"internalType":"bytes"}],"anonymous":false},{"type":"error","name":"CannotAddFunctionToDiamondThatAlreadyExists","inputs":[{"name":"_selector","type":"bytes4","internalType":"bytes4"}]},{"type":"error","name":"CannotAddSelectorsToZeroAddress","inputs":[{"name":"_selectors","type":"bytes4[]","internalType":"bytes4[]"}]},{"type":"error","name":"CannotRemoveFunctionThatDoesNotExist","inputs":[{"name":"_selector","type":"bytes4","internalType":"bytes4"}]},{"type":"error","name":"CannotRemoveImmutableFunction","inputs":[{"name":"_selector","type":"bytes4","internalType":"bytes4"}]},{"type":"error","name":"CannotReplaceFunctionThatDoesNotExists","inputs":[{"name":"_selector","type":"bytes4","internalType":"bytes4"}]},{"type":"error","name":"CannotReplaceFunctionWithTheSameFunctionFromTheSameFacet","inputs":[{"name":"_selector","type":"bytes4","internalType":"bytes4"}]},{"type":"error","name":"CannotReplaceFunctionsFromFacetWithZeroAddress","inputs":[{"name":"_selectors","type":"bytes4[]","internalType":"bytes4[]"}]},{"type":"error","name":"CannotReplaceImmutableFunction","inputs":[{"name":"_selector","type":"bytes4","internalType":"bytes4"}]},{"type":"error","name":"IncorrectFacetCutAction","inputs":[{"name":"_action","type":"uint8","internalType":"enum IDiamond.FacetCutAction"}]},{"type":"error","name":"InitializationFunctionReverted","inputs":[{"name":"_initializationContractAddress","type":"address","internalType":"address"},{"name":"_calldata","type":"bytes","internalType":"bytes"}]},{"type":"error","name":"NoBytecodeAtAddress","inputs":[{"name":"_contractAddress","type":"address","internalType":"address"},{"name":"_message","type":"string","internalType":"string"}]},{"type":"error","name":"NoSelectorsProvidedForFacetForCut","inputs":[{"name":"_facetAddress","type":"address","internalType":"address"}]},{"type":"error","name":"NotOwner","inputs":[]},{"type":"error","name":"RemoveFacetAddressMustBeZeroAddress","inputs":[{"name":"_facetAddress","type":"address","internalType":"address"}]}],"bytecode":{"object":"0x608060405234801561001057600080fd5b50610f5f806100206000396000f3fe608060405234801561001057600080fd5b506004361061002b5760003560e01c80631f931c1c14610030575b600080fd5b61004361003e366004610961565b610045565b005b61004d61009e565b61009761005a8587610aa7565b8484848080601f0160208091040260200160405190810160405280939291908181526020018383808284376000920191909152506100db92505050565b5050505050565b600080516020610f0a833981519152600301546001600160a01b031633146100d9576040516330cd747160e01b815260040160405180910390fd5b565b825160005b818110156102285760008582815181106100fc576100fc610beb565b6020026020010151604001519050600086838151811061011e5761011e610beb565b6020026020010151600001519050815160000361015e5760405163e767f91f60e01b81526001600160a01b03821660048201526024015b60405180910390fd5b600087848151811061017257610172610beb565b60200260200101516020015190506000600281111561019357610193610c01565b8160028111156101a5576101a5610c01565b036101b9576101b48284610274565b61021a565b60018160028111156101cd576101cd610c01565b036101dc576101b48284610427565b60028160028111156101f0576101f0610c01565b036101ff576101b4828461058d565b80604051633ff4d20f60e11b81526004016101559190610c39565b8360010193505050506100e0565b507f8faa70878671ccd212d20771b795c50af8fd3ff6cf27f4bde57e5d4de0aeb67384848460405161025c93929190610c9d565b60405180910390a161026e8383610809565b50505050565b6001600160a01b03821661029d57806040516302b8da0760e21b81526004016101559190610d8c565b7f806e0cbb9fce296bbc336a48f42bf1dbc69722d18d90d6fe705b7582c2bb4bd35460408051606081019091526021808252600080516020610f0a83398151915292916102f491869190610ec160208301396108cf565b825160005b8181101561041f57600085828151811061031557610315610beb565b6020908102919091018101516001600160e01b031981166000908152918790526040909120549091506001600160a01b03168015610368578160405163ebbf5d0760e01b81526004016101559190610dda565b6040805180820182526001600160a01b03808b16825261ffff80891660208085019182526001600160e01b0319881660009081528c8252958620945185549251909316600160a01b026001600160b01b0319909216929093169190911717909155600180890180549182018155835291206008820401805460e085901c60046007909416939093026101000a92830263ffffffff909302191691909117905561041085610e05565b945082600101925050506102f9565b505050505050565b600080516020610f0a8339815191526001600160a01b03831661045f578160405163cd98a96f60e01b81526004016101559190610d8c565b61048183604051806060016040528060288152602001610ee2602891396108cf565b815160005b818110156100975760008482815181106104a2576104a2610beb565b6020908102919091018101516001600160e01b031981166000908152918690526040909120549091506001600160a01b03163081036104f65781604051632901806d60e11b81526004016101559190610dda565b866001600160a01b0316816001600160a01b03160361052a5781604051631ac6ce8d60e11b81526004016101559190610dda565b6001600160a01b0381166105535781604051637479f93960e01b81526004016101559190610dda565b506001600160e01b031916600090815260208490526040902080546001600160a01b0319166001600160a01b038716179055600101610486565b7f806e0cbb9fce296bbc336a48f42bf1dbc69722d18d90d6fe705b7582c2bb4bd354600080516020610f0a833981519152906001600160a01b038416156105f25760405163d091bc8160e01b81526001600160a01b0385166004820152602401610155565b825160005b8181101561041f57600085828151811061061357610613610beb565b6020908102919091018101516001600160e01b0319811660009081528783526040908190208151808301909252546001600160a01b038116808352600160a01b90910461ffff1693820193909352909250906106845781604051637a08a22d60e01b81526004016101559190610dda565b8051306001600160a01b03909116036106b25781604051630df5fd6160e31b81526004016101559190610dda565b6106bb85610e26565b945084816020015161ffff16146107985760008660010186815481106106e3576106e3610beb565b90600052602060002090600891828204019190066004029054906101000a900460e01b90508087600101836020015161ffff168154811061072657610726610beb565b600091825260208083206008830401805463ffffffff60079094166004026101000a938402191660e09590951c92909202939093179055838201516001600160e01b03199390931681529088905260409020805461ffff60a01b1916600160a01b61ffff909316929092029190911790555b856001018054806107ab576107ab610e3d565b60008281526020808220600860001990940193840401805463ffffffff600460078716026101000a0219169055919092556001600160e01b0319909316815291869052506040902080546001600160b01b03191690556001016105f7565b6001600160a01b03821661081b575050565b61083d82604051806060016040528060258152602001610e9c602591396108cf565b600080836001600160a01b0316836040516108589190610e53565b600060405180830381855af49150503d8060008114610893576040519150601f19603f3d011682016040523d82523d6000602084013e610898565b606091505b50915091508161026e578051156108b25780518082602001fd5b838360405163192105d760e01b8152600401610155929190610e6f565b813b60008190036108f757828260405163919834b960e01b8152600401610155929190610e6f565b505050565b80356001600160a01b038116811461091357600080fd5b919050565b60008083601f84011261092a57600080fd5b50813567ffffffffffffffff81111561094257600080fd5b60208301915083602082850101111561095a57600080fd5b9250929050565b60008060008060006060868803121561097957600080fd5b853567ffffffffffffffff8082111561099157600080fd5b818801915088601f8301126109a557600080fd5b8135818111156109b457600080fd5b8960208260051b85010111156109c957600080fd5b602083019750809650506109df602089016108fc565b945060408801359150808211156109f557600080fd5b50610a0288828901610918565b969995985093965092949392505050565b634e487b7160e01b600052604160045260246000fd5b6040516060810167ffffffffffffffff81118282101715610a4c57610a4c610a13565b60405290565b604051601f8201601f1916810167ffffffffffffffff81118282101715610a7b57610a7b610a13565b604052919050565b600067ffffffffffffffff821115610a9d57610a9d610a13565b5060051b60200190565b6000610aba610ab584610a83565b610a52565b83815260208082019190600586811b860136811115610ad857600080fd5b865b81811015610bde57803567ffffffffffffffff80821115610afb5760008081fd5b818a01915060608236031215610b115760008081fd5b610b19610a29565b610b22836108fc565b81528683013560038110610b365760008081fd5b8188015260408381013583811115610b4e5760008081fd5b939093019236601f850112610b6557600092508283fd5b83359250610b75610ab584610a83565b83815292871b84018801928881019036851115610b925760008081fd5b948901945b84861015610bc75785356001600160e01b031981168114610bb85760008081fd5b82529489019490890190610b97565b918301919091525088525050948301948301610ada565b5092979650505050505050565b634e487b7160e01b600052603260045260246000fd5b634e487b7160e01b600052602160045260246000fd5b60038110610c3557634e487b7160e01b600052602160045260246000fd5b9052565b60208101610c478284610c17565b92915050565b60005b83811015610c68578181015183820152602001610c50565b50506000910152565b60008151808452610c89816020860160208601610c4d565b601f01601f19169290920160200192915050565b60006060808301606084528087518083526080925060808601915060808160051b8701016020808b016000805b85811015610d5b578a8503607f19018752825180516001600160a01b03168652848101518a870190610cfe87890182610c17565b506040918201519187018b90528151908190529085019083908a8801905b80831015610d465783516001600160e01b0319168252928701926001929092019190870190610d1c565b50988601989650505091830191600101610cca565b5050506001600160a01b038a16908801528681036040880152610d7e8189610c71565b9a9950505050505050505050565b6020808252825182820181905260009190848201906040850190845b81811015610dce5783516001600160e01b03191683529284019291840191600101610da8565b50909695505050505050565b6001600160e01b031991909116815260200190565b634e487b7160e01b600052601160045260246000fd5b600061ffff808316818103610e1c57610e1c610def565b6001019392505050565b600081610e3557610e35610def565b506000190190565b634e487b7160e01b600052603160045260246000fd5b60008251610e65818460208701610c4d565b9190910192915050565b6001600160a01b0383168152604060208201819052600090610e9390830184610c71565b94935050505056fe6469616d6f6e644375743a205f696e6974206164647265737320686173206e6f20636f64656469616d6f6e644375743a2041646420666163657420686173206e6f20636f64654c69624469616d6f6e644375743a205265706c61636520666163657420686173206e6f20636f6465806e0cbb9fce296bbc336a48f42bf1dbc69722d18d90d6fe705b7582c2bb4bd2a264697066735822122081d5bf079cd73af9da95a2ea37becce750e9a1cc00bc4a5a2769a7ac66d1992464736f6c63430008180033","linkReferences":{}},"methodIdentifiers":{"diamondCut((address,uint8,bytes4[])[],address,bytes)":"1f931c1c"},"id":38}