{"abi":[{"type":"function","name":"approve","inputs":[{"name":"spender","type":"address","internalType":"address"},{"name":"id","type":"uint256","internalType":"uint256"}],"outputs":[],"stateMutability":"nonpayable"},{"type":"function","name":"balanceOf","inputs":[{"name":"owner","type":"address","internalType":"address"}],"outputs":[{"name":"","type":"uint256","internalType":"uint256"}],"stateMutability":"view"},{"type":"function","name":"getApproved","inputs":[{"name":"","type":"uint256","internalType":"uint256"}],"outputs":[{"name":"","type":"address","internalType":"address"}],"stateMutability":"view"},{"type":"function","name":"initialize","inputs":[{"name":"_name","type":"string","internalType":"string"},{"name":"_symbol","type":"string","internalType":"string"}],"outputs":[],"stateMutability":"nonpayable"},{"type":"function","name":"isApprovedForAll","inputs":[{"name":"","type":"address","internalType":"address"},{"name":"","type":"address","internalType":"address"}],"outputs":[{"name":"","type":"bool","internalType":"bool"}],"stateMutability":"view"},{"type":"function","name":"name","inputs":[],"outputs":[{"name":"","type":"string","internalType":"string"}],"stateMutability":"view"},{"type":"function","name":"ownerOf","inputs":[{"name":"id","type":"uint256","internalType":"uint256"}],"outputs":[{"name":"owner","type":"address","internalType":"address"}],"stateMutability":"view"},{"type":"function","name":"safeTransferFrom","inputs":[{"name":"from","type":"address","internalType":"address"},{"name":"to","type":"address","internalType":"address"},{"name":"id","type":"uint256","internalType":"uint256"}],"outputs":[],"stateMutability":"nonpayable"},{"type":"function","name":"safeTransferFrom","inputs":[{"name":"from","type":"address","internalType":"address"},{"name":"to","type":"address","internalType":"address"},{"name":"id","type":"uint256","internalType":"uint256"},{"name":"data","type":"bytes","internalType":"bytes"}],"outputs":[],"stateMutability":"nonpayable"},{"type":"function","name":"setApprovalForAll","inputs":[{"name":"operator","type":"address","internalType":"address"},{"name":"approved","type":"bool","internalType":"bool"}],"outputs":[],"stateMutability":"nonpayable"},{"type":"function","name":"supportsInterface","inputs":[{"name":"interfaceId","type":"bytes4","internalType":"bytes4"}],"outputs":[{"name":"","type":"bool","internalType":"bool"}],"stateMutability":"pure"},{"type":"function","name":"symbol","inputs":[],"outputs":[{"name":"","type":"string","internalType":"string"}],"stateMutability":"view"},{"type":"function","name":"tokenURI","inputs":[{"name":"id","type":"uint256","internalType":"uint256"}],"outputs":[{"name":"","type":"string","internalType":"string"}],"stateMutability":"view"},{"type":"function","name":"transferFrom","inputs":[{"name":"from","type":"address","internalType":"address"},{"name":"to","type":"address","internalType":"address"},{"name":"id","type":"uint256","internalType":"uint256"}],"outputs":[],"stateMutability":"nonpayable"},{"type":"event","name":"Approval","inputs":[{"name":"owner","type":"address","indexed":true,"internalType":"address"},{"name":"spender","type":"address","indexed":true,"internalType":"address"},{"name":"id","type":"uint256","indexed":true,"internalType":"uint256"}],"anonymous":false},{"type":"event","name":"ApprovalForAll","inputs":[{"name":"owner","type":"address","indexed":true,"internalType":"address"},{"name":"operator","type":"address","indexed":true,"internalType":"address"},{"name":"approved","type":"bool","indexed":false,"internalType":"bool"}],"anonymous":false},{"type":"event","name":"Transfer","inputs":[{"name":"from","type":"address","indexed":true,"internalType":"address"},{"name":"to","type":"address","indexed":true,"internalType":"address"},{"name":"id","type":"uint256","indexed":true,"internalType":"uint256"}],"anonymous":false}],"bytecode":{"object":"0x6080806040523461001657610e24908161001c8239f35b600080fdfe608060408181526004918236101561001657600080fd5b600092833560e01c91826301ffc9a7146109e85750816306fdde0314610955578163081812fc14610923578163095ea7b31461087257816323b872dd1461085a57816342842e0e1461079a5781634cd88b76146104d65781636352211e1461046b57816370a08231146103f857816395d89b4114610324578163a22cb4651461029f578163b88d4fde1461016e57508063c87b56dd1461010f5763e985e9c5146100bf57600080fd5b3461010b578060031936011261010b5760ff816020936100dd610b06565b6100e5610b21565b6001600160a01b0391821683526005875283832091168252855220549151911615158152f35b5080fd5b503461010b5760208060031936011261016a579181519283916020835260605191826020850152815b838110610155575050828201840152601f01601f19168101030190f35b60808101518782018701528694508101610138565b8280fd5b90503461016a57608036600319011261016a57610189610b06565b90610192610b21565b6044356064356001600160401b03811161029b573660238201121561029b576101c49036906024818701359101610b6c565b916101d0828287610c0d565b803b159485156101e8575b876101e587610daf565b80f35b6020939495508760018060a01b0380926102318a5198899788968794630a85bd0160e11b9d8e875233908701521660248501526044840152608060648401526084830190610ac6565b0393165af190811561028e576101e59350849161025f575b506001600160e01b0319161438808080806101db565b610281915060203d602011610287575b6102798183610a8d565b810190610d8f565b38610249565b503d61026f565b50505051903d90823e3d90fd5b8680fd5b50503461010b578060031936011261010b576102b9610b06565b90602435908115158092036103205733845260056020528084209260018060a01b03169283855260205280842060ff1981541660ff8416179055519081527f17307eab39ab6107e8899845ad3d59bd9653f200f220920489ca2b5937696c3160203392a380f35b8380fd5b8284346103f557806003193601126103f55781519182826001936001549461034b86610a53565b91828552602096876001821691826000146103ce575050600114610390575b50505061038c929161037d910385610a8d565b51928284938452830190610ac6565b0390f35b9190869350600183528383205b8284106103b6575050508201018161037d61038c61036a565b8054848a01860152889550879490930192810161039d565b60ff19168782015293151560051b8601909301935084925061037d915061038c905061036a565b80fd5b8391503461010b57602036600319011261010b576001600160a01b0361041c610b06565b169081156104395760208480858581526003845220549051908152f35b606490602085519162461bcd60e51b8352820152600c60248201526b5a45524f5f4144445245535360a01b6044820152fd5b905082346103f55760203660031901126103f557813581526002602052829020546001600160a01b03169081156104a6575060209151908152f35b606490602084519162461bcd60e51b8352820152600a6024820152691393d517d3525395115160b21b6044820152fd5b8391503461010b578260031936011261010b576001600160401b038135818111610320576105079036908401610bb2565b916024358281116107965761051f9036908301610bb2565b9460ff6006541661075d5750825182811161074a578061053f8654610a53565b94601f958681116106fc575b5060209086831160011461069957879261068e575b50508160011b916000199060031b1c19161784555b845191821161067b575060019161058c8354610a53565b818111610636575b5060209082116001146105d9578394829394926105ce575b5050600019600383901b1c191690821b1781555b60ff19600654161760065580f35b0151905084806105ac565b82845280842090601f198316855b8181106106205750958385969710610607575b505050811b0181556105c0565b015160001960f88460031b161c191690558480806105fa565b87830151845592850192602092830192016105e7565b838552602085208280850160051c82019260208610610672575b0160051c019084905b828110610667575050610594565b868155018490610659565b92508192610650565b634e487b7160e01b845260419052602483fd5b015190508780610560565b8780528188209250601f198416885b8181106106e457509084600195949392106106cb575b505050811b018455610575565b015160001960f88460031b161c191690558780806106be565b929360206001819287860151815501950193016106a8565b909150868052602087208680850160051c82019260208610610741575b9085949392910160051c01905b818110610733575061054b565b888155849350600101610726565b92508192610719565b634e487b7160e01b855260418252602485fd5b906020606492519162461bcd60e51b835282015260136024820152721053149150511657d253925512505312569151606a1b6044820152fd5b8480fd5b90503461016a576107aa36610b37565b906107b88282859695610c0d565b803b159384156107cd575b866101e586610daf565b60209293945060a4908760018060a01b03809489519788968795630a85bd0160e11b9b8c88523390880152166024860152604485015260806064850152826084850152165af190811561028e576101e59350849161083b575b506001600160e01b03191614388080806107c3565b610854915060203d602011610287576102798183610a8d565b38610826565b83346103f5576101e561086c36610b37565b91610c0d565b90503461016a578160031936011261016a5761088c610b06565b602435808552600260205283852054909391926001600160a01b0391821692903384148015610904575b6108bf90610bd0565b858752602052852080546001600160a01b031916919093169081179092557f8c5be1e5ebec7d5bd14f71427d1e84f3dd0314c0f7b2291e5b200ac8c7c3b9258480a480f35b508387526005602090815282882033895290528187205460ff166108b6565b90503461016a57602036600319011261016a57803583526020908152918190205490516001600160a01b039091168152f35b8284346103f557806003193601126103f5578151918282835461097781610a53565b90818452602095600191876001821691826000146103ce5750506001146109ab5750505061038c929161037d910385610a8d565b91908693508280528383205b8284106109d0575050508201018161037d61038c61036a565b8054848a0186015288955087949093019281016109b7565b84913461016a57602036600319011261016a573563ffffffff60e01b811680910361016a57602092506301ffc9a760e01b8114908115610a42575b8115610a31575b5015158152f35b635b5e139f60e01b14905083610a2a565b6380ac58cd60e01b81149150610a23565b90600182811c92168015610a83575b6020831014610a6d57565b634e487b7160e01b600052602260045260246000fd5b91607f1691610a62565b601f909101601f19168101906001600160401b03821190821017610ab057604052565b634e487b7160e01b600052604160045260246000fd5b919082519283825260005b848110610af2575050826000602080949584010152601f8019910116010190565b602081830181015184830182015201610ad1565b600435906001600160a01b0382168203610b1c57565b600080fd5b602435906001600160a01b0382168203610b1c57565b6060906003190112610b1c576001600160a01b03906004358281168103610b1c57916024359081168103610b1c579060443590565b9192916001600160401b038211610ab05760405191610b95601f8201601f191660200184610a8d565b829481845281830111610b1c578281602093846000960137010152565b9080601f83011215610b1c57816020610bcd93359101610b6c565b90565b15610bd757565b60405162461bcd60e51b815260206004820152600e60248201526d1393d517d055551213d49256915160921b6044820152606490fd5b6000838152600260209081526040808320546001600160a01b0395948616949086168503610d5e578516948515610d2657610c5a90853314908115610d09575b8115610cf3575b50610bd0565b838352600382528083208054908115610cdf57600019918201905585845260038352818420805490918114610cdf5760010190558583526002825280832080546001600160a01b0319908116871790915560049092528220805490911690557fddf252ad1be2c89b69c2b068fc378daa952ba7f163c4a11628f55a4df523b3ef9080a4565b634e487b7160e01b85526011600452602485fd5b9050878552600484528285205416331438610c54565b8686526005855283862033875285528386205460ff169150610c4d565b815162461bcd60e51b81526004810184905260116024820152701253959053125117d49150d25412515395607a1b6044820152606490fd5b815162461bcd60e51b815260048101849052600a60248201526957524f4e475f46524f4d60b01b6044820152606490fd5b90816020910312610b1c57516001600160e01b031981168103610b1c5790565b15610db657565b60405162461bcd60e51b815260206004820152601060248201526f155394d0519157d49150d2541251539560821b6044820152606490fdfea264697066735822122080967920f93d25f10268731419db60701d0c52666f9a810ef6c218dc3a3fe41064736f6c63430008180033","linkReferences":{}},"methodIdentifiers":{"approve(address,uint256)":"095ea7b3","balanceOf(address)":"70a08231","getApproved(uint256)":"081812fc","initialize(string,string)":"4cd88b76","isApprovedForAll(address,address)":"e985e9c5","name()":"06fdde03","ownerOf(uint256)":"6352211e","safeTransferFrom(address,address,uint256)":"42842e0e","safeTransferFrom(address,address,uint256,bytes)":"b88d4fde","setApprovalForAll(address,bool)":"a22cb465","supportsInterface(bytes4)":"01ffc9a7","symbol()":"95d89b41","tokenURI(uint256)":"c87b56dd","transferFrom(address,address,uint256)":"23b872dd"},"storageLayout":{"storage":[{"astId":36543,"contract":"lib/forge-std/src/mocks/MockERC721.sol:MockERC721","label":"name","offset":0,"slot":"0","type":"t_string_storage"},{"astId":36545,"contract":"lib/forge-std/src/mocks/MockERC721.sol:MockERC721","label":"symbol","offset":0,"slot":"1","type":"t_string_storage"},{"astId":36557,"contract":"lib/forge-std/src/mocks/MockERC721.sol:MockERC721","label":"_ownerOf","offset":0,"slot":"2","type":"t_mapping(t_uint256,t_address)"},{"astId":36561,"contract":"lib/forge-std/src/mocks/MockERC721.sol:MockERC721","label":"_balanceOf","offset":0,"slot":"3","type":"t_mapping(t_address,t_uint256)"},{"astId":36610,"contract":"lib/forge-std/src/mocks/MockERC721.sol:MockERC721","label":"getApproved","offset":0,"slot":"4","type":"t_mapping(t_uint256,t_address)"},{"astId":36616,"contract":"lib/forge-std/src/mocks/MockERC721.sol:MockERC721","label":"isApprovedForAll","offset":0,"slot":"5","type":"t_mapping(t_address,t_mapping(t_address,t_bool))"},{"astId":36619,"contract":"lib/forge-std/src/mocks/MockERC721.sol:MockERC721","label":"initialized","offset":0,"slot":"6","type":"t_bool"}],"types":{"t_address":{"encoding":"inplace","label":"address","numberOfBytes":"20"},"t_bool":{"encoding":"inplace","label":"bool","numberOfBytes":"1"},"t_mapping(t_address,t_bool)":{"encoding":"mapping","key":"t_address","label":"mapping(address => bool)","numberOfBytes":"32","value":"t_bool"},"t_mapping(t_address,t_mapping(t_address,t_bool))":{"encoding":"mapping","key":"t_address","label":"mapping(address => mapping(address => bool))","numberOfBytes":"32","value":"t_mapping(t_address,t_bool)"},"t_mapping(t_address,t_uint256)":{"encoding":"mapping","key":"t_address","label":"mapping(address => uint256)","numberOfBytes":"32","value":"t_uint256"},"t_mapping(t_uint256,t_address)":{"encoding":"mapping","key":"t_uint256","label":"mapping(uint256 => address)","numberOfBytes":"32","value":"t_address"},"t_string_storage":{"encoding":"bytes","label":"string","numberOfBytes":"32"},"t_uint256":{"encoding":"inplace","label":"uint256","numberOfBytes":"32"}}},"devdoc":{"version":1,"kind":"dev","details":"Forked from: https://github.com/transmissions11/solmate/blob/0384dbaaa4fcb5715738a9254a7c0a4cb62cf458/src/tokens/ERC721.sol","methods":{"initialize(string,string)":{"details":"To hide constructor warnings across solc versions due to different constructor visibility requirements and syntaxes, we add an initialization function that can be called only once."}}},"id":40}