{"abi":[{"type":"constructor","inputs":[{"name":"core_","type":"address","internalType":"contract ICore"}],"stateMutability":"nonpayable"},{"type":"function","name":"addComputePeers","inputs":[{"name":"offerId","type":"bytes32","internalType":"bytes32"},{"name":"peers","type":"tuple[]","internalType":"struct IOffer.RegisterComputePeer[]","components":[{"name":"peerId","type":"bytes32","internalType":"bytes32"},{"name":"owner","type":"address","internalType":"address"},{"name":"unitIds","type":"bytes32[]","internalType":"bytes32[]"}]}],"outputs":[],"stateMutability":"nonpayable"},{"type":"function","name":"addComputeUnits","inputs":[{"name":"peerId","type":"bytes32","internalType":"bytes32"},{"name":"unitIds","type":"bytes32[]","internalType":"bytes32[]"}],"outputs":[],"stateMutability":"nonpayable"},{"type":"function","name":"addEffector","inputs":[{"name":"offerId","type":"bytes32","internalType":"bytes32"},{"name":"newEffectors","type":"tuple[]","internalType":"struct CIDV1[]","components":[{"name":"prefixes","type":"bytes4","internalType":"bytes4"},{"name":"hash","type":"bytes32","internalType":"bytes32"}]}],"outputs":[],"stateMutability":"nonpayable"},{"type":"function","name":"changeMinPricePerWorkerEpoch","inputs":[{"name":"offerId","type":"bytes32","internalType":"bytes32"},{"name":"newMinPricePerWorkerEpoch","type":"uint256","internalType":"uint256"}],"outputs":[],"stateMutability":"nonpayable"},{"type":"function","name":"changePaymentToken","inputs":[{"name":"offerId","type":"bytes32","internalType":"bytes32"},{"name":"newPaymentToken","type":"address","internalType":"address"}],"outputs":[],"stateMutability":"nonpayable"},{"type":"function","name":"core","inputs":[],"outputs":[{"name":"","type":"address","internalType":"contract ICore"}],"stateMutability":"view"},{"type":"function","name":"getComputePeer","inputs":[{"name":"peerId","type":"bytes32","internalType":"bytes32"}],"outputs":[{"name":"","type":"tuple","internalType":"struct IOffer.ComputePeer","components":[{"name":"offerId","type":"bytes32","internalType":"bytes32"},{"name":"commitmentId","type":"bytes32","internalType":"bytes32"},{"name":"unitCount","type":"uint256","internalType":"uint256"},{"name":"owner","type":"address","internalType":"address"}]}],"stateMutability":"view"},{"type":"function","name":"getComputeUnit","inputs":[{"name":"unitId","type":"bytes32","internalType":"bytes32"}],"outputs":[{"name":"","type":"tuple","internalType":"struct IOffer.ComputeUnit","components":[{"name":"deal","type":"address","internalType":"address"},{"name":"peerId","type":"bytes32","internalType":"bytes32"},{"name":"startEpoch","type":"uint256","internalType":"uint256"}]}],"stateMutability":"view"},{"type":"function","name":"getComputeUnitIds","inputs":[{"name":"peerId","type":"bytes32","internalType":"bytes32"}],"outputs":[{"name":"","type":"bytes32[]","internalType":"bytes32[]"}],"stateMutability":"view"},{"type":"function","name":"getComputeUnits","inputs":[{"name":"peerId","type":"bytes32","internalType":"bytes32"}],"outputs":[{"name":"","type":"tuple[]","internalType":"struct IOffer.ComputeUnitView[]","components":[{"name":"id","type":"bytes32","internalType":"bytes32"},{"name":"deal","type":"address","internalType":"address"},{"name":"startEpoch","type":"uint256","internalType":"uint256"}]}],"stateMutability":"view"},{"type":"function","name":"getEffectorInfo","inputs":[{"name":"id","type":"tuple","internalType":"struct CIDV1","components":[{"name":"prefixes","type":"bytes4","internalType":"bytes4"},{"name":"hash","type":"bytes32","internalType":"bytes32"}]}],"outputs":[{"name":"","type":"tuple","internalType":"struct IOffer.EffectorInfo","components":[{"name":"description","type":"string","internalType":"string"},{"name":"metadata","type":"tuple","internalType":"struct CIDV1","components":[{"name":"prefixes","type":"bytes4","internalType":"bytes4"},{"name":"hash","type":"bytes32","internalType":"bytes32"}]}]}],"stateMutability":"view"},{"type":"function","name":"getOffer","inputs":[{"name":"offerId","type":"bytes32","internalType":"bytes32"}],"outputs":[{"name":"","type":"tuple","internalType":"struct IOffer.Offer","components":[{"name":"provider","type":"address","internalType":"address"},{"name":"minPricePerWorkerEpoch","type":"uint256","internalType":"uint256"},{"name":"paymentToken","type":"address","internalType":"address"},{"name":"peerCount","type":"uint256","internalType":"uint256"},{"name":"minProtocolVersion","type":"uint256","internalType":"uint256"},{"name":"maxProtocolVersion","type":"uint256","internalType":"uint256"}]}],"stateMutability":"view"},{"type":"function","name":"getProviderInfo","inputs":[{"name":"provider","type":"address","internalType":"address"}],"outputs":[{"name":"","type":"tuple","internalType":"struct IOffer.ProviderInfo","components":[{"name":"name","type":"string","internalType":"string"},{"name":"metadata","type":"tuple","internalType":"struct CIDV1","components":[{"name":"prefixes","type":"bytes4","internalType":"bytes4"},{"name":"hash","type":"bytes32","internalType":"bytes32"}]}]}],"stateMutability":"view"},{"type":"function","name":"initialize","inputs":[],"outputs":[],"stateMutability":"nonpayable"},{"type":"function","name":"matchDeal","inputs":[{"name":"deal","type":"address","internalType":"contract IDeal"},{"name":"offers","type":"bytes32[]","internalType":"bytes32[]"},{"name":"computeUnits","type":"bytes32[][]","internalType":"bytes32[][]"}],"outputs":[],"stateMutability":"nonpayable"},{"type":"function","name":"multicall","inputs":[{"name":"data","type":"bytes[]","internalType":"bytes[]"}],"outputs":[{"name":"results","type":"bytes[]","internalType":"bytes[]"}],"stateMutability":"nonpayable"},{"type":"function","name":"owner","inputs":[],"outputs":[{"name":"","type":"address","internalType":"address"}],"stateMutability":"view"},{"type":"function","name":"proxiableUUID","inputs":[],"outputs":[{"name":"","type":"bytes32","internalType":"bytes32"}],"stateMutability":"view"},{"type":"function","name":"registerMarketOffer","inputs":[{"name":"minPricePerWorkerEpoch","type":"uint256","internalType":"uint256"},{"name":"paymentToken","type":"address","internalType":"address"},{"name":"effectors","type":"tuple[]","internalType":"struct CIDV1[]","components":[{"name":"prefixes","type":"bytes4","internalType":"bytes4"},{"name":"hash","type":"bytes32","internalType":"bytes32"}]},{"name":"peers","type":"tuple[]","internalType":"struct IOffer.RegisterComputePeer[]","components":[{"name":"peerId","type":"bytes32","internalType":"bytes32"},{"name":"owner","type":"address","internalType":"address"},{"name":"unitIds","type":"bytes32[]","internalType":"bytes32[]"}]},{"name":"minProtocolVersion","type":"uint256","internalType":"uint256"},{"name":"maxProtocolVersion","type":"uint256","internalType":"uint256"}],"outputs":[{"name":"","type":"bytes32","internalType":"bytes32"}],"stateMutability":"nonpayable"},{"type":"function","name":"removeComputePeer","inputs":[{"name":"peerId","type":"bytes32","internalType":"bytes32"}],"outputs":[],"stateMutability":"nonpayable"},{"type":"function","name":"removeComputeUnit","inputs":[{"name":"unitId","type":"bytes32","internalType":"bytes32"}],"outputs":[],"stateMutability":"nonpayable"},{"type":"function","name":"removeEffector","inputs":[{"name":"offerId","type":"bytes32","internalType":"bytes32"},{"name":"effectors","type":"tuple[]","internalType":"struct CIDV1[]","components":[{"name":"prefixes","type":"bytes4","internalType":"bytes4"},{"name":"hash","type":"bytes32","internalType":"bytes32"}]}],"outputs":[],"stateMutability":"nonpayable"},{"type":"function","name":"removeEffectorInfo","inputs":[{"name":"id","type":"tuple","internalType":"struct CIDV1","components":[{"name":"prefixes","type":"bytes4","internalType":"bytes4"},{"name":"hash","type":"bytes32","internalType":"bytes32"}]}],"outputs":[],"stateMutability":"nonpayable"},{"type":"function","name":"removeOffer","inputs":[{"name":"offerId","type":"bytes32","internalType":"bytes32"}],"outputs":[],"stateMutability":"nonpayable"},{"type":"function","name":"returnComputeUnitFromDeal","inputs":[{"name":"unitId","type":"bytes32","internalType":"bytes32"}],"outputs":[],"stateMutability":"nonpayable"},{"type":"function","name":"setCommitmentId","inputs":[{"name":"peerId","type":"bytes32","internalType":"bytes32"},{"name":"commitmentId","type":"bytes32","internalType":"bytes32"}],"outputs":[],"stateMutability":"nonpayable"},{"type":"function","name":"setEffectorInfo","inputs":[{"name":"id","type":"tuple","internalType":"struct CIDV1","components":[{"name":"prefixes","type":"bytes4","internalType":"bytes4"},{"name":"hash","type":"bytes32","internalType":"bytes32"}]},{"name":"description","type":"string","internalType":"string"},{"name":"metadata","type":"tuple","internalType":"struct CIDV1","components":[{"name":"prefixes","type":"bytes4","internalType":"bytes4"},{"name":"hash","type":"bytes32","internalType":"bytes32"}]}],"outputs":[],"stateMutability":"nonpayable"},{"type":"function","name":"setProviderInfo","inputs":[{"name":"name","type":"string","internalType":"string"},{"name":"metadata","type":"tuple","internalType":"struct CIDV1","components":[{"name":"prefixes","type":"bytes4","internalType":"bytes4"},{"name":"hash","type":"bytes32","internalType":"bytes32"}]}],"outputs":[],"stateMutability":"nonpayable"},{"type":"function","name":"setStartEpoch","inputs":[{"name":"unitId","type":"bytes32","internalType":"bytes32"},{"name":"startEpoch","type":"uint256","internalType":"uint256"}],"outputs":[],"stateMutability":"nonpayable"},{"type":"function","name":"upgradeTo","inputs":[{"name":"newImplementation","type":"address","internalType":"address"}],"outputs":[],"stateMutability":"nonpayable"},{"type":"function","name":"upgradeToAndCall","inputs":[{"name":"newImplementation","type":"address","internalType":"address"},{"name":"data","type":"bytes","internalType":"bytes"}],"outputs":[],"stateMutability":"payable"},{"type":"event","name":"AdminChanged","inputs":[{"name":"previousAdmin","type":"address","indexed":false,"internalType":"address"},{"name":"newAdmin","type":"address","indexed":false,"internalType":"address"}],"anonymous":false},{"type":"event","name":"BeaconUpgraded","inputs":[{"name":"beacon","type":"address","indexed":true,"internalType":"address"}],"anonymous":false},{"type":"event","name":"ComputeUnitAddedToDeal","inputs":[{"name":"unitId","type":"bytes32","indexed":true,"internalType":"bytes32"},{"name":"deal","type":"address","indexed":false,"internalType":"contract IDeal"},{"name":"peerId","type":"bytes32","indexed":false,"internalType":"bytes32"}],"anonymous":false},{"type":"event","name":"ComputeUnitCreated","inputs":[{"name":"peerId","type":"bytes32","indexed":true,"internalType":"bytes32"},{"name":"unitId","type":"bytes32","indexed":false,"internalType":"bytes32"}],"anonymous":false},{"type":"event","name":"ComputeUnitMatched","inputs":[{"name":"peerId","type":"bytes32","indexed":true,"internalType":"bytes32"},{"name":"deal","type":"address","indexed":false,"internalType":"contract IDeal"},{"name":"unitId","type":"bytes32","indexed":false,"internalType":"bytes32"},{"name":"dealCreationBlock","type":"uint256","indexed":false,"internalType":"uint256"},{"name":"appCID","type":"tuple","indexed":false,"internalType":"struct CIDV1","components":[{"name":"prefixes","type":"bytes4","internalType":"bytes4"},{"name":"hash","type":"bytes32","internalType":"bytes32"}]}],"anonymous":false},{"type":"event","name":"ComputeUnitRemoved","inputs":[{"name":"peerId","type":"bytes32","indexed":true,"internalType":"bytes32"},{"name":"unitId","type":"bytes32","indexed":true,"internalType":"bytes32"}],"anonymous":false},{"type":"event","name":"ComputeUnitRemovedFromDeal","inputs":[{"name":"unitId","type":"bytes32","indexed":true,"internalType":"bytes32"},{"name":"deal","type":"address","indexed":false,"internalType":"contract IDeal"},{"name":"peerId","type":"bytes32","indexed":false,"internalType":"bytes32"}],"anonymous":false},{"type":"event","name":"EffectorAdded","inputs":[{"name":"offerId","type":"bytes32","indexed":true,"internalType":"bytes32"},{"name":"effector","type":"tuple","indexed":false,"internalType":"struct CIDV1","components":[{"name":"prefixes","type":"bytes4","internalType":"bytes4"},{"name":"hash","type":"bytes32","internalType":"bytes32"}]}],"anonymous":false},{"type":"event","name":"EffectorInfoRemoved","inputs":[{"name":"id","type":"tuple","indexed":false,"internalType":"struct CIDV1","components":[{"name":"prefixes","type":"bytes4","internalType":"bytes4"},{"name":"hash","type":"bytes32","internalType":"bytes32"}]}],"anonymous":false},{"type":"event","name":"EffectorInfoSet","inputs":[{"name":"id","type":"tuple","indexed":false,"internalType":"struct CIDV1","components":[{"name":"prefixes","type":"bytes4","internalType":"bytes4"},{"name":"hash","type":"bytes32","internalType":"bytes32"}]},{"name":"description","type":"string","indexed":false,"internalType":"string"},{"name":"metadata","type":"tuple","indexed":false,"internalType":"struct CIDV1","components":[{"name":"prefixes","type":"bytes4","internalType":"bytes4"},{"name":"hash","type":"bytes32","internalType":"bytes32"}]}],"anonymous":false},{"type":"event","name":"EffectorRemoved","inputs":[{"name":"offerId","type":"bytes32","indexed":true,"internalType":"bytes32"},{"name":"effector","type":"tuple","indexed":false,"internalType":"struct CIDV1","components":[{"name":"prefixes","type":"bytes4","internalType":"bytes4"},{"name":"hash","type":"bytes32","internalType":"bytes32"}]}],"anonymous":false},{"type":"event","name":"Initialized","inputs":[{"name":"version","type":"uint8","indexed":false,"internalType":"uint8"}],"anonymous":false},{"type":"event","name":"Loggigio","inputs":[{"name":"","type":"string","indexed":false,"internalType":"string"},{"name":"","type":"uint256","indexed":false,"internalType":"uint256"}],"anonymous":false},{"type":"event","name":"Loggigio","inputs":[{"name":"","type":"string","indexed":false,"internalType":"string"}],"anonymous":false},{"type":"event","name":"MarketOfferRegistered","inputs":[{"name":"provider","type":"address","indexed":true,"internalType":"address"},{"name":"offerId","type":"bytes32","indexed":false,"internalType":"bytes32"},{"name":"minPricePerWorkerEpoch","type":"uint256","indexed":false,"internalType":"uint256"},{"name":"paymentToken","type":"address","indexed":false,"internalType":"address"},{"name":"effectors","type":"tuple[]","indexed":false,"internalType":"struct CIDV1[]","components":[{"name":"prefixes","type":"bytes4","internalType":"bytes4"},{"name":"hash","type":"bytes32","internalType":"bytes32"}]},{"name":"minProtocolVersion","type":"uint256","indexed":false,"internalType":"uint256"},{"name":"maxProtocolVersion","type":"uint256","indexed":false,"internalType":"uint256"}],"anonymous":false},{"type":"event","name":"MinPricePerEpochUpdated","inputs":[{"name":"offerId","type":"bytes32","indexed":true,"internalType":"bytes32"},{"name":"minPricePerWorkerEpoch","type":"uint256","indexed":false,"internalType":"uint256"}],"anonymous":false},{"type":"event","name":"PaymentTokenUpdated","inputs":[{"name":"offerId","type":"bytes32","indexed":true,"internalType":"bytes32"},{"name":"paymentToken","type":"address","indexed":false,"internalType":"address"}],"anonymous":false},{"type":"event","name":"PeerCreated","inputs":[{"name":"offerId","type":"bytes32","indexed":true,"internalType":"bytes32"},{"name":"peerId","type":"bytes32","indexed":false,"internalType":"bytes32"},{"name":"owner","type":"address","indexed":false,"internalType":"address"}],"anonymous":false},{"type":"event","name":"PeerRemoved","inputs":[{"name":"offerId","type":"bytes32","indexed":true,"internalType":"bytes32"},{"name":"peerId","type":"bytes32","indexed":true,"internalType":"bytes32"}],"anonymous":false},{"type":"event","name":"ProviderInfoUpdated","inputs":[{"name":"provider","type":"address","indexed":true,"internalType":"address"},{"name":"name","type":"string","indexed":false,"internalType":"string"},{"name":"metadata","type":"tuple","indexed":false,"internalType":"struct CIDV1","components":[{"name":"prefixes","type":"bytes4","internalType":"bytes4"},{"name":"hash","type":"bytes32","internalType":"bytes32"}]}],"anonymous":false},{"type":"event","name":"Upgraded","inputs":[{"name":"implementation","type":"address","indexed":true,"internalType":"address"}],"anonymous":false},{"type":"error","name":"MinWorkersNotMatched","inputs":[{"name":"_minWorkers","type":"uint256","internalType":"uint256"}]}],"bytecode":{"object":"0x60c034620001a757601f6200545138819003918201601f19168301916001600160401b03831184841017620001ac57808492602094604052833981010312620001a757516001600160a01b0381168103620001a7573060805260a05260005460ff8160081c16620001525760ff8082160362000116575b60405161528e9081620001c38239608051818181612bfa01528181612cf50152612f6e015260a051818181610192015281816103140152818161036d015281816107c501528181610f5201528181611492015281816115a101528181611c8b015281816122d4015281816126e901528181612a9201528181612d5701528181612fcc0152818161359d0152818161365a015281816139590152613aa80152f35b60ff90811916176000557f7f26b83ff96e1f2b6a682f133852f6798a09c465da95921460cefb3847402498602060405160ff8152a13862000076565b60405162461bcd60e51b815260206004820152602760248201527f496e697469616c697a61626c653a20636f6e747261637420697320696e697469604482015266616c697a696e6760c81b6064820152608490fd5b600080fd5b634e487b7160e01b600052604160045260246000fdfe6102a0604052600436101561001357600080fd5b600061026052610260513560e01c8063087b97ba14613c085780630bcee1a214613bb957806314afcd521461380157806319c671ca1461362a5780631e90bbe41461356f57806334205efd1461342b5780633591187c1461316e5780633659cfe614612f495780634f1ef28614612ca657806352d1902d14612be557806362ac63fa14612b2657806364ec746e14612a64578063745e920b14612a2157806374920a9d1461295d5780637583902f146128f65780638129fc1c146127b457806386e68254146127665780638da5cb5b146126b957806391d27f71146125e95780639faf0d20146124c1578063a40a325814611415578063a963e5f414611392578063ac9650d814611243578063b017191a146110fd578063b6015c6e14610d48578063b6b9084e14610cb6578063c685738e14610a89578063d597b8c814610a27578063da74336a14610761578063edd9db67146101c85763f2f4eb261461017a57600080fd5b346101c157610260513660031901126101c1576040517f00000000000000000000000000000000000000000000000000000000000000006001600160a01b03168152602090f35b6102605180fd5b346101c15760c03660031901126101c1576101e1613caa565b6001600160401b03906044358281116101c157610202903690600401613d6e565b926064359081116101c15761021b903690600401613ec5565b91909260405160208101907febbe29d10864671a7296ae5158eb0df8533e86c62e6a8460f3029ae682538c5182523360601b6040820152436054820152366102605160748301376102816074823681016102605183820152036054810184520182613e50565b51902094336000526000805160206152198339815191526020526102a96040600020546140a4565b156107235761026080518790526000805160206151198339815191526020525160409020600201546001600160a01b03166106e7576102eb6004351515614718565b6102ff6001600160a01b0383161515613f9b565b604051634469ac9b60e01b81526020816004817f00000000000000000000000000000000000000000000000000000000000000006001600160a01b03165afa9081156106625761026051916106b5575b5060843510610670576040516301f76b9f60e11b81526020816004817f00000000000000000000000000000000000000000000000000000000000000006001600160a01b03165afa90811561066257610260519161062b575b5060a435116105e75760a435608435116105a8576040516103c881613e1a565b338152600435602082015260018060a01b0383166040820152610260516060820152608435608082015260a43560a0820152866102605152600080516020615119833981519152602052600560a06040610260512092600180831b03815116600180841b03198554161784556020810151600185015560028401600180841b03604083015116600180851b031982541617905560608101516003850155608081015160048501550151910155610260515b81811061054a5750806040519260c0840190888552600435602086015260018060a01b0316604085015260c060608501525260e082019290610260515b81811061052c575050507f02b4bfba88db81e84c717b16bf874a79ecc39de3944a9f18dd7122ae32f0990790608435608082015260a43560a08201528033930390a2610260515b81811061050f57602084604051908152f35b806105266105206001938587614548565b86614928565b016104fd565b9091936040808261053f600194896142e3565b0195019291016104b6565b6001906105696105643661055f84878a61435f565b614075565b6148e1565b88610260515260008051602061519983398151915260205260406102605120906102605152602052604061026051208260ff1982541617905501610479565b60405162461bcd60e51b815260206004820152601760248201527657726f6e672070726f746f636f6c2076657273696f6e7360481b6044820152606490fd5b60405162461bcd60e51b815260206004820152601c60248201527b4d61782070726f746f636f6c2076657273696f6e20746f6f2062696760201b6044820152606490fd5b90506020813d60201161065a575b8161064660209383613e50565b810103126106555751876103a8565b600080fd5b3d9150610639565b6040513d61026051823e3d90fd5b60405162461bcd60e51b815260206004820152601e60248201527f4d696e2070726f746f636f6c2076657273696f6e20746f6f20736d616c6c00006044820152606490fd5b90506020813d6020116106df575b816106d060209383613e50565b8101031261065557518761034f565b3d91506106c3565b60405162461bcd60e51b81526020600482015260146024820152734f6666657220616c72656164792065786973747360601b6044820152606490fd5b60405162461bcd60e51b8152602060048201526016602482015275141c9bdd9a59195c88191bd95cdb89dd08195e1a5cdd60521b6044820152606490fd5b346101c157366003190160a081126101c1576040136101c1576001600160401b036044358181116101c15761079a903690600401613f24565b60403660631901126101c157604051638da5cb5b60e01b81526020906001600160a01b0382826004817f000000000000000000000000000000000000000000000000000000000000000085165afa9081156106625761026051916109ef575b6108069250163314614254565b81156109ab576108186105643661403b565b61026051526000805160206150b98339815191528152604061026051209382116109915781906108528261084c87546140a4565b876147d7565b6102605190601f8311600114610923575061026051610886929182610918575b508160011b916000199060031b1c19161790565b83555b60018301926064356001600160e01b03198116918282036101c1577f07e6a99b56bd76df684b4e8200a585d033be87a4728f1b66545d48c61bfc405e9560029260e01c63ffffffff1982541617905560843591829101556109036040519485946108f2866142c3565b60a0604087015260a086019161481e565b91606084015260808301520390a16102605180f35b905084013586610872565b91601f1981168661026051528361026051209361026051905b8282106109745750501061095a575b5050600181811b018355610889565b830135600019600384901b60f8161c19169055838061094b565b80929350600185968293968a01358155019501930185929161093c565b634e487b7160e01b61026051526041600452602461026051fd5b6064906040519062461bcd60e51b82526004820152601f60248201527f4465736372697074696f6e2073686f756c64206265206e6f7420656d707479006044820152fd5b90508282813d8311610a20575b610a068183613e50565b810103126101c157610a1a61080692614206565b906107f9565b503d6109fc565b346101c15760203660031901126101c15760c0610a4560043561483f565b60a060405191600180831b038082511684526020820151602085015260408201511660408401526060810151606084015260808101516080840152015160a0820152f35b346101c15760603660031901126101c1576001600160401b036004358181116101c157610aba903690600401613f24565b60403660231901126101c1578015610c765760405192610ad984613dff565b610ae4368385613e8e565b845260405193610af385613dff565b6024356001600160e01b03198116919082810361065557865260443592602096848882015287830190815233600052600080516020615219833981519152885260406000209251918251908111610991578892610b548261084c87546140a4565b83906001601f841114610bf25792610b9f836002946000805160206151598339815191529c9794610bd199976102605192610be7575b50508160011b916000199060031b1c19161790565b84555b60018401905190815160e01c63ffffffff1982541617905501519101556040519460608652606086019161481e565b9483015260408201528033930390a26102605180f35b015190508e80610b8a565b90601f1983169186610260515285610260512092610260515b818110610c5f5750936000805160206151598339815191529b9693610bd19896936001938360029810610c46575b505050811b018455610ba2565b015160001960f88460031b161c191690558d8080610c39565b929387600181928786015181550195019301610c0b565b60405162461bcd60e51b81526020600482015260186024820152774e616d652073686f756c64206265206e6f7420656d70747960401b6044820152606490fd5b346101c157610d41610cc736613ef5565b91610cd381151561478d565b806102605152600080516020615099833981519152602052610d3c6001604061026051208054610d0481151561456a565b6102605152600080516020615119833981519152602052610d34828060a01b036040610260512054163314613f51565b015415614385565b614b65565b6102605180f35b346101c1576020806003193601126101c157600435908161026051526000805160206151f983398151915281526040610260512091604051808484829654938481520190610260515284610260512092610260515b868282106110e757505050610db492500384613e50565b825190610dd9610dc383614645565b92610dd16040519485613e50565b808452614645565b601f190183610260515b8281106110d15750505061026051526000805160206150998339815191528252600180936001604061026051200154906102605150610260519180610f30575b50909161026095939551905b610e92575b5050506040519180830181845284518091528160408501950191610260515b828110610e605785870386f35b835180518852828101516001600160a01b03168389015260409081015190880152606090960195928101928401610e53565b9083959392918151811015610f275780610ead859284614779565b518061026051526000805160206151d98339815191528852604061026051206002810154908115610f1f575b54604051926001600160a01b0390911690610ef384613de4565b8352898301526040820152610f088288614779565b52610f138187614779565b50019091929395610e2f565b869150610ed9565b50949294610e34565b604051635cfc1a5160e01b81526001600160a01b0394509192509085816004817f000000000000000000000000000000000000000000000000000000000000000088165afa9081156106625761026051916110a4575b5060405191631de5608360e21b8352600483015281602481610160968794165afa9081156106625786936102605192610fc7575b5050608001519086610e23565b915092508083813d831161109d575b610fe08183613e50565b810103126101c1576040519081016001600160401b038111828210176110875760405282519060068210156101c1578693608092825286810151878301526040810151604083015260608101516060830152828101518383015260a081015160a083015260c081015160c083015261105a60e08201614206565b60e08301526101008082015190830152610120808201519083015261014080910151908201529087610fba565b634e487b7160e01b600052604160045260246000fd5b503d610fd6565b6110c49150863d88116110ca575b6110bc8183613e50565b81019061421a565b87610f86565b503d6110b2565b6110d9614488565b828287010152018490610de3565b8554845260019586019589955093019201610d9d565b346101c15761110b36613d9e565b91806102605152602092600080516020615119833981519152845261114060018060a01b036040610260512054163314613f51565b610260515b818110611153576102605180f35b61115e81838661435f565b61116b6105643683614075565b84610260515260008051602061519983398151915280885260406102605120826102605152885260ff6040610260512054166112045760406001949387937f3c96a39027441c49cc91433cc2f6a915b4aa9be8119e89e1ee6700fe60eb2531938561026051528b528261026051209061026051528a528161026051208660ff198254161790556111fd825180926142e3565ba201611145565b60405162461bcd60e51b81526004810189905260176024820152764566666563746f7220616c72656164792065786973747360481b6044820152606490fd5b346101c1576020806003193601126101c1576001600160401b036004358181116101c157611275903690600401613ec5565b909161128082614645565b9261128e6040519485613e50565b82845261129a83614645565b601f190185610260515b82811061138357505050610260515b83811061131a576040805187815286518189018190526102605192600582901b8301810191898b01918b9085015b8287106112ee5785850386f35b90919293828061130a600193603f198a82030186528851613cd6565b96019201960195929190926112e1565b8060051b820135601e19833603018112156101c1578201908135918483116101c157870182360381136101c157611358611367916001943691613e8e565b611360614b1c565b9030614f4a565b6113718288614779565b5261137c8187614779565b50016112b3565b606087820183015281016112a4565b346101c15760207fdd848dc9639c1bd25e20cfc64807b34179257bd6236df1e88b957e369d70bdeb6113c336613d58565b8161026094929451526000805160206151198339815191528252806001604061026051206113fa828060a01b038254163314613f51565b611405831515614718565b0155604051908152a26102605180f35b346101c15760603660031901126101c1576004356001600160a01b03811690036101c1576024356001600160401b0381116101c157611458903690600401613ec5565b6044356001600160401b0381116101c157611477903690600401613ec5565b60c05260a052604051635cfc1a5160e01b81526020816004817f00000000000000000000000000000000000000000000000000000000000000006001600160a01b03165afa8015610662576102605160e0526124a0575b50604051638da5cb5b60e01b815260208160048181356001600160a01b03165afa908115610662576102605191612466575b50336001600160a01b0390911603612417576040516302734eab60e51b815260208160048181356001600160a01b03165afa9081156106625761026051916123dc575b506005811015611e5557600181149081156123d1575b501561238e5760018060a01b03600435166000526000805160206150f9833981519152602052604060002054604051630ecce30160e31b815260208160048160018060a01b037f0000000000000000000000000000000000000000000000000000000000000000165afa801561066257610260516102405261235a575b5080159081156122bd575b501561227857604051630d9a268960e31b815260208160048181356001600160a01b03165afa908115610662576102605191612246575b50604051633013ce2960e01b81529160208360048181356001600160a01b03165afa928315610662576102605193612202575b5060405163084697a960e11b815260208160048181356001600160a01b03165afa80156106625761026051610200526121ce575b50604051632943dcab60e01b815260208160048181356001600160a01b03165afa801561066257610260519061219a575b6116bf91506102005190614638565b610120819052604051638a0c725b60e01b815290949060208160048181356001600160a01b03165afa8015610662576102605161016052612166575b506040516319e749ff60e11b815260208160048181356001600160a01b03165afa8015610662576102605161022052612132575b50604051610280818152637e0f2f1560e11b90915261026051905160048181356001600160a01b03165afa918215610662576102605192612051575b60408051631378cd0d60e31b8152908160048181356001600160a01b03165afa801561066257610260516101a052612011575b506040516305d8d14560e21b815260208160048181356001600160a01b03165afa8015610662576102605161018052611fdd575b50604051630d4773ff60e41b815260208160048181356001600160a01b03165afa8015610662576102605161010052611fa0575b509493929190610260516101e05261026051610140525b85610140511061190957604051632db3119360e01b81528560208260048181356001600160a01b03165afa9182156106625761026051926118d3575b506118749061186f61012051916102005161462b565b614638565b81116118bb576101e051611889576102605180f35b6004356001600160a01b031660009081526000805160206150f983398151915260205261024051604090912055610d41565b60249060405190631275878760e21b82526004820152fd5b9091506020813d602011611901575b816118ef60209383613e50565b81010312610655575190611874611859565b3d91506118e2565b611917610140518783614695565b356101c0526119286101c05161483f565b60018060a01b0381511660405190631f4570d760e11b8252600482015260208160248160018060a01b03600435165afa908115610662576102605191611f81575b50158015611f74575b8015611f5a575b8015611f46575b8015611f36575b8015611f26575b611ee95751604051631c4b024760e31b81526001600160a01b039182166004808301919091529091602091839160249183919035165afa908115610662576102605191611ef4575b50610260516080525b6119f16101405160c05160a0516146f2565b90506080511015611ee9576101605181118015611ede575b611ec257611a2b611a226101405160c05160a0516146f2565b60805191614695565b3590611a36826144a7565b602081015190611a45826145ab565b6101c051815103611eb7576003610100511015611e555760016101005114159182611de1575b5050611da95760405163cb45f02360e01b8152600480820183905260209082906024908290356001600160a01b03165afa908115610662576102605191611db2575b50611da9578261026051526000805160206151d98339815191526020526040610260512092600184015480610260515260008051602061509983398151915260205260406102605120908154610260515260008051602061511983398151915260205260406102605120611b228215156141bd565b86546001600160a01b038116611d64576001600160a01b0319166004356001600160a01b039081169182178955915490911691903b156101c1576040519163fb9e93b360e01b83526004830152836024830152604482015261026051816064816102605160018060a01b03600435165af1801561066257611d4d575b506001015480611c76575b5060a0817fb1c5a9179c3104a43de668491f14c45778f00ec34d5deee023af204820483bdb927f9e974badb6aad80f90918cf14054938450e8aa92aaabc4a402a584fdac983b2e611c0a6001611c4199015460405191829160043583614239565b0390a260405190600180841b036004351682526020820152610180516040820152611c3b606082016101a051613d16565ba2614709565b95611c4e610120516143c7565b610120526101e05115611c6b575b600160805101608052956119df565b60016101e052611c5c565b604051635cfc1a5160e01b81526020816004817f00000000000000000000000000000000000000000000000000000000000000006001600160a01b03165afa908115610662576102605191611d2e575b506001600160a01b0381163b156101c157604051632e9432f560e21b815260048101929092526024820183905261026051908290604490829084906001600160a01b03165af180156106625715611ba957611d2090613dd1565b610260516101c1578a611ba9565b611d47915060203d6020116110ca576110bc8183613e50565b8c611cc6565b611d5690613dd1565b610260516101c1578b611b9e565b60405162461bcd60e51b815260206004820152601d60248201527f436f6d7075746520756e697420616c72656164792072657365727665640000006044820152606490fd5b50969050611c5c565b611dd4915060203d602011611dda575b611dcc8183613e50565b8101906146a5565b8a611aad565b503d611dc2565b516001600160a01b03161580159250611eaa575b8115611e04575b508a80611a6b565b602091500151604051906302ef145760e51b8252600482015260208160248160018060a01b0360e051165afa908115610662576102605191611e6f575b506006811015611e5557600114158a611dfc565b634e487b7160e01b61026051526021600452602461026051fd5b90506020813d602011611ea2575b81611e8a60209383613e50565b810103126101c1575160068110156101c1578a611e41565b3d9150611e7d565b6020810151159150611df5565b505050969050611c5c565b5090919293945b6001610140510161014052949392919061181d565b506101205115611a09565b509091929394611ec9565b90506020813d602011611f1e575b81611f0f60209383613e50565b810103126106555751876119d6565b3d9150611f02565b506102205160a08201511061198e565b5061022051608082015111611987565b50611f54836101c051614ab4565b15611980565b5060408101516001600160a01b0386811691161415611979565b5060208101518410611972565b611f9a915060203d602011611dda57611dcc8183613e50565b88611969565b6020813d602011611fd5575b81611fb960209383613e50565b810103126101c1575160038110156101c1576101005286611806565b3d9150611fac565b6020813d602011612009575b81611ff660209383613e50565b81010312610655575161018052866117d2565b3d9150611fe9565b6040903d604011612049575b6120278282613e50565b60408183810103126101c15761203f9181019061465c565b6101a0528661179e565b3d915061201d565b91503d8061026051610280513e61206b8161028051613e50565b60206102805182610280510103126101c15761028051516001600160401b0381116101c157816102805101601f8261028051010112156101c15780610280510151906120b682614645565b926120c46040519485613e50565b828452602084019181610280510160208560061b8361028051010101116101c15791602083610280510101925b60208560061b826102805101010184106121105750505050509161176b565b6040602080936121258661028051018861465c565b81520194019391506120f1565b6020813d60201161215e575b8161214b60209383613e50565b810103126106555751610220528561172f565b3d915061213e565b6020813d602011612192575b8161217f60209383613e50565b81010312610655575161016052856116fb565b3d9150612172565b506020813d6020116121c6575b816121b460209383613e50565b81010312610655576116bf90516116b0565b3d91506121a7565b6020813d6020116121fa575b816121e760209383613e50565b810103126106555751610200528461167f565b3d91506121da565b9092506020813d60201161223e575b8161221e60209383613e50565b810103126101c157516001600160a01b03811681036101c157918461164b565b3d9150612211565b90506020813d602011612270575b8161226160209383613e50565b81010312610655575183611618565b3d9150612254565b60405162461bcd60e51b815260206004820152601d60248201527f4d6174636865723a20746f6f206561726c7920746f2072656d617463680000006044820152606490fd5b6040516301a7de9960e21b815291506020826004817f00000000000000000000000000000000000000000000000000000000000000006001600160a01b03165afa908115610662576102605191612324575b612319925061462b565b6102405111836115e1565b90506020823d602011612352575b8161233f60209383613e50565b810103126106555761231991519061230f565b3d9150612332565b6020813d602011612386575b8161237360209383613e50565b81010312610655575161024052836115d6565b3d9150612366565b60405162461bcd60e51b815260206004820152601b60248201527a4d6174636865723a206465616c206973206e6f742061637469766560281b6044820152606490fd5b600391501483611559565b90506020813d60201161240f575b816123f760209383613e50565b810103126101c1575160058110156101c15783611543565b3d91506123ea565b60405162461bcd60e51b815260206004820152602160248201527f4d6174636865723a2073656e646572206973206e6f74206465616c206f776e656044820152603960f91b6064820152608490fd5b90506020813d602011612498575b8161248160209383613e50565b810103126101c15761249290614206565b83611500565b3d9150612474565b6124b89060203d6020116110ca576110bc8183613e50565b60e052826114ce565b346101c15760203660031901126101c1576004358061026051526000805160206150998339815191528060205260406102605120908154918261026051526000805160206151198339815191526020526002604061026051209161252685151561456a565b61253a60018060a01b038454163314613f51565b01546125ab5760030161254d81546143c7565b9055826102605152602052604061026051206000815560006001820155600060028201556003610260519101557f5f91ba2d62c13db8e4353c3b2d314e715907459581a42b764f350231f8ee0cf36102605161026051a36102605180f35b60405162461bcd60e51b8152602060048201526016602482015275506565722068617320636f6d7075746520756e69747360501b6044820152606490fd5b346101c15760203660031901126101c157600435806102605152600080516020615119833981519152908160205260036040610260512061263460018060a01b038254163314613f51565b015461267a576102605152602052600060056040610260512061026051815582600182015561026051600282015582600382015582600482015501556102605161026051f35b60405162461bcd60e51b81526020600482015260176024820152764f666665722068617320636f6d7075746520706565727360481b6044820152606490fd5b346101c157610260513660031901126101c157604051638da5cb5b60e01b81526001600160a01b036020826004817f000000000000000000000000000000000000000000000000000000000000000085165afa90811561066257610260519161272a575b6020925060405191168152f35b90506020823d60201161275e575b8161274560209383613e50565b810103126101c157612758602092614206565b9061271d565b3d9150612738565b346101c15760203660031901126101c15760806127846004356145ab565b60405190805182526020810151602083015260408101516040830152606060018060a01b03910151166060820152f35b346101c157610260513660031901126101c157610260515460ff8160081c1615908180926128e9575b80156128d2575b156128765781600160ff198316176102605155612861575b5061026051549061281b60ff8360081c1661281681614a54565b614a54565b612826576102605180f35b61ff00191661026051557f7f26b83ff96e1f2b6a682f133852f6798a09c465da95921460cefb3847402498602060405160018152a180610d41565b6101019061ffff1916176102605155816127fc565b60405162461bcd60e51b815260206004820152602e60248201527f496e697469616c697a61626c653a20636f6e747261637420697320616c72656160448201526d191e481a5b9a5d1a585b1a5e995960921b6064820152608490fd5b50303b1580156127e45750600160ff8216146127e4565b50600160ff8216106127dd565b346101c15760203660031901126101c15761290f613cc0565b612917613ff8565b5060018060a01b031660005260008051602061521983398151915260205261295961294560406000206140de565b604051918291602083526020830190613d2f565b0390f35b346101c15761296b36613ef5565b91908161026051526000805160206151198339815191526020526129aa60018060a01b036040610260512054166129a3811515614506565b3314613f51565b82156129e057610260515b8381106129c3576102605180f35b806129da6129d46001938786614548565b85614928565b016129b5565b60405162461bcd60e51b815260206004820152601960248201527850656572732073686f756c64206e6f7420626520656d70747960381b6044820152606490fd5b346101c15760203660031901126101c1576060612a3f6004356144a7565b6040805182516001600160a01b03168152602080840151908201529181015190820152f35b346101c15760403660031901126101c157604051635cfc1a5160e01b81526001600160a01b036020826004817f000000000000000000000000000000000000000000000000000000000000000085165afa90811561066257612ad3926102605192612b05575b50163314614304565b600435610260515260008051602061509983398151915260205260243560016040610260512001556102605161026051f35b612b1f91925060203d6020116110ca576110bc8183613e50565b9083612aca565b346101c1576020806003193601126101c15760043561026051526000805160206151f983398151915281526040610260512060405190818382549182815201908192610260515284610260512090610260515b86828210612bd1578686612b8f82880383613e50565b6040519283928184019082855251809152604084019291610260515b828110612bba57505050500390f35b835185528695509381019392810192600101612bab565b835485529093019260019283019201612b79565b346101c157610260513660031901126101c1577f00000000000000000000000000000000000000000000000000000000000000006001600160a01b03163003612c405760206040516000805160206151798339815191528152f35b60405162461bcd60e51b815260206004820152603860248201527f555550535570677261646561626c653a206d757374206e6f742062652063616c6044820152771b1959081d1a1c9bdd59da0819195b1959d85d1958d85b1b60421b6064820152608490fd5b60403660031901126101c157612cba613cc0565b6024356001600160401b0381116101c157366023820112156101c157612cea903690602481600401359101613e8e565b906001600160a01b037f00000000000000000000000000000000000000000000000000000000000000008116612d22308214156143ea565b612d3f600080516020615179833981519152918383541614614439565b604051638da5cb5b60e01b81526020929083816004817f000000000000000000000000000000000000000000000000000000000000000086165afa8015610662576102605190612f13575b612d98915082163314614254565b6000805160206150d98339815191525460ff1615612dbd57505050610d419150614eba565b83929316906040516352d1902d60e01b81528481600481865afa60009181612ee4575b50612e2f5760405162461bcd60e51b815260048101869052602e602482015260008051602061523983398151915260448201526d6f6e206973206e6f74205555505360901b6064820152608490fd5b9391929303612e8e5750612e4282614eba565b6000805160206151b9833981519152600080a2815115801590612e86575b612e6c575b5050610d41565b612e7e91612e78614b1c565b91614f4a565b508080612e65565b506001612e60565b6084906040519062461bcd60e51b82526004820152602960248201527f45524331393637557067726164653a20756e737570706f727465642070726f786044820152681a58589b195555525160ba1b6064820152fd5b9091508581813d8311612f0c575b612efc8183613e50565b8101031261065557519087612de0565b503d612ef2565b508381813d8311612f42575b612f298183613e50565b810103126101c157612f3d612d9891614206565b612d8a565b503d612f1f565b346101c1576020806003193601126101c157612f63613cc0565b6001600160a01b03917f00000000000000000000000000000000000000000000000000000000000000008316612f9b308214156143ea565b612fb8600080516020615179833981519152918583541614614439565b604051638da5cb5b60e01b815282816004817f000000000000000000000000000000000000000000000000000000000000000089165afa8015610662576102605190613138575b61300d915085163314614254565b604051938285016001600160401b03811186821017611087576040526102605185526000805160206150d98339815191525460ff161561305457505050610d419150614eba565b83929316906040516352d1902d60e01b81528481600481865afa60009181613109575b506130c65760405162461bcd60e51b815260048101869052602e602482015260008051602061523983398151915260448201526d6f6e206973206e6f74205555505360901b6064820152608490fd5b9391929303612e8e57506130d982614eba565b6000805160206151b9833981519152600080a281511580159061310157612e6c575050610d41565b506000612e60565b9091508581813d8311613131575b6131218183613e50565b8101031261065557519087613077565b503d613117565b508281813d8311613167575b61314e8183613e50565b810103126101c15761316261300d91614206565b612fff565b503d613144565b346101c1576020806003193601126101c157600435907f6fb708eecf92f935496d704a55662c4b5d0b27d105126a4eba98df2bad2a131b6060604051838152601184820152701c995b5bdd9950dbdb5c1d5d19555b9a5d607a1b6040820152a18161026051526000805160206151d983398151915280825260406102605120916001830154926131ff8415156141bd565b8361026051526000805160206150998339815191528252604061026051209081546102605152600080516020615119833981519152835260018060a01b03908160406102605120541633036133db5761325c600184015415614385565b541661339c576002016132ce81547fd033f349b2ba888f9c8a93725ca5513bd5e26f6ae8dd9b454ae59c2f2165b1d06080613296836143c7565b926040519060408252601560408301527418dbdb5c1d5d195419595c8b9d5b9a5d10dbdd5b9d605a1b606083015287820152a16143c7565b90558261026051526000805160206151f983398151915281526132f78460406102605120614db3565b1561334d5783610260515252600060026040610260512061026051815582600182015501557f5abefe0a1fb3d6df34b14e459422791829e024e367c6df8eaf0bf218cf42fb366102605161026051a36102605180f35b6084906040519062461bcd60e51b82526004820152602260248201527f496e76616c69642072656d6f76652066726f6d20656e756d657261626c652073604482015261195d60f21b6064820152fd5b60405162461bcd60e51b815260048101839052601760248201527610dbdb5c1d5d19481d5b9a5d081a5cc81a5b881919585b604a1b6044820152606490fd5b60405162461bcd60e51b815260048101859052602260248201527f4f6e6c79206f776e65722063616e2072656d6f766520636f6d7075746520756e6044820152611a5d60f21b6064820152608490fd5b346101c15761343936613d9e565b91806102605152602092600080516020615119833981519152845261346e60018060a01b036040610260512054163314613f51565b610260515b818110613481576102605180f35b61348c81838661435f565b6134996105643683614075565b84610260515260008051602061519983398151915280885260406102605120826102605152885260ff604061026051205416156135315760406001949387937f5151d310b0333d894aac0234a4665be715d061a6fbf0f84ce313f315a8272dce938561026051528b528261026051209061026051528a5281610260512060ff19815416905561352a825180926142e3565ba201613473565b60405162461bcd60e51b81526004810189905260166024820152751159999958dd1bdc88191bd95cdb89dd08195e1a5cdd60521b6044820152606490fd5b346101c15761357d36613d58565b604051635cfc1a5160e01b81529091906001600160a01b036020826004817f000000000000000000000000000000000000000000000000000000000000000085165afa908115610662576135dd9261026051926136095750163314614304565b61026051526000805160206151d983398151915260205260026040610260512001556102605161026051f35b61362391925060203d6020116110ca576110bc8183613e50565b9085612aca565b346101c15760403660031901126101c157604051638da5cb5b60e01b81526020906001600160a01b0382826004817f000000000000000000000000000000000000000000000000000000000000000085165afa9081156106625761026051916137c9575b61369b9250163314614254565b6136a76105643661403b565b8061026051526000805160206150b9833981519152908183526136d060406102605120546140a4565b1561378657916002916000936102605152815260406102605120906136f582546140a4565b908161373f575b505061026051600182015501557f735be6859fb325819656a18d6683153766e980fb5bc8822c2a757810ad46599760408051613737816142c3565ba16102605180f35b601f82116001146137575750508281555b83806136fc565b601f613778918461026051526102605120920160051c8201600183016142ac565b838255610260519055613750565b60405162461bcd60e51b815260048101849052601b60248201527a1159999958dd1bdc881a5b999bc8191bd95cdb89dd08195e1a5cdd602a1b6044820152606490fd5b90508282813d83116137fa575b6137e08183613e50565b810103126101c1576137f461369b92614206565b9061368e565b503d6137d6565b346101c1576020806003193601126101c157600435908161026051526000805160206151d983398151915281526040610260512090600182015490825460018060a01b0390818116946138558515156141bd565b8515613b7857846102605152600080516020615099833981519152845260406102605120918254610260515260008051602061511983398151915285528360406102605120541633148015613b69575b8015613b03575b8015613a93575b15613a15576001600160a01b0319169055843b156101c15760405190630d64461f60e21b82528660048301526102605182602481610260518a5af191821561066257600192613a06575b5001549182613945575b5050507f6983825ddd0ff30e17c7440c471db0e0560aa4e82049070656ac24c241959c249161393b60405192839283614239565b0390a26102605180f35b604051635cfc1a5160e01b815281816004817f000000000000000000000000000000000000000000000000000000000000000087165afa9182156106625761026051926139e9575b505016803b156101c1576040519163dee7f88160e01b8352600483015284602483015281604481610260519361026051905af18015610662576139d2575b8080613907565b6139db90613dd1565b610260516101c157836139cb565b6139ff9250803d106110ca576110bc8183613e50565b868061398d565b613a0f90613dd1565b876138fd565b60405162461bcd60e51b815260048101869052604a60248201527f4f6e6c79206465616c206f776e65722c2070656572206f776e657220616e642060448201527f70726f76696465722063616e2072656d6f766520636f6d7075746520756e697460648201526908199c9bdb481919585b60b21b608482015260a490fd5b50604051635cfc1a5160e01b815285816004817f000000000000000000000000000000000000000000000000000000000000000089165afa908115610662576102605191613ae6575b50841633146138b3565b613afd9150863d88116110ca576110bc8183613e50565b89613adc565b50604051638da5cb5b60e01b815285816004818b5afa908115610662576102605191613b34575b50841633146138ac565b90508581813d8311613b62575b613b4b8183613e50565b810103126101c157613b5c90614206565b89613b2a565b503d613b41565b503384600385015416146138a5565b60405162461bcd60e51b8152600481018590526019602482015278436f6d7075746520756e697420616c7265616479206672656560381b6044820152606490fd5b346101c15760403660031901126101c157613bd2613ff8565b50613bdf6105643661403b565b61026051526000805160206150b9833981519152602052612959612945604061026051206140de565b346101c15760403660031901126101c1576004357f69320c1eb39a752844ba207d2f98bd240d07dabf1449b4c1bd432daea12b744a6020613c47613caa565b83610260515260008051602061511983398151915282526002604061026051209160018060a01b0390613c7e828554163314613f51565b1691613c8b831515613f9b565b0180546001600160a01b03191682179055604051908152a26102605180f35b602435906001600160a01b038216820361065557565b600435906001600160a01b038216820361065557565b919082519283825260005b848110613d02575050826000602080949584010152601f8019910116010190565b602081830181015184830182015201613ce1565b80516001600160e01b0319168252602090810151910152565b90613d5590602080613d4a8551606085526060850190613cd6565b940151910190613d16565b90565b6040906003190112610655576004359060243590565b9181601f84011215610655578235916001600160401b038311610655576020808501948460061b01011161065557565b9060406003198301126106555760043591602435906001600160401b03821161065557613dcd91600401613d6e565b9091565b6001600160401b03811161108757604052565b606081019081106001600160401b0382111761108757604052565b604081019081106001600160401b0382111761108757604052565b60c081019081106001600160401b0382111761108757604052565b608081019081106001600160401b0382111761108757604052565b601f909101601f19168101906001600160401b0382119082101761108757604052565b6001600160401b03811161108757601f01601f191660200190565b929192613e9a82613e73565b91613ea86040519384613e50565b829481845281830111610655578281602093846000960137010152565b9181601f84011215610655578235916001600160401b038311610655576020808501948460051b01011161065557565b9060406003198301126106555760043591602435906001600160401b03821161065557613dcd91600401613ec5565b9181601f84011215610655578235916001600160401b038311610655576020838186019501011161065557565b15613f5857565b60405162461bcd60e51b815260206004820152601b60248201527a27b7363c9037bbb732b91031b0b71031b430b733b29037b33332b960291b6044820152606490fd5b15613fa257565b60405162461bcd60e51b815260206004820152602860248201527f5061796d656e7420746f6b656e2073686f756c64206265206e6f74207a65726f604482015267206164647265737360c01b6064820152608490fd5b6040519061400582613dff565b6060825260405160208361401883613dff565b600083526000828401520152565b35906001600160e01b03198216820361065557565b6040906003190112610655576040519061405482613dff565b816004356001600160e01b0319811681036106555781526020602435910152565b91908260409103126106555760405161408d81613dff565b602080829461409b81614026565b84520135910152565b90600182811c921680156140d4575b60208310146140be57565b634e487b7160e01b600052602260045260246000fd5b91607f16916140b3565b90604051916140ec83613dff565b6040518154908490600081614100856140a4565b918282526020956001908760018216918260001461419d57505060011461415e575b5061412f92500382613e50565b815260026040519361414085613dff565b600181015460e01b6001600160e01b03191685520154828401520152565b8691508760005281600020906000915b85831061418557505061412f935082010138614122565b8054838801850152869450889390920191810161416e565b60ff19168582015261412f95151560051b85010192503891506141229050565b156141c457565b60405162461bcd60e51b815260206004820152601a60248201527910dbdb5c1d5d19481d5b9a5d08191bd95cdb89dd08195e1a5cdd60321b6044820152606490fd5b51906001600160a01b038216820361065557565b9081602091031261065557516001600160a01b03811681036106555790565b6001600160a01b039091168152602081019190915260400190565b1561425b57565b60405162461bcd60e51b815260206004820152602360248201527f426173654d6f64756c653a2063616c6c6572206973206e6f7420746865206f776044820152623732b960e91b6064820152608490fd5b8181106142b7575050565b600081556001016142ac565b60043563ffffffff60e01b81168091036106555781526020602435910152565b60209081906001600160e01b03196142fa82614026565b1684520135910152565b1561430b57565b60405162461bcd60e51b815260206004820152602660248201527f426173654d6f64756c653a2063616c6c6572206973206e6f742074686520636160448201526570616369747960d01b6064820152608490fd5b919081101561436f5760061b0190565b634e487b7160e01b600052603260045260246000fd5b1561438c57565b60405162461bcd60e51b81526020600482015260136024820152721419595c881a185cc818dbdb5b5a5d1b595b9d606a1b6044820152606490fd5b80156143d4576000190190565b634e487b7160e01b600052601160045260246000fd5b156143f157565b60405162461bcd60e51b815260206004820152602c602482015260008051602061513983398151915260448201526b19195b1959d85d1958d85b1b60a21b6064820152608490fd5b1561444057565b60405162461bcd60e51b815260206004820152602c602482015260008051602061513983398151915260448201526b6163746976652070726f787960a01b6064820152608490fd5b6040519061449582613de4565b60006040838281528260208201520152565b6144af614488565b506000526000805160206151d9833981519152602052604060002060026001820154916144dd8315156141bd565b604051926144ea84613de4565b81546001600160a01b0316845260208401520154604082015290565b1561450d57565b60405162461bcd60e51b815260206004820152601360248201527213d999995c88191bd95cdb89dd08195e1a5cdd606a1b6044820152606490fd5b919081101561436f5760051b81013590605e1981360301821215610655570190565b1561457157565b60405162461bcd60e51b81526020600482015260126024820152711419595c88191bd95cdb89dd08195e1a5cdd60721b6044820152606490fd5b606060409182516145bb81613e35565b6000928184809352826020820152828682015201528152600080516020615099833981519152602052208054906145f382151561456a565b6040519161460083613e35565b82526001810154602083015260028101546040830152600301546001600160a01b0316606082015290565b919082018092116143d457565b919082039182116143d457565b6001600160401b0381116110875760051b60200190565b91908260409103126106555760405161467481613dff565b8092805163ffffffff60e01b81168103610655578252602090810151910152565b919081101561436f5760051b0190565b90816020910312610655575180151581036106555790565b903590601e198136030182121561065557018035906001600160401b03821161065557602001918160051b3603831361065557565b9082101561436f57613dcd9160051b8101906146bd565b60001981146143d45760010190565b1561471f57565b60405162461bcd60e51b815260206004820152602c60248201527f4d696e207072696365207065722065706f63682073686f756c6420626520677260448201526b06561746572207468616e20360a41b6064820152608490fd5b805182101561436f5760209160051b010190565b1561479457565b60405162461bcd60e51b815260206004820152601b60248201527a506565722069642073686f756c64206265206e6f7420656d70747960281b6044820152606490fd5b9190601f81116147e657505050565b614812926000526020600020906020601f840160051c83019310614814575b601f0160051c01906142ac565b565b9091508190614805565b908060209392818452848401376000828201840152601f01601f1916010190565b60a0604091825161484f81613e1a565b600092818480935282602082015282868201528260608201528260808201520152815260008051602061511983398151915260205220600560018060a01b0391828154169261489f841515614506565b604051936148ac85613e1a565b84526001820154602085015260028201541660408401526003810154606084015260048101546080840152015460a082015290565b602063ffffffff60e01b825116910151604051906020820192835260248201526024815261490e81613de4565b51902090565b356001600160a01b03811681036106555790565b91908035908160005260008051602061509983398151915260205260409384600020908060005260008051602061511983398151915260205285600020918054614a04576149fe939287927f2a9c96970c242b218486fb3338450a874ff7ccad1fcad3d89b2781f48ece88d061481298996003946149a78a151561478d565b8381556149dc60208901876149bb82614914565b930180546001600160a01b0319166001600160a01b03948516179055614914565b82518b815291166020820152a2016149f48154614709565b90558101906146bd565b91614b65565b865162461bcd60e51b8152602060048201526024808201527f5065657220616c72656164792065786973747320696e20616e6f74686572206f604482015263333332b960e11b6064820152608490fd5b15614a5b57565b60405162461bcd60e51b815260206004820152602b60248201527f496e697469616c697a61626c653a20636f6e7472616374206973206e6f74206960448201526a6e697469616c697a696e6760a81b6064820152608490fd5b9060005b8151811015614b145760ff614ad6614ad08385614779565b516148e1565b846000526020906000805160206151998339815191528252604091826000209160005252600020541615614b0c57600101614ab8565b505050600090565b505050600190565b60405190614b2982613de4565b60278252660819985a5b195960ca1b6040837f416464726573733a206c6f772d6c6576656c2064656c65676174652063616c6c60208201520152565b91906000908382526020906000805160206150998339815191528252600294604092600284862001968754958715614d5757805b888110614bb5575050505050505090614bb19161462b565b9055565b614bc0818a88614695565b358015614d15578083526000805160206151d9833981519152808652600190818a86200154614cd35785908a5192614bf784613de4565b8684528884018a81528c8501888152868952928a528c8820945185546001600160a01b0319166001600160a01b03919091161785555190840155519101558583526000805160206151f98339815191528552878320614c5790829061502a565b15614c8f5790857f47026182b34ce173abdac328faf5c45bef1648cf75d4b88723a745c9ee792c19866001948b51908152a201614b99565b875162461bcd60e51b815260048101869052601d60248201527f496e76616c69642061646420746f20656e756d657261626c65207365740000006044820152606490fd5b895162461bcd60e51b815260048101889052601b60248201527a436f6d7075746520756e697420616c72656164792065786973747360281b6044820152606490fd5b875162461bcd60e51b815260048101869052601b60248201527a556e69742069642073686f756c64206265206e6f7420656d70747960281b6044820152606490fd5b855162461bcd60e51b815260048101849052601e60248201527f556e6974732073686f756c642062652067726561746572207468616e203000006044820152606490fd5b805482101561436f5760005260206000200190600090565b90600182019060009281845282602052604084205490811515600014614eb35760001991808301818111614e9f57825490848201918211614e8b57808203614e3f575b50505080548015614e2b57820191614e0e8383614d9b565b909182549160031b1b191690555582526020526040812055600190565b634e487b7160e01b86526031600452602486fd5b614e76614e4f614e5f9386614d9b565b90549060031b1c92839286614d9b565b819391549060031b91821b91600019901b19161790565b90558652846020526040862055388080614df6565b634e487b7160e01b88526011600452602488fd5b634e487b7160e01b87526011600452602487fd5b5050505090565b803b15614eef5760008051602061517983398151915280546001600160a01b0319166001600160a01b03909216919091179055565b60405162461bcd60e51b815260206004820152602d60248201527f455243313936373a206e657720696d706c656d656e746174696f6e206973206e60448201526c1bdd08184818dbdb9d1c9858dd609a1b6064820152608490fd5b600080613d559493602081519101845af43d15614f89573d91614f6c83613e73565b92614f7a6040519485613e50565b83523d6000602085013e614f8d565b6060915b91929015614fef5750815115614fa1575090565b3b15614faa5790565b60405162461bcd60e51b815260206004820152601d60248201527f416464726573733a2063616c6c20746f206e6f6e2d636f6e74726163740000006044820152606490fd5b8251909150156150025750805190602001fd5b60405162461bcd60e51b815260206004820152908190615026906024830190613cd6565b0390fd5b9190600183016000908282528060205260408220541560001461509257845494600160401b86101561507e578361506e614e5f886001604098999a01855584614d9b565b9055549382526020522055600190565b634e487b7160e01b83526041600452602483fd5b5092505056fe88681cafafd55573d275926fd208ef2ba36c6dd5169e88841d4bc9bcd225302188681cafafd55573d275926fd208ef2ba36c6dd5169e88841d4bc9bcd22530254910fdfa16fed3260ed0e7147f7cc6da11a60208b5b9406d12a635614ffd914313f5ac65dc9f5b2765e76eb17d53fe3e7065903823eb36bdd7841fa3f8dacbbe88681cafafd55573d275926fd208ef2ba36c6dd5169e88841d4bc9bcd225302046756e6374696f6e206d7573742062652063616c6c6564207468726f7567682025909849cdf41a66fb9d72a68c492d440847318f46672d5f21aed036bc2a3c5c360894a13ba1a3210667c828492db98dca3e2076cc3735a920a3ca505d382bbc88681cafafd55573d275926fd208ef2ba36c6dd5169e88841d4bc9bcd2253023bc7cd75a20ee27fd9adebab32041f755214dbc6bffa90cc0225b39da2e5c2d3b88681cafafd55573d275926fd208ef2ba36c6dd5169e88841d4bc9bcd225302288681cafafd55573d275926fd208ef2ba36c6dd5169e88841d4bc9bcd225302488681cafafd55573d275926fd208ef2ba36c6dd5169e88841d4bc9bcd225301f45524331393637557067726164653a206e657720696d706c656d656e74617469a264697066735822122061a09e594fedce735ad0afc00148d43cf3170b133c7cefd6cafcf7a82a2c537464736f6c63430008180033","linkReferences":{}},"methodIdentifiers":{"addComputePeers(bytes32,(bytes32,address,bytes32[])[])":"74920a9d","addComputeUnits(bytes32,bytes32[])":"b6b9084e","addEffector(bytes32,(bytes4,bytes32)[])":"b017191a","changeMinPricePerWorkerEpoch(bytes32,uint256)":"a963e5f4","changePaymentToken(bytes32,address)":"087b97ba","core()":"f2f4eb26","getComputePeer(bytes32)":"86e68254","getComputeUnit(bytes32)":"745e920b","getComputeUnitIds(bytes32)":"62ac63fa","getComputeUnits(bytes32)":"b6015c6e","getEffectorInfo((bytes4,bytes32))":"0bcee1a2","getOffer(bytes32)":"d597b8c8","getProviderInfo(address)":"7583902f","initialize()":"8129fc1c","matchDeal(address,bytes32[],bytes32[][])":"a40a3258","multicall(bytes[])":"ac9650d8","owner()":"8da5cb5b","proxiableUUID()":"52d1902d","registerMarketOffer(uint256,address,(bytes4,bytes32)[],(bytes32,address,bytes32[])[],uint256,uint256)":"edd9db67","removeComputePeer(bytes32)":"9faf0d20","removeComputeUnit(bytes32)":"3591187c","removeEffector(bytes32,(bytes4,bytes32)[])":"34205efd","removeEffectorInfo((bytes4,bytes32))":"19c671ca","removeOffer(bytes32)":"91d27f71","returnComputeUnitFromDeal(bytes32)":"14afcd52","setCommitmentId(bytes32,bytes32)":"64ec746e","setEffectorInfo((bytes4,bytes32),string,(bytes4,bytes32))":"da74336a","setProviderInfo(string,(bytes4,bytes32))":"c685738e","setStartEpoch(bytes32,uint256)":"1e90bbe4","upgradeTo(address)":"3659cfe6","upgradeToAndCall(address,bytes)":"4f1ef286"},"storageLayout":{"storage":[{"astId":4469,"contract":"src/core/modules/market/Market.sol:Market","label":"_initialized","offset":0,"slot":"0","type":"t_uint8"},{"astId":4472,"contract":"src/core/modules/market/Market.sol:Market","label":"_initializing","offset":1,"slot":"0","type":"t_bool"},{"astId":4451,"contract":"src/core/modules/market/Market.sol:Market","label":"__gap","offset":0,"slot":"1","type":"t_array(t_uint256)50_storage"},{"astId":4766,"contract":"src/core/modules/market/Market.sol:Market","label":"__gap","offset":0,"slot":"51","type":"t_array(t_uint256)50_storage"},{"astId":5171,"contract":"src/core/modules/market/Market.sol:Market","label":"__gap","offset":0,"slot":"101","type":"t_array(t_uint256)50_storage"}],"types":{"t_array(t_uint256)50_storage":{"encoding":"inplace","label":"uint256[50]","numberOfBytes":"1600","base":"t_uint256"},"t_bool":{"encoding":"inplace","label":"bool","numberOfBytes":"1"},"t_uint256":{"encoding":"inplace","label":"uint256","numberOfBytes":"32"},"t_uint8":{"encoding":"inplace","label":"uint8","numberOfBytes":"1"}}},"devdoc":{"version":1,"kind":"dev","methods":{"addComputePeers(bytes32,(bytes32,address,bytes32[])[])":{"details":"Add compute peers to an offer"},"addComputeUnits(bytes32,bytes32[])":{"details":"Add compute units to a peer"},"addEffector(bytes32,(bytes4,bytes32)[])":{"details":"Add effectors to an offer"},"changeMinPricePerWorkerEpoch(bytes32,uint256)":{"details":"Change the min price per worker per epoch of an offer"},"changePaymentToken(bytes32,address)":{"details":"Change the payment token of an offer"},"getComputePeer(bytes32)":{"details":"Returns the compute peer info"},"getComputeUnit(bytes32)":{"details":"Returns the compute unit info"},"getComputeUnitIds(bytes32)":{"details":"Returns the compute unit ids of a peer"},"getComputeUnits(bytes32)":{"details":"Returns the compute units info of a peer"},"getEffectorInfo((bytes4,bytes32))":{"details":"Returns the effector info","params":{"id":"The effector cid"}},"getOffer(bytes32)":{"details":"Returns the offer info","params":{"offerId":"The offer id"},"returns":{"_0":"offer The offer info"}},"getProviderInfo(address)":{"details":"Returns the provider info","params":{"provider":"The provider address"},"returns":{"_0":"providerInfo The provider info"}},"matchDeal(address,bytes32[],bytes32[][])":{"details":"Match Deal with Compute Units provided.There should be `bytes32[][] calldata peers` as well, but it is not supported by subgraph codegen.Ref to https://github.com/graphprotocol/graph-tooling/issues/342.","params":{"computeUnits":": Compute Units per offer id (2D array) to match with.","deal":": Deal to match.","offers":": Offers array that represents offers  in computeUnits 2D array."}},"multicall(bytes[])":{"details":"Receives and executes a batch of function calls on this contract."},"proxiableUUID()":{"details":"Implementation of the ERC1822 {proxiableUUID} function. This returns the storage slot used by the implementation. It is used to validate the implementation's compatibility when performing an upgrade. IMPORTANT: A proxy pointing at a proxiable contract should not be considered proxiable itself, because this risks bricking a proxy that upgrades to it, by delegating to itself until out of gas. Thus it is critical that this function revert if invoked through a proxy. This is guaranteed by the `notDelegated` modifier."},"registerMarketOffer(uint256,address,(bytes4,bytes32)[],(bytes32,address,bytes32[])[],uint256,uint256)":{"details":"Register a new offer","params":{"effectors":"The effectors of the offer","minPricePerWorkerEpoch":"The min price per worker per epoch which the provider specify for the matching with the deal","paymentToken":"The payment token of the offer","peers":"The compute peers of the offer"}},"removeComputePeer(bytes32)":{"details":"Remove compute peers from an offer"},"removeComputeUnit(bytes32)":{"details":"Remove compute units from a peer"},"removeEffector(bytes32,(bytes4,bytes32)[])":{"details":"Remove effectors from an offer"},"removeEffectorInfo((bytes4,bytes32))":{"details":"Remove the effector info. Effector info can be removed by the contract owner"},"removeOffer(bytes32)":{"details":"Remove an offer"},"returnComputeUnitFromDeal(bytes32)":{"details":"Return the compute unit from a deal"},"setCommitmentId(bytes32,bytes32)":{"details":"Set the commitment id for a peer. Only one commitment id for the peer"},"setEffectorInfo((bytes4,bytes32),string,(bytes4,bytes32))":{"details":"Set the effector info. Effector info can be added by the contract owner"},"setProviderInfo(string,(bytes4,bytes32))":{"details":"Set the provider info","params":{"metadata":"The metadata of the provider","name":"The name of the provider"}},"setStartEpoch(bytes32,uint256)":{"details":"Set the start epoch of a compute unit"},"upgradeTo(address)":{"details":"Upgrade the implementation of the proxy to `newImplementation`. Calls {_authorizeUpgrade}. Emits an {Upgraded} event."},"upgradeToAndCall(address,bytes)":{"details":"Upgrade the implementation of the proxy to `newImplementation`, and subsequently execute the function call encoded in `data`. Calls {_authorizeUpgrade}. Emits an {Upgraded} event."}},"events":{"AdminChanged(address,address)":{"details":"Emitted when the admin account has changed."},"BeaconUpgraded(address)":{"details":"Emitted when the beacon is changed."},"ComputeUnitAddedToDeal(bytes32,address,bytes32)":{"details":"Emitted when a compute unit added to a peer","params":{"deal":"The deal address","peerId":"The peer id","unitId":"The compute unit id"}},"ComputeUnitCreated(bytes32,bytes32)":{"details":"Emitted when a compute unit created for a peer","params":{"peerId":"The peer id","unitId":"The compute unit id"}},"ComputeUnitMatched(bytes32,address,bytes32,uint256,(bytes4,bytes32))":{"details":"Emitted when a deal is matched with a compute unit","params":{"appCID":"The app cid of the deal","deal":"The deal address","dealCreationBlock":"The creation block of the deal","peerId":"The peer id of the deal","unitId":"The compute unit id"}},"ComputeUnitRemoved(bytes32,bytes32)":{"details":"Emitted when a compute unit removed from a peer","params":{"peerId":"The peer id","unitId":"The compute unit id"}},"ComputeUnitRemovedFromDeal(bytes32,address,bytes32)":{"details":"Emitted when a compute unit removed from a peer","params":{"deal":"The deal address","peerId":"The peer id","unitId":"The compute unit id"}},"EffectorAdded(bytes32,(bytes4,bytes32))":{"details":"Emitted when an effector added to an offer","params":{"effector":"The effector cid","offerId":"The offer id"}},"EffectorInfoRemoved((bytes4,bytes32))":{"details":"Emitted when the effector info is removed","params":{"id":"The effector cid"}},"EffectorInfoSet((bytes4,bytes32),string,(bytes4,bytes32))":{"details":"Emitted when the effector info is set. Effector info can be added by the contract owner","params":{"description":"The description of the effector","id":"The effector cid","metadata":"The metadata of the effector"}},"EffectorRemoved(bytes32,(bytes4,bytes32))":{"details":"Emitted when an effector removed from an offer","params":{"effector":"The effector cid","offerId":"The offer id"}},"Initialized(uint8)":{"details":"Triggered when the contract has been initialized or reinitialized."},"MarketOfferRegistered(address,bytes32,uint256,address,(bytes4,bytes32)[],uint256,uint256)":{"details":"Emitted when a new offer is registered","params":{"effectors":"The effectors of the offer","minPricePerWorkerEpoch":"The min price per worker per epoch which the provider specify for the matching with the deal","offerId":"The offer id","paymentToken":"The payment token of the offer","provider":"The provider address"}},"MinPricePerEpochUpdated(bytes32,uint256)":{"details":"Emitted when the min price per worker per epoch of an offer is updated","params":{"minPricePerWorkerEpoch":"The new min price per worker per epoch","offerId":"The offer id"}},"PaymentTokenUpdated(bytes32,address)":{"details":"Emitted when the payment token of an offer is updated","params":{"offerId":"The offer id","paymentToken":"The new payment token"}},"PeerCreated(bytes32,bytes32,address)":{"details":"Emitted when a peer created for an offer"},"PeerRemoved(bytes32,bytes32)":{"details":"Emitted when a peer removed from an offer","params":{"offerId":"The offer id","peerId":"The peer id"}},"ProviderInfoUpdated(address,string,(bytes4,bytes32))":{"details":"Emitted when a provider info is updated","params":{"metadata":"The new metadata of the provider","name":"The new name of the provider","provider":"The provider address"}},"Upgraded(address)":{"details":"Emitted when the implementation is upgraded."}},"errors":{"MinWorkersNotMatched(uint256)":[{"details":"Throws if the min workers of the deal is not matched","params":{"_minWorkers":"The min workers of the deal"}}]}},"id":84}