{"abi":[{"type":"function","name":"activateWorker","inputs":[{"name":"onchainWorkerId","type":"bytes32","internalType":"bytes32"},{"name":"offchainWorkerId","type":"bytes32","internalType":"bytes32"}],"outputs":[],"stateMutability":"nonpayable"},{"type":"function","name":"addProviderToAccessList","inputs":[{"name":"provider","type":"address","internalType":"address"}],"outputs":[],"stateMutability":"nonpayable"},{"type":"function","name":"addWorker","inputs":[{"name":"computeProvider","type":"address","internalType":"address"},{"name":"workerData","type":"tuple","internalType":"struct IWorkerManagerV2.WorkerDataV2","components":[{"name":"onchainId","type":"bytes32","internalType":"bytes32"}]},{"name":"peerId","type":"bytes32","internalType":"bytes32"}],"outputs":[],"stateMutability":"nonpayable"},{"type":"function","name":"appCID","inputs":[],"outputs":[{"name":"","type":"tuple","internalType":"struct CIDV1","components":[{"name":"prefixes","type":"bytes4","internalType":"bytes4"},{"name":"hash","type":"bytes32","internalType":"bytes32"}]}],"stateMutability":"view"},{"type":"function","name":"changeProvidersAccessType","inputs":[{"name":"accessType","type":"uint8","internalType":"enum IConfigV2.AccessTypeV2"}],"outputs":[],"stateMutability":"nonpayable"},{"type":"function","name":"computePeerUsed","inputs":[{"name":"peerId","type":"bytes32","internalType":"bytes32"}],"outputs":[{"name":"","type":"bool","internalType":"bool"}],"stateMutability":"view"},{"type":"function","name":"creationBlock","inputs":[],"outputs":[{"name":"","type":"uint256","internalType":"uint256"}],"stateMutability":"view"},{"type":"function","name":"depositFromOwner","inputs":[{"name":"amount","type":"uint256","internalType":"uint256"}],"outputs":[],"stateMutability":"nonpayable"},{"type":"function","name":"getActivatedWorkerCount","inputs":[],"outputs":[{"name":"","type":"uint256","internalType":"uint256"}],"stateMutability":"view"},{"type":"function","name":"getFreeBalance","inputs":[],"outputs":[{"name":"","type":"uint256","internalType":"uint256"}],"stateMutability":"view"},{"type":"function","name":"getMaxPaidEpoch","inputs":[],"outputs":[{"name":"","type":"uint256","internalType":"uint256"}],"stateMutability":"view"},{"type":"function","name":"getProtocolVersion","inputs":[],"outputs":[{"name":"","type":"uint256","internalType":"uint256"}],"stateMutability":"view"},{"type":"function","name":"getRewardAmount","inputs":[{"name":"onchainWorkerId","type":"bytes32","internalType":"bytes32"}],"outputs":[{"name":"","type":"tuple","internalType":"struct IDealV2.DealRewards","components":[{"name":"providerReward","type":"uint256","internalType":"uint256"},{"name":"stakerReward","type":"uint256","internalType":"uint256"}]}],"stateMutability":"view"},{"type":"function","name":"getStatus","inputs":[],"outputs":[{"name":"","type":"uint8","internalType":"enum IDealV2.Status"}],"stateMutability":"view"},{"type":"function","name":"getWorker","inputs":[{"name":"onchainWorkerId","type":"bytes32","internalType":"bytes32"}],"outputs":[{"name":"","type":"tuple","internalType":"struct IWorkerManagerV2.Worker","components":[{"name":"offchainId","type":"bytes32","internalType":"bytes32"},{"name":"onchainId","type":"bytes32","internalType":"bytes32"},{"name":"peerId","type":"bytes32","internalType":"bytes32"},{"name":"provider","type":"address","internalType":"address"},{"name":"joinedEpoch","type":"uint256","internalType":"uint256"}]}],"stateMutability":"view"},{"type":"function","name":"getWorkerCount","inputs":[],"outputs":[{"name":"","type":"uint256","internalType":"uint256"}],"stateMutability":"view"},{"type":"function","name":"getWorkerCount","inputs":[{"name":"provider","type":"address","internalType":"address"}],"outputs":[{"name":"","type":"uint256","internalType":"uint256"}],"stateMutability":"view"},{"type":"function","name":"getWorkerIds","inputs":[],"outputs":[{"name":"","type":"bytes32[]","internalType":"bytes32[]"}],"stateMutability":"view"},{"type":"function","name":"initialize","inputs":[{"name":"diamond_","type":"address","internalType":"contract IDiamond"},{"name":"appCID_","type":"tuple","internalType":"struct CIDV1","components":[{"name":"prefixes","type":"bytes4","internalType":"bytes4"},{"name":"hash","type":"bytes32","internalType":"bytes32"}]},{"name":"paymentToken_","type":"address","internalType":"contract IERC20"},{"name":"targetWorkers_","type":"uint256","internalType":"uint256"},{"name":"resources_","type":"tuple[]","internalType":"struct IOfferV2.ResourceRequirement[]","components":[{"name":"resourceId","type":"bytes32","internalType":"bytes32"},{"name":"ty","type":"uint8","internalType":"enum IOfferV2.ResourceType"},{"name":"quantity","type":"uint256","internalType":"uint256"}]},{"name":"pricePerEpoch_","type":"uint256","internalType":"uint256"},{"name":"maxWorkersPerProvider_","type":"uint256","internalType":"uint256"},{"name":"providersAccessType_","type":"uint8","internalType":"enum IConfigV2.AccessTypeV2"},{"name":"providersAccessList_","type":"address[]","internalType":"address[]"},{"name":"protocolVersion_","type":"uint256","internalType":"uint256"},{"name":"owner_","type":"address","internalType":"address"}],"outputs":[],"stateMutability":"nonpayable"},{"type":"function","name":"isProviderAllowed","inputs":[{"name":"account","type":"address","internalType":"address"}],"outputs":[{"name":"","type":"bool","internalType":"bool"}],"stateMutability":"view"},{"type":"function","name":"maxWorkersPerProvider","inputs":[],"outputs":[{"name":"","type":"uint256","internalType":"uint256"}],"stateMutability":"view"},{"type":"function","name":"migrateToBalanceKeeper","inputs":[],"outputs":[],"stateMutability":"nonpayable"},{"type":"function","name":"multicall","inputs":[{"name":"data","type":"bytes[]","internalType":"bytes[]"}],"outputs":[{"name":"results","type":"bytes[]","internalType":"bytes[]"}],"stateMutability":"nonpayable"},{"type":"function","name":"owner","inputs":[],"outputs":[{"name":"","type":"address","internalType":"address"}],"stateMutability":"view"},{"type":"function","name":"paymentToken","inputs":[],"outputs":[{"name":"","type":"address","internalType":"contract IERC20"}],"stateMutability":"view"},{"type":"function","name":"postCommitPeriod","inputs":[{"name":"snapshot","type":"tuple","internalType":"struct DealSnapshotV2.Cache","components":[{"name":"_initTotalBalance","type":"uint256","internalType":"uint256"},{"name":"_initLockedBalance","type":"uint256","internalType":"uint256"},{"name":"_initGapsEpochCount","type":"uint256","internalType":"uint256"},{"name":"_totalBalance","type":"uint256","internalType":"uint256"},{"name":"_lockedBalance","type":"uint256","internalType":"uint256"},{"name":"_gapsEpochCount","type":"uint256","internalType":"uint256"},{"name":"_currentEpoch","type":"uint256","internalType":"uint256"},{"name":"_snapshotEpoch","type":"uint256","internalType":"uint256"},{"name":"_isEnded","type":"bool","internalType":"bool"},{"name":"_pricePerEpoch","type":"uint256","internalType":"uint256"},{"name":"_activeWorkerCount","type":"uint256","internalType":"uint256"}]},{"name":"newWorkerCount","type":"uint256","internalType":"uint256"}],"outputs":[],"stateMutability":"nonpayable"},{"type":"function","name":"preCommitPeriod","inputs":[],"outputs":[{"name":"","type":"tuple","internalType":"struct DealSnapshotV2.Cache","components":[{"name":"_initTotalBalance","type":"uint256","internalType":"uint256"},{"name":"_initLockedBalance","type":"uint256","internalType":"uint256"},{"name":"_initGapsEpochCount","type":"uint256","internalType":"uint256"},{"name":"_totalBalance","type":"uint256","internalType":"uint256"},{"name":"_lockedBalance","type":"uint256","internalType":"uint256"},{"name":"_gapsEpochCount","type":"uint256","internalType":"uint256"},{"name":"_currentEpoch","type":"uint256","internalType":"uint256"},{"name":"_snapshotEpoch","type":"uint256","internalType":"uint256"},{"name":"_isEnded","type":"bool","internalType":"bool"},{"name":"_pricePerEpoch","type":"uint256","internalType":"uint256"},{"name":"_activeWorkerCount","type":"uint256","internalType":"uint256"}]}],"stateMutability":"view"},{"type":"function","name":"pricePerEpoch","inputs":[],"outputs":[{"name":"","type":"uint256","internalType":"uint256"}],"stateMutability":"view"},{"type":"function","name":"providersAccessType","inputs":[],"outputs":[{"name":"","type":"uint8","internalType":"enum IConfigV2.AccessTypeV2"}],"stateMutability":"view"},{"type":"function","name":"removeProviderFromAccessList","inputs":[{"name":"provider","type":"address","internalType":"address"}],"outputs":[],"stateMutability":"nonpayable"},{"type":"function","name":"removeStaleWorkers","inputs":[{"name":"onchainWorkerIds","type":"bytes32[]","internalType":"bytes32[]"}],"outputs":[],"stateMutability":"nonpayable"},{"type":"function","name":"removeWorker","inputs":[{"name":"onchainWorkerId","type":"bytes32","internalType":"bytes32"}],"outputs":[],"stateMutability":"nonpayable"},{"type":"function","name":"renounceOwnership","inputs":[],"outputs":[],"stateMutability":"nonpayable"},{"type":"function","name":"requiredResources","inputs":[],"outputs":[{"name":"","type":"tuple[]","internalType":"struct IOfferV2.ResourceRequirement[]","components":[{"name":"resourceId","type":"bytes32","internalType":"bytes32"},{"name":"ty","type":"uint8","internalType":"enum IOfferV2.ResourceType"},{"name":"quantity","type":"uint256","internalType":"uint256"}]}],"stateMutability":"view"},{"type":"function","name":"setActivatedWorkerCount","inputs":[{"name":"activatedWorkerCount_","type":"uint256","internalType":"uint256"}],"outputs":[],"stateMutability":"nonpayable"},{"type":"function","name":"setAppCID","inputs":[{"name":"appCID_","type":"tuple","internalType":"struct CIDV1","components":[{"name":"prefixes","type":"bytes4","internalType":"bytes4"},{"name":"hash","type":"bytes32","internalType":"bytes32"}]}],"outputs":[],"stateMutability":"nonpayable"},{"type":"function","name":"setDiamond","inputs":[{"name":"diamond_","type":"address","internalType":"contract IDiamond"}],"outputs":[],"stateMutability":"nonpayable"},{"type":"function","name":"setEndedEpoch","inputs":[{"name":"endedEpoch","type":"uint256","internalType":"uint256"}],"outputs":[],"stateMutability":"nonpayable"},{"type":"function","name":"setGapsEpochCount","inputs":[{"name":"gapsEpochCount","type":"uint256","internalType":"uint256"}],"outputs":[],"stateMutability":"nonpayable"},{"type":"function","name":"setLastCommitedEpoch","inputs":[{"name":"lastCommitedEpoch","type":"uint256","internalType":"uint256"}],"outputs":[],"stateMutability":"nonpayable"},{"type":"function","name":"setLockedBalance","inputs":[{"name":"lockedBalance","type":"uint256","internalType":"uint256"}],"outputs":[],"stateMutability":"nonpayable"},{"type":"function","name":"setMaxPaidEpoch","inputs":[{"name":"maxPaidEpoch","type":"uint256","internalType":"uint256"}],"outputs":[],"stateMutability":"nonpayable"},{"type":"function","name":"setPricePerEpoch","inputs":[{"name":"pricePerEpoch_","type":"uint256","internalType":"uint256"}],"outputs":[],"stateMutability":"nonpayable"},{"type":"function","name":"setTargetWorkers","inputs":[{"name":"targetWorkers_","type":"uint256","internalType":"uint256"}],"outputs":[],"stateMutability":"nonpayable"},{"type":"function","name":"setTotalBalance","inputs":[{"name":"totalBalance","type":"uint256","internalType":"uint256"}],"outputs":[],"stateMutability":"nonpayable"},{"type":"function","name":"setWorkerCount","inputs":[{"name":"workerCount_","type":"uint256","internalType":"uint256"}],"outputs":[],"stateMutability":"nonpayable"},{"type":"function","name":"stop","inputs":[],"outputs":[],"stateMutability":"nonpayable"},{"type":"function","name":"targetWorkers","inputs":[],"outputs":[{"name":"","type":"uint256","internalType":"uint256"}],"stateMutability":"view"},{"type":"function","name":"transferOwnership","inputs":[{"name":"newOwner","type":"address","internalType":"address"}],"outputs":[],"stateMutability":"nonpayable"},{"type":"function","name":"withdraw","inputs":[{"name":"amount","type":"uint256","internalType":"uint256"}],"outputs":[],"stateMutability":"nonpayable"},{"type":"function","name":"withdrawRewards","inputs":[{"name":"onchainWorkerId","type":"bytes32","internalType":"bytes32"}],"outputs":[],"stateMutability":"nonpayable"},{"type":"event","name":"AppCIDChanged","inputs":[{"name":"newAppCID","type":"tuple","indexed":false,"internalType":"struct CIDV1","components":[{"name":"prefixes","type":"bytes4","internalType":"bytes4"},{"name":"hash","type":"bytes32","internalType":"bytes32"}]}],"anonymous":false},{"type":"event","name":"DealEnded","inputs":[{"name":"endedEpoch","type":"uint256","indexed":false,"internalType":"uint256"}],"anonymous":false},{"type":"event","name":"Deposited","inputs":[{"name":"amount","type":"uint256","indexed":false,"internalType":"uint256"}],"anonymous":false},{"type":"event","name":"Initialized","inputs":[{"name":"version","type":"uint64","indexed":false,"internalType":"uint64"}],"anonymous":false},{"type":"event","name":"MaxPaidEpochUpdated","inputs":[{"name":"maxPaidEpoch","type":"uint256","indexed":false,"internalType":"uint256"}],"anonymous":false},{"type":"event","name":"OwnershipTransferred","inputs":[{"name":"previousOwner","type":"address","indexed":true,"internalType":"address"},{"name":"newOwner","type":"address","indexed":true,"internalType":"address"}],"anonymous":false},{"type":"event","name":"ProviderAddedToAccessList","inputs":[{"name":"provider","type":"address","indexed":false,"internalType":"address"}],"anonymous":false},{"type":"event","name":"ProviderRemovedFromAccessList","inputs":[{"name":"provider","type":"address","indexed":false,"internalType":"address"}],"anonymous":false},{"type":"event","name":"ProvidersAccessTypeChanged","inputs":[{"name":"newAccessType","type":"uint8","indexed":false,"internalType":"enum IConfigV2.AccessTypeV2"}],"anonymous":false},{"type":"event","name":"RewardWithdrawn","inputs":[{"name":"onchainWorkerId","type":"bytes32","indexed":false,"internalType":"bytes32"},{"name":"providerReward","type":"uint256","indexed":false,"internalType":"uint256"},{"name":"stakerReward","type":"uint256","indexed":false,"internalType":"uint256"}],"anonymous":false},{"type":"event","name":"Withdrawn","inputs":[{"name":"amount","type":"uint256","indexed":false,"internalType":"uint256"}],"anonymous":false},{"type":"event","name":"WorkerIdUpdated","inputs":[{"name":"onchainWorkerId","type":"bytes32","indexed":false,"internalType":"bytes32"},{"name":"offchainWorkerId","type":"bytes32","indexed":false,"internalType":"bytes32"}],"anonymous":false},{"type":"event","name":"WorkerJoined","inputs":[{"name":"peerId","type":"bytes32","indexed":true,"internalType":"bytes32"},{"name":"onchainId","type":"bytes32","indexed":false,"internalType":"bytes32"}],"anonymous":false},{"type":"event","name":"WorkerRemoved","inputs":[{"name":"peerId","type":"bytes32","indexed":true,"internalType":"bytes32"},{"name":"onchainId","type":"bytes32","indexed":false,"internalType":"bytes32"}],"anonymous":false},{"type":"error","name":"AddressEmptyCode","inputs":[{"name":"target","type":"address","internalType":"address"}]},{"type":"error","name":"FailedCall","inputs":[]},{"type":"error","name":"InvalidInitialization","inputs":[]},{"type":"error","name":"NotInitializing","inputs":[]},{"type":"error","name":"OwnableInvalidOwner","inputs":[{"name":"owner","type":"address","internalType":"address"}]},{"type":"error","name":"OwnableUnauthorizedAccount","inputs":[{"name":"account","type":"address","internalType":"address"}]},{"type":"error","name":"ReentrancyGuardReentrantCall","inputs":[]},{"type":"error","name":"SafeERC20FailedOperation","inputs":[{"name":"token","type":"address","internalType":"address"}]}],"bytecode":{"object":"0x6080806040523460d0577ff0c57e16840df040f15088dc2f81fe391c3923bec73e23a9662efc9c229c6a005460ff8160401c1660c1576002600160401b03196001600160401b03821601605c575b604051614cfe90816100d58239f35b6001600160401b0319166001600160401b039081177ff0c57e16840df040f15088dc2f81fe391c3923bec73e23a9662efc9c229c6a005581527fc7f505b2f371ae2175ee4913f4499e1f2633a7b5936321eed1cdaeb6115181d290602090a15f80604d565b63f92ee8a960e01b5f5260045ffd5b5f80fdfe60806040526004361015610011575f80fd5b5f803560e01c80630346592714612dbe57806304f1bd5614612d995780630574131f14612bf457806307da68f5146129b45780630ac25f101461298d578063138832511461296657806313a2107d1461293f5780631763451414612914578063176474cf146127805780631af57b961461274f57806322ebd58a146126b55780632943dcab1461268a5780632e1a7d4d146120fb5780633013ce29146120c55780633116eeda1461209e57806333ce93fe14612073578063378b22e4146120485780633d0bdad7146120215780633e8ae1ae14611ff3578063444e6a5a14611ecb5780634d7599f114611ea05780634e4d7af814611d425780634e69d56014611d1457806359c4afc014611cce5780635fc8f59c14611ca3578063630eceea14611bbd578063636fcefb14611a2a5780636e5e47b114611990578063715018a61461193a57806373134c151461179757806376ed535a1461174f5780637dfb66261461164b578063846084541461103d5780638a0c725b146110125780638da5cb5b14610fdc57806393d2bafc14610f415780639bc6686814610ed75780639c09e82d14610eb0578063aba93a1014610e59578063ac9650d814610c3d578063ade0a20214610c12578063bc126f1f14610aa4578063bd1926e014610a67578063c9ed500814610a40578063cb7b88d1146107cb578063cef74c8b146103c1578063d4773ff01461038a578063e116568f14610363578063e93c4f151461033c578063f2574c1b1461027a5763f2fde38b1461024b575f80fd5b3461027757602036600319011261027757610274610267612de3565b61026f613ead565b6136d4565b80f35b80fd5b50346102775780600319360112610277576040515f805160206148c98339815191528054808352908352602082019081907f17a21d30941a091c50cf295988f7232f281c42e3df40adbad57a37502bda8e9790855b81811061032657505050826102e5910383612e8f565b604051928392602084019060208552518091526040840192915b81811061030d575050500390f35b82518452859450602093840193909201916001016102ff565b82548452602090930192600192830192016102cf565b503461027757806003193601126102775760206060610359613888565b0151604051908152f35b5034610277576020366003190112610277576004355f805160206149e98339815191525580f35b5034610277578060031936011261027757506103bd60ff5f80516020614a09833981519152541660405191829182612eb2565b0390f35b5034610277576060366003190112610277576103db612de3565b60203660231901126107c757604051602081016001600160401b038111828210176107b3576040526024358152604435915f8051602061496983398151915261042e60018060a01b038254163314612ec5565b610436613732565b61043e61347b565b600581101561079f576002610454911415612f1b565b5f80516020614a298339815191528054905f805160206149e983398151915254821015610761578587525f80516020614b2983398151915260205260ff604088205416610726578587525f80516020614b2983398151915260205260408720600160ff1982541617905560018060a01b0384165f525f805160206148a983398151915260205260405f20545f80516020614a69833981519152548110156106e257600181018091116106ce576001600160a01b0385165f9081525f805160206148a98339815191526020526040902055600182019182106106ba575554604051630ecce30160e31b815290602090829060049082906001600160a01b03165afa80156106af578590610678575b600491508351926040519361057585612e74565b878552602080860191825260408087018981526001600160a01b03948516606089019081526080890196875289518c525f80516020614b89833981519152909352908a20965187559151600187015590516002860155516003850180546001600160a01b03191691909216179055519101558051610600905f805160206148c9833981519152614759565b156106345760207f9cd57cfa2e12a37215cabc6897396db265419bd7f06adad06227a2b163ecd6a39151604051908152a280f35b60405162461bcd60e51b815260206004820152601c60248201527b11985a5b1959081d1bc8185919081ddbdc9ad95c881d1bc81b1a5cdd60221b6044820152606490fd5b506020813d6020116106a7575b8161069260209383612e8f565b810103126106a35760049051610561565b5f80fd5b3d9150610685565b6040513d87823e3d90fd5b634e487b7160e01b87526011600452602487fd5b634e487b7160e01b88526011600452602488fd5b606460405162461bcd60e51b815260206004820152602060248201527f4d617820776f726b657273207065722070726f766964657220726561636865646044820152fd5b60405162461bcd60e51b81526020600482015260136024820152721419595c925908185b1c9958591e481d5cd959606a1b6044820152606490fd5b60405162461bcd60e51b815260206004820152601660248201527515185c99d95d081ddbdc9ad95c9cc81c995858da195960521b6044820152606490fd5b634e487b7160e01b86526021600452602486fd5b634e487b7160e01b84526041600452602484fd5b5080fd5b5034610277576020366003190112610277576004356001600160401b0381116107c7576107fc903690600401612df9565b5f80516020614969833981519152546040516307dc0d1d60e41b815290602090829060049082906001600160a01b03165afa908115610a355784916109f7575b506001600160a01b031633036109b357610854613732565b61085c613888565b61086461347b565b60058110158061079f576002821480156109a9575b818115610999575b50156109595761094557801590811561093a575b506108c6575b50825b8181106108a9578380f35b806108c06108ba60019385876136c4565b35614302565b0161089e565b60a00151156108d5575f61089b565b60405162461bcd60e51b815260206004820152603760248201527f4174206c65617374203120756e706169642065706f636820726571756972656460448201527620746f20636f6e7369646572206465616c207374616c6560481b6064820152608490fd5b60039150145f610895565b634e487b7160e01b85526021600452602485fd5b60405162461bcd60e51b815260206004820152601860248201527715dbdc9ad95c9cc81a5b881919585b08185c99481c185a5960421b6044820152606490fd5b905061079f576003821481610881565b5050848115610879565b606460405162461bcd60e51b815260206004820152602060248201527f4f6e6c79206f7261636c652063616e2063616c6c2074686973206d6574686f646044820152fd5b90506020813d602011610a2d575b81610a1260209383612e8f565b81010312610a2957610a2390612fbf565b5f61083c565b8380fd5b3d9150610a05565b6040513d86823e3d90fd5b5034610277576020366003190112610277576004355f80516020614ba98339815191525580f35b50346102775760203660031901126102775760ff6040826020935060043581525f80516020614b2983398151915284522054166040519015158152f35b503461027757602036600319011261027757600435610ac281613610565b5f8051602061496983398151915260018060a01b0390541690608060408201516024604051809581936321b9a09560e21b835260048301525afa918215610a35578492610be1575b50606001516001600160a01b03163314908115610bca575b508015610baa575b15610b405761027490610b3b613732565b614302565b60405162461bcd60e51b815260206004820152603c60248201527f4f6e6c792070726f76696465722c2070656572206f776e6572206f722064656160448201527b1b081bdddb995c8818d85b8818d85b1b081d1a1a5cc81b595d1a1bd960221b6064820152608490fd5b505f80516020614b49833981519152546001600160a01b03163314610b2a565b606001516001600160a01b0316331490505f610b22565b610c0491925060803d608011610c0b575b610bfc8183612e8f565b8101906130f1565b905f610b0a565b503d610bf2565b50346102775780600319360112610277575060205f80516020614c4983398151915254604051908152f35b5034610277576020366003190112610277576004356001600160401b0381116107c757610c6e903690600401612df9565b906020604051610c7e8282612e8f565b848152818101601f198301368237610c9585613464565b93610ca36040519586612e8f565b858552601f19610cb287613464565b01875b818110610e4a57505036819003601e190190875b87811015610dd257888160051b830135848112156107c75783018035906001600160401b038211610dce5788018136038113610dce5786610d3484938b6040519382859383850197883783018281018881528e519283915e010185815203601f198101835282612e8f565b5190305af4893d15610dbb57503d906001600160401b038211610da75791610d856001928c98979695948a601f19601f8401160191610d766040519384612e8f565b82523d8a8c84013e5b306146da565b610d8f828b61369c565b52610d9a818a61369c565b5001909192939450610cc9565b634e487b7160e01b8b52604160045260248bfd5b9594939291610d85600192606090610d7f565b8280fd5b88868860405191808301818452825180915260408401918060408360051b870101940192865b838810610e055786860387f35b9091929394838080600193603f198b8203018752818a518051918291828552018484015e86838284010152601f80199101160101970193019701969093929193610df8565b60608782018701528501610cb5565b50346102775760203660031901126102775760a0610e78600435613610565b608060405191805183526020810151602084015260408101516040840152600180851b03606082015116606084015201516080820152f35b5034610277576020366003190112610277576004355f80516020614be98339815191525580f35b5034610277578060031936011261027757610ef061307a565b505060408051610eff81612e59565b63ffffffff60e01b5f805160206149898339815191525460e01b169081815260205f80516020614c298339815191525491019081528251918252516020820152f35b503461027757366003190161018081126107c7576101601361027757604051610f6981612e29565b6004358152602435602082015260443560408201526064356060820152608435608082015260a43560a082015260c43560c082015260e43560e082015261010435908115158203610dce576102749161010082015261012435610120820152610144356101408201526101643590613ac0565b5034610277578060031936011261027757505f80516020614b49833981519152546040516001600160a01b039091168152602090f35b50346102775780600319360112610277575060205f80516020614a6983398151915254604051908152f35b50346102775761018036600319011261027757611058612de3565b60403660231901126107c757606435906001600160a01b0382168203610dce5760a4356001600160401b038111610a295736602382011215610a29576004810135906001600160401b0382116116475736602460608402830101116116475761010435600381101561164357610124356001600160401b03811161163f576110e4903690600401612df9565b610164359690949193906001600160a01b038816880361163b575f80516020614c0983398151915254604081901c60ff161598906001600160401b03811680159081611633575b6001149081611629575b159081611620575b50611611576001600160401b031981166001175f80516020614c098339815191525561118b91908a6115e9575b506111736146af565b61117b6146af565b6111836146af565b61026f6146af565b6111936146af565b435f80516020614ac9833981519152555f8051602061496983398151915280546001600160a01b039889166001600160a01b03199182161782555f80516020614aa98339815191528054939099169216919091179096556084355f805160206149e983398151915255600160401b82116115d5575f805160206149a983398151915254825f805160206149a983398151915255808310611548575b505f805160206149a9833981519152885292939287905f80516020614c89833981519152906024015b8383106114fd575050505061129d9060c4355f805160206149098339815191525560e4355f80516020614a69833981519152555f80516020614a09833981519152613568565b5f805160206149c983398151915290855b8181106114b85750506024359150506001600160e01b031981168103610a295760e01c63ffffffff195f805160206149898339815191525416175f80516020614989833981519152556044355f80516020614c29833981519152558260018060a01b03825416803b156107c757816040518092634492bd6b60e01b825281838161133c602460048301613c25565b03925af180156114ad57611498575b505060206004915f80516020614a498339815191526040518061136f602482613c25565b0390a161137a6146af565b610144355f80516020614929833981519152556113956146af565b54604051630ecce30160e31b815292839182906001600160a01b03165afa90811561148d57839161145b575b505f198101908111611447575f805160206148e98339815191525560015f80516020614ae9833981519152556113f45780f35b60ff60401b195f80516020614c0983398151915254165f80516020614c09833981519152557fc7f505b2f371ae2175ee4913f4499e1f2633a7b5936321eed1cdaeb6115181d2602060405160018152a180f35b634e487b7160e01b83526011600452602483fd5b90506020813d602011611485575b8161147660209383612e8f565b810103126106a357515f6113c1565b3d9150611469565b6040513d85823e3d90fd5b816114a291612e8f565b610dce57825f61134b565b6040513d84823e3d90fd5b6114c38183866136c4565b35906001600160a01b03821682036114f957600191828060a01b03165f528360205260405f208260ff19825416179055016112ae565b8780fd5b8096959635825560018201908a60208201359160068310156107c7576001936003936060935060ff801983541691161790556040810135600286015501920192019190959495611257565b806003029060038204036115c157826003026003810484036115ad575f805160206149a98339815191528a525f80516020614c8983398151915291820191015b818110611595575061122e565b6003908a81558a60018201558a600282015501611588565b634e487b7160e01b8a52601160045260248afd5b634e487b7160e01b89526011600452602489fd5b634e487b7160e01b88526041600452602488fd5b6001600160481b0319166001600160401b01175f80516020614c09833981519152555f61116a565b63f92ee8a960e01b8b5260048bfd5b9050155f61113d565b303b159150611135565b8b915061112b565b8880fd5b8680fd5b8580fd5b8480fd5b50346102775760203660031901126102775760043561166981613610565b905f8051602061496983398151915260018060a01b03905416608060408401516024604051809481936321b9a09560e21b835260048301525afa8015610a3557610274936116d692869261172e575b50606001516001600160a01b03163314908115611717575b50613146565b6116de613732565b61170b6116ea82613610565b6116f2613888565b928184925190606060018060a01b039101511691613ee0565b61014081015190613ac0565b606001516001600160a01b0316331490505f6116d0565b61174891925060803d608011610c0b57610bfc8183612e8f565b905f6116b8565b503461027757602036600319011261027757611769612de3565b5f8051602061496983398151915280546001600160a01b0319166001600160a01b0390921691909117905580f35b5034610277576020366003190112610277576117b1612de3565b5f80516020614969833981519152546040516302984ebd60e31b815290602090829060049082906001600160a01b03165afa90811561148d578391611900575b506001600160a01b0316331480156118e0575b61180d90612fd3565b60ff5f80516020614a09833981519152541660038110156118cc5715611889576001600160a01b03165f8181525f805160206149c98339815191526020908152604091829020805460ff1916600117905590519182527f4c26e4de691e265be6cf03e639754839907bf74687cd524a6734851331527ffd91a180f35b60405162461bcd60e51b815260206004820152601b60248201527a436f6e6669673a206163636573732074797065206973204e4f4e4560281b6044820152606490fd5b634e487b7160e01b83526021600452602483fd5b505f80516020614b49833981519152546001600160a01b03163314611804565b90506020813d602011611932575b8161191b60209383612e8f565b81010312610dce5761192c90612fbf565b5f6117f1565b3d915061190e565b5034610277578060031936011261027757611953613ead565b5f80516020614b4983398151915280546001600160a01b0319811690915581906001600160a01b03165f80516020614a898339815191528280a380f35b50346102775780600319360112610277576119a9613580565b506101606119b5613888565b61014060405191805183526020810151602084015260408101516040840152606081015160608401526080810151608084015260a081015160a084015260c081015160c084015260e081015160e084015261010081015115156101008401526101208101516101208401520151610140820152f35b50346102775760203660031901126102775760043560038110156107c7575f80516020614969833981519152546040516302984ebd60e31b815290602090829060049082906001600160a01b03165afa90811561148d578391611b83575b506001600160a01b031633148015611b63575b611aa490612fd3565b60ff5f80516020614a09833981519152541660038110156118cc578114611b1357611b0d81611b017f1f5a251428f76335a835fcae94ab6a9bcf09ac33bd3c782eb6a81bdf878a7393935f80516020614a09833981519152613568565b60405191829182612eb2565b0390a180f35b60405162461bcd60e51b815260206004820152602260248201527f436f6e6669673a20616363657373207479706520697320616c72656164792073604482015261195d60f21b6064820152608490fd5b505f80516020614b49833981519152546001600160a01b03163314611a9b565b90506020813d602011611bb5575b81611b9e60209383612e8f565b81010312610dce57611baf90612fbf565b5f611a88565b3d9150611b91565b50346102775780600319360112610277575f8051602061496983398151915254604051638da5cb5b60e01b815290602090829060049082906001600160a01b03165afa9081156114ad578291611c69575b506001600160a01b03163303611c2657610274613732565b60405162461bcd60e51b815260206004820152601b60248201527a13db9b1e48191a585b5bdb99081bdddb995c8818d85b8818d85b1b602a1b6044820152606490fd5b90506020813d602011611c9b575b81611c8460209383612e8f565b810103126107c757611c9590612fbf565b5f611c0e565b3d9150611c77565b50346102775780600319360112610277575060205f8051602061490983398151915254604051908152f35b503461027757602036600319011261027757611ce8612de3565b905060018060a01b03165f525f805160206148a9833981519152602052602060405f2054604051908152f35b5034610277578060031936011261027757611d2d61347b565b6040519060058110156118cc57602092508152f35b50346102775780600319360112610277575f805160206149a983398151915254611d6b81613464565b90611d796040519283612e8f565b8082525f805160206149a98339815191528352602082019083905f80516020614c89833981519152835b828410611e2257505050506040519160208301906020845251809152604083019190845b818610611dd45784840385f35b90919283518051825260208101516006811015611e0e57826040602093606093856001970152015160408201520194019501949190611dc7565b634e487b7160e01b84526021600452602484fd5b604051606081016001600160401b03811182821017611e8c576040528254815260ff6001840154166006811015611e78576001928260209283600395015260028601546040820152815201920193019290611da3565b634e487b7160e01b89526021600452602489fd5b634e487b7160e01b89526041600452602489fd5b50346102775780600319360112610277575060205f80516020614a2983398151915254604051908152f35b503461027757602036600319011261027757611ee5612de3565b5f80516020614969833981519152546040516302984ebd60e31b815290602090829060049082906001600160a01b03165afa90811561148d578391611fa6575b505f80516020614b69833981519152916020916001600160a01b031633148015611f86575b611f5390612fd3565b6001600160a01b03165f8181525f805160206149c98339815191528352604090819020805460ff1916905551908152a180f35b505f80516020614b49833981519152546001600160a01b03163314611f4a565b90506020813d602011611feb575b81611fc160209383612e8f565b81010312610dce575f80516020614b6983398151915291611fe3602092612fbf565b915091611f25565b3d9150611fb4565b5034610277576020366003190112610277576020612017612012612de3565b6133d4565b6040519015158152f35b5034610277576020366003190112610277576004355f80516020614a298339815191525580f35b50346102775780600319360112610277575060205f80516020614ca983398151915254604051908152f35b50346102775780600319360112610277575060205f8051602061492983398151915254604051908152f35b5034610277576020366003190112610277576004355f80516020614b098339815191525580f35b5034610277578060031936011261027757505f80516020614aa9833981519152546040516001600160a01b039091168152602090f35b5034610277576020366003190112610277575f8051602061496983398151915280546040516302984ebd60e31b8152600480359392602091839182906001600160a01b03165afa908115610a35578491612650575b506001600160a01b031633148015612630575b61216c90612fd3565b5f80516020614bc98339815191525c6126215760015f80516020614bc98339815191525d612198613732565b5f80516020614ba98339815191526121ae613888565b82546040516372ea4f2360e01b815290602090829060049082906001600160a01b03165afa9081156126165786916125e2575b506121fe612213915f805160206149098339815191525490613383565b5f805160206149e98339815191525490613383565b60608201612222868251613396565b8091526101008301511515806125d9575b1561256057505060c08101515f80516020614c698339815191525484546040516372ea4f2360e01b81529190602090839060049082906001600160a01b03165afa90811561255557889161251f575b61228c9250612f57565b10156124b65784926122b6602092846122a88860049754613396565b905561014081015190613ac0565b5460405163fd44f92160e01b815292839182906001600160a01b03165afa9081156114ad578291612487575b505f80516020614aa9833981519152545f80516020614b4983398151915280546001600160a01b039384169391929082169116833b15611647576040516388081fcb60e01b81529185918391829161233f918a9160048501612f97565b038183875af1908115610a35578491612472575b50505f80516020614aa98339815191525490546001600160a01b039182169116823b15610a29576040516312bc368360e31b81529184918391829161239f9189913391600486016133a3565b038183865af190811561148d57839161245d575b50505f80516020614aa9833981519152546001600160a01b031690803b15610dce578383916123fa938360405180968195829462b13fab60e11b8452339060048501612f97565b03925af180156114ad57612448575b507f430648de173157e069201c943adb2d4e340e7cf5b27b1b09c9cb852f03d63b56602083604051908152a1805f80516020614bc98339815191525d80f35b8161245291612e8f565b6107c757815f612409565b8161246791612e8f565b6107c757815f6123b3565b8161247c91612e8f565b610dce57825f612353565b6124a9915060203d6020116124af575b6124a18183612e8f565b810190612f78565b5f6122e2565b503d612497565b60405162461bcd60e51b815260206004820152603b60248201527f43616e2774207769746864726177206265666f7265206d696e4465616c44657060448201527a1bdcda5d1959115c1bd8da1cc818599d195c881919585b08195b99602a1b6064820152608490fd5b90506020823d60201161254d575b8161253a60209383612e8f565b810103126106a35761228c915190612282565b3d915061252d565b6040513d8a823e3d90fd5b9091939250106125795760206004916122b6869461170b565b60405162461bcd60e51b815260206004820152603260248201527f467265652062616c616e6365206e6565647320746f20636f766572206d696e4460448201527165616c4465706f736974656445706f63687360701b6064820152608490fd5b50818110612233565b90506020813d60201161260e575b816125fd60209383612e8f565b810103126106a357516121fe6121e1565b3d91506125f0565b6040513d88823e3d90fd5b633ee5aeb560e01b8352600483fd5b505f80516020614b49833981519152546001600160a01b03163314612163565b90506020813d602011612682575b8161266b60209383612e8f565b81010312610a295761267c90612fbf565b5f612150565b3d915061265e565b50346102775780600319360112610277575060205f805160206149e983398151915254604051908152f35b5034610277576040366003190112610277576004356126d381613610565b905f8051602061496983398151915260018060a01b03905416608060408401516024604051809481936321b9a09560e21b835260048301525afa8015610a35576102749361273e92869261172e5750606001516001600160a01b031633149081156117175750613146565b612746613732565b60243590613201565b503461027757602036600319011261027757604061276e600435613092565b60208251918051835201516020820152f35b5034610277576040366003190112610277575f8051602061496983398151915280546040516302984ebd60e31b8152839291602090829060049082906001600160a01b03165afa90811561148d5783916128da575b506001600160a01b0316331480156128ba575b6127f190612fd3565b6004356001600160e01b0319811681036128b65760e01c63ffffffff195f805160206149898339815191525416175f80516020614989833981519152556024355f80516020614c298339815191525560018060a01b03905416803b156128b357816040518092634492bd6b60e01b82528183816128716004808301613c25565b03925af180156114ad5761289e575b505f80516020614a4983398151915260405180611b0d600482613c25565b816128a891612e8f565b61027757805f612880565b50fd5b5050fd5b505f80516020614b49833981519152546001600160a01b031633146127e8565b90506020813d60201161290c575b816128f560209383612e8f565b810103126128b65761290690612fbf565b5f6127d5565b3d91506128e8565b50346102775780600319360112610277575060205f80516020614ac983398151915254604051908152f35b5034610277576020366003190112610277576004355f805160206149098339815191525580f35b5034610277576020366003190112610277576004355f80516020614c698339815191525580f35b5034610277576020366003190112610277576004355f805160206148e98339815191525580f35b50346102775780600319360112610277575f8051602061496983398151915280546040516302984ebd60e31b815291929190602090829060049082906001600160a01b03165afa9081156114ad578291612bba575b506001600160a01b031633148015612b9a575b612a2590612fd3565b612a2d613732565b612a3561347b565b916005831015612b8657612a4d600283941415613039565b612a5861170b613888565b8054604051630ecce30160e31b815290602090829060049082906001600160a01b03165afa90811561148d578391612b4e575b506020817f3ad16bb58712aa329948d76146b096a4f4b85e024d99473dc50bcd358811b86c925f80516020614ca98339815191525411612b23575b805f80516020614c6983398151915255604051908152a1546001600160a01b0316803b156128b35781809160046040518094819362e481ad60e21b83525af180156114ad57612b125750f35b81612b1c91612e8f565b6102775780f35b805f80516020614ca9833981519152555f8051602061494983398151915282604051838152a1612ac6565b9250506020823d602011612b7e575b81612b6a60209383612e8f565b810103126106a35790518291906020612a8b565b3d9150612b5d565b634e487b7160e01b82526021600452602482fd5b505f80516020614b49833981519152546001600160a01b03163314612a1c565b90506020813d602011612bec575b81612bd560209383612e8f565b810103126107c757612be690612fbf565b5f612a09565b3d9150612bc8565b50346106a35760203660031901126106a3576004355f80516020614969833981519152612c2b60018060a01b038254163314612ec5565b612c33613732565b612c3b61347b565b6005811015612d8557600491612c5660026020931415612f1b565b612c7e612c61613888565b60608101612c70878251612f57565b905261014081015190613ac0565b5460405163fd44f92160e01b815292839182906001600160a01b03165afa908115612d5b575f91612d66575b505f80516020614aa9833981519152545f80516020614b49833981519152546001600160a01b03928316929081169116823b156106a357612d07925f9283869360405196879586948593630459093360e21b855260048501612f97565b03925af18015612d5b57612d45575b5060207f2a89b2e3d580398d6dc2db5e0f336b52602bbaa51afa9bb5cdf59239cf0d2bea91604051908152a180f35b612d529192505f90612e8f565b5f906020612d16565b6040513d5f823e3d90fd5b612d7f915060203d6020116124af576124a18183612e8f565b5f612caa565b634e487b7160e01b5f52602160045260245ffd5b346106a35760203660031901126106a3576004355f80516020614ca983398151915255005b346106a35760203660031901126106a3576004355f80516020614c4983398151915255005b600435906001600160a01b03821682036106a357565b9181601f840112156106a3578235916001600160401b0383116106a3576020808501948460051b0101116106a357565b61016081019081106001600160401b03821117612e4557604052565b634e487b7160e01b5f52604160045260245ffd5b604081019081106001600160401b03821117612e4557604052565b60a081019081106001600160401b03821117612e4557604052565b601f909101601f19168101906001600160401b03821190821017612e4557604052565b919060208301926003821015612d855752565b15612ecc57565b60405162461bcd60e51b815260206004820152602160248201527f436f6e6669673a2063616c6c6572206973206e6f7420746865204469616d6f6e6044820152601960fa1b6064820152608490fd5b15612f2257565b60405162461bcd60e51b815260206004820152600d60248201526c1119585b081a5cc8195b991959609a1b6044820152606490fd5b91908201809211612f6457565b634e487b7160e01b5f52601160045260245ffd5b908160209103126106a357516001600160a01b03811681036106a35790565b6001600160a01b0391821681529116602082015260408101919091525f606082015260800190565b51906001600160a01b03821682036106a357565b15612fda57565b60405162461bcd60e51b815260206004820152603160248201527f4f6e6c7920566f646f706164206f72204465616c204f776e65722063616e206360448201527030b636103a3434b990333ab731ba34b7b760791b6064820152608490fd5b1561304057565b60405162461bcd60e51b81526020600482015260126024820152714465616c206973206e6f742061637469766560701b6044820152606490fd5b6040519061308782612e59565b5f6020838281520152565b60405161309e81612e59565b5f81525f6020820152506130b0613888565b906130ba81613610565b51156130d757816130ce6130d49383613ce8565b91613dd3565b90565b50506040516130e581612e59565b5f81525f602082015290565b908160809103126106a35760405190608082016001600160401b03811183821017612e455761313e9160609160405280518452602081015160208501526040810151604085015201612fbf565b606082015290565b1561314d57565b60405162461bcd60e51b815260206004820152603060248201527f4f6e6c792070726f7669646572206f722070656572206f776e65722063616e2060448201526f18d85b1b081d1a1a5cc81b595d1a1bd960821b6064820152608490fd5b156131b257565b60405162461bcd60e51b815260206004820152602160248201527f4f6666636861696e20776f726b65722069642063616e277420626520656d70746044820152607960f81b6064820152608490fd5b8115159061320e826131ab565b613216613888565b61014081015192825f525f80516020614b8983398151915260205261323e60405f20916131ab565b805415613355575b8481557fcf79e0e27c8c35d39bd9b727f35e6f79573597f660c88baf483fc1511c49203c60408051858152876020820152a160025f80516020614c4983398151915254910154936132978284613ac0565b61329f61347b565b6005811015612d8557806132b960026132c0931415612f1b565b1515613039565b1461334f57815f525f80516020614889833981519152602052600160a060405f209260e0810151845501519101555f8051602061496983398151915260018060a01b03905416803b156106a3575f9283606492604051968795869463852cdb0160e01b86526004860152602485015260448401525af18015612d5b576133435750565b5f61334d91612e8f565b565b50505050565b5f80516020614c49833981519152545f198114612f64576001015f80516020614c4983398151915255613246565b81810292918115918404141715612f6457565b91908203918211612f6457565b6001600160a01b0391821681529181166020830152909116604082015260608101919091525f608082015260a00190565b60ff5f80516020614a0983398151915254166003811015612d8557801561345d57600181146134335760021461340957505f90565b6001600160a01b03165f9081525f805160206149c9833981519152602052604090205460ff161590565b506001600160a01b03165f9081525f805160206149c9833981519152602052604090205460ff1690565b5050600190565b6001600160401b038111612e455760051b60200190565b613483613888565b610100810151613562575f80516020614ca9833981519152548015159081613554575b5061354f57606001515f80516020614969833981519152546040516372ea4f2360e01b815290602090829060049082906001600160a01b03165afa908115612d5b575f9161351b575b506121fe61350c915f805160206149098339815191525490613383565b1161351657600190565b600490565b90506020813d602011613547575b8161353660209383612e8f565b810103126106a357516121fe6134ef565b3d9150613529565b505f90565b905060c0820151115f6134a6565b50600290565b906003811015612d855760ff80198354169116179055565b6040519061358d82612e29565b5f610140838281528260208201528260408201528260608201528260808201528260a08201528260c08201528260e082015282610100820152826101208201520152565b156135d857565b60405162461bcd60e51b815260206004820152601060248201526f15dbdc9ad95c881b9bdd08199bdd5b9960821b6044820152606490fd5b5f608060405161361f81612e74565b82815282602082015282604082015282606082015201525f525f80516020614b8983398151915260205260405f206130d46040519161365d83612e74565b805483526001810154602084018190526002820154604085015260038201546001600160a01b03166060850152600490910154608084015215156135d1565b80518210156136b05760209160051b010190565b634e487b7160e01b5f52603260045260245ffd5b91908110156136b05760051b0190565b6001600160a01b0316801561371f575f80516020614b4983398151915280546001600160a01b0319811683179091556001600160a01b03165f80516020614a898339815191525f80a3565b631e4fbdf760e01b5f525f60045260245ffd5b5f805160206149698339815191525460405163fd44f92160e01b81525f80516020614ba983398151915291602090829060049082906001600160a01b03165afa908115612d5b575f91613869575b505f80516020614ae9833981519152546138655760015f80516020614ae98339815191525560018060a01b035f80516020614aa983398151915254169060018060a01b03169160205f82546040518381019163a9059cbb60e01b83528760248301526044820152604481526137f6606482612e8f565b519082865af115612d5b575f513d61385c5750813b155b6138495754823b156106a35760445f9283604051958694859363a0aeae9f60e01b8552600485015260248401525af18015612d5b576133435750565b50635274afe760e01b5f5260045260245ffd5b6001141561380d565b5050565b613882915060203d6020116124af576124a18183612e8f565b5f613780565b600490613893613580565b505f8051602061496983398151915254604051630ecce30160e31b8152925f80516020614ba983398151915291602091859182906001600160a01b03165afa928315612d5b575f93613a8c575b505f198301838111612f6457925f80516020614c6983398151915254935f9480613a80575b505f80516020614c4983398151915254945f80516020614909833981519152549361392e613580565b5054925f80516020614b09833981519152545f80516020614be983398151915254906040519561395d87612e29565b8087528160208801528260408801526060870152608086015260a085015260c08401528160e08401521515610100830152826101208301528461014083015281945f805160206148e9833981519152549283831115613a7857505f80516020614ca9833981519152549384831115613a44578484106139f85750506139f49192506139ee60a0860193845192613396565b90612f57565b9052565b90613a0d613a1292613a0d6139f49688613396565b613383565b60608601613a21828251613396565b9052613a3260808701918251612f57565b90526139ee60a0860193845192613396565b9092613a589450613a0d90613a0d93613396565b60608301613a67828251613396565b90526139f460808401918251612f57565b955050505050565b6001955090505f613905565b9092506020813d602011613ab8575b81613aa860209383612e8f565b810103126106a35751915f6138e0565b3d9150613a9b565b905f80516020614ba9833981519152825160608401918251809203613c1d575b505060208301516080840151809103613c08575b50604083015160a0840151809103613bf3575b5060e08301519261010081015115613b2e575b5050505f805160206148e983398151915255565b82159081613ba8575050613b529051915f8051602061490983398151915254613383565b8015613b9457613b746020915f80516020614949833981519152930484612f57565b805f80516020614ca983398151915255604051908152a15b5f8080613b1a565b634e487b7160e01b5f52601260045260245ffd5b610140015115159250905081613beb575b5015613b8c575f5f80516020614ca9833981519152555f8051602061494983398151915260206040515f8152a1613b8c565b90505f613bb9565b5f80516020614be9833981519152555f613b07565b5f80516020614b09833981519152555f613af4565b555f80613ae0565b60408101929180356001600160e01b03198116908190036106a3578252602090810135910152565b90816101609103126106a35760405190613c6682612e29565b80519060068210156106a3576101409183526020810151602084015260408101516040840152606081015160608401526080810151608084015260a081015160a084015260c081015160c0840152613cc060e08201612fbf565b60e0840152610100810151610100840152610120810151610120840152015161014082015290565b9060e00151905f805160206149698339815191529060ff5f80516020614a0983398151915254166003811015612d8557600114613dce57613d2b61016091614599565b9154604051631de5608360e21b81526004810193909352829060249082906001600160a01b03165afa908115612d5b575f91613d9f575b5061012081015180613d99575060a00180515f198101908111612f64578211613d89575090565b515f19810191508111612f645790565b91505090565b613dc191506101603d8111613dc7575b613db98183612e8f565b810190613c4d565b5f613d62565b503d613daf565b505090565b91604051613de081612e59565b5f81525f602082015250825f525f80516020614889833981519152602052613e0b60405f2093614615565b92805491828110613e9c5760a0613e27613e3394600193613396565b94015191015490613396565b808210613e8d57613e6d613e66613e516298968093613e7595613396565b5f805160206149098339815191525490613383565b9384613383565b048092613396565b9060405191613e8383612e59565b8252602082015290565b5050506040516130e581612e59565b50505050506040516130e581612e59565b5f80516020614b49833981519152546001600160a01b03163303613ecd57565b63118cdaa760e01b5f523360045260245ffd5b9291905f901561334f57613ef48385613ce8565b91613f00838587613dd3565b92835194613f146020860196875190612f57565b9182156142f857613f5091608091895f525f8051602061488983398151915260205260405f20908155600160a083015191015501918251613396565b90525f80516020614969833981519152805460405163fd44f92160e01b81529190602090839060049082906001600160a01b03165afa918215612d5b575f926142d7575b5060018060a01b035f80516020614aa9833981519152541692855161419f575b508551613ffd575b50505050916060917fc512f9d0bb2627096491f1074af42a5032fe36ef5dcae7c216cfc34f6ea474d6935190519060405192835260208301526040820152a1565b54604051638da5cb5b60e01b81529190602090839060049082906001600160a01b03165afa918215610a35578492614163575b505f80516020614b49833981519152805487516001600160a01b039384169493909116843b1561163f576040516388081fcb60e01b81529187918391829161407d91908a60048501612f97565b038183885af180156126165790869161414e575b5050548651906001600160a01b0316833b15611643578286916140c960405194859384936312bc368360e31b85528a600486016133a3565b038183875af180156106af57908591614139575b5050855192823b15611647579161410e93918580946040519687958694859362b13fab60e11b855260048501612f97565b03925af180156114ad57614124575b8080613fbc565b61412f828092612e8f565b610277578061411d565b8161414391612e8f565b610a2957835f6140dd565b8161415891612e8f565b61164757845f614091565b9091506020813d602011614197575b8161417f60209383612e8f565b81010312610a295761419090612fbf565b905f614030565b3d9150614172565b5f80516020614b49833981519152805487516001600160a01b03868116939216833b156106a3576040516388081fcb60e01b8152915f91839182916141e991908c60048501612f97565b038183875af18015612d5b576142c2575b50548751906001600160a01b0316823b156114f95783889161423160405194859384936312bc368360e31b85528c600486016133a3565b038183865af180156142b7579087916142a2575b5050865191813b1561163f57918691614275938360405180968195829462b13fab60e11b84528c60048501612f97565b03925af180156106af5790859161428d575b50613fb4565b8161429791612e8f565b610a2957835f614287565b816142ac91612e8f565b61164357855f614245565b6040513d89823e3d90fd5b6142cf9197505f90612e8f565b5f955f6141fa565b6142f191925060203d6020116124af576124a18183612e8f565b905f613f94565b5050505050505050565b61430b81613610565b90614314613888565b6143308184515f95606060018060a01b03910151169085613ee0565b5f80516020614a29833981519152825f525f80516020614b8983398151915260205260405f206040519061436382612e74565b8054825260018101546020830181905260028201546040840190815260038301546001600160a01b031660608501908152600490930154608085015293906143ac9015156135d1565b6143b68154614738565b9055516001600160a01b03165f9081525f805160206148a98339815191526020526040902080546143e690614738565b90555161456e575b5190815f525f80516020614b2983398151915260205260405f2060ff198154169055825f525f80516020614b898339815191526020525f6004604082208281558260018201558260028201558260038201550155614459835f805160206148c98339815191526147c3565b1561451f576144a1917f2931f8975c0ce3cdf8ebe0cac36f06048736d46d6df66ac21cfe717b9ee710066020604051868152a25f80516020614c498339815191525490613ac0565b5f80516020614969833981519152546001600160a01b0316803b156106a3575f809160246040518094819363ee22bfb760e01b83528760048401525af18015612d5b5761450a575b5081525f805160206148898339815191526020526001604082208281550155565b6145179192505f90612e8f565b5f905f6144e9565b60405162461bcd60e51b815260206004820152602160248201527f4661696c656420746f2072656d6f766520776f726b65722066726f6d206c69736044820152601d60fa1b6064820152608490fd5b6145855f80516020614c4983398151915254614738565b5f80516020614c49833981519152556143ee565b6145a290613610565b5f805160206149698339815191525460409182015191516321b9a09560e21b81526004810192909252608090829060249082906001600160a01b03165afa8015612d5b576020915f916145f6575b50015190565b61460f915060803d608011610c0b57610bfc8183612e8f565b5f6145f0565b5f805160206149698339815191529060ff5f80516020614a0983398151915254166003811015612d85576001146146a95761465261016091614599565b9154604051631de5608360e21b81526004810193909352829060249082906001600160a01b03165afa8015612d5b5760c0915f916146905750015190565b61460f91506101603d8111613dc757613db98183612e8f565b50505f90565b60ff5f80516020614c098339815191525460401c16156146cb57565b631afcd79f60e31b5f5260045ffd5b906146fe57508051156146ef57805190602001fd5b63d6bda27560e01b5f5260045ffd5b8151158061472f575b61470f575090565b639996b31560e01b5f9081526001600160a01b0391909116600452602490fd5b50803b15614707565b8015612f64575f190190565b80548210156136b0575f5260205f2001905f90565b6001810190825f528160205260405f2054155f146147bc578054600160401b811015612e45576147a9614793826001879401855584614744565b819391549060031b91821b915f19901b19161790565b905554915f5260205260405f2055600190565b5050505f90565b906001820191815f528260205260405f20548015155f14614880575f198101818111612f645782545f19810191908211612f645781810361484b575b50505080548015614837575f1901906148188282614744565b8154905f199060031b1b19169055555f526020525f6040812055600190565b634e487b7160e01b5f52603160045260245ffd5b61486b61485b6147939386614744565b90549060031b1c92839286614744565b90555f528360205260405f20555f80806147ff565b505050505f9056fe75428af146c22440e807f0e095d3de8e8b2c98df829dea65bcfe27a85a56da9d5def38ecf5a0fa5e33a9a271693efbf3a526ddb1f7ef0ec33f3c6d26e39ee7165def38ecf5a0fa5e33a9a271693efbf3a526ddb1f7ef0ec33f3c6d26e39ee71975428af146c22440e807f0e095d3de8e8b2c98df829dea65bcfe27a85a56da9c136dd5357dcf392c42e49859cef979aa9638cbada31d1f29a19bc18654c3ba6675428af146c22440e807f0e095d3de8e8b2c98df829dea65bcfe27a85a56da9fcecd349d986645e1758ec135f91f1ad20564a8bcc6c2b5a5eaca9b09841495c5136dd5357dcf392c42e49859cef979aa9638cbada31d1f29a19bc18654c3ba5c136dd5357dcf392c42e49859cef979aa9638cbada31d1f29a19bc18654c3ba5e136dd5357dcf392c42e49859cef979aa9638cbada31d1f29a19bc18654c3ba65136dd5357dcf392c42e49859cef979aa9638cbada31d1f29a19bc18654c3ba64136dd5357dcf392c42e49859cef979aa9638cbada31d1f29a19bc18654c3ba61136dd5357dcf392c42e49859cef979aa9638cbada31d1f29a19bc18654c3ba635def38ecf5a0fa5e33a9a271693efbf3a526ddb1f7ef0ec33f3c6d26e39ee714c820a66d3bdd50a45cf12cda6dc8ec9e94fb5123edd7da736eea18316f8523a0136dd5357dcf392c42e49859cef979aa9638cbada31d1f29a19bc18654c3ba628be0079c531659141344cd1fd0a4f28419497f9722a3daafe3b4186f6b6457e0136dd5357dcf392c42e49859cef979aa9638cbada31d1f29a19bc18654c3ba60136dd5357dcf392c42e49859cef979aa9638cbada31d1f29a19bc18654c3ba5d75428af146c22440e807f0e095d3de8e8b2c98df829dea65bcfe27a85a56daa075428af146c22440e807f0e095d3de8e8b2c98df829dea65bcfe27a85a56da995def38ecf5a0fa5e33a9a271693efbf3a526ddb1f7ef0ec33f3c6d26e39ee718b13d3e7783d509d8d65d3e1e62ec0b103a07e0cbfa1ee74ae19127f297dddfcc38fb081a0b484406977bd94ff8edb79be44b5ca514130361182516b39e2c45285def38ecf5a0fa5e33a9a271693efbf3a526ddb1f7ef0ec33f3c6d26e39ee71775428af146c22440e807f0e095d3de8e8b2c98df829dea65bcfe27a85a56da989b779b17422d0df92223018b32b4d1fa46e071723d6817e2486d003becc55f0075428af146c22440e807f0e095d3de8e8b2c98df829dea65bcfe27a85a56da9af0c57e16840df040f15088dc2f81fe391c3923bec73e23a9662efc9c229c6a00136dd5357dcf392c42e49859cef979aa9638cbada31d1f29a19bc18654c3ba5f5def38ecf5a0fa5e33a9a271693efbf3a526ddb1f7ef0ec33f3c6d26e39ee71575428af146c22440e807f0e095d3de8e8b2c98df829dea65bcfe27a85a56da9e548c65cbf2bdf872afec988c5b3fb8afde695bac13e6d3020de483ba011bf21775428af146c22440e807f0e095d3de8e8b2c98df829dea65bcfe27a85a56da9ba264697066735822122000fdb71cb911a5f4dc11cbb37b059bfc96eb287f099a3a342c359843465a182564736f6c634300081a0033","linkReferences":{}},"methodIdentifiers":{"activateWorker(bytes32,bytes32)":"22ebd58a","addProviderToAccessList(address)":"73134c15","addWorker(address,(bytes32),bytes32)":"cef74c8b","appCID()":"9bc66868","changeProvidersAccessType(uint8)":"636fcefb","computePeerUsed(bytes32)":"bd1926e0","creationBlock()":"17634514","depositFromOwner(uint256)":"0574131f","getActivatedWorkerCount()":"ade0a202","getFreeBalance()":"e93c4f15","getMaxPaidEpoch()":"378b22e4","getProtocolVersion()":"33ce93fe","getRewardAmount(bytes32)":"1af57b96","getStatus()":"4e69d560","getWorker(bytes32)":"aba93a10","getWorkerCount()":"4d7599f1","getWorkerCount(address)":"59c4afc0","getWorkerIds()":"f2574c1b","initialize(address,(bytes4,bytes32),address,uint256,(bytes32,uint8,uint256)[],uint256,uint256,uint8,address[],uint256,address)":"84608454","isProviderAllowed(address)":"3e8ae1ae","maxWorkersPerProvider()":"8a0c725b","migrateToBalanceKeeper()":"630eceea","multicall(bytes[])":"ac9650d8","owner()":"8da5cb5b","paymentToken()":"3013ce29","postCommitPeriod((uint256,uint256,uint256,uint256,uint256,uint256,uint256,uint256,bool,uint256,uint256),uint256)":"93d2bafc","preCommitPeriod()":"6e5e47b1","pricePerEpoch()":"5fc8f59c","providersAccessType()":"d4773ff0","removeProviderFromAccessList(address)":"444e6a5a","removeStaleWorkers(bytes32[])":"cb7b88d1","removeWorker(bytes32)":"bc126f1f","renounceOwnership()":"715018a6","requiredResources()":"4e4d7af8","setActivatedWorkerCount(uint256)":"03465927","setAppCID((bytes4,bytes32))":"176474cf","setDiamond(address)":"76ed535a","setEndedEpoch(uint256)":"13883251","setGapsEpochCount(uint256)":"9c09e82d","setLastCommitedEpoch(uint256)":"0ac25f10","setLockedBalance(uint256)":"3116eeda","setMaxPaidEpoch(uint256)":"04f1bd56","setPricePerEpoch(uint256)":"13a2107d","setTargetWorkers(uint256)":"e116568f","setTotalBalance(uint256)":"c9ed5008","setWorkerCount(uint256)":"3d0bdad7","stop()":"07da68f5","targetWorkers()":"2943dcab","transferOwnership(address)":"f2fde38b","withdraw(uint256)":"2e1a7d4d","withdrawRewards(bytes32)":"7dfb6626"},"storageLayout":{"storage":[],"types":{}},"devdoc":{"version":1,"kind":"dev","methods":{"activateWorker(bytes32,bytes32)":{"details":"Set offchain worker ID for a corresponding onchain worker for a deal"},"addProviderToAccessList(address)":{"details":"Adds a provider to the access list"},"addWorker(address,(bytes32),bytes32)":{"details":"Adds a compute unit to the deal","params":{"computeProvider":"The compute provider address","peerId":"The peer ID","workerData":"The worker with data"}},"appCID()":{"details":"Returns the app CID"},"changeProvidersAccessType(uint8)":{"details":"Change the providers access type"},"computePeerUsed(bytes32)":{"details":"Returns the boolean flag indicating whether the peer exists in the deal"},"creationBlock()":{"details":"Returns the creation block of the deal"},"depositFromOwner(uint256)":{"details":"Deposits payment token to the deal"},"getActivatedWorkerCount()":{"details":"Returns the worker count. Worker is a compute unit that has a worker ID"},"getFreeBalance()":{"details":"Returns the free balance of the deal"},"getMaxPaidEpoch()":{"details":"Returns the max paid epoch"},"getProtocolVersion()":{"details":"Returns the protocol version"},"getRewardAmount(bytes32)":{"details":"Returns the reward amount by compute unit ID"},"getStatus()":{"details":"Returns the status of the deal"},"getWorkerCount()":{"details":"Returns total number of workers"},"getWorkerCount(address)":{"details":"Returns number of workers in provider"},"getWorkerIds()":{"details":"Returns workers registered in this deal"},"isProviderAllowed(address)":{"details":"Returns the boolean indicating whether the provider is allowed or not"},"maxWorkersPerProvider()":{"details":"Returns the max number of workers per provider"},"migrateToBalanceKeeper()":{"details":"Migrate balance to balance keeper"},"multicall(bytes[])":{"details":"Receives and executes a batch of function calls on this contract."},"owner()":{"details":"Returns the address of the current owner."},"paymentToken()":{"details":"Returns the payment token address"},"pricePerEpoch()":{"details":"Returns the price per epoch"},"providersAccessType()":{"details":"Returns the providers access type"},"removeProviderFromAccessList(address)":{"details":"Removes a provider from the access list"},"removeStaleWorkers(bytes32[])":{"details":"Allows oracle to remove worker from a deal that is not paying workers."},"removeWorker(bytes32)":{"details":"Removes a worker from the deal"},"renounceOwnership()":{"details":"Leaves the contract without owner. It will not be possible to call `onlyOwner` functions. Can only be called by the current owner. NOTE: Renouncing ownership will leave the contract without an owner, thereby disabling any functionality that is only available to the owner."},"requiredResources()":{"details":"Returns the price per epoch"},"setAppCID((bytes4,bytes32))":{"details":"Sets the app CID"},"stop()":{"details":"Stop the deal"},"targetWorkers()":{"details":"Returns the max number of workers"},"transferOwnership(address)":{"details":"Transfers ownership of the contract to a new account (`newOwner`). Can only be called by the current owner."},"withdraw(uint256)":{"details":"Withdraws payment token from the deal"},"withdrawRewards(bytes32)":{"details":"Withdraws rewards from the deal by compute unit ID"}},"events":{"AppCIDChanged((bytes4,bytes32))":{"details":"Emitted when the app CID is changed","params":{"newAppCID":"The new app CID"}},"DealEnded(uint256)":{"details":"Emitted when a deal is ended. This event can be emitted in the not-ended epoch. It can be emitted after the ended epoch in any epoch"},"Deposited(uint256)":{"details":"Emitted when a owner deposits payment token to the deal"},"Initialized(uint64)":{"details":"Triggered when the contract has been initialized or reinitialized."},"MaxPaidEpochUpdated(uint256)":{"details":"Emitted when a max paid epoch is updated"},"ProviderAddedToAccessList(address)":{"details":"Emitted when a provider is added to the access list","params":{"provider":"The provider address"}},"ProviderRemovedFromAccessList(address)":{"details":"Emitted when a provider is removed from the access list","params":{"provider":"The provider address"}},"ProvidersAccessTypeChanged(uint8)":{"details":"Emitted when the providers access type is changed","params":{"newAccessType":"The new access type"}},"RewardWithdrawn(bytes32,uint256,uint256)":{"details":"Emitted when a compute unit withdraws rewards from the deal"},"Withdrawn(uint256)":{"details":"Emitted when a owner withdraws payment token from the deal"},"WorkerIdUpdated(bytes32,bytes32)":{"details":"Emitted when a worker ID is updated","params":{"offchainWorkerId":"The new worker ID","onchainWorkerId":"The worker"}},"WorkerJoined(bytes32,bytes32)":{"details":"Emitted when a new worker is added","params":{"onchainId":"The worker ID","peerId":"The id of compute peer"}},"WorkerRemoved(bytes32,bytes32)":{"details":"Emitted when a worker is removed","params":{"onchainId":"The worker onchain ID","peerId":"The id of compute peer"}}},"errors":{"AddressEmptyCode(address)":[{"details":"There's no code at `target` (it is not a contract)."}],"FailedCall()":[{"details":"A call to an address target failed. The target may have reverted."}],"InvalidInitialization()":[{"details":"The contract is already initialized."}],"NotInitializing()":[{"details":"The contract is not initializing."}],"OwnableInvalidOwner(address)":[{"details":"The owner is not a valid owner account. (eg. `address(0)`)"}],"OwnableUnauthorizedAccount(address)":[{"details":"The caller account is not authorized to perform an operation."}],"ReentrancyGuardReentrantCall()":[{"details":"Unauthorized reentrant call."}],"SafeERC20FailedOperation(address)":[{"details":"An operation with an ERC-20 token failed."}]}},"id":120}