{"abi":[{"type":"function","name":"activateWorker","inputs":[{"name":"onchainWorkerId","type":"bytes32","internalType":"bytes32"},{"name":"offchainWorkerId","type":"bytes32","internalType":"bytes32"}],"outputs":[],"stateMutability":"nonpayable"},{"type":"function","name":"addProviderToAccessList","inputs":[{"name":"provider","type":"address","internalType":"address"}],"outputs":[],"stateMutability":"nonpayable"},{"type":"function","name":"addWorker","inputs":[{"name":"computeProvider","type":"address","internalType":"address"},{"name":"workerData","type":"tuple","internalType":"struct IWorkerManagerV2.WorkerDataV2","components":[{"name":"onchainId","type":"bytes32","internalType":"bytes32"}]},{"name":"peerId","type":"bytes32","internalType":"bytes32"}],"outputs":[],"stateMutability":"nonpayable"},{"type":"function","name":"appCID","inputs":[],"outputs":[{"name":"","type":"tuple","internalType":"struct CIDV1","components":[{"name":"prefixes","type":"bytes4","internalType":"bytes4"},{"name":"hash","type":"bytes32","internalType":"bytes32"}]}],"stateMutability":"view"},{"type":"function","name":"changeProvidersAccessType","inputs":[{"name":"accessType","type":"uint8","internalType":"enum IConfigV2.AccessTypeV2"}],"outputs":[],"stateMutability":"nonpayable"},{"type":"function","name":"computePeerUsed","inputs":[{"name":"peerId","type":"bytes32","internalType":"bytes32"}],"outputs":[{"name":"","type":"bool","internalType":"bool"}],"stateMutability":"view"},{"type":"function","name":"creationBlock","inputs":[],"outputs":[{"name":"","type":"uint256","internalType":"uint256"}],"stateMutability":"view"},{"type":"function","name":"depositFromOwner","inputs":[{"name":"amount","type":"uint256","internalType":"uint256"},{"name":"reason","type":"uint8","internalType":"enum IBalanceKeeper.DealDepositReason"}],"outputs":[],"stateMutability":"nonpayable"},{"type":"function","name":"getActivatedWorkerCount","inputs":[],"outputs":[{"name":"","type":"uint256","internalType":"uint256"}],"stateMutability":"view"},{"type":"function","name":"getFreeBalance","inputs":[],"outputs":[{"name":"","type":"uint256","internalType":"uint256"}],"stateMutability":"view"},{"type":"function","name":"getMaxPaidEpoch","inputs":[],"outputs":[{"name":"","type":"uint256","internalType":"uint256"}],"stateMutability":"view"},{"type":"function","name":"getProtocolVersion","inputs":[],"outputs":[{"name":"","type":"uint256","internalType":"uint256"}],"stateMutability":"view"},{"type":"function","name":"getRewardAmount","inputs":[{"name":"onchainWorkerId","type":"bytes32","internalType":"bytes32"}],"outputs":[{"name":"","type":"tuple","internalType":"struct IDealV2.DealRewards","components":[{"name":"providerReward","type":"uint256","internalType":"uint256"},{"name":"stakerReward","type":"uint256","internalType":"uint256"}]}],"stateMutability":"view"},{"type":"function","name":"getStatus","inputs":[],"outputs":[{"name":"","type":"uint8","internalType":"enum IDealV2.Status"}],"stateMutability":"view"},{"type":"function","name":"getWorker","inputs":[{"name":"onchainWorkerId","type":"bytes32","internalType":"bytes32"}],"outputs":[{"name":"","type":"tuple","internalType":"struct IWorkerManagerV2.Worker","components":[{"name":"offchainId","type":"bytes32","internalType":"bytes32"},{"name":"onchainId","type":"bytes32","internalType":"bytes32"},{"name":"peerId","type":"bytes32","internalType":"bytes32"},{"name":"provider","type":"address","internalType":"address"},{"name":"joinedEpoch","type":"uint256","internalType":"uint256"}]}],"stateMutability":"view"},{"type":"function","name":"getWorkerCount","inputs":[],"outputs":[{"name":"","type":"uint256","internalType":"uint256"}],"stateMutability":"view"},{"type":"function","name":"getWorkerCount","inputs":[{"name":"provider","type":"address","internalType":"address"}],"outputs":[{"name":"","type":"uint256","internalType":"uint256"}],"stateMutability":"view"},{"type":"function","name":"getWorkerIds","inputs":[],"outputs":[{"name":"","type":"bytes32[]","internalType":"bytes32[]"}],"stateMutability":"view"},{"type":"function","name":"initialize","inputs":[{"name":"diamond_","type":"address","internalType":"contract IDiamond"},{"name":"appCID_","type":"tuple","internalType":"struct CIDV1","components":[{"name":"prefixes","type":"bytes4","internalType":"bytes4"},{"name":"hash","type":"bytes32","internalType":"bytes32"}]},{"name":"paymentToken_","type":"address","internalType":"contract IERC20"},{"name":"targetWorkers_","type":"uint256","internalType":"uint256"},{"name":"resources_","type":"tuple[]","internalType":"struct IOfferV2.ResourceRequirement[]","components":[{"name":"resourceId","type":"bytes32","internalType":"bytes32"},{"name":"ty","type":"uint8","internalType":"enum IOfferV2.ResourceType"},{"name":"quantity","type":"uint256","internalType":"uint256"}]},{"name":"pricePerEpoch_","type":"uint256","internalType":"uint256"},{"name":"maxWorkersPerProvider_","type":"uint256","internalType":"uint256"},{"name":"providersAccessType_","type":"uint8","internalType":"enum IConfigV2.AccessTypeV2"},{"name":"providersAccessList_","type":"address[]","internalType":"address[]"},{"name":"protocolVersion_","type":"uint256","internalType":"uint256"},{"name":"owner_","type":"address","internalType":"address"}],"outputs":[],"stateMutability":"nonpayable"},{"type":"function","name":"isProviderAllowed","inputs":[{"name":"account","type":"address","internalType":"address"}],"outputs":[{"name":"","type":"bool","internalType":"bool"}],"stateMutability":"view"},{"type":"function","name":"maxWorkersPerProvider","inputs":[],"outputs":[{"name":"","type":"uint256","internalType":"uint256"}],"stateMutability":"view"},{"type":"function","name":"multicall","inputs":[{"name":"data","type":"bytes[]","internalType":"bytes[]"}],"outputs":[{"name":"results","type":"bytes[]","internalType":"bytes[]"}],"stateMutability":"nonpayable"},{"type":"function","name":"owner","inputs":[],"outputs":[{"name":"","type":"address","internalType":"address"}],"stateMutability":"view"},{"type":"function","name":"paymentToken","inputs":[],"outputs":[{"name":"","type":"address","internalType":"contract IERC20"}],"stateMutability":"view"},{"type":"function","name":"postCommitPeriod","inputs":[{"name":"snapshot","type":"tuple","internalType":"struct DealSnapshotV2.Cache","components":[{"name":"_initTotalBalance","type":"uint256","internalType":"uint256"},{"name":"_initLockedBalance","type":"uint256","internalType":"uint256"},{"name":"_initGapsEpochCount","type":"uint256","internalType":"uint256"},{"name":"_totalBalance","type":"uint256","internalType":"uint256"},{"name":"_lockedBalance","type":"uint256","internalType":"uint256"},{"name":"_gapsEpochCount","type":"uint256","internalType":"uint256"},{"name":"_currentEpoch","type":"uint256","internalType":"uint256"},{"name":"_snapshotEpoch","type":"uint256","internalType":"uint256"},{"name":"_isEnded","type":"bool","internalType":"bool"},{"name":"_pricePerEpoch","type":"uint256","internalType":"uint256"},{"name":"_activeWorkerCount","type":"uint256","internalType":"uint256"}]},{"name":"newWorkerCount","type":"uint256","internalType":"uint256"}],"outputs":[],"stateMutability":"nonpayable"},{"type":"function","name":"preCommitPeriod","inputs":[],"outputs":[{"name":"","type":"tuple","internalType":"struct DealSnapshotV2.Cache","components":[{"name":"_initTotalBalance","type":"uint256","internalType":"uint256"},{"name":"_initLockedBalance","type":"uint256","internalType":"uint256"},{"name":"_initGapsEpochCount","type":"uint256","internalType":"uint256"},{"name":"_totalBalance","type":"uint256","internalType":"uint256"},{"name":"_lockedBalance","type":"uint256","internalType":"uint256"},{"name":"_gapsEpochCount","type":"uint256","internalType":"uint256"},{"name":"_currentEpoch","type":"uint256","internalType":"uint256"},{"name":"_snapshotEpoch","type":"uint256","internalType":"uint256"},{"name":"_isEnded","type":"bool","internalType":"bool"},{"name":"_pricePerEpoch","type":"uint256","internalType":"uint256"},{"name":"_activeWorkerCount","type":"uint256","internalType":"uint256"}]}],"stateMutability":"view"},{"type":"function","name":"pricePerEpoch","inputs":[],"outputs":[{"name":"","type":"uint256","internalType":"uint256"}],"stateMutability":"view"},{"type":"function","name":"providersAccessType","inputs":[],"outputs":[{"name":"","type":"uint8","internalType":"enum IConfigV2.AccessTypeV2"}],"stateMutability":"view"},{"type":"function","name":"removeProviderFromAccessList","inputs":[{"name":"provider","type":"address","internalType":"address"}],"outputs":[],"stateMutability":"nonpayable"},{"type":"function","name":"removeStaleWorkers","inputs":[{"name":"onchainWorkerIds","type":"bytes32[]","internalType":"bytes32[]"}],"outputs":[],"stateMutability":"nonpayable"},{"type":"function","name":"removeWorker","inputs":[{"name":"onchainWorkerId","type":"bytes32","internalType":"bytes32"}],"outputs":[],"stateMutability":"nonpayable"},{"type":"function","name":"renounceOwnership","inputs":[],"outputs":[],"stateMutability":"nonpayable"},{"type":"function","name":"requiredResources","inputs":[],"outputs":[{"name":"","type":"tuple[]","internalType":"struct IOfferV2.ResourceRequirement[]","components":[{"name":"resourceId","type":"bytes32","internalType":"bytes32"},{"name":"ty","type":"uint8","internalType":"enum IOfferV2.ResourceType"},{"name":"quantity","type":"uint256","internalType":"uint256"}]}],"stateMutability":"view"},{"type":"function","name":"setActivatedWorkerCount","inputs":[{"name":"activatedWorkerCount_","type":"uint256","internalType":"uint256"}],"outputs":[],"stateMutability":"nonpayable"},{"type":"function","name":"setAppCID","inputs":[{"name":"appCID_","type":"tuple","internalType":"struct CIDV1","components":[{"name":"prefixes","type":"bytes4","internalType":"bytes4"},{"name":"hash","type":"bytes32","internalType":"bytes32"}]}],"outputs":[],"stateMutability":"nonpayable"},{"type":"function","name":"setDiamond","inputs":[{"name":"diamond_","type":"address","internalType":"contract IDiamond"}],"outputs":[],"stateMutability":"nonpayable"},{"type":"function","name":"setEndedEpoch","inputs":[{"name":"endedEpoch","type":"uint256","internalType":"uint256"}],"outputs":[],"stateMutability":"nonpayable"},{"type":"function","name":"setGapsEpochCount","inputs":[{"name":"gapsEpochCount","type":"uint256","internalType":"uint256"}],"outputs":[],"stateMutability":"nonpayable"},{"type":"function","name":"setLastCommitedEpoch","inputs":[{"name":"lastCommitedEpoch","type":"uint256","internalType":"uint256"}],"outputs":[],"stateMutability":"nonpayable"},{"type":"function","name":"setLockedBalance","inputs":[{"name":"lockedBalance","type":"uint256","internalType":"uint256"}],"outputs":[],"stateMutability":"nonpayable"},{"type":"function","name":"setMaxPaidEpoch","inputs":[{"name":"maxPaidEpoch","type":"uint256","internalType":"uint256"}],"outputs":[],"stateMutability":"nonpayable"},{"type":"function","name":"setPricePerEpoch","inputs":[{"name":"pricePerEpoch_","type":"uint256","internalType":"uint256"}],"outputs":[],"stateMutability":"nonpayable"},{"type":"function","name":"setTargetWorkers","inputs":[{"name":"targetWorkers_","type":"uint256","internalType":"uint256"}],"outputs":[],"stateMutability":"nonpayable"},{"type":"function","name":"setTotalBalance","inputs":[{"name":"totalBalance","type":"uint256","internalType":"uint256"}],"outputs":[],"stateMutability":"nonpayable"},{"type":"function","name":"setWorkerCount","inputs":[{"name":"workerCount_","type":"uint256","internalType":"uint256"}],"outputs":[],"stateMutability":"nonpayable"},{"type":"function","name":"stop","inputs":[],"outputs":[],"stateMutability":"nonpayable"},{"type":"function","name":"targetWorkers","inputs":[],"outputs":[{"name":"","type":"uint256","internalType":"uint256"}],"stateMutability":"view"},{"type":"function","name":"transferOwnership","inputs":[{"name":"newOwner","type":"address","internalType":"address"}],"outputs":[],"stateMutability":"nonpayable"},{"type":"function","name":"withdraw","inputs":[{"name":"amount","type":"uint256","internalType":"uint256"}],"outputs":[],"stateMutability":"nonpayable"},{"type":"function","name":"withdrawRewards","inputs":[{"name":"onchainWorkerId","type":"bytes32","internalType":"bytes32"}],"outputs":[],"stateMutability":"nonpayable"},{"type":"event","name":"AppCIDChanged","inputs":[{"name":"newAppCID","type":"tuple","indexed":false,"internalType":"struct CIDV1","components":[{"name":"prefixes","type":"bytes4","internalType":"bytes4"},{"name":"hash","type":"bytes32","internalType":"bytes32"}]}],"anonymous":false},{"type":"event","name":"DealEnded","inputs":[{"name":"endedEpoch","type":"uint256","indexed":false,"internalType":"uint256"}],"anonymous":false},{"type":"event","name":"Deposited","inputs":[{"name":"amount","type":"uint256","indexed":false,"internalType":"uint256"}],"anonymous":false},{"type":"event","name":"Initialized","inputs":[{"name":"version","type":"uint64","indexed":false,"internalType":"uint64"}],"anonymous":false},{"type":"event","name":"MaxPaidEpochUpdated","inputs":[{"name":"maxPaidEpoch","type":"uint256","indexed":false,"internalType":"uint256"}],"anonymous":false},{"type":"event","name":"OwnershipTransferred","inputs":[{"name":"previousOwner","type":"address","indexed":true,"internalType":"address"},{"name":"newOwner","type":"address","indexed":true,"internalType":"address"}],"anonymous":false},{"type":"event","name":"ProviderAddedToAccessList","inputs":[{"name":"provider","type":"address","indexed":false,"internalType":"address"}],"anonymous":false},{"type":"event","name":"ProviderRemovedFromAccessList","inputs":[{"name":"provider","type":"address","indexed":false,"internalType":"address"}],"anonymous":false},{"type":"event","name":"ProvidersAccessTypeChanged","inputs":[{"name":"newAccessType","type":"uint8","indexed":false,"internalType":"enum IConfigV2.AccessTypeV2"}],"anonymous":false},{"type":"event","name":"RewardWithdrawn","inputs":[{"name":"onchainWorkerId","type":"bytes32","indexed":false,"internalType":"bytes32"},{"name":"providerReward","type":"uint256","indexed":false,"internalType":"uint256"},{"name":"stakerReward","type":"uint256","indexed":false,"internalType":"uint256"}],"anonymous":false},{"type":"event","name":"Withdrawn","inputs":[{"name":"amount","type":"uint256","indexed":false,"internalType":"uint256"}],"anonymous":false},{"type":"event","name":"WorkerIdUpdated","inputs":[{"name":"onchainWorkerId","type":"bytes32","indexed":false,"internalType":"bytes32"},{"name":"offchainWorkerId","type":"bytes32","indexed":false,"internalType":"bytes32"}],"anonymous":false},{"type":"event","name":"WorkerJoined","inputs":[{"name":"peerId","type":"bytes32","indexed":true,"internalType":"bytes32"},{"name":"onchainId","type":"bytes32","indexed":false,"internalType":"bytes32"}],"anonymous":false},{"type":"event","name":"WorkerRemoved","inputs":[{"name":"peerId","type":"bytes32","indexed":true,"internalType":"bytes32"},{"name":"onchainId","type":"bytes32","indexed":false,"internalType":"bytes32"}],"anonymous":false},{"type":"error","name":"AddressEmptyCode","inputs":[{"name":"target","type":"address","internalType":"address"}]},{"type":"error","name":"FailedCall","inputs":[]},{"type":"error","name":"InvalidInitialization","inputs":[]},{"type":"error","name":"NotInitializing","inputs":[]},{"type":"error","name":"OwnableInvalidOwner","inputs":[{"name":"owner","type":"address","internalType":"address"}]},{"type":"error","name":"OwnableUnauthorizedAccount","inputs":[{"name":"account","type":"address","internalType":"address"}]},{"type":"error","name":"ReentrancyGuardReentrantCall","inputs":[]}],"bytecode":{"object":"0x6080806040523460d0577ff0c57e16840df040f15088dc2f81fe391c3923bec73e23a9662efc9c229c6a005460ff8160401c1660c1576002600160401b03196001600160401b03821601605c575b604051614ac690816100d58239f35b6001600160401b0319166001600160401b039081177ff0c57e16840df040f15088dc2f81fe391c3923bec73e23a9662efc9c229c6a005581527fc7f505b2f371ae2175ee4913f4499e1f2633a7b5936321eed1cdaeb6115181d290602090a15f80604d565b63f92ee8a960e01b5f5260045ffd5b5f80fdfe60806040526004361015610011575f80fd5b5f803560e01c80630346592714612c9957806304f1bd5614612c7457806307da68f514612a3d5780630ac25f1014612a1657806313883251146129ef57806313a2107d146129c8578063176345141461299d578063176474cf146128095780631af57b96146127d857806322ebd58a146127465780632943dcab1461271b5780632e1a7d4d146121a45780633013ce291461216e5780633116eeda1461214757806333ce93fe1461211c578063378b22e4146120f15780633d0bdad7146120ca5780633e8ae1ae1461209c578063444e6a5a14611f745780634d7599f114611f495780634e4d7af814611deb5780634e69d56014611dbd57806359c4afc014611d775780635fc8f59c14611d4c578063636fcefb14611bb95780636e5e47b114611b1f578063715018a614611ac957806373134c151461192657806376ed535a146118de5780637dfb6626146117e257806384608454146111d45780638a0c725b146111a95780638da5cb5b1461117357806393d2bafc146110d85780639bc668681461106e5780639c09e82d14611047578063aba93a1014610ff0578063ac9650d814610dd8578063ade0a20214610dad578063bc126f1f14610c47578063bd1926e014610c0a578063c9ed500814610be3578063cb7b88d11461098a578063cef74c8b1461058c578063d4773ff014610555578063e116568f1461052e578063e93c4f1514610507578063ed7b765314610331578063f2574c1b1461026f5763f2fde38b14610240575f80fd5b3461026c57602036600319011261026c5761026961025c612cbe565b610264613c32565b6135af565b80f35b80fd5b503461026c578060031936011261026c576040515f805160206146b18339815191528054808352908352602082019081907f17a21d30941a091c50cf295988f7232f281c42e3df40adbad57a37502bda8e9790855b81811061031b57505050826102da910383612d6a565b604051928392602084019060208552518091526040840192915b818110610302575050500390f35b82518452859450602093840193909201916001016102f4565b82548452602090930192600192830192016102c4565b503461026c57604036600319011261026c576004356024356002811015610503575f8051602061475183398151915261037460018060a01b038254163314613559565b61037c613300565b60058110156104ef57602085939261039960026004941415612fe2565b6103c16103a461360d565b606081016103b38982516131d4565b905261014081015190613845565b5460405163fd44f92160e01b815292839182906001600160a01b03165afa9081156104e45783916104b5575b505f80516020614891833981519152545f80516020614911833981519152546001600160a01b03918216929082169116803b156104b1578492836084926040519687958694630459093360e21b86526004860152602485015289604485015260648401525af180156104a65761048d575b507f2a89b2e3d580398d6dc2db5e0f336b52602bbaa51afa9bb5cdf59239cf0d2bea602083604051908152a180f35b8161049791612d6a565b6104a257815f61045e565b5080fd5b6040513d84823e3d90fd5b8480fd5b6104d7915060203d6020116104dd575b6104cf8183612d6a565b8101906131e1565b5f6103ed565b503d6104c5565b6040513d85823e3d90fd5b634e487b7160e01b85526021600452602485fd5b8280fd5b503461026c578060031936011261026c576020606061052461360d565b0151604051908152f35b503461026c57602036600319011261026c576004355f805160206147d18339815191525580f35b503461026c578060031936011261026c575061058860ff5f805160206147f1833981519152541660405191829182612d8d565b0390f35b503461026c57606036600319011261026c576105a6612cbe565b60203660231901126104a257604051602081016001600160401b03811182821017610976576040526024358152604435915f805160206147518339815191526105f960018060a01b038254163314613559565b610601613300565b6005811015610962576002610617911415612fe2565b5f805160206148118339815191528054905f805160206147d183398151915254821015610924578587525f805160206148f183398151915260205260ff6040882054166108e9578587525f805160206148f183398151915260205260408720600160ff1982541617905560018060a01b0384165f525f8051602061469183398151915260205260405f20545f80516020614851833981519152548110156108a55760018101809111610891576001600160a01b0385165f9081525f8051602061469183398151915260205260409020556001820191821061087d575554604051630ecce30160e31b815290602090829060049082906001600160a01b03165afa801561087257859061083b575b600491508351926040519361073885612d4f565b878552602080860191825260408087018981526001600160a01b03948516606089019081526080890196875289518c525f80516020614951833981519152909352908a20965187559151600187015590516002860155516003850180546001600160a01b031916919092161790555191015580516107c3905f805160206146b18339815191526144de565b156107f75760207f9cd57cfa2e12a37215cabc6897396db265419bd7f06adad06227a2b163ecd6a39151604051908152a280f35b60405162461bcd60e51b815260206004820152601c60248201527b11985a5b1959081d1bc8185919081ddbdc9ad95c881d1bc81b1a5cdd60221b6044820152606490fd5b506020813d60201161086a575b8161085560209383612d6a565b810103126108665760049051610724565b5f80fd5b3d9150610848565b6040513d87823e3d90fd5b634e487b7160e01b87526011600452602487fd5b634e487b7160e01b88526011600452602488fd5b606460405162461bcd60e51b815260206004820152602060248201527f4d617820776f726b657273207065722070726f766964657220726561636865646044820152fd5b60405162461bcd60e51b81526020600482015260136024820152721419595c925908185b1c9958591e481d5cd959606a1b6044820152606490fd5b60405162461bcd60e51b815260206004820152601660248201527515185c99d95d081ddbdc9ad95c9cc81c995858da195960521b6044820152606490fd5b634e487b7160e01b86526021600452602486fd5b634e487b7160e01b84526041600452602484fd5b503461026c57602036600319011261026c576004356001600160401b0381116104a2576109bb903690600401612cd4565b5f80516020614751833981519152546040516307dc0d1d60e41b815290602090829060049082906001600160a01b03165afa908115610bd8578491610b9a575b506001600160a01b03163303610b5657610a1361360d565b610a1b613300565b60058110158061096257600282148015610b4c575b818115610b3c575b5015610afc576104ef578015908115610af1575b50610a7d575b50825b818110610a60578380f35b80610a77610a716001938587613549565b35614087565b01610a55565b60a0015115610a8c575f610a52565b60405162461bcd60e51b815260206004820152603760248201527f4174206c65617374203120756e706169642065706f636820726571756972656460448201527620746f20636f6e7369646572206465616c207374616c6560481b6064820152608490fd5b60039150145f610a4c565b60405162461bcd60e51b815260206004820152601860248201527715dbdc9ad95c9cc81a5b881919585b08185c99481c185a5960421b6044820152606490fd5b9050610962576003821481610a38565b5050848115610a30565b606460405162461bcd60e51b815260206004820152602060248201527f4f6e6c79206f7261636c652063616e2063616c6c2074686973206d6574686f646044820152fd5b90506020813d602011610bd0575b81610bb560209383612d6a565b81010312610bcc57610bc690612da0565b5f6109fb565b8380fd5b3d9150610ba8565b6040513d86823e3d90fd5b503461026c57602036600319011261026c576004355f805160206149718339815191525580f35b503461026c57602036600319011261026c5760ff6040826020935060043581525f805160206148f183398151915284522054166040519015158152f35b503461026c57602036600319011261026c57600435610c6581613495565b5f8051602061475183398151915260018060a01b0390541690608060408201516024604051809581936321b9a09560e21b835260048301525afa918215610bd8578492610d7c575b50606001516001600160a01b03163314908115610d65575b508015610d45575b15610cdb5761026990614087565b60405162461bcd60e51b815260206004820152603c60248201527f4f6e6c792070726f76696465722c2070656572206f776e6572206f722064656160448201527b1b081bdddb995c8818d85b8818d85b1b081d1a1a5cc81b595d1a1bd960221b6064820152608490fd5b505f80516020614911833981519152546001600160a01b03163314610ccd565b606001516001600160a01b0316331490505f610cc5565b610d9f91925060803d608011610da6575b610d978183612d6a565b810190612ed2565b905f610cad565b503d610d8d565b503461026c578060031936011261026c575060205f80516020614a1183398151915254604051908152f35b503461026c57602036600319011261026c576004356001600160401b0381116104a257610e09903690600401612cd4565b906020604051610e198282612d6a565b848152818101601f198301368237610e30856132e9565b93610e3e6040519586612d6a565b858552601f19610e4d876132e9565b01875b818110610fe157505036819003601e190190875b87811015610f6957888160051b830135848112156104a25783018035906001600160401b03821161050357880181360381136105035786610ecf84938b6040519382859383850197883783018281018881528e519283915e010185815203601f198101835282612d6a565b5190305af4893d15610f5657503d906001600160401b038211610f425791610f206001928c98979695948a601f19601f8401160191610f116040519384612d6a565b82523d8a8c84013e5b3061445f565b610f2a828b613521565b52610f35818a613521565b5001909192939450610e64565b634e487b7160e01b8b52604160045260248bfd5b9594939291610f20600192606090610f1a565b88868860405191808301818452825180915260408401918060408360051b870101940192865b838810610f9c5786860387f35b9091929394838080600193603f198b8203018752818a518051918291828552018484015e86838284010152601f80199101160101970193019701969093929193610f8f565b60608782018701528501610e50565b503461026c57602036600319011261026c5760a061100f600435613495565b608060405191805183526020810151602084015260408101516040840152600180851b03606082015116606084015201516080820152f35b503461026c57602036600319011261026c576004355f805160206149b18339815191525580f35b503461026c578060031936011261026c57611087612e5b565b50506040805161109681612d34565b63ffffffff60e01b5f805160206147718339815191525460e01b169081815260205f805160206149f18339815191525491019081528251918252516020820152f35b503461026c57366003190161018081126104a2576101601361026c5760405161110081612d04565b6004358152602435602082015260443560408201526064356060820152608435608082015260a43560a082015260c43560c082015260e43560e082015261010435908115158203610503576102699161010082015261012435610120820152610144356101408201526101643590613845565b503461026c578060031936011261026c57505f80516020614911833981519152546040516001600160a01b039091168152602090f35b503461026c578060031936011261026c575060205f8051602061485183398151915254604051908152f35b503461026c5761018036600319011261026c576111ef612cbe565b60403660231901126104a257606435906001600160a01b03821682036105035760a4356001600160401b038111610bcc5736602382011215610bcc576004810135906001600160401b0382116104b15736602460608402830101116104b1576101043560038110156117de57610124356001600160401b0381116117da5761127b903690600401612cd4565b610164359690949193906001600160a01b03881688036117d6575f805160206149d183398151915254604081901c60ff161598906001600160401b038116801590816117ce575b60011490816117c4575b1590816117bb575b506117ac576001600160401b031981166001175f805160206149d18339815191525561132291908a611784575b5061130a614434565b611312614434565b61131a614434565b610264614434565b61132a614434565b5f8051602061475183398151915296611341614548565b5f805160206148b18339815191525587546001600160a01b039182166001600160a01b03199182161789555f8051602061489183398151915280549390921692169190911790556084355f805160206147d183398151915255600160401b8211611770575f8051602061479183398151915254825f80516020614791833981519152558083106116e3575b505f80516020614791833981519152885292939287905f80516020614a51833981519152906024015b838310611698575050505061143b9060c4355f805160206146f18339815191525560e4355f80516020614851833981519152555f805160206147f18339815191526133ed565b5f805160206147b183398151915290855b8181106116535750506024359150506001600160e01b031981168103610bcc5760e01c63ffffffff195f805160206147718339815191525416175f80516020614771833981519152556044355f805160206149f1833981519152558260018060a01b03825416803b156104a257816040518092634492bd6b60e01b82528183816114da6024600483016139aa565b03925af180156104a65761163e575b505060206004915f805160206148318339815191526040518061150d6024826139aa565b0390a1611518614434565b610144355f8051602061471183398151915255611533614434565b54604051630ecce30160e31b815292839182906001600160a01b03165afa9081156104e457839161160c575b505f1981019081116115f8575f805160206146d18339815191525560017f75428af146c22440e807f0e095d3de8e8b2c98df829dea65bcfe27a85a56daa0556115a55780f35b60ff60401b195f805160206149d183398151915254165f805160206149d1833981519152557fc7f505b2f371ae2175ee4913f4499e1f2633a7b5936321eed1cdaeb6115181d2602060405160018152a180f35b634e487b7160e01b83526011600452602483fd5b90506020813d602011611636575b8161162760209383612d6a565b8101031261086657515f61155f565b3d915061161a565b8161164891612d6a565b61050357825f6114e9565b61165e818386613549565b35906001600160a01b038216820361169457600191828060a01b03165f528360205260405f208260ff198254161790550161144c565b8780fd5b8096959635825560018201908a60208201359160068310156104a2576001936003936060935060ff8019835416911617905560408101356002860155019201920191909594956113f5565b8060030290600382040361175c5782600302600381048403611748575f805160206147918339815191528a525f80516020614a5183398151915291820191015b81811061173057506113cc565b6003908a81558a60018201558a600282015501611723565b634e487b7160e01b8a52601160045260248afd5b634e487b7160e01b89526011600452602489fd5b634e487b7160e01b88526041600452602488fd5b6001600160481b0319166001600160401b01175f805160206149d1833981519152555f611301565b63f92ee8a960e01b8b5260048bfd5b9050155f6112d4565b303b1591506112cc565b8b91506112c2565b8880fd5b8680fd5b8580fd5b503461026c57602036600319011261026c5760043561180081613495565b905f8051602061475183398151915260018060a01b03905416608060408401516024604051809481936321b9a09560e21b835260048301525afa8015610bd8576102699361186d9286926118bd575b50606001516001600160a01b031633149081156118a6575b50612f27565b61189a61187982613495565b61188161360d565b928184925190606060018060a01b039101511691613c65565b61014081015190613845565b606001516001600160a01b0316331490505f611867565b6118d791925060803d608011610da657610d978183612d6a565b905f61184f565b503461026c57602036600319011261026c576118f8612cbe565b5f8051602061475183398151915280546001600160a01b0319166001600160a01b0390921691909117905580f35b503461026c57602036600319011261026c57611940612cbe565b5f80516020614751833981519152546040516302984ebd60e31b815290602090829060049082906001600160a01b03165afa9081156104e4578391611a8f575b506001600160a01b031633148015611a6f575b61199c90612db4565b60ff5f805160206147f183398151915254166003811015611a5b5715611a18576001600160a01b03165f8181525f805160206147b18339815191526020908152604091829020805460ff1916600117905590519182527f4c26e4de691e265be6cf03e639754839907bf74687cd524a6734851331527ffd91a180f35b60405162461bcd60e51b815260206004820152601b60248201527a436f6e6669673a206163636573732074797065206973204e4f4e4560281b6044820152606490fd5b634e487b7160e01b83526021600452602483fd5b505f80516020614911833981519152546001600160a01b03163314611993565b90506020813d602011611ac1575b81611aaa60209383612d6a565b8101031261050357611abb90612da0565b5f611980565b3d9150611a9d565b503461026c578060031936011261026c57611ae2613c32565b5f8051602061491183398151915280546001600160a01b0319811690915581906001600160a01b03165f805160206148718339815191528280a380f35b503461026c578060031936011261026c57611b38613405565b50610160611b4461360d565b61014060405191805183526020810151602084015260408101516040840152606081015160608401526080810151608084015260a081015160a084015260c081015160c084015260e081015160e084015261010081015115156101008401526101208101516101208401520151610140820152f35b503461026c57602036600319011261026c5760043560038110156104a2575f80516020614751833981519152546040516302984ebd60e31b815290602090829060049082906001600160a01b03165afa9081156104e4578391611d12575b506001600160a01b031633148015611cf2575b611c3390612db4565b60ff5f805160206147f183398151915254166003811015611a5b578114611ca257611c9c81611c907f1f5a251428f76335a835fcae94ab6a9bcf09ac33bd3c782eb6a81bdf878a7393935f805160206147f18339815191526133ed565b60405191829182612d8d565b0390a180f35b60405162461bcd60e51b815260206004820152602260248201527f436f6e6669673a20616363657373207479706520697320616c72656164792073604482015261195d60f21b6064820152608490fd5b505f80516020614911833981519152546001600160a01b03163314611c2a565b90506020813d602011611d44575b81611d2d60209383612d6a565b8101031261050357611d3e90612da0565b5f611c17565b3d9150611d20565b503461026c578060031936011261026c575060205f805160206146f183398151915254604051908152f35b503461026c57602036600319011261026c57611d91612cbe565b905060018060a01b03165f525f80516020614691833981519152602052602060405f2054604051908152f35b503461026c578060031936011261026c57611dd6613300565b604051906005811015611a5b57602092508152f35b503461026c578060031936011261026c575f8051602061479183398151915254611e14816132e9565b90611e226040519283612d6a565b8082525f805160206147918339815191528352602082019083905f80516020614a51833981519152835b828410611ecb57505050506040519160208301906020845251809152604083019190845b818610611e7d5784840385f35b90919283518051825260208101516006811015611eb757826040602093606093856001970152015160408201520194019501949190611e70565b634e487b7160e01b84526021600452602484fd5b604051606081016001600160401b03811182821017611f35576040528254815260ff6001840154166006811015611f21576001928260209283600395015260028601546040820152815201920193019290611e4c565b634e487b7160e01b89526021600452602489fd5b634e487b7160e01b89526041600452602489fd5b503461026c578060031936011261026c575060205f8051602061481183398151915254604051908152f35b503461026c57602036600319011261026c57611f8e612cbe565b5f80516020614751833981519152546040516302984ebd60e31b815290602090829060049082906001600160a01b03165afa9081156104e457839161204f575b505f80516020614931833981519152916020916001600160a01b03163314801561202f575b611ffc90612db4565b6001600160a01b03165f8181525f805160206147b18339815191528352604090819020805460ff1916905551908152a180f35b505f80516020614911833981519152546001600160a01b03163314611ff3565b90506020813d602011612094575b8161206a60209383612d6a565b81010312610503575f805160206149318339815191529161208c602092612da0565b915091611fce565b3d915061205d565b503461026c57602036600319011261026c5760206120c06120bb612cbe565b613259565b6040519015158152f35b503461026c57602036600319011261026c576004355f805160206148118339815191525580f35b503461026c578060031936011261026c575060205f80516020614a7183398151915254604051908152f35b503461026c578060031936011261026c575060205f8051602061471183398151915254604051908152f35b503461026c57602036600319011261026c576004355f805160206148d18339815191525580f35b503461026c578060031936011261026c57505f80516020614891833981519152546040516001600160a01b039091168152602090f35b503461026c57602036600319011261026c575f8051602061475183398151915280546040516302984ebd60e31b8152600480359392602091839182906001600160a01b03165afa908115610bd85784916126e1575b506001600160a01b0316331480156126c1575b61221590612db4565b5f805160206149918339815191525c6126b25760015f805160206149918339815191525d5f8051602061497183398151915261224f61360d565b82546040516372ea4f2360e01b815290602090829060049082906001600160a01b03165afa9081156126a7578691612673575b5061229f6122b4915f805160206146f183398151915254906131b4565b5f805160206147d183398151915254906131b4565b606082016122c38682516131c7565b80915261010083015115158061266a575b156125f157505060c08101515f80516020614a318339815191525484546040516372ea4f2360e01b81529190602090839060049082906001600160a01b03165afa9081156125e65788916125b0575b61232d92506131d4565b10156125475784926123576020928461234988600497546131c7565b905561014081015190613845565b5460405163fd44f92160e01b815292839182906001600160a01b03165afa9081156104a6578291612528575b505f80516020614891833981519152545f8051602061491183398151915280546001600160a01b039384169391929082169116833b156104b1576040516388081fcb60e01b8152918591839182916123e0918a9160048501613200565b038183875af1908115610bd8578491612513575b50505f805160206148918339815191525490546001600160a01b039182169116823b15610bcc576040516312bc368360e31b815291849183918291612440918991339160048601613228565b038183865af19081156104e45783916124fe575b50505f80516020614891833981519152546001600160a01b031690803b156105035783839161249b938360405180968195829462b13fab60e11b8452339060048501613200565b03925af180156104a6576124e9575b507f430648de173157e069201c943adb2d4e340e7cf5b27b1b09c9cb852f03d63b56602083604051908152a1805f805160206149918339815191525d80f35b816124f391612d6a565b6104a257815f6124aa565b8161250891612d6a565b6104a257815f612454565b8161251d91612d6a565b61050357825f6123f4565b612541915060203d6020116104dd576104cf8183612d6a565b5f612383565b60405162461bcd60e51b815260206004820152603b60248201527f43616e2774207769746864726177206265666f7265206d696e4465616c44657060448201527a1bdcda5d1959115c1bd8da1cc818599d195c881919585b08195b99602a1b6064820152608490fd5b90506020823d6020116125de575b816125cb60209383612d6a565b810103126108665761232d915190612323565b3d91506125be565b6040513d8a823e3d90fd5b90919392501061260a576020600491612357869461189a565b60405162461bcd60e51b815260206004820152603260248201527f467265652062616c616e6365206e6565647320746f20636f766572206d696e4460448201527165616c4465706f736974656445706f63687360701b6064820152608490fd5b508181106122d4565b90506020813d60201161269f575b8161268e60209383612d6a565b81010312610866575161229f612282565b3d9150612681565b6040513d88823e3d90fd5b633ee5aeb560e01b8352600483fd5b505f80516020614911833981519152546001600160a01b0316331461220c565b90506020813d602011612713575b816126fc60209383612d6a565b81010312610bcc5761270d90612da0565b5f6121f9565b3d91506126ef565b503461026c578060031936011261026c575060205f805160206147d183398151915254604051908152f35b503461026c57604036600319011261026c5760043561276481613495565b905f8051602061475183398151915260018060a01b03905416608060408401516024604051809481936321b9a09560e21b835260048301525afa8015610bd857610269936127cf9286926118bd5750606001516001600160a01b031633149081156118a65750612f27565b6024359061301e565b503461026c57602036600319011261026c5760406127f7600435612e73565b60208251918051835201516020820152f35b503461026c57604036600319011261026c575f8051602061475183398151915280546040516302984ebd60e31b8152839291602090829060049082906001600160a01b03165afa9081156104e4578391612963575b506001600160a01b031633148015612943575b61287a90612db4565b6004356001600160e01b03198116810361293f5760e01c63ffffffff195f805160206147718339815191525416175f80516020614771833981519152556024355f805160206149f18339815191525560018060a01b03905416803b1561293c57816040518092634492bd6b60e01b82528183816128fa60048083016139aa565b03925af180156104a657612927575b505f8051602061483183398151915260405180611c9c6004826139aa565b8161293191612d6a565b61026c57805f612909565b50fd5b5050fd5b505f80516020614911833981519152546001600160a01b03163314612871565b90506020813d602011612995575b8161297e60209383612d6a565b8101031261293f5761298f90612da0565b5f61285e565b3d9150612971565b503461026c578060031936011261026c575060205f805160206148b183398151915254604051908152f35b503461026c57602036600319011261026c576004355f805160206146f18339815191525580f35b503461026c57602036600319011261026c576004355f80516020614a318339815191525580f35b503461026c57602036600319011261026c576004355f805160206146d18339815191525580f35b5034610866575f366003190112610866575f8051602061475183398151915280546040516302984ebd60e31b815290602090829060049082906001600160a01b03165afa908115612b9d575f91612c3a575b506001600160a01b031633148015612c1a575b612aab90612db4565b612ab3613300565b6005811015612c06576002612ac9911415612e1a565b612ad461189a61360d565b8054604051630ecce30160e31b815290602090829060049082906001600160a01b03165afa908115612b9d575f91612bd3575b506020817f3ad16bb58712aa329948d76146b096a4f4b85e024d99473dc50bcd358811b86c925f80516020614a718339815191525411612ba8575b805f80516020614a3183398151915255604051908152a1546001600160a01b0316803b15610866575f809160046040518094819362e481ad60e21b83525af18015612b9d57612b8f575080f35b612b9b91505f90612d6a565b005b6040513d5f823e3d90fd5b805f80516020614a71833981519152555f8051602061473183398151915282604051838152a1612b42565b90506020813d602011612bfe575b81612bee60209383612d6a565b8101031261086657516020612b07565b3d9150612be1565b634e487b7160e01b5f52602160045260245ffd5b505f80516020614911833981519152546001600160a01b03163314612aa2565b90506020813d602011612c6c575b81612c5560209383612d6a565b8101031261086657612c6690612da0565b5f612a8f565b3d9150612c48565b34610866576020366003190112610866576004355f80516020614a7183398151915255005b34610866576020366003190112610866576004355f80516020614a1183398151915255005b600435906001600160a01b038216820361086657565b9181601f84011215610866578235916001600160401b038311610866576020808501948460051b01011161086657565b61016081019081106001600160401b03821117612d2057604052565b634e487b7160e01b5f52604160045260245ffd5b604081019081106001600160401b03821117612d2057604052565b60a081019081106001600160401b03821117612d2057604052565b601f909101601f19168101906001600160401b03821190821017612d2057604052565b919060208301926003821015612c065752565b51906001600160a01b038216820361086657565b15612dbb57565b60405162461bcd60e51b815260206004820152603160248201527f4f6e6c7920566f646f706164206f72204465616c204f776e65722063616e206360448201527030b636103a3434b990333ab731ba34b7b760791b6064820152608490fd5b15612e2157565b60405162461bcd60e51b81526020600482015260126024820152714465616c206973206e6f742061637469766560701b6044820152606490fd5b60405190612e6882612d34565b5f6020838281520152565b604051612e7f81612d34565b5f81525f602082015250612e9161360d565b90612e9b81613495565b5115612eb85781612eaf612eb59383613a6d565b91613b58565b90565b5050604051612ec681612d34565b5f81525f602082015290565b908160809103126108665760405190608082016001600160401b03811183821017612d2057612f1f9160609160405280518452602081015160208501526040810151604085015201612da0565b606082015290565b15612f2e57565b60405162461bcd60e51b815260206004820152603060248201527f4f6e6c792070726f7669646572206f722070656572206f776e65722063616e2060448201526f18d85b1b081d1a1a5cc81b595d1a1bd960821b6064820152608490fd5b15612f9357565b60405162461bcd60e51b815260206004820152602160248201527f4f6666636861696e20776f726b65722069642063616e277420626520656d70746044820152607960f81b6064820152608490fd5b15612fe957565b60405162461bcd60e51b815260206004820152600d60248201526c1119585b081a5cc8195b991959609a1b6044820152606490fd5b8115159061302b82612f8c565b61303361360d565b61014081015192825f525f8051602061495183398151915260205261305b60405f2091612f8c565b805415613172575b8481557fcf79e0e27c8c35d39bd9b727f35e6f79573597f660c88baf483fc1511c49203c60408051858152876020820152a160025f80516020614a1183398151915254910154936130b48284613845565b6130bc613300565b6005811015612c0657806130d660026130dd931415612fe2565b1515612e1a565b1461316c57815f525f80516020614671833981519152602052600160a060405f209260e0810151845501519101555f8051602061475183398151915260018060a01b03905416803b15610866575f9283606492604051968795869463852cdb0160e01b86526004860152602485015260448401525af18015612b9d576131605750565b5f61316a91612d6a565b565b50505050565b5f80516020614a11833981519152545f1981146131a0576001015f80516020614a1183398151915255613063565b634e487b7160e01b5f52601160045260245ffd5b818102929181159184041417156131a057565b919082039182116131a057565b919082018092116131a057565b9081602091031261086657516001600160a01b03811681036108665790565b6001600160a01b0391821681529116602082015260408101919091525f606082015260800190565b6001600160a01b0391821681529181166020830152909116604082015260608101919091525f608082015260a00190565b60ff5f805160206147f183398151915254166003811015612c065780156132e257600181146132b85760021461328e57505f90565b6001600160a01b03165f9081525f805160206147b1833981519152602052604090205460ff161590565b506001600160a01b03165f9081525f805160206147b1833981519152602052604090205460ff1690565b5050600190565b6001600160401b038111612d205760051b60200190565b61330861360d565b6101008101516133e7575f80516020614a718339815191525480151590816133d9575b506133d457606001515f80516020614751833981519152546040516372ea4f2360e01b815290602090829060049082906001600160a01b03165afa908115612b9d575f916133a0575b5061229f613391915f805160206146f183398151915254906131b4565b1161339b57600190565b600490565b90506020813d6020116133cc575b816133bb60209383612d6a565b81010312610866575161229f613374565b3d91506133ae565b505f90565b905060c0820151115f61332b565b50600290565b906003811015612c065760ff80198354169116179055565b6040519061341282612d04565b5f610140838281528260208201528260408201528260608201528260808201528260a08201528260c08201528260e082015282610100820152826101208201520152565b1561345d57565b60405162461bcd60e51b815260206004820152601060248201526f15dbdc9ad95c881b9bdd08199bdd5b9960821b6044820152606490fd5b5f60806040516134a481612d4f565b82815282602082015282604082015282606082015201525f525f8051602061495183398151915260205260405f20612eb5604051916134e283612d4f565b805483526001810154602084018190526002820154604085015260038201546001600160a01b0316606085015260049091015460808401521515613456565b80518210156135355760209160051b010190565b634e487b7160e01b5f52603260045260245ffd5b91908110156135355760051b0190565b1561356057565b60405162461bcd60e51b815260206004820152602160248201527f436f6e6669673a2063616c6c6572206973206e6f7420746865204469616d6f6e6044820152601960fa1b6064820152608490fd5b6001600160a01b031680156135fa575f8051602061491183398151915280546001600160a01b0319811683179091556001600160a01b03165f805160206148718339815191525f80a3565b631e4fbdf760e01b5f525f60045260245ffd5b600490613618613405565b505f8051602061475183398151915254604051630ecce30160e31b8152925f8051602061497183398151915291602091859182906001600160a01b03165afa928315612b9d575f93613811575b505f1983018381116131a057925f80516020614a3183398151915254935f9480613805575b505f80516020614a1183398151915254945f805160206146f183398151915254936136b3613405565b5054925f805160206148d1833981519152545f805160206149b18339815191525490604051956136e287612d04565b8087528160208801528260408801526060870152608086015260a085015260c08401528160e08401521515610100830152826101208301528461014083015281945f805160206146d18339815191525492838311156137fd57505f80516020614a718339815191525493848311156137c95784841061377d57505061377991925061377360a08601938451926131c7565b906131d4565b9052565b906137926137979261379261377996886131c7565b6131b4565b606086016137a68282516131c7565b90526137b7608087019182516131d4565b905261377360a08601938451926131c7565b90926137dd945061379290613792936131c7565b606083016137ec8282516131c7565b9052613779608084019182516131d4565b955050505050565b6001955090505f61368a565b9092506020813d60201161383d575b8161382d60209383612d6a565b810103126108665751915f613665565b3d9150613820565b905f805160206149718339815191528251606084019182518092036139a2575b50506020830151608084015180910361398d575b50604083015160a0840151809103613978575b5060e083015192610100810151156138b3575b5050505f805160206146d183398151915255565b8215908161392d5750506138d79051915f805160206146f1833981519152546131b4565b8015613919576138f96020915f805160206147318339815191529304846131d4565b805f80516020614a7183398151915255604051908152a15b5f808061389f565b634e487b7160e01b5f52601260045260245ffd5b610140015115159250905081613970575b5015613911575f5f80516020614a71833981519152555f8051602061473183398151915260206040515f8152a1613911565b90505f61393e565b5f805160206149b1833981519152555f61388c565b5f805160206148d1833981519152555f613879565b555f80613865565b60408101929180356001600160e01b0319811690819003610866578252602090810135910152565b908161016091031261086657604051906139eb82612d04565b8051906006821015610866576101409183526020810151602084015260408101516040840152606081015160608401526080810151608084015260a081015160a084015260c081015160c0840152613a4560e08201612da0565b60e0840152610100810151610100840152610120810151610120840152015161014082015290565b9060e00151905f805160206147518339815191529060ff5f805160206147f183398151915254166003811015612c0657600114613b5357613ab06101609161431e565b9154604051631de5608360e21b81526004810193909352829060249082906001600160a01b03165afa908115612b9d575f91613b24575b5061012081015180613b1e575060a00180515f1981019081116131a0578211613b0e575090565b515f198101915081116131a05790565b91505090565b613b4691506101603d8111613b4c575b613b3e8183612d6a565b8101906139d2565b5f613ae7565b503d613b34565b505090565b91604051613b6581612d34565b5f81525f602082015250825f525f80516020614671833981519152602052613b9060405f209361439a565b92805491828110613c215760a0613bac613bb8946001936131c7565b940151910154906131c7565b808210613c1257613bf2613beb613bd66298968093613bfa956131c7565b5f805160206146f183398151915254906131b4565b93846131b4565b0480926131c7565b9060405191613c0883612d34565b8252602082015290565b505050604051612ec681612d34565b5050505050604051612ec681612d34565b5f80516020614911833981519152546001600160a01b03163303613c5257565b63118cdaa760e01b5f523360045260245ffd5b9291905f901561316c57613c798385613a6d565b91613c85838587613b58565b92835194613c9960208601968751906131d4565b91821561407d57613cd591608091895f525f8051602061467183398151915260205260405f20908155600160a0830151910155019182516131c7565b90525f80516020614751833981519152805460405163fd44f92160e01b81529190602090839060049082906001600160a01b03165afa918215612b9d575f9261405c575b5060018060a01b035f805160206148918339815191525416928551613f24575b508551613d82575b50505050916060917fc512f9d0bb2627096491f1074af42a5032fe36ef5dcae7c216cfc34f6ea474d6935190519060405192835260208301526040820152a1565b54604051638da5cb5b60e01b81529190602090839060049082906001600160a01b03165afa918215610bd8578492613ee8575b505f80516020614911833981519152805487516001600160a01b039384169493909116843b156117da576040516388081fcb60e01b815291879183918291613e0291908a60048501613200565b038183885af180156126a757908691613ed3575b5050548651906001600160a01b0316833b156117de57828691613e4e60405194859384936312bc368360e31b85528a60048601613228565b038183875af1801561087257908591613ebe575b5050855192823b156104b15791613e9393918580946040519687958694859362b13fab60e11b855260048501613200565b03925af180156104a657613ea9575b8080613d41565b613eb4828092612d6a565b61026c5780613ea2565b81613ec891612d6a565b610bcc57835f613e62565b81613edd91612d6a565b6104b157845f613e16565b9091506020813d602011613f1c575b81613f0460209383612d6a565b81010312610bcc57613f1590612da0565b905f613db5565b3d9150613ef7565b5f80516020614911833981519152805487516001600160a01b03868116939216833b15610866576040516388081fcb60e01b8152915f9183918291613f6e91908c60048501613200565b038183875af18015612b9d57614047575b50548751906001600160a01b0316823b1561169457838891613fb660405194859384936312bc368360e31b85528c60048601613228565b038183865af1801561403c57908791614027575b5050865191813b156117da57918691613ffa938360405180968195829462b13fab60e11b84528c60048501613200565b03925af1801561087257908591614012575b50613d39565b8161401c91612d6a565b610bcc57835f61400c565b8161403191612d6a565b6117de57855f613fca565b6040513d89823e3d90fd5b6140549197505f90612d6a565b5f955f613f7f565b61407691925060203d6020116104dd576104cf8183612d6a565b905f613d19565b5050505050505050565b61409081613495565b9061409961360d565b6140b58184515f95606060018060a01b03910151169085613c65565b5f80516020614811833981519152825f525f8051602061495183398151915260205260405f20604051906140e882612d4f565b8054825260018101546020830181905260028201546040840190815260038301546001600160a01b03166060850190815260049093015460808501529390614131901515613456565b61413b81546144bd565b9055516001600160a01b03165f9081525f8051602061469183398151915260205260409020805461416b906144bd565b9055516142f3575b5190815f525f805160206148f183398151915260205260405f2060ff198154169055825f525f805160206149518339815191526020525f60046040822082815582600182015582600282015582600382015501556141de835f805160206146b18339815191526145ab565b156142a457614226917f2931f8975c0ce3cdf8ebe0cac36f06048736d46d6df66ac21cfe717b9ee710066020604051868152a25f80516020614a118339815191525490613845565b5f80516020614751833981519152546001600160a01b0316803b15610866575f809160246040518094819363ee22bfb760e01b83528760048401525af18015612b9d5761428f575b5081525f805160206146718339815191526020526001604082208281550155565b61429c9192505f90612d6a565b5f905f61426e565b60405162461bcd60e51b815260206004820152602160248201527f4661696c656420746f2072656d6f766520776f726b65722066726f6d206c69736044820152601d60fa1b6064820152608490fd5b61430a5f80516020614a11833981519152546144bd565b5f80516020614a1183398151915255614173565b61432790613495565b5f805160206147518339815191525460409182015191516321b9a09560e21b81526004810192909252608090829060249082906001600160a01b03165afa8015612b9d576020915f9161437b575b50015190565b614394915060803d608011610da657610d978183612d6a565b5f614375565b5f805160206147518339815191529060ff5f805160206147f183398151915254166003811015612c065760011461442e576143d76101609161431e565b9154604051631de5608360e21b81526004810193909352829060249082906001600160a01b03165afa8015612b9d5760c0915f916144155750015190565b61439491506101603d8111613b4c57613b3e8183612d6a565b50505f90565b60ff5f805160206149d18339815191525460401c161561445057565b631afcd79f60e31b5f5260045ffd5b90614483575080511561447457805190602001fd5b63d6bda27560e01b5f5260045ffd5b815115806144b4575b614494575090565b639996b31560e01b5f9081526001600160a01b0391909116600452602490fd5b50803b1561448c565b80156131a0575f190190565b8054821015613535575f5260205f2001905f90565b6001810190825f528160205260405f2054155f14614541578054600160401b811015612d205761452e6145188260018794018555846144c9565b819391549060031b91821b915f19901b19161790565b905554915f5260205260405f2055600190565b5050505f90565b60643b156145a75760405163a3b1b31d60e01b815260208160048160645afa908115612b9d575f91614578575090565b90506020813d60201161459f575b8161459360209383612d6a565b81010312610866575190565b3d9150614586565b4390565b906001820191815f528260205260405f20548015155f14614668575f1981018181116131a05782545f198101919082116131a057818103614633575b5050508054801561461f575f19019061460082826144c9565b8154905f199060031b1b19169055555f526020525f6040812055600190565b634e487b7160e01b5f52603160045260245ffd5b61465361464361451893866144c9565b90549060031b1c928392866144c9565b90555f528360205260405f20555f80806145e7565b505050505f9056fe75428af146c22440e807f0e095d3de8e8b2c98df829dea65bcfe27a85a56da9d5def38ecf5a0fa5e33a9a271693efbf3a526ddb1f7ef0ec33f3c6d26e39ee7165def38ecf5a0fa5e33a9a271693efbf3a526ddb1f7ef0ec33f3c6d26e39ee71975428af146c22440e807f0e095d3de8e8b2c98df829dea65bcfe27a85a56da9c136dd5357dcf392c42e49859cef979aa9638cbada31d1f29a19bc18654c3ba6675428af146c22440e807f0e095d3de8e8b2c98df829dea65bcfe27a85a56da9fcecd349d986645e1758ec135f91f1ad20564a8bcc6c2b5a5eaca9b09841495c5136dd5357dcf392c42e49859cef979aa9638cbada31d1f29a19bc18654c3ba5c136dd5357dcf392c42e49859cef979aa9638cbada31d1f29a19bc18654c3ba5e136dd5357dcf392c42e49859cef979aa9638cbada31d1f29a19bc18654c3ba65136dd5357dcf392c42e49859cef979aa9638cbada31d1f29a19bc18654c3ba64136dd5357dcf392c42e49859cef979aa9638cbada31d1f29a19bc18654c3ba61136dd5357dcf392c42e49859cef979aa9638cbada31d1f29a19bc18654c3ba635def38ecf5a0fa5e33a9a271693efbf3a526ddb1f7ef0ec33f3c6d26e39ee714c820a66d3bdd50a45cf12cda6dc8ec9e94fb5123edd7da736eea18316f8523a0136dd5357dcf392c42e49859cef979aa9638cbada31d1f29a19bc18654c3ba628be0079c531659141344cd1fd0a4f28419497f9722a3daafe3b4186f6b6457e0136dd5357dcf392c42e49859cef979aa9638cbada31d1f29a19bc18654c3ba60136dd5357dcf392c42e49859cef979aa9638cbada31d1f29a19bc18654c3ba5d75428af146c22440e807f0e095d3de8e8b2c98df829dea65bcfe27a85a56da995def38ecf5a0fa5e33a9a271693efbf3a526ddb1f7ef0ec33f3c6d26e39ee718b13d3e7783d509d8d65d3e1e62ec0b103a07e0cbfa1ee74ae19127f297dddfcc38fb081a0b484406977bd94ff8edb79be44b5ca514130361182516b39e2c45285def38ecf5a0fa5e33a9a271693efbf3a526ddb1f7ef0ec33f3c6d26e39ee71775428af146c22440e807f0e095d3de8e8b2c98df829dea65bcfe27a85a56da989b779b17422d0df92223018b32b4d1fa46e071723d6817e2486d003becc55f0075428af146c22440e807f0e095d3de8e8b2c98df829dea65bcfe27a85a56da9af0c57e16840df040f15088dc2f81fe391c3923bec73e23a9662efc9c229c6a00136dd5357dcf392c42e49859cef979aa9638cbada31d1f29a19bc18654c3ba5f5def38ecf5a0fa5e33a9a271693efbf3a526ddb1f7ef0ec33f3c6d26e39ee71575428af146c22440e807f0e095d3de8e8b2c98df829dea65bcfe27a85a56da9e548c65cbf2bdf872afec988c5b3fb8afde695bac13e6d3020de483ba011bf21775428af146c22440e807f0e095d3de8e8b2c98df829dea65bcfe27a85a56da9ba2646970667358221220895ceffe14b462e79741ad54504a1acbd9d55820e46cc39f8c0f2c65c20674c364736f6c634300081a0033","linkReferences":{}},"methodIdentifiers":{"activateWorker(bytes32,bytes32)":"22ebd58a","addProviderToAccessList(address)":"73134c15","addWorker(address,(bytes32),bytes32)":"cef74c8b","appCID()":"9bc66868","changeProvidersAccessType(uint8)":"636fcefb","computePeerUsed(bytes32)":"bd1926e0","creationBlock()":"17634514","depositFromOwner(uint256,uint8)":"ed7b7653","getActivatedWorkerCount()":"ade0a202","getFreeBalance()":"e93c4f15","getMaxPaidEpoch()":"378b22e4","getProtocolVersion()":"33ce93fe","getRewardAmount(bytes32)":"1af57b96","getStatus()":"4e69d560","getWorker(bytes32)":"aba93a10","getWorkerCount()":"4d7599f1","getWorkerCount(address)":"59c4afc0","getWorkerIds()":"f2574c1b","initialize(address,(bytes4,bytes32),address,uint256,(bytes32,uint8,uint256)[],uint256,uint256,uint8,address[],uint256,address)":"84608454","isProviderAllowed(address)":"3e8ae1ae","maxWorkersPerProvider()":"8a0c725b","multicall(bytes[])":"ac9650d8","owner()":"8da5cb5b","paymentToken()":"3013ce29","postCommitPeriod((uint256,uint256,uint256,uint256,uint256,uint256,uint256,uint256,bool,uint256,uint256),uint256)":"93d2bafc","preCommitPeriod()":"6e5e47b1","pricePerEpoch()":"5fc8f59c","providersAccessType()":"d4773ff0","removeProviderFromAccessList(address)":"444e6a5a","removeStaleWorkers(bytes32[])":"cb7b88d1","removeWorker(bytes32)":"bc126f1f","renounceOwnership()":"715018a6","requiredResources()":"4e4d7af8","setActivatedWorkerCount(uint256)":"03465927","setAppCID((bytes4,bytes32))":"176474cf","setDiamond(address)":"76ed535a","setEndedEpoch(uint256)":"13883251","setGapsEpochCount(uint256)":"9c09e82d","setLastCommitedEpoch(uint256)":"0ac25f10","setLockedBalance(uint256)":"3116eeda","setMaxPaidEpoch(uint256)":"04f1bd56","setPricePerEpoch(uint256)":"13a2107d","setTargetWorkers(uint256)":"e116568f","setTotalBalance(uint256)":"c9ed5008","setWorkerCount(uint256)":"3d0bdad7","stop()":"07da68f5","targetWorkers()":"2943dcab","transferOwnership(address)":"f2fde38b","withdraw(uint256)":"2e1a7d4d","withdrawRewards(bytes32)":"7dfb6626"},"storageLayout":{"storage":[],"types":{}},"devdoc":{"version":1,"kind":"dev","methods":{"activateWorker(bytes32,bytes32)":{"details":"Set offchain worker ID for a corresponding onchain worker for a deal"},"addProviderToAccessList(address)":{"details":"Adds a provider to the access list"},"addWorker(address,(bytes32),bytes32)":{"details":"Adds a compute unit to the deal","params":{"computeProvider":"The compute provider address","peerId":"The peer ID","workerData":"The worker with data"}},"appCID()":{"details":"Returns the app CID"},"changeProvidersAccessType(uint8)":{"details":"Change the providers access type"},"computePeerUsed(bytes32)":{"details":"Returns the boolean flag indicating whether the peer exists in the deal"},"creationBlock()":{"details":"Returns the creation block of the deal"},"depositFromOwner(uint256,uint8)":{"details":"Deposits payment token to the deal"},"getActivatedWorkerCount()":{"details":"Returns the worker count. Worker is a compute unit that has a worker ID"},"getFreeBalance()":{"details":"Returns the free balance of the deal"},"getMaxPaidEpoch()":{"details":"Returns the max paid epoch"},"getProtocolVersion()":{"details":"Returns the protocol version"},"getRewardAmount(bytes32)":{"details":"Returns the reward amount by compute unit ID"},"getStatus()":{"details":"Returns the status of the deal"},"getWorkerCount()":{"details":"Returns total number of workers"},"getWorkerCount(address)":{"details":"Returns number of workers in provider"},"getWorkerIds()":{"details":"Returns workers registered in this deal"},"isProviderAllowed(address)":{"details":"Returns the boolean indicating whether the provider is allowed or not"},"maxWorkersPerProvider()":{"details":"Returns the max number of workers per provider"},"multicall(bytes[])":{"details":"Receives and executes a batch of function calls on this contract."},"owner()":{"details":"Returns the address of the current owner."},"paymentToken()":{"details":"Returns the payment token address"},"pricePerEpoch()":{"details":"Returns the price per epoch"},"providersAccessType()":{"details":"Returns the providers access type"},"removeProviderFromAccessList(address)":{"details":"Removes a provider from the access list"},"removeStaleWorkers(bytes32[])":{"details":"Allows oracle to remove worker from a deal that is not paying workers."},"removeWorker(bytes32)":{"details":"Removes a worker from the deal"},"renounceOwnership()":{"details":"Leaves the contract without owner. It will not be possible to call `onlyOwner` functions. Can only be called by the current owner. NOTE: Renouncing ownership will leave the contract without an owner, thereby disabling any functionality that is only available to the owner."},"requiredResources()":{"details":"Returns the price per epoch"},"setAppCID((bytes4,bytes32))":{"details":"Sets the app CID"},"stop()":{"details":"Stop the deal"},"targetWorkers()":{"details":"Returns the max number of workers"},"transferOwnership(address)":{"details":"Transfers ownership of the contract to a new account (`newOwner`). Can only be called by the current owner."},"withdraw(uint256)":{"details":"Withdraws payment token from the deal"},"withdrawRewards(bytes32)":{"details":"Withdraws rewards from the deal by compute unit ID"}},"events":{"AppCIDChanged((bytes4,bytes32))":{"details":"Emitted when the app CID is changed","params":{"newAppCID":"The new app CID"}},"DealEnded(uint256)":{"details":"Emitted when a deal is ended. This event can be emitted in the not-ended epoch. It can be emitted after the ended epoch in any epoch"},"Deposited(uint256)":{"details":"Emitted when a owner deposits payment token to the deal"},"Initialized(uint64)":{"details":"Triggered when the contract has been initialized or reinitialized."},"MaxPaidEpochUpdated(uint256)":{"details":"Emitted when a max paid epoch is updated"},"ProviderAddedToAccessList(address)":{"details":"Emitted when a provider is added to the access list","params":{"provider":"The provider address"}},"ProviderRemovedFromAccessList(address)":{"details":"Emitted when a provider is removed from the access list","params":{"provider":"The provider address"}},"ProvidersAccessTypeChanged(uint8)":{"details":"Emitted when the providers access type is changed","params":{"newAccessType":"The new access type"}},"RewardWithdrawn(bytes32,uint256,uint256)":{"details":"Emitted when a compute unit withdraws rewards from the deal"},"Withdrawn(uint256)":{"details":"Emitted when a owner withdraws payment token from the deal"},"WorkerIdUpdated(bytes32,bytes32)":{"details":"Emitted when a worker ID is updated","params":{"offchainWorkerId":"The new worker ID","onchainWorkerId":"The worker"}},"WorkerJoined(bytes32,bytes32)":{"details":"Emitted when a new worker is added","params":{"onchainId":"The worker ID","peerId":"The id of compute peer"}},"WorkerRemoved(bytes32,bytes32)":{"details":"Emitted when a worker is removed","params":{"onchainId":"The worker onchain ID","peerId":"The id of compute peer"}}},"errors":{"AddressEmptyCode(address)":[{"details":"There's no code at `target` (it is not a contract)."}],"FailedCall()":[{"details":"A call to an address target failed. The target may have reverted."}],"InvalidInitialization()":[{"details":"The contract is already initialized."}],"NotInitializing()":[{"details":"The contract is not initializing."}],"OwnableInvalidOwner(address)":[{"details":"The owner is not a valid owner account. (eg. `address(0)`)"}],"OwnableUnauthorizedAccount(address)":[{"details":"The caller account is not authorized to perform an operation."}],"ReentrancyGuardReentrantCall()":[{"details":"Unauthorized reentrant call."}]}},"id":107}