{"abi":[{"type":"function","name":"newSubnetActor","inputs":[{"name":"_params","type":"tuple","internalType":"struct SubnetActorDiamond.ConstructorParams","components":[{"name":"minActivationCollateral","type":"uint256","internalType":"uint256"},{"name":"minValidators","type":"uint64","internalType":"uint64"},{"name":"bottomUpCheckPeriod","type":"uint64","internalType":"uint64"},{"name":"ipcGatewayAddr","type":"address","internalType":"address"},{"name":"activeValidatorsLimit","type":"uint16","internalType":"uint16"},{"name":"majorityPercentage","type":"uint8","internalType":"uint8"},{"name":"consensus","type":"uint8","internalType":"enum ConsensusType"},{"name":"powerScale","type":"int8","internalType":"int8"},{"name":"permissionMode","type":"uint8","internalType":"enum PermissionMode"},{"name":"supplySource","type":"tuple","internalType":"struct SupplySource","components":[{"name":"kind","type":"uint8","internalType":"enum SupplyKind"},{"name":"tokenAddress","type":"address","internalType":"address"}]},{"name":"parentId","type":"tuple","internalType":"struct SubnetID","components":[{"name":"root","type":"uint64","internalType":"uint64"},{"name":"route","type":"address[]","internalType":"address[]"}]}]}],"outputs":[{"name":"subnetAddr","type":"address","internalType":"address"}],"stateMutability":"nonpayable"},{"type":"event","name":"SubnetDeployed","inputs":[{"name":"subnetAddr","type":"address","indexed":false,"internalType":"address"}],"anonymous":false},{"type":"error","name":"ReentrancyError","inputs":[]},{"type":"error","name":"WrongGateway","inputs":[]}],"bytecode":{"object":"0x608060405234801561001057600080fd5b50612619806100206000396000f3fe60806040523480156200001157600080fd5b50600436106200002e5760003560e01c8063fc3b0ad31462000033575b600080fd5b6200004a6200004436600462000625565b62000066565b6040516001600160a01b03909116815260200160405180910390f35b7f691bb03ffc16c56fc96b82fd16cd1b3715f0bc3cdc6407005f49bb620586009580546000919060001901620000af576040516329f745a760e01b815260040160405180910390fd5b600181556000546001600160a01b0316620000d1608085016060860162000688565b6001600160a01b031614620000f957604051633bed049960e01b815260040160405180910390fd5b60408051600580825260c08201909252600091816020015b60408051606080820183526000808352602083015291810191909152815260200190600190039081620001115790505060408051606081019091526001546001600160a01b0316815290915060208101600081526020016000600601805480602002602001604051908101604052809291908181526020018280548015620001e657602002820191906000526020600020906000905b82829054906101000a900460e01b6001600160e01b03191681526020019060040190602082600301049283019260010382029150808411620001a75790505b505050505081525081600081518110620002045762000204620006bc565b602090810291909101810191909152604080516060810182526002546001600160a01b03168152600081840152600780548351818602810186018552818152929493850193830182828015620002a757602002820191906000526020600020906000905b82829054906101000a900460e01b6001600160e01b03191681526020019060040190602082600301049283019260010382029150808411620002685790505b505050505081525081600181518110620002c557620002c5620006bc565b602090810291909101810191909152604080516060810182526003546001600160a01b031681526000818401526008805483518186028101860185528181529294938501938301828280156200036857602002820191906000526020600020906000905b82829054906101000a900460e01b6001600160e01b03191681526020019060040190602082600301049283019260010382029150808411620003295790505b505050505081525081600281518110620003865762000386620006bc565b602090810291909101810191909152604080516060810182526004546001600160a01b031681526000818401526009805483518186028101860185528181529294938501938301828280156200042957602002820191906000526020600020906000905b82829054906101000a900460e01b6001600160e01b03191681526020019060040190602082600301049283019260010382029150808411620003ea5790505b505050505081525081600381518110620004475762000447620006bc565b602090810291909101810191909152604080516060810182526005546001600160a01b03168152600081840152600a80548351818602810186018552818152929493850193830182828015620004ea57602002820191906000526020600020906000905b82829054906101000a900460e01b6001600160e01b03191681526020019060040190602082600301049283019260010382029150808411620004ab5790505b505050505081525081600481518110620005085762000508620006bc565b6020026020010181905250808433604051620005249062000617565b6200053293929190620009ae565b604051809103906000f0801580156200054f573d6000803e3d6000fd5b50336000908152600c602052604081208054929550916200057a9067ffffffffffffffff1662000aad565b82546101009290920a67ffffffffffffffff818102199093169183160217909155336000908152600b60209081526040808320600c83528184205490941683529281529082902080546001600160a01b0319166001600160a01b03871690811790915591519182527f0431ea4d93af299b92f2c606ddcaf4b31cb0013c5ed1fdea837b8a912347c965910160405180910390a15060009055919050565b611b008062000ae483390190565b6000602082840312156200063857600080fd5b813567ffffffffffffffff8111156200065057600080fd5b820161018081850312156200066457600080fd5b9392505050565b80356001600160a01b03811681146200068357600080fd5b919050565b6000602082840312156200069b57600080fd5b62000664826200066b565b634e487b7160e01b600052602160045260246000fd5b634e487b7160e01b600052603260045260246000fd5b60038110620006e557620006e5620006a6565b50565b803567ffffffffffffffff811681146200068357600080fd5b803561ffff811681146200068357600080fd5b803560ff811681146200068357600080fd5b8035600181106200068357600080fd5b60018110620007495762000749620006a6565b9052565b8035600081900b81146200068357600080fd5b8035600381106200068357600080fd5b6200074981620006d2565b8035600281106200078b57600080fd5b82526001600160a01b03620007a3602083016200066b565b1660208301525050565b60008235603e19833603018112620007c457600080fd5b90910192915050565b60006040830167ffffffffffffffff80620007e885620006e8565b168552602080850135601e198636030181126200080457600080fd5b8501602081019035838111156200081a57600080fd5b8060051b36038213156200082d57600080fd5b6040602089015293849052926060870192506000905b8082101562000877576001600160a01b036200085f866200066b565b16845293820193928201926001919091019062000843565b50919695505050505050565b6000610180823584526200089a60208401620006e8565b67ffffffffffffffff166020850152620008b760408401620006e8565b67ffffffffffffffff166040850152620008d4606084016200066b565b6001600160a01b03166060850152620008f06080840162000701565b61ffff1660808501526200090760a0840162000714565b60ff1660a08501526200091d60c0840162000726565b6200092c60c086018262000736565b506200093b60e084016200074d565b6200094b60e086018260000b9052565b506101006200095c81850162000760565b6200096a8287018262000770565b50506101206200097f8186018286016200077b565b506101606200099181850185620007ad565b8282870152620009a483870182620007cd565b9695505050505050565b60006060808301606084528087518083526080925060808601915060808160051b8701016020808b016000805b8581101562000a72578a8503607f19018752825180516001600160a01b03168652848101518a87019062000a0f81620006d2565b878701526040918201519187018b90528151908190529085019083908a8801905b8083101562000a5c5783516001600160e01b031916825292870192600192909201919087019062000a30565b50988601989650505091830191600101620009db565b5050508782039088015262000a88818a62000883565b9550505050505062000aa560408301846001600160a01b03169052565b949350505050565b600067ffffffffffffffff80831681810362000ad957634e487b7160e01b600052601160045260246000fd5b600101939250505056fe60806040523480156200001157600080fd5b5060405162001b0038038062001b008339810160408190526200003491620013d5565b60608201516001600160a01b03166200006057604051638b3ddc3360e01b815260040160405180910390fd5b81604001516001600160401b03166000036200008f5760405163312f8e0560e01b815260040160405180910390fd5b60018261010001516002811115620000ab57620000ab620015a5565b14158015620000b957508151155b15620000d8576040516368f7a67560e11b815260040160405180910390fd5b60338260a0015160ff161080620000f6575060648260a0015160ff16115b1562000115576040516375c3b42760e01b815260040160405180910390fd5b60128260e0015160000b13156200013f576040516378b177e560e11b815260040160405180910390fd5b6101208201516200015090620005bb565b6200015b816200067c565b60408051600080825260208201909252620001789185916200070e565b7f806e0cbb9fce296bbc336a48f42bf1dbc69722d18d90d6fe705b7582c2bb4bd46020527f7dfd48dd9def002fa9b4a05bd6b726a6c313c362d3f3e8413d7a7520f0090d258054600160ff1991821681179092557f4d7f4c8a2fb5b35ca3c277c93888b47f0f2229bdcccf66504d1ba48e88b8816480548216831790556348e2b09360e01b6000527f59ba4db4a213e8161de597b8c10db0e7e7ba5ace5c268e36379e249a6d2d42c980549091168217905561010083015160008051602062001ae083398151915291906002811115620002565762000256620015a5565b036200026157600083525b6101408301518051600880546001600160401b0319166001600160401b039092169190911781556020808301518051620002a092600992019062000fbc565b5050506060830151600580546001600160a01b039092166001600160a01b031983168117825560c0860151926001600160a01b0360ff60f01b01191617600160f01b838015620002f457620002f4620015a5565b02179055508251600255602080840151600680546001600160401b039283166001600160401b0319909116179055604080860151821660035560a08601516005805460e089015160ff908116600160e81b0260ff60e81b1991909416600160e01b021661ffff60e01b199091161791909117905580518082018252600880549093168152600980548351818702810187019094528084529194858101939290830182828015620003ce57602002820191906000526020600020905b81546001600160a01b03168152600190910190602001808311620003af575b50505091909252505060405163aa5106cb60e01b815273__$a0fe38a9a81205afccc10810b09a4d3f45$__9263aa5106cb92506200041191309060040162001624565b600060405180830381865af41580156200042f573d6000803e3d6000fd5b505050506040513d6000823e601f3d908101601f1916820160405262000459919081019062001650565b6040516390ba52cf60e01b815273__$a0fe38a9a81205afccc10810b09a4d3f45$__916390ba52cf9162000491919060040162001690565b602060405180830381865af4158015620004af573d6000803e3d6000fd5b505050506040513d601f19601f82011682018060405250810190620004d59190620016ac565b600455610100830151600a805460ff19166001836002811115620004fd57620004fd620015a5565b021790555060058054600160a01b600160e01b031916600560a11b1790556080830151600a805462ffff00191661010061ffff90931692909202919091179055601380546001600160801b03191668010000000000000001179055610120830151805160078054909190829060ff191660018381811115620005835762000583620015a5565b02179055506020919091015181546001600160a01b0390911661010002610100600160a81b0319909116179055506200193192505050565b600181516001811115620005d357620005d3620015a5565b03620006795760208101516001600160a01b031662000605576040516376fe282b60e11b815260040160405180910390fd5b60208101516040516370a0823160e01b8152600060048201526001600160a01b038216906370a0823190602401602060405180830381865afa15801562000650573d6000803e3d6000fd5b505050506040513d601f19601f82011682018060405250810190620006769190620016ac565b50505b50565b7f806e0cbb9fce296bbc336a48f42bf1dbc69722d18d90d6fe705b7582c2bb4bd580546001600160a01b038381166001600160a01b03198316811790935560408051919092168082526020820193909352815160008051602062001ae083398151915293927f8be0079c531659141344cd1fd0a4f28419497f9722a3daafe3b4186f6b6457e0928290030190a1505050565b825160005b818110156200087f576000858281518110620007335762000733620016c6565b60200260200101516040015190506000868381518110620007585762000758620016c6565b60200260200101516000015190508151600003620007995760405163e767f91f60e01b81526001600160a01b03821660048201526024015b60405180910390fd5b6000878481518110620007b057620007b0620016c6565b602002602001015160200151905060006002811115620007d457620007d4620015a5565b816002811115620007e957620007e9620015a5565b036200080157620007fb8284620008cf565b62000870565b6001816002811115620008185762000818620015a5565b036200082a57620007fb828462000a8b565b6002816002811115620008415762000841620015a5565b036200085357620007fb828462000c28565b80604051633ff4d20f60e11b8152600401620007909190620016ff565b83600101935050505062000713565b507f8faa70878671ccd212d20771b795c50af8fd3ff6cf27f4bde57e5d4de0aeb673848484604051620008b593929190620017b1565b60405180910390a1620008c9838362000ebf565b50505050565b6001600160a01b038216620008fb57806040516302b8da0760e21b81526004016200079091906200186e565b60008051602062001a77833981519152546040805160608101909152602180825260008051602062001ae08339815191529291620009459186919062001a97602083013962000f91565b825160005b8181101562000a835760008582815181106200096a576200096a620016c6565b6020908102919091018101516001600160e01b031981166000908152918790526040909120549091506001600160a01b03168015620009c95760405163ebbf5d0760e01b81526001600160e01b03198316600482015260240162000790565b6040805180820182526001600160a01b03808b16825261ffff80891660208085019182526001600160e01b0319881660009081528c8252958620945185549251909316600160a01b026001600160b01b0319909216929093169190911717909155600180890180549182018155835291206008820401805460e085901c60046007909416939093026101000a92830263ffffffff909302191691909117905562000a738562001899565b945082600101925050506200094a565b505050505050565b60008051602062001ae08339815191526001600160a01b03831662000ac7578160405163cd98a96f60e01b81526004016200079091906200186e565b62000aec8360405180606001604052806028815260200162001ab86028913962000f91565b815160005b8181101562000c2157600084828151811062000b115762000b11620016c6565b6020908102919091018101516001600160e01b031981166000908152918690526040909120549091506001600160a01b031630810362000b7157604051632901806d60e11b81526001600160e01b03198316600482015260240162000790565b866001600160a01b0316816001600160a01b03160362000bb157604051631ac6ce8d60e11b81526001600160e01b03198316600482015260240162000790565b6001600160a01b03811662000be657604051637479f93960e01b81526001600160e01b03198316600482015260240162000790565b506001600160e01b031916600090815260208490526040902080546001600160a01b0319166001600160a01b03871617905560010162000af1565b5050505050565b60008051602062001a778339815191525460008051602062001ae0833981519152906001600160a01b0384161562000c7f5760405163d091bc8160e01b81526001600160a01b038516600482015260240162000790565b825160005b8181101562000a8357600085828151811062000ca45762000ca4620016c6565b6020908102919091018101516001600160e01b0319811660009081528783526040908190208151808301909252546001600160a01b038116808352600160a01b90910461ffff16938201939093529092509062000d2157604051637a08a22d60e01b81526001600160e01b03198316600482015260240162000790565b8051306001600160a01b039091160362000d5b57604051630df5fd6160e31b81526001600160e01b03198316600482015260240162000790565b62000d6685620018bd565b945084816020015161ffff161462000e4a57600086600101868154811062000d925762000d92620016c6565b90600052602060002090600891828204019190066004029054906101000a900460e01b90508087600101836020015161ffff168154811062000dd85762000dd8620016c6565b600091825260208083206008830401805463ffffffff60079094166004026101000a938402191660e09590951c92909202939093179055838201516001600160e01b03199390931681529088905260409020805461ffff60a01b1916600160a01b61ffff909316929092029190911790555b8560010180548062000e605762000e60620018d7565b60008281526020808220600860001990940193840401805463ffffffff600460078716026101000a0219169055919092556001600160e01b0319909316815291869052506040902080546001600160b01b031916905560010162000c84565b6001600160a01b03821662000ed2575050565b62000ef78260405180606001604052806025815260200162001a526025913962000f91565b600080836001600160a01b03168360405162000f149190620018ed565b600060405180830381855af49150503d806000811462000f51576040519150601f19603f3d011682016040523d82523d6000602084013e62000f56565b606091505b509150915081620008c95780511562000f725780518082602001fd5b838360405163192105d760e01b8152600401620007909291906200190b565b813b60008190036200067657828260405163919834b960e01b8152600401620007909291906200190b565b82805482825590600052602060002090810192821562001014579160200282015b828111156200101457825182546001600160a01b0319166001600160a01b0390911617825560209092019160019091019062000fdd565b506200102292915062001026565b5090565b5b8082111562001022576000815560010162001027565b634e487b7160e01b600052604160045260246000fd5b604080519081016001600160401b03811182821017156200107857620010786200103d565b60405290565b60405161016081016001600160401b03811182821017156200107857620010786200103d565b604051606081016001600160401b03811182821017156200107857620010786200103d565b604051601f8201601f191681016001600160401b0381118282101715620010f457620010f46200103d565b604052919050565b60006001600160401b038211156200111857620011186200103d565b5060051b60200190565b80516001600160a01b03811681146200113a57600080fd5b919050565b600381106200067957600080fd5b80516200113a816200113f565b80516001600160401b03811681146200113a57600080fd5b805161ffff811681146200113a57600080fd5b805160ff811681146200113a57600080fd5b8051600181106200113a57600080fd5b8051600081900b81146200113a57600080fd5b600060408284031215620011cd57600080fd5b620011d762001053565b9050815160028110620011e957600080fd5b8152620011f96020830162001122565b602082015292915050565b6000604082840312156200121757600080fd5b6200122162001053565b90506200122e826200115a565b81526020828101516001600160401b038111156200124b57600080fd5b8301601f810185136200125d57600080fd5b8051620012746200126e82620010fc565b620010c9565b81815260059190911b820183019083810190878311156200129457600080fd5b928401925b82841015620012bd57620012ad8462001122565b8252928401929084019062001299565b8085870152505050505092915050565b60006101808284031215620012e157600080fd5b620012eb6200107e565b905081518152620012ff602083016200115a565b602082015262001312604083016200115a565b6040820152620013256060830162001122565b6060820152620013386080830162001172565b60808201526200134b60a0830162001185565b60a08201526200135e60c0830162001197565b60c08201526200137160e08301620011a7565b60e0820152610100620013868184016200114d565b908201526101206200139b84848301620011ba565b908201526101608201516001600160401b03811115620013ba57600080fd5b620013c88482850162001204565b6101408301525092915050565b600080600060608486031215620013eb57600080fd5b83516001600160401b03808211156200140357600080fd5b818601915086601f8301126200141857600080fd5b8151620014296200126e82620010fc565b8082825260208201915060208360051b8601019250898311156200144c57600080fd5b602085015b8381101562001561578051858111156200146a57600080fd5b86016060818d03601f190112156200148157600080fd5b6200148b620010a4565b620014996020830162001122565b81526040820151620014ab816200113f565b6020820152606082015187811115620014c357600080fd5b8083019250508c603f830112620014d957600080fd5b6020820151620014ed6200126e82620010fc565b81815260059190911b83016040019060208101908f8311156200150f57600080fd5b6040850194505b828510156200154a5784516001600160e01b0319811681146200153857600080fd5b82526020948501949091019062001516565b604084015250508452506020928301920162001451565b50602089015190975093505050808211156200157c57600080fd5b506200158b86828701620012cd565b9250506200159c6040850162001122565b90509250925092565b634e487b7160e01b600052602160045260246000fd5b80516001600160401b03168252602080820151604082850181905281519085018190526000929182019190839060608701905b80831015620016195784516001600160a01b03168252938301936001929092019190830190620015ee565b509695505050505050565b604081526000620016396040830185620015bb565b905060018060a01b03831660208301529392505050565b6000602082840312156200166357600080fd5b81516001600160401b038111156200167a57600080fd5b620016888482850162001204565b949350505050565b602081526000620016a56020830184620015bb565b9392505050565b600060208284031215620016bf57600080fd5b5051919050565b634e487b7160e01b600052603260045260246000fd5b60038110620016fb57634e487b7160e01b600052602160045260246000fd5b9052565b602081016200170f8284620016dc565b92915050565b60008151808452602080850194506020840160005b83811015620017525781516001600160e01b031916875295820195908201906001016200172a565b509495945050505050565b60005b838110156200177a57818101518382015260200162001760565b50506000910152565b600081518084526200179d8160208601602086016200175d565b601f01601f19169290920160200192915050565b600060608083016060845280875180835260808601915060808160051b87010192506020808a0160005b838110156200183d57888603607f19018552815180516001600160a01b03168752838101516200180e85890182620016dc565b50604090810151908701889052620018298789018262001715565b9650509382019390820190600101620017db565b50506001600160a01b038916908701525050838103604085015262001863818662001783565b979650505050505050565b602081526000620016a5602083018462001715565b634e487b7160e01b600052601160045260246000fd5b600061ffff808316818103620018b357620018b362001883565b6001019392505050565b600081620018cf57620018cf62001883565b506000190190565b634e487b7160e01b600052603160045260246000fd5b60008251620019018184602087016200175d565b9190910192915050565b6001600160a01b0383168152604060208201819052600090620016889083018462001783565b61011180620019416000396000f3fe608060405236601057600e6016565b005b600e6042565b6005546001600160a01b0316331460405760405163e7e601db60e01b815260040160405180910390fd5b565b600080356001600160e01b03191681527f806e0cbb9fce296bbc336a48f42bf1dbc69722d18d90d6fe705b7582c2bb4bd2602081905260409091205481906001600160a01b03168060b857604051630a82dd7360e31b81526001600160e01b031960003516600482015260240160405180910390fd5b3660008037600080366000845af43d6000803e80801560d6573d6000f35b3d6000fdfea2646970667358221220e0846d61ef4aaccad5841a6485b1573be2b1bf354d1fbaebd6e6e1e11ce112ba64736f6c634300081800336469616d6f6e644375743a205f696e6974206164647265737320686173206e6f20636f6465806e0cbb9fce296bbc336a48f42bf1dbc69722d18d90d6fe705b7582c2bb4bd36469616d6f6e644375743a2041646420666163657420686173206e6f20636f64654c69624469616d6f6e644375743a205265706c61636520666163657420686173206e6f20636f6465806e0cbb9fce296bbc336a48f42bf1dbc69722d18d90d6fe705b7582c2bb4bd2a2646970667358221220c852d8c3303cae05dfbf5ce570ea35c04db0b7277dd511dcc0efca8e54c4e84364736f6c63430008180033","linkReferences":{"src/lib/SubnetIDHelper.sol":{"SubnetIDHelper":[{"start":3818,"length":20},{"start":3948,"length":20}]}}},"methodIdentifiers":{"newSubnetActor((uint256,uint64,uint64,address,uint16,uint8,uint8,int8,uint8,(uint8,address),(uint64,address[])))":"fc3b0ad3"},"id":103}