{"abi":[{"type":"function","name":"activateWorker","inputs":[{"name":"onchainWorkerId","type":"bytes32","internalType":"bytes32"},{"name":"offchainWorkerId","type":"bytes32","internalType":"bytes32"}],"outputs":[],"stateMutability":"nonpayable"},{"type":"function","name":"addProviderToAccessList","inputs":[{"name":"provider","type":"address","internalType":"address"}],"outputs":[],"stateMutability":"nonpayable"},{"type":"function","name":"addWorker","inputs":[{"name":"computeProvider","type":"address","internalType":"address"},{"name":"workerData","type":"tuple","internalType":"struct IWorkerManager.WorkerData","components":[{"name":"onchainId","type":"bytes32","internalType":"bytes32"},{"name":"computeUnitIds","type":"bytes32[]","internalType":"bytes32[]"}]},{"name":"peerId","type":"bytes32","internalType":"bytes32"}],"outputs":[],"stateMutability":"nonpayable"},{"type":"function","name":"appCID","inputs":[],"outputs":[{"name":"","type":"tuple","internalType":"struct CIDV1","components":[{"name":"prefixes","type":"bytes4","internalType":"bytes4"},{"name":"hash","type":"bytes32","internalType":"bytes32"}]}],"stateMutability":"view"},{"type":"function","name":"changeProvidersAccessType","inputs":[{"name":"accessType","type":"uint8","internalType":"enum IConfig.AccessType"}],"outputs":[],"stateMutability":"nonpayable"},{"type":"function","name":"computePeerUsed","inputs":[{"name":"peerId","type":"bytes32","internalType":"bytes32"}],"outputs":[{"name":"","type":"bool","internalType":"bool"}],"stateMutability":"view"},{"type":"function","name":"creationBlock","inputs":[],"outputs":[{"name":"","type":"uint256","internalType":"uint256"}],"stateMutability":"view"},{"type":"function","name":"cuCountPerWorker","inputs":[],"outputs":[{"name":"","type":"uint256","internalType":"uint256"}],"stateMutability":"view"},{"type":"function","name":"depositFromOwner","inputs":[{"name":"amount","type":"uint256","internalType":"uint256"}],"outputs":[],"stateMutability":"nonpayable"},{"type":"function","name":"effectors","inputs":[],"outputs":[{"name":"","type":"tuple[]","internalType":"struct CIDV1[]","components":[{"name":"prefixes","type":"bytes4","internalType":"bytes4"},{"name":"hash","type":"bytes32","internalType":"bytes32"}]}],"stateMutability":"view"},{"type":"function","name":"getActivatedWorkerCount","inputs":[],"outputs":[{"name":"","type":"uint256","internalType":"uint256"}],"stateMutability":"view"},{"type":"function","name":"getFreeBalance","inputs":[],"outputs":[{"name":"","type":"uint256","internalType":"uint256"}],"stateMutability":"view"},{"type":"function","name":"getMaxPaidEpoch","inputs":[],"outputs":[{"name":"","type":"uint256","internalType":"uint256"}],"stateMutability":"view"},{"type":"function","name":"getProtocolVersion","inputs":[],"outputs":[{"name":"","type":"uint256","internalType":"uint256"}],"stateMutability":"view"},{"type":"function","name":"getRewardAmount","inputs":[{"name":"onchainWorkerId","type":"bytes32","internalType":"bytes32"}],"outputs":[{"name":"","type":"tuple","internalType":"struct IDeal.DealRewards","components":[{"name":"providerReward","type":"uint256","internalType":"uint256"},{"name":"stakerReward","type":"uint256","internalType":"uint256"}]}],"stateMutability":"view"},{"type":"function","name":"getStatus","inputs":[],"outputs":[{"name":"","type":"uint8","internalType":"enum IDeal.Status"}],"stateMutability":"view"},{"type":"function","name":"getWorker","inputs":[{"name":"onchainWorkerId","type":"bytes32","internalType":"bytes32"}],"outputs":[{"name":"","type":"tuple","internalType":"struct IWorkerManager.Worker","components":[{"name":"offchainId","type":"bytes32","internalType":"bytes32"},{"name":"onchainId","type":"bytes32","internalType":"bytes32"},{"name":"peerId","type":"bytes32","internalType":"bytes32"},{"name":"provider","type":"address","internalType":"address"},{"name":"joinedEpoch","type":"uint256","internalType":"uint256"},{"name":"computeUnitIds","type":"bytes32[]","internalType":"bytes32[]"}]}],"stateMutability":"view"},{"type":"function","name":"getWorkerCount","inputs":[],"outputs":[{"name":"","type":"uint256","internalType":"uint256"}],"stateMutability":"view"},{"type":"function","name":"getWorkerCount","inputs":[{"name":"provider","type":"address","internalType":"address"}],"outputs":[{"name":"","type":"uint256","internalType":"uint256"}],"stateMutability":"view"},{"type":"function","name":"getWorkers","inputs":[],"outputs":[{"name":"","type":"tuple[]","internalType":"struct IWorkerManager.Worker[]","components":[{"name":"offchainId","type":"bytes32","internalType":"bytes32"},{"name":"onchainId","type":"bytes32","internalType":"bytes32"},{"name":"peerId","type":"bytes32","internalType":"bytes32"},{"name":"provider","type":"address","internalType":"address"},{"name":"joinedEpoch","type":"uint256","internalType":"uint256"},{"name":"computeUnitIds","type":"bytes32[]","internalType":"bytes32[]"}]}],"stateMutability":"view"},{"type":"function","name":"initialize","inputs":[{"name":"diamond_","type":"address","internalType":"contract IDiamond"},{"name":"appCID_","type":"tuple","internalType":"struct CIDV1","components":[{"name":"prefixes","type":"bytes4","internalType":"bytes4"},{"name":"hash","type":"bytes32","internalType":"bytes32"}]},{"name":"paymentToken_","type":"address","internalType":"contract IERC20"},{"name":"minWorkers_","type":"uint256","internalType":"uint256"},{"name":"targetWorkers_","type":"uint256","internalType":"uint256"},{"name":"cuCountPerWorker_","type":"uint256","internalType":"uint256"},{"name":"maxWorkersPerProvider_","type":"uint256","internalType":"uint256"},{"name":"pricePerCuPerEpoch_","type":"uint256","internalType":"uint256"},{"name":"effectors_","type":"tuple[]","internalType":"struct CIDV1[]","components":[{"name":"prefixes","type":"bytes4","internalType":"bytes4"},{"name":"hash","type":"bytes32","internalType":"bytes32"}]},{"name":"providersAccessType_","type":"uint8","internalType":"enum IConfig.AccessType"},{"name":"providersAccessList_","type":"address[]","internalType":"address[]"},{"name":"protocolVersion_","type":"uint256","internalType":"uint256"},{"name":"owner_","type":"address","internalType":"address"}],"outputs":[],"stateMutability":"nonpayable"},{"type":"function","name":"isProviderAllowed","inputs":[{"name":"account","type":"address","internalType":"address"}],"outputs":[{"name":"","type":"bool","internalType":"bool"}],"stateMutability":"view"},{"type":"function","name":"maxWorkersPerProvider","inputs":[],"outputs":[{"name":"","type":"uint256","internalType":"uint256"}],"stateMutability":"view"},{"type":"function","name":"migrateToBalanceKeeper","inputs":[],"outputs":[],"stateMutability":"nonpayable"},{"type":"function","name":"minWorkers","inputs":[],"outputs":[{"name":"","type":"uint256","internalType":"uint256"}],"stateMutability":"view"},{"type":"function","name":"multicall","inputs":[{"name":"data","type":"bytes[]","internalType":"bytes[]"}],"outputs":[{"name":"results","type":"bytes[]","internalType":"bytes[]"}],"stateMutability":"nonpayable"},{"type":"function","name":"owner","inputs":[],"outputs":[{"name":"","type":"address","internalType":"address"}],"stateMutability":"view"},{"type":"function","name":"paymentToken","inputs":[],"outputs":[{"name":"","type":"address","internalType":"contract IERC20"}],"stateMutability":"view"},{"type":"function","name":"postCommitPeriod","inputs":[{"name":"snapshot","type":"tuple","internalType":"struct DealSnapshot.Cache","components":[{"name":"_initTotalBalance","type":"uint256","internalType":"uint256"},{"name":"_initLockedBalance","type":"uint256","internalType":"uint256"},{"name":"_initGapsEpochCount","type":"uint256","internalType":"uint256"},{"name":"_totalBalance","type":"uint256","internalType":"uint256"},{"name":"_lockedBalance","type":"uint256","internalType":"uint256"},{"name":"_gapsEpochCount","type":"uint256","internalType":"uint256"},{"name":"_currentEpoch","type":"uint256","internalType":"uint256"},{"name":"_snapshotEpoch","type":"uint256","internalType":"uint256"},{"name":"_isEnded","type":"bool","internalType":"bool"},{"name":"_pricePerCuPerEpoch","type":"uint256","internalType":"uint256"},{"name":"_activeWorkerCount","type":"uint256","internalType":"uint256"}]},{"name":"newWorkerCount","type":"uint256","internalType":"uint256"}],"outputs":[],"stateMutability":"nonpayable"},{"type":"function","name":"preCommitPeriod","inputs":[],"outputs":[{"name":"","type":"tuple","internalType":"struct DealSnapshot.Cache","components":[{"name":"_initTotalBalance","type":"uint256","internalType":"uint256"},{"name":"_initLockedBalance","type":"uint256","internalType":"uint256"},{"name":"_initGapsEpochCount","type":"uint256","internalType":"uint256"},{"name":"_totalBalance","type":"uint256","internalType":"uint256"},{"name":"_lockedBalance","type":"uint256","internalType":"uint256"},{"name":"_gapsEpochCount","type":"uint256","internalType":"uint256"},{"name":"_currentEpoch","type":"uint256","internalType":"uint256"},{"name":"_snapshotEpoch","type":"uint256","internalType":"uint256"},{"name":"_isEnded","type":"bool","internalType":"bool"},{"name":"_pricePerCuPerEpoch","type":"uint256","internalType":"uint256"},{"name":"_activeWorkerCount","type":"uint256","internalType":"uint256"}]}],"stateMutability":"view"},{"type":"function","name":"pricePerCuPerEpoch","inputs":[],"outputs":[{"name":"","type":"uint256","internalType":"uint256"}],"stateMutability":"view"},{"type":"function","name":"providersAccessType","inputs":[],"outputs":[{"name":"","type":"uint8","internalType":"enum IConfig.AccessType"}],"stateMutability":"view"},{"type":"function","name":"removeProviderFromAccessList","inputs":[{"name":"provider","type":"address","internalType":"address"}],"outputs":[],"stateMutability":"nonpayable"},{"type":"function","name":"removeStaleWorkers","inputs":[{"name":"onchainWorkerIds","type":"bytes32[]","internalType":"bytes32[]"}],"outputs":[],"stateMutability":"nonpayable"},{"type":"function","name":"removeWorker","inputs":[{"name":"onchainWorkerId","type":"bytes32","internalType":"bytes32"}],"outputs":[],"stateMutability":"nonpayable"},{"type":"function","name":"renounceOwnership","inputs":[],"outputs":[],"stateMutability":"nonpayable"},{"type":"function","name":"setActivatedWorkerCount","inputs":[{"name":"activatedWorkerCount_","type":"uint256","internalType":"uint256"}],"outputs":[],"stateMutability":"nonpayable"},{"type":"function","name":"setAppCID","inputs":[{"name":"appCID_","type":"tuple","internalType":"struct CIDV1","components":[{"name":"prefixes","type":"bytes4","internalType":"bytes4"},{"name":"hash","type":"bytes32","internalType":"bytes32"}]}],"outputs":[],"stateMutability":"nonpayable"},{"type":"function","name":"setCuCountPerWorker","inputs":[{"name":"cuCountPerWorker_","type":"uint256","internalType":"uint256"}],"outputs":[],"stateMutability":"nonpayable"},{"type":"function","name":"setDiamond","inputs":[{"name":"diamond_","type":"address","internalType":"contract IDiamond"}],"outputs":[],"stateMutability":"nonpayable"},{"type":"function","name":"setEndedEpoch","inputs":[{"name":"endedEpoch","type":"uint256","internalType":"uint256"}],"outputs":[],"stateMutability":"nonpayable"},{"type":"function","name":"setGapsEpochCount","inputs":[{"name":"gapsEpochCount","type":"uint256","internalType":"uint256"}],"outputs":[],"stateMutability":"nonpayable"},{"type":"function","name":"setLastCommitedEpoch","inputs":[{"name":"lastCommitedEpoch","type":"uint256","internalType":"uint256"}],"outputs":[],"stateMutability":"nonpayable"},{"type":"function","name":"setLockedBalance","inputs":[{"name":"lockedBalance","type":"uint256","internalType":"uint256"}],"outputs":[],"stateMutability":"nonpayable"},{"type":"function","name":"setMaxPaidEpoch","inputs":[{"name":"maxPaidEpoch","type":"uint256","internalType":"uint256"}],"outputs":[],"stateMutability":"nonpayable"},{"type":"function","name":"setMinWorkers","inputs":[{"name":"minWorkers_","type":"uint256","internalType":"uint256"}],"outputs":[],"stateMutability":"nonpayable"},{"type":"function","name":"setPricePerCuPerEpoch","inputs":[{"name":"pricePerCuPerEpoch_","type":"uint256","internalType":"uint256"}],"outputs":[],"stateMutability":"nonpayable"},{"type":"function","name":"setTargetWorkers","inputs":[{"name":"targetWorkers_","type":"uint256","internalType":"uint256"}],"outputs":[],"stateMutability":"nonpayable"},{"type":"function","name":"setTotalBalance","inputs":[{"name":"totalBalance","type":"uint256","internalType":"uint256"}],"outputs":[],"stateMutability":"nonpayable"},{"type":"function","name":"setWorkerCount","inputs":[{"name":"workerCount_","type":"uint256","internalType":"uint256"}],"outputs":[],"stateMutability":"nonpayable"},{"type":"function","name":"stop","inputs":[],"outputs":[],"stateMutability":"nonpayable"},{"type":"function","name":"targetWorkers","inputs":[],"outputs":[{"name":"","type":"uint256","internalType":"uint256"}],"stateMutability":"view"},{"type":"function","name":"transferOwnership","inputs":[{"name":"newOwner","type":"address","internalType":"address"}],"outputs":[],"stateMutability":"nonpayable"},{"type":"function","name":"withdraw","inputs":[{"name":"amount","type":"uint256","internalType":"uint256"}],"outputs":[],"stateMutability":"nonpayable"},{"type":"function","name":"withdrawRewards","inputs":[{"name":"onchainWorkerId","type":"bytes32","internalType":"bytes32"}],"outputs":[],"stateMutability":"nonpayable"},{"type":"event","name":"AppCIDChanged","inputs":[{"name":"newAppCID","type":"tuple","indexed":false,"internalType":"struct CIDV1","components":[{"name":"prefixes","type":"bytes4","internalType":"bytes4"},{"name":"hash","type":"bytes32","internalType":"bytes32"}]}],"anonymous":false},{"type":"event","name":"DealEnded","inputs":[{"name":"endedEpoch","type":"uint256","indexed":false,"internalType":"uint256"}],"anonymous":false},{"type":"event","name":"Deposited","inputs":[{"name":"amount","type":"uint256","indexed":false,"internalType":"uint256"}],"anonymous":false},{"type":"event","name":"Initialized","inputs":[{"name":"version","type":"uint64","indexed":false,"internalType":"uint64"}],"anonymous":false},{"type":"event","name":"MaxPaidEpochUpdated","inputs":[{"name":"maxPaidEpoch","type":"uint256","indexed":false,"internalType":"uint256"}],"anonymous":false},{"type":"event","name":"OwnershipTransferred","inputs":[{"name":"previousOwner","type":"address","indexed":true,"internalType":"address"},{"name":"newOwner","type":"address","indexed":true,"internalType":"address"}],"anonymous":false},{"type":"event","name":"ProviderAddedToAccessList","inputs":[{"name":"provider","type":"address","indexed":false,"internalType":"address"}],"anonymous":false},{"type":"event","name":"ProviderRemovedFromAccessList","inputs":[{"name":"provider","type":"address","indexed":false,"internalType":"address"}],"anonymous":false},{"type":"event","name":"ProvidersAccessTypeChanged","inputs":[{"name":"newAccessType","type":"uint8","indexed":false,"internalType":"enum IConfig.AccessType"}],"anonymous":false},{"type":"event","name":"RewardWithdrawn","inputs":[{"name":"onchainWorkerId","type":"bytes32","indexed":false,"internalType":"bytes32"},{"name":"providerReward","type":"uint256","indexed":false,"internalType":"uint256"},{"name":"stakerReward","type":"uint256","indexed":false,"internalType":"uint256"}],"anonymous":false},{"type":"event","name":"Withdrawn","inputs":[{"name":"amount","type":"uint256","indexed":false,"internalType":"uint256"}],"anonymous":false},{"type":"event","name":"WorkerIdUpdated","inputs":[{"name":"onchainWorkerId","type":"bytes32","indexed":false,"internalType":"bytes32"},{"name":"offchainWorkerId","type":"bytes32","indexed":false,"internalType":"bytes32"}],"anonymous":false},{"type":"event","name":"WorkerJoined","inputs":[{"name":"peerId","type":"bytes32","indexed":true,"internalType":"bytes32"},{"name":"onchainId","type":"bytes32","indexed":false,"internalType":"bytes32"}],"anonymous":false},{"type":"event","name":"WorkerRemoved","inputs":[{"name":"peerId","type":"bytes32","indexed":true,"internalType":"bytes32"},{"name":"onchainId","type":"bytes32","indexed":false,"internalType":"bytes32"}],"anonymous":false},{"type":"error","name":"AddressEmptyCode","inputs":[{"name":"target","type":"address","internalType":"address"}]},{"type":"error","name":"FailedCall","inputs":[]},{"type":"error","name":"InvalidInitialization","inputs":[]},{"type":"error","name":"NotInitializing","inputs":[]},{"type":"error","name":"OwnableInvalidOwner","inputs":[{"name":"owner","type":"address","internalType":"address"}]},{"type":"error","name":"OwnableUnauthorizedAccount","inputs":[{"name":"account","type":"address","internalType":"address"}]},{"type":"error","name":"ReentrancyGuardReentrantCall","inputs":[]},{"type":"error","name":"SafeERC20FailedOperation","inputs":[{"name":"token","type":"address","internalType":"address"}]}],"bytecode":{"object":"0x6080806040523460d0577ff0c57e16840df040f15088dc2f81fe391c3923bec73e23a9662efc9c229c6a005460ff8160401c1660c1576002600160401b03196001600160401b03821601605c575b60405161521590816100d58239f35b6001600160401b0319166001600160401b039081177ff0c57e16840df040f15088dc2f81fe391c3923bec73e23a9662efc9c229c6a005581527fc7f505b2f371ae2175ee4913f4499e1f2633a7b5936321eed1cdaeb6115181d290602090a15f80604d565b63f92ee8a960e01b5f5260045ffd5b5f80fdfe60806040526004361015610011575f80fd5b5f803560e01c8063034659271461303557806304f1bd56146130105780630574131f14612e6b57806307da68f514612c275780630ac25f1014612c005780631388325114612bd957806315a0f31a14612bae5780631763451414612b83578063176474cf14612a6a5780631af57b9614612a3957806322ebd58a1461299f5780632943dcab146129745780632db31193146129495780632e1a7d4d146123ad5780633013ce29146123775780633116eeda1461235057806333ce93fe14612325578063378b22e4146122fa5780633d0bdad7146122d35780633e8ae1ae146122a5578063444e6a5a1461217d5780634d7599f1146121525780634e69d5601461212457806359c4afc0146120de578063630eceea14611fed578063636fcefb14611e5a5780636e5e47b114611dc057806370220a9b14611d95578063715018a614611d3f57806373134c1514611b9c57806376ed535a14611b545780637d1fd49e14611b2d5780637dfb662614611a29578063869ef43c14611a025780638a0c725b146119d75780638da5cb5b146119a15780639276ef6d1461197a57806393d2bafc146118df5780639bc66868146118825780639c09e82d1461185b578063aba93a1014611827578063ac9650d81461160f578063ade0a202146115e4578063bc126f1f14611476578063bd1926e014611439578063c1499f71146112c5578063c9ed50081461129e578063cb7b88d114611019578063d4773ff014610fe2578063d76e480514610a1d578063d93446c4146103da578063e116568f146103b3578063e93c4f151461038c578063f2fde38b1461035f5763fc1e5e2a14610277575f80fd5b3461035c578060031936011261035c575f80516020614e808339815191525461029f816131c9565b6102ac60405191826130d6565b8181525f80516020614e8083398151915283526020810191837f5702833323968fbb14fdd86869039efe011756b786a9a900c16991bda0e3e573845b83831061033e57868587604051928392602084019060208552518091526040840192915b81811061031a575050500390f35b91935091602060408261033060019488516130f9565b01940191019184939261030c565b6002602060019261034e856138fc565b8152019201920191906102e8565b80fd5b503461035c57602036600319011261035c5761038961037c61305a565b6103846142bd565b613a98565b80f35b503461035c578060031936011261035c57602060606103a9613c4c565b0151604051908152f35b503461035c57602036600319011261035c576004355f80516020614f608339815191525580f35b503461035c576101c036600319011261035c576103f561305a565b6040366023190112610a19576064356001600160a01b0381168103610a155760c4359161012435919060a4356084356001600160401b038511610a115736602386011215610a11576004850135956001600160401b03871161088e573660248860061b8801011161088e5761014435906003821015610a0d57610164356001600160401b038111610a095761048e903690600401613186565b6101a4359790959194906001600160a01b0389168903610a05575f8051602061514083398151915254604081901c60ff161599906001600160401b038116801590816109fd575b60011490816109f3575b1590816109ea575b506109db576001600160401b031981166001175f805160206151408339815191525561053591908b6109b3575b5061051d614c10565b610525614c10565b61052d614c10565b610384614c10565b61053d614c10565b811561095a578282116108f157831561089257435f80516020614da0833981519152555f80516020614d8083398151915280546001600160a01b03998a166001600160a01b03199182161782555f80516020614f40833981519152805493909a169216919091179097555f805160206150a0833981519152555f80516020614f60833981519152555f805160206150c08339815191525560e4355f805160206151c083398151915255610104355f80516020614e4083398151915255875b87811015610694575f80516020614e8083398151915254600160401b8110156106805760018101805f80516020614e808339815191525581101561066c57906106666001925f80516020614e808339815191528c5260208c2060248460061b8c010191851b01614029565b016105fb565b634e487b7160e01b8a52603260045260248afd5b634e487b7160e01b8a52604160045260248afd5b508795506106b2909291925f80516020615100833981519152613893565b5f80516020614de083398151915290855b81811061084d57505050506106e660245f80516020615020833981519152614029565b604051906024359063ffffffff60e01b8216809203610849575f80516020614f008339815191526040846020946004965260443585820152a1610727614c10565b610184355f805160206151a083398151915255610742614c10565b54604051630ecce30160e31b815292839182906001600160a01b03165afa90811561083e578391610808575b505f1981019081116107f4575f805160206150e08339815191525560015f80516020614f80833981519152556107a15780f35b60ff60401b195f8051602061514083398151915254165f80516020615140833981519152557fc7f505b2f371ae2175ee4913f4499e1f2633a7b5936321eed1cdaeb6115181d2602060405160018152a180f35b634e487b7160e01b83526011600452602483fd5b90506020813d602011610836575b81610823602093836130d6565b8101031261083257518361076e565b5f80fd5b3d9150610816565b6040513d85823e3d90fd5b8480fd5b610858818386613a88565b35906001600160a01b038216820361088e57600191828060a01b03165f528360205260405f208260ff19825416179055016106c3565b8780fd5b60405162461bcd60e51b815260206004820152603160248201527f436f6e6669673a206375436f756e74506572576f726b65722073686f756c6420604482015270062652067726561746572207468616e203607c1b6064820152608490fd5b60405162461bcd60e51b815260206004820152603b60248201527f436f6e6669673a206d696e576f726b6572732073686f756c64206265206c657360448201527a73206f7220657175616c20746f20746172676574576f726b65727360281b6064820152608490fd5b60405162461bcd60e51b815260206004820152602b60248201527f436f6e6669673a206d696e576f726b6572732073686f756c642062652067726560448201526a061746572207468616e20360ac1b6064820152608490fd5b6001600160481b0319166001600160401b01175f80516020615140833981519152555f610514565b63f92ee8a960e01b8e5260048efd5b9050155f6104e7565b303b1591506104df565b8c91506104d5565b8b80fd5b8980fd5b8880fd5b8680fd5b8280fd5b5080fd5b503461035c57606036600319011261035c57610a3761305a565b6024356001600160401b038111610a155760406003198236030112610a155760405190610a63826130bb565b600481013582526024810135906001600160401b03821161084957019036602383011215610fde57600482013591610a9a836131c9565b92610aa860405194856130d6565b808452602060048186019260051b8401010191368311610a1157602401905b828210610fce5750505060208101918252604435905f80516020614d8083398151915293610aff60018060a01b0386541633146131e0565b610b07613af6565b610b0f61377f565b6005811015610fba576002610b25911415613236565b5f80516020615080833981519152938454955f80516020614f6083398151915254871015610f7c57875b82518051821015610bf45781610b6491613a60565b5190818a525f80516020614dc083398151915260205260ff60408b205416610bb0576001918a525f80516020614dc083398151915260205260408a208260ff1982541617905501610b4f565b60405162461bcd60e51b815260206004820152601c60248201527b10dbdb5c1d5d19481d5b9a5d081a5cc8185b1c9958591e481d5cd95960221b6044820152606490fd5b50508688968688525f80516020614f2083398151915260205260ff604089205416610f41578688525f80516020614f2083398151915260205260408820600160ff1982541617905560018060a01b0385165f525f80516020614ec083398151915260205260405f20545f805160206151c083398151915254811015610efd5760018101809111610ee9576001600160a01b0386165f9081525f80516020614ec0833981519152602052604090205560018201918210610ed5575554604051630ecce30160e31b81529190602090839060049082906001600160a01b03165afa8015610eca578690610e97575b60059250845191519360405192610cf6846130a0565b888452602080850191825260408086018a81526001600160a01b03948516606088019081526080880196875260a08801998a528a518d525f80516020615180833981519152909352908b20955186559151600186015590516002850155516003840180546001600160a01b03191691909216179055516004820155915180519291909101906001600160401b038311610e8357600160401b8311610e83578154838355808410610e5d575b5060200190855260208520855b838110610e495750505050610dd181515f80516020614fc0833981519152614c50565b15610e055760207f9cd57cfa2e12a37215cabc6897396db265419bd7f06adad06227a2b163ecd6a39151604051908152a280f35b60405162461bcd60e51b815260206004820152601c60248201527b11985a5b1959081d1bc8185919081ddbdc9ad95c881d1bc81b1a5cdd60221b6044820152606490fd5b600190602084519401938184015501610dae565b828752836020882091820191015b818110610e785750610da1565b878155600101610e6b565b634e487b7160e01b86526041600452602486fd5b506020823d602011610ec2575b81610eb1602093836130d6565b810103126108325760059151610ce0565b3d9150610ea4565b6040513d88823e3d90fd5b634e487b7160e01b88526011600452602488fd5b634e487b7160e01b89526011600452602489fd5b606460405162461bcd60e51b815260206004820152602060248201527f4d617820776f726b657273207065722070726f766964657220726561636865646044820152fd5b60405162461bcd60e51b81526020600482015260136024820152721419595c925908185b1c9958591e481d5cd959606a1b6044820152606490fd5b60405162461bcd60e51b815260206004820152601660248201527515185c99d95d081ddbdc9ad95c9cc81c995858da195960521b6044820152606490fd5b634e487b7160e01b87526021600452602487fd5b8135815260209182019101610ac7565b8380fd5b503461035c578060031936011261035c575061101560ff5f805160206151008339815191525416604051918291826131b6565b0390f35b503461035c57602036600319011261035c576004356001600160401b038111610a195761104a903690600401613186565b5f80516020614d80833981519152546040516307dc0d1d60e41b815290602090829060049082906001600160a01b03165afa908115611293578491611259575b506001600160a01b03163303611215576110a2613af6565b6110aa613c4c565b6110b261377f565b6005811015806111f75760028214801561120b575b8181156111e7575b50156111a757611193578015908115611188575b50611114575b50825b8181106110f7578380f35b8061110e6111086001938587613a88565b35614721565b016110ec565b60a0015115611123575f6110e9565b60405162461bcd60e51b815260206004820152603760248201527f4174206c65617374203120756e706169642065706f636820726571756972656460448201527620746f20636f6e7369646572206465616c207374616c6560481b6064820152608490fd5b60039150145f6110e3565b634e487b7160e01b85526021600452602485fd5b60405162461bcd60e51b815260206004820152601860248201527715dbdc9ad95c9cc81a5b881919585b08185c99481c185a5960421b6044820152606490fd5b90506111f75760038214816110cf565b634e487b7160e01b86526021600452602486fd5b50508481156110c7565b606460405162461bcd60e51b815260206004820152602060248201527f4f6e6c79206f7261636c652063616e2063616c6c2074686973206d6574686f646044820152fd5b90506020813d60201161128b575b81611274602093836130d6565b81010312610fde57611285906132da565b5f61108a565b3d9150611267565b6040513d86823e3d90fd5b503461035c57602036600319011261035c576004355f80516020614ea08339815191525580f35b503461035c578060031936011261035c576112ec5f80516020614fc0833981519152613958565b80516112f7816131c9565b9061130560405192836130d6565b808252611314601f19916131c9565b01835b818110611422575050825b82518110156113bb578061133860019285613a60565b5185525f805160206151808339815191526020526040852061139a600560405192611362846130a0565b8054845285810154602085015260028101546040850152858060a01b0360038201541660608501526004810154608085015201613958565b60a08201526113a98285613a60565b526113b48184613a60565b5001611322565b81846040519182916020830160208452825180915260408401602060408360051b870101940192905b8282106113f357505050500390f35b919360019193955060206114128192603f198a82030186528851613112565b96019201920185949391926113e4565b60209061142d613928565b82828601015201611317565b503461035c57602036600319011261035c5760ff6040826020935060043581525f80516020614f2083398151915284522054166040519015158152f35b503461035c57602036600319011261035c57600435611494816139df565b5f80516020614d8083398151915260018060a01b0390541690608060408201516024604051809581936321b9a09560e21b835260048301525afa9182156112935784926115b3575b50606001516001600160a01b0316331490811561159c575b50801561157c575b15611512576103899061150d613af6565b614721565b60405162461bcd60e51b815260206004820152603c60248201527f4f6e6c792070726f76696465722c2070656572206f776e6572206f722064656160448201527b1b081bdddb995c8818d85b8818d85b1b081d1a1a5cc81b595d1a1bd960221b6064820152608490fd5b505f80516020614fe0833981519152546001600160a01b031633146114fc565b606001516001600160a01b0316331490505f6114f4565b6115d691925060803d6080116115dd575b6115ce81836130d6565b81019061340c565b905f6114dc565b503d6115c4565b503461035c578060031936011261035c575060205f80516020614ee083398151915254604051908152f35b503461035c57602036600319011261035c576004356001600160401b038111610a1957611640903690600401613186565b90602060405161165082826130d6565b848152818101601f198301368237611667856131c9565b9361167560405195866130d6565b858552601f19611684876131c9565b01875b81811061181857505036819003601e190190875b878110156117a057888160051b83013584811215610a195783018035906001600160401b038211610a155788018136038113610a15578661170684938b6040519382859383850197883783018281018881528e519283915e010185815203601f1981018352826130d6565b5190305af4893d1561178d57503d906001600160401b03821161177957916117576001928c98979695948a601f19601f840116019161174860405193846130d6565b82523d8a8c84013e5b30614ba6565b611761828b613a60565b5261176c818a613a60565b500190919293945061169b565b634e487b7160e01b8b52604160045260248bfd5b9594939291611757600192606090611751565b88868860405191808301818452825180915260408401918060408360051b870101940192865b8388106117d35786860387f35b9091929394838080600193603f198b8203018752818a518051918291828552018484015e86838284010152601f801991011601019701930197019690939291936117c6565b60608782018701528501611687565b503461035c57602036600319011261035c576110156118476004356139df565b604051918291602083526020830190613112565b503461035c57602036600319011261035c576004355f80516020614e008339815191525580f35b503461035c578060031936011261035c5761189b613395565b50506040805160015f805160206150208339815191526118ba836130bb565b63ffffffff60e01b815460e01b168352015460208201526118dd825180926130f9565bf35b503461035c5736600319016101808112610a19576101601361035c5760405161190781613070565b6004358152602435602082015260443560408201526064356060820152608435608082015260a43560a082015260c43560c082015260e43560e082015261010435908115158203610a15576103899161010082015261012435610120820152610144356101408201526101643590613e9b565b503461035c57602036600319011261035c576004355f80516020614e408339815191525580f35b503461035c578060031936011261035c57505f80516020614fe0833981519152546040516001600160a01b039091168152602090f35b503461035c578060031936011261035c575060205f805160206151c083398151915254604051908152f35b503461035c57602036600319011261035c576004355f805160206150c08339815191525580f35b503461035c57602036600319011261035c57600435611a47816139df565b905f80516020614d8083398151915260018060a01b03905416608060408401516024604051809481936321b9a09560e21b835260048301525afa80156112935761038993611ab4928692611b0c575b50606001516001600160a01b03163314908115611af5575b50613461565b611abc613af6565b611ae9611ac8826139df565b611ad0613c4c565b928184925190606060018060a01b0391015116916142f0565b61014081015190613e9b565b606001516001600160a01b0316331490505f611aae565b611b2691925060803d6080116115dd576115ce81836130d6565b905f611a96565b503461035c57602036600319011261035c576004355f805160206150a08339815191525580f35b503461035c57602036600319011261035c57611b6e61305a565b5f80516020614d8083398151915280546001600160a01b0319166001600160a01b0390921691909117905580f35b503461035c57602036600319011261035c57611bb661305a565b5f80516020614d80833981519152546040516302984ebd60e31b815290602090829060049082906001600160a01b03165afa90811561083e578391611d05575b506001600160a01b031633148015611ce5575b611c12906132ee565b60ff5f8051602061510083398151915254166003811015611cd15715611c8e576001600160a01b03165f8181525f80516020614de08339815191526020908152604091829020805460ff1916600117905590519182527f4c26e4de691e265be6cf03e639754839907bf74687cd524a6734851331527ffd91a180f35b60405162461bcd60e51b815260206004820152601b60248201527a436f6e6669673a206163636573732074797065206973204e4f4e4560281b6044820152606490fd5b634e487b7160e01b83526021600452602483fd5b505f80516020614fe0833981519152546001600160a01b03163314611c09565b90506020813d602011611d37575b81611d20602093836130d6565b81010312610a1557611d31906132da565b5f611bf6565b3d9150611d13565b503461035c578060031936011261035c57611d586142bd565b5f80516020614fe083398151915280546001600160a01b0319811690915581906001600160a01b03165f80516020614fa08339815191528280a380f35b503461035c578060031936011261035c575060205f80516020614e4083398151915254604051908152f35b503461035c578060031936011261035c57611dd96138ab565b50610160611de5613c4c565b61014060405191805183526020810151602084015260408101516040840152606081015160608401526080810151608084015260a081015160a084015260c081015160c084015260e081015160e084015261010081015115156101008401526101208101516101208401520151610140820152f35b503461035c57602036600319011261035c576004356003811015610a19575f80516020614d80833981519152546040516302984ebd60e31b815290602090829060049082906001600160a01b03165afa90811561083e578391611fb3575b506001600160a01b031633148015611f93575b611ed4906132ee565b60ff5f8051602061510083398151915254166003811015611cd1578114611f4357611f3d81611f317f1f5a251428f76335a835fcae94ab6a9bcf09ac33bd3c782eb6a81bdf878a7393935f80516020615100833981519152613893565b604051918291826131b6565b0390a180f35b60405162461bcd60e51b815260206004820152602260248201527f436f6e6669673a20616363657373207479706520697320616c72656164792073604482015261195d60f21b6064820152608490fd5b505f80516020614fe0833981519152546001600160a01b03163314611ecb565b90506020813d602011611fe5575b81611fce602093836130d6565b81010312610a1557611fdf906132da565b5f611eb8565b3d9150611fc1565b503461035c578060031936011261035c575f80516020614d8083398151915254604051638da5cb5b60e01b815290602090829060049082906001600160a01b03165afa9081156120d3578291612099575b506001600160a01b0316330361205657610389613af6565b60405162461bcd60e51b815260206004820152601b60248201527a13db9b1e48191a585b5bdb99081bdddb995c8818d85b8818d85b1b602a1b6044820152606490fd5b90506020813d6020116120cb575b816120b4602093836130d6565b81010312610a19576120c5906132da565b5f61203e565b3d91506120a7565b6040513d84823e3d90fd5b503461035c57602036600319011261035c576120f861305a565b905060018060a01b03165f525f80516020614ec0833981519152602052602060405f2054604051908152f35b503461035c578060031936011261035c5761213d61377f565b604051906005811015611cd157602092508152f35b503461035c578060031936011261035c575060205f8051602061508083398151915254604051908152f35b503461035c57602036600319011261035c5761219761305a565b5f80516020614d80833981519152546040516302984ebd60e31b815290602090829060049082906001600160a01b03165afa90811561083e578391612258575b505f80516020615000833981519152916020916001600160a01b031633148015612238575b612205906132ee565b6001600160a01b03165f8181525f80516020614de08339815191528352604090819020805460ff1916905551908152a180f35b505f80516020614fe0833981519152546001600160a01b031633146121fc565b90506020813d60201161229d575b81612273602093836130d6565b81010312610a15575f80516020615000833981519152916122956020926132da565b9150916121d7565b3d9150612266565b503461035c57602036600319011261035c5760206122c96122c461305a565b6136ef565b6040519015158152f35b503461035c57602036600319011261035c576004355f805160206150808339815191525580f35b503461035c578060031936011261035c575060205f8051602061512083398151915254604051908152f35b503461035c578060031936011261035c575060205f805160206151a083398151915254604051908152f35b503461035c57602036600319011261035c576004355f80516020614e608339815191525580f35b503461035c578060031936011261035c57505f80516020614f40833981519152546040516001600160a01b039091168152602090f35b503461035c57602036600319011261035c575f80516020614d8083398151915280546040516302984ebd60e31b8152600480359392602091839182906001600160a01b03165afa90811561129357849161290f575b506001600160a01b0316331480156128ef575b61241e906132ee565b5f805160206150608339815191525c6128e05760015f805160206150608339815191525d61244a613af6565b5f80516020614ea0833981519152612460613c4c565b82546040516372ea4f2360e01b815290602090829060049082906001600160a01b03165afa908115610eca5786916128ac575b506124c86124b36124dd925f80516020614e40833981519152549061369e565b5f805160206150c0833981519152549061369e565b5f80516020614f60833981519152549061369e565b606082016124ec8682516136b1565b8091526101008301511515806128a3575b1561282a57505060c08101515f805160206151608339815191525484546040516372ea4f2360e01b81529190602090839060049082906001600160a01b03165afa90811561281f5788916127e9575b6125569250613272565b10156127805784926125806020928461257288600497546136b1565b905561014081015190613e9b565b5460405163fd44f92160e01b815292839182906001600160a01b03165afa9081156120d3578291612751575b505f80516020614f40833981519152545f80516020614fe083398151915280546001600160a01b039384169391929082169116833b15610849576040516388081fcb60e01b815291859183918291612609918a91600485016132b2565b038183875af190811561129357849161273c575b50505f80516020614f408339815191525490546001600160a01b039182169116823b15610fde576040516312bc368360e31b8152918491839182916126699189913391600486016136be565b038183865af190811561083e578391612727575b50505f80516020614f40833981519152546001600160a01b031690803b15610a15578383916126c4938360405180968195829462b13fab60e11b84523390600485016132b2565b03925af180156120d357612712575b507f430648de173157e069201c943adb2d4e340e7cf5b27b1b09c9cb852f03d63b56602083604051908152a1805f805160206150608339815191525d80f35b8161271c916130d6565b610a1957815f6126d3565b81612731916130d6565b610a1957815f61267d565b81612746916130d6565b610a1557825f61261d565b612773915060203d602011612779575b61276b81836130d6565b810190613293565b5f6125ac565b503d612761565b60405162461bcd60e51b815260206004820152603b60248201527f43616e2774207769746864726177206265666f7265206d696e4465616c44657060448201527a1bdcda5d1959115c1bd8da1cc818599d195c881919585b08195b99602a1b6064820152608490fd5b90506020823d602011612817575b81612804602093836130d6565b810103126108325761255691519061254c565b3d91506127f7565b6040513d8a823e3d90fd5b9091939250106128435760206004916125808694611ae9565b60405162461bcd60e51b815260206004820152603260248201527f467265652062616c616e6365206e6565647320746f20636f766572206d696e4460448201527165616c4465706f736974656445706f63687360701b6064820152608490fd5b508181106124fd565b90506020813d6020116128d8575b816128c7602093836130d6565b8101031261083257516124c8612493565b3d91506128ba565b633ee5aeb560e01b8352600483fd5b505f80516020614fe0833981519152546001600160a01b03163314612415565b90506020813d602011612941575b8161292a602093836130d6565b81010312610fde5761293b906132da565b5f612402565b3d915061291d565b503461035c578060031936011261035c575060205f805160206150a083398151915254604051908152f35b503461035c578060031936011261035c575060205f80516020614f6083398151915254604051908152f35b503461035c57604036600319011261035c576004356129bd816139df565b905f80516020614d8083398151915260018060a01b03905416608060408401516024604051809481936321b9a09560e21b835260048301525afa80156112935761038993612a28928692611b0c5750606001516001600160a01b03163314908115611af55750613461565b612a30613af6565b6024359061351c565b503461035c57602036600319011261035c576040612a586004356133ad565b60208251918051835201516020820152f35b503461035c57604036600319011261035c575f80516020614d8083398151915280546040516302984ebd60e31b815290602090829060049082906001600160a01b03165afa90811561083e578391612b49575b506001600160a01b031633148015612b29575b612ad9906132ee565b50612af260045f80516020615020833981519152614029565b60405160043563ffffffff60e01b8116809103610a1557816040915f80516020614f0083398151915293526024356020820152a180f35b505f80516020614fe0833981519152546001600160a01b03163314612ad0565b90506020813d602011612b7b575b81612b64602093836130d6565b81010312610a1557612b75906132da565b5f612abd565b3d9150612b57565b503461035c578060031936011261035c575060205f80516020614da083398151915254604051908152f35b503461035c578060031936011261035c575060205f805160206150c083398151915254604051908152f35b503461035c57602036600319011261035c576004355f805160206151608339815191525580f35b503461035c57602036600319011261035c576004355f805160206150e08339815191525580f35b503461035c578060031936011261035c575f80516020614d8083398151915280546040516302984ebd60e31b815291929190602090829060049082906001600160a01b03165afa9081156120d3578291612e31575b506001600160a01b031633148015612e11575b612c98906132ee565b612ca0613af6565b612ca861377f565b916005831015612dfd57612cc0600283941415613354565b612ccb611ae9613c4c565b8054604051630ecce30160e31b815290602090829060049082906001600160a01b03165afa90811561083e578391612dc5575b506020817f3ad16bb58712aa329948d76146b096a4f4b85e024d99473dc50bcd358811b86c925f805160206151208339815191525411612d9a575b805f8051602061516083398151915255604051908152a1546001600160a01b0316803b15612d975781809160046040518094819363437e8bf160e01b83525af180156120d357612d865750f35b81612d90916130d6565b61035c5780f35b50fd5b805f80516020615120833981519152555f80516020614e2083398151915282604051838152a1612d39565b9250506020823d602011612df5575b81612de1602093836130d6565b810103126108325790518291906020612cfe565b3d9150612dd4565b634e487b7160e01b82526021600452602482fd5b505f80516020614fe0833981519152546001600160a01b03163314612c8f565b90506020813d602011612e63575b81612e4c602093836130d6565b81010312610a1957612e5d906132da565b5f612c7c565b3d9150612e3f565b5034610832576020366003190112610832576004355f80516020614d80833981519152612ea260018060a01b0382541633146131e0565b612eaa613af6565b612eb261377f565b6005811015612ffc57600491612ecd60026020931415613236565b612ef5612ed8613c4c565b60608101612ee7878251613272565b905261014081015190613e9b565b5460405163fd44f92160e01b815292839182906001600160a01b03165afa908115612fd2575f91612fdd575b505f80516020614f40833981519152545f80516020614fe0833981519152546001600160a01b03928316929081169116823b1561083257612f7e925f9283869360405196879586948593630459093360e21b8552600485016132b2565b03925af18015612fd257612fbc575b5060207f2a89b2e3d580398d6dc2db5e0f336b52602bbaa51afa9bb5cdf59239cf0d2bea91604051908152a180f35b612fc99192505f906130d6565b5f906020612f8d565b6040513d5f823e3d90fd5b612ff6915060203d6020116127795761276b81836130d6565b5f612f21565b634e487b7160e01b5f52602160045260245ffd5b34610832576020366003190112610832576004355f8051602061512083398151915255005b34610832576020366003190112610832576004355f80516020614ee083398151915255005b600435906001600160a01b038216820361083257565b61016081019081106001600160401b0382111761308c57604052565b634e487b7160e01b5f52604160045260245ffd5b60c081019081106001600160401b0382111761308c57604052565b604081019081106001600160401b0382111761308c57604052565b601f909101601f19168101906001600160401b0382119082101761308c57604052565b80516001600160e01b0319168252602090810151910152565b602060e060a060c085019380518652838101518487015260408101516040870152600180831b0360608201511660608701526080810151608087015201519360c060a08201528451809452019201905f5b8181106131705750505090565b8251845260209384019390920191600101613163565b9181601f84011215610832578235916001600160401b038311610832576020808501948460051b01011161083257565b919060208301926003821015612ffc5752565b6001600160401b03811161308c5760051b60200190565b156131e757565b60405162461bcd60e51b815260206004820152602160248201527f436f6e6669673a2063616c6c6572206973206e6f7420746865204469616d6f6e6044820152601960fa1b6064820152608490fd5b1561323d57565b60405162461bcd60e51b815260206004820152600d60248201526c1119585b081a5cc8195b991959609a1b6044820152606490fd5b9190820180921161327f57565b634e487b7160e01b5f52601160045260245ffd5b9081602091031261083257516001600160a01b03811681036108325790565b6001600160a01b0391821681529116602082015260408101919091525f606082015260800190565b51906001600160a01b038216820361083257565b156132f557565b60405162461bcd60e51b815260206004820152603160248201527f4f6e6c7920566f646f706164206f72204465616c204f776e65722063616e206360448201527030b636103a3434b990333ab731ba34b7b760791b6064820152608490fd5b1561335b57565b60405162461bcd60e51b81526020600482015260126024820152714465616c206973206e6f742061637469766560701b6044820152606490fd5b604051906133a2826130bb565b5f6020838281520152565b6040516133b9816130bb565b5f81525f6020820152506133cb613c4c565b906133d5816139df565b51156133f257816133e96133ef93836140f4565b916141df565b90565b5050604051613400816130bb565b5f81525f602082015290565b908160809103126108325760405190608082016001600160401b0381118382101761308c5761345991606091604052805184526020810151602085015260408101516040850152016132da565b606082015290565b1561346857565b60405162461bcd60e51b815260206004820152603060248201527f4f6e6c792070726f7669646572206f722070656572206f776e65722063616e2060448201526f18d85b1b081d1a1a5cc81b595d1a1bd960821b6064820152608490fd5b156134cd57565b60405162461bcd60e51b815260206004820152602160248201527f4f6666636861696e20776f726b65722069642063616e277420626520656d70746044820152607960f81b6064820152608490fd5b81151590613529826134c6565b613531613c4c565b61014081015192825f525f8051602061518083398151915260205261355960405f20916134c6565b805415613670575b8481557fcf79e0e27c8c35d39bd9b727f35e6f79573597f660c88baf483fc1511c49203c60408051858152876020820152a160025f80516020614ee083398151915254910154936135b28284613e9b565b6135ba61377f565b6005811015612ffc57806135d460026135db931415613236565b1515613354565b1461366a57815f525f80516020615040833981519152602052600160a060405f209260e0810151845501519101555f80516020614d8083398151915260018060a01b03905416803b15610832575f9283606492604051968795869463bf0d370760e01b86526004860152602485015260448401525af18015612fd25761365e5750565b5f613668916130d6565b565b50505050565b5f80516020614ee0833981519152545f19811461327f576001015f80516020614ee083398151915255613561565b8181029291811591840414171561327f57565b9190820391821161327f57565b6001600160a01b0391821681529181166020830152909116604082015260608101919091525f608082015260a00190565b60ff5f8051602061510083398151915254166003811015612ffc578015613778576001811461374e5760021461372457505f90565b6001600160a01b03165f9081525f80516020614de0833981519152602052604090205460ff161590565b506001600160a01b03165f9081525f80516020614de0833981519152602052604090205460ff1690565b5050600190565b613787613c4c565b61010081015161388d575f8051602061512083398151915254801515908161387f575b5061387a57610140810151905f80516020614d80833981519152915f805160206150a08339815191525411613873576060015190546040516372ea4f2360e01b815290602090829060049082906001600160a01b03165afa908115612fd2575f9161383f575b506124c86124b3613830925f80516020614e40833981519152549061369e565b1161383a57600190565b600490565b90506020813d60201161386b575b8161385a602093836130d6565b8101031261083257516124c8613810565b3d915061384d565b5050600390565b505f90565b905060c0820151115f6137aa565b50600290565b906003811015612ffc5760ff80198354169116179055565b604051906138b882613070565b5f610140838281528260208201528260408201528260608201528260808201528260a08201528260c08201528260e082015282610100820152826101208201520152565b90604051613909816130bb565b825460e01b6001600160e01b0319168152600192909201546020830152565b60405190613935826130a0565b606060a0835f81525f60208201525f60408201525f838201525f60808201520152565b90604051918281549182825260208201905f5260205f20925f5b818110613987575050613668925003836130d6565b8454835260019485019487945060209093019201613972565b156139a757565b60405162461bcd60e51b815260206004820152601060248201526f15dbdc9ad95c881b9bdd08199bdd5b9960821b6044820152606490fd5b6139e7613928565b505f525f8051602061518083398151915260205260405f206133ef60405191613a0f836130a0565b805483526001810154602084019081526002820154604085015260038201546001600160a01b031660608501526004820154608085015290613a5390600501613958565b60a08401525115156139a0565b8051821015613a745760209160051b010190565b634e487b7160e01b5f52603260045260245ffd5b9190811015613a745760051b0190565b6001600160a01b03168015613ae3575f80516020614fe083398151915280546001600160a01b0319811683179091556001600160a01b03165f80516020614fa08339815191525f80a3565b631e4fbdf760e01b5f525f60045260245ffd5b5f80516020614d808339815191525460405163fd44f92160e01b81525f80516020614ea083398151915291602090829060049082906001600160a01b03165afa908115612fd2575f91613c2d575b505f80516020614f8083398151915254613c295760015f80516020614f808339815191525560018060a01b035f80516020614f4083398151915254169060018060a01b03169160205f82546040518381019163a9059cbb60e01b8352876024830152604482015260448152613bba6064826130d6565b519082865af115612fd2575f513d613c205750813b155b613c0d5754823b156108325760445f9283604051958694859363a0aeae9f60e01b8552600485015260248401525af18015612fd25761365e5750565b50635274afe760e01b5f5260045260245ffd5b60011415613bd1565b5050565b613c46915060203d6020116127795761276b81836130d6565b5f613b44565b613c546138ab565b505f80516020614d8083398151915254604051630ecce30160e31b81525f80516020614ea08339815191529291602090829060049082906001600160a01b03165afa908115612fd2575f91613e69575b505f19810181811161327f57905f8051602061516083398151915254915f9280613e5d575b505f80516020614ee083398151915254945f80516020614e4083398151915254935f805160206150c08339815191525491613d026138ab565b5054935f80516020614e60833981519152545f80516020614e00833981519152549060405196613d3188613070565b8088528160208901528260408901526060880152608087015260a086015260c08501528260e08501521515610100840152836101208401528561014084015282955f805160206150e0833981519152549384841115613e5457505f80516020615120833981519152549485841115613e1d57858510613dcd57505050613dc9919250613dc360a08601938451926136b1565b90613272565b9052565b613deb9291613de6613de692613de6613dc9988a6136b1565b61369e565b60608601613dfa8282516136b1565b9052613e0b60808701918251613272565b9052613dc360a08601938451926136b1565b613e349550613de6613de6929395613de6956136b1565b60608301613e438282516136b1565b9052613dc960808401918251613272565b96505050505050565b6001935090505f613cc9565b90506020813d602011613e93575b81613e84602093836130d6565b8101031261083257515f613ca4565b3d9150613e77565b905f80516020614ea0833981519152825160608401918251809203614021575b50506020830151608084015180910361400c575b50604083015160a0840151809103613ff7575b505f805160206150c0833981519152549060e08401519361010081015115613f1a575b505050505f805160206150e083398151915255565b5f805160206150a0833981519152548085109182613faa5750505090613de6613f539251935f80516020614e408339815191525461369e565b8015613f9657613f756020915f80516020614e20833981519152930484613272565b805f8051602061512083398151915255604051908152a15b5f808080613f05565b634e487b7160e01b5f52601260045260245ffd5b6101400151101593509150829050613fef575b5015613f8d575f5f80516020615120833981519152555f80516020614e2083398151915260206040515f8152a1613f8d565b90505f613fbd565b5f80516020614e00833981519152555f613ee2565b5f80516020614e60833981519152555f613ecf565b555f80613ebb565b9080356001600160e01b0319811681036108325760019160209160e01c63ffffffff198554161784550135910155565b9081610160910312610832576040519061407282613070565b8051906006821015610832576101409183526020810151602084015260408101516040840152606081015160608401526080810151608084015260a081015160a084015260c081015160c08401526140cc60e082016132da565b60e0840152610100810151610100840152610120810151610120840152015161014082015290565b9060e00151905f80516020614d808339815191529060ff5f8051602061510083398151915254166003811015612ffc576001146141da5761413761016091614a90565b9154604051631de5608360e21b81526004810193909352829060249082906001600160a01b03165afa908115612fd2575f916141ab575b50610120810151806141a5575060a00180515f19810190811161327f578211614195575090565b515f1981019150811161327f5790565b91505090565b6141cd91506101603d81116141d3575b6141c581836130d6565b810190614059565b5f61416e565b503d6141bb565b505090565b916040516141ec816130bb565b5f81525f602082015250825f525f8051602061504083398151915260205261421760405f2093614b0c565b928054918281106142ac5760a061423361423f946001936136b1565b940151910154906136b1565b9081811061429d5761427d6142766124b36142616142859562989680956136b1565b5f80516020614e40833981519152549061369e565b938461369e565b0480926136b1565b9060405191614293836130bb565b8252602082015290565b505050604051613400816130bb565b5050505050604051613400816130bb565b5f80516020614fe0833981519152546001600160a01b031633036142dd57565b63118cdaa760e01b5f523360045260245ffd5b9291905f901561366a5761430483856140f4565b916143108385876141df565b928351946143246020860196875190613272565b9182156147175761436091608091895f525f8051602061504083398151915260205260405f20908155600160a0830151910155019182516136b1565b90525f80516020614d80833981519152805460405163fd44f92160e01b81529190602090839060049082906001600160a01b03165afa918215612fd2575f926146f6575b5060018060a01b035f80516020614f4083398151915254169285516145be575b50855161440d575b50505050916060917fc512f9d0bb2627096491f1074af42a5032fe36ef5dcae7c216cfc34f6ea474d6935190519060405192835260208301526040820152a1565b54604051638da5cb5b60e01b81529190602090839060049082906001600160a01b03165afa918215611293578492614582575b505f80516020614fe0833981519152805487516001600160a01b039384169493909116843b15610a11576040516388081fcb60e01b81529187918391829161448d91908a600485016132b2565b038183885af18015610eca5790869161456d575b5050548651906001600160a01b0316833b15614569578286916144d960405194859384936312bc368360e31b85528a600486016136be565b038183875af1801561455e57908591614549575b5050855192823b15610849579161451e93918580946040519687958694859362b13fab60e11b8552600485016132b2565b03925af180156120d357614534575b80806143cc565b61453f8280926130d6565b61035c578061452d565b81614553916130d6565b610fde57835f6144ed565b6040513d87823e3d90fd5b8580fd5b81614577916130d6565b61084957845f6144a1565b9091506020813d6020116145b6575b8161459e602093836130d6565b81010312610fde576145af906132da565b905f614440565b3d9150614591565b5f80516020614fe0833981519152805487516001600160a01b03868116939216833b15610832576040516388081fcb60e01b8152915f918391829161460891908c600485016132b2565b038183875af18015612fd2576146e1575b50548751906001600160a01b0316823b1561088e5783889161465060405194859384936312bc368360e31b85528c600486016136be565b038183865af180156146d6579087916146c1575b5050865191813b15610a1157918691614694938360405180968195829462b13fab60e11b84528c600485016132b2565b03925af1801561455e579085916146ac575b506143c4565b816146b6916130d6565b610fde57835f6146a6565b816146cb916130d6565b61456957855f614664565b6040513d89823e3d90fd5b6146ee9197505f906130d6565b5f955f614619565b61471091925060203d6020116127795761276b81836130d6565b905f6143a4565b5050505050505050565b61472a816139df565b91614733613c4c565b91835190614751845f9360018060a01b0360608901511690846142f0565b5f8051602061508083398151915294815f525f8051602061518083398151915260205260405f209460405195614786876130a0565b8054875260018101549660208101978852600282015491604082019283526147e16147d1600560018060a01b0360038501541693606086019485526004810154608087015201613958565b9960a084019a8b525115156139a0565b5f5b8951805182101561482157906147fb81600193613a60565b515f525f80516020614dc083398151915260205260405f2060ff198154169055016147e3565b50509193959750919395976148368154614c04565b9055516001600160a01b03165f9081525f80516020614ec083398151915260205260409020805461486690614c04565b905551614a65575b5190815f525f80516020614f2083398151915260205260405f2060ff198154169055835f525f80516020615180833981519152602052600560405f205f81555f60018201555f60028201555f60038201555f6004820155018054905f815581614a47575b50506148eb845f80516020614fc0833981519152614cba565b156149f857614933917f2931f8975c0ce3cdf8ebe0cac36f06048736d46d6df66ac21cfe717b9ee710066020604051878152a25f80516020614ee08339815191525490613e9b565b5f80516020614d808339815191525460a09190910151906001600160a01b0316803b1561083257604051809263012a4ebb60e41b8252604482016040600484015281518091526020606484019201905f5b8181106149df5750505091815f81819588602483015203925af18015612fd2576149ca575b5081525f805160206150408339815191526020526001604082208281550155565b6149d79192505f906130d6565b5f905f6149a9565b8251845286945060209384019390920191600101614984565b60405162461bcd60e51b815260206004820152602160248201527f4661696c656420746f2072656d6f766520776f726b65722066726f6d206c69736044820152601d60fa1b6064820152608490fd5b5f5260205f20908101905b818110156148d2575f8155600101614a52565b614a7c5f80516020614ee083398151915254614c04565b5f80516020614ee08339815191525561486e565b614a99906139df565b5f80516020614d808339815191525460409182015191516321b9a09560e21b81526004810192909252608090829060249082906001600160a01b03165afa8015612fd2576020915f91614aed575b50015190565b614b06915060803d6080116115dd576115ce81836130d6565b5f614ae7565b5f80516020614d808339815191529060ff5f8051602061510083398151915254166003811015612ffc57600114614ba057614b4961016091614a90565b9154604051631de5608360e21b81526004810193909352829060249082906001600160a01b03165afa8015612fd25760c0915f91614b875750015190565b614b0691506101603d81116141d3576141c581836130d6565b50505f90565b90614bca5750805115614bbb57805190602001fd5b63d6bda27560e01b5f5260045ffd5b81511580614bfb575b614bdb575090565b639996b31560e01b5f9081526001600160a01b0391909116600452602490fd5b50803b15614bd3565b801561327f575f190190565b60ff5f805160206151408339815191525460401c1615614c2c57565b631afcd79f60e31b5f5260045ffd5b8054821015613a74575f5260205f2001905f90565b6001810190825f528160205260405f2054155f14614cb3578054600160401b81101561308c57614ca0614c8a826001879401855584614c3b565b819391549060031b91821b915f19901b19161790565b905554915f5260205260405f2055600190565b5050505f90565b906001820191815f528260205260405f20548015155f14614d77575f19810181811161327f5782545f1981019190821161327f57818103614d42575b50505080548015614d2e575f190190614d0f8282614c3b565b8154905f199060031b1b19169055555f526020525f6040812055600190565b634e487b7160e01b5f52603160045260245ffd5b614d62614d52614c8a9386614c3b565b90549060031b1c92839286614c3b565b90555f528360205260405f20555f8080614cf6565b505050505f9056fe8953f5482bc1a621075e75537625fa3bd2025e7df7baf6ba1dbfbf2212912d048953f5482bc1a621075e75537625fa3bd2025e7df7baf6ba1dbfbf2212912d05ec986952a0671e4b2e5ec4461085fb880bc7a7b88668240f8d55173039155d248953f5482bc1a621075e75537625fa3bd2025e7df7baf6ba1dbfbf2212912d1185276e830bb0cbb783f0e6b4a968acc65deef7a2b0ff14d52821c42f785b9cc1cecd349d986645e1758ec135f91f1ad20564a8bcc6c2b5a5eaca9b09841495c58953f5482bc1a621075e75537625fa3bd2025e7df7baf6ba1dbfbf2212912d0e85276e830bb0cbb783f0e6b4a968acc65deef7a2b0ff14d52821c42f785b9cc08953f5482bc1a621075e75537625fa3bd2025e7df7baf6ba1dbfbf2212912d0f85276e830bb0cbb783f0e6b4a968acc65deef7a2b0ff14d52821c42f785b9cbfec986952a0671e4b2e5ec4461085fb880bc7a7b88668240f8d55173039155d22ec986952a0671e4b2e5ec4461085fb880bc7a7b88668240f8d55173039155d21c820a66d3bdd50a45cf12cda6dc8ec9e94fb5123edd7da736eea18316f8523a0ec986952a0671e4b2e5ec4461085fb880bc7a7b88668240f8d55173039155d258953f5482bc1a621075e75537625fa3bd2025e7df7baf6ba1dbfbf2212912d088953f5482bc1a621075e75537625fa3bd2025e7df7baf6ba1dbfbf2212912d0b85276e830bb0cbb783f0e6b4a968acc65deef7a2b0ff14d52821c42f785b9cc78be0079c531659141344cd1fd0a4f28419497f9722a3daafe3b4186f6b6457e0ec986952a0671e4b2e5ec4461085fb880bc7a7b88668240f8d55173039155d26b13d3e7783d509d8d65d3e1e62ec0b103a07e0cbfa1ee74ae19127f297dddfcc38fb081a0b484406977bd94ff8edb79be44b5ca514130361182516b39e2c45288953f5482bc1a621075e75537625fa3bd2025e7df7baf6ba1dbfbf2212912d0685276e830bb0cbb783f0e6b4a968acc65deef7a2b0ff14d52821c42f785b9cc49b779b17422d0df92223018b32b4d1fa46e071723d6817e2486d003becc55f00ec986952a0671e4b2e5ec4461085fb880bc7a7b88668240f8d55173039155d208953f5482bc1a621075e75537625fa3bd2025e7df7baf6ba1dbfbf2212912d0a8953f5482bc1a621075e75537625fa3bd2025e7df7baf6ba1dbfbf2212912d0d85276e830bb0cbb783f0e6b4a968acc65deef7a2b0ff14d52821c42f785b9cc38953f5482bc1a621075e75537625fa3bd2025e7df7baf6ba1dbfbf2212912d1085276e830bb0cbb783f0e6b4a968acc65deef7a2b0ff14d52821c42f785b9cc2f0c57e16840df040f15088dc2f81fe391c3923bec73e23a9662efc9c229c6a0085276e830bb0cbb783f0e6b4a968acc65deef7a2b0ff14d52821c42f785b9cc5ec986952a0671e4b2e5ec4461085fb880bc7a7b88668240f8d55173039155d2385276e830bb0cbb783f0e6b4a968acc65deef7a2b0ff14d52821c42f785b9cc68953f5482bc1a621075e75537625fa3bd2025e7df7baf6ba1dbfbf2212912d0ca264697066735822122046d4153ce0b8cd415a4be806d6d8cd572b5419691b7d5f151a8612837ec2ca0664736f6c634300081a0033","linkReferences":{}},"methodIdentifiers":{"activateWorker(bytes32,bytes32)":"22ebd58a","addProviderToAccessList(address)":"73134c15","addWorker(address,(bytes32,bytes32[]),bytes32)":"d76e4805","appCID()":"9bc66868","changeProvidersAccessType(uint8)":"636fcefb","computePeerUsed(bytes32)":"bd1926e0","creationBlock()":"17634514","cuCountPerWorker()":"15a0f31a","depositFromOwner(uint256)":"0574131f","effectors()":"fc1e5e2a","getActivatedWorkerCount()":"ade0a202","getFreeBalance()":"e93c4f15","getMaxPaidEpoch()":"378b22e4","getProtocolVersion()":"33ce93fe","getRewardAmount(bytes32)":"1af57b96","getStatus()":"4e69d560","getWorker(bytes32)":"aba93a10","getWorkerCount()":"4d7599f1","getWorkerCount(address)":"59c4afc0","getWorkers()":"c1499f71","initialize(address,(bytes4,bytes32),address,uint256,uint256,uint256,uint256,uint256,(bytes4,bytes32)[],uint8,address[],uint256,address)":"d93446c4","isProviderAllowed(address)":"3e8ae1ae","maxWorkersPerProvider()":"8a0c725b","migrateToBalanceKeeper()":"630eceea","minWorkers()":"2db31193","multicall(bytes[])":"ac9650d8","owner()":"8da5cb5b","paymentToken()":"3013ce29","postCommitPeriod((uint256,uint256,uint256,uint256,uint256,uint256,uint256,uint256,bool,uint256,uint256),uint256)":"93d2bafc","preCommitPeriod()":"6e5e47b1","pricePerCuPerEpoch()":"70220a9b","providersAccessType()":"d4773ff0","removeProviderFromAccessList(address)":"444e6a5a","removeStaleWorkers(bytes32[])":"cb7b88d1","removeWorker(bytes32)":"bc126f1f","renounceOwnership()":"715018a6","setActivatedWorkerCount(uint256)":"03465927","setAppCID((bytes4,bytes32))":"176474cf","setCuCountPerWorker(uint256)":"869ef43c","setDiamond(address)":"76ed535a","setEndedEpoch(uint256)":"13883251","setGapsEpochCount(uint256)":"9c09e82d","setLastCommitedEpoch(uint256)":"0ac25f10","setLockedBalance(uint256)":"3116eeda","setMaxPaidEpoch(uint256)":"04f1bd56","setMinWorkers(uint256)":"7d1fd49e","setPricePerCuPerEpoch(uint256)":"9276ef6d","setTargetWorkers(uint256)":"e116568f","setTotalBalance(uint256)":"c9ed5008","setWorkerCount(uint256)":"3d0bdad7","stop()":"07da68f5","targetWorkers()":"2943dcab","transferOwnership(address)":"f2fde38b","withdraw(uint256)":"2e1a7d4d","withdrawRewards(bytes32)":"7dfb6626"},"storageLayout":{"storage":[],"types":{}},"devdoc":{"version":1,"kind":"dev","methods":{"activateWorker(bytes32,bytes32)":{"details":"Set offchain worker ID for a corresponding onchain worker for a deal"},"addProviderToAccessList(address)":{"details":"Adds a provider to the access list"},"addWorker(address,(bytes32,bytes32[]),bytes32)":{"details":"Adds a compute unit to the deal","params":{"computeProvider":"The compute provider address","peerId":"The peer ID","workerData":"The worker with data"}},"appCID()":{"details":"Returns the app CID"},"changeProvidersAccessType(uint8)":{"details":"Change the providers access type"},"computePeerUsed(bytes32)":{"details":"Returns the boolean flag indicating whether the peer exists in the deal"},"creationBlock()":{"details":"Returns the creation block of the deal"},"cuCountPerWorker()":{"details":"Returns number of CUs in a worker"},"depositFromOwner(uint256)":{"details":"Deposits payment token to the deal"},"effectors()":{"details":"Returns the effector CIDs"},"getActivatedWorkerCount()":{"details":"Returns the worker count. Worker is a compute unit that has a worker ID"},"getFreeBalance()":{"details":"Returns the free balance of the deal"},"getMaxPaidEpoch()":{"details":"Returns the max paid epoch"},"getProtocolVersion()":{"details":"Returns the protocol version"},"getRewardAmount(bytes32)":{"details":"Returns the reward amount by compute unit ID"},"getStatus()":{"details":"Returns the status of the deal"},"getWorker(bytes32)":{"details":"Returns worker by ID"},"getWorkerCount()":{"details":"Returns total number of workers"},"getWorkerCount(address)":{"details":"Returns number of workers in provider"},"getWorkers()":{"details":"Returns workers registered in this deal"},"isProviderAllowed(address)":{"details":"Returns the boolean indicating whether the provider is allowed or not"},"maxWorkersPerProvider()":{"details":"Returns the max number of workers per provider"},"migrateToBalanceKeeper()":{"details":"Migrate balance to balance keeper"},"minWorkers()":{"details":"Returns the min number of workers"},"multicall(bytes[])":{"details":"Receives and executes a batch of function calls on this contract."},"owner()":{"details":"Returns the address of the current owner."},"paymentToken()":{"details":"Returns the payment token address"},"pricePerCuPerEpoch()":{"details":"Returns the price per CU per epoch"},"providersAccessType()":{"details":"Returns the providers access type"},"removeProviderFromAccessList(address)":{"details":"Removes a provider from the access list"},"removeStaleWorkers(bytes32[])":{"details":"Allows oracle to remove worker from a deal that is not paying workers."},"removeWorker(bytes32)":{"details":"Removes a worker from the deal"},"renounceOwnership()":{"details":"Leaves the contract without owner. It will not be possible to call `onlyOwner` functions. Can only be called by the current owner. NOTE: Renouncing ownership will leave the contract without an owner, thereby disabling any functionality that is only available to the owner."},"setAppCID((bytes4,bytes32))":{"details":"Sets the app CID"},"stop()":{"details":"Stop the deal"},"targetWorkers()":{"details":"Returns the max number of workers"},"transferOwnership(address)":{"details":"Transfers ownership of the contract to a new account (`newOwner`). Can only be called by the current owner."},"withdraw(uint256)":{"details":"Withdraws payment token from the deal"},"withdrawRewards(bytes32)":{"details":"Withdraws rewards from the deal by compute unit ID"}},"events":{"AppCIDChanged((bytes4,bytes32))":{"details":"Emitted when the app CID is changed","params":{"newAppCID":"The new app CID"}},"DealEnded(uint256)":{"details":"Emitted when a deal is ended. This event can be emitted in the not-ended epoch. It can be emitted after the ended epoch in any epoch"},"Deposited(uint256)":{"details":"Emitted when a owner deposits payment token to the deal"},"Initialized(uint64)":{"details":"Triggered when the contract has been initialized or reinitialized."},"MaxPaidEpochUpdated(uint256)":{"details":"Emitted when a max paid epoch is updated"},"ProviderAddedToAccessList(address)":{"details":"Emitted when a provider is added to the access list","params":{"provider":"The provider address"}},"ProviderRemovedFromAccessList(address)":{"details":"Emitted when a provider is removed from the access list","params":{"provider":"The provider address"}},"ProvidersAccessTypeChanged(uint8)":{"details":"Emitted when the providers access type is changed","params":{"newAccessType":"The new access type"}},"RewardWithdrawn(bytes32,uint256,uint256)":{"details":"Emitted when a compute unit withdraws rewards from the deal"},"Withdrawn(uint256)":{"details":"Emitted when a owner withdraws payment token from the deal"},"WorkerIdUpdated(bytes32,bytes32)":{"details":"Emitted when a worker ID is updated","params":{"offchainWorkerId":"The new worker ID","onchainWorkerId":"The worker"}},"WorkerJoined(bytes32,bytes32)":{"details":"Emitted when a new worker is added","params":{"onchainId":"The worker ID","peerId":"The id of compute peer"}},"WorkerRemoved(bytes32,bytes32)":{"details":"Emitted when a worker is removed","params":{"onchainId":"The worker onchain ID","peerId":"The id of compute peer"}}},"errors":{"AddressEmptyCode(address)":[{"details":"There's no code at `target` (it is not a contract)."}],"FailedCall()":[{"details":"A call to an address target failed. The target may have reverted."}],"InvalidInitialization()":[{"details":"The contract is already initialized."}],"NotInitializing()":[{"details":"The contract is not initializing."}],"OwnableInvalidOwner(address)":[{"details":"The owner is not a valid owner account. (eg. `address(0)`)"}],"OwnableUnauthorizedAccount(address)":[{"details":"The caller account is not authorized to perform an operation."}],"ReentrancyGuardReentrantCall()":[{"details":"Unauthorized reentrant call."}],"SafeERC20FailedOperation(address)":[{"details":"An operation with an ERC-20 token failed."}]}},"id":121}