{"abi":[{"type":"function","name":"activateWorker","inputs":[{"name":"onchainWorkerId","type":"bytes32","internalType":"bytes32"},{"name":"offchainWorkerId","type":"bytes32","internalType":"bytes32"}],"outputs":[],"stateMutability":"nonpayable"},{"type":"function","name":"addProviderToAccessList","inputs":[{"name":"provider","type":"address","internalType":"address"}],"outputs":[],"stateMutability":"nonpayable"},{"type":"function","name":"addWorker","inputs":[{"name":"computeProvider","type":"address","internalType":"address"},{"name":"workerData","type":"tuple","internalType":"struct IWorkerManager.WorkerData","components":[{"name":"onchainId","type":"bytes32","internalType":"bytes32"},{"name":"computeUnitIds","type":"bytes32[]","internalType":"bytes32[]"}]},{"name":"peerId","type":"bytes32","internalType":"bytes32"}],"outputs":[],"stateMutability":"nonpayable"},{"type":"function","name":"appCID","inputs":[],"outputs":[{"name":"","type":"tuple","internalType":"struct CIDV1","components":[{"name":"prefixes","type":"bytes4","internalType":"bytes4"},{"name":"hash","type":"bytes32","internalType":"bytes32"}]}],"stateMutability":"view"},{"type":"function","name":"changeProvidersAccessType","inputs":[{"name":"accessType","type":"uint8","internalType":"enum IConfig.AccessType"}],"outputs":[],"stateMutability":"nonpayable"},{"type":"function","name":"computePeerUsed","inputs":[{"name":"peerId","type":"bytes32","internalType":"bytes32"}],"outputs":[{"name":"","type":"bool","internalType":"bool"}],"stateMutability":"view"},{"type":"function","name":"creationBlock","inputs":[],"outputs":[{"name":"","type":"uint256","internalType":"uint256"}],"stateMutability":"view"},{"type":"function","name":"cuCountPerWorker","inputs":[],"outputs":[{"name":"","type":"uint256","internalType":"uint256"}],"stateMutability":"view"},{"type":"function","name":"deposit","inputs":[{"name":"amount","type":"uint256","internalType":"uint256"}],"outputs":[],"stateMutability":"nonpayable"},{"type":"function","name":"effectors","inputs":[],"outputs":[{"name":"","type":"tuple[]","internalType":"struct CIDV1[]","components":[{"name":"prefixes","type":"bytes4","internalType":"bytes4"},{"name":"hash","type":"bytes32","internalType":"bytes32"}]}],"stateMutability":"view"},{"type":"function","name":"getActivatedWorkerCount","inputs":[],"outputs":[{"name":"","type":"uint256","internalType":"uint256"}],"stateMutability":"view"},{"type":"function","name":"getFreeBalance","inputs":[],"outputs":[{"name":"","type":"uint256","internalType":"uint256"}],"stateMutability":"view"},{"type":"function","name":"getMaxPaidEpoch","inputs":[],"outputs":[{"name":"","type":"uint256","internalType":"uint256"}],"stateMutability":"view"},{"type":"function","name":"getProtocolVersion","inputs":[],"outputs":[{"name":"","type":"uint256","internalType":"uint256"}],"stateMutability":"view"},{"type":"function","name":"getRewardAmount","inputs":[{"name":"onchainWorkerId","type":"bytes32","internalType":"bytes32"}],"outputs":[{"name":"","type":"tuple","internalType":"struct IDeal.DealRewards","components":[{"name":"providerReward","type":"uint256","internalType":"uint256"},{"name":"stakerReward","type":"uint256","internalType":"uint256"}]}],"stateMutability":"view"},{"type":"function","name":"getStatus","inputs":[],"outputs":[{"name":"","type":"uint8","internalType":"enum IDeal.Status"}],"stateMutability":"view"},{"type":"function","name":"getWorker","inputs":[{"name":"onchainWorkerId","type":"bytes32","internalType":"bytes32"}],"outputs":[{"name":"","type":"tuple","internalType":"struct IWorkerManager.Worker","components":[{"name":"offchainId","type":"bytes32","internalType":"bytes32"},{"name":"onchainId","type":"bytes32","internalType":"bytes32"},{"name":"peerId","type":"bytes32","internalType":"bytes32"},{"name":"provider","type":"address","internalType":"address"},{"name":"joinedEpoch","type":"uint256","internalType":"uint256"},{"name":"computeUnitIds","type":"bytes32[]","internalType":"bytes32[]"}]}],"stateMutability":"view"},{"type":"function","name":"getWorkerCount","inputs":[],"outputs":[{"name":"","type":"uint256","internalType":"uint256"}],"stateMutability":"view"},{"type":"function","name":"getWorkerCount","inputs":[{"name":"provider","type":"address","internalType":"address"}],"outputs":[{"name":"","type":"uint256","internalType":"uint256"}],"stateMutability":"view"},{"type":"function","name":"getWorkers","inputs":[],"outputs":[{"name":"","type":"tuple[]","internalType":"struct IWorkerManager.Worker[]","components":[{"name":"offchainId","type":"bytes32","internalType":"bytes32"},{"name":"onchainId","type":"bytes32","internalType":"bytes32"},{"name":"peerId","type":"bytes32","internalType":"bytes32"},{"name":"provider","type":"address","internalType":"address"},{"name":"joinedEpoch","type":"uint256","internalType":"uint256"},{"name":"computeUnitIds","type":"bytes32[]","internalType":"bytes32[]"}]}],"stateMutability":"view"},{"type":"function","name":"initialize","inputs":[{"name":"diamond_","type":"address","internalType":"contract IDiamond"},{"name":"appCID_","type":"tuple","internalType":"struct CIDV1","components":[{"name":"prefixes","type":"bytes4","internalType":"bytes4"},{"name":"hash","type":"bytes32","internalType":"bytes32"}]},{"name":"paymentToken_","type":"address","internalType":"contract IERC20"},{"name":"minWorkers_","type":"uint256","internalType":"uint256"},{"name":"targetWorkers_","type":"uint256","internalType":"uint256"},{"name":"cuCountPerWorker_","type":"uint256","internalType":"uint256"},{"name":"maxWorkersPerProvider_","type":"uint256","internalType":"uint256"},{"name":"pricePerCuPerEpoch_","type":"uint256","internalType":"uint256"},{"name":"effectors_","type":"tuple[]","internalType":"struct CIDV1[]","components":[{"name":"prefixes","type":"bytes4","internalType":"bytes4"},{"name":"hash","type":"bytes32","internalType":"bytes32"}]},{"name":"providersAccessType_","type":"uint8","internalType":"enum IConfig.AccessType"},{"name":"providersAccessList_","type":"address[]","internalType":"address[]"},{"name":"protocolVersion_","type":"uint256","internalType":"uint256"}],"outputs":[],"stateMutability":"nonpayable"},{"type":"function","name":"isProviderAllowed","inputs":[{"name":"account","type":"address","internalType":"address"}],"outputs":[{"name":"","type":"bool","internalType":"bool"}],"stateMutability":"view"},{"type":"function","name":"maxWorkersPerProvider","inputs":[],"outputs":[{"name":"","type":"uint256","internalType":"uint256"}],"stateMutability":"view"},{"type":"function","name":"minWorkers","inputs":[],"outputs":[{"name":"","type":"uint256","internalType":"uint256"}],"stateMutability":"view"},{"type":"function","name":"multicall","inputs":[{"name":"data","type":"bytes[]","internalType":"bytes[]"}],"outputs":[{"name":"results","type":"bytes[]","internalType":"bytes[]"}],"stateMutability":"nonpayable"},{"type":"function","name":"owner","inputs":[],"outputs":[{"name":"","type":"address","internalType":"address"}],"stateMutability":"view"},{"type":"function","name":"paymentToken","inputs":[],"outputs":[{"name":"","type":"address","internalType":"contract IERC20"}],"stateMutability":"view"},{"type":"function","name":"postCommitPeriod","inputs":[{"name":"snapshot","type":"tuple","internalType":"struct DealSnapshot.Cache","components":[{"name":"_initTotalBalance","type":"uint256","internalType":"uint256"},{"name":"_initLockedBalance","type":"uint256","internalType":"uint256"},{"name":"_initGapsEpochCount","type":"uint256","internalType":"uint256"},{"name":"_totalBalance","type":"uint256","internalType":"uint256"},{"name":"_lockedBalance","type":"uint256","internalType":"uint256"},{"name":"_gapsEpochCount","type":"uint256","internalType":"uint256"},{"name":"_currentEpoch","type":"uint256","internalType":"uint256"},{"name":"_snapshotEpoch","type":"uint256","internalType":"uint256"},{"name":"_isEnded","type":"bool","internalType":"bool"},{"name":"_pricePerCuPerEpoch","type":"uint256","internalType":"uint256"},{"name":"_activeWorkerCount","type":"uint256","internalType":"uint256"}]},{"name":"newWorkerCount","type":"uint256","internalType":"uint256"}],"outputs":[],"stateMutability":"nonpayable"},{"type":"function","name":"preCommitPeriod","inputs":[],"outputs":[{"name":"","type":"tuple","internalType":"struct DealSnapshot.Cache","components":[{"name":"_initTotalBalance","type":"uint256","internalType":"uint256"},{"name":"_initLockedBalance","type":"uint256","internalType":"uint256"},{"name":"_initGapsEpochCount","type":"uint256","internalType":"uint256"},{"name":"_totalBalance","type":"uint256","internalType":"uint256"},{"name":"_lockedBalance","type":"uint256","internalType":"uint256"},{"name":"_gapsEpochCount","type":"uint256","internalType":"uint256"},{"name":"_currentEpoch","type":"uint256","internalType":"uint256"},{"name":"_snapshotEpoch","type":"uint256","internalType":"uint256"},{"name":"_isEnded","type":"bool","internalType":"bool"},{"name":"_pricePerCuPerEpoch","type":"uint256","internalType":"uint256"},{"name":"_activeWorkerCount","type":"uint256","internalType":"uint256"}]}],"stateMutability":"view"},{"type":"function","name":"pricePerCuPerEpoch","inputs":[],"outputs":[{"name":"","type":"uint256","internalType":"uint256"}],"stateMutability":"view"},{"type":"function","name":"providersAccessType","inputs":[],"outputs":[{"name":"","type":"uint8","internalType":"enum IConfig.AccessType"}],"stateMutability":"view"},{"type":"function","name":"removeProviderFromAccessList","inputs":[{"name":"provider","type":"address","internalType":"address"}],"outputs":[],"stateMutability":"nonpayable"},{"type":"function","name":"removeStaleWorkers","inputs":[{"name":"onchainWorkerIds","type":"bytes32[]","internalType":"bytes32[]"}],"outputs":[],"stateMutability":"nonpayable"},{"type":"function","name":"removeWorker","inputs":[{"name":"onchainWorkerId","type":"bytes32","internalType":"bytes32"}],"outputs":[],"stateMutability":"nonpayable"},{"type":"function","name":"renounceOwnership","inputs":[],"outputs":[],"stateMutability":"nonpayable"},{"type":"function","name":"setActivatedWorkerCount","inputs":[{"name":"activatedWorkerCount_","type":"uint256","internalType":"uint256"}],"outputs":[],"stateMutability":"nonpayable"},{"type":"function","name":"setAppCID","inputs":[{"name":"appCID_","type":"tuple","internalType":"struct CIDV1","components":[{"name":"prefixes","type":"bytes4","internalType":"bytes4"},{"name":"hash","type":"bytes32","internalType":"bytes32"}]}],"outputs":[],"stateMutability":"nonpayable"},{"type":"function","name":"setCuCountPerWorker","inputs":[{"name":"cuCountPerWorker_","type":"uint256","internalType":"uint256"}],"outputs":[],"stateMutability":"nonpayable"},{"type":"function","name":"setDiamond","inputs":[{"name":"diamond_","type":"address","internalType":"contract IDiamond"}],"outputs":[],"stateMutability":"nonpayable"},{"type":"function","name":"setEndedEpoch","inputs":[{"name":"endedEpoch","type":"uint256","internalType":"uint256"}],"outputs":[],"stateMutability":"nonpayable"},{"type":"function","name":"setGapsEpochCount","inputs":[{"name":"gapsEpochCount","type":"uint256","internalType":"uint256"}],"outputs":[],"stateMutability":"nonpayable"},{"type":"function","name":"setLastCommitedEpoch","inputs":[{"name":"lastCommitedEpoch","type":"uint256","internalType":"uint256"}],"outputs":[],"stateMutability":"nonpayable"},{"type":"function","name":"setLockedBalance","inputs":[{"name":"lockedBalance","type":"uint256","internalType":"uint256"}],"outputs":[],"stateMutability":"nonpayable"},{"type":"function","name":"setMaxPaidEpoch","inputs":[{"name":"maxPaidEpoch","type":"uint256","internalType":"uint256"}],"outputs":[],"stateMutability":"nonpayable"},{"type":"function","name":"setMinWorkers","inputs":[{"name":"minWorkers_","type":"uint256","internalType":"uint256"}],"outputs":[],"stateMutability":"nonpayable"},{"type":"function","name":"setPricePerCuPerEpoch","inputs":[{"name":"pricePerCuPerEpoch_","type":"uint256","internalType":"uint256"}],"outputs":[],"stateMutability":"nonpayable"},{"type":"function","name":"setTargetWorkers","inputs":[{"name":"targetWorkers_","type":"uint256","internalType":"uint256"}],"outputs":[],"stateMutability":"nonpayable"},{"type":"function","name":"setTotalBalance","inputs":[{"name":"totalBalance","type":"uint256","internalType":"uint256"}],"outputs":[],"stateMutability":"nonpayable"},{"type":"function","name":"setWorkerCount","inputs":[{"name":"workerCount_","type":"uint256","internalType":"uint256"}],"outputs":[],"stateMutability":"nonpayable"},{"type":"function","name":"stop","inputs":[],"outputs":[],"stateMutability":"nonpayable"},{"type":"function","name":"targetWorkers","inputs":[],"outputs":[{"name":"","type":"uint256","internalType":"uint256"}],"stateMutability":"view"},{"type":"function","name":"transferOwnership","inputs":[{"name":"newOwner","type":"address","internalType":"address"}],"outputs":[],"stateMutability":"nonpayable"},{"type":"function","name":"withdraw","inputs":[{"name":"amount","type":"uint256","internalType":"uint256"}],"outputs":[],"stateMutability":"nonpayable"},{"type":"function","name":"withdrawRewards","inputs":[{"name":"onchainWorkerId","type":"bytes32","internalType":"bytes32"}],"outputs":[],"stateMutability":"nonpayable"},{"type":"event","name":"AppCIDChanged","inputs":[{"name":"newAppCID","type":"tuple","indexed":false,"internalType":"struct CIDV1","components":[{"name":"prefixes","type":"bytes4","internalType":"bytes4"},{"name":"hash","type":"bytes32","internalType":"bytes32"}]}],"anonymous":false},{"type":"event","name":"DealEnded","inputs":[{"name":"endedEpoch","type":"uint256","indexed":false,"internalType":"uint256"}],"anonymous":false},{"type":"event","name":"Deposited","inputs":[{"name":"amount","type":"uint256","indexed":false,"internalType":"uint256"}],"anonymous":false},{"type":"event","name":"Initialized","inputs":[{"name":"version","type":"uint64","indexed":false,"internalType":"uint64"}],"anonymous":false},{"type":"event","name":"MaxPaidEpochUpdated","inputs":[{"name":"maxPaidEpoch","type":"uint256","indexed":false,"internalType":"uint256"}],"anonymous":false},{"type":"event","name":"OwnershipTransferred","inputs":[{"name":"previousOwner","type":"address","indexed":true,"internalType":"address"},{"name":"newOwner","type":"address","indexed":true,"internalType":"address"}],"anonymous":false},{"type":"event","name":"ProviderAddedToAccessList","inputs":[{"name":"provider","type":"address","indexed":false,"internalType":"address"}],"anonymous":false},{"type":"event","name":"ProviderRemovedFromAccessList","inputs":[{"name":"provider","type":"address","indexed":false,"internalType":"address"}],"anonymous":false},{"type":"event","name":"ProvidersAccessTypeChanged","inputs":[{"name":"newAccessType","type":"uint8","indexed":false,"internalType":"enum IConfig.AccessType"}],"anonymous":false},{"type":"event","name":"RewardWithdrawn","inputs":[{"name":"onchainWorkerId","type":"bytes32","indexed":false,"internalType":"bytes32"},{"name":"providerReward","type":"uint256","indexed":false,"internalType":"uint256"},{"name":"stakerReward","type":"uint256","indexed":false,"internalType":"uint256"}],"anonymous":false},{"type":"event","name":"Withdrawn","inputs":[{"name":"amount","type":"uint256","indexed":false,"internalType":"uint256"}],"anonymous":false},{"type":"event","name":"WorkerIdUpdated","inputs":[{"name":"onchainWorkerId","type":"bytes32","indexed":false,"internalType":"bytes32"},{"name":"offchainWorkerId","type":"bytes32","indexed":false,"internalType":"bytes32"}],"anonymous":false},{"type":"event","name":"WorkerJoined","inputs":[{"name":"peerId","type":"bytes32","indexed":true,"internalType":"bytes32"},{"name":"onchainId","type":"bytes32","indexed":false,"internalType":"bytes32"}],"anonymous":false},{"type":"event","name":"WorkerRemoved","inputs":[{"name":"peerId","type":"bytes32","indexed":true,"internalType":"bytes32"},{"name":"onchainId","type":"bytes32","indexed":false,"internalType":"bytes32"}],"anonymous":false},{"type":"error","name":"AddressEmptyCode","inputs":[{"name":"target","type":"address","internalType":"address"}]},{"type":"error","name":"FailedCall","inputs":[]},{"type":"error","name":"InvalidInitialization","inputs":[]},{"type":"error","name":"NotInitializing","inputs":[]},{"type":"error","name":"OwnableInvalidOwner","inputs":[{"name":"owner","type":"address","internalType":"address"}]},{"type":"error","name":"OwnableUnauthorizedAccount","inputs":[{"name":"account","type":"address","internalType":"address"}]},{"type":"error","name":"ReentrancyGuardReentrantCall","inputs":[]},{"type":"error","name":"SafeERC20FailedOperation","inputs":[{"name":"token","type":"address","internalType":"address"}]}],"bytecode":{"object":"0x6080806040523460d0577ff0c57e16840df040f15088dc2f81fe391c3923bec73e23a9662efc9c229c6a005460ff8160401c1660c1576002600160401b03196001600160401b03821601605c575b6040516143db90816100d58239f35b6001600160401b0319166001600160401b039081177ff0c57e16840df040f15088dc2f81fe391c3923bec73e23a9662efc9c229c6a005581527fc7f505b2f371ae2175ee4913f4499e1f2633a7b5936321eed1cdaeb6115181d290602090a15f80604d565b63f92ee8a960e01b5f5260045ffd5b5f80fdfe60806040526004361015610011575f80fd5b5f3560e01c8063034659271461271c57806304f1bd56146126f757806307da68f5146125c45780630ac25f101461259f578063138832511461257a57806315a0f31a146125515780631763451414612528578063176474cf146124c15780631af57b961461249157806322ebd58a146124005780632943dcab146123d75780632db31193146123ae5780632e1a7d4d1461206e5780633013ce291461203a5780633116eeda1461201557806333ce93fe14611fec578063378b22e414611fc35780633d0bdad714611f9e5780633e8ae1ae14611f71578063444e6a5a14611efb5780634d7599f114611ed25780634e69d56014611ea757806359c4afc014611e64578063636fcefb14611d81578063663c8ce9146117bf5780636e5e47b11461172657806370220a9b146116fd578063715018a6146116a957806373134c15146115ca57806376ed535a146115845780637d1fd49e1461155f5780637dfb662614611464578063869ef43c1461143f5780638a0c725b146114165780638da5cb5b146113e25780639276ef6d146113bd57806393d2bafc146113235780639bc66868146112c85780639c09e82d146112a3578063aba93a1014611270578063ac9650d814611082578063ade0a20214611059578063b6b55f2514610f79578063bc126f1f14610e14578063bd1926e014610dd9578063c1499f7114610c65578063c9ed500814610c40578063cb7b88d1146109f6578063d4773ff0146109c1578063d76e4805146103cd578063e116568f146103a8578063e93c4f1514610382578063f2fde38b146103575763fc1e5e2a1461026b575f80fd5b34610353575f366003190112610353575f80516020614066833981519152546102938161289c565b906102a160405192836127d9565b8082525f805160206140668339815191525f9081526020830191907f5702833323968fbb14fdd86869039efe011756b786a9a900c16991bda0e3e573835b838310610335578486604051918291602083019060208452518091526040830191905f5b818110610311575050500390f35b91935091602060408261032760019488516127fc565b019401910191849392610303565b6002602060019261034585612e25565b8152019201920191906102df565b5f80fd5b3461035357602036600319011261035357610380610373612741565b61037b61300d565b612faf565b005b34610353575f366003190112610353576020606061039e613040565b0151604051908152f35b34610353576020366003190112610353576004355f8051602061416683398151915255005b34610353576060366003190112610353576103e6612741565b602435906001600160401b03821161035357604060031983360301126103535760405191610413836127be565b600481013583526024810135906001600160401b038211610353570191366023840112156103535760048301359261044a8461289c565b9361045860405195866127d9565b808552602060048187019260051b840101019136831161035357602401905b8282106109b157505050602081019283525f80516020613f468339815191528054909260443592916001600160a01b03163303610962576104b6612ca8565b600581101561094e5760026104cc911415612a8f565b5f80516020614246833981519152948554905f8051602061416683398151915254821015610910575f5b8151805182101561059b578161050b91612f8b565b5190815f525f80516020613f8683398151915260205260ff60405f205416610557576001915f525f80516020613f8683398151915260205260405f208260ff19825416179055016104f6565b60405162461bcd60e51b815260206004820152601c60248201527b10dbdb5c1d5d19481d5b9a5d081a5cc8185b1c9958591e481d5cd95960221b6044820152606490fd5b50508686865f525f8051602061412683398151915260205260ff60405f2054166108d5575f8781525f8051602061412683398151915260209081526040808320805460ff191660011790556001600160a01b03881683525f805160206140a68339815191529091529020545f8051602061438683398151915254811015610891576001810180911161087d576001600160a01b0386165f9081525f805160206140a683398151915260205260409020556001840193841061087d579290559054604051630ecce30160e31b81529190602090839060049082906001600160a01b03165afa8015610872575f9061083f575b600592508451915193604051926106a2846127a3565b5f808552602080860192835260408087018b81526001600160a01b03958616606089019081526080890197885260a089019a8b528b5185525f8051602061434683398151915290935292209551865591516001860155516002850155516003840180546001600160a01b03191691909216179055516004820155915180519291909101906001600160401b03831161082b57600160401b831161082b578154838355808410610805575b50602001905f5260205f205f5b8381106107f157858561077a81515f805160206141a6833981519152613e16565b156107ad5760207f9cd57cfa2e12a37215cabc6897396db265419bd7f06adad06227a2b163ecd6a39151604051908152a2005b60405162461bcd60e51b815260206004820152601c60248201527b11985a5b1959081d1bc8185919081ddbdc9ad95c881d1bc81b1a5cdd60221b6044820152606490fd5b600190602084519401938184015501610759565b825f528360205f2091820191015b818110610820575061074c565b5f8155600101610813565b634e487b7160e01b5f52604160045260245ffd5b506020823d60201161086a575b81610859602093836127d9565b81010312610353576005915161068c565b3d915061084c565b6040513d5f823e3d90fd5b634e487b7160e01b5f52601160045260245ffd5b606460405162461bcd60e51b815260206004820152602060248201527f4d617820776f726b657273207065722070726f766964657220726561636865646044820152fd5b60405162461bcd60e51b81526020600482015260136024820152721419595c925908185b1c9958591e481d5cd959606a1b6044820152606490fd5b60405162461bcd60e51b815260206004820152601660248201527515185c99d95d081ddbdc9ad95c9cc81c995858da195960521b6044820152606490fd5b634e487b7160e01b5f52602160045260245ffd5b60405162461bcd60e51b815260206004820152602160248201527f436f6e6669673a2063616c6c6572206973206e6f7420746865204469616d6f6e6044820152601960fa1b6064820152608490fd5b8135815260209182019101610477565b34610353575f366003190112610353576109f260ff5f805160206142c6833981519152541660405191829182612889565b0390f35b34610353576020366003190112610353576004356001600160401b03811161035357610a26903690600401612757565b5f80516020613f46833981519152546040516307dc0d1d60e41b815291929190602090829060049082906001600160a01b03165afa908115610872575f91610c06575b506001600160a01b03163303610bc257610a81613040565b610a89612ca8565b60058110158061094e57600282148015610bb8575b818115610ba8575b5015610b685761094e578015908115610b5d575b50610ae9575b505f5b828110610acc57005b80610ae3610add6001938686612f9f565b3561388f565b01610ac3565b60a0015115610af85782610ac0565b60405162461bcd60e51b815260206004820152603760248201527f4174206c65617374203120756e706169642065706f636820726571756972656460448201527620746f20636f6e7369646572206465616c207374616c6560481b6064820152608490fd5b600391501484610aba565b60405162461bcd60e51b815260206004820152601860248201527715dbdc9ad95c9cc81a5b881919585b08185c99481c185a5960421b6044820152606490fd5b905061094e576003821481610aa6565b50505f8115610a9e565b606460405162461bcd60e51b815260206004820152602060248201527f4f6e6c79206f7261636c652063616e2063616c6c2074686973206d6574686f646044820152fd5b90506020813d602011610c38575b81610c21602093836127d9565b8101031261035357610c329061296b565b83610a69565b3d9150610c14565b34610353576020366003190112610353576004355f8051602061408683398151915255005b34610353575f36600319011261035357610c8b5f805160206141a6833981519152612e81565b805190610c978261289c565b91610ca560405193846127d9565b808352610cb4601f199161289c565b015f5b818110610dc25750505f5b8151811015610d5b5780610cd860019284612f8b565b515f525f8051602061434683398151915260205260405f20610d3a600560405192610d02846127a3565b8054845285810154602085015260028101546040850152858060a01b0360038201541660608501526004810154608085015201612e81565b60a0820152610d498286612f8b565b52610d548185612f8b565b5001610cc2565b826040518091602082016020835281518091526040830190602060408260051b8601019301915f905b828210610d9357505050500390f35b91936001919395506020610db28192603f198a82030186528851612815565b9601920192018594939192610d84565b602090610dcd612e51565b82828701015201610cb7565b34610353576020366003190112610353576004355f525f80516020614126833981519152602052602060ff60405f2054166040519015158152f35b3461035357602036600319011261035357600435610e3181612f0a565b5f80516020613f4683398151915260018060a01b0390541690608060408201516024604051809581936321b9a09560e21b835260048301525afa918215610872575f92610f48575b50606001516001600160a01b03163314908115610f31575b508015610f11575b15610ea7576103809061388f565b60405162461bcd60e51b815260206004820152603c60248201527f4f6e6c792070726f76696465722c2070656572206f776e6572206f722064656160448201527b1b081bdddb995c8818d85b8818d85b1b081d1a1a5cc81b595d1a1bd960221b6064820152608490fd5b505f805160206141c6833981519152546001600160a01b03163314610e99565b606001516001600160a01b03163314905082610e91565b610f6b91925060803d608011610f72575b610f6381836127d9565b81019061297f565b9083610e79565b503d610f59565b3461035357602036600319011261035357600435610f9561300d565b610f9d612ca8565b600581101561094e577f2a89b2e3d580398d6dc2db5e0f336b52602bbaa51afa9bb5cdf59239cf0d2bea91610fd760026020931415612a8f565b610fff610fe2613040565b60608101610ff1848251612c0b565b90526101408101519061328f565b5f80516020614146833981519152546040516323b872dd60e01b8482015233602482015230604482015260648082018490528152611050916001600160a01b031661104b6084836127d9565b613d14565b604051908152a1005b34610353575f3660031901126103535760205f805160206140c683398151915254604051908152f35b34610353576020366003190112610353576004356001600160401b038111610353576110b2903690600401612757565b60206040516110c182826127d9565b5f815281810190601f1983013683376110d98461289c565b946110e760405196876127d9565b848652601f196110f68661289c565b015f5b81811061126157505036819003601e1901905f5b868110156111ed578060051b820135838112156103535782018035906001600160401b038211610353578701908036038213610353575f918761117a84938b6040519382859383850197883783018281018881528d519283915e010185815203601f1981018352826127d9565b5190305af4903d156111df573d916001600160401b03831161082b576040516001936111c392906111b4601f8201601f19168c01846127d9565b82523d5f8b84013e5b30613d97565b6111cd828b612f8b565b526111d8818a612f8b565b500161110d565b6111c36001926060906111bd565b6040805187815289518189018190525f92600582901b83018101918c8b01918b9085015b82871061121e5785850386f35b90919293828080600193603f198a82030186528189518051918291828552018484015e5f838284010152601f801991011601019601920196019592919092611211565b606088820187015285016110f9565b34610353576020366003190112610353576109f261128f600435612f0a565b604051918291602083526020830190612815565b34610353576020366003190112610353576004355f80516020613fe683398151915255005b34610353575f366003190112610353576112e06128f4565b506040805160015f805160206141e68339815191526112fe836127be565b63ffffffff60e01b815460e01b16835201546020820152611321825180926127fc565bf35b34610353573660031901610180811261035357610160136103535760405161134a81612787565b6004358152602435602082015260443560408201526064356060820152608435608082015260a43560a082015260c43560c082015260e43560e08201526101043590811515820361035357610380916101008201526101243561012082015261014435610140820152610164359061328f565b34610353576020366003190112610353576004355f8051602061402683398151915255005b34610353575f366003190112610353575f805160206141c6833981519152546040516001600160a01b039091168152602090f35b34610353575f3660031901126103535760205f8051602061438683398151915254604051908152f35b34610353576020366003190112610353576004355f8051602061428683398151915255005b346103535760203660031901126103535760043561148181612f0a565b905f80516020613f4683398151915260018060a01b03905416608060408401516024604051809481936321b9a09560e21b835260048301525afa801561087257610380936114ee925f9261153e575b50606001516001600160a01b03163314908115611527575b506129d4565b61151b6114fa82612f0a565b611502613040565b928184925190606060018060a01b0391015116916136ec565b6101408101519061328f565b606001516001600160a01b031633149050846114e8565b61155891925060803d608011610f7257610f6381836127d9565b90856114d0565b34610353576020366003190112610353576004355f8051602061426683398151915255005b346103535760203660031901126103535761159d612741565b5f80516020613f4683398151915280546001600160a01b0319166001600160a01b03909216919091179055005b34610353576020366003190112610353576115e3612741565b6115eb61300d565b60ff5f805160206142c68339815191525416600381101561094e5715611666576001600160a01b03165f8181525f80516020613fc68339815191526020908152604091829020805460ff1916600117905590519182527f4c26e4de691e265be6cf03e639754839907bf74687cd524a6734851331527ffd91a1005b60405162461bcd60e51b815260206004820152601b60248201527a436f6e6669673a206163636573732074797065206973204e4f4e4560281b6044820152606490fd5b34610353575f366003190112610353576116c161300d565b5f805160206141c683398151915280546001600160a01b031981169091555f906001600160a01b03165f805160206141868339815191528280a3005b34610353575f3660031901126103535760205f8051602061402683398151915254604051908152f35b34610353575f3660031901126103535761173e612dd4565b5061016061174a613040565b61014060405191805183526020810151602084015260408101516040840152606081015160608401526080810151608084015260a081015160a084015260c081015160c084015260e081015160e084015261010081015115156101008401526101208101516101208401520151610140820152f35b34610353576101a0366003190112610353576117d9612741565b6040366023190112610353576064356001600160a01b038116810361035357610124359160c435919060843560a4356001600160401b0386116103535736602387011215610353576004860135946001600160401b038611610353573660248760061b89010111610353576101443590600382101561035357610164356001600160401b03811161035357611872903690600401612757565b5f8051602061430683398151915254604081901c60ff1615989296919592906001600160401b03811680159081611d79575b6001149081611d6f575b159081611d66575b50611d57576001600160401b031981166001175f805160206143068339815191525589611d2f575b506118e7613d6c565b6118ef613d6c565b6118f7613d6c565b6118ff613d6c565b61190833612faf565b611910613d6c565b8115611cd657828211611c6d578315611c0e57435f80516020613f66833981519152555f80516020613f4683398151915280546001600160a01b03998a166001600160a01b03199182161782555f80516020614146833981519152805493909a169216919091179097555f80516020614266833981519152555f80516020614166833981519152555f805160206142868339815191525560e4355f8051602061438683398151915255610104355f80516020614026833981519152555f5b86811015611a53575f805160206140668339815191525490600160401b82101561082b5760018201805f8051602061406683398151915255821015611a3f57611a396001925f805160206140668339815191525f5260205f2060248460061b8d010191851b0161341d565b016119ce565b634e487b7160e01b5f52603260045260245ffd5b50611a6e909291925f805160206142c6833981519152612dbc565b5f80516020613fc6833981519152915f5b818110611bcd578585611aa060245f805160206141e683398151915261341d565b604051906024359063ffffffff60e01b8216809203610353575f805160206141068339815191526040846020946004965260443585820152a1611ae1613d6c565b610184355f8051602061436683398151915255611afc613d6c565b54604051630ecce30160e31b815292839182906001600160a01b03165afa908115610872575f91611b9b575b505f19810190811161087d575f805160206142a683398151915255611b4957005b60ff60401b195f8051602061430683398151915254165f80516020614306833981519152557fc7f505b2f371ae2175ee4913f4499e1f2633a7b5936321eed1cdaeb6115181d2602060405160018152a1005b90506020813d602011611bc5575b81611bb6602093836127d9565b81010312610353575182611b28565b3d9150611ba9565b611bd8818385612f9f565b35906001600160a01b038216820361035357600191828060a01b03165f528460205260405f208260ff1982541617905501611a7f565b60405162461bcd60e51b815260206004820152603160248201527f436f6e6669673a206375436f756e74506572576f726b65722073686f756c6420604482015270062652067726561746572207468616e203607c1b6064820152608490fd5b60405162461bcd60e51b815260206004820152603b60248201527f436f6e6669673a206d696e576f726b6572732073686f756c64206265206c657360448201527a73206f7220657175616c20746f20746172676574576f726b65727360281b6064820152608490fd5b60405162461bcd60e51b815260206004820152602b60248201527f436f6e6669673a206d696e576f726b6572732073686f756c642062652067726560448201526a061746572207468616e20360ac1b6064820152608490fd5b6001600160481b0319166001600160401b01175f80516020614306833981519152558b6118de565b63f92ee8a960e01b5f5260045ffd5b9050158d6118b6565b303b1591506118ae565b8b91506118a4565b3461035357602036600319011261035357600435600381101561035357611da661300d565b60ff5f805160206142c68339815191525416600381101561094e578114611e1457611e0f81611e037f1f5a251428f76335a835fcae94ab6a9bcf09ac33bd3c782eb6a81bdf878a7393935f805160206142c6833981519152612dbc565b60405191829182612889565b0390a1005b60405162461bcd60e51b815260206004820152602260248201527f436f6e6669673a20616363657373207479706520697320616c72656164792073604482015261195d60f21b6064820152608490fd5b3461035357602036600319011261035357611e7d612741565b60018060a01b03165f525f805160206140a6833981519152602052602060405f2054604051908152f35b34610353575f36600319011261035357611ebf612ca8565b604051600582101561094e576020918152f35b34610353575f3660031901126103535760205f8051602061424683398151915254604051908152f35b34610353576020366003190112610353577f38fb081a0b484406977bd94ff8edb79be44b5ca514130361182516b39e2c45286020611f37612741565b611f3f61300d565b6001600160a01b03165f8181525f80516020613fc68339815191528352604090819020805460ff1916905551908152a1005b34610353576020366003190112610353576020611f94611f8f612741565b612c18565b6040519015158152f35b34610353576020366003190112610353576004355f8051602061424683398151915255005b34610353575f3660031901126103535760205f805160206142e683398151915254604051908152f35b34610353575f3660031901126103535760205f8051602061436683398151915254604051908152f35b34610353576020366003190112610353576004355f8051602061404683398151915255005b34610353575f366003190112610353575f80516020614146833981519152546040516001600160a01b039091168152602090f35b346103535760203660031901126103535760043561208a61300d565b5f805160206142268339815191525c61239f5760015f805160206142268339815191525d5f80516020614086833981519152906120c5613040565b5f80516020613f4683398151915280546040516372ea4f2360e01b815292939290602090829060049082906001600160a01b03165afa908115610872575f9161236b575b5061213e612129612153925f805160206140268339815191525490612beb565b5f805160206142868339815191525490612beb565b5f805160206141668339815191525490612beb565b60608401612162848251612bfe565b809152610100850151151580612362575b156122de57505060c08301515f805160206143268339815191525491546040516372ea4f2360e01b8152919290602090839060049082906001600160a01b03165afa908115610872575f916122a8575b6121cd9250612c0b565b101561223f57612201602092846121f3845f805160206140e68339815191529754612bfe565b90556101408101519061328f565b5f805160206141468339815191525461222690829033906001600160a01b03166136b1565b604051908152a15f5f805160206142268339815191525d005b60405162461bcd60e51b815260206004820152603b60248201527f43616e2774207769746864726177206265666f7265206d696e4465616c44657060448201527a1bdcda5d1959115c1bd8da1cc818599d195c881919585b08195b99602a1b6064820152608490fd5b90506020823d6020116122d6575b816122c3602093836127d9565b81010312610353576121cd9151906121c3565b3d91506122b6565b915091935010612302575f805160206140e68339815191529161220160209261151b565b60405162461bcd60e51b815260206004820152603260248201527f467265652062616c616e6365206e6565647320746f20636f766572206d696e4460448201527165616c4465706f736974656445706f63687360701b6064820152608490fd5b50818110612173565b90506020813d602011612397575b81612386602093836127d9565b81010312610353575161213e612109565b3d9150612379565b633ee5aeb560e01b5f5260045ffd5b34610353575f3660031901126103535760205f8051602061426683398151915254604051908152f35b34610353575f3660031901126103535760205f8051602061416683398151915254604051908152f35b346103535760403660031901126103535760043561241d81612f0a565b905f80516020613f4683398151915260018060a01b03905416608060408401516024604051809481936321b9a09560e21b835260048301525afa80156108725761038093612488925f9261153e5750606001516001600160a01b0316331490811561152757506129d4565b60243590612acb565b346103535760203660031901126103535760406124af60043561290c565b60208251918051835201516020820152f35b34610353576040366003190112610353576124da61300d565b6124f260045f805160206141e683398151915261341d565b60405160043563ffffffff60e01b811680910361035357816040915f8051602061410683398151915293526024356020820152a1005b34610353575f3660031901126103535760205f80516020613f6683398151915254604051908152f35b34610353575f3660031901126103535760205f8051602061428683398151915254604051908152f35b34610353576020366003190112610353576004355f8051602061432683398151915255005b34610353576020366003190112610353576004355f805160206142a683398151915255005b34610353575f366003190112610353576125dc61300d565b6125e4612ca8565b600581101561094e5760026125fa9114156128b3565b61260561151b613040565b5f80516020613f4683398151915254604051630ecce30160e31b815290602090829060049082906001600160a01b03165afa908115610872575f916126c4575b506020817f3ad16bb58712aa329948d76146b096a4f4b85e024d99473dc50bcd358811b86c925f805160206142e68339815191525411612699575b805f8051602061432683398151915255604051908152a1005b805f805160206142e6833981519152555f8051602061400683398151915282604051838152a1612680565b90506020813d6020116126ef575b816126df602093836127d9565b8101031261035357516020612645565b3d91506126d2565b34610353576020366003190112610353576004355f805160206142e683398151915255005b34610353576020366003190112610353576004355f805160206140c683398151915255005b600435906001600160a01b038216820361035357565b9181601f84011215610353578235916001600160401b038311610353576020808501948460051b01011161035357565b61016081019081106001600160401b0382111761082b57604052565b60c081019081106001600160401b0382111761082b57604052565b604081019081106001600160401b0382111761082b57604052565b601f909101601f19168101906001600160401b0382119082101761082b57604052565b80516001600160e01b0319168252602090810151910152565b602060e060a060c085019380518652838101518487015260408101516040870152600180831b0360608201511660608701526080810151608087015201519360c060a08201528451809452019201905f5b8181106128735750505090565b8251845260209384019390920191600101612866565b91906020830192600382101561094e5752565b6001600160401b03811161082b5760051b60200190565b156128ba57565b60405162461bcd60e51b81526020600482015260126024820152714465616c206973206e6f742061637469766560701b6044820152606490fd5b60405190612901826127be565b5f6020838281520152565b604051612918816127be565b5f81525f60208201525061292a613040565b9061293481612f0a565b5115612951578161294861294e93836134e8565b916135d3565b90565b505060405161295f816127be565b5f81525f602082015290565b51906001600160a01b038216820361035357565b908160809103126103535760405190608082016001600160401b0381118382101761082b576129cc916060916040528051845260208101516020850152604081015160408501520161296b565b606082015290565b156129db57565b60405162461bcd60e51b815260206004820152603060248201527f4f6e6c792070726f7669646572206f722070656572206f776e65722063616e2060448201526f18d85b1b081d1a1a5cc81b595d1a1bd960821b6064820152608490fd5b15612a4057565b60405162461bcd60e51b815260206004820152602160248201527f4f6666636861696e20776f726b65722069642063616e277420626520656d70746044820152607960f81b6064820152608490fd5b15612a9657565b60405162461bcd60e51b815260206004820152600d60248201526c1119585b081a5cc8195b991959609a1b6044820152606490fd5b811515612ad781612a39565b612adf613040565b9261014084015191835f525f80516020614346833981519152602052612b0860405f2091612a39565b805415612bb9575b817fcf79e0e27c8c35d39bd9b727f35e6f79573597f660c88baf483fc1511c49203c92604092558151908582526020820152a15f805160206140c68339815191525490612b5d828561328f565b612b65612ca8565b600581101561094e5780612b7f6002612b86931415612a8f565b15156128b3565b14612bb5575f525f80516020614206833981519152602052600160a060405f209260e081015184550151910155565b5050565b5f805160206140c683398151915254915f19831461087d576001929092015f805160206140c683398151915255612b10565b8181029291811591840414171561087d57565b9190820391821161087d57565b9190820180921161087d57565b60ff5f805160206142c68339815191525416600381101561094e578015612ca15760018114612c7757600214612c4d57505f90565b6001600160a01b03165f9081525f80516020613fc6833981519152602052604090205460ff161590565b506001600160a01b03165f9081525f80516020613fc6833981519152602052604090205460ff1690565b5050600190565b612cb0613040565b610100810151612db6575f805160206142e6833981519152548015159081612da8575b50612da357610140810151905f80516020613f46833981519152915f805160206142668339815191525411612d9c576060015190546040516372ea4f2360e01b815290602090829060049082906001600160a01b03165afa908115610872575f91612d68575b5061213e612129612d59925f805160206140268339815191525490612beb565b11612d6357600190565b600490565b90506020813d602011612d94575b81612d83602093836127d9565b81010312610353575161213e612d39565b3d9150612d76565b5050600390565b505f90565b905060c0820151115f612cd3565b50600290565b90600381101561094e5760ff80198354169116179055565b60405190612de182612787565b5f610140838281528260208201528260408201528260608201528260808201528260a08201528260c08201528260e082015282610100820152826101208201520152565b90604051612e32816127be565b825460e01b6001600160e01b0319168152600192909201546020830152565b60405190612e5e826127a3565b606060a0835f81525f60208201525f60408201525f838201525f60808201520152565b90604051918281549182825260208201905f5260205f20925f5b818110612eb2575050612eb0925003836127d9565b565b8454835260019485019487945060209093019201612e9b565b15612ed257565b60405162461bcd60e51b815260206004820152601060248201526f15dbdc9ad95c881b9bdd08199bdd5b9960821b6044820152606490fd5b612f12612e51565b505f525f8051602061434683398151915260205260405f2061294e60405191612f3a836127a3565b805483526001810154602084019081526002820154604085015260038201546001600160a01b031660608501526004820154608085015290612f7e90600501612e81565b60a0840152511515612ecb565b8051821015611a3f5760209160051b010190565b9190811015611a3f5760051b0190565b6001600160a01b03168015612ffa575f805160206141c683398151915280546001600160a01b0319811683179091556001600160a01b03165f805160206141868339815191525f80a3565b631e4fbdf760e01b5f525f60045260245ffd5b5f805160206141c6833981519152546001600160a01b0316330361302d57565b63118cdaa760e01b5f523360045260245ffd5b613048612dd4565b505f80516020613f4683398151915254604051630ecce30160e31b81525f805160206140868339815191529291602090829060049082906001600160a01b03165afa908115610872575f9161325d575b505f19810181811161087d57905f8051602061432683398151915254915f9280613251575b505f805160206140c683398151915254945f8051602061402683398151915254935f8051602061428683398151915254916130f6612dd4565b5054935f80516020614046833981519152545f80516020613fe683398151915254906040519661312588612787565b8088528160208901528260408901526060880152608087015260a086015260c08501528260e08501521515610100840152836101208401528561014084015282955f805160206142a683398151915254938484111561324857505f805160206142e6833981519152549485841115613211578585106131c1575050506131bd9192506131b760a0860193845192612bfe565b90612c0b565b9052565b6131df92916131da6131da926131da6131bd988a612bfe565b612beb565b606086016131ee828251612bfe565b90526131ff60808701918251612c0b565b90526131b760a0860193845192612bfe565b61322895506131da6131da9293956131da95612bfe565b60608301613237828251612bfe565b90526131bd60808401918251612c0b565b96505050505050565b6001935090505f6130bd565b90506020813d602011613287575b81613278602093836127d9565b8101031261035357515f613098565b3d915061326b565b905f80516020614086833981519152825160608401918251809203613415575b505060208301516080840151809103613400575b50604083015160a08401518091036133eb575b505f80516020614286833981519152549060e0840151936101008101511561330e575b505050505f805160206142a683398151915255565b5f8051602061426683398151915254808510918261339e57505050906131da6133479251935f8051602061402683398151915254612beb565b801561338a576133696020915f80516020614006833981519152930484612c0b565b805f805160206142e683398151915255604051908152a15b5f8080806132f9565b634e487b7160e01b5f52601260045260245ffd5b61014001511015935091508290506133e3575b5015613381575f5f805160206142e6833981519152555f8051602061400683398151915260206040515f8152a1613381565b90505f6133b1565b5f80516020613fe6833981519152555f6132d6565b5f80516020614046833981519152555f6132c3565b555f806132af565b9080356001600160e01b0319811681036103535760019160209160e01c63ffffffff198554161784550135910155565b9081610160910312610353576040519061346682612787565b8051906006821015610353576101409183526020810151602084015260408101516040840152606081015160608401526080810151608084015260a081015160a084015260c081015160c08401526134c060e0820161296b565b60e0840152610100810151610100840152610120810151610120840152015161014082015290565b9060e00151905f80516020613f468339815191529060ff5f805160206142c68339815191525416600381101561094e576001146135ce5761352b61016091613bfe565b9154604051631de5608360e21b81526004810193909352829060249082906001600160a01b03165afa908115610872575f9161359f575b5061012081015180613599575060a00180515f19810190811161087d578211613589575090565b515f1981019150811161087d5790565b91505090565b6135c191506101603d81116135c7575b6135b981836127d9565b81019061344d565b5f613562565b503d6135af565b505090565b916040516135e0816127be565b5f81525f602082015250825f525f8051602061420683398151915260205261360b60405f2093613c7a565b928054918281106136a05760a061362761363394600193612bfe565b94015191015490612bfe565b908181106136915761367161366a612129613655613679956298968095612bfe565b5f805160206140268339815191525490612beb565b9384612beb565b048092612bfe565b9060405191613687836127be565b8252602082015290565b50505060405161295f816127be565b505050505060405161295f816127be565b60405163a9059cbb60e01b60208201526001600160a01b039092166024830152604480830193909352918152612eb09161104b6064836127d9565b9291901561388a576136fe82846134e8565b6137098184866135d3565b9182519361371d6020850195865190612c0b565b90811561388157608061375b91600495895f525f8051602061420683398151915260205260405f20908155600160a083015191015501918251612bfe565b90525f80516020613f4683398151915254604051638da5cb5b60e01b81529260209184919082906001600160a01b03165afa918215610872575f9261382e575b5091606093915f80516020613fa683398151915295938251613803575b5082516137d8575b505190519060405192835260208301526040820152a1565b5f805160206141468339815191525483516137fd9290916001600160a01b03166136b1565b5f6137c0565b5f805160206141468339815191525483516138289290916001600160a01b03166136b1565b5f6137b8565b93915093916020843d602011613879575b8161384c602093836127d9565b81010312610353575f80516020613fa68339815191529461386e60609561296b565b92945090929461379b565b3d915061383f565b50505050505050565b505050565b61389881612f0a565b916138a1613040565b918351906138bf845f9360018060a01b0360608901511690846136ec565b5f8051602061424683398151915294815f525f8051602061434683398151915260205260405f2094604051956138f4876127a3565b80548752600181015496602081019788526002820154916040820192835261394f61393f600560018060a01b0360038501541693606086019485526004810154608087015201612e81565b9960a084019a8b52511515612ecb565b5f5b8951805182101561398f579061396981600193612f8b565b515f525f80516020613f8683398151915260205260405f2060ff19815416905501613951565b50509193959750919395976139a48154613df5565b9055516001600160a01b03165f9081525f805160206140a68339815191526020526040902080546139d490613df5565b905551613bd3575b5190815f525f8051602061412683398151915260205260405f2060ff198154169055835f525f80516020614346833981519152602052600560405f205f81555f60018201555f60028201555f60038201555f6004820155018054905f815581613bb5575b5050613a59845f805160206141a6833981519152613e80565b15613b6657613aa1917f2931f8975c0ce3cdf8ebe0cac36f06048736d46d6df66ac21cfe717b9ee710066020604051878152a25f805160206140c6833981519152549061328f565b5f80516020613f468339815191525460a09190910151906001600160a01b0316803b1561035357604051809263012a4ebb60e41b8252604482016040600484015281518091526020606484019201905f5b818110613b4d5750505091815f81819588602483015203925af1801561087257613b38575b5081525f805160206142068339815191526020526001604082208281550155565b613b459192505f906127d9565b5f905f613b17565b8251845286945060209384019390920191600101613af2565b60405162461bcd60e51b815260206004820152602160248201527f4661696c656420746f2072656d6f766520776f726b65722066726f6d206c69736044820152601d60fa1b6064820152608490fd5b5f5260205f20908101905b81811015613a40575f8155600101613bc0565b613bea5f805160206140c683398151915254613df5565b5f805160206140c6833981519152556139dc565b613c0790612f0a565b5f80516020613f468339815191525460409182015191516321b9a09560e21b81526004810192909252608090829060249082906001600160a01b03165afa8015610872576020915f91613c5b575b50015190565b613c74915060803d608011610f7257610f6381836127d9565b5f613c55565b5f80516020613f468339815191529060ff5f805160206142c68339815191525416600381101561094e57600114613d0e57613cb761016091613bfe565b9154604051631de5608360e21b81526004810193909352829060249082906001600160a01b03165afa80156108725760c0915f91613cf55750015190565b613c7491506101603d81116135c7576135b981836127d9565b50505f90565b905f602091828151910182855af115610872575f513d613d6357506001600160a01b0381163b155b613d435750565b635274afe760e01b5f9081526001600160a01b0391909116600452602490fd5b60011415613d3c565b60ff5f805160206143068339815191525460401c1615613d8857565b631afcd79f60e31b5f5260045ffd5b90613dbb5750805115613dac57805190602001fd5b63d6bda27560e01b5f5260045ffd5b81511580613dec575b613dcc575090565b639996b31560e01b5f9081526001600160a01b0391909116600452602490fd5b50803b15613dc4565b801561087d575f190190565b8054821015611a3f575f5260205f2001905f90565b6001810190825f528160205260405f2054155f14613e79578054600160401b81101561082b57613e66613e50826001879401855584613e01565b819391549060031b91821b915f19901b19161790565b905554915f5260205260405f2055600190565b5050505f90565b906001820191815f528260205260405f20548015155f14613f3d575f19810181811161087d5782545f1981019190821161087d57818103613f08575b50505080548015613ef4575f190190613ed58282613e01565b8154905f199060031b1b19169055555f526020525f6040812055600190565b634e487b7160e01b5f52603160045260245ffd5b613f28613f18613e509386613e01565b90549060031b1c92839286613e01565b90555f528360205260405f20555f8080613ebc565b505050505f9056fe8953f5482bc1a621075e75537625fa3bd2025e7df7baf6ba1dbfbf2212912d048953f5482bc1a621075e75537625fa3bd2025e7df7baf6ba1dbfbf2212912d05ec986952a0671e4b2e5ec4461085fb880bc7a7b88668240f8d55173039155d24c512f9d0bb2627096491f1074af42a5032fe36ef5dcae7c216cfc34f6ea474d68953f5482bc1a621075e75537625fa3bd2025e7df7baf6ba1dbfbf2212912d1185276e830bb0cbb783f0e6b4a968acc65deef7a2b0ff14d52821c42f785b9cc1cecd349d986645e1758ec135f91f1ad20564a8bcc6c2b5a5eaca9b09841495c58953f5482bc1a621075e75537625fa3bd2025e7df7baf6ba1dbfbf2212912d0e85276e830bb0cbb783f0e6b4a968acc65deef7a2b0ff14d52821c42f785b9cc08953f5482bc1a621075e75537625fa3bd2025e7df7baf6ba1dbfbf2212912d0f85276e830bb0cbb783f0e6b4a968acc65deef7a2b0ff14d52821c42f785b9cbfec986952a0671e4b2e5ec4461085fb880bc7a7b88668240f8d55173039155d22ec986952a0671e4b2e5ec4461085fb880bc7a7b88668240f8d55173039155d21430648de173157e069201c943adb2d4e340e7cf5b27b1b09c9cb852f03d63b56c820a66d3bdd50a45cf12cda6dc8ec9e94fb5123edd7da736eea18316f8523a0ec986952a0671e4b2e5ec4461085fb880bc7a7b88668240f8d55173039155d258953f5482bc1a621075e75537625fa3bd2025e7df7baf6ba1dbfbf2212912d088953f5482bc1a621075e75537625fa3bd2025e7df7baf6ba1dbfbf2212912d0b8be0079c531659141344cd1fd0a4f28419497f9722a3daafe3b4186f6b6457e0ec986952a0671e4b2e5ec4461085fb880bc7a7b88668240f8d55173039155d26b13d3e7783d509d8d65d3e1e62ec0b103a07e0cbfa1ee74ae19127f297dddfcc8953f5482bc1a621075e75537625fa3bd2025e7df7baf6ba1dbfbf2212912d0685276e830bb0cbb783f0e6b4a968acc65deef7a2b0ff14d52821c42f785b9cc49b779b17422d0df92223018b32b4d1fa46e071723d6817e2486d003becc55f00ec986952a0671e4b2e5ec4461085fb880bc7a7b88668240f8d55173039155d208953f5482bc1a621075e75537625fa3bd2025e7df7baf6ba1dbfbf2212912d0a8953f5482bc1a621075e75537625fa3bd2025e7df7baf6ba1dbfbf2212912d0d85276e830bb0cbb783f0e6b4a968acc65deef7a2b0ff14d52821c42f785b9cc38953f5482bc1a621075e75537625fa3bd2025e7df7baf6ba1dbfbf2212912d1085276e830bb0cbb783f0e6b4a968acc65deef7a2b0ff14d52821c42f785b9cc2f0c57e16840df040f15088dc2f81fe391c3923bec73e23a9662efc9c229c6a0085276e830bb0cbb783f0e6b4a968acc65deef7a2b0ff14d52821c42f785b9cc5ec986952a0671e4b2e5ec4461085fb880bc7a7b88668240f8d55173039155d2385276e830bb0cbb783f0e6b4a968acc65deef7a2b0ff14d52821c42f785b9cc68953f5482bc1a621075e75537625fa3bd2025e7df7baf6ba1dbfbf2212912d0ca2646970667358221220fdc974690664c64b1e29f186bab825f5f70dd80c3b8695befde2742f41e9f49764736f6c634300081a0033","linkReferences":{}},"methodIdentifiers":{"activateWorker(bytes32,bytes32)":"22ebd58a","addProviderToAccessList(address)":"73134c15","addWorker(address,(bytes32,bytes32[]),bytes32)":"d76e4805","appCID()":"9bc66868","changeProvidersAccessType(uint8)":"636fcefb","computePeerUsed(bytes32)":"bd1926e0","creationBlock()":"17634514","cuCountPerWorker()":"15a0f31a","deposit(uint256)":"b6b55f25","effectors()":"fc1e5e2a","getActivatedWorkerCount()":"ade0a202","getFreeBalance()":"e93c4f15","getMaxPaidEpoch()":"378b22e4","getProtocolVersion()":"33ce93fe","getRewardAmount(bytes32)":"1af57b96","getStatus()":"4e69d560","getWorker(bytes32)":"aba93a10","getWorkerCount()":"4d7599f1","getWorkerCount(address)":"59c4afc0","getWorkers()":"c1499f71","initialize(address,(bytes4,bytes32),address,uint256,uint256,uint256,uint256,uint256,(bytes4,bytes32)[],uint8,address[],uint256)":"663c8ce9","isProviderAllowed(address)":"3e8ae1ae","maxWorkersPerProvider()":"8a0c725b","minWorkers()":"2db31193","multicall(bytes[])":"ac9650d8","owner()":"8da5cb5b","paymentToken()":"3013ce29","postCommitPeriod((uint256,uint256,uint256,uint256,uint256,uint256,uint256,uint256,bool,uint256,uint256),uint256)":"93d2bafc","preCommitPeriod()":"6e5e47b1","pricePerCuPerEpoch()":"70220a9b","providersAccessType()":"d4773ff0","removeProviderFromAccessList(address)":"444e6a5a","removeStaleWorkers(bytes32[])":"cb7b88d1","removeWorker(bytes32)":"bc126f1f","renounceOwnership()":"715018a6","setActivatedWorkerCount(uint256)":"03465927","setAppCID((bytes4,bytes32))":"176474cf","setCuCountPerWorker(uint256)":"869ef43c","setDiamond(address)":"76ed535a","setEndedEpoch(uint256)":"13883251","setGapsEpochCount(uint256)":"9c09e82d","setLastCommitedEpoch(uint256)":"0ac25f10","setLockedBalance(uint256)":"3116eeda","setMaxPaidEpoch(uint256)":"04f1bd56","setMinWorkers(uint256)":"7d1fd49e","setPricePerCuPerEpoch(uint256)":"9276ef6d","setTargetWorkers(uint256)":"e116568f","setTotalBalance(uint256)":"c9ed5008","setWorkerCount(uint256)":"3d0bdad7","stop()":"07da68f5","targetWorkers()":"2943dcab","transferOwnership(address)":"f2fde38b","withdraw(uint256)":"2e1a7d4d","withdrawRewards(bytes32)":"7dfb6626"},"storageLayout":{"storage":[],"types":{}},"devdoc":{"version":1,"kind":"dev","methods":{"activateWorker(bytes32,bytes32)":{"details":"Set offchain worker ID for a corresponding onchain worker for a deal"},"addProviderToAccessList(address)":{"details":"Adds a provider to the access list"},"addWorker(address,(bytes32,bytes32[]),bytes32)":{"details":"Adds a compute unit to the deal","params":{"computeProvider":"The compute provider address","peerId":"The peer ID","workerData":"The worker with data"}},"appCID()":{"details":"Returns the app CID"},"changeProvidersAccessType(uint8)":{"details":"Change the providers access type"},"computePeerUsed(bytes32)":{"details":"Returns the boolean flag indicating whether the peer exists in the deal"},"creationBlock()":{"details":"Returns the creation block of the deal"},"cuCountPerWorker()":{"details":"Returns number of CUs in a worker"},"deposit(uint256)":{"details":"Deposits payment token to the deal"},"effectors()":{"details":"Returns the effector CIDs"},"getActivatedWorkerCount()":{"details":"Returns the worker count. Worker is a compute unit that has a worker ID"},"getFreeBalance()":{"details":"Returns the free balance of the deal"},"getMaxPaidEpoch()":{"details":"Returns the max paid epoch"},"getProtocolVersion()":{"details":"Returns the protocol version"},"getRewardAmount(bytes32)":{"details":"Returns the reward amount by compute unit ID"},"getStatus()":{"details":"Returns the status of the deal"},"getWorker(bytes32)":{"details":"Returns worker by ID"},"getWorkerCount()":{"details":"Returns total number of workers"},"getWorkerCount(address)":{"details":"Returns number of workers in provider"},"getWorkers()":{"details":"Returns workers registered in this deal"},"isProviderAllowed(address)":{"details":"Returns the boolean indicating whether the provider is allowed or not"},"maxWorkersPerProvider()":{"details":"Returns the max number of workers per provider"},"minWorkers()":{"details":"Returns the min number of workers"},"multicall(bytes[])":{"details":"Receives and executes a batch of function calls on this contract."},"owner()":{"details":"Returns the address of the current owner."},"paymentToken()":{"details":"Returns the payment token address"},"pricePerCuPerEpoch()":{"details":"Returns the price per CU per epoch"},"providersAccessType()":{"details":"Returns the providers access type"},"removeProviderFromAccessList(address)":{"details":"Removes a provider from the access list"},"removeStaleWorkers(bytes32[])":{"details":"Allows oracle to remove worker from a deal that is not paying workers."},"removeWorker(bytes32)":{"details":"Removes a worker from the deal"},"renounceOwnership()":{"details":"Leaves the contract without owner. It will not be possible to call `onlyOwner` functions. Can only be called by the current owner. NOTE: Renouncing ownership will leave the contract without an owner, thereby disabling any functionality that is only available to the owner."},"setAppCID((bytes4,bytes32))":{"details":"Sets the app CID"},"stop()":{"details":"Stop the deal"},"targetWorkers()":{"details":"Returns the max number of workers"},"transferOwnership(address)":{"details":"Transfers ownership of the contract to a new account (`newOwner`). Can only be called by the current owner."},"withdraw(uint256)":{"details":"Withdraws payment token from the deal"},"withdrawRewards(bytes32)":{"details":"Withdraws rewards from the deal by compute unit ID"}},"events":{"AppCIDChanged((bytes4,bytes32))":{"details":"Emitted when the app CID is changed","params":{"newAppCID":"The new app CID"}},"DealEnded(uint256)":{"details":"Emitted when a deal is ended. This event can be emitted in the not-ended epoch. It can be emitted after the ended epoch in any epoch"},"Deposited(uint256)":{"details":"Emitted when a owner deposits payment token to the deal"},"Initialized(uint64)":{"details":"Triggered when the contract has been initialized or reinitialized."},"MaxPaidEpochUpdated(uint256)":{"details":"Emitted when a max paid epoch is updated"},"ProviderAddedToAccessList(address)":{"details":"Emitted when a provider is added to the access list","params":{"provider":"The provider address"}},"ProviderRemovedFromAccessList(address)":{"details":"Emitted when a provider is removed from the access list","params":{"provider":"The provider address"}},"ProvidersAccessTypeChanged(uint8)":{"details":"Emitted when the providers access type is changed","params":{"newAccessType":"The new access type"}},"RewardWithdrawn(bytes32,uint256,uint256)":{"details":"Emitted when a compute unit withdraws rewards from the deal"},"Withdrawn(uint256)":{"details":"Emitted when a owner withdraws payment token from the deal"},"WorkerIdUpdated(bytes32,bytes32)":{"details":"Emitted when a worker ID is updated","params":{"offchainWorkerId":"The new worker ID","onchainWorkerId":"The worker"}},"WorkerJoined(bytes32,bytes32)":{"details":"Emitted when a new worker is added","params":{"onchainId":"The worker ID","peerId":"The id of compute peer"}},"WorkerRemoved(bytes32,bytes32)":{"details":"Emitted when a worker is removed","params":{"onchainId":"The worker onchain ID","peerId":"The id of compute peer"}}},"errors":{"AddressEmptyCode(address)":[{"details":"There's no code at `target` (it is not a contract)."}],"FailedCall()":[{"details":"A call to an address target failed. The target may have reverted."}],"InvalidInitialization()":[{"details":"The contract is already initialized."}],"NotInitializing()":[{"details":"The contract is not initializing."}],"OwnableInvalidOwner(address)":[{"details":"The owner is not a valid owner account. (eg. `address(0)`)"}],"OwnableUnauthorizedAccount(address)":[{"details":"The caller account is not authorized to perform an operation."}],"ReentrancyGuardReentrantCall()":[{"details":"Unauthorized reentrant call."}],"SafeERC20FailedOperation(address)":[{"details":"An operation with an ERC-20 token failed."}]}},"id":78}