{"abi":[{"type":"function","name":"activateWorker","inputs":[{"name":"onchainWorkerId","type":"bytes32","internalType":"bytes32"},{"name":"offchainWorkerId","type":"bytes32","internalType":"bytes32"}],"outputs":[],"stateMutability":"nonpayable"},{"type":"function","name":"addProviderToAccessList","inputs":[{"name":"provider","type":"address","internalType":"address"}],"outputs":[],"stateMutability":"nonpayable"},{"type":"function","name":"addWorker","inputs":[{"name":"computeProvider","type":"address","internalType":"address"},{"name":"workerData","type":"tuple","internalType":"struct IWorkerManager.WorkerData","components":[{"name":"onchainId","type":"bytes32","internalType":"bytes32"},{"name":"computeUnitIds","type":"bytes32[]","internalType":"bytes32[]"}]},{"name":"peerId","type":"bytes32","internalType":"bytes32"}],"outputs":[],"stateMutability":"nonpayable"},{"type":"function","name":"appCID","inputs":[],"outputs":[{"name":"","type":"tuple","internalType":"struct CIDV1","components":[{"name":"prefixes","type":"bytes4","internalType":"bytes4"},{"name":"hash","type":"bytes32","internalType":"bytes32"}]}],"stateMutability":"view"},{"type":"function","name":"changeProvidersAccessType","inputs":[{"name":"accessType","type":"uint8","internalType":"enum IConfig.AccessType"}],"outputs":[],"stateMutability":"nonpayable"},{"type":"function","name":"computePeerUsed","inputs":[{"name":"peerId","type":"bytes32","internalType":"bytes32"}],"outputs":[{"name":"","type":"bool","internalType":"bool"}],"stateMutability":"view"},{"type":"function","name":"creationBlock","inputs":[],"outputs":[{"name":"","type":"uint256","internalType":"uint256"}],"stateMutability":"view"},{"type":"function","name":"cuCountPerWorker","inputs":[],"outputs":[{"name":"","type":"uint256","internalType":"uint256"}],"stateMutability":"view"},{"type":"function","name":"deposit","inputs":[{"name":"amount","type":"uint256","internalType":"uint256"}],"outputs":[],"stateMutability":"nonpayable"},{"type":"function","name":"effectors","inputs":[],"outputs":[{"name":"","type":"tuple[]","internalType":"struct CIDV1[]","components":[{"name":"prefixes","type":"bytes4","internalType":"bytes4"},{"name":"hash","type":"bytes32","internalType":"bytes32"}]}],"stateMutability":"view"},{"type":"function","name":"getActivatedWorkerCount","inputs":[],"outputs":[{"name":"","type":"uint256","internalType":"uint256"}],"stateMutability":"view"},{"type":"function","name":"getFreeBalance","inputs":[],"outputs":[{"name":"","type":"uint256","internalType":"uint256"}],"stateMutability":"view"},{"type":"function","name":"getMaxPaidEpoch","inputs":[],"outputs":[{"name":"","type":"uint256","internalType":"uint256"}],"stateMutability":"view"},{"type":"function","name":"getProtocolVersion","inputs":[],"outputs":[{"name":"","type":"uint256","internalType":"uint256"}],"stateMutability":"view"},{"type":"function","name":"getRewardAmount","inputs":[{"name":"onchainWorkerId","type":"bytes32","internalType":"bytes32"}],"outputs":[{"name":"","type":"tuple","internalType":"struct IDeal.DealRewards","components":[{"name":"providerReward","type":"uint256","internalType":"uint256"},{"name":"stakerReward","type":"uint256","internalType":"uint256"}]}],"stateMutability":"view"},{"type":"function","name":"getStatus","inputs":[],"outputs":[{"name":"","type":"uint8","internalType":"enum IDeal.Status"}],"stateMutability":"view"},{"type":"function","name":"getWorker","inputs":[{"name":"onchainWorkerId","type":"bytes32","internalType":"bytes32"}],"outputs":[{"name":"","type":"tuple","internalType":"struct IWorkerManager.Worker","components":[{"name":"offchainId","type":"bytes32","internalType":"bytes32"},{"name":"onchainId","type":"bytes32","internalType":"bytes32"},{"name":"peerId","type":"bytes32","internalType":"bytes32"},{"name":"provider","type":"address","internalType":"address"},{"name":"joinedEpoch","type":"uint256","internalType":"uint256"},{"name":"computeUnitIds","type":"bytes32[]","internalType":"bytes32[]"}]}],"stateMutability":"view"},{"type":"function","name":"getWorkerCount","inputs":[],"outputs":[{"name":"","type":"uint256","internalType":"uint256"}],"stateMutability":"view"},{"type":"function","name":"getWorkerCount","inputs":[{"name":"provider","type":"address","internalType":"address"}],"outputs":[{"name":"","type":"uint256","internalType":"uint256"}],"stateMutability":"view"},{"type":"function","name":"getWorkers","inputs":[],"outputs":[{"name":"","type":"tuple[]","internalType":"struct IWorkerManager.Worker[]","components":[{"name":"offchainId","type":"bytes32","internalType":"bytes32"},{"name":"onchainId","type":"bytes32","internalType":"bytes32"},{"name":"peerId","type":"bytes32","internalType":"bytes32"},{"name":"provider","type":"address","internalType":"address"},{"name":"joinedEpoch","type":"uint256","internalType":"uint256"},{"name":"computeUnitIds","type":"bytes32[]","internalType":"bytes32[]"}]}],"stateMutability":"view"},{"type":"function","name":"initialize","inputs":[{"name":"diamond_","type":"address","internalType":"contract IDiamond"},{"name":"appCID_","type":"tuple","internalType":"struct CIDV1","components":[{"name":"prefixes","type":"bytes4","internalType":"bytes4"},{"name":"hash","type":"bytes32","internalType":"bytes32"}]},{"name":"paymentToken_","type":"address","internalType":"contract IERC20"},{"name":"minWorkers_","type":"uint256","internalType":"uint256"},{"name":"targetWorkers_","type":"uint256","internalType":"uint256"},{"name":"cuCountPerWorker_","type":"uint256","internalType":"uint256"},{"name":"maxWorkersPerProvider_","type":"uint256","internalType":"uint256"},{"name":"pricePerCuPerEpoch_","type":"uint256","internalType":"uint256"},{"name":"effectors_","type":"tuple[]","internalType":"struct CIDV1[]","components":[{"name":"prefixes","type":"bytes4","internalType":"bytes4"},{"name":"hash","type":"bytes32","internalType":"bytes32"}]},{"name":"providersAccessType_","type":"uint8","internalType":"enum IConfig.AccessType"},{"name":"providersAccessList_","type":"address[]","internalType":"address[]"},{"name":"protocolVersion_","type":"uint256","internalType":"uint256"}],"outputs":[],"stateMutability":"nonpayable"},{"type":"function","name":"isProviderAllowed","inputs":[{"name":"account","type":"address","internalType":"address"}],"outputs":[{"name":"","type":"bool","internalType":"bool"}],"stateMutability":"view"},{"type":"function","name":"maxWorkersPerProvider","inputs":[],"outputs":[{"name":"","type":"uint256","internalType":"uint256"}],"stateMutability":"view"},{"type":"function","name":"minWorkers","inputs":[],"outputs":[{"name":"","type":"uint256","internalType":"uint256"}],"stateMutability":"view"},{"type":"function","name":"multicall","inputs":[{"name":"data","type":"bytes[]","internalType":"bytes[]"}],"outputs":[{"name":"results","type":"bytes[]","internalType":"bytes[]"}],"stateMutability":"nonpayable"},{"type":"function","name":"owner","inputs":[],"outputs":[{"name":"","type":"address","internalType":"address"}],"stateMutability":"view"},{"type":"function","name":"paymentToken","inputs":[],"outputs":[{"name":"","type":"address","internalType":"contract IERC20"}],"stateMutability":"view"},{"type":"function","name":"postCommitPeriod","inputs":[{"name":"snapshot","type":"tuple","internalType":"struct DealSnapshot.Cache","components":[{"name":"_initTotalBalance","type":"uint256","internalType":"uint256"},{"name":"_initLockedBalance","type":"uint256","internalType":"uint256"},{"name":"_initGapsEpochCount","type":"uint256","internalType":"uint256"},{"name":"_totalBalance","type":"uint256","internalType":"uint256"},{"name":"_lockedBalance","type":"uint256","internalType":"uint256"},{"name":"_gapsEpochCount","type":"uint256","internalType":"uint256"},{"name":"_currentEpoch","type":"uint256","internalType":"uint256"},{"name":"_snapshotEpoch","type":"uint256","internalType":"uint256"},{"name":"_isEnded","type":"bool","internalType":"bool"},{"name":"_pricePerCuPerEpoch","type":"uint256","internalType":"uint256"},{"name":"_currentWorkerCount","type":"uint256","internalType":"uint256"}]},{"name":"newWorkerCount","type":"uint256","internalType":"uint256"}],"outputs":[],"stateMutability":"nonpayable"},{"type":"function","name":"preCommitPeriod","inputs":[],"outputs":[{"name":"","type":"tuple","internalType":"struct DealSnapshot.Cache","components":[{"name":"_initTotalBalance","type":"uint256","internalType":"uint256"},{"name":"_initLockedBalance","type":"uint256","internalType":"uint256"},{"name":"_initGapsEpochCount","type":"uint256","internalType":"uint256"},{"name":"_totalBalance","type":"uint256","internalType":"uint256"},{"name":"_lockedBalance","type":"uint256","internalType":"uint256"},{"name":"_gapsEpochCount","type":"uint256","internalType":"uint256"},{"name":"_currentEpoch","type":"uint256","internalType":"uint256"},{"name":"_snapshotEpoch","type":"uint256","internalType":"uint256"},{"name":"_isEnded","type":"bool","internalType":"bool"},{"name":"_pricePerCuPerEpoch","type":"uint256","internalType":"uint256"},{"name":"_currentWorkerCount","type":"uint256","internalType":"uint256"}]}],"stateMutability":"view"},{"type":"function","name":"pricePerCuPerEpoch","inputs":[],"outputs":[{"name":"","type":"uint256","internalType":"uint256"}],"stateMutability":"view"},{"type":"function","name":"providersAccessType","inputs":[],"outputs":[{"name":"","type":"uint8","internalType":"enum IConfig.AccessType"}],"stateMutability":"view"},{"type":"function","name":"removeProviderFromAccessList","inputs":[{"name":"provider","type":"address","internalType":"address"}],"outputs":[],"stateMutability":"nonpayable"},{"type":"function","name":"removeWorker","inputs":[{"name":"onchainWorkerId","type":"bytes32","internalType":"bytes32"}],"outputs":[],"stateMutability":"nonpayable"},{"type":"function","name":"renounceOwnership","inputs":[],"outputs":[],"stateMutability":"nonpayable"},{"type":"function","name":"setActivatedWorkerCount","inputs":[{"name":"activatedWorkerCount_","type":"uint256","internalType":"uint256"}],"outputs":[],"stateMutability":"nonpayable"},{"type":"function","name":"setAppCID","inputs":[{"name":"appCID_","type":"tuple","internalType":"struct CIDV1","components":[{"name":"prefixes","type":"bytes4","internalType":"bytes4"},{"name":"hash","type":"bytes32","internalType":"bytes32"}]}],"outputs":[],"stateMutability":"nonpayable"},{"type":"function","name":"setCuCountPerWorker","inputs":[{"name":"cuCountPerWorker_","type":"uint256","internalType":"uint256"}],"outputs":[],"stateMutability":"nonpayable"},{"type":"function","name":"setDiamond","inputs":[{"name":"diamond_","type":"address","internalType":"contract IDiamond"}],"outputs":[],"stateMutability":"nonpayable"},{"type":"function","name":"setEndedEpoch","inputs":[{"name":"endedEpoch","type":"uint256","internalType":"uint256"}],"outputs":[],"stateMutability":"nonpayable"},{"type":"function","name":"setGapsEpochCount","inputs":[{"name":"gapsEpochCount","type":"uint256","internalType":"uint256"}],"outputs":[],"stateMutability":"nonpayable"},{"type":"function","name":"setLastCommitedEpoch","inputs":[{"name":"lastCommitedEpoch","type":"uint256","internalType":"uint256"}],"outputs":[],"stateMutability":"nonpayable"},{"type":"function","name":"setLockedBalance","inputs":[{"name":"lockedBalance","type":"uint256","internalType":"uint256"}],"outputs":[],"stateMutability":"nonpayable"},{"type":"function","name":"setMaxPaidEpoch","inputs":[{"name":"maxPaidEpoch","type":"uint256","internalType":"uint256"}],"outputs":[],"stateMutability":"nonpayable"},{"type":"function","name":"setMinWorkers","inputs":[{"name":"minWorkers_","type":"uint256","internalType":"uint256"}],"outputs":[],"stateMutability":"nonpayable"},{"type":"function","name":"setPricePerCuPerEpoch","inputs":[{"name":"pricePerCuPerEpoch_","type":"uint256","internalType":"uint256"}],"outputs":[],"stateMutability":"nonpayable"},{"type":"function","name":"setTargetWorkers","inputs":[{"name":"targetWorkers_","type":"uint256","internalType":"uint256"}],"outputs":[],"stateMutability":"nonpayable"},{"type":"function","name":"setTotalBalance","inputs":[{"name":"totalBalance","type":"uint256","internalType":"uint256"}],"outputs":[],"stateMutability":"nonpayable"},{"type":"function","name":"setWorkerCount","inputs":[{"name":"workerCount_","type":"uint256","internalType":"uint256"}],"outputs":[],"stateMutability":"nonpayable"},{"type":"function","name":"stop","inputs":[],"outputs":[],"stateMutability":"nonpayable"},{"type":"function","name":"targetWorkers","inputs":[],"outputs":[{"name":"","type":"uint256","internalType":"uint256"}],"stateMutability":"view"},{"type":"function","name":"transferOwnership","inputs":[{"name":"newOwner","type":"address","internalType":"address"}],"outputs":[],"stateMutability":"nonpayable"},{"type":"function","name":"withdraw","inputs":[{"name":"amount","type":"uint256","internalType":"uint256"}],"outputs":[],"stateMutability":"nonpayable"},{"type":"function","name":"withdrawRewards","inputs":[{"name":"onchainWorkerId","type":"bytes32","internalType":"bytes32"}],"outputs":[],"stateMutability":"nonpayable"},{"type":"event","name":"AppCIDChanged","inputs":[{"name":"newAppCID","type":"tuple","indexed":false,"internalType":"struct CIDV1","components":[{"name":"prefixes","type":"bytes4","internalType":"bytes4"},{"name":"hash","type":"bytes32","internalType":"bytes32"}]}],"anonymous":false},{"type":"event","name":"DealEnded","inputs":[{"name":"endedEpoch","type":"uint256","indexed":false,"internalType":"uint256"}],"anonymous":false},{"type":"event","name":"Deposited","inputs":[{"name":"amount","type":"uint256","indexed":false,"internalType":"uint256"}],"anonymous":false},{"type":"event","name":"Initialized","inputs":[{"name":"version","type":"uint64","indexed":false,"internalType":"uint64"}],"anonymous":false},{"type":"event","name":"MaxPaidEpochUpdated","inputs":[{"name":"maxPaidEpoch","type":"uint256","indexed":false,"internalType":"uint256"}],"anonymous":false},{"type":"event","name":"OwnershipTransferred","inputs":[{"name":"previousOwner","type":"address","indexed":true,"internalType":"address"},{"name":"newOwner","type":"address","indexed":true,"internalType":"address"}],"anonymous":false},{"type":"event","name":"ProviderAddedToAccessList","inputs":[{"name":"provider","type":"address","indexed":false,"internalType":"address"}],"anonymous":false},{"type":"event","name":"ProviderRemovedFromAccessList","inputs":[{"name":"provider","type":"address","indexed":false,"internalType":"address"}],"anonymous":false},{"type":"event","name":"ProvidersAccessTypeChanged","inputs":[{"name":"newAccessType","type":"uint8","indexed":false,"internalType":"enum IConfig.AccessType"}],"anonymous":false},{"type":"event","name":"RewardWithdrawn","inputs":[{"name":"onchainWorkerId","type":"bytes32","indexed":false,"internalType":"bytes32"},{"name":"providerReward","type":"uint256","indexed":false,"internalType":"uint256"},{"name":"stakerReward","type":"uint256","indexed":false,"internalType":"uint256"}],"anonymous":false},{"type":"event","name":"Withdrawn","inputs":[{"name":"amount","type":"uint256","indexed":false,"internalType":"uint256"}],"anonymous":false},{"type":"event","name":"WorkerIdUpdated","inputs":[{"name":"onchainWorkerId","type":"bytes32","indexed":false,"internalType":"bytes32"},{"name":"offchainWorkerId","type":"bytes32","indexed":false,"internalType":"bytes32"}],"anonymous":false},{"type":"event","name":"WorkerJoined","inputs":[{"name":"peerId","type":"bytes32","indexed":true,"internalType":"bytes32"},{"name":"onchainId","type":"bytes32","indexed":false,"internalType":"bytes32"}],"anonymous":false},{"type":"event","name":"WorkerRemoved","inputs":[{"name":"peerId","type":"bytes32","indexed":true,"internalType":"bytes32"},{"name":"onchainId","type":"bytes32","indexed":false,"internalType":"bytes32"}],"anonymous":false},{"type":"error","name":"AddressEmptyCode","inputs":[{"name":"target","type":"address","internalType":"address"}]},{"type":"error","name":"FailedCall","inputs":[]},{"type":"error","name":"InvalidInitialization","inputs":[]},{"type":"error","name":"NotInitializing","inputs":[]},{"type":"error","name":"OwnableInvalidOwner","inputs":[{"name":"owner","type":"address","internalType":"address"}]},{"type":"error","name":"OwnableUnauthorizedAccount","inputs":[{"name":"account","type":"address","internalType":"address"}]},{"type":"error","name":"ReentrancyGuardReentrantCall","inputs":[]},{"type":"error","name":"SafeERC20FailedOperation","inputs":[{"name":"token","type":"address","internalType":"address"}]}],"bytecode":{"object":"0x6080806040523460d0577ff0c57e16840df040f15088dc2f81fe391c3923bec73e23a9662efc9c229c6a005460ff8160401c1660c1576002600160401b03196001600160401b03821601605c575b6040516141cb90816100d58239f35b6001600160401b0319166001600160401b039081177ff0c57e16840df040f15088dc2f81fe391c3923bec73e23a9662efc9c229c6a005581527fc7f505b2f371ae2175ee4913f4499e1f2633a7b5936321eed1cdaeb6115181d290602090a15f80604d565b63f92ee8a960e01b5f5260045ffd5b5f80fdfe60806040526004361015610011575f80fd5b5f803560e01c8063034659271461288d57806304f1bd561461286857806307da68f5146127355780630ac25f101461271057806313883251146126eb57806315a0f31a146126c25780631763451414612699578063176474cf146126325780631af57b961461260257806322ebd58a146125715780632943dcab146125485780632db311931461251f5780632e1a7d4d146121df5780633013ce29146121ab5780633116eeda1461218657806333ce93fe1461215d578063378b22e4146121345780633d0bdad71461210f5780633e8ae1ae146120e2578063444e6a5a1461206c5780634d7599f1146120435780634e69d5601461201857806359c4afc014611fd5578063636fcefb14611ef2578063663c8ce91461191e5780636e5e47b11461188557806370220a9b1461185c578063715018a61461180857806373134c151461172957806376ed535a146116e35780637d1fd49e146116be5780637dfb6626146115c3578063869ef43c1461159e5780638a0c725b146115755780638da5cb5b146115415780639276ef6d1461151c57806393d2bafc146114805780639bc66868146114255780639c09e82d14611400578063aba93a10146113cd578063ac9650d8146111cb578063ade0a202146111a2578063b6b55f25146110ae578063bc126f1f14610bee578063bd1926e014610bb1578063c1499f7114610a3d578063c9ed500814610a16578063d4773ff0146109df578063d76e4805146103c4578063e116568f1461039d578063e93c4f1514610376578063f2fde38b146103495763fc1e5e2a14610261575f80fd5b346103465780600319360112610346575f80516020613e568339815191525461028981612a0d565b610296604051918261294a565b8181525f80516020613e5683398151915283526020810191837f5702833323968fbb14fdd86869039efe011756b786a9a900c16991bda0e3e573845b83831061032857868587604051928392602084019060208552518091526040840192915b818110610304575050500390f35b91935091602060408261031a600194885161296d565b0194019101918493926102f6565b6002602060019261033885612f94565b8152019201920191906102d2565b80fd5b5034610346576020366003190112610346576103736103666128b2565b61036e61316c565b61310e565b80f35b50346103465780600319360112610346576020606061039361319f565b0151604051908152f35b5034610346576020366003190112610346576004355f80516020613f568339815191525580f35b5034610346576060366003190112610346576103de6128b2565b6024356001600160401b0381116109db57604060031982360301126109db576040519061040a8261292f565b600481013582526024810135906001600160401b0382116109d7570190366023830112156109d35760048201359161044183612a0d565b9261044f604051948561294a565b808452602060048186019260051b84010101913683116109cf57602401905b8282106109bf57505050602081019182525f80516020613d368339815191528054909360443592916001600160a01b03163303610970576104ad612e19565b600581101561095c5760026104c3911415612c00565b5f80516020614036833981519152938454955f80516020613f568339815191525487101561091e57875b825180518210156105925781610502916130fa565b5190818a525f80516020613d7683398151915260205260ff60408b20541661054e576001918a525f80516020613d7683398151915260205260408a208260ff19825416179055016104ed565b60405162461bcd60e51b815260206004820152601c60248201527b10dbdb5c1d5d19481d5b9a5d081a5cc8185b1c9958591e481d5cd95960221b6044820152606490fd5b50508688968688525f80516020613f1683398151915260205260ff6040892054166108e3578688525f80516020613f1683398151915260205260408820600160ff1982541617905560018060a01b0385165f525f80516020613e9683398151915260205260405f20545f805160206141768339815191525481101561089f576001810180911161088b576001600160a01b0386165f9081525f80516020613e96833981519152602052604090205560018201918210610877575554604051630ecce30160e31b81529190602090839060049082906001600160a01b03165afa801561086c578690610835575b6005925084519151936040519261069484612914565b888452602080850191825260408086018a81526001600160a01b03948516606088019081526080880196875260a08801998a528a518d525f80516020614136833981519152909352908b20955186559151600186015590516002850155516003840180546001600160a01b03191691909216179055516004820155915180519291909101906001600160401b03831161082157600160401b83116108215781548383558084106107fb575b5060200190855260208520855b8381106107e7575050505061076f81515f80516020613f96833981519152613ce1565b156107a35760207f9cd57cfa2e12a37215cabc6897396db265419bd7f06adad06227a2b163ecd6a39151604051908152a280f35b60405162461bcd60e51b815260206004820152601c60248201527b11985a5b1959081d1bc8185919081ddbdc9ad95c881d1bc81b1a5cdd60221b6044820152606490fd5b60019060208451940193818401550161074c565b828752836020882091820191015b818110610816575061073f565b878155600101610809565b634e487b7160e01b86526041600452602486fd5b506020823d602011610864575b8161084f6020938361294a565b81010312610860576005915161067e565b5f80fd5b3d9150610842565b6040513d88823e3d90fd5b634e487b7160e01b88526011600452602488fd5b634e487b7160e01b89526011600452602489fd5b606460405162461bcd60e51b815260206004820152602060248201527f4d617820776f726b657273207065722070726f766964657220726561636865646044820152fd5b60405162461bcd60e51b81526020600482015260136024820152721419595c925908185b1c9958591e481d5cd959606a1b6044820152606490fd5b60405162461bcd60e51b815260206004820152601660248201527515185c99d95d081ddbdc9ad95c9cc81c995858da195960521b6044820152606490fd5b634e487b7160e01b87526021600452602487fd5b60405162461bcd60e51b815260206004820152602160248201527f436f6e6669673a2063616c6c6572206973206e6f7420746865204469616d6f6e6044820152601960fa1b6064820152608490fd5b813581526020918201910161046e565b8680fd5b8380fd5b8480fd5b8280fd5b503461034657806003193601126103465750610a1260ff5f805160206140b68339815191525416604051918291826129fa565b0390f35b5034610346576020366003190112610346576004355f80516020613e768339815191525580f35b5034610346578060031936011261034657610a645f80516020613f96833981519152612ff0565b8051610a6f81612a0d565b90610a7d604051928361294a565b808252610a8c601f1991612a0d565b01835b818110610b9a575050825b8251811015610b335780610ab0600192856130fa565b5185525f8051602061413683398151915260205260408520610b12600560405192610ada84612914565b8054845285810154602085015260028101546040850152858060a01b0360038201541660608501526004810154608085015201612ff0565b60a0820152610b2182856130fa565b52610b2c81846130fa565b5001610a9a565b81846040519182916020830160208452825180915260408401602060408360051b870101940192905b828210610b6b57505050500390f35b91936001919395506020610b8a8192603f198a82030186528851612986565b9601920192018594939192610b5c565b602090610ba5612fc0565b82828601015201610a8f565b50346103465760203660031901126103465760ff6040826020935060043581525f80516020613f1683398151915284522054166040519015158152f35b50346108605760203660031901126108605760043590610c0d82613079565b905f80516020613d368339815191529160018060a01b0383541690608060408201516024604051809581936321b9a09560e21b835260048301525afa918215610f20575f9261107d575b50606001516001600160a01b03163314908115611066575b508015611046575b15610fdc57610c8583613079565b92610c8e61319f565b93610ca985825160018060a01b03606085015116908561384b565b5f8051602061403683398151915294825f525f8051602061413683398151915260205260405f209460405195610cde87612914565b805487526001810154966020810197885260028201549160408201928352610d39610d29600560018060a01b0360038501541693606086019485526004810154608087015201612ff0565b9960a084019a8b5251151561303a565b5f5b89518051821015610d795790610d53816001936130fa565b515f525f80516020613d7683398151915260205260405f2060ff19815416905501610d3b565b505089610d8681546139ee565b9055516001600160a01b03165f9081525f80516020613e96833981519152602052604090208054610db6906139ee565b905551610fb1575b51805f525f80516020613f1683398151915260205260405f2060ff198154169055845f525f80516020614136833981519152602052600560405f205f81555f60018201555f60028201555f60038201555f6004820155018054905f815581610f93575b5050610e3a855f80516020613f96833981519152613c06565b15610f445760a092610e85917f2931f8975c0ce3cdf8ebe0cac36f06048736d46d6df66ac21cfe717b9ee710066020604051898152a25f80516020613eb683398151915254906133ee565b600180831b0390541691015190803b1561086057604051809263012a4ebb60e41b8252604482016040600484015281518091526020606484019201905f5b818110610f2b5750505091815f81819588602483015203925af18015610f2057610f0b575b5081525f80516020613ff683398151915260205280600160408220828155015580f35b610f189192505f9061294a565b5f9082610ee8565b6040513d5f823e3d90fd5b8251845286945060209384019390920191600101610ec3565b60405162461bcd60e51b815260206004820152602160248201527f4661696c656420746f2072656d6f766520776f726b65722066726f6d206c69736044820152601d60fa1b6064820152608490fd5b5f5260205f20908101905b81811015610e21575f8155600101610f9e565b610fc85f80516020613eb6833981519152546139ee565b5f80516020613eb683398151915255610dbe565b60405162461bcd60e51b815260206004820152603c60248201527f4f6e6c792070726f76696465722c2070656572206f776e6572206f722064656160448201527b1b081bdddb995c8818d85b8818d85b1b081d1a1a5cc81b595d1a1bd960221b6064820152608490fd5b505f80516020613fb6833981519152546001600160a01b03163314610c77565b606001516001600160a01b0316331490505f610c6f565b6110a091925060803d6080116110a7575b611098818361294a565b810190612af0565b905f610c57565b503d61108e565b34610860576020366003190112610860576004356110ca61316c565b6110d2612e19565b600581101561118e577f2a89b2e3d580398d6dc2db5e0f336b52602bbaa51afa9bb5cdf59239cf0d2bea9161110c60026020931415612c00565b61113461111761319f565b60608101611126848251612d7c565b9052610140810151906133ee565b5f80516020613f36833981519152546040516323b872dd60e01b8482015233602482015230604482015260648082018490528152611185916001600160a01b031661118060848361294a565b613b10565b604051908152a1005b634e487b7160e01b5f52602160045260245ffd5b34610860575f3660031901126108605760205f80516020613eb683398151915254604051908152f35b34610860576020366003190112610860576004356001600160401b038111610860576111fb9036906004016128c8565b602060405161120a828261294a565b5f815281810190601f19830136833761122284612a0d565b94611230604051968761294a565b848652601f1961123f86612a0d565b015f5b8181106113be57505036819003601e1901905f5b8681101561134a578060051b820135838112156108605782018035906001600160401b038211610860578701908036038213610860575f91876112c384938b6040519382859383850197883783018281018881528d519283915e010185815203601f19810183528261294a565b5190305af4903d1561133c573d916001600160401b0383116113285760405160019361130c92906112fd601f8201601f19168c018461294a565b82523d5f8b84013e5b30613b93565b611316828b6130fa565b52611321818a6130fa565b5001611256565b634e487b7160e01b5f52604160045260245ffd5b61130c600192606090611306565b6040805187815289518189018190525f92600582901b83018101918c8b01918b9085015b82871061137b5785850386f35b90919293828080600193603f198a82030186528189518051918291828552018484015e5f838284010152601f80199101160101960192019601959291909261136e565b60608882018701528501611242565b3461086057602036600319011261086057610a126113ec600435613079565b604051918291602083526020830190612986565b34610860576020366003190112610860576004355f80516020613dd683398151915255005b34610860575f3660031901126108605761143d612a65565b506040805160015f80516020613fd683398151915261145b8361292f565b63ffffffff60e01b815460e01b1683520154602082015261147e8251809261296d565bf35b3461086057366003190161018081126108605761016013610860576040516114a7816128f8565b6004358152602435602082015260443560408201526064356060820152608435608082015260a43560a082015260c43560c082015260e43560e0820152610104359081151582036108605761151a91610100820152610124356101208201526101443561014082015261016435906133ee565b005b34610860576020366003190112610860576004355f80516020613e1683398151915255005b34610860575f366003190112610860575f80516020613fb6833981519152546040516001600160a01b039091168152602090f35b34610860575f3660031901126108605760205f8051602061417683398151915254604051908152f35b34610860576020366003190112610860576004355f8051602061407683398151915255005b34610860576020366003190112610860576004356115e081613079565b905f80516020613d3683398151915260018060a01b03905416608060408401516024604051809481936321b9a09560e21b835260048301525afa8015610f205761151a9361164d925f9261169d575b50606001516001600160a01b03163314908115611686575b50612b45565b61167a61165982613079565b61166161319f565b928184925190606060018060a01b03910151169161384b565b610140810151906133ee565b606001516001600160a01b03163314905084611647565b6116b791925060803d6080116110a757611098818361294a565b908561162f565b34610860576020366003190112610860576004355f8051602061405683398151915255005b34610860576020366003190112610860576116fc6128b2565b5f80516020613d3683398151915280546001600160a01b0319166001600160a01b03909216919091179055005b34610860576020366003190112610860576117426128b2565b61174a61316c565b60ff5f805160206140b68339815191525416600381101561118e57156117c5576001600160a01b03165f8181525f80516020613db68339815191526020908152604091829020805460ff1916600117905590519182527f4c26e4de691e265be6cf03e639754839907bf74687cd524a6734851331527ffd91a1005b60405162461bcd60e51b815260206004820152601b60248201527a436f6e6669673a206163636573732074797065206973204e4f4e4560281b6044820152606490fd5b34610860575f3660031901126108605761182061316c565b5f80516020613fb683398151915280546001600160a01b031981169091555f906001600160a01b03165f80516020613f768339815191528280a3005b34610860575f3660031901126108605760205f80516020613e1683398151915254604051908152f35b34610860575f3660031901126108605761189d612f43565b506101606118a961319f565b61014060405191805183526020810151602084015260408101516040840152606081015160608401526080810151608084015260a081015160a084015260c081015160c084015260e081015160e084015261010081015115156101008401526101208101516101208401520151610140820152f35b34610860576101a0366003190112610860576119386128b2565b604036602319011261086057606435906001600160a01b038216820361086057610124359160c4359160a43591608435906001600160401b0386116108605736602387011215610860576004860135946001600160401b038611610860573660248760061b89010111610860576101443590600382101561086057610164356001600160401b038111610860576119d39036906004016128c8565b5f805160206140f68339815191525490979195604082901c60ff16159590916001600160401b03811680159081611eea575b6001149081611ee0575b159081611ed7575b50611ec8576001600160401b031981166001175f805160206140f68339815191525586611ea0575b50611a48613b68565b611a50613b68565b611a58613b68565b611a60613b68565b611a693361310e565b611a71613b68565b8115611e4757828211611dde578315611d7f57435f80516020613d56833981519152555f80516020613d3683398151915280546001600160a01b03998a166001600160a01b03199182161782555f80516020613f36833981519152805493909a169216919091179097555f80516020614056833981519152555f80516020613f56833981519152555f805160206140768339815191525560e4355f8051602061417683398151915255610104355f80516020613e16833981519152555f5b86811015611bb4575f80516020613e568339815191525490600160401b8210156113285760018201805f80516020613e5683398151915255821015611ba057611b9a6001925f80516020613e568339815191525f5260205f2060248460061b8d010191851b0161357c565b01611b2f565b634e487b7160e01b5f52603260045260245ffd5b50611bcf909493945f805160206140b6833981519152612f2b565b5f80516020613db6833981519152935f5b84811015611c2557600581901b840135906001600160a01b038216820361086057600191828060a01b03165f528660205260405f208260ff1982541617905501611be0565b50611c3e60245f80516020613fd683398151915261357c565b604051906024359063ffffffff60e01b8216809203610860575f80516020613ef68339815191526040846020946004965260443585820152a1611c7f613b68565b610184355f8051602061415683398151915255611c9a613b68565b54604051630ecce30160e31b815292839182906001600160a01b03165afa908115610f20575f91611d4d575b505f198101908111611d39575f8051602061409683398151915255611ce757005b60ff60401b195f805160206140f683398151915254165f805160206140f6833981519152557fc7f505b2f371ae2175ee4913f4499e1f2633a7b5936321eed1cdaeb6115181d2602060405160018152a1005b634e487b7160e01b5f52601160045260245ffd5b90506020813d602011611d77575b81611d686020938361294a565b81010312610860575182611cc6565b3d9150611d5b565b60405162461bcd60e51b815260206004820152603160248201527f436f6e6669673a206375436f756e74506572576f726b65722073686f756c6420604482015270062652067726561746572207468616e203607c1b6064820152608490fd5b60405162461bcd60e51b815260206004820152603b60248201527f436f6e6669673a206d696e576f726b6572732073686f756c64206265206c657360448201527a73206f7220657175616c20746f20746172676574576f726b65727360281b6064820152608490fd5b60405162461bcd60e51b815260206004820152602b60248201527f436f6e6669673a206d696e576f726b6572732073686f756c642062652067726560448201526a061746572207468616e20360ac1b6064820152608490fd5b6001600160481b0319166001600160401b01175f805160206140f6833981519152558b611a3f565b63f92ee8a960e01b5f5260045ffd5b9050158d611a17565b303b159150611a0f565b889150611a05565b3461086057602036600319011261086057600435600381101561086057611f1761316c565b60ff5f805160206140b68339815191525416600381101561118e578114611f8557611f8081611f747f1f5a251428f76335a835fcae94ab6a9bcf09ac33bd3c782eb6a81bdf878a7393935f805160206140b6833981519152612f2b565b604051918291826129fa565b0390a1005b60405162461bcd60e51b815260206004820152602260248201527f436f6e6669673a20616363657373207479706520697320616c72656164792073604482015261195d60f21b6064820152608490fd5b3461086057602036600319011261086057611fee6128b2565b60018060a01b03165f525f80516020613e96833981519152602052602060405f2054604051908152f35b34610860575f36600319011261086057612030612e19565b604051600582101561118e576020918152f35b34610860575f3660031901126108605760205f8051602061403683398151915254604051908152f35b34610860576020366003190112610860577f38fb081a0b484406977bd94ff8edb79be44b5ca514130361182516b39e2c452860206120a86128b2565b6120b061316c565b6001600160a01b03165f8181525f80516020613db68339815191528352604090819020805460ff1916905551908152a1005b346108605760203660031901126108605760206121056121006128b2565b612d89565b6040519015158152f35b34610860576020366003190112610860576004355f8051602061403683398151915255005b34610860575f3660031901126108605760205f805160206140d683398151915254604051908152f35b34610860575f3660031901126108605760205f8051602061415683398151915254604051908152f35b34610860576020366003190112610860576004355f80516020613e3683398151915255005b34610860575f366003190112610860575f80516020613f36833981519152546040516001600160a01b039091168152602090f35b34610860576020366003190112610860576004356121fb61316c565b5f805160206140168339815191525c6125105760015f805160206140168339815191525d5f80516020613e768339815191529061223661319f565b5f80516020613d3683398151915280546040516372ea4f2360e01b815292939290602090829060049082906001600160a01b03165afa908115610f20575f916124dc575b506122af61229a6122c4925f80516020613e168339815191525490612d5c565b5f805160206140768339815191525490612d5c565b5f80516020613f568339815191525490612d5c565b606084016122d3848251612d6f565b8091526101008501511515806124d3575b1561244f57505060c08301515f805160206141168339815191525491546040516372ea4f2360e01b8152919290602090839060049082906001600160a01b03165afa908115610f20575f91612419575b61233e9250612d7c565b10156123b05761237260209284612364845f80516020613ed68339815191529754612d6f565b9055610140810151906133ee565b5f80516020613f368339815191525461239790829033906001600160a01b0316613810565b604051908152a15f5f805160206140168339815191525d005b60405162461bcd60e51b815260206004820152603b60248201527f43616e2774207769746864726177206265666f7265206d696e4465616c44657060448201527a1bdcda5d1959115c1bd8da1cc818599d195c881919585b08195b99602a1b6064820152608490fd5b90506020823d602011612447575b816124346020938361294a565b810103126108605761233e915190612334565b3d9150612427565b915091935010612473575f80516020613ed68339815191529161237260209261167a565b60405162461bcd60e51b815260206004820152603260248201527f467265652062616c616e6365206e6565647320746f20636f766572206d696e4460448201527165616c4465706f736974656445706f63687360701b6064820152608490fd5b508181106122e4565b90506020813d602011612508575b816124f76020938361294a565b8101031261086057516122af61227a565b3d91506124ea565b633ee5aeb560e01b5f5260045ffd5b34610860575f3660031901126108605760205f8051602061405683398151915254604051908152f35b34610860575f3660031901126108605760205f80516020613f5683398151915254604051908152f35b346108605760403660031901126108605760043561258e81613079565b905f80516020613d3683398151915260018060a01b03905416608060408401516024604051809481936321b9a09560e21b835260048301525afa8015610f205761151a936125f9925f9261169d5750606001516001600160a01b031633149081156116865750612b45565b60243590612c3c565b34610860576020366003190112610860576040612620600435612a7d565b60208251918051835201516020820152f35b346108605760403660031901126108605761264b61316c565b61266360045f80516020613fd683398151915261357c565b60405160043563ffffffff60e01b811680910361086057816040915f80516020613ef683398151915293526024356020820152a1005b34610860575f3660031901126108605760205f80516020613d5683398151915254604051908152f35b34610860575f3660031901126108605760205f8051602061407683398151915254604051908152f35b34610860576020366003190112610860576004355f8051602061411683398151915255005b34610860576020366003190112610860576004355f8051602061409683398151915255005b34610860575f3660031901126108605761274d61316c565b612755612e19565b600581101561118e57600261276b911415612a24565b61277661167a61319f565b5f80516020613d3683398151915254604051630ecce30160e31b815290602090829060049082906001600160a01b03165afa908115610f20575f91612835575b506020817f3ad16bb58712aa329948d76146b096a4f4b85e024d99473dc50bcd358811b86c925f805160206140d6833981519152541161280a575b805f8051602061411683398151915255604051908152a1005b805f805160206140d6833981519152555f80516020613df683398151915282604051838152a16127f1565b90506020813d602011612860575b816128506020938361294a565b81010312610860575160206127b6565b3d9150612843565b34610860576020366003190112610860576004355f805160206140d683398151915255005b34610860576020366003190112610860576004355f80516020613eb683398151915255005b600435906001600160a01b038216820361086057565b9181601f84011215610860578235916001600160401b038311610860576020808501948460051b01011161086057565b61016081019081106001600160401b0382111761132857604052565b60c081019081106001600160401b0382111761132857604052565b604081019081106001600160401b0382111761132857604052565b601f909101601f19168101906001600160401b0382119082101761132857604052565b80516001600160e01b0319168252602090810151910152565b602060e060a060c085019380518652838101518487015260408101516040870152600180831b0360608201511660608701526080810151608087015201519360c060a08201528451809452019201905f5b8181106129e45750505090565b82518452602093840193909201916001016129d7565b91906020830192600382101561118e5752565b6001600160401b0381116113285760051b60200190565b15612a2b57565b60405162461bcd60e51b81526020600482015260126024820152714465616c206973206e6f742061637469766560701b6044820152606490fd5b60405190612a728261292f565b5f6020838281520152565b604051612a898161292f565b5f81525f602082015250612a9b61319f565b90612aa581613079565b5115612ac25781612ab9612abf9383613647565b91613732565b90565b5050604051612ad08161292f565b5f81525f602082015290565b51906001600160a01b038216820361086057565b908160809103126108605760405190608082016001600160401b0381118382101761132857612b3d9160609160405280518452602081015160208501526040810151604085015201612adc565b606082015290565b15612b4c57565b60405162461bcd60e51b815260206004820152603060248201527f4f6e6c792070726f7669646572206f722070656572206f776e65722063616e2060448201526f18d85b1b081d1a1a5cc81b595d1a1bd960821b6064820152608490fd5b15612bb157565b60405162461bcd60e51b815260206004820152602160248201527f4f6666636861696e20776f726b65722069642063616e277420626520656d70746044820152607960f81b6064820152608490fd5b15612c0757565b60405162461bcd60e51b815260206004820152600d60248201526c1119585b081a5cc8195b991959609a1b6044820152606490fd5b811515612c4881612baa565b612c5061319f565b9261014084015191835f525f80516020614136833981519152602052612c7960405f2091612baa565b805415612d2a575b817fcf79e0e27c8c35d39bd9b727f35e6f79573597f660c88baf483fc1511c49203c92604092558151908582526020820152a15f80516020613eb68339815191525490612cce82856133ee565b612cd6612e19565b600581101561118e5780612cf06002612cf7931415612c00565b1515612a24565b14612d26575f525f80516020613ff6833981519152602052600160a060405f209260e081015184550151910155565b5050565b5f80516020613eb683398151915254915f198314611d39576001929092015f80516020613eb683398151915255612c81565b81810292918115918404141715611d3957565b91908203918211611d3957565b91908201809211611d3957565b60ff5f805160206140b68339815191525416600381101561118e578015612e125760018114612de857600214612dbe57505f90565b6001600160a01b03165f9081525f80516020613db6833981519152602052604090205460ff161590565b506001600160a01b03165f9081525f80516020613db6833981519152602052604090205460ff1690565b5050600190565b612e2161319f565b610100810151612f25575f805160206140d6833981519152548015159081612f17575b50612f125760608101515f80516020613d36833981519152546040516372ea4f2360e01b815290602090829060049082906001600160a01b03165afa908115610f20575f91612ede575b506122af61229a612eae925f80516020613e168339815191525490612d5c565b1115612eba5750600490565b61014001515f80516020614056833981519152541115612ed957600390565b600190565b90506020813d602011612f0a575b81612ef96020938361294a565b8101031261086057516122af612e8e565b3d9150612eec565b505f90565b905060c0820151115f612e44565b50600290565b90600381101561118e5760ff80198354169116179055565b60405190612f50826128f8565b5f610140838281528260208201528260408201528260608201528260808201528260a08201528260c08201528260e082015282610100820152826101208201520152565b90604051612fa18161292f565b825460e01b6001600160e01b0319168152600192909201546020830152565b60405190612fcd82612914565b606060a0835f81525f60208201525f60408201525f838201525f60808201520152565b90604051918281549182825260208201905f5260205f20925f5b81811061302157505061301f9250038361294a565b565b845483526001948501948794506020909301920161300a565b1561304157565b60405162461bcd60e51b815260206004820152601060248201526f15dbdc9ad95c881b9bdd08199bdd5b9960821b6044820152606490fd5b613081612fc0565b505f525f8051602061413683398151915260205260405f20612abf604051916130a983612914565b805483526001810154602084019081526002820154604085015260038201546001600160a01b0316606085015260048201546080850152906130ed90600501612ff0565b60a084015251151561303a565b8051821015611ba05760209160051b010190565b6001600160a01b03168015613159575f80516020613fb683398151915280546001600160a01b0319811683179091556001600160a01b03165f80516020613f768339815191525f80a3565b631e4fbdf760e01b5f525f60045260245ffd5b5f80516020613fb6833981519152546001600160a01b0316330361318c57565b63118cdaa760e01b5f523360045260245ffd5b6131a7612f43565b505f80516020613d3683398151915254604051630ecce30160e31b81525f80516020613e768339815191529291602090829060049082906001600160a01b03165afa908115610f20575f916133bc575b505f198101818111611d3957905f8051602061411683398151915254915f92806133b0575b505f80516020613eb683398151915254945f80516020613e1683398151915254935f805160206140768339815191525491613255612f43565b5054935f80516020613e36833981519152545f80516020613dd6833981519152549060405196613284886128f8565b8088528160208901528260408901526060880152608087015260a086015260c08501528260e08501521515610100840152836101208401528561014084015282955f805160206140968339815191525493848411156133a757505f805160206140d6833981519152549485841115613370578585106133205750505061331c91925061331660a0860193845192612d6f565b90612d7c565b9052565b61333e92916133396133399261333961331c988a612d6f565b612d5c565b6060860161334d828251612d6f565b905261335e60808701918251612d7c565b905261331660a0860193845192612d6f565b613387955061333961333992939561333995612d6f565b60608301613396828251612d6f565b905261331c60808401918251612d7c565b96505050505050565b6001935090505f61321c565b90506020813d6020116133e6575b816133d76020938361294a565b8101031261086057515f6131f7565b3d91506133ca565b905f80516020613e76833981519152825160608401918251809203613574575b50506020830151608084015180910361355f575b50604083015160a084015180910361354a575b505f80516020614076833981519152549060e0840151936101008101511561346d575b505050505f8051602061409683398151915255565b5f805160206140568339815191525480851091826134fd57505050906133396134a69251935f80516020613e1683398151915254612d5c565b80156134e9576134c86020915f80516020613df6833981519152930484612d7c565b805f805160206140d683398151915255604051908152a15b5f808080613458565b634e487b7160e01b5f52601260045260245ffd5b6101400151101593509150829050613542575b50156134e0575f5f805160206140d6833981519152555f80516020613df683398151915260206040515f8152a16134e0565b90505f613510565b5f80516020613dd6833981519152555f613435565b5f80516020613e36833981519152555f613422565b555f8061340e565b9080356001600160e01b0319811681036108605760019160209160e01c63ffffffff198554161784550135910155565b908161016091031261086057604051906135c5826128f8565b8051906006821015610860576101409183526020810151602084015260408101516040840152606081015160608401526080810151608084015260a081015160a084015260c081015160c084015261361f60e08201612adc565b60e0840152610100810151610100840152610120810151610120840152015161014082015290565b9060e00151905f80516020613d368339815191529060ff5f805160206140b68339815191525416600381101561118e5760011461372d5761368a610160916139fa565b9154604051631de5608360e21b81526004810193909352829060249082906001600160a01b03165afa908115610f20575f916136fe575b50610120810151806136f8575060a00180515f198101908111611d395782116136e8575090565b515f19810191508111611d395790565b91505090565b61372091506101603d8111613726575b613718818361294a565b8101906135ac565b5f6136c1565b503d61370e565b505090565b9160405161373f8161292f565b5f81525f602082015250825f525f80516020613ff683398151915260205261376a60405f2093613a76565b928054918281106137ff5760a061378661379294600193612d6f565b94015191015490612d6f565b908181106137f0576137d06137c961229a6137b46137d8956298968095612d6f565b5f80516020613e168339815191525490612d5c565b9384612d5c565b048092612d6f565b90604051916137e68361292f565b8252602082015290565b505050604051612ad08161292f565b5050505050604051612ad08161292f565b60405163a9059cbb60e01b60208201526001600160a01b03909216602483015260448083019390935291815261301f9161118060648361294a565b929190156139e95761385d8284613647565b613868818486613732565b9182519361387c6020850195865190612d7c565b9081156139e05760806138ba91600495895f525f80516020613ff683398151915260205260405f20908155600160a083015191015501918251612d6f565b90525f80516020613d3683398151915254604051638da5cb5b60e01b81529260209184919082906001600160a01b03165afa918215610f20575f9261398d575b5091606093915f80516020613d9683398151915295938251613962575b508251613937575b505190519060405192835260208301526040820152a1565b5f80516020613f3683398151915254835161395c9290916001600160a01b0316613810565b5f61391f565b5f80516020613f368339815191525483516139879290916001600160a01b0316613810565b5f613917565b93915093916020843d6020116139d8575b816139ab6020938361294a565b81010312610860575f80516020613d96833981519152946139cd606095612adc565b9294509092946138fa565b3d915061399e565b50505050505050565b505050565b8015611d39575f190190565b613a0390613079565b5f80516020613d368339815191525460409182015191516321b9a09560e21b81526004810192909252608090829060249082906001600160a01b03165afa8015610f20576020915f91613a57575b50015190565b613a70915060803d6080116110a757611098818361294a565b5f613a51565b5f80516020613d368339815191529060ff5f805160206140b68339815191525416600381101561118e57600114613b0a57613ab3610160916139fa565b9154604051631de5608360e21b81526004810193909352829060249082906001600160a01b03165afa8015610f205760c0915f91613af15750015190565b613a7091506101603d811161372657613718818361294a565b50505f90565b905f602091828151910182855af115610f20575f513d613b5f57506001600160a01b0381163b155b613b3f5750565b635274afe760e01b5f9081526001600160a01b0391909116600452602490fd5b60011415613b38565b60ff5f805160206140f68339815191525460401c1615613b8457565b631afcd79f60e31b5f5260045ffd5b90613bb75750805115613ba857805190602001fd5b63d6bda27560e01b5f5260045ffd5b81511580613be8575b613bc8575090565b639996b31560e01b5f9081526001600160a01b0391909116600452602490fd5b50803b15613bc0565b8054821015611ba0575f5260205f2001905f90565b906001820191815f528260205260405f20548015155f14613cd9575f198101818111611d395782545f19810191908211611d3957818103613c8e575b50505080548015613c7a575f190190613c5b8282613bf1565b8154905f199060031b1b19169055555f526020525f6040812055600190565b634e487b7160e01b5f52603160045260245ffd5b613cc4613c9e613cae9386613bf1565b90549060031b1c92839286613bf1565b819391549060031b91821b915f19901b19161790565b90555f528360205260405f20555f8080613c42565b505050505f90565b6001810190825f528160205260405f2054155f14613d2e578054600160401b81101561132857613d1b613cae826001879401855584613bf1565b905554915f5260205260405f2055600190565b5050505f9056fe8953f5482bc1a621075e75537625fa3bd2025e7df7baf6ba1dbfbf2212912d048953f5482bc1a621075e75537625fa3bd2025e7df7baf6ba1dbfbf2212912d05ec986952a0671e4b2e5ec4461085fb880bc7a7b88668240f8d55173039155d24c512f9d0bb2627096491f1074af42a5032fe36ef5dcae7c216cfc34f6ea474d68953f5482bc1a621075e75537625fa3bd2025e7df7baf6ba1dbfbf2212912d1185276e830bb0cbb783f0e6b4a968acc65deef7a2b0ff14d52821c42f785b9cc1cecd349d986645e1758ec135f91f1ad20564a8bcc6c2b5a5eaca9b09841495c58953f5482bc1a621075e75537625fa3bd2025e7df7baf6ba1dbfbf2212912d0e85276e830bb0cbb783f0e6b4a968acc65deef7a2b0ff14d52821c42f785b9cc08953f5482bc1a621075e75537625fa3bd2025e7df7baf6ba1dbfbf2212912d0f85276e830bb0cbb783f0e6b4a968acc65deef7a2b0ff14d52821c42f785b9cbfec986952a0671e4b2e5ec4461085fb880bc7a7b88668240f8d55173039155d22ec986952a0671e4b2e5ec4461085fb880bc7a7b88668240f8d55173039155d21430648de173157e069201c943adb2d4e340e7cf5b27b1b09c9cb852f03d63b56c820a66d3bdd50a45cf12cda6dc8ec9e94fb5123edd7da736eea18316f8523a0ec986952a0671e4b2e5ec4461085fb880bc7a7b88668240f8d55173039155d258953f5482bc1a621075e75537625fa3bd2025e7df7baf6ba1dbfbf2212912d088953f5482bc1a621075e75537625fa3bd2025e7df7baf6ba1dbfbf2212912d0b8be0079c531659141344cd1fd0a4f28419497f9722a3daafe3b4186f6b6457e0ec986952a0671e4b2e5ec4461085fb880bc7a7b88668240f8d55173039155d26b13d3e7783d509d8d65d3e1e62ec0b103a07e0cbfa1ee74ae19127f297dddfcc8953f5482bc1a621075e75537625fa3bd2025e7df7baf6ba1dbfbf2212912d0685276e830bb0cbb783f0e6b4a968acc65deef7a2b0ff14d52821c42f785b9cc49b779b17422d0df92223018b32b4d1fa46e071723d6817e2486d003becc55f00ec986952a0671e4b2e5ec4461085fb880bc7a7b88668240f8d55173039155d208953f5482bc1a621075e75537625fa3bd2025e7df7baf6ba1dbfbf2212912d0a8953f5482bc1a621075e75537625fa3bd2025e7df7baf6ba1dbfbf2212912d0d85276e830bb0cbb783f0e6b4a968acc65deef7a2b0ff14d52821c42f785b9cc38953f5482bc1a621075e75537625fa3bd2025e7df7baf6ba1dbfbf2212912d1085276e830bb0cbb783f0e6b4a968acc65deef7a2b0ff14d52821c42f785b9cc2f0c57e16840df040f15088dc2f81fe391c3923bec73e23a9662efc9c229c6a0085276e830bb0cbb783f0e6b4a968acc65deef7a2b0ff14d52821c42f785b9cc5ec986952a0671e4b2e5ec4461085fb880bc7a7b88668240f8d55173039155d2385276e830bb0cbb783f0e6b4a968acc65deef7a2b0ff14d52821c42f785b9cc68953f5482bc1a621075e75537625fa3bd2025e7df7baf6ba1dbfbf2212912d0ca2646970667358221220efd2f51681c59f39cef84cdd4ac11ed44812c3bd3c29d79501615b10eed98b1064736f6c634300081a0033","linkReferences":{}},"methodIdentifiers":{"activateWorker(bytes32,bytes32)":"22ebd58a","addProviderToAccessList(address)":"73134c15","addWorker(address,(bytes32,bytes32[]),bytes32)":"d76e4805","appCID()":"9bc66868","changeProvidersAccessType(uint8)":"636fcefb","computePeerUsed(bytes32)":"bd1926e0","creationBlock()":"17634514","cuCountPerWorker()":"15a0f31a","deposit(uint256)":"b6b55f25","effectors()":"fc1e5e2a","getActivatedWorkerCount()":"ade0a202","getFreeBalance()":"e93c4f15","getMaxPaidEpoch()":"378b22e4","getProtocolVersion()":"33ce93fe","getRewardAmount(bytes32)":"1af57b96","getStatus()":"4e69d560","getWorker(bytes32)":"aba93a10","getWorkerCount()":"4d7599f1","getWorkerCount(address)":"59c4afc0","getWorkers()":"c1499f71","initialize(address,(bytes4,bytes32),address,uint256,uint256,uint256,uint256,uint256,(bytes4,bytes32)[],uint8,address[],uint256)":"663c8ce9","isProviderAllowed(address)":"3e8ae1ae","maxWorkersPerProvider()":"8a0c725b","minWorkers()":"2db31193","multicall(bytes[])":"ac9650d8","owner()":"8da5cb5b","paymentToken()":"3013ce29","postCommitPeriod((uint256,uint256,uint256,uint256,uint256,uint256,uint256,uint256,bool,uint256,uint256),uint256)":"93d2bafc","preCommitPeriod()":"6e5e47b1","pricePerCuPerEpoch()":"70220a9b","providersAccessType()":"d4773ff0","removeProviderFromAccessList(address)":"444e6a5a","removeWorker(bytes32)":"bc126f1f","renounceOwnership()":"715018a6","setActivatedWorkerCount(uint256)":"03465927","setAppCID((bytes4,bytes32))":"176474cf","setCuCountPerWorker(uint256)":"869ef43c","setDiamond(address)":"76ed535a","setEndedEpoch(uint256)":"13883251","setGapsEpochCount(uint256)":"9c09e82d","setLastCommitedEpoch(uint256)":"0ac25f10","setLockedBalance(uint256)":"3116eeda","setMaxPaidEpoch(uint256)":"04f1bd56","setMinWorkers(uint256)":"7d1fd49e","setPricePerCuPerEpoch(uint256)":"9276ef6d","setTargetWorkers(uint256)":"e116568f","setTotalBalance(uint256)":"c9ed5008","setWorkerCount(uint256)":"3d0bdad7","stop()":"07da68f5","targetWorkers()":"2943dcab","transferOwnership(address)":"f2fde38b","withdraw(uint256)":"2e1a7d4d","withdrawRewards(bytes32)":"7dfb6626"},"storageLayout":{"storage":[],"types":{}},"devdoc":{"version":1,"kind":"dev","methods":{"activateWorker(bytes32,bytes32)":{"details":"Set offchain worker ID for a corresponding onchain worker for a deal"},"addProviderToAccessList(address)":{"details":"Adds a provider to the access list"},"addWorker(address,(bytes32,bytes32[]),bytes32)":{"details":"Adds a compute unit to the deal","params":{"computeProvider":"The compute provider address","peerId":"The peer ID","workerData":"The worker with data"}},"appCID()":{"details":"Returns the app CID"},"changeProvidersAccessType(uint8)":{"details":"Change the providers access type"},"computePeerUsed(bytes32)":{"details":"Returns the boolean flag indicating whether the peer exists in the deal"},"creationBlock()":{"details":"Returns the creation block of the deal"},"cuCountPerWorker()":{"details":"Returns number of CUs in a worker"},"deposit(uint256)":{"details":"Deposits payment token to the deal"},"effectors()":{"details":"Returns the effector CIDs"},"getActivatedWorkerCount()":{"details":"Returns the worker count. Worker is a compute unit that has a worker ID"},"getFreeBalance()":{"details":"Returns the free balance of the deal"},"getMaxPaidEpoch()":{"details":"Returns the max paid epoch"},"getProtocolVersion()":{"details":"Returns the protocol version"},"getRewardAmount(bytes32)":{"details":"Returns the reward amount by compute unit ID"},"getStatus()":{"details":"Returns the status of the deal"},"getWorker(bytes32)":{"details":"Returns worker by ID"},"getWorkerCount()":{"details":"Returns total number of workers"},"getWorkerCount(address)":{"details":"Returns number of workers in provider"},"getWorkers()":{"details":"Returns workers registered in this deal"},"isProviderAllowed(address)":{"details":"Returns the boolean indicating whether the provider is allowed or not"},"maxWorkersPerProvider()":{"details":"Returns the max number of workers per provider"},"minWorkers()":{"details":"Returns the min number of workers"},"multicall(bytes[])":{"details":"Receives and executes a batch of function calls on this contract."},"owner()":{"details":"Returns the address of the current owner."},"paymentToken()":{"details":"Returns the payment token address"},"pricePerCuPerEpoch()":{"details":"Returns the price per CU per epoch"},"providersAccessType()":{"details":"Returns the providers access type"},"removeProviderFromAccessList(address)":{"details":"Removes a provider from the access list"},"removeWorker(bytes32)":{"details":"Removes a worker from the deal"},"renounceOwnership()":{"details":"Leaves the contract without owner. It will not be possible to call `onlyOwner` functions. Can only be called by the current owner. NOTE: Renouncing ownership will leave the contract without an owner, thereby disabling any functionality that is only available to the owner."},"setAppCID((bytes4,bytes32))":{"details":"Sets the app CID"},"stop()":{"details":"Stop the deal"},"targetWorkers()":{"details":"Returns the max number of workers"},"transferOwnership(address)":{"details":"Transfers ownership of the contract to a new account (`newOwner`). Can only be called by the current owner."},"withdraw(uint256)":{"details":"Withdraws payment token from the deal"},"withdrawRewards(bytes32)":{"details":"Withdraws rewards from the deal by compute unit ID"}},"events":{"AppCIDChanged((bytes4,bytes32))":{"details":"Emitted when the app CID is changed","params":{"newAppCID":"The new app CID"}},"DealEnded(uint256)":{"details":"Emitted when a deal is ended. This event can be emitted in the not-ended epoch. It can be emitted after the ended epoch in any epoch"},"Deposited(uint256)":{"details":"Emitted when a owner deposits payment token to the deal"},"Initialized(uint64)":{"details":"Triggered when the contract has been initialized or reinitialized."},"MaxPaidEpochUpdated(uint256)":{"details":"Emitted when a max paid epoch is updated"},"ProviderAddedToAccessList(address)":{"details":"Emitted when a provider is added to the access list","params":{"provider":"The provider address"}},"ProviderRemovedFromAccessList(address)":{"details":"Emitted when a provider is removed from the access list","params":{"provider":"The provider address"}},"ProvidersAccessTypeChanged(uint8)":{"details":"Emitted when the providers access type is changed","params":{"newAccessType":"The new access type"}},"RewardWithdrawn(bytes32,uint256,uint256)":{"details":"Emitted when a compute unit withdraws rewards from the deal"},"Withdrawn(uint256)":{"details":"Emitted when a owner withdraws payment token from the deal"},"WorkerIdUpdated(bytes32,bytes32)":{"details":"Emitted when a worker ID is updated","params":{"offchainWorkerId":"The new worker ID","onchainWorkerId":"The worker"}},"WorkerJoined(bytes32,bytes32)":{"details":"Emitted when a new worker is added","params":{"onchainId":"The worker ID","peerId":"The id of compute peer"}},"WorkerRemoved(bytes32,bytes32)":{"details":"Emitted when a worker is removed","params":{"onchainId":"The worker onchain ID","peerId":"The id of compute peer"}}},"errors":{"AddressEmptyCode(address)":[{"details":"There's no code at `target` (it is not a contract)."}],"FailedCall()":[{"details":"A call to an address target failed. The target may have reverted."}],"InvalidInitialization()":[{"details":"The contract is already initialized."}],"NotInitializing()":[{"details":"The contract is not initializing."}],"OwnableInvalidOwner(address)":[{"details":"The owner is not a valid owner account. (eg. `address(0)`)"}],"OwnableUnauthorizedAccount(address)":[{"details":"The caller account is not authorized to perform an operation."}],"ReentrancyGuardReentrantCall()":[{"details":"Unauthorized reentrant call."}],"SafeERC20FailedOperation(address)":[{"details":"An operation with an ERC-20 token failed."}]}},"id":87}