{"abi":[{"type":"function","name":"activateWorker","inputs":[{"name":"onchainWorkerId","type":"bytes32","internalType":"bytes32"},{"name":"offchainWorkerId","type":"bytes32","internalType":"bytes32"}],"outputs":[],"stateMutability":"nonpayable"},{"type":"function","name":"addProviderToAccessList","inputs":[{"name":"provider","type":"address","internalType":"address"}],"outputs":[],"stateMutability":"nonpayable"},{"type":"function","name":"addWorker","inputs":[{"name":"computeProvider","type":"address","internalType":"address"},{"name":"workerData","type":"tuple","internalType":"struct IWorkerManager.WorkerData","components":[{"name":"onchainId","type":"bytes32","internalType":"bytes32"},{"name":"computeUnitIds","type":"bytes32[]","internalType":"bytes32[]"}]},{"name":"peerId","type":"bytes32","internalType":"bytes32"}],"outputs":[],"stateMutability":"nonpayable"},{"type":"function","name":"appCID","inputs":[],"outputs":[{"name":"","type":"tuple","internalType":"struct CIDV1","components":[{"name":"prefixes","type":"bytes4","internalType":"bytes4"},{"name":"hash","type":"bytes32","internalType":"bytes32"}]}],"stateMutability":"view"},{"type":"function","name":"changeProvidersAccessType","inputs":[{"name":"accessType","type":"uint8","internalType":"enum IConfig.AccessType"}],"outputs":[],"stateMutability":"nonpayable"},{"type":"function","name":"computePeerUsed","inputs":[{"name":"peerId","type":"bytes32","internalType":"bytes32"}],"outputs":[{"name":"","type":"bool","internalType":"bool"}],"stateMutability":"view"},{"type":"function","name":"creationBlock","inputs":[],"outputs":[{"name":"","type":"uint256","internalType":"uint256"}],"stateMutability":"view"},{"type":"function","name":"cuCountPerWorker","inputs":[],"outputs":[{"name":"","type":"uint256","internalType":"uint256"}],"stateMutability":"view"},{"type":"function","name":"depositFromOwner","inputs":[{"name":"amount","type":"uint256","internalType":"uint256"}],"outputs":[],"stateMutability":"nonpayable"},{"type":"function","name":"effectors","inputs":[],"outputs":[{"name":"","type":"tuple[]","internalType":"struct CIDV1[]","components":[{"name":"prefixes","type":"bytes4","internalType":"bytes4"},{"name":"hash","type":"bytes32","internalType":"bytes32"}]}],"stateMutability":"view"},{"type":"function","name":"getActivatedWorkerCount","inputs":[],"outputs":[{"name":"","type":"uint256","internalType":"uint256"}],"stateMutability":"view"},{"type":"function","name":"getFreeBalance","inputs":[],"outputs":[{"name":"","type":"uint256","internalType":"uint256"}],"stateMutability":"view"},{"type":"function","name":"getMaxPaidEpoch","inputs":[],"outputs":[{"name":"","type":"uint256","internalType":"uint256"}],"stateMutability":"view"},{"type":"function","name":"getProtocolVersion","inputs":[],"outputs":[{"name":"","type":"uint256","internalType":"uint256"}],"stateMutability":"view"},{"type":"function","name":"getRewardAmount","inputs":[{"name":"onchainWorkerId","type":"bytes32","internalType":"bytes32"}],"outputs":[{"name":"","type":"tuple","internalType":"struct IDeal.DealRewards","components":[{"name":"providerReward","type":"uint256","internalType":"uint256"},{"name":"stakerReward","type":"uint256","internalType":"uint256"}]}],"stateMutability":"view"},{"type":"function","name":"getStatus","inputs":[],"outputs":[{"name":"","type":"uint8","internalType":"enum IDeal.Status"}],"stateMutability":"view"},{"type":"function","name":"getWorker","inputs":[{"name":"onchainWorkerId","type":"bytes32","internalType":"bytes32"}],"outputs":[{"name":"","type":"tuple","internalType":"struct IWorkerManager.Worker","components":[{"name":"offchainId","type":"bytes32","internalType":"bytes32"},{"name":"onchainId","type":"bytes32","internalType":"bytes32"},{"name":"peerId","type":"bytes32","internalType":"bytes32"},{"name":"provider","type":"address","internalType":"address"},{"name":"joinedEpoch","type":"uint256","internalType":"uint256"},{"name":"computeUnitIds","type":"bytes32[]","internalType":"bytes32[]"}]}],"stateMutability":"view"},{"type":"function","name":"getWorkerCount","inputs":[],"outputs":[{"name":"","type":"uint256","internalType":"uint256"}],"stateMutability":"view"},{"type":"function","name":"getWorkerCount","inputs":[{"name":"provider","type":"address","internalType":"address"}],"outputs":[{"name":"","type":"uint256","internalType":"uint256"}],"stateMutability":"view"},{"type":"function","name":"getWorkers","inputs":[],"outputs":[{"name":"","type":"tuple[]","internalType":"struct IWorkerManager.Worker[]","components":[{"name":"offchainId","type":"bytes32","internalType":"bytes32"},{"name":"onchainId","type":"bytes32","internalType":"bytes32"},{"name":"peerId","type":"bytes32","internalType":"bytes32"},{"name":"provider","type":"address","internalType":"address"},{"name":"joinedEpoch","type":"uint256","internalType":"uint256"},{"name":"computeUnitIds","type":"bytes32[]","internalType":"bytes32[]"}]}],"stateMutability":"view"},{"type":"function","name":"initialize","inputs":[{"name":"diamond_","type":"address","internalType":"contract IDiamond"},{"name":"appCID_","type":"tuple","internalType":"struct CIDV1","components":[{"name":"prefixes","type":"bytes4","internalType":"bytes4"},{"name":"hash","type":"bytes32","internalType":"bytes32"}]},{"name":"paymentToken_","type":"address","internalType":"contract IERC20"},{"name":"minWorkers_","type":"uint256","internalType":"uint256"},{"name":"targetWorkers_","type":"uint256","internalType":"uint256"},{"name":"cuCountPerWorker_","type":"uint256","internalType":"uint256"},{"name":"maxWorkersPerProvider_","type":"uint256","internalType":"uint256"},{"name":"pricePerCuPerEpoch_","type":"uint256","internalType":"uint256"},{"name":"effectors_","type":"tuple[]","internalType":"struct CIDV1[]","components":[{"name":"prefixes","type":"bytes4","internalType":"bytes4"},{"name":"hash","type":"bytes32","internalType":"bytes32"}]},{"name":"providersAccessType_","type":"uint8","internalType":"enum IConfig.AccessType"},{"name":"providersAccessList_","type":"address[]","internalType":"address[]"},{"name":"protocolVersion_","type":"uint256","internalType":"uint256"},{"name":"owner_","type":"address","internalType":"address"}],"outputs":[],"stateMutability":"nonpayable"},{"type":"function","name":"isProviderAllowed","inputs":[{"name":"account","type":"address","internalType":"address"}],"outputs":[{"name":"","type":"bool","internalType":"bool"}],"stateMutability":"view"},{"type":"function","name":"maxWorkersPerProvider","inputs":[],"outputs":[{"name":"","type":"uint256","internalType":"uint256"}],"stateMutability":"view"},{"type":"function","name":"migrateToBalanceKeeper","inputs":[],"outputs":[],"stateMutability":"nonpayable"},{"type":"function","name":"minWorkers","inputs":[],"outputs":[{"name":"","type":"uint256","internalType":"uint256"}],"stateMutability":"view"},{"type":"function","name":"multicall","inputs":[{"name":"data","type":"bytes[]","internalType":"bytes[]"}],"outputs":[{"name":"results","type":"bytes[]","internalType":"bytes[]"}],"stateMutability":"nonpayable"},{"type":"function","name":"owner","inputs":[],"outputs":[{"name":"","type":"address","internalType":"address"}],"stateMutability":"view"},{"type":"function","name":"paymentToken","inputs":[],"outputs":[{"name":"","type":"address","internalType":"contract IERC20"}],"stateMutability":"view"},{"type":"function","name":"postCommitPeriod","inputs":[{"name":"snapshot","type":"tuple","internalType":"struct DealSnapshot.Cache","components":[{"name":"_initTotalBalance","type":"uint256","internalType":"uint256"},{"name":"_initLockedBalance","type":"uint256","internalType":"uint256"},{"name":"_initGapsEpochCount","type":"uint256","internalType":"uint256"},{"name":"_totalBalance","type":"uint256","internalType":"uint256"},{"name":"_lockedBalance","type":"uint256","internalType":"uint256"},{"name":"_gapsEpochCount","type":"uint256","internalType":"uint256"},{"name":"_currentEpoch","type":"uint256","internalType":"uint256"},{"name":"_snapshotEpoch","type":"uint256","internalType":"uint256"},{"name":"_isEnded","type":"bool","internalType":"bool"},{"name":"_pricePerCuPerEpoch","type":"uint256","internalType":"uint256"},{"name":"_activeWorkerCount","type":"uint256","internalType":"uint256"}]},{"name":"newWorkerCount","type":"uint256","internalType":"uint256"}],"outputs":[],"stateMutability":"nonpayable"},{"type":"function","name":"preCommitPeriod","inputs":[],"outputs":[{"name":"","type":"tuple","internalType":"struct DealSnapshot.Cache","components":[{"name":"_initTotalBalance","type":"uint256","internalType":"uint256"},{"name":"_initLockedBalance","type":"uint256","internalType":"uint256"},{"name":"_initGapsEpochCount","type":"uint256","internalType":"uint256"},{"name":"_totalBalance","type":"uint256","internalType":"uint256"},{"name":"_lockedBalance","type":"uint256","internalType":"uint256"},{"name":"_gapsEpochCount","type":"uint256","internalType":"uint256"},{"name":"_currentEpoch","type":"uint256","internalType":"uint256"},{"name":"_snapshotEpoch","type":"uint256","internalType":"uint256"},{"name":"_isEnded","type":"bool","internalType":"bool"},{"name":"_pricePerCuPerEpoch","type":"uint256","internalType":"uint256"},{"name":"_activeWorkerCount","type":"uint256","internalType":"uint256"}]}],"stateMutability":"view"},{"type":"function","name":"pricePerCuPerEpoch","inputs":[],"outputs":[{"name":"","type":"uint256","internalType":"uint256"}],"stateMutability":"view"},{"type":"function","name":"providersAccessType","inputs":[],"outputs":[{"name":"","type":"uint8","internalType":"enum IConfig.AccessType"}],"stateMutability":"view"},{"type":"function","name":"removeProviderFromAccessList","inputs":[{"name":"provider","type":"address","internalType":"address"}],"outputs":[],"stateMutability":"nonpayable"},{"type":"function","name":"removeStaleWorkers","inputs":[{"name":"onchainWorkerIds","type":"bytes32[]","internalType":"bytes32[]"}],"outputs":[],"stateMutability":"nonpayable"},{"type":"function","name":"removeWorker","inputs":[{"name":"onchainWorkerId","type":"bytes32","internalType":"bytes32"}],"outputs":[],"stateMutability":"nonpayable"},{"type":"function","name":"renounceOwnership","inputs":[],"outputs":[],"stateMutability":"nonpayable"},{"type":"function","name":"setActivatedWorkerCount","inputs":[{"name":"activatedWorkerCount_","type":"uint256","internalType":"uint256"}],"outputs":[],"stateMutability":"nonpayable"},{"type":"function","name":"setAppCID","inputs":[{"name":"appCID_","type":"tuple","internalType":"struct CIDV1","components":[{"name":"prefixes","type":"bytes4","internalType":"bytes4"},{"name":"hash","type":"bytes32","internalType":"bytes32"}]}],"outputs":[],"stateMutability":"nonpayable"},{"type":"function","name":"setCuCountPerWorker","inputs":[{"name":"cuCountPerWorker_","type":"uint256","internalType":"uint256"}],"outputs":[],"stateMutability":"nonpayable"},{"type":"function","name":"setDiamond","inputs":[{"name":"diamond_","type":"address","internalType":"contract IDiamond"}],"outputs":[],"stateMutability":"nonpayable"},{"type":"function","name":"setEndedEpoch","inputs":[{"name":"endedEpoch","type":"uint256","internalType":"uint256"}],"outputs":[],"stateMutability":"nonpayable"},{"type":"function","name":"setGapsEpochCount","inputs":[{"name":"gapsEpochCount","type":"uint256","internalType":"uint256"}],"outputs":[],"stateMutability":"nonpayable"},{"type":"function","name":"setLastCommitedEpoch","inputs":[{"name":"lastCommitedEpoch","type":"uint256","internalType":"uint256"}],"outputs":[],"stateMutability":"nonpayable"},{"type":"function","name":"setLockedBalance","inputs":[{"name":"lockedBalance","type":"uint256","internalType":"uint256"}],"outputs":[],"stateMutability":"nonpayable"},{"type":"function","name":"setMaxPaidEpoch","inputs":[{"name":"maxPaidEpoch","type":"uint256","internalType":"uint256"}],"outputs":[],"stateMutability":"nonpayable"},{"type":"function","name":"setMinWorkers","inputs":[{"name":"minWorkers_","type":"uint256","internalType":"uint256"}],"outputs":[],"stateMutability":"nonpayable"},{"type":"function","name":"setPricePerCuPerEpoch","inputs":[{"name":"pricePerCuPerEpoch_","type":"uint256","internalType":"uint256"}],"outputs":[],"stateMutability":"nonpayable"},{"type":"function","name":"setTargetWorkers","inputs":[{"name":"targetWorkers_","type":"uint256","internalType":"uint256"}],"outputs":[],"stateMutability":"nonpayable"},{"type":"function","name":"setTotalBalance","inputs":[{"name":"totalBalance","type":"uint256","internalType":"uint256"}],"outputs":[],"stateMutability":"nonpayable"},{"type":"function","name":"setWorkerCount","inputs":[{"name":"workerCount_","type":"uint256","internalType":"uint256"}],"outputs":[],"stateMutability":"nonpayable"},{"type":"function","name":"stop","inputs":[],"outputs":[],"stateMutability":"nonpayable"},{"type":"function","name":"targetWorkers","inputs":[],"outputs":[{"name":"","type":"uint256","internalType":"uint256"}],"stateMutability":"view"},{"type":"function","name":"transferOwnership","inputs":[{"name":"newOwner","type":"address","internalType":"address"}],"outputs":[],"stateMutability":"nonpayable"},{"type":"function","name":"withdraw","inputs":[{"name":"amount","type":"uint256","internalType":"uint256"}],"outputs":[],"stateMutability":"nonpayable"},{"type":"function","name":"withdrawRewards","inputs":[{"name":"onchainWorkerId","type":"bytes32","internalType":"bytes32"}],"outputs":[],"stateMutability":"nonpayable"},{"type":"event","name":"AppCIDChanged","inputs":[{"name":"newAppCID","type":"tuple","indexed":false,"internalType":"struct CIDV1","components":[{"name":"prefixes","type":"bytes4","internalType":"bytes4"},{"name":"hash","type":"bytes32","internalType":"bytes32"}]}],"anonymous":false},{"type":"event","name":"DealEnded","inputs":[{"name":"endedEpoch","type":"uint256","indexed":false,"internalType":"uint256"}],"anonymous":false},{"type":"event","name":"Deposited","inputs":[{"name":"amount","type":"uint256","indexed":false,"internalType":"uint256"}],"anonymous":false},{"type":"event","name":"Initialized","inputs":[{"name":"version","type":"uint64","indexed":false,"internalType":"uint64"}],"anonymous":false},{"type":"event","name":"MaxPaidEpochUpdated","inputs":[{"name":"maxPaidEpoch","type":"uint256","indexed":false,"internalType":"uint256"}],"anonymous":false},{"type":"event","name":"OwnershipTransferred","inputs":[{"name":"previousOwner","type":"address","indexed":true,"internalType":"address"},{"name":"newOwner","type":"address","indexed":true,"internalType":"address"}],"anonymous":false},{"type":"event","name":"ProviderAddedToAccessList","inputs":[{"name":"provider","type":"address","indexed":false,"internalType":"address"}],"anonymous":false},{"type":"event","name":"ProviderRemovedFromAccessList","inputs":[{"name":"provider","type":"address","indexed":false,"internalType":"address"}],"anonymous":false},{"type":"event","name":"ProvidersAccessTypeChanged","inputs":[{"name":"newAccessType","type":"uint8","indexed":false,"internalType":"enum IConfig.AccessType"}],"anonymous":false},{"type":"event","name":"RewardWithdrawn","inputs":[{"name":"onchainWorkerId","type":"bytes32","indexed":false,"internalType":"bytes32"},{"name":"providerReward","type":"uint256","indexed":false,"internalType":"uint256"},{"name":"stakerReward","type":"uint256","indexed":false,"internalType":"uint256"}],"anonymous":false},{"type":"event","name":"Withdrawn","inputs":[{"name":"amount","type":"uint256","indexed":false,"internalType":"uint256"}],"anonymous":false},{"type":"event","name":"WorkerIdUpdated","inputs":[{"name":"onchainWorkerId","type":"bytes32","indexed":false,"internalType":"bytes32"},{"name":"offchainWorkerId","type":"bytes32","indexed":false,"internalType":"bytes32"}],"anonymous":false},{"type":"event","name":"WorkerJoined","inputs":[{"name":"peerId","type":"bytes32","indexed":true,"internalType":"bytes32"},{"name":"onchainId","type":"bytes32","indexed":false,"internalType":"bytes32"}],"anonymous":false},{"type":"event","name":"WorkerRemoved","inputs":[{"name":"peerId","type":"bytes32","indexed":true,"internalType":"bytes32"},{"name":"onchainId","type":"bytes32","indexed":false,"internalType":"bytes32"}],"anonymous":false},{"type":"error","name":"AddressEmptyCode","inputs":[{"name":"target","type":"address","internalType":"address"}]},{"type":"error","name":"FailedCall","inputs":[]},{"type":"error","name":"InvalidInitialization","inputs":[]},{"type":"error","name":"NotInitializing","inputs":[]},{"type":"error","name":"OwnableInvalidOwner","inputs":[{"name":"owner","type":"address","internalType":"address"}]},{"type":"error","name":"OwnableUnauthorizedAccount","inputs":[{"name":"account","type":"address","internalType":"address"}]},{"type":"error","name":"ReentrancyGuardReentrantCall","inputs":[]},{"type":"error","name":"SafeERC20FailedOperation","inputs":[{"name":"token","type":"address","internalType":"address"}]}],"bytecode":{"object":"0x6080806040523460d0577ff0c57e16840df040f15088dc2f81fe391c3923bec73e23a9662efc9c229c6a005460ff8160401c1660c1576002600160401b03196001600160401b03821601605c575b60405161505d90816100d58239f35b6001600160401b0319166001600160401b039081177ff0c57e16840df040f15088dc2f81fe391c3923bec73e23a9662efc9c229c6a005581527fc7f505b2f371ae2175ee4913f4499e1f2633a7b5936321eed1cdaeb6115181d290602090a15f80604d565b63f92ee8a960e01b5f5260045ffd5b5f80fdfe60806040526004361015610011575f80fd5b5f803560e01c80630346592714612f5957806304f1bd5614612f345780630574131f14612d8f57806307da68f514612bb25780630ac25f1014612b8b5780631388325114612b6457806315a0f31a14612b395780631763451414612b0e578063176474cf146129f55780631af57b96146129c457806322ebd58a1461292a5780632943dcab146128ff5780632db31193146128d45780632e1a7d4d146123ad5780633013ce29146123775780633116eeda1461235057806333ce93fe14612325578063378b22e4146122fa5780633d0bdad7146122d35780633e8ae1ae146122a5578063444e6a5a1461217d5780634d7599f1146121525780634e69d5601461212457806359c4afc0146120de578063630eceea14611fed578063636fcefb14611e5a5780636e5e47b114611dc057806370220a9b14611d95578063715018a614611d3f57806373134c1514611b9c57806376ed535a14611b545780637d1fd49e14611b2d5780637dfb662614611a29578063869ef43c14611a025780638a0c725b146119d75780638da5cb5b146119a15780639276ef6d1461197a57806393d2bafc146118df5780639bc66868146118825780639c09e82d1461185b578063aba93a1014611827578063ac9650d81461160f578063ade0a202146115e4578063bc126f1f14611476578063bd1926e014611439578063c1499f71146112c5578063c9ed50081461129e578063cb7b88d114611019578063d4773ff014610fe2578063d76e480514610a1d578063d93446c4146103da578063e116568f146103b3578063e93c4f151461038c578063f2fde38b1461035f5763fc1e5e2a14610277575f80fd5b3461035c578060031936011261035c575f80516020614cc88339815191525461029f816130ed565b6102ac6040519182612ffa565b8181525f80516020614cc883398151915283526020810191837f5702833323968fbb14fdd86869039efe011756b786a9a900c16991bda0e3e573845b83831061033e57868587604051928392602084019060208552518091526040840192915b81811061031a575050500390f35b919350916020604082610330600194885161301d565b01940191019184939261030c565b6002602060019261034e85613814565b8152019201920191906102e8565b80fd5b503461035c57602036600319011261035c5761038961037c612f7e565b6103846141d5565b6139b0565b80f35b503461035c578060031936011261035c57602060606103a9613b64565b0151604051908152f35b503461035c57602036600319011261035c576004355f80516020614da88339815191525580f35b503461035c576101c036600319011261035c576103f5612f7e565b6040366023190112610a19576064356001600160a01b0381168103610a155760c4359161012435919060a4356084356001600160401b038511610a115736602386011215610a11576004850135956001600160401b03871161088e573660248860061b8801011161088e5761014435906003821015610a0d57610164356001600160401b038111610a095761048e9036906004016130aa565b6101a4359790959194906001600160a01b0389168903610a05575f80516020614f8883398151915254604081901c60ff161599906001600160401b038116801590816109fd575b60011490816109f3575b1590816109ea575b506109db576001600160401b031981166001175f80516020614f888339815191525561053591908b6109b3575b5061051d614a58565b610525614a58565b61052d614a58565b610384614a58565b61053d614a58565b811561095a578282116108f157831561089257435f80516020614be8833981519152555f80516020614bc883398151915280546001600160a01b03998a166001600160a01b03199182161782555f80516020614d88833981519152805493909a169216919091179097555f80516020614ee8833981519152555f80516020614da8833981519152555f80516020614f088339815191525560e4355f8051602061500883398151915255610104355f80516020614c8883398151915255875b87811015610694575f80516020614cc883398151915254600160401b8110156106805760018101805f80516020614cc88339815191525581101561066c57906106666001925f80516020614cc88339815191528c5260208c2060248460061b8c010191851b01613f41565b016105fb565b634e487b7160e01b8a52603260045260248afd5b634e487b7160e01b8a52604160045260248afd5b508795506106b2909291925f80516020614f488339815191526137ab565b5f80516020614c2883398151915290855b81811061084d57505050506106e660245f80516020614e68833981519152613f41565b604051906024359063ffffffff60e01b8216809203610849575f80516020614d488339815191526040846020946004965260443585820152a1610727614a58565b610184355f80516020614fe883398151915255610742614a58565b54604051630ecce30160e31b815292839182906001600160a01b03165afa90811561083e578391610808575b505f1981019081116107f4575f80516020614f288339815191525560015f80516020614dc8833981519152556107a15780f35b60ff60401b195f80516020614f8883398151915254165f80516020614f88833981519152557fc7f505b2f371ae2175ee4913f4499e1f2633a7b5936321eed1cdaeb6115181d2602060405160018152a180f35b634e487b7160e01b83526011600452602483fd5b90506020813d602011610836575b8161082360209383612ffa565b8101031261083257518361076e565b5f80fd5b3d9150610816565b6040513d85823e3d90fd5b8480fd5b6108588183866139a0565b35906001600160a01b038216820361088e57600191828060a01b03165f528360205260405f208260ff19825416179055016106c3565b8780fd5b60405162461bcd60e51b815260206004820152603160248201527f436f6e6669673a206375436f756e74506572576f726b65722073686f756c6420604482015270062652067726561746572207468616e203607c1b6064820152608490fd5b60405162461bcd60e51b815260206004820152603b60248201527f436f6e6669673a206d696e576f726b6572732073686f756c64206265206c657360448201527a73206f7220657175616c20746f20746172676574576f726b65727360281b6064820152608490fd5b60405162461bcd60e51b815260206004820152602b60248201527f436f6e6669673a206d696e576f726b6572732073686f756c642062652067726560448201526a061746572207468616e20360ac1b6064820152608490fd5b6001600160481b0319166001600160401b01175f80516020614f88833981519152555f610514565b63f92ee8a960e01b8e5260048efd5b9050155f6104e7565b303b1591506104df565b8c91506104d5565b8b80fd5b8980fd5b8880fd5b8680fd5b8280fd5b5080fd5b503461035c57606036600319011261035c57610a37612f7e565b6024356001600160401b038111610a155760406003198236030112610a155760405190610a6382612fdf565b600481013582526024810135906001600160401b03821161084957019036602383011215610fde57600482013591610a9a836130ed565b92610aa86040519485612ffa565b808452602060048186019260051b8401010191368311610a1157602401905b828210610fce5750505060208101918252604435905f80516020614bc883398151915293610aff60018060a01b038654163314613104565b610b07613a0e565b610b0f613697565b6005811015610fba576002610b2591141561315a565b5f80516020614ec8833981519152938454955f80516020614da883398151915254871015610f7c57875b82518051821015610bf45781610b6491613978565b5190818a525f80516020614c0883398151915260205260ff60408b205416610bb0576001918a525f80516020614c0883398151915260205260408a208260ff1982541617905501610b4f565b60405162461bcd60e51b815260206004820152601c60248201527b10dbdb5c1d5d19481d5b9a5d081a5cc8185b1c9958591e481d5cd95960221b6044820152606490fd5b50508688968688525f80516020614d6883398151915260205260ff604089205416610f41578688525f80516020614d6883398151915260205260408820600160ff1982541617905560018060a01b0385165f525f80516020614d0883398151915260205260405f20545f8051602061500883398151915254811015610efd5760018101809111610ee9576001600160a01b0386165f9081525f80516020614d08833981519152602052604090205560018201918210610ed5575554604051630ecce30160e31b81529190602090839060049082906001600160a01b03165afa8015610eca578690610e97575b60059250845191519360405192610cf684612fc4565b888452602080850191825260408086018a81526001600160a01b03948516606088019081526080880196875260a08801998a528a518d525f80516020614fc8833981519152909352908b20955186559151600186015590516002850155516003840180546001600160a01b03191691909216179055516004820155915180519291909101906001600160401b038311610e8357600160401b8311610e83578154838355808410610e5d575b5060200190855260208520855b838110610e495750505050610dd181515f80516020614e08833981519152614a98565b15610e055760207f9cd57cfa2e12a37215cabc6897396db265419bd7f06adad06227a2b163ecd6a39151604051908152a280f35b60405162461bcd60e51b815260206004820152601c60248201527b11985a5b1959081d1bc8185919081ddbdc9ad95c881d1bc81b1a5cdd60221b6044820152606490fd5b600190602084519401938184015501610dae565b828752836020882091820191015b818110610e785750610da1565b878155600101610e6b565b634e487b7160e01b86526041600452602486fd5b506020823d602011610ec2575b81610eb160209383612ffa565b810103126108325760059151610ce0565b3d9150610ea4565b6040513d88823e3d90fd5b634e487b7160e01b88526011600452602488fd5b634e487b7160e01b89526011600452602489fd5b606460405162461bcd60e51b815260206004820152602060248201527f4d617820776f726b657273207065722070726f766964657220726561636865646044820152fd5b60405162461bcd60e51b81526020600482015260136024820152721419595c925908185b1c9958591e481d5cd959606a1b6044820152606490fd5b60405162461bcd60e51b815260206004820152601660248201527515185c99d95d081ddbdc9ad95c9cc81c995858da195960521b6044820152606490fd5b634e487b7160e01b87526021600452602487fd5b8135815260209182019101610ac7565b8380fd5b503461035c578060031936011261035c575061101560ff5f80516020614f488339815191525416604051918291826130da565b0390f35b503461035c57602036600319011261035c576004356001600160401b038111610a195761104a9036906004016130aa565b5f80516020614bc8833981519152546040516307dc0d1d60e41b815290602090829060049082906001600160a01b03165afa908115611293578491611259575b506001600160a01b03163303611215576110a2613a0e565b6110aa613b64565b6110b2613697565b6005811015806111f75760028214801561120b575b8181156111e7575b50156111a757611193578015908115611188575b50611114575b50825b8181106110f7578380f35b8061110e61110860019385876139a0565b35614569565b016110ec565b60a0015115611123575f6110e9565b60405162461bcd60e51b815260206004820152603760248201527f4174206c65617374203120756e706169642065706f636820726571756972656460448201527620746f20636f6e7369646572206465616c207374616c6560481b6064820152608490fd5b60039150145f6110e3565b634e487b7160e01b85526021600452602485fd5b60405162461bcd60e51b815260206004820152601860248201527715dbdc9ad95c9cc81a5b881919585b08185c99481c185a5960421b6044820152606490fd5b90506111f75760038214816110cf565b634e487b7160e01b86526021600452602486fd5b50508481156110c7565b606460405162461bcd60e51b815260206004820152602060248201527f4f6e6c79206f7261636c652063616e2063616c6c2074686973206d6574686f646044820152fd5b90506020813d60201161128b575b8161127460209383612ffa565b81010312610fde57611285906131f8565b5f61108a565b3d9150611267565b6040513d86823e3d90fd5b503461035c57602036600319011261035c576004355f80516020614ce88339815191525580f35b503461035c578060031936011261035c576112ec5f80516020614e08833981519152613870565b80516112f7816130ed565b906113056040519283612ffa565b808252611314601f19916130ed565b01835b818110611422575050825b82518110156113bb578061133860019285613978565b5185525f80516020614fc88339815191526020526040852061139a60056040519261136284612fc4565b8054845285810154602085015260028101546040850152858060a01b0360038201541660608501526004810154608085015201613870565b60a08201526113a98285613978565b526113b48184613978565b5001611322565b81846040519182916020830160208452825180915260408401602060408360051b870101940192905b8282106113f357505050500390f35b919360019193955060206114128192603f198a82030186528851613036565b96019201920185949391926113e4565b60209061142d613840565b82828601015201611317565b503461035c57602036600319011261035c5760ff6040826020935060043581525f80516020614d6883398151915284522054166040519015158152f35b503461035c57602036600319011261035c57600435611494816138f7565b5f80516020614bc883398151915260018060a01b0390541690608060408201516024604051809581936321b9a09560e21b835260048301525afa9182156112935784926115b3575b50606001516001600160a01b0316331490811561159c575b50801561157c575b15611512576103899061150d613a0e565b614569565b60405162461bcd60e51b815260206004820152603c60248201527f4f6e6c792070726f76696465722c2070656572206f776e6572206f722064656160448201527b1b081bdddb995c8818d85b8818d85b1b081d1a1a5cc81b595d1a1bd960221b6064820152608490fd5b505f80516020614e28833981519152546001600160a01b031633146114fc565b606001516001600160a01b0316331490505f6114f4565b6115d691925060803d6080116115dd575b6115ce8183612ffa565b81019061332a565b905f6114dc565b503d6115c4565b503461035c578060031936011261035c575060205f80516020614d2883398151915254604051908152f35b503461035c57602036600319011261035c576004356001600160401b038111610a19576116409036906004016130aa565b9060206040516116508282612ffa565b848152818101601f198301368237611667856130ed565b936116756040519586612ffa565b858552601f19611684876130ed565b01875b81811061181857505036819003601e190190875b878110156117a057888160051b83013584811215610a195783018035906001600160401b038211610a155788018136038113610a15578661170684938b6040519382859383850197883783018281018881528e519283915e010185815203601f198101835282612ffa565b5190305af4893d1561178d57503d906001600160401b03821161177957916117576001928c98979695948a601f19601f84011601916117486040519384612ffa565b82523d8a8c84013e5b306149ee565b611761828b613978565b5261176c818a613978565b500190919293945061169b565b634e487b7160e01b8b52604160045260248bfd5b9594939291611757600192606090611751565b88868860405191808301818452825180915260408401918060408360051b870101940192865b8388106117d35786860387f35b9091929394838080600193603f198b8203018752818a518051918291828552018484015e86838284010152601f801991011601019701930197019690939291936117c6565b60608782018701528501611687565b503461035c57602036600319011261035c576110156118476004356138f7565b604051918291602083526020830190613036565b503461035c57602036600319011261035c576004355f80516020614c488339815191525580f35b503461035c578060031936011261035c5761189b6132b3565b50506040805160015f80516020614e688339815191526118ba83612fdf565b63ffffffff60e01b815460e01b168352015460208201526118dd8251809261301d565bf35b503461035c5736600319016101808112610a19576101601361035c5760405161190781612f94565b6004358152602435602082015260443560408201526064356060820152608435608082015260a43560a082015260c43560c082015260e43560e082015261010435908115158203610a15576103899161010082015261012435610120820152610144356101408201526101643590613db3565b503461035c57602036600319011261035c576004355f80516020614c888339815191525580f35b503461035c578060031936011261035c57505f80516020614e28833981519152546040516001600160a01b039091168152602090f35b503461035c578060031936011261035c575060205f8051602061500883398151915254604051908152f35b503461035c57602036600319011261035c576004355f80516020614f088339815191525580f35b503461035c57602036600319011261035c57600435611a47816138f7565b905f80516020614bc883398151915260018060a01b03905416608060408401516024604051809481936321b9a09560e21b835260048301525afa80156112935761038993611ab4928692611b0c575b50606001516001600160a01b03163314908115611af5575b5061337f565b611abc613a0e565b611ae9611ac8826138f7565b611ad0613b64565b928184925190606060018060a01b039101511691614208565b61014081015190613db3565b606001516001600160a01b0316331490505f611aae565b611b2691925060803d6080116115dd576115ce8183612ffa565b905f611a96565b503461035c57602036600319011261035c576004355f80516020614ee88339815191525580f35b503461035c57602036600319011261035c57611b6e612f7e565b5f80516020614bc883398151915280546001600160a01b0319166001600160a01b0390921691909117905580f35b503461035c57602036600319011261035c57611bb6612f7e565b5f80516020614bc8833981519152546040516302984ebd60e31b815290602090829060049082906001600160a01b03165afa90811561083e578391611d05575b506001600160a01b031633148015611ce5575b611c129061320c565b60ff5f80516020614f4883398151915254166003811015611cd15715611c8e576001600160a01b03165f8181525f80516020614c288339815191526020908152604091829020805460ff1916600117905590519182527f4c26e4de691e265be6cf03e639754839907bf74687cd524a6734851331527ffd91a180f35b60405162461bcd60e51b815260206004820152601b60248201527a436f6e6669673a206163636573732074797065206973204e4f4e4560281b6044820152606490fd5b634e487b7160e01b83526021600452602483fd5b505f80516020614e28833981519152546001600160a01b03163314611c09565b90506020813d602011611d37575b81611d2060209383612ffa565b81010312610a1557611d31906131f8565b5f611bf6565b3d9150611d13565b503461035c578060031936011261035c57611d586141d5565b5f80516020614e2883398151915280546001600160a01b0319811690915581906001600160a01b03165f80516020614de88339815191528280a380f35b503461035c578060031936011261035c575060205f80516020614c8883398151915254604051908152f35b503461035c578060031936011261035c57611dd96137c3565b50610160611de5613b64565b61014060405191805183526020810151602084015260408101516040840152606081015160608401526080810151608084015260a081015160a084015260c081015160c084015260e081015160e084015261010081015115156101008401526101208101516101208401520151610140820152f35b503461035c57602036600319011261035c576004356003811015610a19575f80516020614bc8833981519152546040516302984ebd60e31b815290602090829060049082906001600160a01b03165afa90811561083e578391611fb3575b506001600160a01b031633148015611f93575b611ed49061320c565b60ff5f80516020614f4883398151915254166003811015611cd1578114611f4357611f3d81611f317f1f5a251428f76335a835fcae94ab6a9bcf09ac33bd3c782eb6a81bdf878a7393935f80516020614f488339815191526137ab565b604051918291826130da565b0390a180f35b60405162461bcd60e51b815260206004820152602260248201527f436f6e6669673a20616363657373207479706520697320616c72656164792073604482015261195d60f21b6064820152608490fd5b505f80516020614e28833981519152546001600160a01b03163314611ecb565b90506020813d602011611fe5575b81611fce60209383612ffa565b81010312610a1557611fdf906131f8565b5f611eb8565b3d9150611fc1565b503461035c578060031936011261035c575f80516020614bc883398151915254604051638da5cb5b60e01b815290602090829060049082906001600160a01b03165afa9081156120d3578291612099575b506001600160a01b0316330361205657610389613a0e565b60405162461bcd60e51b815260206004820152601b60248201527a13db9b1e48191a585b5bdb99081bdddb995c8818d85b8818d85b1b602a1b6044820152606490fd5b90506020813d6020116120cb575b816120b460209383612ffa565b81010312610a19576120c5906131f8565b5f61203e565b3d91506120a7565b6040513d84823e3d90fd5b503461035c57602036600319011261035c576120f8612f7e565b905060018060a01b03165f525f80516020614d08833981519152602052602060405f2054604051908152f35b503461035c578060031936011261035c5761213d613697565b604051906005811015611cd157602092508152f35b503461035c578060031936011261035c575060205f80516020614ec883398151915254604051908152f35b503461035c57602036600319011261035c57612197612f7e565b5f80516020614bc8833981519152546040516302984ebd60e31b815290602090829060049082906001600160a01b03165afa90811561083e578391612258575b505f80516020614e48833981519152916020916001600160a01b031633148015612238575b6122059061320c565b6001600160a01b03165f8181525f80516020614c288339815191528352604090819020805460ff1916905551908152a180f35b505f80516020614e28833981519152546001600160a01b031633146121fc565b90506020813d60201161229d575b8161227360209383612ffa565b81010312610a15575f80516020614e48833981519152916122956020926131f8565b9150916121d7565b3d9150612266565b503461035c57602036600319011261035c5760206122c96122c4612f7e565b613607565b6040519015158152f35b503461035c57602036600319011261035c576004355f80516020614ec88339815191525580f35b503461035c578060031936011261035c575060205f80516020614f6883398151915254604051908152f35b503461035c578060031936011261035c575060205f80516020614fe883398151915254604051908152f35b503461035c57602036600319011261035c576004355f80516020614ca88339815191525580f35b503461035c578060031936011261035c57505f80516020614d88833981519152546040516001600160a01b039091168152602090f35b503461035c57602036600319011261035c575f80516020614bc883398151915280546040516302984ebd60e31b8152600480359392602091839182906001600160a01b03165afa90811561129357849161289a575b506001600160a01b03163314801561287a575b61241e9061320c565b5f80516020614ea88339815191525c61286b5760015f80516020614ea88339815191525d61244a613a0e565b5f80516020614ce8833981519152612460613b64565b82546040516372ea4f2360e01b815290602090829060049082906001600160a01b03165afa908115610eca578691612837575b506124c86124b36124dd925f80516020614c8883398151915254906135bc565b5f80516020614f0883398151915254906135bc565b5f80516020614da883398151915254906135bc565b606082016124ec8682516135cf565b80915261010083015115158061282e575b156127b557505060c08101515f80516020614fa88339815191525484546040516372ea4f2360e01b81529190602090839060049082906001600160a01b03165afa9081156127aa578891612774575b6125569250613196565b101561270b5784926125806020928461257288600497546135cf565b905561014081015190613db3565b5460405163fd44f92160e01b815292839182906001600160a01b03165afa9081156120d35782916126dc575b505f80516020614d88833981519152545f80516020614e28833981519152546001600160a01b03928316929182169116823b15610fde5760405163cff2a7a160e01b8152918491839182916126089189913391600486016135dc565b038183865af190811561083e5783916126c7575b50505f80516020614d88833981519152546001600160a01b031690803b15610a155783839161266493836040518096819582946315abf79960e31b84523390600485016131d6565b03925af180156120d3576126b2575b507f430648de173157e069201c943adb2d4e340e7cf5b27b1b09c9cb852f03d63b56602083604051908152a1805f80516020614ea88339815191525d80f35b816126bc91612ffa565b610a1957815f612673565b816126d191612ffa565b610a1957815f61261c565b6126fe915060203d602011612704575b6126f68183612ffa565b8101906131b7565b5f6125ac565b503d6126ec565b60405162461bcd60e51b815260206004820152603b60248201527f43616e2774207769746864726177206265666f7265206d696e4465616c44657060448201527a1bdcda5d1959115c1bd8da1cc818599d195c881919585b08195b99602a1b6064820152608490fd5b90506020823d6020116127a2575b8161278f60209383612ffa565b810103126108325761255691519061254c565b3d9150612782565b6040513d8a823e3d90fd5b9091939250106127ce5760206004916125808694611ae9565b60405162461bcd60e51b815260206004820152603260248201527f467265652062616c616e6365206e6565647320746f20636f766572206d696e4460448201527165616c4465706f736974656445706f63687360701b6064820152608490fd5b508181106124fd565b90506020813d602011612863575b8161285260209383612ffa565b8101031261083257516124c8612493565b3d9150612845565b633ee5aeb560e01b8352600483fd5b505f80516020614e28833981519152546001600160a01b03163314612415565b90506020813d6020116128cc575b816128b560209383612ffa565b81010312610fde576128c6906131f8565b5f612402565b3d91506128a8565b503461035c578060031936011261035c575060205f80516020614ee883398151915254604051908152f35b503461035c578060031936011261035c575060205f80516020614da883398151915254604051908152f35b503461035c57604036600319011261035c57600435612948816138f7565b905f80516020614bc883398151915260018060a01b03905416608060408401516024604051809481936321b9a09560e21b835260048301525afa801561129357610389936129b3928692611b0c5750606001516001600160a01b03163314908115611af5575061337f565b6129bb613a0e565b6024359061343a565b503461035c57602036600319011261035c5760406129e36004356132cb565b60208251918051835201516020820152f35b503461035c57604036600319011261035c575f80516020614bc883398151915280546040516302984ebd60e31b815290602090829060049082906001600160a01b03165afa90811561083e578391612ad4575b506001600160a01b031633148015612ab4575b612a649061320c565b50612a7d60045f80516020614e68833981519152613f41565b60405160043563ffffffff60e01b8116809103610a1557816040915f80516020614d4883398151915293526024356020820152a180f35b505f80516020614e28833981519152546001600160a01b03163314612a5b565b90506020813d602011612b06575b81612aef60209383612ffa565b81010312610a1557612b00906131f8565b5f612a48565b3d9150612ae2565b503461035c578060031936011261035c575060205f80516020614be883398151915254604051908152f35b503461035c578060031936011261035c575060205f80516020614f0883398151915254604051908152f35b503461035c57602036600319011261035c576004355f80516020614fa88339815191525580f35b503461035c57602036600319011261035c576004355f80516020614f288339815191525580f35b503461035c578060031936011261035c575f80516020614bc883398151915280546040516302984ebd60e31b815290602090829060049082906001600160a01b03165afa90811561083e578391612d55575b506001600160a01b031633148015612d35575b612c209061320c565b612c28613a0e565b612c30613697565b6005811015611cd157600491612c4b60026020931415613272565b612c56611ae9613b64565b54604051630ecce30160e31b815292839182906001600160a01b03165afa9081156120d3578291612d02575b506020817f3ad16bb58712aa329948d76146b096a4f4b85e024d99473dc50bcd358811b86c925f80516020614f688339815191525411612cd7575b805f80516020614fa883398151915255604051908152a180f35b805f80516020614f68833981519152555f80516020614c6883398151915282604051838152a1612cbd565b90506020813d602011612d2d575b81612d1d60209383612ffa565b8101031261083257516020612c82565b3d9150612d10565b505f80516020614e28833981519152546001600160a01b03163314612c17565b90506020813d602011612d87575b81612d7060209383612ffa565b81010312610a1557612d81906131f8565b5f612c04565b3d9150612d63565b5034610832576020366003190112610832576004355f80516020614bc8833981519152612dc660018060a01b038254163314613104565b612dce613a0e565b612dd6613697565b6005811015612f2057600491612df16002602093141561315a565b612e19612dfc613b64565b60608101612e0b878251613196565b905261014081015190613db3565b5460405163fd44f92160e01b815292839182906001600160a01b03165afa908115612ef6575f91612f01575b505f80516020614d88833981519152545f80516020614e28833981519152546001600160a01b03928316929081169116823b1561083257612ea2925f928386936040519687958694859363a2e939b160e01b8552600485016131d6565b03925af18015612ef657612ee0575b5060207f2a89b2e3d580398d6dc2db5e0f336b52602bbaa51afa9bb5cdf59239cf0d2bea91604051908152a180f35b612eed9192505f90612ffa565b5f906020612eb1565b6040513d5f823e3d90fd5b612f1a915060203d602011612704576126f68183612ffa565b5f612e45565b634e487b7160e01b5f52602160045260245ffd5b34610832576020366003190112610832576004355f80516020614f6883398151915255005b34610832576020366003190112610832576004355f80516020614d2883398151915255005b600435906001600160a01b038216820361083257565b61016081019081106001600160401b03821117612fb057604052565b634e487b7160e01b5f52604160045260245ffd5b60c081019081106001600160401b03821117612fb057604052565b604081019081106001600160401b03821117612fb057604052565b601f909101601f19168101906001600160401b03821190821017612fb057604052565b80516001600160e01b0319168252602090810151910152565b602060e060a060c085019380518652838101518487015260408101516040870152600180831b0360608201511660608701526080810151608087015201519360c060a08201528451809452019201905f5b8181106130945750505090565b8251845260209384019390920191600101613087565b9181601f84011215610832578235916001600160401b038311610832576020808501948460051b01011161083257565b919060208301926003821015612f205752565b6001600160401b038111612fb05760051b60200190565b1561310b57565b60405162461bcd60e51b815260206004820152602160248201527f436f6e6669673a2063616c6c6572206973206e6f7420746865204469616d6f6e6044820152601960fa1b6064820152608490fd5b1561316157565b60405162461bcd60e51b815260206004820152600d60248201526c1119585b081a5cc8195b991959609a1b6044820152606490fd5b919082018092116131a357565b634e487b7160e01b5f52601160045260245ffd5b9081602091031261083257516001600160a01b03811681036108325790565b6001600160a01b03918216815291166020820152604081019190915260600190565b51906001600160a01b038216820361083257565b1561321357565b60405162461bcd60e51b815260206004820152603160248201527f4f6e6c7920566f646f706164206f72204465616c204f776e65722063616e206360448201527030b636103a3434b990333ab731ba34b7b760791b6064820152608490fd5b1561327957565b60405162461bcd60e51b81526020600482015260126024820152714465616c206973206e6f742061637469766560701b6044820152606490fd5b604051906132c082612fdf565b5f6020838281520152565b6040516132d781612fdf565b5f81525f6020820152506132e9613b64565b906132f3816138f7565b5115613310578161330761330d938361400c565b916140f7565b90565b505060405161331e81612fdf565b5f81525f602082015290565b908160809103126108325760405190608082016001600160401b03811183821017612fb05761337791606091604052805184526020810151602085015260408101516040850152016131f8565b606082015290565b1561338657565b60405162461bcd60e51b815260206004820152603060248201527f4f6e6c792070726f7669646572206f722070656572206f776e65722063616e2060448201526f18d85b1b081d1a1a5cc81b595d1a1bd960821b6064820152608490fd5b156133eb57565b60405162461bcd60e51b815260206004820152602160248201527f4f6666636861696e20776f726b65722069642063616e277420626520656d70746044820152607960f81b6064820152608490fd5b81151590613447826133e4565b61344f613b64565b61014081015192825f525f80516020614fc883398151915260205261347760405f20916133e4565b80541561358e575b8481557fcf79e0e27c8c35d39bd9b727f35e6f79573597f660c88baf483fc1511c49203c60408051858152876020820152a160025f80516020614d2883398151915254910154936134d08284613db3565b6134d8613697565b6005811015612f2057806134f260026134f993141561315a565b1515613272565b1461358857815f525f80516020614e88833981519152602052600160a060405f209260e0810151845501519101555f80516020614bc883398151915260018060a01b03905416803b15610832575f9283606492604051968795869463bf0d370760e01b86526004860152602485015260448401525af18015612ef65761357c5750565b5f61358691612ffa565b565b50505050565b5f80516020614d28833981519152545f1981146131a3576001015f80516020614d288339815191525561347f565b818102929181159184041417156131a357565b919082039182116131a357565b6001600160a01b03918216815291811660208301529091166040820152606081019190915260800190565b60ff5f80516020614f4883398151915254166003811015612f2057801561369057600181146136665760021461363c57505f90565b6001600160a01b03165f9081525f80516020614c28833981519152602052604090205460ff161590565b506001600160a01b03165f9081525f80516020614c28833981519152602052604090205460ff1690565b5050600190565b61369f613b64565b6101008101516137a5575f80516020614f68833981519152548015159081613797575b5061379257610140810151905f80516020614bc8833981519152915f80516020614ee8833981519152541161378b576060015190546040516372ea4f2360e01b815290602090829060049082906001600160a01b03165afa908115612ef6575f91613757575b506124c86124b3613748925f80516020614c8883398151915254906135bc565b1161375257600190565b600490565b90506020813d602011613783575b8161377260209383612ffa565b8101031261083257516124c8613728565b3d9150613765565b5050600390565b505f90565b905060c0820151115f6136c2565b50600290565b906003811015612f205760ff80198354169116179055565b604051906137d082612f94565b5f610140838281528260208201528260408201528260608201528260808201528260a08201528260c08201528260e082015282610100820152826101208201520152565b9060405161382181612fdf565b825460e01b6001600160e01b0319168152600192909201546020830152565b6040519061384d82612fc4565b606060a0835f81525f60208201525f60408201525f838201525f60808201520152565b90604051918281549182825260208201905f5260205f20925f5b81811061389f57505061358692500383612ffa565b845483526001948501948794506020909301920161388a565b156138bf57565b60405162461bcd60e51b815260206004820152601060248201526f15dbdc9ad95c881b9bdd08199bdd5b9960821b6044820152606490fd5b6138ff613840565b505f525f80516020614fc883398151915260205260405f2061330d6040519161392783612fc4565b805483526001810154602084019081526002820154604085015260038201546001600160a01b03166060850152600482015460808501529061396b90600501613870565b60a08401525115156138b8565b805182101561398c5760209160051b010190565b634e487b7160e01b5f52603260045260245ffd5b919081101561398c5760051b0190565b6001600160a01b031680156139fb575f80516020614e2883398151915280546001600160a01b0319811683179091556001600160a01b03165f80516020614de88339815191525f80a3565b631e4fbdf760e01b5f525f60045260245ffd5b5f80516020614bc88339815191525460405163fd44f92160e01b81525f80516020614ce883398151915291602090829060049082906001600160a01b03165afa908115612ef6575f91613b45575b505f80516020614dc883398151915254613b415760015f80516020614dc88339815191525560018060a01b035f80516020614d8883398151915254169060018060a01b03169160205f82546040518381019163a9059cbb60e01b8352876024830152604482015260448152613ad2606482612ffa565b519082865af115612ef6575f513d613b385750813b155b613b255754823b156108325760445f9283604051958694859363a0aeae9f60e01b8552600485015260248401525af18015612ef65761357c5750565b50635274afe760e01b5f5260045260245ffd5b60011415613ae9565b5050565b613b5e915060203d602011612704576126f68183612ffa565b5f613a5c565b613b6c6137c3565b505f80516020614bc883398151915254604051630ecce30160e31b81525f80516020614ce88339815191529291602090829060049082906001600160a01b03165afa908115612ef6575f91613d81575b505f1981018181116131a357905f80516020614fa883398151915254915f9280613d75575b505f80516020614d2883398151915254945f80516020614c8883398151915254935f80516020614f088339815191525491613c1a6137c3565b5054935f80516020614ca8833981519152545f80516020614c48833981519152549060405196613c4988612f94565b8088528160208901528260408901526060880152608087015260a086015260c08501528260e08501521515610100840152836101208401528561014084015282955f80516020614f28833981519152549384841115613d6c57505f80516020614f68833981519152549485841115613d3557858510613ce557505050613ce1919250613cdb60a08601938451926135cf565b90613196565b9052565b613d039291613cfe613cfe92613cfe613ce1988a6135cf565b6135bc565b60608601613d128282516135cf565b9052613d2360808701918251613196565b9052613cdb60a08601938451926135cf565b613d4c9550613cfe613cfe929395613cfe956135cf565b60608301613d5b8282516135cf565b9052613ce160808401918251613196565b96505050505050565b6001935090505f613be1565b90506020813d602011613dab575b81613d9c60209383612ffa565b8101031261083257515f613bbc565b3d9150613d8f565b905f80516020614ce8833981519152825160608401918251809203613f39575b505060208301516080840151809103613f24575b50604083015160a0840151809103613f0f575b505f80516020614f08833981519152549060e08401519361010081015115613e32575b505050505f80516020614f2883398151915255565b5f80516020614ee8833981519152548085109182613ec25750505090613cfe613e6b9251935f80516020614c88833981519152546135bc565b8015613eae57613e8d6020915f80516020614c68833981519152930484613196565b805f80516020614f6883398151915255604051908152a15b5f808080613e1d565b634e487b7160e01b5f52601260045260245ffd5b6101400151101593509150829050613f07575b5015613ea5575f5f80516020614f68833981519152555f80516020614c6883398151915260206040515f8152a1613ea5565b90505f613ed5565b5f80516020614c48833981519152555f613dfa565b5f80516020614ca8833981519152555f613de7565b555f80613dd3565b9080356001600160e01b0319811681036108325760019160209160e01c63ffffffff198554161784550135910155565b90816101609103126108325760405190613f8a82612f94565b8051906006821015610832576101409183526020810151602084015260408101516040840152606081015160608401526080810151608084015260a081015160a084015260c081015160c0840152613fe460e082016131f8565b60e0840152610100810151610100840152610120810151610120840152015161014082015290565b9060e00151905f80516020614bc88339815191529060ff5f80516020614f4883398151915254166003811015612f20576001146140f25761404f610160916148d8565b9154604051631de5608360e21b81526004810193909352829060249082906001600160a01b03165afa908115612ef6575f916140c3575b50610120810151806140bd575060a00180515f1981019081116131a35782116140ad575090565b515f198101915081116131a35790565b91505090565b6140e591506101603d81116140eb575b6140dd8183612ffa565b810190613f71565b5f614086565b503d6140d3565b505090565b9160405161410481612fdf565b5f81525f602082015250825f525f80516020614e8883398151915260205261412f60405f2093614954565b928054918281106141c45760a061414b614157946001936135cf565b940151910154906135cf565b908181106141b55761419561418e6124b361417961419d9562989680956135cf565b5f80516020614c8883398151915254906135bc565b93846135bc565b0480926135cf565b90604051916141ab83612fdf565b8252602082015290565b50505060405161331e81612fdf565b505050505060405161331e81612fdf565b5f80516020614e28833981519152546001600160a01b031633036141f557565b63118cdaa760e01b5f523360045260245ffd5b9291905f90156135885761421c838561400c565b916142288385876140f7565b9283519461423c6020860196875190613196565b91821561455f5761427891608091895f525f80516020614e8883398151915260205260405f20908155600160a0830151910155019182516135cf565b90525f80516020614bc8833981519152805460405163fd44f92160e01b81529190602090839060049082906001600160a01b03165afa918215612ef6575f9261453e575b5060018060a01b035f80516020614d888339815191525416928551614474575b508551614325575b50505050916060917fc512f9d0bb2627096491f1074af42a5032fe36ef5dcae7c216cfc34f6ea474d6935190519060405192835260208301526040820152a1565b54604051638da5cb5b60e01b81529190602090839060049082906001600160a01b03165afa918215611293578492614438575b505f80516020614e288339815191525486516001600160a01b039283169392909116833b15614434578286916143a3604051948593849363cff2a7a160e01b85528a600486016135dc565b038183875af1801561442957908591614414575b5050855192823b1561084957916143e99391858094604051968795869485936315abf79960e31b8552600485016131d6565b03925af180156120d3576143ff575b80806142e4565b61440a828092612ffa565b61035c57806143f8565b8161441e91612ffa565b610fde57835f6143b7565b6040513d87823e3d90fd5b8580fd5b9091506020813d60201161446c575b8161445460209383612ffa565b81010312610fde57614465906131f8565b905f614358565b3d9150614447565b5f80516020614e288339815191525486516001600160a01b038581169216823b1561083257835f916144bb604051948593849363cff2a7a160e01b85528c600486016135dc565b038183865af18015612ef657614529575b50865191813b15610a11579186916144fc93836040518096819582946315abf79960e31b84528c600485016131d6565b03925af1801561442957908591614514575b506142dc565b8161451e91612ffa565b610fde57835f61450e565b6145369196505f90612ffa565b5f945f6144cc565b61455891925060203d602011612704576126f68183612ffa565b905f6142bc565b5050505050505050565b614572816138f7565b9161457b613b64565b91835190614599845f9360018060a01b036060890151169084614208565b5f80516020614ec883398151915294815f525f80516020614fc883398151915260205260405f2094604051956145ce87612fc4565b805487526001810154966020810197885260028201549160408201928352614629614619600560018060a01b0360038501541693606086019485526004810154608087015201613870565b9960a084019a8b525115156138b8565b5f5b89518051821015614669579061464381600193613978565b515f525f80516020614c0883398151915260205260405f2060ff1981541690550161462b565b505091939597509193959761467e8154614a4c565b9055516001600160a01b03165f9081525f80516020614d088339815191526020526040902080546146ae90614a4c565b9055516148ad575b5190815f525f80516020614d6883398151915260205260405f2060ff198154169055835f525f80516020614fc8833981519152602052600560405f205f81555f60018201555f60028201555f60038201555f6004820155018054905f81558161488f575b5050614733845f80516020614e08833981519152614b02565b156148405761477b917f2931f8975c0ce3cdf8ebe0cac36f06048736d46d6df66ac21cfe717b9ee710066020604051878152a25f80516020614d288339815191525490613db3565b5f80516020614bc88339815191525460a09190910151906001600160a01b0316803b1561083257604051809263012a4ebb60e41b8252604482016040600484015281518091526020606484019201905f5b8181106148275750505091815f81819588602483015203925af18015612ef657614812575b5081525f80516020614e888339815191526020526001604082208281550155565b61481f9192505f90612ffa565b5f905f6147f1565b82518452869450602093840193909201916001016147cc565b60405162461bcd60e51b815260206004820152602160248201527f4661696c656420746f2072656d6f766520776f726b65722066726f6d206c69736044820152601d60fa1b6064820152608490fd5b5f5260205f20908101905b8181101561471a575f815560010161489a565b6148c45f80516020614d2883398151915254614a4c565b5f80516020614d28833981519152556146b6565b6148e1906138f7565b5f80516020614bc88339815191525460409182015191516321b9a09560e21b81526004810192909252608090829060249082906001600160a01b03165afa8015612ef6576020915f91614935575b50015190565b61494e915060803d6080116115dd576115ce8183612ffa565b5f61492f565b5f80516020614bc88339815191529060ff5f80516020614f4883398151915254166003811015612f20576001146149e857614991610160916148d8565b9154604051631de5608360e21b81526004810193909352829060249082906001600160a01b03165afa8015612ef65760c0915f916149cf5750015190565b61494e91506101603d81116140eb576140dd8183612ffa565b50505f90565b90614a125750805115614a0357805190602001fd5b63d6bda27560e01b5f5260045ffd5b81511580614a43575b614a23575090565b639996b31560e01b5f9081526001600160a01b0391909116600452602490fd5b50803b15614a1b565b80156131a3575f190190565b60ff5f80516020614f888339815191525460401c1615614a7457565b631afcd79f60e31b5f5260045ffd5b805482101561398c575f5260205f2001905f90565b6001810190825f528160205260405f2054155f14614afb578054600160401b811015612fb057614ae8614ad2826001879401855584614a83565b819391549060031b91821b915f19901b19161790565b905554915f5260205260405f2055600190565b5050505f90565b906001820191815f528260205260405f20548015155f14614bbf575f1981018181116131a35782545f198101919082116131a357818103614b8a575b50505080548015614b76575f190190614b578282614a83565b8154905f199060031b1b19169055555f526020525f6040812055600190565b634e487b7160e01b5f52603160045260245ffd5b614baa614b9a614ad29386614a83565b90549060031b1c92839286614a83565b90555f528360205260405f20555f8080614b3e565b505050505f9056fe8953f5482bc1a621075e75537625fa3bd2025e7df7baf6ba1dbfbf2212912d048953f5482bc1a621075e75537625fa3bd2025e7df7baf6ba1dbfbf2212912d05ec986952a0671e4b2e5ec4461085fb880bc7a7b88668240f8d55173039155d248953f5482bc1a621075e75537625fa3bd2025e7df7baf6ba1dbfbf2212912d1185276e830bb0cbb783f0e6b4a968acc65deef7a2b0ff14d52821c42f785b9cc1cecd349d986645e1758ec135f91f1ad20564a8bcc6c2b5a5eaca9b09841495c58953f5482bc1a621075e75537625fa3bd2025e7df7baf6ba1dbfbf2212912d0e85276e830bb0cbb783f0e6b4a968acc65deef7a2b0ff14d52821c42f785b9cc08953f5482bc1a621075e75537625fa3bd2025e7df7baf6ba1dbfbf2212912d0f85276e830bb0cbb783f0e6b4a968acc65deef7a2b0ff14d52821c42f785b9cbfec986952a0671e4b2e5ec4461085fb880bc7a7b88668240f8d55173039155d22ec986952a0671e4b2e5ec4461085fb880bc7a7b88668240f8d55173039155d21c820a66d3bdd50a45cf12cda6dc8ec9e94fb5123edd7da736eea18316f8523a0ec986952a0671e4b2e5ec4461085fb880bc7a7b88668240f8d55173039155d258953f5482bc1a621075e75537625fa3bd2025e7df7baf6ba1dbfbf2212912d088953f5482bc1a621075e75537625fa3bd2025e7df7baf6ba1dbfbf2212912d0b85276e830bb0cbb783f0e6b4a968acc65deef7a2b0ff14d52821c42f785b9cc78be0079c531659141344cd1fd0a4f28419497f9722a3daafe3b4186f6b6457e0ec986952a0671e4b2e5ec4461085fb880bc7a7b88668240f8d55173039155d26b13d3e7783d509d8d65d3e1e62ec0b103a07e0cbfa1ee74ae19127f297dddfcc38fb081a0b484406977bd94ff8edb79be44b5ca514130361182516b39e2c45288953f5482bc1a621075e75537625fa3bd2025e7df7baf6ba1dbfbf2212912d0685276e830bb0cbb783f0e6b4a968acc65deef7a2b0ff14d52821c42f785b9cc49b779b17422d0df92223018b32b4d1fa46e071723d6817e2486d003becc55f00ec986952a0671e4b2e5ec4461085fb880bc7a7b88668240f8d55173039155d208953f5482bc1a621075e75537625fa3bd2025e7df7baf6ba1dbfbf2212912d0a8953f5482bc1a621075e75537625fa3bd2025e7df7baf6ba1dbfbf2212912d0d85276e830bb0cbb783f0e6b4a968acc65deef7a2b0ff14d52821c42f785b9cc38953f5482bc1a621075e75537625fa3bd2025e7df7baf6ba1dbfbf2212912d1085276e830bb0cbb783f0e6b4a968acc65deef7a2b0ff14d52821c42f785b9cc2f0c57e16840df040f15088dc2f81fe391c3923bec73e23a9662efc9c229c6a0085276e830bb0cbb783f0e6b4a968acc65deef7a2b0ff14d52821c42f785b9cc5ec986952a0671e4b2e5ec4461085fb880bc7a7b88668240f8d55173039155d2385276e830bb0cbb783f0e6b4a968acc65deef7a2b0ff14d52821c42f785b9cc68953f5482bc1a621075e75537625fa3bd2025e7df7baf6ba1dbfbf2212912d0ca2646970667358221220a7013d49b81431b24a3ea02aecc0a709877d2f0906fdba4c2e8eafbe614dabab64736f6c634300081a0033","linkReferences":{}},"methodIdentifiers":{"activateWorker(bytes32,bytes32)":"22ebd58a","addProviderToAccessList(address)":"73134c15","addWorker(address,(bytes32,bytes32[]),bytes32)":"d76e4805","appCID()":"9bc66868","changeProvidersAccessType(uint8)":"636fcefb","computePeerUsed(bytes32)":"bd1926e0","creationBlock()":"17634514","cuCountPerWorker()":"15a0f31a","depositFromOwner(uint256)":"0574131f","effectors()":"fc1e5e2a","getActivatedWorkerCount()":"ade0a202","getFreeBalance()":"e93c4f15","getMaxPaidEpoch()":"378b22e4","getProtocolVersion()":"33ce93fe","getRewardAmount(bytes32)":"1af57b96","getStatus()":"4e69d560","getWorker(bytes32)":"aba93a10","getWorkerCount()":"4d7599f1","getWorkerCount(address)":"59c4afc0","getWorkers()":"c1499f71","initialize(address,(bytes4,bytes32),address,uint256,uint256,uint256,uint256,uint256,(bytes4,bytes32)[],uint8,address[],uint256,address)":"d93446c4","isProviderAllowed(address)":"3e8ae1ae","maxWorkersPerProvider()":"8a0c725b","migrateToBalanceKeeper()":"630eceea","minWorkers()":"2db31193","multicall(bytes[])":"ac9650d8","owner()":"8da5cb5b","paymentToken()":"3013ce29","postCommitPeriod((uint256,uint256,uint256,uint256,uint256,uint256,uint256,uint256,bool,uint256,uint256),uint256)":"93d2bafc","preCommitPeriod()":"6e5e47b1","pricePerCuPerEpoch()":"70220a9b","providersAccessType()":"d4773ff0","removeProviderFromAccessList(address)":"444e6a5a","removeStaleWorkers(bytes32[])":"cb7b88d1","removeWorker(bytes32)":"bc126f1f","renounceOwnership()":"715018a6","setActivatedWorkerCount(uint256)":"03465927","setAppCID((bytes4,bytes32))":"176474cf","setCuCountPerWorker(uint256)":"869ef43c","setDiamond(address)":"76ed535a","setEndedEpoch(uint256)":"13883251","setGapsEpochCount(uint256)":"9c09e82d","setLastCommitedEpoch(uint256)":"0ac25f10","setLockedBalance(uint256)":"3116eeda","setMaxPaidEpoch(uint256)":"04f1bd56","setMinWorkers(uint256)":"7d1fd49e","setPricePerCuPerEpoch(uint256)":"9276ef6d","setTargetWorkers(uint256)":"e116568f","setTotalBalance(uint256)":"c9ed5008","setWorkerCount(uint256)":"3d0bdad7","stop()":"07da68f5","targetWorkers()":"2943dcab","transferOwnership(address)":"f2fde38b","withdraw(uint256)":"2e1a7d4d","withdrawRewards(bytes32)":"7dfb6626"},"storageLayout":{"storage":[],"types":{}},"devdoc":{"version":1,"kind":"dev","methods":{"activateWorker(bytes32,bytes32)":{"details":"Set offchain worker ID for a corresponding onchain worker for a deal"},"addProviderToAccessList(address)":{"details":"Adds a provider to the access list"},"addWorker(address,(bytes32,bytes32[]),bytes32)":{"details":"Adds a compute unit to the deal","params":{"computeProvider":"The compute provider address","peerId":"The peer ID","workerData":"The worker with data"}},"appCID()":{"details":"Returns the app CID"},"changeProvidersAccessType(uint8)":{"details":"Change the providers access type"},"computePeerUsed(bytes32)":{"details":"Returns the boolean flag indicating whether the peer exists in the deal"},"creationBlock()":{"details":"Returns the creation block of the deal"},"cuCountPerWorker()":{"details":"Returns number of CUs in a worker"},"depositFromOwner(uint256)":{"details":"Deposits payment token to the deal"},"effectors()":{"details":"Returns the effector CIDs"},"getActivatedWorkerCount()":{"details":"Returns the worker count. Worker is a compute unit that has a worker ID"},"getFreeBalance()":{"details":"Returns the free balance of the deal"},"getMaxPaidEpoch()":{"details":"Returns the max paid epoch"},"getProtocolVersion()":{"details":"Returns the protocol version"},"getRewardAmount(bytes32)":{"details":"Returns the reward amount by compute unit ID"},"getStatus()":{"details":"Returns the status of the deal"},"getWorker(bytes32)":{"details":"Returns worker by ID"},"getWorkerCount()":{"details":"Returns total number of workers"},"getWorkerCount(address)":{"details":"Returns number of workers in provider"},"getWorkers()":{"details":"Returns workers registered in this deal"},"isProviderAllowed(address)":{"details":"Returns the boolean indicating whether the provider is allowed or not"},"maxWorkersPerProvider()":{"details":"Returns the max number of workers per provider"},"migrateToBalanceKeeper()":{"details":"Migrate balance to balance keeper"},"minWorkers()":{"details":"Returns the min number of workers"},"multicall(bytes[])":{"details":"Receives and executes a batch of function calls on this contract."},"owner()":{"details":"Returns the address of the current owner."},"paymentToken()":{"details":"Returns the payment token address"},"pricePerCuPerEpoch()":{"details":"Returns the price per CU per epoch"},"providersAccessType()":{"details":"Returns the providers access type"},"removeProviderFromAccessList(address)":{"details":"Removes a provider from the access list"},"removeStaleWorkers(bytes32[])":{"details":"Allows oracle to remove worker from a deal that is not paying workers."},"removeWorker(bytes32)":{"details":"Removes a worker from the deal"},"renounceOwnership()":{"details":"Leaves the contract without owner. It will not be possible to call `onlyOwner` functions. Can only be called by the current owner. NOTE: Renouncing ownership will leave the contract without an owner, thereby disabling any functionality that is only available to the owner."},"setAppCID((bytes4,bytes32))":{"details":"Sets the app CID"},"stop()":{"details":"Stop the deal"},"targetWorkers()":{"details":"Returns the max number of workers"},"transferOwnership(address)":{"details":"Transfers ownership of the contract to a new account (`newOwner`). Can only be called by the current owner."},"withdraw(uint256)":{"details":"Withdraws payment token from the deal"},"withdrawRewards(bytes32)":{"details":"Withdraws rewards from the deal by compute unit ID"}},"events":{"AppCIDChanged((bytes4,bytes32))":{"details":"Emitted when the app CID is changed","params":{"newAppCID":"The new app CID"}},"DealEnded(uint256)":{"details":"Emitted when a deal is ended. This event can be emitted in the not-ended epoch. It can be emitted after the ended epoch in any epoch"},"Deposited(uint256)":{"details":"Emitted when a owner deposits payment token to the deal"},"Initialized(uint64)":{"details":"Triggered when the contract has been initialized or reinitialized."},"MaxPaidEpochUpdated(uint256)":{"details":"Emitted when a max paid epoch is updated"},"ProviderAddedToAccessList(address)":{"details":"Emitted when a provider is added to the access list","params":{"provider":"The provider address"}},"ProviderRemovedFromAccessList(address)":{"details":"Emitted when a provider is removed from the access list","params":{"provider":"The provider address"}},"ProvidersAccessTypeChanged(uint8)":{"details":"Emitted when the providers access type is changed","params":{"newAccessType":"The new access type"}},"RewardWithdrawn(bytes32,uint256,uint256)":{"details":"Emitted when a compute unit withdraws rewards from the deal"},"Withdrawn(uint256)":{"details":"Emitted when a owner withdraws payment token from the deal"},"WorkerIdUpdated(bytes32,bytes32)":{"details":"Emitted when a worker ID is updated","params":{"offchainWorkerId":"The new worker ID","onchainWorkerId":"The worker"}},"WorkerJoined(bytes32,bytes32)":{"details":"Emitted when a new worker is added","params":{"onchainId":"The worker ID","peerId":"The id of compute peer"}},"WorkerRemoved(bytes32,bytes32)":{"details":"Emitted when a worker is removed","params":{"onchainId":"The worker onchain ID","peerId":"The id of compute peer"}}},"errors":{"AddressEmptyCode(address)":[{"details":"There's no code at `target` (it is not a contract)."}],"FailedCall()":[{"details":"A call to an address target failed. The target may have reverted."}],"InvalidInitialization()":[{"details":"The contract is already initialized."}],"NotInitializing()":[{"details":"The contract is not initializing."}],"OwnableInvalidOwner(address)":[{"details":"The owner is not a valid owner account. (eg. `address(0)`)"}],"OwnableUnauthorizedAccount(address)":[{"details":"The caller account is not authorized to perform an operation."}],"ReentrancyGuardReentrantCall()":[{"details":"Unauthorized reentrant call."}],"SafeERC20FailedOperation(address)":[{"details":"An operation with an ERC-20 token failed."}]}},"id":116}