{"abi":[{"type":"function","name":"activateWorker","inputs":[{"name":"onchainWorkerId","type":"bytes32","internalType":"bytes32"},{"name":"offchainWorkerId","type":"bytes32","internalType":"bytes32"}],"outputs":[],"stateMutability":"nonpayable"},{"type":"function","name":"addProviderToAccessList","inputs":[{"name":"provider","type":"address","internalType":"address"}],"outputs":[],"stateMutability":"nonpayable"},{"type":"function","name":"addWorker","inputs":[{"name":"computeProvider","type":"address","internalType":"address"},{"name":"workerData","type":"tuple","internalType":"struct IWorkerManager.WorkerData","components":[{"name":"onchainId","type":"bytes32","internalType":"bytes32"},{"name":"computeUnitIds","type":"bytes32[]","internalType":"bytes32[]"}]},{"name":"peerId","type":"bytes32","internalType":"bytes32"}],"outputs":[],"stateMutability":"nonpayable"},{"type":"function","name":"appCID","inputs":[],"outputs":[{"name":"","type":"tuple","internalType":"struct CIDV1","components":[{"name":"prefixes","type":"bytes4","internalType":"bytes4"},{"name":"hash","type":"bytes32","internalType":"bytes32"}]}],"stateMutability":"view"},{"type":"function","name":"changeProvidersAccessType","inputs":[{"name":"accessType","type":"uint8","internalType":"enum IConfig.AccessType"}],"outputs":[],"stateMutability":"nonpayable"},{"type":"function","name":"computePeerUsed","inputs":[{"name":"peerId","type":"bytes32","internalType":"bytes32"}],"outputs":[{"name":"","type":"bool","internalType":"bool"}],"stateMutability":"view"},{"type":"function","name":"creationBlock","inputs":[],"outputs":[{"name":"","type":"uint256","internalType":"uint256"}],"stateMutability":"view"},{"type":"function","name":"cuCountPerWorker","inputs":[],"outputs":[{"name":"","type":"uint256","internalType":"uint256"}],"stateMutability":"view"},{"type":"function","name":"depositFromOwner","inputs":[{"name":"amount","type":"uint256","internalType":"uint256"},{"name":"reason","type":"uint8","internalType":"enum IBalanceKeeper.DealDepositReason"}],"outputs":[],"stateMutability":"nonpayable"},{"type":"function","name":"effectors","inputs":[],"outputs":[{"name":"","type":"tuple[]","internalType":"struct CIDV1[]","components":[{"name":"prefixes","type":"bytes4","internalType":"bytes4"},{"name":"hash","type":"bytes32","internalType":"bytes32"}]}],"stateMutability":"view"},{"type":"function","name":"getActivatedWorkerCount","inputs":[],"outputs":[{"name":"","type":"uint256","internalType":"uint256"}],"stateMutability":"view"},{"type":"function","name":"getFreeBalance","inputs":[],"outputs":[{"name":"","type":"uint256","internalType":"uint256"}],"stateMutability":"view"},{"type":"function","name":"getMaxPaidEpoch","inputs":[],"outputs":[{"name":"","type":"uint256","internalType":"uint256"}],"stateMutability":"view"},{"type":"function","name":"getProtocolVersion","inputs":[],"outputs":[{"name":"","type":"uint256","internalType":"uint256"}],"stateMutability":"view"},{"type":"function","name":"getRewardAmount","inputs":[{"name":"onchainWorkerId","type":"bytes32","internalType":"bytes32"}],"outputs":[{"name":"","type":"tuple","internalType":"struct IDeal.DealRewards","components":[{"name":"providerReward","type":"uint256","internalType":"uint256"},{"name":"stakerReward","type":"uint256","internalType":"uint256"}]}],"stateMutability":"view"},{"type":"function","name":"getStatus","inputs":[],"outputs":[{"name":"","type":"uint8","internalType":"enum IDeal.Status"}],"stateMutability":"view"},{"type":"function","name":"getWorker","inputs":[{"name":"onchainWorkerId","type":"bytes32","internalType":"bytes32"}],"outputs":[{"name":"","type":"tuple","internalType":"struct IWorkerManager.Worker","components":[{"name":"offchainId","type":"bytes32","internalType":"bytes32"},{"name":"onchainId","type":"bytes32","internalType":"bytes32"},{"name":"peerId","type":"bytes32","internalType":"bytes32"},{"name":"provider","type":"address","internalType":"address"},{"name":"joinedEpoch","type":"uint256","internalType":"uint256"},{"name":"computeUnitIds","type":"bytes32[]","internalType":"bytes32[]"}]}],"stateMutability":"view"},{"type":"function","name":"getWorkerCount","inputs":[],"outputs":[{"name":"","type":"uint256","internalType":"uint256"}],"stateMutability":"view"},{"type":"function","name":"getWorkerCount","inputs":[{"name":"provider","type":"address","internalType":"address"}],"outputs":[{"name":"","type":"uint256","internalType":"uint256"}],"stateMutability":"view"},{"type":"function","name":"getWorkers","inputs":[],"outputs":[{"name":"","type":"tuple[]","internalType":"struct IWorkerManager.Worker[]","components":[{"name":"offchainId","type":"bytes32","internalType":"bytes32"},{"name":"onchainId","type":"bytes32","internalType":"bytes32"},{"name":"peerId","type":"bytes32","internalType":"bytes32"},{"name":"provider","type":"address","internalType":"address"},{"name":"joinedEpoch","type":"uint256","internalType":"uint256"},{"name":"computeUnitIds","type":"bytes32[]","internalType":"bytes32[]"}]}],"stateMutability":"view"},{"type":"function","name":"initialize","inputs":[{"name":"diamond_","type":"address","internalType":"contract IDiamond"},{"name":"appCID_","type":"tuple","internalType":"struct CIDV1","components":[{"name":"prefixes","type":"bytes4","internalType":"bytes4"},{"name":"hash","type":"bytes32","internalType":"bytes32"}]},{"name":"paymentToken_","type":"address","internalType":"contract IERC20"},{"name":"minWorkers_","type":"uint256","internalType":"uint256"},{"name":"targetWorkers_","type":"uint256","internalType":"uint256"},{"name":"cuCountPerWorker_","type":"uint256","internalType":"uint256"},{"name":"maxWorkersPerProvider_","type":"uint256","internalType":"uint256"},{"name":"pricePerCuPerEpoch_","type":"uint256","internalType":"uint256"},{"name":"effectors_","type":"tuple[]","internalType":"struct CIDV1[]","components":[{"name":"prefixes","type":"bytes4","internalType":"bytes4"},{"name":"hash","type":"bytes32","internalType":"bytes32"}]},{"name":"providersAccessType_","type":"uint8","internalType":"enum IConfig.AccessType"},{"name":"providersAccessList_","type":"address[]","internalType":"address[]"},{"name":"protocolVersion_","type":"uint256","internalType":"uint256"},{"name":"owner_","type":"address","internalType":"address"}],"outputs":[],"stateMutability":"nonpayable"},{"type":"function","name":"isProviderAllowed","inputs":[{"name":"account","type":"address","internalType":"address"}],"outputs":[{"name":"","type":"bool","internalType":"bool"}],"stateMutability":"view"},{"type":"function","name":"maxWorkersPerProvider","inputs":[],"outputs":[{"name":"","type":"uint256","internalType":"uint256"}],"stateMutability":"view"},{"type":"function","name":"minWorkers","inputs":[],"outputs":[{"name":"","type":"uint256","internalType":"uint256"}],"stateMutability":"view"},{"type":"function","name":"multicall","inputs":[{"name":"data","type":"bytes[]","internalType":"bytes[]"}],"outputs":[{"name":"results","type":"bytes[]","internalType":"bytes[]"}],"stateMutability":"nonpayable"},{"type":"function","name":"owner","inputs":[],"outputs":[{"name":"","type":"address","internalType":"address"}],"stateMutability":"view"},{"type":"function","name":"paymentToken","inputs":[],"outputs":[{"name":"","type":"address","internalType":"contract IERC20"}],"stateMutability":"view"},{"type":"function","name":"postCommitPeriod","inputs":[{"name":"snapshot","type":"tuple","internalType":"struct DealSnapshot.Cache","components":[{"name":"_initTotalBalance","type":"uint256","internalType":"uint256"},{"name":"_initLockedBalance","type":"uint256","internalType":"uint256"},{"name":"_initGapsEpochCount","type":"uint256","internalType":"uint256"},{"name":"_totalBalance","type":"uint256","internalType":"uint256"},{"name":"_lockedBalance","type":"uint256","internalType":"uint256"},{"name":"_gapsEpochCount","type":"uint256","internalType":"uint256"},{"name":"_currentEpoch","type":"uint256","internalType":"uint256"},{"name":"_snapshotEpoch","type":"uint256","internalType":"uint256"},{"name":"_isEnded","type":"bool","internalType":"bool"},{"name":"_pricePerCuPerEpoch","type":"uint256","internalType":"uint256"},{"name":"_activeWorkerCount","type":"uint256","internalType":"uint256"}]},{"name":"newWorkerCount","type":"uint256","internalType":"uint256"}],"outputs":[],"stateMutability":"nonpayable"},{"type":"function","name":"preCommitPeriod","inputs":[],"outputs":[{"name":"","type":"tuple","internalType":"struct DealSnapshot.Cache","components":[{"name":"_initTotalBalance","type":"uint256","internalType":"uint256"},{"name":"_initLockedBalance","type":"uint256","internalType":"uint256"},{"name":"_initGapsEpochCount","type":"uint256","internalType":"uint256"},{"name":"_totalBalance","type":"uint256","internalType":"uint256"},{"name":"_lockedBalance","type":"uint256","internalType":"uint256"},{"name":"_gapsEpochCount","type":"uint256","internalType":"uint256"},{"name":"_currentEpoch","type":"uint256","internalType":"uint256"},{"name":"_snapshotEpoch","type":"uint256","internalType":"uint256"},{"name":"_isEnded","type":"bool","internalType":"bool"},{"name":"_pricePerCuPerEpoch","type":"uint256","internalType":"uint256"},{"name":"_activeWorkerCount","type":"uint256","internalType":"uint256"}]}],"stateMutability":"view"},{"type":"function","name":"pricePerCuPerEpoch","inputs":[],"outputs":[{"name":"","type":"uint256","internalType":"uint256"}],"stateMutability":"view"},{"type":"function","name":"providersAccessType","inputs":[],"outputs":[{"name":"","type":"uint8","internalType":"enum IConfig.AccessType"}],"stateMutability":"view"},{"type":"function","name":"removeProviderFromAccessList","inputs":[{"name":"provider","type":"address","internalType":"address"}],"outputs":[],"stateMutability":"nonpayable"},{"type":"function","name":"removeStaleWorkers","inputs":[{"name":"onchainWorkerIds","type":"bytes32[]","internalType":"bytes32[]"}],"outputs":[],"stateMutability":"nonpayable"},{"type":"function","name":"removeWorker","inputs":[{"name":"onchainWorkerId","type":"bytes32","internalType":"bytes32"}],"outputs":[],"stateMutability":"nonpayable"},{"type":"function","name":"renounceOwnership","inputs":[],"outputs":[],"stateMutability":"nonpayable"},{"type":"function","name":"setActivatedWorkerCount","inputs":[{"name":"activatedWorkerCount_","type":"uint256","internalType":"uint256"}],"outputs":[],"stateMutability":"nonpayable"},{"type":"function","name":"setAppCID","inputs":[{"name":"appCID_","type":"tuple","internalType":"struct CIDV1","components":[{"name":"prefixes","type":"bytes4","internalType":"bytes4"},{"name":"hash","type":"bytes32","internalType":"bytes32"}]}],"outputs":[],"stateMutability":"nonpayable"},{"type":"function","name":"setCuCountPerWorker","inputs":[{"name":"cuCountPerWorker_","type":"uint256","internalType":"uint256"}],"outputs":[],"stateMutability":"nonpayable"},{"type":"function","name":"setDiamond","inputs":[{"name":"diamond_","type":"address","internalType":"contract IDiamond"}],"outputs":[],"stateMutability":"nonpayable"},{"type":"function","name":"setEndedEpoch","inputs":[{"name":"endedEpoch","type":"uint256","internalType":"uint256"}],"outputs":[],"stateMutability":"nonpayable"},{"type":"function","name":"setGapsEpochCount","inputs":[{"name":"gapsEpochCount","type":"uint256","internalType":"uint256"}],"outputs":[],"stateMutability":"nonpayable"},{"type":"function","name":"setLastCommitedEpoch","inputs":[{"name":"lastCommitedEpoch","type":"uint256","internalType":"uint256"}],"outputs":[],"stateMutability":"nonpayable"},{"type":"function","name":"setLockedBalance","inputs":[{"name":"lockedBalance","type":"uint256","internalType":"uint256"}],"outputs":[],"stateMutability":"nonpayable"},{"type":"function","name":"setMaxPaidEpoch","inputs":[{"name":"maxPaidEpoch","type":"uint256","internalType":"uint256"}],"outputs":[],"stateMutability":"nonpayable"},{"type":"function","name":"setMinWorkers","inputs":[{"name":"minWorkers_","type":"uint256","internalType":"uint256"}],"outputs":[],"stateMutability":"nonpayable"},{"type":"function","name":"setPricePerCuPerEpoch","inputs":[{"name":"pricePerCuPerEpoch_","type":"uint256","internalType":"uint256"}],"outputs":[],"stateMutability":"nonpayable"},{"type":"function","name":"setTargetWorkers","inputs":[{"name":"targetWorkers_","type":"uint256","internalType":"uint256"}],"outputs":[],"stateMutability":"nonpayable"},{"type":"function","name":"setTotalBalance","inputs":[{"name":"totalBalance","type":"uint256","internalType":"uint256"}],"outputs":[],"stateMutability":"nonpayable"},{"type":"function","name":"setWorkerCount","inputs":[{"name":"workerCount_","type":"uint256","internalType":"uint256"}],"outputs":[],"stateMutability":"nonpayable"},{"type":"function","name":"stop","inputs":[],"outputs":[],"stateMutability":"nonpayable"},{"type":"function","name":"targetWorkers","inputs":[],"outputs":[{"name":"","type":"uint256","internalType":"uint256"}],"stateMutability":"view"},{"type":"function","name":"transferOwnership","inputs":[{"name":"newOwner","type":"address","internalType":"address"}],"outputs":[],"stateMutability":"nonpayable"},{"type":"function","name":"withdraw","inputs":[{"name":"amount","type":"uint256","internalType":"uint256"}],"outputs":[],"stateMutability":"nonpayable"},{"type":"function","name":"withdrawRewards","inputs":[{"name":"onchainWorkerId","type":"bytes32","internalType":"bytes32"}],"outputs":[],"stateMutability":"nonpayable"},{"type":"event","name":"AppCIDChanged","inputs":[{"name":"newAppCID","type":"tuple","indexed":false,"internalType":"struct CIDV1","components":[{"name":"prefixes","type":"bytes4","internalType":"bytes4"},{"name":"hash","type":"bytes32","internalType":"bytes32"}]}],"anonymous":false},{"type":"event","name":"DealEnded","inputs":[{"name":"endedEpoch","type":"uint256","indexed":false,"internalType":"uint256"}],"anonymous":false},{"type":"event","name":"Deposited","inputs":[{"name":"amount","type":"uint256","indexed":false,"internalType":"uint256"}],"anonymous":false},{"type":"event","name":"Initialized","inputs":[{"name":"version","type":"uint64","indexed":false,"internalType":"uint64"}],"anonymous":false},{"type":"event","name":"MaxPaidEpochUpdated","inputs":[{"name":"maxPaidEpoch","type":"uint256","indexed":false,"internalType":"uint256"}],"anonymous":false},{"type":"event","name":"OwnershipTransferred","inputs":[{"name":"previousOwner","type":"address","indexed":true,"internalType":"address"},{"name":"newOwner","type":"address","indexed":true,"internalType":"address"}],"anonymous":false},{"type":"event","name":"ProviderAddedToAccessList","inputs":[{"name":"provider","type":"address","indexed":false,"internalType":"address"}],"anonymous":false},{"type":"event","name":"ProviderRemovedFromAccessList","inputs":[{"name":"provider","type":"address","indexed":false,"internalType":"address"}],"anonymous":false},{"type":"event","name":"ProvidersAccessTypeChanged","inputs":[{"name":"newAccessType","type":"uint8","indexed":false,"internalType":"enum IConfig.AccessType"}],"anonymous":false},{"type":"event","name":"RewardWithdrawn","inputs":[{"name":"onchainWorkerId","type":"bytes32","indexed":false,"internalType":"bytes32"},{"name":"providerReward","type":"uint256","indexed":false,"internalType":"uint256"},{"name":"stakerReward","type":"uint256","indexed":false,"internalType":"uint256"}],"anonymous":false},{"type":"event","name":"Withdrawn","inputs":[{"name":"amount","type":"uint256","indexed":false,"internalType":"uint256"}],"anonymous":false},{"type":"event","name":"WorkerIdUpdated","inputs":[{"name":"onchainWorkerId","type":"bytes32","indexed":false,"internalType":"bytes32"},{"name":"offchainWorkerId","type":"bytes32","indexed":false,"internalType":"bytes32"}],"anonymous":false},{"type":"event","name":"WorkerJoined","inputs":[{"name":"peerId","type":"bytes32","indexed":true,"internalType":"bytes32"},{"name":"onchainId","type":"bytes32","indexed":false,"internalType":"bytes32"}],"anonymous":false},{"type":"event","name":"WorkerRemoved","inputs":[{"name":"peerId","type":"bytes32","indexed":true,"internalType":"bytes32"},{"name":"onchainId","type":"bytes32","indexed":false,"internalType":"bytes32"}],"anonymous":false},{"type":"error","name":"AddressEmptyCode","inputs":[{"name":"target","type":"address","internalType":"address"}]},{"type":"error","name":"FailedCall","inputs":[]},{"type":"error","name":"InvalidInitialization","inputs":[]},{"type":"error","name":"NotInitializing","inputs":[]},{"type":"error","name":"OwnableInvalidOwner","inputs":[{"name":"owner","type":"address","internalType":"address"}]},{"type":"error","name":"OwnableUnauthorizedAccount","inputs":[{"name":"account","type":"address","internalType":"address"}]},{"type":"error","name":"ReentrancyGuardReentrantCall","inputs":[]}],"bytecode":{"object":"0x6080806040523460d0577ff0c57e16840df040f15088dc2f81fe391c3923bec73e23a9662efc9c229c6a005460ff8160401c1660c1576002600160401b03196001600160401b03821601605c575b604051614fda90816100d58239f35b6001600160401b0319166001600160401b039081177ff0c57e16840df040f15088dc2f81fe391c3923bec73e23a9662efc9c229c6a005581527fc7f505b2f371ae2175ee4913f4499e1f2633a7b5936321eed1cdaeb6115181d290602090a15f80604d565b63f92ee8a960e01b5f5260045ffd5b5f80fdfe60806040526004361015610011575f80fd5b5f803560e01c80630346592714612f0d57806304f1bd5614612ee857806307da68f514612cb05780630ac25f1014612c895780631388325114612c6257806315a0f31a14612c375780631763451414612c0c578063176474cf14612af35780631af57b9614612ac257806322ebd58a14612a305780632943dcab14612a055780632db31193146129da5780632e1a7d4d146124565780633013ce29146124205780633116eeda146123f957806333ce93fe146123ce578063378b22e4146123a35780633d0bdad71461237c5780633e8ae1ae1461234e578063444e6a5a146122265780634d7599f1146121fb5780634e69d560146121cd57806359c4afc014612187578063636fcefb14611ff45780636e5e47b114611f5a57806370220a9b14611f2f578063715018a614611ed957806373134c1514611d3657806376ed535a14611cee5780637d1fd49e14611cc75780637dfb662614611bcb578063869ef43c14611ba45780638a0c725b14611b795780638da5cb5b14611b435780639276ef6d14611b1c57806393d2bafc14611a815780639bc6686814611a245780639c09e82d146119fd578063aba93a10146119c9578063ac9650d8146117b1578063ade0a20214611786578063bc126f1f14611620578063bd1926e0146115e3578063c1499f711461146f578063c9ed500814611448578063cb7b88d1146111df578063d4773ff0146111a8578063d76e480514610beb578063d93446c4146105a5578063e116568f1461057e578063e93c4f1514610557578063ed7b765314610381578063f2fde38b146103545763fc1e5e2a1461026c575f80fd5b346103515780600319360112610351575f80516020614c6583398151915254610294816130a1565b6102a16040519182612fae565b8181525f80516020614c6583398151915283526020810191837f5702833323968fbb14fdd86869039efe011756b786a9a900c16991bda0e3e573845b83831061033357868587604051928392602084019060208552518091526040840192915b81811061030f575050500390f35b9193509160206040826103256001948851612fd1565b019401910191849392610301565b600260206001926103438561377e565b8152019201920191906102dd565b80fd5b50346103515760203660031901126103515761037e610371612f32565b61037961403f565b613970565b80f35b5034610351576040366003190112610351576004356024356002811015610553575f80516020614b658339815191526103c460018060a01b03825416331461391a565b6103cc613601565b600581101561053f5760208593926103e9600260049414156132fa565b6104116103f46139ce565b606081016104038982516134ec565b905261014081015190613c1d565b5460405163fd44f92160e01b815292839182906001600160a01b03165afa908115610534578391610505575b505f80516020614d25833981519152545f80516020614da5833981519152546001600160a01b03918216929082169116803b15610501578492836084926040519687958694630459093360e21b86526004860152602485015289604485015260648401525af180156104f6576104dd575b507f2a89b2e3d580398d6dc2db5e0f336b52602bbaa51afa9bb5cdf59239cf0d2bea602083604051908152a180f35b816104e791612fae565b6104f257815f6104ae565b5080fd5b6040513d84823e3d90fd5b8480fd5b610527915060203d60201161052d575b61051f8183612fae565b8101906134f9565b5f61043d565b503d610515565b6040513d85823e3d90fd5b634e487b7160e01b85526021600452602485fd5b8280fd5b5034610351578060031936011261035157602060606105746139ce565b0151604051908152f35b5034610351576020366003190112610351576004355f80516020614d458339815191525580f35b5034610351576101c0366003190112610351576105c0612f32565b60403660231901126104f2576064356001600160a01b03811681036105535760c4359161012435919060a4356084356001600160401b038511610be75736602386011215610be7576004850135956001600160401b038711610a64573660248860061b88010111610a645761014435906003821015610be357610164356001600160401b038111610bdf5761065990369060040161305e565b6101a4359790959194906001600160a01b0389168903610bdb575f80516020614f0583398151915254604081901c60ff161599906001600160401b03811680159081610bd3575b6001149081610bc9575b159081610bc0575b50610bb1576001600160401b031981166001175f80516020614f058339815191525561070091908b610b89575b506106e8614992565b6106f0614992565b6106f8614992565b610379614992565b610708614992565b8115610b3057828211610ac7578315610a68575f80516020614b6583398151915297610732614b01565b5f80516020614b858339815191525588546001600160a01b039182166001600160a01b0319918216178a555f80516020614d2583398151915280549390921692169190911790555f80516020614e65833981519152555f80516020614d45833981519152555f80516020614e858339815191525560e4355f80516020614f8583398151915255610104355f80516020614c2583398151915255875b87811015610866575f80516020614c6583398151915254600160401b8110156108525760018101805f80516020614c658339815191525581101561083e57906108386001925f80516020614c658339815191528c5260208c2060248460061b8c010191851b01613dab565b016107cd565b634e487b7160e01b8a52603260045260248afd5b634e487b7160e01b8a52604160045260248afd5b50879550610884909291925f80516020614ec5833981519152613715565b5f80516020614bc583398151915290855b818110610a2357505050506108b860245f80516020614de5833981519152613dab565b604051906024359063ffffffff60e01b8216809203610501575f80516020614ce58339815191526040846020946004965260443585820152a16108f9614992565b610184355f80516020614f6583398151915255610914614992565b54604051630ecce30160e31b815292839182906001600160a01b03165afa9081156105345783916109ed575b505f1981019081116109d9575f80516020614ea58339815191525560017f85276e830bb0cbb783f0e6b4a968acc65deef7a2b0ff14d52821c42f785b9cc7556109865780f35b60ff60401b195f80516020614f0583398151915254165f80516020614f05833981519152557fc7f505b2f371ae2175ee4913f4499e1f2633a7b5936321eed1cdaeb6115181d2602060405160018152a180f35b634e487b7160e01b83526011600452602483fd5b90506020813d602011610a1b575b81610a0860209383612fae565b81010312610a17575183610940565b5f80fd5b3d91506109fb565b610a2e81838661390a565b35906001600160a01b0382168203610a6457600191828060a01b03165f528360205260405f208260ff1982541617905501610895565b8780fd5b60405162461bcd60e51b815260206004820152603160248201527f436f6e6669673a206375436f756e74506572576f726b65722073686f756c6420604482015270062652067726561746572207468616e203607c1b6064820152608490fd5b60405162461bcd60e51b815260206004820152603b60248201527f436f6e6669673a206d696e576f726b6572732073686f756c64206265206c657360448201527a73206f7220657175616c20746f20746172676574576f726b65727360281b6064820152608490fd5b60405162461bcd60e51b815260206004820152602b60248201527f436f6e6669673a206d696e576f726b6572732073686f756c642062652067726560448201526a061746572207468616e20360ac1b6064820152608490fd5b6001600160481b0319166001600160401b01175f80516020614f05833981519152555f6106df565b63f92ee8a960e01b8e5260048efd5b9050155f6106b2565b303b1591506106aa565b8c91506106a0565b8b80fd5b8980fd5b8880fd5b8680fd5b503461035157606036600319011261035157610c05612f32565b6024356001600160401b03811161055357604060031982360301126105535760405190610c3182612f93565b600481013582526024810135906001600160401b038211610501570190366023830112156111a457600482013591610c68836130a1565b92610c766040519485612fae565b808452602060048186019260051b8401010191368311610be757602401905b8282106111945750505060208101918252604435905f80516020614b6583398151915293610ccd60018060a01b03865416331461391a565b610cd5613601565b6005811015611180576002610ceb9114156132fa565b5f80516020614e45833981519152938454955f80516020614d458339815191525487101561114257875b82518051821015610dba5781610d2a916138e2565b5190818a525f80516020614ba583398151915260205260ff60408b205416610d76576001918a525f80516020614ba583398151915260205260408a208260ff1982541617905501610d15565b60405162461bcd60e51b815260206004820152601c60248201527b10dbdb5c1d5d19481d5b9a5d081a5cc8185b1c9958591e481d5cd95960221b6044820152606490fd5b50508688968688525f80516020614d0583398151915260205260ff604089205416611107578688525f80516020614d0583398151915260205260408820600160ff1982541617905560018060a01b0385165f525f80516020614ca583398151915260205260405f20545f80516020614f85833981519152548110156110c357600181018091116110af576001600160a01b0386165f9081525f80516020614ca583398151915260205260409020556001820191821061109b575554604051630ecce30160e31b81529190602090839060049082906001600160a01b03165afa801561109057869061105d575b60059250845191519360405192610ebc84612f78565b888452602080850191825260408086018a81526001600160a01b03948516606088019081526080880196875260a08801998a528a518d525f80516020614f45833981519152909352908b20955186559151600186015590516002850155516003840180546001600160a01b03191691909216179055516004820155915180519291909101906001600160401b03831161104957600160401b8311611049578154838355808410611023575b5060200190855260208520855b83811061100f5750505050610f9781515f80516020614d858339815191526149d2565b15610fcb5760207f9cd57cfa2e12a37215cabc6897396db265419bd7f06adad06227a2b163ecd6a39151604051908152a280f35b60405162461bcd60e51b815260206004820152601c60248201527b11985a5b1959081d1bc8185919081ddbdc9ad95c881d1bc81b1a5cdd60221b6044820152606490fd5b600190602084519401938184015501610f74565b828752836020882091820191015b81811061103e5750610f67565b878155600101611031565b634e487b7160e01b86526041600452602486fd5b506020823d602011611088575b8161107760209383612fae565b81010312610a175760059151610ea6565b3d915061106a565b6040513d88823e3d90fd5b634e487b7160e01b88526011600452602488fd5b634e487b7160e01b89526011600452602489fd5b606460405162461bcd60e51b815260206004820152602060248201527f4d617820776f726b657273207065722070726f766964657220726561636865646044820152fd5b60405162461bcd60e51b81526020600482015260136024820152721419595c925908185b1c9958591e481d5cd959606a1b6044820152606490fd5b60405162461bcd60e51b815260206004820152601660248201527515185c99d95d081ddbdc9ad95c9cc81c995858da195960521b6044820152606490fd5b634e487b7160e01b87526021600452602487fd5b8135815260209182019101610c95565b8380fd5b5034610351578060031936011261035157506111db60ff5f80516020614ec583398151915254166040519182918261308e565b0390f35b5034610351576020366003190112610351576004356001600160401b0381116104f25761121090369060040161305e565b5f80516020614b65833981519152546040516307dc0d1d60e41b815290602090829060049082906001600160a01b03165afa90811561143d578491611403575b506001600160a01b031633036113bf576112686139ce565b611270613601565b6005811015806113a1576002821480156113b5575b818115611391575b50156113515761053f578015908115611346575b506112d2575b50825b8181106112b5578380f35b806112cc6112c6600193858761390a565b356144a3565b016112aa565b60a00151156112e1575f6112a7565b60405162461bcd60e51b815260206004820152603760248201527f4174206c65617374203120756e706169642065706f636820726571756972656460448201527620746f20636f6e7369646572206465616c207374616c6560481b6064820152608490fd5b60039150145f6112a1565b60405162461bcd60e51b815260206004820152601860248201527715dbdc9ad95c9cc81a5b881919585b08185c99481c185a5960421b6044820152606490fd5b90506113a157600382148161128d565b634e487b7160e01b86526021600452602486fd5b5050848115611285565b606460405162461bcd60e51b815260206004820152602060248201527f4f6e6c79206f7261636c652063616e2063616c6c2074686973206d6574686f646044820152fd5b90506020813d602011611435575b8161141e60209383612fae565b810103126111a45761142f906130b8565b5f611250565b3d9150611411565b6040513d86823e3d90fd5b5034610351576020366003190112610351576004355f80516020614c858339815191525580f35b50346103515780600319360112610351576114965f80516020614d858339815191526137da565b80516114a1816130a1565b906114af6040519283612fae565b8082526114be601f19916130a1565b01835b8181106115cc575050825b825181101561156557806114e2600192856138e2565b5185525f80516020614f458339815191526020526040852061154460056040519261150c84612f78565b8054845285810154602085015260028101546040850152858060a01b03600382015416606085015260048101546080850152016137da565b60a082015261155382856138e2565b5261155e81846138e2565b50016114cc565b81846040519182916020830160208452825180915260408401602060408360051b870101940192905b82821061159d57505050500390f35b919360019193955060206115bc8192603f198a82030186528851612fea565b960192019201859493919261158e565b6020906115d76137aa565b828286010152016114c1565b50346103515760203660031901126103515760ff6040826020935060043581525f80516020614d0583398151915284522054166040519015158152f35b50346103515760203660031901126103515760043561163e81613861565b5f80516020614b6583398151915260018060a01b0390541690608060408201516024604051809581936321b9a09560e21b835260048301525afa91821561143d578492611755575b50606001516001600160a01b0316331490811561173e575b50801561171e575b156116b45761037e906144a3565b60405162461bcd60e51b815260206004820152603c60248201527f4f6e6c792070726f76696465722c2070656572206f776e6572206f722064656160448201527b1b081bdddb995c8818d85b8818d85b1b081d1a1a5cc81b595d1a1bd960221b6064820152608490fd5b505f80516020614da5833981519152546001600160a01b031633146116a6565b606001516001600160a01b0316331490505f61169e565b61177891925060803d60801161177f575b6117708183612fae565b8101906131ea565b905f611686565b503d611766565b50346103515780600319360112610351575060205f80516020614cc583398151915254604051908152f35b5034610351576020366003190112610351576004356001600160401b0381116104f2576117e290369060040161305e565b9060206040516117f28282612fae565b848152818101601f198301368237611809856130a1565b936118176040519586612fae565b858552601f19611826876130a1565b01875b8181106119ba57505036819003601e190190875b8781101561194257888160051b830135848112156104f25783018035906001600160401b038211610553578801813603811361055357866118a884938b6040519382859383850197883783018281018881528e519283915e010185815203601f198101835282612fae565b5190305af4893d1561192f57503d906001600160401b03821161191b57916118f96001928c98979695948a601f19601f84011601916118ea6040519384612fae565b82523d8a8c84013e5b30614928565b611903828b6138e2565b5261190e818a6138e2565b500190919293945061183d565b634e487b7160e01b8b52604160045260248bfd5b95949392916118f96001926060906118f3565b88868860405191808301818452825180915260408401918060408360051b870101940192865b8388106119755786860387f35b9091929394838080600193603f198b8203018752818a518051918291828552018484015e86838284010152601f80199101160101970193019701969093929193611968565b60608782018701528501611829565b5034610351576020366003190112610351576111db6119e9600435613861565b604051918291602083526020830190612fea565b5034610351576020366003190112610351576004355f80516020614be58339815191525580f35b5034610351578060031936011261035157611a3d613173565b50506040805160015f80516020614de5833981519152611a5c83612f93565b63ffffffff60e01b815460e01b16835201546020820152611a7f82518092612fd1565bf35b503461035157366003190161018081126104f2576101601361035157604051611aa981612f48565b6004358152602435602082015260443560408201526064356060820152608435608082015260a43560a082015260c43560c082015260e43560e0820152610104359081151582036105535761037e9161010082015261012435610120820152610144356101408201526101643590613c1d565b5034610351576020366003190112610351576004355f80516020614c258339815191525580f35b5034610351578060031936011261035157505f80516020614da5833981519152546040516001600160a01b039091168152602090f35b50346103515780600319360112610351575060205f80516020614f8583398151915254604051908152f35b5034610351576020366003190112610351576004355f80516020614e858339815191525580f35b503461035157602036600319011261035157600435611be981613861565b905f80516020614b6583398151915260018060a01b03905416608060408401516024604051809481936321b9a09560e21b835260048301525afa801561143d5761037e93611c56928692611ca6575b50606001516001600160a01b03163314908115611c8f575b5061323f565b611c83611c6282613861565b611c6a6139ce565b928184925190606060018060a01b039101511691614072565b61014081015190613c1d565b606001516001600160a01b0316331490505f611c50565b611cc091925060803d60801161177f576117708183612fae565b905f611c38565b5034610351576020366003190112610351576004355f80516020614e658339815191525580f35b503461035157602036600319011261035157611d08612f32565b5f80516020614b6583398151915280546001600160a01b0319166001600160a01b0390921691909117905580f35b503461035157602036600319011261035157611d50612f32565b5f80516020614b65833981519152546040516302984ebd60e31b815290602090829060049082906001600160a01b03165afa908115610534578391611e9f575b506001600160a01b031633148015611e7f575b611dac906130cc565b60ff5f80516020614ec583398151915254166003811015611e6b5715611e28576001600160a01b03165f8181525f80516020614bc58339815191526020908152604091829020805460ff1916600117905590519182527f4c26e4de691e265be6cf03e639754839907bf74687cd524a6734851331527ffd91a180f35b60405162461bcd60e51b815260206004820152601b60248201527a436f6e6669673a206163636573732074797065206973204e4f4e4560281b6044820152606490fd5b634e487b7160e01b83526021600452602483fd5b505f80516020614da5833981519152546001600160a01b03163314611da3565b90506020813d602011611ed1575b81611eba60209383612fae565b8101031261055357611ecb906130b8565b5f611d90565b3d9150611ead565b5034610351578060031936011261035157611ef261403f565b5f80516020614da583398151915280546001600160a01b0319811690915581906001600160a01b03165f80516020614d658339815191528280a380f35b50346103515780600319360112610351575060205f80516020614c2583398151915254604051908152f35b5034610351578060031936011261035157611f7361372d565b50610160611f7f6139ce565b61014060405191805183526020810151602084015260408101516040840152606081015160608401526080810151608084015260a081015160a084015260c081015160c084015260e081015160e084015261010081015115156101008401526101208101516101208401520151610140820152f35b50346103515760203660031901126103515760043560038110156104f2575f80516020614b65833981519152546040516302984ebd60e31b815290602090829060049082906001600160a01b03165afa90811561053457839161214d575b506001600160a01b03163314801561212d575b61206e906130cc565b60ff5f80516020614ec583398151915254166003811015611e6b5781146120dd576120d7816120cb7f1f5a251428f76335a835fcae94ab6a9bcf09ac33bd3c782eb6a81bdf878a7393935f80516020614ec5833981519152613715565b6040519182918261308e565b0390a180f35b60405162461bcd60e51b815260206004820152602260248201527f436f6e6669673a20616363657373207479706520697320616c72656164792073604482015261195d60f21b6064820152608490fd5b505f80516020614da5833981519152546001600160a01b03163314612065565b90506020813d60201161217f575b8161216860209383612fae565b8101031261055357612179906130b8565b5f612052565b3d915061215b565b5034610351576020366003190112610351576121a1612f32565b905060018060a01b03165f525f80516020614ca5833981519152602052602060405f2054604051908152f35b50346103515780600319360112610351576121e6613601565b604051906005811015611e6b57602092508152f35b50346103515780600319360112610351575060205f80516020614e4583398151915254604051908152f35b503461035157602036600319011261035157612240612f32565b5f80516020614b65833981519152546040516302984ebd60e31b815290602090829060049082906001600160a01b03165afa908115610534578391612301575b505f80516020614dc5833981519152916020916001600160a01b0316331480156122e1575b6122ae906130cc565b6001600160a01b03165f8181525f80516020614bc58339815191528352604090819020805460ff1916905551908152a180f35b505f80516020614da5833981519152546001600160a01b031633146122a5565b90506020813d602011612346575b8161231c60209383612fae565b81010312610553575f80516020614dc58339815191529161233e6020926130b8565b915091612280565b3d915061230f565b503461035157602036600319011261035157602061237261236d612f32565b613571565b6040519015158152f35b5034610351576020366003190112610351576004355f80516020614e458339815191525580f35b50346103515780600319360112610351575060205f80516020614ee583398151915254604051908152f35b50346103515780600319360112610351575060205f80516020614f6583398151915254604051908152f35b5034610351576020366003190112610351576004355f80516020614c458339815191525580f35b5034610351578060031936011261035157505f80516020614d25833981519152546040516001600160a01b039091168152602090f35b5034610351576020366003190112610351575f80516020614b6583398151915280546040516302984ebd60e31b8152600480359392602091839182906001600160a01b03165afa90811561143d5784916129a0575b506001600160a01b031633148015612980575b6124c7906130cc565b5f80516020614e258339815191525c6129715760015f80516020614e258339815191525d5f80516020614c858339815191526125016139ce565b82546040516372ea4f2360e01b815290602090829060049082906001600160a01b03165afa90811561109057869161293d575b5061256961255461257e925f80516020614c2583398151915254906134cc565b5f80516020614e8583398151915254906134cc565b5f80516020614d4583398151915254906134cc565b6060820161258d8682516134df565b809152610100830151151580612934575b156128bb57505060c08101515f80516020614f258339815191525484546040516372ea4f2360e01b81529190602090839060049082906001600160a01b03165afa9081156128b057889161287a575b6125f792506134ec565b10156128115784926126216020928461261388600497546134df565b905561014081015190613c1d565b5460405163fd44f92160e01b815292839182906001600160a01b03165afa9081156104f65782916127f2575b505f80516020614d25833981519152545f80516020614da583398151915280546001600160a01b039384169391929082169116833b15610501576040516388081fcb60e01b8152918591839182916126aa918a9160048501613518565b038183875af190811561143d5784916127dd575b50505f80516020614d258339815191525490546001600160a01b039182169116823b156111a4576040516312bc368360e31b81529184918391829161270a918991339160048601613540565b038183865af19081156105345783916127c8575b50505f80516020614d25833981519152546001600160a01b031690803b1561055357838391612765938360405180968195829462b13fab60e11b8452339060048501613518565b03925af180156104f6576127b3575b507f430648de173157e069201c943adb2d4e340e7cf5b27b1b09c9cb852f03d63b56602083604051908152a1805f80516020614e258339815191525d80f35b816127bd91612fae565b6104f257815f612774565b816127d291612fae565b6104f257815f61271e565b816127e791612fae565b61055357825f6126be565b61280b915060203d60201161052d5761051f8183612fae565b5f61264d565b60405162461bcd60e51b815260206004820152603b60248201527f43616e2774207769746864726177206265666f7265206d696e4465616c44657060448201527a1bdcda5d1959115c1bd8da1cc818599d195c881919585b08195b99602a1b6064820152608490fd5b90506020823d6020116128a8575b8161289560209383612fae565b81010312610a17576125f79151906125ed565b3d9150612888565b6040513d8a823e3d90fd5b9091939250106128d45760206004916126218694611c83565b60405162461bcd60e51b815260206004820152603260248201527f467265652062616c616e6365206e6565647320746f20636f766572206d696e4460448201527165616c4465706f736974656445706f63687360701b6064820152608490fd5b5081811061259e565b90506020813d602011612969575b8161295860209383612fae565b81010312610a175751612569612534565b3d915061294b565b633ee5aeb560e01b8352600483fd5b505f80516020614da5833981519152546001600160a01b031633146124be565b90506020813d6020116129d2575b816129bb60209383612fae565b810103126111a4576129cc906130b8565b5f6124ab565b3d91506129ae565b50346103515780600319360112610351575060205f80516020614e6583398151915254604051908152f35b50346103515780600319360112610351575060205f80516020614d4583398151915254604051908152f35b503461035157604036600319011261035157600435612a4e81613861565b905f80516020614b6583398151915260018060a01b03905416608060408401516024604051809481936321b9a09560e21b835260048301525afa801561143d5761037e93612ab9928692611ca65750606001516001600160a01b03163314908115611c8f575061323f565b60243590613336565b5034610351576020366003190112610351576040612ae160043561318b565b60208251918051835201516020820152f35b5034610351576040366003190112610351575f80516020614b6583398151915280546040516302984ebd60e31b815290602090829060049082906001600160a01b03165afa908115610534578391612bd2575b506001600160a01b031633148015612bb2575b612b62906130cc565b50612b7b60045f80516020614de5833981519152613dab565b60405160043563ffffffff60e01b811680910361055357816040915f80516020614ce583398151915293526024356020820152a180f35b505f80516020614da5833981519152546001600160a01b03163314612b59565b90506020813d602011612c04575b81612bed60209383612fae565b8101031261055357612bfe906130b8565b5f612b46565b3d9150612be0565b50346103515780600319360112610351575060205f80516020614b8583398151915254604051908152f35b50346103515780600319360112610351575060205f80516020614e8583398151915254604051908152f35b5034610351576020366003190112610351576004355f80516020614f258339815191525580f35b5034610351576020366003190112610351576004355f80516020614ea58339815191525580f35b5034610a17575f366003190112610a17575f80516020614b6583398151915280546040516302984ebd60e31b815290602090829060049082906001600160a01b03165afa908115612e11575f91612eae575b506001600160a01b031633148015612e8e575b612d1e906130cc565b612d26613601565b6005811015612e7a576002612d3c911415613132565b612d47611c836139ce565b8054604051630ecce30160e31b815290602090829060049082906001600160a01b03165afa908115612e11575f91612e47575b506020817f3ad16bb58712aa329948d76146b096a4f4b85e024d99473dc50bcd358811b86c925f80516020614ee58339815191525411612e1c575b805f80516020614f2583398151915255604051908152a1546001600160a01b0316803b15610a17575f809160046040518094819363437e8bf160e01b83525af18015612e1157612e03575080f35b612e0f91505f90612fae565b005b6040513d5f823e3d90fd5b805f80516020614ee5833981519152555f80516020614c0583398151915282604051838152a1612db5565b90506020813d602011612e72575b81612e6260209383612fae565b81010312610a1757516020612d7a565b3d9150612e55565b634e487b7160e01b5f52602160045260245ffd5b505f80516020614da5833981519152546001600160a01b03163314612d15565b90506020813d602011612ee0575b81612ec960209383612fae565b81010312610a1757612eda906130b8565b5f612d02565b3d9150612ebc565b34610a17576020366003190112610a17576004355f80516020614ee583398151915255005b34610a17576020366003190112610a17576004355f80516020614cc583398151915255005b600435906001600160a01b0382168203610a1757565b61016081019081106001600160401b03821117612f6457604052565b634e487b7160e01b5f52604160045260245ffd5b60c081019081106001600160401b03821117612f6457604052565b604081019081106001600160401b03821117612f6457604052565b601f909101601f19168101906001600160401b03821190821017612f6457604052565b80516001600160e01b0319168252602090810151910152565b602060e060a060c085019380518652838101518487015260408101516040870152600180831b0360608201511660608701526080810151608087015201519360c060a08201528451809452019201905f5b8181106130485750505090565b825184526020938401939092019160010161303b565b9181601f84011215610a17578235916001600160401b038311610a17576020808501948460051b010111610a1757565b919060208301926003821015612e7a5752565b6001600160401b038111612f645760051b60200190565b51906001600160a01b0382168203610a1757565b156130d357565b60405162461bcd60e51b815260206004820152603160248201527f4f6e6c7920566f646f706164206f72204465616c204f776e65722063616e206360448201527030b636103a3434b990333ab731ba34b7b760791b6064820152608490fd5b1561313957565b60405162461bcd60e51b81526020600482015260126024820152714465616c206973206e6f742061637469766560701b6044820152606490fd5b6040519061318082612f93565b5f6020838281520152565b60405161319781612f93565b5f81525f6020820152506131a96139ce565b906131b381613861565b51156131d057816131c76131cd9383613e76565b91613f61565b90565b50506040516131de81612f93565b5f81525f602082015290565b90816080910312610a175760405190608082016001600160401b03811183821017612f645761323791606091604052805184526020810151602085015260408101516040850152016130b8565b606082015290565b1561324657565b60405162461bcd60e51b815260206004820152603060248201527f4f6e6c792070726f7669646572206f722070656572206f776e65722063616e2060448201526f18d85b1b081d1a1a5cc81b595d1a1bd960821b6064820152608490fd5b156132ab57565b60405162461bcd60e51b815260206004820152602160248201527f4f6666636861696e20776f726b65722069642063616e277420626520656d70746044820152607960f81b6064820152608490fd5b1561330157565b60405162461bcd60e51b815260206004820152600d60248201526c1119585b081a5cc8195b991959609a1b6044820152606490fd5b81151590613343826132a4565b61334b6139ce565b61014081015192825f525f80516020614f4583398151915260205261337360405f20916132a4565b80541561348a575b8481557fcf79e0e27c8c35d39bd9b727f35e6f79573597f660c88baf483fc1511c49203c60408051858152876020820152a160025f80516020614cc583398151915254910154936133cc8284613c1d565b6133d4613601565b6005811015612e7a57806133ee60026133f59314156132fa565b1515613132565b1461348457815f525f80516020614e05833981519152602052600160a060405f209260e0810151845501519101555f80516020614b6583398151915260018060a01b03905416803b15610a17575f9283606492604051968795869463bf0d370760e01b86526004860152602485015260448401525af18015612e11576134785750565b5f61348291612fae565b565b50505050565b5f80516020614cc5833981519152545f1981146134b8576001015f80516020614cc58339815191525561337b565b634e487b7160e01b5f52601160045260245ffd5b818102929181159184041417156134b857565b919082039182116134b857565b919082018092116134b857565b90816020910312610a1757516001600160a01b0381168103610a175790565b6001600160a01b0391821681529116602082015260408101919091525f606082015260800190565b6001600160a01b0391821681529181166020830152909116604082015260608101919091525f608082015260a00190565b60ff5f80516020614ec583398151915254166003811015612e7a5780156135fa57600181146135d0576002146135a657505f90565b6001600160a01b03165f9081525f80516020614bc5833981519152602052604090205460ff161590565b506001600160a01b03165f9081525f80516020614bc5833981519152602052604090205460ff1690565b5050600190565b6136096139ce565b61010081015161370f575f80516020614ee5833981519152548015159081613701575b506136fc57610140810151905f80516020614b65833981519152915f80516020614e6583398151915254116136f5576060015190546040516372ea4f2360e01b815290602090829060049082906001600160a01b03165afa908115612e11575f916136c1575b506125696125546136b2925f80516020614c2583398151915254906134cc565b116136bc57600190565b600490565b90506020813d6020116136ed575b816136dc60209383612fae565b81010312610a175751612569613692565b3d91506136cf565b5050600390565b505f90565b905060c0820151115f61362c565b50600290565b906003811015612e7a5760ff80198354169116179055565b6040519061373a82612f48565b5f610140838281528260208201528260408201528260608201528260808201528260a08201528260c08201528260e082015282610100820152826101208201520152565b9060405161378b81612f93565b825460e01b6001600160e01b0319168152600192909201546020830152565b604051906137b782612f78565b606060a0835f81525f60208201525f60408201525f838201525f60808201520152565b90604051918281549182825260208201905f5260205f20925f5b81811061380957505061348292500383612fae565b84548352600194850194879450602090930192016137f4565b1561382957565b60405162461bcd60e51b815260206004820152601060248201526f15dbdc9ad95c881b9bdd08199bdd5b9960821b6044820152606490fd5b6138696137aa565b505f525f80516020614f4583398151915260205260405f206131cd6040519161389183612f78565b805483526001810154602084019081526002820154604085015260038201546001600160a01b0316606085015260048201546080850152906138d5906005016137da565b60a0840152511515613822565b80518210156138f65760209160051b010190565b634e487b7160e01b5f52603260045260245ffd5b91908110156138f65760051b0190565b1561392157565b60405162461bcd60e51b815260206004820152602160248201527f436f6e6669673a2063616c6c6572206973206e6f7420746865204469616d6f6e6044820152601960fa1b6064820152608490fd5b6001600160a01b031680156139bb575f80516020614da583398151915280546001600160a01b0319811683179091556001600160a01b03165f80516020614d658339815191525f80a3565b631e4fbdf760e01b5f525f60045260245ffd5b6139d661372d565b505f80516020614b6583398151915254604051630ecce30160e31b81525f80516020614c858339815191529291602090829060049082906001600160a01b03165afa908115612e11575f91613beb575b505f1981018181116134b857905f80516020614f2583398151915254915f9280613bdf575b505f80516020614cc583398151915254945f80516020614c2583398151915254935f80516020614e858339815191525491613a8461372d565b5054935f80516020614c45833981519152545f80516020614be5833981519152549060405196613ab388612f48565b8088528160208901528260408901526060880152608087015260a086015260c08501528260e08501521515610100840152836101208401528561014084015282955f80516020614ea5833981519152549384841115613bd657505f80516020614ee5833981519152549485841115613b9f57858510613b4f57505050613b4b919250613b4560a08601938451926134df565b906134ec565b9052565b613b6d9291613b68613b6892613b68613b4b988a6134df565b6134cc565b60608601613b7c8282516134df565b9052613b8d608087019182516134ec565b9052613b4560a08601938451926134df565b613bb69550613b68613b68929395613b68956134df565b60608301613bc58282516134df565b9052613b4b608084019182516134ec565b96505050505050565b6001935090505f613a4b565b90506020813d602011613c15575b81613c0660209383612fae565b81010312610a1757515f613a26565b3d9150613bf9565b905f80516020614c85833981519152825160608401918251809203613da3575b505060208301516080840151809103613d8e575b50604083015160a0840151809103613d79575b505f80516020614e85833981519152549060e08401519361010081015115613c9c575b505050505f80516020614ea583398151915255565b5f80516020614e65833981519152548085109182613d2c5750505090613b68613cd59251935f80516020614c25833981519152546134cc565b8015613d1857613cf76020915f80516020614c058339815191529304846134ec565b805f80516020614ee583398151915255604051908152a15b5f808080613c87565b634e487b7160e01b5f52601260045260245ffd5b6101400151101593509150829050613d71575b5015613d0f575f5f80516020614ee5833981519152555f80516020614c0583398151915260206040515f8152a1613d0f565b90505f613d3f565b5f80516020614be5833981519152555f613c64565b5f80516020614c45833981519152555f613c51565b555f80613c3d565b9080356001600160e01b031981168103610a175760019160209160e01c63ffffffff198554161784550135910155565b9081610160910312610a175760405190613df482612f48565b8051906006821015610a17576101409183526020810151602084015260408101516040840152606081015160608401526080810151608084015260a081015160a084015260c081015160c0840152613e4e60e082016130b8565b60e0840152610100810151610100840152610120810151610120840152015161014082015290565b9060e00151905f80516020614b658339815191529060ff5f80516020614ec583398151915254166003811015612e7a57600114613f5c57613eb961016091614812565b9154604051631de5608360e21b81526004810193909352829060249082906001600160a01b03165afa908115612e11575f91613f2d575b5061012081015180613f27575060a00180515f1981019081116134b8578211613f17575090565b515f198101915081116134b85790565b91505090565b613f4f91506101603d8111613f55575b613f478183612fae565b810190613ddb565b5f613ef0565b503d613f3d565b505090565b91604051613f6e81612f93565b5f81525f602082015250825f525f80516020614e05833981519152602052613f9960405f209361488e565b9280549182811061402e5760a0613fb5613fc1946001936134df565b940151910154906134df565b9081811061401f57613fff613ff8612554613fe36140079562989680956134df565b5f80516020614c2583398151915254906134cc565b93846134cc565b0480926134df565b906040519161401583612f93565b8252602082015290565b5050506040516131de81612f93565b50505050506040516131de81612f93565b5f80516020614da5833981519152546001600160a01b0316330361405f57565b63118cdaa760e01b5f523360045260245ffd5b9291905f9015613484576140868385613e76565b91614092838587613f61565b928351946140a660208601968751906134ec565b918215614499576140e291608091895f525f80516020614e0583398151915260205260405f20908155600160a0830151910155019182516134df565b90525f80516020614b65833981519152805460405163fd44f92160e01b81529190602090839060049082906001600160a01b03165afa918215612e11575f92614478575b5060018060a01b035f80516020614d258339815191525416928551614340575b50855161418f575b50505050916060917fc512f9d0bb2627096491f1074af42a5032fe36ef5dcae7c216cfc34f6ea474d6935190519060405192835260208301526040820152a1565b54604051638da5cb5b60e01b81529190602090839060049082906001600160a01b03165afa91821561143d578492614304575b505f80516020614da5833981519152805487516001600160a01b039384169493909116843b15610be7576040516388081fcb60e01b81529187918391829161420f91908a60048501613518565b038183885af18015611090579086916142ef575b5050548651906001600160a01b0316833b156142eb5782869161425b60405194859384936312bc368360e31b85528a60048601613540565b038183875af180156142e0579085916142cb575b5050855192823b1561050157916142a093918580946040519687958694859362b13fab60e11b855260048501613518565b03925af180156104f6576142b6575b808061414e565b6142c1828092612fae565b61035157806142af565b816142d591612fae565b6111a457835f61426f565b6040513d87823e3d90fd5b8580fd5b816142f991612fae565b61050157845f614223565b9091506020813d602011614338575b8161432060209383612fae565b810103126111a457614331906130b8565b905f6141c2565b3d9150614313565b5f80516020614da5833981519152805487516001600160a01b03868116939216833b15610a17576040516388081fcb60e01b8152915f918391829161438a91908c60048501613518565b038183875af18015612e1157614463575b50548751906001600160a01b0316823b15610a64578388916143d260405194859384936312bc368360e31b85528c60048601613540565b038183865af1801561445857908791614443575b5050865191813b15610be757918691614416938360405180968195829462b13fab60e11b84528c60048501613518565b03925af180156142e05790859161442e575b50614146565b8161443891612fae565b6111a457835f614428565b8161444d91612fae565b6142eb57855f6143e6565b6040513d89823e3d90fd5b6144709197505f90612fae565b5f955f61439b565b61449291925060203d60201161052d5761051f8183612fae565b905f614126565b5050505050505050565b6144ac81613861565b916144b56139ce565b918351906144d3845f9360018060a01b036060890151169084614072565b5f80516020614e4583398151915294815f525f80516020614f4583398151915260205260405f20946040519561450887612f78565b805487526001810154966020810197885260028201549160408201928352614563614553600560018060a01b03600385015416936060860194855260048101546080870152016137da565b9960a084019a8b52511515613822565b5f5b895180518210156145a3579061457d816001936138e2565b515f525f80516020614ba583398151915260205260405f2060ff19815416905501614565565b50509193959750919395976145b88154614986565b9055516001600160a01b03165f9081525f80516020614ca58339815191526020526040902080546145e890614986565b9055516147e7575b5190815f525f80516020614d0583398151915260205260405f2060ff198154169055835f525f80516020614f45833981519152602052600560405f205f81555f60018201555f60028201555f60038201555f6004820155018054905f8155816147c9575b505061466d845f80516020614d85833981519152614a3c565b1561477a576146b5917f2931f8975c0ce3cdf8ebe0cac36f06048736d46d6df66ac21cfe717b9ee710066020604051878152a25f80516020614cc58339815191525490613c1d565b5f80516020614b658339815191525460a09190910151906001600160a01b0316803b15610a1757604051809263012a4ebb60e41b8252604482016040600484015281518091526020606484019201905f5b8181106147615750505091815f81819588602483015203925af18015612e115761474c575b5081525f80516020614e058339815191526020526001604082208281550155565b6147599192505f90612fae565b5f905f61472b565b8251845286945060209384019390920191600101614706565b60405162461bcd60e51b815260206004820152602160248201527f4661696c656420746f2072656d6f766520776f726b65722066726f6d206c69736044820152601d60fa1b6064820152608490fd5b5f5260205f20908101905b81811015614654575f81556001016147d4565b6147fe5f80516020614cc583398151915254614986565b5f80516020614cc5833981519152556145f0565b61481b90613861565b5f80516020614b658339815191525460409182015191516321b9a09560e21b81526004810192909252608090829060249082906001600160a01b03165afa8015612e11576020915f9161486f575b50015190565b614888915060803d60801161177f576117708183612fae565b5f614869565b5f80516020614b658339815191529060ff5f80516020614ec583398151915254166003811015612e7a57600114614922576148cb61016091614812565b9154604051631de5608360e21b81526004810193909352829060249082906001600160a01b03165afa8015612e115760c0915f916149095750015190565b61488891506101603d8111613f5557613f478183612fae565b50505f90565b9061494c575080511561493d57805190602001fd5b63d6bda27560e01b5f5260045ffd5b8151158061497d575b61495d575090565b639996b31560e01b5f9081526001600160a01b0391909116600452602490fd5b50803b15614955565b80156134b8575f190190565b60ff5f80516020614f058339815191525460401c16156149ae57565b631afcd79f60e31b5f5260045ffd5b80548210156138f6575f5260205f2001905f90565b6001810190825f528160205260405f2054155f14614a35578054600160401b811015612f6457614a22614a0c8260018794018555846149bd565b819391549060031b91821b915f19901b19161790565b905554915f5260205260405f2055600190565b5050505f90565b906001820191815f528260205260405f20548015155f14614af9575f1981018181116134b85782545f198101919082116134b857818103614ac4575b50505080548015614ab0575f190190614a9182826149bd565b8154905f199060031b1b19169055555f526020525f6040812055600190565b634e487b7160e01b5f52603160045260245ffd5b614ae4614ad4614a0c93866149bd565b90549060031b1c928392866149bd565b90555f528360205260405f20555f8080614a78565b505050505f90565b60643b15614b605760405163a3b1b31d60e01b815260208160048160645afa908115612e11575f91614b31575090565b90506020813d602011614b58575b81614b4c60209383612fae565b81010312610a17575190565b3d9150614b3f565b439056fe8953f5482bc1a621075e75537625fa3bd2025e7df7baf6ba1dbfbf2212912d048953f5482bc1a621075e75537625fa3bd2025e7df7baf6ba1dbfbf2212912d05ec986952a0671e4b2e5ec4461085fb880bc7a7b88668240f8d55173039155d248953f5482bc1a621075e75537625fa3bd2025e7df7baf6ba1dbfbf2212912d1185276e830bb0cbb783f0e6b4a968acc65deef7a2b0ff14d52821c42f785b9cc1cecd349d986645e1758ec135f91f1ad20564a8bcc6c2b5a5eaca9b09841495c58953f5482bc1a621075e75537625fa3bd2025e7df7baf6ba1dbfbf2212912d0e85276e830bb0cbb783f0e6b4a968acc65deef7a2b0ff14d52821c42f785b9cc08953f5482bc1a621075e75537625fa3bd2025e7df7baf6ba1dbfbf2212912d0f85276e830bb0cbb783f0e6b4a968acc65deef7a2b0ff14d52821c42f785b9cbfec986952a0671e4b2e5ec4461085fb880bc7a7b88668240f8d55173039155d22ec986952a0671e4b2e5ec4461085fb880bc7a7b88668240f8d55173039155d21c820a66d3bdd50a45cf12cda6dc8ec9e94fb5123edd7da736eea18316f8523a0ec986952a0671e4b2e5ec4461085fb880bc7a7b88668240f8d55173039155d258953f5482bc1a621075e75537625fa3bd2025e7df7baf6ba1dbfbf2212912d088953f5482bc1a621075e75537625fa3bd2025e7df7baf6ba1dbfbf2212912d0b8be0079c531659141344cd1fd0a4f28419497f9722a3daafe3b4186f6b6457e0ec986952a0671e4b2e5ec4461085fb880bc7a7b88668240f8d55173039155d26b13d3e7783d509d8d65d3e1e62ec0b103a07e0cbfa1ee74ae19127f297dddfcc38fb081a0b484406977bd94ff8edb79be44b5ca514130361182516b39e2c45288953f5482bc1a621075e75537625fa3bd2025e7df7baf6ba1dbfbf2212912d0685276e830bb0cbb783f0e6b4a968acc65deef7a2b0ff14d52821c42f785b9cc49b779b17422d0df92223018b32b4d1fa46e071723d6817e2486d003becc55f00ec986952a0671e4b2e5ec4461085fb880bc7a7b88668240f8d55173039155d208953f5482bc1a621075e75537625fa3bd2025e7df7baf6ba1dbfbf2212912d0a8953f5482bc1a621075e75537625fa3bd2025e7df7baf6ba1dbfbf2212912d0d85276e830bb0cbb783f0e6b4a968acc65deef7a2b0ff14d52821c42f785b9cc38953f5482bc1a621075e75537625fa3bd2025e7df7baf6ba1dbfbf2212912d1085276e830bb0cbb783f0e6b4a968acc65deef7a2b0ff14d52821c42f785b9cc2f0c57e16840df040f15088dc2f81fe391c3923bec73e23a9662efc9c229c6a0085276e830bb0cbb783f0e6b4a968acc65deef7a2b0ff14d52821c42f785b9cc5ec986952a0671e4b2e5ec4461085fb880bc7a7b88668240f8d55173039155d2385276e830bb0cbb783f0e6b4a968acc65deef7a2b0ff14d52821c42f785b9cc68953f5482bc1a621075e75537625fa3bd2025e7df7baf6ba1dbfbf2212912d0ca2646970667358221220e2bb5f02c760b5bdf180e7329da75524ab86fcaecda1dd0247f0b6216eea0e3d64736f6c634300081a0033","linkReferences":{}},"methodIdentifiers":{"activateWorker(bytes32,bytes32)":"22ebd58a","addProviderToAccessList(address)":"73134c15","addWorker(address,(bytes32,bytes32[]),bytes32)":"d76e4805","appCID()":"9bc66868","changeProvidersAccessType(uint8)":"636fcefb","computePeerUsed(bytes32)":"bd1926e0","creationBlock()":"17634514","cuCountPerWorker()":"15a0f31a","depositFromOwner(uint256,uint8)":"ed7b7653","effectors()":"fc1e5e2a","getActivatedWorkerCount()":"ade0a202","getFreeBalance()":"e93c4f15","getMaxPaidEpoch()":"378b22e4","getProtocolVersion()":"33ce93fe","getRewardAmount(bytes32)":"1af57b96","getStatus()":"4e69d560","getWorker(bytes32)":"aba93a10","getWorkerCount()":"4d7599f1","getWorkerCount(address)":"59c4afc0","getWorkers()":"c1499f71","initialize(address,(bytes4,bytes32),address,uint256,uint256,uint256,uint256,uint256,(bytes4,bytes32)[],uint8,address[],uint256,address)":"d93446c4","isProviderAllowed(address)":"3e8ae1ae","maxWorkersPerProvider()":"8a0c725b","minWorkers()":"2db31193","multicall(bytes[])":"ac9650d8","owner()":"8da5cb5b","paymentToken()":"3013ce29","postCommitPeriod((uint256,uint256,uint256,uint256,uint256,uint256,uint256,uint256,bool,uint256,uint256),uint256)":"93d2bafc","preCommitPeriod()":"6e5e47b1","pricePerCuPerEpoch()":"70220a9b","providersAccessType()":"d4773ff0","removeProviderFromAccessList(address)":"444e6a5a","removeStaleWorkers(bytes32[])":"cb7b88d1","removeWorker(bytes32)":"bc126f1f","renounceOwnership()":"715018a6","setActivatedWorkerCount(uint256)":"03465927","setAppCID((bytes4,bytes32))":"176474cf","setCuCountPerWorker(uint256)":"869ef43c","setDiamond(address)":"76ed535a","setEndedEpoch(uint256)":"13883251","setGapsEpochCount(uint256)":"9c09e82d","setLastCommitedEpoch(uint256)":"0ac25f10","setLockedBalance(uint256)":"3116eeda","setMaxPaidEpoch(uint256)":"04f1bd56","setMinWorkers(uint256)":"7d1fd49e","setPricePerCuPerEpoch(uint256)":"9276ef6d","setTargetWorkers(uint256)":"e116568f","setTotalBalance(uint256)":"c9ed5008","setWorkerCount(uint256)":"3d0bdad7","stop()":"07da68f5","targetWorkers()":"2943dcab","transferOwnership(address)":"f2fde38b","withdraw(uint256)":"2e1a7d4d","withdrawRewards(bytes32)":"7dfb6626"},"storageLayout":{"storage":[],"types":{}},"devdoc":{"version":1,"kind":"dev","methods":{"activateWorker(bytes32,bytes32)":{"details":"Set offchain worker ID for a corresponding onchain worker for a deal"},"addProviderToAccessList(address)":{"details":"Adds a provider to the access list"},"addWorker(address,(bytes32,bytes32[]),bytes32)":{"details":"Adds a compute unit to the deal","params":{"computeProvider":"The compute provider address","peerId":"The peer ID","workerData":"The worker with data"}},"appCID()":{"details":"Returns the app CID"},"changeProvidersAccessType(uint8)":{"details":"Change the providers access type"},"computePeerUsed(bytes32)":{"details":"Returns the boolean flag indicating whether the peer exists in the deal"},"creationBlock()":{"details":"Returns the creation block of the deal"},"cuCountPerWorker()":{"details":"Returns number of CUs in a worker"},"depositFromOwner(uint256,uint8)":{"details":"Deposits payment token to the deal"},"effectors()":{"details":"Returns the effector CIDs"},"getActivatedWorkerCount()":{"details":"Returns the worker count. Worker is a compute unit that has a worker ID"},"getFreeBalance()":{"details":"Returns the free balance of the deal"},"getMaxPaidEpoch()":{"details":"Returns the max paid epoch"},"getProtocolVersion()":{"details":"Returns the protocol version"},"getRewardAmount(bytes32)":{"details":"Returns the reward amount by compute unit ID"},"getStatus()":{"details":"Returns the status of the deal"},"getWorker(bytes32)":{"details":"Returns worker by ID"},"getWorkerCount()":{"details":"Returns total number of workers"},"getWorkerCount(address)":{"details":"Returns number of workers in provider"},"getWorkers()":{"details":"Returns workers registered in this deal"},"isProviderAllowed(address)":{"details":"Returns the boolean indicating whether the provider is allowed or not"},"maxWorkersPerProvider()":{"details":"Returns the max number of workers per provider"},"minWorkers()":{"details":"Returns the min number of workers"},"multicall(bytes[])":{"details":"Receives and executes a batch of function calls on this contract."},"owner()":{"details":"Returns the address of the current owner."},"paymentToken()":{"details":"Returns the payment token address"},"pricePerCuPerEpoch()":{"details":"Returns the price per CU per epoch"},"providersAccessType()":{"details":"Returns the providers access type"},"removeProviderFromAccessList(address)":{"details":"Removes a provider from the access list"},"removeStaleWorkers(bytes32[])":{"details":"Allows oracle to remove worker from a deal that is not paying workers."},"removeWorker(bytes32)":{"details":"Removes a worker from the deal"},"renounceOwnership()":{"details":"Leaves the contract without owner. It will not be possible to call `onlyOwner` functions. Can only be called by the current owner. NOTE: Renouncing ownership will leave the contract without an owner, thereby disabling any functionality that is only available to the owner."},"setAppCID((bytes4,bytes32))":{"details":"Sets the app CID"},"stop()":{"details":"Stop the deal"},"targetWorkers()":{"details":"Returns the max number of workers"},"transferOwnership(address)":{"details":"Transfers ownership of the contract to a new account (`newOwner`). Can only be called by the current owner."},"withdraw(uint256)":{"details":"Withdraws payment token from the deal"},"withdrawRewards(bytes32)":{"details":"Withdraws rewards from the deal by compute unit ID"}},"events":{"AppCIDChanged((bytes4,bytes32))":{"details":"Emitted when the app CID is changed","params":{"newAppCID":"The new app CID"}},"DealEnded(uint256)":{"details":"Emitted when a deal is ended. This event can be emitted in the not-ended epoch. It can be emitted after the ended epoch in any epoch"},"Deposited(uint256)":{"details":"Emitted when a owner deposits payment token to the deal"},"Initialized(uint64)":{"details":"Triggered when the contract has been initialized or reinitialized."},"MaxPaidEpochUpdated(uint256)":{"details":"Emitted when a max paid epoch is updated"},"ProviderAddedToAccessList(address)":{"details":"Emitted when a provider is added to the access list","params":{"provider":"The provider address"}},"ProviderRemovedFromAccessList(address)":{"details":"Emitted when a provider is removed from the access list","params":{"provider":"The provider address"}},"ProvidersAccessTypeChanged(uint8)":{"details":"Emitted when the providers access type is changed","params":{"newAccessType":"The new access type"}},"RewardWithdrawn(bytes32,uint256,uint256)":{"details":"Emitted when a compute unit withdraws rewards from the deal"},"Withdrawn(uint256)":{"details":"Emitted when a owner withdraws payment token from the deal"},"WorkerIdUpdated(bytes32,bytes32)":{"details":"Emitted when a worker ID is updated","params":{"offchainWorkerId":"The new worker ID","onchainWorkerId":"The worker"}},"WorkerJoined(bytes32,bytes32)":{"details":"Emitted when a new worker is added","params":{"onchainId":"The worker ID","peerId":"The id of compute peer"}},"WorkerRemoved(bytes32,bytes32)":{"details":"Emitted when a worker is removed","params":{"onchainId":"The worker onchain ID","peerId":"The id of compute peer"}}},"errors":{"AddressEmptyCode(address)":[{"details":"There's no code at `target` (it is not a contract)."}],"FailedCall()":[{"details":"A call to an address target failed. The target may have reverted."}],"InvalidInitialization()":[{"details":"The contract is already initialized."}],"NotInitializing()":[{"details":"The contract is not initializing."}],"OwnableInvalidOwner(address)":[{"details":"The owner is not a valid owner account. (eg. `address(0)`)"}],"OwnableUnauthorizedAccount(address)":[{"details":"The caller account is not authorized to perform an operation."}],"ReentrancyGuardReentrantCall()":[{"details":"Unauthorized reentrant call."}]}},"id":108}