{"abi":[{"type":"function","name":"submitCheckpoint","inputs":[{"name":"checkpoint","type":"tuple","internalType":"struct BottomUpCheckpoint","components":[{"name":"subnetID","type":"tuple","internalType":"struct SubnetID","components":[{"name":"root","type":"uint64","internalType":"uint64"},{"name":"route","type":"address[]","internalType":"address[]"}]},{"name":"blockHeight","type":"uint256","internalType":"uint256"},{"name":"blockHash","type":"bytes32","internalType":"bytes32"},{"name":"nextConfigurationNumber","type":"uint64","internalType":"uint64"},{"name":"msgs","type":"tuple[]","internalType":"struct IpcEnvelope[]","components":[{"name":"kind","type":"uint8","internalType":"enum IpcMsgKind"},{"name":"to","type":"tuple","internalType":"struct IPCAddress","components":[{"name":"subnetId","type":"tuple","internalType":"struct SubnetID","components":[{"name":"root","type":"uint64","internalType":"uint64"},{"name":"route","type":"address[]","internalType":"address[]"}]},{"name":"rawAddress","type":"tuple","internalType":"struct FvmAddress","components":[{"name":"addrType","type":"uint8","internalType":"uint8"},{"name":"payload","type":"bytes","internalType":"bytes"}]}]},{"name":"from","type":"tuple","internalType":"struct IPCAddress","components":[{"name":"subnetId","type":"tuple","internalType":"struct SubnetID","components":[{"name":"root","type":"uint64","internalType":"uint64"},{"name":"route","type":"address[]","internalType":"address[]"}]},{"name":"rawAddress","type":"tuple","internalType":"struct FvmAddress","components":[{"name":"addrType","type":"uint8","internalType":"uint8"},{"name":"payload","type":"bytes","internalType":"bytes"}]}]},{"name":"nonce","type":"uint64","internalType":"uint64"},{"name":"value","type":"uint256","internalType":"uint256"},{"name":"message","type":"bytes","internalType":"bytes"}]}]},{"name":"signatories","type":"address[]","internalType":"address[]"},{"name":"signatures","type":"bytes[]","internalType":"bytes[]"}],"outputs":[],"stateMutability":"nonpayable"},{"type":"function","name":"validateActiveQuorumSignatures","inputs":[{"name":"signatories","type":"address[]","internalType":"address[]"},{"name":"hash","type":"bytes32","internalType":"bytes32"},{"name":"signatures","type":"bytes[]","internalType":"bytes[]"}],"outputs":[],"stateMutability":"view"},{"type":"event","name":"ActiveValidatorCollateralUpdated","inputs":[{"name":"validator","type":"address","indexed":false,"internalType":"address"},{"name":"newPower","type":"uint256","indexed":false,"internalType":"uint256"}],"anonymous":false},{"type":"event","name":"ActiveValidatorLeft","inputs":[{"name":"validator","type":"address","indexed":false,"internalType":"address"}],"anonymous":false},{"type":"event","name":"ActiveValidatorReplaced","inputs":[{"name":"oldValidator","type":"address","indexed":false,"internalType":"address"},{"name":"newValidator","type":"address","indexed":false,"internalType":"address"}],"anonymous":false},{"type":"event","name":"ConfigurationNumberConfirmed","inputs":[{"name":"number","type":"uint64","indexed":false,"internalType":"uint64"}],"anonymous":false},{"type":"event","name":"NewActiveValidator","inputs":[{"name":"validator","type":"address","indexed":false,"internalType":"address"},{"name":"power","type":"uint256","indexed":false,"internalType":"uint256"}],"anonymous":false},{"type":"event","name":"NewCollateralRelease","inputs":[{"name":"validator","type":"address","indexed":false,"internalType":"address"},{"name":"amount","type":"uint256","indexed":false,"internalType":"uint256"},{"name":"releaseBlock","type":"uint256","indexed":false,"internalType":"uint256"}],"anonymous":false},{"type":"event","name":"NewWaitingValidator","inputs":[{"name":"validator","type":"address","indexed":false,"internalType":"address"},{"name":"power","type":"uint256","indexed":false,"internalType":"uint256"}],"anonymous":false},{"type":"event","name":"Paused","inputs":[{"name":"account","type":"address","indexed":false,"internalType":"address"}],"anonymous":false},{"type":"event","name":"Unpaused","inputs":[{"name":"account","type":"address","indexed":false,"internalType":"address"}],"anonymous":false},{"type":"event","name":"WaitingValidatorCollateralUpdated","inputs":[{"name":"validator","type":"address","indexed":false,"internalType":"address"},{"name":"newPower","type":"uint256","indexed":false,"internalType":"uint256"}],"anonymous":false},{"type":"event","name":"WaitingValidatorLeft","inputs":[{"name":"validator","type":"address","indexed":false,"internalType":"address"}],"anonymous":false},{"type":"error","name":"AddressShouldBeValidator","inputs":[]},{"type":"error","name":"CannotConfirmFutureChanges","inputs":[]},{"type":"error","name":"EnforcedPause","inputs":[]},{"type":"error","name":"ExpectedPause","inputs":[]},{"type":"error","name":"InvalidCheckpointEpoch","inputs":[]},{"type":"error","name":"InvalidSignatureErr","inputs":[{"name":"","type":"uint8","internalType":"uint8"}]},{"type":"error","name":"MaxMsgsPerBatchExceeded","inputs":[]},{"type":"error","name":"NotValidator","inputs":[{"name":"","type":"address","internalType":"address"}]},{"type":"error","name":"PQDoesNotContainAddress","inputs":[]},{"type":"error","name":"PQEmpty","inputs":[]},{"type":"error","name":"ReentrancyError","inputs":[]}],"bytecode":{"object":"0x608060405234801561001057600080fd5b50612d5f806100206000396000f3fe608060405234801561001057600080fd5b50600436106100365760003560e01c806379979f571461003b578063cc2dc2b914610050575b600080fd5b61004e610049366004611c02565b610063565b005b61004e61005e366004611e17565b6101ad565b61006b61024d565b61007485610292565b60008560405160200161008791906120f8565b60408051601f1981840301815291905280516020909101206003546001549192506100b19161229a565b8660200135036101a5576100ff85858080602002602001604051908101604052809392919081815260200183836020028082843760009201919091525085925061005e9150869050876122ad565b6020808701356000908152601a90915260409020869061011f82826128fa565b5050602086013560015560055460405163fba0fa4d60e01b81526001600160a01b039091169063fba0fa4d906101599089906004016120f8565b600060405180830381600087803b15801561017357600080fd5b505af1158015610187573d6000803e3d6000fd5b506101a592506101a091505060808801606089016129f3565b610342565b505050505050565b60006101ba600a85610781565b905060006101c8600a610894565b6005549091506000906064906101e890600160e01b900460ff1684612330565b6101f29190612a10565b90506000806102048886858a8a6108ff565b91509150816102435780600581111561021f5761021f611ff3565b60405163282ef1c160e01b815260ff90911660048201526024015b60405180910390fd5b5050505050505050565b7fc451c9429c27db68f286ab8a68f311f1dccab703ba9423aed29cd397ae63f8635460ff16156102905760405163d93c066560e01b815260040160405180910390fd5b565b600554600160a01b90046001600160401b0316806102b360808401846122e7565b905011156102d45760405163351c700760e01b815260040160405180910390fd5b600554600160a01b90046001600160401b03166102f460808401846122e7565b9050036102ff575050565b60015460035461030f908261229a565b83602001351461033d578083602001351461033d5760405163fae4eadb60e01b815260040160405180910390fd5b505050565b60138054600091906001600160401b03908116908416106103765760405163040aaa0560e11b815260040160405180910390fd5b80546001600160401b03600160401b9091048116908416101561039857505050565b8054600160401b90046001600160401b0316805b846001600160401b0316816001600160401b031611610711576001600160401b0381166000908152600184016020526040812060028181015482549293506001600160a01b03169160ff16600381111561040857610408611ff3565b0361043d576001600160a01b0381166000908152600c8701602052604090206003016104376001840182612a32565b506106fd565b6003825460ff16600381111561045557610455611ff3565b0361053f5760008083600101805461046c906123ae565b80601f0160208091040260200160405190810160405280929190818152602001828054610498906123ae565b80156104e55780601f106104ba576101008083540402835291602001916104e5565b820191906000526020600020905b8154815290600101906020018083116104c857829003601f168201915b50505050508060200190518101906104fd9190612b08565b6001600160a01b0385166000908152600c8b016020526040902091935091506003016105298382612b9d565b50610538600a89018483610a4b565b50506106fd565b6000826001018054610550906123ae565b80601f016020809104026020016040519081016040528092919081815260200182805461057c906123ae565b80156105c95780601f1061059e576101008083540402835291602001916105c9565b820191906000526020600020905b8154815290600101906020018083116105ac57829003601f168201915b50505050508060200190518101906105e19190612c4e565b90506001835460ff1660038111156105fb576105fb611ff3565b036106815761060e600a88018383610aa1565b61061c601588018383610b88565b60058701546040516345f5448560e01b8152600481018390526001600160a01b03909116906345f5448590602401600060405180830381600087803b15801561066457600080fd5b505af1158015610678573d6000803e3d6000fd5b505050506106fb565b61068f600a88018383610c25565b8660050160009054906101000a90046001600160a01b03166001600160a01b0316635a627dbc826040518263ffffffff1660e01b81526004016000604051808303818588803b1580156106e157600080fd5b505af11580156106f5573d6000803e3d6000fd5b50505050505b505b6107078584610c98565b50506001016103ac565b5061071d846001612c67565b82546fffffffffffffffff00000000000000001916600160401b6001600160401b039283160217835560405190851681527f246f00b61ce672242f33bb680a47147cd54d3dfd04dbb76956ba42f88087bf639060200160405180910390a150505050565b80516060906000816001600160401b038111156107a0576107a0611c9e565b6040519080825280602002602001820160405280156107c9578160200160208202803683370190505b50905060005b82811015610889576107fa868683815181106107ed576107ed612c8e565b6020026020010151610cdf565b6108415784818151811061081057610810612c8e565b6020026020010151604051633b4f6e2b60e21b815260040161023a91906001600160a01b0391909116815260200190565b6108648686838151811061085757610857612c8e565b6020026020010151610cf5565b82828151811061087657610876612c8e565b60209081029190910101526001016107cf565b509150505b92915050565b6000806108a6836003015461ffff1690565b905060015b8161ffff168161ffff16116108f85761ffff811660009081526005850160205260409020546001600160a01b03166108e38582610cf5565b6108ed908561229a565b9350506001016108ab565b5050919050565b80516000908190600190829080820361092057505015915060029050610a41565b895181141580610931575088518114155b1561094457505015915060019050610a41565b60005b81811015610a20576000806109758a8a858151811061096857610968612c8e565b6020026020010151610d58565b509092509050600081600381111561098f5761098f611ff3565b146109a7578515600497509750505050505050610a41565b8c83815181106109b9576109b9612c8e565b60200260200101516001600160a01b0316826001600160a01b0316146109ec578515600397509750505050505050610a41565b8b83815181106109fe576109fe612c8e565b602002602001015185610a11919061229a565b94508260010192505050610947565b50878210610a375782600094509450505050610a41565b5050159150600590505b9550959350505050565b6001600160a01b03821660009081526002840160205260409020805490829055818103610a785750505050565b81811015610a9057610a8b848484610da5565b610a9b565b610a9b848484610fe7565b50505050565b6001600160a01b0382166000908152600284016020526040812060010154610aca908390612ca4565b6001600160a01b038416600090815260028087016020526040909120015490915081158015610af7575080155b15610b3c576001600160a01b03841660009081526002808701602052604082208281556001810183905590810182905590610b356003830182611b70565b5050610b5d565b6001600160a01b038416600090815260028601602052604090206001018290555b610b68858584610fe7565b82856001016000828254610b7c9190612ca4565b90915550505050505050565b8254600090610b97904361229a565b60408051808201825282815260208082018690526001600160a01b0387166000908152600189019091529190912091925090610bd39082611297565b604080516001600160a01b0386168152602081018590529081018390527f083b080788e20bd0930c2bca2ae4fbc51a59ced08c1b5992271f8cb439498a63906060015b60405180910390a15050505050565b6001600160a01b0382166000908152600284016020526040812060010154610c4e90839061229a565b6001600160a01b038416600090815260028601602052604081206001908101839055860180549293508492909190610c8790849061229a565b90915550610a9b9050848483610da5565b6001600160401b0381166000908152600180840160205260408220805460ff191681559190610cc990830182611b70565b5060020180546001600160a01b03191690555050565b6000610cee6003840183611303565b9392505050565b60006001835460ff166002811115610d0f57610d0f611ff3565b03610d3557506001600160a01b038116600090815260028301602052604090205461088e565b506001600160a01b03166000908152600291909101602052604090206001015490565b60008060008351604103610d925760208401516040850151606086015160001a610d8488828585611329565b955095509550505050610d9e565b50508151600091506002905b9250925092565b610db26003840183611303565b15610e0d57610dc56003840184846113f8565b604080516001600160a01b0384168152602081018390527f143db27bc2036653dc6f962ff9d0b803163d4af50c256ca9e6927b3d6dcd019791015b60405180910390a1505050565b825461ffff610100909104166000610e2a600386015461ffff1690565b90508061ffff168261ffff161115610e8957610e4a600386018686611427565b604080516001600160a01b0386168152602081018590527f2e8038f5812f763c6ef0c5427cb5a05ce6d7064af2ba7d1d270bc02660b019fd9101610c16565b600080610e9960038801886114ad565b9150915084811015610f3b57610eb260038801886114ef565b610ebf6006880187611303565b15610ed257610ed260068801888861154d565b610ee0600388018888611427565b610eee6006880188846115dd565b604080516001600160a01b038085168252881660208201527ffaeb8de771b867cf357f6b459a7002b62ec45d544a8078a3ecd91200cc826d7591015b60405180910390a150505050505050565b610f486006880187611303565b15610f9a57610f5b600688018888611663565b604080516001600160a01b0388168152602081018790527fda148fac2e1063174be7bc0895576bdaba90fd14e575463fa26a967cb895cadd9101610f2a565b610fa86006880188886115dd565b604080516001600160a01b0388168152602081018790527f19fe3ca603e87854a0747cc10abf06bac64d61bac73d6d15f2fd3ca448f152649101610f2a565b610ff46006840183611303565b1561109557806000036110485761100f60068401848461154d565b6040516001600160a01b03831681527f3168ba660eed6ef1dc2258b2247cc05fd0f2f350d39e6ad2e2ebc76a8000b40b90602001610e00565b61105660068401848461167d565b604080516001600160a01b0384168152602081018390527fda148fac2e1063174be7bc0895576bdaba90fd14e575463fa26a967cb895cadd9101610e00565b6110a26003840183611303565b6110bf57604051632a55ca5360e01b815260040160405180910390fd5b8060000361118e576110d56003840184846116a5565b6040516001600160a01b03831681527f4a4c5d1a281180eea1e99d8177fa4798b9f7e019d5c57e7d8d73c6a22199aa5b9060200160405180910390a1600683015461ffff161561033d5760008061112f60068601866114ad565b90925090506111416006860186611735565b61114f600386018684611427565b604080516001600160a01b0384168152602081018390527f2e8038f5812f763c6ef0c5427cb5a05ce6d7064af2ba7d1d270bc02660b019fd9101610c16565b61119c600384018484611793565b600683015461ffff166000036111b157505050565b6000806111c160038601866114ad565b90925090506000806111d660068801886114ad565b9150915080831015611258576111ef60038801886114ef565b6111fc6006880188611735565b61120a600388018884611427565b6112186006880188866115dd565b604080516001600160a01b038087168252841660208201527ffaeb8de771b867cf357f6b459a7002b62ec45d544a8078a3ecd91200cc826d759101610f2a565b604080516001600160a01b0388168152602081018790527f143db27bc2036653dc6f962ff9d0b803163d4af50c256ca9e6927b3d6dcd01979101610f2a565b815461ffff808216916000916112b69184916201000090910416612cb7565b61ffff811660009081526001808701602090815260409092208651815591860151918101919091559091506112ec908390612cb7565b845461ffff191661ffff9190911617909355505050565b6001600160a01b038116600090815260018301602052604081205461ffff161515610cee565b600080807f7fffffffffffffffffffffffffffffff5d576e7357a4501ddfe92f46681b20a084111561136457506000915060039050826113ee565b604080516000808252602082018084528a905260ff891692820192909252606081018790526080810186905260019060a0016020604051602081039080840390855afa1580156113b8573d6000803e3d6000fd5b5050604051601f1901519150506001600160a01b0381166113e4575060009250600191508290506113ee565b9250600091508190505b9450945094915050565b600061140484836117ad565b905060006114128484610cf5565b9050611420858584846117ed565b5050505050565b825460009061143b9061ffff166001612cb7565b6001600160a01b03831660008181526001870160209081526040808320805461ffff871661ffff19918216811790925581855260028b0190935290832080546001600160a01b031916909417909355875416909117865590915061149f8484610cf5565b905061142085858484611887565b6000806114b9846118cb565b600160009081526002850160205260408120546001600160a01b0316906114e08583610cf5565b919350909150505b9250929050565b6114f8826118cb565b815461ffff1661150a836001836118f4565b611515600182612cd2565b835461ffff191661ffff9190911617835561153083826119a9565b600061153e848460016119ee565b9050610a9b84846001846117ed565b600061155984836117ad565b845490915061ffff1661156d8583836118f4565b611578600182612cd2565b855461ffff191661ffff9190911617855561159385826119a9565b8161ffff168161ffff16036115a9575050505050565b60006115b68686856119ee565b90506115c486868584611a20565b6115cf8686856119ee565b90506101a586868584611a64565b82546000906115f19061ffff166001612cb7565b6001600160a01b03831660008181526001870160209081526040808320805461ffff871661ffff19918216811790925581855260028b0190935290832080546001600160a01b03191690941790935587541690911786559091506116558484610cf5565b905061142085858484611a20565b600061166f84836117ad565b905060006116558484610cf5565b600061168984836117ad565b905060006116978484610cf5565b905061142085858484611a64565b60006116b184836117ad565b845490915061ffff166116c58583836118f4565b6116d0600182612cd2565b855461ffff191661ffff919091161785556116eb85826119a9565b8161ffff168161ffff1603611701575050505050565b600061170e8686856119ee565b905061171c86868584611887565b6117278686856119ee565b90506101a5868685846117ed565b61173e826118cb565b815461ffff16611750836001836118f4565b61175b600182612cd2565b835461ffff191661ffff9190911617835561177683826119a9565b6000611784848460016119ee565b9050610a9b8484600184611a64565b600061179f84836117ad565b9050600061149f8484610cf5565b6001600160a01b038116600090815260018301602052604081205461ffff169081900361088e5760405163f2755e3760e01b815260040160405180910390fd5b60006117fa836002612ced565b855490915060009061ffff165b8061ffff168361ffff161161187e578061ffff168361ffff1610156118465761183c878785611837816001612cb7565b611aec565b9093509150611854565b6118518787856119ee565b91505b8382101561187e576118678784876118f4565b8294508460026118779190612ced565b9250611807565b50505050505050565b6000805b60018461ffff1611156101a557617fff600185901c1691506118ae8686846119ee565b9050808310156101a5576118c38683866118f4565b81935061188b565b805461ffff166000036118f1576040516340d9b01160e01b815260040160405180910390fd5b50565b825461ffff908116908316111561190d5761190d612d13565b825461ffff908116908216111561192657611926612d13565b61ffff9182166000818152600285016020818152604080842080549690971680855281852080546001600160a01b039889168088526001909b018552838720805461ffff19908116909417905590971680865291852080549091168617905591905283546001600160a01b03199081169096179093555281549092169091179055565b61ffff166000908152600282016020908152604080832080546001600160a01b031981169091556001600160a01b031683526001909301905220805461ffff19169055565b61ffff811660009081526002840160205260408120546001600160a01b0316611a178482610cf5565b95945050505050565b6000805b60018461ffff1611156101a557617fff600185901c169150611a478686846119ee565b9050808311156101a557611a5c8683866118f4565b819350611a24565b83546201fffe600184901b169060009061ffff165b8061ffff168361ffff161161187e578061ffff168361ffff161015611ab857611aae878785611aa9816001612cb7565b611b2e565b9093509150611ac6565b611ac38787856119ee565b91505b8382111561187e57611ad98784876118f4565b9193506201fffe600185901b1691611a79565b60008080611afb8787876119ee565b90506000611b0a8888876119ee565b9050818110611b1e57508492509050611b25565b8493509150505b94509492505050565b60008080611b3d8787876119ee565b90506000611b4c8888876119ee565b905081811115611b62578493509150611b259050565b509396939550929350505050565b508054611b7c906123ae565b6000825580601f10611b8c575050565b601f0160209004906000526020600020908101906118f191905b80821115611bba5760008155600101611ba6565b5090565b60008083601f840112611bd057600080fd5b5081356001600160401b03811115611be757600080fd5b6020830191508360208260051b85010111156114e857600080fd5b600080600080600060608688031215611c1a57600080fd5b85356001600160401b0380821115611c3157600080fd5b9087019060a0828a031215611c4557600080fd5b90955060208701359080821115611c5b57600080fd5b611c6789838a01611bbe565b90965094506040880135915080821115611c8057600080fd5b50611c8d88828901611bbe565b969995985093965092949392505050565b634e487b7160e01b600052604160045260246000fd5b604051601f8201601f191681016001600160401b0381118282101715611cdc57611cdc611c9e565b604052919050565b60006001600160401b03821115611cfd57611cfd611c9e565b5060051b60200190565b6001600160a01b03811681146118f157600080fd5b60006001600160401b03821115611d3557611d35611c9e565b50601f01601f191660200190565b6000611d56611d5184611ce4565b611cb4565b8381529050602080820190600585901b840186811115611d7557600080fd5b845b81811015611dec5780356001600160401b03811115611d965760008081fd5b8601601f81018913611da85760008081fd5b8035611db6611d5182611d1c565b8181528a86838501011115611dcb5760008081fd5b81868401878301376000918101860191909152855250928201928201611d77565b505050509392505050565b600082601f830112611e0857600080fd5b610cee83833560208501611d43565b600080600060608486031215611e2c57600080fd5b83356001600160401b0380821115611e4357600080fd5b818601915086601f830112611e5757600080fd5b81356020611e67611d5183611ce4565b82815260059290921b8401810191818101908a841115611e8657600080fd5b948201945b83861015611ead578535611e9e81611d07565b82529482019490820190611e8b565b9750508701359450506040860135915080821115611eca57600080fd5b50611ed786828701611df7565b9150509250925092565b60008235603e19833603018112611ef757600080fd5b90910192915050565b6001600160401b03811681146118f157600080fd5b8035611f2081611f00565b919050565b6000808335601e19843603018112611f3c57600080fd5b83016020810192503590506001600160401b03811115611f5b57600080fd5b8060051b36038213156114e857600080fd5b6000604083018235611f7e81611f00565b6001600160401b031684526020611f9784820185611f25565b604060208801529283905291600090606087015b81831015611fdb578435611fbe81611d07565b6001600160a01b0316815293830193600192909201918301611fab565b979650505050505050565b600381106118f157600080fd5b634e487b7160e01b600052602160045260246000fd5b60ff811681146118f157600080fd5b6000808335601e1984360301811261202f57600080fd5b83016020810192503590506001600160401b0381111561204e57600080fd5b8036038213156114e857600080fd5b81835281816020850137506000828201602090810191909152601f909101601f19169091010190565b60006120928283611ee1565b604084526120a36040850182611f6d565b90506120b26020840184611ee1565b848203602086015280356120c581612009565b60ff1682526120d76020820182612018565b9150604060208401526120ee60408401838361205d565b9695505050505050565b600060208083526121098485611ee1565b60a0808386015261211d60c0860183611f6d565b91506040838701356040870152606060408801356060880152606088013561214481611f00565b60806001600160401b03821660808a015261216260808b018b611f25565b601f198b8903810160a08d0152818952909350888801600585901b89018a018360005b8781101561227057848c8403018452813560be198736030181126121a857600080fd5b860180356121b581611fe6565b600381106121d357634e487b7160e01b600052602160045260246000fd5b84526121e1818f0182611ee1565b60c08f8601526121f460c0860182612086565b90506122028c830183611ee1565b8582038d8701526122138282612086565b9150506122218b8301611f15565b6001600160401b03168b86015281890135898601526122428d830183612018565b92508582038e87015261225682848361205d565b95505050508c820191508c84019350600181019050612185565b50909e9d5050505050505050505050505050565b634e487b7160e01b600052601160045260246000fd5b8082018082111561088e5761088e612284565b6000610cee368484611d43565b60008235603e198336030181126122d057600080fd5b9190910192915050565b6000813561088e81611f00565b6000808335601e198436030181126122fe57600080fd5b8301803591506001600160401b0382111561231857600080fd5b6020019150600581901b36038213156114e857600080fd5b808202811582820484141761088e5761088e612284565b5b8181101561235c5760008155600101612348565b5050565b600160401b82111561237457612374611c9e565b80548282558083101561033d57816000526020600020610a9b828201858301612347565b6000823560be198336030181126122d057600080fd5b600181811c908216806123c257607f821691505b6020821081036123e257634e487b7160e01b600052602260045260246000fd5b50919050565b600019600383901b1c191660019190911b1790565b61240781546123ae565b801561235c57601f81116001811461242157505060009055565b82600052602060002061243f601f840160051c820160018301612347565b60008085559055505050565b600081556001810180546000825580156124765781600052602060002061247482820182612347565b505b5050600060028201556118f1600382016123fd565b6000808335601e198436030181126124a257600080fd5b8301803591506001600160401b038211156124bc57600080fd5b6020019150368190038213156114e857600080fd5b601f82111561033d57806000526020600020601f840160051c810160208510156124f85750805b611420601f850160051c830182612347565b6001600160401b0383111561252157612521611c9e565b6125358361252f83546123ae565b836124d1565b6000601f84116001811461256357600085156125515750838201355b61255b86826123e8565b845550611420565b600083815260209020601f19861690835b828110156125945786850135825560209485019460019092019101612574565b50868210156125b15760001960f88860031b161c19848701351681555b505060018560011b0183555050505050565b6125cd82836122ba565b80356125d881611f00565b825467ffffffffffffffff19166001600160401b0382161783555060018083016020612606818501856122e7565b94506001600160401b038086111561262057612620611c9e565b61262a8685612360565b600093845282842093805b8781101561265757833561264881611d07565b86820155928401928601612635565b5060028801965061266a848a018a6122ba565b94508435925061267983612009565b865460ff191660ff84161790965560038701956126988585018661248b565b95509250818511156126ac576126ac611c9e565b6126c0856126ba89546123ae565b896124d1565b809150601f8511600181146126ee578186156126dc5750838301355b6126e687826123e8565b895550612745565b600088815260209020601f19871690835b8281101561271c57868601358255948701949089019087016126ff565b50878210156127395760001960f88960031b161c19858701351681555b505060018660011b0188555b50505050505050505050565b813561275c81611fe6565b6003811061277a57634e487b7160e01b600052602160045260246000fd5b60ff1982541660ff82168117835550506127a361279a60208401846122ba565b600183016125c3565b6127bc6127b360408401846122ba565b600583016125c3565b6127ec6127cb606084016122da565b600983016001600160401b0382166001600160401b03198254161781555050565b6080820135600a82015561280360a083018361248b565b610a9b8183600b860161250a565b600160401b83111561282557612825611c9e565b8054838255808410156128bc57600c81600c02600c8104831461284a5761284a612284565b85600c02600c8104871461286057612860612284565b6000858152602081209283019291909101905b828210156128b75780825561288a6001830161244b565b6128966005830161244b565b80600983015580600a8301556128ae600b83016123fd565b90830190612873565b505050505b5060008181526020812083915b858110156101a5576128e46128de8487612398565b83612751565b60209290920191600c91909101906001016128c9565b61290482836122ba565b803561290f81611f00565b825467ffffffffffffffff19166001600160401b038216178355506001808301602061293e60208501856122e7565b94506001600160401b0385111561295757612957611c9e565b6129618584612360565b600092835260208320925b8581101561298e57813561297f81611d07565b8482015590820190840161296c565b50505050505060208201356002820155604082013560038201556129d86129b7606084016122da565b600483016001600160401b0382166001600160401b03198254161781555050565b6129e560808301836122e7565b610a9b818360058601612811565b600060208284031215612a0557600080fd5b8135610cee81611f00565b600082612a2d57634e487b7160e01b600052601260045260246000fd5b500490565b818103612a3d575050565b612a4782546123ae565b6001600160401b03811115612a5e57612a5e611c9e565b612a7281612a6c84546123ae565b846124d1565b6000601f821160018114612aa05760008315612a8e5750848201545b612a9884826123e8565b855550611420565b600085815260209020601f19841690600086815260209020845b83811015612ada5782860154825560019586019590910190602001612aba565b5085831015612af85781850154600019600388901b60f8161c191681555b5050505050600190811b01905550565b60008060408385031215612b1b57600080fd5b82516001600160401b03811115612b3157600080fd5b8301601f81018513612b4257600080fd5b8051612b50611d5182611d1c565b81815260208781848601011115612b6657600080fd5b60005b83811015612b84578481018201518382018301528101612b69565b5060009282018101929092529401519395939450505050565b81516001600160401b03811115612bb657612bb6611c9e565b612bc481612a6c84546123ae565b602080601f831160018114612bf35760008415612be15750858301515b612beb85826123e8565b8655506101a5565b600085815260208120601f198616915b82811015612c2257888601518255948401946001909101908401612c03565b5085821015612af857939096015160001960f8600387901b161c19169092555050600190811b01905550565b600060208284031215612c6057600080fd5b5051919050565b6001600160401b03818116838216019080821115612c8757612c87612284565b5092915050565b634e487b7160e01b600052603260045260246000fd5b8181038181111561088e5761088e612284565b61ffff818116838216019080821115612c8757612c87612284565b61ffff828116828216039080821115612c8757612c87612284565b61ffff818116838216028082169190828114612d0b57612d0b612284565b505092915050565b634e487b7160e01b600052600160045260246000fdfea26469706673582212205dc160950e36e608703511772d0784e2b69f566d366252fa639c340cb2f9b11264736f6c63430008180033","linkReferences":{}},"methodIdentifiers":{"submitCheckpoint(((uint64,address[]),uint256,bytes32,uint64,(uint8,((uint64,address[]),(uint8,bytes)),((uint64,address[]),(uint8,bytes)),uint64,uint256,bytes)[]),address[],bytes[])":"79979f57","validateActiveQuorumSignatures(address[],bytes32,bytes[])":"cc2dc2b9"},"id":94}