{"abi":[{"type":"function","name":"run","inputs":[{"name":"k","type":"bytes32","internalType":"bytes32"},{"name":"h","type":"bytes32","internalType":"bytes32"}],"outputs":[{"name":"","type":"bytes32","internalType":"bytes32"}],"stateMutability":"nonpayable"},{"type":"error","name":"ActorNotFound","inputs":[]},{"type":"error","name":"BytesLengthMismatch","inputs":[{"name":"expected","type":"uint256","internalType":"uint256"},{"name":"actual","type":"uint256","internalType":"uint256"}]},{"type":"error","name":"FailToCallActor","inputs":[]},{"type":"error","name":"InvalidCodec","inputs":[{"name":"","type":"uint64","internalType":"uint64"}]},{"type":"error","name":"InvalidResponseLength","inputs":[]},{"type":"error","name":"NotEnoughBalance","inputs":[{"name":"balance","type":"uint256","internalType":"uint256"},{"name":"value","type":"uint256","internalType":"uint256"}]}],"bytecode":{"object":"0x60808060405234610016576112d2908161001c8239f35b600080fdfe6080604052600436101561001257600080fd5b6000803560e01c63c57fbcd41461002857600080fd5b3461013457604036600319011261013457610044600435610247565b61004f602435610247565b9061005981610593565b9182600101928360011161012f5760019061007383610593565b010180931161012f576100c06100c6926040519561009087610190565b6100ac61009b6105aa565b968789526020890197838952610900565b5085526100b98651610c35565b50856105c4565b836105c4565b516100fb576100f36100ee6100e96100e16020945151610344565b919015610137565b610406565b6104db565b604051908152f35b60405162461bcd60e51b815260206004820152600c60248201526b24b73b30b634b21021a127a960a11b6044820152606490fd5b610288565b80fd5b1561013e57565b60405162461bcd60e51b8152602060048201526014602482015273119b1d595b98d9481858dd1bdc8819985a5b195960621b6044820152606490fd5b634e487b7160e01b600052604160045260246000fd5b604081019081106001600160401b038211176101ab57604052565b61017a565b601f909101601f19168101906001600160401b038211908210176101ab57604052565b6001600160401b0381116101ab57601f01601f191660200190565b906101f8826101d3565b61020560405191826101b0565b8281528092610216601f19916101d3565b0190602036910137565b908151811015610231570160200190565b634e487b7160e01b600052603260045260246000fd5b9060405161025481610190565b60208082526020368184013760005b818110610271575090925050565b80856001921a6102818286610220565b5301610263565b634e487b7160e01b600052601160045260246000fd5b906020820180921161012f57565b906001820180921161012f57565b906002820180921161012f57565b906004820180921161012f57565b906008820180921161012f57565b9190820180921161012f57565b60005b8381106103045750506000910152565b81810151838201526020016102f4565b3d1561033f573d90610325826101d3565b9161033360405193846101b0565b82523d6000602084013e565b606090565b6005607f60991b0190813f156103f45760009182916040516103c360208201926379da5a8284528560408401528560608401526051608084015260c060a08401528281518060e08301526103a28161010094602086860191016102f1565b637076856560c0830152601f801991011681010360e08101845201826101b0565b51915af46103cf610314565b90156103e2576103de90610706565b9091565b604051638a7db5bf60e01b8152600490fd5b60405163064d954b60e41b8152600490fd5b600460ff61041383610aac565b93919290921603610480576001600160401b03166000190161043c57610438916107c1565b5090565b606460405162461bcd60e51b815260206004820152602060248201527f54686572652073686f756c64206265206f6e6c79206f6e6520656c656d656e746044820152fd5b60405162461bcd60e51b815260206004820152601f60248201527f696e76616c6964206d616a20286578706563746564204d616a417272617929006044820152606490fd5b908160011b918083046002149015171561012f57565b8051602090602081036105345750906000916000915b8183106104fe5750505090565b90919260ff60f81b6105108584610220565b5116908460031b918583046008148615171561012f576001921c17930191906104f1565b6044906040519063c1cd44b360e01b8252602060048301526024820152fd5b601781116105615750600190565b60ff811161056f5750600290565b61ffff811161057e5750600390565b63ffffffff101561058e57600990565b600590565b5161059d81610553565b90810180911161012f5790565b604051906105b782610190565b6000602083606081520152565b81516106089291906001600160401b038116906017821161060b576105f39150604060ff845192161790610e39565b505b51906105ff6105aa565b5080519161106a565b50565b5060ff81116106305761062a906106228351610dd4565b508251610ff6565b506105f5565b61ffff811161064f5761062a906106478351610d6f565b508251610f88565b63ffffffff81116106705761062a906106688351610d0a565b508251610f18565b61062a9061067e8351610ca5565b508251610ea4565b909160608284031261070157815160208301519093906001600160401b0390818116810361070157936040810151918211610701570181601f820112156107015780516106d2816101d3565b926106e060405194856101b0565b81845260208284010111610701576106fe91602080850191016102f1565b90565b600080fd5b6107199060208082518301019101610686565b9291906001600160401b038116806107495750508251610737579190565b604051630e74990760e01b8152600490fd5b6051811490811561078a575b50156107675750825115610737579190565b60405163f1f6bced60e01b81526001600160401b03919091166004820152602490fd5b607191501438610755565b1561079c57565b634e487b7160e01b600052600160045260246000fd5b600019811461012f5760010190565b916107ce60009284610b5c565b908160ff60018060401b03809316941660068114809181156108e6575b501561088a57610863575b505061080282826102e4565b61080b836101ee565b94829060005b83831061082857505050506106fe929394506102e4565b61085b60019161084961083b868d610220565b516001600160f81b03191690565b841a610855828c610220565b536107b2565b920191610811565b60ff935061088391925061087960029188610b5c565b9416941614610795565b38806107f6565b60405162461bcd60e51b815260206004820152602e60248201527f696e76616c6964206d616a20286578706563746564204d616a546167206f722060448201526d4d616a42797465537472696e672960901b6064820152608490fd5b6002915014386107eb565b601f1981019190821161012f57565b906109096105aa565b50601f811680610938575b50806020830152604051908183526000825281016020019081106107015760405290565b6020036020811161012f57810180911161012f5738610914565b9061095b6105aa565b508051906109676105aa565b506109758151831115611063565b8251519161098381846102e4565b60209260208601518211610a00575b6020918651838151978201019682116109f8575b505001915b808210156109d05750600019906020036101000a019081199051169082511617905290565b9091926109ec6109e66109f2928651815261029e565b9461029e565b926108f1565b906109ab565b5238806109a6565b610a12610a0c836104c5565b87611285565b610992565b15610a1e57565b60405162461bcd60e51b815260206004820152602560248201527f63616e6e6f742068616e646c6520686561646572732077697468206578747261604482015264203e20323760d81b6064820152608490fd5b15610a7857565b60405162461bcd60e51b815260206004820152600c60248201526b34b73b30b634b21031b137b960a11b6044820152606490fd5b90610ab682611159565b91601f60078460051c169316610ace601c8210610a17565b60188110610b555760188114610b335760198114610b1f57601a8114610b095790610afe601b610b039314610795565b611245565b90600990565b50610b1863ffffffff91611205565b1690600590565b50610b2c61ffff916111c5565b1690600390565b50610b3f60ff91611178565b1691610b4e6018841015610a71565b9190600290565b9160019150565b9091610b71610b6b848461119a565b936102ac565b91601f60078560051c169416610b89601c8210610a17565b60188110610c2f5760188114610c0a57908160198596959314610bf357601a8114610bd35791610bc791610bc2601b610bcd9514610795565b61125e565b936102d6565b91929190565b50610be663ffffffff92610bec9261121e565b946102c8565b9293169190565b50610c0461ffff92610bec926111de565b946102ba565b50610c1a610b6b8460ff9361119a565b921692610c2a6018851015610a71565b929190565b92919050565b610c3d6105aa565b50805151600181019081811161012f576020830151811015610c76575b608260208451928301015380518211610c7257505090565b5290565b8160011b8281046002148315171561012f57610c9f90610c9885519186610900565b5084610952565b50610c5a565b610cad6105aa565b50805151600181019081811161012f576020830151811015610ce2575b605b60208451928301015380518211610c7257505090565b8160011b8281046002148315171561012f57610d0490610c9885519186610900565b50610cca565b610d126105aa565b50805151600181019081811161012f576020830151811015610d47575b605a60208451928301015380518211610c7257505090565b8160011b8281046002148315171561012f57610d6990610c9885519186610900565b50610d2f565b610d776105aa565b50805151600181019081811161012f576020830151811015610dac575b605960208451928301015380518211610c7257505090565b8160011b8281046002148315171561012f57610dce90610c9885519186610900565b50610d94565b610ddc6105aa565b50805151600181019081811161012f576020830151811015610e11575b605860208451928301015380518211610c7257505090565b8160011b8281046002148315171561012f57610e3390610c9885519186610900565b50610df9565b90610e426105aa565b50815151600181019182821161012f576020840151821015610e75575b60208451928301015380518211610c7257505090565b8260011b8381046002148415171561012f57610e9e90610e9786519187610900565b5085610952565b50610e5f565b90610ead6105aa565b5081515180600801918260081161012f5760208401518311610ef0575b835191820160080180516001600160401b031916909117905280518211610c7257505090565b8260011b8381046002148415171561012f57610f1290610e9786519187610900565b50610eca565b90610f216105aa565b5081515180600401918260041161012f5760208401518311610f60575b60048451928301019063ffffffff1982511617905280518211610c7257505090565b8260011b8381046002148415171561012f57610f8290610e9786519187610900565b50610f3e565b90610f916105aa565b5081515180600201918260021161012f5760208401518311610fce575b60028451928301019061ffff1982511617905280518211610c7257505090565b8260011b8381046002148415171561012f57610ff090610e9786519187610900565b50610fae565b90610fff6105aa565b5081515180600101918260011161012f576020840151831161103b575b60018451928301019060ff1982511617905280518211610c7257505090565b8260011b8381046002148415171561012f5761105d90610e9786519187610900565b5061101c565b1561070157565b91906110746105aa565b506110828151831115611063565b82515191602061109282856102e4565b9281938287015181116110ff575b8651838151978201019682116110f7575b505001915b808210156110db5750600019906020036101000a019081199051169082511617905290565b9091926109ec6109e66110f1928651815261029e565b906110b6565b5238806110b1565b61111161110b826104c5565b88611285565b6110a0565b1561111d57565b60405162461bcd60e51b8152602060048201526014602482015273736c6963696e67206f7574206f662072616e676560601b6044820152606490fd5b611167600182511015611116565b805115610231576020015160f81c90565b611186600282511015611116565b805160011015610231576021015160f81c90565b90815191600182019283831161012f576111be936111b9911015611116565b610220565b5160f81c90565b6021906111d6600382511015611116565b015160f01c90565b90815191600282019283831161012f576020936111fc911015611116565b01015160f01c90565b602190611216600582511015611116565b015160e01c90565b90815191600482019283831161012f5760209361123c911015611116565b01015160e01c90565b602190611256600982511015611116565b015160c01c90565b90815191600882019283831161012f5760209361127c911015611116565b01015160c01c90565b906106089161129681519282610900565b5061095256fea2646970667358221220f0ddb6c9713d3a02925b41ccf614a341f2d802573d7b3d92ce244462cc97539964736f6c63430008180033","linkReferences":{}},"methodIdentifiers":{"run(bytes32,bytes32)":"c57fbcd4"},"devdoc":{"version":1,"kind":"dev","methods":{"run(bytes32,bytes32)":{"params":{"h":"the H parameter (aka \"local\" nonce) for RandomX, could be an arbitrary string.","k":"the K parameter (aka \"global\" nonce) for RandomX, could up to 60 bytes."}}}},"id":104}