{"abi":[{"type":"function","name":"run","inputs":[{"name":"ks","type":"bytes32[]","internalType":"bytes32[]"},{"name":"hs","type":"bytes32[]","internalType":"bytes32[]"}],"outputs":[{"name":"","type":"bytes32[]","internalType":"bytes32[]"}],"stateMutability":"nonpayable"},{"type":"error","name":"ActorNotFound","inputs":[]},{"type":"error","name":"BytesLengthMismatch","inputs":[{"name":"expected","type":"uint256","internalType":"uint256"},{"name":"actual","type":"uint256","internalType":"uint256"}]},{"type":"error","name":"FailToCallActor","inputs":[]},{"type":"error","name":"InvalidCodec","inputs":[{"name":"","type":"uint64","internalType":"uint64"}]},{"type":"error","name":"InvalidResponseLength","inputs":[]},{"type":"error","name":"NotEnoughBalance","inputs":[{"name":"balance","type":"uint256","internalType":"uint256"},{"name":"value","type":"uint256","internalType":"uint256"}]}],"bytecode":{"object":"0x60808060405234601557611429908161001a8239f35b5f80fdfe60806040526004361015610011575f80fd5b5f3560e01c63e6bdceb814610024575f80fd5b346100c65760403660031901126100c6576004356001600160401b0381116100c657610054903690600401610138565b602435906001600160401b0382116100c6576100b66100ab6100a661009e6100996100866100c2973690600401610138565b61009387518251146101ce565b8661037a565b61054a565b919015610211565b61061b565b918251905114610254565b60405191829182610195565b0390f35b5f80fd5b634e487b7160e01b5f52604160045260245ffd5b604081019081106001600160401b038211176100f957604052565b6100ca565b601f909101601f19168101906001600160401b038211908210176100f957604052565b6001600160401b0381116100f95760051b60200190565b9080601f830112156100c657813561014f81610121565b9261015d60405194856100fe565b81845260208085019260051b8201019283116100c657602001905b8282106101855750505090565b8135815260209182019101610178565b60206040818301928281528451809452019201905f5b8181106101b85750505090565b82518452602093840193909201916001016101ab565b156101d557565b60405162461bcd60e51b8152602060048201526014602482015273092dcecc2d8d2c840d2dce0eae840d8cadccee8d60631b6044820152606490fd5b1561021857565b60405162461bcd60e51b8152602060048201526014602482015273119b1d595b98d9481858dd1bdc8819985a5b195960621b6044820152606490fd5b1561025b57565b60405162461bcd60e51b8152602060048201526015602482015274092dcecc2d8d2c840e4cae6ead8e840d8cadccee8d605b1b6044820152606490fd5b634e487b7160e01b5f52601160045260245ffd5b90602082018092116102ba57565b610298565b90600182018092116102ba57565b90600282018092116102ba57565b90600482018092116102ba57565b90600882018092116102ba57565b919082018092116102ba57565b9061030e82610121565b61031b60405191826100fe565b828152809261032c601f1991610121565b01905f5b82811061033c57505050565b806060602080938501015201610330565b634e487b7160e01b5f52603260045260245ffd5b80518210156103755760209160051b010190565b61034d565b61038f600161038983516106da565b906102f7565b9061039a8151610304565b935f925b82518410156103f1576103e96001916103c06103ba8787610361565b5161075d565b6103ca878a610361565b526103d58689610361565b506103896103e3878a610361565b516107a1565b93019261039e565b6104029194935061038984516106da565b9161040d8151610304565b915f935b82518510156104585761045060019161042d6103ba8887610361565b6104378888610361565b526104428787610361565b506103896103e38888610361565b940193610411565b610464919594506107d1565b9261046e84610800565b8451610483906001600160401b031685610d06565b5f5b85518110156104ab57806104a561049e6001938a610361565b518761080d565b01610485565b508151929550909350906104c8906001600160401b031683610d06565b5f5b83518110156104f057806104ea6104e360019388610361565b518561080d565b016104ca565b5092506104fd91506108f6565b90565b6001600160401b0381116100f957601f01601f191660200190565b3d15610545573d9061052c82610500565b9161053a60405193846100fe565b82523d5f602084013e565b606090565b6005607f60991b013f1561060c576040805163fa572b2a60208083019182525f938301849052606083018490526051608084015260c060a0840152845160e0808501829052949586959394936105d6938593919282910161010085015e8581018201879052637076856260a0870152601f01601f199081168601909101919091039081018352826100fe565b51906005607f60991b015af46105ea61051b565b90156105fd576105f9906109ba565b9091565b638a7db5bf60e01b5f5260045ffd5b63064d954b60e41b5f5260045ffd5b600161062682610a3e565b91900361069e576106379082610aaa565b61064082610121565b9261064e60405194856100fe565b828452601f1961065d84610121565b013660208601375f915b838310610675575050505090565b61068b61068460019284610ae2565b9190610c2c565b6106958588610361565b52920191610667565b60405162461bcd60e51b8152602060048201526014602482015273092dcecc2d8d2c840e8eae0d8ca40d8cadccee8d60631b6044820152606490fd5b601781116106e85750600190565b60ff81116106f65750600290565b61ffff81116107055750600390565b63ffffffff101561071557600990565b600590565b9061072482610500565b61073160405191826100fe565b8281528092610742601f1991610500565b0190602036910137565b908151811015610375570160200190565b90604080519061076d81836100fe565b60208252601f19013660208301375f5b6020811061078a57509150565b80846001921a61079a828561074c565b530161077d565b516107ab816106da565b9081018091116102ba5790565b604051906107c5826100de565b5f602083606081520152565b5f604051916107df836100de565b6107fb6107ea6107b8565b918285526020850192848452610cb5565b505290565b600261080b91610d06565b565b815161085e9291906001600160401b031660178111610861578151610849916108439061083c60405b60ff1690565b1760ff1690565b90610fe6565b505b51906108556107b8565b50805191611254565b50565b60ff811161088e578151610888919061088090601860405b1790610fe6565b5082516111d4565b5061084b565b61ffff81116108b357815161088891906108ab9060196040610879565b50825161115b565b63ffffffff81116108da57815161088891906108d290601a6040610879565b5082516110e2565b815161088891906108ee90601b6040610879565b508251611064565b602081015161090457515190565b60405162461bcd60e51b815260206004820152600c60248201526b24b73b30b634b21021a127a960a11b6044820152606490fd5b90916060828403126100c657815160208301519093906001600160401b03811681036100c657604084015190936001600160401b0382116100c6570181601f820112156100c65780519061098b82610500565b9261099960405194856100fe565b828452602083830101116100c657815f9260208093018386015e8301015290565b6109cd9060208082518301019101610938565b9291906001600160401b038116806109fa57505082516109eb579190565b630e74990760e01b5f5260045ffd5b60518114908115610a33575b5015610a1857508251156109eb579190565b63f1f6bced60e01b5f526001600160401b031660045260245ffd5b60719150145f610a06565b9060ff610a4d5f600494610f0c565b94919290921603610a65576001600160401b03169190565b60405162461bcd60e51b815260206004820152601f60248201527f696e76616c6964206d616a20286578706563746564204d616a417272617929006044820152606490fd5b610a4d6004939260ff92610f0c565b15610ac057565b634e487b7160e01b5f52600160045260245ffd5b5f1981146102ba5760010190565b9190610aee9083610f0c565b60ff819260018060401b031693166006811480918115610c0b575b5015610baf57610b7d575b50610b1f82826102f7565b610b288361071a565b9482905f5b838310610b425750505050906104fd916102f7565b610b75600191610b63610b55868661074c565b516001600160f81b03191690565b5f1a610b6f828c61074c565b53610ad4565b920191610b2d565b6002925060ff9150610b92610ba99186610f0c565b6001600160401b0390911694909390911614610ab9565b5f610b14565b60405162461bcd60e51b815260206004820152602e60248201527f696e76616c6964206d616a20286578706563746564204d616a546167206f722060448201526d4d616a42797465537472696e672960901b6064820152608490fd5b60029150145f610b09565b908160011b91808304600214901517156102ba57565b805160208103610c8157505f905f905b60208210610c4957505090565b90916001600160f81b0319610c5e848461074c565b5116908360031b91848304600814851517156102ba576001921c17920190610c3c565b63c1cd44b360e01b5f52602060045260245260445ffd5b601f198101919082116102ba57565b5f198101919082116102ba57565b90610cbe6107b8565b50601f811680610cec575b50806020830152604051908183525f825281016020019081106100c65760405290565b602003602081116102ba5781018091116102ba575f610cc9565b906001600160401b03811660178111610d2e5750905161085e916108439061083c6080610836565b905060ff8111610d5357815161085e9290610d4c9060186080610879565b50516111d4565b61ffff8111610d7757815161085e9290610d709060196080610879565b505161115b565b63ffffffff8111610d9d57815161085e9290610d9690601a6080610879565b50516110e2565b815161085e9290610db190601b6080610879565b5051611064565b90610dc16107b8565b508051610dcc6107b8565b50610dda825182111561124d565b82515191610de882846102f7565b9060208501518211610e60575b602091855183815196820101958211610e58575b505001905b6020811015610e32575f19906020036101000a019081199051169082511617905290565b9091610e4d610e47610e5392855181526102ac565b936102ac565b91610c98565b610e0e565b525f80610e09565b610e72610e6c83610c16565b866113dc565b610df5565b15610e7e57565b60405162461bcd60e51b815260206004820152602560248201527f63616e6e6f742068616e646c6520686561646572732077697468206578747261604482015264203e20323760d81b6064820152608490fd5b15610ed857565b60405162461bcd60e51b815260206004820152600c60248201526b34b73b30b634b21031b137b960a11b6044820152606490fd5b9091610f21610f1b848461133c565b936102bf565b91601f600585901c6007169416610f3a601c8210610e77565b60188110610fe05760188114610fbb57908160198596959314610fa457601a8114610f845791610f7891610f73601b610f7e9514610ab9565b6113b5565b936102e9565b91929190565b50610f9763ffffffff92610f9d9261138e565b946102db565b9293169190565b50610fb561ffff92610f9d92611367565b946102cd565b50610fcb610f1b8460ff9361133c565b921692610fdb6018851015610ed1565b929190565b92919050565b90610fef6107b8565b5081515160018101918282116102ba576020840151821015611026575b6020845192830101538051821161102257505090565b5290565b8260011b838104600214841517156102ba5761104f9061104886519187610cb5565b5085610db8565b5061100c565b601f81116102ba576101000a90565b9061106d6107b8565b508151518060080191826008116102ba57602084015183116110ba575b61109c6110976008611055565b610ca7565b90600885519384010191198251161790528051821161102257505090565b8260011b838104600214841517156102ba576110dc9061104886519187610cb5565b5061108a565b906110eb6107b8565b508151518060040191826004116102ba5760208401518311611133575b6111156110976004611055565b90600485519384010191198251161790528051821161102257505090565b8260011b838104600214841517156102ba576111559061104886519187610cb5565b50611108565b906111646107b8565b508151518060020191826002116102ba57602084015183116111ac575b61118e6110976002611055565b90600285519384010191198251161790528051821161102257505090565b8260011b838104600214841517156102ba576111ce9061104886519187610cb5565b50611181565b906111dd6107b8565b508151518060010191826001116102ba5760208401518311611225575b6112076110976001611055565b90600185519384010191198251161790528051821161102257505090565b8260011b838104600214841517156102ba576112479061104886519187610cb5565b506111fa565b156100c657565b9161125d6107b8565b5061126b825182111561124d565b60208351519261127b83856102f7565b8286015181116112e2575b8551838151968201019582116112da575b505001905b60208110156112c0575f19906020036101000a019081199051169082511617905290565b9091610e4d610e476112d592855181526102ac565b61129c565b525f80611297565b6112f46112ee82610c16565b876113dc565b611286565b1561130057565b60405162461bcd60e51b8152602060048201526014602482015273736c6963696e67206f7574206f662072616e676560601b6044820152606490fd5b9081519160018201928383116102ba576113609361135b9110156112f9565b61074c565b5160f81c90565b9081519160028201928383116102ba576020936113859110156112f9565b01015160f01c90565b9081519160048201928383116102ba576020936113ac9110156112f9565b01015160e01c90565b9081519160088201928383116102ba576020936113d39110156112f9565b01015160c01c90565b9061085e916113ed81519282610cb5565b50610db856fea2646970667358221220894199b766342a16a0631f1125feed0cab843f3372b4ce0395f8beea57213da364736f6c634300081a0033","linkReferences":{}},"methodIdentifiers":{"run(bytes32[],bytes32[])":"e6bdceb8"},"storageLayout":{"storage":[],"types":{}},"devdoc":{"version":1,"kind":"dev","methods":{"run(bytes32[],bytes32[])":{"params":{"hs":"array of the H parameter (aka \"local\" nonce) for RandomX, could be an arbitrary string.","ks":"array of the K parameter (aka \"global\" nonce) for RandomX, could up to 60 bytes."}}}},"id":134}