{"abi":[{"type":"function","name":"deployDeal","inputs":[{"name":"appCID_","type":"tuple","internalType":"struct CIDV1","components":[{"name":"prefixes","type":"bytes4","internalType":"bytes4"},{"name":"hash","type":"bytes32","internalType":"bytes32"}]},{"name":"paymentToken_","type":"address","internalType":"contract IERC20"},{"name":"depositAmount_","type":"uint256","internalType":"uint256"},{"name":"minWorkers_","type":"uint256","internalType":"uint256"},{"name":"targetWorkers_","type":"uint256","internalType":"uint256"},{"name":"cuCountPerWorker_","type":"uint256","internalType":"uint256"},{"name":"maxWorkersPerProvider_","type":"uint256","internalType":"uint256"},{"name":"pricePerCuPerEpoch_","type":"uint256","internalType":"uint256"},{"name":"effectors_","type":"tuple[]","internalType":"struct CIDV1[]","components":[{"name":"prefixes","type":"bytes4","internalType":"bytes4"},{"name":"hash","type":"bytes32","internalType":"bytes32"}]},{"name":"providersAccessType_","type":"uint8","internalType":"enum IConfig.AccessType"},{"name":"providersAccessList_","type":"address[]","internalType":"address[]"},{"name":"protocolVersion_","type":"uint256","internalType":"uint256"}],"outputs":[{"name":"","type":"address","internalType":"contract IDeal"}],"stateMutability":"nonpayable"},{"type":"function","name":"hasDeal","inputs":[{"name":"deal","type":"address","internalType":"contract IDeal"}],"outputs":[{"name":"","type":"bool","internalType":"bool"}],"stateMutability":"view"},{"type":"event","name":"DealCreated","inputs":[{"name":"owner","type":"address","indexed":true,"internalType":"address"},{"name":"deal","type":"address","indexed":false,"internalType":"contract IDeal"},{"name":"createdAtEpoch","type":"uint256","indexed":false,"internalType":"uint256"},{"name":"paymentToken","type":"address","indexed":false,"internalType":"contract IERC20"},{"name":"minWorkers","type":"uint256","indexed":false,"internalType":"uint256"},{"name":"targetWorkers","type":"uint256","indexed":false,"internalType":"uint256"},{"name":"cuCountPerWorker","type":"uint256","indexed":false,"internalType":"uint256"},{"name":"maxWorkersPerProvider","type":"uint256","indexed":false,"internalType":"uint256"},{"name":"pricePerCuPerEpoch","type":"uint256","indexed":false,"internalType":"uint256"},{"name":"effectors","type":"tuple[]","indexed":false,"internalType":"struct CIDV1[]","components":[{"name":"prefixes","type":"bytes4","internalType":"bytes4"},{"name":"hash","type":"bytes32","internalType":"bytes32"}]},{"name":"appCID","type":"tuple","indexed":false,"internalType":"struct CIDV1","components":[{"name":"prefixes","type":"bytes4","internalType":"bytes4"},{"name":"hash","type":"bytes32","internalType":"bytes32"}]},{"name":"providersAccessType_","type":"uint8","indexed":false,"internalType":"enum IConfig.AccessType"},{"name":"providersAccessList_","type":"address[]","indexed":false,"internalType":"address[]"},{"name":"protocolVersion_","type":"uint256","indexed":false,"internalType":"uint256"}],"anonymous":false},{"type":"error","name":"SafeERC20FailedOperation","inputs":[{"name":"token","type":"address","internalType":"address"}]}],"bytecode":{"object":"0x60808060405234601557610c2f908161001a8239f35b5f80fdfe60806040526004361015610011575f80fd5b5f803560e01c80631f488b1c1461008957632105305314610030575f80fd5b3461008657602036600319011261008657600435906001600160a01b038216820361008657505f80516020610bda8339815191529060018060a01b03165f52602052602060ff60405f2054166040519015158152f35b80fd5b50346105d45736600319016101a081126105d4576040136105d4576044356001600160a01b03811690036105d457610124356001600160401b0381116105d457366023820112156105d4576001600160401b036004820135116105d457366024826004013560061b830101116105d45760036101443510156105d45761016435916001600160401b0383116105d457366023840112156105d4576001600160401b036004840135116105d457366024846004013560051b850101116105d45760405163663c8ce960e01b602082019081523060248301525f80516020610bda833981519152939161017c604482016106e9565b60018060a01b0360443516608482015260843560a482015260a43560c482015260c43560e482015260e435610104820152610104356101248201526101a0610144820152610221816102096101dd6101c48301876004013560248901610709565b6101ee610164840161014435610758565b8281036023190161018484015260048a013560248b01610779565b610184356101a483015203601f1981018352826107bd565b6040519161037a90818401906001600160401b038211858310176106d55760609385936108608539308352604060208401525180918160408501528584015e5f848284010152601f8019910116010301905ff080156105c9576001600160a01b03165f8181526020949094526040909320805460ff191660011790556102e26102ba60c4356102b560a435610104356107e0565b6107e0565b7f60ac4d56f7e69877e4b95a6e91f4b3612278b580a93ea7637885a480e015031854906107e0565b6064351061067b576044356001600160a01b03165f9081527f60ac4d56f7e69877e4b95a6e91f4b3612278b580a93ea7637885a480e015031d602052604090205460ff1615610637576040516323b872dd60e01b602082015233602482015230604482015260648035818301528152610368906103606084826107bd565b604435610807565b60405160205f81830163095ea7b360e01b81528660248501526064356044850152604484526103986064856107bd565b835190826044355af15f513d82610610575b5050156105d8575b50823b156105d45760405163b6b55f2560e01b815260643560048201525f8160248183885af180156105c9576105b4575b50823b156105a55760405163f2fde38b60e01b8152336004820152828160248183885af180156105a957908391610590575b50507f7d4f8ec43464738265ced6b7ed5f90007e9b7c34318bdd82d9249328b50bd35754420342811161057c577f7d4f8ec43464738265ced6b7ed5f90007e9b7c34318bdd82d9249328b50bd3585490811561056857046001019182600111610554575061053b6020946105057f7b00e85ad1245f470d3d59f37039811adddb9148214d01b98f8004259dcd509d93604051958787528887015260018060a01b03604435166040870152608435606087015260a435608087015260c43560a087015260e43560c08701526101043560e08701526101c06101008701526101c0860190602481600401359101610709565b9061051361012086016106e9565b610524610160860161014435610758565b848203610180860152602481600401359101610779565b91610184356101a08201528033930390a2604051908152f35b634e487b7160e01b81526011600452602490fd5b634e487b7160e01b84526012600452602484fd5b634e487b7160e01b83526011600452602483fd5b8161059a916107bd565b6105a557815f610415565b5080fd5b6040513d85823e3d90fd5b6105c19192505f906107bd565b5f905f6103e3565b6040513d5f823e3d90fd5b5f80fd5b61060a9061036060405163095ea7b360e01b60208201528660248201525f6044820152604481526103606064826107bd565b5f6103b2565b90915061062f57506044356001600160a01b03163b15155b5f806103aa565b600114610628565b60405162461bcd60e51b815260206004820152601c60248201527b14185e5b595b9d081d1bdad95b881a5cc81b9bdd08185b1b1bddd95960221b6044820152606490fd5b60405162461bcd60e51b815260206004820152602c60248201527f4465706f73697420616d6f756e74206973206c657373207468616e206d696e6960448201526b1b5d5b481c995c5d5a5c995960a21b6064820152608490fd5b634e487b7160e01b5f52604160045260245ffd5b60043563ffffffff60e01b81168091036105d45781526020602435910152565b916020908281520191905f905b8082106107235750505090565b90919283359063ffffffff60e01b82168092036105d45760408160019382935260208701356020820152019401920190610716565b9060038210156107655752565b634e487b7160e01b5f52602160045260245ffd5b916020908281520191905f905b8082106107935750505090565b90919283359060018060a01b0382168092036105d457602081600193829352019401920190610786565b601f909101601f19168101906001600160401b038211908210176106d557604052565b818102929181159184041417156107f357565b634e487b7160e01b5f52601160045260245ffd5b905f602091828151910182855af1156105c9575f513d61085657506001600160a01b0381163b155b6108365750565b635274afe760e01b5f9081526001600160a01b0391909116600452602490fd5b6001141561082f56fe60a080604052346101765761037a803803809161001c828561018d565b8339810190604081830312610176578051906001600160a01b03821690818303610176576020810151906001600160401b03821161017657019183601f8401121561017657825161006c816101c4565b9361007a604051958661018d565b81855260208501956020838301011161017657815f926020809301885e8501015260805281516100bc575b60405161013c908161023e82396080518160180152f35b60206004916040519283809263d6a5a04b60e01b82525afa908115610182575f9161013a575b509051610129926001600160a01b03909216915f918291845af43d15610132573d9161010d836101c4565b9261011b604051948561018d565b83523d5f602085013e6101df565b505f80806100a5565b6060916101df565b90506020813d60201161017a575b816101556020938361018d565b810103126101765751916001600160a01b038316830361017657915f6100e2565b5f80fd5b3d9150610148565b6040513d5f823e3d90fd5b601f909101601f19168101906001600160401b038211908210176101b057604052565b634e487b7160e01b5f52604160045260245ffd5b6001600160401b0381116101b057601f01601f191660200190565b9061020357508051156101f457805190602001fd5b63d6bda27560e01b5f5260045ffd5b81511580610234575b610214575090565b639996b31560e01b5f9081526001600160a01b0391909116600452602490fd5b50803b1561020c56fe6080604081905263d6a5a04b60e01b81526020906004817f00000000000000000000000000000000000000000000000000000000000000006001600160a01b03165afa80156100b8575f9061005d575b6001600160a01b03166100e9565b5060203d6020116100b1575b6080601f8201601f1916810191906001600160401b0383119083101761009d57610098916040526080016100c3565b61004f565b634e487b7160e01b5f52604160045260245ffd5b503d610069565b6040513d5f823e3d90fd5b602090607f1901126100e5576080516001600160a01b03811681036100e55790565b5f80fd5b5f8091368280378136915af43d5f803e15610102573d5ff35b3d5ffdfea26469706673582212209e8befb8a27adafc76072b137ccad8a0e29edb55cf1b4ced930baf48e46bbf8a64736f6c634300081a003321811dc5bb11da2b2076245a2c14796806445512606a02297e6b92fb11728107a264697066735822122091ff19244c86fff5438a8e71144008a9de5a70d58345541996ac8b01e0a2a92064736f6c634300081a0033","linkReferences":{}},"methodIdentifiers":{"deployDeal((bytes4,bytes32),address,uint256,uint256,uint256,uint256,uint256,uint256,(bytes4,bytes32)[],uint8,address[],uint256)":"1f488b1c","hasDeal(address)":"21053053"},"storageLayout":{"storage":[],"types":{}},"devdoc":{"version":1,"kind":"dev","methods":{"deployDeal((bytes4,bytes32),address,uint256,uint256,uint256,uint256,uint256,uint256,(bytes4,bytes32)[],uint8,address[],uint256)":{"details":"Creates a new deal","params":{"appCID_":"The app cid of the deal","depositAmount_":"The deposit amount of the deal","effectors_":"The effectors of the deal","maxWorkersPerProvider_":"The max workers per provider of the deal","minWorkers_":"The min workers of the deal. Deel will be activated only if the number of workers is greater","paymentToken_":"The payment token of the deal. User can choose any ERC20 token for payment","pricePerCuPerEpoch_":"The price per CU per epoch of the deal","protocolVersion_":"Protocol version","providersAccessList_":"The providers access list of the deal","providersAccessType_":"The providers access type of the deal (None, Whitelist, Blacklist)","targetWorkers_":"The target workers of the deal. It's the max number of workers for the deal"},"returns":{"_0":"The deal address"}},"hasDeal(address)":{"details":"Returns true if the deal exists","params":{"deal":"The deal address"}}},"events":{"DealCreated(address,address,uint256,address,uint256,uint256,uint256,uint256,uint256,(bytes4,bytes32)[],(bytes4,bytes32),uint8,address[],uint256)":{"details":"Emitted when a new deal is created","params":{"appCID":"The app cid of the deal","createdAtEpoch":"The creation time of the deal in Epochs","cuCountPerWorker":"CU count per worker","deal":"The deal address","effectors":"The effectors of the deal","maxWorkersPerProvider":"The max workers per provider of the deal","minWorkers":"The min workers of the deal. Deel will be activated only if the number of workers is greater","owner":"The owner of the deal","paymentToken":"The payment token of the deal. User can choose any ERC20 token for payment","pricePerCuPerEpoch":"The price per CU per epoch of the deal","protocolVersion_":"Protocol version","providersAccessList_":"The providers access list of the deal","providersAccessType_":"The providers access type of the deal (None, Whitelist, Blacklist)","targetWorkers":"The target workers of the deal. It's the max number of workers for the deal"}}},"errors":{"SafeERC20FailedOperation(address)":[{"details":"An operation with an ERC-20 token failed."}]}},"id":96}