{"abi":[{"type":"function","name":"balanceKeeper","inputs":[],"outputs":[{"name":"","type":"address","internalType":"contract IBalanceKeeper"}],"stateMutability":"view"},{"type":"function","name":"deployDeal","inputs":[{"name":"appCID_","type":"tuple","internalType":"struct CIDV1","components":[{"name":"prefixes","type":"bytes4","internalType":"bytes4"},{"name":"hash","type":"bytes32","internalType":"bytes32"}]},{"name":"paymentToken_","type":"address","internalType":"contract IERC20"},{"name":"depositAmount_","type":"uint256","internalType":"uint256"},{"name":"minWorkers_","type":"uint256","internalType":"uint256"},{"name":"targetWorkers_","type":"uint256","internalType":"uint256"},{"name":"cuCountPerWorker_","type":"uint256","internalType":"uint256"},{"name":"maxWorkersPerProvider_","type":"uint256","internalType":"uint256"},{"name":"pricePerCuPerEpoch_","type":"uint256","internalType":"uint256"},{"name":"effectors_","type":"tuple[]","internalType":"struct CIDV1[]","components":[{"name":"prefixes","type":"bytes4","internalType":"bytes4"},{"name":"hash","type":"bytes32","internalType":"bytes32"}]},{"name":"providersAccessType_","type":"uint8","internalType":"enum IConfig.AccessType"},{"name":"providersAccessList_","type":"address[]","internalType":"address[]"},{"name":"protocolVersion_","type":"uint256","internalType":"uint256"},{"name":"owner_","type":"address","internalType":"address"}],"outputs":[{"name":"","type":"address","internalType":"contract IDeal"}],"stateMutability":"nonpayable"},{"type":"function","name":"deployDealV2","inputs":[{"name":"appCID_","type":"tuple","internalType":"struct CIDV1","components":[{"name":"prefixes","type":"bytes4","internalType":"bytes4"},{"name":"hash","type":"bytes32","internalType":"bytes32"}]},{"name":"paymentToken_","type":"address","internalType":"contract IERC20"},{"name":"depositAmount_","type":"uint256","internalType":"uint256"},{"name":"targetWorkers_","type":"uint256","internalType":"uint256"},{"name":"resources_","type":"tuple[]","internalType":"struct IOfferV2.ResourceRequirement[]","components":[{"name":"resourceId","type":"bytes32","internalType":"bytes32"},{"name":"ty","type":"uint8","internalType":"enum IOfferV2.ResourceType"},{"name":"quantity","type":"uint256","internalType":"uint256"}]},{"name":"pricePerEpoch_","type":"uint256","internalType":"uint256"},{"name":"maxWorkersPerProvider_","type":"uint256","internalType":"uint256"},{"name":"providersAccessType_","type":"uint8","internalType":"enum IConfigV2.AccessTypeV2"},{"name":"providersAccessList_","type":"address[]","internalType":"address[]"},{"name":"protocolVersion_","type":"uint256","internalType":"uint256"},{"name":"owner_","type":"address","internalType":"address"}],"outputs":[{"name":"","type":"address","internalType":"contract IDealV2"}],"stateMutability":"nonpayable"},{"type":"function","name":"fundDeal","inputs":[{"name":"deal","type":"address","internalType":"contract IDeal"},{"name":"targetMaxPaidEpoch","type":"uint256","internalType":"uint256"}],"outputs":[],"stateMutability":"nonpayable"},{"type":"function","name":"fundDealV2","inputs":[{"name":"deal","type":"address","internalType":"contract IDealV2"},{"name":"targetMaxPaidEpoch","type":"uint256","internalType":"uint256"}],"outputs":[],"stateMutability":"nonpayable"},{"type":"function","name":"hasDeal","inputs":[{"name":"deal","type":"address","internalType":"address"}],"outputs":[{"name":"","type":"bool","internalType":"bool"}],"stateMutability":"view"},{"type":"function","name":"setBalanceKeeper","inputs":[{"name":"_balanceKeeper","type":"address","internalType":"contract IBalanceKeeper"}],"outputs":[],"stateMutability":"nonpayable"},{"type":"function","name":"setVodopad","inputs":[{"name":"_vodopad","type":"address","internalType":"address"}],"outputs":[],"stateMutability":"nonpayable"},{"type":"function","name":"stopDealHandler","inputs":[],"outputs":[],"stateMutability":"nonpayable"},{"type":"function","name":"stopDealHandlerV2","inputs":[],"outputs":[],"stateMutability":"nonpayable"},{"type":"function","name":"storedDealCount","inputs":[],"outputs":[{"name":"","type":"uint256","internalType":"uint256"}],"stateMutability":"view"},{"type":"function","name":"storedDeals","inputs":[{"name":"from","type":"uint256","internalType":"uint256"},{"name":"to","type":"uint256","internalType":"uint256"}],"outputs":[{"name":"","type":"address[]","internalType":"address[]"}],"stateMutability":"view"},{"type":"function","name":"vodopad","inputs":[],"outputs":[{"name":"","type":"address","internalType":"address"}],"stateMutability":"view"},{"type":"event","name":"DealCreated","inputs":[{"name":"owner","type":"address","indexed":true,"internalType":"address"},{"name":"deal","type":"address","indexed":false,"internalType":"contract IDeal"},{"name":"createdAtEpoch","type":"uint256","indexed":false,"internalType":"uint256"},{"name":"paymentToken","type":"address","indexed":false,"internalType":"contract IERC20"},{"name":"minWorkers","type":"uint256","indexed":false,"internalType":"uint256"},{"name":"targetWorkers","type":"uint256","indexed":false,"internalType":"uint256"},{"name":"cuCountPerWorker","type":"uint256","indexed":false,"internalType":"uint256"},{"name":"maxWorkersPerProvider","type":"uint256","indexed":false,"internalType":"uint256"},{"name":"pricePerCuPerEpoch","type":"uint256","indexed":false,"internalType":"uint256"},{"name":"effectors","type":"tuple[]","indexed":false,"internalType":"struct CIDV1[]","components":[{"name":"prefixes","type":"bytes4","internalType":"bytes4"},{"name":"hash","type":"bytes32","internalType":"bytes32"}]},{"name":"appCID","type":"tuple","indexed":false,"internalType":"struct CIDV1","components":[{"name":"prefixes","type":"bytes4","internalType":"bytes4"},{"name":"hash","type":"bytes32","internalType":"bytes32"}]},{"name":"providersAccessType_","type":"uint8","indexed":false,"internalType":"enum IConfig.AccessType"},{"name":"providersAccessList_","type":"address[]","indexed":false,"internalType":"address[]"},{"name":"protocolVersion_","type":"uint256","indexed":false,"internalType":"uint256"}],"anonymous":false},{"type":"event","name":"DealCreatedV2","inputs":[{"name":"owner","type":"address","indexed":true,"internalType":"address"},{"name":"deal","type":"address","indexed":false,"internalType":"contract IDealV2"},{"name":"createdAtEpoch","type":"uint256","indexed":false,"internalType":"uint256"},{"name":"paymentToken","type":"address","indexed":false,"internalType":"contract IERC20"},{"name":"targetWorkers","type":"uint256","indexed":false,"internalType":"uint256"},{"name":"resources","type":"tuple[]","indexed":false,"internalType":"struct IOfferV2.ResourceRequirement[]","components":[{"name":"resourceId","type":"bytes32","internalType":"bytes32"},{"name":"ty","type":"uint8","internalType":"enum IOfferV2.ResourceType"},{"name":"quantity","type":"uint256","internalType":"uint256"}]},{"name":"pricePerEpoch","type":"uint256","indexed":false,"internalType":"uint256"},{"name":"maxWorkersPerProvider","type":"uint256","indexed":false,"internalType":"uint256"},{"name":"appCID","type":"tuple","indexed":false,"internalType":"struct CIDV1","components":[{"name":"prefixes","type":"bytes4","internalType":"bytes4"},{"name":"hash","type":"bytes32","internalType":"bytes32"}]},{"name":"providersAccessType_","type":"uint8","indexed":false,"internalType":"enum IConfigV2.AccessTypeV2"},{"name":"providersAccessList_","type":"address[]","indexed":false,"internalType":"address[]"},{"name":"protocolVersion_","type":"uint256","indexed":false,"internalType":"uint256"}],"anonymous":false},{"type":"event","name":"DealFunded","inputs":[{"name":"owner","type":"address","indexed":true,"internalType":"address"},{"name":"deal","type":"address","indexed":true,"internalType":"address"},{"name":"amount","type":"uint256","indexed":false,"internalType":"uint256"},{"name":"newMaxPaidEpoch","type":"uint256","indexed":false,"internalType":"uint256"}],"anonymous":false},{"type":"event","name":"DealFundedV2","inputs":[{"name":"owner","type":"address","indexed":true,"internalType":"address"},{"name":"deal","type":"address","indexed":true,"internalType":"address"},{"name":"amount","type":"uint256","indexed":false,"internalType":"uint256"},{"name":"newMaxPaidEpoch","type":"uint256","indexed":false,"internalType":"uint256"}],"anonymous":false},{"type":"event","name":"DealStopped","inputs":[{"name":"owner","type":"address","indexed":true,"internalType":"address"},{"name":"deal","type":"address","indexed":true,"internalType":"address"},{"name":"endedEpoch","type":"uint256","indexed":false,"internalType":"uint256"}],"anonymous":false},{"type":"event","name":"DealStoppedV2","inputs":[{"name":"owner","type":"address","indexed":true,"internalType":"address"},{"name":"deal","type":"address","indexed":true,"internalType":"address"},{"name":"endedEpoch","type":"uint256","indexed":false,"internalType":"uint256"}],"anonymous":false},{"type":"event","name":"VodopadSet","inputs":[{"name":"vodopad","type":"address","indexed":true,"internalType":"address"},{"name":"initiator","type":"address","indexed":false,"internalType":"address"}],"anonymous":false}],"bytecode":{"object":"0x60808060405234601557612a60908161001a8239f35b5f80fdfe60806040526004361015610011575f80fd5b5f803560e01c8063039206b4146117f357806314c275e8146117bf5780632105305314611776578063437e8bf11461164a5780635440fc7f14610fab5780638655cbc214610f505780639967746214610aee578063ac0a361b14610ac3578063c8441c38146108e5578063da72173e14610594578063e9154ac81461015d578063eb9483a5146100e15763fd44f921146100a9575f80fd5b346100de57806003193601126100de57505f80516020612a0b833981519152546040516001600160a01b039091168152602090f35b80fd5b50346100de5760203660031901126100de576100fb611920565b6101036121bc565b5f8051602061296b83398151915280546001600160a01b0319166001600160a01b039290921691821790556040513381527f58072e767ab10cff55611316d261b80252ac52f8208a43c30782b97b04f9922a90602090a280f35b50346100de5760403660031901126100de576004356001600160a01b03811690819003610590576024355f8051602061294b8339815191526101b660018060a01b035f8051602061296b833981519152541633146119be565b60018060a01b0383165f526020526101d460ff60405f205416611bfa565b6040516302734eab60e51b8152602081600481865afa90811561042f578491610550575b50600261020f9161020881611c45565b1415611c4f565b604051630de2c8b960e21b8152602081600481865afa90811561042f57849161051e575b5061023c611fbe565b9061024983831115611c9b565b610254838210611cfd565b8181101561050e575061026691611d5a565b600181018091116104fa575b6040516370220a9b60e01b8152602081600481865afa90811561042f5784916104c8575b50604051632943dcab60e01b815290602082600481875afa9081156103ee578591610492575b6102c69250611b37565b90604051630ad0798d60e11b8152602081600481875afa9081156103ee57859161045e575b506102f9906102fe93611b37565b611b37565b813b1561044f5760405163ed7b765360e01b8152600481018290525f60248201528390818160448183885af180156104535761043a575b5050604051630de2c8b960e21b8152602081600481865afa90811561042f5784916103f9575b50604051638da5cb5b60e01b8152602081600481875afa80156103ee577fb85701bbc1456e772a250e89e4be9cad69dd39275e8962b0ee827624663e61d89260409287926103bd575b50825194855260208501526001600160a01b031692a380f35b6103e091925060203d6020116103e7575b6103d8818361197c565b81019061199f565b905f6103a4565b503d6103ce565b6040513d87823e3d90fd5b90506020813d602011610427575b816104146020938361197c565b8101031261042357515f61035b565b5f80fd5b3d9150610407565b6040513d86823e3d90fd5b816104449161197c565b61044f57825f610335565b8280fd5b6040513d84823e3d90fd5b90506020813d60201161048a575b816104796020938361197c565b8101031261042357516102fe6102eb565b3d915061046c565b90506020823d6020116104c0575b816104ad6020938361197c565b81010312610423576102c69151906102bc565b3d91506104a0565b90506020813d6020116104f2575b816104e36020938361197c565b8101031261042357515f610296565b3d91506104d6565b634e487b7160e01b83526011600452602483fd5b905061051991611d5a565b610272565b90506020813d602011610548575b816105396020938361197c565b8101031261042357515f610233565b3d915061052c565b90506020813d602011610588575b8161056b6020938361197c565b81010312610584575160058110156105845760026101f8565b8380fd5b3d915061055e565b5080fd5b50346100de5760403660031901126100de576004356001600160a01b03811690819003610590576024355f8051602061294b8339815191526105ed60018060a01b035f8051602061296b833981519152541633146119be565b60018060a01b0383165f5260205261060b60ff60405f205416611bfa565b6040516302734eab60e51b8152602081600481865afa90811561042f5784916108a9575b50600261063f9161020881611c45565b604051630de2c8b960e21b8152602081600481865afa90811561042f578491610877575b5061066c611fbe565b9061067983831115611c9b565b610684838210611cfd565b81811015610867575061069691611d5a565b600181018091116104fa575b6040516317f23d6760e21b815290602082600481865afa91821561042f578492610833575b50604051632943dcab60e01b8152602081600481875afa9081156103ee5785916107ff575b506102f9906106fa93611b37565b813b1561044f5760405163ed7b765360e01b8152600481018290525f60248201528390818160448183885af18015610453576107ea575b5050604051630de2c8b960e21b8152602081600481865afa90811561042f5784916107b8575b50604051638da5cb5b60e01b8152602081600481875afa80156103ee577fc903222128707730af021f961ae74f2c1e45798b398b16b2f69fcf56dee6a74f9260409287926103bd5750825194855260208501526001600160a01b031692a380f35b90506020813d6020116107e2575b816107d36020938361197c565b8101031261042357515f610757565b3d91506107c6565b816107f49161197c565b61044f57825f610731565b90506020813d60201161082b575b8161081a6020938361197c565b8101031261042357516106fa6106ec565b3d915061080d565b9091506020813d60201161085f575b8161084f6020938361197c565b810103126104235751905f6106c7565b3d9150610842565b905061087291611d5a565b6106a2565b90506020813d6020116108a1575b816108926020938361197c565b8101031261042357515f610663565b3d9150610885565b90506020813d6020116108dd575b816108c46020938361197c565b810103126105845751600581101561058457600261062f565b3d91506108b7565b50346100de5760403660031901126100de57600435602435818110610a85575f8051602061298b83398151915254811015610a48576109248282611d5a565b9060018201809211610a345761095261093c8361223f565b9261094a604051948561197c565b80845261223f565b602083019390601f1901368537805b828111156109b75750505090604051928392602084019060208552518091526040840192915b818110610995575050500390f35b82516001600160a01b0316845285945060209384019390920191600101610987565b6109ce815f8051602061298b833981519152611d74565b905460039190911b1c6001600160a01b03166109ea8383611d5a565b8551811015610a205760051b8501602001525f198114610a0c57600101610961565b634e487b7160e01b86526011600452602486fd5b634e487b7160e01b88526032600452602488fd5b634e487b7160e01b84526011600452602484fd5b60405162461bcd60e51b815260206004820152601560248201527473746f7265644465616c733a206f766572666c6f7760581b6044820152606490fd5b60405162461bcd60e51b815260206004820152601660248201527573746f7265644465616c733a20746f203c2066726f6d60501b6044820152606490fd5b50346100de57806003193601126100de575060205f8051602061298b83398151915254604051908152f35b50346100de5736600319016101c08112610590576040136100de57610b11611936565b90610124356001600160401b0381116105905736602382011215610590576001600160401b036004820135116105905760248101366024836004013560061b8401011161044f57600361014435101561044f57610164356001600160401b03811161058457610b8490369060040161194c565b6101a435936001600160a01b0385168503610f4c57610bba60018060a01b035f8051602061296b833981519152541633146119be565b60016101843503610f085760405163364d11b160e21b6020820152306024820152610be760448201611a28565b60018060a01b038816608482015260843560a482015260a43560c482015260c43560e482015260e435610104820152610104356101248201526101c0610144820152610c9581610c6d610c436101e4830186600401358a611bab565b610c4f61014435611a99565b61014435610164840152828103602319016101848401528688611ab7565b610184356101a48301526001600160a01b0389166101c483015203601f19810183528261197c565b604051906001600160401b0361037a830190811190831117610ef457610cc9829161037a61225784393061037a8401611afb565b039087f08015610ee9576001600160a01b031695610ce687612035565b610d33610d29610d0160c4356102f960a43561010435611b37565b7f60ac4d56f7e69877e4b95a6e91f4b3612278b580a93ea7637885a480e01503185490611b37565b6064351015611b4a565b6001600160a01b0388165f9081525f805160206129eb833981519152602052604090205460ff1615610e9357863b156100de5760405163ed7b765360e01b81526064356004820152600160248201528181604481838c5af1801561045357610e7e575b5050602096927f7b00e85ad1245f470d3d59f37039811adddb9148214d01b98f8004259dcd509d9492610e2b610e5d93610dce611fbe565b956040519788978c89528d89015260018060a01b03166040880152608435606088015260a435608088015260c43560a088015260e43560c08801526101043560e08801526101c06101008801526101c08701916004013590611bab565b91610e396101208601611a28565b610e4561014435611a99565b61014435610160860152848303610180860152611ab7565b610184356101a08301526001600160a01b03909416930390a2604051908152f35b610e8982809261197c565b6100de5780610d96565b60405162461bcd60e51b815260206004820152602860248201527f6465706c6f794465616c3a205061796d656e7420746f6b656e206973206e6f7460448201526708185b1b1bddd95960c21b6064820152608490fd5b6040513d88823e3d90fd5b634e487b7160e01b88526041600452602488fd5b60405162461bcd60e51b815260206004820152601c60248201527b50726f746f636f6c2076657273696f6e2073686f756c64206265203160201b6044820152606490fd5b8580fd5b50346100de5760203660031901126100de576004356001600160a01b038116810361059057610f7d6121bc565b5f80516020612a0b83398151915280546001600160a01b0319166001600160a01b0390921691909117905580f35b503461042357366003190161018081126104235760401361042357610fce611936565b6064356001600160401b0360a435116104235736602360a435011215610423576001600160401b03600460a43501351161042357366024606060a435600401350260a43501011161042357600361010435101561042357610124356001600160401b0381116104235761104590369060040161194c565b90916101643591906001600160a01b03831683036104235761107e60018060a01b035f8051602061296b833981519152541633146119be565b6002610144350361160657604051632118211560e21b60208201523060248201526110ab60448201611a28565b60018060a01b038616608482015260843560a482015261018060c482015261114d816111256110ea6101a4830160a43560040135602460a43501611a48565b60c43560e484015260e43561010484015261110761010435611a99565b61010435610124840152828103602319016101448401528689611ab7565b610144356101648301526001600160a01b03871661018483015203601f19810183528261197c565b6040519061037a808301916001600160401b038311848410176115f257839261117c926125d185393090611afb565b03905ff09081156115a3576111996001600160a01b038316612035565b6111b56111ad610d0160843560c435611b37565b821015611b4a565b6001600160a01b0386165f9081525f805160206129eb833981519152602052604090205460ff16156115ae576001600160a01b0382163b156104235760405163ed7b765360e01b81526004810191909152600160248201525f81604481836001600160a01b0387165af180156115a35761158e575b508592869487945b60a435600401358610156112f05760246060870260a43501013589527f23a233ee73076c3cf570675cfe9ff168e5811fe06bf68358a371b89594cf424360205260ff60408a20541660068110156112dc57806112aa57506112a160019160646060890260a43501013590611d67565b955b0194611232565b959690956001036112d3576112cd600191606460608a0260a43501013590611d67565b966112a3565b956001906112a3565b634e487b7160e01b8a52602160045260248afd5b8688918a811561153757600182166114a55750610800908181029181830414901517156114915711611405576020946113da7f4f2b37083220cc4515e66da4e61e6756aab2b6d570802aa95009a69db72d2ddc9361134c611fbe565b9260405194859460018060a01b038a1686528a86015260018060a01b0316604085015260843560608501526101806080850152611399610180850160a43560040135602460a43501611a48565b9160c43560a086015260e43560c08601526113b660e08601611a28565b6113c261010435611a99565b61010435610120860152848303610140860152611ab7565b610144356101608301526001600160a01b03909416930390a26040516001600160a01b039091168152f35b60405162461bcd60e51b815260206004820152606560248201525f805160206129cb83398151915260448201527f617269616e743a206e6f7420656e6f7567682052414d2072657175657374656460648201527f20746f20737570706f727420726571756573746564206e756d626572206f6620608482015264564350557360d81b60a482015260c490fd5b634e487b7160e01b5f52601160045260245ffd5b60405162461bcd60e51b815260206004820152606b60248201525f805160206129cb83398151915260448201527f617269616e743a206e756d626572206f6620564350557320726571756573746560648201527f6420636f72726573706f6e647320746f2061206672616374696f6e616c206e7560848201526a6d626572206f662043557360a81b60a482015260c490fd5b60405162461bcd60e51b815260206004820152603c60248201525f805160206129cb83398151915260448201527b185c9a585b9d0e881e995c9bc81590d4155cc81c995c5d595cdd195960221b6064820152608490fd5b61159b9196505f9061197c565b5f945f61122a565b6040513d5f823e3d90fd5b60405162461bcd60e51b815260206004820152601c60248201527b14185e5b595b9d081d1bdad95b881a5cc81b9bdd08185b1b1bddd95960221b6044820152606490fd5b634e487b7160e01b5f52604160045260245ffd5b60405162461bcd60e51b815260206004820152601c60248201527b283937ba37b1b7b6103b32b939b4b7b71039b437bab632103132901960211b6044820152606490fd5b34610423575f36600319011261042357335f9081525f8051602061294b833981519152602052604090205460ff161561170c5761168633611ddd565b604051638da5cb5b60e01b8152602081600481335afa9081156115a3575f916116ed575b506116b3611fbe565b60405190815233916001600160a01b0316907f78fd8c1c95286a4272159a8d25a2adfc269d5165c86d749cd04e12ed197e0efe90602090a3005b611706915060203d6020116103e7576103d8818361197c565b816116aa565b60405162461bcd60e51b815260206004820152603c60248201527f73746f704465616c48616e646c65723a206465616c2063616e206f6e6c79206260448201527b32903932b6b7bb32b210313c903a3432903232b0b61034ba39b2b63360211b6064820152608490fd5b346104235760203660031901126104235761178f611920565b5f8051602061294b8339815191529060018060a01b03165f52602052602060ff60405f2054166040519015158152f35b34610423575f366003190112610423575f8051602061296b833981519152546040516001600160a01b039091168152602090f35b34610423575f36600319011261042357335f9081525f8051602061294b833981519152602052604090205460ff16156118b55761182f33611ddd565b604051638da5cb5b60e01b8152602081600481335afa9081156115a3575f91611896575b5061185c611fbe565b60405190815233916001600160a01b0316907f3f3e88bba775b9a14348b8c67cecb6cba5d8e230ef27d79c0b9501e7d900b4a890602090a3005b6118af915060203d6020116103e7576103d8818361197c565b81611853565b60405162461bcd60e51b815260206004820152603e60248201527f73746f704465616c48616e646c657256323a206465616c2063616e206f6e6c7960448201527f2062652072656d6f76656420627920746865206465616c20697473656c6600006064820152608490fd5b600435906001600160a01b038216820361042357565b604435906001600160a01b038216820361042357565b9181601f84011215610423578235916001600160401b038311610423576020808501948460051b01011161042357565b601f909101601f19168101906001600160401b038211908210176115f257604052565b9081602091031261042357516001600160a01b03811681036104235790565b156119c557565b60405162461bcd60e51b815260206004820152603560248201527f4465616c466163746f727946616365743a204f6e6c7920566f646f706164206360448201527430b71031b0b636103a3434b990333ab731ba34b7b760591b6064820152608490fd5b60043563ffffffff60e01b81168091036104235781526020602435910152565b916020908281520191905f905b808210611a625750505090565b9091928335815260208401359060068210156104235760608091600193602082015260408701356040820152019401920190611a55565b60031115611aa357565b634e487b7160e01b5f52602160045260245ffd5b916020908281520191905f905b808210611ad15750505090565b90919283359060018060a01b03821680920361042357602081600193829352019401920190611ac4565b6001600160a01b0390911681526040602080830182905283519183018290526060938291018484015e5f828201840152601f01601f1916010190565b8181029291811591840414171561149157565b15611b5157565b60405162461bcd60e51b815260206004820152602c60248201527f4465706f73697420616d6f756e74206973206c657373207468616e206d696e6960448201526b1b5d5b481c995c5d5a5c995960a21b6064820152608490fd5b916020908281520191905f905b808210611bc55750505090565b90919283359063ffffffff60e01b82168092036104235760408160019382935260208701356020820152019401920190611bb8565b15611c0157565b606460405162461bcd60e51b815260206004820152602060248201527f4465616c466163746f727946616365743a204465616c206e6f7420666f756e646044820152fd5b60051115611aa357565b15611c5657565b60405162461bcd60e51b815260206004820152601f60248201527f4465616c466163746f727946616365743a204465616c20697320656e646564006044820152606490fd5b15611ca257565b60405162461bcd60e51b815260206004820152602d60248201527f4465616c466163746f727946616365743a20506173742065706f63687320636160448201526c1b89dd08189948199d5b991959609a1b6064820152608490fd5b15611d0457565b60405162461bcd60e51b815260206004820152602860248201527f4465616c466163746f727946616365743a204465616c20697320616c726561646044820152671e48199d5b99195960c21b6064820152608490fd5b9190820391821161149157565b9190820180921161149157565b8054821015611d89575f5260205f2001905f90565b634e487b7160e01b5f52603260045260245ffd5b80548015611dc9575f190190611db38282611d74565b81549060018060a01b039060031b1b1916905555565b634e487b7160e01b5f52603160045260245ffd5b5f8051602061294b83398151915260018060a01b0382165f52602052600160ff60405f205416151503611f6b576001600160a01b0381165f9081525f805160206129ab833981519152602052604090205415611f68576001600160a01b0381165f9081525f805160206129ab83398151915260205260409020545f198101818111611491575f8051602061298b833981519152545f1981019190821161149157611e94825f8051602061298b833981519152611d74565b905460039190911b1c6001600160a01b0316918103611eeb57505050611ec65f8051602061298b833981519152611d9d565b6001600160a01b03165f9081525f805160206129ab8339815191526020526040812055565b81611f1c611f4092611f095f8051602061298b833981519152611d9d565b5f8051602061298b833981519152611d74565b9080546001600160a01b0360039390931b83811b199091169290931690921b179055565b6001600160a01b03165f9081525f805160206129ab8339815191526020526040902055611ec6565b50565b60405162461bcd60e51b815260206004820152602560248201527f72656d6f76654465616c546f53746f72653a204465616c20646f65736e277420604482015264195e1a5cdd60da1b6064820152608490fd5b611fe97f7d4f8ec43464738265ced6b7ed5f90007e9b7c34318bdd82d9249328b50bd3575442611d5a565b7f7d4f8ec43464738265ced6b7ed5f90007e9b7c34318bdd82d9249328b50bd358549081156120215704600101806001116114915790565b634e487b7160e01b5f52601260045260245ffd5b6001600160a01b0381165f9081525f805160206129ab83398151915260205260409020545f8051602061294b8339815191529190612179576001600160a01b0381165f9081526020839052604090205460ff16612123575f8051602061298b83398151915254600160401b8110156115f25781611f1c8260016120d594015f8051602061298b833981519152555f8051602061298b833981519152611d74565b5f8051602061298b833981519152546001600160a01b03919091165f9081525f805160206129ab8339815191526020908152604080832093909355929092529020805460ff19166001179055565b60405162461bcd60e51b815260206004820152602860248201527f6164644465616c546f53746f72653a204465616c2065786973747320286279206044820152676861734465616c2960c01b6064820152608490fd5b60405162461bcd60e51b815260206004820152601b60248201527a6164644465616c546f53746f72653a204465616c2065786973747360281b6044820152606490fd5b7fc8fcad8db84d3cc18b4c41d551ea0ee66dd599cde068d998e57d5e09332c1320546001600160a01b031633036121ef57565b60405162461bcd60e51b815260206004820152602260248201527f4c69624469616d6f6e643a204d75737420626520636f6e7472616374206f776e60448201526132b960f11b6064820152608490fd5b6001600160401b0381116115f25760051b6020019056fe60a080604052346101765761037a803803809161001c828561018d565b8339810190604081830312610176578051906001600160a01b03821690818303610176576020810151906001600160401b03821161017657019183601f8401121561017657825161006c816101c4565b9361007a604051958661018d565b81855260208501956020838301011161017657815f926020809301885e8501015260805281516100bc575b60405161013c908161023e82396080518160180152f35b60206004916040519283809263d6a5a04b60e01b82525afa908115610182575f9161013a575b509051610129926001600160a01b03909216915f918291845af43d15610132573d9161010d836101c4565b9261011b604051948561018d565b83523d5f602085013e6101df565b505f80806100a5565b6060916101df565b90506020813d60201161017a575b816101556020938361018d565b810103126101765751916001600160a01b038316830361017657915f6100e2565b5f80fd5b3d9150610148565b6040513d5f823e3d90fd5b601f909101601f19168101906001600160401b038211908210176101b057604052565b634e487b7160e01b5f52604160045260245ffd5b6001600160401b0381116101b057601f01601f191660200190565b9061020357508051156101f457805190602001fd5b63d6bda27560e01b5f5260045ffd5b81511580610234575b610214575090565b639996b31560e01b5f9081526001600160a01b0391909116600452602490fd5b50803b1561020c56fe6080604081905263d6a5a04b60e01b81526020906004817f00000000000000000000000000000000000000000000000000000000000000006001600160a01b03165afa80156100b8575f9061005d575b6001600160a01b03166100e9565b5060203d6020116100b1575b6080601f8201601f1916810191906001600160401b0383119083101761009d57610098916040526080016100c3565b61004f565b634e487b7160e01b5f52604160045260245ffd5b503d610069565b6040513d5f823e3d90fd5b602090607f1901126100e5576080516001600160a01b03811681036100e55790565b5f80fd5b5f8091368280378136915af43d5f803e15610102573d5ff35b3d5ffdfea264697066735822122064c76d3887506f0ea9fa58b1bf3dcfca0379fafd42ac823789c311ddd994e91764736f6c634300081a003360a080604052346101765761037a803803809161001c828561018d565b8339810190604081830312610176578051906001600160a01b03821690818303610176576020810151906001600160401b03821161017657019183601f8401121561017657825161006c816101c4565b9361007a604051958661018d565b81855260208501956020838301011161017657815f926020809301885e8501015260805281516100bc575b60405161013c908161023e82396080518160180152f35b60206004916040519283809263928ea2b960e01b82525afa908115610182575f9161013a575b509051610129926001600160a01b03909216915f918291845af43d15610132573d9161010d836101c4565b9261011b604051948561018d565b83523d5f602085013e6101df565b505f80806100a5565b6060916101df565b90506020813d60201161017a575b816101556020938361018d565b810103126101765751916001600160a01b038316830361017657915f6100e2565b5f80fd5b3d9150610148565b6040513d5f823e3d90fd5b601f909101601f19168101906001600160401b038211908210176101b057604052565b634e487b7160e01b5f52604160045260245ffd5b6001600160401b0381116101b057601f01601f191660200190565b9061020357508051156101f457805190602001fd5b63d6bda27560e01b5f5260045ffd5b81511580610234575b610214575090565b639996b31560e01b5f9081526001600160a01b0391909116600452602490fd5b50803b1561020c56fe6080604081905263928ea2b960e01b81526020906004817f00000000000000000000000000000000000000000000000000000000000000006001600160a01b03165afa80156100b8575f9061005d575b6001600160a01b03166100e9565b5060203d6020116100b1575b6080601f8201601f1916810191906001600160401b0383119083101761009d57610098916040526080016100c3565b61004f565b634e487b7160e01b5f52604160045260245ffd5b503d610069565b6040513d5f823e3d90fd5b602090607f1901126100e5576080516001600160a01b03811681036100e55790565b5f80fd5b5f8091368280378136915af43d5f803e15610102573d5ff35b3d5ffdfea2646970667358221220967ab6b210570263d38019e6b43b9879c348a976c1dcf8df3a742d2f6a3fc67964736f6c634300081a003321811dc5bb11da2b2076245a2c14796806445512606a02297e6b92fb1172810721811dc5bb11da2b2076245a2c14796806445512606a02297e6b92fb1172810921811dc5bb11da2b2076245a2c14796806445512606a02297e6b92fb1172810a21811dc5bb11da2b2076245a2c14796806445512606a02297e6b92fb1172810b4c69624f6666657256323a206465616c20776974682062726f6b656e20696e7660ac4d56f7e69877e4b95a6e91f4b3612278b580a93ea7637885a480e015031d21811dc5bb11da2b2076245a2c14796806445512606a02297e6b92fb11728108a264697066735822122010a711a0ecb75ac52e7c6e6ee5c0ce34bdcff8ef316da3720cc7e9ecb9bb609f64736f6c634300081a0033","linkReferences":{}},"methodIdentifiers":{"balanceKeeper()":"fd44f921","deployDeal((bytes4,bytes32),address,uint256,uint256,uint256,uint256,uint256,uint256,(bytes4,bytes32)[],uint8,address[],uint256,address)":"99677462","deployDealV2((bytes4,bytes32),address,uint256,uint256,(bytes32,uint8,uint256)[],uint256,uint256,uint8,address[],uint256,address)":"5440fc7f","fundDeal(address,uint256)":"e9154ac8","fundDealV2(address,uint256)":"da72173e","hasDeal(address)":"21053053","setBalanceKeeper(address)":"8655cbc2","setVodopad(address)":"eb9483a5","stopDealHandler()":"437e8bf1","stopDealHandlerV2()":"039206b4","storedDealCount()":"ac0a361b","storedDeals(uint256,uint256)":"c8441c38","vodopad()":"14c275e8"},"storageLayout":{"storage":[],"types":{}},"devdoc":{"version":1,"kind":"dev","methods":{"deployDeal((bytes4,bytes32),address,uint256,uint256,uint256,uint256,uint256,uint256,(bytes4,bytes32)[],uint8,address[],uint256,address)":{"details":"Creates a new deal","params":{"appCID_":"The app cid of the deal","depositAmount_":"The deposit amount of the deal","effectors_":"The effectors of the deal","maxWorkersPerProvider_":"The max workers per provider of the deal","minWorkers_":"The min workers of the deal. Deel will be activated only if the number of workers is greater","paymentToken_":"The payment token of the deal. User can choose any ERC20 token for payment","pricePerCuPerEpoch_":"The price per CU per epoch of the deal","protocolVersion_":"Protocol version","providersAccessList_":"The providers access list of the deal","providersAccessType_":"The providers access type of the deal (None, Whitelist, Blacklist)","targetWorkers_":"The target workers of the deal. It's the max number of workers for the deal"},"returns":{"_0":"The deal address"}},"deployDealV2((bytes4,bytes32),address,uint256,uint256,(bytes32,uint8,uint256)[],uint256,uint256,uint8,address[],uint256,address)":{"details":"Creates a new deal v2"},"hasDeal(address)":{"details":"Returns true if the deal exists","params":{"deal":"The deal address"}}},"events":{"DealCreated(address,address,uint256,address,uint256,uint256,uint256,uint256,uint256,(bytes4,bytes32)[],(bytes4,bytes32),uint8,address[],uint256)":{"details":"Emitted when a new deal is created","params":{"appCID":"The app cid of the deal","createdAtEpoch":"The creation time of the deal in Epochs","cuCountPerWorker":"CU count per worker","deal":"The deal address","effectors":"The effectors of the deal","maxWorkersPerProvider":"The max workers per provider of the deal","minWorkers":"The min workers of the deal. Deel will be activated only if the number of workers is greater","owner":"The owner of the deal","paymentToken":"The payment token of the deal. User can choose any ERC20 token for payment","pricePerCuPerEpoch":"The price per CU per epoch of the deal","protocolVersion_":"Protocol version","providersAccessList_":"The providers access list of the deal","providersAccessType_":"The providers access type of the deal (None, Whitelist, Blacklist)","targetWorkers":"The target workers of the deal. It's the max number of workers for the deal"}}}},"id":119}