{"abi":[{"type":"function","name":"balanceKeeper","inputs":[],"outputs":[{"name":"","type":"address","internalType":"contract IBalanceKeeper"}],"stateMutability":"view"},{"type":"function","name":"deployDeal","inputs":[{"name":"appCID_","type":"tuple","internalType":"struct CIDV1","components":[{"name":"prefixes","type":"bytes4","internalType":"bytes4"},{"name":"hash","type":"bytes32","internalType":"bytes32"}]},{"name":"paymentToken_","type":"address","internalType":"contract IERC20"},{"name":"depositAmount_","type":"uint256","internalType":"uint256"},{"name":"minWorkers_","type":"uint256","internalType":"uint256"},{"name":"targetWorkers_","type":"uint256","internalType":"uint256"},{"name":"cuCountPerWorker_","type":"uint256","internalType":"uint256"},{"name":"maxWorkersPerProvider_","type":"uint256","internalType":"uint256"},{"name":"pricePerCuPerEpoch_","type":"uint256","internalType":"uint256"},{"name":"effectors_","type":"tuple[]","internalType":"struct CIDV1[]","components":[{"name":"prefixes","type":"bytes4","internalType":"bytes4"},{"name":"hash","type":"bytes32","internalType":"bytes32"}]},{"name":"providersAccessType_","type":"uint8","internalType":"enum IConfig.AccessType"},{"name":"providersAccessList_","type":"address[]","internalType":"address[]"},{"name":"protocolVersion_","type":"uint256","internalType":"uint256"},{"name":"owner_","type":"address","internalType":"address"}],"outputs":[{"name":"","type":"address","internalType":"contract IDeal"}],"stateMutability":"nonpayable"},{"type":"function","name":"deployDealV2","inputs":[{"name":"appCID_","type":"tuple","internalType":"struct CIDV1","components":[{"name":"prefixes","type":"bytes4","internalType":"bytes4"},{"name":"hash","type":"bytes32","internalType":"bytes32"}]},{"name":"paymentToken_","type":"address","internalType":"contract IERC20"},{"name":"depositAmount_","type":"uint256","internalType":"uint256"},{"name":"targetWorkers_","type":"uint256","internalType":"uint256"},{"name":"resources_","type":"tuple[]","internalType":"struct IOfferV2.ResourceData[]","components":[{"name":"resourceId","type":"bytes32","internalType":"bytes32"},{"name":"ty","type":"uint8","internalType":"enum IOfferV2.ResourceType"},{"name":"quantity","type":"uint256","internalType":"uint256"}]},{"name":"pricePerEpoch_","type":"uint256","internalType":"uint256"},{"name":"maxWorkersPerProvider_","type":"uint256","internalType":"uint256"},{"name":"providersAccessType_","type":"uint8","internalType":"enum IConfigV2.AccessTypeV2"},{"name":"providersAccessList_","type":"address[]","internalType":"address[]"},{"name":"protocolVersion_","type":"uint256","internalType":"uint256"},{"name":"owner_","type":"address","internalType":"address"}],"outputs":[{"name":"","type":"address","internalType":"contract IDealV2"}],"stateMutability":"nonpayable"},{"type":"function","name":"fundDeal","inputs":[{"name":"deal","type":"address","internalType":"contract IDeal"}],"outputs":[],"stateMutability":"nonpayable"},{"type":"function","name":"fundDealV2","inputs":[{"name":"deal","type":"address","internalType":"contract IDealV2"}],"outputs":[],"stateMutability":"nonpayable"},{"type":"function","name":"hasDeal","inputs":[{"name":"deal","type":"address","internalType":"address"}],"outputs":[{"name":"","type":"bool","internalType":"bool"}],"stateMutability":"view"},{"type":"function","name":"setBalanceKeeper","inputs":[{"name":"_balanceKeeper","type":"address","internalType":"contract IBalanceKeeper"}],"outputs":[],"stateMutability":"nonpayable"},{"type":"function","name":"setVodopad","inputs":[{"name":"_vodopad","type":"address","internalType":"address"}],"outputs":[],"stateMutability":"nonpayable"},{"type":"function","name":"vodopad","inputs":[],"outputs":[{"name":"","type":"address","internalType":"address"}],"stateMutability":"view"},{"type":"event","name":"DealCreated","inputs":[{"name":"owner","type":"address","indexed":true,"internalType":"address"},{"name":"deal","type":"address","indexed":false,"internalType":"contract IDeal"},{"name":"createdAtEpoch","type":"uint256","indexed":false,"internalType":"uint256"},{"name":"paymentToken","type":"address","indexed":false,"internalType":"contract IERC20"},{"name":"minWorkers","type":"uint256","indexed":false,"internalType":"uint256"},{"name":"targetWorkers","type":"uint256","indexed":false,"internalType":"uint256"},{"name":"cuCountPerWorker","type":"uint256","indexed":false,"internalType":"uint256"},{"name":"maxWorkersPerProvider","type":"uint256","indexed":false,"internalType":"uint256"},{"name":"pricePerCuPerEpoch","type":"uint256","indexed":false,"internalType":"uint256"},{"name":"effectors","type":"tuple[]","indexed":false,"internalType":"struct CIDV1[]","components":[{"name":"prefixes","type":"bytes4","internalType":"bytes4"},{"name":"hash","type":"bytes32","internalType":"bytes32"}]},{"name":"appCID","type":"tuple","indexed":false,"internalType":"struct CIDV1","components":[{"name":"prefixes","type":"bytes4","internalType":"bytes4"},{"name":"hash","type":"bytes32","internalType":"bytes32"}]},{"name":"providersAccessType_","type":"uint8","indexed":false,"internalType":"enum IConfig.AccessType"},{"name":"providersAccessList_","type":"address[]","indexed":false,"internalType":"address[]"},{"name":"protocolVersion_","type":"uint256","indexed":false,"internalType":"uint256"}],"anonymous":false},{"type":"event","name":"DealCreatedV2","inputs":[{"name":"owner","type":"address","indexed":true,"internalType":"address"},{"name":"deal","type":"address","indexed":false,"internalType":"contract IDealV2"},{"name":"createdAtEpoch","type":"uint256","indexed":false,"internalType":"uint256"},{"name":"paymentToken","type":"address","indexed":false,"internalType":"contract IERC20"},{"name":"targetWorkers","type":"uint256","indexed":false,"internalType":"uint256"},{"name":"resources","type":"tuple[]","indexed":false,"internalType":"struct IOfferV2.ResourceData[]","components":[{"name":"resourceId","type":"bytes32","internalType":"bytes32"},{"name":"ty","type":"uint8","internalType":"enum IOfferV2.ResourceType"},{"name":"quantity","type":"uint256","internalType":"uint256"}]},{"name":"pricePerEpoch","type":"uint256","indexed":false,"internalType":"uint256"},{"name":"maxWorkersPerProvider","type":"uint256","indexed":false,"internalType":"uint256"},{"name":"appCID","type":"tuple","indexed":false,"internalType":"struct CIDV1","components":[{"name":"prefixes","type":"bytes4","internalType":"bytes4"},{"name":"hash","type":"bytes32","internalType":"bytes32"}]},{"name":"providersAccessType_","type":"uint8","indexed":false,"internalType":"enum IConfigV2.AccessTypeV2"},{"name":"providersAccessList_","type":"address[]","indexed":false,"internalType":"address[]"},{"name":"protocolVersion_","type":"uint256","indexed":false,"internalType":"uint256"}],"anonymous":false}],"bytecode":{"object":"0x60808060405234601557611f2e908161001a8239f35b5f80fdfe60806040526004361015610011575f80fd5b5f803560e01c806314c275e81461127c5780631befe1dd146110075780632105305314610fbb5780635440fc7f146108d45780638655cbc214610879578063996774621461041a578063c049e9e314610105578063eb9483a5146100b55763fd44f9211461007d575f80fd5b346100b257806003193601126100b257505f80516020611ed9833981519152546040516001600160a01b039091168152602090f35b80fd5b50346100b25760203660031901126100b2576100cf6112b0565b6100d7611701565b5f80516020611e9983398151915280546001600160a01b0319166001600160a01b0390921691909117905580f35b50346100b25760203660031901126100b2576004356001600160a01b03811691908290036100b2575f80516020611e7983398151915261015c60018060a01b035f80516020611e998339815191525416331461130c565b60018060a01b0383165f5260205261017a60ff60405f205416611376565b6040516302734eab60e51b8152602081600481865afa9081156102c45782916103da575b5060026101b5916101ae816113f8565b1415611416565b604051630de2c8b960e21b815291602083600481845afa9283156102c45782936103a6575b506101e361168a565b92600184018094116103925782936101fb911061146f565b6040516370220a9b60e01b8152602081600481855afa908115610387578391610352575b50604051632943dcab60e01b815290602082600481865afa91821561030f57849261031a575b5090610250916114cc565b604051630ad0798d60e11b815290602082600481865afa91821561030f5784926102d3575b5090610280916114cc565b813b156102cf578291602483926040519485938492630574131f60e01b845260048401525af180156102c4576102b35750f35b816102bd916113c1565b6100b25780f35b6040513d84823e3d90fd5b5050fd5b915092506020813d602011610307575b816102f0602093836113c1565b8101031261030357518392610280610275565b5f80fd5b3d91506102e3565b6040513d86823e3d90fd5b915092506020813d60201161034a575b81610337602093836113c1565b8101031261030357518392610250610245565b3d915061032a565b9250506020823d60201161037f575b8161036e602093836113c1565b81010312610303578291515f61021f565b3d9150610361565b6040513d85823e3d90fd5b634e487b7160e01b83526011600452602483fd5b9092506020813d6020116103d2575b816103c2602093836113c1565b810103126103035751915f6101da565b3d91506103b5565b90506020813d602011610412575b816103f5602093836113c1565b8101031261040e5751600581101561040e57600261019e565b5080fd5b3d91506103e8565b50346100b25736600319016101c0811261040e576040136100b25761043d6112c6565b90610124356001600160401b03811161040e573660238201121561040e576001600160401b0360048201351161040e57366024826004013560061b8301011161040e57600361014435101561040e57610164356001600160401b038111610875576104ac9036906004016112dc565b6101a4359291906001600160a01b0384168403610871575f80516020611e79833981519152946104f360018060a01b035f80516020611e998339815191525416331461130c565b60405163364d11b160e21b6020820152306024820152610515604482016114df565b60018060a01b038816608482015260843560a482015260a43560c482015260c43560e482015260e435610104820152610104356101248201526101c06101448201526105c68161059e6105746101e48301896004013560248b0161163b565b61058061014435611550565b6101443561016484015282810360231901610184840152868861155a565b610184356101a48301526001600160a01b0389166101c483015203601f1981018352826113c1565b604051906001600160401b0361037a83019081119083111761085d576105fa829161037a61178584393061037a840161159e565b039082f0958615610850576001600160a01b0387165f90815260209190915260409020805460ff1916600117905561067a61067061064860c43561064360a435610104356114cc565b6114cc565b7f60ac4d56f7e69877e4b95a6e91f4b3612278b580a93ea7637885a480e015031854906114cc565b60643510156115da565b6001600160a01b0387165f9081525f80516020611eb9833981519152602052604090205460ff16156107fa576001600160a01b0386163b156100b257604051630574131f60e01b815260643560048201528181602481836001600160a01b038c165af180156102c4576107e5575b5050916107ba602096927f7b00e85ad1245f470d3d59f37039811adddb9148214d01b98f8004259dcd509d9461078861071f61168a565b9460405196879660018060a01b038c1688528c88015260018060a01b03166040870152608435606087015260a435608087015260c43560a087015260e43560c08701526101043560e08701526101c06101008701526101c086019060248160040135910161163b565b9161079661012086016114df565b6107a261014435611550565b6101443561016086015284830361018086015261155a565b610184356101a08301526001600160a01b03909416930390a26040516001600160a01b039091168152f35b6107f08280926113c1565b6100b257806106e8565b60405162461bcd60e51b815260206004820152602860248201527f6465706c6f794465616c3a205061796d656e7420746f6b656e206973206e6f7460448201526708185b1b1bddd95960c21b6064820152608490fd5b50604051903d90823e3d90fd5b634e487b7160e01b83526041600452602483fd5b8480fd5b8280fd5b50346100b25760203660031901126100b2576004356001600160a01b038116810361040e576108a6611701565b5f80516020611ed983398151915280546001600160a01b0319166001600160a01b0390921691909117905580f35b50346100b2573660031901610180811261040e576040136100b2576108f76112c6565b6001600160401b0360a4351161040e5736602360a43501121561040e576001600160401b03600460a43501351161040e57366024606060a435600401350260a43501011161040e57600361010435101561040e57610124356001600160401b0381116108755761096b9036906004016112dc565b61016435906001600160a01b038216820361087157604051632118211560e21b60208201523060248201525f80516020611e79833981519152906109b1604482016114df565b60018060a01b038616608482015260843560a482015261018060c4820152610a5381610a2b6109f06101a4830160a43560040135602460a435016114ff565b60c43560e484015260e435610104840152610a0d61010435611550565b6101043561012484015282810360231901610144840152868961155a565b610144356101648301526001600160a01b03871661018483015203601f1981018352826113c1565b604051906001600160401b0361037a830190811190831117610fa757610a87829161037a611aff84393061037a840161159e565b039087f0908115610f9c576001600160a01b0382165f90815260209190915260409020805460ff19166001179055610ac961067061064860843560c4356114cc565b6001600160a01b0385165f9081525f80516020611eb9833981519152602052604090205460ff1615610f58576001600160a01b0381163b15610f3f57604051630574131f60e01b8152606435600482015286908181602481836001600160a01b0388165af180156102c457610f43575b50506001600160a01b0381163b15610f3f5760405163f2fde38b60e01b81526001600160a01b038481166004830152879190829082906024908290849088165af180156102c457610f2a575b5092869487945b60a43560040135861015610cce5760246060870260a435010135808a527f23a233ee73076c3cf570675cfe9ff168e5811fe06bf68358a371b89594cf424560205260408a205415610c7b5789527f23a233ee73076c3cf570675cfe9ff168e5811fe06bf68358a371b89594cf424360205260ff60408a2054166006811015610c675780610c355750610c2c60019160646060890260a43501013590611462565b955b0194610b8c565b95969095600103610c5e57610c58600191606460608a0260a43501013590611462565b96610c2e565b95600190610c2e565b634e487b7160e01b8a52602160045260248afd5b60405162461bcd60e51b815260206004820152602560248201527f4c69624f6666657256323a207265736f75726365496420646f6573206e6f7420604482015264195e1a5cdd60da1b6064820152608490fd5b8688918a8115610ebf5760018216610e5b578160011b918204600203610e47575011610ddd57602094610db27f4f2b37083220cc4515e66da4e61e6756aab2b6d570802aa95009a69db72d2ddc93610d2461168a565b9260405194859460018060a01b038a1686528a86015260018060a01b0316604085015260843560608501526101806080850152610d71610180850160a43560040135602460a435016114ff565b9160c43560a086015260e43560c0860152610d8e60e086016114df565b610d9a61010435611550565b6101043561012086015284830361014086015261155a565b610144356101608301526001600160a01b03909416930390a26040516001600160a01b039091168152f35b60405162461bcd60e51b815260206004820152603c60248201527f4c69624f6666657256323a2062726f6b656e20696e76617269616e742c206e6f60448201527b7420656e6f7567682052414d20746f20737570706f7274205643505560201b6064820152608490fd5b634e487b7160e01b81526011600452602490fd5b60405162461bcd60e51b815260206004820152603660248201527f4c69624f666665723a2062726f6b656e20696e76617269616e742c2061206672604482015275616374696f6e616c206e756d626572206f662043557360501b6064820152608490fd5b60405162461bcd60e51b815260206004820152603f60248201527f4c69624f666665723a2062726f6b656e20696e76617269616e742c206120646560448201527f616c206d75737420636f6e73756d65206174206c6561737420312056435055006064820152608490fd5b81610f34916113c1565b610f3f57855f610b85565b8580fd5b81610f4d916113c1565b610f3f57855f610b39565b60405162461bcd60e51b815260206004820152601c60248201527b14185e5b595b9d081d1bdad95b881a5cc81b9bdd08185b1b1bddd95960221b6044820152606490fd5b6040513d88823e3d90fd5b634e487b7160e01b88526041600452602488fd5b50346100b25760203660031901126100b257610fd56112b0565b90505f80516020611e798339815191529060018060a01b03165f52602052602060ff60405f2054166040519015158152f35b5034610303576020366003190112610303576004356001600160a01b03811690819003610303575f80516020611e7983398151915261105d60018060a01b035f80516020611e998339815191525416331461130c565b60018060a01b0382165f5260205261107b60ff60405f205416611376565b6040516302734eab60e51b8152602081600481855afa908115611187575f91611240575b5060026110af916101ae816113f8565b604051630de2c8b960e21b8152602081600481855afa908115611187575f9161120e575b506110dc61168a565b600181018091116111fa576110f1911061146f565b6040516317f23d6760e21b8152602081600481855afa908115611187575f916111c8575b50604051632943dcab60e01b815290602082600481865afa908115611187575f91611192575b61114592506114cc565b813b15610303575f91602483926040519485938492630574131f60e01b845260048401525af1801561118757611179575080f35b61118591505f906113c1565b005b6040513d5f823e3d90fd5b90506020823d6020116111c0575b816111ad602093836113c1565b810103126103035761114591519061113b565b3d91506111a0565b90506020813d6020116111f2575b816111e3602093836113c1565b8101031261030357515f611115565b3d91506111d6565b634e487b7160e01b5f52601160045260245ffd5b90506020813d602011611238575b81611229602093836113c1565b8101031261030357515f6110d3565b3d915061121c565b90506020813d602011611274575b8161125b602093836113c1565b810103126103035751600581101561030357600261109f565b3d915061124e565b34610303575f366003190112610303575f80516020611e99833981519152546040516001600160a01b039091168152602090f35b600435906001600160a01b038216820361030357565b604435906001600160a01b038216820361030357565b9181601f84011215610303578235916001600160401b038311610303576020808501948460051b01011161030357565b1561131357565b60405162461bcd60e51b815260206004820152603560248201527f4465616c466163746f727946616365743a204f6e6c7920566f646f706164206360448201527430b71031b0b636103a3434b990333ab731ba34b7b760591b6064820152608490fd5b1561137d57565b606460405162461bcd60e51b815260206004820152602060248201527f4465616c466163746f727946616365743a204465616c206e6f7420666f756e646044820152fd5b601f909101601f19168101906001600160401b038211908210176113e457604052565b634e487b7160e01b5f52604160045260245ffd5b6005111561140257565b634e487b7160e01b5f52602160045260245ffd5b1561141d57565b60405162461bcd60e51b815260206004820152601f60248201527f4465616c466163746f727946616365743a204465616c20697320656e646564006044820152606490fd5b919082018092116111fa57565b1561147657565b60405162461bcd60e51b815260206004820152602860248201527f4465616c466163746f727946616365743a204465616c20697320616c726561646044820152671e48199d5b99195960c21b6064820152608490fd5b818102929181159184041417156111fa57565b60043563ffffffff60e01b81168091036103035781526020602435910152565b916020908281520191905f905b8082106115195750505090565b909192833581526020840135906006821015610303576060809160019360208201526040870135604082015201940192019061150c565b6003111561140257565b916020908281520191905f905b8082106115745750505090565b90919283359060018060a01b03821680920361030357602081600193829352019401920190611567565b6001600160a01b0390911681526040602080830182905283519183018290526060938291018484015e5f828201840152601f01601f1916010190565b156115e157565b60405162461bcd60e51b815260206004820152602c60248201527f4465706f73697420616d6f756e74206973206c657373207468616e206d696e6960448201526b1b5d5b481c995c5d5a5c995960a21b6064820152608490fd5b916020908281520191905f905b8082106116555750505090565b90919283359063ffffffff60e01b82168092036103035760408160019382935260208701356020820152019401920190611648565b7f7d4f8ec43464738265ced6b7ed5f90007e9b7c34318bdd82d9249328b50bd3575442034281116111fa577f7d4f8ec43464738265ced6b7ed5f90007e9b7c34318bdd82d9249328b50bd358549081156116ed5704600101806001116111fa5790565b634e487b7160e01b5f52601260045260245ffd5b7fc8fcad8db84d3cc18b4c41d551ea0ee66dd599cde068d998e57d5e09332c1320546001600160a01b0316330361173457565b60405162461bcd60e51b815260206004820152602260248201527f4c69624469616d6f6e643a204d75737420626520636f6e7472616374206f776e60448201526132b960f11b6064820152608490fdfe60a080604052346101765761037a803803809161001c828561018d565b8339810190604081830312610176578051906001600160a01b03821690818303610176576020810151906001600160401b03821161017657019183601f8401121561017657825161006c816101c4565b9361007a604051958661018d565b81855260208501956020838301011161017657815f926020809301885e8501015260805281516100bc575b60405161013c908161023e82396080518160180152f35b60206004916040519283809263d6a5a04b60e01b82525afa908115610182575f9161013a575b509051610129926001600160a01b03909216915f918291845af43d15610132573d9161010d836101c4565b9261011b604051948561018d565b83523d5f602085013e6101df565b505f80806100a5565b6060916101df565b90506020813d60201161017a575b816101556020938361018d565b810103126101765751916001600160a01b038316830361017657915f6100e2565b5f80fd5b3d9150610148565b6040513d5f823e3d90fd5b601f909101601f19168101906001600160401b038211908210176101b057604052565b634e487b7160e01b5f52604160045260245ffd5b6001600160401b0381116101b057601f01601f191660200190565b9061020357508051156101f457805190602001fd5b63d6bda27560e01b5f5260045ffd5b81511580610234575b610214575090565b639996b31560e01b5f9081526001600160a01b0391909116600452602490fd5b50803b1561020c56fe6080604081905263d6a5a04b60e01b81526020906004817f00000000000000000000000000000000000000000000000000000000000000006001600160a01b03165afa80156100b8575f9061005d575b6001600160a01b03166100e9565b5060203d6020116100b1575b6080601f8201601f1916810191906001600160401b0383119083101761009d57610098916040526080016100c3565b61004f565b634e487b7160e01b5f52604160045260245ffd5b503d610069565b6040513d5f823e3d90fd5b602090607f1901126100e5576080516001600160a01b03811681036100e55790565b5f80fd5b5f8091368280378136915af43d5f803e15610102573d5ff35b3d5ffdfea26469706673582212203b660a052e5bb2eb13082c3937e5cfc2d47a4ba56920638985d6b6098071ed6b64736f6c634300081a003360a080604052346101765761037a803803809161001c828561018d565b8339810190604081830312610176578051906001600160a01b03821690818303610176576020810151906001600160401b03821161017657019183601f8401121561017657825161006c816101c4565b9361007a604051958661018d565b81855260208501956020838301011161017657815f926020809301885e8501015260805281516100bc575b60405161013c908161023e82396080518160180152f35b60206004916040519283809263928ea2b960e01b82525afa908115610182575f9161013a575b509051610129926001600160a01b03909216915f918291845af43d15610132573d9161010d836101c4565b9261011b604051948561018d565b83523d5f602085013e6101df565b505f80806100a5565b6060916101df565b90506020813d60201161017a575b816101556020938361018d565b810103126101765751916001600160a01b038316830361017657915f6100e2565b5f80fd5b3d9150610148565b6040513d5f823e3d90fd5b601f909101601f19168101906001600160401b038211908210176101b057604052565b634e487b7160e01b5f52604160045260245ffd5b6001600160401b0381116101b057601f01601f191660200190565b9061020357508051156101f457805190602001fd5b63d6bda27560e01b5f5260045ffd5b81511580610234575b610214575090565b639996b31560e01b5f9081526001600160a01b0391909116600452602490fd5b50803b1561020c56fe6080604081905263928ea2b960e01b81526020906004817f00000000000000000000000000000000000000000000000000000000000000006001600160a01b03165afa80156100b8575f9061005d575b6001600160a01b03166100e9565b5060203d6020116100b1575b6080601f8201601f1916810191906001600160401b0383119083101761009d57610098916040526080016100c3565b61004f565b634e487b7160e01b5f52604160045260245ffd5b503d610069565b6040513d5f823e3d90fd5b602090607f1901126100e5576080516001600160a01b03811681036100e55790565b5f80fd5b5f8091368280378136915af43d5f803e15610102573d5ff35b3d5ffdfea2646970667358221220254d5233b4a5bd674f0e1eb8ffcd48e7d1cf755e1dbd429a8aede2ca56087f0264736f6c634300081a003321811dc5bb11da2b2076245a2c14796806445512606a02297e6b92fb1172810721811dc5bb11da2b2076245a2c14796806445512606a02297e6b92fb1172810960ac4d56f7e69877e4b95a6e91f4b3612278b580a93ea7637885a480e015031d21811dc5bb11da2b2076245a2c14796806445512606a02297e6b92fb11728108a2646970667358221220529b841312958463200aaa0b6b779507e2d0cec768d5ff17408185429702683464736f6c634300081a0033","linkReferences":{}},"methodIdentifiers":{"balanceKeeper()":"fd44f921","deployDeal((bytes4,bytes32),address,uint256,uint256,uint256,uint256,uint256,uint256,(bytes4,bytes32)[],uint8,address[],uint256,address)":"99677462","deployDealV2((bytes4,bytes32),address,uint256,uint256,(bytes32,uint8,uint256)[],uint256,uint256,uint8,address[],uint256,address)":"5440fc7f","fundDeal(address)":"c049e9e3","fundDealV2(address)":"1befe1dd","hasDeal(address)":"21053053","setBalanceKeeper(address)":"8655cbc2","setVodopad(address)":"eb9483a5","vodopad()":"14c275e8"},"storageLayout":{"storage":[],"types":{}},"devdoc":{"version":1,"kind":"dev","methods":{"deployDeal((bytes4,bytes32),address,uint256,uint256,uint256,uint256,uint256,uint256,(bytes4,bytes32)[],uint8,address[],uint256,address)":{"details":"Creates a new deal","params":{"appCID_":"The app cid of the deal","depositAmount_":"The deposit amount of the deal","effectors_":"The effectors of the deal","maxWorkersPerProvider_":"The max workers per provider of the deal","minWorkers_":"The min workers of the deal. Deel will be activated only if the number of workers is greater","paymentToken_":"The payment token of the deal. User can choose any ERC20 token for payment","pricePerCuPerEpoch_":"The price per CU per epoch of the deal","protocolVersion_":"Protocol version","providersAccessList_":"The providers access list of the deal","providersAccessType_":"The providers access type of the deal (None, Whitelist, Blacklist)","targetWorkers_":"The target workers of the deal. It's the max number of workers for the deal"},"returns":{"_0":"The deal address"}},"deployDealV2((bytes4,bytes32),address,uint256,uint256,(bytes32,uint8,uint256)[],uint256,uint256,uint8,address[],uint256,address)":{"details":"Creates a new deal v2"},"hasDeal(address)":{"details":"Returns true if the deal exists","params":{"deal":"The deal address"}}},"events":{"DealCreated(address,address,uint256,address,uint256,uint256,uint256,uint256,uint256,(bytes4,bytes32)[],(bytes4,bytes32),uint8,address[],uint256)":{"details":"Emitted when a new deal is created","params":{"appCID":"The app cid of the deal","createdAtEpoch":"The creation time of the deal in Epochs","cuCountPerWorker":"CU count per worker","deal":"The deal address","effectors":"The effectors of the deal","maxWorkersPerProvider":"The max workers per provider of the deal","minWorkers":"The min workers of the deal. Deel will be activated only if the number of workers is greater","owner":"The owner of the deal","paymentToken":"The payment token of the deal. User can choose any ERC20 token for payment","pricePerCuPerEpoch":"The price per CU per epoch of the deal","protocolVersion_":"Protocol version","providersAccessList_":"The providers access list of the deal","providersAccessType_":"The providers access type of the deal (None, Whitelist, Blacklist)","targetWorkers":"The target workers of the deal. It's the max number of workers for the deal"}}}},"id":126}