{"abi":[{"type":"function","name":"balanceKeeper","inputs":[],"outputs":[{"name":"","type":"address","internalType":"contract IBalanceKeeper"}],"stateMutability":"view"},{"type":"function","name":"deployDeal","inputs":[{"name":"appCID_","type":"tuple","internalType":"struct CIDV1","components":[{"name":"prefixes","type":"bytes4","internalType":"bytes4"},{"name":"hash","type":"bytes32","internalType":"bytes32"}]},{"name":"paymentToken_","type":"address","internalType":"contract IERC20"},{"name":"depositAmount_","type":"uint256","internalType":"uint256"},{"name":"minWorkers_","type":"uint256","internalType":"uint256"},{"name":"targetWorkers_","type":"uint256","internalType":"uint256"},{"name":"cuCountPerWorker_","type":"uint256","internalType":"uint256"},{"name":"maxWorkersPerProvider_","type":"uint256","internalType":"uint256"},{"name":"pricePerCuPerEpoch_","type":"uint256","internalType":"uint256"},{"name":"effectors_","type":"tuple[]","internalType":"struct CIDV1[]","components":[{"name":"prefixes","type":"bytes4","internalType":"bytes4"},{"name":"hash","type":"bytes32","internalType":"bytes32"}]},{"name":"providersAccessType_","type":"uint8","internalType":"enum IConfig.AccessType"},{"name":"providersAccessList_","type":"address[]","internalType":"address[]"},{"name":"protocolVersion_","type":"uint256","internalType":"uint256"},{"name":"owner_","type":"address","internalType":"address"}],"outputs":[{"name":"","type":"address","internalType":"contract IDeal"}],"stateMutability":"nonpayable"},{"type":"function","name":"deployDealV2","inputs":[{"name":"appCID_","type":"tuple","internalType":"struct CIDV1","components":[{"name":"prefixes","type":"bytes4","internalType":"bytes4"},{"name":"hash","type":"bytes32","internalType":"bytes32"}]},{"name":"paymentToken_","type":"address","internalType":"contract IERC20"},{"name":"depositAmount_","type":"uint256","internalType":"uint256"},{"name":"targetWorkers_","type":"uint256","internalType":"uint256"},{"name":"resources_","type":"tuple[]","internalType":"struct IOfferV2.ResourceData[]","components":[{"name":"resourceId","type":"bytes32","internalType":"bytes32"},{"name":"ty","type":"uint8","internalType":"enum IOfferV2.ResourceType"},{"name":"quantity","type":"uint256","internalType":"uint256"}]},{"name":"pricePerEpoch_","type":"uint256","internalType":"uint256"},{"name":"maxWorkersPerProvider_","type":"uint256","internalType":"uint256"},{"name":"providersAccessType_","type":"uint8","internalType":"enum IConfigV2.AccessTypeV2"},{"name":"providersAccessList_","type":"address[]","internalType":"address[]"},{"name":"protocolVersion_","type":"uint256","internalType":"uint256"},{"name":"owner_","type":"address","internalType":"address"}],"outputs":[{"name":"","type":"address","internalType":"contract IDealV2"}],"stateMutability":"nonpayable"},{"type":"function","name":"fundDeal","inputs":[{"name":"deal","type":"address","internalType":"contract IDeal"}],"outputs":[],"stateMutability":"nonpayable"},{"type":"function","name":"fundDealV2","inputs":[{"name":"deal","type":"address","internalType":"contract IDealV2"}],"outputs":[],"stateMutability":"nonpayable"},{"type":"function","name":"hasDeal","inputs":[{"name":"deal","type":"address","internalType":"address"}],"outputs":[{"name":"","type":"bool","internalType":"bool"}],"stateMutability":"view"},{"type":"function","name":"setBalanceKeeper","inputs":[{"name":"_balanceKeeper","type":"address","internalType":"contract IBalanceKeeper"}],"outputs":[],"stateMutability":"nonpayable"},{"type":"function","name":"setVodopad","inputs":[{"name":"_vodopad","type":"address","internalType":"address"}],"outputs":[],"stateMutability":"nonpayable"},{"type":"function","name":"stopDealHandler","inputs":[],"outputs":[],"stateMutability":"nonpayable"},{"type":"function","name":"stopDealHandlerV2","inputs":[],"outputs":[],"stateMutability":"nonpayable"},{"type":"function","name":"storedDealCount","inputs":[],"outputs":[{"name":"","type":"uint256","internalType":"uint256"}],"stateMutability":"view"},{"type":"function","name":"storedDeals","inputs":[{"name":"from","type":"uint256","internalType":"uint256"},{"name":"to","type":"uint256","internalType":"uint256"}],"outputs":[{"name":"","type":"address[]","internalType":"address[]"}],"stateMutability":"view"},{"type":"function","name":"vodopad","inputs":[],"outputs":[{"name":"","type":"address","internalType":"address"}],"stateMutability":"view"},{"type":"event","name":"DealCreated","inputs":[{"name":"owner","type":"address","indexed":true,"internalType":"address"},{"name":"deal","type":"address","indexed":false,"internalType":"contract IDeal"},{"name":"createdAtEpoch","type":"uint256","indexed":false,"internalType":"uint256"},{"name":"paymentToken","type":"address","indexed":false,"internalType":"contract IERC20"},{"name":"minWorkers","type":"uint256","indexed":false,"internalType":"uint256"},{"name":"targetWorkers","type":"uint256","indexed":false,"internalType":"uint256"},{"name":"cuCountPerWorker","type":"uint256","indexed":false,"internalType":"uint256"},{"name":"maxWorkersPerProvider","type":"uint256","indexed":false,"internalType":"uint256"},{"name":"pricePerCuPerEpoch","type":"uint256","indexed":false,"internalType":"uint256"},{"name":"effectors","type":"tuple[]","indexed":false,"internalType":"struct CIDV1[]","components":[{"name":"prefixes","type":"bytes4","internalType":"bytes4"},{"name":"hash","type":"bytes32","internalType":"bytes32"}]},{"name":"appCID","type":"tuple","indexed":false,"internalType":"struct CIDV1","components":[{"name":"prefixes","type":"bytes4","internalType":"bytes4"},{"name":"hash","type":"bytes32","internalType":"bytes32"}]},{"name":"providersAccessType_","type":"uint8","indexed":false,"internalType":"enum IConfig.AccessType"},{"name":"providersAccessList_","type":"address[]","indexed":false,"internalType":"address[]"},{"name":"protocolVersion_","type":"uint256","indexed":false,"internalType":"uint256"}],"anonymous":false},{"type":"event","name":"DealCreatedV2","inputs":[{"name":"owner","type":"address","indexed":true,"internalType":"address"},{"name":"deal","type":"address","indexed":false,"internalType":"contract IDealV2"},{"name":"createdAtEpoch","type":"uint256","indexed":false,"internalType":"uint256"},{"name":"paymentToken","type":"address","indexed":false,"internalType":"contract IERC20"},{"name":"targetWorkers","type":"uint256","indexed":false,"internalType":"uint256"},{"name":"resources","type":"tuple[]","indexed":false,"internalType":"struct IOfferV2.ResourceData[]","components":[{"name":"resourceId","type":"bytes32","internalType":"bytes32"},{"name":"ty","type":"uint8","internalType":"enum IOfferV2.ResourceType"},{"name":"quantity","type":"uint256","internalType":"uint256"}]},{"name":"pricePerEpoch","type":"uint256","indexed":false,"internalType":"uint256"},{"name":"maxWorkersPerProvider","type":"uint256","indexed":false,"internalType":"uint256"},{"name":"appCID","type":"tuple","indexed":false,"internalType":"struct CIDV1","components":[{"name":"prefixes","type":"bytes4","internalType":"bytes4"},{"name":"hash","type":"bytes32","internalType":"bytes32"}]},{"name":"providersAccessType_","type":"uint8","indexed":false,"internalType":"enum IConfigV2.AccessTypeV2"},{"name":"providersAccessList_","type":"address[]","indexed":false,"internalType":"address[]"},{"name":"protocolVersion_","type":"uint256","indexed":false,"internalType":"uint256"}],"anonymous":false},{"type":"event","name":"DealFunded","inputs":[{"name":"owner","type":"address","indexed":true,"internalType":"address"},{"name":"deal","type":"address","indexed":true,"internalType":"address"},{"name":"amount","type":"uint256","indexed":false,"internalType":"uint256"},{"name":"newMaxPaidEpoch","type":"uint256","indexed":false,"internalType":"uint256"}],"anonymous":false},{"type":"event","name":"DealFundedV2","inputs":[{"name":"owner","type":"address","indexed":true,"internalType":"address"},{"name":"deal","type":"address","indexed":true,"internalType":"address"},{"name":"amount","type":"uint256","indexed":false,"internalType":"uint256"},{"name":"newMaxPaidEpoch","type":"uint256","indexed":false,"internalType":"uint256"}],"anonymous":false},{"type":"event","name":"DealStopped","inputs":[{"name":"owner","type":"address","indexed":true,"internalType":"address"},{"name":"deal","type":"address","indexed":true,"internalType":"address"},{"name":"endedEpoch","type":"uint256","indexed":false,"internalType":"uint256"}],"anonymous":false},{"type":"event","name":"DealStoppedV2","inputs":[{"name":"owner","type":"address","indexed":true,"internalType":"address"},{"name":"deal","type":"address","indexed":true,"internalType":"address"},{"name":"endedEpoch","type":"uint256","indexed":false,"internalType":"uint256"}],"anonymous":false}],"bytecode":{"object":"0x60808060405234601557612935908161001a8239f35b5f80fdfe60806040526004361015610011575f80fd5b5f803560e01c8063039206b41461171957806314c275e8146116e55780631befe1dd146113ca578063210530531461137e578063437e8bf1146112505780635440fc7f14610b965780638655cbc214610b3b5780639967746214610723578063ac0a361b146106f8578063c049e9e31461030f578063c8441c3814610131578063eb9483a5146100e15763fd44f921146100a9575f80fd5b346100de57806003193601126100de57505f805160206128e0833981519152546040516001600160a01b039091168152602090f35b80fd5b50346100de5760203660031901126100de576100fb611846565b610103612091565b5f8051602061284083398151915280546001600160a01b0319166001600160a01b0390921691909117905580f35b50346100de5760403660031901126100de576004356024358181106102d1575f8051602061286083398151915254811015610294576101708282611c3f565b90600182018092116102805761019e61018883612114565b9261019660405194856118a2565b808452612114565b602083019390601f1901368537805b828111156102035750505090604051928392602084019060208552518091526040840192915b8181106101e1575050500390f35b82516001600160a01b03168452859450602093840193909201916001016101d3565b61021a815f80516020612860833981519152611c4c565b905460039190911b1c6001600160a01b03166102368383611c3f565b855181101561026c5760051b8501602001525f198114610258576001016101ad565b634e487b7160e01b86526011600452602486fd5b634e487b7160e01b88526032600452602488fd5b634e487b7160e01b84526011600452602484fd5b60405162461bcd60e51b815260206004820152601560248201527473746f7265644465616c733a206f766572666c6f7760581b6044820152606490fd5b60405162461bcd60e51b815260206004820152601660248201527573746f7265644465616c733a20746f203c2066726f6d60501b6044820152606490fd5b50346100de5760203660031901126100de576004356001600160a01b038116908190036106f4575f8051602061282083398151915261036560018060a01b035f80516020612840833981519152541633146118f8565b60018060a01b0382165f5260205261038360ff60405f205416611962565b6040516302734eab60e51b8152602081600481855afa90811561067b5783916106b8575b5060026103be916103b7816119ad565b14156119cb565b604051630de2c8b960e21b8152602081600481855afa90811561067b578391610686575b506103eb611e93565b906001820180921161028057906104029110611a24565b6040516370220a9b60e01b8152602081600481855afa90811561067b578391610649575b50604051632943dcab60e01b815290602082600481865afa9081156105ae578491610613575b6104569250611a81565b604051630ad0798d60e11b815290602082600481865afa9081156105ae5784916105dd575b6104859250611a81565b813b156105ce5782604051630574131f60e01b8152826004820152818160248183885af180156105d2576105b9575b5050604051630de2c8b960e21b8152602081600481865afa9081156105ae578491610578575b50604051638da5cb5b60e01b8152602081600481875afa801561056d577fb85701bbc1456e772a250e89e4be9cad69dd39275e8962b0ee827624663e61d892604092879261053c575b50825194855260208501526001600160a01b031692a380f35b61055f91925060203d602011610566575b61055781836118a2565b8101906118d9565b905f610523565b503d61054d565b6040513d87823e3d90fd5b90506020813d6020116105a6575b81610593602093836118a2565b810103126105a257515f6104da565b5f80fd5b3d9150610586565b6040513d86823e3d90fd5b816105c3916118a2565b6105ce57825f6104b4565b8280fd5b6040513d84823e3d90fd5b90506020823d60201161060b575b816105f8602093836118a2565b810103126105a25761048591519061047b565b3d91506105eb565b90506020823d602011610641575b8161062e602093836118a2565b810103126105a25761045691519061044c565b3d9150610621565b90506020813d602011610673575b81610664602093836118a2565b810103126105a257515f610426565b3d9150610657565b6040513d85823e3d90fd5b90506020813d6020116106b0575b816106a1602093836118a2565b810103126105a257515f6103e2565b3d9150610694565b90506020813d6020116106ec575b816106d3602093836118a2565b810103126105ce575160058110156105ce5760026103a7565b3d91506106c6565b5080fd5b50346100de57806003193601126100de575060205f8051602061286083398151915254604051908152f35b50346100de5736600319016101c081126106f4576040136100de5761074661185c565b90610124356001600160401b0381116106f457366023820112156106f4576001600160401b036004820135116106f45760248101366024836004013560061b840101116105ce5760036101443510156105ce57610164356001600160401b038111610b37576107b9903690600401611872565b61018435936101a4359291906001600160a01b0384168403610b33576107f660018060a01b035f80516020612840833981519152541633146118f8565b60405163364d11b160e21b602082015230602482015261081860448201611a94565b60018060a01b038916608482015260843560a482015260a43560c482015260c43560e482015260e435610104820152610104356101248201526101c06101448201526108c48161089e6108746101e4830186600401358b611bf0565b61088061014435611b05565b61014435610164840152828103602319016101848401528688611b0f565b6101a482018a90526001600160a01b0388166101c483015203601f1981018352826118a2565b604051906001600160401b0361037a830190811190831117610b1f576108f8829161037a61212c84393061037a8401611b53565b039088f08015610b14576001600160a01b03169661091588611f0a565b61096761095d61093560c43561093060a43561010435611a81565b611a81565b7f60ac4d56f7e69877e4b95a6e91f4b3612278b580a93ea7637885a480e01503185490611a81565b6064351015611b8f565b6001600160a01b0389165f9081525f805160206128c0833981519152602052604090205460ff1615610abe57873b156100de57604051630574131f60e01b815260643560048201528181602481838d5af180156105d257610aa9575b50507f7b00e85ad1245f470d3d59f37039811adddb9148214d01b98f8004259dcd509d94926020989492610a59610a8b936109fc611e93565b966040519889988d8a528e8a015260018060a01b03166040890152608435606089015260a435608089015260c43560a089015260e43560c08901526101043560e08901526101c06101008901526101c08801916004013590611bf0565b91610a676101208701611a94565b610a7361014435611b05565b61014435610160870152858303610180870152611b0f565b6101a08301959095526001600160a01b0316930390a2604051908152f35b610ab48280926118a2565b6100de57806109c3565b60405162461bcd60e51b815260206004820152602860248201527f6465706c6f794465616c3a205061796d656e7420746f6b656e206973206e6f7460448201526708185b1b1bddd95960c21b6064820152608490fd5b6040513d89823e3d90fd5b634e487b7160e01b89526041600452602489fd5b8680fd5b8380fd5b50346100de5760203660031901126100de576004356001600160a01b03811681036106f457610b68612091565b5f805160206128e083398151915280546001600160a01b0319166001600160a01b0390921691909117905580f35b50346100de57366003190161018081126106f4576040136100de57610bb961185c565b6001600160401b0360a435116106f45736602360a4350112156106f4576001600160401b03600460a4350135116106f457366024606060a435600401350260a4350101116106f45760036101043510156106f457610124356001600160401b0381116105ce57610c2d903690600401611872565b61016435906001600160a01b038216820361124c57610c6360018060a01b035f80516020612840833981519152541633146118f8565b604051632118211560e21b6020820152306024820152610c8560448201611a94565b60018060a01b038516608482015260843560a482015261018060c4820152610d2781610cff610cc46101a4830160a43560040135602460a43501611ab4565b60c43560e484015260e435610104840152610ce161010435611b05565b61010435610124840152828103602319016101448401528588611b0f565b610144356101648301526001600160a01b03861661018483015203601f1981018352826118a2565b6040519061037a808301906001600160401b03821184831017610b1f5791610d579184936124a685393090611b53565b039086f0801561056d57610d736001600160a01b038216611f0a565b610d8761095d61093560843560c435611a81565b6001600160a01b0385165f9081525f805160206128c0833981519152602052604090205460ff1615611208576001600160a01b0381163b1561120457604051630574131f60e01b8152606435600482015286908181602481836001600160a01b0388165af180156105d2576111ef575b5092869487945b60a43560040135861015610f405760246060870260a435010135808a527f23a233ee73076c3cf570675cfe9ff168e5811fe06bf68358a371b89594cf424560205260408a205415610eed5789527f23a233ee73076c3cf570675cfe9ff168e5811fe06bf68358a371b89594cf424360205260ff60408a2054166006811015610ed95780610ea75750610e9e60019160646060890260a43501013590611a17565b955b0194610dfe565b95969095600103610ed057610eca600191606460608a0260a43501013590611a17565b96610ea0565b95600190610ea0565b634e487b7160e01b8a52602160045260248afd5b60405162461bcd60e51b815260206004820152602560248201527f4c69624f6666657256323a207265736f75726365496420646f6573206e6f7420604482015264195e1a5cdd60da1b6064820152608490fd5b8688918a811561119857600182166111065750610800908181029181830414901517156110f257116110555760209461102a7f4f2b37083220cc4515e66da4e61e6756aab2b6d570802aa95009a69db72d2ddc93610f9c611e93565b9260405194859460018060a01b038a1686528a86015260018060a01b0316604085015260843560608501526101806080850152610fe9610180850160a43560040135602460a43501611ab4565b9160c43560a086015260e43560c086015261100660e08601611a94565b61101261010435611b05565b61010435610120860152848303610140860152611b0f565b610144356101608301526001600160a01b03909416930390a26040516001600160a01b039091168152f35b60c460405162461bcd60e51b815260206004820152606460248201527f4c69624f6666657256323a206465616c207769746862726f6b656e20696e766160448201527f7269616e743a206e6f7420656e6f7567682052414d207265717565737465642060648201527f746f20737570706f727420726571756573746564206e756d626572206f6620566084820152634350557360e01b60a4820152fd5b634e487b7160e01b5f52601160045260245ffd5b60405162461bcd60e51b815260206004820152606b60248201525f805160206128a083398151915260448201527f617269616e743a206e756d626572206f6620564350557320726571756573746560648201527f6420636f72726573706f6e647320746f2061206672616374696f6e616c206e7560848201526a6d626572206f662043557360a81b60a482015260c490fd5b60405162461bcd60e51b815260206004820152603c60248201525f805160206128a083398151915260448201527b185c9a585b9d0e881e995c9bc81590d4155cc81c995c5d595cdd195960221b6064820152608490fd5b816111f9916118a2565b61120457855f610df7565b8580fd5b60405162461bcd60e51b815260206004820152601c60248201527b14185e5b595b9d081d1bdad95b881a5cc81b9bdd08185b1b1bddd95960221b6044820152606490fd5b8480fd5b50346100de57806003193601126100de57335f9081525f80516020612820833981519152602052604090205460ff16156113145761128d33611cb5565b604051638da5cb5b60e01b8152602081600481335afa9081156105d25782916112f5575b506112ba611e93565b60405190815233916001600160a01b0316907f78fd8c1c95286a4272159a8d25a2adfc269d5165c86d749cd04e12ed197e0efe90602090a380f35b61130e915060203d6020116105665761055781836118a2565b5f6112b1565b60405162461bcd60e51b815260206004820152603c60248201527f73746f704465616c48616e646c65723a206465616c2063616e206f6e6c79206260448201527b32903932b6b7bb32b210313c903a3432903232b0b61034ba39b2b63360211b6064820152608490fd5b50346100de5760203660031901126100de57611398611846565b90505f805160206128208339815191529060018060a01b03165f52602052602060ff60405f2054166040519015158152f35b50346105a25760203660031901126105a2576004356001600160a01b038116908190036105a2575f8051602061282083398151915261142060018060a01b035f80516020612840833981519152541633146118f8565b60018060a01b0382165f5260205261143e60ff60405f205416611962565b6040516302734eab60e51b8152602081600481855afa908115611604575f916116a9575b506002611472916103b7816119ad565b604051630de2c8b960e21b8152602081600481855afa908115611604575f91611677575b5061149f611e93565b600181018091116110f2576114b49110611a24565b6040516317f23d6760e21b8152602081600481855afa908115611604575f91611645575b50604051632943dcab60e01b815290602082600481865afa908115611604575f9161160f575b6115089250611a81565b813b156105a257604051630574131f60e01b8152600481018290525f8160248183875af18015611604576115ef575b50604051630de2c8b960e21b8152602081600481865afa9081156105ae5784916115bd575b50604051638da5cb5b60e01b8152602081600481875afa801561056d577fc903222128707730af021f961ae74f2c1e45798b398b16b2f69fcf56dee6a74f92604092879261053c5750825194855260208501526001600160a01b031692a380f35b90506020813d6020116115e7575b816115d8602093836118a2565b810103126105a257515f61155c565b3d91506115cb565b6115fc9193505f906118a2565b5f915f611537565b6040513d5f823e3d90fd5b90506020823d60201161163d575b8161162a602093836118a2565b810103126105a2576115089151906114fe565b3d915061161d565b90506020813d60201161166f575b81611660602093836118a2565b810103126105a257515f6114d8565b3d9150611653565b90506020813d6020116116a1575b81611692602093836118a2565b810103126105a257515f611496565b3d9150611685565b90506020813d6020116116dd575b816116c4602093836118a2565b810103126105a2575160058110156105a2576002611462565b3d91506116b7565b346105a2575f3660031901126105a2575f80516020612840833981519152546040516001600160a01b039091168152602090f35b346105a2575f3660031901126105a257335f9081525f80516020612820833981519152602052604090205460ff16156117db5761175533611cb5565b604051638da5cb5b60e01b8152602081600481335afa908115611604575f916117bc575b50611782611e93565b60405190815233916001600160a01b0316907f3f3e88bba775b9a14348b8c67cecb6cba5d8e230ef27d79c0b9501e7d900b4a890602090a3005b6117d5915060203d6020116105665761055781836118a2565b81611779565b60405162461bcd60e51b815260206004820152603e60248201527f73746f704465616c48616e646c657256323a206465616c2063616e206f6e6c7960448201527f2062652072656d6f76656420627920746865206465616c20697473656c6600006064820152608490fd5b600435906001600160a01b03821682036105a257565b604435906001600160a01b03821682036105a257565b9181601f840112156105a2578235916001600160401b0383116105a2576020808501948460051b0101116105a257565b601f909101601f19168101906001600160401b038211908210176118c557604052565b634e487b7160e01b5f52604160045260245ffd5b908160209103126105a257516001600160a01b03811681036105a25790565b156118ff57565b60405162461bcd60e51b815260206004820152603560248201527f4465616c466163746f727946616365743a204f6e6c7920566f646f706164206360448201527430b71031b0b636103a3434b990333ab731ba34b7b760591b6064820152608490fd5b1561196957565b606460405162461bcd60e51b815260206004820152602060248201527f4465616c466163746f727946616365743a204465616c206e6f7420666f756e646044820152fd5b600511156119b757565b634e487b7160e01b5f52602160045260245ffd5b156119d257565b60405162461bcd60e51b815260206004820152601f60248201527f4465616c466163746f727946616365743a204465616c20697320656e646564006044820152606490fd5b919082018092116110f257565b15611a2b57565b60405162461bcd60e51b815260206004820152602860248201527f4465616c466163746f727946616365743a204465616c20697320616c726561646044820152671e48199d5b99195960c21b6064820152608490fd5b818102929181159184041417156110f257565b60043563ffffffff60e01b81168091036105a25781526020602435910152565b916020908281520191905f905b808210611ace5750505090565b9091928335815260208401359060068210156105a25760608091600193602082015260408701356040820152019401920190611ac1565b600311156119b757565b916020908281520191905f905b808210611b295750505090565b90919283359060018060a01b0382168092036105a257602081600193829352019401920190611b1c565b6001600160a01b0390911681526040602080830182905283519183018290526060938291018484015e5f828201840152601f01601f1916010190565b15611b9657565b60405162461bcd60e51b815260206004820152602c60248201527f4465706f73697420616d6f756e74206973206c657373207468616e206d696e6960448201526b1b5d5b481c995c5d5a5c995960a21b6064820152608490fd5b916020908281520191905f905b808210611c0a5750505090565b90919283359063ffffffff60e01b82168092036105a25760408160019382935260208701356020820152019401920190611bfd565b919082039182116110f257565b8054821015611c61575f5260205f2001905f90565b634e487b7160e01b5f52603260045260245ffd5b80548015611ca1575f190190611c8b8282611c4c565b81549060018060a01b039060031b1b1916905555565b634e487b7160e01b5f52603160045260245ffd5b5f8051602061282083398151915260018060a01b0382165f52602052600160ff60405f205416151503611e43576001600160a01b0381165f9081525f80516020612880833981519152602052604090205415611e40576001600160a01b0381165f9081525f8051602061288083398151915260205260409020545f1981018181116110f2575f80516020612860833981519152545f198101919082116110f257611d6c825f80516020612860833981519152611c4c565b905460039190911b1c6001600160a01b0316918103611dc357505050611d9e5f80516020612860833981519152611c75565b6001600160a01b03165f9081525f805160206128808339815191526020526040812055565b81611df4611e1892611de15f80516020612860833981519152611c75565b5f80516020612860833981519152611c4c565b9080546001600160a01b0360039390931b83811b199091169290931690921b179055565b6001600160a01b03165f9081525f805160206128808339815191526020526040902055611d9e565b50565b60405162461bcd60e51b815260206004820152602260248201527f6164644465616c546f53746f72653a204465616c20646f65736e2774206578696044820152611cdd60f21b6064820152608490fd5b611ebe7f7d4f8ec43464738265ced6b7ed5f90007e9b7c34318bdd82d9249328b50bd3575442611c3f565b7f7d4f8ec43464738265ced6b7ed5f90007e9b7c34318bdd82d9249328b50bd35854908115611ef65704600101806001116110f25790565b634e487b7160e01b5f52601260045260245ffd5b6001600160a01b0381165f9081525f8051602061288083398151915260205260409020545f80516020612820833981519152919061204e576001600160a01b0381165f9081526020839052604090205460ff16611ff8575f8051602061286083398151915254600160401b8110156118c55781611df4826001611faa94015f80516020612860833981519152555f80516020612860833981519152611c4c565b5f80516020612860833981519152546001600160a01b03919091165f9081525f805160206128808339815191526020908152604080832093909355929092529020805460ff19166001179055565b60405162461bcd60e51b815260206004820152602860248201527f6164644465616c546f53746f72653a204465616c2065786973747320286279206044820152676861734465616c2960c01b6064820152608490fd5b60405162461bcd60e51b815260206004820152601b60248201527a6164644465616c546f53746f72653a204465616c2065786973747360281b6044820152606490fd5b7fc8fcad8db84d3cc18b4c41d551ea0ee66dd599cde068d998e57d5e09332c1320546001600160a01b031633036120c457565b60405162461bcd60e51b815260206004820152602260248201527f4c69624469616d6f6e643a204d75737420626520636f6e7472616374206f776e60448201526132b960f11b6064820152608490fd5b6001600160401b0381116118c55760051b6020019056fe60a080604052346101765761037a803803809161001c828561018d565b8339810190604081830312610176578051906001600160a01b03821690818303610176576020810151906001600160401b03821161017657019183601f8401121561017657825161006c816101c4565b9361007a604051958661018d565b81855260208501956020838301011161017657815f926020809301885e8501015260805281516100bc575b60405161013c908161023e82396080518160180152f35b60206004916040519283809263d6a5a04b60e01b82525afa908115610182575f9161013a575b509051610129926001600160a01b03909216915f918291845af43d15610132573d9161010d836101c4565b9261011b604051948561018d565b83523d5f602085013e6101df565b505f80806100a5565b6060916101df565b90506020813d60201161017a575b816101556020938361018d565b810103126101765751916001600160a01b038316830361017657915f6100e2565b5f80fd5b3d9150610148565b6040513d5f823e3d90fd5b601f909101601f19168101906001600160401b038211908210176101b057604052565b634e487b7160e01b5f52604160045260245ffd5b6001600160401b0381116101b057601f01601f191660200190565b9061020357508051156101f457805190602001fd5b63d6bda27560e01b5f5260045ffd5b81511580610234575b610214575090565b639996b31560e01b5f9081526001600160a01b0391909116600452602490fd5b50803b1561020c56fe6080604081905263d6a5a04b60e01b81526020906004817f00000000000000000000000000000000000000000000000000000000000000006001600160a01b03165afa80156100b8575f9061005d575b6001600160a01b03166100e9565b5060203d6020116100b1575b6080601f8201601f1916810191906001600160401b0383119083101761009d57610098916040526080016100c3565b61004f565b634e487b7160e01b5f52604160045260245ffd5b503d610069565b6040513d5f823e3d90fd5b602090607f1901126100e5576080516001600160a01b03811681036100e55790565b5f80fd5b5f8091368280378136915af43d5f803e15610102573d5ff35b3d5ffdfea2646970667358221220f010960c4c81ce288ae462f4c4aaea163abb9c7ef7db6e041d3159481bcaf06264736f6c634300081a003360a080604052346101765761037a803803809161001c828561018d565b8339810190604081830312610176578051906001600160a01b03821690818303610176576020810151906001600160401b03821161017657019183601f8401121561017657825161006c816101c4565b9361007a604051958661018d565b81855260208501956020838301011161017657815f926020809301885e8501015260805281516100bc575b60405161013c908161023e82396080518160180152f35b60206004916040519283809263928ea2b960e01b82525afa908115610182575f9161013a575b509051610129926001600160a01b03909216915f918291845af43d15610132573d9161010d836101c4565b9261011b604051948561018d565b83523d5f602085013e6101df565b505f80806100a5565b6060916101df565b90506020813d60201161017a575b816101556020938361018d565b810103126101765751916001600160a01b038316830361017657915f6100e2565b5f80fd5b3d9150610148565b6040513d5f823e3d90fd5b601f909101601f19168101906001600160401b038211908210176101b057604052565b634e487b7160e01b5f52604160045260245ffd5b6001600160401b0381116101b057601f01601f191660200190565b9061020357508051156101f457805190602001fd5b63d6bda27560e01b5f5260045ffd5b81511580610234575b610214575090565b639996b31560e01b5f9081526001600160a01b0391909116600452602490fd5b50803b1561020c56fe6080604081905263928ea2b960e01b81526020906004817f00000000000000000000000000000000000000000000000000000000000000006001600160a01b03165afa80156100b8575f9061005d575b6001600160a01b03166100e9565b5060203d6020116100b1575b6080601f8201601f1916810191906001600160401b0383119083101761009d57610098916040526080016100c3565b61004f565b634e487b7160e01b5f52604160045260245ffd5b503d610069565b6040513d5f823e3d90fd5b602090607f1901126100e5576080516001600160a01b03811681036100e55790565b5f80fd5b5f8091368280378136915af43d5f803e15610102573d5ff35b3d5ffdfea2646970667358221220e292a4686b978cb625c22f4a204916c729a49b55b18903b64c503a08cc074a9d64736f6c634300081a003321811dc5bb11da2b2076245a2c14796806445512606a02297e6b92fb1172810721811dc5bb11da2b2076245a2c14796806445512606a02297e6b92fb1172810921811dc5bb11da2b2076245a2c14796806445512606a02297e6b92fb1172810a21811dc5bb11da2b2076245a2c14796806445512606a02297e6b92fb1172810b4c69624f6666657256323a206465616c20776974682062726f6b656e20696e7660ac4d56f7e69877e4b95a6e91f4b3612278b580a93ea7637885a480e015031d21811dc5bb11da2b2076245a2c14796806445512606a02297e6b92fb11728108a264697066735822122075b1eef41bab7c9c94eff629bf7bbe1c422d3ad7640b8deb8a0cb7bf55dc215e64736f6c634300081a0033","linkReferences":{}},"methodIdentifiers":{"balanceKeeper()":"fd44f921","deployDeal((bytes4,bytes32),address,uint256,uint256,uint256,uint256,uint256,uint256,(bytes4,bytes32)[],uint8,address[],uint256,address)":"99677462","deployDealV2((bytes4,bytes32),address,uint256,uint256,(bytes32,uint8,uint256)[],uint256,uint256,uint8,address[],uint256,address)":"5440fc7f","fundDeal(address)":"c049e9e3","fundDealV2(address)":"1befe1dd","hasDeal(address)":"21053053","setBalanceKeeper(address)":"8655cbc2","setVodopad(address)":"eb9483a5","stopDealHandler()":"437e8bf1","stopDealHandlerV2()":"039206b4","storedDealCount()":"ac0a361b","storedDeals(uint256,uint256)":"c8441c38","vodopad()":"14c275e8"},"storageLayout":{"storage":[],"types":{}},"devdoc":{"version":1,"kind":"dev","methods":{"deployDeal((bytes4,bytes32),address,uint256,uint256,uint256,uint256,uint256,uint256,(bytes4,bytes32)[],uint8,address[],uint256,address)":{"details":"Creates a new deal","params":{"appCID_":"The app cid of the deal","depositAmount_":"The deposit amount of the deal","effectors_":"The effectors of the deal","maxWorkersPerProvider_":"The max workers per provider of the deal","minWorkers_":"The min workers of the deal. Deel will be activated only if the number of workers is greater","paymentToken_":"The payment token of the deal. User can choose any ERC20 token for payment","pricePerCuPerEpoch_":"The price per CU per epoch of the deal","protocolVersion_":"Protocol version","providersAccessList_":"The providers access list of the deal","providersAccessType_":"The providers access type of the deal (None, Whitelist, Blacklist)","targetWorkers_":"The target workers of the deal. It's the max number of workers for the deal"},"returns":{"_0":"The deal address"}},"deployDealV2((bytes4,bytes32),address,uint256,uint256,(bytes32,uint8,uint256)[],uint256,uint256,uint8,address[],uint256,address)":{"details":"Creates a new deal v2"},"hasDeal(address)":{"details":"Returns true if the deal exists","params":{"deal":"The deal address"}}},"events":{"DealCreated(address,address,uint256,address,uint256,uint256,uint256,uint256,uint256,(bytes4,bytes32)[],(bytes4,bytes32),uint8,address[],uint256)":{"details":"Emitted when a new deal is created","params":{"appCID":"The app cid of the deal","createdAtEpoch":"The creation time of the deal in Epochs","cuCountPerWorker":"CU count per worker","deal":"The deal address","effectors":"The effectors of the deal","maxWorkersPerProvider":"The max workers per provider of the deal","minWorkers":"The min workers of the deal. Deel will be activated only if the number of workers is greater","owner":"The owner of the deal","paymentToken":"The payment token of the deal. User can choose any ERC20 token for payment","pricePerCuPerEpoch":"The price per CU per epoch of the deal","protocolVersion_":"Protocol version","providersAccessList_":"The providers access list of the deal","providersAccessType_":"The providers access type of the deal (None, Whitelist, Blacklist)","targetWorkers":"The target workers of the deal. It's the max number of workers for the deal"}}}},"id":130}