{"abi":[{"type":"constructor","inputs":[],"stateMutability":"nonpayable"},{"type":"function","name":"activateWorker","inputs":[{"name":"onchainWorkerId","type":"bytes32","internalType":"bytes32"},{"name":"offchainWorkerId","type":"bytes32","internalType":"bytes32"}],"outputs":[],"stateMutability":"nonpayable"},{"type":"function","name":"addProviderToAccessList","inputs":[{"name":"provider","type":"address","internalType":"address"}],"outputs":[],"stateMutability":"nonpayable"},{"type":"function","name":"addWorker","inputs":[{"name":"computeProvider","type":"address","internalType":"address"},{"name":"workerData","type":"tuple","internalType":"struct IWorkerManagerV2.WorkerDataV2","components":[{"name":"onchainId","type":"bytes32","internalType":"bytes32"}]},{"name":"peerId","type":"bytes32","internalType":"bytes32"}],"outputs":[],"stateMutability":"nonpayable"},{"type":"function","name":"appCID","inputs":[],"outputs":[{"name":"","type":"tuple","internalType":"struct CIDV1","components":[{"name":"prefixes","type":"bytes4","internalType":"bytes4"},{"name":"hash","type":"bytes32","internalType":"bytes32"}]}],"stateMutability":"view"},{"type":"function","name":"changeProvidersAccessType","inputs":[{"name":"accessType","type":"uint8","internalType":"enum IConfigV2.AccessTypeV2"}],"outputs":[],"stateMutability":"nonpayable"},{"type":"function","name":"computePeerUsed","inputs":[{"name":"peerId","type":"bytes32","internalType":"bytes32"}],"outputs":[{"name":"","type":"bool","internalType":"bool"}],"stateMutability":"view"},{"type":"function","name":"creationBlock","inputs":[],"outputs":[{"name":"","type":"uint256","internalType":"uint256"}],"stateMutability":"view"},{"type":"function","name":"depositFromOwner","inputs":[{"name":"amount","type":"uint256","internalType":"uint256"},{"name":"reason","type":"uint8","internalType":"enum IBalanceKeeper.DealDepositReason"}],"outputs":[],"stateMutability":"nonpayable"},{"type":"function","name":"getActivatedWorkerCount","inputs":[],"outputs":[{"name":"","type":"uint256","internalType":"uint256"}],"stateMutability":"view"},{"type":"function","name":"getFreeBalance","inputs":[],"outputs":[{"name":"","type":"uint256","internalType":"uint256"}],"stateMutability":"view"},{"type":"function","name":"getMaxPaidEpoch","inputs":[],"outputs":[{"name":"","type":"uint256","internalType":"uint256"}],"stateMutability":"view"},{"type":"function","name":"getProtocolVersion","inputs":[],"outputs":[{"name":"","type":"uint256","internalType":"uint256"}],"stateMutability":"view"},{"type":"function","name":"getRewardAmount","inputs":[{"name":"onchainWorkerId","type":"bytes32","internalType":"bytes32"}],"outputs":[{"name":"","type":"tuple","internalType":"struct IDealV2.DealRewards","components":[{"name":"providerReward","type":"uint256","internalType":"uint256"},{"name":"stakerReward","type":"uint256","internalType":"uint256"}]}],"stateMutability":"view"},{"type":"function","name":"getStatus","inputs":[],"outputs":[{"name":"","type":"uint8","internalType":"enum IDealV2.Status"}],"stateMutability":"view"},{"type":"function","name":"getWorker","inputs":[{"name":"onchainWorkerId","type":"bytes32","internalType":"bytes32"}],"outputs":[{"name":"","type":"tuple","internalType":"struct IWorkerManagerV2.Worker","components":[{"name":"offchainId","type":"bytes32","internalType":"bytes32"},{"name":"onchainId","type":"bytes32","internalType":"bytes32"},{"name":"peerId","type":"bytes32","internalType":"bytes32"},{"name":"provider","type":"address","internalType":"address"},{"name":"joinedEpoch","type":"uint256","internalType":"uint256"}]}],"stateMutability":"view"},{"type":"function","name":"getWorkerCount","inputs":[],"outputs":[{"name":"","type":"uint256","internalType":"uint256"}],"stateMutability":"view"},{"type":"function","name":"getWorkerCount","inputs":[{"name":"provider","type":"address","internalType":"address"}],"outputs":[{"name":"","type":"uint256","internalType":"uint256"}],"stateMutability":"view"},{"type":"function","name":"getWorkerIds","inputs":[],"outputs":[{"name":"","type":"bytes32[]","internalType":"bytes32[]"}],"stateMutability":"view"},{"type":"function","name":"initialize","inputs":[{"name":"diamond_","type":"address","internalType":"contract IDiamond"},{"name":"appCID_","type":"tuple","internalType":"struct CIDV1","components":[{"name":"prefixes","type":"bytes4","internalType":"bytes4"},{"name":"hash","type":"bytes32","internalType":"bytes32"}]},{"name":"paymentToken_","type":"address","internalType":"contract IERC20"},{"name":"targetWorkers_","type":"uint256","internalType":"uint256"},{"name":"resources_","type":"tuple[]","internalType":"struct IOfferV2.ResourceRequirement[]","components":[{"name":"resourceId","type":"bytes32","internalType":"bytes32"},{"name":"ty","type":"uint8","internalType":"enum IOfferV2.ResourceType"},{"name":"quantity","type":"uint256","internalType":"uint256"}]},{"name":"pricePerEpoch_","type":"uint256","internalType":"uint256"},{"name":"maxWorkersPerProvider_","type":"uint256","internalType":"uint256"},{"name":"providersAccessType_","type":"uint8","internalType":"enum IConfigV2.AccessTypeV2"},{"name":"providersAccessList_","type":"address[]","internalType":"address[]"},{"name":"protocolVersion_","type":"uint256","internalType":"uint256"},{"name":"owner_","type":"address","internalType":"address"}],"outputs":[],"stateMutability":"nonpayable"},{"type":"function","name":"isProviderAllowed","inputs":[{"name":"account","type":"address","internalType":"address"}],"outputs":[{"name":"","type":"bool","internalType":"bool"}],"stateMutability":"view"},{"type":"function","name":"maxWorkersPerProvider","inputs":[],"outputs":[{"name":"","type":"uint256","internalType":"uint256"}],"stateMutability":"view"},{"type":"function","name":"multicall","inputs":[{"name":"data","type":"bytes[]","internalType":"bytes[]"}],"outputs":[{"name":"results","type":"bytes[]","internalType":"bytes[]"}],"stateMutability":"nonpayable"},{"type":"function","name":"owner","inputs":[],"outputs":[{"name":"","type":"address","internalType":"address"}],"stateMutability":"view"},{"type":"function","name":"paymentToken","inputs":[],"outputs":[{"name":"","type":"address","internalType":"contract IERC20"}],"stateMutability":"view"},{"type":"function","name":"pricePerEpoch","inputs":[],"outputs":[{"name":"","type":"uint256","internalType":"uint256"}],"stateMutability":"view"},{"type":"function","name":"providersAccessType","inputs":[],"outputs":[{"name":"","type":"uint8","internalType":"enum IConfigV2.AccessTypeV2"}],"stateMutability":"view"},{"type":"function","name":"removeProviderFromAccessList","inputs":[{"name":"provider","type":"address","internalType":"address"}],"outputs":[],"stateMutability":"nonpayable"},{"type":"function","name":"removeStaleWorkers","inputs":[{"name":"onchainWorkerIds","type":"bytes32[]","internalType":"bytes32[]"}],"outputs":[],"stateMutability":"nonpayable"},{"type":"function","name":"removeWorker","inputs":[{"name":"onchainWorkerId","type":"bytes32","internalType":"bytes32"}],"outputs":[],"stateMutability":"nonpayable"},{"type":"function","name":"renounceOwnership","inputs":[],"outputs":[],"stateMutability":"nonpayable"},{"type":"function","name":"requiredResources","inputs":[],"outputs":[{"name":"","type":"tuple[]","internalType":"struct IOfferV2.ResourceRequirement[]","components":[{"name":"resourceId","type":"bytes32","internalType":"bytes32"},{"name":"ty","type":"uint8","internalType":"enum IOfferV2.ResourceType"},{"name":"quantity","type":"uint256","internalType":"uint256"}]}],"stateMutability":"view"},{"type":"function","name":"setAppCID","inputs":[{"name":"appCID_","type":"tuple","internalType":"struct CIDV1","components":[{"name":"prefixes","type":"bytes4","internalType":"bytes4"},{"name":"hash","type":"bytes32","internalType":"bytes32"}]}],"outputs":[],"stateMutability":"nonpayable"},{"type":"function","name":"stop","inputs":[],"outputs":[],"stateMutability":"nonpayable"},{"type":"function","name":"targetWorkers","inputs":[],"outputs":[{"name":"","type":"uint256","internalType":"uint256"}],"stateMutability":"view"},{"type":"function","name":"transferOwnership","inputs":[{"name":"newOwner","type":"address","internalType":"address"}],"outputs":[],"stateMutability":"nonpayable"},{"type":"function","name":"withdraw","inputs":[{"name":"amount","type":"uint256","internalType":"uint256"}],"outputs":[],"stateMutability":"nonpayable"},{"type":"function","name":"withdrawRewards","inputs":[{"name":"onchainWorkerId","type":"bytes32","internalType":"bytes32"}],"outputs":[],"stateMutability":"nonpayable"},{"type":"event","name":"AppCIDChanged","inputs":[{"name":"newAppCID","type":"tuple","indexed":false,"internalType":"struct CIDV1","components":[{"name":"prefixes","type":"bytes4","internalType":"bytes4"},{"name":"hash","type":"bytes32","internalType":"bytes32"}]}],"anonymous":false},{"type":"event","name":"DealEnded","inputs":[{"name":"endedEpoch","type":"uint256","indexed":false,"internalType":"uint256"}],"anonymous":false},{"type":"event","name":"Deposited","inputs":[{"name":"amount","type":"uint256","indexed":false,"internalType":"uint256"}],"anonymous":false},{"type":"event","name":"Initialized","inputs":[{"name":"version","type":"uint64","indexed":false,"internalType":"uint64"}],"anonymous":false},{"type":"event","name":"MaxPaidEpochUpdated","inputs":[{"name":"maxPaidEpoch","type":"uint256","indexed":false,"internalType":"uint256"}],"anonymous":false},{"type":"event","name":"OwnershipTransferred","inputs":[{"name":"previousOwner","type":"address","indexed":true,"internalType":"address"},{"name":"newOwner","type":"address","indexed":true,"internalType":"address"}],"anonymous":false},{"type":"event","name":"ProviderAddedToAccessList","inputs":[{"name":"provider","type":"address","indexed":false,"internalType":"address"}],"anonymous":false},{"type":"event","name":"ProviderRemovedFromAccessList","inputs":[{"name":"provider","type":"address","indexed":false,"internalType":"address"}],"anonymous":false},{"type":"event","name":"ProvidersAccessTypeChanged","inputs":[{"name":"newAccessType","type":"uint8","indexed":false,"internalType":"enum IConfigV2.AccessTypeV2"}],"anonymous":false},{"type":"event","name":"RewardWithdrawn","inputs":[{"name":"onchainWorkerId","type":"bytes32","indexed":false,"internalType":"bytes32"},{"name":"providerReward","type":"uint256","indexed":false,"internalType":"uint256"},{"name":"stakerReward","type":"uint256","indexed":false,"internalType":"uint256"}],"anonymous":false},{"type":"event","name":"Withdrawn","inputs":[{"name":"amount","type":"uint256","indexed":false,"internalType":"uint256"}],"anonymous":false},{"type":"event","name":"WorkerIdUpdated","inputs":[{"name":"onchainWorkerId","type":"bytes32","indexed":false,"internalType":"bytes32"},{"name":"offchainWorkerId","type":"bytes32","indexed":false,"internalType":"bytes32"}],"anonymous":false},{"type":"event","name":"WorkerJoined","inputs":[{"name":"peerId","type":"bytes32","indexed":true,"internalType":"bytes32"},{"name":"onchainId","type":"bytes32","indexed":false,"internalType":"bytes32"}],"anonymous":false},{"type":"event","name":"WorkerRemoved","inputs":[{"name":"peerId","type":"bytes32","indexed":true,"internalType":"bytes32"},{"name":"onchainId","type":"bytes32","indexed":false,"internalType":"bytes32"}],"anonymous":false},{"type":"error","name":"AddressEmptyCode","inputs":[{"name":"target","type":"address","internalType":"address"}]},{"type":"error","name":"FailedCall","inputs":[]},{"type":"error","name":"InvalidInitialization","inputs":[]},{"type":"error","name":"NotInitializing","inputs":[]},{"type":"error","name":"OwnableInvalidOwner","inputs":[{"name":"owner","type":"address","internalType":"address"}]},{"type":"error","name":"OwnableUnauthorizedAccount","inputs":[{"name":"account","type":"address","internalType":"address"}]},{"type":"error","name":"ReentrancyGuardReentrantCall","inputs":[]}],"bytecode":{"object":"0x6080806040523460d0577ff0c57e16840df040f15088dc2f81fe391c3923bec73e23a9662efc9c229c6a005460ff8160401c1660c1576002600160401b03196001600160401b03821601605c575b60405161474390816100d58239f35b6001600160401b0319166001600160401b039081177ff0c57e16840df040f15088dc2f81fe391c3923bec73e23a9662efc9c229c6a005581527fc7f505b2f371ae2175ee4913f4499e1f2633a7b5936321eed1cdaeb6115181d290602090a15f80604d565b63f92ee8a960e01b5f5260045ffd5b5f80fdfe60806040526004361015610011575f80fd5b5f803560e01c806307da68f51461270457806317634514146126d9578063176474cf146125455780631af57b961461251457806322ebd58a146124825780632943dcab146124575780632e1a7d4d14611ee05780633013ce2914611eaa57806333ce93fe14611e7f578063378b22e414611e545780633e8ae1ae14611e26578063444e6a5a14611cfe5780634d7599f114611cd35780634e4d7af814611b755780634e69d56014611b4757806359c4afc014611b015780635fc8f59c14611ad6578063636fcefb14611943578063715018a6146118ed57806373134c151461174a5780637dfb66261461164e57806384608454146110355780638a0c725b1461100a5780638da5cb5b14610fd45780639bc6686814610f6a578063aba93a1014610f13578063ac9650d814610cfb578063ade0a20214610cd0578063bc126f1f14610b6a578063bd1926e014610b2d578063cb7b88d1146108d4578063cef74c8b146104d6578063d4773ff01461049f578063e93c4f1514610478578063ed7b7653146102a2578063f2574c1b146101e05763f2fde38b146101b1575f80fd5b346101dd5760203660031901126101dd576101da6101cd61293b565b6101d56138af565b6131db565b80f35b80fd5b50346101dd57806003193601126101dd576040515f8051602061432e8339815191528054808352908352602082019081907f17a21d30941a091c50cf295988f7232f281c42e3df40adbad57a37502bda8e9790855b81811061028c575050508261024b9103836129e7565b604051928392602084019060208552518091526040840192915b818110610273575050500390f35b8251845285945060209384019390920191600101610265565b8254845260209093019260019283019201610235565b50346101dd5760403660031901126101dd576004356024356002811015610474575f805160206143ce8339815191526102e560018060a01b038254163314613185565b6102ed612f7d565b600581101561046057602085939261030a60026004941415612c5f565b61033261031561328a565b60608101610324898251612e51565b9052610140810151906134c2565b5460405163fd44f92160e01b815292839182906001600160a01b03165afa908115610455578391610426575b505f8051602061450e833981519152545f8051602061458e833981519152546001600160a01b03918216929082169116803b15610422578492836084926040519687958694630459093360e21b86526004860152602485015289604485015260648401525af18015610417576103fe575b507f2a89b2e3d580398d6dc2db5e0f336b52602bbaa51afa9bb5cdf59239cf0d2bea602083604051908152a180f35b81610408916129e7565b61041357815f6103cf565b5080fd5b6040513d84823e3d90fd5b8480fd5b610448915060203d60201161044e575b61044081836129e7565b810190612e5e565b5f61035e565b503d610436565b6040513d85823e3d90fd5b634e487b7160e01b85526021600452602485fd5b8280fd5b50346101dd57806003193601126101dd576020606061049561328a565b0151604051908152f35b50346101dd57806003193601126101dd57506104d260ff5f8051602061446e833981519152541660405191829182612a0a565b0390f35b50346101dd5760603660031901126101dd576104f061293b565b602036602319011261041357604051602081016001600160401b038111828210176108c0576040526024358152604435915f805160206143ce83398151915261054360018060a01b038254163314613185565b61054b612f7d565b60058110156108ac576002610561911415612c5f565b5f8051602061448e8339815191528054905f8051602061444e8339815191525482101561086e578587525f8051602061456e83398151915260205260ff604088205416610833578587525f8051602061456e83398151915260205260408720600160ff1982541617905560018060a01b0384165f525f8051602061430e83398151915260205260405f20545f805160206144ce833981519152548110156107ef57600181018091116107db576001600160a01b0385165f9081525f8051602061430e8339815191526020526040902055600182019182106107c7575554604051630ecce30160e31b815290602090829060049082906001600160a01b03165afa80156107bc578590610785575b6004915083519260405193610682856129b0565b878552602080860191825260408087018981526001600160a01b03948516606089019081526080890196875289518c525f805160206145ce833981519152909352908a20965187559151600187015590516002860155516003850180546001600160a01b0319169190921617905551910155805161070d905f8051602061432e83398151915261415b565b156107415760207f9cd57cfa2e12a37215cabc6897396db265419bd7f06adad06227a2b163ecd6a39151604051908152a280f35b60405162461bcd60e51b815260206004820152601c60248201527b11985a5b1959081d1bc8185919081ddbdc9ad95c881d1bc81b1a5cdd60221b6044820152606490fd5b506020813d6020116107b4575b8161079f602093836129e7565b810103126107b0576004905161066e565b5f80fd5b3d9150610792565b6040513d87823e3d90fd5b634e487b7160e01b87526011600452602487fd5b634e487b7160e01b88526011600452602488fd5b606460405162461bcd60e51b815260206004820152602060248201527f4d617820776f726b657273207065722070726f766964657220726561636865646044820152fd5b60405162461bcd60e51b81526020600482015260136024820152721419595c925908185b1c9958591e481d5cd959606a1b6044820152606490fd5b60405162461bcd60e51b815260206004820152601660248201527515185c99d95d081ddbdc9ad95c9cc81c995858da195960521b6044820152606490fd5b634e487b7160e01b86526021600452602486fd5b634e487b7160e01b84526041600452602484fd5b50346101dd5760203660031901126101dd576004356001600160401b03811161041357610905903690600401612951565b5f805160206143ce833981519152546040516307dc0d1d60e41b815290602090829060049082906001600160a01b03165afa908115610b22578491610ae4575b506001600160a01b03163303610aa05761095d61328a565b610965612f7d565b6005811015806108ac57600282148015610a96575b818115610a86575b5015610a4657610460578015908115610a3b575b506109c7575b50825b8181106109aa578380f35b806109c16109bb6001938587613175565b35613d04565b0161099f565b60a00151156109d6575f61099c565b60405162461bcd60e51b815260206004820152603760248201527f4174206c65617374203120756e706169642065706f636820726571756972656460448201527620746f20636f6e7369646572206465616c207374616c6560481b6064820152608490fd5b60039150145f610996565b60405162461bcd60e51b815260206004820152601860248201527715dbdc9ad95c9cc81a5b881919585b08185c99481c185a5960421b6044820152606490fd5b90506108ac576003821481610982565b505084811561097a565b606460405162461bcd60e51b815260206004820152602060248201527f4f6e6c79206f7261636c652063616e2063616c6c2074686973206d6574686f646044820152fd5b90506020813d602011610b1a575b81610aff602093836129e7565b81010312610b1657610b1090612a1d565b5f610945565b8380fd5b3d9150610af2565b6040513d86823e3d90fd5b50346101dd5760203660031901126101dd5760ff6040826020935060043581525f8051602061456e83398151915284522054166040519015158152f35b50346101dd5760203660031901126101dd57600435610b88816130c1565b5f805160206143ce83398151915260018060a01b0390541690608060408201516024604051809581936321b9a09560e21b835260048301525afa918215610b22578492610c9f575b50606001516001600160a01b03163314908115610c88575b508015610c68575b15610bfe576101da90613d04565b60405162461bcd60e51b815260206004820152603c60248201527f4f6e6c792070726f76696465722c2070656572206f776e6572206f722064656160448201527b1b081bdddb995c8818d85b8818d85b1b081d1a1a5cc81b595d1a1bd960221b6064820152608490fd5b505f8051602061458e833981519152546001600160a01b03163314610bf0565b606001516001600160a01b0316331490505f610be8565b610cc291925060803d608011610cc9575b610cba81836129e7565b810190612b4f565b905f610bd0565b503d610cb0565b50346101dd57806003193601126101dd575060205f8051602061468e83398151915254604051908152f35b50346101dd5760203660031901126101dd576004356001600160401b03811161041357610d2c903690600401612951565b906020604051610d3c82826129e7565b848152818101601f198301368237610d5385612f66565b93610d6160405195866129e7565b858552601f19610d7087612f66565b01875b818110610f0457505036819003601e190190875b87811015610e8c57888160051b830135848112156104135783018035906001600160401b03821161047457880181360381136104745786610df284938b6040519382859383850197883783018281018881528e519283915e010185815203601f1981018352826129e7565b5190305af4893d15610e7957503d906001600160401b038211610e655791610e436001928c98979695948a601f19601f8401160191610e3460405193846129e7565b82523d8a8c84013e5b306140dc565b610e4d828b61314d565b52610e58818a61314d565b5001909192939450610d87565b634e487b7160e01b8b52604160045260248bfd5b9594939291610e43600192606090610e3d565b88868860405191808301818452825180915260408401918060408360051b870101940192865b838810610ebf5786860387f35b9091929394838080600193603f198b8203018752818a518051918291828552018484015e86838284010152601f80199101160101970193019701969093929193610eb2565b60608782018701528501610d73565b50346101dd5760203660031901126101dd5760a0610f326004356130c1565b608060405191805183526020810151602084015260408101516040840152600180851b03606082015116606084015201516080820152f35b50346101dd57806003193601126101dd57610f83612ad8565b505060408051610f9281612981565b63ffffffff60e01b5f805160206143ee8339815191525460e01b169081815260205f8051602061466e8339815191525491019081528251918252516020820152f35b50346101dd57806003193601126101dd57505f8051602061458e833981519152546040516001600160a01b039091168152602090f35b50346101dd57806003193601126101dd575060205f805160206144ce83398151915254604051908152f35b50346101dd576101803660031901126101dd576004356001600160a01b038116810361041357604036602319011261041357606435906001600160a01b03821682036104745760a4356001600160401b038111610b165736602382011215610b16576004810135906001600160401b0382116104225736602460608402830101116104225761010435600381101561164a57610124356001600160401b038111611646576110e7903690600401612951565b610164359690949193906001600160a01b0388168803611642575f8051602061464e83398151915254604081901c60ff161598906001600160401b0381168015908161163a575b6001149081611630575b159081611627575b50611618576001600160401b031981166001175f8051602061464e8339815191525561118e91908a6115f0575b506111766140b1565b61117e6140b1565b6111866140b1565b6101d56140b1565b6111966140b1565b5f805160206143ce833981519152966111ad6141c5565b5f8051602061452e8339815191525587546001600160a01b039182166001600160a01b03199182161789555f8051602061450e83398151915280549390921692169190911790556084355f8051602061444e83398151915255600160401b82116115dc575f8051602061440e83398151915254825f8051602061440e8339815191525580831061154f575b505f8051602061440e833981519152885292939287905f805160206146ce833981519152906024015b83831061150457505050506112a79060c4355f8051602061436e8339815191525560e4355f805160206144ce833981519152555f8051602061446e83398151915261306a565b5f8051602061442e83398151915290855b8181106114bf5750506024359150506001600160e01b031981168103610b165760e01c63ffffffff195f805160206143ee8339815191525416175f805160206143ee833981519152556044355f8051602061466e833981519152558260018060a01b03825416803b1561041357816040518092634492bd6b60e01b8252818381611346602460048301613627565b03925af18015610417576114aa575b505060206004915f805160206144ae83398151915260405180611379602482613627565b0390a16113846140b1565b610144355f8051602061438e8339815191525561139f6140b1565b54604051630ecce30160e31b815292839182906001600160a01b03165afa908115610455578391611478575b505f198101908111611464575f8051602061434e8339815191525560017f75428af146c22440e807f0e095d3de8e8b2c98df829dea65bcfe27a85a56daa0556114115780f35b60ff60401b195f8051602061464e83398151915254165f8051602061464e833981519152557fc7f505b2f371ae2175ee4913f4499e1f2633a7b5936321eed1cdaeb6115181d2602060405160018152a180f35b634e487b7160e01b83526011600452602483fd5b90506020813d6020116114a2575b81611493602093836129e7565b810103126107b057515f6113cb565b3d9150611486565b816114b4916129e7565b61047457825f611355565b6114ca818386613175565b35906001600160a01b038216820361150057600191828060a01b03165f528360205260405f208260ff19825416179055016112b8565b8780fd5b8096959635825560018201908a6020820135916006831015610413576001936003936060935060ff801983541691161790556040810135600286015501920192019190959495611261565b806003029060038204036115c857826003026003810484036115b4575f8051602061440e8339815191528a525f805160206146ce83398151915291820191015b81811061159c5750611238565b6003908a81558a60018201558a60028201550161158f565b634e487b7160e01b8a52601160045260248afd5b634e487b7160e01b89526011600452602489fd5b634e487b7160e01b88526041600452602488fd5b6001600160481b0319166001600160401b01175f8051602061464e833981519152555f61116d565b63f92ee8a960e01b8b5260048bfd5b9050155f611140565b303b159150611138565b8b915061112e565b8880fd5b8680fd5b8580fd5b50346101dd5760203660031901126101dd5760043561166c816130c1565b905f805160206143ce83398151915260018060a01b03905416608060408401516024604051809481936321b9a09560e21b835260048301525afa8015610b22576101da936116d9928692611729575b50606001516001600160a01b03163314908115611712575b50612ba4565b6117066116e5826130c1565b6116ed61328a565b928184925190606060018060a01b0391015116916138e2565b610140810151906134c2565b606001516001600160a01b0316331490505f6116d3565b61174391925060803d608011610cc957610cba81836129e7565b905f6116bb565b50346101dd5760203660031901126101dd5761176461293b565b5f805160206143ce833981519152546040516302984ebd60e31b815290602090829060049082906001600160a01b03165afa9081156104555783916118b3575b506001600160a01b031633148015611893575b6117c090612a31565b60ff5f8051602061446e8339815191525416600381101561187f571561183c576001600160a01b03165f8181525f8051602061442e8339815191526020908152604091829020805460ff1916600117905590519182527f4c26e4de691e265be6cf03e639754839907bf74687cd524a6734851331527ffd91a180f35b60405162461bcd60e51b815260206004820152601b60248201527a436f6e6669673a206163636573732074797065206973204e4f4e4560281b6044820152606490fd5b634e487b7160e01b83526021600452602483fd5b505f8051602061458e833981519152546001600160a01b031633146117b7565b90506020813d6020116118e5575b816118ce602093836129e7565b81010312610474576118df90612a1d565b5f6117a4565b3d91506118c1565b50346101dd57806003193601126101dd576119066138af565b5f8051602061458e83398151915280546001600160a01b0319811690915581906001600160a01b03165f805160206144ee8339815191528280a380f35b50346101dd5760203660031901126101dd576004356003811015610413575f805160206143ce833981519152546040516302984ebd60e31b815290602090829060049082906001600160a01b03165afa908115610455578391611a9c575b506001600160a01b031633148015611a7c575b6119bd90612a31565b60ff5f8051602061446e8339815191525416600381101561187f578114611a2c57611a2681611a1a7f1f5a251428f76335a835fcae94ab6a9bcf09ac33bd3c782eb6a81bdf878a7393935f8051602061446e83398151915261306a565b60405191829182612a0a565b0390a180f35b60405162461bcd60e51b815260206004820152602260248201527f436f6e6669673a20616363657373207479706520697320616c72656164792073604482015261195d60f21b6064820152608490fd5b505f8051602061458e833981519152546001600160a01b031633146119b4565b90506020813d602011611ace575b81611ab7602093836129e7565b8101031261047457611ac890612a1d565b5f6119a1565b3d9150611aaa565b50346101dd57806003193601126101dd575060205f8051602061436e83398151915254604051908152f35b50346101dd5760203660031901126101dd57611b1b61293b565b905060018060a01b03165f525f8051602061430e833981519152602052602060405f2054604051908152f35b50346101dd57806003193601126101dd57611b60612f7d565b60405190600581101561187f57602092508152f35b50346101dd57806003193601126101dd575f8051602061440e83398151915254611b9e81612f66565b90611bac60405192836129e7565b8082525f8051602061440e8339815191528352602082019083905f805160206146ce833981519152835b828410611c5557505050506040519160208301906020845251809152604083019190845b818610611c075784840385f35b90919283518051825260208101516006811015611c4157826040602093606093856001970152015160408201520194019501949190611bfa565b634e487b7160e01b84526021600452602484fd5b604051606081016001600160401b03811182821017611cbf576040528254815260ff6001840154166006811015611cab576001928260209283600395015260028601546040820152815201920193019290611bd6565b634e487b7160e01b89526021600452602489fd5b634e487b7160e01b89526041600452602489fd5b50346101dd57806003193601126101dd575060205f8051602061448e83398151915254604051908152f35b50346101dd5760203660031901126101dd57611d1861293b565b5f805160206143ce833981519152546040516302984ebd60e31b815290602090829060049082906001600160a01b03165afa908115610455578391611dd9575b505f805160206145ae833981519152916020916001600160a01b031633148015611db9575b611d8690612a31565b6001600160a01b03165f8181525f8051602061442e8339815191528352604090819020805460ff1916905551908152a180f35b505f8051602061458e833981519152546001600160a01b03163314611d7d565b90506020813d602011611e1e575b81611df4602093836129e7565b81010312610474575f805160206145ae83398151915291611e16602092612a1d565b915091611d58565b3d9150611de7565b50346101dd5760203660031901126101dd576020611e4a611e4561293b565b612ed6565b6040519015158152f35b50346101dd57806003193601126101dd575060205f805160206146ee83398151915254604051908152f35b50346101dd57806003193601126101dd575060205f8051602061438e83398151915254604051908152f35b50346101dd57806003193601126101dd57505f8051602061450e833981519152546040516001600160a01b039091168152602090f35b50346101dd5760203660031901126101dd575f805160206143ce83398151915280546040516302984ebd60e31b8152600480359392602091839182906001600160a01b03165afa908115610b2257849161241d575b506001600160a01b0316331480156123fd575b611f5190612a31565b5f8051602061460e8339815191525c6123ee5760015f8051602061460e8339815191525d5f805160206145ee833981519152611f8b61328a565b82546040516372ea4f2360e01b815290602090829060049082906001600160a01b03165afa9081156123e35786916123af575b50611fdb611ff0915f8051602061436e8339815191525490612e31565b5f8051602061444e8339815191525490612e31565b60608201611fff868251612e44565b8091526101008301511515806123a6575b1561232d57505060c08101515f805160206146ae8339815191525484546040516372ea4f2360e01b81529190602090839060049082906001600160a01b03165afa9081156123225788916122ec575b6120699250612e51565b1015612283578492612093602092846120858860049754612e44565b9055610140810151906134c2565b5460405163fd44f92160e01b815292839182906001600160a01b03165afa908115610417578291612264575b505f8051602061450e833981519152545f8051602061458e83398151915280546001600160a01b039384169391929082169116833b15610422576040516388081fcb60e01b81529185918391829161211c918a9160048501612e7d565b038183875af1908115610b2257849161224f575b50505f8051602061450e8339815191525490546001600160a01b039182169116823b15610b16576040516312bc368360e31b81529184918391829161217c918991339160048601612ea5565b038183865af190811561045557839161223a575b50505f8051602061450e833981519152546001600160a01b031690803b15610474578383916121d7938360405180968195829462b13fab60e11b8452339060048501612e7d565b03925af1801561041757612225575b507f430648de173157e069201c943adb2d4e340e7cf5b27b1b09c9cb852f03d63b56602083604051908152a1805f8051602061460e8339815191525d80f35b8161222f916129e7565b61041357815f6121e6565b81612244916129e7565b61041357815f612190565b81612259916129e7565b61047457825f612130565b61227d915060203d60201161044e5761044081836129e7565b5f6120bf565b60405162461bcd60e51b815260206004820152603b60248201527f43616e2774207769746864726177206265666f7265206d696e4465616c44657060448201527a1bdcda5d1959115c1bd8da1cc818599d195c881919585b08195b99602a1b6064820152608490fd5b90506020823d60201161231a575b81612307602093836129e7565b810103126107b05761206991519061205f565b3d91506122fa565b6040513d8a823e3d90fd5b9091939250106123465760206004916120938694611706565b60405162461bcd60e51b815260206004820152603260248201527f467265652062616c616e6365206e6565647320746f20636f766572206d696e4460448201527165616c4465706f736974656445706f63687360701b6064820152608490fd5b50818110612010565b90506020813d6020116123db575b816123ca602093836129e7565b810103126107b05751611fdb611fbe565b3d91506123bd565b6040513d88823e3d90fd5b633ee5aeb560e01b8352600483fd5b505f8051602061458e833981519152546001600160a01b03163314611f48565b90506020813d60201161244f575b81612438602093836129e7565b81010312610b165761244990612a1d565b5f611f35565b3d915061242b565b50346101dd57806003193601126101dd575060205f8051602061444e83398151915254604051908152f35b50346101dd5760403660031901126101dd576004356124a0816130c1565b905f805160206143ce83398151915260018060a01b03905416608060408401516024604051809481936321b9a09560e21b835260048301525afa8015610b22576101da9361250b9286926117295750606001516001600160a01b031633149081156117125750612ba4565b60243590612c9b565b50346101dd5760203660031901126101dd576040612533600435612af0565b60208251918051835201516020820152f35b50346101dd5760403660031901126101dd575f805160206143ce83398151915280546040516302984ebd60e31b8152839291602090829060049082906001600160a01b03165afa90811561045557839161269f575b506001600160a01b03163314801561267f575b6125b690612a31565b6004356001600160e01b03198116810361267b5760e01c63ffffffff195f805160206143ee8339815191525416175f805160206143ee833981519152556024355f8051602061466e8339815191525560018060a01b03905416803b1561267857816040518092634492bd6b60e01b82528183816126366004808301613627565b03925af1801561041757612663575b505f805160206144ae83398151915260405180611a26600482613627565b8161266d916129e7565b6101dd57805f612645565b50fd5b5050fd5b505f8051602061458e833981519152546001600160a01b031633146125ad565b90506020813d6020116126d1575b816126ba602093836129e7565b8101031261267b576126cb90612a1d565b5f61259a565b3d91506126ad565b50346101dd57806003193601126101dd575060205f8051602061452e83398151915254604051908152f35b50346107b0575f3660031901126107b0575f805160206143ce83398151915280546040516302984ebd60e31b815290602090829060049082906001600160a01b03165afa908115612864575f91612901575b506001600160a01b0316331480156128e1575b61277290612a31565b61277a612f7d565b60058110156128cd576002612790911415612a97565b61279b61170661328a565b8054604051630ecce30160e31b815290602090829060049082906001600160a01b03165afa908115612864575f9161289a575b506020817f3ad16bb58712aa329948d76146b096a4f4b85e024d99473dc50bcd358811b86c925f805160206146ee833981519152541161286f575b805f805160206146ae83398151915255604051908152a1546001600160a01b0316803b156107b0575f809160046040518094819362e481ad60e21b83525af1801561286457612856575080f35b61286291505f906129e7565b005b6040513d5f823e3d90fd5b805f805160206146ee833981519152555f805160206143ae83398151915282604051838152a1612809565b90506020813d6020116128c5575b816128b5602093836129e7565b810103126107b0575160206127ce565b3d91506128a8565b634e487b7160e01b5f52602160045260245ffd5b505f8051602061458e833981519152546001600160a01b03163314612769565b90506020813d602011612933575b8161291c602093836129e7565b810103126107b05761292d90612a1d565b5f612756565b3d915061290f565b600435906001600160a01b03821682036107b057565b9181601f840112156107b0578235916001600160401b0383116107b0576020808501948460051b0101116107b057565b604081019081106001600160401b0382111761299c57604052565b634e487b7160e01b5f52604160045260245ffd5b60a081019081106001600160401b0382111761299c57604052565b61016081019081106001600160401b0382111761299c57604052565b601f909101601f19168101906001600160401b0382119082101761299c57604052565b9190602083019260038210156128cd5752565b51906001600160a01b03821682036107b057565b15612a3857565b60405162461bcd60e51b815260206004820152603160248201527f4f6e6c7920566f646f706164206f72204465616c204f776e65722063616e206360448201527030b636103a3434b990333ab731ba34b7b760791b6064820152608490fd5b15612a9e57565b60405162461bcd60e51b81526020600482015260126024820152714465616c206973206e6f742061637469766560701b6044820152606490fd5b60405190612ae582612981565b5f6020838281520152565b604051612afc81612981565b5f81525f602082015250612b0e61328a565b90612b18816130c1565b5115612b355781612b2c612b3293836136ea565b916137d5565b90565b5050604051612b4381612981565b5f81525f602082015290565b908160809103126107b05760405190608082016001600160401b0381118382101761299c57612b9c9160609160405280518452602081015160208501526040810151604085015201612a1d565b606082015290565b15612bab57565b60405162461bcd60e51b815260206004820152603060248201527f4f6e6c792070726f7669646572206f722070656572206f776e65722063616e2060448201526f18d85b1b081d1a1a5cc81b595d1a1bd960821b6064820152608490fd5b15612c1057565b60405162461bcd60e51b815260206004820152602160248201527f4f6666636861696e20776f726b65722069642063616e277420626520656d70746044820152607960f81b6064820152608490fd5b15612c6657565b60405162461bcd60e51b815260206004820152600d60248201526c1119585b081a5cc8195b991959609a1b6044820152606490fd5b81151590612ca882612c09565b612cb061328a565b61014081015192825f525f805160206145ce833981519152602052612cd860405f2091612c09565b805415612def575b8481557fcf79e0e27c8c35d39bd9b727f35e6f79573597f660c88baf483fc1511c49203c60408051858152876020820152a160025f8051602061468e8339815191525491015493612d3182846134c2565b612d39612f7d565b60058110156128cd5780612d536002612d5a931415612c5f565b1515612a97565b14612de957815f525f805160206142ee833981519152602052600160a060405f209260e0810151845501519101555f805160206143ce83398151915260018060a01b03905416803b156107b0575f9283606492604051968795869463852cdb0160e01b86526004860152602485015260448401525af1801561286457612ddd5750565b5f612de7916129e7565b565b50505050565b5f8051602061468e833981519152545f198114612e1d576001015f8051602061468e83398151915255612ce0565b634e487b7160e01b5f52601160045260245ffd5b81810292918115918404141715612e1d57565b91908203918211612e1d57565b91908201809211612e1d57565b908160209103126107b057516001600160a01b03811681036107b05790565b6001600160a01b0391821681529116602082015260408101919091525f606082015260800190565b6001600160a01b0391821681529181166020830152909116604082015260608101919091525f608082015260a00190565b60ff5f8051602061446e833981519152541660038110156128cd578015612f5f5760018114612f3557600214612f0b57505f90565b6001600160a01b03165f9081525f8051602061442e833981519152602052604090205460ff161590565b506001600160a01b03165f9081525f8051602061442e833981519152602052604090205460ff1690565b5050600190565b6001600160401b03811161299c5760051b60200190565b612f8561328a565b610100810151613064575f805160206146ee833981519152548015159081613056575b5061305157606001515f805160206143ce833981519152546040516372ea4f2360e01b815290602090829060049082906001600160a01b03165afa908115612864575f9161301d575b50611fdb61300e915f8051602061436e8339815191525490612e31565b1161301857600190565b600490565b90506020813d602011613049575b81613038602093836129e7565b810103126107b05751611fdb612ff1565b3d915061302b565b505f90565b905060c0820151115f612fa8565b50600290565b9060038110156128cd5760ff80198354169116179055565b1561308957565b60405162461bcd60e51b815260206004820152601060248201526f15dbdc9ad95c881b9bdd08199bdd5b9960821b6044820152606490fd5b5f60806040516130d0816129b0565b82815282602082015282604082015282606082015201525f525f805160206145ce83398151915260205260405f20612b326040519161310e836129b0565b805483526001810154602084018190526002820154604085015260038201546001600160a01b0316606085015260049091015460808401521515613082565b80518210156131615760209160051b010190565b634e487b7160e01b5f52603260045260245ffd5b91908110156131615760051b0190565b1561318c57565b60405162461bcd60e51b815260206004820152602160248201527f436f6e6669673a2063616c6c6572206973206e6f7420746865204469616d6f6e6044820152601960fa1b6064820152608490fd5b6001600160a01b03168015613226575f8051602061458e83398151915280546001600160a01b0319811683179091556001600160a01b03165f805160206144ee8339815191525f80a3565b631e4fbdf760e01b5f525f60045260245ffd5b60405190613246826129cb565b5f610140838281528260208201528260408201528260608201528260808201528260a08201528260c08201528260e082015282610100820152826101208201520152565b600490613295613239565b505f805160206143ce83398151915254604051630ecce30160e31b8152925f805160206145ee83398151915291602091859182906001600160a01b03165afa928315612864575f9361348e575b505f198301838111612e1d57925f805160206146ae83398151915254935f9480613482575b505f8051602061468e83398151915254945f8051602061436e8339815191525493613330613239565b5054925f8051602061454e833981519152545f8051602061462e83398151915254906040519561335f876129cb565b8087528160208801528260408801526060870152608086015260a085015260c08401528160e08401521515610100830152826101208301528461014083015281945f8051602061434e83398151915254928383111561347a57505f805160206146ee833981519152549384831115613446578484106133fa5750506133f69192506133f060a0860193845192612e44565b90612e51565b9052565b9061340f6134149261340f6133f69688612e44565b612e31565b60608601613423828251612e44565b905261343460808701918251612e51565b90526133f060a0860193845192612e44565b909261345a945061340f9061340f93612e44565b60608301613469828251612e44565b90526133f660808401918251612e51565b955050505050565b6001955090505f613307565b9092506020813d6020116134ba575b816134aa602093836129e7565b810103126107b05751915f6132e2565b3d915061349d565b905f805160206145ee83398151915282516060840191825180920361361f575b50506020830151608084015180910361360a575b50604083015160a08401518091036135f5575b5060e08301519261010081015115613530575b5050505f8051602061434e83398151915255565b821590816135aa5750506135549051915f8051602061436e83398151915254612e31565b8015613596576135766020915f805160206143ae833981519152930484612e51565b805f805160206146ee83398151915255604051908152a15b5f808061351c565b634e487b7160e01b5f52601260045260245ffd5b6101400151151592509050816135ed575b501561358e575f5f805160206146ee833981519152555f805160206143ae83398151915260206040515f8152a161358e565b90505f6135bb565b5f8051602061462e833981519152555f613509565b5f8051602061454e833981519152555f6134f6565b555f806134e2565b60408101929180356001600160e01b03198116908190036107b0578252602090810135910152565b90816101609103126107b05760405190613668826129cb565b80519060068210156107b0576101409183526020810151602084015260408101516040840152606081015160608401526080810151608084015260a081015160a084015260c081015160c08401526136c260e08201612a1d565b60e0840152610100810151610100840152610120810151610120840152015161014082015290565b9060e00151905f805160206143ce8339815191529060ff5f8051602061446e833981519152541660038110156128cd576001146137d05761372d61016091613f9b565b9154604051631de5608360e21b81526004810193909352829060249082906001600160a01b03165afa908115612864575f916137a1575b506101208101518061379b575060a00180515f198101908111612e1d57821161378b575090565b515f19810191508111612e1d5790565b91505090565b6137c391506101603d81116137c9575b6137bb81836129e7565b81019061364f565b5f613764565b503d6137b1565b505090565b916040516137e281612981565b5f81525f602082015250825f525f805160206142ee83398151915260205261380d60405f2093614017565b9280549182811061389e5760a061382961383594600193612e44565b94015191015490612e44565b80821061388f5761386f613868613853629896809361387795612e44565b5f8051602061436e8339815191525490612e31565b9384612e31565b048092612e44565b906040519161388583612981565b8252602082015290565b505050604051612b4381612981565b5050505050604051612b4381612981565b5f8051602061458e833981519152546001600160a01b031633036138cf57565b63118cdaa760e01b5f523360045260245ffd5b9291905f9015612de9576138f683856136ea565b916139028385876137d5565b928351946139166020860196875190612e51565b918215613cfa5761395291608091895f525f805160206142ee83398151915260205260405f20908155600160a083015191015501918251612e44565b90525f805160206143ce833981519152805460405163fd44f92160e01b81529190602090839060049082906001600160a01b03165afa918215612864575f92613cd9575b5060018060a01b035f8051602061450e8339815191525416928551613ba1575b5085516139ff575b50505050916060917fc512f9d0bb2627096491f1074af42a5032fe36ef5dcae7c216cfc34f6ea474d6935190519060405192835260208301526040820152a1565b54604051638da5cb5b60e01b81529190602090839060049082906001600160a01b03165afa918215610b22578492613b65575b505f8051602061458e833981519152805487516001600160a01b039384169493909116843b15611646576040516388081fcb60e01b815291879183918291613a7f91908a60048501612e7d565b038183885af180156123e357908691613b50575b5050548651906001600160a01b0316833b1561164a57828691613acb60405194859384936312bc368360e31b85528a60048601612ea5565b038183875af180156107bc57908591613b3b575b5050855192823b156104225791613b1093918580946040519687958694859362b13fab60e11b855260048501612e7d565b03925af1801561041757613b26575b80806139be565b613b318280926129e7565b6101dd5780613b1f565b81613b45916129e7565b610b1657835f613adf565b81613b5a916129e7565b61042257845f613a93565b9091506020813d602011613b99575b81613b81602093836129e7565b81010312610b1657613b9290612a1d565b905f613a32565b3d9150613b74565b5f8051602061458e833981519152805487516001600160a01b03868116939216833b156107b0576040516388081fcb60e01b8152915f9183918291613beb91908c60048501612e7d565b038183875af1801561286457613cc4575b50548751906001600160a01b0316823b1561150057838891613c3360405194859384936312bc368360e31b85528c60048601612ea5565b038183865af18015613cb957908791613ca4575b5050865191813b1561164657918691613c77938360405180968195829462b13fab60e11b84528c60048501612e7d565b03925af180156107bc57908591613c8f575b506139b6565b81613c99916129e7565b610b1657835f613c89565b81613cae916129e7565b61164a57855f613c47565b6040513d89823e3d90fd5b613cd19197505f906129e7565b5f955f613bfc565b613cf391925060203d60201161044e5761044081836129e7565b905f613996565b5050505050505050565b613d0d816130c1565b90613d1661328a565b613d328184515f95606060018060a01b039101511690856138e2565b5f8051602061448e833981519152825f525f805160206145ce83398151915260205260405f2060405190613d65826129b0565b8054825260018101546020830181905260028201546040840190815260038301546001600160a01b03166060850190815260049093015460808501529390613dae901515613082565b613db8815461413a565b9055516001600160a01b03165f9081525f8051602061430e833981519152602052604090208054613de89061413a565b905551613f70575b5190815f525f8051602061456e83398151915260205260405f2060ff198154169055825f525f805160206145ce8339815191526020525f6004604082208281558260018201558260028201558260038201550155613e5b835f8051602061432e833981519152614228565b15613f2157613ea3917f2931f8975c0ce3cdf8ebe0cac36f06048736d46d6df66ac21cfe717b9ee710066020604051868152a25f8051602061468e83398151915254906134c2565b5f805160206143ce833981519152546001600160a01b0316803b156107b0575f809160246040518094819363ee22bfb760e01b83528760048401525af1801561286457613f0c575b5081525f805160206142ee8339815191526020526001604082208281550155565b613f199192505f906129e7565b5f905f613eeb565b60405162461bcd60e51b815260206004820152602160248201527f4661696c656420746f2072656d6f766520776f726b65722066726f6d206c69736044820152601d60fa1b6064820152608490fd5b613f875f8051602061468e8339815191525461413a565b5f8051602061468e83398151915255613df0565b613fa4906130c1565b5f805160206143ce8339815191525460409182015191516321b9a09560e21b81526004810192909252608090829060249082906001600160a01b03165afa8015612864576020915f91613ff8575b50015190565b614011915060803d608011610cc957610cba81836129e7565b5f613ff2565b5f805160206143ce8339815191529060ff5f8051602061446e833981519152541660038110156128cd576001146140ab5761405461016091613f9b565b9154604051631de5608360e21b81526004810193909352829060249082906001600160a01b03165afa80156128645760c0915f916140925750015190565b61401191506101603d81116137c9576137bb81836129e7565b50505f90565b60ff5f8051602061464e8339815191525460401c16156140cd57565b631afcd79f60e31b5f5260045ffd5b9061410057508051156140f157805190602001fd5b63d6bda27560e01b5f5260045ffd5b81511580614131575b614111575090565b639996b31560e01b5f9081526001600160a01b0391909116600452602490fd5b50803b15614109565b8015612e1d575f190190565b8054821015613161575f5260205f2001905f90565b6001810190825f528160205260405f2054155f146141be578054600160401b81101561299c576141ab614195826001879401855584614146565b819391549060031b91821b915f19901b19161790565b905554915f5260205260405f2055600190565b5050505f90565b60643b156142245760405163a3b1b31d60e01b815260208160048160645afa908115612864575f916141f5575090565b90506020813d60201161421c575b81614210602093836129e7565b810103126107b0575190565b3d9150614203565b4390565b906001820191815f528260205260405f20548015155f146142e5575f198101818111612e1d5782545f19810191908211612e1d578181036142b0575b5050508054801561429c575f19019061427d8282614146565b8154905f199060031b1b19169055555f526020525f6040812055600190565b634e487b7160e01b5f52603160045260245ffd5b6142d06142c06141959386614146565b90549060031b1c92839286614146565b90555f528360205260405f20555f8080614264565b505050505f9056fe75428af146c22440e807f0e095d3de8e8b2c98df829dea65bcfe27a85a56da9d5def38ecf5a0fa5e33a9a271693efbf3a526ddb1f7ef0ec33f3c6d26e39ee7165def38ecf5a0fa5e33a9a271693efbf3a526ddb1f7ef0ec33f3c6d26e39ee71975428af146c22440e807f0e095d3de8e8b2c98df829dea65bcfe27a85a56da9c136dd5357dcf392c42e49859cef979aa9638cbada31d1f29a19bc18654c3ba6675428af146c22440e807f0e095d3de8e8b2c98df829dea65bcfe27a85a56da9fcecd349d986645e1758ec135f91f1ad20564a8bcc6c2b5a5eaca9b09841495c5136dd5357dcf392c42e49859cef979aa9638cbada31d1f29a19bc18654c3ba5c136dd5357dcf392c42e49859cef979aa9638cbada31d1f29a19bc18654c3ba5e136dd5357dcf392c42e49859cef979aa9638cbada31d1f29a19bc18654c3ba65136dd5357dcf392c42e49859cef979aa9638cbada31d1f29a19bc18654c3ba64136dd5357dcf392c42e49859cef979aa9638cbada31d1f29a19bc18654c3ba61136dd5357dcf392c42e49859cef979aa9638cbada31d1f29a19bc18654c3ba635def38ecf5a0fa5e33a9a271693efbf3a526ddb1f7ef0ec33f3c6d26e39ee714c820a66d3bdd50a45cf12cda6dc8ec9e94fb5123edd7da736eea18316f8523a0136dd5357dcf392c42e49859cef979aa9638cbada31d1f29a19bc18654c3ba628be0079c531659141344cd1fd0a4f28419497f9722a3daafe3b4186f6b6457e0136dd5357dcf392c42e49859cef979aa9638cbada31d1f29a19bc18654c3ba60136dd5357dcf392c42e49859cef979aa9638cbada31d1f29a19bc18654c3ba5d75428af146c22440e807f0e095d3de8e8b2c98df829dea65bcfe27a85a56da995def38ecf5a0fa5e33a9a271693efbf3a526ddb1f7ef0ec33f3c6d26e39ee718b13d3e7783d509d8d65d3e1e62ec0b103a07e0cbfa1ee74ae19127f297dddfcc38fb081a0b484406977bd94ff8edb79be44b5ca514130361182516b39e2c45285def38ecf5a0fa5e33a9a271693efbf3a526ddb1f7ef0ec33f3c6d26e39ee71775428af146c22440e807f0e095d3de8e8b2c98df829dea65bcfe27a85a56da989b779b17422d0df92223018b32b4d1fa46e071723d6817e2486d003becc55f0075428af146c22440e807f0e095d3de8e8b2c98df829dea65bcfe27a85a56da9af0c57e16840df040f15088dc2f81fe391c3923bec73e23a9662efc9c229c6a00136dd5357dcf392c42e49859cef979aa9638cbada31d1f29a19bc18654c3ba5f5def38ecf5a0fa5e33a9a271693efbf3a526ddb1f7ef0ec33f3c6d26e39ee71575428af146c22440e807f0e095d3de8e8b2c98df829dea65bcfe27a85a56da9e548c65cbf2bdf872afec988c5b3fb8afde695bac13e6d3020de483ba011bf21775428af146c22440e807f0e095d3de8e8b2c98df829dea65bcfe27a85a56da9ba2646970667358221220912886b2b380af20fc752be2a5acc58ab1aaee8981c14b2aea91f00cc045104e64736f6c634300081a0033","linkReferences":{}},"methodIdentifiers":{"activateWorker(bytes32,bytes32)":"22ebd58a","addProviderToAccessList(address)":"73134c15","addWorker(address,(bytes32),bytes32)":"cef74c8b","appCID()":"9bc66868","changeProvidersAccessType(uint8)":"636fcefb","computePeerUsed(bytes32)":"bd1926e0","creationBlock()":"17634514","depositFromOwner(uint256,uint8)":"ed7b7653","getActivatedWorkerCount()":"ade0a202","getFreeBalance()":"e93c4f15","getMaxPaidEpoch()":"378b22e4","getProtocolVersion()":"33ce93fe","getRewardAmount(bytes32)":"1af57b96","getStatus()":"4e69d560","getWorker(bytes32)":"aba93a10","getWorkerCount()":"4d7599f1","getWorkerCount(address)":"59c4afc0","getWorkerIds()":"f2574c1b","initialize(address,(bytes4,bytes32),address,uint256,(bytes32,uint8,uint256)[],uint256,uint256,uint8,address[],uint256,address)":"84608454","isProviderAllowed(address)":"3e8ae1ae","maxWorkersPerProvider()":"8a0c725b","multicall(bytes[])":"ac9650d8","owner()":"8da5cb5b","paymentToken()":"3013ce29","pricePerEpoch()":"5fc8f59c","providersAccessType()":"d4773ff0","removeProviderFromAccessList(address)":"444e6a5a","removeStaleWorkers(bytes32[])":"cb7b88d1","removeWorker(bytes32)":"bc126f1f","renounceOwnership()":"715018a6","requiredResources()":"4e4d7af8","setAppCID((bytes4,bytes32))":"176474cf","stop()":"07da68f5","targetWorkers()":"2943dcab","transferOwnership(address)":"f2fde38b","withdraw(uint256)":"2e1a7d4d","withdrawRewards(bytes32)":"7dfb6626"},"storageLayout":{"storage":[],"types":{}},"devdoc":{"version":1,"kind":"dev","methods":{"activateWorker(bytes32,bytes32)":{"details":"Set offchain worker ID for a corresponding onchain worker for a deal"},"addProviderToAccessList(address)":{"details":"Adds a provider to the access list"},"addWorker(address,(bytes32),bytes32)":{"details":"Adds a compute unit to the deal","params":{"computeProvider":"The compute provider address","peerId":"The peer ID","workerData":"The worker with data"}},"appCID()":{"details":"Returns the app CID"},"changeProvidersAccessType(uint8)":{"details":"Change the providers access type"},"computePeerUsed(bytes32)":{"details":"Returns the boolean flag indicating whether the peer exists in the deal"},"constructor":{},"creationBlock()":{"details":"Returns the creation block of the deal"},"depositFromOwner(uint256,uint8)":{"details":"Deposits payment token to the deal"},"getActivatedWorkerCount()":{"details":"Returns the worker count. Worker is a compute unit that has a worker ID"},"getFreeBalance()":{"details":"Returns the free balance of the deal"},"getMaxPaidEpoch()":{"details":"Returns the max paid epoch"},"getProtocolVersion()":{"details":"Returns the protocol version"},"getRewardAmount(bytes32)":{"details":"Returns the reward amount by compute unit ID"},"getStatus()":{"details":"Returns the status of the deal"},"getWorkerCount()":{"details":"Returns total number of workers"},"getWorkerCount(address)":{"details":"Returns number of workers in provider"},"getWorkerIds()":{"details":"Returns workers registered in this deal"},"isProviderAllowed(address)":{"details":"Returns the boolean indicating whether the provider is allowed or not"},"maxWorkersPerProvider()":{"details":"Returns the max number of workers per provider"},"multicall(bytes[])":{"details":"Receives and executes a batch of function calls on this contract."},"owner()":{"details":"Returns the address of the current owner."},"paymentToken()":{"details":"Returns the payment token address"},"pricePerEpoch()":{"details":"Returns the price per epoch"},"providersAccessType()":{"details":"Returns the providers access type"},"removeProviderFromAccessList(address)":{"details":"Removes a provider from the access list"},"removeStaleWorkers(bytes32[])":{"details":"Allows oracle to remove worker from a deal that is not paying workers."},"removeWorker(bytes32)":{"details":"Removes a worker from the deal"},"renounceOwnership()":{"details":"Leaves the contract without owner. It will not be possible to call `onlyOwner` functions. Can only be called by the current owner. NOTE: Renouncing ownership will leave the contract without an owner, thereby disabling any functionality that is only available to the owner."},"requiredResources()":{"details":"Returns the price per epoch"},"setAppCID((bytes4,bytes32))":{"details":"Sets the app CID"},"stop()":{"details":"Stop the deal"},"targetWorkers()":{"details":"Returns the max number of workers"},"transferOwnership(address)":{"details":"Transfers ownership of the contract to a new account (`newOwner`). Can only be called by the current owner."},"withdraw(uint256)":{"details":"Withdraws payment token from the deal"},"withdrawRewards(bytes32)":{"details":"Withdraws rewards from the deal by compute unit ID"}},"events":{"AppCIDChanged((bytes4,bytes32))":{"details":"Emitted when the app CID is changed","params":{"newAppCID":"The new app CID"}},"DealEnded(uint256)":{"details":"Emitted when a deal is ended. This event can be emitted in the not-ended epoch. It can be emitted after the ended epoch in any epoch"},"Deposited(uint256)":{"details":"Emitted when a owner deposits payment token to the deal"},"Initialized(uint64)":{"details":"Triggered when the contract has been initialized or reinitialized."},"MaxPaidEpochUpdated(uint256)":{"details":"Emitted when a max paid epoch is updated"},"ProviderAddedToAccessList(address)":{"details":"Emitted when a provider is added to the access list","params":{"provider":"The provider address"}},"ProviderRemovedFromAccessList(address)":{"details":"Emitted when a provider is removed from the access list","params":{"provider":"The provider address"}},"ProvidersAccessTypeChanged(uint8)":{"details":"Emitted when the providers access type is changed","params":{"newAccessType":"The new access type"}},"RewardWithdrawn(bytes32,uint256,uint256)":{"details":"Emitted when a compute unit withdraws rewards from the deal"},"Withdrawn(uint256)":{"details":"Emitted when a owner withdraws payment token from the deal"},"WorkerIdUpdated(bytes32,bytes32)":{"details":"Emitted when a worker ID is updated","params":{"offchainWorkerId":"The new worker ID","onchainWorkerId":"The worker"}},"WorkerJoined(bytes32,bytes32)":{"details":"Emitted when a new worker is added","params":{"onchainId":"The worker ID","peerId":"The id of compute peer"}},"WorkerRemoved(bytes32,bytes32)":{"details":"Emitted when a worker is removed","params":{"onchainId":"The worker onchain ID","peerId":"The id of compute peer"}}},"errors":{"AddressEmptyCode(address)":[{"details":"There's no code at `target` (it is not a contract)."}],"FailedCall()":[{"details":"A call to an address target failed. The target may have reverted."}],"InvalidInitialization()":[{"details":"The contract is already initialized."}],"NotInitializing()":[{"details":"The contract is not initializing."}],"OwnableInvalidOwner(address)":[{"details":"The owner is not a valid owner account. (eg. `address(0)`)"}],"OwnableUnauthorizedAccount(address)":[{"details":"The caller account is not authorized to perform an operation."}],"ReentrancyGuardReentrantCall()":[{"details":"Unauthorized reentrant call."}]}},"id":86}