{"abi":[{"type":"constructor","inputs":[],"stateMutability":"nonpayable"},{"type":"function","name":"activateWorker","inputs":[{"name":"onchainWorkerId","type":"bytes32","internalType":"bytes32"},{"name":"offchainWorkerId","type":"bytes32","internalType":"bytes32"}],"outputs":[],"stateMutability":"nonpayable"},{"type":"function","name":"addProviderToAccessList","inputs":[{"name":"provider","type":"address","internalType":"address"}],"outputs":[],"stateMutability":"nonpayable"},{"type":"function","name":"addWorker","inputs":[{"name":"computeProvider","type":"address","internalType":"address"},{"name":"workerData","type":"tuple","internalType":"struct IWorkerManager.WorkerData","components":[{"name":"onchainId","type":"bytes32","internalType":"bytes32"},{"name":"computeUnitIds","type":"bytes32[]","internalType":"bytes32[]"}]},{"name":"peerId","type":"bytes32","internalType":"bytes32"}],"outputs":[],"stateMutability":"nonpayable"},{"type":"function","name":"appCID","inputs":[],"outputs":[{"name":"","type":"tuple","internalType":"struct CIDV1","components":[{"name":"prefixes","type":"bytes4","internalType":"bytes4"},{"name":"hash","type":"bytes32","internalType":"bytes32"}]}],"stateMutability":"view"},{"type":"function","name":"changeProvidersAccessType","inputs":[{"name":"accessType","type":"uint8","internalType":"enum IConfig.AccessType"}],"outputs":[],"stateMutability":"nonpayable"},{"type":"function","name":"computePeerUsed","inputs":[{"name":"peerId","type":"bytes32","internalType":"bytes32"}],"outputs":[{"name":"","type":"bool","internalType":"bool"}],"stateMutability":"view"},{"type":"function","name":"creationBlock","inputs":[],"outputs":[{"name":"","type":"uint256","internalType":"uint256"}],"stateMutability":"view"},{"type":"function","name":"cuCountPerWorker","inputs":[],"outputs":[{"name":"","type":"uint256","internalType":"uint256"}],"stateMutability":"view"},{"type":"function","name":"deposit","inputs":[{"name":"amount","type":"uint256","internalType":"uint256"}],"outputs":[],"stateMutability":"nonpayable"},{"type":"function","name":"effectors","inputs":[],"outputs":[{"name":"","type":"tuple[]","internalType":"struct CIDV1[]","components":[{"name":"prefixes","type":"bytes4","internalType":"bytes4"},{"name":"hash","type":"bytes32","internalType":"bytes32"}]}],"stateMutability":"view"},{"type":"function","name":"getActivatedWorkerCount","inputs":[],"outputs":[{"name":"","type":"uint256","internalType":"uint256"}],"stateMutability":"view"},{"type":"function","name":"getFreeBalance","inputs":[],"outputs":[{"name":"","type":"uint256","internalType":"uint256"}],"stateMutability":"view"},{"type":"function","name":"getMaxPaidEpoch","inputs":[],"outputs":[{"name":"","type":"uint256","internalType":"uint256"}],"stateMutability":"view"},{"type":"function","name":"getProtocolVersion","inputs":[],"outputs":[{"name":"","type":"uint256","internalType":"uint256"}],"stateMutability":"view"},{"type":"function","name":"getRewardAmount","inputs":[{"name":"onchainWorkerId","type":"bytes32","internalType":"bytes32"}],"outputs":[{"name":"","type":"tuple","internalType":"struct IDeal.DealRewards","components":[{"name":"providerReward","type":"uint256","internalType":"uint256"},{"name":"stakerReward","type":"uint256","internalType":"uint256"}]}],"stateMutability":"view"},{"type":"function","name":"getStatus","inputs":[],"outputs":[{"name":"","type":"uint8","internalType":"enum IDeal.Status"}],"stateMutability":"view"},{"type":"function","name":"getWorker","inputs":[{"name":"onchainWorkerId","type":"bytes32","internalType":"bytes32"}],"outputs":[{"name":"","type":"tuple","internalType":"struct IWorkerManager.Worker","components":[{"name":"offchainId","type":"bytes32","internalType":"bytes32"},{"name":"onchainId","type":"bytes32","internalType":"bytes32"},{"name":"peerId","type":"bytes32","internalType":"bytes32"},{"name":"provider","type":"address","internalType":"address"},{"name":"joinedEpoch","type":"uint256","internalType":"uint256"},{"name":"computeUnitIds","type":"bytes32[]","internalType":"bytes32[]"}]}],"stateMutability":"view"},{"type":"function","name":"getWorkerCount","inputs":[],"outputs":[{"name":"","type":"uint256","internalType":"uint256"}],"stateMutability":"view"},{"type":"function","name":"getWorkerCount","inputs":[{"name":"provider","type":"address","internalType":"address"}],"outputs":[{"name":"","type":"uint256","internalType":"uint256"}],"stateMutability":"view"},{"type":"function","name":"getWorkers","inputs":[],"outputs":[{"name":"","type":"tuple[]","internalType":"struct IWorkerManager.Worker[]","components":[{"name":"offchainId","type":"bytes32","internalType":"bytes32"},{"name":"onchainId","type":"bytes32","internalType":"bytes32"},{"name":"peerId","type":"bytes32","internalType":"bytes32"},{"name":"provider","type":"address","internalType":"address"},{"name":"joinedEpoch","type":"uint256","internalType":"uint256"},{"name":"computeUnitIds","type":"bytes32[]","internalType":"bytes32[]"}]}],"stateMutability":"view"},{"type":"function","name":"initialize","inputs":[{"name":"diamond_","type":"address","internalType":"contract IDiamond"},{"name":"appCID_","type":"tuple","internalType":"struct CIDV1","components":[{"name":"prefixes","type":"bytes4","internalType":"bytes4"},{"name":"hash","type":"bytes32","internalType":"bytes32"}]},{"name":"paymentToken_","type":"address","internalType":"contract IERC20"},{"name":"minWorkers_","type":"uint256","internalType":"uint256"},{"name":"targetWorkers_","type":"uint256","internalType":"uint256"},{"name":"cuCountPerWorker_","type":"uint256","internalType":"uint256"},{"name":"maxWorkersPerProvider_","type":"uint256","internalType":"uint256"},{"name":"pricePerCuPerEpoch_","type":"uint256","internalType":"uint256"},{"name":"effectors_","type":"tuple[]","internalType":"struct CIDV1[]","components":[{"name":"prefixes","type":"bytes4","internalType":"bytes4"},{"name":"hash","type":"bytes32","internalType":"bytes32"}]},{"name":"providersAccessType_","type":"uint8","internalType":"enum IConfig.AccessType"},{"name":"providersAccessList_","type":"address[]","internalType":"address[]"},{"name":"protocolVersion_","type":"uint256","internalType":"uint256"}],"outputs":[],"stateMutability":"nonpayable"},{"type":"function","name":"isProviderAllowed","inputs":[{"name":"account","type":"address","internalType":"address"}],"outputs":[{"name":"","type":"bool","internalType":"bool"}],"stateMutability":"view"},{"type":"function","name":"maxWorkersPerProvider","inputs":[],"outputs":[{"name":"","type":"uint256","internalType":"uint256"}],"stateMutability":"view"},{"type":"function","name":"minWorkers","inputs":[],"outputs":[{"name":"","type":"uint256","internalType":"uint256"}],"stateMutability":"view"},{"type":"function","name":"multicall","inputs":[{"name":"data","type":"bytes[]","internalType":"bytes[]"}],"outputs":[{"name":"results","type":"bytes[]","internalType":"bytes[]"}],"stateMutability":"nonpayable"},{"type":"function","name":"owner","inputs":[],"outputs":[{"name":"","type":"address","internalType":"address"}],"stateMutability":"view"},{"type":"function","name":"paymentToken","inputs":[],"outputs":[{"name":"","type":"address","internalType":"contract IERC20"}],"stateMutability":"view"},{"type":"function","name":"pricePerCuPerEpoch","inputs":[],"outputs":[{"name":"","type":"uint256","internalType":"uint256"}],"stateMutability":"view"},{"type":"function","name":"providersAccessType","inputs":[],"outputs":[{"name":"","type":"uint8","internalType":"enum IConfig.AccessType"}],"stateMutability":"view"},{"type":"function","name":"removeProviderFromAccessList","inputs":[{"name":"provider","type":"address","internalType":"address"}],"outputs":[],"stateMutability":"nonpayable"},{"type":"function","name":"removeWorker","inputs":[{"name":"onchainWorkerId","type":"bytes32","internalType":"bytes32"}],"outputs":[],"stateMutability":"nonpayable"},{"type":"function","name":"renounceOwnership","inputs":[],"outputs":[],"stateMutability":"nonpayable"},{"type":"function","name":"setAppCID","inputs":[{"name":"appCID_","type":"tuple","internalType":"struct CIDV1","components":[{"name":"prefixes","type":"bytes4","internalType":"bytes4"},{"name":"hash","type":"bytes32","internalType":"bytes32"}]}],"outputs":[],"stateMutability":"nonpayable"},{"type":"function","name":"stop","inputs":[],"outputs":[],"stateMutability":"nonpayable"},{"type":"function","name":"targetWorkers","inputs":[],"outputs":[{"name":"","type":"uint256","internalType":"uint256"}],"stateMutability":"view"},{"type":"function","name":"transferOwnership","inputs":[{"name":"newOwner","type":"address","internalType":"address"}],"outputs":[],"stateMutability":"nonpayable"},{"type":"function","name":"withdraw","inputs":[{"name":"amount","type":"uint256","internalType":"uint256"}],"outputs":[],"stateMutability":"nonpayable"},{"type":"function","name":"withdrawRewards","inputs":[{"name":"onchainWorkerId","type":"bytes32","internalType":"bytes32"}],"outputs":[],"stateMutability":"nonpayable"},{"type":"event","name":"AppCIDChanged","inputs":[{"name":"newAppCID","type":"tuple","indexed":false,"internalType":"struct CIDV1","components":[{"name":"prefixes","type":"bytes4","internalType":"bytes4"},{"name":"hash","type":"bytes32","internalType":"bytes32"}]}],"anonymous":false},{"type":"event","name":"DealEnded","inputs":[{"name":"endedEpoch","type":"uint256","indexed":false,"internalType":"uint256"}],"anonymous":false},{"type":"event","name":"Deposited","inputs":[{"name":"amount","type":"uint256","indexed":false,"internalType":"uint256"}],"anonymous":false},{"type":"event","name":"Initialized","inputs":[{"name":"version","type":"uint64","indexed":false,"internalType":"uint64"}],"anonymous":false},{"type":"event","name":"MaxPaidEpochUpdated","inputs":[{"name":"maxPaidEpoch","type":"uint256","indexed":false,"internalType":"uint256"}],"anonymous":false},{"type":"event","name":"OwnershipTransferred","inputs":[{"name":"previousOwner","type":"address","indexed":true,"internalType":"address"},{"name":"newOwner","type":"address","indexed":true,"internalType":"address"}],"anonymous":false},{"type":"event","name":"ProviderAddedToAccessList","inputs":[{"name":"provider","type":"address","indexed":false,"internalType":"address"}],"anonymous":false},{"type":"event","name":"ProviderRemovedFromAccessList","inputs":[{"name":"provider","type":"address","indexed":false,"internalType":"address"}],"anonymous":false},{"type":"event","name":"ProvidersAccessTypeChanged","inputs":[{"name":"newAccessType","type":"uint8","indexed":false,"internalType":"enum IConfig.AccessType"}],"anonymous":false},{"type":"event","name":"RewardWithdrawn","inputs":[{"name":"onchainWorkerId","type":"bytes32","indexed":false,"internalType":"bytes32"},{"name":"providerReward","type":"uint256","indexed":false,"internalType":"uint256"},{"name":"stakerReward","type":"uint256","indexed":false,"internalType":"uint256"}],"anonymous":false},{"type":"event","name":"Withdrawn","inputs":[{"name":"amount","type":"uint256","indexed":false,"internalType":"uint256"}],"anonymous":false},{"type":"event","name":"WorkerIdUpdated","inputs":[{"name":"onchainWorkerId","type":"bytes32","indexed":false,"internalType":"bytes32"},{"name":"offchainWorkerId","type":"bytes32","indexed":false,"internalType":"bytes32"}],"anonymous":false},{"type":"event","name":"WorkerJoined","inputs":[{"name":"peerId","type":"bytes32","indexed":true,"internalType":"bytes32"},{"name":"onchainId","type":"bytes32","indexed":false,"internalType":"bytes32"}],"anonymous":false},{"type":"event","name":"WorkerRemoved","inputs":[{"name":"peerId","type":"bytes32","indexed":true,"internalType":"bytes32"},{"name":"onchainId","type":"bytes32","indexed":false,"internalType":"bytes32"}],"anonymous":false},{"type":"error","name":"AddressEmptyCode","inputs":[{"name":"target","type":"address","internalType":"address"}]},{"type":"error","name":"FailedCall","inputs":[]},{"type":"error","name":"InvalidInitialization","inputs":[]},{"type":"error","name":"NotInitializing","inputs":[]},{"type":"error","name":"OwnableInvalidOwner","inputs":[{"name":"owner","type":"address","internalType":"address"}]},{"type":"error","name":"OwnableUnauthorizedAccount","inputs":[{"name":"account","type":"address","internalType":"address"}]},{"type":"error","name":"ReentrancyGuardReentrantCall","inputs":[]},{"type":"error","name":"SafeERC20FailedOperation","inputs":[{"name":"token","type":"address","internalType":"address"}]}],"bytecode":{"object":"0x6080806040523460d0577ff0c57e16840df040f15088dc2f81fe391c3923bec73e23a9662efc9c229c6a005460ff8160401c1660c1576002600160401b03196001600160401b03821601605c575b604051613df890816100d58239f35b6001600160401b0319166001600160401b039081177ff0c57e16840df040f15088dc2f81fe391c3923bec73e23a9662efc9c229c6a005581527fc7f505b2f371ae2175ee4913f4499e1f2633a7b5936321eed1cdaeb6115181d290602090a15f80604d565b63f92ee8a960e01b5f5260045ffd5b5f80fdfe60806040526004361015610011575f80fd5b5f803560e01c806307da68f5146123ac57806315a0f31a14612383578063176345141461235a578063176474cf146122f35780631af57b96146122c357806322ebd58a146122325780632943dcab146122095780632db31193146121e05780632e1a7d4d14611ea05780633013ce2914611e6c57806333ce93fe14611e43578063378b22e414611e1a5780633e8ae1ae14611ded578063444e6a5a14611d775780634d7599f114611d4e5780634e69d56014611d2357806359c4afc014611ce0578063636fcefb14611bfd578063663c8ce91461161e57806370220a9b146115f5578063715018a6146115a157806373134c15146114c25780637dfb6626146113c55780638a0c725b1461139c5780638da5cb5b146113685780639bc668681461130d578063aba93a10146112da578063ac9650d8146110d8578063ade0a202146110af578063b6b55f2514610fbb578063bc126f1f14610afb578063bd1926e014610abe578063c1499f711461094a578063d4773ff014610913578063d76e4805146102f8578063e93c4f15146102d1578063f2fde38b146102a45763fc1e5e2a146101bc575f80fd5b346102a157806003193601126102a1575f80516020613a83833981519152546101e48161263a565b6101f16040519182612617565b8181525f80516020613a8383398151915283526020810191837f5702833323968fbb14fdd86869039efe011756b786a9a900c16991bda0e3e573845b83831061028357868587604051928392602084019060208552518091526040840192915b81811061025f575050500390f35b9193509160206040826102756001948851612525565b019401910191849392610251565b6002602060019261029385612b70565b81520192019201919061022d565b80fd5b50346102a15760203660031901126102a1576102ce6102c16124df565b6102c9612d48565b612cea565b80f35b50346102a157806003193601126102a157602060606102ee612dcc565b0151604051908152f35b50346102a15760603660031901126102a1576103126124df565b6024356001600160401b03811161090f576040600319823603011261090f576040519061033e826125e0565b600481013582526024810135906001600160401b03821161090b57019036602383011215610907576004820135916103758361263a565b926103836040519485612617565b808452602060048186019260051b840101019136831161090357602401905b8282106108f357505050602081019182525f805160206139638339815191528054909360443592916001600160a01b031633036108a4576103e1612a46565b60058110156108905760026103f791141561282d565b5f80516020613c63833981519152938454955f80516020613b838339815191525487101561085257875b825180518210156104c6578161043691612cd6565b5190818a525f805160206139a383398151915260205260ff60408b205416610482576001918a525f805160206139a383398151915260205260408a208260ff1982541617905501610421565b60405162461bcd60e51b815260206004820152601c60248201527b10dbdb5c1d5d19481d5b9a5d081a5cc8185b1c9958591e481d5cd95960221b6044820152606490fd5b50508688968688525f80516020613b4383398151915260205260ff604089205416610817578688525f80516020613b4383398151915260205260408820600160ff1982541617905560018060a01b0385165f525f80516020613ac383398151915260205260405f20545f80516020613da3833981519152548110156107d357600181018091116107bf576001600160a01b0386165f9081525f80516020613ac38339815191526020526040902055600182019182106107ab575554604051630ecce30160e31b81529190602090839060049082906001600160a01b03165afa80156107a0578690610769575b600592508451915193604051926105c8846125c5565b888452602080850191825260408086018a81526001600160a01b03948516606088019081526080880196875260a08801998a528a518d525f80516020613d63833981519152909352908b20955186559151600186015590516002850155516003840180546001600160a01b03191691909216179055516004820155915180519291909101906001600160401b03831161075557600160401b831161075557815483835580841061072f575b5060200190855260208520855b83811061071b57505050506106a381515f80516020613bc383398151915261390e565b156106d75760207f9cd57cfa2e12a37215cabc6897396db265419bd7f06adad06227a2b163ecd6a39151604051908152a280f35b60405162461bcd60e51b815260206004820152601c60248201527b11985a5b1959081d1bc8185919081ddbdc9ad95c881d1bc81b1a5cdd60221b6044820152606490fd5b600190602084519401938184015501610680565b828752836020882091820191015b81811061074a5750610673565b87815560010161073d565b634e487b7160e01b86526041600452602486fd5b506020823d602011610798575b8161078360209383612617565b8101031261079457600591516105b2565b5f80fd5b3d9150610776565b6040513d88823e3d90fd5b634e487b7160e01b88526011600452602488fd5b634e487b7160e01b89526011600452602489fd5b606460405162461bcd60e51b815260206004820152602060248201527f4d617820776f726b657273207065722070726f766964657220726561636865646044820152fd5b60405162461bcd60e51b81526020600482015260136024820152721419595c925908185b1c9958591e481d5cd959606a1b6044820152606490fd5b60405162461bcd60e51b815260206004820152601660248201527515185c99d95d081ddbdc9ad95c9cc81c995858da195960521b6044820152606490fd5b634e487b7160e01b87526021600452602487fd5b60405162461bcd60e51b815260206004820152602160248201527f436f6e6669673a2063616c6c6572206973206e6f7420746865204469616d6f6e6044820152601960fa1b6064820152608490fd5b81358152602091820191016103a2565b8680fd5b8380fd5b8480fd5b8280fd5b50346102a157806003193601126102a1575061094660ff5f80516020613ce38339815191525416604051918291826125b2565b0390f35b50346102a157806003193601126102a1576109715f80516020613bc3833981519152612bcc565b805161097c8161263a565b9061098a6040519283612617565b808252610999601f199161263a565b01835b818110610aa7575050825b8251811015610a4057806109bd60019285612cd6565b5185525f80516020613d6383398151915260205260408520610a1f6005604051926109e7846125c5565b8054845285810154602085015260028101546040850152858060a01b0360038201541660608501526004810154608085015201612bcc565b60a0820152610a2e8285612cd6565b52610a398184612cd6565b50016109a7565b81846040519182916020830160208452825180915260408401602060408360051b870101940192905b828210610a7857505050500390f35b91936001919395506020610a978192603f198a8203018652885161253e565b9601920192018594939192610a69565b602090610ab2612b9c565b8282860101520161099c565b50346102a15760203660031901126102a15760ff6040826020935060043581525f80516020613b4383398151915284522054166040519015158152f35b50346107945760203660031901126107945760043590610b1a82612c55565b905f805160206139638339815191529160018060a01b0383541690608060408201516024604051809581936321b9a09560e21b835260048301525afa918215610e2d575f92610f8a575b50606001516001600160a01b03163314908115610f73575b508015610f53575b15610ee957610b9283612c55565b92610b9b612dcc565b93610bb685825160018060a01b036060850151169085613478565b5f80516020613c6383398151915294825f525f80516020613d6383398151915260205260405f209460405195610beb876125c5565b805487526001810154966020810197885260028201549160408201928352610c46610c36600560018060a01b0360038501541693606086019485526004810154608087015201612bcc565b9960a084019a8b52511515612c16565b5f5b89518051821015610c865790610c6081600193612cd6565b515f525f805160206139a383398151915260205260405f2060ff19815416905501610c48565b505089610c93815461361b565b9055516001600160a01b03165f9081525f80516020613ac3833981519152602052604090208054610cc39061361b565b905551610ebe575b51805f525f80516020613b4383398151915260205260405f2060ff198154169055845f525f80516020613d63833981519152602052600560405f205f81555f60018201555f60028201555f60038201555f6004820155018054905f815581610ea0575b5050610d47855f80516020613bc3833981519152613833565b15610e515760a092610d92917f2931f8975c0ce3cdf8ebe0cac36f06048736d46d6df66ac21cfe717b9ee710066020604051898152a25f80516020613ae3833981519152549061301b565b600180831b0390541691015190803b1561079457604051809263012a4ebb60e41b8252604482016040600484015281518091526020606484019201905f5b818110610e385750505091815f81819588602483015203925af18015610e2d57610e18575b5081525f80516020613c2383398151915260205280600160408220828155015580f35b610e259192505f90612617565b5f9082610df5565b6040513d5f823e3d90fd5b8251845286945060209384019390920191600101610dd0565b60405162461bcd60e51b815260206004820152602160248201527f4661696c656420746f2072656d6f766520776f726b65722066726f6d206c69736044820152601d60fa1b6064820152608490fd5b5f5260205f20908101905b81811015610d2e575f8155600101610eab565b610ed55f80516020613ae38339815191525461361b565b5f80516020613ae383398151915255610ccb565b60405162461bcd60e51b815260206004820152603c60248201527f4f6e6c792070726f76696465722c2070656572206f776e6572206f722064656160448201527b1b081bdddb995c8818d85b8818d85b1b081d1a1a5cc81b595d1a1bd960221b6064820152608490fd5b505f80516020613be3833981519152546001600160a01b03163314610b84565b606001516001600160a01b0316331490505f610b7c565b610fad91925060803d608011610fb4575b610fa58183612617565b81019061271d565b905f610b64565b503d610f9b565b3461079457602036600319011261079457600435610fd7612d48565b610fdf612a46565b600581101561109b577f2a89b2e3d580398d6dc2db5e0f336b52602bbaa51afa9bb5cdf59239cf0d2bea916110196002602093141561282d565b611041611024612dcc565b606081016110338482516129a9565b90526101408101519061301b565b5f80516020613b63833981519152546040516323b872dd60e01b8482015233602482015230604482015260648082018490528152611092916001600160a01b031661108d608483612617565b61373d565b604051908152a1005b634e487b7160e01b5f52602160045260245ffd5b34610794575f3660031901126107945760205f80516020613ae383398151915254604051908152f35b34610794576020366003190112610794576004356001600160401b038111610794576111089036906004016124f5565b60206040516111178282612617565b5f815281810190601f19830136833761112f8461263a565b9461113d6040519687612617565b848652601f1961114c8661263a565b015f5b8181106112cb57505036819003601e1901905f5b86811015611257578060051b820135838112156107945782018035906001600160401b038211610794578701908036038213610794575f91876111d084938b6040519382859383850197883783018281018881528d519283915e010185815203601f198101835282612617565b5190305af4903d15611249573d916001600160401b03831161123557604051600193611219929061120a601f8201601f19168c0184612617565b82523d5f8b84013e5b306137c0565b611223828b612cd6565b5261122e818a612cd6565b5001611163565b634e487b7160e01b5f52604160045260245ffd5b611219600192606090611213565b6040805187815289518189018190525f92600582901b83018101918c8b01918b9085015b8287106112885785850386f35b90919293828080600193603f198a82030186528189518051918291828552018484015e5f838284010152601f80199101160101960192019601959291909261127b565b6060888201870152850161114f565b34610794576020366003190112610794576109466112f9600435612c55565b60405191829160208352602083019061253e565b34610794575f36600319011261079457611325612692565b506040805160015f80516020613c03833981519152611343836125e0565b63ffffffff60e01b815460e01b1683520154602082015261136682518092612525565bf35b34610794575f366003190112610794575f80516020613be3833981519152546040516001600160a01b039091168152602090f35b34610794575f3660031901126107945760205f80516020613da383398151915254604051908152f35b34610794576020366003190112610794576004356113e281612c55565b905f8051602061396383398151915260018060a01b03905416608060408401516024604051809481936321b9a09560e21b835260048301525afa8015610e2d576114889361144f925f926114a1575b50606001516001600160a01b0316331490811561148a575b50612772565b61147c61145b82612c55565b611463612dcc565b928184925190606060018060a01b039101511691613478565b6101408101519061301b565b005b606001516001600160a01b03163314905084611449565b6114bb91925060803d608011610fb457610fa58183612617565b9085611431565b34610794576020366003190112610794576114db6124df565b6114e3612d48565b60ff5f80516020613ce38339815191525416600381101561109b571561155e576001600160a01b03165f8181525f805160206139e38339815191526020908152604091829020805460ff1916600117905590519182527f4c26e4de691e265be6cf03e639754839907bf74687cd524a6734851331527ffd91a1005b60405162461bcd60e51b815260206004820152601b60248201527a436f6e6669673a206163636573732074797065206973204e4f4e4560281b6044820152606490fd5b34610794575f366003190112610794576115b9612d48565b5f80516020613be383398151915280546001600160a01b031981169091555f906001600160a01b03165f80516020613ba38339815191528280a3005b34610794575f3660031901126107945760205f80516020613a4383398151915254604051908152f35b34610794576101a0366003190112610794576004356001600160a01b038116810361079457604036602319011261079457606435906001600160a01b038216820361079457610124359160c4359160a43591608435906001600160401b0386116107945736602387011215610794576004860135946001600160401b038611610794573660248760061b89010111610794576101443590600382101561079457610164356001600160401b038111610794576116de9036906004016124f5565b5f80516020613d238339815191525490979195604082901c60ff16159590916001600160401b03811680159081611bf5575b6001149081611beb575b159081611be2575b50611bd3576001600160401b031981166001175f80516020613d238339815191525586611bab575b50611753613795565b61175b613795565b611763613795565b61176b613795565b61177433612cea565b61177c613795565b8115611b5257828211611ae9578315611a8a57435f80516020613983833981519152555f8051602061396383398151915280546001600160a01b03998a166001600160a01b03199182161782555f80516020613b63833981519152805493909a169216919091179097555f80516020613c83833981519152555f80516020613b83833981519152555f80516020613ca38339815191525560e4355f80516020613da383398151915255610104355f80516020613a43833981519152555f5b868110156118bf575f80516020613a838339815191525490600160401b8210156112355760018201805f80516020613a83833981519152558210156118ab576118a56001925f80516020613a838339815191525f5260205f2060248460061b8d010191851b016131a9565b0161183a565b634e487b7160e01b5f52603260045260245ffd5b506118da909493945f80516020613ce3833981519152612b58565b5f805160206139e3833981519152935f5b8481101561193057600581901b840135906001600160a01b038216820361079457600191828060a01b03165f528660205260405f208260ff19825416179055016118eb565b5061194960245f80516020613c038339815191526131a9565b604051906024359063ffffffff60e01b8216809203610794575f80516020613b238339815191526040846020946004965260443585820152a161198a613795565b610184355f80516020613d83833981519152556119a5613795565b54604051630ecce30160e31b815292839182906001600160a01b03165afa908115610e2d575f91611a58575b505f198101908111611a44575f80516020613cc3833981519152556119f257005b60ff60401b195f80516020613d2383398151915254165f80516020613d23833981519152557fc7f505b2f371ae2175ee4913f4499e1f2633a7b5936321eed1cdaeb6115181d2602060405160018152a1005b634e487b7160e01b5f52601160045260245ffd5b90506020813d602011611a82575b81611a7360209383612617565b810103126107945751826119d1565b3d9150611a66565b60405162461bcd60e51b815260206004820152603160248201527f436f6e6669673a206375436f756e74506572576f726b65722073686f756c6420604482015270062652067726561746572207468616e203607c1b6064820152608490fd5b60405162461bcd60e51b815260206004820152603b60248201527f436f6e6669673a206d696e576f726b6572732073686f756c64206265206c657360448201527a73206f7220657175616c20746f20746172676574576f726b65727360281b6064820152608490fd5b60405162461bcd60e51b815260206004820152602b60248201527f436f6e6669673a206d696e576f726b6572732073686f756c642062652067726560448201526a061746572207468616e20360ac1b6064820152608490fd5b6001600160481b0319166001600160401b01175f80516020613d23833981519152558b61174a565b63f92ee8a960e01b5f5260045ffd5b9050158d611722565b303b15915061171a565b889150611710565b3461079457602036600319011261079457600435600381101561079457611c22612d48565b60ff5f80516020613ce38339815191525416600381101561109b578114611c9057611c8b81611c7f7f1f5a251428f76335a835fcae94ab6a9bcf09ac33bd3c782eb6a81bdf878a7393935f80516020613ce3833981519152612b58565b604051918291826125b2565b0390a1005b60405162461bcd60e51b815260206004820152602260248201527f436f6e6669673a20616363657373207479706520697320616c72656164792073604482015261195d60f21b6064820152608490fd5b3461079457602036600319011261079457611cf96124df565b60018060a01b03165f525f80516020613ac3833981519152602052602060405f2054604051908152f35b34610794575f36600319011261079457611d3b612a46565b604051600582101561109b576020918152f35b34610794575f3660031901126107945760205f80516020613c6383398151915254604051908152f35b34610794576020366003190112610794577f38fb081a0b484406977bd94ff8edb79be44b5ca514130361182516b39e2c45286020611db36124df565b611dbb612d48565b6001600160a01b03165f8181525f805160206139e38339815191528352604090819020805460ff1916905551908152a1005b34610794576020366003190112610794576020611e10611e0b6124df565b6129b6565b6040519015158152f35b34610794575f3660031901126107945760205f80516020613d0383398151915254604051908152f35b34610794575f3660031901126107945760205f80516020613d8383398151915254604051908152f35b34610794575f366003190112610794575f80516020613b63833981519152546040516001600160a01b039091168152602090f35b3461079457602036600319011261079457600435611ebc612d48565b5f80516020613c438339815191525c6121d15760015f80516020613c438339815191525d5f80516020613aa383398151915290611ef7612dcc565b5f8051602061396383398151915280546040516372ea4f2360e01b815292939290602090829060049082906001600160a01b03165afa908115610e2d575f9161219d575b50611f70611f5b611f85925f80516020613a438339815191525490612989565b5f80516020613ca38339815191525490612989565b5f80516020613b838339815191525490612989565b60608401611f9484825161299c565b809152610100850151151580612194575b1561211057505060c08301515f80516020613d438339815191525491546040516372ea4f2360e01b8152919290602090839060049082906001600160a01b03165afa908115610e2d575f916120da575b611fff92506129a9565b10156120715761203360209284612025845f80516020613b03833981519152975461299c565b90556101408101519061301b565b5f80516020613b638339815191525461205890829033906001600160a01b031661343d565b604051908152a15f5f80516020613c438339815191525d005b60405162461bcd60e51b815260206004820152603b60248201527f43616e2774207769746864726177206265666f7265206d696e4465616c44657060448201527a1bdcda5d1959115c1bd8da1cc818599d195c881919585b08195b99602a1b6064820152608490fd5b90506020823d602011612108575b816120f560209383612617565b8101031261079457611fff915190611ff5565b3d91506120e8565b915091935010612134575f80516020613b038339815191529161203360209261147c565b60405162461bcd60e51b815260206004820152603260248201527f467265652062616c616e6365206e6565647320746f20636f766572206d696e4460448201527165616c4465706f736974656445706f63687360701b6064820152608490fd5b50818110611fa5565b90506020813d6020116121c9575b816121b860209383612617565b810103126107945751611f70611f3b565b3d91506121ab565b633ee5aeb560e01b5f5260045ffd5b34610794575f3660031901126107945760205f80516020613c8383398151915254604051908152f35b34610794575f3660031901126107945760205f80516020613b8383398151915254604051908152f35b346107945760403660031901126107945760043561224f81612c55565b905f8051602061396383398151915260018060a01b03905416608060408401516024604051809481936321b9a09560e21b835260048301525afa8015610e2d57611488936122ba925f926114a15750606001516001600160a01b0316331490811561148a5750612772565b60243590612869565b346107945760203660031901126107945760406122e16004356126aa565b60208251918051835201516020820152f35b346107945760403660031901126107945761230c612d48565b61232460045f80516020613c038339815191526131a9565b60405160043563ffffffff60e01b811680910361079457816040915f80516020613b2383398151915293526024356020820152a1005b34610794575f3660031901126107945760205f8051602061398383398151915254604051908152f35b34610794575f3660031901126107945760205f80516020613ca383398151915254604051908152f35b34610794575f366003190112610794576123c4612d48565b6123cc612a46565b600581101561109b5760026123e2911415612651565b6123ed61147c612dcc565b5f8051602061396383398151915254604051630ecce30160e31b815290602090829060049082906001600160a01b03165afa908115610e2d575f916124ac575b506020817f3ad16bb58712aa329948d76146b096a4f4b85e024d99473dc50bcd358811b86c925f80516020613d038339815191525411612481575b805f80516020613d4383398151915255604051908152a1005b805f80516020613d03833981519152555f80516020613a2383398151915282604051838152a1612468565b90506020813d6020116124d7575b816124c760209383612617565b810103126107945751602061242d565b3d91506124ba565b600435906001600160a01b038216820361079457565b9181601f84011215610794578235916001600160401b038311610794576020808501948460051b01011161079457565b80516001600160e01b0319168252602090810151910152565b602060e060a060c085019380518652838101518487015260408101516040870152600180831b0360608201511660608701526080810151608087015201519360c060a08201528451809452019201905f5b81811061259c5750505090565b825184526020938401939092019160010161258f565b91906020830192600382101561109b5752565b60c081019081106001600160401b0382111761123557604052565b604081019081106001600160401b0382111761123557604052565b61016081019081106001600160401b0382111761123557604052565b601f909101601f19168101906001600160401b0382119082101761123557604052565b6001600160401b0381116112355760051b60200190565b1561265857565b60405162461bcd60e51b81526020600482015260126024820152714465616c206973206e6f742061637469766560701b6044820152606490fd5b6040519061269f826125e0565b5f6020838281520152565b6040516126b6816125e0565b5f81525f6020820152506126c8612dcc565b906126d281612c55565b51156126ef57816126e66126ec9383613274565b9161335f565b90565b50506040516126fd816125e0565b5f81525f602082015290565b51906001600160a01b038216820361079457565b908160809103126107945760405190608082016001600160401b038111838210176112355761276a9160609160405280518452602081015160208501526040810151604085015201612709565b606082015290565b1561277957565b60405162461bcd60e51b815260206004820152603060248201527f4f6e6c792070726f7669646572206f722070656572206f776e65722063616e2060448201526f18d85b1b081d1a1a5cc81b595d1a1bd960821b6064820152608490fd5b156127de57565b60405162461bcd60e51b815260206004820152602160248201527f4f6666636861696e20776f726b65722069642063616e277420626520656d70746044820152607960f81b6064820152608490fd5b1561283457565b60405162461bcd60e51b815260206004820152600d60248201526c1119585b081a5cc8195b991959609a1b6044820152606490fd5b811515612875816127d7565b61287d612dcc565b9261014084015191835f525f80516020613d638339815191526020526128a660405f20916127d7565b805415612957575b817fcf79e0e27c8c35d39bd9b727f35e6f79573597f660c88baf483fc1511c49203c92604092558151908582526020820152a15f80516020613ae383398151915254906128fb828561301b565b612903612a46565b600581101561109b578061291d600261292493141561282d565b1515612651565b14612953575f525f80516020613c23833981519152602052600160a060405f209260e081015184550151910155565b5050565b5f80516020613ae383398151915254915f198314611a44576001929092015f80516020613ae3833981519152556128ae565b81810292918115918404141715611a4457565b91908203918211611a4457565b91908201809211611a4457565b60ff5f80516020613ce38339815191525416600381101561109b578015612a3f5760018114612a15576002146129eb57505f90565b6001600160a01b03165f9081525f805160206139e3833981519152602052604090205460ff161590565b506001600160a01b03165f9081525f805160206139e3833981519152602052604090205460ff1690565b5050600190565b612a4e612dcc565b610100810151612b52575f80516020613d03833981519152548015159081612b44575b50612b3f5760608101515f80516020613963833981519152546040516372ea4f2360e01b815290602090829060049082906001600160a01b03165afa908115610e2d575f91612b0b575b50611f70611f5b612adb925f80516020613a438339815191525490612989565b1115612ae75750600490565b61014001515f80516020613c83833981519152541115612b0657600390565b600190565b90506020813d602011612b37575b81612b2660209383612617565b810103126107945751611f70612abb565b3d9150612b19565b505f90565b905060c0820151115f612a71565b50600290565b90600381101561109b5760ff80198354169116179055565b90604051612b7d816125e0565b825460e01b6001600160e01b0319168152600192909201546020830152565b60405190612ba9826125c5565b606060a0835f81525f60208201525f60408201525f838201525f60808201520152565b90604051918281549182825260208201905f5260205f20925f5b818110612bfd575050612bfb92500383612617565b565b8454835260019485019487945060209093019201612be6565b15612c1d57565b60405162461bcd60e51b815260206004820152601060248201526f15dbdc9ad95c881b9bdd08199bdd5b9960821b6044820152606490fd5b612c5d612b9c565b505f525f80516020613d6383398151915260205260405f206126ec60405191612c85836125c5565b805483526001810154602084019081526002820154604085015260038201546001600160a01b031660608501526004820154608085015290612cc990600501612bcc565b60a0840152511515612c16565b80518210156118ab5760209160051b010190565b6001600160a01b03168015612d35575f80516020613be383398151915280546001600160a01b0319811683179091556001600160a01b03165f80516020613ba38339815191525f80a3565b631e4fbdf760e01b5f525f60045260245ffd5b5f80516020613be3833981519152546001600160a01b03163303612d6857565b63118cdaa760e01b5f523360045260245ffd5b60405190612d88826125fb565b5f610140838281528260208201528260408201528260608201528260808201528260a08201528260c08201528260e082015282610100820152826101208201520152565b612dd4612d7b565b505f8051602061396383398151915254604051630ecce30160e31b81525f80516020613aa38339815191529291602090829060049082906001600160a01b03165afa908115610e2d575f91612fe9575b505f198101818111611a4457905f80516020613d4383398151915254915f9280612fdd575b505f80516020613ae383398151915254945f80516020613a4383398151915254935f80516020613ca38339815191525491612e82612d7b565b5054935f80516020613a63833981519152545f80516020613a03833981519152549060405196612eb1886125fb565b8088528160208901528260408901526060880152608087015260a086015260c08501528260e08501521515610100840152836101208401528561014084015282955f80516020613cc3833981519152549384841115612fd457505f80516020613d03833981519152549485841115612f9d57858510612f4d57505050612f49919250612f4360a086019384519261299c565b906129a9565b9052565b612f6b9291612f66612f6692612f66612f49988a61299c565b612989565b60608601612f7a82825161299c565b9052612f8b608087019182516129a9565b9052612f4360a086019384519261299c565b612fb49550612f66612f66929395612f669561299c565b60608301612fc382825161299c565b9052612f49608084019182516129a9565b96505050505050565b6001935090505f612e49565b90506020813d602011613013575b8161300460209383612617565b8101031261079457515f612e24565b3d9150612ff7565b905f80516020613aa38339815191528251606084019182518092036131a1575b50506020830151608084015180910361318c575b50604083015160a0840151809103613177575b505f80516020613ca3833981519152549060e0840151936101008101511561309a575b505050505f80516020613cc383398151915255565b5f80516020613c8383398151915254808510918261312a5750505090612f666130d39251935f80516020613a4383398151915254612989565b8015613116576130f56020915f80516020613a238339815191529304846129a9565b805f80516020613d0383398151915255604051908152a15b5f808080613085565b634e487b7160e01b5f52601260045260245ffd5b610140015110159350915082905061316f575b501561310d575f5f80516020613d03833981519152555f80516020613a2383398151915260206040515f8152a161310d565b90505f61313d565b5f80516020613a03833981519152555f613062565b5f80516020613a63833981519152555f61304f565b555f8061303b565b9080356001600160e01b0319811681036107945760019160209160e01c63ffffffff198554161784550135910155565b908161016091031261079457604051906131f2826125fb565b8051906006821015610794576101409183526020810151602084015260408101516040840152606081015160608401526080810151608084015260a081015160a084015260c081015160c084015261324c60e08201612709565b60e0840152610100810151610100840152610120810151610120840152015161014082015290565b9060e00151905f805160206139638339815191529060ff5f80516020613ce38339815191525416600381101561109b5760011461335a576132b761016091613627565b9154604051631de5608360e21b81526004810193909352829060249082906001600160a01b03165afa908115610e2d575f9161332b575b5061012081015180613325575060a00180515f198101908111611a44578211613315575090565b515f19810191508111611a445790565b91505090565b61334d91506101603d8111613353575b6133458183612617565b8101906131d9565b5f6132ee565b503d61333b565b505090565b9160405161336c816125e0565b5f81525f602082015250825f525f80516020613c2383398151915260205261339760405f20936136a3565b9280549182811061342c5760a06133b36133bf9460019361299c565b9401519101549061299c565b9081811061341d576133fd6133f6611f5b6133e161340595629896809561299c565b5f80516020613a438339815191525490612989565b9384612989565b04809261299c565b9060405191613413836125e0565b8252602082015290565b5050506040516126fd816125e0565b50505050506040516126fd816125e0565b60405163a9059cbb60e01b60208201526001600160a01b039092166024830152604480830193909352918152612bfb9161108d606483612617565b929190156136165761348a8284613274565b61349581848661335f565b918251936134a960208501958651906129a9565b90811561360d5760806134e791600495895f525f80516020613c2383398151915260205260405f20908155600160a08301519101550191825161299c565b90525f8051602061396383398151915254604051638da5cb5b60e01b81529260209184919082906001600160a01b03165afa918215610e2d575f926135ba575b5091606093915f805160206139c38339815191529593825161358f575b508251613564575b505190519060405192835260208301526040820152a1565b5f80516020613b638339815191525483516135899290916001600160a01b031661343d565b5f61354c565b5f80516020613b638339815191525483516135b49290916001600160a01b031661343d565b5f613544565b93915093916020843d602011613605575b816135d860209383612617565b81010312610794575f805160206139c3833981519152946135fa606095612709565b929450909294613527565b3d91506135cb565b50505050505050565b505050565b8015611a44575f190190565b61363090612c55565b5f805160206139638339815191525460409182015191516321b9a09560e21b81526004810192909252608090829060249082906001600160a01b03165afa8015610e2d576020915f91613684575b50015190565b61369d915060803d608011610fb457610fa58183612617565b5f61367e565b5f805160206139638339815191529060ff5f80516020613ce38339815191525416600381101561109b57600114613737576136e061016091613627565b9154604051631de5608360e21b81526004810193909352829060249082906001600160a01b03165afa8015610e2d5760c0915f9161371e5750015190565b61369d91506101603d8111613353576133458183612617565b50505f90565b905f602091828151910182855af115610e2d575f513d61378c57506001600160a01b0381163b155b61376c5750565b635274afe760e01b5f9081526001600160a01b0391909116600452602490fd5b60011415613765565b60ff5f80516020613d238339815191525460401c16156137b157565b631afcd79f60e31b5f5260045ffd5b906137e457508051156137d557805190602001fd5b63d6bda27560e01b5f5260045ffd5b81511580613815575b6137f5575090565b639996b31560e01b5f9081526001600160a01b0391909116600452602490fd5b50803b156137ed565b80548210156118ab575f5260205f2001905f90565b906001820191815f528260205260405f20548015155f14613906575f198101818111611a445782545f19810191908211611a44578181036138bb575b505050805480156138a7575f190190613888828261381e565b8154905f199060031b1b19169055555f526020525f6040812055600190565b634e487b7160e01b5f52603160045260245ffd5b6138f16138cb6138db938661381e565b90549060031b1c9283928661381e565b819391549060031b91821b915f19901b19161790565b90555f528360205260405f20555f808061386f565b505050505f90565b6001810190825f528160205260405f2054155f1461395b578054600160401b811015611235576139486138db82600187940185558461381e565b905554915f5260205260405f2055600190565b5050505f9056fe8953f5482bc1a621075e75537625fa3bd2025e7df7baf6ba1dbfbf2212912d048953f5482bc1a621075e75537625fa3bd2025e7df7baf6ba1dbfbf2212912d05ec986952a0671e4b2e5ec4461085fb880bc7a7b88668240f8d55173039155d24c512f9d0bb2627096491f1074af42a5032fe36ef5dcae7c216cfc34f6ea474d68953f5482bc1a621075e75537625fa3bd2025e7df7baf6ba1dbfbf2212912d1185276e830bb0cbb783f0e6b4a968acc65deef7a2b0ff14d52821c42f785b9cc1cecd349d986645e1758ec135f91f1ad20564a8bcc6c2b5a5eaca9b09841495c58953f5482bc1a621075e75537625fa3bd2025e7df7baf6ba1dbfbf2212912d0e85276e830bb0cbb783f0e6b4a968acc65deef7a2b0ff14d52821c42f785b9cc08953f5482bc1a621075e75537625fa3bd2025e7df7baf6ba1dbfbf2212912d0f85276e830bb0cbb783f0e6b4a968acc65deef7a2b0ff14d52821c42f785b9cbfec986952a0671e4b2e5ec4461085fb880bc7a7b88668240f8d55173039155d22ec986952a0671e4b2e5ec4461085fb880bc7a7b88668240f8d55173039155d21430648de173157e069201c943adb2d4e340e7cf5b27b1b09c9cb852f03d63b56c820a66d3bdd50a45cf12cda6dc8ec9e94fb5123edd7da736eea18316f8523a0ec986952a0671e4b2e5ec4461085fb880bc7a7b88668240f8d55173039155d258953f5482bc1a621075e75537625fa3bd2025e7df7baf6ba1dbfbf2212912d088953f5482bc1a621075e75537625fa3bd2025e7df7baf6ba1dbfbf2212912d0b8be0079c531659141344cd1fd0a4f28419497f9722a3daafe3b4186f6b6457e0ec986952a0671e4b2e5ec4461085fb880bc7a7b88668240f8d55173039155d26b13d3e7783d509d8d65d3e1e62ec0b103a07e0cbfa1ee74ae19127f297dddfcc8953f5482bc1a621075e75537625fa3bd2025e7df7baf6ba1dbfbf2212912d0685276e830bb0cbb783f0e6b4a968acc65deef7a2b0ff14d52821c42f785b9cc49b779b17422d0df92223018b32b4d1fa46e071723d6817e2486d003becc55f00ec986952a0671e4b2e5ec4461085fb880bc7a7b88668240f8d55173039155d208953f5482bc1a621075e75537625fa3bd2025e7df7baf6ba1dbfbf2212912d0a8953f5482bc1a621075e75537625fa3bd2025e7df7baf6ba1dbfbf2212912d0d85276e830bb0cbb783f0e6b4a968acc65deef7a2b0ff14d52821c42f785b9cc38953f5482bc1a621075e75537625fa3bd2025e7df7baf6ba1dbfbf2212912d1085276e830bb0cbb783f0e6b4a968acc65deef7a2b0ff14d52821c42f785b9cc2f0c57e16840df040f15088dc2f81fe391c3923bec73e23a9662efc9c229c6a0085276e830bb0cbb783f0e6b4a968acc65deef7a2b0ff14d52821c42f785b9cc5ec986952a0671e4b2e5ec4461085fb880bc7a7b88668240f8d55173039155d2385276e830bb0cbb783f0e6b4a968acc65deef7a2b0ff14d52821c42f785b9cc68953f5482bc1a621075e75537625fa3bd2025e7df7baf6ba1dbfbf2212912d0ca2646970667358221220d09bb84441faa5c58005929aec9ba2193ac82c533766509c0522bce2a8e3110264736f6c634300081a0033","linkReferences":{}},"methodIdentifiers":{"activateWorker(bytes32,bytes32)":"22ebd58a","addProviderToAccessList(address)":"73134c15","addWorker(address,(bytes32,bytes32[]),bytes32)":"d76e4805","appCID()":"9bc66868","changeProvidersAccessType(uint8)":"636fcefb","computePeerUsed(bytes32)":"bd1926e0","creationBlock()":"17634514","cuCountPerWorker()":"15a0f31a","deposit(uint256)":"b6b55f25","effectors()":"fc1e5e2a","getActivatedWorkerCount()":"ade0a202","getFreeBalance()":"e93c4f15","getMaxPaidEpoch()":"378b22e4","getProtocolVersion()":"33ce93fe","getRewardAmount(bytes32)":"1af57b96","getStatus()":"4e69d560","getWorker(bytes32)":"aba93a10","getWorkerCount()":"4d7599f1","getWorkerCount(address)":"59c4afc0","getWorkers()":"c1499f71","initialize(address,(bytes4,bytes32),address,uint256,uint256,uint256,uint256,uint256,(bytes4,bytes32)[],uint8,address[],uint256)":"663c8ce9","isProviderAllowed(address)":"3e8ae1ae","maxWorkersPerProvider()":"8a0c725b","minWorkers()":"2db31193","multicall(bytes[])":"ac9650d8","owner()":"8da5cb5b","paymentToken()":"3013ce29","pricePerCuPerEpoch()":"70220a9b","providersAccessType()":"d4773ff0","removeProviderFromAccessList(address)":"444e6a5a","removeWorker(bytes32)":"bc126f1f","renounceOwnership()":"715018a6","setAppCID((bytes4,bytes32))":"176474cf","stop()":"07da68f5","targetWorkers()":"2943dcab","transferOwnership(address)":"f2fde38b","withdraw(uint256)":"2e1a7d4d","withdrawRewards(bytes32)":"7dfb6626"},"storageLayout":{"storage":[],"types":{}},"devdoc":{"version":1,"kind":"dev","methods":{"activateWorker(bytes32,bytes32)":{"details":"Set offchain worker ID for a corresponding onchain worker for a deal"},"addProviderToAccessList(address)":{"details":"Adds a provider to the access list"},"addWorker(address,(bytes32,bytes32[]),bytes32)":{"details":"Adds a compute unit to the deal","params":{"computeProvider":"The compute provider address","peerId":"The peer ID","workerData":"The worker with data"}},"appCID()":{"details":"Returns the app CID"},"changeProvidersAccessType(uint8)":{"details":"Change the providers access type"},"computePeerUsed(bytes32)":{"details":"Returns the boolean flag indicating whether the peer exists in the deal"},"creationBlock()":{"details":"Returns the creation block of the deal"},"cuCountPerWorker()":{"details":"Returns number of CUs in a worker"},"deposit(uint256)":{"details":"Deposits payment token to the deal"},"effectors()":{"details":"Returns the effector CIDs"},"getActivatedWorkerCount()":{"details":"Returns the worker count. Worker is a compute unit that has a worker ID"},"getFreeBalance()":{"details":"Returns the free balance of the deal"},"getMaxPaidEpoch()":{"details":"Returns the max paid epoch"},"getProtocolVersion()":{"details":"Returns the protocol version"},"getRewardAmount(bytes32)":{"details":"Returns the reward amount by compute unit ID"},"getStatus()":{"details":"Returns the status of the deal"},"getWorker(bytes32)":{"details":"Returns worker by ID"},"getWorkerCount()":{"details":"Returns total number of workers"},"getWorkerCount(address)":{"details":"Returns number of workers in provider"},"getWorkers()":{"details":"Returns workers registered in this deal"},"isProviderAllowed(address)":{"details":"Returns the boolean indicating whether the provider is allowed or not"},"maxWorkersPerProvider()":{"details":"Returns the max number of workers per provider"},"minWorkers()":{"details":"Returns the min number of workers"},"multicall(bytes[])":{"details":"Receives and executes a batch of function calls on this contract."},"owner()":{"details":"Returns the address of the current owner."},"paymentToken()":{"details":"Returns the payment token address"},"pricePerCuPerEpoch()":{"details":"Returns the price per CU per epoch"},"providersAccessType()":{"details":"Returns the providers access type"},"removeProviderFromAccessList(address)":{"details":"Removes a provider from the access list"},"removeWorker(bytes32)":{"details":"Removes a worker from the deal"},"renounceOwnership()":{"details":"Leaves the contract without owner. It will not be possible to call `onlyOwner` functions. Can only be called by the current owner. NOTE: Renouncing ownership will leave the contract without an owner, thereby disabling any functionality that is only available to the owner."},"setAppCID((bytes4,bytes32))":{"details":"Sets the app CID"},"stop()":{"details":"Stop the deal"},"targetWorkers()":{"details":"Returns the max number of workers"},"transferOwnership(address)":{"details":"Transfers ownership of the contract to a new account (`newOwner`). Can only be called by the current owner."},"withdraw(uint256)":{"details":"Withdraws payment token from the deal"},"withdrawRewards(bytes32)":{"details":"Withdraws rewards from the deal by compute unit ID"}},"events":{"AppCIDChanged((bytes4,bytes32))":{"details":"Emitted when the app CID is changed","params":{"newAppCID":"The new app CID"}},"DealEnded(uint256)":{"details":"Emitted when a deal is ended. This event can be emitted in the not-ended epoch. It can be emitted after the ended epoch in any epoch"},"Deposited(uint256)":{"details":"Emitted when a owner deposits payment token to the deal"},"Initialized(uint64)":{"details":"Triggered when the contract has been initialized or reinitialized."},"MaxPaidEpochUpdated(uint256)":{"details":"Emitted when a max paid epoch is updated"},"ProviderAddedToAccessList(address)":{"details":"Emitted when a provider is added to the access list","params":{"provider":"The provider address"}},"ProviderRemovedFromAccessList(address)":{"details":"Emitted when a provider is removed from the access list","params":{"provider":"The provider address"}},"ProvidersAccessTypeChanged(uint8)":{"details":"Emitted when the providers access type is changed","params":{"newAccessType":"The new access type"}},"RewardWithdrawn(bytes32,uint256,uint256)":{"details":"Emitted when a compute unit withdraws rewards from the deal"},"Withdrawn(uint256)":{"details":"Emitted when a owner withdraws payment token from the deal"},"WorkerIdUpdated(bytes32,bytes32)":{"details":"Emitted when a worker ID is updated","params":{"offchainWorkerId":"The new worker ID","onchainWorkerId":"The worker"}},"WorkerJoined(bytes32,bytes32)":{"details":"Emitted when a new worker is added","params":{"onchainId":"The worker ID","peerId":"The id of compute peer"}},"WorkerRemoved(bytes32,bytes32)":{"details":"Emitted when a worker is removed","params":{"onchainId":"The worker onchain ID","peerId":"The id of compute peer"}}},"errors":{"AddressEmptyCode(address)":[{"details":"There's no code at `target` (it is not a contract)."}],"FailedCall()":[{"details":"A call to an address target failed. The target may have reverted."}],"InvalidInitialization()":[{"details":"The contract is already initialized."}],"NotInitializing()":[{"details":"The contract is not initializing."}],"OwnableInvalidOwner(address)":[{"details":"The owner is not a valid owner account. (eg. `address(0)`)"}],"OwnableUnauthorizedAccount(address)":[{"details":"The caller account is not authorized to perform an operation."}],"ReentrancyGuardReentrantCall()":[{"details":"Unauthorized reentrant call."}],"SafeERC20FailedOperation(address)":[{"details":"An operation with an ERC-20 token failed."}]}},"id":75}