{"abi":[{"type":"constructor","inputs":[],"stateMutability":"nonpayable"},{"type":"function","name":"activateWorker","inputs":[{"name":"onchainWorkerId","type":"bytes32","internalType":"bytes32"},{"name":"offchainWorkerId","type":"bytes32","internalType":"bytes32"}],"outputs":[],"stateMutability":"nonpayable"},{"type":"function","name":"addProviderToAccessList","inputs":[{"name":"provider","type":"address","internalType":"address"}],"outputs":[],"stateMutability":"nonpayable"},{"type":"function","name":"addWorker","inputs":[{"name":"computeProvider","type":"address","internalType":"address"},{"name":"workerData","type":"tuple","internalType":"struct IWorkerManager.WorkerData","components":[{"name":"onchainId","type":"bytes32","internalType":"bytes32"},{"name":"computeUnitIds","type":"bytes32[]","internalType":"bytes32[]"}]},{"name":"peerId","type":"bytes32","internalType":"bytes32"}],"outputs":[],"stateMutability":"nonpayable"},{"type":"function","name":"appCID","inputs":[],"outputs":[{"name":"","type":"tuple","internalType":"struct CIDV1","components":[{"name":"prefixes","type":"bytes4","internalType":"bytes4"},{"name":"hash","type":"bytes32","internalType":"bytes32"}]}],"stateMutability":"view"},{"type":"function","name":"changeProvidersAccessType","inputs":[{"name":"accessType","type":"uint8","internalType":"enum IConfig.AccessType"}],"outputs":[],"stateMutability":"nonpayable"},{"type":"function","name":"computePeerUsed","inputs":[{"name":"peerId","type":"bytes32","internalType":"bytes32"}],"outputs":[{"name":"","type":"bool","internalType":"bool"}],"stateMutability":"view"},{"type":"function","name":"creationBlock","inputs":[],"outputs":[{"name":"","type":"uint256","internalType":"uint256"}],"stateMutability":"view"},{"type":"function","name":"cuCountPerWorker","inputs":[],"outputs":[{"name":"","type":"uint256","internalType":"uint256"}],"stateMutability":"view"},{"type":"function","name":"deposit","inputs":[{"name":"amount","type":"uint256","internalType":"uint256"}],"outputs":[],"stateMutability":"nonpayable"},{"type":"function","name":"effectors","inputs":[],"outputs":[{"name":"","type":"tuple[]","internalType":"struct CIDV1[]","components":[{"name":"prefixes","type":"bytes4","internalType":"bytes4"},{"name":"hash","type":"bytes32","internalType":"bytes32"}]}],"stateMutability":"view"},{"type":"function","name":"getActivatedWorkerCount","inputs":[],"outputs":[{"name":"","type":"uint256","internalType":"uint256"}],"stateMutability":"view"},{"type":"function","name":"getFreeBalance","inputs":[],"outputs":[{"name":"","type":"uint256","internalType":"uint256"}],"stateMutability":"view"},{"type":"function","name":"getMaxPaidEpoch","inputs":[],"outputs":[{"name":"","type":"uint256","internalType":"uint256"}],"stateMutability":"view"},{"type":"function","name":"getProtocolVersion","inputs":[],"outputs":[{"name":"","type":"uint256","internalType":"uint256"}],"stateMutability":"view"},{"type":"function","name":"getRewardAmount","inputs":[{"name":"onchainWorkerId","type":"bytes32","internalType":"bytes32"}],"outputs":[{"name":"","type":"tuple","internalType":"struct IDeal.DealRewards","components":[{"name":"providerReward","type":"uint256","internalType":"uint256"},{"name":"stakerReward","type":"uint256","internalType":"uint256"}]}],"stateMutability":"view"},{"type":"function","name":"getStatus","inputs":[],"outputs":[{"name":"","type":"uint8","internalType":"enum IDeal.Status"}],"stateMutability":"view"},{"type":"function","name":"getWorker","inputs":[{"name":"onchainWorkerId","type":"bytes32","internalType":"bytes32"}],"outputs":[{"name":"","type":"tuple","internalType":"struct IWorkerManager.Worker","components":[{"name":"offchainId","type":"bytes32","internalType":"bytes32"},{"name":"onchainId","type":"bytes32","internalType":"bytes32"},{"name":"peerId","type":"bytes32","internalType":"bytes32"},{"name":"provider","type":"address","internalType":"address"},{"name":"joinedEpoch","type":"uint256","internalType":"uint256"},{"name":"computeUnitIds","type":"bytes32[]","internalType":"bytes32[]"}]}],"stateMutability":"view"},{"type":"function","name":"getWorkerCount","inputs":[],"outputs":[{"name":"","type":"uint256","internalType":"uint256"}],"stateMutability":"view"},{"type":"function","name":"getWorkerCount","inputs":[{"name":"provider","type":"address","internalType":"address"}],"outputs":[{"name":"","type":"uint256","internalType":"uint256"}],"stateMutability":"view"},{"type":"function","name":"getWorkers","inputs":[],"outputs":[{"name":"","type":"tuple[]","internalType":"struct IWorkerManager.Worker[]","components":[{"name":"offchainId","type":"bytes32","internalType":"bytes32"},{"name":"onchainId","type":"bytes32","internalType":"bytes32"},{"name":"peerId","type":"bytes32","internalType":"bytes32"},{"name":"provider","type":"address","internalType":"address"},{"name":"joinedEpoch","type":"uint256","internalType":"uint256"},{"name":"computeUnitIds","type":"bytes32[]","internalType":"bytes32[]"}]}],"stateMutability":"view"},{"type":"function","name":"initialize","inputs":[{"name":"diamond_","type":"address","internalType":"contract IDiamond"},{"name":"appCID_","type":"tuple","internalType":"struct CIDV1","components":[{"name":"prefixes","type":"bytes4","internalType":"bytes4"},{"name":"hash","type":"bytes32","internalType":"bytes32"}]},{"name":"paymentToken_","type":"address","internalType":"contract IERC20"},{"name":"minWorkers_","type":"uint256","internalType":"uint256"},{"name":"targetWorkers_","type":"uint256","internalType":"uint256"},{"name":"cuCountPerWorker_","type":"uint256","internalType":"uint256"},{"name":"maxWorkersPerProvider_","type":"uint256","internalType":"uint256"},{"name":"pricePerCuPerEpoch_","type":"uint256","internalType":"uint256"},{"name":"effectors_","type":"tuple[]","internalType":"struct CIDV1[]","components":[{"name":"prefixes","type":"bytes4","internalType":"bytes4"},{"name":"hash","type":"bytes32","internalType":"bytes32"}]},{"name":"providersAccessType_","type":"uint8","internalType":"enum IConfig.AccessType"},{"name":"providersAccessList_","type":"address[]","internalType":"address[]"},{"name":"protocolVersion_","type":"uint256","internalType":"uint256"}],"outputs":[],"stateMutability":"nonpayable"},{"type":"function","name":"isProviderAllowed","inputs":[{"name":"account","type":"address","internalType":"address"}],"outputs":[{"name":"","type":"bool","internalType":"bool"}],"stateMutability":"view"},{"type":"function","name":"maxWorkersPerProvider","inputs":[],"outputs":[{"name":"","type":"uint256","internalType":"uint256"}],"stateMutability":"view"},{"type":"function","name":"minWorkers","inputs":[],"outputs":[{"name":"","type":"uint256","internalType":"uint256"}],"stateMutability":"view"},{"type":"function","name":"multicall","inputs":[{"name":"data","type":"bytes[]","internalType":"bytes[]"}],"outputs":[{"name":"results","type":"bytes[]","internalType":"bytes[]"}],"stateMutability":"nonpayable"},{"type":"function","name":"owner","inputs":[],"outputs":[{"name":"","type":"address","internalType":"address"}],"stateMutability":"view"},{"type":"function","name":"paymentToken","inputs":[],"outputs":[{"name":"","type":"address","internalType":"contract IERC20"}],"stateMutability":"view"},{"type":"function","name":"pricePerCuPerEpoch","inputs":[],"outputs":[{"name":"","type":"uint256","internalType":"uint256"}],"stateMutability":"view"},{"type":"function","name":"providersAccessType","inputs":[],"outputs":[{"name":"","type":"uint8","internalType":"enum IConfig.AccessType"}],"stateMutability":"view"},{"type":"function","name":"removeProviderFromAccessList","inputs":[{"name":"provider","type":"address","internalType":"address"}],"outputs":[],"stateMutability":"nonpayable"},{"type":"function","name":"removeStaleWorkers","inputs":[{"name":"onchainWorkerIds","type":"bytes32[]","internalType":"bytes32[]"}],"outputs":[],"stateMutability":"nonpayable"},{"type":"function","name":"removeWorker","inputs":[{"name":"onchainWorkerId","type":"bytes32","internalType":"bytes32"}],"outputs":[],"stateMutability":"nonpayable"},{"type":"function","name":"renounceOwnership","inputs":[],"outputs":[],"stateMutability":"nonpayable"},{"type":"function","name":"setAppCID","inputs":[{"name":"appCID_","type":"tuple","internalType":"struct CIDV1","components":[{"name":"prefixes","type":"bytes4","internalType":"bytes4"},{"name":"hash","type":"bytes32","internalType":"bytes32"}]}],"outputs":[],"stateMutability":"nonpayable"},{"type":"function","name":"stop","inputs":[],"outputs":[],"stateMutability":"nonpayable"},{"type":"function","name":"targetWorkers","inputs":[],"outputs":[{"name":"","type":"uint256","internalType":"uint256"}],"stateMutability":"view"},{"type":"function","name":"transferOwnership","inputs":[{"name":"newOwner","type":"address","internalType":"address"}],"outputs":[],"stateMutability":"nonpayable"},{"type":"function","name":"withdraw","inputs":[{"name":"amount","type":"uint256","internalType":"uint256"}],"outputs":[],"stateMutability":"nonpayable"},{"type":"function","name":"withdrawRewards","inputs":[{"name":"onchainWorkerId","type":"bytes32","internalType":"bytes32"}],"outputs":[],"stateMutability":"nonpayable"},{"type":"event","name":"AppCIDChanged","inputs":[{"name":"newAppCID","type":"tuple","indexed":false,"internalType":"struct CIDV1","components":[{"name":"prefixes","type":"bytes4","internalType":"bytes4"},{"name":"hash","type":"bytes32","internalType":"bytes32"}]}],"anonymous":false},{"type":"event","name":"DealEnded","inputs":[{"name":"endedEpoch","type":"uint256","indexed":false,"internalType":"uint256"}],"anonymous":false},{"type":"event","name":"Deposited","inputs":[{"name":"amount","type":"uint256","indexed":false,"internalType":"uint256"}],"anonymous":false},{"type":"event","name":"Initialized","inputs":[{"name":"version","type":"uint64","indexed":false,"internalType":"uint64"}],"anonymous":false},{"type":"event","name":"MaxPaidEpochUpdated","inputs":[{"name":"maxPaidEpoch","type":"uint256","indexed":false,"internalType":"uint256"}],"anonymous":false},{"type":"event","name":"OwnershipTransferred","inputs":[{"name":"previousOwner","type":"address","indexed":true,"internalType":"address"},{"name":"newOwner","type":"address","indexed":true,"internalType":"address"}],"anonymous":false},{"type":"event","name":"ProviderAddedToAccessList","inputs":[{"name":"provider","type":"address","indexed":false,"internalType":"address"}],"anonymous":false},{"type":"event","name":"ProviderRemovedFromAccessList","inputs":[{"name":"provider","type":"address","indexed":false,"internalType":"address"}],"anonymous":false},{"type":"event","name":"ProvidersAccessTypeChanged","inputs":[{"name":"newAccessType","type":"uint8","indexed":false,"internalType":"enum IConfig.AccessType"}],"anonymous":false},{"type":"event","name":"RewardWithdrawn","inputs":[{"name":"onchainWorkerId","type":"bytes32","indexed":false,"internalType":"bytes32"},{"name":"providerReward","type":"uint256","indexed":false,"internalType":"uint256"},{"name":"stakerReward","type":"uint256","indexed":false,"internalType":"uint256"}],"anonymous":false},{"type":"event","name":"Withdrawn","inputs":[{"name":"amount","type":"uint256","indexed":false,"internalType":"uint256"}],"anonymous":false},{"type":"event","name":"WorkerIdUpdated","inputs":[{"name":"onchainWorkerId","type":"bytes32","indexed":false,"internalType":"bytes32"},{"name":"offchainWorkerId","type":"bytes32","indexed":false,"internalType":"bytes32"}],"anonymous":false},{"type":"event","name":"WorkerJoined","inputs":[{"name":"peerId","type":"bytes32","indexed":true,"internalType":"bytes32"},{"name":"onchainId","type":"bytes32","indexed":false,"internalType":"bytes32"}],"anonymous":false},{"type":"event","name":"WorkerRemoved","inputs":[{"name":"peerId","type":"bytes32","indexed":true,"internalType":"bytes32"},{"name":"onchainId","type":"bytes32","indexed":false,"internalType":"bytes32"}],"anonymous":false},{"type":"error","name":"AddressEmptyCode","inputs":[{"name":"target","type":"address","internalType":"address"}]},{"type":"error","name":"FailedCall","inputs":[]},{"type":"error","name":"InvalidInitialization","inputs":[]},{"type":"error","name":"NotInitializing","inputs":[]},{"type":"error","name":"OwnableInvalidOwner","inputs":[{"name":"owner","type":"address","internalType":"address"}]},{"type":"error","name":"OwnableUnauthorizedAccount","inputs":[{"name":"account","type":"address","internalType":"address"}]},{"type":"error","name":"ReentrancyGuardReentrantCall","inputs":[]},{"type":"error","name":"SafeERC20FailedOperation","inputs":[{"name":"token","type":"address","internalType":"address"}]}],"bytecode":{"object":"0x6080806040523460d0577ff0c57e16840df040f15088dc2f81fe391c3923bec73e23a9662efc9c229c6a005460ff8160401c1660c1576002600160401b03196001600160401b03821601605c575b60405161400c90816100d58239f35b6001600160401b0319166001600160401b039081177ff0c57e16840df040f15088dc2f81fe391c3923bec73e23a9662efc9c229c6a005581527fc7f505b2f371ae2175ee4913f4499e1f2633a7b5936321eed1cdaeb6115181d290602090a15f80604d565b63f92ee8a960e01b5f5260045ffd5b5f80fdfe60806040526004361015610011575f80fd5b5f3560e01c806307da68f51461223f57806315a0f31a1461221657806317634514146121ed578063176474cf146121865780631af57b961461215657806322ebd58a146120c55780632943dcab1461209c5780632db31193146120735780632e1a7d4d14611d335780633013ce2914611cff57806333ce93fe14611cd6578063378b22e414611cad5780633e8ae1ae14611c80578063444e6a5a14611c0a5780634d7599f114611be15780634e69d56014611bb657806359c4afc014611b73578063636fcefb14611a90578063663c8ce9146114c357806370220a9b1461149a578063715018a61461144657806373134c15146113675780637dfb66261461126c5780638a0c725b146112435780638da5cb5b1461120f5780639bc66868146111b4578063aba93a1014611181578063ac9650d814610f93578063ade0a20214610f6a578063b6b55f2514610e8a578063bc126f1f14610d25578063bd1926e014610cea578063c1499f7114610b76578063cb7b88d11461092c578063d4773ff0146108f7578063d76e480514610303578063e93c4f15146102dd578063f2fde38b146102b25763fc1e5e2a146101c6575f80fd5b346102ae575f3660031901126102ae575f80516020613c97833981519152546101ee816124cd565b906101fc60405192836124aa565b8082525f80516020613c978339815191525f9081526020830191907f5702833323968fbb14fdd86869039efe011756b786a9a900c16991bda0e3e573835b838310610290578486604051918291602083019060208452518091526040830191905f5b81811061026c575050500390f35b91935091602060408261028260019488516123b8565b01940191019184939261025e565b600260206001926102a085612a05565b81520192019201919061023a565b5f80fd5b346102ae5760203660031901126102ae576102db6102ce612372565b6102d6612bed565b612b8f565b005b346102ae575f3660031901126102ae57602060606102f9612c71565b0151604051908152f35b346102ae5760603660031901126102ae5761031c612372565b602435906001600160401b0382116102ae57604060031983360301126102ae576040519161034983612473565b600481013583526024810135906001600160401b0382116102ae570191366023840112156102ae57600483013592610380846124cd565b9361038e60405195866124aa565b808552602060048187019260051b84010101913683116102ae57602401905b8282106108e757505050602081019283525f80516020613b778339815191528054909260443592916001600160a01b03163303610898576103ec6128d9565b60058110156108845760026104029114156126c0565b5f80516020613e77833981519152948554905f80516020613d9783398151915254821015610846575f5b815180518210156104d1578161044191612b6b565b5190815f525f80516020613bb783398151915260205260ff60405f20541661048d576001915f525f80516020613bb783398151915260205260405f208260ff198254161790550161042c565b60405162461bcd60e51b815260206004820152601c60248201527b10dbdb5c1d5d19481d5b9a5d081a5cc8185b1c9958591e481d5cd95960221b6044820152606490fd5b50508686865f525f80516020613d5783398151915260205260ff60405f20541661080b575f8781525f80516020613d5783398151915260209081526040808320805460ff191660011790556001600160a01b03881683525f80516020613cd78339815191529091529020545f80516020613fb7833981519152548110156107c757600181018091116107b3576001600160a01b0386165f9081525f80516020613cd78339815191526020526040902055600184019384106107b3579290559054604051630ecce30160e31b81529190602090839060049082906001600160a01b03165afa80156107a8575f90610775575b600592508451915193604051926105d884612458565b5f808552602080860192835260408087018b81526001600160a01b03958616606089019081526080890197885260a089019a8b528b5185525f80516020613f7783398151915290935292209551865591516001860155516002850155516003840180546001600160a01b03191691909216179055516004820155915180519291909101906001600160401b03831161076157600160401b831161076157815483835580841061073b575b50602001905f5260205f205f5b8381106107275785856106b081515f80516020613dd7833981519152613a47565b156106e35760207f9cd57cfa2e12a37215cabc6897396db265419bd7f06adad06227a2b163ecd6a39151604051908152a2005b60405162461bcd60e51b815260206004820152601c60248201527b11985a5b1959081d1bc8185919081ddbdc9ad95c881d1bc81b1a5cdd60221b6044820152606490fd5b60019060208451940193818401550161068f565b825f528360205f2091820191015b8181106107565750610682565b5f8155600101610749565b634e487b7160e01b5f52604160045260245ffd5b506020823d6020116107a0575b8161078f602093836124aa565b810103126102ae57600591516105c2565b3d9150610782565b6040513d5f823e3d90fd5b634e487b7160e01b5f52601160045260245ffd5b606460405162461bcd60e51b815260206004820152602060248201527f4d617820776f726b657273207065722070726f766964657220726561636865646044820152fd5b60405162461bcd60e51b81526020600482015260136024820152721419595c925908185b1c9958591e481d5cd959606a1b6044820152606490fd5b60405162461bcd60e51b815260206004820152601660248201527515185c99d95d081ddbdc9ad95c9cc81c995858da195960521b6044820152606490fd5b634e487b7160e01b5f52602160045260245ffd5b60405162461bcd60e51b815260206004820152602160248201527f436f6e6669673a2063616c6c6572206973206e6f7420746865204469616d6f6e6044820152601960fa1b6064820152608490fd5b81358152602091820191016103ad565b346102ae575f3660031901126102ae5761092860ff5f80516020613ef7833981519152541660405191829182612445565b0390f35b346102ae5760203660031901126102ae576004356001600160401b0381116102ae5761095c903690600401612388565b5f80516020613b77833981519152546040516307dc0d1d60e41b815291929190602090829060049082906001600160a01b03165afa9081156107a8575f91610b3c575b506001600160a01b03163303610af8576109b7612c71565b6109bf6128d9565b60058110158061088457600282148015610aee575b818115610ade575b5015610a9e57610884578015908115610a93575b50610a1f575b505f5b828110610a0257005b80610a19610a136001938686612b7f565b356134c0565b016109f9565b60a0015115610a2e57826109f6565b60405162461bcd60e51b815260206004820152603760248201527f4174206c65617374203120756e706169642065706f636820726571756972656460448201527620746f20636f6e7369646572206465616c207374616c6560481b6064820152608490fd5b6003915014846109f0565b60405162461bcd60e51b815260206004820152601860248201527715dbdc9ad95c9cc81a5b881919585b08185c99481c185a5960421b6044820152606490fd5b90506108845760038214816109dc565b50505f81156109d4565b606460405162461bcd60e51b815260206004820152602060248201527f4f6e6c79206f7261636c652063616e2063616c6c2074686973206d6574686f646044820152fd5b90506020813d602011610b6e575b81610b57602093836124aa565b810103126102ae57610b689061259c565b8361099f565b3d9150610b4a565b346102ae575f3660031901126102ae57610b9c5f80516020613dd7833981519152612a61565b805190610ba8826124cd565b91610bb660405193846124aa565b808352610bc5601f19916124cd565b015f5b818110610cd35750505f5b8151811015610c6c5780610be960019284612b6b565b515f525f80516020613f7783398151915260205260405f20610c4b600560405192610c1384612458565b8054845285810154602085015260028101546040850152858060a01b0360038201541660608501526004810154608085015201612a61565b60a0820152610c5a8286612b6b565b52610c658185612b6b565b5001610bd3565b826040518091602082016020835281518091526040830190602060408260051b8601019301915f905b828210610ca457505050500390f35b91936001919395506020610cc38192603f198a820301865288516123d1565b9601920192018594939192610c95565b602090610cde612a31565b82828701015201610bc8565b346102ae5760203660031901126102ae576004355f525f80516020613d57833981519152602052602060ff60405f2054166040519015158152f35b346102ae5760203660031901126102ae57600435610d4281612aea565b5f80516020613b7783398151915260018060a01b0390541690608060408201516024604051809581936321b9a09560e21b835260048301525afa9182156107a8575f92610e59575b50606001516001600160a01b03163314908115610e42575b508015610e22575b15610db8576102db906134c0565b60405162461bcd60e51b815260206004820152603c60248201527f4f6e6c792070726f76696465722c2070656572206f776e6572206f722064656160448201527b1b081bdddb995c8818d85b8818d85b1b081d1a1a5cc81b595d1a1bd960221b6064820152608490fd5b505f80516020613df7833981519152546001600160a01b03163314610daa565b606001516001600160a01b03163314905082610da2565b610e7c91925060803d608011610e83575b610e7481836124aa565b8101906125b0565b9083610d8a565b503d610e6a565b346102ae5760203660031901126102ae57600435610ea6612bed565b610eae6128d9565b6005811015610884577f2a89b2e3d580398d6dc2db5e0f336b52602bbaa51afa9bb5cdf59239cf0d2bea91610ee8600260209314156126c0565b610f10610ef3612c71565b60608101610f0284825161283c565b905261014081015190612ec0565b5f80516020613d77833981519152546040516323b872dd60e01b8482015233602482015230604482015260648082018490528152610f61916001600160a01b0316610f5c6084836124aa565b613945565b604051908152a1005b346102ae575f3660031901126102ae5760205f80516020613cf783398151915254604051908152f35b346102ae5760203660031901126102ae576004356001600160401b0381116102ae57610fc3903690600401612388565b6020604051610fd282826124aa565b5f815281810190601f198301368337610fea846124cd565b94610ff860405196876124aa565b848652601f19611007866124cd565b015f5b81811061117257505036819003601e1901905f5b868110156110fe578060051b820135838112156102ae5782018035906001600160401b0382116102ae5787019080360382136102ae575f918761108b84938b6040519382859383850197883783018281018881528d519283915e010185815203601f1981018352826124aa565b5190305af4903d156110f0573d916001600160401b038311610761576040516001936110d492906110c5601f8201601f19168c01846124aa565b82523d5f8b84013e5b306139c8565b6110de828b612b6b565b526110e9818a612b6b565b500161101e565b6110d46001926060906110ce565b6040805187815289518189018190525f92600582901b83018101918c8b01918b9085015b82871061112f5785850386f35b90919293828080600193603f198a82030186528189518051918291828552018484015e5f838284010152601f801991011601019601920196019592919092611122565b6060888201870152850161100a565b346102ae5760203660031901126102ae576109286111a0600435612aea565b6040519182916020835260208301906123d1565b346102ae575f3660031901126102ae576111cc612525565b506040805160015f80516020613e178339815191526111ea83612473565b63ffffffff60e01b815460e01b1683520154602082015261120d825180926123b8565bf35b346102ae575f3660031901126102ae575f80516020613df7833981519152546040516001600160a01b039091168152602090f35b346102ae575f3660031901126102ae5760205f80516020613fb783398151915254604051908152f35b346102ae5760203660031901126102ae5760043561128981612aea565b905f80516020613b7783398151915260018060a01b03905416608060408401516024604051809481936321b9a09560e21b835260048301525afa80156107a8576102db936112f6925f92611346575b50606001516001600160a01b0316331490811561132f575b50612605565b61132361130282612aea565b61130a612c71565b928184925190606060018060a01b03910151169161331d565b61014081015190612ec0565b606001516001600160a01b031633149050846112f0565b61136091925060803d608011610e8357610e7481836124aa565b90856112d8565b346102ae5760203660031901126102ae57611380612372565b611388612bed565b60ff5f80516020613ef7833981519152541660038110156108845715611403576001600160a01b03165f8181525f80516020613bf78339815191526020908152604091829020805460ff1916600117905590519182527f4c26e4de691e265be6cf03e639754839907bf74687cd524a6734851331527ffd91a1005b60405162461bcd60e51b815260206004820152601b60248201527a436f6e6669673a206163636573732074797065206973204e4f4e4560281b6044820152606490fd5b346102ae575f3660031901126102ae5761145e612bed565b5f80516020613df783398151915280546001600160a01b031981169091555f906001600160a01b03165f80516020613db78339815191528280a3005b346102ae575f3660031901126102ae5760205f80516020613c5783398151915254604051908152f35b346102ae576101a03660031901126102ae576004356001600160a01b03811681036102ae5760403660231901126102ae576064356001600160a01b03811681036102ae57610124359160c435919060843560a4356001600160401b0386116102ae57366023870112156102ae576004860135946001600160401b0386116102ae573660248760061b890101116102ae57610144359060038210156102ae57610164356001600160401b0381116102ae57611581903690600401612388565b5f80516020613f3783398151915254604081901c60ff1615989296919592906001600160401b03811680159081611a88575b6001149081611a7e575b159081611a75575b50611a66576001600160401b031981166001175f80516020613f378339815191525589611a3e575b506115f661399d565b6115fe61399d565b61160661399d565b61160e61399d565b61161733612b8f565b61161f61399d565b81156119e55782821161197c57831561191d57435f80516020613b97833981519152555f80516020613b7783398151915280546001600160a01b03998a166001600160a01b03199182161782555f80516020613d77833981519152805493909a169216919091179097555f80516020613e97833981519152555f80516020613d97833981519152555f80516020613eb78339815191525560e4355f80516020613fb783398151915255610104355f80516020613c57833981519152555f5b86811015611762575f80516020613c978339815191525490600160401b8210156107615760018201805f80516020613c978339815191525582101561174e576117486001925f80516020613c978339815191525f5260205f2060248460061b8d010191851b0161304e565b016116dd565b634e487b7160e01b5f52603260045260245ffd5b5061177d909291925f80516020613ef78339815191526129ed565b5f80516020613bf7833981519152915f5b8181106118dc5785856117af60245f80516020613e1783398151915261304e565b604051906024359063ffffffff60e01b82168092036102ae575f80516020613d378339815191526040846020946004965260443585820152a16117f061399d565b610184355f80516020613f978339815191525561180b61399d565b54604051630ecce30160e31b815292839182906001600160a01b03165afa9081156107a8575f916118aa575b505f1981019081116107b3575f80516020613ed78339815191525561185857005b60ff60401b195f80516020613f3783398151915254165f80516020613f37833981519152557fc7f505b2f371ae2175ee4913f4499e1f2633a7b5936321eed1cdaeb6115181d2602060405160018152a1005b90506020813d6020116118d4575b816118c5602093836124aa565b810103126102ae575182611837565b3d91506118b8565b6118e7818385612b7f565b35906001600160a01b03821682036102ae57600191828060a01b03165f528460205260405f208260ff198254161790550161178e565b60405162461bcd60e51b815260206004820152603160248201527f436f6e6669673a206375436f756e74506572576f726b65722073686f756c6420604482015270062652067726561746572207468616e203607c1b6064820152608490fd5b60405162461bcd60e51b815260206004820152603b60248201527f436f6e6669673a206d696e576f726b6572732073686f756c64206265206c657360448201527a73206f7220657175616c20746f20746172676574576f726b65727360281b6064820152608490fd5b60405162461bcd60e51b815260206004820152602b60248201527f436f6e6669673a206d696e576f726b6572732073686f756c642062652067726560448201526a061746572207468616e20360ac1b6064820152608490fd5b6001600160481b0319166001600160401b01175f80516020613f37833981519152558b6115ed565b63f92ee8a960e01b5f5260045ffd5b9050158d6115c5565b303b1591506115bd565b8b91506115b3565b346102ae5760203660031901126102ae5760043560038110156102ae57611ab5612bed565b60ff5f80516020613ef783398151915254166003811015610884578114611b2357611b1e81611b127f1f5a251428f76335a835fcae94ab6a9bcf09ac33bd3c782eb6a81bdf878a7393935f80516020613ef78339815191526129ed565b60405191829182612445565b0390a1005b60405162461bcd60e51b815260206004820152602260248201527f436f6e6669673a20616363657373207479706520697320616c72656164792073604482015261195d60f21b6064820152608490fd5b346102ae5760203660031901126102ae57611b8c612372565b60018060a01b03165f525f80516020613cd7833981519152602052602060405f2054604051908152f35b346102ae575f3660031901126102ae57611bce6128d9565b6040516005821015610884576020918152f35b346102ae575f3660031901126102ae5760205f80516020613e7783398151915254604051908152f35b346102ae5760203660031901126102ae577f38fb081a0b484406977bd94ff8edb79be44b5ca514130361182516b39e2c45286020611c46612372565b611c4e612bed565b6001600160a01b03165f8181525f80516020613bf78339815191528352604090819020805460ff1916905551908152a1005b346102ae5760203660031901126102ae576020611ca3611c9e612372565b612849565b6040519015158152f35b346102ae575f3660031901126102ae5760205f80516020613f1783398151915254604051908152f35b346102ae575f3660031901126102ae5760205f80516020613f9783398151915254604051908152f35b346102ae575f3660031901126102ae575f80516020613d77833981519152546040516001600160a01b039091168152602090f35b346102ae5760203660031901126102ae57600435611d4f612bed565b5f80516020613e578339815191525c6120645760015f80516020613e578339815191525d5f80516020613cb783398151915290611d8a612c71565b5f80516020613b7783398151915280546040516372ea4f2360e01b815292939290602090829060049082906001600160a01b03165afa9081156107a8575f91612030575b50611e03611dee611e18925f80516020613c57833981519152549061281c565b5f80516020613eb7833981519152549061281c565b5f80516020613d97833981519152549061281c565b60608401611e2784825161282f565b809152610100850151151580612027575b15611fa357505060c08301515f80516020613f578339815191525491546040516372ea4f2360e01b8152919290602090839060049082906001600160a01b03165afa9081156107a8575f91611f6d575b611e92925061283c565b1015611f0457611ec660209284611eb8845f80516020613d17833981519152975461282f565b905561014081015190612ec0565b5f80516020613d7783398151915254611eeb90829033906001600160a01b03166132e2565b604051908152a15f5f80516020613e578339815191525d005b60405162461bcd60e51b815260206004820152603b60248201527f43616e2774207769746864726177206265666f7265206d696e4465616c44657060448201527a1bdcda5d1959115c1bd8da1cc818599d195c881919585b08195b99602a1b6064820152608490fd5b90506020823d602011611f9b575b81611f88602093836124aa565b810103126102ae57611e92915190611e88565b3d9150611f7b565b915091935010611fc7575f80516020613d1783398151915291611ec6602092611323565b60405162461bcd60e51b815260206004820152603260248201527f467265652062616c616e6365206e6565647320746f20636f766572206d696e4460448201527165616c4465706f736974656445706f63687360701b6064820152608490fd5b50818110611e38565b90506020813d60201161205c575b8161204b602093836124aa565b810103126102ae5751611e03611dce565b3d915061203e565b633ee5aeb560e01b5f5260045ffd5b346102ae575f3660031901126102ae5760205f80516020613e9783398151915254604051908152f35b346102ae575f3660031901126102ae5760205f80516020613d9783398151915254604051908152f35b346102ae5760403660031901126102ae576004356120e281612aea565b905f80516020613b7783398151915260018060a01b03905416608060408401516024604051809481936321b9a09560e21b835260048301525afa80156107a8576102db9361214d925f926113465750606001516001600160a01b0316331490811561132f5750612605565b602435906126fc565b346102ae5760203660031901126102ae57604061217460043561253d565b60208251918051835201516020820152f35b346102ae5760403660031901126102ae5761219f612bed565b6121b760045f80516020613e1783398151915261304e565b60405160043563ffffffff60e01b81168091036102ae57816040915f80516020613d3783398151915293526024356020820152a1005b346102ae575f3660031901126102ae5760205f80516020613b9783398151915254604051908152f35b346102ae575f3660031901126102ae5760205f80516020613eb783398151915254604051908152f35b346102ae575f3660031901126102ae57612257612bed565b61225f6128d9565b60058110156108845760026122759114156124e4565b612280611323612c71565b5f80516020613b7783398151915254604051630ecce30160e31b815290602090829060049082906001600160a01b03165afa9081156107a8575f9161233f575b506020817f3ad16bb58712aa329948d76146b096a4f4b85e024d99473dc50bcd358811b86c925f80516020613f178339815191525411612314575b805f80516020613f5783398151915255604051908152a1005b805f80516020613f17833981519152555f80516020613c3783398151915282604051838152a16122fb565b90506020813d60201161236a575b8161235a602093836124aa565b810103126102ae575160206122c0565b3d915061234d565b600435906001600160a01b03821682036102ae57565b9181601f840112156102ae578235916001600160401b0383116102ae576020808501948460051b0101116102ae57565b80516001600160e01b0319168252602090810151910152565b602060e060a060c085019380518652838101518487015260408101516040870152600180831b0360608201511660608701526080810151608087015201519360c060a08201528451809452019201905f5b81811061242f5750505090565b8251845260209384019390920191600101612422565b9190602083019260038210156108845752565b60c081019081106001600160401b0382111761076157604052565b604081019081106001600160401b0382111761076157604052565b61016081019081106001600160401b0382111761076157604052565b601f909101601f19168101906001600160401b0382119082101761076157604052565b6001600160401b0381116107615760051b60200190565b156124eb57565b60405162461bcd60e51b81526020600482015260126024820152714465616c206973206e6f742061637469766560701b6044820152606490fd5b6040519061253282612473565b5f6020838281520152565b60405161254981612473565b5f81525f60208201525061255b612c71565b9061256581612aea565b5115612582578161257961257f9383613119565b91613204565b90565b505060405161259081612473565b5f81525f602082015290565b51906001600160a01b03821682036102ae57565b908160809103126102ae5760405190608082016001600160401b03811183821017610761576125fd916060916040528051845260208101516020850152604081015160408501520161259c565b606082015290565b1561260c57565b60405162461bcd60e51b815260206004820152603060248201527f4f6e6c792070726f7669646572206f722070656572206f776e65722063616e2060448201526f18d85b1b081d1a1a5cc81b595d1a1bd960821b6064820152608490fd5b1561267157565b60405162461bcd60e51b815260206004820152602160248201527f4f6666636861696e20776f726b65722069642063616e277420626520656d70746044820152607960f81b6064820152608490fd5b156126c757565b60405162461bcd60e51b815260206004820152600d60248201526c1119585b081a5cc8195b991959609a1b6044820152606490fd5b8115156127088161266a565b612710612c71565b9261014084015191835f525f80516020613f7783398151915260205261273960405f209161266a565b8054156127ea575b817fcf79e0e27c8c35d39bd9b727f35e6f79573597f660c88baf483fc1511c49203c92604092558151908582526020820152a15f80516020613cf7833981519152549061278e8285612ec0565b6127966128d9565b600581101561088457806127b060026127b79314156126c0565b15156124e4565b146127e6575f525f80516020613e37833981519152602052600160a060405f209260e081015184550151910155565b5050565b5f80516020613cf783398151915254915f1983146107b3576001929092015f80516020613cf783398151915255612741565b818102929181159184041417156107b357565b919082039182116107b357565b919082018092116107b357565b60ff5f80516020613ef7833981519152541660038110156108845780156128d257600181146128a85760021461287e57505f90565b6001600160a01b03165f9081525f80516020613bf7833981519152602052604090205460ff161590565b506001600160a01b03165f9081525f80516020613bf7833981519152602052604090205460ff1690565b5050600190565b6128e1612c71565b6101008101516129e7575f80516020613f178339815191525480151590816129d9575b506129d457610140810151905f80516020613b77833981519152915f80516020613e9783398151915254116129cd576060015190546040516372ea4f2360e01b815290602090829060049082906001600160a01b03165afa9081156107a8575f91612999575b50611e03611dee61298a925f80516020613c57833981519152549061281c565b1161299457600190565b600490565b90506020813d6020116129c5575b816129b4602093836124aa565b810103126102ae5751611e0361296a565b3d91506129a7565b5050600390565b505f90565b905060c0820151115f612904565b50600290565b9060038110156108845760ff80198354169116179055565b90604051612a1281612473565b825460e01b6001600160e01b0319168152600192909201546020830152565b60405190612a3e82612458565b606060a0835f81525f60208201525f60408201525f838201525f60808201520152565b90604051918281549182825260208201905f5260205f20925f5b818110612a92575050612a90925003836124aa565b565b8454835260019485019487945060209093019201612a7b565b15612ab257565b60405162461bcd60e51b815260206004820152601060248201526f15dbdc9ad95c881b9bdd08199bdd5b9960821b6044820152606490fd5b612af2612a31565b505f525f80516020613f7783398151915260205260405f2061257f60405191612b1a83612458565b805483526001810154602084019081526002820154604085015260038201546001600160a01b031660608501526004820154608085015290612b5e90600501612a61565b60a0840152511515612aab565b805182101561174e5760209160051b010190565b919081101561174e5760051b0190565b6001600160a01b03168015612bda575f80516020613df783398151915280546001600160a01b0319811683179091556001600160a01b03165f80516020613db78339815191525f80a3565b631e4fbdf760e01b5f525f60045260245ffd5b5f80516020613df7833981519152546001600160a01b03163303612c0d57565b63118cdaa760e01b5f523360045260245ffd5b60405190612c2d8261248e565b5f610140838281528260208201528260408201528260608201528260808201528260a08201528260c08201528260e082015282610100820152826101208201520152565b612c79612c20565b505f80516020613b7783398151915254604051630ecce30160e31b81525f80516020613cb78339815191529291602090829060049082906001600160a01b03165afa9081156107a8575f91612e8e575b505f1981018181116107b357905f80516020613f5783398151915254915f9280612e82575b505f80516020613cf783398151915254945f80516020613c5783398151915254935f80516020613eb78339815191525491612d27612c20565b5054935f80516020613c77833981519152545f80516020613c17833981519152549060405196612d568861248e565b8088528160208901528260408901526060880152608087015260a086015260c08501528260e08501521515610100840152836101208401528561014084015282955f80516020613ed7833981519152549384841115612e7957505f80516020613f17833981519152549485841115612e4257858510612df257505050612dee919250612de860a086019384519261282f565b9061283c565b9052565b612e109291612e0b612e0b92612e0b612dee988a61282f565b61281c565b60608601612e1f82825161282f565b9052612e306080870191825161283c565b9052612de860a086019384519261282f565b612e599550612e0b612e0b929395612e0b9561282f565b60608301612e6882825161282f565b9052612dee6080840191825161283c565b96505050505050565b6001935090505f612cee565b90506020813d602011612eb8575b81612ea9602093836124aa565b810103126102ae57515f612cc9565b3d9150612e9c565b905f80516020613cb7833981519152825160608401918251809203613046575b505060208301516080840151809103613031575b50604083015160a084015180910361301c575b505f80516020613eb7833981519152549060e08401519361010081015115612f3f575b505050505f80516020613ed783398151915255565b5f80516020613e97833981519152548085109182612fcf5750505090612e0b612f789251935f80516020613c578339815191525461281c565b8015612fbb57612f9a6020915f80516020613c3783398151915293048461283c565b805f80516020613f1783398151915255604051908152a15b5f808080612f2a565b634e487b7160e01b5f52601260045260245ffd5b6101400151101593509150829050613014575b5015612fb2575f5f80516020613f17833981519152555f80516020613c3783398151915260206040515f8152a1612fb2565b90505f612fe2565b5f80516020613c17833981519152555f612f07565b5f80516020613c77833981519152555f612ef4565b555f80612ee0565b9080356001600160e01b0319811681036102ae5760019160209160e01c63ffffffff198554161784550135910155565b90816101609103126102ae57604051906130978261248e565b80519060068210156102ae576101409183526020810151602084015260408101516040840152606081015160608401526080810151608084015260a081015160a084015260c081015160c08401526130f160e0820161259c565b60e0840152610100810151610100840152610120810151610120840152015161014082015290565b9060e00151905f80516020613b778339815191529060ff5f80516020613ef783398151915254166003811015610884576001146131ff5761315c6101609161382f565b9154604051631de5608360e21b81526004810193909352829060249082906001600160a01b03165afa9081156107a8575f916131d0575b50610120810151806131ca575060a00180515f1981019081116107b35782116131ba575090565b515f198101915081116107b35790565b91505090565b6131f291506101603d81116131f8575b6131ea81836124aa565b81019061307e565b5f613193565b503d6131e0565b505090565b9160405161321181612473565b5f81525f602082015250825f525f80516020613e3783398151915260205261323c60405f20936138ab565b928054918281106132d15760a06132586132649460019361282f565b9401519101549061282f565b908181106132c2576132a261329b611dee6132866132aa95629896809561282f565b5f80516020613c57833981519152549061281c565b938461281c565b04809261282f565b90604051916132b883612473565b8252602082015290565b50505060405161259081612473565b505050505060405161259081612473565b60405163a9059cbb60e01b60208201526001600160a01b039092166024830152604480830193909352918152612a9091610f5c6064836124aa565b929190156134bb5761332f8284613119565b61333a818486613204565b9182519361334e602085019586519061283c565b9081156134b257608061338c91600495895f525f80516020613e3783398151915260205260405f20908155600160a08301519101550191825161282f565b90525f80516020613b7783398151915254604051638da5cb5b60e01b81529260209184919082906001600160a01b03165afa9182156107a8575f9261345f575b5091606093915f80516020613bd783398151915295938251613434575b508251613409575b505190519060405192835260208301526040820152a1565b5f80516020613d7783398151915254835161342e9290916001600160a01b03166132e2565b5f6133f1565b5f80516020613d778339815191525483516134599290916001600160a01b03166132e2565b5f6133e9565b93915093916020843d6020116134aa575b8161347d602093836124aa565b810103126102ae575f80516020613bd78339815191529461349f60609561259c565b9294509092946133cc565b3d9150613470565b50505050505050565b505050565b6134c981612aea565b916134d2612c71565b918351906134f0845f9360018060a01b03606089015116908461331d565b5f80516020613e7783398151915294815f525f80516020613f7783398151915260205260405f20946040519561352587612458565b805487526001810154966020810197885260028201549160408201928352613580613570600560018060a01b0360038501541693606086019485526004810154608087015201612a61565b9960a084019a8b52511515612aab565b5f5b895180518210156135c0579061359a81600193612b6b565b515f525f80516020613bb783398151915260205260405f2060ff19815416905501613582565b50509193959750919395976135d58154613a26565b9055516001600160a01b03165f9081525f80516020613cd783398151915260205260409020805461360590613a26565b905551613804575b5190815f525f80516020613d5783398151915260205260405f2060ff198154169055835f525f80516020613f77833981519152602052600560405f205f81555f60018201555f60028201555f60038201555f6004820155018054905f8155816137e6575b505061368a845f80516020613dd7833981519152613ab1565b15613797576136d2917f2931f8975c0ce3cdf8ebe0cac36f06048736d46d6df66ac21cfe717b9ee710066020604051878152a25f80516020613cf78339815191525490612ec0565b5f80516020613b778339815191525460a09190910151906001600160a01b0316803b156102ae57604051809263012a4ebb60e41b8252604482016040600484015281518091526020606484019201905f5b81811061377e5750505091815f81819588602483015203925af180156107a857613769575b5081525f80516020613e378339815191526020526001604082208281550155565b6137769192505f906124aa565b5f905f613748565b8251845286945060209384019390920191600101613723565b60405162461bcd60e51b815260206004820152602160248201527f4661696c656420746f2072656d6f766520776f726b65722066726f6d206c69736044820152601d60fa1b6064820152608490fd5b5f5260205f20908101905b81811015613671575f81556001016137f1565b61381b5f80516020613cf783398151915254613a26565b5f80516020613cf78339815191525561360d565b61383890612aea565b5f80516020613b778339815191525460409182015191516321b9a09560e21b81526004810192909252608090829060249082906001600160a01b03165afa80156107a8576020915f9161388c575b50015190565b6138a5915060803d608011610e8357610e7481836124aa565b5f613886565b5f80516020613b778339815191529060ff5f80516020613ef7833981519152541660038110156108845760011461393f576138e86101609161382f565b9154604051631de5608360e21b81526004810193909352829060249082906001600160a01b03165afa80156107a85760c0915f916139265750015190565b6138a591506101603d81116131f8576131ea81836124aa565b50505f90565b905f602091828151910182855af1156107a8575f513d61399457506001600160a01b0381163b155b6139745750565b635274afe760e01b5f9081526001600160a01b0391909116600452602490fd5b6001141561396d565b60ff5f80516020613f378339815191525460401c16156139b957565b631afcd79f60e31b5f5260045ffd5b906139ec57508051156139dd57805190602001fd5b63d6bda27560e01b5f5260045ffd5b81511580613a1d575b6139fd575090565b639996b31560e01b5f9081526001600160a01b0391909116600452602490fd5b50803b156139f5565b80156107b3575f190190565b805482101561174e575f5260205f2001905f90565b6001810190825f528160205260405f2054155f14613aaa578054600160401b81101561076157613a97613a81826001879401855584613a32565b819391549060031b91821b915f19901b19161790565b905554915f5260205260405f2055600190565b5050505f90565b906001820191815f528260205260405f20548015155f14613b6e575f1981018181116107b35782545f198101919082116107b357818103613b39575b50505080548015613b25575f190190613b068282613a32565b8154905f199060031b1b19169055555f526020525f6040812055600190565b634e487b7160e01b5f52603160045260245ffd5b613b59613b49613a819386613a32565b90549060031b1c92839286613a32565b90555f528360205260405f20555f8080613aed565b505050505f9056fe8953f5482bc1a621075e75537625fa3bd2025e7df7baf6ba1dbfbf2212912d048953f5482bc1a621075e75537625fa3bd2025e7df7baf6ba1dbfbf2212912d05ec986952a0671e4b2e5ec4461085fb880bc7a7b88668240f8d55173039155d24c512f9d0bb2627096491f1074af42a5032fe36ef5dcae7c216cfc34f6ea474d68953f5482bc1a621075e75537625fa3bd2025e7df7baf6ba1dbfbf2212912d1185276e830bb0cbb783f0e6b4a968acc65deef7a2b0ff14d52821c42f785b9cc1cecd349d986645e1758ec135f91f1ad20564a8bcc6c2b5a5eaca9b09841495c58953f5482bc1a621075e75537625fa3bd2025e7df7baf6ba1dbfbf2212912d0e85276e830bb0cbb783f0e6b4a968acc65deef7a2b0ff14d52821c42f785b9cc08953f5482bc1a621075e75537625fa3bd2025e7df7baf6ba1dbfbf2212912d0f85276e830bb0cbb783f0e6b4a968acc65deef7a2b0ff14d52821c42f785b9cbfec986952a0671e4b2e5ec4461085fb880bc7a7b88668240f8d55173039155d22ec986952a0671e4b2e5ec4461085fb880bc7a7b88668240f8d55173039155d21430648de173157e069201c943adb2d4e340e7cf5b27b1b09c9cb852f03d63b56c820a66d3bdd50a45cf12cda6dc8ec9e94fb5123edd7da736eea18316f8523a0ec986952a0671e4b2e5ec4461085fb880bc7a7b88668240f8d55173039155d258953f5482bc1a621075e75537625fa3bd2025e7df7baf6ba1dbfbf2212912d088953f5482bc1a621075e75537625fa3bd2025e7df7baf6ba1dbfbf2212912d0b8be0079c531659141344cd1fd0a4f28419497f9722a3daafe3b4186f6b6457e0ec986952a0671e4b2e5ec4461085fb880bc7a7b88668240f8d55173039155d26b13d3e7783d509d8d65d3e1e62ec0b103a07e0cbfa1ee74ae19127f297dddfcc8953f5482bc1a621075e75537625fa3bd2025e7df7baf6ba1dbfbf2212912d0685276e830bb0cbb783f0e6b4a968acc65deef7a2b0ff14d52821c42f785b9cc49b779b17422d0df92223018b32b4d1fa46e071723d6817e2486d003becc55f00ec986952a0671e4b2e5ec4461085fb880bc7a7b88668240f8d55173039155d208953f5482bc1a621075e75537625fa3bd2025e7df7baf6ba1dbfbf2212912d0a8953f5482bc1a621075e75537625fa3bd2025e7df7baf6ba1dbfbf2212912d0d85276e830bb0cbb783f0e6b4a968acc65deef7a2b0ff14d52821c42f785b9cc38953f5482bc1a621075e75537625fa3bd2025e7df7baf6ba1dbfbf2212912d1085276e830bb0cbb783f0e6b4a968acc65deef7a2b0ff14d52821c42f785b9cc2f0c57e16840df040f15088dc2f81fe391c3923bec73e23a9662efc9c229c6a0085276e830bb0cbb783f0e6b4a968acc65deef7a2b0ff14d52821c42f785b9cc5ec986952a0671e4b2e5ec4461085fb880bc7a7b88668240f8d55173039155d2385276e830bb0cbb783f0e6b4a968acc65deef7a2b0ff14d52821c42f785b9cc68953f5482bc1a621075e75537625fa3bd2025e7df7baf6ba1dbfbf2212912d0ca2646970667358221220c4f966cd490d27217dedb9a388fef3126e1977a5cb9ecb516280812efa2419ec64736f6c634300081a0033","linkReferences":{}},"methodIdentifiers":{"activateWorker(bytes32,bytes32)":"22ebd58a","addProviderToAccessList(address)":"73134c15","addWorker(address,(bytes32,bytes32[]),bytes32)":"d76e4805","appCID()":"9bc66868","changeProvidersAccessType(uint8)":"636fcefb","computePeerUsed(bytes32)":"bd1926e0","creationBlock()":"17634514","cuCountPerWorker()":"15a0f31a","deposit(uint256)":"b6b55f25","effectors()":"fc1e5e2a","getActivatedWorkerCount()":"ade0a202","getFreeBalance()":"e93c4f15","getMaxPaidEpoch()":"378b22e4","getProtocolVersion()":"33ce93fe","getRewardAmount(bytes32)":"1af57b96","getStatus()":"4e69d560","getWorker(bytes32)":"aba93a10","getWorkerCount()":"4d7599f1","getWorkerCount(address)":"59c4afc0","getWorkers()":"c1499f71","initialize(address,(bytes4,bytes32),address,uint256,uint256,uint256,uint256,uint256,(bytes4,bytes32)[],uint8,address[],uint256)":"663c8ce9","isProviderAllowed(address)":"3e8ae1ae","maxWorkersPerProvider()":"8a0c725b","minWorkers()":"2db31193","multicall(bytes[])":"ac9650d8","owner()":"8da5cb5b","paymentToken()":"3013ce29","pricePerCuPerEpoch()":"70220a9b","providersAccessType()":"d4773ff0","removeProviderFromAccessList(address)":"444e6a5a","removeStaleWorkers(bytes32[])":"cb7b88d1","removeWorker(bytes32)":"bc126f1f","renounceOwnership()":"715018a6","setAppCID((bytes4,bytes32))":"176474cf","stop()":"07da68f5","targetWorkers()":"2943dcab","transferOwnership(address)":"f2fde38b","withdraw(uint256)":"2e1a7d4d","withdrawRewards(bytes32)":"7dfb6626"},"storageLayout":{"storage":[],"types":{}},"devdoc":{"version":1,"kind":"dev","methods":{"activateWorker(bytes32,bytes32)":{"details":"Set offchain worker ID for a corresponding onchain worker for a deal"},"addProviderToAccessList(address)":{"details":"Adds a provider to the access list"},"addWorker(address,(bytes32,bytes32[]),bytes32)":{"details":"Adds a compute unit to the deal","params":{"computeProvider":"The compute provider address","peerId":"The peer ID","workerData":"The worker with data"}},"appCID()":{"details":"Returns the app CID"},"changeProvidersAccessType(uint8)":{"details":"Change the providers access type"},"computePeerUsed(bytes32)":{"details":"Returns the boolean flag indicating whether the peer exists in the deal"},"constructor":{},"creationBlock()":{"details":"Returns the creation block of the deal"},"cuCountPerWorker()":{"details":"Returns number of CUs in a worker"},"deposit(uint256)":{"details":"Deposits payment token to the deal"},"effectors()":{"details":"Returns the effector CIDs"},"getActivatedWorkerCount()":{"details":"Returns the worker count. Worker is a compute unit that has a worker ID"},"getFreeBalance()":{"details":"Returns the free balance of the deal"},"getMaxPaidEpoch()":{"details":"Returns the max paid epoch"},"getProtocolVersion()":{"details":"Returns the protocol version"},"getRewardAmount(bytes32)":{"details":"Returns the reward amount by compute unit ID"},"getStatus()":{"details":"Returns the status of the deal"},"getWorker(bytes32)":{"details":"Returns worker by ID"},"getWorkerCount()":{"details":"Returns total number of workers"},"getWorkerCount(address)":{"details":"Returns number of workers in provider"},"getWorkers()":{"details":"Returns workers registered in this deal"},"isProviderAllowed(address)":{"details":"Returns the boolean indicating whether the provider is allowed or not"},"maxWorkersPerProvider()":{"details":"Returns the max number of workers per provider"},"minWorkers()":{"details":"Returns the min number of workers"},"multicall(bytes[])":{"details":"Receives and executes a batch of function calls on this contract."},"owner()":{"details":"Returns the address of the current owner."},"paymentToken()":{"details":"Returns the payment token address"},"pricePerCuPerEpoch()":{"details":"Returns the price per CU per epoch"},"providersAccessType()":{"details":"Returns the providers access type"},"removeProviderFromAccessList(address)":{"details":"Removes a provider from the access list"},"removeStaleWorkers(bytes32[])":{"details":"Allows oracle to remove worker from a deal that is not paying workers."},"removeWorker(bytes32)":{"details":"Removes a worker from the deal"},"renounceOwnership()":{"details":"Leaves the contract without owner. It will not be possible to call `onlyOwner` functions. Can only be called by the current owner. NOTE: Renouncing ownership will leave the contract without an owner, thereby disabling any functionality that is only available to the owner."},"setAppCID((bytes4,bytes32))":{"details":"Sets the app CID"},"stop()":{"details":"Stop the deal"},"targetWorkers()":{"details":"Returns the max number of workers"},"transferOwnership(address)":{"details":"Transfers ownership of the contract to a new account (`newOwner`). Can only be called by the current owner."},"withdraw(uint256)":{"details":"Withdraws payment token from the deal"},"withdrawRewards(bytes32)":{"details":"Withdraws rewards from the deal by compute unit ID"}},"events":{"AppCIDChanged((bytes4,bytes32))":{"details":"Emitted when the app CID is changed","params":{"newAppCID":"The new app CID"}},"DealEnded(uint256)":{"details":"Emitted when a deal is ended. This event can be emitted in the not-ended epoch. It can be emitted after the ended epoch in any epoch"},"Deposited(uint256)":{"details":"Emitted when a owner deposits payment token to the deal"},"Initialized(uint64)":{"details":"Triggered when the contract has been initialized or reinitialized."},"MaxPaidEpochUpdated(uint256)":{"details":"Emitted when a max paid epoch is updated"},"ProviderAddedToAccessList(address)":{"details":"Emitted when a provider is added to the access list","params":{"provider":"The provider address"}},"ProviderRemovedFromAccessList(address)":{"details":"Emitted when a provider is removed from the access list","params":{"provider":"The provider address"}},"ProvidersAccessTypeChanged(uint8)":{"details":"Emitted when the providers access type is changed","params":{"newAccessType":"The new access type"}},"RewardWithdrawn(bytes32,uint256,uint256)":{"details":"Emitted when a compute unit withdraws rewards from the deal"},"Withdrawn(uint256)":{"details":"Emitted when a owner withdraws payment token from the deal"},"WorkerIdUpdated(bytes32,bytes32)":{"details":"Emitted when a worker ID is updated","params":{"offchainWorkerId":"The new worker ID","onchainWorkerId":"The worker"}},"WorkerJoined(bytes32,bytes32)":{"details":"Emitted when a new worker is added","params":{"onchainId":"The worker ID","peerId":"The id of compute peer"}},"WorkerRemoved(bytes32,bytes32)":{"details":"Emitted when a worker is removed","params":{"onchainId":"The worker onchain ID","peerId":"The id of compute peer"}}},"errors":{"AddressEmptyCode(address)":[{"details":"There's no code at `target` (it is not a contract)."}],"FailedCall()":[{"details":"A call to an address target failed. The target may have reverted."}],"InvalidInitialization()":[{"details":"The contract is already initialized."}],"NotInitializing()":[{"details":"The contract is not initializing."}],"OwnableInvalidOwner(address)":[{"details":"The owner is not a valid owner account. (eg. `address(0)`)"}],"OwnableUnauthorizedAccount(address)":[{"details":"The caller account is not authorized to perform an operation."}],"ReentrancyGuardReentrantCall()":[{"details":"Unauthorized reentrant call."}],"SafeERC20FailedOperation(address)":[{"details":"An operation with an ERC-20 token failed."}]}},"id":70}