{"abi":[{"type":"constructor","inputs":[],"stateMutability":"nonpayable"},{"type":"function","name":"addComputeUnit","inputs":[{"name":"computeProvider","type":"address","internalType":"address"},{"name":"computeUnitId","type":"bytes32","internalType":"bytes32"},{"name":"peerId","type":"bytes32","internalType":"bytes32"}],"outputs":[],"stateMutability":"nonpayable"},{"type":"function","name":"addProviderToAccessList","inputs":[{"name":"provider","type":"address","internalType":"address"}],"outputs":[],"stateMutability":"nonpayable"},{"type":"function","name":"appCID","inputs":[],"outputs":[{"name":"","type":"tuple","internalType":"struct CIDV1","components":[{"name":"prefixes","type":"bytes4","internalType":"bytes4"},{"name":"hash","type":"bytes32","internalType":"bytes32"}]}],"stateMutability":"view"},{"type":"function","name":"changeProvidersAccessType","inputs":[{"name":"accessType","type":"uint8","internalType":"enum IConfig.AccessType"}],"outputs":[],"stateMutability":"nonpayable"},{"type":"function","name":"creationBlock","inputs":[],"outputs":[{"name":"","type":"uint256","internalType":"uint256"}],"stateMutability":"view"},{"type":"function","name":"deposit","inputs":[{"name":"amount","type":"uint256","internalType":"uint256"}],"outputs":[],"stateMutability":"nonpayable"},{"type":"function","name":"effectors","inputs":[],"outputs":[{"name":"","type":"tuple[]","internalType":"struct CIDV1[]","components":[{"name":"prefixes","type":"bytes4","internalType":"bytes4"},{"name":"hash","type":"bytes32","internalType":"bytes32"}]}],"stateMutability":"view"},{"type":"function","name":"getComputeUnit","inputs":[{"name":"id","type":"bytes32","internalType":"bytes32"}],"outputs":[{"name":"","type":"tuple","internalType":"struct IWorkerManager.ComputeUnit","components":[{"name":"id","type":"bytes32","internalType":"bytes32"},{"name":"workerId","type":"bytes32","internalType":"bytes32"},{"name":"peerId","type":"bytes32","internalType":"bytes32"},{"name":"provider","type":"address","internalType":"address"},{"name":"joinedEpoch","type":"uint256","internalType":"uint256"}]}],"stateMutability":"view"},{"type":"function","name":"getComputeUnitCount","inputs":[],"outputs":[{"name":"","type":"uint256","internalType":"uint256"}],"stateMutability":"view"},{"type":"function","name":"getComputeUnitCount","inputs":[{"name":"provider","type":"address","internalType":"address"}],"outputs":[{"name":"","type":"uint256","internalType":"uint256"}],"stateMutability":"view"},{"type":"function","name":"getComputeUnits","inputs":[],"outputs":[{"name":"","type":"tuple[]","internalType":"struct IWorkerManager.ComputeUnit[]","components":[{"name":"id","type":"bytes32","internalType":"bytes32"},{"name":"workerId","type":"bytes32","internalType":"bytes32"},{"name":"peerId","type":"bytes32","internalType":"bytes32"},{"name":"provider","type":"address","internalType":"address"},{"name":"joinedEpoch","type":"uint256","internalType":"uint256"}]}],"stateMutability":"view"},{"type":"function","name":"getFreeBalance","inputs":[],"outputs":[{"name":"","type":"uint256","internalType":"uint256"}],"stateMutability":"view"},{"type":"function","name":"getMaxPaidEpoch","inputs":[],"outputs":[{"name":"","type":"uint256","internalType":"uint256"}],"stateMutability":"view"},{"type":"function","name":"getProtocolVersion","inputs":[],"outputs":[{"name":"","type":"uint256","internalType":"uint256"}],"stateMutability":"view"},{"type":"function","name":"getRewardAmount","inputs":[{"name":"computeUnitId","type":"bytes32","internalType":"bytes32"}],"outputs":[{"name":"","type":"uint256","internalType":"uint256"}],"stateMutability":"view"},{"type":"function","name":"getStatus","inputs":[],"outputs":[{"name":"","type":"uint8","internalType":"enum IDeal.Status"}],"stateMutability":"view"},{"type":"function","name":"getWorkerCount","inputs":[],"outputs":[{"name":"","type":"uint256","internalType":"uint256"}],"stateMutability":"view"},{"type":"function","name":"initialize","inputs":[{"name":"globalCore_","type":"address","internalType":"contract ICore"},{"name":"appCID_","type":"tuple","internalType":"struct CIDV1","components":[{"name":"prefixes","type":"bytes4","internalType":"bytes4"},{"name":"hash","type":"bytes32","internalType":"bytes32"}]},{"name":"paymentToken_","type":"address","internalType":"contract IERC20"},{"name":"minWorkers_","type":"uint256","internalType":"uint256"},{"name":"targetWorkers_","type":"uint256","internalType":"uint256"},{"name":"maxWorkersPerProvider_","type":"uint256","internalType":"uint256"},{"name":"pricePerWorkerEpoch_","type":"uint256","internalType":"uint256"},{"name":"effectors_","type":"tuple[]","internalType":"struct CIDV1[]","components":[{"name":"prefixes","type":"bytes4","internalType":"bytes4"},{"name":"hash","type":"bytes32","internalType":"bytes32"}]},{"name":"providersAccessType_","type":"uint8","internalType":"enum IConfig.AccessType"},{"name":"providersAccessList_","type":"address[]","internalType":"address[]"},{"name":"protocolVersion_","type":"uint256","internalType":"uint256"}],"outputs":[],"stateMutability":"nonpayable"},{"type":"function","name":"isComputePeerExist","inputs":[{"name":"peerId","type":"bytes32","internalType":"bytes32"}],"outputs":[{"name":"","type":"bool","internalType":"bool"}],"stateMutability":"view"},{"type":"function","name":"isProviderAllowed","inputs":[{"name":"account","type":"address","internalType":"address"}],"outputs":[{"name":"","type":"bool","internalType":"bool"}],"stateMutability":"view"},{"type":"function","name":"maxWorkersPerProvider","inputs":[],"outputs":[{"name":"","type":"uint256","internalType":"uint256"}],"stateMutability":"view"},{"type":"function","name":"minWorkers","inputs":[],"outputs":[{"name":"","type":"uint256","internalType":"uint256"}],"stateMutability":"view"},{"type":"function","name":"multicall","inputs":[{"name":"data","type":"bytes[]","internalType":"bytes[]"}],"outputs":[{"name":"results","type":"bytes[]","internalType":"bytes[]"}],"stateMutability":"nonpayable"},{"type":"function","name":"owner","inputs":[],"outputs":[{"name":"","type":"address","internalType":"address"}],"stateMutability":"view"},{"type":"function","name":"paymentToken","inputs":[],"outputs":[{"name":"","type":"address","internalType":"contract IERC20"}],"stateMutability":"view"},{"type":"function","name":"pricePerWorkerEpoch","inputs":[],"outputs":[{"name":"","type":"uint256","internalType":"uint256"}],"stateMutability":"view"},{"type":"function","name":"providersAccessType","inputs":[],"outputs":[{"name":"","type":"uint8","internalType":"enum IConfig.AccessType"}],"stateMutability":"view"},{"type":"function","name":"removeComputeUnit","inputs":[{"name":"computeUnitId","type":"bytes32","internalType":"bytes32"}],"outputs":[],"stateMutability":"nonpayable"},{"type":"function","name":"removeProviderFromAccessList","inputs":[{"name":"provider","type":"address","internalType":"address"}],"outputs":[],"stateMutability":"nonpayable"},{"type":"function","name":"renounceOwnership","inputs":[],"outputs":[],"stateMutability":"nonpayable"},{"type":"function","name":"setAppCID","inputs":[{"name":"appCID_","type":"tuple","internalType":"struct CIDV1","components":[{"name":"prefixes","type":"bytes4","internalType":"bytes4"},{"name":"hash","type":"bytes32","internalType":"bytes32"}]}],"outputs":[],"stateMutability":"nonpayable"},{"type":"function","name":"setWorker","inputs":[{"name":"computeUnitId","type":"bytes32","internalType":"bytes32"},{"name":"workerId","type":"bytes32","internalType":"bytes32"}],"outputs":[],"stateMutability":"nonpayable"},{"type":"function","name":"stop","inputs":[],"outputs":[],"stateMutability":"nonpayable"},{"type":"function","name":"targetWorkers","inputs":[],"outputs":[{"name":"","type":"uint256","internalType":"uint256"}],"stateMutability":"view"},{"type":"function","name":"transferOwnership","inputs":[{"name":"newOwner","type":"address","internalType":"address"}],"outputs":[],"stateMutability":"nonpayable"},{"type":"function","name":"withdraw","inputs":[{"name":"amount","type":"uint256","internalType":"uint256"}],"outputs":[],"stateMutability":"nonpayable"},{"type":"function","name":"withdrawRewards","inputs":[{"name":"computeUnitId","type":"bytes32","internalType":"bytes32"}],"outputs":[],"stateMutability":"nonpayable"},{"type":"event","name":"AppCIDChanged","inputs":[{"name":"newAppCID","type":"tuple","indexed":false,"internalType":"struct CIDV1","components":[{"name":"prefixes","type":"bytes4","internalType":"bytes4"},{"name":"hash","type":"bytes32","internalType":"bytes32"}]}],"anonymous":false},{"type":"event","name":"ComputeUnitJoined","inputs":[{"name":"peerId","type":"bytes32","indexed":true,"internalType":"bytes32"},{"name":"unitId","type":"bytes32","indexed":false,"internalType":"bytes32"}],"anonymous":false},{"type":"event","name":"ComputeUnitRemoved","inputs":[{"name":"peerId","type":"bytes32","indexed":true,"internalType":"bytes32"},{"name":"unitId","type":"bytes32","indexed":false,"internalType":"bytes32"}],"anonymous":false},{"type":"event","name":"DealEnded","inputs":[{"name":"endedEpoch","type":"uint256","indexed":false,"internalType":"uint256"}],"anonymous":false},{"type":"event","name":"Deposited","inputs":[{"name":"amount","type":"uint256","indexed":false,"internalType":"uint256"}],"anonymous":false},{"type":"event","name":"Initialized","inputs":[{"name":"version","type":"uint8","indexed":false,"internalType":"uint8"}],"anonymous":false},{"type":"event","name":"MaxPaidEpochUpdated","inputs":[{"name":"maxPaidEpoch","type":"uint256","indexed":false,"internalType":"uint256"}],"anonymous":false},{"type":"event","name":"OwnershipTransferred","inputs":[{"name":"previousOwner","type":"address","indexed":true,"internalType":"address"},{"name":"newOwner","type":"address","indexed":true,"internalType":"address"}],"anonymous":false},{"type":"event","name":"ProviderAddedToAccessList","inputs":[{"name":"provider","type":"address","indexed":false,"internalType":"address"}],"anonymous":false},{"type":"event","name":"ProviderRemovedFromAccessList","inputs":[{"name":"provider","type":"address","indexed":false,"internalType":"address"}],"anonymous":false},{"type":"event","name":"ProvidersAccessTypeChanged","inputs":[{"name":"newAccessType","type":"uint8","indexed":false,"internalType":"enum IConfig.AccessType"}],"anonymous":false},{"type":"event","name":"RewardWithdrawn","inputs":[{"name":"computeUnitId","type":"bytes32","indexed":false,"internalType":"bytes32"},{"name":"reward","type":"uint256","indexed":false,"internalType":"uint256"}],"anonymous":false},{"type":"event","name":"Withdrawn","inputs":[{"name":"amount","type":"uint256","indexed":false,"internalType":"uint256"}],"anonymous":false},{"type":"event","name":"WorkerIdUpdated","inputs":[{"name":"computeUnitId","type":"bytes32","indexed":false,"internalType":"bytes32"},{"name":"workerId","type":"bytes32","indexed":false,"internalType":"bytes32"}],"anonymous":false},{"type":"error","name":"OwnableInvalidOwner","inputs":[{"name":"owner","type":"address","internalType":"address"}]},{"type":"error","name":"OwnableUnauthorizedAccount","inputs":[{"name":"account","type":"address","internalType":"address"}]}],"bytecode":{"object":"0x60808060405234620000c6576000549060ff8260081c1662000074575060ff8082160362000038575b6040516137df9081620000cc8239f35b60ff90811916176000557f7f26b83ff96e1f2b6a682f133852f6798a09c465da95921460cefb3847402498602060405160ff8152a13862000028565b62461bcd60e51b815260206004820152602760248201527f496e697469616c697a61626c653a20636f6e747261637420697320696e697469604482015266616c697a696e6760c81b6064820152608490fd5b600080fdfe6080604052600436101561001257600080fd5b60003560e01c806307da68f514611fd1578063108d2f5214611fa65780631763451414611f7b578063176474cf14611ef95780631af57b9614611ebd5780632943dcab14611e925780632db3119314611e675780632e1a7d4d14611bb65780633013ce2914611b8057806333ce93fe14611b555780633591187c146118c457806336710331146112da578063378b22e4146112af5780633e8ae1ae14611282578063444e6a5a1461120a5780634b66a309146110805780634d7599f1146110555780634e69d56014611029578063636fcefb14610f535780636cd1344814610f28578063715018a614610ed057806373134c1514610dee578063745e920b14610dc35780637dfb662614610b735780638a0c725b14610b485780638da5cb5b14610b125780639bc6686814610a9e578063ac9650d8146108b9578063b6b55f25146107c4578063cb45f02314610786578063d4773ff01461074f578063d5053ab014610730578063e2581238146106e9578063e93c4f15146106c2578063f2fde38b14610697578063fb9e93b31461028d5763fc1e5e2a146101b357600080fd5b346102885760003660031901126102885760008051602061344a83398151915280546101de816123b2565b6101eb6040519182612262565b8181526020918282018094600052836000206000915b8383106102505760408051878152865181890181905289928201908960005b82811061022d5784840385f35b909192826040826102416001948a516121a4565b01960191019492919094610220565b6002866001926040516102628161222b565b63ffffffff60e01b865460e01b1681528486015483820152815201920192019190610201565b600080fd5b34610288576060366003190112610288576102a6612158565b6024908135604480359360018060a01b039360008051602061336a83398151915294808654169560405180976380f5560560e01b825281600460209a8b935afa90811561054f5761030491849160009161066a575b501633146122d1565b61030c612408565b6005811015610655576002610322911415612677565b60008051602061366a833981519152908154916000805160206135aa8339815191525483101561061b578760005260008051602061374a83398151915294858a5284600360406000200154166105e6578a6000526000805160206133ca833981519152808b5260ff604060002054166105ad579085918c6000528b526040600020600160ff198254161790551692836000526000805160206134ca833981519152808b5260406000205460008051602061378a8339815191525481101561055b579261040c8796959293600498946103fa8f97612fc9565b90886000528752604060002055612fc9565b9055541660405194858092630ecce30160e31b82525afa91821561054f5760009261051f575b600493506040519461044386612210565b8886528986016000815260408701918c835260608801948552608088019586528a6000528b526040600020965187555160018701555160028601556003850191511660018060a01b0319825416179055519101556104a0836132e2565b156104d257847feb6102882ab6cf29bfeaef0f947795a2ebc0267124f238900562ac9bcbf4a0308585604051908152a2005b7f4661696c656420746f2061646420636f6d7075746520756e697420746f206c69608492602286936040519462461bcd60e51b86526004860152840152820152611cdd60f21b6064820152fd5b91508783813d8311610548575b6105368183612262565b81010312610288576004925191610432565b503d61052c565b6040513d6000823e3d90fd5b60405162461bcd60e51b8152600481018d90526026818b01527f4d617820756e6974732070657220636f6d707574652070726f76696465722072818c015265195858da195960d21b6064820152608490fd5b60405162461bcd60e51b8152600481018c90526013818a0152721419595c925908185b1c9958591e481d5cd959606a1b818b0152606490fd5b60405162461bcd60e51b8152600481018b9052600f818901526e125908185b1c9958591e481d5cd959608a1b818a0152606490fd5b60405162461bcd60e51b8152600481018a90526014818801527315185c99d95d081d5b9a5d1cc81c995858da195960621b81890152606490fd5b84634e487b7160e01b60005260216004526000fd5b61068a91508a3d8c11610690575b6106828183612262565b8101906122b2565b8b6102fb565b503d610678565b34610288576020366003190112610288576106c06106b3612158565b6106bb6129b1565b61294f565b005b3461028857600036600319011261028857602060606106df612a3d565b0151604051908152f35b34610288576020366003190112610288576001600160a01b0361070a612158565b166000526000805160206134ca8339815191526020526020604060002054604051908152f35b34610288576040366003190112610288576106c06024356004356126f9565b346102885760003660031901126102885761078260ff60008051602061348a8339815191525416604051918291826121fd565b0390f35b34610288576020366003190112610288576004356000526000805160206133ca833981519152602052602060ff604060002054166040519015158152f35b34610288576020366003190112610288576004356107e06129b1565b6107e8612408565b60058110156108a3577f2a89b2e3d580398d6dc2db5e0f336b52602bbaa51afa9bb5cdf59239cf0d2bea9161082260026020931415612677565b61084a61082d612a3d565b6060810161083c8482516122a5565b905261014081015190612c85565b60008051602061358a833981519152546040516323b872dd60e01b848201523360248201523060448201526064808201849052815261089a916001600160a01b031661089582612210565b612fd8565b604051908152a1005b634e487b7160e01b600052602160045260246000fd5b3461028857602080600319360112610288576001600160401b03600435818111610288576108eb903690600401612128565b6108f7819392936123b2565b926109056040519485612262565b818452610911826123b2565b601f19018560005b828110610a8f5750505060005b82811061098b57604080518781528651818901819052600092600582901b8301810191898b01918b9085015b82871061095f5785850386f35b90919293828061097b600193603f198a820301865288516121bd565b9601920196019592919092610952565b8060051b820135601e19833603018112156102885782019081359185831161028857878101928036038413610288576109c38161265c565b936109d16040519586612262565b818552898501928a83369201011161028857816000928b92853785010152604051606081019381851088861117610a79576000610a5d938192600197604052602785527f416464726573733a206c6f772d6c6576656c2064656c65676174652063616c6c8d860152660819985a5b195960ca1b60408601525190305af4610a566130d1565b9030613245565b610a6782886123f4565b52610a7281876123f4565b5001610926565b634e487b7160e01b600052604160045260246000fd5b60608782018301528101610919565b346102885760003660031901126102885760006020604051610abf8161222b565b828152015260408051610ad18161222b565b63ffffffff60e01b60008051602061362a8339815191525460e01b1681526000805160206133aa833981519152546020820152610b10825180926121a4565bf35b346102885760003660031901126102885760008051602061360a833981519152546040516001600160a01b039091168152602090f35b3461028857600036600319011261028857602060008051602061378a83398151915254604051908152f35b34610288576020806003193601126102885760043590610b928261257e565b610b9a612a3d565b60008051602061336a833981519152546040516380f5560560e01b815291936001600160a01b0392909182908290600490829087165afa801561054f578391600091610da6575b5016906040840191825190604051916321b9a09560e21b83526004830152608082602481845afa91821561054f57600092610d75575b5060c08251602460405180948193631ab2f71960e31b835260048301525afa91821561054f578591600093610cdf575b5060600151163314908115610cd2575b5015610c82575093610c7692849260606106c097519201511691612eb2565b61014081015190612c85565b6084906040519062461bcd60e51b82526004820152602360248201527f4f6e6c792070726f7669646572206f72206f776e65722063616e20776974686460448201526272617760e81b6064820152fd5b5184163314905087610c57565b9150915060c0813d60c011610d6d575b81610cfc60c09383612262565b810103126102885760405160c0810191906001600160401b03831181841017610a795760a06060928894604052610d32816125f3565b83528681015187840152610d48604082016125f3565b6040840152838101518484015260808101516080840152015160a08201529290610c47565b3d9150610cef565b610d9891925060803d608011610d9f575b610d908183612262565b810190612607565b9088610c17565b503d610d86565b610dbd9150833d8511610690576106828183612262565b87610be1565b346102885760203660031901126102885760a0610de160043561257e565b610b10604051809261216e565b3461028857602036600319011261028857610e07612158565b610e0f6129b1565b60ff60008051602061348a833981519152541660038110156108a35715610e8d576001600160a01b031660008181526000805160206136ea8339815191526020908152604091829020805460ff1916600117905590519182527f4c26e4de691e265be6cf03e639754839907bf74687cd524a6734851331527ffd91a1005b60405162461bcd60e51b815260206004820152601b60248201527a436f6e6669673a206163636573732074797065206973204e4f4e4560281b6044820152606490fd5b3461028857600036600319011261028857610ee96129b1565b60008051602061360a83398151915280546001600160a01b031981169091556000906001600160a01b03166000805160206135ca8339815191528280a3005b346102885760003660031901126102885760206000805160206136aa83398151915254604051908152f35b3461028857602036600319011261028857600435600381101561028857610f786129b1565b60ff60008051602061348a833981519152541660038110156108a3578114610fd957610fd481610fc87f1f5a251428f76335a835fcae94ab6a9bcf09ac33bd3c782eb6a81bdf878a739393612513565b604051918291826121fd565b0390a1005b60405162461bcd60e51b815260206004820152602260248201527f436f6e6669673a20616363657373207479706520697320616c72656164792073604482015261195d60f21b6064820152608490fd5b3461028857600036600319011261028857611042612408565b60405160058210156108a3576020918152f35b346102885760003660031901126102885760206000805160206134ea83398151915254604051908152f35b34610288576000366003190112610288576040518060008051602061356a83398151915281815491828552602080950190600052846000209260005b868282106111f457846110d181860382612262565b8051916110f66110e0846123b2565b936110ee6040519586612262565b8085526123b2565b601f19018160005b8281106111de5750505060005b82518110156111945780611121600192856123f4565b5160005260008051602061374a8339815191528352604060002060046040519161114a83612210565b80548352848101548684015260028101546040840152848060a01b0360038201541660608401520154608082015261118282876123f4565b5261118d81866123f4565b500161110b565b604080518381528551818501819052868501928201908560005b8281106111bb5784840385f35b9091928260a0826111cf6001948a5161216e565b019601910194929190946111ae565b6111e66123c9565b8282880101520182906110fe565b85548452600195860195879550930192016110bc565b34610288576020366003190112610288577f38fb081a0b484406977bd94ff8edb79be44b5ca514130361182516b39e2c45286020611246612158565b61124e6129b1565b6001600160a01b031660008181526000805160206136ea8339815191528352604090819020805460ff1916905551908152a1005b346102885760203660031901126102885760206112a56112a0612158565b61231c565b6040519015158152f35b3461028857600036600319011261028857602060008051602061370a83398151915254604051908152f35b3461028857610180366003190112610288576004356001600160a01b0381168103610288576040366023190112610288576064356001600160a01b0381168103610288576001600160401b036101043581106102885736602361010435011215610288578061010435600401351161028857366024610104356004013560061b6101043501011161028857600361012435101561028857610144359081116102885761138a903690600401612128565b916000549360ff8560081c1615948580966118b7575b80156118a0575b156118445760ff19811660011760005585611832575b506113ea60ff60005460081c166113d381612f69565b6113dc81612f69565b6113e581612f69565b612f69565b6113f33361294f565b61140460ff60005460081c16612f69565b608435156117d95760a43560843511611770574360008051602061338a8339815191525560008051602061336a83398151915280546001600160a01b039283166001600160a01b03199182161790915560008051602061358a833981519152805493909216921691909117905560843560008051602061368a8339815191525560a4356000805160206135aa8339815191525560c43560008051602061378a8339815191525560e4356000805160206136aa8339815191525560005b610104356004013581106116a157506114db61012435612513565b60005b82811061165957836024356001600160e01b03198116908181036102885760008051602061362a8339815191529060e01c63ffffffff1982541617905560008051602061354a833981519152604060443592836000805160206133aa83398151915255815190815260209384820152a16000549161157e60ff8460081c1661156581612f69565b6101643560008051602061376a83398151915255612f69565b60008051602061336a83398151915254604051630ecce30160e31b8152908390829060049082906001600160a01b03165afa90811561054f5760009161162c575b506000198101908111611616576000805160206136ca833981519152556115e257005b7f7f26b83ff96e1f2b6a682f133852f6798a09c465da95921460cefb38474024989161ff00191660005560405160018152a1005b634e487b7160e01b600052601160045260246000fd5b90508281813d8311611652575b6116438183612262565b810103126102885751846115bf565b503d611639565b600581901b8201356001600160a01b0381169190829003610288576001916000526000805160206136ea83398151915260205260406000208260ff19825416179055016114de565b60008051602061344a83398151915254600160401b811015610a7957600181018060008051602061344a8339815191525581101561175a5760008051602061344a83398151915260005261010435600683901b0160240135919060011b7f41d22fcf61f8b32ca910e56247176ffedb9dcd2ae76207e235d37179490c642c016001600160e01b0319831683036102885760019260e01c63ffffffff198254161781558260448360061b61010435010135910155016114c0565b634e487b7160e01b600052603260045260246000fd5b60405162461bcd60e51b815260206004820152603b60248201527f436f6e6669673a206d696e576f726b6572732073686f756c64206265206c657360448201527a73206f7220657175616c20746f20746172676574576f726b65727360281b6064820152608490fd5b60405162461bcd60e51b815260206004820152602b60248201527f436f6e6669673a206d696e576f726b6572732073686f756c642062652067726560448201526a061746572207468616e20360ac1b6064820152608490fd5b61ffff191661010117600055856113bd565b60405162461bcd60e51b815260206004820152602e60248201527f496e697469616c697a61626c653a20636f6e747261637420697320616c72656160448201526d191e481a5b9a5d1a585b1a5e995960921b6064820152608490fd5b50303b1580156113a75750600160ff8216146113a7565b50600160ff8216106113a0565b34610288576020806003193601126102885760008051602061336a833981519152546040516380f5560560e01b81526001600160a01b03929160048035929184918391829088165afa90811561054f5761192a918591600091611b3857501633146122d1565b6119338161257e565b61195361193e612a3d565b82866060604084960151920151169085612eb2565b8160005260008051602061374a833981519152808452604060002060405161197a81612210565b815481526001820154868201526080600460028401549860408401998a526003850154169384606085015201549101526119b581151561253a565b6119f560008051602061366a833981519152918254906000526000805160206134ca833981519152875260406000206119ee8154612f5c565b9055612f5c565b90556000805160206134ea8339815191529485549584600052828652600160406000200154611b25575b505190816000526000805160206133ca8339815191528552604060002060ff19815416905583600052845260006004604082208281558260018201558260028201558260038201550155611a7283613128565b15611ad05793611aba9160008051602061364a833981519152957f5abefe0a1fb3d6df34b14e459422791829e024e367c6df8eaf0bf218cf42fb3686604051878152a2612c85565b6000525260006001604082208281550155600080f35b60405162461bcd60e51b815260048101859052602760248201527f4661696c656420746f2072656d6f766520636f6d7075746520756e69742066726044820152661bdb481b1a5cdd60ca1b6064820152608490fd5b95611b2f90612f5c565b80965586611a1f565b611b4f9150853d8711610690576106828183612262565b866102fb565b3461028857600036600319011261028857602060008051602061376a83398151915254604051908152f35b346102885760003660031901126102885760008051602061358a833981519152546040516001600160a01b039091168152602090f35b34610288576020806003193601126102885760043590611bd46129b1565b611bdc612a3d565b60008051602061336a833981519152546040516372ea4f2360e01b8082526001600160a01b039593929091908616908581600481855afa90811561054f57600091611e38575b50611c36611c4c9161012086015190612285565b6000805160206135aa8339815191525490612285565b60608401611c5b868251612298565b809152610100850151151580611e2f575b15611da957505060c0830151918560008051602061372a833981519152549160046040518095819382525afa90811561054f57600091611d78575b611cb192506122a5565b1015611d0f578160008051602061352a83398151915294611cf761089a936000805160206134aa833981519152611ce9858254612298565b905561014081015190612c85565b60008051602061358a83398151915254163390612e63565b60405162461bcd60e51b815260048101849052603b60248201527f43616e2774207769746864726177206265666f7265206d696e4465616c44657060448201527a1bdcda5d1959115c1bd8da1cc818599d195c881919585b08195b99602a1b6064820152608490fd5b90508582813d8311611da2575b611d8f8183612262565b8101031261028857611cb1915190611ca7565b503d611d85565b9150915010611dcf578160008051602061352a83398151915294611cf761089a93610c76565b60405162461bcd60e51b815260048101849052603260248201527f467265652062616c616e6365206e6565647320746f20636f766572206d696e4460448201527165616c4465706f736974656445706f63687360701b6064820152608490fd5b50818110611c6c565b90508581813d8311611e60575b611e4f8183612262565b810103126102885751611c36611c22565b503d611e45565b3461028857600036600319011261028857602060008051602061368a83398151915254604051908152f35b346102885760003660031901126102885760206000805160206135aa83398151915254604051908152f35b34610288576020366003190112610288576020611ef1600435611ede612a3d565b9083611ee98261257e565b015190612dfe565b604051908152f35b3461028857604036600319011261028857611f126129b1565b6004356001600160e01b03198116908181036102885760008051602061354a8339815191529160409160008051602061362a8339815191529060e01c63ffffffff19825416179055602435806000805160206133aa8339815191525582519182526020820152a1005b3461028857600036600319011261028857602060008051602061338a83398151915254604051908152f35b3461028857600036600319011261028857602060008051602061366a83398151915254604051908152f35b3461028857600036600319011261028857611fea6129b1565b611ff2612408565b60058110156108a3576002146120ee5761200d610c76612a3d565b60008051602061336a83398151915254604051630ecce30160e31b8152906020908190839060049082906001600160a01b03165afa801561054f576000906120b3575b60008051602061340a83398151915292508060008051602061370a83398151915281815411612094575b5060008051602061372a83398151915255604051908152a1005b5560008051602061342a83398151915282604051838152a1808461207a565b508082813d83116120e7575b6120c98183612262565b810103126102885760008051602061340a8339815191529151612050565b503d6120bf565b60405162461bcd60e51b81526020600482015260126024820152714465616c206973206e6f742061637469766560701b6044820152606490fd5b9181601f84011215610288578235916001600160401b038311610288576020808501948460051b01011161028857565b600435906001600160a01b038216820361028857565b8051825260208082015190830152604080820151908301526060808201516001600160a01b031690830152608090810151910152565b80516001600160e01b0319168252602090810151910152565b919082519283825260005b8481106121e9575050826000602080949584010152601f8019910116010190565b6020818301810151848301820152016121c8565b9190602083019260038210156108a35752565b60a081019081106001600160401b03821117610a7957604052565b604081019081106001600160401b03821117610a7957604052565b61016081019081106001600160401b03821117610a7957604052565b601f909101601f19168101906001600160401b03821190821017610a7957604052565b8181029291811591840414171561161657565b9190820391821161161657565b9190820180921161161657565b9081602091031261028857516001600160a01b03811681036102885790565b156122d857565b606460405162461bcd60e51b815260206004820152602060248201527f436f6e6669673a2063616c6c6572206973206e6f7420746865204d61726b65746044820152fd5b60ff60008051602061348a833981519152541660038110156108a35780156123ab576001811461237f576002146123535750600090565b6001600160a01b031660009081526000805160206136ea833981519152602052604090205460ff161590565b506001600160a01b031660009081526000805160206136ea833981519152602052604090205460ff1690565b5050600190565b6001600160401b038111610a795760051b60200190565b604051906123d682612210565b60006080838281528260208201528260408201528260608201520152565b805182101561175a5760209160051b010190565b612410612a3d565b61010081015161250d5760008051602061370a8339815191525480151590816124ff575b506124f957606081015160008051602061336a833981519152546040516372ea4f2360e01b815290602090829060049082906001600160a01b03165afa90811561054f576000916124c5575b50611c366124949161012085015190612285565b11156124a05750600490565b610140015160008051602061368a8339815191525411156124c057600390565b600190565b90506020813d6020116124f1575b816124e060209383612262565b810103126102885751611c36612480565b3d91506124d3565b50600090565b905060c08201511138612434565b50600290565b60038110156108a35760008051602061348a8339815191529060ff80198354169116179055565b1561254157565b60405162461bcd60e51b815260206004820152601560248201527410dbdb5c1d5d19555b9a5d081b9bdd08199bdd5b99605a1b6044820152606490fd5b6125866123c9565b5060005260008051602061374a83398151915260205260406000206125f0604051916125b183612210565b80548352600181015460208401526002810154604084015260038101546001600160a01b0316606084018190526004909101546080840152151561253a565b90565b51906001600160a01b038216820361028857565b908160809103126102885760405190608082016001600160401b03811183821017610a795761265491606091604052805184526020810151602085015260408101516040850152016125f3565b606082015290565b6001600160401b038111610a7957601f01601f191660200190565b1561267e57565b60405162461bcd60e51b815260206004820152600d60248201526c1119585b081a5cc8195b991959609a1b6044820152606490fd5b156126ba57565b60405162461bcd60e51b8152602060048201526017602482015276576f726b657249642063616e277420626520656d70747960481b6044820152606490fd5b90612702612408565b60058110156108a3576002612718911415612677565b80151591612725836126b3565b60008051602061336a833981519152546001600160a01b039081169261274a8361257e565b91604092835180966380f5560560e01b82528160046020998a935afa90811561292757839291608091600091612932575b50602487840151885196879384926321b9a09560e21b84526004840152165afa92831561292757600093612901575b506060829101511633149182156128f0575b50501561289e576127cb612a3d565b946101408601518460005260008051602061374a83398151915286526127f484600020926126b3565b836000805160206134ea8339815191529360018554940194855415612876575b50908160008051602061350a8339815191529285965581519088825289820152a11461286f5760019360a09361285960008051602061364a8339815191529388612c85565b600052526000209260e081015184550151910155565b5050505050565b93908061289260008051602061350a8339815191529493612fc9565b95869055919250612814565b815162461bcd60e51b815260048101859052602560248201527f4f6e6c792070726f7669646572206f72206f776e65722063616e20736574207760448201526437b935b2b960d91b6064820152608490fd5b6060919250015116331438806127bc565b8291935061291f60609160803d608011610d9f57610d908183612262565b9391506127aa565b85513d6000823e3d90fd5b6129499150893d8b11610690576106828183612262565b3861277b565b6001600160a01b039081169081156129985760008051602061360a83398151915280546001600160a01b031981168417909155166000805160206135ca833981519152600080a3565b604051631e4fbdf760e01b815260006004820152602490fd5b60008051602061360a833981519152546001600160a01b031633036129d257565b60405163118cdaa760e01b8152336004820152602490fd5b604051906129f782612246565b816101406000918281528260208201528260408201528260608201528260808201528260a08201528260c08201528260e082015282610100820152826101208201520152565b600490612a486129ea565b5060008051602061336a83398151915254604051630ecce30160e31b81529260209184919082906001600160a01b03165afa91821561054f57600092612c4e575b506000198201828111611616579160008051602061372a833981519152549060009180612c42575b506000805160206134ea83398151915254936000805160206136aa8339815191525492612adc6129ea565b506000805160206134aa833981519152549260008051602061346a833981519152546000805160206133ea833981519152549060405195612b1c87612246565b8087528160208801528260408801526060870152608086015260a085015260c08401528160e08401521515610100830152826101208301528461014083015281946000805160206136ca833981519152549283831115612c3a575060008051602061370a833981519152549384831115612c0657848410612bba575050612bb5919250612baf60a0860193845192612298565b906122a5565b90525b565b90612bcf612bd492612bcf612bb59688612298565b612285565b60608601612be3828251612298565b9052612bf4608087019182516122a5565b9052612baf60a0860193845192612298565b9092612c1a9450612bcf90612bcf93612298565b60608301612c29828251612298565b9052612bb5608084019182516122a5565b955050505050565b93506001915038612ab1565b90916020823d602011612c7d575b81612c6960209383612262565b81010312612c7a5750519038612a89565b80fd5b3d9150612c5c565b80519160608201928351809103612de8575b5060208201516080830151809103612dd2575b50604082015160a0830151809103612dbc575b5060e08201519261010083015115612ce5575b5050506000805160206136ca83398151915255565b60008051602061368a833981519152548083109081612d6b57505090610120612d119251930151612285565b8015612d5557612d3460209160008051602061342a8339815191529304846122a5565b8060008051602061370a83398151915255604051908152a15b388080612cd0565b634e487b7160e01b600052601260045260246000fd5b9250926101409150015110159081612db4575b5015612d4d57600060008051602061370a8339815191525560008051602061342a833981519152602060405160008152a1612d4d565b905038612d7e565b6000805160206133ea8339815191525538612cbd565b60008051602061346a8339815191525538612caa565b6000805160206134aa8339815191525538612c97565b919015612e5c576125f09160005260008051602061364a833981519152602052610120612e536040600020612e4d612e3c60e0860151835490612298565b91600160a087015191015490612298565b90612298565b91015190612285565b5050600090565b60405163a9059cbb60e01b60208201526001600160a01b03909216602483015260448083019390935291815260808101916001600160401b03831182841017610a7957612bb892604052612fd8565b9083612ec19194939483612dfe565b8015612f5657612f49817f9b5336625f529f36cb0543297bdf5075b7f6b830bb892ff97c09fbfeae6255d59560806040968660005260008051602061364a8339815191526020528760002060e08201518155600160a083015191015501612f29838251612298565b905260008051602061358a833981519152546001600160a01b0316612e63565b82519182526020820152a1565b50505050565b8015611616576000190190565b15612f7057565b60405162461bcd60e51b815260206004820152602b60248201527f496e697469616c697a61626c653a20636f6e7472616374206973206e6f74206960448201526a6e697469616c697a696e6760a81b6064820152608490fd5b60001981146116165760010190565b60018060a01b031690613037604051612ff08161222b565b6020938482527f5361666545524332303a206c6f772d6c6576656c2063616c6c206661696c6564858301526000808587829751910182855af16130316130d1565b91613245565b8051918215918483156130a9575b5050509050156130525750565b6084906040519062461bcd60e51b82526004820152602a60248201527f5361666545524332303a204552433230206f7065726174696f6e20646964206e6044820152691bdd081cdd58d8d9595960b21b6064820152fd5b9193818094500103126130cd57820151908115158203612c7a575080388084613045565b5080fd5b3d156130fc573d906130e28261265c565b916130f06040519384612262565b82523d6000602084013e565b606090565b60008051602061356a833981519152805482101561175a5760005260206000200190600090565b6000908082526000805160206135ea8339815191529081602052604083205480151560001461323f57600019908082019080821161322b5760008051602061356a83398151915291825490848201918211613217578082036131cd575b505050805480156131b95782019161319c83613101565b909182549160031b1b191690555582526020526040812055600190565b634e487b7160e01b86526031600452602486fd5b6132026131dc6131eb93613101565b90549060031b1c928392613101565b819391549060031b91821b91600019901b19161790565b90558652846020526040862055388080613185565b634e487b7160e01b88526011600452602488fd5b634e487b7160e01b86526011600452602486fd5b50505090565b919290156132a75750815115613259575090565b3b156132625790565b60405162461bcd60e51b815260206004820152601d60248201527f416464726573733a2063616c6c20746f206e6f6e2d636f6e74726163740000006044820152606490fd5b8251909150156132ba5750805190602001fd5b60405162461bcd60e51b8152602060048201529081906132de9060248301906121bd565b0390fd5b906000918083526000805160206135ea83398151915292836020526040812054156000146133645760008051602061356a83398151915280549490600160401b86101561335057836133406131eb886001604098999a018555613101565b9055549382526020522055600190565b634e487b7160e01b83526041600452602483fd5b92505056fe8953f5482bc1a621075e75537625fa3bd2025e7df7baf6ba1dbfbf2212912d048953f5482bc1a621075e75537625fa3bd2025e7df7baf6ba1dbfbf2212912d058953f5482bc1a621075e75537625fa3bd2025e7df7baf6ba1dbfbf2212912d07ec986952a0671e4b2e5ec4461085fb880bc7a7b88668240f8d55173039155d2485276e830bb0cbb783f0e6b4a968acc65deef7a2b0ff14d52821c42f785b9cc13ad16bb58712aa329948d76146b096a4f4b85e024d99473dc50bcd358811b86ccecd349d986645e1758ec135f91f1ad20564a8bcc6c2b5a5eaca9b09841495c58953f5482bc1a621075e75537625fa3bd2025e7df7baf6ba1dbfbf2212912d0e85276e830bb0cbb783f0e6b4a968acc65deef7a2b0ff14d52821c42f785b9cc08953f5482bc1a621075e75537625fa3bd2025e7df7baf6ba1dbfbf2212912d0f85276e830bb0cbb783f0e6b4a968acc65deef7a2b0ff14d52821c42f785b9cbfec986952a0671e4b2e5ec4461085fb880bc7a7b88668240f8d55173039155d22ec986952a0671e4b2e5ec4461085fb880bc7a7b88668240f8d55173039155d21cf79e0e27c8c35d39bd9b727f35e6f79573597f660c88baf483fc1511c49203c430648de173157e069201c943adb2d4e340e7cf5b27b1b09c9cb852f03d63b56c820a66d3bdd50a45cf12cda6dc8ec9e94fb5123edd7da736eea18316f8523a0ec986952a0671e4b2e5ec4461085fb880bc7a7b88668240f8d55173039155d258953f5482bc1a621075e75537625fa3bd2025e7df7baf6ba1dbfbf2212912d088953f5482bc1a621075e75537625fa3bd2025e7df7baf6ba1dbfbf2212912d0b8be0079c531659141344cd1fd0a4f28419497f9722a3daafe3b4186f6b6457e0ec986952a0671e4b2e5ec4461085fb880bc7a7b88668240f8d55173039155d26b13d3e7783d509d8d65d3e1e62ec0b103a07e0cbfa1ee74ae19127f297dddfcc8953f5482bc1a621075e75537625fa3bd2025e7df7baf6ba1dbfbf2212912d0685276e830bb0cbb783f0e6b4a968acc65deef7a2b0ff14d52821c42f785b9cc4ec986952a0671e4b2e5ec4461085fb880bc7a7b88668240f8d55173039155d208953f5482bc1a621075e75537625fa3bd2025e7df7baf6ba1dbfbf2212912d0a8953f5482bc1a621075e75537625fa3bd2025e7df7baf6ba1dbfbf2212912d0d85276e830bb0cbb783f0e6b4a968acc65deef7a2b0ff14d52821c42f785b9cc38953f5482bc1a621075e75537625fa3bd2025e7df7baf6ba1dbfbf2212912d1085276e830bb0cbb783f0e6b4a968acc65deef7a2b0ff14d52821c42f785b9cc285276e830bb0cbb783f0e6b4a968acc65deef7a2b0ff14d52821c42f785b9cc5ec986952a0671e4b2e5ec4461085fb880bc7a7b88668240f8d55173039155d2385276e830bb0cbb783f0e6b4a968acc65deef7a2b0ff14d52821c42f785b9cc68953f5482bc1a621075e75537625fa3bd2025e7df7baf6ba1dbfbf2212912d0ca2646970667358221220f60f8d69b503f67cf2801593320d0d122273fe4b9ddffafcb7203033b894c09164736f6c63430008180033","linkReferences":{}},"methodIdentifiers":{"addComputeUnit(address,bytes32,bytes32)":"fb9e93b3","addProviderToAccessList(address)":"73134c15","appCID()":"9bc66868","changeProvidersAccessType(uint8)":"636fcefb","creationBlock()":"17634514","deposit(uint256)":"b6b55f25","effectors()":"fc1e5e2a","getComputeUnit(bytes32)":"745e920b","getComputeUnitCount()":"108d2f52","getComputeUnitCount(address)":"e2581238","getComputeUnits()":"4b66a309","getFreeBalance()":"e93c4f15","getMaxPaidEpoch()":"378b22e4","getProtocolVersion()":"33ce93fe","getRewardAmount(bytes32)":"1af57b96","getStatus()":"4e69d560","getWorkerCount()":"4d7599f1","initialize(address,(bytes4,bytes32),address,uint256,uint256,uint256,uint256,(bytes4,bytes32)[],uint8,address[],uint256)":"36710331","isComputePeerExist(bytes32)":"cb45f023","isProviderAllowed(address)":"3e8ae1ae","maxWorkersPerProvider()":"8a0c725b","minWorkers()":"2db31193","multicall(bytes[])":"ac9650d8","owner()":"8da5cb5b","paymentToken()":"3013ce29","pricePerWorkerEpoch()":"6cd13448","providersAccessType()":"d4773ff0","removeComputeUnit(bytes32)":"3591187c","removeProviderFromAccessList(address)":"444e6a5a","renounceOwnership()":"715018a6","setAppCID((bytes4,bytes32))":"176474cf","setWorker(bytes32,bytes32)":"d5053ab0","stop()":"07da68f5","targetWorkers()":"2943dcab","transferOwnership(address)":"f2fde38b","withdraw(uint256)":"2e1a7d4d","withdrawRewards(bytes32)":"7dfb6626"},"devdoc":{"version":1,"kind":"dev","methods":{"addProviderToAccessList(address)":{"details":"Adds a provider to the access list"},"appCID()":{"details":"Returns the app CID"},"changeProvidersAccessType(uint8)":{"details":"Change the providers access type"},"creationBlock()":{"details":"Returns the creation block of the deal"},"deposit(uint256)":{"details":"Deposits payment token to the deal"},"effectors()":{"details":"Returns the effector CIDs"},"getComputeUnit(bytes32)":{"details":"Returns the compute unit info by ID"},"getComputeUnitCount()":{"details":"Returns total number of compute units"},"getComputeUnitCount(address)":{"details":"Returns the compute units by provider"},"getComputeUnits()":{"details":"Returns the compute units info by provider"},"getFreeBalance()":{"details":"Returns the free balance of the deal"},"getMaxPaidEpoch()":{"details":"Returns the max paid epoch"},"getProtocolVersion()":{"details":"Returns the protocol version"},"getRewardAmount(bytes32)":{"details":"Returns the reward amount by compute unit ID"},"getStatus()":{"details":"Returns the status of the deal"},"getWorkerCount()":{"details":"Returns the worker count. Worker is a compute unit that has a worker ID"},"isComputePeerExist(bytes32)":{"details":"Returns the boolean flag indicating whether the peer exists in the deal"},"isProviderAllowed(address)":{"details":"Returns the boolean indicating whether the provider is allowed or not"},"maxWorkersPerProvider()":{"details":"Returns the max number of workers per provider"},"minWorkers()":{"details":"Returns the min number of workers"},"multicall(bytes[])":{"details":"Receives and executes a batch of function calls on this contract."},"owner()":{"details":"Returns the address of the current owner."},"paymentToken()":{"details":"Returns the payment token address"},"pricePerWorkerEpoch()":{"details":"Returns the price per worker per epoch"},"providersAccessType()":{"details":"Returns the providers access type"},"removeComputeUnit(bytes32)":{"details":"Removes a compute unit from the deal"},"removeProviderFromAccessList(address)":{"details":"Removes a provider from the access list"},"renounceOwnership()":{"details":"Leaves the contract without owner. It will not be possible to call `onlyOwner` functions. Can only be called by the current owner. NOTE: Renouncing ownership will leave the contract without an owner, thereby disabling any functionality that is only available to the owner."},"setAppCID((bytes4,bytes32))":{"details":"Sets the app CID"},"setWorker(bytes32,bytes32)":{"details":"Set worker ID for a compute unit. Compute unit can have only one worker ID"},"stop()":{"details":"Stop the deal"},"targetWorkers()":{"details":"Returns the max number of workers"},"transferOwnership(address)":{"details":"Transfers ownership of the contract to a new account (`newOwner`). Can only be called by the current owner."},"withdraw(uint256)":{"details":"Withdraws payment token from the deal"},"withdrawRewards(bytes32)":{"details":"Withdraws rewards from the deal by compute unit ID"}},"events":{"AppCIDChanged((bytes4,bytes32))":{"details":"Emitted when the app CID is changed","params":{"newAppCID":"The new app CID"}},"ComputeUnitJoined(bytes32,bytes32)":{"details":"Emitted when a new compute unit is added","params":{"unitId":"The compute unit ID"}},"ComputeUnitRemoved(bytes32,bytes32)":{"details":"Emitted when a compute unit is removed","params":{"unitId":"The compute unit ID"}},"DealEnded(uint256)":{"details":"Emitted when a deal is ended. This event can be emitted in the not-ended epoch. It can be emitted after the ended epoch in any epoch"},"Deposited(uint256)":{"details":"Emitted when a owner deposits payment token to the deal"},"Initialized(uint8)":{"details":"Triggered when the contract has been initialized or reinitialized."},"MaxPaidEpochUpdated(uint256)":{"details":"Emitted when a max paid epoch is updated"},"ProviderAddedToAccessList(address)":{"details":"Emitted when a provider is added to the access list","params":{"provider":"The provider address"}},"ProviderRemovedFromAccessList(address)":{"details":"Emitted when a provider is removed from the access list","params":{"provider":"The provider address"}},"ProvidersAccessTypeChanged(uint8)":{"details":"Emitted when the providers access type is changed","params":{"newAccessType":"The new access type"}},"RewardWithdrawn(bytes32,uint256)":{"details":"Emitted when a compute unit withdraws rewards from the deal"},"Withdrawn(uint256)":{"details":"Emitted when a owner withdraws payment token from the deal"},"WorkerIdUpdated(bytes32,bytes32)":{"details":"Emitted when a worker ID is updated","params":{"computeUnitId":"The compute unit","workerId":"The new worker ID"}}},"errors":{"OwnableInvalidOwner(address)":[{"details":"The owner is not a valid owner account. (eg. `address(0)`)"}],"OwnableUnauthorizedAccount(address)":[{"details":"The caller account is not authorized to perform an operation."}]}},"id":90}