{"abi":[{"type":"constructor","inputs":[],"stateMutability":"nonpayable"},{"type":"function","name":"activateWorker","inputs":[{"name":"onchainWorkerId","type":"bytes32","internalType":"bytes32"},{"name":"offchainWorkerId","type":"bytes32","internalType":"bytes32"}],"outputs":[],"stateMutability":"nonpayable"},{"type":"function","name":"addProviderToAccessList","inputs":[{"name":"provider","type":"address","internalType":"address"}],"outputs":[],"stateMutability":"nonpayable"},{"type":"function","name":"addWorker","inputs":[{"name":"computeProvider","type":"address","internalType":"address"},{"name":"workerData","type":"tuple","internalType":"struct IWorkerManagerV2.WorkerDataV2","components":[{"name":"onchainId","type":"bytes32","internalType":"bytes32"}]},{"name":"peerId","type":"bytes32","internalType":"bytes32"}],"outputs":[],"stateMutability":"nonpayable"},{"type":"function","name":"appCID","inputs":[],"outputs":[{"name":"","type":"tuple","internalType":"struct CIDV1","components":[{"name":"prefixes","type":"bytes4","internalType":"bytes4"},{"name":"hash","type":"bytes32","internalType":"bytes32"}]}],"stateMutability":"view"},{"type":"function","name":"changeProvidersAccessType","inputs":[{"name":"accessType","type":"uint8","internalType":"enum IConfigV2.AccessTypeV2"}],"outputs":[],"stateMutability":"nonpayable"},{"type":"function","name":"computePeerUsed","inputs":[{"name":"peerId","type":"bytes32","internalType":"bytes32"}],"outputs":[{"name":"","type":"bool","internalType":"bool"}],"stateMutability":"view"},{"type":"function","name":"creationBlock","inputs":[],"outputs":[{"name":"","type":"uint256","internalType":"uint256"}],"stateMutability":"view"},{"type":"function","name":"depositFromOwner","inputs":[{"name":"amount","type":"uint256","internalType":"uint256"}],"outputs":[],"stateMutability":"nonpayable"},{"type":"function","name":"getActivatedWorkerCount","inputs":[],"outputs":[{"name":"","type":"uint256","internalType":"uint256"}],"stateMutability":"view"},{"type":"function","name":"getFreeBalance","inputs":[],"outputs":[{"name":"","type":"uint256","internalType":"uint256"}],"stateMutability":"view"},{"type":"function","name":"getMaxPaidEpoch","inputs":[],"outputs":[{"name":"","type":"uint256","internalType":"uint256"}],"stateMutability":"view"},{"type":"function","name":"getProtocolVersion","inputs":[],"outputs":[{"name":"","type":"uint256","internalType":"uint256"}],"stateMutability":"view"},{"type":"function","name":"getRewardAmount","inputs":[{"name":"onchainWorkerId","type":"bytes32","internalType":"bytes32"}],"outputs":[{"name":"","type":"tuple","internalType":"struct IDealV2.DealRewards","components":[{"name":"providerReward","type":"uint256","internalType":"uint256"},{"name":"stakerReward","type":"uint256","internalType":"uint256"}]}],"stateMutability":"view"},{"type":"function","name":"getStatus","inputs":[],"outputs":[{"name":"","type":"uint8","internalType":"enum IDealV2.Status"}],"stateMutability":"view"},{"type":"function","name":"getWorker","inputs":[{"name":"onchainWorkerId","type":"bytes32","internalType":"bytes32"}],"outputs":[{"name":"","type":"tuple","internalType":"struct IWorkerManagerV2.Worker","components":[{"name":"offchainId","type":"bytes32","internalType":"bytes32"},{"name":"onchainId","type":"bytes32","internalType":"bytes32"},{"name":"peerId","type":"bytes32","internalType":"bytes32"},{"name":"provider","type":"address","internalType":"address"},{"name":"joinedEpoch","type":"uint256","internalType":"uint256"}]}],"stateMutability":"view"},{"type":"function","name":"getWorkerCount","inputs":[],"outputs":[{"name":"","type":"uint256","internalType":"uint256"}],"stateMutability":"view"},{"type":"function","name":"getWorkerCount","inputs":[{"name":"provider","type":"address","internalType":"address"}],"outputs":[{"name":"","type":"uint256","internalType":"uint256"}],"stateMutability":"view"},{"type":"function","name":"getWorkerIds","inputs":[],"outputs":[{"name":"","type":"bytes32[]","internalType":"bytes32[]"}],"stateMutability":"view"},{"type":"function","name":"initialize","inputs":[{"name":"diamond_","type":"address","internalType":"contract IDiamond"},{"name":"appCID_","type":"tuple","internalType":"struct CIDV1","components":[{"name":"prefixes","type":"bytes4","internalType":"bytes4"},{"name":"hash","type":"bytes32","internalType":"bytes32"}]},{"name":"paymentToken_","type":"address","internalType":"contract IERC20"},{"name":"targetWorkers_","type":"uint256","internalType":"uint256"},{"name":"resources_","type":"tuple[]","internalType":"struct IOfferV2.ResourceData[]","components":[{"name":"resourceId","type":"bytes32","internalType":"bytes32"},{"name":"ty","type":"uint8","internalType":"enum IOfferV2.ResourceType"},{"name":"quantity","type":"uint256","internalType":"uint256"}]},{"name":"pricePerEpoch_","type":"uint256","internalType":"uint256"},{"name":"maxWorkersPerProvider_","type":"uint256","internalType":"uint256"},{"name":"providersAccessType_","type":"uint8","internalType":"enum IConfigV2.AccessTypeV2"},{"name":"providersAccessList_","type":"address[]","internalType":"address[]"},{"name":"protocolVersion_","type":"uint256","internalType":"uint256"},{"name":"owner_","type":"address","internalType":"address"}],"outputs":[],"stateMutability":"nonpayable"},{"type":"function","name":"isProviderAllowed","inputs":[{"name":"account","type":"address","internalType":"address"}],"outputs":[{"name":"","type":"bool","internalType":"bool"}],"stateMutability":"view"},{"type":"function","name":"maxWorkersPerProvider","inputs":[],"outputs":[{"name":"","type":"uint256","internalType":"uint256"}],"stateMutability":"view"},{"type":"function","name":"migrateToBalanceKeeper","inputs":[],"outputs":[],"stateMutability":"nonpayable"},{"type":"function","name":"multicall","inputs":[{"name":"data","type":"bytes[]","internalType":"bytes[]"}],"outputs":[{"name":"results","type":"bytes[]","internalType":"bytes[]"}],"stateMutability":"nonpayable"},{"type":"function","name":"owner","inputs":[],"outputs":[{"name":"","type":"address","internalType":"address"}],"stateMutability":"view"},{"type":"function","name":"paymentToken","inputs":[],"outputs":[{"name":"","type":"address","internalType":"contract IERC20"}],"stateMutability":"view"},{"type":"function","name":"pricePerEpoch","inputs":[],"outputs":[{"name":"","type":"uint256","internalType":"uint256"}],"stateMutability":"view"},{"type":"function","name":"providersAccessType","inputs":[],"outputs":[{"name":"","type":"uint8","internalType":"enum IConfigV2.AccessTypeV2"}],"stateMutability":"view"},{"type":"function","name":"removeProviderFromAccessList","inputs":[{"name":"provider","type":"address","internalType":"address"}],"outputs":[],"stateMutability":"nonpayable"},{"type":"function","name":"removeStaleWorkers","inputs":[{"name":"onchainWorkerIds","type":"bytes32[]","internalType":"bytes32[]"}],"outputs":[],"stateMutability":"nonpayable"},{"type":"function","name":"removeWorker","inputs":[{"name":"onchainWorkerId","type":"bytes32","internalType":"bytes32"}],"outputs":[],"stateMutability":"nonpayable"},{"type":"function","name":"renounceOwnership","inputs":[],"outputs":[],"stateMutability":"nonpayable"},{"type":"function","name":"requiredResources","inputs":[],"outputs":[{"name":"","type":"tuple[]","internalType":"struct IOfferV2.ResourceData[]","components":[{"name":"resourceId","type":"bytes32","internalType":"bytes32"},{"name":"ty","type":"uint8","internalType":"enum IOfferV2.ResourceType"},{"name":"quantity","type":"uint256","internalType":"uint256"}]}],"stateMutability":"view"},{"type":"function","name":"setAppCID","inputs":[{"name":"appCID_","type":"tuple","internalType":"struct CIDV1","components":[{"name":"prefixes","type":"bytes4","internalType":"bytes4"},{"name":"hash","type":"bytes32","internalType":"bytes32"}]}],"outputs":[],"stateMutability":"nonpayable"},{"type":"function","name":"stop","inputs":[],"outputs":[],"stateMutability":"nonpayable"},{"type":"function","name":"targetWorkers","inputs":[],"outputs":[{"name":"","type":"uint256","internalType":"uint256"}],"stateMutability":"view"},{"type":"function","name":"transferOwnership","inputs":[{"name":"newOwner","type":"address","internalType":"address"}],"outputs":[],"stateMutability":"nonpayable"},{"type":"function","name":"withdraw","inputs":[{"name":"amount","type":"uint256","internalType":"uint256"}],"outputs":[],"stateMutability":"nonpayable"},{"type":"function","name":"withdrawRewards","inputs":[{"name":"onchainWorkerId","type":"bytes32","internalType":"bytes32"}],"outputs":[],"stateMutability":"nonpayable"},{"type":"event","name":"AppCIDChanged","inputs":[{"name":"newAppCID","type":"tuple","indexed":false,"internalType":"struct CIDV1","components":[{"name":"prefixes","type":"bytes4","internalType":"bytes4"},{"name":"hash","type":"bytes32","internalType":"bytes32"}]}],"anonymous":false},{"type":"event","name":"DealEnded","inputs":[{"name":"endedEpoch","type":"uint256","indexed":false,"internalType":"uint256"}],"anonymous":false},{"type":"event","name":"Deposited","inputs":[{"name":"amount","type":"uint256","indexed":false,"internalType":"uint256"}],"anonymous":false},{"type":"event","name":"Initialized","inputs":[{"name":"version","type":"uint64","indexed":false,"internalType":"uint64"}],"anonymous":false},{"type":"event","name":"MaxPaidEpochUpdated","inputs":[{"name":"maxPaidEpoch","type":"uint256","indexed":false,"internalType":"uint256"}],"anonymous":false},{"type":"event","name":"OwnershipTransferred","inputs":[{"name":"previousOwner","type":"address","indexed":true,"internalType":"address"},{"name":"newOwner","type":"address","indexed":true,"internalType":"address"}],"anonymous":false},{"type":"event","name":"ProviderAddedToAccessList","inputs":[{"name":"provider","type":"address","indexed":false,"internalType":"address"}],"anonymous":false},{"type":"event","name":"ProviderRemovedFromAccessList","inputs":[{"name":"provider","type":"address","indexed":false,"internalType":"address"}],"anonymous":false},{"type":"event","name":"ProvidersAccessTypeChanged","inputs":[{"name":"newAccessType","type":"uint8","indexed":false,"internalType":"enum IConfigV2.AccessTypeV2"}],"anonymous":false},{"type":"event","name":"RewardWithdrawn","inputs":[{"name":"onchainWorkerId","type":"bytes32","indexed":false,"internalType":"bytes32"},{"name":"providerReward","type":"uint256","indexed":false,"internalType":"uint256"},{"name":"stakerReward","type":"uint256","indexed":false,"internalType":"uint256"}],"anonymous":false},{"type":"event","name":"Withdrawn","inputs":[{"name":"amount","type":"uint256","indexed":false,"internalType":"uint256"}],"anonymous":false},{"type":"event","name":"WorkerIdUpdated","inputs":[{"name":"onchainWorkerId","type":"bytes32","indexed":false,"internalType":"bytes32"},{"name":"offchainWorkerId","type":"bytes32","indexed":false,"internalType":"bytes32"}],"anonymous":false},{"type":"event","name":"WorkerJoined","inputs":[{"name":"peerId","type":"bytes32","indexed":true,"internalType":"bytes32"},{"name":"onchainId","type":"bytes32","indexed":false,"internalType":"bytes32"}],"anonymous":false},{"type":"event","name":"WorkerRemoved","inputs":[{"name":"peerId","type":"bytes32","indexed":true,"internalType":"bytes32"},{"name":"onchainId","type":"bytes32","indexed":false,"internalType":"bytes32"}],"anonymous":false},{"type":"error","name":"AddressEmptyCode","inputs":[{"name":"target","type":"address","internalType":"address"}]},{"type":"error","name":"FailedCall","inputs":[]},{"type":"error","name":"InvalidInitialization","inputs":[]},{"type":"error","name":"NotInitializing","inputs":[]},{"type":"error","name":"OwnableInvalidOwner","inputs":[{"name":"owner","type":"address","internalType":"address"}]},{"type":"error","name":"OwnableUnauthorizedAccount","inputs":[{"name":"account","type":"address","internalType":"address"}]},{"type":"error","name":"ReentrancyGuardReentrantCall","inputs":[]},{"type":"error","name":"SafeERC20FailedOperation","inputs":[{"name":"token","type":"address","internalType":"address"}]}],"bytecode":{"object":"0x6080806040523460d0577ff0c57e16840df040f15088dc2f81fe391c3923bec73e23a9662efc9c229c6a005460ff8160401c1660c1576002600160401b03196001600160401b03821601605c575b6040516147c790816100d58239f35b6001600160401b0319166001600160401b039081177ff0c57e16840df040f15088dc2f81fe391c3923bec73e23a9662efc9c229c6a005581527fc7f505b2f371ae2175ee4913f4499e1f2633a7b5936321eed1cdaeb6115181d290602090a15f80604d565b63f92ee8a960e01b5f5260045ffd5b5f80fdfe60806040526004361015610011575f80fd5b5f803560e01c80630574131f146127e357806307da68f51461260657806317634514146125db578063176474cf146124475780631af57b961461241657806322ebd58a1461237c5780632943dcab146123515780632e1a7d4d14611e375780633013ce2914611e0157806333ce93fe14611dd6578063378b22e414611dab5780633e8ae1ae14611d7d578063444e6a5a14611c555780634d7599f114611c2a5780634e4d7af814611acc5780634e69d56014611a9e57806359c4afc014611a585780635fc8f59c14611a2d578063630eceea14611947578063636fcefb146117b4578063715018a61461175e57806373134c15146115bb5780637dfb6626146114b75780638460845414610e9e5780638a0c725b14610e735780638da5cb5b14610e3d5780639bc6686814610dd3578063aba93a1014610d7c578063ac9650d814610b60578063ade0a20214610b35578063bc126f1f146109c7578063bd1926e01461098a578063cb7b88d114610715578063cef74c8b1461030b578063d4773ff0146102d4578063e93c4f15146102ad578063f2574c1b146101eb5763f2fde38b146101bc575f80fd5b346101e85760203660031901126101e8576101e56101d8612988565b6101e0613a46565b61321c565b80f35b80fd5b50346101e857806003193601126101e8576040515f805160206143928339815191528054808352908352602082019081907f17a21d30941a091c50cf295988f7232f281c42e3df40adbad57a37502bda8e9790855b8181106102975750505082610256910383612a34565b604051928392602084019060208552518091526040840192915b81811061027e575050500390f35b8251845285945060209384019390920191600101610270565b8254845260209093019260019283019201610240565b50346101e857806003193601126101e857602060606102ca613421565b0151604051908152f35b50346101e857806003193601126101e8575061030760ff5f805160206144d2833981519152541660405191829182612a57565b0390f35b50346101e85760603660031901126101e857610325612988565b602036602319011261071157604051602081016001600160401b038111828210176106fd576040526024358152604435915f8051602061443283398151915261037860018060a01b038254163314612a6a565b61038061327a565b610388613014565b60058110156106e957600261039e911415612ac0565b5f805160206144f28339815191528054905f805160206144b2833981519152548210156106ab578587525f805160206145f283398151915260205260ff604088205416610670578587525f805160206145f283398151915260205260408720600160ff1982541617905560018060a01b0384165f525f8051602061437283398151915260205260405f20545f805160206145328339815191525481101561062c5760018101809111610618576001600160a01b0385165f9081525f80516020614372833981519152602052604090205560018201918210610604575554604051630ecce30160e31b815290602090829060049082906001600160a01b03165afa80156105f95785906105c2575b60049150835192604051936104bf856129fd565b878552602080860191825260408087018981526001600160a01b03948516606089019081526080890196875289518c525f80516020614652833981519152909352908a20965187559151600187015590516002860155516003850180546001600160a01b0319169190921617905551910155805161054a905f80516020614392833981519152614222565b1561057e5760207f9cd57cfa2e12a37215cabc6897396db265419bd7f06adad06227a2b163ecd6a39151604051908152a280f35b60405162461bcd60e51b815260206004820152601c60248201527b11985a5b1959081d1bc8185919081ddbdc9ad95c881d1bc81b1a5cdd60221b6044820152606490fd5b506020813d6020116105f1575b816105dc60209383612a34565b810103126105ed57600490516104ab565b5f80fd5b3d91506105cf565b6040513d87823e3d90fd5b634e487b7160e01b87526011600452602487fd5b634e487b7160e01b88526011600452602488fd5b606460405162461bcd60e51b815260206004820152602060248201527f4d617820776f726b657273207065722070726f766964657220726561636865646044820152fd5b60405162461bcd60e51b81526020600482015260136024820152721419595c925908185b1c9958591e481d5cd959606a1b6044820152606490fd5b60405162461bcd60e51b815260206004820152601660248201527515185c99d95d081ddbdc9ad95c9cc81c995858da195960521b6044820152606490fd5b634e487b7160e01b86526021600452602486fd5b634e487b7160e01b84526041600452602484fd5b5080fd5b50346101e85760203660031901126101e8576004356001600160401b0381116107115761074690369060040161299e565b5f80516020614432833981519152546040516307dc0d1d60e41b815290602090829060049082906001600160a01b03165afa90811561097f578491610941575b506001600160a01b031633036108fd5761079e61327a565b6107a6613421565b6107ae613014565b6005811015806106e9576002821480156108f3575b8181156108e3575b50156108a35761088f578015908115610884575b50610810575b50825b8181106107f3578380f35b8061080a610804600193858761320c565b35613dcb565b016107e8565b60a001511561081f575f6107e5565b60405162461bcd60e51b815260206004820152603760248201527f4174206c65617374203120756e706169642065706f636820726571756972656460448201527620746f20636f6e7369646572206465616c207374616c6560481b6064820152608490fd5b60039150145f6107df565b634e487b7160e01b85526021600452602485fd5b60405162461bcd60e51b815260206004820152601860248201527715dbdc9ad95c9cc81a5b881919585b08185c99481c185a5960421b6044820152606490fd5b90506106e95760038214816107cb565b50508481156107c3565b606460405162461bcd60e51b815260206004820152602060248201527f4f6e6c79206f7261636c652063616e2063616c6c2074686973206d6574686f646044820152fd5b90506020813d602011610977575b8161095c60209383612a34565b810103126109735761096d90612b5e565b5f610786565b8380fd5b3d915061094f565b6040513d86823e3d90fd5b50346101e85760203660031901126101e85760ff6040826020935060043581525f805160206145f283398151915284522054166040519015158152f35b50346101e85760203660031901126101e8576004356109e581613158565b5f8051602061443283398151915260018060a01b0390541690608060408201516024604051809581936321b9a09560e21b835260048301525afa91821561097f578492610b04575b50606001516001600160a01b03163314908115610aed575b508015610acd575b15610a63576101e590610a5e61327a565b613dcb565b60405162461bcd60e51b815260206004820152603c60248201527f4f6e6c792070726f76696465722c2070656572206f776e6572206f722064656160448201527b1b081bdddb995c8818d85b8818d85b1b081d1a1a5cc81b595d1a1bd960221b6064820152608490fd5b505f80516020614612833981519152546001600160a01b03163314610a4d565b606001516001600160a01b0316331490505f610a45565b610b2791925060803d608011610b2e575b610b1f8183612a34565b810190612c90565b905f610a2d565b503d610b15565b50346101e857806003193601126101e8575060205f8051602061471283398151915254604051908152f35b50346101e85760203660031901126101e8576004356001600160401b03811161071157610b9190369060040161299e565b906020604051610ba18282612a34565b848152818101601f198301368237610bb885612ffd565b93610bc66040519586612a34565b858552601f19610bd587612ffd565b01875b818110610d6d57505036819003601e190190875b87811015610cf557888160051b830135848112156107115783018035906001600160401b038211610cf15788018136038113610cf15786610c5784938b6040519382859383850197883783018281018881528e519283915e010185815203601f198101835282612a34565b5190305af4893d15610cde57503d906001600160401b038211610cca5791610ca86001928c98979695948a601f19601f8401160191610c996040519384612a34565b82523d8a8c84013e5b306141a3565b610cb2828b6131e4565b52610cbd818a6131e4565b5001909192939450610bec565b634e487b7160e01b8b52604160045260248bfd5b9594939291610ca8600192606090610ca2565b8280fd5b88868860405191808301818452825180915260408401918060408360051b870101940192865b838810610d285786860387f35b9091929394838080600193603f198b8203018752818a518051918291828552018484015e86838284010152601f80199101160101970193019701969093929193610d1b565b60608782018701528501610bd8565b50346101e85760203660031901126101e85760a0610d9b600435613158565b608060405191805183526020810151602084015260408101516040840152600180851b03606082015116606084015201516080820152f35b50346101e857806003193601126101e857610dec612c19565b505060408051610dfb816129ce565b63ffffffff60e01b5f805160206144528339815191525460e01b169081815260205f805160206146f28339815191525491019081528251918252516020820152f35b50346101e857806003193601126101e857505f80516020614612833981519152546040516001600160a01b039091168152602090f35b50346101e857806003193601126101e8575060205f8051602061453283398151915254604051908152f35b50346101e8576101803660031901126101e8576004356001600160a01b038116810361071157604036602319011261071157606435906001600160a01b0382168203610cf15760a4356001600160401b0381116109735736602382011215610973576004810135906001600160401b0382116114b35736602460608402830101116114b3576101043560038110156114af57610124356001600160401b0381116114ab57610f5090369060040161299e565b610164359690949193906001600160a01b03881688036114a7575f805160206146d283398151915254604081901c60ff161598906001600160401b0381168015908161149f575b6001149081611495575b15908161148c575b5061147d576001600160401b031981166001175f805160206146d283398151915255610ff791908a611455575b50610fdf614178565b610fe7614178565b610fef614178565b6101e0614178565b610fff614178565b435f80516020614592833981519152555f8051602061443283398151915280546001600160a01b039889166001600160a01b03199182161782555f805160206145728339815191528054939099169216919091179096556084355f805160206144b283398151915255600160401b8211611441575f8051602061447283398151915254825f80516020614472833981519152558083106113b4575b505f80516020614472833981519152885292939287905f80516020614752833981519152906024015b83831061136957505050506111099060c4355f805160206143d28339815191525560e4355f80516020614532833981519152555f805160206144d2833981519152613101565b5f8051602061449283398151915290855b8181106113245750506024359150506001600160e01b0319811681036109735760e01c63ffffffff195f805160206144528339815191525416175f80516020614452833981519152556044355f805160206146f2833981519152558260018060a01b03825416803b1561071157816040518092634492bd6b60e01b82528183816111a86024600483016137be565b03925af1801561131957611304575b505060206004915f80516020614512833981519152604051806111db6024826137be565b0390a16111e6614178565b610144355f805160206143f283398151915255611201614178565b54604051630ecce30160e31b815292839182906001600160a01b03165afa9081156112f95783916112c7575b505f1981019081116112b3575f805160206143b28339815191525560015f805160206145b2833981519152556112605780f35b60ff60401b195f805160206146d283398151915254165f805160206146d2833981519152557fc7f505b2f371ae2175ee4913f4499e1f2633a7b5936321eed1cdaeb6115181d2602060405160018152a180f35b634e487b7160e01b83526011600452602483fd5b90506020813d6020116112f1575b816112e260209383612a34565b810103126105ed57515f61122d565b3d91506112d5565b6040513d85823e3d90fd5b8161130e91612a34565b610cf157825f6111b7565b6040513d84823e3d90fd5b61132f81838661320c565b35906001600160a01b038216820361136557600191828060a01b03165f528360205260405f208260ff198254161790550161111a565b8780fd5b8096959635825560018201908a6020820135916006831015610711576001936003936060935060ff8019835416911617905560408101356002860155019201920191909594956110c3565b8060030290600382040361142d5782600302600381048403611419575f805160206144728339815191528a525f8051602061475283398151915291820191015b818110611401575061109a565b6003908a81558a60018201558a6002820155016113f4565b634e487b7160e01b8a52601160045260248afd5b634e487b7160e01b89526011600452602489fd5b634e487b7160e01b88526041600452602488fd5b6001600160481b0319166001600160401b01175f805160206146d2833981519152555f610fd6565b63f92ee8a960e01b8b5260048bfd5b9050155f610fa9565b303b159150610fa1565b8b9150610f97565b8880fd5b8680fd5b8580fd5b8480fd5b50346101e85760203660031901126101e8576004356114d581613158565b905f8051602061443283398151915260018060a01b03905416608060408401516024604051809481936321b9a09560e21b835260048301525afa801561097f576101e59361154292869261159a575b50606001516001600160a01b03163314908115611583575b50612ce5565b61154a61327a565b61157761155682613158565b61155e613421565b928184925190606060018060a01b039101511691613a79565b61014081015190613659565b606001516001600160a01b0316331490505f61153c565b6115b491925060803d608011610b2e57610b1f8183612a34565b905f611524565b50346101e85760203660031901126101e8576115d5612988565b5f80516020614432833981519152546040516302984ebd60e31b815290602090829060049082906001600160a01b03165afa9081156112f9578391611724575b506001600160a01b031633148015611704575b61163190612b72565b60ff5f805160206144d2833981519152541660038110156116f057156116ad576001600160a01b03165f8181525f805160206144928339815191526020908152604091829020805460ff1916600117905590519182527f4c26e4de691e265be6cf03e639754839907bf74687cd524a6734851331527ffd91a180f35b60405162461bcd60e51b815260206004820152601b60248201527a436f6e6669673a206163636573732074797065206973204e4f4e4560281b6044820152606490fd5b634e487b7160e01b83526021600452602483fd5b505f80516020614612833981519152546001600160a01b03163314611628565b90506020813d602011611756575b8161173f60209383612a34565b81010312610cf15761175090612b5e565b5f611615565b3d9150611732565b50346101e857806003193601126101e857611777613a46565b5f8051602061461283398151915280546001600160a01b0319811690915581906001600160a01b03165f805160206145528339815191528280a380f35b50346101e85760203660031901126101e8576004356003811015610711575f80516020614432833981519152546040516302984ebd60e31b815290602090829060049082906001600160a01b03165afa9081156112f957839161190d575b506001600160a01b0316331480156118ed575b61182e90612b72565b60ff5f805160206144d2833981519152541660038110156116f057811461189d576118978161188b7f1f5a251428f76335a835fcae94ab6a9bcf09ac33bd3c782eb6a81bdf878a7393935f805160206144d2833981519152613101565b60405191829182612a57565b0390a180f35b60405162461bcd60e51b815260206004820152602260248201527f436f6e6669673a20616363657373207479706520697320616c72656164792073604482015261195d60f21b6064820152608490fd5b505f80516020614612833981519152546001600160a01b03163314611825565b90506020813d60201161193f575b8161192860209383612a34565b81010312610cf15761193990612b5e565b5f611812565b3d915061191b565b50346101e857806003193601126101e8575f8051602061443283398151915254604051638da5cb5b60e01b815290602090829060049082906001600160a01b03165afa9081156113195782916119f3575b506001600160a01b031633036119b0576101e561327a565b60405162461bcd60e51b815260206004820152601b60248201527a13db9b1e48191a585b5bdb99081bdddb995c8818d85b8818d85b1b602a1b6044820152606490fd5b90506020813d602011611a25575b81611a0e60209383612a34565b8101031261071157611a1f90612b5e565b5f611998565b3d9150611a01565b50346101e857806003193601126101e8575060205f805160206143d283398151915254604051908152f35b50346101e85760203660031901126101e857611a72612988565b905060018060a01b03165f525f80516020614372833981519152602052602060405f2054604051908152f35b50346101e857806003193601126101e857611ab7613014565b6040519060058110156116f057602092508152f35b50346101e857806003193601126101e8575f8051602061447283398151915254611af581612ffd565b90611b036040519283612a34565b8082525f805160206144728339815191528352602082019083905f80516020614752833981519152835b828410611bac57505050506040519160208301906020845251809152604083019190845b818610611b5e5784840385f35b90919283518051825260208101516006811015611b9857826040602093606093856001970152015160408201520194019501949190611b51565b634e487b7160e01b84526021600452602484fd5b604051606081016001600160401b03811182821017611c16576040528254815260ff6001840154166006811015611c02576001928260209283600395015260028601546040820152815201920193019290611b2d565b634e487b7160e01b89526021600452602489fd5b634e487b7160e01b89526041600452602489fd5b50346101e857806003193601126101e8575060205f805160206144f283398151915254604051908152f35b50346101e85760203660031901126101e857611c6f612988565b5f80516020614432833981519152546040516302984ebd60e31b815290602090829060049082906001600160a01b03165afa9081156112f9578391611d30575b505f80516020614632833981519152916020916001600160a01b031633148015611d10575b611cdd90612b72565b6001600160a01b03165f8181525f805160206144928339815191528352604090819020805460ff1916905551908152a180f35b505f80516020614612833981519152546001600160a01b03163314611cd4565b90506020813d602011611d75575b81611d4b60209383612a34565b81010312610cf1575f8051602061463283398151915291611d6d602092612b5e565b915091611caf565b3d9150611d3e565b50346101e85760203660031901126101e8576020611da1611d9c612988565b612f6d565b6040519015158152f35b50346101e857806003193601126101e8575060205f8051602061477283398151915254604051908152f35b50346101e857806003193601126101e8575060205f805160206143f283398151915254604051908152f35b50346101e857806003193601126101e857505f80516020614572833981519152546040516001600160a01b039091168152602090f35b50346101e85760203660031901126101e8575f8051602061443283398151915280546040516302984ebd60e31b8152600480359392602091839182906001600160a01b03165afa90811561097f578491612317575b506001600160a01b0316331480156122f7575b611ea890612b72565b5f805160206146928339815191525c6122e85760015f805160206146928339815191525d611ed461327a565b5f80516020614672833981519152611eea613421565b82546040516372ea4f2360e01b815290602090829060049082906001600160a01b03165afa9081156122dd5786916122a9575b50611f3a611f4f915f805160206143d28339815191525490612f22565b5f805160206144b28339815191525490612f22565b60608201611f5e868251612f35565b8091526101008301511515806122a0575b1561222757505060c08101515f805160206147328339815191525484546040516372ea4f2360e01b81529190602090839060049082906001600160a01b03165afa90811561221c5788916121e6575b611fc89250612afc565b101561217d578492611ff260209284611fe48860049754612f35565b905561014081015190613659565b5460405163fd44f92160e01b815292839182906001600160a01b03165afa90811561131957829161214e575b505f80516020614572833981519152545f80516020614612833981519152546001600160a01b03928316929182169116823b156109735760405163cff2a7a160e01b81529184918391829161207a918991339160048601612f42565b038183865af19081156112f9578391612139575b50505f80516020614572833981519152546001600160a01b031690803b15610cf1578383916120d693836040518096819582946315abf79960e31b8452339060048501612b3c565b03925af1801561131957612124575b507f430648de173157e069201c943adb2d4e340e7cf5b27b1b09c9cb852f03d63b56602083604051908152a1805f805160206146928339815191525d80f35b8161212e91612a34565b61071157815f6120e5565b8161214391612a34565b61071157815f61208e565b612170915060203d602011612176575b6121688183612a34565b810190612b1d565b5f61201e565b503d61215e565b60405162461bcd60e51b815260206004820152603b60248201527f43616e2774207769746864726177206265666f7265206d696e4465616c44657060448201527a1bdcda5d1959115c1bd8da1cc818599d195c881919585b08195b99602a1b6064820152608490fd5b90506020823d602011612214575b8161220160209383612a34565b810103126105ed57611fc8915190611fbe565b3d91506121f4565b6040513d8a823e3d90fd5b909193925010612240576020600491611ff28694611577565b60405162461bcd60e51b815260206004820152603260248201527f467265652062616c616e6365206e6565647320746f20636f766572206d696e4460448201527165616c4465706f736974656445706f63687360701b6064820152608490fd5b50818110611f6f565b90506020813d6020116122d5575b816122c460209383612a34565b810103126105ed5751611f3a611f1d565b3d91506122b7565b6040513d88823e3d90fd5b633ee5aeb560e01b8352600483fd5b505f80516020614612833981519152546001600160a01b03163314611e9f565b90506020813d602011612349575b8161233260209383612a34565b810103126109735761234390612b5e565b5f611e8c565b3d9150612325565b50346101e857806003193601126101e8575060205f805160206144b283398151915254604051908152f35b50346101e85760403660031901126101e85760043561239a81613158565b905f8051602061443283398151915260018060a01b03905416608060408401516024604051809481936321b9a09560e21b835260048301525afa801561097f576101e59361240592869261159a5750606001516001600160a01b031633149081156115835750612ce5565b61240d61327a565b60243590612da0565b50346101e85760203660031901126101e8576040612435600435612c31565b60208251918051835201516020820152f35b50346101e85760403660031901126101e8575f8051602061443283398151915280546040516302984ebd60e31b8152839291602090829060049082906001600160a01b03165afa9081156112f95783916125a1575b506001600160a01b031633148015612581575b6124b890612b72565b6004356001600160e01b03198116810361257d5760e01c63ffffffff195f805160206144528339815191525416175f80516020614452833981519152556024355f805160206146f28339815191525560018060a01b03905416803b1561257a57816040518092634492bd6b60e01b825281838161253860048083016137be565b03925af1801561131957612565575b505f80516020614512833981519152604051806118976004826137be565b8161256f91612a34565b6101e857805f612547565b50fd5b5050fd5b505f80516020614612833981519152546001600160a01b031633146124af565b90506020813d6020116125d3575b816125bc60209383612a34565b8101031261257d576125cd90612b5e565b5f61249c565b3d91506125af565b50346101e857806003193601126101e8575060205f8051602061459283398151915254604051908152f35b50346101e857806003193601126101e8575f8051602061443283398151915280546040516302984ebd60e31b815290602090829060049082906001600160a01b03165afa9081156112f95783916127a9575b506001600160a01b031633148015612789575b61267490612b72565b61267c61327a565b612684613014565b60058110156116f05760049161269f60026020931415612bd8565b6126aa611577613421565b54604051630ecce30160e31b815292839182906001600160a01b03165afa908115611319578291612756575b506020817f3ad16bb58712aa329948d76146b096a4f4b85e024d99473dc50bcd358811b86c925f80516020614772833981519152541161272b575b805f8051602061473283398151915255604051908152a180f35b805f80516020614772833981519152555f8051602061441283398151915282604051838152a1612711565b90506020813d602011612781575b8161277160209383612a34565b810103126105ed575160206126d6565b3d9150612764565b505f80516020614612833981519152546001600160a01b0316331461266b565b90506020813d6020116127db575b816127c460209383612a34565b81010312610cf1576127d590612b5e565b5f612658565b3d91506127b7565b50346105ed5760203660031901126105ed576004355f8051602061443283398151915261281a60018060a01b038254163314612a6a565b61282261327a565b61282a613014565b60058110156129745760049161284560026020931415612ac0565b61286d612850613421565b6060810161285f878251612afc565b905261014081015190613659565b5460405163fd44f92160e01b815292839182906001600160a01b03165afa90811561294a575f91612955575b505f80516020614572833981519152545f80516020614612833981519152546001600160a01b03928316929081169116823b156105ed576128f6925f928386936040519687958694859363a2e939b160e01b855260048501612b3c565b03925af1801561294a57612934575b5060207f2a89b2e3d580398d6dc2db5e0f336b52602bbaa51afa9bb5cdf59239cf0d2bea91604051908152a180f35b6129419192505f90612a34565b5f906020612905565b6040513d5f823e3d90fd5b61296e915060203d602011612176576121688183612a34565b5f612899565b634e487b7160e01b5f52602160045260245ffd5b600435906001600160a01b03821682036105ed57565b9181601f840112156105ed578235916001600160401b0383116105ed576020808501948460051b0101116105ed57565b604081019081106001600160401b038211176129e957604052565b634e487b7160e01b5f52604160045260245ffd5b60a081019081106001600160401b038211176129e957604052565b61016081019081106001600160401b038211176129e957604052565b601f909101601f19168101906001600160401b038211908210176129e957604052565b9190602083019260038210156129745752565b15612a7157565b60405162461bcd60e51b815260206004820152602160248201527f436f6e6669673a2063616c6c6572206973206e6f7420746865204469616d6f6e6044820152601960fa1b6064820152608490fd5b15612ac757565b60405162461bcd60e51b815260206004820152600d60248201526c1119585b081a5cc8195b991959609a1b6044820152606490fd5b91908201809211612b0957565b634e487b7160e01b5f52601160045260245ffd5b908160209103126105ed57516001600160a01b03811681036105ed5790565b6001600160a01b03918216815291166020820152604081019190915260600190565b51906001600160a01b03821682036105ed57565b15612b7957565b60405162461bcd60e51b815260206004820152603160248201527f4f6e6c7920566f646f706164206f72204465616c204f776e65722063616e206360448201527030b636103a3434b990333ab731ba34b7b760791b6064820152608490fd5b15612bdf57565b60405162461bcd60e51b81526020600482015260126024820152714465616c206973206e6f742061637469766560701b6044820152606490fd5b60405190612c26826129ce565b5f6020838281520152565b604051612c3d816129ce565b5f81525f602082015250612c4f613421565b90612c5981613158565b5115612c765781612c6d612c739383613881565b9161396c565b90565b5050604051612c84816129ce565b5f81525f602082015290565b908160809103126105ed5760405190608082016001600160401b038111838210176129e957612cdd9160609160405280518452602081015160208501526040810151604085015201612b5e565b606082015290565b15612cec57565b60405162461bcd60e51b815260206004820152603060248201527f4f6e6c792070726f7669646572206f722070656572206f776e65722063616e2060448201526f18d85b1b081d1a1a5cc81b595d1a1bd960821b6064820152608490fd5b15612d5157565b60405162461bcd60e51b815260206004820152602160248201527f4f6666636861696e20776f726b65722069642063616e277420626520656d70746044820152607960f81b6064820152608490fd5b81151590612dad82612d4a565b612db5613421565b61014081015192825f525f80516020614652833981519152602052612ddd60405f2091612d4a565b805415612ef4575b8481557fcf79e0e27c8c35d39bd9b727f35e6f79573597f660c88baf483fc1511c49203c60408051858152876020820152a160025f805160206147128339815191525491015493612e368284613659565b612e3e613014565b60058110156129745780612e586002612e5f931415612ac0565b1515612bd8565b14612eee57815f525f80516020614352833981519152602052600160a060405f209260e0810151845501519101555f8051602061443283398151915260018060a01b03905416803b156105ed575f9283606492604051968795869463852cdb0160e01b86526004860152602485015260448401525af1801561294a57612ee25750565b5f612eec91612a34565b565b50505050565b5f80516020614712833981519152545f198114612b09576001015f8051602061471283398151915255612de5565b81810292918115918404141715612b0957565b91908203918211612b0957565b6001600160a01b03918216815291811660208301529091166040820152606081019190915260800190565b60ff5f805160206144d283398151915254166003811015612974578015612ff65760018114612fcc57600214612fa257505f90565b6001600160a01b03165f9081525f80516020614492833981519152602052604090205460ff161590565b506001600160a01b03165f9081525f80516020614492833981519152602052604090205460ff1690565b5050600190565b6001600160401b0381116129e95760051b60200190565b61301c613421565b6101008101516130fb575f805160206147728339815191525480151590816130ed575b506130e857606001515f80516020614432833981519152546040516372ea4f2360e01b815290602090829060049082906001600160a01b03165afa90811561294a575f916130b4575b50611f3a6130a5915f805160206143d28339815191525490612f22565b116130af57600190565b600490565b90506020813d6020116130e0575b816130cf60209383612a34565b810103126105ed5751611f3a613088565b3d91506130c2565b505f90565b905060c0820151115f61303f565b50600290565b9060038110156129745760ff80198354169116179055565b1561312057565b60405162461bcd60e51b815260206004820152601060248201526f15dbdc9ad95c881b9bdd08199bdd5b9960821b6044820152606490fd5b5f6080604051613167816129fd565b82815282602082015282604082015282606082015201525f525f8051602061465283398151915260205260405f20612c73604051916131a5836129fd565b805483526001810154602084018190526002820154604085015260038201546001600160a01b0316606085015260049091015460808401521515613119565b80518210156131f85760209160051b010190565b634e487b7160e01b5f52603260045260245ffd5b91908110156131f85760051b0190565b6001600160a01b03168015613267575f8051602061461283398151915280546001600160a01b0319811683179091556001600160a01b03165f805160206145528339815191525f80a3565b631e4fbdf760e01b5f525f60045260245ffd5b5f805160206144328339815191525460405163fd44f92160e01b81525f8051602061467283398151915291602090829060049082906001600160a01b03165afa90811561294a575f916133b1575b505f805160206145b2833981519152546133ad5760015f805160206145b28339815191525560018060a01b035f8051602061457283398151915254169060018060a01b03169160205f82546040518381019163a9059cbb60e01b835287602483015260448201526044815261333e606482612a34565b519082865af11561294a575f513d6133a45750813b155b6133915754823b156105ed5760445f9283604051958694859363a0aeae9f60e01b8552600485015260248401525af1801561294a57612ee25750565b50635274afe760e01b5f5260045260245ffd5b60011415613355565b5050565b6133ca915060203d602011612176576121688183612a34565b5f6132c8565b604051906133dd82612a18565b5f610140838281528260208201528260408201528260608201528260808201528260a08201528260c08201528260e082015282610100820152826101208201520152565b60049061342c6133d0565b505f8051602061443283398151915254604051630ecce30160e31b8152925f8051602061467283398151915291602091859182906001600160a01b03165afa92831561294a575f93613625575b505f198301838111612b0957925f8051602061473283398151915254935f9480613619575b505f8051602061471283398151915254945f805160206143d283398151915254936134c76133d0565b5054925f805160206145d2833981519152545f805160206146b28339815191525490604051956134f687612a18565b8087528160208801528260408801526060870152608086015260a085015260c08401528160e08401521515610100830152826101208301528461014083015281945f805160206143b283398151915254928383111561361157505f805160206147728339815191525493848311156135dd5784841061359157505061358d91925061358760a0860193845192612f35565b90612afc565b9052565b906135a66135ab926135a661358d9688612f35565b612f22565b606086016135ba828251612f35565b90526135cb60808701918251612afc565b905261358760a0860193845192612f35565b90926135f194506135a6906135a693612f35565b60608301613600828251612f35565b905261358d60808401918251612afc565b955050505050565b6001955090505f61349e565b9092506020813d602011613651575b8161364160209383612a34565b810103126105ed5751915f613479565b3d9150613634565b905f805160206146728339815191528251606084019182518092036137b6575b5050602083015160808401518091036137a1575b50604083015160a084015180910361378c575b5060e083015192610100810151156136c7575b5050505f805160206143b283398151915255565b821590816137415750506136eb9051915f805160206143d283398151915254612f22565b801561372d5761370d6020915f80516020614412833981519152930484612afc565b805f8051602061477283398151915255604051908152a15b5f80806136b3565b634e487b7160e01b5f52601260045260245ffd5b610140015115159250905081613784575b5015613725575f5f80516020614772833981519152555f8051602061441283398151915260206040515f8152a1613725565b90505f613752565b5f805160206146b2833981519152555f6136a0565b5f805160206145d2833981519152555f61368d565b555f80613679565b60408101929180356001600160e01b03198116908190036105ed578252602090810135910152565b90816101609103126105ed57604051906137ff82612a18565b80519060068210156105ed576101409183526020810151602084015260408101516040840152606081015160608401526080810151608084015260a081015160a084015260c081015160c084015261385960e08201612b5e565b60e0840152610100810151610100840152610120810151610120840152015161014082015290565b9060e00151905f805160206144328339815191529060ff5f805160206144d28339815191525416600381101561297457600114613967576138c461016091614062565b9154604051631de5608360e21b81526004810193909352829060249082906001600160a01b03165afa90811561294a575f91613938575b5061012081015180613932575060a00180515f198101908111612b09578211613922575090565b515f19810191508111612b095790565b91505090565b61395a91506101603d8111613960575b6139528183612a34565b8101906137e6565b5f6138fb565b503d613948565b505090565b91604051613979816129ce565b5f81525f602082015250825f525f805160206143528339815191526020526139a460405f20936140de565b92805491828110613a355760a06139c06139cc94600193612f35565b94015191015490612f35565b808210613a2657613a066139ff6139ea6298968093613a0e95612f35565b5f805160206143d28339815191525490612f22565b9384612f22565b048092612f35565b9060405191613a1c836129ce565b8252602082015290565b505050604051612c84816129ce565b5050505050604051612c84816129ce565b5f80516020614612833981519152546001600160a01b03163303613a6657565b63118cdaa760e01b5f523360045260245ffd5b9291905f9015612eee57613a8d8385613881565b91613a9983858761396c565b92835194613aad6020860196875190612afc565b918215613dc157613ae991608091895f525f8051602061435283398151915260205260405f20908155600160a083015191015501918251612f35565b90525f80516020614432833981519152805460405163fd44f92160e01b81529190602090839060049082906001600160a01b03165afa91821561294a575f92613da0575b5060018060a01b035f805160206145728339815191525416928551613cd6575b508551613b96575b50505050916060917fc512f9d0bb2627096491f1074af42a5032fe36ef5dcae7c216cfc34f6ea474d6935190519060405192835260208301526040820152a1565b54604051638da5cb5b60e01b81529190602090839060049082906001600160a01b03165afa91821561097f578492613c9a575b505f805160206146128339815191525486516001600160a01b039283169392909116833b156114af57828691613c14604051948593849363cff2a7a160e01b85528a60048601612f42565b038183875af180156105f957908591613c85575b5050855192823b156114b35791613c5a9391858094604051968795869485936315abf79960e31b855260048501612b3c565b03925af1801561131957613c70575b8080613b55565b613c7b828092612a34565b6101e85780613c69565b81613c8f91612a34565b61097357835f613c28565b9091506020813d602011613cce575b81613cb660209383612a34565b8101031261097357613cc790612b5e565b905f613bc9565b3d9150613ca9565b5f805160206146128339815191525486516001600160a01b038581169216823b156105ed57835f91613d1d604051948593849363cff2a7a160e01b85528c60048601612f42565b038183865af1801561294a57613d8b575b50865191813b156114ab57918691613d5e93836040518096819582946315abf79960e31b84528c60048501612b3c565b03925af180156105f957908591613d76575b50613b4d565b81613d8091612a34565b61097357835f613d70565b613d989196505f90612a34565b5f945f613d2e565b613dba91925060203d602011612176576121688183612a34565b905f613b2d565b5050505050505050565b613dd481613158565b90613ddd613421565b613df98184515f95606060018060a01b03910151169085613a79565b5f805160206144f2833981519152825f525f8051602061465283398151915260205260405f2060405190613e2c826129fd565b8054825260018101546020830181905260028201546040840190815260038301546001600160a01b03166060850190815260049093015460808501529390613e75901515613119565b613e7f8154614201565b9055516001600160a01b03165f9081525f80516020614372833981519152602052604090208054613eaf90614201565b905551614037575b5190815f525f805160206145f283398151915260205260405f2060ff198154169055825f525f805160206146528339815191526020525f6004604082208281558260018201558260028201558260038201550155613f22835f8051602061439283398151915261428c565b15613fe857613f6a917f2931f8975c0ce3cdf8ebe0cac36f06048736d46d6df66ac21cfe717b9ee710066020604051868152a25f805160206147128339815191525490613659565b5f80516020614432833981519152546001600160a01b0316803b156105ed575f809160246040518094819363ee22bfb760e01b83528760048401525af1801561294a57613fd3575b5081525f805160206143528339815191526020526001604082208281550155565b613fe09192505f90612a34565b5f905f613fb2565b60405162461bcd60e51b815260206004820152602160248201527f4661696c656420746f2072656d6f766520776f726b65722066726f6d206c69736044820152601d60fa1b6064820152608490fd5b61404e5f8051602061471283398151915254614201565b5f8051602061471283398151915255613eb7565b61406b90613158565b5f805160206144328339815191525460409182015191516321b9a09560e21b81526004810192909252608090829060249082906001600160a01b03165afa801561294a576020915f916140bf575b50015190565b6140d8915060803d608011610b2e57610b1f8183612a34565b5f6140b9565b5f805160206144328339815191529060ff5f805160206144d283398151915254166003811015612974576001146141725761411b61016091614062565b9154604051631de5608360e21b81526004810193909352829060249082906001600160a01b03165afa801561294a5760c0915f916141595750015190565b6140d891506101603d8111613960576139528183612a34565b50505f90565b60ff5f805160206146d28339815191525460401c161561419457565b631afcd79f60e31b5f5260045ffd5b906141c757508051156141b857805190602001fd5b63d6bda27560e01b5f5260045ffd5b815115806141f8575b6141d8575090565b639996b31560e01b5f9081526001600160a01b0391909116600452602490fd5b50803b156141d0565b8015612b09575f190190565b80548210156131f8575f5260205f2001905f90565b6001810190825f528160205260405f2054155f14614285578054600160401b8110156129e95761427261425c82600187940185558461420d565b819391549060031b91821b915f19901b19161790565b905554915f5260205260405f2055600190565b5050505f90565b906001820191815f528260205260405f20548015155f14614349575f198101818111612b095782545f19810191908211612b0957818103614314575b50505080548015614300575f1901906142e1828261420d565b8154905f199060031b1b19169055555f526020525f6040812055600190565b634e487b7160e01b5f52603160045260245ffd5b61433461432461425c938661420d565b90549060031b1c9283928661420d565b90555f528360205260405f20555f80806142c8565b505050505f9056fe75428af146c22440e807f0e095d3de8e8b2c98df829dea65bcfe27a85a56da9d5def38ecf5a0fa5e33a9a271693efbf3a526ddb1f7ef0ec33f3c6d26e39ee7165def38ecf5a0fa5e33a9a271693efbf3a526ddb1f7ef0ec33f3c6d26e39ee71975428af146c22440e807f0e095d3de8e8b2c98df829dea65bcfe27a85a56da9c136dd5357dcf392c42e49859cef979aa9638cbada31d1f29a19bc18654c3ba6675428af146c22440e807f0e095d3de8e8b2c98df829dea65bcfe27a85a56da9fcecd349d986645e1758ec135f91f1ad20564a8bcc6c2b5a5eaca9b09841495c5136dd5357dcf392c42e49859cef979aa9638cbada31d1f29a19bc18654c3ba5c136dd5357dcf392c42e49859cef979aa9638cbada31d1f29a19bc18654c3ba5e136dd5357dcf392c42e49859cef979aa9638cbada31d1f29a19bc18654c3ba65136dd5357dcf392c42e49859cef979aa9638cbada31d1f29a19bc18654c3ba64136dd5357dcf392c42e49859cef979aa9638cbada31d1f29a19bc18654c3ba61136dd5357dcf392c42e49859cef979aa9638cbada31d1f29a19bc18654c3ba635def38ecf5a0fa5e33a9a271693efbf3a526ddb1f7ef0ec33f3c6d26e39ee714c820a66d3bdd50a45cf12cda6dc8ec9e94fb5123edd7da736eea18316f8523a0136dd5357dcf392c42e49859cef979aa9638cbada31d1f29a19bc18654c3ba628be0079c531659141344cd1fd0a4f28419497f9722a3daafe3b4186f6b6457e0136dd5357dcf392c42e49859cef979aa9638cbada31d1f29a19bc18654c3ba60136dd5357dcf392c42e49859cef979aa9638cbada31d1f29a19bc18654c3ba5d75428af146c22440e807f0e095d3de8e8b2c98df829dea65bcfe27a85a56daa075428af146c22440e807f0e095d3de8e8b2c98df829dea65bcfe27a85a56da995def38ecf5a0fa5e33a9a271693efbf3a526ddb1f7ef0ec33f3c6d26e39ee718b13d3e7783d509d8d65d3e1e62ec0b103a07e0cbfa1ee74ae19127f297dddfcc38fb081a0b484406977bd94ff8edb79be44b5ca514130361182516b39e2c45285def38ecf5a0fa5e33a9a271693efbf3a526ddb1f7ef0ec33f3c6d26e39ee71775428af146c22440e807f0e095d3de8e8b2c98df829dea65bcfe27a85a56da989b779b17422d0df92223018b32b4d1fa46e071723d6817e2486d003becc55f0075428af146c22440e807f0e095d3de8e8b2c98df829dea65bcfe27a85a56da9af0c57e16840df040f15088dc2f81fe391c3923bec73e23a9662efc9c229c6a00136dd5357dcf392c42e49859cef979aa9638cbada31d1f29a19bc18654c3ba5f5def38ecf5a0fa5e33a9a271693efbf3a526ddb1f7ef0ec33f3c6d26e39ee71575428af146c22440e807f0e095d3de8e8b2c98df829dea65bcfe27a85a56da9e548c65cbf2bdf872afec988c5b3fb8afde695bac13e6d3020de483ba011bf21775428af146c22440e807f0e095d3de8e8b2c98df829dea65bcfe27a85a56da9ba2646970667358221220252c06aad5675be98c6bd1c345ef4bcc3fc8815f61e6ebad765cb2d01bf3aaa864736f6c634300081a0033","linkReferences":{}},"methodIdentifiers":{"activateWorker(bytes32,bytes32)":"22ebd58a","addProviderToAccessList(address)":"73134c15","addWorker(address,(bytes32),bytes32)":"cef74c8b","appCID()":"9bc66868","changeProvidersAccessType(uint8)":"636fcefb","computePeerUsed(bytes32)":"bd1926e0","creationBlock()":"17634514","depositFromOwner(uint256)":"0574131f","getActivatedWorkerCount()":"ade0a202","getFreeBalance()":"e93c4f15","getMaxPaidEpoch()":"378b22e4","getProtocolVersion()":"33ce93fe","getRewardAmount(bytes32)":"1af57b96","getStatus()":"4e69d560","getWorker(bytes32)":"aba93a10","getWorkerCount()":"4d7599f1","getWorkerCount(address)":"59c4afc0","getWorkerIds()":"f2574c1b","initialize(address,(bytes4,bytes32),address,uint256,(bytes32,uint8,uint256)[],uint256,uint256,uint8,address[],uint256,address)":"84608454","isProviderAllowed(address)":"3e8ae1ae","maxWorkersPerProvider()":"8a0c725b","migrateToBalanceKeeper()":"630eceea","multicall(bytes[])":"ac9650d8","owner()":"8da5cb5b","paymentToken()":"3013ce29","pricePerEpoch()":"5fc8f59c","providersAccessType()":"d4773ff0","removeProviderFromAccessList(address)":"444e6a5a","removeStaleWorkers(bytes32[])":"cb7b88d1","removeWorker(bytes32)":"bc126f1f","renounceOwnership()":"715018a6","requiredResources()":"4e4d7af8","setAppCID((bytes4,bytes32))":"176474cf","stop()":"07da68f5","targetWorkers()":"2943dcab","transferOwnership(address)":"f2fde38b","withdraw(uint256)":"2e1a7d4d","withdrawRewards(bytes32)":"7dfb6626"},"storageLayout":{"storage":[],"types":{}},"devdoc":{"version":1,"kind":"dev","methods":{"activateWorker(bytes32,bytes32)":{"details":"Set offchain worker ID for a corresponding onchain worker for a deal"},"addProviderToAccessList(address)":{"details":"Adds a provider to the access list"},"addWorker(address,(bytes32),bytes32)":{"details":"Adds a compute unit to the deal","params":{"computeProvider":"The compute provider address","peerId":"The peer ID","workerData":"The worker with data"}},"appCID()":{"details":"Returns the app CID"},"changeProvidersAccessType(uint8)":{"details":"Change the providers access type"},"computePeerUsed(bytes32)":{"details":"Returns the boolean flag indicating whether the peer exists in the deal"},"constructor":{},"creationBlock()":{"details":"Returns the creation block of the deal"},"depositFromOwner(uint256)":{"details":"Deposits payment token to the deal"},"getActivatedWorkerCount()":{"details":"Returns the worker count. Worker is a compute unit that has a worker ID"},"getFreeBalance()":{"details":"Returns the free balance of the deal"},"getMaxPaidEpoch()":{"details":"Returns the max paid epoch"},"getProtocolVersion()":{"details":"Returns the protocol version"},"getRewardAmount(bytes32)":{"details":"Returns the reward amount by compute unit ID"},"getStatus()":{"details":"Returns the status of the deal"},"getWorkerCount()":{"details":"Returns total number of workers"},"getWorkerCount(address)":{"details":"Returns number of workers in provider"},"getWorkerIds()":{"details":"Returns workers registered in this deal"},"isProviderAllowed(address)":{"details":"Returns the boolean indicating whether the provider is allowed or not"},"maxWorkersPerProvider()":{"details":"Returns the max number of workers per provider"},"migrateToBalanceKeeper()":{"details":"Migrate balance to balance keeper"},"multicall(bytes[])":{"details":"Receives and executes a batch of function calls on this contract."},"owner()":{"details":"Returns the address of the current owner."},"paymentToken()":{"details":"Returns the payment token address"},"pricePerEpoch()":{"details":"Returns the price per epoch"},"providersAccessType()":{"details":"Returns the providers access type"},"removeProviderFromAccessList(address)":{"details":"Removes a provider from the access list"},"removeStaleWorkers(bytes32[])":{"details":"Allows oracle to remove worker from a deal that is not paying workers."},"removeWorker(bytes32)":{"details":"Removes a worker from the deal"},"renounceOwnership()":{"details":"Leaves the contract without owner. It will not be possible to call `onlyOwner` functions. Can only be called by the current owner. NOTE: Renouncing ownership will leave the contract without an owner, thereby disabling any functionality that is only available to the owner."},"requiredResources()":{"details":"Returns the price per epoch"},"setAppCID((bytes4,bytes32))":{"details":"Sets the app CID"},"stop()":{"details":"Stop the deal"},"targetWorkers()":{"details":"Returns the max number of workers"},"transferOwnership(address)":{"details":"Transfers ownership of the contract to a new account (`newOwner`). Can only be called by the current owner."},"withdraw(uint256)":{"details":"Withdraws payment token from the deal"},"withdrawRewards(bytes32)":{"details":"Withdraws rewards from the deal by compute unit ID"}},"events":{"AppCIDChanged((bytes4,bytes32))":{"details":"Emitted when the app CID is changed","params":{"newAppCID":"The new app CID"}},"DealEnded(uint256)":{"details":"Emitted when a deal is ended. This event can be emitted in the not-ended epoch. It can be emitted after the ended epoch in any epoch"},"Deposited(uint256)":{"details":"Emitted when a owner deposits payment token to the deal"},"Initialized(uint64)":{"details":"Triggered when the contract has been initialized or reinitialized."},"MaxPaidEpochUpdated(uint256)":{"details":"Emitted when a max paid epoch is updated"},"ProviderAddedToAccessList(address)":{"details":"Emitted when a provider is added to the access list","params":{"provider":"The provider address"}},"ProviderRemovedFromAccessList(address)":{"details":"Emitted when a provider is removed from the access list","params":{"provider":"The provider address"}},"ProvidersAccessTypeChanged(uint8)":{"details":"Emitted when the providers access type is changed","params":{"newAccessType":"The new access type"}},"RewardWithdrawn(bytes32,uint256,uint256)":{"details":"Emitted when a compute unit withdraws rewards from the deal"},"Withdrawn(uint256)":{"details":"Emitted when a owner withdraws payment token from the deal"},"WorkerIdUpdated(bytes32,bytes32)":{"details":"Emitted when a worker ID is updated","params":{"offchainWorkerId":"The new worker ID","onchainWorkerId":"The worker"}},"WorkerJoined(bytes32,bytes32)":{"details":"Emitted when a new worker is added","params":{"onchainId":"The worker ID","peerId":"The id of compute peer"}},"WorkerRemoved(bytes32,bytes32)":{"details":"Emitted when a worker is removed","params":{"onchainId":"The worker onchain ID","peerId":"The id of compute peer"}}},"errors":{"AddressEmptyCode(address)":[{"details":"There's no code at `target` (it is not a contract)."}],"FailedCall()":[{"details":"A call to an address target failed. The target may have reverted."}],"InvalidInitialization()":[{"details":"The contract is already initialized."}],"NotInitializing()":[{"details":"The contract is not initializing."}],"OwnableInvalidOwner(address)":[{"details":"The owner is not a valid owner account. (eg. `address(0)`)"}],"OwnableUnauthorizedAccount(address)":[{"details":"The caller account is not authorized to perform an operation."}],"ReentrancyGuardReentrantCall()":[{"details":"Unauthorized reentrant call."}],"SafeERC20FailedOperation(address)":[{"details":"An operation with an ERC-20 token failed."}]}},"id":95}