{"abi":[{"type":"constructor","inputs":[],"stateMutability":"nonpayable"},{"type":"function","name":"activateWorker","inputs":[{"name":"onchainWorkerId","type":"bytes32","internalType":"bytes32"},{"name":"offchainWorkerId","type":"bytes32","internalType":"bytes32"}],"outputs":[],"stateMutability":"nonpayable"},{"type":"function","name":"addProviderToAccessList","inputs":[{"name":"provider","type":"address","internalType":"address"}],"outputs":[],"stateMutability":"nonpayable"},{"type":"function","name":"addWorker","inputs":[{"name":"computeProvider","type":"address","internalType":"address"},{"name":"workerData","type":"tuple","internalType":"struct IWorkerManagerV2.WorkerDataV2","components":[{"name":"onchainId","type":"bytes32","internalType":"bytes32"}]},{"name":"peerId","type":"bytes32","internalType":"bytes32"}],"outputs":[],"stateMutability":"nonpayable"},{"type":"function","name":"appCID","inputs":[],"outputs":[{"name":"","type":"tuple","internalType":"struct CIDV1","components":[{"name":"prefixes","type":"bytes4","internalType":"bytes4"},{"name":"hash","type":"bytes32","internalType":"bytes32"}]}],"stateMutability":"view"},{"type":"function","name":"changeProvidersAccessType","inputs":[{"name":"accessType","type":"uint8","internalType":"enum IConfigV2.AccessTypeV2"}],"outputs":[],"stateMutability":"nonpayable"},{"type":"function","name":"computePeerUsed","inputs":[{"name":"peerId","type":"bytes32","internalType":"bytes32"}],"outputs":[{"name":"","type":"bool","internalType":"bool"}],"stateMutability":"view"},{"type":"function","name":"creationBlock","inputs":[],"outputs":[{"name":"","type":"uint256","internalType":"uint256"}],"stateMutability":"view"},{"type":"function","name":"depositFromOwner","inputs":[{"name":"amount","type":"uint256","internalType":"uint256"}],"outputs":[],"stateMutability":"nonpayable"},{"type":"function","name":"getActivatedWorkerCount","inputs":[],"outputs":[{"name":"","type":"uint256","internalType":"uint256"}],"stateMutability":"view"},{"type":"function","name":"getFreeBalance","inputs":[],"outputs":[{"name":"","type":"uint256","internalType":"uint256"}],"stateMutability":"view"},{"type":"function","name":"getMaxPaidEpoch","inputs":[],"outputs":[{"name":"","type":"uint256","internalType":"uint256"}],"stateMutability":"view"},{"type":"function","name":"getProtocolVersion","inputs":[],"outputs":[{"name":"","type":"uint256","internalType":"uint256"}],"stateMutability":"view"},{"type":"function","name":"getRewardAmount","inputs":[{"name":"onchainWorkerId","type":"bytes32","internalType":"bytes32"}],"outputs":[{"name":"","type":"tuple","internalType":"struct IDealV2.DealRewards","components":[{"name":"providerReward","type":"uint256","internalType":"uint256"},{"name":"stakerReward","type":"uint256","internalType":"uint256"}]}],"stateMutability":"view"},{"type":"function","name":"getStatus","inputs":[],"outputs":[{"name":"","type":"uint8","internalType":"enum IDealV2.Status"}],"stateMutability":"view"},{"type":"function","name":"getWorker","inputs":[{"name":"onchainWorkerId","type":"bytes32","internalType":"bytes32"}],"outputs":[{"name":"","type":"tuple","internalType":"struct IWorkerManagerV2.Worker","components":[{"name":"offchainId","type":"bytes32","internalType":"bytes32"},{"name":"onchainId","type":"bytes32","internalType":"bytes32"},{"name":"peerId","type":"bytes32","internalType":"bytes32"},{"name":"provider","type":"address","internalType":"address"},{"name":"joinedEpoch","type":"uint256","internalType":"uint256"}]}],"stateMutability":"view"},{"type":"function","name":"getWorkerCount","inputs":[],"outputs":[{"name":"","type":"uint256","internalType":"uint256"}],"stateMutability":"view"},{"type":"function","name":"getWorkerCount","inputs":[{"name":"provider","type":"address","internalType":"address"}],"outputs":[{"name":"","type":"uint256","internalType":"uint256"}],"stateMutability":"view"},{"type":"function","name":"getWorkerIds","inputs":[],"outputs":[{"name":"","type":"bytes32[]","internalType":"bytes32[]"}],"stateMutability":"view"},{"type":"function","name":"initialize","inputs":[{"name":"diamond_","type":"address","internalType":"contract IDiamond"},{"name":"appCID_","type":"tuple","internalType":"struct CIDV1","components":[{"name":"prefixes","type":"bytes4","internalType":"bytes4"},{"name":"hash","type":"bytes32","internalType":"bytes32"}]},{"name":"paymentToken_","type":"address","internalType":"contract IERC20"},{"name":"targetWorkers_","type":"uint256","internalType":"uint256"},{"name":"resources_","type":"tuple[]","internalType":"struct IOfferV2.ResourceData[]","components":[{"name":"resourceId","type":"bytes32","internalType":"bytes32"},{"name":"ty","type":"uint8","internalType":"enum IOfferV2.ResourceType"},{"name":"quantity","type":"uint256","internalType":"uint256"}]},{"name":"pricePerEpoch_","type":"uint256","internalType":"uint256"},{"name":"maxWorkersPerProvider_","type":"uint256","internalType":"uint256"},{"name":"providersAccessType_","type":"uint8","internalType":"enum IConfigV2.AccessTypeV2"},{"name":"providersAccessList_","type":"address[]","internalType":"address[]"},{"name":"protocolVersion_","type":"uint256","internalType":"uint256"},{"name":"owner_","type":"address","internalType":"address"}],"outputs":[],"stateMutability":"nonpayable"},{"type":"function","name":"isProviderAllowed","inputs":[{"name":"account","type":"address","internalType":"address"}],"outputs":[{"name":"","type":"bool","internalType":"bool"}],"stateMutability":"view"},{"type":"function","name":"maxWorkersPerProvider","inputs":[],"outputs":[{"name":"","type":"uint256","internalType":"uint256"}],"stateMutability":"view"},{"type":"function","name":"migrateToBalanceKeeper","inputs":[],"outputs":[],"stateMutability":"nonpayable"},{"type":"function","name":"multicall","inputs":[{"name":"data","type":"bytes[]","internalType":"bytes[]"}],"outputs":[{"name":"results","type":"bytes[]","internalType":"bytes[]"}],"stateMutability":"nonpayable"},{"type":"function","name":"owner","inputs":[],"outputs":[{"name":"","type":"address","internalType":"address"}],"stateMutability":"view"},{"type":"function","name":"paymentToken","inputs":[],"outputs":[{"name":"","type":"address","internalType":"contract IERC20"}],"stateMutability":"view"},{"type":"function","name":"pricePerEpoch","inputs":[],"outputs":[{"name":"","type":"uint256","internalType":"uint256"}],"stateMutability":"view"},{"type":"function","name":"providersAccessType","inputs":[],"outputs":[{"name":"","type":"uint8","internalType":"enum IConfigV2.AccessTypeV2"}],"stateMutability":"view"},{"type":"function","name":"removeProviderFromAccessList","inputs":[{"name":"provider","type":"address","internalType":"address"}],"outputs":[],"stateMutability":"nonpayable"},{"type":"function","name":"removeStaleWorkers","inputs":[{"name":"onchainWorkerIds","type":"bytes32[]","internalType":"bytes32[]"}],"outputs":[],"stateMutability":"nonpayable"},{"type":"function","name":"removeWorker","inputs":[{"name":"onchainWorkerId","type":"bytes32","internalType":"bytes32"}],"outputs":[],"stateMutability":"nonpayable"},{"type":"function","name":"renounceOwnership","inputs":[],"outputs":[],"stateMutability":"nonpayable"},{"type":"function","name":"requiredResources","inputs":[],"outputs":[{"name":"","type":"tuple[]","internalType":"struct IOfferV2.ResourceData[]","components":[{"name":"resourceId","type":"bytes32","internalType":"bytes32"},{"name":"ty","type":"uint8","internalType":"enum IOfferV2.ResourceType"},{"name":"quantity","type":"uint256","internalType":"uint256"}]}],"stateMutability":"view"},{"type":"function","name":"setAppCID","inputs":[{"name":"appCID_","type":"tuple","internalType":"struct CIDV1","components":[{"name":"prefixes","type":"bytes4","internalType":"bytes4"},{"name":"hash","type":"bytes32","internalType":"bytes32"}]}],"outputs":[],"stateMutability":"nonpayable"},{"type":"function","name":"stop","inputs":[],"outputs":[],"stateMutability":"nonpayable"},{"type":"function","name":"targetWorkers","inputs":[],"outputs":[{"name":"","type":"uint256","internalType":"uint256"}],"stateMutability":"view"},{"type":"function","name":"transferOwnership","inputs":[{"name":"newOwner","type":"address","internalType":"address"}],"outputs":[],"stateMutability":"nonpayable"},{"type":"function","name":"withdraw","inputs":[{"name":"amount","type":"uint256","internalType":"uint256"}],"outputs":[],"stateMutability":"nonpayable"},{"type":"function","name":"withdrawRewards","inputs":[{"name":"onchainWorkerId","type":"bytes32","internalType":"bytes32"}],"outputs":[],"stateMutability":"nonpayable"},{"type":"event","name":"AppCIDChanged","inputs":[{"name":"newAppCID","type":"tuple","indexed":false,"internalType":"struct CIDV1","components":[{"name":"prefixes","type":"bytes4","internalType":"bytes4"},{"name":"hash","type":"bytes32","internalType":"bytes32"}]}],"anonymous":false},{"type":"event","name":"DealEnded","inputs":[{"name":"endedEpoch","type":"uint256","indexed":false,"internalType":"uint256"}],"anonymous":false},{"type":"event","name":"Deposited","inputs":[{"name":"amount","type":"uint256","indexed":false,"internalType":"uint256"}],"anonymous":false},{"type":"event","name":"Initialized","inputs":[{"name":"version","type":"uint64","indexed":false,"internalType":"uint64"}],"anonymous":false},{"type":"event","name":"MaxPaidEpochUpdated","inputs":[{"name":"maxPaidEpoch","type":"uint256","indexed":false,"internalType":"uint256"}],"anonymous":false},{"type":"event","name":"OwnershipTransferred","inputs":[{"name":"previousOwner","type":"address","indexed":true,"internalType":"address"},{"name":"newOwner","type":"address","indexed":true,"internalType":"address"}],"anonymous":false},{"type":"event","name":"ProviderAddedToAccessList","inputs":[{"name":"provider","type":"address","indexed":false,"internalType":"address"}],"anonymous":false},{"type":"event","name":"ProviderRemovedFromAccessList","inputs":[{"name":"provider","type":"address","indexed":false,"internalType":"address"}],"anonymous":false},{"type":"event","name":"ProvidersAccessTypeChanged","inputs":[{"name":"newAccessType","type":"uint8","indexed":false,"internalType":"enum IConfigV2.AccessTypeV2"}],"anonymous":false},{"type":"event","name":"RewardWithdrawn","inputs":[{"name":"onchainWorkerId","type":"bytes32","indexed":false,"internalType":"bytes32"},{"name":"providerReward","type":"uint256","indexed":false,"internalType":"uint256"},{"name":"stakerReward","type":"uint256","indexed":false,"internalType":"uint256"}],"anonymous":false},{"type":"event","name":"Withdrawn","inputs":[{"name":"amount","type":"uint256","indexed":false,"internalType":"uint256"}],"anonymous":false},{"type":"event","name":"WorkerIdUpdated","inputs":[{"name":"onchainWorkerId","type":"bytes32","indexed":false,"internalType":"bytes32"},{"name":"offchainWorkerId","type":"bytes32","indexed":false,"internalType":"bytes32"}],"anonymous":false},{"type":"event","name":"WorkerJoined","inputs":[{"name":"peerId","type":"bytes32","indexed":true,"internalType":"bytes32"},{"name":"onchainId","type":"bytes32","indexed":false,"internalType":"bytes32"}],"anonymous":false},{"type":"event","name":"WorkerRemoved","inputs":[{"name":"peerId","type":"bytes32","indexed":true,"internalType":"bytes32"},{"name":"onchainId","type":"bytes32","indexed":false,"internalType":"bytes32"}],"anonymous":false},{"type":"error","name":"AddressEmptyCode","inputs":[{"name":"target","type":"address","internalType":"address"}]},{"type":"error","name":"FailedCall","inputs":[]},{"type":"error","name":"InvalidInitialization","inputs":[]},{"type":"error","name":"NotInitializing","inputs":[]},{"type":"error","name":"OwnableInvalidOwner","inputs":[{"name":"owner","type":"address","internalType":"address"}]},{"type":"error","name":"OwnableUnauthorizedAccount","inputs":[{"name":"account","type":"address","internalType":"address"}]},{"type":"error","name":"ReentrancyGuardReentrantCall","inputs":[]},{"type":"error","name":"SafeERC20FailedOperation","inputs":[{"name":"token","type":"address","internalType":"address"}]}],"bytecode":{"object":"0x6080806040523460d0577ff0c57e16840df040f15088dc2f81fe391c3923bec73e23a9662efc9c229c6a005460ff8160401c1660c1576002600160401b03196001600160401b03821601605c575b60405161497290816100d58239f35b6001600160401b0319166001600160401b039081177ff0c57e16840df040f15088dc2f81fe391c3923bec73e23a9662efc9c229c6a005581527fc7f505b2f371ae2175ee4913f4499e1f2633a7b5936321eed1cdaeb6115181d290602090a15f80604d565b63f92ee8a960e01b5f5260045ffd5b5f80fdfe60806040526004361015610011575f80fd5b5f803560e01c80630574131f146128bc57806307da68f51461267c5780631763451414612651578063176474cf146124bd5780631af57b961461248c57806322ebd58a146123f25780632943dcab146123c75780632e1a7d4d14611e375780633013ce2914611e0157806333ce93fe14611dd6578063378b22e414611dab5780633e8ae1ae14611d7d578063444e6a5a14611c555780634d7599f114611c2a5780634e4d7af814611acc5780634e69d56014611a9e57806359c4afc014611a585780635fc8f59c14611a2d578063630eceea14611947578063636fcefb146117b4578063715018a61461175e57806373134c15146115bb5780637dfb6626146114b75780638460845414610e9e5780638a0c725b14610e735780638da5cb5b14610e3d5780639bc6686814610dd3578063aba93a1014610d7c578063ac9650d814610b60578063ade0a20214610b35578063bc126f1f146109c7578063bd1926e01461098a578063cb7b88d114610715578063cef74c8b1461030b578063d4773ff0146102d4578063e93c4f15146102ad578063f2574c1b146101eb5763f2fde38b146101bc575f80fd5b346101e85760203660031901126101e8576101e56101d8612a61565b6101e0613b1f565b6132f5565b80f35b80fd5b50346101e857806003193601126101e8576040515f8051602061453d8339815191528054808352908352602082019081907f17a21d30941a091c50cf295988f7232f281c42e3df40adbad57a37502bda8e9790855b8181106102975750505082610256910383612b0d565b604051928392602084019060208552518091526040840192915b81811061027e575050500390f35b8251845285945060209384019390920191600101610270565b8254845260209093019260019283019201610240565b50346101e857806003193601126101e857602060606102ca6134fa565b0151604051908152f35b50346101e857806003193601126101e8575061030760ff5f8051602061467d833981519152541660405191829182612b30565b0390f35b50346101e85760603660031901126101e857610325612a61565b602036602319011261071157604051602081016001600160401b038111828210176106fd576040526024358152604435915f805160206145dd83398151915261037860018060a01b038254163314612b43565b610380613353565b6103886130ed565b60058110156106e957600261039e911415612b99565b5f8051602061469d8339815191528054905f8051602061465d833981519152548210156106ab578587525f8051602061479d83398151915260205260ff604088205416610670578587525f8051602061479d83398151915260205260408720600160ff1982541617905560018060a01b0384165f525f8051602061451d83398151915260205260405f20545f805160206146dd8339815191525481101561062c5760018101809111610618576001600160a01b0385165f9081525f8051602061451d833981519152602052604090205560018201918210610604575554604051630ecce30160e31b815290602090829060049082906001600160a01b03165afa80156105f95785906105c2575b60049150835192604051936104bf85612ad6565b878552602080860191825260408087018981526001600160a01b03948516606089019081526080890196875289518c525f805160206147fd833981519152909352908a20965187559151600187015590516002860155516003850180546001600160a01b0319169190921617905551910155805161054a905f8051602061453d8339815191526143cd565b1561057e5760207f9cd57cfa2e12a37215cabc6897396db265419bd7f06adad06227a2b163ecd6a39151604051908152a280f35b60405162461bcd60e51b815260206004820152601c60248201527b11985a5b1959081d1bc8185919081ddbdc9ad95c881d1bc81b1a5cdd60221b6044820152606490fd5b506020813d6020116105f1575b816105dc60209383612b0d565b810103126105ed57600490516104ab565b5f80fd5b3d91506105cf565b6040513d87823e3d90fd5b634e487b7160e01b87526011600452602487fd5b634e487b7160e01b88526011600452602488fd5b606460405162461bcd60e51b815260206004820152602060248201527f4d617820776f726b657273207065722070726f766964657220726561636865646044820152fd5b60405162461bcd60e51b81526020600482015260136024820152721419595c925908185b1c9958591e481d5cd959606a1b6044820152606490fd5b60405162461bcd60e51b815260206004820152601660248201527515185c99d95d081ddbdc9ad95c9cc81c995858da195960521b6044820152606490fd5b634e487b7160e01b86526021600452602486fd5b634e487b7160e01b84526041600452602484fd5b5080fd5b50346101e85760203660031901126101e8576004356001600160401b03811161071157610746903690600401612a77565b5f805160206145dd833981519152546040516307dc0d1d60e41b815290602090829060049082906001600160a01b03165afa90811561097f578491610941575b506001600160a01b031633036108fd5761079e613353565b6107a66134fa565b6107ae6130ed565b6005811015806106e9576002821480156108f3575b8181156108e3575b50156108a35761088f578015908115610884575b50610810575b50825b8181106107f3578380f35b8061080a61080460019385876132e5565b35613f76565b016107e8565b60a001511561081f575f6107e5565b60405162461bcd60e51b815260206004820152603760248201527f4174206c65617374203120756e706169642065706f636820726571756972656460448201527620746f20636f6e7369646572206465616c207374616c6560481b6064820152608490fd5b60039150145f6107df565b634e487b7160e01b85526021600452602485fd5b60405162461bcd60e51b815260206004820152601860248201527715dbdc9ad95c9cc81a5b881919585b08185c99481c185a5960421b6044820152606490fd5b90506106e95760038214816107cb565b50508481156107c3565b606460405162461bcd60e51b815260206004820152602060248201527f4f6e6c79206f7261636c652063616e2063616c6c2074686973206d6574686f646044820152fd5b90506020813d602011610977575b8161095c60209383612b0d565b810103126109735761096d90612c37565b5f610786565b8380fd5b3d915061094f565b6040513d86823e3d90fd5b50346101e85760203660031901126101e85760ff6040826020935060043581525f8051602061479d83398151915284522054166040519015158152f35b50346101e85760203660031901126101e8576004356109e581613231565b5f805160206145dd83398151915260018060a01b0390541690608060408201516024604051809581936321b9a09560e21b835260048301525afa91821561097f578492610b04575b50606001516001600160a01b03163314908115610aed575b508015610acd575b15610a63576101e590610a5e613353565b613f76565b60405162461bcd60e51b815260206004820152603c60248201527f4f6e6c792070726f76696465722c2070656572206f776e6572206f722064656160448201527b1b081bdddb995c8818d85b8818d85b1b081d1a1a5cc81b595d1a1bd960221b6064820152608490fd5b505f805160206147bd833981519152546001600160a01b03163314610a4d565b606001516001600160a01b0316331490505f610a45565b610b2791925060803d608011610b2e575b610b1f8183612b0d565b810190612d69565b905f610a2d565b503d610b15565b50346101e857806003193601126101e8575060205f805160206148bd83398151915254604051908152f35b50346101e85760203660031901126101e8576004356001600160401b03811161071157610b91903690600401612a77565b906020604051610ba18282612b0d565b848152818101601f198301368237610bb8856130d6565b93610bc66040519586612b0d565b858552601f19610bd5876130d6565b01875b818110610d6d57505036819003601e190190875b87811015610cf557888160051b830135848112156107115783018035906001600160401b038211610cf15788018136038113610cf15786610c5784938b6040519382859383850197883783018281018881528e519283915e010185815203601f198101835282612b0d565b5190305af4893d15610cde57503d906001600160401b038211610cca5791610ca86001928c98979695948a601f19601f8401160191610c996040519384612b0d565b82523d8a8c84013e5b3061434e565b610cb2828b6132bd565b52610cbd818a6132bd565b5001909192939450610bec565b634e487b7160e01b8b52604160045260248bfd5b9594939291610ca8600192606090610ca2565b8280fd5b88868860405191808301818452825180915260408401918060408360051b870101940192865b838810610d285786860387f35b9091929394838080600193603f198b8203018752818a518051918291828552018484015e86838284010152601f80199101160101970193019701969093929193610d1b565b60608782018701528501610bd8565b50346101e85760203660031901126101e85760a0610d9b600435613231565b608060405191805183526020810151602084015260408101516040840152600180851b03606082015116606084015201516080820152f35b50346101e857806003193601126101e857610dec612cf2565b505060408051610dfb81612aa7565b63ffffffff60e01b5f805160206145fd8339815191525460e01b169081815260205f8051602061489d8339815191525491019081528251918252516020820152f35b50346101e857806003193601126101e857505f805160206147bd833981519152546040516001600160a01b039091168152602090f35b50346101e857806003193601126101e8575060205f805160206146dd83398151915254604051908152f35b50346101e8576101803660031901126101e8576004356001600160a01b038116810361071157604036602319011261071157606435906001600160a01b0382168203610cf15760a4356001600160401b0381116109735736602382011215610973576004810135906001600160401b0382116114b35736602460608402830101116114b3576101043560038110156114af57610124356001600160401b0381116114ab57610f50903690600401612a77565b610164359690949193906001600160a01b03881688036114a7575f8051602061487d83398151915254604081901c60ff161598906001600160401b0381168015908161149f575b6001149081611495575b15908161148c575b5061147d576001600160401b031981166001175f8051602061487d83398151915255610ff791908a611455575b50610fdf614323565b610fe7614323565b610fef614323565b6101e0614323565b610fff614323565b435f8051602061473d833981519152555f805160206145dd83398151915280546001600160a01b039889166001600160a01b03199182161782555f8051602061471d8339815191528054939099169216919091179096556084355f8051602061465d83398151915255600160401b8211611441575f8051602061461d83398151915254825f8051602061461d833981519152558083106113b4575b505f8051602061461d833981519152885292939287905f805160206148fd833981519152906024015b83831061136957505050506111099060c4355f8051602061457d8339815191525560e4355f805160206146dd833981519152555f8051602061467d8339815191526131da565b5f8051602061463d83398151915290855b8181106113245750506024359150506001600160e01b0319811681036109735760e01c63ffffffff195f805160206145fd8339815191525416175f805160206145fd833981519152556044355f8051602061489d833981519152558260018060a01b03825416803b1561071157816040518092634492bd6b60e01b82528183816111a8602460048301613897565b03925af1801561131957611304575b505060206004915f805160206146bd833981519152604051806111db602482613897565b0390a16111e6614323565b610144355f8051602061459d83398151915255611201614323565b54604051630ecce30160e31b815292839182906001600160a01b03165afa9081156112f95783916112c7575b505f1981019081116112b3575f8051602061455d8339815191525560015f8051602061475d833981519152556112605780f35b60ff60401b195f8051602061487d83398151915254165f8051602061487d833981519152557fc7f505b2f371ae2175ee4913f4499e1f2633a7b5936321eed1cdaeb6115181d2602060405160018152a180f35b634e487b7160e01b83526011600452602483fd5b90506020813d6020116112f1575b816112e260209383612b0d565b810103126105ed57515f61122d565b3d91506112d5565b6040513d85823e3d90fd5b8161130e91612b0d565b610cf157825f6111b7565b6040513d84823e3d90fd5b61132f8183866132e5565b35906001600160a01b038216820361136557600191828060a01b03165f528360205260405f208260ff198254161790550161111a565b8780fd5b8096959635825560018201908a6020820135916006831015610711576001936003936060935060ff8019835416911617905560408101356002860155019201920191909594956110c3565b8060030290600382040361142d5782600302600381048403611419575f8051602061461d8339815191528a525f805160206148fd83398151915291820191015b818110611401575061109a565b6003908a81558a60018201558a6002820155016113f4565b634e487b7160e01b8a52601160045260248afd5b634e487b7160e01b89526011600452602489fd5b634e487b7160e01b88526041600452602488fd5b6001600160481b0319166001600160401b01175f8051602061487d833981519152555f610fd6565b63f92ee8a960e01b8b5260048bfd5b9050155f610fa9565b303b159150610fa1565b8b9150610f97565b8880fd5b8680fd5b8580fd5b8480fd5b50346101e85760203660031901126101e8576004356114d581613231565b905f805160206145dd83398151915260018060a01b03905416608060408401516024604051809481936321b9a09560e21b835260048301525afa801561097f576101e59361154292869261159a575b50606001516001600160a01b03163314908115611583575b50612dbe565b61154a613353565b61157761155682613231565b61155e6134fa565b928184925190606060018060a01b039101511691613b52565b61014081015190613732565b606001516001600160a01b0316331490505f61153c565b6115b491925060803d608011610b2e57610b1f8183612b0d565b905f611524565b50346101e85760203660031901126101e8576115d5612a61565b5f805160206145dd833981519152546040516302984ebd60e31b815290602090829060049082906001600160a01b03165afa9081156112f9578391611724575b506001600160a01b031633148015611704575b61163190612c4b565b60ff5f8051602061467d833981519152541660038110156116f057156116ad576001600160a01b03165f8181525f8051602061463d8339815191526020908152604091829020805460ff1916600117905590519182527f4c26e4de691e265be6cf03e639754839907bf74687cd524a6734851331527ffd91a180f35b60405162461bcd60e51b815260206004820152601b60248201527a436f6e6669673a206163636573732074797065206973204e4f4e4560281b6044820152606490fd5b634e487b7160e01b83526021600452602483fd5b505f805160206147bd833981519152546001600160a01b03163314611628565b90506020813d602011611756575b8161173f60209383612b0d565b81010312610cf15761175090612c37565b5f611615565b3d9150611732565b50346101e857806003193601126101e857611777613b1f565b5f805160206147bd83398151915280546001600160a01b0319811690915581906001600160a01b03165f805160206146fd8339815191528280a380f35b50346101e85760203660031901126101e8576004356003811015610711575f805160206145dd833981519152546040516302984ebd60e31b815290602090829060049082906001600160a01b03165afa9081156112f957839161190d575b506001600160a01b0316331480156118ed575b61182e90612c4b565b60ff5f8051602061467d833981519152541660038110156116f057811461189d576118978161188b7f1f5a251428f76335a835fcae94ab6a9bcf09ac33bd3c782eb6a81bdf878a7393935f8051602061467d8339815191526131da565b60405191829182612b30565b0390a180f35b60405162461bcd60e51b815260206004820152602260248201527f436f6e6669673a20616363657373207479706520697320616c72656164792073604482015261195d60f21b6064820152608490fd5b505f805160206147bd833981519152546001600160a01b03163314611825565b90506020813d60201161193f575b8161192860209383612b0d565b81010312610cf15761193990612c37565b5f611812565b3d915061191b565b50346101e857806003193601126101e8575f805160206145dd83398151915254604051638da5cb5b60e01b815290602090829060049082906001600160a01b03165afa9081156113195782916119f3575b506001600160a01b031633036119b0576101e5613353565b60405162461bcd60e51b815260206004820152601b60248201527a13db9b1e48191a585b5bdb99081bdddb995c8818d85b8818d85b1b602a1b6044820152606490fd5b90506020813d602011611a25575b81611a0e60209383612b0d565b8101031261071157611a1f90612c37565b5f611998565b3d9150611a01565b50346101e857806003193601126101e8575060205f8051602061457d83398151915254604051908152f35b50346101e85760203660031901126101e857611a72612a61565b905060018060a01b03165f525f8051602061451d833981519152602052602060405f2054604051908152f35b50346101e857806003193601126101e857611ab76130ed565b6040519060058110156116f057602092508152f35b50346101e857806003193601126101e8575f8051602061461d83398151915254611af5816130d6565b90611b036040519283612b0d565b8082525f8051602061461d8339815191528352602082019083905f805160206148fd833981519152835b828410611bac57505050506040519160208301906020845251809152604083019190845b818610611b5e5784840385f35b90919283518051825260208101516006811015611b9857826040602093606093856001970152015160408201520194019501949190611b51565b634e487b7160e01b84526021600452602484fd5b604051606081016001600160401b03811182821017611c16576040528254815260ff6001840154166006811015611c02576001928260209283600395015260028601546040820152815201920193019290611b2d565b634e487b7160e01b89526021600452602489fd5b634e487b7160e01b89526041600452602489fd5b50346101e857806003193601126101e8575060205f8051602061469d83398151915254604051908152f35b50346101e85760203660031901126101e857611c6f612a61565b5f805160206145dd833981519152546040516302984ebd60e31b815290602090829060049082906001600160a01b03165afa9081156112f9578391611d30575b505f805160206147dd833981519152916020916001600160a01b031633148015611d10575b611cdd90612c4b565b6001600160a01b03165f8181525f8051602061463d8339815191528352604090819020805460ff1916905551908152a180f35b505f805160206147bd833981519152546001600160a01b03163314611cd4565b90506020813d602011611d75575b81611d4b60209383612b0d565b81010312610cf1575f805160206147dd83398151915291611d6d602092612c37565b915091611caf565b3d9150611d3e565b50346101e85760203660031901126101e8576020611da1611d9c612a61565b613046565b6040519015158152f35b50346101e857806003193601126101e8575060205f8051602061491d83398151915254604051908152f35b50346101e857806003193601126101e8575060205f8051602061459d83398151915254604051908152f35b50346101e857806003193601126101e857505f8051602061471d833981519152546040516001600160a01b039091168152602090f35b50346101e85760203660031901126101e8575f805160206145dd83398151915280546040516302984ebd60e31b8152600480359392602091839182906001600160a01b03165afa90811561097f57849161238d575b506001600160a01b03163314801561236d575b611ea890612c4b565b5f8051602061483d8339815191525c61235e5760015f8051602061483d8339815191525d611ed4613353565b5f8051602061481d833981519152611eea6134fa565b82546040516372ea4f2360e01b815290602090829060049082906001600160a01b03165afa90811561235357869161231f575b50611f3a611f4f915f8051602061457d8339815191525490612ffb565b5f8051602061465d8339815191525490612ffb565b60608201611f5e86825161300e565b809152610100830151151580612316575b1561229d57505060c08101515f805160206148dd8339815191525484546040516372ea4f2360e01b81529190602090839060049082906001600160a01b03165afa90811561229257889161225c575b611fc89250612bd5565b10156121f3578492611ff260209284611fe4886004975461300e565b905561014081015190613732565b5460405163fd44f92160e01b815292839182906001600160a01b03165afa9081156113195782916121c4575b505f8051602061471d833981519152545f805160206147bd83398151915280546001600160a01b039384169391929082169116833b156114b357604051633ea36c6b60e11b81529185918391829161207b918a9160048501612c15565b038183875af190811561097f5784916121af575b50505f8051602061471d8339815191525490546001600160a01b039182169116823b1561097357604051630373bbe360e01b8152918491839182916120db91899133916004860161301b565b038183865af19081156112f957839161219a575b50505f8051602061471d833981519152546001600160a01b031690803b15610cf15783839161213793836040518096819582946315abf79960e31b8452339060048501612c15565b03925af1801561131957612185575b507f430648de173157e069201c943adb2d4e340e7cf5b27b1b09c9cb852f03d63b56602083604051908152a1805f8051602061483d8339815191525d80f35b8161218f91612b0d565b61071157815f612146565b816121a491612b0d565b61071157815f6120ef565b816121b991612b0d565b610cf157825f61208f565b6121e6915060203d6020116121ec575b6121de8183612b0d565b810190612bf6565b5f61201e565b503d6121d4565b60405162461bcd60e51b815260206004820152603b60248201527f43616e2774207769746864726177206265666f7265206d696e4465616c44657060448201527a1bdcda5d1959115c1bd8da1cc818599d195c881919585b08195b99602a1b6064820152608490fd5b90506020823d60201161228a575b8161227760209383612b0d565b810103126105ed57611fc8915190611fbe565b3d915061226a565b6040513d8a823e3d90fd5b9091939250106122b6576020600491611ff28694611577565b60405162461bcd60e51b815260206004820152603260248201527f467265652062616c616e6365206e6565647320746f20636f766572206d696e4460448201527165616c4465706f736974656445706f63687360701b6064820152608490fd5b50818110611f6f565b90506020813d60201161234b575b8161233a60209383612b0d565b810103126105ed5751611f3a611f1d565b3d915061232d565b6040513d88823e3d90fd5b633ee5aeb560e01b8352600483fd5b505f805160206147bd833981519152546001600160a01b03163314611e9f565b90506020813d6020116123bf575b816123a860209383612b0d565b81010312610973576123b990612c37565b5f611e8c565b3d915061239b565b50346101e857806003193601126101e8575060205f8051602061465d83398151915254604051908152f35b50346101e85760403660031901126101e85760043561241081613231565b905f805160206145dd83398151915260018060a01b03905416608060408401516024604051809481936321b9a09560e21b835260048301525afa801561097f576101e59361247b92869261159a5750606001516001600160a01b031633149081156115835750612dbe565b612483613353565b60243590612e79565b50346101e85760203660031901126101e85760406124ab600435612d0a565b60208251918051835201516020820152f35b50346101e85760403660031901126101e8575f805160206145dd83398151915280546040516302984ebd60e31b8152839291602090829060049082906001600160a01b03165afa9081156112f9578391612617575b506001600160a01b0316331480156125f7575b61252e90612c4b565b6004356001600160e01b0319811681036125f35760e01c63ffffffff195f805160206145fd8339815191525416175f805160206145fd833981519152556024355f8051602061489d8339815191525560018060a01b03905416803b156125f057816040518092634492bd6b60e01b82528183816125ae6004808301613897565b03925af18015611319576125db575b505f805160206146bd83398151915260405180611897600482613897565b816125e591612b0d565b6101e857805f6125bd565b50fd5b5050fd5b505f805160206147bd833981519152546001600160a01b03163314612525565b90506020813d602011612649575b8161263260209383612b0d565b810103126125f35761264390612c37565b5f612512565b3d9150612625565b50346101e857806003193601126101e8575060205f8051602061473d83398151915254604051908152f35b50346101e857806003193601126101e8575f805160206145dd83398151915280546040516302984ebd60e31b815291929190602090829060049082906001600160a01b03165afa908115611319578291612882575b506001600160a01b031633148015612862575b6126ed90612c4b565b6126f5613353565b6126fd6130ed565b91600583101561284e57612715600283941415612cb1565b6127206115776134fa565b8054604051630ecce30160e31b815290602090829060049082906001600160a01b03165afa9081156112f9578391612816575b506020817f3ad16bb58712aa329948d76146b096a4f4b85e024d99473dc50bcd358811b86c925f8051602061491d83398151915254116127eb575b805f805160206148dd83398151915255604051908152a1546001600160a01b0316803b156125f05781809160046040518094819362e481ad60e21b83525af18015611319576127da5750f35b816127e491612b0d565b6101e85780f35b805f8051602061491d833981519152555f805160206145bd83398151915282604051838152a161278e565b9250506020823d602011612846575b8161283260209383612b0d565b810103126105ed5790518291906020612753565b3d9150612825565b634e487b7160e01b82526021600452602482fd5b505f805160206147bd833981519152546001600160a01b031633146126e4565b90506020813d6020116128b4575b8161289d60209383612b0d565b81010312610711576128ae90612c37565b5f6126d1565b3d9150612890565b50346105ed5760203660031901126105ed576004355f805160206145dd8339815191526128f360018060a01b038254163314612b43565b6128fb613353565b6129036130ed565b6005811015612a4d5760049161291e60026020931415612b99565b6129466129296134fa565b60608101612938878251612bd5565b905261014081015190613732565b5460405163fd44f92160e01b815292839182906001600160a01b03165afa908115612a23575f91612a2e575b505f8051602061471d833981519152545f805160206147bd833981519152546001600160a01b03928316929081169116823b156105ed576129cf925f928386936040519687958694859363a2e939b160e01b855260048501612c15565b03925af18015612a2357612a0d575b5060207f2a89b2e3d580398d6dc2db5e0f336b52602bbaa51afa9bb5cdf59239cf0d2bea91604051908152a180f35b612a1a9192505f90612b0d565b5f9060206129de565b6040513d5f823e3d90fd5b612a47915060203d6020116121ec576121de8183612b0d565b5f612972565b634e487b7160e01b5f52602160045260245ffd5b600435906001600160a01b03821682036105ed57565b9181601f840112156105ed578235916001600160401b0383116105ed576020808501948460051b0101116105ed57565b604081019081106001600160401b03821117612ac257604052565b634e487b7160e01b5f52604160045260245ffd5b60a081019081106001600160401b03821117612ac257604052565b61016081019081106001600160401b03821117612ac257604052565b601f909101601f19168101906001600160401b03821190821017612ac257604052565b919060208301926003821015612a4d5752565b15612b4a57565b60405162461bcd60e51b815260206004820152602160248201527f436f6e6669673a2063616c6c6572206973206e6f7420746865204469616d6f6e6044820152601960fa1b6064820152608490fd5b15612ba057565b60405162461bcd60e51b815260206004820152600d60248201526c1119585b081a5cc8195b991959609a1b6044820152606490fd5b91908201809211612be257565b634e487b7160e01b5f52601160045260245ffd5b908160209103126105ed57516001600160a01b03811681036105ed5790565b6001600160a01b03918216815291166020820152604081019190915260600190565b51906001600160a01b03821682036105ed57565b15612c5257565b60405162461bcd60e51b815260206004820152603160248201527f4f6e6c7920566f646f706164206f72204465616c204f776e65722063616e206360448201527030b636103a3434b990333ab731ba34b7b760791b6064820152608490fd5b15612cb857565b60405162461bcd60e51b81526020600482015260126024820152714465616c206973206e6f742061637469766560701b6044820152606490fd5b60405190612cff82612aa7565b5f6020838281520152565b604051612d1681612aa7565b5f81525f602082015250612d286134fa565b90612d3281613231565b5115612d4f5781612d46612d4c938361395a565b91613a45565b90565b5050604051612d5d81612aa7565b5f81525f602082015290565b908160809103126105ed5760405190608082016001600160401b03811183821017612ac257612db69160609160405280518452602081015160208501526040810151604085015201612c37565b606082015290565b15612dc557565b60405162461bcd60e51b815260206004820152603060248201527f4f6e6c792070726f7669646572206f722070656572206f776e65722063616e2060448201526f18d85b1b081d1a1a5cc81b595d1a1bd960821b6064820152608490fd5b15612e2a57565b60405162461bcd60e51b815260206004820152602160248201527f4f6666636861696e20776f726b65722069642063616e277420626520656d70746044820152607960f81b6064820152608490fd5b81151590612e8682612e23565b612e8e6134fa565b61014081015192825f525f805160206147fd833981519152602052612eb660405f2091612e23565b805415612fcd575b8481557fcf79e0e27c8c35d39bd9b727f35e6f79573597f660c88baf483fc1511c49203c60408051858152876020820152a160025f805160206148bd8339815191525491015493612f0f8284613732565b612f176130ed565b6005811015612a4d5780612f316002612f38931415612b99565b1515612cb1565b14612fc757815f525f805160206144fd833981519152602052600160a060405f209260e0810151845501519101555f805160206145dd83398151915260018060a01b03905416803b156105ed575f9283606492604051968795869463852cdb0160e01b86526004860152602485015260448401525af18015612a2357612fbb5750565b5f612fc591612b0d565b565b50505050565b5f805160206148bd833981519152545f198114612be2576001015f805160206148bd83398151915255612ebe565b81810292918115918404141715612be257565b91908203918211612be257565b6001600160a01b03918216815291811660208301529091166040820152606081019190915260800190565b60ff5f8051602061467d83398151915254166003811015612a4d5780156130cf57600181146130a55760021461307b57505f90565b6001600160a01b03165f9081525f8051602061463d833981519152602052604090205460ff161590565b506001600160a01b03165f9081525f8051602061463d833981519152602052604090205460ff1690565b5050600190565b6001600160401b038111612ac25760051b60200190565b6130f56134fa565b6101008101516131d4575f8051602061491d8339815191525480151590816131c6575b506131c157606001515f805160206145dd833981519152546040516372ea4f2360e01b815290602090829060049082906001600160a01b03165afa908115612a23575f9161318d575b50611f3a61317e915f8051602061457d8339815191525490612ffb565b1161318857600190565b600490565b90506020813d6020116131b9575b816131a860209383612b0d565b810103126105ed5751611f3a613161565b3d915061319b565b505f90565b905060c0820151115f613118565b50600290565b906003811015612a4d5760ff80198354169116179055565b156131f957565b60405162461bcd60e51b815260206004820152601060248201526f15dbdc9ad95c881b9bdd08199bdd5b9960821b6044820152606490fd5b5f608060405161324081612ad6565b82815282602082015282604082015282606082015201525f525f805160206147fd83398151915260205260405f20612d4c6040519161327e83612ad6565b805483526001810154602084018190526002820154604085015260038201546001600160a01b03166060850152600490910154608084015215156131f2565b80518210156132d15760209160051b010190565b634e487b7160e01b5f52603260045260245ffd5b91908110156132d15760051b0190565b6001600160a01b03168015613340575f805160206147bd83398151915280546001600160a01b0319811683179091556001600160a01b03165f805160206146fd8339815191525f80a3565b631e4fbdf760e01b5f525f60045260245ffd5b5f805160206145dd8339815191525460405163fd44f92160e01b81525f8051602061481d83398151915291602090829060049082906001600160a01b03165afa908115612a23575f9161348a575b505f8051602061475d833981519152546134865760015f8051602061475d8339815191525560018060a01b035f8051602061471d83398151915254169060018060a01b03169160205f82546040518381019163a9059cbb60e01b8352876024830152604482015260448152613417606482612b0d565b519082865af115612a23575f513d61347d5750813b155b61346a5754823b156105ed5760445f9283604051958694859363a0aeae9f60e01b8552600485015260248401525af18015612a2357612fbb5750565b50635274afe760e01b5f5260045260245ffd5b6001141561342e565b5050565b6134a3915060203d6020116121ec576121de8183612b0d565b5f6133a1565b604051906134b682612af1565b5f610140838281528260208201528260408201528260608201528260808201528260a08201528260c08201528260e082015282610100820152826101208201520152565b6004906135056134a9565b505f805160206145dd83398151915254604051630ecce30160e31b8152925f8051602061481d83398151915291602091859182906001600160a01b03165afa928315612a23575f936136fe575b505f198301838111612be257925f805160206148dd83398151915254935f94806136f2575b505f805160206148bd83398151915254945f8051602061457d83398151915254936135a06134a9565b5054925f8051602061477d833981519152545f8051602061485d8339815191525490604051956135cf87612af1565b8087528160208801528260408801526060870152608086015260a085015260c08401528160e08401521515610100830152826101208301528461014083015281945f8051602061455d8339815191525492838311156136ea57505f8051602061491d8339815191525493848311156136b65784841061366a57505061366691925061366060a086019384519261300e565b90612bd5565b9052565b9061367f6136849261367f613666968861300e565b612ffb565b6060860161369382825161300e565b90526136a460808701918251612bd5565b905261366060a086019384519261300e565b90926136ca945061367f9061367f9361300e565b606083016136d982825161300e565b905261366660808401918251612bd5565b955050505050565b6001955090505f613577565b9092506020813d60201161372a575b8161371a60209383612b0d565b810103126105ed5751915f613552565b3d915061370d565b905f8051602061481d83398151915282516060840191825180920361388f575b50506020830151608084015180910361387a575b50604083015160a0840151809103613865575b5060e083015192610100810151156137a0575b5050505f8051602061455d83398151915255565b8215908161381a5750506137c49051915f8051602061457d83398151915254612ffb565b8015613806576137e66020915f805160206145bd833981519152930484612bd5565b805f8051602061491d83398151915255604051908152a15b5f808061378c565b634e487b7160e01b5f52601260045260245ffd5b61014001511515925090508161385d575b50156137fe575f5f8051602061491d833981519152555f805160206145bd83398151915260206040515f8152a16137fe565b90505f61382b565b5f8051602061485d833981519152555f613779565b5f8051602061477d833981519152555f613766565b555f80613752565b60408101929180356001600160e01b03198116908190036105ed578252602090810135910152565b90816101609103126105ed57604051906138d882612af1565b80519060068210156105ed576101409183526020810151602084015260408101516040840152606081015160608401526080810151608084015260a081015160a084015260c081015160c084015261393260e08201612c37565b60e0840152610100810151610100840152610120810151610120840152015161014082015290565b9060e00151905f805160206145dd8339815191529060ff5f8051602061467d83398151915254166003811015612a4d57600114613a405761399d6101609161420d565b9154604051631de5608360e21b81526004810193909352829060249082906001600160a01b03165afa908115612a23575f91613a11575b5061012081015180613a0b575060a00180515f198101908111612be25782116139fb575090565b515f19810191508111612be25790565b91505090565b613a3391506101603d8111613a39575b613a2b8183612b0d565b8101906138bf565b5f6139d4565b503d613a21565b505090565b91604051613a5281612aa7565b5f81525f602082015250825f525f805160206144fd833981519152602052613a7d60405f2093614289565b92805491828110613b0e5760a0613a99613aa59460019361300e565b9401519101549061300e565b808210613aff57613adf613ad8613ac36298968093613ae79561300e565b5f8051602061457d8339815191525490612ffb565b9384612ffb565b04809261300e565b9060405191613af583612aa7565b8252602082015290565b505050604051612d5d81612aa7565b5050505050604051612d5d81612aa7565b5f805160206147bd833981519152546001600160a01b03163303613b3f57565b63118cdaa760e01b5f523360045260245ffd5b9291905f9015612fc757613b66838561395a565b91613b72838587613a45565b92835194613b866020860196875190612bd5565b918215613f6c57613bc291608091895f525f805160206144fd83398151915260205260405f20908155600160a08301519101550191825161300e565b90525f805160206145dd833981519152805460405163fd44f92160e01b81529190602090839060049082906001600160a01b03165afa918215612a23575f92613f4b575b5060018060a01b035f8051602061471d8339815191525416928551613e12575b508551613c6f575b50505050916060917fc512f9d0bb2627096491f1074af42a5032fe36ef5dcae7c216cfc34f6ea474d6935190519060405192835260208301526040820152a1565b54604051638da5cb5b60e01b81529190602090839060049082906001600160a01b03165afa91821561097f578492613dd6575b505f805160206147bd833981519152805487516001600160a01b039384169493909116843b156114ab57604051633ea36c6b60e11b815291879183918291613cef91908a60048501612c15565b038183885af1801561235357908691613dc1575b5050548651906001600160a01b0316833b156114af57828691613d3b6040519485938493630373bbe360e01b85528a6004860161301b565b038183875af180156105f957908591613dac575b5050855192823b156114b35791613d819391858094604051968795869485936315abf79960e31b855260048501612c15565b03925af1801561131957613d97575b8080613c2e565b613da2828092612b0d565b6101e85780613d90565b81613db691612b0d565b61097357835f613d4f565b81613dcb91612b0d565b6114b357845f613d03565b9091506020813d602011613e0a575b81613df260209383612b0d565b8101031261097357613e0390612c37565b905f613ca2565b3d9150613de5565b5f805160206147bd833981519152805487516001600160a01b03868116939216833b156105ed57604051633ea36c6b60e11b8152915f9183918291613e5c91908c60048501612c15565b038183875af18015612a2357613f36575b50548751906001600160a01b0316823b1561136557838891613ea46040519485938493630373bbe360e01b85528c6004860161301b565b038183865af18015613f2b57908791613f16575b5050865191813b156114ab57918691613ee993836040518096819582946315abf79960e31b84528c60048501612c15565b03925af180156105f957908591613f01575b50613c26565b81613f0b91612b0d565b61097357835f613efb565b81613f2091612b0d565b6114af57855f613eb8565b6040513d89823e3d90fd5b613f439197505f90612b0d565b5f955f613e6d565b613f6591925060203d6020116121ec576121de8183612b0d565b905f613c06565b5050505050505050565b613f7f81613231565b90613f886134fa565b613fa48184515f95606060018060a01b03910151169085613b52565b5f8051602061469d833981519152825f525f805160206147fd83398151915260205260405f2060405190613fd782612ad6565b8054825260018101546020830181905260028201546040840190815260038301546001600160a01b031660608501908152600490930154608085015293906140209015156131f2565b61402a81546143ac565b9055516001600160a01b03165f9081525f8051602061451d83398151915260205260409020805461405a906143ac565b9055516141e2575b5190815f525f8051602061479d83398151915260205260405f2060ff198154169055825f525f805160206147fd8339815191526020525f60046040822082815582600182015582600282015582600382015501556140cd835f8051602061453d833981519152614437565b1561419357614115917f2931f8975c0ce3cdf8ebe0cac36f06048736d46d6df66ac21cfe717b9ee710066020604051868152a25f805160206148bd8339815191525490613732565b5f805160206145dd833981519152546001600160a01b0316803b156105ed575f809160246040518094819363ee22bfb760e01b83528760048401525af18015612a235761417e575b5081525f805160206144fd8339815191526020526001604082208281550155565b61418b9192505f90612b0d565b5f905f61415d565b60405162461bcd60e51b815260206004820152602160248201527f4661696c656420746f2072656d6f766520776f726b65722066726f6d206c69736044820152601d60fa1b6064820152608490fd5b6141f95f805160206148bd833981519152546143ac565b5f805160206148bd83398151915255614062565b61421690613231565b5f805160206145dd8339815191525460409182015191516321b9a09560e21b81526004810192909252608090829060249082906001600160a01b03165afa8015612a23576020915f9161426a575b50015190565b614283915060803d608011610b2e57610b1f8183612b0d565b5f614264565b5f805160206145dd8339815191529060ff5f8051602061467d83398151915254166003811015612a4d5760011461431d576142c66101609161420d565b9154604051631de5608360e21b81526004810193909352829060249082906001600160a01b03165afa8015612a235760c0915f916143045750015190565b61428391506101603d8111613a3957613a2b8183612b0d565b50505f90565b60ff5f8051602061487d8339815191525460401c161561433f57565b631afcd79f60e31b5f5260045ffd5b90614372575080511561436357805190602001fd5b63d6bda27560e01b5f5260045ffd5b815115806143a3575b614383575090565b639996b31560e01b5f9081526001600160a01b0391909116600452602490fd5b50803b1561437b565b8015612be2575f190190565b80548210156132d1575f5260205f2001905f90565b6001810190825f528160205260405f2054155f14614430578054600160401b811015612ac25761441d6144078260018794018555846143b8565b819391549060031b91821b915f19901b19161790565b905554915f5260205260405f2055600190565b5050505f90565b906001820191815f528260205260405f20548015155f146144f4575f198101818111612be25782545f19810191908211612be2578181036144bf575b505050805480156144ab575f19019061448c82826143b8565b8154905f199060031b1b19169055555f526020525f6040812055600190565b634e487b7160e01b5f52603160045260245ffd5b6144df6144cf61440793866143b8565b90549060031b1c928392866143b8565b90555f528360205260405f20555f8080614473565b505050505f9056fe75428af146c22440e807f0e095d3de8e8b2c98df829dea65bcfe27a85a56da9d5def38ecf5a0fa5e33a9a271693efbf3a526ddb1f7ef0ec33f3c6d26e39ee7165def38ecf5a0fa5e33a9a271693efbf3a526ddb1f7ef0ec33f3c6d26e39ee71975428af146c22440e807f0e095d3de8e8b2c98df829dea65bcfe27a85a56da9c136dd5357dcf392c42e49859cef979aa9638cbada31d1f29a19bc18654c3ba6675428af146c22440e807f0e095d3de8e8b2c98df829dea65bcfe27a85a56da9fcecd349d986645e1758ec135f91f1ad20564a8bcc6c2b5a5eaca9b09841495c5136dd5357dcf392c42e49859cef979aa9638cbada31d1f29a19bc18654c3ba5c136dd5357dcf392c42e49859cef979aa9638cbada31d1f29a19bc18654c3ba5e136dd5357dcf392c42e49859cef979aa9638cbada31d1f29a19bc18654c3ba65136dd5357dcf392c42e49859cef979aa9638cbada31d1f29a19bc18654c3ba64136dd5357dcf392c42e49859cef979aa9638cbada31d1f29a19bc18654c3ba61136dd5357dcf392c42e49859cef979aa9638cbada31d1f29a19bc18654c3ba635def38ecf5a0fa5e33a9a271693efbf3a526ddb1f7ef0ec33f3c6d26e39ee714c820a66d3bdd50a45cf12cda6dc8ec9e94fb5123edd7da736eea18316f8523a0136dd5357dcf392c42e49859cef979aa9638cbada31d1f29a19bc18654c3ba628be0079c531659141344cd1fd0a4f28419497f9722a3daafe3b4186f6b6457e0136dd5357dcf392c42e49859cef979aa9638cbada31d1f29a19bc18654c3ba60136dd5357dcf392c42e49859cef979aa9638cbada31d1f29a19bc18654c3ba5d75428af146c22440e807f0e095d3de8e8b2c98df829dea65bcfe27a85a56daa075428af146c22440e807f0e095d3de8e8b2c98df829dea65bcfe27a85a56da995def38ecf5a0fa5e33a9a271693efbf3a526ddb1f7ef0ec33f3c6d26e39ee718b13d3e7783d509d8d65d3e1e62ec0b103a07e0cbfa1ee74ae19127f297dddfcc38fb081a0b484406977bd94ff8edb79be44b5ca514130361182516b39e2c45285def38ecf5a0fa5e33a9a271693efbf3a526ddb1f7ef0ec33f3c6d26e39ee71775428af146c22440e807f0e095d3de8e8b2c98df829dea65bcfe27a85a56da989b779b17422d0df92223018b32b4d1fa46e071723d6817e2486d003becc55f0075428af146c22440e807f0e095d3de8e8b2c98df829dea65bcfe27a85a56da9af0c57e16840df040f15088dc2f81fe391c3923bec73e23a9662efc9c229c6a00136dd5357dcf392c42e49859cef979aa9638cbada31d1f29a19bc18654c3ba5f5def38ecf5a0fa5e33a9a271693efbf3a526ddb1f7ef0ec33f3c6d26e39ee71575428af146c22440e807f0e095d3de8e8b2c98df829dea65bcfe27a85a56da9e548c65cbf2bdf872afec988c5b3fb8afde695bac13e6d3020de483ba011bf21775428af146c22440e807f0e095d3de8e8b2c98df829dea65bcfe27a85a56da9ba264697066735822122056f68ae9d990af8a948ec6625387e7fe5ffc5dc05a59df867a6c882b213d95a364736f6c634300081a0033","linkReferences":{}},"methodIdentifiers":{"activateWorker(bytes32,bytes32)":"22ebd58a","addProviderToAccessList(address)":"73134c15","addWorker(address,(bytes32),bytes32)":"cef74c8b","appCID()":"9bc66868","changeProvidersAccessType(uint8)":"636fcefb","computePeerUsed(bytes32)":"bd1926e0","creationBlock()":"17634514","depositFromOwner(uint256)":"0574131f","getActivatedWorkerCount()":"ade0a202","getFreeBalance()":"e93c4f15","getMaxPaidEpoch()":"378b22e4","getProtocolVersion()":"33ce93fe","getRewardAmount(bytes32)":"1af57b96","getStatus()":"4e69d560","getWorker(bytes32)":"aba93a10","getWorkerCount()":"4d7599f1","getWorkerCount(address)":"59c4afc0","getWorkerIds()":"f2574c1b","initialize(address,(bytes4,bytes32),address,uint256,(bytes32,uint8,uint256)[],uint256,uint256,uint8,address[],uint256,address)":"84608454","isProviderAllowed(address)":"3e8ae1ae","maxWorkersPerProvider()":"8a0c725b","migrateToBalanceKeeper()":"630eceea","multicall(bytes[])":"ac9650d8","owner()":"8da5cb5b","paymentToken()":"3013ce29","pricePerEpoch()":"5fc8f59c","providersAccessType()":"d4773ff0","removeProviderFromAccessList(address)":"444e6a5a","removeStaleWorkers(bytes32[])":"cb7b88d1","removeWorker(bytes32)":"bc126f1f","renounceOwnership()":"715018a6","requiredResources()":"4e4d7af8","setAppCID((bytes4,bytes32))":"176474cf","stop()":"07da68f5","targetWorkers()":"2943dcab","transferOwnership(address)":"f2fde38b","withdraw(uint256)":"2e1a7d4d","withdrawRewards(bytes32)":"7dfb6626"},"storageLayout":{"storage":[],"types":{}},"devdoc":{"version":1,"kind":"dev","methods":{"activateWorker(bytes32,bytes32)":{"details":"Set offchain worker ID for a corresponding onchain worker for a deal"},"addProviderToAccessList(address)":{"details":"Adds a provider to the access list"},"addWorker(address,(bytes32),bytes32)":{"details":"Adds a compute unit to the deal","params":{"computeProvider":"The compute provider address","peerId":"The peer ID","workerData":"The worker with data"}},"appCID()":{"details":"Returns the app CID"},"changeProvidersAccessType(uint8)":{"details":"Change the providers access type"},"computePeerUsed(bytes32)":{"details":"Returns the boolean flag indicating whether the peer exists in the deal"},"constructor":{},"creationBlock()":{"details":"Returns the creation block of the deal"},"depositFromOwner(uint256)":{"details":"Deposits payment token to the deal"},"getActivatedWorkerCount()":{"details":"Returns the worker count. Worker is a compute unit that has a worker ID"},"getFreeBalance()":{"details":"Returns the free balance of the deal"},"getMaxPaidEpoch()":{"details":"Returns the max paid epoch"},"getProtocolVersion()":{"details":"Returns the protocol version"},"getRewardAmount(bytes32)":{"details":"Returns the reward amount by compute unit ID"},"getStatus()":{"details":"Returns the status of the deal"},"getWorkerCount()":{"details":"Returns total number of workers"},"getWorkerCount(address)":{"details":"Returns number of workers in provider"},"getWorkerIds()":{"details":"Returns workers registered in this deal"},"isProviderAllowed(address)":{"details":"Returns the boolean indicating whether the provider is allowed or not"},"maxWorkersPerProvider()":{"details":"Returns the max number of workers per provider"},"migrateToBalanceKeeper()":{"details":"Migrate balance to balance keeper"},"multicall(bytes[])":{"details":"Receives and executes a batch of function calls on this contract."},"owner()":{"details":"Returns the address of the current owner."},"paymentToken()":{"details":"Returns the payment token address"},"pricePerEpoch()":{"details":"Returns the price per epoch"},"providersAccessType()":{"details":"Returns the providers access type"},"removeProviderFromAccessList(address)":{"details":"Removes a provider from the access list"},"removeStaleWorkers(bytes32[])":{"details":"Allows oracle to remove worker from a deal that is not paying workers."},"removeWorker(bytes32)":{"details":"Removes a worker from the deal"},"renounceOwnership()":{"details":"Leaves the contract without owner. It will not be possible to call `onlyOwner` functions. Can only be called by the current owner. NOTE: Renouncing ownership will leave the contract without an owner, thereby disabling any functionality that is only available to the owner."},"requiredResources()":{"details":"Returns the price per epoch"},"setAppCID((bytes4,bytes32))":{"details":"Sets the app CID"},"stop()":{"details":"Stop the deal"},"targetWorkers()":{"details":"Returns the max number of workers"},"transferOwnership(address)":{"details":"Transfers ownership of the contract to a new account (`newOwner`). Can only be called by the current owner."},"withdraw(uint256)":{"details":"Withdraws payment token from the deal"},"withdrawRewards(bytes32)":{"details":"Withdraws rewards from the deal by compute unit ID"}},"events":{"AppCIDChanged((bytes4,bytes32))":{"details":"Emitted when the app CID is changed","params":{"newAppCID":"The new app CID"}},"DealEnded(uint256)":{"details":"Emitted when a deal is ended. This event can be emitted in the not-ended epoch. It can be emitted after the ended epoch in any epoch"},"Deposited(uint256)":{"details":"Emitted when a owner deposits payment token to the deal"},"Initialized(uint64)":{"details":"Triggered when the contract has been initialized or reinitialized."},"MaxPaidEpochUpdated(uint256)":{"details":"Emitted when a max paid epoch is updated"},"ProviderAddedToAccessList(address)":{"details":"Emitted when a provider is added to the access list","params":{"provider":"The provider address"}},"ProviderRemovedFromAccessList(address)":{"details":"Emitted when a provider is removed from the access list","params":{"provider":"The provider address"}},"ProvidersAccessTypeChanged(uint8)":{"details":"Emitted when the providers access type is changed","params":{"newAccessType":"The new access type"}},"RewardWithdrawn(bytes32,uint256,uint256)":{"details":"Emitted when a compute unit withdraws rewards from the deal"},"Withdrawn(uint256)":{"details":"Emitted when a owner withdraws payment token from the deal"},"WorkerIdUpdated(bytes32,bytes32)":{"details":"Emitted when a worker ID is updated","params":{"offchainWorkerId":"The new worker ID","onchainWorkerId":"The worker"}},"WorkerJoined(bytes32,bytes32)":{"details":"Emitted when a new worker is added","params":{"onchainId":"The worker ID","peerId":"The id of compute peer"}},"WorkerRemoved(bytes32,bytes32)":{"details":"Emitted when a worker is removed","params":{"onchainId":"The worker onchain ID","peerId":"The id of compute peer"}}},"errors":{"AddressEmptyCode(address)":[{"details":"There's no code at `target` (it is not a contract)."}],"FailedCall()":[{"details":"A call to an address target failed. The target may have reverted."}],"InvalidInitialization()":[{"details":"The contract is already initialized."}],"NotInitializing()":[{"details":"The contract is not initializing."}],"OwnableInvalidOwner(address)":[{"details":"The owner is not a valid owner account. (eg. `address(0)`)"}],"OwnableUnauthorizedAccount(address)":[{"details":"The caller account is not authorized to perform an operation."}],"ReentrancyGuardReentrantCall()":[{"details":"Unauthorized reentrant call."}],"SafeERC20FailedOperation(address)":[{"details":"An operation with an ERC-20 token failed."}]}},"id":99}