{"abi":[{"type":"function","name":"addBootstrapNode","inputs":[{"name":"netAddress","type":"string","internalType":"string"}],"outputs":[],"stateMutability":"nonpayable"},{"type":"function","name":"join","inputs":[{"name":"publicKey","type":"bytes","internalType":"bytes"}],"outputs":[],"stateMutability":"payable"},{"type":"function","name":"kill","inputs":[],"outputs":[],"stateMutability":"nonpayable"},{"type":"function","name":"leave","inputs":[],"outputs":[],"stateMutability":"nonpayable"},{"type":"function","name":"preFund","inputs":[],"outputs":[],"stateMutability":"payable"},{"type":"function","name":"preRelease","inputs":[{"name":"amount","type":"uint256","internalType":"uint256"}],"outputs":[],"stateMutability":"nonpayable"},{"type":"function","name":"setFederatedPower","inputs":[{"name":"validators","type":"address[]","internalType":"address[]"},{"name":"publicKeys","type":"bytes[]","internalType":"bytes[]"},{"name":"powers","type":"uint256[]","internalType":"uint256[]"}],"outputs":[],"stateMutability":"nonpayable"},{"type":"function","name":"stake","inputs":[],"outputs":[],"stateMutability":"payable"},{"type":"function","name":"unstake","inputs":[{"name":"amount","type":"uint256","internalType":"uint256"}],"outputs":[],"stateMutability":"nonpayable"},{"type":"event","name":"ActiveValidatorCollateralUpdated","inputs":[{"name":"validator","type":"address","indexed":false,"internalType":"address"},{"name":"newPower","type":"uint256","indexed":false,"internalType":"uint256"}],"anonymous":false},{"type":"event","name":"ActiveValidatorLeft","inputs":[{"name":"validator","type":"address","indexed":false,"internalType":"address"}],"anonymous":false},{"type":"event","name":"ActiveValidatorReplaced","inputs":[{"name":"oldValidator","type":"address","indexed":false,"internalType":"address"},{"name":"newValidator","type":"address","indexed":false,"internalType":"address"}],"anonymous":false},{"type":"event","name":"NewActiveValidator","inputs":[{"name":"validator","type":"address","indexed":false,"internalType":"address"},{"name":"power","type":"uint256","indexed":false,"internalType":"uint256"}],"anonymous":false},{"type":"event","name":"NewStakingChangeRequest","inputs":[{"name":"op","type":"uint8","indexed":false,"internalType":"enum StakingOperation"},{"name":"validator","type":"address","indexed":false,"internalType":"address"},{"name":"payload","type":"bytes","indexed":false,"internalType":"bytes"},{"name":"configurationNumber","type":"uint64","indexed":false,"internalType":"uint64"}],"anonymous":false},{"type":"event","name":"NewWaitingValidator","inputs":[{"name":"validator","type":"address","indexed":false,"internalType":"address"},{"name":"power","type":"uint256","indexed":false,"internalType":"uint256"}],"anonymous":false},{"type":"event","name":"Paused","inputs":[{"name":"account","type":"address","indexed":false,"internalType":"address"}],"anonymous":false},{"type":"event","name":"SubnetBootstrapped","inputs":[{"name":"","type":"tuple[]","indexed":false,"internalType":"struct Validator[]","components":[{"name":"weight","type":"uint256","internalType":"uint256"},{"name":"addr","type":"address","internalType":"address"},{"name":"metadata","type":"bytes","internalType":"bytes"}]}],"anonymous":false},{"type":"event","name":"Unpaused","inputs":[{"name":"account","type":"address","indexed":false,"internalType":"address"}],"anonymous":false},{"type":"event","name":"WaitingValidatorCollateralUpdated","inputs":[{"name":"validator","type":"address","indexed":false,"internalType":"address"},{"name":"newPower","type":"uint256","indexed":false,"internalType":"uint256"}],"anonymous":false},{"type":"event","name":"WaitingValidatorLeft","inputs":[{"name":"validator","type":"address","indexed":false,"internalType":"address"}],"anonymous":false},{"type":"error","name":"AddressInsufficientBalance","inputs":[{"name":"account","type":"address","internalType":"address"}]},{"type":"error","name":"AddressShouldBeValidator","inputs":[]},{"type":"error","name":"CannotReleaseZero","inputs":[]},{"type":"error","name":"CollateralIsZero","inputs":[]},{"type":"error","name":"DuplicatedGenesisValidator","inputs":[]},{"type":"error","name":"EmptyAddress","inputs":[]},{"type":"error","name":"EnforcedPause","inputs":[]},{"type":"error","name":"ExpectedPause","inputs":[]},{"type":"error","name":"FailedInnerCall","inputs":[]},{"type":"error","name":"InvalidFederationPayload","inputs":[]},{"type":"error","name":"InvalidPublicKeyLength","inputs":[]},{"type":"error","name":"MethodNotAllowed","inputs":[{"name":"reason","type":"string","internalType":"string"}]},{"type":"error","name":"NotAllValidatorsHaveLeft","inputs":[]},{"type":"error","name":"NotEnoughBalance","inputs":[]},{"type":"error","name":"NotEnoughCollateral","inputs":[]},{"type":"error","name":"NotEnoughFunds","inputs":[]},{"type":"error","name":"NotEnoughGenesisValidators","inputs":[]},{"type":"error","name":"NotOwnerOfPublicKey","inputs":[]},{"type":"error","name":"NotValidator","inputs":[{"name":"","type":"address","internalType":"address"}]},{"type":"error","name":"PQDoesNotContainAddress","inputs":[]},{"type":"error","name":"PQEmpty","inputs":[]},{"type":"error","name":"ReentrancyError","inputs":[]},{"type":"error","name":"SubnetAlreadyBootstrapped","inputs":[]},{"type":"error","name":"SubnetAlreadyKilled","inputs":[]},{"type":"error","name":"SubnetNotBootstrapped","inputs":[]},{"type":"error","name":"WithdrawExceedingCollateral","inputs":[]}],"bytecode":{"object":"0x608060405234801561001057600080fd5b50613227806100206000396000f3fe6080604052600436106100865760003560e01c806341c0e1b51161005957806341c0e1b5146100dd5780636170b162146100f257806366783c9b14610105578063d66d9e1914610125578063da5d09ee1461013a57600080fd5b80630b7fbe601461008b57806310fd4261146100955780632e17de78146100b55780633a4b66f1146100d5575b600080fd5b61009361015a565b005b3480156100a157600080fd5b506100936100b03660046128e0565b61023e565b3480156100c157600080fd5b506100936100d0366004612990565b6102c0565b6100936103b8565b3480156100e957600080fd5b50610093610460565b6100936101003660046129a9565b610534565b34801561011157600080fd5b50610093610120366004612990565b61069f565b34801561013157600080fd5b506100936107b8565b34801561014657600080fd5b50610093610155366004612a5e565b6108f2565b3460000361017b57604051631036b5ad60e31b815260040160405180910390fd5b600554600160f81b900460ff16156101a657604051631b39f2f360e11b815260040160405180910390fd5b336000908152601c602052604081205490036101ff57601d80546001810182556000919091527f6d4407e7be21f808e6509aa9fa9143369579dd7d760fe20a2c09680fc146134f0180546001600160a01b031916331790555b336000908152601c60205260408120805434929061021e908490612b0d565b9091555050600080543491908190610237908490612b0d565b9091555050565b6102466109ce565b610251600a33610a11565b61027557604051633b4f6e2b60e21b81523360048201526024015b60405180910390fd5b805160000361029757604051637138356f60e01b815260040160405180910390fd5b3360009081526017602052604090206102b08282612ba2565b506102bc601833610a29565b5050565b60008051602061318d8339815191528054600019016102f2576040516329f745a760e01b815260040160405180910390fd5b600181556102fe6109ce565b610306610a3e565b61030e610a69565b8160000361032f5760405163c79cad7b60e01b815260040160405180910390fd5b336000908152600c60205260408120600201549081900361036557604051633b4f6e2b60e21b815233600482015260240161026c565b8281116103845760405162d11df360e61b815260040160405180910390fd5b600554600160f81b900460ff166103a55761039f3384610ac1565b506103b1565b6103af3384610af5565b505b6000905550565b6103c06109ce565b6103c8610a3e565b6103d0610a69565b346000036103f157604051635a78c58160e11b815260040160405180910390fd5b6103fa33610b11565b610431576040518060600160405280602e815260200161315f602e913960405163015538b160e01b815260040161026c9190612ca7565b600554600160f81b900460ff166104565761044c3334610b34565b610454610d0e565b565b6104543334610e11565b610468610a3e565b610470610e2d565b61ffff161561049257604051636b62255160e11b815260040160405180910390fd5b600554600160f81b900460ff166104bc5760405163dfd06d8f60e01b815260040160405180910390fd5b6006805468ff00000000000000001916600160401b179055600554604080516341c0e1b560e01b815290516001600160a01b03909216916341c0e1b59160048082019260009290919082900301818387803b15801561051a57600080fd5b505af115801561052e573d6000803e3d6000fd5b50505050565b60008051602061318d833981519152805460001901610566576040516329f745a760e01b815260040160405180910390fd5b600181556105726109ce565b61057a610a3e565b600554600160f81b900460ff161561059457610594610a69565b346000036105b557604051635a78c58160e11b815260040160405180910390fd5b6105be33610b11565b156105f65760405180606001604052806032815260200161310d6032913960405163015538b160e01b815260040161026c9190612ca7565b60418214610617576040516318dca5e960e21b815260040160405180910390fd5b60006106238484610e4f565b90506001600160a01b038116331461064e57604051634be9251d60e11b815260040160405180910390fd5b600554600160f81b900460ff166106815761066a338585610e8f565b6106743334610b34565b61067c610d0e565b610696565b61068c338585610e9e565b6106963334610e11565b50600090555050565b60008051602061318d8339815191528054600019016106d1576040516329f745a760e01b815260040160405180910390fd5b6001815560008290036106f757604051631036b5ad60e31b815260040160405180910390fd5b600554600160f81b900460ff161561072257604051631b39f2f360e11b815260040160405180910390fd5b336000908152601c60205260409020548211156107525760405163569d45cf60e11b815260040160405180910390fd5b336000908152601c602052604081208054849290610771908490612cba565b909155505060008054839190819061078a908490612cba565b9091555050336000908152601c602052604081205490036107ae576107ae33610ead565b6103b13383610fb3565b60008051602061318d8339815191528054600019016107ea576040516329f745a760e01b815260040160405180910390fd5b600181556107f66109ce565b6107fe610a3e565b600554600160f81b900460ff161561081857610818610a69565b336000908152600c60205260408120600201549081900361084e57604051633b4f6e2b60e21b815233600482015260240161026c565b61085960183361104a565b503360009081526017602052604081206108729161287c565b600554600160f81b900460ff166108e057336000908152601c602052604090205480156108cf57336000908152601c602052805482919081906108b6908490612cba565b909155506108c5905033610ead565b6108cf3382610fb3565b6108d93383610ac1565b50506108ec565b6108ea3382610af5565b505b60009055565b6108fa610a3e565b73a69720798b23d82a6e4a7aeb1c043cd13cbb2c48331461094b5760405162461bcd60e51b815260206004820152600b60248201526a2bb937b7339037bbb732b960a91b604482015260640161026c565b61095361105f565b84811461097357604051637e65935960e01b815260040160405180910390fd5b84831461099357604051637e65935960e01b815260040160405180910390fd5b600554600160f81b900460ff16156109b8576109b3868686868686611068565b6109c6565b6109c686868686868661117b565b505050505050565b7fc451c9429c27db68f286ab8a68f311f1dccab703ba9423aed29cd397ae63f8635460ff16156104545760405163d93c066560e01b815260040160405180910390fd5b6000610a2060038401836114f7565b90505b92915050565b6000610a20836001600160a01b03841661151d565b600654600160401b900460ff16156104545760405163248c8efb60e11b815260040160405180910390fd5b6000805b600a82015460ff166002811115610a8657610a86612ccd565b14610abe576040518060800160405280604581526020016131ad6045913960405163015538b160e01b815260040161026c9190612ca7565b50565b6000610acf600a848461156c565b610add600a820184846115dc565b610af06001600160a01b03841683610fb3565b505050565b6000610b03601384846116c3565b610af0600a8201848461156c565b6001600160a01b0381166000908152600c60205260408120600201541515610a23565b6000610b42600a848461172d565b610b50600a82018484611763565b6005810154600160f81b900460ff16610af057601b810154600090815b81811015610bc757856001600160a01b031684601b018281548110610b9457610b94612ce3565b60009182526020909120600160039092020101546001600160a01b031603610bbf5760019250610bc7565b600101610b6d565b5081610d07576001600160a01b0385166000818152600c85016020818152604080842060018101548251606081018452818152808501889052968652939092526003909101805492949291830191610c1e90612b20565b80601f0160208091040260200160405190810160405280929190818152602001828054610c4a90612b20565b8015610c975780601f10610c6c57610100808354040283529160200191610c97565b820191906000526020600020905b815481529060010190602001808311610c7a57829003601f168201915b505050919092525050601b8601805460018082018355600092835260209283902084516003909302019182559183015191810180546001600160a01b0319166001600160a01b0390931692909217909155604082015191925082916002820190610d019082612ba2565b50505050505b5050505050565b600080610d196117d6565b9050816002015481106102bc5760068201546001600160401b0316610d3c6117e3565b61ffff16106102bc576005820180546001600160f81b0316600160f81b1790556040517f4914d88063275a25a13b2df37125e216745d812f94c56504be4bd78cf60c959390610d8f90601b850190612cf9565b60405180910390a1600582015482546001600160a01b039091169063f207564e90610dba9084612b0d565b845460405160e084901b6001600160e01b031916815260048101919091526024016000604051808303818588803b158015610df457600080fd5b505af1158015610e08573d6000803e3d6000fd5b50505050505050565b6000610e1f601384846117f0565b610af0600a8201848461172d565b600d546010546000918291610e499161ffff9081169116612df5565b91505090565b600060418214610e6157610e61612e10565b6000610e708360018187612e26565b604051610e7e929190612e50565b604051908190039020949350505050565b600061052e600a85858561184b565b600061052e6013858585611873565b601d54600090815b8181101561052e57836001600160a01b031683601d018281548110610edc57610edc612ce3565b6000918252602090912001546001600160a01b031603610fab57601d8301610f05600184612cba565b81548110610f1557610f15612ce3565b600091825260209091200154601d840180546001600160a01b039092169183908110610f4357610f43612ce3565b9060005260206000200160006101000a8154816001600160a01b0302191690836001600160a01b0316021790555082601d01805480610f8457610f84612e60565b600082815260209020810160001990810180546001600160a01b031916905501905561052e565b600101610eb5565b80471015610fd65760405163cd78605960e01b815230600482015260240161026c565b6000826001600160a01b03168260405160006040518083038185875af1925050503d8060008114611023576040519150601f19603f3d011682016040523d82523d6000602084013e611028565b606091505b5050905080610af057604051630a12f52160e11b815260040160405180910390fd5b6000610a20836001600160a01b0384166118e0565b60006001610a6d565b8460005b818110156111715760006110a287878481811061108b5761108b612ce3565b905060200281019061109d9190612e76565b610e4f565b90508888838181106110b6576110b6612ce3565b90506020020160208101906110cb9190612ebc565b6001600160a01b0316816001600160a01b0316146110fc57604051634be9251d60e11b815260040160405180910390fd5b61116889898481811061111157611111612ce3565b90506020020160208101906111269190612ebc565b88888581811061113857611138612ce3565b905060200281019061114a9190612e76565b88888781811061115c5761115c612ce3565b905060200201356119da565b5060010161106c565b5050505050505050565b60065460009086906001600160401b031681116111ab5760405163031480b160e51b815260040160405180910390fd5b60005b818110156114375760006111cd88888481811061108b5761108b612ce3565b90508989838181106111e1576111e1612ce3565b90506020020160208101906111f69190612ebc565b6001600160a01b0316816001600160a01b03161461122757604051634be9251d60e11b815260040160405180910390fd5b60006112588b8b8581811061123e5761123e612ce3565b90506020020160208101906112539190612ebc565b6119ea565b111561127757604051630472b35360e41b815260040160405180910390fd5b6112ca8a8a8481811061128c5761128c612ce3565b90506020020160208101906112a19190612ebc565b8989858181106112b3576112b3612ce3565b90506020028101906112c59190612e76565b610e8f565b6113128a8a848181106112df576112df612ce3565b90506020020160208101906112f49190612ebc565b87878581811061130657611306612ce3565b905060200201356119ff565b83601b01604051806060016040528088888681811061133357611333612ce3565b9050602002013581526020018c8c8681811061135157611351612ce3565b90506020020160208101906113669190612ebc565b6001600160a01b031681526020018a8a8681811061138657611386612ce3565b90506020028101906113989190612e76565b8080601f016020809104026020016040519081016040528093929190818152602001838380828437600092018290525093909452505083546001808201865594825260209182902084516003909202019081559083015193810180546001600160a01b0319166001600160a01b039095169490941790935550604081015190919060028201906114289082612ba2565b505050816001019150506111ae565b506005820180546001600160f81b0316600160f81b1790556040517f4914d88063275a25a13b2df37125e216745d812f94c56504be4bd78cf60c95939061148290601b850190612cf9565b60405180910390a160058201548254604051637903ab2760e11b8152600481018290526001600160a01b039092169163f207564e91906024016000604051808303818588803b1580156114d457600080fd5b505af11580156114e8573d6000803e3d6000fd5b50505050505050505050505050565b6001600160a01b038116600090815260018301602052604081205461ffff161515610a20565b600081815260018301602052604081205461156457508154600181810184556000848152602080822090930184905584548482528286019093526040902091909155610a23565b506000610a23565b6001600160a01b0382166000908152600280850160205260409091200154818110156115ab5760405163ac69360360e01b815260040160405180910390fd5b6115b58282612cba565b6001600160a01b039093166000908152600294850160205260409020909301919091555050565b6001600160a01b0382166000908152600284016020526040812060010154611605908390612cba565b6001600160a01b038416600090815260028087016020526040909120015490915081158015611632575080155b15611677576001600160a01b03841660009081526002808701602052604082208281556001810183905590810182905590611670600383018261287c565b5050611698565b6001600160a01b038416600090815260028601602052604090206001018290555b6116a3858584611a0d565b828560010160008282546116b79190612cba565b90915550505050505050565b6000816040516020016116d891815260200190565b604051602081830303815290604052905060006116f88585600185611cd3565b905060008051602061313f833981519152600185848460405161171e9493929190612f07565b60405180910390a15050505050565b6001600160a01b0382166000908152600280850160205260408220018054839290611759908490612b0d565b9091555050505050565b6001600160a01b038216600090815260028401602052604081206001015461178c908390612b0d565b6001600160a01b0384166000908152600286016020526040812060019081018390558601805492935084929091906117c5908490612b0d565b9091555061052e9050848483611dca565b600b546000908190610e49565b600080610e49600a611ff6565b60008160405160200161180591815260200190565b604051602081830303815290604052905060006118258585600085611cd3565b905060008051602061313f833981519152600085848460405161171e9493929190612f07565b6001600160a01b03831660009081526002850160205260409020600301610d07828483612f52565b60006118b88585600286868080601f016020809104026020016040519081016040528093929190818152602001838380828437600092019190915250611cd392505050565b905060008051602061313f83398151915260028585858560405161171e95949392919061303a565b600081815260018301602052604081205480156119c9576000611904600183612cba565b855490915060009061191890600190612cba565b905080821461197d57600086600001828154811061193857611938612ce3565b906000526020600020015490508087600001848154811061195b5761195b612ce3565b6000918252602080832090910192909255918252600188019052604090208390555b855486908061198e5761198e612e60565b600190038181906000526020600020016000905590558560010160008681526020019081526020016000206000905560019350505050610a23565b6000915050610a23565b5092915050565b6000610d07601386868686612007565b6000806119f8600a84612064565b9392505050565b6000610af0600a84846120c7565b611a1a60068401836114f7565b15611ac45780600003611a7757611a35600684018484612117565b6040516001600160a01b03831681527f3168ba660eed6ef1dc2258b2247cc05fd0f2f350d39e6ad2e2ebc76a8000b40b906020015b60405180910390a1505050565b611a856006840184846121a7565b604080516001600160a01b0384168152602081018390527fda148fac2e1063174be7bc0895576bdaba90fd14e575463fa26a967cb895cadd9101611a6a565b611ad160038401836114f7565b611aee57604051632a55ca5360e01b815260040160405180910390fd5b80600003611bbd57611b046003840184846121cf565b6040516001600160a01b03831681527f4a4c5d1a281180eea1e99d8177fa4798b9f7e019d5c57e7d8d73c6a22199aa5b9060200160405180910390a1600683015461ffff1615610af057600080611b5e600686018661225f565b9092509050611b7060068601866122a1565b611b7e6003860186846122ff565b604080516001600160a01b0384168152602081018390527f2e8038f5812f763c6ef0c5427cb5a05ce6d7064af2ba7d1d270bc02660b019fd910161171e565b611bcb600384018484612385565b600683015461ffff16600003611be057505050565b600080611bf0600386018661225f565b9092509050600080611c05600688018861225f565b9150915080831015611c9457611c1e600388018861239f565b611c2b60068801886122a1565b611c396003880188846122ff565b611c476006880188866123fd565b604080516001600160a01b038087168252841660208201527ffaeb8de771b867cf357f6b459a7002b62ec45d544a8078a3ecd91200cc826d7591015b60405180910390a150505050505050565b604080516001600160a01b0388168152602081018790527f143db27bc2036653dc6f962ff9d0b803163d4af50c256ca9e6927b3d6dcd01979101611c83565b835460408051606081019091526001600160401b039091169080846003811115611cff57611cff612ccd565b815260208082018590526001600160a01b0387166040928301526001600160401b03841660009081526001808a01909252919091208251815491929091839160ff1990911690836003811115611d5757611d57612ccd565b021790555060208201516001820190611d709082612ba2565b5060409190910151600290910180546001600160a01b0319166001600160a01b03909216919091179055611da5816001613087565b855467ffffffffffffffff19166001600160401b039190911617909455509192915050565b611dd760038401836114f7565b15611e2957611dea600384018484612483565b604080516001600160a01b0384168152602081018390527f143db27bc2036653dc6f962ff9d0b803163d4af50c256ca9e6927b3d6dcd01979101611a6a565b825461ffff610100909104166000611e46600386015461ffff1690565b90508061ffff168261ffff161115611ea557611e666003860186866122ff565b604080516001600160a01b0386168152602081018590527f2e8038f5812f763c6ef0c5427cb5a05ce6d7064af2ba7d1d270bc02660b019fd910161171e565b600080611eb5600388018861225f565b9150915084811015611f4a57611ece600388018861239f565b611edb60068801876114f7565b15611eee57611eee600688018888612117565b611efc6003880188886122ff565b611f0a6006880188846123fd565b604080516001600160a01b038085168252881660208201527ffaeb8de771b867cf357f6b459a7002b62ec45d544a8078a3ecd91200cc826d759101611c83565b611f5760068801876114f7565b15611fa957611f6a6006880188886124ab565b604080516001600160a01b0388168152602081018790527fda148fac2e1063174be7bc0895576bdaba90fd14e575463fa26a967cb895cadd9101611c83565b611fb76006880188886123fd565b604080516001600160a01b0388168152602081018790527f19fe3ca603e87854a0747cc10abf06bac64d61bac73d6d15f2fd3ca448f152649101611c83565b6000610a23826003015461ffff1690565b600083838360405160200161201e939291906130a7565b6040516020818303038152906040529050600061203e8787600385611cd3565b905060008051602061313f8339815191526003878484604051611c839493929190612f07565b60006001835460ff16600281111561207e5761207e612ccd565b036120a457506001600160a01b0381166000908152600283016020526040902054610a23565b506001600160a01b03166000908152600291909101602052604090206001015490565b6001600160a01b038216600090815260028401602052604090208054908290558181036120f45750505050565b8181101561210c57612107848484611dca565b61052e565b61052e848484611a0d565b600061212384836124c5565b845490915061ffff16612137858383612505565b6121426001826130cb565b855461ffff191661ffff9190911617855561215d85826125ba565b8161ffff168161ffff1603612173575050505050565b60006121808686856125ff565b905061218e86868584612631565b6121998686856125ff565b90506109c686868584612675565b60006121b384836124c5565b905060006121c18484612064565b9050610d0785858484612675565b60006121db84836124c5565b845490915061ffff166121ef858383612505565b6121fa6001826130cb565b855461ffff191661ffff9190911617855561221585826125ba565b8161ffff168161ffff160361222b575050505050565b60006122388686856125ff565b9050612246868685846126fd565b6122518686856125ff565b90506109c686868584612741565b60008061226b846127d2565b600160009081526002850160205260408120546001600160a01b0316906122928583612064565b919350909150505b9250929050565b6122aa826127d2565b815461ffff166122bc83600183612505565b6122c76001826130cb565b835461ffff191661ffff919091161783556122e283826125ba565b60006122f0848460016125ff565b905061052e8484600184612675565b82546000906123139061ffff166001612df5565b6001600160a01b03831660008181526001870160209081526040808320805461ffff871661ffff19918216811790925581855260028b0190935290832080546001600160a01b03191690941790935587541690911786559091506123778484612064565b9050610d07858584846126fd565b600061239184836124c5565b905060006123778484612064565b6123a8826127d2565b815461ffff166123ba83600183612505565b6123c56001826130cb565b835461ffff191661ffff919091161783556123e083826125ba565b60006123ee848460016125ff565b905061052e8484600184612741565b82546000906124119061ffff166001612df5565b6001600160a01b03831660008181526001870160209081526040808320805461ffff871661ffff19918216811790925581855260028b0190935290832080546001600160a01b03191690941790935587541690911786559091506124758484612064565b9050610d0785858484612631565b600061248f84836124c5565b9050600061249d8484612064565b9050610d0785858484612741565b60006124b784836124c5565b905060006124758484612064565b6001600160a01b038116600090815260018301602052604081205461ffff1690819003610a235760405163f2755e3760e01b815260040160405180910390fd5b825461ffff908116908316111561251e5761251e612e10565b825461ffff908116908216111561253757612537612e10565b61ffff9182166000818152600285016020818152604080842080549690971680855281852080546001600160a01b039889168088526001909b018552838720805461ffff19908116909417905590971680865291852080549091168617905591905283546001600160a01b03199081169096179093555281549092169091179055565b61ffff166000908152600282016020908152604080832080546001600160a01b031981169091556001600160a01b031683526001909301905220805461ffff19169055565b61ffff811660009081526002840160205260408120546001600160a01b03166126288482612064565b95945050505050565b6000805b60018461ffff1611156109c657617fff600185901c1691506126588686846125ff565b9050808311156109c65761266d868386612505565b819350612635565b83546201fffe600184901b169060009061ffff165b8061ffff168361ffff1611610e08578061ffff168361ffff1610156126c9576126bf8787856126ba816001612df5565b6127f8565b90935091506126d7565b6126d48787856125ff565b91505b83821115610e08576126ea878487612505565b9193506201fffe600185901b169161268a565b6000805b60018461ffff1611156109c657617fff600185901c1691506127248686846125ff565b9050808310156109c657612739868386612505565b819350612701565b600061274e8360026130e6565b855490915060009061ffff165b8061ffff168361ffff1611610e08578061ffff168361ffff16101561279a5761279087878561278b816001612df5565b61283c565b90935091506127a8565b6127a58787856125ff565b91505b83821015610e08576127bb878487612505565b8294508460026127cb91906130e6565b925061275b565b805461ffff16600003610abe576040516340d9b01160e01b815260040160405180910390fd5b600080806128078787876125ff565b905060006128168888876125ff565b90508181111561282c5784935091506128339050565b5084925090505b94509492505050565b6000808061284b8787876125ff565b9050600061285a8888876125ff565b905081811061286e57508492509050612833565b939793965092945050505050565b50805461288890612b20565b6000825580601f10612898575050565b601f016020900490600052602060002090810190610abe91905b808211156128c657600081556001016128b2565b5090565b634e487b7160e01b600052604160045260246000fd5b6000602082840312156128f257600080fd5b81356001600160401b038082111561290957600080fd5b818401915084601f83011261291d57600080fd5b81358181111561292f5761292f6128ca565b604051601f8201601f19908116603f01168101908382118183101715612957576129576128ca565b8160405282815287602084870101111561297057600080fd5b826020860160208301376000928101602001929092525095945050505050565b6000602082840312156129a257600080fd5b5035919050565b600080602083850312156129bc57600080fd5b82356001600160401b03808211156129d357600080fd5b818501915085601f8301126129e757600080fd5b8135818111156129f657600080fd5b866020828501011115612a0857600080fd5b60209290920196919550909350505050565b60008083601f840112612a2c57600080fd5b5081356001600160401b03811115612a4357600080fd5b6020830191508360208260051b850101111561229a57600080fd5b60008060008060008060608789031215612a7757600080fd5b86356001600160401b0380821115612a8e57600080fd5b612a9a8a838b01612a1a565b90985096506020890135915080821115612ab357600080fd5b612abf8a838b01612a1a565b90965094506040890135915080821115612ad857600080fd5b50612ae589828a01612a1a565b979a9699509497509295939492505050565b634e487b7160e01b600052601160045260246000fd5b80820180821115610a2357610a23612af7565b600181811c90821680612b3457607f821691505b602082108103612b5457634e487b7160e01b600052602260045260246000fd5b50919050565b601f821115610af0576000816000526020600020601f850160051c81016020861015612b835750805b601f850160051c820191505b818110156109c657828155600101612b8f565b81516001600160401b03811115612bbb57612bbb6128ca565b612bcf81612bc98454612b20565b84612b5a565b602080601f831160018114612c045760008415612bec5750858301515b600019600386901b1c1916600185901b1785556109c6565b600085815260208120601f198616915b82811015612c3357888601518255948401946001909101908401612c14565b5085821015612c515787850151600019600388901b60f8161c191681555b5050505050600190811b01905550565b6000815180845260005b81811015612c8757602081850181015186830182015201612c6b565b506000602082860101526020601f19601f83011685010191505092915050565b602081526000610a206020830184612c61565b81810381811115610a2357610a23612af7565b634e487b7160e01b600052602160045260246000fd5b634e487b7160e01b600052603260045260246000fd5b6000602080830181845280855480835260408601915060408160051b87010192506000878152848120815b83811015612de757888603603f190185528154865260018201546001600160a01b031687870152606060408701526002820180548490612d6381612b20565b8060608b01526001821660008114612d825760018114612d9e57612dcd565b60ff19831660808c0152608082151560051b8c01019350612dcd565b8488528b8820885b83811015612dc45781548d8201608001526001909101908d01612da6565b8c016080019450505b509198505050948701945060039190910190600101612d24565b509398975050505050505050565b61ffff8181168382160190808211156119d3576119d3612af7565b634e487b7160e01b600052600160045260246000fd5b60008085851115612e3657600080fd5b83861115612e4357600080fd5b5050820193919092039150565b8183823760009101908152919050565b634e487b7160e01b600052603160045260246000fd5b6000808335601e19843603018112612e8d57600080fd5b8301803591506001600160401b03821115612ea757600080fd5b60200191503681900382131561229a57600080fd5b600060208284031215612ece57600080fd5b81356001600160a01b03811681146119f857600080fd5b60048110612f0357634e487b7160e01b600052602160045260246000fd5b9052565b612f118186612ee5565b6001600160a01b0384166020820152608060408201819052600090612f3890830185612c61565b90506001600160401b038316606083015295945050505050565b6001600160401b03831115612f6957612f696128ca565b612f7d83612f778354612b20565b83612b5a565b6000601f841160018114612fb15760008515612f995750838201355b600019600387901b1c1916600186901b178355610d07565b600083815260209020601f19861690835b82811015612fe25786850135825560209485019460019092019101612fc2565b5086821015612fff5760001960f88860031b161c19848701351681555b505060018560011b0183555050505050565b81835281816020850137506000828201602090810191909152601f909101601f19169091010190565b6130448187612ee5565b6001600160a01b038516602082015260806040820181905260009061306c9083018587613011565b90506001600160401b03831660608301529695505050505050565b6001600160401b038181168382160190808211156119d3576119d3612af7565b6040815260006130bb604083018587613011565b9050826020830152949350505050565b61ffff8281168282160390808211156119d3576119d3612af7565b61ffff81811683821602808216919082811461310457613104612af7565b50509291505056fe4d6574686f64206e6f7420616c6c6f7765642069662076616c696461746f722068617320616c7265616479206a6f696e65641c593a2b803c3f9038e8b6743ba79fbc4276d2770979a01d2768ed12bea3243f4d6574686f64206e6f7420616c6c6f7765642069662076616c696461746f7220686173206e6f74206a6f696e6564691bb03ffc16c56fc96b82fd16cd1b3715f0bc3cdc6407005f49bb62058600954d6574686f64206e6f7420616c6c6f776564206966207065726d697373696f6e656420697320656e61626c656420616e64207375626e657420626f6f747374726170706564a2646970667358221220176720f75880c489fbd073546e9e176f2f837555e1c7442de4dd5e756f61035364736f6c63430008180033","linkReferences":{}},"methodIdentifiers":{"addBootstrapNode(string)":"10fd4261","join(bytes)":"6170b162","kill()":"41c0e1b5","leave()":"d66d9e19","preFund()":"0b7fbe60","preRelease(uint256)":"66783c9b","setFederatedPower(address[],bytes[],uint256[])":"da5d09ee","stake()":"3a4b66f1","unstake(uint256)":"2e17de78"},"id":100}