{"abi":[{"type":"constructor","inputs":[{"name":"axelarIts","type":"address","internalType":"address"},{"name":"destinationChain","type":"string","internalType":"string"},{"name":"destinationTokenHandler","type":"address","internalType":"address"}],"stateMutability":"nonpayable"},{"type":"function","name":"_axelarIts","inputs":[],"outputs":[{"name":"","type":"address","internalType":"contract IInterchainTokenService"}],"stateMutability":"view"},{"type":"function","name":"_destinationChain","inputs":[],"outputs":[{"name":"","type":"string","internalType":"string"}],"stateMutability":"view"},{"type":"function","name":"_destinationTokenHandler","inputs":[],"outputs":[{"name":"","type":"bytes","internalType":"bytes"}],"stateMutability":"view"},{"type":"function","name":"fundSubnet","inputs":[{"name":"tokenId","type":"bytes32","internalType":"bytes32"},{"name":"subnet","type":"tuple","internalType":"struct SubnetID","components":[{"name":"root","type":"uint64","internalType":"uint64"},{"name":"route","type":"address[]","internalType":"address[]"}]},{"name":"recipient","type":"address","internalType":"address"},{"name":"amount","type":"uint256","internalType":"uint256"}],"outputs":[],"stateMutability":"payable"}],"bytecode":{"object":"0x60a06040523480156200001157600080fd5b5060405162000cd938038062000cd98339810160408190526200003491620000d5565b6001600160a01b03831660805260006200004f838262000261565b506200005b8162000074565b6001906200006a908262000261565b505050506200032d565b6040805160148082528183019092526060916020820181803683375050506014808201939093529182525090565b80516001600160a01b0381168114620000ba57600080fd5b919050565b634e487b7160e01b600052604160045260246000fd5b600080600060608486031215620000eb57600080fd5b620000f684620000a2565b602085810151919450906001600160401b03808211156200011657600080fd5b818701915087601f8301126200012b57600080fd5b815181811115620001405762000140620000bf565b604051601f8201601f19908116603f011681019083821181831017156200016b576200016b620000bf565b816040528281528a868487010111156200018457600080fd5b600093505b82841015620001a8578484018601518185018701529285019262000189565b6000868483010152809750505050505050620001c760408501620000a2565b90509250925092565b600181811c90821680620001e557607f821691505b6020821081036200020657634e487b7160e01b600052602260045260246000fd5b50919050565b601f8211156200025c576000816000526020600020601f850160051c81016020861015620002375750805b601f850160051c820191505b81811015620002585782815560010162000243565b5050505b505050565b81516001600160401b038111156200027d576200027d620000bf565b62000295816200028e8454620001d0565b846200020c565b602080601f831160018114620002cd5760008415620002b45750858301515b600019600386901b1c1916600185901b17855562000258565b600085815260208120601f198616915b82811015620002fe57888601518255948401946001909101908401620002dd565b50858210156200031d5787850151600019600388901b60f8161c191681555b5050505050600190811b01905550565b60805161097c6200035d600039600081816081015281816101e1015281816104b3015261056c015261097c6000f3fe60806040526004361061003f5760003560e01c80631764e69a14610044578063341e045b1461006f5780636da183e2146100bb5780637a65207b146100d0575b600080fd5b34801561005057600080fd5b506100596100e5565b604051610066919061063d565b60405180910390f35b34801561007b57600080fd5b506100a37f000000000000000000000000000000000000000000000000000000000000000081565b6040516001600160a01b039091168152602001610066565b6100ce6100c936600461066f565b610173565b005b3480156100dc57600080fd5b506100596105ea565b600180546100f2906106d5565b80601f016020809104026020016040519081016040528092919081815260200182805461011e906106d5565b801561016b5780601f106101405761010080835404028352916020019161016b565b820191906000526020600020905b81548152906001019060200180831161014e57829003601f168201915b505050505081565b600034116101c85760405162461bcd60e51b815260206004820152601760248201527f676173207061796d656e7420697320726571756972656400000000000000000060448201526064015b60405180910390fd5b604051631a083d3960e01b8152600481018590526000907f00000000000000000000000000000000000000000000000000000000000000006001600160a01b031690631a083d3990602401602060405180830381865afa158015610230573d6000803e3d6000fd5b505050506040513d601f19601f82011682018060405250810190610254919061070f565b90506001600160a01b0381166102ac5760405162461bcd60e51b815260206004820152601f60248201527f636f756c64206e6f74207265736f6c766520746f6b656e20616464726573730060448201526064016101bf565b6040516370a0823160e01b8152336004820152819083906001600160a01b038316906370a0823190602401602060405180830381865afa1580156102f4573d6000803e3d6000fd5b505050506040513d601f19601f82011682018060405250810190610318919061072c565b10156103665760405162461bcd60e51b815260206004820152601a60248201527f696e73756666696369656e7420746f6b656e2062616c616e636500000000000060448201526064016101bf565b604051636eb1769f60e11b815233600482015230602482015283906001600160a01b0383169063dd62ed3e90604401602060405180830381865afa1580156103b2573d6000803e3d6000fd5b505050506040513d601f19601f820116820180604052508101906103d6919061072c565b10156104245760405162461bcd60e51b815260206004820152601c60248201527f696e73756666696369656e7420746f6b656e20616c6c6f77616e63650000000060448201526064016101bf565b6040516323b872dd60e01b8152336004820152306024820152604481018490526001600160a01b038216906323b872dd906064016020604051808303816000875af1158015610477573d6000803e3d6000fd5b505050506040513d601f19601f8201168201806040525081019061049b9190610745565b5060405163095ea7b360e01b81526001600160a01b037f0000000000000000000000000000000000000000000000000000000000000000811660048301526024820185905282169063095ea7b3906044016020604051808303816000875af115801561050b573d6000803e3d6000fd5b505050506040513d601f19601f8201168201806040525081019061052f9190610745565b50600085856040516020016105459291906107b0565b60408051601f19818403018152908290526325a2bc5d60e11b825291506001600160a01b037f00000000000000000000000000000000000000000000000000000000000000001690634b4578ba9034906105af908b906000906001908b90899087906004016108ed565b6000604051808303818588803b1580156105c857600080fd5b505af11580156105dc573d6000803e3d6000fd5b505050505050505050505050565b600080546100f2906106d5565b6000815180845260005b8181101561061d57602081850181015186830182015201610601565b506000602082860101526020601f19601f83011685010191505092915050565b60208152600061065060208301846105f7565b9392505050565b6001600160a01b038116811461066c57600080fd5b50565b6000806000806080858703121561068557600080fd5b84359350602085013567ffffffffffffffff8111156106a357600080fd5b8501604081880312156106b557600080fd5b925060408501356106c581610657565b9396929550929360600135925050565b600181811c908216806106e957607f821691505b60208210810361070957634e487b7160e01b600052602260045260246000fd5b50919050565b60006020828403121561072157600080fd5b815161065081610657565b60006020828403121561073e57600080fd5b5051919050565b60006020828403121561075757600080fd5b8151801515811461065057600080fd5b8183526000602080850194508260005b858110156107a557813561078a81610657565b6001600160a01b031687529582019590820190600101610777565b509495945050505050565b604081526000833567ffffffffffffffff8082168083146107d057600080fd5b60408501526020860135915036869003601e190182126107ef57600080fd5b602091860191820191358181111561080657600080fd5b8060051b360383131561081857600080fd5b6040606086015261082d608086018285610767565b935050505061065060208301846001600160a01b03169052565b8054600090600181811c908083168061086157607f831692505b6020808410820361088257634e487b7160e01b600052602260045260246000fd5b83885281801561089957600181146108b3576108e1565b60ff1986168983015284151560051b8901820196506108e1565b876000528160002060005b868110156108d95781548b82018501529085019083016108be565b8a0183019750505b50505050505092915050565b86815260c06020820152600061090660c0830188610847565b82810360408401526109188188610847565b9050856060840152828103608084015261093281866105f7565b9150508260a083015297965050505050505056fea26469706673582212203e0d4bc5842bc1a4c77227ba4d8ed2f1cdd3ce1e0c1f34f679dd61b9c8a3d16064736f6c63430008170033","linkReferences":{}},"methodIdentifiers":{"_axelarIts()":"341e045b","_destinationChain()":"7a65207b","_destinationTokenHandler()":"1764e69a","fundSubnet(bytes32,(uint64,address[]),address,uint256)":"6da183e2"},"id":102}