{"abi":[{"type":"function","name":"DEFAULT_DIFFICULTY_TARGET","inputs":[],"outputs":[{"name":"","type":"bytes32","internalType":"bytes32"}],"stateMutability":"view"},{"type":"function","name":"DEFAULT_EPOCH_DURATION","inputs":[],"outputs":[{"name":"","type":"uint256","internalType":"uint256"}],"stateMutability":"view"},{"type":"function","name":"DEFAULT_FLT_PRICE","inputs":[],"outputs":[{"name":"","type":"uint256","internalType":"uint256"}],"stateMutability":"view"},{"type":"function","name":"DEFAULT_INIT_GLOBAL_NONCE","inputs":[],"outputs":[{"name":"","type":"bytes32","internalType":"bytes32"}],"stateMutability":"view"},{"type":"function","name":"DEFAULT_INIT_REWARD_POOL","inputs":[],"outputs":[{"name":"","type":"uint256","internalType":"uint256"}],"stateMutability":"view"},{"type":"function","name":"DEFAULT_IS_WHITELIST_ENABLED","inputs":[],"outputs":[{"name":"","type":"bool","internalType":"bool"}],"stateMutability":"view"},{"type":"function","name":"DEFAULT_MAX_FAILED_RATIO","inputs":[],"outputs":[{"name":"","type":"uint256","internalType":"uint256"}],"stateMutability":"view"},{"type":"function","name":"DEFAULT_MAX_PROOFS_PER_EPOCH","inputs":[],"outputs":[{"name":"","type":"uint256","internalType":"uint256"}],"stateMutability":"view"},{"type":"function","name":"DEFAULT_MAX_PROTOCOL_VERSION","inputs":[],"outputs":[{"name":"","type":"uint256","internalType":"uint256"}],"stateMutability":"view"},{"type":"function","name":"DEFAULT_MAX_REWARD_PER_EPOCH","inputs":[],"outputs":[{"name":"","type":"uint256","internalType":"uint256"}],"stateMutability":"view"},{"type":"function","name":"DEFAULT_MIN_DEPOSITED_EPOCHS","inputs":[],"outputs":[{"name":"","type":"uint256","internalType":"uint256"}],"stateMutability":"view"},{"type":"function","name":"DEFAULT_MIN_DURATION","inputs":[],"outputs":[{"name":"","type":"uint256","internalType":"uint256"}],"stateMutability":"view"},{"type":"function","name":"DEFAULT_MIN_PROTOCOL_VERSION","inputs":[],"outputs":[{"name":"","type":"uint256","internalType":"uint256"}],"stateMutability":"view"},{"type":"function","name":"DEFAULT_MIN_REMATCHING_EPOCHS","inputs":[],"outputs":[{"name":"","type":"uint256","internalType":"uint256"}],"stateMutability":"view"},{"type":"function","name":"DEFAULT_MIN_REQUIERD_PROOFS_PER_EPOCH","inputs":[],"outputs":[{"name":"","type":"uint256","internalType":"uint256"}],"stateMutability":"view"},{"type":"function","name":"DEFAULT_MIN_REWARD_PER_EPOCH","inputs":[],"outputs":[{"name":"","type":"uint256","internalType":"uint256"}],"stateMutability":"view"},{"type":"function","name":"DEFAULT_SLASHING_RATE","inputs":[],"outputs":[{"name":"","type":"uint256","internalType":"uint256"}],"stateMutability":"view"},{"type":"function","name":"DEFAULT_USD_COLLATERAL_PER_UNIT","inputs":[],"outputs":[{"name":"","type":"uint256","internalType":"uint256"}],"stateMutability":"view"},{"type":"function","name":"DEFAULT_USD_TARGET_REVENUE_PER_EPOCH","inputs":[],"outputs":[{"name":"","type":"uint256","internalType":"uint256"}],"stateMutability":"view"},{"type":"function","name":"DEFAULT_VESTING_PERIOD_COUNT","inputs":[],"outputs":[{"name":"","type":"uint256","internalType":"uint256"}],"stateMutability":"view"},{"type":"function","name":"DEFAULT_VESTING_PERIOD_DURATION","inputs":[],"outputs":[{"name":"","type":"uint256","internalType":"uint256"}],"stateMutability":"view"},{"type":"function","name":"DEFAULT_WITHDRAW_EPOCHS_AFTER_FAILED","inputs":[],"outputs":[{"name":"","type":"uint256","internalType":"uint256"}],"stateMutability":"view"}],"bytecode":{"object":"0x6080806040523461001a576103059081610020823930815050f35b600080fdfe60806040818152600436101561001457600080fd5b600091823560e01c908163014848751461025657508063325c6217146101355780633bff1f6c1461013057806344573a5c1461020b5780635d40ef7d146102405780637ddf839e1461022757806393e6acb114610130578063950c369e146102105780639a2f79791461020b578063a9537db6146101ed578063b0b28248146101d1578063bc57bab614610150578063c4f4d76b1461019c578063c5409cb514610187578063c555f58f1461016f578063c9c28e5e14610150578063cec66a1514610155578063d0fffc8414610150578063d6c322cd1461013a578063e61b45e514610135578063eb0eb385146101305763eb31e2cb1461011457600080fd5b8160031936011261012c57602090516305f5e1008152f35b5080fd5b610288565b61026c565b508160031936011261012c576020905160038152f35b6102b8565b508160031936011261012c57602090516404a817c8008152f35b508160031936011261012c5760209051620186a08152f35b508160031936011261012c5751908152602090f35b508160031936011261012c57602090517f76889c92f61b9c5df216e048df56eb8f4eb02f172ab0d5b04edb9190ab9c9eec8152f35b508160031936011261012c57516001600160e01b038152602090f35b508160031936011261012c5760209051683635c9adc5dea000008152f35b61029f565b508160031936011261012c57602090516127108152f35b508160031936011261012c5760209051633b9aca008152f35b508160031936011261012c576020905160068152f35b83908160031936011261012c5780600560209252f35b6000366003190112610283576020604051600a8152f35b600080fd5b600036600319011261028357602060405160018152f35b6000366003190112610283576020604051620151808152f35b600036600319011261028357602060405160028152f3fea264697066735822122075f8f7749625c6335d31c8c7894b69b080087556e3ce076bfa7938d3971e99b464736f6c63430008180033","linkReferences":{}},"methodIdentifiers":{"DEFAULT_DIFFICULTY_TARGET()":"b0b28248","DEFAULT_EPOCH_DURATION()":"9a2f7979","DEFAULT_FLT_PRICE()":"eb31e2cb","DEFAULT_INIT_GLOBAL_NONCE()":"c4f4d76b","DEFAULT_INIT_REWARD_POOL()":"a9537db6","DEFAULT_IS_WHITELIST_ENABLED()":"c5409cb5","DEFAULT_MAX_FAILED_RATIO()":"325c6217","DEFAULT_MAX_PROOFS_PER_EPOCH()":"01484875","DEFAULT_MAX_PROTOCOL_VERSION()":"eb0eb385","DEFAULT_MAX_REWARD_PER_EPOCH()":"93e6acb1","DEFAULT_MIN_DEPOSITED_EPOCHS()":"c9c28e5e","DEFAULT_MIN_DURATION()":"44573a5c","DEFAULT_MIN_PROTOCOL_VERSION()":"3bff1f6c","DEFAULT_MIN_REMATCHING_EPOCHS()":"bc57bab6","DEFAULT_MIN_REQUIERD_PROOFS_PER_EPOCH()":"d6c322cd","DEFAULT_MIN_REWARD_PER_EPOCH()":"950c369e","DEFAULT_SLASHING_RATE()":"c555f58f","DEFAULT_USD_COLLATERAL_PER_UNIT()":"7ddf839e","DEFAULT_USD_TARGET_REVENUE_PER_EPOCH()":"cec66a15","DEFAULT_VESTING_PERIOD_COUNT()":"5d40ef7d","DEFAULT_VESTING_PERIOD_DURATION()":"e61b45e5","DEFAULT_WITHDRAW_EPOCHS_AFTER_FAILED()":"d0fffc84"},"devdoc":{"version":1,"kind":"dev"},"id":120}