{"abi":[{"type":"function","name":"aggregate","inputs":[{"name":"calls","type":"tuple[]","internalType":"struct Multicall3.Call[]","components":[{"name":"target","type":"address","internalType":"address"},{"name":"callData","type":"bytes","internalType":"bytes"}]}],"outputs":[{"name":"blockNumber","type":"uint256","internalType":"uint256"},{"name":"returnData","type":"bytes[]","internalType":"bytes[]"}],"stateMutability":"payable"},{"type":"function","name":"aggregate3","inputs":[{"name":"calls","type":"tuple[]","internalType":"struct Multicall3.Call3[]","components":[{"name":"target","type":"address","internalType":"address"},{"name":"allowFailure","type":"bool","internalType":"bool"},{"name":"callData","type":"bytes","internalType":"bytes"}]}],"outputs":[{"name":"returnData","type":"tuple[]","internalType":"struct Multicall3.Result[]","components":[{"name":"success","type":"bool","internalType":"bool"},{"name":"returnData","type":"bytes","internalType":"bytes"}]}],"stateMutability":"payable"},{"type":"function","name":"aggregate3Value","inputs":[{"name":"calls","type":"tuple[]","internalType":"struct Multicall3.Call3Value[]","components":[{"name":"target","type":"address","internalType":"address"},{"name":"allowFailure","type":"bool","internalType":"bool"},{"name":"value","type":"uint256","internalType":"uint256"},{"name":"callData","type":"bytes","internalType":"bytes"}]}],"outputs":[{"name":"returnData","type":"tuple[]","internalType":"struct Multicall3.Result[]","components":[{"name":"success","type":"bool","internalType":"bool"},{"name":"returnData","type":"bytes","internalType":"bytes"}]}],"stateMutability":"payable"},{"type":"function","name":"blockAndAggregate","inputs":[{"name":"calls","type":"tuple[]","internalType":"struct Multicall3.Call[]","components":[{"name":"target","type":"address","internalType":"address"},{"name":"callData","type":"bytes","internalType":"bytes"}]}],"outputs":[{"name":"blockNumber","type":"uint256","internalType":"uint256"},{"name":"blockHash","type":"bytes32","internalType":"bytes32"},{"name":"returnData","type":"tuple[]","internalType":"struct Multicall3.Result[]","components":[{"name":"success","type":"bool","internalType":"bool"},{"name":"returnData","type":"bytes","internalType":"bytes"}]}],"stateMutability":"payable"},{"type":"function","name":"getBasefee","inputs":[],"outputs":[{"name":"basefee","type":"uint256","internalType":"uint256"}],"stateMutability":"view"},{"type":"function","name":"getBlockHash","inputs":[{"name":"blockNumber","type":"uint256","internalType":"uint256"}],"outputs":[{"name":"blockHash","type":"bytes32","internalType":"bytes32"}],"stateMutability":"view"},{"type":"function","name":"getBlockNumber","inputs":[],"outputs":[{"name":"blockNumber","type":"uint256","internalType":"uint256"}],"stateMutability":"view"},{"type":"function","name":"getChainId","inputs":[],"outputs":[{"name":"chainid","type":"uint256","internalType":"uint256"}],"stateMutability":"view"},{"type":"function","name":"getCurrentBlockCoinbase","inputs":[],"outputs":[{"name":"coinbase","type":"address","internalType":"address"}],"stateMutability":"view"},{"type":"function","name":"getCurrentBlockGasLimit","inputs":[],"outputs":[{"name":"gaslimit","type":"uint256","internalType":"uint256"}],"stateMutability":"view"},{"type":"function","name":"getCurrentBlockTimestamp","inputs":[],"outputs":[{"name":"timestamp","type":"uint256","internalType":"uint256"}],"stateMutability":"view"},{"type":"function","name":"getEthBalance","inputs":[{"name":"addr","type":"address","internalType":"address"}],"outputs":[{"name":"balance","type":"uint256","internalType":"uint256"}],"stateMutability":"view"},{"type":"function","name":"getLastBlockHash","inputs":[],"outputs":[{"name":"blockHash","type":"bytes32","internalType":"bytes32"}],"stateMutability":"view"},{"type":"function","name":"getPrevrandao","inputs":[],"outputs":[{"name":"difficulty","type":"uint256","internalType":"uint256"}],"stateMutability":"view"},{"type":"function","name":"tryAggregate","inputs":[{"name":"requireSuccess","type":"bool","internalType":"bool"},{"name":"calls","type":"tuple[]","internalType":"struct Multicall3.Call[]","components":[{"name":"target","type":"address","internalType":"address"},{"name":"callData","type":"bytes","internalType":"bytes"}]}],"outputs":[{"name":"returnData","type":"tuple[]","internalType":"struct Multicall3.Result[]","components":[{"name":"success","type":"bool","internalType":"bool"},{"name":"returnData","type":"bytes","internalType":"bytes"}]}],"stateMutability":"payable"},{"type":"function","name":"tryBlockAndAggregate","inputs":[{"name":"requireSuccess","type":"bool","internalType":"bool"},{"name":"calls","type":"tuple[]","internalType":"struct Multicall3.Call[]","components":[{"name":"target","type":"address","internalType":"address"},{"name":"callData","type":"bytes","internalType":"bytes"}]}],"outputs":[{"name":"blockNumber","type":"uint256","internalType":"uint256"},{"name":"blockHash","type":"bytes32","internalType":"bytes32"},{"name":"returnData","type":"tuple[]","internalType":"struct Multicall3.Result[]","components":[{"name":"success","type":"bool","internalType":"bool"},{"name":"returnData","type":"bytes","internalType":"bytes"}]}],"stateMutability":"payable"}],"bytecode":{"object":"0x6080806040523461001657610ac1908161001c8239f35b600080fdfe6080604052600436101561001257600080fd5b60003560e01c80630f28c97d14610117578063174dea7114610112578063252dba421461010d57806327e86d6e146101085780633408e47014610103578063399542e9146100fe5780633e64a696146100f957806342cbb15c146100f45780634d2301cc146100ef57806382ad56cb146100ea57806386d516e8146100e55780638ce9acbb146100e0578063a8b0574e146100db578063bce38bd7146100d6578063c3077fa9146100d15763ee82ac5e146100cc57600080fd5b610772565b6106d8565b6106b5565b61069a565b61067f565b610664565b61059a565b610572565b610546565b61052b565b610507565b610498565b610478565b6103b7565b610259565b34610132576000366003190112610132576020604051428152f35b600080fd5b9181601f84011215610132578235916001600160401b038311610132576020808501948460051b01011161013257565b602060031982011261013257600435906001600160401b0382116101325761019191600401610137565b9091565b919082519283825260005b8481106101c1575050826000602080949584010152601f8019910116010190565b6020818301810151848301820152016101a0565b908082519081815260208091019281808460051b8301019501936000915b8483106102035750505050505090565b9091929394958480610235600193601f198682030187528a518360409180511515845201519181858201520190610195565b98019301930191949392906101f3565b9060206102569281815201906101d5565b90565b61026236610167565b600061026d826107e7565b9160005b8181106102975761029384610287853414610922565b60405191829182610245565b0390f35b6102a18185610862565b516102ad82848861087b565b60008060406102e181850135809901986102c68661089d565b926102d460608801886108a7565b93909151809481936108d9565b03925af1916102ee6108e7565b90610303602094859384840152829015159052565b5191013517156103165750600101610271565b62461bcd60e51b600052600452601760245276135d5b1d1a58d85b1b0cce8818d85b1b0819985a5b1959604a1b60445260846000fd5b906040820190825260206040602084015283518092526060830192602060608460051b8301019501936000915b8483106103895750505050505090565b90919293949584806103a7600193605f198682030187528a51610195565b9801930193019194939290610379565b6103c036610167565b906103d26103cd836107d0565b6107a6565b82815291601f196103e2826107d0565b0160005b81811061046757505060005b818110610408576040518061029386438361034c565b8061046160008061041c600195878961096b565b816104346104298361089d565b9260208101906108a7565b9190610445604051809481936108d9565b03925af16104516108e7565b61045b8489610862565b5261098d565b016103f2565b8060606020809388010152016103e6565b346101325760003660031901126101325760206040516000194301408152f35b34610132576000366003190112610132576020604051468152f35b9060406003198301126101325760043580151581036101325791602435906001600160401b0382116101325761019191600401610137565b61025693926060928252602082015281604082015201906101d5565b61029361051c610516366104b3565b916109f5565b604051918291434043846104eb565b34610132576000366003190112610132576020604051488152f35b34610132576000366003190112610132576020604051438152f35b6001600160a01b0381160361013257565b3461013257602036600319011261013257602060043561059181610561565b31604051908152f35b6105a336610167565b6105ac816107e7565b9060005b8181106105c557604051806102938582610245565b6105cf8184610862565b516105db8284876109d3565b6000806105e78361089d565b6105f98260406102d4818801886108a7565b03925af1916106066108e7565b9061061b602094859384840152829015159052565b51910135171561062e57506001016105b0565b62461bcd60e51b600052600452601760245276135d5b1d1a58d85b1b0cce8818d85b1b0819985a5b1959604a1b60445260646000fd5b34610132576000366003190112610132576020604051458152f35b34610132576000366003190112610132576020604051448152f35b34610132576000366003190112610132576020604051418152f35b6102936106c4610516366104b3565b6040519182916020835260208301906101d5565b6106e136610167565b6106ea816107e7565b9160005b82811061070757604051806102938643804090846104eb565b8061076c61071760019387610862565b5161072383878761096b565b600080823561073181610561565b81610741602095868101906108a7565b9190826040519384928337810182815203925af19061075e6108e7565b90830152151580915261098d565b016106ee565b34610132576020366003190112610132576020604051600435408152f35b634e487b7160e01b600052604160045260246000fd5b6040519190601f01601f191682016001600160401b038111838210176107cb57604052565b610790565b6001600160401b0381116107cb5760051b60200190565b906107f46103cd836107d0565b8281528092610805601f19916107d0565b016000805b8281106108175750505050565b604080519091908083016001600160401b038111828210176107cb57602093528381528260608183015282870101520161080a565b634e487b7160e01b600052603260045260246000fd5b80518210156108765760209160051b010190565b61084c565b91908110156108765760051b81013590607e1981360301821215610132570190565b3561025681610561565b903590601e198136030182121561013257018035906001600160401b0382116101325760200191813603831361013257565b908092918237016000815290565b3d1561091d573d906001600160401b0382116107cb57610910601f8301601f19166020016107a6565b9182523d6000602084013e565b606090565b1561092957565b60405162461bcd60e51b815260206004820152601a60248201527909aead8e8d2c6c2d8d8667440ecc2d8eaca40dad2e6dac2e8c6d60331b6044820152606490fd5b91908110156108765760051b81013590603e1981360301821215610132570190565b1561099457565b60405162461bcd60e51b8152602060048201526017602482015276135d5b1d1a58d85b1b0cce8818d85b1b0819985a5b1959604a1b6044820152606490fd5b91908110156108765760051b81013590605e1981360301821215610132570190565b929190610a01826107e7565b9360005b838110610a125750505050565b80610a1f60019288610862565b5183610a2c83888861096b565b6000808235610a3a81610561565b81610a4a602095868101906108a7565b9190826040519384928337810182815203925af190610a676108e7565b908401521515809252610a7c575b5001610a05565b610a859061098d565b38610a7556fea264697066735822122088dadca30f29a08f158466991af8bc6fe27b9707d7f9f00e01f74e8071adfa9264736f6c63430008180033","linkReferences":{}},"methodIdentifiers":{"aggregate((address,bytes)[])":"252dba42","aggregate3((address,bool,bytes)[])":"82ad56cb","aggregate3Value((address,bool,uint256,bytes)[])":"174dea71","blockAndAggregate((address,bytes)[])":"c3077fa9","getBasefee()":"3e64a696","getBlockHash(uint256)":"ee82ac5e","getBlockNumber()":"42cbb15c","getChainId()":"3408e470","getCurrentBlockCoinbase()":"a8b0574e","getCurrentBlockGasLimit()":"86d516e8","getCurrentBlockTimestamp()":"0f28c97d","getEthBalance(address)":"4d2301cc","getLastBlockHash()":"27e86d6e","getPrevrandao()":"8ce9acbb","tryAggregate(bool,(address,bytes)[])":"bce38bd7","tryBlockAndAggregate(bool,(address,bytes)[])":"399542e9"},"devdoc":{"version":1,"kind":"dev","author":"Michael Elliot <mike@makerdao.com>Joshua Levine <joshua@makerdao.com>Nick Johnson <arachnid@notdot.net>Andreas Bigger <andreas@nascent.xyz>Matt Solomon <matt@mattsolomon.dev>","details":"In FluenceLabs it used only for batch reading from Fluence frontends, CLIs.Ref to https://github.com/mds1/multicall/blob/main/src/Multicall3.sol.Multicall & Multicall2 backwards-compatibleAggregate methods are marked `payable` to save 24 gas per call","methods":{"aggregate((address,bytes)[])":{"params":{"calls":"An array of Call structs"},"returns":{"blockNumber":"The block number where the calls were executed","returnData":"An array of bytes containing the responses"}},"aggregate3((address,bool,bytes)[])":{"params":{"calls":"An array of Call3 structs"},"returns":{"returnData":"An array of Result structs"}},"aggregate3Value((address,bool,uint256,bytes)[])":{"params":{"calls":"An array of Call3Value structs"},"returns":{"returnData":"An array of Result structs"}},"blockAndAggregate((address,bytes)[])":{"params":{"calls":"An array of Call structs"},"returns":{"blockHash":"The hash of the block where the calls were executed","blockNumber":"The block number where the calls were executed","returnData":"An array of Result structs"}},"getBlockHash(uint256)":{"params":{"blockNumber":"The block number"}},"tryAggregate(bool,(address,bytes)[])":{"params":{"calls":"An array of Call structs","requireSuccess":"If true, require all calls to succeed"},"returns":{"returnData":"An array of Result structs"}},"tryBlockAndAggregate(bool,(address,bytes)[])":{"params":{"calls":"An array of Call structs"},"returns":{"blockHash":"The hash of the block where the calls were executed","blockNumber":"The block number where the calls were executed","returnData":"An array of Result structs"}}},"title":"Multicall3"},"id":104}