{"abi":[{"type":"function","name":"aggregate","inputs":[{"name":"calls","type":"tuple[]","internalType":"struct Multicall3.Call[]","components":[{"name":"target","type":"address","internalType":"address"},{"name":"callData","type":"bytes","internalType":"bytes"}]}],"outputs":[{"name":"blockNumber","type":"uint256","internalType":"uint256"},{"name":"returnData","type":"bytes[]","internalType":"bytes[]"}],"stateMutability":"payable"},{"type":"function","name":"aggregate3","inputs":[{"name":"calls","type":"tuple[]","internalType":"struct Multicall3.Call3[]","components":[{"name":"target","type":"address","internalType":"address"},{"name":"allowFailure","type":"bool","internalType":"bool"},{"name":"callData","type":"bytes","internalType":"bytes"}]}],"outputs":[{"name":"returnData","type":"tuple[]","internalType":"struct Multicall3.Result[]","components":[{"name":"success","type":"bool","internalType":"bool"},{"name":"returnData","type":"bytes","internalType":"bytes"}]}],"stateMutability":"payable"},{"type":"function","name":"aggregate3Value","inputs":[{"name":"calls","type":"tuple[]","internalType":"struct Multicall3.Call3Value[]","components":[{"name":"target","type":"address","internalType":"address"},{"name":"allowFailure","type":"bool","internalType":"bool"},{"name":"value","type":"uint256","internalType":"uint256"},{"name":"callData","type":"bytes","internalType":"bytes"}]}],"outputs":[{"name":"returnData","type":"tuple[]","internalType":"struct Multicall3.Result[]","components":[{"name":"success","type":"bool","internalType":"bool"},{"name":"returnData","type":"bytes","internalType":"bytes"}]}],"stateMutability":"payable"},{"type":"function","name":"blockAndAggregate","inputs":[{"name":"calls","type":"tuple[]","internalType":"struct Multicall3.Call[]","components":[{"name":"target","type":"address","internalType":"address"},{"name":"callData","type":"bytes","internalType":"bytes"}]}],"outputs":[{"name":"blockNumber","type":"uint256","internalType":"uint256"},{"name":"blockHash","type":"bytes32","internalType":"bytes32"},{"name":"returnData","type":"tuple[]","internalType":"struct Multicall3.Result[]","components":[{"name":"success","type":"bool","internalType":"bool"},{"name":"returnData","type":"bytes","internalType":"bytes"}]}],"stateMutability":"payable"},{"type":"function","name":"getBasefee","inputs":[],"outputs":[{"name":"basefee","type":"uint256","internalType":"uint256"}],"stateMutability":"view"},{"type":"function","name":"getBlockHash","inputs":[{"name":"blockNumber","type":"uint256","internalType":"uint256"}],"outputs":[{"name":"blockHash","type":"bytes32","internalType":"bytes32"}],"stateMutability":"view"},{"type":"function","name":"getBlockNumber","inputs":[],"outputs":[{"name":"blockNumber","type":"uint256","internalType":"uint256"}],"stateMutability":"view"},{"type":"function","name":"getChainId","inputs":[],"outputs":[{"name":"chainid","type":"uint256","internalType":"uint256"}],"stateMutability":"view"},{"type":"function","name":"getCurrentBlockCoinbase","inputs":[],"outputs":[{"name":"coinbase","type":"address","internalType":"address"}],"stateMutability":"view"},{"type":"function","name":"getCurrentBlockGasLimit","inputs":[],"outputs":[{"name":"gaslimit","type":"uint256","internalType":"uint256"}],"stateMutability":"view"},{"type":"function","name":"getCurrentBlockTimestamp","inputs":[],"outputs":[{"name":"timestamp","type":"uint256","internalType":"uint256"}],"stateMutability":"view"},{"type":"function","name":"getEthBalance","inputs":[{"name":"addr","type":"address","internalType":"address"}],"outputs":[{"name":"balance","type":"uint256","internalType":"uint256"}],"stateMutability":"view"},{"type":"function","name":"getLastBlockHash","inputs":[],"outputs":[{"name":"blockHash","type":"bytes32","internalType":"bytes32"}],"stateMutability":"view"},{"type":"function","name":"tryAggregate","inputs":[{"name":"requireSuccess","type":"bool","internalType":"bool"},{"name":"calls","type":"tuple[]","internalType":"struct Multicall3.Call[]","components":[{"name":"target","type":"address","internalType":"address"},{"name":"callData","type":"bytes","internalType":"bytes"}]}],"outputs":[{"name":"returnData","type":"tuple[]","internalType":"struct Multicall3.Result[]","components":[{"name":"success","type":"bool","internalType":"bool"},{"name":"returnData","type":"bytes","internalType":"bytes"}]}],"stateMutability":"payable"},{"type":"function","name":"tryBlockAndAggregate","inputs":[{"name":"requireSuccess","type":"bool","internalType":"bool"},{"name":"calls","type":"tuple[]","internalType":"struct Multicall3.Call[]","components":[{"name":"target","type":"address","internalType":"address"},{"name":"callData","type":"bytes","internalType":"bytes"}]}],"outputs":[{"name":"blockNumber","type":"uint256","internalType":"uint256"},{"name":"blockHash","type":"bytes32","internalType":"bytes32"},{"name":"returnData","type":"tuple[]","internalType":"struct Multicall3.Result[]","components":[{"name":"success","type":"bool","internalType":"bool"},{"name":"returnData","type":"bytes","internalType":"bytes"}]}],"stateMutability":"payable"}],"bytecode":{"object":"0x6080806040523461001657610a96908161001c8239f35b600080fdfe6080604052600436101561001257600080fd5b60003560e01c80630f28c97d14610107578063174dea7114610102578063252dba42146100fd57806327e86d6e146100f85780633408e470146100f3578063399542e9146100ee5780633e64a696146100e957806342cbb15c146100e45780634d2301cc146100df57806382ad56cb146100da57806386d516e8146100d5578063a8b0574e146100d0578063bce38bd7146100cb578063c3077fa9146100c65763ee82ac5e146100c157600080fd5b610747565b6106ad565b61068a565b61066f565b610654565b61058a565b610562565b610536565b61051b565b6104f7565b610488565b610468565b6103a7565b610249565b34610122576000366003190112610122576020604051428152f35b600080fd5b9181601f84011215610122578235916001600160401b038311610122576020808501948460051b01011161012257565b602060031982011261012257600435906001600160401b0382116101225761018191600401610127565b9091565b919082519283825260005b8481106101b1575050826000602080949584010152601f8019910116010190565b602081830181015184830182015201610190565b908082519081815260208091019281808460051b8301019501936000915b8483106101f35750505050505090565b9091929394958480610225600193601f198682030187528a518360409180511515845201519181858201520190610185565b98019301930191949392906101e3565b9060206102469281815201906101c5565b90565b61025236610157565b600061025d826107bc565b9160005b81811061028757610283846102778534146108f7565b60405191829182610235565b0390f35b6102918185610837565b5161029d828488610850565b60008060406102d181850135809901986102b686610872565b926102c4606088018861087c565b93909151809481936108ae565b03925af1916102de6108bc565b906102f3602094859384840152829015159052565b5191013517156103065750600101610261565b62461bcd60e51b600052600452601760245276135d5b1d1a58d85b1b0cce8818d85b1b0819985a5b1959604a1b60445260846000fd5b906040820190825260206040602084015283518092526060830192602060608460051b8301019501936000915b8483106103795750505050505090565b9091929394958480610397600193605f198682030187528a51610185565b9801930193019194939290610369565b6103b036610157565b906103c26103bd836107a5565b61077b565b82815291601f196103d2826107a5565b0160005b81811061045757505060005b8181106103f8576040518061028386438361033c565b8061045160008061040c6001958789610940565b8161042461041983610872565b92602081019061087c565b9190610435604051809481936108ae565b03925af16104416108bc565b61044b8489610837565b52610962565b016103e2565b8060606020809388010152016103d6565b346101225760003660031901126101225760206040516000194301408152f35b34610122576000366003190112610122576020604051468152f35b9060406003198301126101225760043580151581036101225791602435906001600160401b0382116101225761018191600401610127565b61024693926060928252602082015281604082015201906101c5565b61028361050c610506366104a3565b916109ca565b604051918291434043846104db565b34610122576000366003190112610122576020604051488152f35b34610122576000366003190112610122576020604051438152f35b6001600160a01b0381160361012257565b3461012257602036600319011261012257602060043561058181610551565b31604051908152f35b61059336610157565b61059c816107bc565b9060005b8181106105b557604051806102838582610235565b6105bf8184610837565b516105cb8284876109a8565b6000806105d783610872565b6105e98260406102c48188018861087c565b03925af1916105f66108bc565b9061060b602094859384840152829015159052565b51910135171561061e57506001016105a0565b62461bcd60e51b600052600452601760245276135d5b1d1a58d85b1b0cce8818d85b1b0819985a5b1959604a1b60445260646000fd5b34610122576000366003190112610122576020604051458152f35b34610122576000366003190112610122576020604051418152f35b610283610699610506366104a3565b6040519182916020835260208301906101c5565b6106b636610157565b6106bf816107bc565b9160005b8281106106dc57604051806102838643804090846104db565b806107416106ec60019387610837565b516106f8838787610940565b600080823561070681610551565b816107166020958681019061087c565b9190826040519384928337810182815203925af1906107336108bc565b908301521515809152610962565b016106c3565b34610122576020366003190112610122576020604051600435408152f35b634e487b7160e01b600052604160045260246000fd5b6040519190601f01601f191682016001600160401b038111838210176107a057604052565b610765565b6001600160401b0381116107a05760051b60200190565b906107c96103bd836107a5565b82815280926107da601f19916107a5565b016000805b8281106107ec5750505050565b604080519091908083016001600160401b038111828210176107a05760209352838152826060818301528287010152016107df565b634e487b7160e01b600052603260045260246000fd5b805182101561084b5760209160051b010190565b610821565b919081101561084b5760051b81013590607e1981360301821215610122570190565b3561024681610551565b903590601e198136030182121561012257018035906001600160401b0382116101225760200191813603831361012257565b908092918237016000815290565b3d156108f2573d906001600160401b0382116107a0576108e5601f8301601f191660200161077b565b9182523d6000602084013e565b606090565b156108fe57565b60405162461bcd60e51b815260206004820152601a60248201527909aead8e8d2c6c2d8d8667440ecc2d8eaca40dad2e6dac2e8c6d60331b6044820152606490fd5b919081101561084b5760051b81013590603e1981360301821215610122570190565b1561096957565b60405162461bcd60e51b8152602060048201526017602482015276135d5b1d1a58d85b1b0cce8818d85b1b0819985a5b1959604a1b6044820152606490fd5b919081101561084b5760051b81013590605e1981360301821215610122570190565b9291906109d6826107bc565b9360005b8381106109e75750505050565b806109f460019288610837565b5183610a01838888610940565b6000808235610a0f81610551565b81610a1f6020958681019061087c565b9190826040519384928337810182815203925af190610a3c6108bc565b908401521515809252610a51575b50016109da565b610a5a90610962565b38610a4a56fea264697066735822122059f78c2876a6c50ca04148dc4ebf4d57119f7bf0ff8b121dbb1e16cde4a7d07d64736f6c63430008180033","linkReferences":{}},"methodIdentifiers":{"aggregate((address,bytes)[])":"252dba42","aggregate3((address,bool,bytes)[])":"82ad56cb","aggregate3Value((address,bool,uint256,bytes)[])":"174dea71","blockAndAggregate((address,bytes)[])":"c3077fa9","getBasefee()":"3e64a696","getBlockHash(uint256)":"ee82ac5e","getBlockNumber()":"42cbb15c","getChainId()":"3408e470","getCurrentBlockCoinbase()":"a8b0574e","getCurrentBlockGasLimit()":"86d516e8","getCurrentBlockTimestamp()":"0f28c97d","getEthBalance(address)":"4d2301cc","getLastBlockHash()":"27e86d6e","tryAggregate(bool,(address,bytes)[])":"bce38bd7","tryBlockAndAggregate(bool,(address,bytes)[])":"399542e9"},"storageLayout":{"storage":[],"types":{}},"devdoc":{"version":1,"kind":"dev","author":"Michael Elliot <mike@makerdao.com>Joshua Levine <joshua@makerdao.com>Nick Johnson <arachnid@notdot.net>Andreas Bigger <andreas@nascent.xyz>Matt Solomon <matt@mattsolomon.dev>","details":"In FluenceLabs it used only for batch reading from Fluence frontends, CLIs.Ref to https://github.com/mds1/multicall/blob/main/src/Multicall3.sol.Multicall & Multicall2 backwards-compatibleAggregate methods are marked `payable` to save 24 gas per call","methods":{"aggregate((address,bytes)[])":{"params":{"calls":"An array of Call structs"},"returns":{"blockNumber":"The block number where the calls were executed","returnData":"An array of bytes containing the responses"}},"aggregate3((address,bool,bytes)[])":{"params":{"calls":"An array of Call3 structs"},"returns":{"returnData":"An array of Result structs"}},"aggregate3Value((address,bool,uint256,bytes)[])":{"params":{"calls":"An array of Call3Value structs"},"returns":{"returnData":"An array of Result structs"}},"blockAndAggregate((address,bytes)[])":{"params":{"calls":"An array of Call structs"},"returns":{"blockHash":"The hash of the block where the calls were executed","blockNumber":"The block number where the calls were executed","returnData":"An array of Result structs"}},"getBlockHash(uint256)":{"params":{"blockNumber":"The block number"}},"tryAggregate(bool,(address,bytes)[])":{"params":{"calls":"An array of Call structs","requireSuccess":"If true, require all calls to succeed"},"returns":{"returnData":"An array of Result structs"}},"tryBlockAndAggregate(bool,(address,bytes)[])":{"params":{"calls":"An array of Call structs"},"returns":{"blockHash":"The hash of the block where the calls were executed","blockNumber":"The block number where the calls were executed","returnData":"An array of Result structs"}}},"title":"Multicall3"},"id":105}