{"abi":[{"type":"function","name":"facetAddress","inputs":[{"name":"_functionSelector","type":"bytes4","internalType":"bytes4"}],"outputs":[{"name":"facetAddress_","type":"address","internalType":"address"}],"stateMutability":"view"},{"type":"function","name":"facetAddresses","inputs":[],"outputs":[{"name":"facetAddresses_","type":"address[]","internalType":"address[]"}],"stateMutability":"view"},{"type":"function","name":"facetFunctionSelectors","inputs":[{"name":"_facet","type":"address","internalType":"address"}],"outputs":[{"name":"facetFunctionSelectors_","type":"bytes4[]","internalType":"bytes4[]"}],"stateMutability":"view"},{"type":"function","name":"facets","inputs":[],"outputs":[{"name":"facets_","type":"tuple[]","internalType":"struct IDiamondLoupe.Facet[]","components":[{"name":"facetAddress","type":"address","internalType":"address"},{"name":"functionSelectors","type":"bytes4[]","internalType":"bytes4[]"}]}],"stateMutability":"view"},{"type":"function","name":"supportsInterface","inputs":[{"name":"_interfaceId","type":"bytes4","internalType":"bytes4"}],"outputs":[{"name":"","type":"bool","internalType":"bool"}],"stateMutability":"view"}],"bytecode":{"object":"0x60808060405234601557610721908161001a8239f35b5f80fdfe6080806040526004361015610012575f80fd5b5f3560e01c90816301ffc9a7146103d15750806352ef6b2c1461030e5780637a0ed6271461013c578063adfca15e146100b95763cdffacc614610053575f80fd5b346100b55760203660031901126100b55760043563ffffffff60e01b81168091036100b5575f527fc8fcad8db84d3cc18b4c41d551ea0ee66dd599cde068d998e57d5e09332c131c602052602060018060a01b0360405f205416604051908152f35b5f80fd5b346100b55760203660031901126100b5576004356001600160a01b03811681036100b5576100e96100ee9161048f565b6104c7565b6040518091602082016020835281518091526020604084019201905f5b818110610119575050500390f35b82516001600160e01b03191684528594506020938401939092019160010161010b565b346100b5575f3660031901126100b5575f805160206106cc8339815191525461016481610450565b90610172604051928361042d565b808252601f1961018182610450565b015f5b8181106102c45750505f5b8181101561020d575f805160206106cc8339815191525f527fb5c239a29faf02594141bbc5e6982a9b85ba2b4d59c3ed3baaf4cb8e5e11cbef810154600191906101ee906001600160a01b0316806101e78488610467565b515261048f565b61020560206101fd8488610467565b5101916104c7565b90520161018f565b826040518091602082016020835281518091526040830190602060408260051b8601019301915f905b82821061024557505050500390f35b919390929450603f1986820301825284516020606081604085019360018060a01b0381511686520151936040838201528451809452019201905f905b8082106102a1575050506020806001929601920192018594939192610236565b82516001600160e01b031916845260209384019390920191600190910190610281565b6040805190810191906001600160401b038311818410176102fa576020926040525f815260608382015282828701015201610184565b634e487b7160e01b5f52604160045260245ffd5b346100b5575f3660031901126100b5576040518060205f805160206106cc83398151915254928381520180925f805160206106cc8339815191525f5260205f20905f5b8181106103b2575050508161036791038261042d565b604051918291602083019060208452518091526040830191905f5b818110610390575050500390f35b82516001600160a01b0316845285945060209384019390920191600101610382565b82546001600160a01b0316845260209093019260019283019201610351565b346100b55760203660031901126100b5576004359063ffffffff60e01b82168092036100b5576020915f527fc8fcad8db84d3cc18b4c41d551ea0ee66dd599cde068d998e57d5e09332c131f825260ff60405f20541615158152f35b601f909101601f19168101906001600160401b038211908210176102fa57604052565b6001600160401b0381116102fa5760051b60200190565b805182101561047b5760209160051b010190565b634e487b7160e01b5f52603260045260245ffd5b6001600160a01b03165f9081527fc8fcad8db84d3cc18b4c41d551ea0ee66dd599cde068d998e57d5e09332c131d6020526040902090565b90604051918281549182825260208201905f5260205f20925f905b80600783011061062657610538945491818110610607575b8181106105e8575b8181106105c9575b8181106105aa575b81811061058b575b81811061056c575b81811061054f575b1061053a575b50038361042d565b565b6001600160e01b03191681526020015f610530565b602083811b6001600160e01b03191685529093019260010161052a565b604083901b6001600160e01b0319168452602090930192600101610522565b606083901b6001600160e01b031916845260209093019260010161051a565b608083901b6001600160e01b0319168452602090930192600101610512565b60a083901b6001600160e01b031916845260209093019260010161050a565b60c083901b6001600160e01b0319168452602090930192600101610502565b60e083901b6001600160e01b03191684526020909301926001016104fa565b916008919350610100600191865463ffffffff60e01b8160e01b16825263ffffffff60e01b8160c01b16602083015263ffffffff60e01b8160a01b16604083015263ffffffff60e01b8160801b16606083015263ffffffff60e01b8160601b16608083015263ffffffff60e01b8160401b1660a083015263ffffffff60e01b8160201b1660c083015263ffffffff60e01b1660e08201520194019201859293916104e256fec8fcad8db84d3cc18b4c41d551ea0ee66dd599cde068d998e57d5e09332c131ea26469706673582212200afddb192304402cd71fce58321d40814176d81293f3e113bc9402ee3bb7a78864736f6c634300081a0033","linkReferences":{}},"methodIdentifiers":{"facetAddress(bytes4)":"cdffacc6","facetAddresses()":"52ef6b2c","facetFunctionSelectors(address)":"adfca15e","facets()":"7a0ed627","supportsInterface(bytes4)":"01ffc9a7"},"storageLayout":{"storage":[],"types":{}},"devdoc":{"version":1,"kind":"dev","methods":{"facetAddress(bytes4)":{"details":"If facet is not found return address(0).","params":{"_functionSelector":"The function selector."},"returns":{"facetAddress_":"The facet address."}},"facetAddresses()":{"returns":{"facetAddresses_":"facetAddresses_"}},"facetFunctionSelectors(address)":{"params":{"_facet":"The facet address."},"returns":{"facetFunctionSelectors_":"facetFunctionSelectors_"}},"facets()":{"returns":{"facets_":"Facet"}}}},"id":126}