{"abi":[{"type":"function","name":"getCommitmentStatuses","inputs":[{"name":"commitmentIds","type":"bytes32[]","internalType":"bytes32[]"}],"outputs":[{"name":"statuses","type":"uint8[]","internalType":"enum ICapacity.CCStatus[]"}],"stateMutability":"view"}],"bytecode":{"object":"0x60808060405234601557610827908161001a8239f35b5f80fdfe60806040526004361015610011575f80fd5b5f3560e01c63dec56dd814610024575f80fd5b34610433576020366003190112610433576004356001600160401b03811161043357366023820112156104335760048101356001600160401b038111610433573660248260051b840101116104335761007c81610456565b6040519290601f01601f191683016001600160401b0381118482101761034b576040528183526100ab82610456565b6020840190601f19013682377f7d4f8ec43464738265ced6b7ed5f90007e9b7c34318bdd82d9249328b50bd357547f7d4f8ec43464738265ced6b7ed5f90007e9b7c34318bdd82d9249328b50bd35854915f5b858110156103e8578060051b90602482870101355f527fa8de0abb18de6e730ac24d7fe02c877d293683811fc3ac5d8e62e2a52c0d20d760205260405f2060018101548015610399575f6060610152610437565b8281528260208201528260408201520152805f525f805160206107d283398151915260205260405f20541561035f575f525f805160206107d283398151915260205260405f20906101a1610437565b825481526001830154602082015260028301546040808301919091526003909301546001600160a01b0316606082015282519283016001600160401b0381118482101761034b576040526101f3610486565b835260208301610201610486565b815261021260ff845416855161046d565b600c8301546020855101526008830154604085510152600a830154606085510152600b830154608085510152600983015460a085510152600783015460c08551015283515160068110156103375761026b90825161046d565b60208451015160208251015260408451015160408251015260608451015160608251015260808451015160808251015260a08451015160a08251015260c08085510151915101526102c5886102c08942610479565b6104cc565b6001019081600111610323576102ee936102e860068501546003860154906104ea565b9361050a565b91885182101561030f576001926020610309928b010161046d565b016100fe565b634e487b7160e01b5f52603260045260245ffd5b634e487b7160e01b5f52601160045260245ffd5b634e487b7160e01b5f52602160045260245ffd5b634e487b7160e01b5f52604160045260245ffd5b60405162461bcd60e51b81526020600482015260126024820152711419595c88191bd95cdb89dd08195e1a5cdd60721b6044820152606490fd5b60405162461bcd60e51b815260206004820152602160248201527f436170616369747920636f6d6d69746d656e7420646f65736e277420657869736044820152601d60fa1b6064820152608490fd5b8682604051906020820192602083525180935260408201905f935b8085106104105783830384f35b909182519060068210156103375760208160019382935201930194019390610403565b5f80fd5b60405190608082016001600160401b0381118382101761034b57604052565b6001600160401b03811161034b5760051b60200190565b60068210156103375752565b9190820391821161032357565b6040519060e082016001600160401b0381118382101761034b576040525f60c0838281528260208201528260408201528260608201528260808201528260a08201520152565b81156104d6570490565b634e487b7160e01b5f52601260045260245ffd5b9190820180921161032357565b8181029291811591840414171561032357565b91929390602001928351519160068310156103375760a085510151925f198701968088116103235760068896015480155f1461054e57505050505050505050600290565b116107c557600181148015906107bb575b6107b157506001955f198201918211610323578111156107a6575b507f8984d2d0d7a9f2f70f22692c7c8344aa50cbed8c00a03c924457a31793ee8fdb54845192606084015192608085015160408601519560c087910151945f9386881161078a575b604001516105cf916104f7565b946105f5836105f06105e1888d610479565b6105eb838c6104ea565b6104f7565b610479565b80821061076d575b50508487101561067d575b50505050505060408351015281516080810151908161065e575b50506006831015610337575f9160c09160018503610647575b60a08251015251015290565b8360608351015261065985835161046d565b61063b565b606061066d91019182516104ea565b90525f6080835101525f80610622565b9092949850836106909294965095610479565b6004979092908382106106d15750505050600181018091116106be576020845101525b5f8080808080610608565b601185634e487b7160e01b5f525260245ffd5b6106e4926106de916104ea565b92610479565b906106ef81836104cc565b80600101918260011161075a57829381156107475706610720575b5050610715916104ea565b6020845101526106b3565b60020191508110610734576107155f61070a565b601186634e487b7160e01b5f525260245ffd5b60128a634e487b7160e01b5f525260245ffd5b601189634e487b7160e01b5f525260245ffd5b61078292989161077c91610479565b906104ea565b955f806105fd565b93506105cf90604061079c888a610479565b95919250506105c2565b5f955092508461057a565b9550505050505090565b508387111561055f565b5050505050505060039056fe88681cafafd55573d275926fd208ef2ba36c6dd5169e88841d4bc9bcd2253021a264697066735822122081f1d372f7b46f211f52af7fa246dca84de7d554c3527514875b33ebc386e57b64736f6c634300081a0033","linkReferences":{}},"methodIdentifiers":{"getCommitmentStatuses(bytes32[])":"dec56dd8"},"storageLayout":{"storage":[],"types":{}},"devdoc":{"version":1,"kind":"dev","methods":{"getCommitmentStatuses(bytes32[])":{"details":"Gets commitment statuses in batch"}}},"id":136}