{"abi":[{"type":"function","name":"getCommitmentStatuses","inputs":[{"name":"commitmentIds","type":"bytes32[]","internalType":"bytes32[]"}],"outputs":[{"name":"statuses","type":"uint8[]","internalType":"enum ICapacity.CCStatus[]"}],"stateMutability":"view"},{"type":"function","name":"getDatacenter","inputs":[{"name":"id","type":"bytes32","internalType":"bytes32"}],"outputs":[{"name":"","type":"tuple","internalType":"struct IOfferV2.Datacenter","components":[{"name":"id","type":"bytes32","internalType":"bytes32"},{"name":"countryCode","type":"string","internalType":"string"},{"name":"cityCode","type":"string","internalType":"string"},{"name":"index","type":"uint256","internalType":"uint256"},{"name":"tier","type":"uint256","internalType":"uint256"},{"name":"certifications","type":"string[]","internalType":"string[]"}]}],"stateMutability":"view"},{"type":"function","name":"getDatacenters","inputs":[],"outputs":[{"name":"","type":"tuple[]","internalType":"struct IOfferV2.Datacenter[]","components":[{"name":"id","type":"bytes32","internalType":"bytes32"},{"name":"countryCode","type":"string","internalType":"string"},{"name":"cityCode","type":"string","internalType":"string"},{"name":"index","type":"uint256","internalType":"uint256"},{"name":"tier","type":"uint256","internalType":"uint256"},{"name":"certifications","type":"string[]","internalType":"string[]"}]}],"stateMutability":"view"},{"type":"function","name":"getOfferV2","inputs":[{"name":"offerId","type":"bytes32","internalType":"bytes32"}],"outputs":[{"name":"","type":"tuple","internalType":"struct IOfferV2.OfferV2View","components":[{"name":"offerId","type":"bytes32","internalType":"bytes32"},{"name":"provider","type":"address","internalType":"address"},{"name":"paymentToken","type":"address","internalType":"address"},{"name":"prices","type":"tuple[]","internalType":"struct IOfferV2.OfferV2PriceView[]","components":[{"name":"resourceId","type":"bytes32","internalType":"bytes32"},{"name":"ty","type":"uint8","internalType":"enum IOfferV2.ResourceType"},{"name":"metadata","type":"string","internalType":"string"},{"name":"price","type":"uint256","internalType":"uint256"}]}]}],"stateMutability":"view"},{"type":"function","name":"getOffersV2","inputs":[],"outputs":[{"name":"","type":"tuple[]","internalType":"struct IOfferV2.OfferV2View[]","components":[{"name":"offerId","type":"bytes32","internalType":"bytes32"},{"name":"provider","type":"address","internalType":"address"},{"name":"paymentToken","type":"address","internalType":"address"},{"name":"prices","type":"tuple[]","internalType":"struct IOfferV2.OfferV2PriceView[]","components":[{"name":"resourceId","type":"bytes32","internalType":"bytes32"},{"name":"ty","type":"uint8","internalType":"enum IOfferV2.ResourceType"},{"name":"metadata","type":"string","internalType":"string"},{"name":"price","type":"uint256","internalType":"uint256"}]}]}],"stateMutability":"view"},{"type":"function","name":"getPeerV2","inputs":[{"name":"peerId","type":"bytes32","internalType":"bytes32"}],"outputs":[{"name":"","type":"tuple","internalType":"struct IOfferV2.PeerV2View","components":[{"name":"offerId","type":"bytes32","internalType":"bytes32"},{"name":"peerId","type":"bytes32","internalType":"bytes32"},{"name":"commitmentId","type":"bytes32","internalType":"bytes32"},{"name":"unitIds","type":"tuple[]","internalType":"struct IBaseOffer.ComputeUnitView[]","components":[{"name":"id","type":"bytes32","internalType":"bytes32"},{"name":"deal","type":"address","internalType":"address"},{"name":"startEpoch","type":"uint256","internalType":"uint256"},{"name":"onchainWorkerId","type":"bytes32","internalType":"bytes32"}]},{"name":"resources","type":"tuple[]","internalType":"struct IOfferV2.PeerV2ResourceView[]","components":[{"name":"resourceId","type":"bytes32","internalType":"bytes32"},{"name":"ty","type":"uint8","internalType":"enum IOfferV2.ResourceType"},{"name":"metadata","type":"string","internalType":"string"},{"name":"details","type":"string","internalType":"string"},{"name":"availableSupply","type":"uint256","internalType":"uint256"},{"name":"maxSupply","type":"uint256","internalType":"uint256"}]}]}],"stateMutability":"view"},{"type":"function","name":"getPeersV2","inputs":[{"name":"offerId","type":"bytes32","internalType":"bytes32"}],"outputs":[{"name":"","type":"tuple[]","internalType":"struct IOfferV2.PeerV2View[]","components":[{"name":"offerId","type":"bytes32","internalType":"bytes32"},{"name":"peerId","type":"bytes32","internalType":"bytes32"},{"name":"commitmentId","type":"bytes32","internalType":"bytes32"},{"name":"unitIds","type":"tuple[]","internalType":"struct IBaseOffer.ComputeUnitView[]","components":[{"name":"id","type":"bytes32","internalType":"bytes32"},{"name":"deal","type":"address","internalType":"address"},{"name":"startEpoch","type":"uint256","internalType":"uint256"},{"name":"onchainWorkerId","type":"bytes32","internalType":"bytes32"}]},{"name":"resources","type":"tuple[]","internalType":"struct IOfferV2.PeerV2ResourceView[]","components":[{"name":"resourceId","type":"bytes32","internalType":"bytes32"},{"name":"ty","type":"uint8","internalType":"enum IOfferV2.ResourceType"},{"name":"metadata","type":"string","internalType":"string"},{"name":"details","type":"string","internalType":"string"},{"name":"availableSupply","type":"uint256","internalType":"uint256"},{"name":"maxSupply","type":"uint256","internalType":"uint256"}]}]}],"stateMutability":"view"},{"type":"function","name":"getResource","inputs":[{"name":"resourceId","type":"bytes32","internalType":"bytes32"}],"outputs":[{"name":"","type":"tuple","internalType":"struct IOfferV2.ResourceDescription","components":[{"name":"ty","type":"uint8","internalType":"enum IOfferV2.ResourceType"},{"name":"metadata","type":"string","internalType":"string"}]}],"stateMutability":"view"},{"type":"function","name":"getResources","inputs":[],"outputs":[{"name":"","type":"tuple[]","internalType":"struct IOfferV2.ResourceDescriptionView[]","components":[{"name":"id","type":"bytes32","internalType":"bytes32"},{"name":"ty","type":"uint8","internalType":"enum IOfferV2.ResourceType"},{"name":"metadata","type":"string","internalType":"string"}]}],"stateMutability":"view"}],"bytecode":{"object":"0x60808060405234601557611f16908161001a8239f35b5f80fdfe60806040526004361015610011575f80fd5b5f3560e01c806304eea7bc146109d75780630e953e1a1461096c57806312e74a5e14610843578063651245a2146106bb578063b4d6af8a146105aa578063c1cc57b0146103f1578063d06007be14610359578063d60ec19d146101dc5763dec56dd81461007c575f80fd5b346101d85760203660031901126101d8576004356001600160401b0381116101d857366023820112156101d85760048101356001600160401b0381116101d8573660248260051b840101116101d8576100d48161116c565b916100e26040519384610f5a565b8183526100ee8261116c565b6020840190601f19013682375f5b83811015610188576001905f80516020611ec183398151915260248260051b860101355f5260205261016e60405f206101428482015461013d8115156118b6565b6113d0565b61014b82611952565b90610154611a56565b916101686006850154600386015490611a49565b93611acd565b6101788288611183565b61018182610c8c565b52016100fc565b8185604051918291602083019060208452518091526040830191905f5b8181106101b3575050500390f35b9193509160208060019286516101c881610c8c565b81520194019101918493926101a5565b5f80fd5b346101d85760203660031901126101d8576004356101f861113c565b5061020161113c565b505f8181527f23a233ee73076c3cf570675cfe9ff168e5811fe06bf68358a371b89594cf424c602052604090205415610306575f525f80516020611e8183398151915260205260405f2060056040519161025a83610ea3565b8054835261026a60018201611046565b602084015261027b60028201611046565b60408401526003810154606084015260048101546080840152019081546102a18161116c565b926102af6040519485610f5a565b81845260208401905f5260205f205f915b8383106102e9576102e5858760a0820152604051918291602083526020830190610be2565b0390f35b6001602081926102f885611046565b8152019201920191906102c0565b60405162461bcd60e51b815260206004820152602560248201527f4c69624f6666657256323a206461746163656e74657220646f6573206e6f7420604482015264195e1a5cdd60da1b6064820152608490fd5b346101d85760203660031901126101d8576102e56103ce60043561037b611112565b50610385816113d0565b515f525f80516020611e418339815191526020526103c960405f206103b460018060a01b038254161515610fa1565b600260048201541490816103e2575b50610fea565b611482565b604051918291602083526020830190610d6b565b600291506005015414856103c3565b346101d8575f3660031901126101d8575f80516020611e61833981519152546104198161116c565b906104276040519283610f5a565b808252601f196104368261116c565b015f5b8181106105805750505f80516020611e61833981519152545f5b8281106104e557836040518091602082016020835281518091526040830190602060408260051b8601019301915f905b82821061049257505050500390f35b919360019193955060206104d58192603f198a8203018652606060408a5180518452858101516104c181610c8c565b868501520151918160408201520190610bbe565b9601920192018594939192610483565b8181101561056c576001905f80516020611e618339815191525f528060205f200154805f525f80516020611e2183398151915260205261054b8360405f2060ff8154166040519461053586610eed565b855261054081610c8c565b602085015201611046565b604082015261055a8287611183565b526105658186611183565b5001610453565b634e487b7160e01b5f52603260045260245ffd5b60209060405161058f81610eed565b5f81525f838201526060604082015282828701015201610439565b346101d85760203660031901126101d857600435606060206040516105ce81610ed2565b5f81520152805f5260015f80516020611e618339815191520160205260405f205415610668575f525f80516020611e2183398151915260205260405f2061063360016040519261061d84610ed2565b60ff81541661062b81610c8c565b845201611046565b90602081019182526102e5604051928392602084525161065281610c8c565b6020840152516040808401526060830190610bbe565b60405162461bcd60e51b815260206004820152602560248201527f4c69624f6666657256323a207265736f75726365496420646f6573206e6f7420604482015264195e1a5cdd60da1b6064820152608490fd5b346101d85760203660031901126101d857600435805f525f80516020611e4183398151915260205261071260405f206106fe60018060a01b038254161515610fa1565b600260048201541490816108345750610fea565b5f527f23a233ee73076c3cf570675cfe9ff168e5811fe06bf68358a371b89594cf424860205261074460405f20611db8565b8051906107508261116c565b9161075e6040519384610f5a565b80835261076d601f199161116c565b015f5b81811061081d5750505f5b81518110156107b6578061079a61079460019385611183565b51611482565b6107a48286611183565b526107af8185611183565b500161077b565b826040518091602082016020835281518091526040830190602060408260051b8601019301915f905b8282106107ee57505050500390f35b9193600191939550602061080d8192603f198a82030186528851610d6b565b96019201920185949391926107df565b602090610828611112565b82828701015201610770565b600291506005015414836103c3565b346101d8575f3660031901126101d85761087c7f23a233ee73076c3cf570675cfe9ff168e5811fe06bf68358a371b89594cf4246611db8565b8051906108888261116c565b916108966040519384610f5a565b8083526108a5601f199161116c565b015f5b8181106109555750505f5b81518110156108ee57806108d26108cc60019385611183565b516111b8565b6108dc8286611183565b526108e78185611183565b50016108b3565b826040518091602082016020835281518091526040830190602060408260051b8601019301915f905b82821061092657505050500390f35b919360019193955060206109458192603f198a82030186528851610caa565b9601920192018594939192610917565b602090610960610f7d565b828287010152016108a8565b346101d85760203660031901126101d8576102e56109c360043561098e610f7d565b50805f525f80516020611e418339815191526020526109be60405f206103b460018060a01b038254161515610fa1565b6111b8565b604051918291602083526020830190610caa565b346101d8575f3660031901126101d8575f80516020611ea1833981519152546109ff8161116c565b90610a0d6040519283610f5a565b808252601f19610a1c8261116c565b015f5b818110610ba75782845f915f80516020611ea1833981519152545b818410610aa857826040518091602082016020835281518091526040830190602060408260051b8601019301915f905b828210610a7957505050500390f35b91936001919395506020610a988192603f198a82030186528851610be2565b9601920192018594939192610a6a565b8084101561056c575f80516020611ea18339815191525f528360205f2001545f525f80516020611e8183398151915260205260405f2093600560405195610aee87610ea3565b80548752610afe60018201611046565b6020880152610b0f60028201611046565b6040880152600381015460608801526004810154608088015201948554610b358161116c565b90610b436040519283610f5a565b80825260208201975f5260205f20975f905b828210610b8a575050506001939495965060a0820152610b758287611183565b52610b808186611183565b5001929190610a3a565b600160208192610b998d611046565b8152019a0191019098610b55565b602090610bb261113c565b82828701015201610a1f565b805180835260209291819084018484015e5f828201840152601f01601f1916010190565b8051825260a0610c16610c04602084015160c0602087015260c0860190610bbe565b60408401518582036040870152610bbe565b91606081015160608501526080810151608085015201519160a0818303910152815180825260208201916020808360051b8301019401925f915b838310610c5f57505050505090565b9091929394602080610c7d600193601f198682030187528951610bbe565b97019301930191939290610c50565b60061115610c9657565b634e487b7160e01b5f52602160045260245ffd5b90606060808201928051835260018060a01b03602082015116602084015260018060a01b03604082015116604084015201519160806060830152825180915260a0820191602060a08360051b8301019401925f915b838310610d0e57505050505090565b9091929394602080600192609f198582030186528851908151815282820151610d3681610c8c565b83820152606080610d566040850151608060408601526080850190610bbe565b93015191015297019301930191939290610cff565b60a082019080518352602081015160208401526040810151604084015260608101519160a060608501528251809152602060c085019301905f5b818110610e615750505060800151916080818303910152815180825260208201916020808360051b8301019401925f915b838310610de557505050505090565b9091929394602080600192601f198582030186528851908151815282820151610e0d81610c8c565b8382015260a080610e42610e30604086015160c0604087015260c0860190610bbe565b60608601518582036060870152610bbe565b9360808101516080850152015191015297019301930191939290610dd6565b8251805186526020818101516001600160a01b031681880152604080830151908801526060918201519187019190915260809095019490920191600101610da5565b60c081019081106001600160401b03821117610ebe57604052565b634e487b7160e01b5f52604160045260245ffd5b604081019081106001600160401b03821117610ebe57604052565b606081019081106001600160401b03821117610ebe57604052565b608081019081106001600160401b03821117610ebe57604052565b60a081019081106001600160401b03821117610ebe57604052565b61016081019081106001600160401b03821117610ebe57604052565b601f909101601f19168101906001600160401b03821190821017610ebe57604052565b60405190610f8a82610f08565b606080835f81525f60208201525f60408201520152565b15610fa857565b60405162461bcd60e51b815260206004820152601a60248201527913d999995c8e881bd999995c88191bd95cdb89dd08195e1a5cdd60321b6044820152606490fd5b15610ff157565b60405162461bcd60e51b815260206004820152602760248201527f4f666665723a206d6574686f64206f6e6c7920776f726b732077697468205632604482015266206f666665727360c81b6064820152608490fd5b90604051915f8154908160011c9260018316928315611108575b6020851084146110f45784875286939081156110d2575060011461108e575b5061108c92500383610f5a565b565b90505f9291925260205f20905f915b8183106110b657505090602061108c928201015f61107f565b602091935080600191548385890101520191019091849261109d565b90506020925061108c94915060ff191682840152151560051b8201015f61107f565b634e487b7160e01b5f52602260045260245ffd5b93607f1693611060565b6040519061111f82610f23565b60606080835f81525f60208201525f604082015282808201520152565b6040519061114982610ea3565b606060a0835f81528260208201528260408201525f838201525f60808201520152565b6001600160401b038111610ebe5760051b60200190565b805182101561056c5760209160051b010190565b919082039182116111a457565b634e487b7160e01b5f52601160045260245ffd5b6111c0610f7d565b505f60806040516111d081610f23565b8281528260208201528260408201528260608201520152805f525f80516020611e4183398151915260205260405f2060018060a01b0381541691611215831515610fa1565b60018060a01b03600283015416916080600382015460056004840154930154926040519161124283610f23565b8783528660208401526040830152606082015201527f23a233ee73076c3cf570675cfe9ff168e5811fe06bf68358a371b89594cf4241815f5260205260405f209361128f60018601611db8565b9182519361129c8561116c565b946112aa6040519687610f5a565b8086526112b9601f199161116c565b015f5b81811061137c5750505f5b845181101561135457806112dd60019287611183565b51805f528960205260405f2054815f525f80516020611e2183398151915260205261132e8460405f2060ff8154166040519561131887610f08565b865261132381610c8c565b602086015201611046565b604083015260608201526113428289611183565b5261134d8188611183565b50016112c7565b509250939094506040519361136885610f08565b845260208401526040830152606082015290565b60209060405161138b81610f08565b5f81525f83820152606060408201525f606082015282828a010152016112bc565b604051906113b982610f08565b5f6060838281528260208201528260408201520152565b6113d86113ac565b50805f525f80516020611e0183398151915260205260405f205415611448575f525f80516020611e0183398151915260205260405f206040519061141b82610f08565b805482526001810154602083015260028101546040830152600301546001600160a01b0316606082015290565b60405162461bcd60e51b81526020600482015260126024820152711419595c88191bd95cdb89dd08195e1a5cdd60721b6044820152606490fd5b9061148b611112565b50611495826113d0565b6020815191015190835f527f88681cafafd55573d275926fd208ef2ba36c6dd5169e88841d4bc9bcd22530246020526114d060405f20611db8565b908151946114dd8661116c565b956114eb6040519788610f5a565b8087526114fa601f199161116c565b015f5b81811061189f575050805f525f80516020611e01833981519152602052600160405f200154935f9480611757575b505f5b84518110156115cc578061154460019287611183565b51805f527f88681cafafd55573d275926fd208ef2ba36c6dd5169e88841d4bc9bcd225302260205260405f20600281015480156115c5575b6003858060a01b03835416920154916040519361159885610f08565b84526020840152604083015260608201526115b3828b611183565b526115be818a611183565b500161152e565b508861157c565b5093509390949150835f527f23a233ee73076c3cf570675cfe9ff168e5811fe06bf68358a371b89594cf424260205260405f209461160c60018701611db8565b928351946116198661116c565b956116276040519788610f5a565b808752611636601f199161116c565b015f5b81811061171b5750505f5b85518110156116ee578061165a60019288611183565b51805f528a60205260405f20815f525f80516020611e2183398151915260205260405f206116c3600260ff835416936116b8888254958184015497604051996116a28b610ea3565b8a526116ad81610c8c565b60208a015201611046565b604087015201611046565b6060840152608083015260a08201526116dc828a611183565b526116e78189611183565b5001611644565b509296509250936040519461170286610f23565b8552602085015260408401526060830152608082015290565b60209060405161172a81610ea3565b5f81525f83820152606060408201526060808201525f60808201525f60a082015282828b01015201611639565b9094505f61014060405161176a81610f3e565b8281528260208201528260408201528260608201528260808201528260a08201528260c08201528260e0820152826101008201528261012082015201525f80516020611ec1833981519152905f5260205260405f2060018101546117cf8115156118b6565b6101406117da611a56565b6006840154936003810154916117f08387611a49565b906118106117fd876113d0565b9261180785611952565b92848487611acd565b93611825604060028601549401519189611a49565b600485015491602060018060a01b0360058801541694015194600d60206040880151970151970154996040519861185b8a610f3e565b61186481610c8c565b895260208901526040880152606087015288608087015260a086015260c085015260e08401526101008301526101208201520152935f61152b565b6020906118aa6113ac565b82828b010152016114fd565b156118bd57565b60405162461bcd60e51b815260206004820152602160248201527f436170616369747920636f6d6d69746d656e7420646f65736e277420657869736044820152601d60fa1b6064820152608490fd5b6040519060e082016001600160401b03811183821017610ebe576040525f60c0838281528260208201528260408201528260608201528260808201528260a08201520152565b9060405161195f81610ed2565b61196761190c565b815260c080602083019261197961190c565b84526007819660ff815416835161198f82610c8c565b52600c8101546020845101526008810154604084510152600a810154606084510152600b810154608084510152600981015460a084510152015482825101528051516119da81610c8c565b84516119e582610c8c565b5260208151015160208551015260408151015160408551015260608151015160608551015260808151015160808551015260a08151015160a08551015251015191510152565b8115611a35570490565b634e487b7160e01b5f52601260045260245ffd5b919082018092116111a457565b611aac611a847f7d4f8ec43464738265ced6b7ed5f90007e9b7c34318bdd82d9249328b50bd3575442611197565b7f7d4f8ec43464738265ced6b7ed5f90007e9b7c34318bdd82d9249328b50bd3585490611a2b565b600101806001116111a45790565b818102929181159184041417156111a457565b9190602090949394019283515190611ae482610c8c565b60a085510151915f198701968088116111a45760068896015480155f14611b1357505050505050505050600290565b11611dac57611b2181610c8c565b60018114801590611da2575b611d9857506001955f1982019182116111a457811115611d8d575b507f8984d2d0d7a9f2f70f22692c7c8344aa50cbed8c00a03c924457a31793ee8fdb5484519260608401519260808501519160408601519560c087910151945f92868811611d71575b60400151611b9e91611aba565b94611bc485611bbf611bb0878d611197565b611bba838c611a49565b611aba565b611197565b808210611d54575b505084871015611c4f575b5050505050509160c0915f93604083510152815160808101519081611c30575b5050611c0285610c8c565b60018503611c17575b60a08251015251015290565b83606083510152848251611c2a82610c8c565b52611c0b565b6060611c3f9101918251611a49565b9052836080835101525f80611bf7565b909294985083611c629294965095611197565b600497909390848310611cac57505050905060018101809111611c995791839160c09360205f965101525b919381935f8080611bd7565b601185634e487b7160e01b5f525260245ffd5b611cc09291611cba91611a49565b93611197565b91611ccb8184611a2b565b806001019182600111611d415782948115611d2e5706611d03575b505091611cf860c094925f9694611a49565b602084510152611c8d565b60029192935001809111611d1b5790611cf85f611ce6565b601186634e487b7160e01b5f525260245ffd5b60128a634e487b7160e01b5f525260245ffd5b601189634e487b7160e01b5f525260245ffd5b611d69929891611d6391611197565b90611a49565b955f80611bcc565b9250611b9e906040611d83888a611197565b9491925050611b91565b5f9550925084611b48565b9550505050505090565b5082871115611b2d565b50505050505050600390565b90604051918281549182825260208201905f5260205f20925f5b818110611de757505061108c92500383610f5a565b8454835260019485019487945060209093019201611dd256fe88681cafafd55573d275926fd208ef2ba36c6dd5169e88841d4bc9bcd225302123a233ee73076c3cf570675cfe9ff168e5811fe06bf68358a371b89594cf424388681cafafd55573d275926fd208ef2ba36c6dd5169e88841d4bc9bcd225302023a233ee73076c3cf570675cfe9ff168e5811fe06bf68358a371b89594cf424423a233ee73076c3cf570675cfe9ff168e5811fe06bf68358a371b89594cf424923a233ee73076c3cf570675cfe9ff168e5811fe06bf68358a371b89594cf424ba8de0abb18de6e730ac24d7fe02c877d293683811fc3ac5d8e62e2a52c0d20d7a26469706673582212207b40254621034ab484b3a504a1f2d52cb0426c3edf0ebe5f3446b6143a22f02264736f6c634300081a0033","linkReferences":{}},"methodIdentifiers":{"getCommitmentStatuses(bytes32[])":"dec56dd8","getDatacenter(bytes32)":"d60ec19d","getDatacenters()":"04eea7bc","getOfferV2(bytes32)":"0e953e1a","getOffersV2()":"12e74a5e","getPeerV2(bytes32)":"d06007be","getPeersV2(bytes32)":"651245a2","getResource(bytes32)":"b4d6af8a","getResources()":"c1cc57b0"},"storageLayout":{"storage":[],"types":{}},"devdoc":{"version":1,"kind":"dev","methods":{"getCommitmentStatuses(bytes32[])":{"details":"Gets commitment statuses in batch"}}},"id":125}