{"abi":[{"type":"function","name":"getCommitmentStatuses","inputs":[{"name":"commitmentIds","type":"bytes32[]","internalType":"bytes32[]"}],"outputs":[{"name":"statuses","type":"uint8[]","internalType":"enum ICapacity.CCStatus[]"}],"stateMutability":"view"}],"bytecode":{"object":"0x60808060405234601557610805908161001a8239f35b5f80fdfe60806040526004361015610011575f80fd5b5f3560e01c63dec56dd814610024575f80fd5b34610431576020366003190112610431576004356001600160401b03811161043157366023820112156104315760048101356001600160401b038111610431573660248260051b840101116104315761007c81610454565b6040519290601f01601f191683016001600160401b03811184821017610349576040528183526100ab82610454565b6020840190601f19013682377f7d4f8ec43464738265ced6b7ed5f90007e9b7c34318bdd82d9249328b50bd357547f7d4f8ec43464738265ced6b7ed5f90007e9b7c34318bdd82d9249328b50bd35854915f5b858110156103e6578060051b90602482870101355f527fa8de0abb18de6e730ac24d7fe02c877d293683811fc3ac5d8e62e2a52c0d20d760205260405f2060018101548015610397575f6060610152610435565b82815282602082015282604082015201525f527f88681cafafd55573d275926fd208ef2ba36c6dd5169e88841d4bc9bcd225302160205260405f2090815491821561035d5761019f610435565b9283526001810154602084015260028101546040808501919091526003909101546001600160a01b031660608401528051929083016001600160401b03811184821017610349576040526101f1610484565b8352602083016101ff610484565b815261021060ff845416855161046b565b600c8301546020855101526008830154604085510152600a830154606085510152600b830154608085510152600983015460a085510152600783015460c08551015283515160068110156103355761026990825161046b565b60208451015160208251015260408451015160408251015260608451015160608251015260808451015160808251015260a08451015160a08251015260c08085510151915101526102c3886102be8942610477565b6104ca565b6001019081600111610321576102ec936102e660068501546003860154906104e8565b93610508565b91885182101561030d576001926020610307928b010161046b565b016100fe565b634e487b7160e01b5f52603260045260245ffd5b634e487b7160e01b5f52601160045260245ffd5b634e487b7160e01b5f52602160045260245ffd5b634e487b7160e01b5f52604160045260245ffd5b60405162461bcd60e51b81526020600482015260126024820152711419595c88191bd95cdb89dd08195e1a5cdd60721b6044820152606490fd5b60405162461bcd60e51b815260206004820152602160248201527f436170616369747920636f6d6d69746d656e7420646f65736e277420657869736044820152601d60fa1b6064820152608490fd5b8682604051906020820192602083525180935260408201905f935b80851061040e5783830384f35b909182519060068210156103355760208160019382935201930194019390610401565b5f80fd5b60405190608082016001600160401b0381118382101761034957604052565b6001600160401b0381116103495760051b60200190565b60068210156103355752565b9190820391821161032157565b6040519060e082016001600160401b03811183821017610349576040525f60c0838281528260208201528260408201528260608201528260808201528260a08201520152565b81156104d4570490565b634e487b7160e01b5f52601260045260245ffd5b9190820180921161032157565b8181029291811591840414171561032157565b91929390602001928351519160068310156103355760a085510151925f198701968088116103215760068896015480155f1461054c57505050505050505050600290565b116107c357600181148015906107b9575b6107af57506001955f198201918211610321578111156107a4575b507f8984d2d0d7a9f2f70f22692c7c8344aa50cbed8c00a03c924457a31793ee8fdb54845192606084015192608085015160408601519560c087910151945f93868811610788575b604001516105cd916104f5565b946105f3836105ee6105df888d610477565b6105e9838c6104e8565b6104f5565b610477565b80821061076b575b50508487101561067b575b50505050505060408351015281516080810151908161065c575b50506006831015610335575f9160c09160018503610645575b60a08251015251015290565b8360608351015261065785835161046b565b610639565b606061066b91019182516104e8565b90525f6080835101525f80610620565b90929498508361068e9294965095610477565b6004979092908382106106cf5750505050600181018091116106bc576020845101525b5f8080808080610606565b601185634e487b7160e01b5f525260245ffd5b6106e2926106dc916104e8565b92610477565b906106ed81836104ca565b8060010191826001116107585782938115610745570661071e575b5050610713916104e8565b6020845101526106b1565b60020191508110610732576107135f610708565b601186634e487b7160e01b5f525260245ffd5b60128a634e487b7160e01b5f525260245ffd5b601189634e487b7160e01b5f525260245ffd5b61078092989161077a91610477565b906104e8565b955f806105fb565b93506105cd90604061079a888a610477565b95919250506105c0565b5f9550925084610578565b9550505050505090565b508387111561055d565b5050505050505060039056fea26469706673582212200d9fe35a9b04a37448948e42165eae845f9c921ad0475eb918b31a9ee666d4ee64736f6c634300081a0033","linkReferences":{}},"methodIdentifiers":{"getCommitmentStatuses(bytes32[])":"dec56dd8"},"storageLayout":{"storage":[],"types":{}},"devdoc":{"version":1,"kind":"dev","methods":{"getCommitmentStatuses(bytes32[])":{"details":"Gets commitment statuses in batch"}}},"id":82}