{"abi":[{"type":"function","name":"handleIpcMessage","inputs":[{"name":"","type":"tuple","internalType":"struct IpcEnvelope","components":[{"name":"kind","type":"uint8","internalType":"enum IpcMsgKind"},{"name":"to","type":"tuple","internalType":"struct IPCAddress","components":[{"name":"subnetId","type":"tuple","internalType":"struct SubnetID","components":[{"name":"root","type":"uint64","internalType":"uint64"},{"name":"route","type":"address[]","internalType":"address[]"}]},{"name":"rawAddress","type":"tuple","internalType":"struct FvmAddress","components":[{"name":"addrType","type":"uint8","internalType":"uint8"},{"name":"payload","type":"bytes","internalType":"bytes"}]}]},{"name":"from","type":"tuple","internalType":"struct IPCAddress","components":[{"name":"subnetId","type":"tuple","internalType":"struct SubnetID","components":[{"name":"root","type":"uint64","internalType":"uint64"},{"name":"route","type":"address[]","internalType":"address[]"}]},{"name":"rawAddress","type":"tuple","internalType":"struct FvmAddress","components":[{"name":"addrType","type":"uint8","internalType":"uint8"},{"name":"payload","type":"bytes","internalType":"bytes"}]}]},{"name":"nonce","type":"uint64","internalType":"uint64"},{"name":"value","type":"uint256","internalType":"uint256"},{"name":"message","type":"bytes","internalType":"bytes"}]}],"outputs":[{"name":"ret","type":"bytes","internalType":"bytes"}],"stateMutability":"payable"},{"type":"error","name":"CallerIsNotGateway","inputs":[]},{"type":"error","name":"UnrecognizedResult","inputs":[]},{"type":"error","name":"UnsupportedMsgKind","inputs":[]}],"bytecode":{"object":"0x608060405234801561001057600080fd5b50610115806100206000396000f3fe608060405260043610601c5760003560e01c8063a9490a04146021575b600080fd5b603f602c3660046053565b5060408051602081019091526000815290565b604051604a91906092565b60405180910390f35b600060208284031215606457600080fd5b813567ffffffffffffffff811115607a57600080fd5b820160c08185031215608b57600080fd5b9392505050565b60006020808352835180602085015260005b8181101560be5785810183015185820160400152820160a4565b506000604082860101526040601f19601f830116850101925050509291505056fea264697066735822122003fb4b41ba3f654cd939aa259c36de2fa1fb8117f7a2e9e0cac76093e6bfaaa864736f6c63430008180033","linkReferences":{}},"methodIdentifiers":{"handleIpcMessage((uint8,((uint64,address[]),(uint8,bytes)),((uint64,address[]),(uint8,bytes)),uint64,uint256,bytes))":"a9490a04"},"id":114}