{"abi":[{"type":"function","name":"applyType","inputs":[{"name":"message","type":"tuple","internalType":"struct IpcEnvelope","components":[{"name":"kind","type":"IpcMsgKind","internalType":"enum IpcMsgKind"},{"name":"to","type":"tuple","internalType":"struct IPCAddress","components":[{"name":"subnetId","type":"tuple","internalType":"struct SubnetID","components":[{"name":"root","type":"uint64","internalType":"uint64"},{"name":"route","type":"address[]","internalType":"address[]"}]},{"name":"rawAddress","type":"tuple","internalType":"struct FvmAddress","components":[{"name":"addrType","type":"uint8","internalType":"uint8"},{"name":"payload","type":"bytes","internalType":"bytes"}]}]},{"name":"from","type":"tuple","internalType":"struct IPCAddress","components":[{"name":"subnetId","type":"tuple","internalType":"struct SubnetID","components":[{"name":"root","type":"uint64","internalType":"uint64"},{"name":"route","type":"address[]","internalType":"address[]"}]},{"name":"rawAddress","type":"tuple","internalType":"struct FvmAddress","components":[{"name":"addrType","type":"uint8","internalType":"uint8"},{"name":"payload","type":"bytes","internalType":"bytes"}]}]},{"name":"nonce","type":"uint64","internalType":"uint64"},{"name":"value","type":"uint256","internalType":"uint256"},{"name":"message","type":"bytes","internalType":"bytes"}]},{"name":"currentSubnet","type":"tuple","internalType":"struct SubnetID","components":[{"name":"root","type":"uint64","internalType":"uint64"},{"name":"route","type":"address[]","internalType":"address[]"}]}],"outputs":[{"name":"","type":"IPCMsgType","internalType":"enum IPCMsgType"}],"stateMutability":"pure"},{"type":"function","name":"createCallMsg","inputs":[{"name":"from","type":"tuple","internalType":"struct IPCAddress","components":[{"name":"subnetId","type":"tuple","internalType":"struct SubnetID","components":[{"name":"root","type":"uint64","internalType":"uint64"},{"name":"route","type":"address[]","internalType":"address[]"}]},{"name":"rawAddress","type":"tuple","internalType":"struct FvmAddress","components":[{"name":"addrType","type":"uint8","internalType":"uint8"},{"name":"payload","type":"bytes","internalType":"bytes"}]}]},{"name":"to","type":"tuple","internalType":"struct IPCAddress","components":[{"name":"subnetId","type":"tuple","internalType":"struct SubnetID","components":[{"name":"root","type":"uint64","internalType":"uint64"},{"name":"route","type":"address[]","internalType":"address[]"}]},{"name":"rawAddress","type":"tuple","internalType":"struct FvmAddress","components":[{"name":"addrType","type":"uint8","internalType":"uint8"},{"name":"payload","type":"bytes","internalType":"bytes"}]}]},{"name":"value","type":"uint256","internalType":"uint256"},{"name":"method","type":"bytes4","internalType":"bytes4"},{"name":"params","type":"bytes","internalType":"bytes"}],"outputs":[{"name":"","type":"tuple","internalType":"struct IpcEnvelope","components":[{"name":"kind","type":"IpcMsgKind","internalType":"enum IpcMsgKind"},{"name":"to","type":"tuple","internalType":"struct IPCAddress","components":[{"name":"subnetId","type":"tuple","internalType":"struct SubnetID","components":[{"name":"root","type":"uint64","internalType":"uint64"},{"name":"route","type":"address[]","internalType":"address[]"}]},{"name":"rawAddress","type":"tuple","internalType":"struct FvmAddress","components":[{"name":"addrType","type":"uint8","internalType":"uint8"},{"name":"payload","type":"bytes","internalType":"bytes"}]}]},{"name":"from","type":"tuple","internalType":"struct IPCAddress","components":[{"name":"subnetId","type":"tuple","internalType":"struct SubnetID","components":[{"name":"root","type":"uint64","internalType":"uint64"},{"name":"route","type":"address[]","internalType":"address[]"}]},{"name":"rawAddress","type":"tuple","internalType":"struct FvmAddress","components":[{"name":"addrType","type":"uint8","internalType":"uint8"},{"name":"payload","type":"bytes","internalType":"bytes"}]}]},{"name":"nonce","type":"uint64","internalType":"uint64"},{"name":"value","type":"uint256","internalType":"uint256"},{"name":"message","type":"bytes","internalType":"bytes"}]}],"stateMutability":"pure"},{"type":"function","name":"createFundMsg","inputs":[{"name":"subnet","type":"tuple","internalType":"struct SubnetID","components":[{"name":"root","type":"uint64","internalType":"uint64"},{"name":"route","type":"address[]","internalType":"address[]"}]},{"name":"signer","type":"address","internalType":"address"},{"name":"to","type":"tuple","internalType":"struct FvmAddress","components":[{"name":"addrType","type":"uint8","internalType":"uint8"},{"name":"payload","type":"bytes","internalType":"bytes"}]},{"name":"value","type":"uint256","internalType":"uint256"}],"outputs":[{"name":"","type":"tuple","internalType":"struct IpcEnvelope","components":[{"name":"kind","type":"IpcMsgKind","internalType":"enum IpcMsgKind"},{"name":"to","type":"tuple","internalType":"struct IPCAddress","components":[{"name":"subnetId","type":"tuple","internalType":"struct SubnetID","components":[{"name":"root","type":"uint64","internalType":"uint64"},{"name":"route","type":"address[]","internalType":"address[]"}]},{"name":"rawAddress","type":"tuple","internalType":"struct FvmAddress","components":[{"name":"addrType","type":"uint8","internalType":"uint8"},{"name":"payload","type":"bytes","internalType":"bytes"}]}]},{"name":"from","type":"tuple","internalType":"struct IPCAddress","components":[{"name":"subnetId","type":"tuple","internalType":"struct SubnetID","components":[{"name":"root","type":"uint64","internalType":"uint64"},{"name":"route","type":"address[]","internalType":"address[]"}]},{"name":"rawAddress","type":"tuple","internalType":"struct FvmAddress","components":[{"name":"addrType","type":"uint8","internalType":"uint8"},{"name":"payload","type":"bytes","internalType":"bytes"}]}]},{"name":"nonce","type":"uint64","internalType":"uint64"},{"name":"value","type":"uint256","internalType":"uint256"},{"name":"message","type":"bytes","internalType":"bytes"}]}],"stateMutability":"pure"},{"type":"function","name":"createReleaseMsg","inputs":[{"name":"subnet","type":"tuple","internalType":"struct SubnetID","components":[{"name":"root","type":"uint64","internalType":"uint64"},{"name":"route","type":"address[]","internalType":"address[]"}]},{"name":"signer","type":"address","internalType":"address"},{"name":"to","type":"tuple","internalType":"struct FvmAddress","components":[{"name":"addrType","type":"uint8","internalType":"uint8"},{"name":"payload","type":"bytes","internalType":"bytes"}]},{"name":"value","type":"uint256","internalType":"uint256"}],"outputs":[{"name":"","type":"tuple","internalType":"struct IpcEnvelope","components":[{"name":"kind","type":"IpcMsgKind","internalType":"enum IpcMsgKind"},{"name":"to","type":"tuple","internalType":"struct IPCAddress","components":[{"name":"subnetId","type":"tuple","internalType":"struct SubnetID","components":[{"name":"root","type":"uint64","internalType":"uint64"},{"name":"route","type":"address[]","internalType":"address[]"}]},{"name":"rawAddress","type":"tuple","internalType":"struct FvmAddress","components":[{"name":"addrType","type":"uint8","internalType":"uint8"},{"name":"payload","type":"bytes","internalType":"bytes"}]}]},{"name":"from","type":"tuple","internalType":"struct IPCAddress","components":[{"name":"subnetId","type":"tuple","internalType":"struct SubnetID","components":[{"name":"root","type":"uint64","internalType":"uint64"},{"name":"route","type":"address[]","internalType":"address[]"}]},{"name":"rawAddress","type":"tuple","internalType":"struct FvmAddress","components":[{"name":"addrType","type":"uint8","internalType":"uint8"},{"name":"payload","type":"bytes","internalType":"bytes"}]}]},{"name":"nonce","type":"uint64","internalType":"uint64"},{"name":"value","type":"uint256","internalType":"uint256"},{"name":"message","type":"bytes","internalType":"bytes"}]}],"stateMutability":"pure"},{"type":"function","name":"createResultMsg","inputs":[{"name":"crossMsg","type":"tuple","internalType":"struct IpcEnvelope","components":[{"name":"kind","type":"IpcMsgKind","internalType":"enum IpcMsgKind"},{"name":"to","type":"tuple","internalType":"struct IPCAddress","components":[{"name":"subnetId","type":"tuple","internalType":"struct SubnetID","components":[{"name":"root","type":"uint64","internalType":"uint64"},{"name":"route","type":"address[]","internalType":"address[]"}]},{"name":"rawAddress","type":"tuple","internalType":"struct FvmAddress","components":[{"name":"addrType","type":"uint8","internalType":"uint8"},{"name":"payload","type":"bytes","internalType":"bytes"}]}]},{"name":"from","type":"tuple","internalType":"struct IPCAddress","components":[{"name":"subnetId","type":"tuple","internalType":"struct SubnetID","components":[{"name":"root","type":"uint64","internalType":"uint64"},{"name":"route","type":"address[]","internalType":"address[]"}]},{"name":"rawAddress","type":"tuple","internalType":"struct FvmAddress","components":[{"name":"addrType","type":"uint8","internalType":"uint8"},{"name":"payload","type":"bytes","internalType":"bytes"}]}]},{"name":"nonce","type":"uint64","internalType":"uint64"},{"name":"value","type":"uint256","internalType":"uint256"},{"name":"message","type":"bytes","internalType":"bytes"}]},{"name":"outcome","type":"OutcomeType","internalType":"enum OutcomeType"},{"name":"ret","type":"bytes","internalType":"bytes"}],"outputs":[{"name":"","type":"tuple","internalType":"struct IpcEnvelope","components":[{"name":"kind","type":"IpcMsgKind","internalType":"enum IpcMsgKind"},{"name":"to","type":"tuple","internalType":"struct IPCAddress","components":[{"name":"subnetId","type":"tuple","internalType":"struct SubnetID","components":[{"name":"root","type":"uint64","internalType":"uint64"},{"name":"route","type":"address[]","internalType":"address[]"}]},{"name":"rawAddress","type":"tuple","internalType":"struct FvmAddress","components":[{"name":"addrType","type":"uint8","internalType":"uint8"},{"name":"payload","type":"bytes","internalType":"bytes"}]}]},{"name":"from","type":"tuple","internalType":"struct IPCAddress","components":[{"name":"subnetId","type":"tuple","internalType":"struct SubnetID","components":[{"name":"root","type":"uint64","internalType":"uint64"},{"name":"route","type":"address[]","internalType":"address[]"}]},{"name":"rawAddress","type":"tuple","internalType":"struct FvmAddress","components":[{"name":"addrType","type":"uint8","internalType":"uint8"},{"name":"payload","type":"bytes","internalType":"bytes"}]}]},{"name":"nonce","type":"uint64","internalType":"uint64"},{"name":"value","type":"uint256","internalType":"uint256"},{"name":"message","type":"bytes","internalType":"bytes"}]}],"stateMutability":"pure"},{"type":"function","name":"createTransferMsg","inputs":[{"name":"from","type":"tuple","internalType":"struct IPCAddress","components":[{"name":"subnetId","type":"tuple","internalType":"struct SubnetID","components":[{"name":"root","type":"uint64","internalType":"uint64"},{"name":"route","type":"address[]","internalType":"address[]"}]},{"name":"rawAddress","type":"tuple","internalType":"struct FvmAddress","components":[{"name":"addrType","type":"uint8","internalType":"uint8"},{"name":"payload","type":"bytes","internalType":"bytes"}]}]},{"name":"to","type":"tuple","internalType":"struct IPCAddress","components":[{"name":"subnetId","type":"tuple","internalType":"struct SubnetID","components":[{"name":"root","type":"uint64","internalType":"uint64"},{"name":"route","type":"address[]","internalType":"address[]"}]},{"name":"rawAddress","type":"tuple","internalType":"struct FvmAddress","components":[{"name":"addrType","type":"uint8","internalType":"uint8"},{"name":"payload","type":"bytes","internalType":"bytes"}]}]},{"name":"value","type":"uint256","internalType":"uint256"}],"outputs":[{"name":"","type":"tuple","internalType":"struct IpcEnvelope","components":[{"name":"kind","type":"IpcMsgKind","internalType":"enum IpcMsgKind"},{"name":"to","type":"tuple","internalType":"struct IPCAddress","components":[{"name":"subnetId","type":"tuple","internalType":"struct SubnetID","components":[{"name":"root","type":"uint64","internalType":"uint64"},{"name":"route","type":"address[]","internalType":"address[]"}]},{"name":"rawAddress","type":"tuple","internalType":"struct FvmAddress","components":[{"name":"addrType","type":"uint8","internalType":"uint8"},{"name":"payload","type":"bytes","internalType":"bytes"}]}]},{"name":"from","type":"tuple","internalType":"struct IPCAddress","components":[{"name":"subnetId","type":"tuple","internalType":"struct SubnetID","components":[{"name":"root","type":"uint64","internalType":"uint64"},{"name":"route","type":"address[]","internalType":"address[]"}]},{"name":"rawAddress","type":"tuple","internalType":"struct FvmAddress","components":[{"name":"addrType","type":"uint8","internalType":"uint8"},{"name":"payload","type":"bytes","internalType":"bytes"}]}]},{"name":"nonce","type":"uint64","internalType":"uint64"},{"name":"value","type":"uint256","internalType":"uint256"},{"name":"message","type":"bytes","internalType":"bytes"}]}],"stateMutability":"pure"},{"type":"function","name":"isSorted","inputs":[{"name":"crossMsgs","type":"tuple[]","internalType":"struct IpcEnvelope[]","components":[{"name":"kind","type":"IpcMsgKind","internalType":"enum IpcMsgKind"},{"name":"to","type":"tuple","internalType":"struct IPCAddress","components":[{"name":"subnetId","type":"tuple","internalType":"struct SubnetID","components":[{"name":"root","type":"uint64","internalType":"uint64"},{"name":"route","type":"address[]","internalType":"address[]"}]},{"name":"rawAddress","type":"tuple","internalType":"struct FvmAddress","components":[{"name":"addrType","type":"uint8","internalType":"uint8"},{"name":"payload","type":"bytes","internalType":"bytes"}]}]},{"name":"from","type":"tuple","internalType":"struct IPCAddress","components":[{"name":"subnetId","type":"tuple","internalType":"struct SubnetID","components":[{"name":"root","type":"uint64","internalType":"uint64"},{"name":"route","type":"address[]","internalType":"address[]"}]},{"name":"rawAddress","type":"tuple","internalType":"struct FvmAddress","components":[{"name":"addrType","type":"uint8","internalType":"uint8"},{"name":"payload","type":"bytes","internalType":"bytes"}]}]},{"name":"nonce","type":"uint64","internalType":"uint64"},{"name":"value","type":"uint256","internalType":"uint256"},{"name":"message","type":"bytes","internalType":"bytes"}]}],"outputs":[{"name":"","type":"bool","internalType":"bool"}],"stateMutability":"pure"},{"type":"function","name":"toHash","inputs":[{"name":"crossMsgs","type":"tuple[]","internalType":"struct IpcEnvelope[]","components":[{"name":"kind","type":"IpcMsgKind","internalType":"enum IpcMsgKind"},{"name":"to","type":"tuple","internalType":"struct IPCAddress","components":[{"name":"subnetId","type":"tuple","internalType":"struct SubnetID","components":[{"name":"root","type":"uint64","internalType":"uint64"},{"name":"route","type":"address[]","internalType":"address[]"}]},{"name":"rawAddress","type":"tuple","internalType":"struct FvmAddress","components":[{"name":"addrType","type":"uint8","internalType":"uint8"},{"name":"payload","type":"bytes","internalType":"bytes"}]}]},{"name":"from","type":"tuple","internalType":"struct IPCAddress","components":[{"name":"subnetId","type":"tuple","internalType":"struct SubnetID","components":[{"name":"root","type":"uint64","internalType":"uint64"},{"name":"route","type":"address[]","internalType":"address[]"}]},{"name":"rawAddress","type":"tuple","internalType":"struct FvmAddress","components":[{"name":"addrType","type":"uint8","internalType":"uint8"},{"name":"payload","type":"bytes","internalType":"bytes"}]}]},{"name":"nonce","type":"uint64","internalType":"uint64"},{"name":"value","type":"uint256","internalType":"uint256"},{"name":"message","type":"bytes","internalType":"bytes"}]}],"outputs":[{"name":"","type":"bytes32","internalType":"bytes32"}],"stateMutability":"pure"},{"type":"error","name":"CannotExecuteEmptyEnvelope","inputs":[]},{"type":"error","name":"NotDelegatedEvmAddress","inputs":[]},{"type":"error","name":"NotEnoughBalance","inputs":[]}],"bytecode":{"object":"0x61216461003a600b82828239805160001a60731461002d57634e487b7160e01b600052600060045260246000fd5b30600052607381538281f3fe730000000000000000000000000000000000000000301460806040526004361061009d5760003560e01c806399aa0eb41161007057806399aa0eb41461012c5780639b7df85a1461013f5780639b814ea014610152578063dd1fcec714610165578063f43cec671461018857600080fd5b80630cb89862146100a25780631860845e146100d95780635404605f146100f9578063855f7e451461010c575b600080fd5b8180156100ae57600080fd5b506100c26100bd366004611050565b6101a9565b6040516100d0929190611126565b60405180910390f35b6100ec6100e736600461115b565b610311565b6040516100d091906112b1565b6100ec610107366004611583565b6103f1565b61011f61011a3660046115ef565b61043a565b6040516100d09190611652565b6100ec61013a36600461115b565b61063f565b6100ec61014d366004611684565b610700565b6100ec6101603660046116fb565b6107f9565b6101786101733660046117ae565b610895565b60405190151581526020016100d0565b61019b6101963660046118e1565b610915565b6040519081526020016100d0565b600060606101be6101b985611991565b610945565b156101dc57604051630c2f41e760e41b815260040160405180910390fd5b600061021b61020d6101f1602088018861199d565b6101ff90602081019061199d565b610208906119bd565b610973565b6001600160a01b0316610a48565b9050600061022c60208701876119c9565b600281111561023d5761023d6111da565b0361025b5761025184826080880135610a86565b925092505061030a565b600161026a60208701876119c9565b600281111561027b5761027b6111da565b14806102a45750600261029160208701876119c9565b60028111156102a2576102a26111da565b145b156102f55761025181866040516024016102be9190611b88565b60408051601f198184030181529190526020810180516001600160e01b0316632a52428160e21b1790528691906080890135610af8565b50506040805160208101909152600080825291505b9250929050565b610319610ee8565b6103e860405180604001604052808761033190611c3f565b815260200161033f87610b7d565b81525060405180604001604052808861035790611c3f565b6040516308c7427760e11b815273__$a0fe38a9a81205afccc10810b09a4d3f45$__9163118e84ee9161038d9190600401611c4b565b600060405180830381865af41580156103aa573d6000803e3d6000fd5b505050506040513d6000823e601f3d908101601f191682016040526103d29190810190611c5e565b81526020016103e0876119bd565b9052846103f1565b95945050505050565b6103f9610ee8565b506040805160c0810182526000808252602080830195909552818301959095526060810185905260808101929092528051928301905291815260a082015290565b60008061044a602085018561199d565b610454908061199d565b61045d90611c3f565b9050600061046e604086018661199d565b610478908061199d565b61048190611c3f565b9050600061048e85611c3f565b604051631ccc893360e11b815273__$a0fe38a9a81205afccc10810b09a4d3f45$__916339991266916104c691908790600401611d3e565b600060405180830381865af41580156104e3573d6000803e3d6000fd5b505050506040513d6000823e601f3d908101601f1916820160405261050b9190810190611c5e565b604051631ccc893360e11b815290915060009073__$a0fe38a9a81205afccc10810b09a4d3f45$__9063399912669061054a9086908890600401611d3e565b600060405180830381865af4158015610567573d6000803e3d6000fd5b505050506040513d6000823e601f3d908101601f1916820160405261058f9190810190611c5e565b60405163c836244d60e01b815290915073__$a0fe38a9a81205afccc10810b09a4d3f45$__9063c836244d906105cb9085908590600401611d3e565b602060405180830381865af41580156105e8573d6000803e3d6000fd5b505050506040513d601f19601f8201168201806040525081019061060c9190611d63565b15610630578060200151518360200151511115610630576001945050505050610639565b60009450505050505b92915050565b610647610ee8565b6103e860405180604001604052808761065f90611c3f565b6040516308c7427760e11b815273__$a0fe38a9a81205afccc10810b09a4d3f45$__9163118e84ee916106959190600401611c4b565b600060405180830381865af41580156106b2573d6000803e3d6000fd5b505050506040513d6000823e601f3d908101601f191682016040526106da9190810190611c5e565b81526020016106e887610b7d565b8152506040518060400160405280886103d290611c3f565b610708610ee8565b600060405180606001604052806107278761072290611991565b610c2b565b815260200185600281111561073e5761073e6111da565b8152602001849052905060808501356000856002811115610761576107616111da565b0361076a575060005b6040805160c08101909152806002815260200161078a604089018961199d565b61079390611d85565b81526020018780602001906107a8919061199d565b6107b190611d85565b815260200160006001600160401b03168152602001828152602001836040516020016107dd9190611d91565b60408051601f1981840301815291905290529695505050505050565b610801610ee8565b6040805180820182526001600160e01b03198516606082015281516044818303018152606482018352815260208101849052815160c0810190925290806001815260200187815260200188815260200160006001600160401b03168152602001868152602001826040516020016108789190611dcb565b60408051601f198184030181529190529052979650505050505050565b60008082815b818110156109095760008686838181106108b7576108b7611e04565b90506020028101906108c99190611e1a565b6108da906080810190606001611e30565b6001600160401b031690508084106108ff5781156108ff576000945050505050610639565b925060010161089b565b50600195945050505050565b6000816040516020016109289190611f5a565b604051602081830303815290604052805190602001209050919050565b6000808251600281111561095b5761095b6111da565b036109695750608001511590565b5060a00151511590565b805160009060ff1660041461099b5760405163c5f8961f60e01b815260040160405180910390fd5b600082602001518060200190518101906109b59190611fbe565b80519091506001600160401b0316600a146109e35760405163c5f8961f60e01b815260040160405180910390fd5b80602001516001600160801b0316601414610a115760405163c5f8961f60e01b815260040160405180910390fd5b806040015151601414610a375760405163c5f8961f60e01b815260040160405180910390fd5b6040810151601401515b9392505050565b6000806000610a5684610c3e565b9150915081610a6757509192915050565b600080610a7383610c7a565b91509150816103e8575093949350505050565b600060608185516001811115610a9e57610a9e6111da565b03610ac657610aad8484610ce4565b6040805160208101909152600081529092509050610af0565b600185516001811115610adb57610adb6111da565b03610af057610aeb858585610d64565b915091505b935093915050565b6000606082600003610b1957610b1085856000610e2c565b91509150610b74565b600086516001811115610b2e57610b2e6111da565b03610b4857610b3e858585610e2c565b9092509050610b74565b600186516001811115610b5d57610b5d6111da565b03610b7457610b6e86868686610ea7565b90925090505b94509492505050565b60408051808201909152600081526060602082015260006040518060600160405280600a6001600160401b0316815260200160146001600160801b0316815260200184604051602001610be8919060609190911b6bffffffffffffffffffffffff1916815260140190565b60408051601f19818403018152918152915251610c089190602001612097565b60408051601f198184030181528282019091526004825260208201529392505050565b60008160405160200161092891906120d8565b60008073ffffffffffffffffffffffff0000000000000000831660ff60981b8103610c7457600192506001600160401b03841691505b50915091565b600080826000526016600a602060006002607f60991b015afa9150600051806001600160a01b031691508060a01c61ffff16905061040a8114610cc05760009250600091505b50811580610ccf57503d601614155b15610cdf57506000928392509050565b915091565b600081471015610d075760405163569d45cf60e11b815260040160405180910390fd5b6000836001600160a01b03168360405160006040518083038185875af1925050503d8060008114610d54576040519150601f19603f3d011682016040523d82523d6000602084013e610d59565b606091505b509095945050505050565b6000606084602001516001600160a01b031663a9059cbb60e01b8585604051602001610da59291906001600160a01b03929092168252602082015260400190565b60408051601f1981840301815290829052610dc392916020016120eb565b60408051601f1981840301815290829052610ddd9161211c565b6000604051808303816000865af19150503d8060008114610e1a576040519150601f19603f3d011682016040523d82523d6000602084013e610e1f565b606091505b5091509150935093915050565b6000606082471015610e515760405163569d45cf60e11b815260040160405180910390fd5b846001600160a01b03168385604051610e6a919061211c565b60006040518083038185875af1925050503d8060008114610e1a576040519150601f19603f3d011682016040523d82523d6000602084013e610e1f565b60006060610eb6868685610d64565b90925090508115610ed357610ecd85856000610e2c565b90925090505b81610b745780511561009d5780518082602001fd5b6040805160c081019091528060008152602001610f03610f29565b8152602001610f10610f29565b8152600060208201819052604082015260609081015290565b6040805160808101825260009181019182526060808201529081908152602001610f696040518060400160405280600060ff168152602001606081525090565b905290565b600060c08284031215610f8057600080fd5b50919050565b634e487b7160e01b600052604160045260246000fd5b604080519081016001600160401b0381118282101715610fbe57610fbe610f86565b60405290565b60405160c081016001600160401b0381118282101715610fbe57610fbe610f86565b604051606081016001600160401b0381118282101715610fbe57610fbe610f86565b604051601f8201601f191681016001600160401b038111828210171561103057611030610f86565b604052919050565b6001600160a01b038116811461104d57600080fd5b50565b600080828403606081121561106457600080fd5b83356001600160401b0381111561107a57600080fd5b61108686828701610f6e565b9350506040601f198201121561109b57600080fd5b506110a4610f9c565b6020840135600281106110b657600080fd5b815260408401356110c681611038565b6020820152919491935090915050565b60005b838110156110f15781810151838201526020016110d9565b50506000910152565b600081518084526111128160208601602086016110d6565b601f01601f19169290920160200192915050565b821515815260406020820152600061114160408301846110fa565b949350505050565b600060408284031215610f8057600080fd5b6000806000806080858703121561117157600080fd5b84356001600160401b038082111561118857600080fd5b61119488838901611149565b9550602087013591506111a682611038565b909350604086013590808211156111bc57600080fd5b506111c987828801611149565b949793965093946060013593505050565b634e487b7160e01b600052602160045260246000fd5b6003811061104d5761104d6111da565b6000604083016001600160401b03835116845260208084015160406020870152828151808552606088019150602083019450600092505b808310156112605784516001600160a01b03168252938301936001929092019190830190611237565b509695505050505050565b60008151604084526112806040850182611200565b90506020830151848203602086015260ff815116825260208101519050604060208301526103e860408301826110fa565b60208152600082516112c2816111f0565b80602084015250602083015160c060408401526112e260e084018261126b565b90506040840151601f1980858403016060860152611300838361126b565b92506001600160401b036060870151166080860152608086015160a086015260a08601519150808584030160c0860152506103e882826110fa565b6001600160401b038116811461104d57600080fd5b803561135b8161133b565b919050565b60006001600160401b0382111561137957611379610f86565b5060051b60200190565b60006040828403121561139557600080fd5b61139d610f9c565b905081356113aa8161133b565b81526020828101356001600160401b038111156113c657600080fd5b8301601f810185136113d757600080fd5b80356113ea6113e582611360565b611008565b81815260059190911b8201830190838101908783111561140957600080fd5b928401925b8284101561143057833561142181611038565b8252928401929084019061140e565b8085870152505050505092915050565b803560ff8116811461135b57600080fd5b60006001600160401b0382111561146a5761146a610f86565b50601f01601f191660200190565b600082601f83011261148957600080fd5b81356114976113e582611451565b8181528460208386010111156114ac57600080fd5b816020850160208301376000918101602001919091529392505050565b6000604082840312156114db57600080fd5b6114e3610f9c565b90506114ee82611440565b815260208201356001600160401b0381111561150957600080fd5b61151584828501611478565b60208301525092915050565b60006040828403121561153357600080fd5b61153b610f9c565b905081356001600160401b038082111561155457600080fd5b61156085838601611383565b8352602084013591508082111561157657600080fd5b50611515848285016114c9565b60008060006060848603121561159857600080fd5b83356001600160401b03808211156115af57600080fd5b6115bb87838801611521565b945060208601359150808211156115d157600080fd5b506115de86828701611521565b925050604084013590509250925092565b6000806040838503121561160257600080fd5b82356001600160401b038082111561161957600080fd5b61162586838701610f6e565b9350602085013591508082111561163b57600080fd5b5061164885828601611149565b9150509250929050565b6020810160028310611666576116666111da565b91905290565b6003811061104d57600080fd5b803561135b8161166c565b60008060006060848603121561169957600080fd5b83356001600160401b03808211156116b057600080fd5b6116bc87838801610f6e565b9450602086013591506116ce8261166c565b909250604085013590808211156116e457600080fd5b506116f186828701611478565b9150509250925092565b600080600080600060a0868803121561171357600080fd5b85356001600160401b038082111561172a57600080fd5b61173689838a01611521565b9650602088013591508082111561174c57600080fd5b61175889838a01611521565b955060408801359450606088013591506001600160e01b03198216821461177e57600080fd5b9092506080870135908082111561179457600080fd5b506117a188828901611478565b9150509295509295909350565b600080602083850312156117c157600080fd5b82356001600160401b03808211156117d857600080fd5b818501915085601f8301126117ec57600080fd5b8135818111156117fb57600080fd5b8660208260051b850101111561181057600080fd5b60209290920196919550909350505050565b600060c0828403121561183457600080fd5b61183c610fc4565b905061184782611679565b815260208201356001600160401b038082111561186357600080fd5b61186f85838601611521565b6020840152604084013591508082111561188857600080fd5b61189485838601611521565b60408401526118a560608501611350565b60608401526080840135608084015260a08401359150808211156118c857600080fd5b506118d584828501611478565b60a08301525092915050565b600060208083850312156118f457600080fd5b82356001600160401b038082111561190b57600080fd5b818501915085601f83011261191f57600080fd5b813561192d6113e582611360565b81815260059190911b8301840190848101908883111561194c57600080fd5b8585015b83811015611984578035858111156119685760008081fd5b6119768b89838a0101611822565b845250918601918601611950565b5098975050505050505050565b60006106393683611822565b60008235603e198336030181126119b357600080fd5b9190910192915050565b600061063936836114c9565b6000602082840312156119db57600080fd5b8135610a418161166c565b60008235603e198336030181126119fc57600080fd5b90910192915050565b6000808335601e19843603018112611a1c57600080fd5b83016020810192503590506001600160401b03811115611a3b57600080fd5b80360382131561030a57600080fd5b81835281816020850137506000828201602090810191909152601f909101601f19169091010190565b60ff611a7e82611440565b1682526000611a906020830183611a05565b604060208601526103e8604086018284611a4a565b6000611ab182836119e6565b60408452608084018135611ac48161133b565b6001600160401b0390811660408701526020908382013536859003601e19018112611aee57600080fd5b90930181810193903581811115611b0457600080fd5b8060051b3603851315611b1657600080fd5b60406060890152928390525060009160a08701905b80841015611b5d578435611b3e81611038565b6001600160a01b03168252938201936001939093019290820190611b2b565b50611b6a828701876119e6565b935086810382880152611b7d8185611a73565b979650505050505050565b6020815260008235611b998161166c565b611ba2816111f0565b80602084015250611bb660208401846119e6565b60c06040840152611bca60e0840182611aa5565b9050611bd960408501856119e6565b601f1980858403016060860152611bf08383611aa5565b925060608601359150611c028261133b565b6001600160401b0382166080860152608086013560a0860152611c2860a0870187611a05565b9250818685030160c0870152611b7d848483611a4a565b60006106393683611383565b602081526000610a416020830184611200565b60006020808385031215611c7157600080fd5b82516001600160401b0380821115611c8857600080fd5b9084019060408287031215611c9c57600080fd5b611ca4610f9c565b8251611caf8161133b565b81528284015182811115611cc257600080fd5b80840193505086601f840112611cd757600080fd5b82519150611ce76113e583611360565b82815260059290921b83018401918481019088841115611d0657600080fd5b938501935b83851015611d2d578451611d1e81611038565b82529385019390850190611d0b565b948201949094529695505050505050565b604081526000611d516040830185611200565b82810360208401526103e88185611200565b600060208284031215611d7557600080fd5b81518015158114610a4157600080fd5b60006106393683611521565b602081528151602082015260006020830151611dac816111f0565b80604084015250604083015160608084015261114160808401826110fa565b602081526000825160406020840152611de760608401826110fa565b90506020840151601f198483030160408501526103e882826110fa565b634e487b7160e01b600052603260045260246000fd5b6000823560be198336030181126119b357600080fd5b600060208284031215611e4257600080fd5b8135610a418161133b565b8051604080845281516001600160401b031684820152602091820151606085019190915280516080850181905260009291820191839160a08701905b80841015611eb25784516001600160a01b03168252938201936001939093019290820190611e89565b508186015193508681038288015260ff8451168152818401519350604082820152611b7d60408201856110fa565b60008151611eed816111f0565b80845250602082015160c06020850152611f0a60c0850182611e4d565b905060408301518482036040860152611f238282611e4d565b9150506001600160401b0360608401511660608501526080830151608085015260a083015184820360a08601526103e882826110fa565b600060208083016020845280855180835260408601915060408160051b87010192506020870160005b82811015611fb157603f19888603018452611f9f858351611ee0565b94509285019290850190600101611f83565b5092979650505050505050565b60006020808385031215611fd157600080fd5b82516001600160401b0380821115611fe857600080fd5b9084019060608287031215611ffc57600080fd5b612004610fe6565b825161200f8161133b565b8152828401516001600160801b038116811461202a57600080fd5b8185015260408301518281111561204057600080fd5b80840193505086601f84011261205557600080fd5b825191506120656113e583611451565b828152878584860101111561207957600080fd5b612088838683018787016110d6565b60408201529695505050505050565b602081526001600160401b0382511660208201526001600160801b0360208301511660408201526000604083015160608084015261114160808401826110fa565b602081526000610a416020830184611ee0565b6001600160e01b031983168152815160009061210e8160048501602087016110d6565b919091016004019392505050565b600082516119b38184602087016110d656fea264697066735822122010bdc96a9d2dca874d25c0227722f4604fd41a9b1136436f06e8942f4aed6bcf64736f6c63430008180033","linkReferences":{"src/lib/SubnetIDHelper.sol":{"SubnetIDHelper":[{"start":928,"length":20},{"start":1239,"length":20},{"start":1370,"length":20},{"start":1499,"length":20},{"start":1704,"length":20}]}}},"methodIdentifiers":{"applyType(IpcEnvelope,SubnetID)":"855f7e45","createCallMsg(IPCAddress,IPCAddress,uint256,bytes4,bytes)":"9b814ea0","createFundMsg(SubnetID,address,FvmAddress,uint256)":"99aa0eb4","createReleaseMsg(SubnetID,address,FvmAddress,uint256)":"1860845e","createResultMsg(IpcEnvelope,OutcomeType,bytes)":"9b7df85a","createTransferMsg(IPCAddress,IPCAddress,uint256)":"5404605f","execute(IpcEnvelope,SupplySource)":"0cb89862","isSorted(IpcEnvelope[])":"dd1fcec7","toHash(IpcEnvelope[])":"f43cec67"},"id":71}