{"abi":[{"type":"function","name":"PROTOCOL_V1","inputs":[],"outputs":[{"name":"","type":"uint256","internalType":"uint256"}],"stateMutability":"view"},{"type":"function","name":"PROTOCOL_V2","inputs":[],"outputs":[{"name":"","type":"uint256","internalType":"uint256"}],"stateMutability":"view"}],"bytecode":{"object":"0x6080806040523460175760919081601c823930815050f35b5f80fdfe60808060405260043610156011575f80fd5b5f3560e01c9081636688a3d4146048575063909ff4e814602f575f80fd5b5f366003190112604457602060405160018152f35b5f80fd5b5f36600319011260445780600260209252f3fea2646970667358221220afa68b19fc31c505022cfd3840b9c220663a0489a519d3267730488d10a29b8264736f6c634300081a0033","linkReferences":{}},"methodIdentifiers":{"PROTOCOL_V1()":"909ff4e8","PROTOCOL_V2()":"6688a3d4"},"storageLayout":{"storage":[],"types":{}},"devdoc":{"version":1,"kind":"dev"},"id":148}