{"abi":[{"type":"function","name":"addProviderToAccessList","inputs":[{"name":"provider","type":"address","internalType":"address"}],"outputs":[],"stateMutability":"nonpayable"},{"type":"function","name":"appCID","inputs":[],"outputs":[{"name":"","type":"tuple","internalType":"struct CIDV1","components":[{"name":"prefixes","type":"bytes4","internalType":"bytes4"},{"name":"hash","type":"bytes32","internalType":"bytes32"}]}],"stateMutability":"view"},{"type":"function","name":"changeProvidersAccessType","inputs":[{"name":"accessType","type":"uint8","internalType":"enum IConfig.AccessType"}],"outputs":[],"stateMutability":"nonpayable"},{"type":"function","name":"creationBlock","inputs":[],"outputs":[{"name":"","type":"uint256","internalType":"uint256"}],"stateMutability":"view"},{"type":"function","name":"effectors","inputs":[],"outputs":[{"name":"","type":"tuple[]","internalType":"struct CIDV1[]","components":[{"name":"prefixes","type":"bytes4","internalType":"bytes4"},{"name":"hash","type":"bytes32","internalType":"bytes32"}]}],"stateMutability":"view"},{"type":"function","name":"isProviderAllowed","inputs":[{"name":"account","type":"address","internalType":"address"}],"outputs":[{"name":"","type":"bool","internalType":"bool"}],"stateMutability":"view"},{"type":"function","name":"maxWorkersPerProvider","inputs":[],"outputs":[{"name":"","type":"uint256","internalType":"uint256"}],"stateMutability":"view"},{"type":"function","name":"minWorkers","inputs":[],"outputs":[{"name":"","type":"uint256","internalType":"uint256"}],"stateMutability":"view"},{"type":"function","name":"owner","inputs":[],"outputs":[{"name":"","type":"address","internalType":"address"}],"stateMutability":"view"},{"type":"function","name":"paymentToken","inputs":[],"outputs":[{"name":"","type":"address","internalType":"contract IERC20"}],"stateMutability":"view"},{"type":"function","name":"pricePerWorkerEpoch","inputs":[],"outputs":[{"name":"","type":"uint256","internalType":"uint256"}],"stateMutability":"view"},{"type":"function","name":"providersAccessType","inputs":[],"outputs":[{"name":"","type":"uint8","internalType":"enum IConfig.AccessType"}],"stateMutability":"view"},{"type":"function","name":"removeProviderFromAccessList","inputs":[{"name":"provider","type":"address","internalType":"address"}],"outputs":[],"stateMutability":"nonpayable"},{"type":"function","name":"renounceOwnership","inputs":[],"outputs":[],"stateMutability":"nonpayable"},{"type":"function","name":"setAppCID","inputs":[{"name":"appCID_","type":"tuple","internalType":"struct CIDV1","components":[{"name":"prefixes","type":"bytes4","internalType":"bytes4"},{"name":"hash","type":"bytes32","internalType":"bytes32"}]}],"outputs":[],"stateMutability":"nonpayable"},{"type":"function","name":"targetWorkers","inputs":[],"outputs":[{"name":"","type":"uint256","internalType":"uint256"}],"stateMutability":"view"},{"type":"function","name":"transferOwnership","inputs":[{"name":"newOwner","type":"address","internalType":"address"}],"outputs":[],"stateMutability":"nonpayable"},{"type":"event","name":"AppCIDChanged","inputs":[{"name":"newAppCID","type":"tuple","indexed":false,"internalType":"struct CIDV1","components":[{"name":"prefixes","type":"bytes4","internalType":"bytes4"},{"name":"hash","type":"bytes32","internalType":"bytes32"}]}],"anonymous":false},{"type":"event","name":"Initialized","inputs":[{"name":"version","type":"uint8","indexed":false,"internalType":"uint8"}],"anonymous":false},{"type":"event","name":"OwnershipTransferred","inputs":[{"name":"previousOwner","type":"address","indexed":true,"internalType":"address"},{"name":"newOwner","type":"address","indexed":true,"internalType":"address"}],"anonymous":false},{"type":"event","name":"ProviderAddedToAccessList","inputs":[{"name":"provider","type":"address","indexed":false,"internalType":"address"}],"anonymous":false},{"type":"event","name":"ProviderRemovedFromAccessList","inputs":[{"name":"provider","type":"address","indexed":false,"internalType":"address"}],"anonymous":false},{"type":"event","name":"ProvidersAccessTypeChanged","inputs":[{"name":"newAccessType","type":"uint8","indexed":false,"internalType":"enum IConfig.AccessType"}],"anonymous":false},{"type":"error","name":"OwnableInvalidOwner","inputs":[{"name":"owner","type":"address","internalType":"address"}]},{"type":"error","name":"OwnableUnauthorizedAccount","inputs":[{"name":"account","type":"address","internalType":"address"}]}],"bytecode":{"object":"0x6080806040523461001657610acd908161001c8239f35b600080fdfe608060409080825260048036101561001657600080fd5b60009160e090833560e01c908163176345141461085657508063176474cf146107c45780632943dcab146107865780632db31193146107485780633013ce29146107005780633e8ae1ae146106c5578063444e6a5a14610649578063636fcefb146105595780636cd134481461051b578063715018a6146104c357806373134c15146103ca5780638a0c725b1461038c5780638da5cb5b146103565780639bc66868146102e8578063d4773ff0146102ac578063f2fde38b1461021f5763fc1e5e2a146100e257600080fd5b3461021b578260031936011261021b577f8953f5482bc1a621075e75537625fa3bd2025e7df7baf6ba1dbfbf2212912d0e80549093906001600160401b0380821161020857865194600583901b603f01601f19168601918211868310176101f557508695949293965280825260209586830190819585528785209085925b8484106101b6575050505050835194859481860192828752518093528086019493905b8382106101905786860387f35b9184965082866101a66001949698849851610891565b0196019201869594929391610183565b60028a6001926101ca9c99989a9b9c610969565b63ffffffff60e01b8754871b1681528487015483820152815201930193019291989796949598610160565b634e487b7160e01b845260419052602483fd5b634e487b7160e01b835260418552602483fd5b8280fd5b5050823461021b57602036600319011261021b576001600160a01b038235818116939192908490036102a85761025361099e565b8315610292575050600080516020610a3883398151915280546001600160a01b03198116841790915516600080516020610a188339815191528380a380f35b51631e4fbdf760e01b8152908101849052602490fd5b8480fd5b8385346102e457816003193601126102e4576102e09060ff6000805160206109f883398151915254169051918291826108aa565b0390f35b5080fd5b505050346103535780600319360112610353576020610305610969565b8281520152610312610969565b63ffffffff60e01b600080516020610a588339815191525460e01b1681526000805160206109d883398151915254602082015261035182518092610891565bf35b80fd5b8385346102e457816003193601126102e457600080516020610a388339815191525490516001600160a01b039091168152602090f35b8385346102e457816003193601126102e4576020907f8953f5482bc1a621075e75537625fa3bd2025e7df7baf6ba1dbfbf2212912d0c549051908152f35b5050823461021b57602036600319011261021b5781356001600160a01b03811692908390036104bf576103fb61099e565b60ff6000805160206109f8833981519152541660038110156104ac571561046c5750816020917f4c26e4de691e265be6cf03e639754839907bf74687cd524a6734851331527ffd938552600080516020610a788339815191528352808520600160ff1982541617905551908152a180f35b6020606492519162461bcd60e51b8352820152601b60248201527a436f6e6669673a206163636573732074797065206973204e4f4e4560281b6044820152fd5b634e487b7160e01b855260218252602485fd5b8380fd5b83346103535780600319360112610353576104dc61099e565b600080516020610a3883398151915280546001600160a01b0319811690915581906001600160a01b0316600080516020610a188339815191528280a380f35b8385346102e457816003193601126102e4576020907f8953f5482bc1a621075e75537625fa3bd2025e7df7baf6ba1dbfbf2212912d0d549051908152f35b5050823461021b57602036600319011261021b5781359160038310156104bf5761058161099e565b6000805160206109f88339815191529081549060ff821660038110156106365785146105e8575060ff191660ff8416179055517f1f5a251428f76335a835fcae94ab6a9bcf09ac33bd3c782eb6a81bdf878a73939181906105e290826108aa565b0390a180f35b608490602085519162461bcd60e51b8352820152602260248201527f436f6e6669673a20616363657373207479706520697320616c72656164792073604482015261195d60f21b6064820152fd5b634e487b7160e01b875260218252602487fd5b8385843461021b57602036600319011261021b57356001600160a01b038116919082900361021b577f38fb081a0b484406977bd94ff8edb79be44b5ca514130361182516b39e2c45289160209161069e61099e565b818552600080516020610a788339815191528352808520805460ff1916905551908152a180f35b8385843461021b57602036600319011261021b5735916001600160a01b038316830361035357506106f76020926108d3565b90519015158152f35b8385346102e457816003193601126102e4577f8953f5482bc1a621075e75537625fa3bd2025e7df7baf6ba1dbfbf2212912d085490516001600160a01b039091168152602090f35b8385346102e457816003193601126102e4576020907f8953f5482bc1a621075e75537625fa3bd2025e7df7baf6ba1dbfbf2212912d0a549051908152f35b8385346102e457816003193601126102e4576020907f8953f5482bc1a621075e75537625fa3bd2025e7df7baf6ba1dbfbf2212912d0b549051908152f35b8385843461021b578160031936011261021b576107df61099e565b35906001600160e01b031982168083036104bf577fc820a66d3bdd50a45cf12cda6dc8ec9e94fb5123edd7da736eea18316f8523a092600080516020610a588339815191529060e01c63ffffffff19825416179055602435806000805160206109d88339815191525582519182526020820152a180f35b8490346102e457816003193601126102e4576020907f8953f5482bc1a621075e75537625fa3bd2025e7df7baf6ba1dbfbf2212912d05548152f35b80516001600160e01b0319168252602090810151910152565b9190602083019260038210156108bd5752565b634e487b7160e01b600052602160045260246000fd5b60ff6000805160206109f8833981519152541660038110156108bd57801561096257600181146109365760021461090a5750600090565b6001600160a01b03166000908152600080516020610a78833981519152602052604090205460ff161590565b506001600160a01b03166000908152600080516020610a78833981519152602052604090205460ff1690565b5050600190565b60408051919082016001600160401b0381118382101761098857604052565b634e487b7160e01b600052604160045260246000fd5b600080516020610a38833981519152546001600160a01b031633036109bf57565b60405163118cdaa760e01b8152336004820152602490fdfe8953f5482bc1a621075e75537625fa3bd2025e7df7baf6ba1dbfbf2212912d078953f5482bc1a621075e75537625fa3bd2025e7df7baf6ba1dbfbf2212912d0f8be0079c531659141344cd1fd0a4f28419497f9722a3daafe3b4186f6b6457e0b13d3e7783d509d8d65d3e1e62ec0b103a07e0cbfa1ee74ae19127f297dddfcc8953f5482bc1a621075e75537625fa3bd2025e7df7baf6ba1dbfbf2212912d068953f5482bc1a621075e75537625fa3bd2025e7df7baf6ba1dbfbf2212912d10a264697066735822122054ca5d3daa4a9077caafe1eb81f7f79667953429e80b7015413409c3cf67959d64736f6c63430008180033","linkReferences":{}},"methodIdentifiers":{"addProviderToAccessList(address)":"73134c15","appCID()":"9bc66868","changeProvidersAccessType(uint8)":"636fcefb","creationBlock()":"17634514","effectors()":"fc1e5e2a","isProviderAllowed(address)":"3e8ae1ae","maxWorkersPerProvider()":"8a0c725b","minWorkers()":"2db31193","owner()":"8da5cb5b","paymentToken()":"3013ce29","pricePerWorkerEpoch()":"6cd13448","providersAccessType()":"d4773ff0","removeProviderFromAccessList(address)":"444e6a5a","renounceOwnership()":"715018a6","setAppCID((bytes4,bytes32))":"176474cf","targetWorkers()":"2943dcab","transferOwnership(address)":"f2fde38b"},"devdoc":{"version":1,"kind":"dev","methods":{"addProviderToAccessList(address)":{"details":"Adds a provider to the access list"},"appCID()":{"details":"Returns the app CID"},"changeProvidersAccessType(uint8)":{"details":"Change the providers access type"},"creationBlock()":{"details":"Returns the creation block of the deal"},"effectors()":{"details":"Returns the effector CIDs"},"isProviderAllowed(address)":{"details":"Returns the boolean indicating whether the provider is allowed or not"},"maxWorkersPerProvider()":{"details":"Returns the max number of workers per provider"},"minWorkers()":{"details":"Returns the min number of workers"},"owner()":{"details":"Returns the address of the current owner."},"paymentToken()":{"details":"Returns the payment token address"},"pricePerWorkerEpoch()":{"details":"Returns the price per worker per epoch"},"providersAccessType()":{"details":"Returns the providers access type"},"removeProviderFromAccessList(address)":{"details":"Removes a provider from the access list"},"renounceOwnership()":{"details":"Leaves the contract without owner. It will not be possible to call `onlyOwner` functions. Can only be called by the current owner. NOTE: Renouncing ownership will leave the contract without an owner, thereby disabling any functionality that is only available to the owner."},"setAppCID((bytes4,bytes32))":{"details":"Sets the app CID"},"targetWorkers()":{"details":"Returns the max number of workers"},"transferOwnership(address)":{"details":"Transfers ownership of the contract to a new account (`newOwner`). Can only be called by the current owner."}},"events":{"AppCIDChanged((bytes4,bytes32))":{"details":"Emitted when the app CID is changed","params":{"newAppCID":"The new app CID"}},"Initialized(uint8)":{"details":"Triggered when the contract has been initialized or reinitialized."},"ProviderAddedToAccessList(address)":{"details":"Emitted when a provider is added to the access list","params":{"provider":"The provider address"}},"ProviderRemovedFromAccessList(address)":{"details":"Emitted when a provider is removed from the access list","params":{"provider":"The provider address"}},"ProvidersAccessTypeChanged(uint8)":{"details":"Emitted when the providers access type is changed","params":{"newAccessType":"The new access type"}}},"errors":{"OwnableInvalidOwner(address)":[{"details":"The owner is not a valid owner account. (eg. `address(0)`)"}],"OwnableUnauthorizedAccount(address)":[{"details":"The caller account is not authorized to perform an operation."}]}},"id":89}