{"abi":[{"type":"function","name":"Config_init","inputs":[{"name":"diamond_","type":"address","internalType":"contract IDiamond"},{"name":"appCID_","type":"tuple","internalType":"struct CIDV1","components":[{"name":"prefixes","type":"bytes4","internalType":"bytes4"},{"name":"hash","type":"bytes32","internalType":"bytes32"}]},{"name":"paymentToken_","type":"address","internalType":"contract IERC20"},{"name":"minWorkers_","type":"uint256","internalType":"uint256"},{"name":"targetWorkers_","type":"uint256","internalType":"uint256"},{"name":"cuCountPerWorker_","type":"uint256","internalType":"uint256"},{"name":"maxWorkersPerProvider_","type":"uint256","internalType":"uint256"},{"name":"pricePerCuPerEpoch_","type":"uint256","internalType":"uint256"},{"name":"effectors_","type":"tuple[]","internalType":"struct CIDV1[]","components":[{"name":"prefixes","type":"bytes4","internalType":"bytes4"},{"name":"hash","type":"bytes32","internalType":"bytes32"}]},{"name":"owner_","type":"address","internalType":"address"},{"name":"providersAccessType_","type":"uint8","internalType":"enum IConfig.AccessType"},{"name":"providersAccessList_","type":"address[]","internalType":"address[]"}],"outputs":[],"stateMutability":"nonpayable"},{"type":"function","name":"addProviderToAccessList","inputs":[{"name":"provider","type":"address","internalType":"address"}],"outputs":[],"stateMutability":"nonpayable"},{"type":"function","name":"appCID","inputs":[],"outputs":[{"name":"","type":"tuple","internalType":"struct CIDV1","components":[{"name":"prefixes","type":"bytes4","internalType":"bytes4"},{"name":"hash","type":"bytes32","internalType":"bytes32"}]}],"stateMutability":"view"},{"type":"function","name":"changeProvidersAccessType","inputs":[{"name":"accessType","type":"uint8","internalType":"enum IConfig.AccessType"}],"outputs":[],"stateMutability":"nonpayable"},{"type":"function","name":"creationBlock","inputs":[],"outputs":[{"name":"","type":"uint256","internalType":"uint256"}],"stateMutability":"view"},{"type":"function","name":"cuCountPerWorker","inputs":[],"outputs":[{"name":"","type":"uint256","internalType":"uint256"}],"stateMutability":"view"},{"type":"function","name":"diamond","inputs":[],"outputs":[{"name":"","type":"address","internalType":"contract IDiamond"}],"stateMutability":"view"},{"type":"function","name":"effectors","inputs":[],"outputs":[{"name":"","type":"tuple[]","internalType":"struct CIDV1[]","components":[{"name":"prefixes","type":"bytes4","internalType":"bytes4"},{"name":"hash","type":"bytes32","internalType":"bytes32"}]}],"stateMutability":"view"},{"type":"function","name":"isProviderAllowed","inputs":[{"name":"account","type":"address","internalType":"address"}],"outputs":[{"name":"","type":"bool","internalType":"bool"}],"stateMutability":"view"},{"type":"function","name":"maxWorkersPerProvider","inputs":[],"outputs":[{"name":"","type":"uint256","internalType":"uint256"}],"stateMutability":"view"},{"type":"function","name":"minWorkers","inputs":[],"outputs":[{"name":"","type":"uint256","internalType":"uint256"}],"stateMutability":"view"},{"type":"function","name":"owner","inputs":[],"outputs":[{"name":"","type":"address","internalType":"address"}],"stateMutability":"view"},{"type":"function","name":"paymentToken","inputs":[],"outputs":[{"name":"","type":"address","internalType":"contract IERC20"}],"stateMutability":"view"},{"type":"function","name":"pricePerCuPerEpoch","inputs":[],"outputs":[{"name":"","type":"uint256","internalType":"uint256"}],"stateMutability":"view"},{"type":"function","name":"providersAccessType","inputs":[],"outputs":[{"name":"","type":"uint8","internalType":"enum IConfig.AccessType"}],"stateMutability":"view"},{"type":"function","name":"removeProviderFromAccessList","inputs":[{"name":"provider","type":"address","internalType":"address"}],"outputs":[],"stateMutability":"nonpayable"},{"type":"function","name":"renounceOwnership","inputs":[],"outputs":[],"stateMutability":"nonpayable"},{"type":"function","name":"setAppCID","inputs":[{"name":"appCID_","type":"tuple","internalType":"struct CIDV1","components":[{"name":"prefixes","type":"bytes4","internalType":"bytes4"},{"name":"hash","type":"bytes32","internalType":"bytes32"}]}],"outputs":[],"stateMutability":"nonpayable"},{"type":"function","name":"targetWorkers","inputs":[],"outputs":[{"name":"","type":"uint256","internalType":"uint256"}],"stateMutability":"view"},{"type":"function","name":"transferOwnership","inputs":[{"name":"newOwner","type":"address","internalType":"address"}],"outputs":[],"stateMutability":"nonpayable"},{"type":"event","name":"AppCIDChanged","inputs":[{"name":"newAppCID","type":"tuple","indexed":false,"internalType":"struct CIDV1","components":[{"name":"prefixes","type":"bytes4","internalType":"bytes4"},{"name":"hash","type":"bytes32","internalType":"bytes32"}]}],"anonymous":false},{"type":"event","name":"Initialized","inputs":[{"name":"version","type":"uint64","indexed":false,"internalType":"uint64"}],"anonymous":false},{"type":"event","name":"OwnershipTransferred","inputs":[{"name":"previousOwner","type":"address","indexed":true,"internalType":"address"},{"name":"newOwner","type":"address","indexed":true,"internalType":"address"}],"anonymous":false},{"type":"event","name":"ProviderAddedToAccessList","inputs":[{"name":"provider","type":"address","indexed":false,"internalType":"address"}],"anonymous":false},{"type":"event","name":"ProviderRemovedFromAccessList","inputs":[{"name":"provider","type":"address","indexed":false,"internalType":"address"}],"anonymous":false},{"type":"event","name":"ProvidersAccessTypeChanged","inputs":[{"name":"newAccessType","type":"uint8","indexed":false,"internalType":"enum IConfig.AccessType"}],"anonymous":false},{"type":"error","name":"InvalidInitialization","inputs":[]},{"type":"error","name":"NotInitializing","inputs":[]},{"type":"error","name":"OwnableInvalidOwner","inputs":[{"name":"owner","type":"address","internalType":"address"}]},{"type":"error","name":"OwnableUnauthorizedAccount","inputs":[{"name":"account","type":"address","internalType":"address"}]}],"bytecode":{"object":"0x6080806040523460155761143f908161001a8239f35b5f80fdfe60806040526004361015610011575f80fd5b5f3560e01c806315a0f31a14610f1b5780631763451414610ef2578063176474cf14610df65780632943dcab14610dcd5780632db3119314610da45780633013ce2914610d705780633e8ae1ae14610d43578063444e6a5a14610c3a578063636fcefb14610ac457806370220a9b14610a9b578063715018a614610a4757806373134c15146108a657806376757d97146103575780638a0c725b1461032e5780638da5cb5b146102fa5780639bc6686814610294578063d4773ff01461025f578063f0b7db4e1461022b578063f2fde38b146102005763fc1e5e2a146100f5575f80fd5b346101fc575f3660031901126101fc575f8051602061128a833981519152546001600160401b0381116101e8576040519061013660208260051b0183610fa1565b8082525f8051602061128a8339815191525f9081526020830191907f5702833323968fbb14fdd86869039efe011756b786a9a900c16991bda0e3e573835b8383106101ca578486604051918291602083019060208452518091526040830191905f5b8181106101a6575050500390f35b9193509160206040826101bc6001948851610f5a565b019401910191849392610198565b600260206001926101da856110f1565b815201920192019190610174565b634e487b7160e01b5f52604160045260245ffd5b5f80fd5b346101fc5760203660031901126101fc5761022961021c610f44565b6102246111ab565b61111d565b005b346101fc575f3660031901126101fc575f8051602061120a833981519152546040516001600160a01b039091168152602090f35b346101fc575f3660031901126101fc5761029060ff5f805160206113aa833981519152541660405191829182610f73565b0390f35b346101fc575f3660031901126101fc575f60206040516102b381610f86565b82815201526040805160015f8051602061134a8339815191526102d583610f86565b63ffffffff60e01b815460e01b168352015460208201526102f882518092610f5a565bf35b346101fc575f3660031901126101fc575f8051602061132a833981519152546040516001600160a01b039091168152602090f35b346101fc575f3660031901126101fc5760205f805160206113ea83398151915254604051908152f35b346101fc576101a03660031901126101fc576004356001600160a01b03811681036101fc5760403660231901126101fc57606435906001600160a01b03821682036101fc57610124359160a4359160843560c4356001600160401b0386116101fc57366023870112156101fc576004860135946001600160401b0386116101fc573660248760061b890101116101fc5761014435916001600160a01b03831683036101fc57610164359160038310156101fc5761018435946001600160401b0386116101fc57366023870112156101fc576004860135976001600160401b0389116101fc573660248a60051b890101116101fc575f805160206113ca83398151915254604081901c60ff1615966001600160401b0382168015908161089e575b6001149081610894575b15908161088b575b5061087c576001600160401b031982166001175f805160206113ca833981519152556104ce9188610854575b506104be6111de565b6104c66111de565b6102246111de565b6104d66111de565b81156107fb5782821161079257831561073357435f8051602061122a833981519152555f8051602061120a83398151915280546001600160a01b03998a166001600160a01b03199182161782555f805160206112ca833981519152805493909a169216919091179097555f8051602061136a833981519152555f805160206112ea833981519152555f8051602061138a8339815191525560e4355f805160206113ea83398151915255610104355f8051602061126a833981519152555f5b86811015610619575f8051602061128a8339815191525490600160401b8210156101e85760018201805f8051602061128a83398151915255821015610605576105ff6001925f8051602061128a8339815191525f5260205f2060248460061b8d010191851b0161117b565b01610594565b634e487b7160e01b5f52603260045260245ffd5b50610634909493945f805160206113aa8339815191526110d9565b5f8051602061124a833981519152935f5b8481101561068d57600581901b840160240135906001600160a01b03821682036101fc57600191828060a01b03165f528660205260405f208260ff1982541617905501610645565b50506106a760245f8051602061134a83398151915261117b565b60405160243563ffffffff60e01b81168091036101fc57816040915f805160206112aa83398151915293526044356020820152a16106e157005b60ff60401b195f805160206113ca83398151915254165f805160206113ca833981519152557fc7f505b2f371ae2175ee4913f4499e1f2633a7b5936321eed1cdaeb6115181d2602060405160018152a1005b60405162461bcd60e51b815260206004820152603160248201527f436f6e6669673a206375436f756e74506572576f726b65722073686f756c6420604482015270062652067726561746572207468616e203607c1b6064820152608490fd5b60405162461bcd60e51b815260206004820152603b60248201527f436f6e6669673a206d696e576f726b6572732073686f756c64206265206c657360448201527a73206f7220657175616c20746f20746172676574576f726b65727360281b6064820152608490fd5b60405162461bcd60e51b815260206004820152602b60248201527f436f6e6669673a206d696e576f726b6572732073686f756c642062652067726560448201526a061746572207468616e20360ac1b6064820152608490fd5b6001600160481b0319166001600160401b01175f805160206113ca833981519152558d6104b5565b63f92ee8a960e01b5f5260045ffd5b9050158e610489565b303b159150610481565b899150610477565b346101fc5760203660031901126101fc576108bf610f44565b5f8051602061120a833981519152546040516302984ebd60e31b815290602090829060049082906001600160a01b03165afa908115610a3c575f91610a0d575b506001600160a01b0316331480156109ed575b61091b90610fe3565b60ff5f805160206113aa833981519152541660038110156109d95715610996576001600160a01b03165f8181525f8051602061124a8339815191526020908152604091829020805460ff1916600117905590519182527f4c26e4de691e265be6cf03e639754839907bf74687cd524a6734851331527ffd91a1005b60405162461bcd60e51b815260206004820152601b60248201527a436f6e6669673a206163636573732074797065206973204e4f4e4560281b6044820152606490fd5b634e487b7160e01b5f52602160045260245ffd5b505f8051602061132a833981519152546001600160a01b03163314610912565b610a2f915060203d602011610a35575b610a278183610fa1565b810190610fc4565b826108ff565b503d610a1d565b6040513d5f823e3d90fd5b346101fc575f3660031901126101fc57610a5f6111ab565b5f8051602061132a83398151915280546001600160a01b031981169091555f906001600160a01b03165f8051602061130a8339815191528280a3005b346101fc575f3660031901126101fc5760205f8051602061126a83398151915254604051908152f35b346101fc5760203660031901126101fc5760043560038110156101fc575f8051602061120a833981519152546040516302984ebd60e31b815290602090829060049082906001600160a01b03165afa908115610a3c575f91610c1b575b506001600160a01b031633148015610bfb575b610b3d90610fe3565b60ff5f805160206113aa833981519152541660038110156109d9578114610bab57610ba681610b9a7f1f5a251428f76335a835fcae94ab6a9bcf09ac33bd3c782eb6a81bdf878a7393935f805160206113aa8339815191526110d9565b60405191829182610f73565b0390a1005b60405162461bcd60e51b815260206004820152602260248201527f436f6e6669673a20616363657373207479706520697320616c72656164792073604482015261195d60f21b6064820152608490fd5b505f8051602061132a833981519152546001600160a01b03163314610b34565b610c34915060203d602011610a3557610a278183610fa1565b82610b21565b346101fc5760203660031901126101fc57610c53610f44565b5f8051602061120a833981519152546040516302984ebd60e31b815290602090829060049082906001600160a01b03165afa918215610a3c577f38fb081a0b484406977bd94ff8edb79be44b5ca514130361182516b39e2c4528926020925f91610d26575b506001600160a01b031633148015610d06575b610cd490610fe3565b6001600160a01b03165f8181525f8051602061124a8339815191528352604090819020805460ff1916905551908152a1005b505f8051602061132a833981519152546001600160a01b03163314610ccb565b610d3d9150833d8511610a3557610a278183610fa1565b84610cb8565b346101fc5760203660031901126101fc576020610d66610d61610f44565b611049565b6040519015158152f35b346101fc575f3660031901126101fc575f805160206112ca833981519152546040516001600160a01b039091168152602090f35b346101fc575f3660031901126101fc5760205f8051602061136a83398151915254604051908152f35b346101fc575f3660031901126101fc5760205f805160206112ea83398151915254604051908152f35b346101fc5760403660031901126101fc575f8051602061120a83398151915280546040516302984ebd60e31b815290602090829060049082906001600160a01b03165afa908115610a3c575f91610ed3575b506001600160a01b031633148015610eb3575b610e6490610fe3565b50610e7d60045f8051602061134a83398151915261117b565b60405160043563ffffffff60e01b81168091036101fc57816040915f805160206112aa83398151915293526024356020820152a1005b505f8051602061132a833981519152546001600160a01b03163314610e5b565b610eec915060203d602011610a3557610a278183610fa1565b82610e48565b346101fc575f3660031901126101fc5760205f8051602061122a83398151915254604051908152f35b346101fc575f3660031901126101fc5760205f8051602061138a83398151915254604051908152f35b600435906001600160a01b03821682036101fc57565b80516001600160e01b0319168252602090810151910152565b9190602083019260038210156109d95752565b604081019081106001600160401b038211176101e857604052565b601f909101601f19168101906001600160401b038211908210176101e857604052565b908160209103126101fc57516001600160a01b03811681036101fc5790565b15610fea57565b60405162461bcd60e51b815260206004820152603160248201527f4f6e6c7920566f646f706164206f72204465616c204f776e65722063616e206360448201527030b636103a3434b990333ab731ba34b7b760791b6064820152608490fd5b60ff5f805160206113aa833981519152541660038110156109d95780156110d257600181146110a85760021461107e57505f90565b6001600160a01b03165f9081525f8051602061124a833981519152602052604090205460ff161590565b506001600160a01b03165f9081525f8051602061124a833981519152602052604090205460ff1690565b5050600190565b9060038110156109d95760ff80198354169116179055565b906040516110fe81610f86565b825460e01b6001600160e01b0319168152600192909201546020830152565b6001600160a01b03168015611168575f8051602061132a83398151915280546001600160a01b0319811683179091556001600160a01b03165f8051602061130a8339815191525f80a3565b631e4fbdf760e01b5f525f60045260245ffd5b9080356001600160e01b0319811681036101fc5760019160209160e01c63ffffffff198554161784550135910155565b5f8051602061132a833981519152546001600160a01b031633036111cb57565b63118cdaa760e01b5f523360045260245ffd5b60ff5f805160206113ca8339815191525460401c16156111fa57565b631afcd79f60e31b5f5260045ffdfe8953f5482bc1a621075e75537625fa3bd2025e7df7baf6ba1dbfbf2212912d048953f5482bc1a621075e75537625fa3bd2025e7df7baf6ba1dbfbf2212912d058953f5482bc1a621075e75537625fa3bd2025e7df7baf6ba1dbfbf2212912d118953f5482bc1a621075e75537625fa3bd2025e7df7baf6ba1dbfbf2212912d0e8953f5482bc1a621075e75537625fa3bd2025e7df7baf6ba1dbfbf2212912d0fc820a66d3bdd50a45cf12cda6dc8ec9e94fb5123edd7da736eea18316f8523a08953f5482bc1a621075e75537625fa3bd2025e7df7baf6ba1dbfbf2212912d088953f5482bc1a621075e75537625fa3bd2025e7df7baf6ba1dbfbf2212912d0b8be0079c531659141344cd1fd0a4f28419497f9722a3daafe3b4186f6b6457e0b13d3e7783d509d8d65d3e1e62ec0b103a07e0cbfa1ee74ae19127f297dddfcc8953f5482bc1a621075e75537625fa3bd2025e7df7baf6ba1dbfbf2212912d068953f5482bc1a621075e75537625fa3bd2025e7df7baf6ba1dbfbf2212912d0a8953f5482bc1a621075e75537625fa3bd2025e7df7baf6ba1dbfbf2212912d0d8953f5482bc1a621075e75537625fa3bd2025e7df7baf6ba1dbfbf2212912d10f0c57e16840df040f15088dc2f81fe391c3923bec73e23a9662efc9c229c6a008953f5482bc1a621075e75537625fa3bd2025e7df7baf6ba1dbfbf2212912d0ca2646970667358221220bd8f7e303f3ab50020aeaa3497b9ae124dc6be414983d3822182cfc97eccdeef64736f6c634300081a0033","linkReferences":{}},"methodIdentifiers":{"Config_init(address,(bytes4,bytes32),address,uint256,uint256,uint256,uint256,uint256,(bytes4,bytes32)[],address,uint8,address[])":"76757d97","addProviderToAccessList(address)":"73134c15","appCID()":"9bc66868","changeProvidersAccessType(uint8)":"636fcefb","creationBlock()":"17634514","cuCountPerWorker()":"15a0f31a","diamond()":"f0b7db4e","effectors()":"fc1e5e2a","isProviderAllowed(address)":"3e8ae1ae","maxWorkersPerProvider()":"8a0c725b","minWorkers()":"2db31193","owner()":"8da5cb5b","paymentToken()":"3013ce29","pricePerCuPerEpoch()":"70220a9b","providersAccessType()":"d4773ff0","removeProviderFromAccessList(address)":"444e6a5a","renounceOwnership()":"715018a6","setAppCID((bytes4,bytes32))":"176474cf","targetWorkers()":"2943dcab","transferOwnership(address)":"f2fde38b"},"storageLayout":{"storage":[],"types":{}},"devdoc":{"version":1,"kind":"dev","methods":{"addProviderToAccessList(address)":{"details":"Adds a provider to the access list"},"appCID()":{"details":"Returns the app CID"},"changeProvidersAccessType(uint8)":{"details":"Change the providers access type"},"creationBlock()":{"details":"Returns the creation block of the deal"},"cuCountPerWorker()":{"details":"Returns number of CUs in a worker"},"effectors()":{"details":"Returns the effector CIDs"},"isProviderAllowed(address)":{"details":"Returns the boolean indicating whether the provider is allowed or not"},"maxWorkersPerProvider()":{"details":"Returns the max number of workers per provider"},"minWorkers()":{"details":"Returns the min number of workers"},"owner()":{"details":"Returns the address of the current owner."},"paymentToken()":{"details":"Returns the payment token address"},"pricePerCuPerEpoch()":{"details":"Returns the price per CU per epoch"},"providersAccessType()":{"details":"Returns the providers access type"},"removeProviderFromAccessList(address)":{"details":"Removes a provider from the access list"},"renounceOwnership()":{"details":"Leaves the contract without owner. It will not be possible to call `onlyOwner` functions. Can only be called by the current owner. NOTE: Renouncing ownership will leave the contract without an owner, thereby disabling any functionality that is only available to the owner."},"setAppCID((bytes4,bytes32))":{"details":"Sets the app CID"},"targetWorkers()":{"details":"Returns the max number of workers"},"transferOwnership(address)":{"details":"Transfers ownership of the contract to a new account (`newOwner`). Can only be called by the current owner."}},"events":{"AppCIDChanged((bytes4,bytes32))":{"details":"Emitted when the app CID is changed","params":{"newAppCID":"The new app CID"}},"Initialized(uint64)":{"details":"Triggered when the contract has been initialized or reinitialized."},"ProviderAddedToAccessList(address)":{"details":"Emitted when a provider is added to the access list","params":{"provider":"The provider address"}},"ProviderRemovedFromAccessList(address)":{"details":"Emitted when a provider is removed from the access list","params":{"provider":"The provider address"}},"ProvidersAccessTypeChanged(uint8)":{"details":"Emitted when the providers access type is changed","params":{"newAccessType":"The new access type"}}},"errors":{"InvalidInitialization()":[{"details":"The contract is already initialized."}],"NotInitializing()":[{"details":"The contract is not initializing."}],"OwnableInvalidOwner(address)":[{"details":"The owner is not a valid owner account. (eg. `address(0)`)"}],"OwnableUnauthorizedAccount(address)":[{"details":"The caller account is not authorized to perform an operation."}]}},"id":118}