{"abi":[{"type":"function","name":"Config_init","inputs":[{"name":"diamond_","type":"address","internalType":"contract IDiamond"},{"name":"appCID_","type":"tuple","internalType":"struct CIDV1","components":[{"name":"prefixes","type":"bytes4","internalType":"bytes4"},{"name":"hash","type":"bytes32","internalType":"bytes32"}]},{"name":"paymentToken_","type":"address","internalType":"contract IERC20"},{"name":"minWorkers_","type":"uint256","internalType":"uint256"},{"name":"targetWorkers_","type":"uint256","internalType":"uint256"},{"name":"cuCountPerWorker_","type":"uint256","internalType":"uint256"},{"name":"maxWorkersPerProvider_","type":"uint256","internalType":"uint256"},{"name":"pricePerCuPerEpoch_","type":"uint256","internalType":"uint256"},{"name":"effectors_","type":"tuple[]","internalType":"struct CIDV1[]","components":[{"name":"prefixes","type":"bytes4","internalType":"bytes4"},{"name":"hash","type":"bytes32","internalType":"bytes32"}]},{"name":"owner_","type":"address","internalType":"address"},{"name":"providersAccessType_","type":"uint8","internalType":"enum IConfig.AccessType"},{"name":"providersAccessList_","type":"address[]","internalType":"address[]"}],"outputs":[],"stateMutability":"nonpayable"},{"type":"function","name":"addProviderToAccessList","inputs":[{"name":"provider","type":"address","internalType":"address"}],"outputs":[],"stateMutability":"nonpayable"},{"type":"function","name":"appCID","inputs":[],"outputs":[{"name":"","type":"tuple","internalType":"struct CIDV1","components":[{"name":"prefixes","type":"bytes4","internalType":"bytes4"},{"name":"hash","type":"bytes32","internalType":"bytes32"}]}],"stateMutability":"view"},{"type":"function","name":"changeProvidersAccessType","inputs":[{"name":"accessType","type":"uint8","internalType":"enum IConfig.AccessType"}],"outputs":[],"stateMutability":"nonpayable"},{"type":"function","name":"creationBlock","inputs":[],"outputs":[{"name":"","type":"uint256","internalType":"uint256"}],"stateMutability":"view"},{"type":"function","name":"cuCountPerWorker","inputs":[],"outputs":[{"name":"","type":"uint256","internalType":"uint256"}],"stateMutability":"view"},{"type":"function","name":"diamond","inputs":[],"outputs":[{"name":"","type":"address","internalType":"contract IDiamond"}],"stateMutability":"view"},{"type":"function","name":"effectors","inputs":[],"outputs":[{"name":"","type":"tuple[]","internalType":"struct CIDV1[]","components":[{"name":"prefixes","type":"bytes4","internalType":"bytes4"},{"name":"hash","type":"bytes32","internalType":"bytes32"}]}],"stateMutability":"view"},{"type":"function","name":"isProviderAllowed","inputs":[{"name":"account","type":"address","internalType":"address"}],"outputs":[{"name":"","type":"bool","internalType":"bool"}],"stateMutability":"view"},{"type":"function","name":"maxWorkersPerProvider","inputs":[],"outputs":[{"name":"","type":"uint256","internalType":"uint256"}],"stateMutability":"view"},{"type":"function","name":"minWorkers","inputs":[],"outputs":[{"name":"","type":"uint256","internalType":"uint256"}],"stateMutability":"view"},{"type":"function","name":"owner","inputs":[],"outputs":[{"name":"","type":"address","internalType":"address"}],"stateMutability":"view"},{"type":"function","name":"paymentToken","inputs":[],"outputs":[{"name":"","type":"address","internalType":"contract IERC20"}],"stateMutability":"view"},{"type":"function","name":"pricePerCuPerEpoch","inputs":[],"outputs":[{"name":"","type":"uint256","internalType":"uint256"}],"stateMutability":"view"},{"type":"function","name":"providersAccessType","inputs":[],"outputs":[{"name":"","type":"uint8","internalType":"enum IConfig.AccessType"}],"stateMutability":"view"},{"type":"function","name":"removeProviderFromAccessList","inputs":[{"name":"provider","type":"address","internalType":"address"}],"outputs":[],"stateMutability":"nonpayable"},{"type":"function","name":"renounceOwnership","inputs":[],"outputs":[],"stateMutability":"nonpayable"},{"type":"function","name":"setAppCID","inputs":[{"name":"appCID_","type":"tuple","internalType":"struct CIDV1","components":[{"name":"prefixes","type":"bytes4","internalType":"bytes4"},{"name":"hash","type":"bytes32","internalType":"bytes32"}]}],"outputs":[],"stateMutability":"nonpayable"},{"type":"function","name":"targetWorkers","inputs":[],"outputs":[{"name":"","type":"uint256","internalType":"uint256"}],"stateMutability":"view"},{"type":"function","name":"transferOwnership","inputs":[{"name":"newOwner","type":"address","internalType":"address"}],"outputs":[],"stateMutability":"nonpayable"},{"type":"event","name":"AppCIDChanged","inputs":[{"name":"newAppCID","type":"tuple","indexed":false,"internalType":"struct CIDV1","components":[{"name":"prefixes","type":"bytes4","internalType":"bytes4"},{"name":"hash","type":"bytes32","internalType":"bytes32"}]}],"anonymous":false},{"type":"event","name":"Initialized","inputs":[{"name":"version","type":"uint64","indexed":false,"internalType":"uint64"}],"anonymous":false},{"type":"event","name":"OwnershipTransferred","inputs":[{"name":"previousOwner","type":"address","indexed":true,"internalType":"address"},{"name":"newOwner","type":"address","indexed":true,"internalType":"address"}],"anonymous":false},{"type":"event","name":"ProviderAddedToAccessList","inputs":[{"name":"provider","type":"address","indexed":false,"internalType":"address"}],"anonymous":false},{"type":"event","name":"ProviderRemovedFromAccessList","inputs":[{"name":"provider","type":"address","indexed":false,"internalType":"address"}],"anonymous":false},{"type":"event","name":"ProvidersAccessTypeChanged","inputs":[{"name":"newAccessType","type":"uint8","indexed":false,"internalType":"enum IConfig.AccessType"}],"anonymous":false},{"type":"error","name":"InvalidInitialization","inputs":[]},{"type":"error","name":"NotInitializing","inputs":[]},{"type":"error","name":"OwnableInvalidOwner","inputs":[{"name":"owner","type":"address","internalType":"address"}]},{"type":"error","name":"OwnableUnauthorizedAccount","inputs":[{"name":"account","type":"address","internalType":"address"}]}],"bytecode":{"object":"0x608080604052346015576114a9908161001a8239f35b5f80fdfe60806040526004361015610011575f80fd5b5f3560e01c806315a0f31a14610f225780631763451414610ef9578063176474cf14610dfd5780632943dcab14610dd45780632db3119314610dab5780633013ce2914610d775780633e8ae1ae14610d4a578063444e6a5a14610c41578063636fcefb14610acb57806370220a9b14610aa2578063715018a614610a4e57806373134c15146108ad57806376757d97146103575780638a0c725b1461032e5780638da5cb5b146102fa5780639bc6686814610294578063d4773ff01461025f578063f0b7db4e1461022b578063f2fde38b146102005763fc1e5e2a146100f5575f80fd5b346101fc575f3660031901126101fc575f805160206112f4833981519152546001600160401b0381116101e8576040519061013660208260051b0183610fa8565b8082525f805160206112f48339815191525f9081526020830191907f5702833323968fbb14fdd86869039efe011756b786a9a900c16991bda0e3e573835b8383106101ca578486604051918291602083019060208452518091526040830191905f5b8181106101a6575050500390f35b9193509160206040826101bc6001948851610f61565b019401910191849392610198565b600260206001926101da856110f8565b815201920192019190610174565b634e487b7160e01b5f52604160045260245ffd5b5f80fd5b346101fc5760203660031901126101fc5761022961021c610f4b565b6102246111b2565b611124565b005b346101fc575f3660031901126101fc575f80516020611274833981519152546040516001600160a01b039091168152602090f35b346101fc575f3660031901126101fc5761029060ff5f80516020611414833981519152541660405191829182610f7a565b0390f35b346101fc575f3660031901126101fc575f60206040516102b381610f8d565b82815201526040805160015f805160206113b48339815191526102d583610f8d565b63ffffffff60e01b815460e01b168352015460208201526102f882518092610f61565bf35b346101fc575f3660031901126101fc575f80516020611394833981519152546040516001600160a01b039091168152602090f35b346101fc575f3660031901126101fc5760205f8051602061145483398151915254604051908152f35b346101fc576101a03660031901126101fc576004356001600160a01b03811681036101fc5760403660231901126101fc57606435906001600160a01b03821682036101fc57610124359160a4359160843560c4356001600160401b0386116101fc57366023870112156101fc576004860135946001600160401b0386116101fc573660248760061b890101116101fc5761014435916001600160a01b03831683036101fc57610164359160038310156101fc5761018435946001600160401b0386116101fc57366023870112156101fc576004860135976001600160401b0389116101fc573660248a60051b890101116101fc575f8051602061143483398151915254604081901c60ff1615966001600160401b038216801590816108a5575b600114908161089b575b159081610892575b50610883576001600160401b031982166001175f80516020611434833981519152556104ce918861085b575b506104be6111e5565b6104c66111e5565b6102246111e5565b6104d66111e5565b81156108025782821161079957831561073a575f8051602061127483398151915297610500611210565b5f805160206112948339815191525588546001600160a01b039182166001600160a01b0319918216178a555f8051602061133483398151915280549390921692169190911790555f805160206113d4833981519152555f80516020611354833981519152555f805160206113f48339815191525560e4355f8051602061145483398151915255610104355f805160206112d4833981519152555f5b86811015610620575f805160206112f48339815191525490600160401b8210156101e85760018201805f805160206112f48339815191525582101561060c576106066001925f805160206112f48339815191525f5260205f2060248460061b8d010191851b01611182565b0161059b565b634e487b7160e01b5f52603260045260245ffd5b5061063b909493945f805160206114148339815191526110e0565b5f805160206112b4833981519152935f5b8481101561069457600581901b840160240135906001600160a01b03821682036101fc57600191828060a01b03165f528660205260405f208260ff198254161790550161064c565b50506106ae60245f805160206113b4833981519152611182565b60405160243563ffffffff60e01b81168091036101fc57816040915f8051602061131483398151915293526044356020820152a16106e857005b60ff60401b195f8051602061143483398151915254165f80516020611434833981519152557fc7f505b2f371ae2175ee4913f4499e1f2633a7b5936321eed1cdaeb6115181d2602060405160018152a1005b60405162461bcd60e51b815260206004820152603160248201527f436f6e6669673a206375436f756e74506572576f726b65722073686f756c6420604482015270062652067726561746572207468616e203607c1b6064820152608490fd5b60405162461bcd60e51b815260206004820152603b60248201527f436f6e6669673a206d696e576f726b6572732073686f756c64206265206c657360448201527a73206f7220657175616c20746f20746172676574576f726b65727360281b6064820152608490fd5b60405162461bcd60e51b815260206004820152602b60248201527f436f6e6669673a206d696e576f726b6572732073686f756c642062652067726560448201526a061746572207468616e20360ac1b6064820152608490fd5b6001600160481b0319166001600160401b01175f80516020611434833981519152558d6104b5565b63f92ee8a960e01b5f5260045ffd5b9050158e610489565b303b159150610481565b899150610477565b346101fc5760203660031901126101fc576108c6610f4b565b5f80516020611274833981519152546040516302984ebd60e31b815290602090829060049082906001600160a01b03165afa908115610a43575f91610a14575b506001600160a01b0316331480156109f4575b61092290610fea565b60ff5f80516020611414833981519152541660038110156109e0571561099d576001600160a01b03165f8181525f805160206112b48339815191526020908152604091829020805460ff1916600117905590519182527f4c26e4de691e265be6cf03e639754839907bf74687cd524a6734851331527ffd91a1005b60405162461bcd60e51b815260206004820152601b60248201527a436f6e6669673a206163636573732074797065206973204e4f4e4560281b6044820152606490fd5b634e487b7160e01b5f52602160045260245ffd5b505f80516020611394833981519152546001600160a01b03163314610919565b610a36915060203d602011610a3c575b610a2e8183610fa8565b810190610fcb565b82610906565b503d610a24565b6040513d5f823e3d90fd5b346101fc575f3660031901126101fc57610a666111b2565b5f8051602061139483398151915280546001600160a01b031981169091555f906001600160a01b03165f805160206113748339815191528280a3005b346101fc575f3660031901126101fc5760205f805160206112d483398151915254604051908152f35b346101fc5760203660031901126101fc5760043560038110156101fc575f80516020611274833981519152546040516302984ebd60e31b815290602090829060049082906001600160a01b03165afa908115610a43575f91610c22575b506001600160a01b031633148015610c02575b610b4490610fea565b60ff5f80516020611414833981519152541660038110156109e0578114610bb257610bad81610ba17f1f5a251428f76335a835fcae94ab6a9bcf09ac33bd3c782eb6a81bdf878a7393935f805160206114148339815191526110e0565b60405191829182610f7a565b0390a1005b60405162461bcd60e51b815260206004820152602260248201527f436f6e6669673a20616363657373207479706520697320616c72656164792073604482015261195d60f21b6064820152608490fd5b505f80516020611394833981519152546001600160a01b03163314610b3b565b610c3b915060203d602011610a3c57610a2e8183610fa8565b82610b28565b346101fc5760203660031901126101fc57610c5a610f4b565b5f80516020611274833981519152546040516302984ebd60e31b815290602090829060049082906001600160a01b03165afa918215610a43577f38fb081a0b484406977bd94ff8edb79be44b5ca514130361182516b39e2c4528926020925f91610d2d575b506001600160a01b031633148015610d0d575b610cdb90610fea565b6001600160a01b03165f8181525f805160206112b48339815191528352604090819020805460ff1916905551908152a1005b505f80516020611394833981519152546001600160a01b03163314610cd2565b610d449150833d8511610a3c57610a2e8183610fa8565b84610cbf565b346101fc5760203660031901126101fc576020610d6d610d68610f4b565b611050565b6040519015158152f35b346101fc575f3660031901126101fc575f80516020611334833981519152546040516001600160a01b039091168152602090f35b346101fc575f3660031901126101fc5760205f805160206113d483398151915254604051908152f35b346101fc575f3660031901126101fc5760205f8051602061135483398151915254604051908152f35b346101fc5760403660031901126101fc575f8051602061127483398151915280546040516302984ebd60e31b815290602090829060049082906001600160a01b03165afa908115610a43575f91610eda575b506001600160a01b031633148015610eba575b610e6b90610fea565b50610e8460045f805160206113b4833981519152611182565b60405160043563ffffffff60e01b81168091036101fc57816040915f8051602061131483398151915293526024356020820152a1005b505f80516020611394833981519152546001600160a01b03163314610e62565b610ef3915060203d602011610a3c57610a2e8183610fa8565b82610e4f565b346101fc575f3660031901126101fc5760205f8051602061129483398151915254604051908152f35b346101fc575f3660031901126101fc5760205f805160206113f483398151915254604051908152f35b600435906001600160a01b03821682036101fc57565b80516001600160e01b0319168252602090810151910152565b9190602083019260038210156109e05752565b604081019081106001600160401b038211176101e857604052565b601f909101601f19168101906001600160401b038211908210176101e857604052565b908160209103126101fc57516001600160a01b03811681036101fc5790565b15610ff157565b60405162461bcd60e51b815260206004820152603160248201527f4f6e6c7920566f646f706164206f72204465616c204f776e65722063616e206360448201527030b636103a3434b990333ab731ba34b7b760791b6064820152608490fd5b60ff5f80516020611414833981519152541660038110156109e05780156110d957600181146110af5760021461108557505f90565b6001600160a01b03165f9081525f805160206112b4833981519152602052604090205460ff161590565b506001600160a01b03165f9081525f805160206112b4833981519152602052604090205460ff1690565b5050600190565b9060038110156109e05760ff80198354169116179055565b9060405161110581610f8d565b825460e01b6001600160e01b0319168152600192909201546020830152565b6001600160a01b0316801561116f575f8051602061139483398151915280546001600160a01b0319811683179091556001600160a01b03165f805160206113748339815191525f80a3565b631e4fbdf760e01b5f525f60045260245ffd5b9080356001600160e01b0319811681036101fc5760019160209160e01c63ffffffff198554161784550135910155565b5f80516020611394833981519152546001600160a01b031633036111d257565b63118cdaa760e01b5f523360045260245ffd5b60ff5f805160206114348339815191525460401c161561120157565b631afcd79f60e31b5f5260045ffd5b60643b1561126f5760405163a3b1b31d60e01b815260208160048160645afa908115610a43575f91611240575090565b90506020813d602011611267575b8161125b60209383610fa8565b810103126101fc575190565b3d915061124e565b439056fe8953f5482bc1a621075e75537625fa3bd2025e7df7baf6ba1dbfbf2212912d048953f5482bc1a621075e75537625fa3bd2025e7df7baf6ba1dbfbf2212912d058953f5482bc1a621075e75537625fa3bd2025e7df7baf6ba1dbfbf2212912d118953f5482bc1a621075e75537625fa3bd2025e7df7baf6ba1dbfbf2212912d0e8953f5482bc1a621075e75537625fa3bd2025e7df7baf6ba1dbfbf2212912d0fc820a66d3bdd50a45cf12cda6dc8ec9e94fb5123edd7da736eea18316f8523a08953f5482bc1a621075e75537625fa3bd2025e7df7baf6ba1dbfbf2212912d088953f5482bc1a621075e75537625fa3bd2025e7df7baf6ba1dbfbf2212912d0b8be0079c531659141344cd1fd0a4f28419497f9722a3daafe3b4186f6b6457e0b13d3e7783d509d8d65d3e1e62ec0b103a07e0cbfa1ee74ae19127f297dddfcc8953f5482bc1a621075e75537625fa3bd2025e7df7baf6ba1dbfbf2212912d068953f5482bc1a621075e75537625fa3bd2025e7df7baf6ba1dbfbf2212912d0a8953f5482bc1a621075e75537625fa3bd2025e7df7baf6ba1dbfbf2212912d0d8953f5482bc1a621075e75537625fa3bd2025e7df7baf6ba1dbfbf2212912d10f0c57e16840df040f15088dc2f81fe391c3923bec73e23a9662efc9c229c6a008953f5482bc1a621075e75537625fa3bd2025e7df7baf6ba1dbfbf2212912d0ca2646970667358221220a50f48582ffdbcddc79038398e463572c91a3e7bbc4be380d53d8194551ae25b64736f6c634300081a0033","linkReferences":{}},"methodIdentifiers":{"Config_init(address,(bytes4,bytes32),address,uint256,uint256,uint256,uint256,uint256,(bytes4,bytes32)[],address,uint8,address[])":"76757d97","addProviderToAccessList(address)":"73134c15","appCID()":"9bc66868","changeProvidersAccessType(uint8)":"636fcefb","creationBlock()":"17634514","cuCountPerWorker()":"15a0f31a","diamond()":"f0b7db4e","effectors()":"fc1e5e2a","isProviderAllowed(address)":"3e8ae1ae","maxWorkersPerProvider()":"8a0c725b","minWorkers()":"2db31193","owner()":"8da5cb5b","paymentToken()":"3013ce29","pricePerCuPerEpoch()":"70220a9b","providersAccessType()":"d4773ff0","removeProviderFromAccessList(address)":"444e6a5a","renounceOwnership()":"715018a6","setAppCID((bytes4,bytes32))":"176474cf","targetWorkers()":"2943dcab","transferOwnership(address)":"f2fde38b"},"storageLayout":{"storage":[],"types":{}},"devdoc":{"version":1,"kind":"dev","methods":{"addProviderToAccessList(address)":{"details":"Adds a provider to the access list"},"appCID()":{"details":"Returns the app CID"},"changeProvidersAccessType(uint8)":{"details":"Change the providers access type"},"creationBlock()":{"details":"Returns the creation block of the deal"},"cuCountPerWorker()":{"details":"Returns number of CUs in a worker"},"effectors()":{"details":"Returns the effector CIDs"},"isProviderAllowed(address)":{"details":"Returns the boolean indicating whether the provider is allowed or not"},"maxWorkersPerProvider()":{"details":"Returns the max number of workers per provider"},"minWorkers()":{"details":"Returns the min number of workers"},"owner()":{"details":"Returns the address of the current owner."},"paymentToken()":{"details":"Returns the payment token address"},"pricePerCuPerEpoch()":{"details":"Returns the price per CU per epoch"},"providersAccessType()":{"details":"Returns the providers access type"},"removeProviderFromAccessList(address)":{"details":"Removes a provider from the access list"},"renounceOwnership()":{"details":"Leaves the contract without owner. It will not be possible to call `onlyOwner` functions. Can only be called by the current owner. NOTE: Renouncing ownership will leave the contract without an owner, thereby disabling any functionality that is only available to the owner."},"setAppCID((bytes4,bytes32))":{"details":"Sets the app CID"},"targetWorkers()":{"details":"Returns the max number of workers"},"transferOwnership(address)":{"details":"Transfers ownership of the contract to a new account (`newOwner`). Can only be called by the current owner."}},"events":{"AppCIDChanged((bytes4,bytes32))":{"details":"Emitted when the app CID is changed","params":{"newAppCID":"The new app CID"}},"Initialized(uint64)":{"details":"Triggered when the contract has been initialized or reinitialized."},"ProviderAddedToAccessList(address)":{"details":"Emitted when a provider is added to the access list","params":{"provider":"The provider address"}},"ProviderRemovedFromAccessList(address)":{"details":"Emitted when a provider is removed from the access list","params":{"provider":"The provider address"}},"ProvidersAccessTypeChanged(uint8)":{"details":"Emitted when the providers access type is changed","params":{"newAccessType":"The new access type"}}},"errors":{"InvalidInitialization()":[{"details":"The contract is already initialized."}],"NotInitializing()":[{"details":"The contract is not initializing."}],"OwnableInvalidOwner(address)":[{"details":"The owner is not a valid owner account. (eg. `address(0)`)"}],"OwnableUnauthorizedAccount(address)":[{"details":"The caller account is not authorized to perform an operation."}]}},"id":106}