{"abi":[{"type":"function","name":"createCommitment","inputs":[{"name":"peerId","type":"bytes32","internalType":"bytes32"},{"name":"duration","type":"uint256","internalType":"uint256"},{"name":"delegator","type":"address","internalType":"address"},{"name":"rewardDelegationRate","type":"uint256","internalType":"uint256"}],"outputs":[{"name":"","type":"bytes32","internalType":"bytes32"}],"stateMutability":"nonpayable"},{"type":"function","name":"depositCollateral","inputs":[{"name":"commitmentIds","type":"bytes32[]","internalType":"bytes32[]"}],"outputs":[],"stateMutability":"payable"},{"type":"function","name":"diamondReceive","inputs":[],"outputs":[],"stateMutability":"payable"},{"type":"function","name":"finishCommitment","inputs":[{"name":"commitmentId","type":"bytes32","internalType":"bytes32"}],"outputs":[],"stateMutability":"nonpayable"},{"type":"function","name":"getCommitment","inputs":[{"name":"commitmentId","type":"bytes32","internalType":"bytes32"}],"outputs":[{"name":"","type":"tuple","internalType":"struct ICapacity.CommitmentView","components":[{"name":"status","type":"uint8","internalType":"enum ICapacity.CCStatus"},{"name":"peerId","type":"bytes32","internalType":"bytes32"},{"name":"collateralPerUnit","type":"uint256","internalType":"uint256"},{"name":"unitCount","type":"uint256","internalType":"uint256"},{"name":"startEpoch","type":"uint256","internalType":"uint256"},{"name":"endEpoch","type":"uint256","internalType":"uint256"},{"name":"rewardDelegatorRate","type":"uint256","internalType":"uint256"},{"name":"delegator","type":"address","internalType":"address"},{"name":"totalFailCount","type":"uint256","internalType":"uint256"},{"name":"failedEpoch","type":"uint256","internalType":"uint256"},{"name":"exitedUnitCount","type":"uint256","internalType":"uint256"}]}],"stateMutability":"view"},{"type":"function","name":"getGlobalNonce","inputs":[],"outputs":[{"name":"","type":"bytes32","internalType":"bytes32"}],"stateMutability":"view"},{"type":"function","name":"getProofCounts","inputs":[{"name":"commitmentId","type":"bytes32","internalType":"bytes32"}],"outputs":[{"name":"unitIds","type":"bytes32[]","internalType":"bytes32[]"},{"name":"counts","type":"uint256[]","internalType":"uint256[]"}],"stateMutability":"view"},{"type":"function","name":"getRewardInfo","inputs":[{"name":"epoch","type":"uint256","internalType":"uint256"}],"outputs":[{"name":"","type":"tuple","internalType":"struct ICapacity.RewardInfo","components":[{"name":"minProofsPerEpoch","type":"uint256","internalType":"uint256"},{"name":"maxProofsPerEpoch","type":"uint256","internalType":"uint256"},{"name":"totalSuccessProofs","type":"uint256","internalType":"uint256"}]}],"stateMutability":"view"},{"type":"function","name":"getStatus","inputs":[{"name":"commitmentId","type":"bytes32","internalType":"bytes32"}],"outputs":[{"name":"","type":"uint8","internalType":"enum ICapacity.CCStatus"}],"stateMutability":"view"},{"type":"function","name":"removeCUFromCC","inputs":[{"name":"commitmentId","type":"bytes32","internalType":"bytes32"},{"name":"unitIds","type":"bytes32[]","internalType":"bytes32[]"}],"outputs":[],"stateMutability":"nonpayable"},{"type":"function","name":"removeCommitment","inputs":[{"name":"commitmentId","type":"bytes32","internalType":"bytes32"}],"outputs":[],"stateMutability":"nonpayable"},{"type":"function","name":"submitProof","inputs":[{"name":"unitId","type":"bytes32","internalType":"bytes32"},{"name":"localUnitNonce","type":"bytes32","internalType":"bytes32"},{"name":"resultHash","type":"bytes32","internalType":"bytes32"}],"outputs":[],"stateMutability":"nonpayable"},{"type":"function","name":"submitProofs","inputs":[{"name":"unitIds","type":"bytes32[]","internalType":"bytes32[]"},{"name":"localUnitNonces","type":"bytes32[]","internalType":"bytes32[]"},{"name":"resultHashes","type":"bytes32[]","internalType":"bytes32[]"}],"outputs":[],"stateMutability":"nonpayable"},{"type":"function","name":"totalRewards","inputs":[{"name":"commitmentId","type":"bytes32","internalType":"bytes32"}],"outputs":[{"name":"","type":"tuple","internalType":"struct ICapacity.CCRewardsView","components":[{"name":"ccRewards","type":"uint256","internalType":"uint256"},{"name":"dealStakerRewards","type":"uint256","internalType":"uint256"}]}],"stateMutability":"view"},{"type":"function","name":"unlockedRewards","inputs":[{"name":"commitmentId","type":"bytes32","internalType":"bytes32"}],"outputs":[{"name":"","type":"tuple","internalType":"struct ICapacity.CCRewardsView","components":[{"name":"ccRewards","type":"uint256","internalType":"uint256"},{"name":"dealStakerRewards","type":"uint256","internalType":"uint256"}]}],"stateMutability":"view"},{"type":"function","name":"withdrawCollateral","inputs":[{"name":"commitmentId","type":"bytes32","internalType":"bytes32"}],"outputs":[],"stateMutability":"nonpayable"},{"type":"function","name":"withdrawReward","inputs":[{"name":"commitmentId","type":"bytes32","internalType":"bytes32"}],"outputs":[],"stateMutability":"nonpayable"},{"type":"function","name":"withdrawnRewards","inputs":[{"name":"commitmentId","type":"bytes32","internalType":"bytes32"}],"outputs":[{"name":"","type":"tuple","internalType":"struct ICapacity.CCRewardsView","components":[{"name":"ccRewards","type":"uint256","internalType":"uint256"},{"name":"dealStakerRewards","type":"uint256","internalType":"uint256"}]}],"stateMutability":"view"},{"type":"event","name":"CollateralDeposited","inputs":[{"name":"commitmentId","type":"bytes32","indexed":true,"internalType":"bytes32"},{"name":"totalCollateral","type":"uint256","indexed":false,"internalType":"uint256"}],"anonymous":false},{"type":"event","name":"CollateralWithdrawn","inputs":[{"name":"commitmentId","type":"bytes32","indexed":false,"internalType":"bytes32"},{"name":"amountWithdrawn","type":"uint256","indexed":false,"internalType":"uint256"},{"name":"amountSlashed","type":"uint256","indexed":false,"internalType":"uint256"}],"anonymous":false},{"type":"event","name":"CommitmentActivated","inputs":[{"name":"peerId","type":"bytes32","indexed":true,"internalType":"bytes32"},{"name":"commitmentId","type":"bytes32","indexed":true,"internalType":"bytes32"},{"name":"startEpoch","type":"uint256","indexed":false,"internalType":"uint256"},{"name":"endEpoch","type":"uint256","indexed":false,"internalType":"uint256"},{"name":"unitIds","type":"bytes32[]","indexed":false,"internalType":"bytes32[]"}],"anonymous":false},{"type":"event","name":"CommitmentCreated","inputs":[{"name":"peerId","type":"bytes32","indexed":true,"internalType":"bytes32"},{"name":"commitmentId","type":"bytes32","indexed":false,"internalType":"bytes32"},{"name":"duration","type":"uint256","indexed":false,"internalType":"uint256"},{"name":"delegator","type":"address","indexed":false,"internalType":"address"},{"name":"rewardDelegationRate","type":"uint256","indexed":false,"internalType":"uint256"},{"name":"fltCollateralPerUnit","type":"uint256","indexed":false,"internalType":"uint256"}],"anonymous":false},{"type":"event","name":"CommitmentFailed","inputs":[{"name":"commitmentId","type":"bytes32","indexed":true,"internalType":"bytes32"},{"name":"failedEpoch","type":"uint256","indexed":false,"internalType":"uint256"}],"anonymous":false},{"type":"event","name":"CommitmentFinished","inputs":[{"name":"commitmentId","type":"bytes32","indexed":true,"internalType":"bytes32"}],"anonymous":false},{"type":"event","name":"CommitmentRemoved","inputs":[{"name":"commitmentId","type":"bytes32","indexed":true,"internalType":"bytes32"}],"anonymous":false},{"type":"event","name":"CommitmentStatsUpdated","inputs":[{"name":"commitmentId","type":"bytes32","indexed":false,"internalType":"bytes32"},{"name":"totalFailCount","type":"uint256","indexed":false,"internalType":"uint256"},{"name":"exitedUnitCount","type":"uint256","indexed":false,"internalType":"uint256"},{"name":"activeUnitCount","type":"uint256","indexed":false,"internalType":"uint256"},{"name":"nextAdditionalActiveUnitCount","type":"uint256","indexed":false,"internalType":"uint256"},{"name":"changedEpoch","type":"uint256","indexed":false,"internalType":"uint256"}],"anonymous":false},{"type":"event","name":"ProofSubmitted","inputs":[{"name":"commitmentId","type":"bytes32","indexed":true,"internalType":"bytes32"},{"name":"unitId","type":"bytes32","indexed":true,"internalType":"bytes32"},{"name":"localUnitNonce","type":"bytes32","indexed":false,"internalType":"bytes32"}],"anonymous":false},{"type":"event","name":"RewardWithdrawn","inputs":[{"name":"commitmentId","type":"bytes32","indexed":true,"internalType":"bytes32"},{"name":"ccRewardsAmount","type":"uint256","indexed":false,"internalType":"uint256"},{"name":"dealStakerRewardsAmount","type":"uint256","indexed":false,"internalType":"uint256"}],"anonymous":false},{"type":"event","name":"StateUpdated","inputs":[{"name":"commitmentId","type":"bytes32","indexed":true,"internalType":"bytes32"},{"name":"state","type":"tuple","indexed":false,"internalType":"struct DealStakerRewards.VestingState","components":[{"name":"items","type":"uint256[]","internalType":"uint256[]"},{"name":"accumulatedUnlockedFlt","type":"uint256","internalType":"uint256"}]}],"anonymous":false},{"type":"event","name":"UnitActivated","inputs":[{"name":"commitmentId","type":"bytes32","indexed":true,"internalType":"bytes32"},{"name":"unitId","type":"bytes32","indexed":true,"internalType":"bytes32"},{"name":"startEpoch","type":"uint256","indexed":false,"internalType":"uint256"}],"anonymous":false},{"type":"event","name":"UnitDeactivated","inputs":[{"name":"commitmentId","type":"bytes32","indexed":true,"internalType":"bytes32"},{"name":"unitId","type":"bytes32","indexed":true,"internalType":"bytes32"}],"anonymous":false},{"type":"event","name":"VestingScheduleItem","inputs":[{"name":"commitmentId","type":"bytes32","indexed":true,"internalType":"bytes32"},{"name":"id","type":"uint256","indexed":true,"internalType":"uint256"},{"name":"epoch","type":"uint256","indexed":true,"internalType":"uint256"},{"name":"cumulativeAmount","type":"uint256","indexed":false,"internalType":"uint256"}],"anonymous":false},{"type":"event","name":"VestingUpdateItem","inputs":[{"name":"commitmentId","type":"bytes32","indexed":true,"internalType":"bytes32"},{"name":"id","type":"uint256","indexed":true,"internalType":"uint256"},{"name":"cumulativeAmount","type":"uint256","indexed":false,"internalType":"uint256"}],"anonymous":false},{"type":"error","name":"CapacityCommitmentIsActive","inputs":[{"name":"status","type":"uint8","internalType":"enum ICapacity.CCStatus"}]},{"type":"error","name":"CapacityCommitmentIsNotActive","inputs":[{"name":"status","type":"uint8","internalType":"enum ICapacity.CCStatus"}]},{"type":"error","name":"FailedCall","inputs":[]},{"type":"error","name":"InsufficientBalance","inputs":[{"name":"balance","type":"uint256","internalType":"uint256"},{"name":"needed","type":"uint256","internalType":"uint256"}]},{"type":"error","name":"ReentrancyGuardReentrantCall","inputs":[]}],"bytecode":{"object":"0x60808060405234601557614b2a908161001a8239f35b5f80fdfe60a06040526004361015610011575f80fd5b5f803560e01c8063243d382714611d235780633d08179014611cb75780633d5f526c14611a2d578063474b5809146115ef5780634ece5685146115625780635de28ae01461153557806364b75e31146114ba5780637795820c1461133557806377fc1b6a14611301578063886f0e8714610bff57806388af96c414610bb05780638e7af1d1146108e457806392163b4b146108c1578063c9b824c2146107d4578063d3cde34414610586578063d6a1c7f814610394578063de644849146102b65763ea03ef52146100e0575f80fd5b346102b35760203660031901126102b3576004356100fc612e4a565b5f80516020614a15833981519152610112612c8e565b90828452602052604083209060018201549061012d82612d3e565b9060ff84541660068110158061029f5781151580610292575b61027a576102665760409291600461016892149081159161023f575b50612bc2565b01918251600d820154036101e1576101aa928492600560ff1984541617835586525f805160206147758339815191526020528560016040822001555190613abc565b7f9e2d7a240cc27393d69de7eebd70ec786ebc4d7a123669543c02276b488118dc8280a2805f80516020614a558339815191525d80f35b60405162461bcd60e51b815260206004820152603060248201527f466f722066696e69736820636f6d6d69746d656e7420616c6c20756e6974732060448201526f1cda1bdd5b1908189948195e1a5d195960821b6064820152608490fd5b905061025e600c8701545f805160206148758339815191525490612077565b11155f610162565b634e487b7160e01b87526021600452602487fd5b636d25971960e11b885260248861029084611d8d565bfd5b50505f6004821415610146565b634e487b7160e01b88526021600452602488fd5b80fd5b50346102b35760203660031901126102b3576102d0611fb3565b505f80516020614a158339815191526004358252602052604081206102f3612c8e565b9061030d61030360108301613bd1565b9260148301613cdd565b928060198301545b8082106103725761036e8561033d8660156103348860208d0151612077565b9101549061206a565b6040519161034a83611da8565b82526020820152604051918291829190916020806040830194805184520151910152565b0390f35b909161038c600191610385858951612109565b5190612077565b920190610315565b50346102b35760203660031901126102b3576004358082525f80516020614a15833981519152602081905260408320600101546103ed6001600160a01b036103e46103de84612d3e565b51612e7f565b51163314612b21565b6103f683612173565b600681101561057257600261040b9114611fef565b83525f80516020614775833981519152602052826001604082200155818352602052604082208281555f60018201555f60028201555f60038201555f60048201558260058201555f60068201555f60078201555f60088201555f60098201555f600a8201555f600b8201555f600c8201555f600d8201555f600e82015582600f8201555f60108201556011810180549084815581610527575b50505f60148201555f60158201555f60178201555f6001601883018281550155601a81018054905f815581610509575b5050601c5f9182601b82015501557f159bd9560f82a1e39125a438288d0cfb97f2dd09bd7338cf55ef5e8c566cff448280a280f35b5f5260205f20908101905b818110156104d4575f8155600101610514565b6001600160ff1b038216820361055e578452602084209060011b8101905b818110156104a4575f8082556001820155600201610545565b634e487b7160e01b85526011600452602485fd5b634e487b7160e01b85526021600452602485fd5b50346102b35760203660031901126102b357600435906105a4612e4a565b5f80516020614a15833981519152916105bb612c8e565b9281835260205260408220906105da6006830154600384015490612077565b6105e76001840154612d3e565b9060018060a01b036105f98351612e7f565b5116331480156107be575b156107395761062a61062261061886612fa4565b9288858589613081565b918585613337565b6006811015806107255781151580610718575b610702576105725760406106699260048593148015906106d7575b61066190612bc2565b015184613abc565b600882015491600d81015490600b600a820154910154915f1987019687116106c357915f805160206148958339815191529596916106ad93604051968796876120a2565b0390a1805f80516020614a558339815191525d80f35b634e487b7160e01b86526011600452602486fd5b506106616106f8600c8801545f805160206148758339815191525490612077565b8910159050610658565b636d25971960e11b865260248661029084611d8d565b50505f600482141561063d565b634e487b7160e01b86526021600452602486fd5b60405162461bcd60e51b815260206004820152605160248201527f4f6e6c792070726f7669646572206f72207374616b65722063616e20696e697460448201527f6961746520636f6c6c61746572616c2077697468647261772066726f6d2063616064820152701c1858da5d1e4818dbdb5b5a5d1b595b9d607a1b608482015260a490fd5b5060058401546001600160a01b03163314610604565b50346102b35760203660031901126102b3575f80516020614a158339815191526107fc612c8e565b90600435835260205260408220906108176001830154612dd9565b9261082284516120ca565b916012829401935b855181101561086a578061084060019288612109565b518452856020526003604085200183855260205260408420546108638287612109565b520161082a565b610884868585604051938493604085526040850190611ee2565b8381036020850152602080845192838152019301915b8181106108a8575050500390f35b825184528594506020938401939092019160010161089a565b50346102b357806003193601126102b35760206108dc612b82565b604051908152f35b50346102b35760403660031901126102b357600435906024356001600160401b038111610bac57610919903690600401611d5d565b90925f80516020614a1583398151915293610932612c8e565b9482855260205260408420906109516006830154600384015490612077565b90600183015461096081612d3e565b9161097560018060a01b036103e48551612e7f565b61098b848a61098388612fa4565b958689613081565b610996848789613337565b6006811015610b985780151580610b8d575b610b7757509287906013860193602060128801910191600d880199600e8901945b818110610a1b578d8d8d8d8d6008810154925490600b600a820154910154915f1987019687116106c357915f80516020614895833981519152959691610a1593604051968796876120a2565b0390a180f35b610a2681838b611fcb565b35610a30816135a4565b88602082015103610b175760408f610a5460ff9360018060a01b03905116156121d5565b8381528b602052205416610ad9578e610a838f868f918086604092528a602052209360208b510151928561365b565b8d5460018101809111610ac4578f90928f600260409460019796610aab935501548b54612077565b8a5581528a602052208260ff19825416179055016109c9565b50634e487b7160e01b8f52601160045260248ffd5b60405162461bcd60e51b815260206004820152601660248201527510dbdb5c1d5d19481d5b9a5d081a5cc8195e1a5d195960521b6044820152606490fd5b60405162461bcd60e51b815260206004820152603260248201527f436f6d7075746520756e697420646f65736e27742062656c6f6e6720746f2063604482015271185c1858da5d1e4818dbdb5b5a5d1b595b9d60721b6064820152608490fd5b88610290602492636d25971960e11b8352611d8d565b5060048114156109a8565b634e487b7160e01b89526021600452602489fd5b5080fd5b50346102b35760203660031901126102b357604061036e91610bd0611fb3565b505f80516020614a15833981519152600435825260205220601560108201549101546040519161034a83611da8565b346112fd5760803660031901126112fd576044356001600160a01b038116906004356024358383036112fd576064359260ff7f1f364d5cd815a7922b0808e606a82391642c337151b3addb3f98eaf82cfb172e54161580156112c8575b15611277575f80516020614a1583398151915293610c7984612d3e565b60208101516112345780516001600160a01b0390610c9690612e7f565b511633036111da577f8984d2d0d7a9f2f70f22692c7c8344aa50cbed8c00a03c924457a31793ee8fd354841061115d577f8984d2d0d7a9f2f70f22692c7c8344aa50cbed8c00a03c924457a31793ee8fd45484116110e25760400180517f8984d2d0d7a9f2f70f22692c7c8344aa50cbed8c00a03c924457a31793ee8fd5541161106857517f8984d2d0d7a9f2f70f22692c7c8344aa50cbed8c00a03c924457a31793ee8fd65410610ff0578015610fa657629896808111610f5b577f8984d2d0d7a9f2f70f22692c7c8344aa50cbed8c00a03c924457a31793ee8fd85491604051602081019143835286604083015285606083015260018060601b03199060601b16608082015282609482015260948152610db360b482611e4b565b51902094855f5260205260405f2095604051610dce81611ddf565b60028082526020820187905260408201859052606082018690526080820184905260a082018390525f60c0909201829052885460ff19168117895560018901879055880184905560038801859055600488018390556005880180546001600160a01b0319166001600160a01b0384161790556006880155601a610e95610e84610e55612c8e565b5f805160206147f5833981519152545f805160206149958339815191525491601c8d01558a60148d0155612057565b8060198b01555f60188b01556120ca565b805191909801976001600160401b038211610f4757602090610eb7838b612c4e565b01975f5260205f20975f5b828110610f3357602089897f2764696d7b2884dde865501f6b61168dcd00f8bed537f0aca4a1f583341a4c6560a08b8b8b8b865f525f80516020614775833981519152895287600160405f2001556040519388855289850152604084015260608301526080820152a2604051908152f35b60019060208351930192818c015501610ec2565b634e487b7160e01b5f52604160045260245ffd5b60405162461bcd60e51b815260206004820152603060248201525f8051602061493583398151915260448201526f206c657373206f7220657175616c203160801b6064820152608490fd5b60405162461bcd60e51b815260206004820152602f60248201525f8051602061493583398151915260448201526e02067726561746572207468616e203608c1b6064820152608490fd5b60405162461bcd60e51b815260206004820152605760248201525f8051602061481583398151915260448201527f65206c6f776572206f7220657175616c207468616e206d6178206e756d626572606482015276081bd9881d5b9a5d1cc81a5b8818dbdb5b5a5d1b595b9d604a1b608482015260a490fd5b60405162461bcd60e51b815260206004820152605960248201525f8051602061481583398151915260448201527f652067726561746572206f7220657175616c207468616e206d696e206e756d62606482015278195c881bd9881d5b9a5d1cc81a5b8818dbdb5b5a5d1b595b9d603a1b608482015260a490fd5b60405162461bcd60e51b815260206004820152604760248201527f4475726174696f6e2073686f756c64206265206c6f776572206f72206571756160448201527f6c207468616e206d617820636170616369747920636f6d6d69746d656e7420646064820152663ab930ba34b7b760c91b608482015260a490fd5b60405162461bcd60e51b815260206004820152604960248201527f4475726174696f6e2073686f756c642062652067726561746572206f7220657160448201527f75616c207468616e206d696e20636170616369747920636f6d6d69746d656e7460648201526810323ab930ba34b7b760b91b608482015260a490fd5b60405162461bcd60e51b815260206004820152602c60248201527f4f6e6c792070726f76696465722063616e20637265617465206361706163697460448201526b1e4818dbdb5b5a5d1b595b9d60a21b6064820152608490fd5b60405162461bcd60e51b815260206004820152601b60248201527a1419595c88185b1c9958591e481a185cc818dbdb5b5a5d1b595b9d602a1b6044820152606490fd5b60405162461bcd60e51b815260206004820152602360248201527f57686974656c6973743a2070726f7669646572206973206e6f7420617070726f6044820152621d995960ea1b6064820152608490fd5b50335f527f1f364d5cd815a7922b0808e606a82391642c337151b3addb3f98eaf82cfb172f60205260ff60405f205416610c5c565b5f80fd5b5f3660031901126112fd57611324345f80516020614a9583398151915254612077565b5f80516020614a9583398151915255005b346112fd5760203660031901126112fd5761134e612ab7565b50611357612ab7565b505f80516020614a158339815191526004355f5260205261016060405f20600181015461138581151561211d565b61138d612c8e565b916006810154926003820154906113a48286612077565b916113c46113b186612d3e565b936113bb86612fa4565b93858588613081565b956113d9604060028701549501519282612077565b90600486015492602060018060a01b0360058901541695015195600d60206040890151980151980154986114196040519b6114138d611dc3565b8c612b08565b60208b0190815260408b0191825260608b0192835260808b0193845260a08b0194855260c08b0195865260e08b019687526101008b019788526101208b019889526101408b01998a52611470604051809c51611d9b565b5160208b01525160408a01525160608901525160808801525160a08701525160c0860152516001600160a01b031660e0850152516101008401525161012083015251610140820152f35b346112fd5760603660031901126112fd576004356001600160401b0381116112fd576114ea903690600401611e85565b6024356001600160401b0381116112fd57611509903690600401611e85565b60443591906001600160401b0383116112fd5761152d611533933690600401611e85565b91612259565b005b346112fd5760203660031901126112fd576020611553600435612173565b6115606040518092611d9b565bf35b346112fd5760603660031901126112fd57611533604080516115848282611e4b565b60018152601f19820190813660208301378251916115a28484611e4b565b60018352803660208501376115b984519485611e4b565b600184523660208501376004356115cf826120fc565b526024356115dc836120fc565b526044356115e9846120fc565b52612259565b346112fd5760203660031901126112fd5760043561160b612e4a565b5f80516020614a15833981519152611621612c8e565b90825f5260205260405f209061163a6001830154612d3e565b80516001600160a01b039061164e90612e7f565b511633148015611a17575b156119bb5760208061166a85612fa4565b6116896116806006880154600389015490612077565b8686848a613081565b50611695818789613337565b01510151806119b2575b50516001906001600160a01b03906116b690612e7f565b5116601084016116ec6116e56116d86116cf8785613bff565b60118901612ccc565b508354958691015461206a565b8094612077565b905560148401916116fd8484613cdd565b80518051601a880192916001600160401b038211610f47576020906117228386612c4e565b01835f5260205f205f5b83811061199e575050505061178a60207f8b5d520ecd83f8a909da38eaeb49b5c1fb3d8d69e22e2b36ec0f5814b5c4aa439201519586601b8a015587601c8a0155549260405191829160208352604060208401526060830190613ca6565b8760408301520390a2601585016117ad6117a68254809661206a565b8095612077565b90556117b98382612077565b905f80516020614a958339815191525480831161191d5782156118cd57611836926117e39161206a565b5f80516020614a958339815191525561181a6118126298968061180a60048a015485612057565b04809361206a565b948592612077565b926118318460018060a01b0360058a015416613554565b613554565b6008840154600d850154600b600a870154960154915f1986019586116118b9576118996040965f80516020614895833981519152947fc512f9d0bb2627096491f1074af42a5032fe36ef5dcae7c216cfc34f6ea474d69989519586958d876120a2565b0390a182519182526020820152a25f5f80516020614a558339815191525d005b634e487b7160e01b5f52601160045260245ffd5b60405162461bcd60e51b815260206004820152602260248201527f4e6f207265776172647320617661696c61626c6520666f7220776974686472616044820152613b9760f11b6064820152608490fd5b60405162461bcd60e51b815260206004820152604d60248201527f4e6f7420656e6f756768207265776172642062616c616e636520706f6f6c206f60448201527f6e2074686520636f6e74726163742e2057616974207768656e2044414f20776960648201526c3636103932b334b6361034ba1760991b608482015260a490fd5b60019060208451940193818401550161172c565b9150600161169f565b60405162461bcd60e51b815260206004820152602e60248201527f4f6e6c792070726f7669646572206f722064656c656761746f722063616e207760448201526d1a5d1a191c985dc81c995dd85c9960921b6064820152608490fd5b5060058301546001600160a01b03163314611659565b60203660031901126112fd576004356001600160401b0381116112fd57611a58903690600401611d5d565b905f80516020614a1583398151915234925f5b818110611ab05784611a7957005b60405162461bcd60e51b815260206004820152600f60248201526e4578636573736976652076616c756560881b6044820152606490fd5b611abb818386611fcb565b3590815f528360205260405f2091611ad281612173565b6006811015611ca3576002611ae79114611fef565b60018301546040611af782612d3e565b015197611b12611b0b60028701548b612057565b809261206a565b98611b1b612c8e565b6005870180546001600160a01b031680611c4b575080546001600160a01b031916331790555b60018101918282116118b95787867fd752175fe73028b933ce110fbf0ff2e6e254cd0384b5773960fe1114e29bdda660207f0b0a4688a90d1b24732d05ddf4925af69f02cd7d9a921b1cdcd4a7c2b6d57d6897611bfe600396611c179860019f60068c910155600988015580600a880155611bd85f805160206148f5833981519152915f805160206148b583398151915254612077565b9050805f805160206148b5833981519152555f8051602061483583398151915254613edd565b845460ff19168d178555604051908152a2015482612077565b90611c42611c2485612dd9565b60405193849384526020840152606060408401526060830190611ee2565b0390a301611a6b565b90503314611b415760405162461bcd60e51b815260206004820152602260248201527f4f6e6c792064656c656761746f722063616e206c6f636b20636f6c6c61746572604482015261185b60f21b6064820152608490fd5b634e487b7160e01b5f52602160045260245ffd5b346112fd5760203660031901126112fd57611cd0611fb3565b505f80516020614a158339815191526004355f5260205261036e60405f2061033d611cf9612c8e565b9160156020611d18611d0e8660108601612ce5565b9560148501613cdd565b01519101549061206a565b346112fd5760203660031901126112fd576060611d41600435611f15565b6040805191805183526020810151602084015201516040820152f35b9181601f840112156112fd578235916001600160401b0383116112fd576020808501948460051b0101116112fd57565b6006811015611ca357600452565b906006821015611ca35752565b604081019081106001600160401b03821117610f4757604052565b61016081019081106001600160401b03821117610f4757604052565b60e081019081106001600160401b03821117610f4757604052565b606081019081106001600160401b03821117610f4757604052565b608081019081106001600160401b03821117610f4757604052565b60c081019081106001600160401b03821117610f4757604052565b601f909101601f19168101906001600160401b03821190821017610f4757604052565b6001600160401b038111610f475760051b60200190565b9080601f830112156112fd578135611e9c81611e6e565b92611eaa6040519485611e4b565b81845260208085019260051b8201019283116112fd57602001905b828210611ed25750505090565b8135815260209182019101611ec5565b90602080835192838152019201905f5b818110611eff5750505090565b8251845260209384019390920191600101611ef2565b604051611f2181611dfa565b5f81525f60208201525f6040820152505f525f805160206149b583398151915260205260405f2080549081611f8d5750505f805160206149d5833981519152545f805160206149158339815191525460405191611f7d83611dfa565b825260208201525f604082015290565b60029060405192611f9d84611dfa565b8352600181015460208401520154604082015290565b60405190611fc082611da8565b5f6020838281520152565b9190811015611fdb5760051b0190565b634e487b7160e01b5f52603260045260245ffd5b15611ff657565b60405162461bcd60e51b815260206004820152603360248201527f436170616369747920636f6d6d69746d656e74206973206e6f7420696e205761604482015272697444656c65676174696f6e2073746174757360681b6064820152608490fd5b818102929181159184041417156118b957565b919082039182116118b957565b919082018092116118b957565b811561208e570490565b634e487b7160e01b5f52601260045260245ffd5b9260a094919796959260c0850198855260208501526040840152606083015260808201520152565b906120d482611e6e565b6120e16040519182611e4b565b82815280926120f2601f1991611e6e565b0190602036910137565b805115611fdb5760200190565b8051821015611fdb5760209160051b010190565b1561212457565b60405162461bcd60e51b815260206004820152602160248201527f436170616369747920636f6d6d69746d656e7420646f65736e277420657869736044820152601d60fa1b6064820152608490fd5b5f80516020614a15833981519152905f526020526121d260405f206121a660018201546121a181151561211d565b612d3e565b6121af82612fa4565b906121b8612c8e565b916121cc6006850154600386015490612077565b93613081565b90565b156121dc57565b60405162461bcd60e51b815260206004820152601760248201527610dbdb5c1d5d19481d5b9a5d081a5cc81a5b881919585b604a1b6044820152606490fd5b3d15612254573d906001600160401b038211610f475760405191612249601f8201601f191660200184611e4b565b82523d5f602084013e565b606090565b90929192815115612a80578151815103612a3d5781518451036129f9575f80516020614a1583398151915261228c612c8e565b6080526080515f80516020614a3583398151915254036129c4575b918051926122b4846120ca565b915f915f194301926080515f196080510111905b8781106125375750505050505f9182916123326123405f805160206148f583398151915260018060a01b03905416936040519283916123206020840196631cd7b9d760e31b8852604060248601526064850190611ee2565b83810360231901604485015290611ee2565b03601f198101835282611e4b565b51915af461234c61221b565b90156124f8578051156124a45780518101906020818184019303126112fd576020810151906001600160401b0382116112fd57019080603f830112156112fd57602082015161239a81611e6e565b926123a86040519485611e4b565b8184526020808086019360051b830101019283116112fd57604001905b8282106124945750505081815103612457575f5b8281106123e7575050509050565b6123f18186612109565b506123fc8183612109565b51612405613a42565b10612412576001016123d9565b60405162461bcd60e51b815260206004820152601f60248201527f50726f6f6620697320626967676572207468616e20646966666963756c7479006044820152606490fd5b60405162461bcd60e51b8152602060048201526015602482015274092dcecc2d8d2c840e4cae6ead8e840d8cadccee8d605b1b6044820152606490fd5b81518152602091820191016123c5565b60405162461bcd60e51b815260206004820152602660248201527f52616e646f6d5850726f78792e72756e2072657475726e656420656d707479206044820152651c995cdd5b1d60d21b6064820152608490fd5b60405162461bcd60e51b815260206004820152601760248201527614985b991bdb56141c9bde1e4b9c9d5b8819985a5b1959604a1b6044820152606490fd5b6125418185612109565b519061254d8189612109565b5191612559828d612109565b5161256f6020612568846135a4565b0151612d3e565b933360018060a01b036060870151160361296e57602085015191821561291d57825f528760205260405f2095600687015480608051106128cd578c928791875f5260128a016020526125d860405f20916125cd60ff845416156121d5565b60038c015490612077565b946126155f80516020614ab583398151915254604051602081019182528b60408201526040815261260a606082611e4b565b519020948592612109565b5260038101946080515f528560205260405f2054946001860186116118b9575f805160206149158339815191525460018701116128ba57612665828d61265a81612fa4565b938460805192613081565b6006811015611ca357600181036128a35750906020808361268c8f9561269b97968e613337565b0151015191896080519161365b565b5f80516020614ab583398151915254908d43106118b9578d90604051916020830193845240604083015288606083015286608083015260a082015260a081526126e560c082611e4b565b5190205f805160206147b583398151915255805f525f8051602061479583398151915260205260405f20845f5260205260ff60405f20541661284d575f525f8051602061479583398151915260205260405f20835f5260205260405f20600160ff198254161790556127586080516139f5565b9182548060018401145f1461281b575060078801805493600185018095116118b957600194600292550161278f8484018254612077565b90555b6080515f526020520160405f205585600886015491600d87015492600b600a890154980154926118b9576001977f32c9117442431c0bcfdbbef33bc9918d148ad082e0f38d70bbde857f01d225c89461280a5f80516020614895833981519152936020966040519485945f1960805101938c876120a2565b0390a1604051908152a35b016122c8565b6001839492940111612831575b50600191612792565b600201805492905f1984146118b9576001809401905591612828565b60405162461bcd60e51b815260206004820152602860248201527f50726f6f6620697320616c7265616479207375626d697474656420666f7220746044820152671a1a5cc81d5b9a5d60c21b6064820152608490fd5b6242963960e51b5f526128b590611d8d565b60245ffd5b5050505050505050505060019150612815565b60405162461bcd60e51b815260206004820152602260248201527f436170616369747920636f6d6d69746d656e74206973206e6f74207374617274604482015261195960f21b6064820152608490fd5b60405162461bcd60e51b8152602060048201526024808201527f436f6d7075746520756e697420646f65736e2774206861766520636f6d6d69746044820152631b595b9d60e21b6064820152608490fd5b60405162461bcd60e51b815260206004820152602860248201527f4f6e6c7920636f6d707574652070656572206f776e65722063616e207375626d60448201526734ba10383937b7b360c11b6064820152608490fd5b6080515f80516020614a35833981519152555f805160206147b5833981519152545f80516020614ab5833981519152556122a7565b60405162461bcd60e51b815260206004820152601c60248201527b24b73b30b634b2103932b9bab63a103430b9b432b990373ab6b132b960211b6044820152606490fd5b60405162461bcd60e51b815260206004820152601b60248201527a24b73b30b634b2103637b1b0b6103737b731b2b990373ab6b132b960291b6044820152606490fd5b60405162461bcd60e51b815260206004820152600f60248201526e273790383937b7b3399033b4bb32b760891b6044820152606490fd5b60405190612ac482611dc3565b5f610140838281528260208201528260408201528260608201528260808201528260a08201528260c08201528260e082015282610100820152826101208201520152565b6006821015611ca35752565b516006811015611ca35790565b15612b2857565b60405162461bcd60e51b815260206004820152602c60248201527f4f6e6c792070726f76696465722063616e2072656d6f7665206361706163697460448201526b1e4818dbdb5b5a5d1b595b9d60a21b6064820152608490fd5b612b8a612c8e565b5f80516020614a358339815191525403612bb0575f80516020614ab58339815191525490565b5f805160206147b58339815191525490565b15612bc957565b60405162461bcd60e51b815260206004820152605160248201527f436170616369747920636f6d6d69746d656e74206973206661696c656420616e60448201527f64206e6f7420656e6f7567682065706f6368732070617373656420746f2077696064820152701d1a191c985dc818dbdb1b185d195c985b607a1b608482015260a490fd5b90600160401b8111610f4757815491818155828210612c6c57505050565b5f5260205f2091820191015b818110612c83575050565b5f8155600101612c78565b612cbe612ca95f80516020614ad5833981519152544261206a565b5f805160206149758339815191525490612084565b600101806001116118b95790565b8054821015611fdb575f5260205f209060011b01905f90565b90612cf09082613bff565b905f8212612d14576001612d096121d293828401612ccc565b50015490549061206a565b50505f90565b60405190612d2782611e15565b5f6060838281528260208201528260408201520152565b612d46612d1a565b505f525f8051602061477583398151915260205260405f208054908115612d9f5760405191612d7483611e15565b82526001810154602083015260028101546040830152600301546001600160a01b0316606082015290565b60405162461bcd60e51b81526020600482015260126024820152711419595c88191bd95cdb89dd08195e1a5cdd60721b6044820152606490fd5b5f527f88681cafafd55573d275926fd208ef2ba36c6dd5169e88841d4bc9bcd225302460205260405f20604051808260208294549384815201905f5260205f20925f5b818110612e315750506121d292500382611e4b565b8454835260019485019486945060209093019201612e1c565b5f80516020614a558339815191525c612e705760015f80516020614a558339815191525d565b633ee5aeb560e01b5f5260045ffd5b5f60a0604051612e8e81611e30565b82815282602082015282604082015282606082015282608082015201525f527f88681cafafd55573d275926fd208ef2ba36c6dd5169e88841d4bc9bcd225302060205260405f2060018060a01b03815416908115612f335760059060405192612ef684611e30565b83526001810154602084015260028101546001600160a01b031660408401526003810154606084015260048101546080840152015460a082015290565b60405162461bcd60e51b815260206004820152601360248201527213d999995c88191bd95cdb89dd08195e1a5cdd606a1b6044820152606490fd5b60405190612f7b82611ddf565b5f60c0838281528260208201528260408201528260608201528260808201528260a08201520152565b90604051612fb181611da8565b612fb9612f6e565b815260c0806020830192612fcb612f6e565b845260078196612fe060ff8254168451612b08565b600c8101546020845101526008810154604084510152600a810154606084510152600b810154608084510152600981015460a0845101520154828251015261303261302b8251612b14565b8551612b08565b60208151015160208551015260408151015160408551015260608151015160608551015260808151015160808551015260a08151015160a08551015251015191510152565b811561208e570690565b9192939060200192835151916006831015611ca35760a085510151925f198701968088116118b95760068896015480155f146130c557505050505050505050600290565b1161332b5760018114801590613321575b61331757506001955f1982019182116118b95781111561330c575b507f8984d2d0d7a9f2f70f22692c7c8344aa50cbed8c00a03c924457a31793ee8fdb54845192606084015192608085015160408601519560c087910151945f938688116132f0575b6040015161314691612057565b9461316c83613167613158888d61206a565b613162838c612077565b612057565b61206a565b8082106132d3575b5050848710156131f4575b5050505050506040835101528151608081015190816131d5575b50506006831015611ca3575f9160c091600185036131be575b60a08251015251015290565b836060835101526131d0858351612b08565b6131b2565b60606131e49101918251612077565b90525f6080835101525f80613199565b909294985083613207929496509561206a565b600497909290838210613248575050505060018101809111613235576020845101525b5f808080808061317f565b601185634e487b7160e01b5f525260245ffd5b61325b9261325591612077565b9261206a565b906132668183612084565b8060010191826001116132c05761327e908394613077565b613299575b505061328e91612077565b60208451015261322a565b600201915081106132ad5761328e5f613283565b601186634e487b7160e01b5f525260245ffd5b601189634e487b7160e01b5f525260245ffd5b6132e89298916132e29161206a565b90612077565b955f80613174565b9350613146906040613302888a61206a565b9591925050613139565b5f95509250846130f1565b9550505050505090565b50838711156130d6565b50505050505050600390565b916133428151612b14565b9260208201936133528551612b14565b906006821015611ca3576006811015611ca35703613474575b506133768151612b14565b6133808451612b14565b906006821015611ca3576006811015611ca3570361344d575b60c080915160208101519451946020860151809103613442575b5060408101516040860151809103613437575b506060810151606086015180910361342c575b5060808101516080860151809103613421575b5060a081015160a0860151809103613416575b500151920151809203613410575050565b60070155565b60098501555f6133ff565b600b8501555f6133ec565b600a8501555f6133d9565b60088501555f6133c6565b600c8501555f6133b3565b6134578351612b14565b6006811015611ca357825460ff191660ff91909116178255613399565b61348982516080606082015191015190612077565b906134948551612b14565b6006811015611ca35760040361350457906134fe917f1ec6d9e2b340c6cc9d5b6690a2d2a1558f252aa30668b45dbdb83bb7728984f260208088510151604051908152a2611bd85f805160206148f5833981519152915f805160206148b58339815191525461206a565b5f61336b565b5061350f8451612b14565b6006811015611ca35715613524575b506134fe565b61354e90611bd85f805160206148f5833981519152915f805160206148b58339815191525461206a565b5f61351e565b81471061358d575f918291829182916001600160a01b03165af161357661221b565b501561357e57565b63d6bda27560e01b5f5260045ffd5b504763cf47918160e01b5f5260045260245260445ffd5b6135ac612d1a565b505f527f88681cafafd55573d275926fd208ef2ba36c6dd5169e88841d4bc9bcd225302260205260405f20600181015490811561361957600390604051926135f384611e15565b81546001600160a01b031684526020840152600281015460408401520154606082015290565b60405162461bcd60e51b815260206004820152601a60248201527910dbdb5c1d5d19481d5b9a5d08191bd95cdb89dd08195e1a5cdd60321b6044820152606490fd5b92939190915f80516020614a15833981519152835f5260205260405f20945f1983019283116118b9578260ff8654166139b3575f1982019182116118b95781106139ed575b50801515806139e4575b6139dc575b50600183019283549384156139c4575b848311156139bc57829055815f525f805160206149b5833981519152602052600184018094116118b95760030193835f528460205260405f2054845f525f805160206149b583398151915260205260405f20805482106139b3576002015480156139b35761373361373892613162886140cb565b612084565b9283613750575b505050505f526020525f6040812055565b5f805160206147f583398151915254915f80516020614995833981519152549360106137a6601184019361379d6137898987549b612084565b946132e26137978a83613077565b8a61206a565b92839101613bff565b945f198614806139aa575b61394b575f925f87121580613937575b613916575b5f965b8888106137db5750505050505061373f565b600188018089116118b9576137f09083612057565b945f8212158061390d575b15613867575061385e8180897f86c93961d1a070b7b56fd1214cf06ccc18a89a3869681be8b74533f85ddc826060206138528b600161383c8f9a829b612ccc565b500161384a81549e8f612077565b90558c612077565b604051908152a361417f565b975b01966137c9565b94909761387d6138778286612057565b86612077565b6138878388612077565b6040519061389482611da8565b8282526020820152885490600160401b821015610f47576138be8260016138c494018c558b612ccc565b90613eb4565b87545f1981019081116118b957897fd2337a844680345b0a7ba3392e6ddbbf8ff6e72cc99a633764c322c920576b7a60206139016001978c612077565b604051908152a4613860565b508a82126137fb565b95925061393160016139288587612ccc565b5001549361417f565b956137c6565b50826139438887612ccc565b5054106137c1565b60405162461bcd60e51b815260206004820152603160248201527f56657374696e673a20737461727445706f63682069732062656c6f77207468616044820152706e20616c6c207365656e2065706f63687360781b6064820152608490fd5b508715156137b1565b50505050505050565b505050505050565b935060068501545f1981019081116118b957936136bf565b90505f6136af565b508082116136aa565b91505f6136a0565b5f525f805160206149b583398151915260205260405f20908154613a40575f805160206149d58339815191525482555f805160206149158339815191525460018301555f6002830155565b565b613a4a612c8e565b7f8984d2d0d7a9f2f70f22692c7c8344aa50cbed8c00a03c924457a31793ee8fe0541115613a97577f8984d2d0d7a9f2f70f22692c7c8344aa50cbed8c00a03c924457a31793ee8fde5490565b7f8984d2d0d7a9f2f70f22692c7c8344aa50cbed8c00a03c924457a31793ee8fdf5490565b9091600f82019283549260ff8416613bca577fed936607000ae116b16994b38bb5f5f4651eab9f6487adedf146d92388bb7c6f94600160609560ff191617905562989680613b55613b2d60018060a01b03600585015416946008613b2560028701549283612057565b950154612057565b7f8984d2d0d7a9f2f70f22692c7c8344aa50cbed8c00a03c924457a31793ee8fd95490612057565b0480821015613bb45750613b6b5f809293613554565b7fc8fcad8db84d3cc18b4c41d551ea0ee66dd599cde068d998e57d5e09332c132054613ba19083906001600160a01b0316613554565b60405192835260208301526040820152a1565b90613bc282613b6b9261206a565b809293613554565b5050505050565b600181019081548015613bf8575f1981019081116118b957612d096001916121d294612ccc565b5050505f90565b60010180545f199392908015613ca1575f905f1981019081116118b957929190925b80841115613c2f5750505050565b90919294613c3d8287612077565b60011c95613c4b8786612ccc565b505480851115613c6d5750505084600181018091116118b9575b929190613c21565b919690925090831015613c9a5780613c8957505f199450505050565b5f1981019081116118b95790613c65565b9450505050565b505050565b90602082549182815201915f5260205f20905f5b818110613cc75750505090565b8254845260209093019260019283019201613cba565b90604051613cea81611da8565b606081525f60208201525060405191613d0283611da8565b604051613d1d81613d168160068601613ca6565b0382611e4b565b835260078101549160208401928352600882015490818114613ead57613d43828261206a565b91815f198101116118b957613d7b613d75613d60613d9093614272565b5f805160206148558339815191525490612077565b92614272565b5f80516020614855833981519152549061206a565b5f198101919082116118b957613db391613da9916142bd565b6003840154612057565b91670de0b6b3a7640000830292808404670de0b6b3a764000014901517156118b957613df16005655af3107a4000613dfa9504920154809284614193565b93908551612077565b84525f5b818110613e0d57505050505090565b808360019210613e90575b82613e238583612077565b1015613e7e57613e3e8751613e388684612077565b90612109565b51613e4a828951612109565b525b613e568186612109565b51613e7782613e718a5193613e6b8386612109565b51612077565b92612109565b5201613dfe565b5f613e8a828951612109565b52613e4c565b613ea6613e9e828951612109565b518751612077565b8652613e18565b5050505090565b9190613eca576020816001925184550151910155565b634e487b7160e01b5f525f60045260245ffd5b90613ee6612c8e565b5f805160206147d5833981519152549082156140c5575f198201928284116118b957613f1f845f805160206147d5833981519152612ccc565b5080548314919082156140b35750600284106139bc576001198401908482116118b9576137336001613f61613f6c945f805160206147d5833981519152612ccc565b500154975b88612057565b7f8984d2d0d7a9f2f70f22692c7c8344aa50cbed8c00a03c924457a31793ee8fe154101561405c577f8984d2d0d7a9f2f70f22692c7c8344aa50cbed8c00a03c924457a31793ee8fe25494628954408102908082046289544014901517156118b95762989680900494808610614054575b505b15614004575050613fff6001915f805160206147d5833981519152612ccc565b500155565b9150916040519161401483611da8565b82526020820152600160401b821015610f47576138be826001613a4094015f805160206147d5833981519152555f805160206147d5833981519152612ccc565b94505f613fdd565b7f8984d2d0d7a9f2f70f22692c7c8344aa50cbed8c00a03c924457a31793ee8fe3549462a7d8c081029080820462a7d8c014901517156118b957629896809004948086116140ab575b50613fdf565b94505f6140a5565b906137336001613f6c93015497613f66565b50505050565b5f805160206147d5833981519152545f91905f1981019081116118b9575f925b818111156140f95750505090565b6141038282612077565b60011c9361411e855f805160206147d5833981519152612ccc565b509182548086115f1461415357505050600101549260018101809111156140eb57634e487b7160e01b5f52601160045260245ffd5b9195909350919084101561417357505f1981019081116118b957906140eb565b60010154949350505050565b6001600160ff1b0381146118b95760010190565b929190801561426257816141a691612084565b5f6141b185846145c7565b8581809711614251575b50600101908186116118b95761316283916132e2866141dd6141e6968b612057565b60011c92612057565b916141f0816120ca565b945f5b82811061420257505050509190565b8261420d8284612077565b1015614232575b6001906142218584612057565b61422b828a612109565b52016141f3565b9080158015614243575b5090614214565b6118b9575f1901600161423c565b61425b925061206a565b845f6141bb565b5061426e9192506120ca565b5f91565b5f80516020614ad5833981519152545f80516020614975833981519152545f1983019283116118b9576121d2926132e291612057565b8054821015611fdb575f5260205f2001905f90565b905f805160206149558339815191526142e85f80516020614855833981519152546131628142612084565b821015614590575490828211614517578083116144af57614309828461206a565b906143235f80516020614855833981519152548093612084565b5f80516020614a758339815191525490928184101561443957614353845f80516020614a758339815191526142a8565b90549060031b1c925b61436a82613733888461206a565b95838710156143c3575050505061438e835f80516020614a758339815191526142a8565b90549060031b1c5b8284036143aa57505050506121d2906145d9565b6121d294506143bd92916132559161206a565b90612084565b6143d59261373361316792869461206a565b90600182018092116118b9575f1981019081116118b957614403905f80516020614a758339815191526142a8565b90549060031b1c5f8051602061483583398151915254801561208e57614434926132e291655af3107a400004612057565b614396565b61444b8261316783613733898b61206a565b600181018091116118b9575f1983018381116118b957614478905f80516020614a758339815191526142a8565b90549060031b1c5f8051602061483583398151915254801561208e576144a9926132e291655af3107a400004612057565b9261435c565b60405162461bcd60e51b815260206004820152605a60248201525f805160206148d583398151915260448201525f805160206149f58339815191526064820152790732067726561746572207468616e20746f54696d657374616d760341b608482015260a490fd5b60405162461bcd60e51b815260206004820152606560248201525f805160206148d583398151915260448201525f805160206149f583398151915260648201527f73206c6f776572207468616e206669727374207265636f726465642074696d6560848201526407374616d760dc1b60a482015260c490fd5b60405162461bcd60e51b815260206004820152600f60248201526e6d65616e2063616e206368616e676560881b6044820152606490fd5b90808210156145d4575090565b905090565b5f8051602061495583398151915254908082116146e957614612916145fd9161206a565b5f805160206148558339815191525490612084565b5f80516020614a75833981519152548110156146c857801561467e57614645815f80516020614a758339815191526142a8565b90549060031b1c5f1982019182116118b9576146716121d2925f80516020614a758339815191526142a8565b90549060031b1c9061206a565b505f80516020614a758339815191525415611fdb575f80516020614a758339815191525f527fd4d5257edb89e07e8d010c6ff96326eddf1fc220d3213e3ef3ddd6c1b3b706415490565b505f8051602061483583398151915254801561208e57655af3107a40000490565b60405162461bcd60e51b815260206004820152605760248201527f4c69624f7261636c6550726963652e6765745265765072696365417454696d6560448201527f7374616d703a2074696d657374616d70206973206c6f776572207468616e2066606482015276069727374207265636f726465642074696d657374616d7604c1b608482015260a490fdfe88681cafafd55573d275926fd208ef2ba36c6dd5169e88841d4bc9bcd2253021a8de0abb18de6e730ac24d7fe02c877d293683811fc3ac5d8e62e2a52c0d20d9a8de0abb18de6e730ac24d7fe02c877d293683811fc3ac5d8e62e2a52c0d20db8984d2d0d7a9f2f70f22692c7c8344aa50cbed8c00a03c924457a31793ee8fe68984d2d0d7a9f2f70f22692c7c8344aa50cbed8c00a03c924457a31793ee8fe44e756d626572206f6620756e69747320696e20706565722073686f756c64206262e26dda6281f8a7bde8d0de6ef3dc4300cca63258b4641529b5bae7dc08902a62e26dda6281f8a7bde8d0de6ef3dc4300cca63258b4641529b5bae7dc0890278984d2d0d7a9f2f70f22692c7c8344aa50cbed8c00a03c924457a31793ee8fdabd5605b4405616555ea2583cbd913ecf346c52c37520187117aadcea54e7d1498984d2d0d7a9f2f70f22692c7c8344aa50cbed8c00a03c924457a31793ee8fd24c69624f7261636c6550726963652e6765744d65616e526576507269636542658984d2d0d7a9f2f70f22692c7c8344aa50cbed8c00a03c924457a31793ee8fd18984d2d0d7a9f2f70f22692c7c8344aa50cbed8c00a03c924457a31793ee8fdd5265776172642064656c65676174696f6e20726174652073686f756c6420626562e26dda6281f8a7bde8d0de6ef3dc4300cca63258b4641529b5bae7dc0890267d4f8ec43464738265ced6b7ed5f90007e9b7c34318bdd82d9249328b50bd3588984d2d0d7a9f2f70f22692c7c8344aa50cbed8c00a03c924457a31793ee8fe5a8de0abb18de6e730ac24d7fe02c877d293683811fc3ac5d8e62e2a52c0d20d88984d2d0d7a9f2f70f22692c7c8344aa50cbed8c00a03c924457a31793ee8fdc747765656e54696d657374616d70733a2066726f6d54696d657374616d702069a8de0abb18de6e730ac24d7fe02c877d293683811fc3ac5d8e62e2a52c0d20d7a8de0abb18de6e730ac24d7fe02c877d293683811fc3ac5d8e62e2a52c0d20dc9b779b17422d0df92223018b32b4d1fa46e071723d6817e2486d003becc55f0062e26dda6281f8a7bde8d0de6ef3dc4300cca63258b4641529b5bae7dc089029a8de0abb18de6e730ac24d7fe02c877d293683811fc3ac5d8e62e2a52c0d20dda8de0abb18de6e730ac24d7fe02c877d293683811fc3ac5d8e62e2a52c0d20da7d4f8ec43464738265ced6b7ed5f90007e9b7c34318bdd82d9249328b50bd357a26469706673582212200826c77dd696fdded464a461af8ed0ac4c6d3a3f668b30adb4889e52857e46d864736f6c634300081a0033","linkReferences":{}},"methodIdentifiers":{"createCommitment(bytes32,uint256,address,uint256)":"886f0e87","depositCollateral(bytes32[])":"3d5f526c","diamondReceive()":"77fc1b6a","finishCommitment(bytes32)":"ea03ef52","getCommitment(bytes32)":"7795820c","getGlobalNonce()":"92163b4b","getProofCounts(bytes32)":"c9b824c2","getRewardInfo(uint256)":"243d3827","getStatus(bytes32)":"5de28ae0","removeCUFromCC(bytes32,bytes32[])":"8e7af1d1","removeCommitment(bytes32)":"d6a1c7f8","submitProof(bytes32,bytes32,bytes32)":"4ece5685","submitProofs(bytes32[],bytes32[],bytes32[])":"64b75e31","totalRewards(bytes32)":"de644849","unlockedRewards(bytes32)":"3d081790","withdrawCollateral(bytes32)":"d3cde344","withdrawReward(bytes32)":"474b5809","withdrawnRewards(bytes32)":"88af96c4"},"storageLayout":{"storage":[],"types":{}},"devdoc":{"version":1,"kind":"dev","methods":{"createCommitment(bytes32,uint256,address,uint256)":{"details":"Creates a new commitment","params":{"delegator":"The delegator address. If address is zero, the commitment has no delegator","duration":"The duration of the commitment in Epochs","peerId":"Peer id which linked to the commitment","rewardDelegationRate":"The reward delegation rate in precision"}},"depositCollateral(bytes32[])":{"details":"Deposits collateral for commitments. It makes commitments activeNote: this method consists of indirect potential delegator address update(set delegator to msg.sender if 0x0 before).","params":{"commitmentIds":"Commitment ids"}},"diamondReceive()":{"details":"to add reward balance by msg.value"},"finishCommitment(bytes32)":{"details":"Finishes the commitment if it is in Failed or Ended status","params":{"commitmentId":"Commitment id"}},"getCommitment(bytes32)":{"details":"Returns the commitment info","params":{"commitmentId":"Commitment id"},"returns":{"_0":"info commitment info"}},"getProofCounts(bytes32)":{"details":"Returns proof counts for each CU in current epoch","params":{"commitmentId":"Commitment id"},"returns":{"counts":"proof numbers sent in current epoch","unitIds":"unit ids"}},"getStatus(bytes32)":{"details":"Returns the commitment status","params":{"commitmentId":"Commitment id"},"returns":{"_0":"status commitment status"}},"removeCUFromCC(bytes32,bytes32[])":{"details":"Remove CU from Ended or Failed CC. Need to call this function before finish the commitment","params":{"commitmentId":"Commitment id","unitIds":"Compute unit ids which will be removed from the commitment"}},"removeCommitment(bytes32)":{"details":"Removes the commitment if it is in WaitDelegation status","params":{"commitmentId":"Commitment id"}},"submitProof(bytes32,bytes32,bytes32)":{"details":"Submits a proof for the commitment","params":{"localUnitNonce":"Local nonce of the unit for calculating the target hash. It's the proof","resultHash":"Target hash of this proof","unitId":"Compute unit id which provide the proof"}},"submitProofs(bytes32[],bytes32[],bytes32[])":{"details":"Submits proofs for the commitment","params":{"localUnitNonces":"Local nonces of the units for calculating the target hashes. It's the proof","resultHashes":"Target hashes of this proof","unitIds":"Compute unit ids which provide the proof"}},"totalRewards(bytes32)":{"details":"Returns the total rewards of the commitment.","params":{"commitmentId":"Commitment id"},"returns":{"_0":"CCRewardsView Returns the total rewards of the commitment minus withdrawn rewards."}},"unlockedRewards(bytes32)":{"details":"Returns the unlocked rewards of the commitment","params":{"commitmentId":"Commitment id"},"returns":{"_0":"CCRewardsView the unlocked rewards of the commitment minus withdrawn rewards."}},"withdrawCollateral(bytes32)":{"details":"Withdraws the collateral from the commitment. Commitment must be Failed or Inactive.","params":{"commitmentId":"Commitment id"}},"withdrawReward(bytes32)":{"details":"Withdraws the reward from the commitment","params":{"commitmentId":"Commitment id"}},"withdrawnRewards(bytes32)":{"details":"Returns rewards withdrawn from the commitment","params":{"commitmentId":"Commitment id"},"returns":{"_0":"CCRewardsView rewards withdrawn from the commitment"}}},"events":{"CollateralDeposited(bytes32,uint256)":{"details":"Emitted when a delegator deposited collateral to commitment","params":{"commitmentId":"Commitment id","totalCollateral":"The total collateral deposited to commitment"}},"CollateralWithdrawn(bytes32,uint256,uint256)":{"details":"Emitted when a someone withdraws deposited collateral from commitment","params":{"amountSlashed":"The slashed part of the collateral","amountWithdrawn":"The returned part of the collateral after slashing","commitmentId":"Commitment id"}},"CommitmentActivated(bytes32,bytes32,uint256,uint256,bytes32[])":{"details":"Emitted when a commitment is activated. Commitment can be activated only if delegator deposited collateral.","params":{"commitmentId":"Commitment id which activated","endEpoch":"The end epoch of the commitment","peerId":"Peer id which linked to the commitment","startEpoch":"The start epoch of the commitment","unitIds":"Compute unit ids which linked to the commitment"}},"CommitmentCreated(bytes32,bytes32,uint256,address,uint256,uint256)":{"details":"Emitted when a new commitment is created","params":{"commitmentId":"Commitment id","delegator":"The delegator address. If address is zero, the commitment has no delegator","duration":"The duration of the commitment in Epochs","fltCollateralPerUnit":"The flt collateral per compute unit","peerId":"Peer id which linked to the commitment","rewardDelegationRate":"The reward delegation rate in precision"}},"CommitmentFinished(bytes32)":{"details":"Emitted when a commitment is finished. Commitment can be finished only if it is in Failed or Ended","params":{"commitmentId":"Commitment id which finished"}},"CommitmentRemoved(bytes32)":{"details":"Emitted when a commitment is removed. Commitment can be removed only if it is in WaitDelegation status","params":{"commitmentId":"Commitment id"}},"ProofSubmitted(bytes32,bytes32,bytes32)":{"details":"Emitted when a proof is submitted","params":{"commitmentId":"Commitment id","localUnitNonce":"The local nonce of the unit for calculating the target hash","unitId":"Compute unit id which linked to the proof"}},"RewardWithdrawn(bytes32,uint256,uint256)":{"details":"Emitted when a reward is withdrawn","params":{"ccRewardsAmount":"The amount withdrawn from the CC rewards -- divided between provider abd staker","commitmentId":"Commitment id","dealStakerRewardsAmount":"The amount of the withdrawn reward from deal staker rewards"}},"UnitActivated(bytes32,bytes32,uint256)":{"details":"Emitted when a unit activated. Unit is activated when it returned from deal","params":{"commitmentId":"Commitment id","unitId":"Compute unit id which activated"}},"UnitDeactivated(bytes32,bytes32)":{"details":"Emitted when a unit deactivated. Unit is deactivated when it moved to deal","params":{"commitmentId":"Commitment id","unitId":"Compute unit id which deactivated"}}},"errors":{"CapacityCommitmentIsActive(uint8)":[{"details":"Capacity commitment is active"}],"CapacityCommitmentIsNotActive(uint8)":[{"details":"Capacity commitment is not active"}],"FailedCall()":[{"details":"A call to an address target failed. The target may have reverted."}],"InsufficientBalance(uint256,uint256)":[{"details":"The ETH balance of the account is not enough to perform the operation."}],"ReentrancyGuardReentrantCall()":[{"details":"Unauthorized reentrant call."}]}},"id":94}