{"abi":[{"type":"function","name":"createCommitment","inputs":[{"name":"peerId","type":"bytes32","internalType":"bytes32"},{"name":"duration","type":"uint256","internalType":"uint256"},{"name":"delegator","type":"address","internalType":"address"},{"name":"rewardDelegationRate","type":"uint256","internalType":"uint256"}],"outputs":[{"name":"","type":"bytes32","internalType":"bytes32"}],"stateMutability":"nonpayable"},{"type":"function","name":"depositCollateral","inputs":[{"name":"commitmentIds","type":"bytes32[]","internalType":"bytes32[]"}],"outputs":[],"stateMutability":"payable"},{"type":"function","name":"diamondReceive","inputs":[],"outputs":[],"stateMutability":"payable"},{"type":"function","name":"finishCommitment","inputs":[{"name":"commitmentId","type":"bytes32","internalType":"bytes32"}],"outputs":[],"stateMutability":"nonpayable"},{"type":"function","name":"getCommitment","inputs":[{"name":"commitmentId","type":"bytes32","internalType":"bytes32"}],"outputs":[{"name":"","type":"tuple","internalType":"struct ICapacity.CommitmentView","components":[{"name":"status","type":"uint8","internalType":"enum ICapacity.CCStatus"},{"name":"peerId","type":"bytes32","internalType":"bytes32"},{"name":"collateralPerUnit","type":"uint256","internalType":"uint256"},{"name":"unitCount","type":"uint256","internalType":"uint256"},{"name":"startEpoch","type":"uint256","internalType":"uint256"},{"name":"endEpoch","type":"uint256","internalType":"uint256"},{"name":"rewardDelegatorRate","type":"uint256","internalType":"uint256"},{"name":"delegator","type":"address","internalType":"address"},{"name":"totalFailCount","type":"uint256","internalType":"uint256"},{"name":"failedEpoch","type":"uint256","internalType":"uint256"},{"name":"exitedUnitCount","type":"uint256","internalType":"uint256"}]}],"stateMutability":"view"},{"type":"function","name":"getGlobalNonce","inputs":[],"outputs":[{"name":"","type":"bytes32","internalType":"bytes32"}],"stateMutability":"view"},{"type":"function","name":"getProofCounts","inputs":[{"name":"commitmentId","type":"bytes32","internalType":"bytes32"}],"outputs":[{"name":"unitIds","type":"bytes32[]","internalType":"bytes32[]"},{"name":"counts","type":"uint256[]","internalType":"uint256[]"}],"stateMutability":"view"},{"type":"function","name":"getRewardBalance","inputs":[],"outputs":[{"name":"","type":"uint256","internalType":"uint256"}],"stateMutability":"view"},{"type":"function","name":"getRewardInfo","inputs":[{"name":"epoch","type":"uint256","internalType":"uint256"}],"outputs":[{"name":"","type":"tuple","internalType":"struct ICapacity.RewardInfo","components":[{"name":"minProofsPerEpoch","type":"uint256","internalType":"uint256"},{"name":"maxProofsPerEpoch","type":"uint256","internalType":"uint256"},{"name":"totalSuccessProofs","type":"uint256","internalType":"uint256"}]}],"stateMutability":"view"},{"type":"function","name":"getStatus","inputs":[{"name":"commitmentId","type":"bytes32","internalType":"bytes32"}],"outputs":[{"name":"","type":"uint8","internalType":"enum ICapacity.CCStatus"}],"stateMutability":"view"},{"type":"function","name":"getUnitExitStatuses","inputs":[{"name":"commitmentId","type":"bytes32","internalType":"bytes32"}],"outputs":[{"name":"unitIds","type":"bytes32[]","internalType":"bytes32[]"},{"name":"isExited","type":"bool[]","internalType":"bool[]"}],"stateMutability":"view"},{"type":"function","name":"removeCUFromCC","inputs":[{"name":"commitmentId","type":"bytes32","internalType":"bytes32"},{"name":"unitIds","type":"bytes32[]","internalType":"bytes32[]"}],"outputs":[],"stateMutability":"nonpayable"},{"type":"function","name":"removeCommitment","inputs":[{"name":"commitmentId","type":"bytes32","internalType":"bytes32"}],"outputs":[],"stateMutability":"nonpayable"},{"type":"function","name":"submitProof","inputs":[{"name":"unitId","type":"bytes32","internalType":"bytes32"},{"name":"localUnitNonce","type":"bytes32","internalType":"bytes32"},{"name":"resultHash","type":"bytes32","internalType":"bytes32"}],"outputs":[],"stateMutability":"nonpayable"},{"type":"function","name":"submitProofs","inputs":[{"name":"unitIds","type":"bytes32[]","internalType":"bytes32[]"},{"name":"localUnitNonces","type":"bytes32[]","internalType":"bytes32[]"},{"name":"resultHashes","type":"bytes32[]","internalType":"bytes32[]"}],"outputs":[],"stateMutability":"nonpayable"},{"type":"function","name":"totalRewards","inputs":[{"name":"commitmentId","type":"bytes32","internalType":"bytes32"}],"outputs":[{"name":"","type":"tuple","internalType":"struct ICapacity.CCRewardsView","components":[{"name":"ccRewards","type":"uint256","internalType":"uint256"},{"name":"dealStakerRewards","type":"uint256","internalType":"uint256"}]}],"stateMutability":"view"},{"type":"function","name":"unlockedRewards","inputs":[{"name":"commitmentId","type":"bytes32","internalType":"bytes32"}],"outputs":[{"name":"","type":"tuple","internalType":"struct ICapacity.CCRewardsView","components":[{"name":"ccRewards","type":"uint256","internalType":"uint256"},{"name":"dealStakerRewards","type":"uint256","internalType":"uint256"}]}],"stateMutability":"view"},{"type":"function","name":"withdrawCollateral","inputs":[{"name":"commitmentId","type":"bytes32","internalType":"bytes32"}],"outputs":[],"stateMutability":"nonpayable"},{"type":"function","name":"withdrawReward","inputs":[{"name":"commitmentId","type":"bytes32","internalType":"bytes32"}],"outputs":[],"stateMutability":"nonpayable"},{"type":"function","name":"withdrawnRewards","inputs":[{"name":"commitmentId","type":"bytes32","internalType":"bytes32"}],"outputs":[{"name":"","type":"tuple","internalType":"struct ICapacity.CCRewardsView","components":[{"name":"ccRewards","type":"uint256","internalType":"uint256"},{"name":"dealStakerRewards","type":"uint256","internalType":"uint256"}]}],"stateMutability":"view"},{"type":"event","name":"CollateralDeposited","inputs":[{"name":"commitmentId","type":"bytes32","indexed":true,"internalType":"bytes32"},{"name":"totalCollateral","type":"uint256","indexed":false,"internalType":"uint256"}],"anonymous":false},{"type":"event","name":"CollateralWithdrawn","inputs":[{"name":"commitmentId","type":"bytes32","indexed":false,"internalType":"bytes32"},{"name":"amountWithdrawn","type":"uint256","indexed":false,"internalType":"uint256"},{"name":"amountSlashed","type":"uint256","indexed":false,"internalType":"uint256"}],"anonymous":false},{"type":"event","name":"CommitmentActivated","inputs":[{"name":"peerId","type":"bytes32","indexed":true,"internalType":"bytes32"},{"name":"commitmentId","type":"bytes32","indexed":true,"internalType":"bytes32"},{"name":"startEpoch","type":"uint256","indexed":false,"internalType":"uint256"},{"name":"endEpoch","type":"uint256","indexed":false,"internalType":"uint256"},{"name":"unitIds","type":"bytes32[]","indexed":false,"internalType":"bytes32[]"}],"anonymous":false},{"type":"event","name":"CommitmentCreated","inputs":[{"name":"peerId","type":"bytes32","indexed":true,"internalType":"bytes32"},{"name":"commitmentId","type":"bytes32","indexed":false,"internalType":"bytes32"},{"name":"duration","type":"uint256","indexed":false,"internalType":"uint256"},{"name":"delegator","type":"address","indexed":false,"internalType":"address"},{"name":"rewardDelegationRate","type":"uint256","indexed":false,"internalType":"uint256"},{"name":"fltCollateralPerUnit","type":"uint256","indexed":false,"internalType":"uint256"}],"anonymous":false},{"type":"event","name":"CommitmentFailed","inputs":[{"name":"commitmentId","type":"bytes32","indexed":true,"internalType":"bytes32"},{"name":"failedEpoch","type":"uint256","indexed":false,"internalType":"uint256"}],"anonymous":false},{"type":"event","name":"CommitmentFinished","inputs":[{"name":"commitmentId","type":"bytes32","indexed":true,"internalType":"bytes32"}],"anonymous":false},{"type":"event","name":"CommitmentRemoved","inputs":[{"name":"commitmentId","type":"bytes32","indexed":true,"internalType":"bytes32"}],"anonymous":false},{"type":"event","name":"CommitmentStatsUpdated","inputs":[{"name":"commitmentId","type":"bytes32","indexed":false,"internalType":"bytes32"},{"name":"totalFailCount","type":"uint256","indexed":false,"internalType":"uint256"},{"name":"exitedUnitCount","type":"uint256","indexed":false,"internalType":"uint256"},{"name":"activeUnitCount","type":"uint256","indexed":false,"internalType":"uint256"},{"name":"nextAdditionalActiveUnitCount","type":"uint256","indexed":false,"internalType":"uint256"},{"name":"changedEpoch","type":"uint256","indexed":false,"internalType":"uint256"}],"anonymous":false},{"type":"event","name":"ProofSubmitted","inputs":[{"name":"commitmentId","type":"bytes32","indexed":true,"internalType":"bytes32"},{"name":"unitId","type":"bytes32","indexed":true,"internalType":"bytes32"},{"name":"localUnitNonce","type":"bytes32","indexed":false,"internalType":"bytes32"}],"anonymous":false},{"type":"event","name":"RewardWithdrawn","inputs":[{"name":"commitmentId","type":"bytes32","indexed":true,"internalType":"bytes32"},{"name":"ccRewardsAmount","type":"uint256","indexed":false,"internalType":"uint256"},{"name":"dealStakerRewardsAmount","type":"uint256","indexed":false,"internalType":"uint256"}],"anonymous":false},{"type":"event","name":"StateUpdated","inputs":[{"name":"commitmentId","type":"bytes32","indexed":true,"internalType":"bytes32"},{"name":"state","type":"tuple","indexed":false,"internalType":"struct DealStakerRewards.VestingState","components":[{"name":"items","type":"uint256[]","internalType":"uint256[]"},{"name":"accumulatedUnlockedFlt","type":"uint256","internalType":"uint256"}]}],"anonymous":false},{"type":"event","name":"UnitActivated","inputs":[{"name":"commitmentId","type":"bytes32","indexed":true,"internalType":"bytes32"},{"name":"unitId","type":"bytes32","indexed":true,"internalType":"bytes32"},{"name":"startEpoch","type":"uint256","indexed":false,"internalType":"uint256"}],"anonymous":false},{"type":"event","name":"UnitDeactivated","inputs":[{"name":"commitmentId","type":"bytes32","indexed":true,"internalType":"bytes32"},{"name":"unitId","type":"bytes32","indexed":true,"internalType":"bytes32"}],"anonymous":false},{"type":"event","name":"VestingScheduleItem","inputs":[{"name":"commitmentId","type":"bytes32","indexed":true,"internalType":"bytes32"},{"name":"id","type":"uint256","indexed":true,"internalType":"uint256"},{"name":"epoch","type":"uint256","indexed":true,"internalType":"uint256"},{"name":"cumulativeAmount","type":"uint256","indexed":false,"internalType":"uint256"}],"anonymous":false},{"type":"event","name":"VestingUpdateItem","inputs":[{"name":"commitmentId","type":"bytes32","indexed":true,"internalType":"bytes32"},{"name":"id","type":"uint256","indexed":true,"internalType":"uint256"},{"name":"cumulativeAmount","type":"uint256","indexed":false,"internalType":"uint256"}],"anonymous":false},{"type":"error","name":"CapacityCommitmentIsNotActive","inputs":[{"name":"status","type":"uint8","internalType":"enum ICapacity.CCStatus"}]},{"type":"error","name":"InvalidCCStatus","inputs":[{"name":"status","type":"uint8","internalType":"enum ICapacity.CCStatus"}]},{"type":"error","name":"ReentrancyGuardReentrantCall","inputs":[]},{"type":"error","name":"SafeERC20FailedOperation","inputs":[{"name":"token","type":"address","internalType":"address"}]}],"bytecode":{"object":"0x60808060405234601557614e48908161001a8239f35b5f80fdfe60a06040526004361015610011575f80fd5b5f803560e01c8063243d382714611cfa5780633d08179014611c745780633d5f526c146119ea578063474b5809146115d85780634ece56851461154b5780635de28ae01461151e5780635e42b455146114f557806364b75e311461147a5780637795820c146113d057806377fc1b6a1461139c578063886f0e8714610ca057806388af96c414610c3e5780638c3e717a14610b3b5780638e7af1d11461086f57806392163b4b1461084c578063c9b824c21461075f578063d3cde3441461051b578063d6a1c7f814610329578063de644849146102f95763ea03ef52146100f6575f80fd5b346102f65760203660031901126102f65760043561011261303e565b5f80516020614d3383398151915281835260205260408220610132612e04565b6101456006830154600384015490612064565b60018301549161015483612f32565b9161017661016e61016487613198565b928486858a613275565b91868861352b565b6006811015806102e257811515806102d5575b6102bd576102a9576040929160046101ab921490811591610282575b50612af7565b01918251600d82015403610224576101ed928492600560ff1984541617835586525f80516020614a738339815191526020528560016040822001555190613dd5565b7f9e2d7a240cc27393d69de7eebd70ec786ebc4d7a123669543c02276b488118dc8280a2805f80516020614d738339815191525d80f35b60405162461bcd60e51b815260206004820152603060248201527f466f722066696e69736820636f6d6d69746d656e7420616c6c20756e6974732060448201526f1cda1bdd5b1908189948195e1a5d195960821b6064820152608490fd5b90506102a1600c8701545f80516020614b738339815191525490612064565b11155f6101a5565b634e487b7160e01b87526021600452602487fd5b63b16acd3f60e01b88526024886102d384611d7a565bfd5b50505f6004821415610189565b634e487b7160e01b88526021600452602488fd5b80fd5b50346102f65760203660031901126102f657610325610319600435612bc3565b60405191829182611d34565b0390f35b50346102f65760203660031901126102f6576004358082525f80516020614d33833981519152602081905260408320600101546103826001600160a01b0361037961037384612f32565b51613073565b51163314612a56565b61038b83612eaf565b60068110156105075760026103a09114611fdc565b83525f80516020614a73833981519152602052826001604082200155818352602052604082208281555f60018201555f60028201555f60038201555f60048201558260058201555f60068201555f60078201555f60088201555f60098201555f600a8201555f600b8201555f600c8201555f600d8201555f600e82015582600f8201555f601082015560118101805490848155816104bc575b50505f60148201555f60158201555f60178201555f6001601883018281550155601a81018054905f81558161049e575b5050601c5f9182601b82015501557f159bd9560f82a1e39125a438288d0cfb97f2dd09bd7338cf55ef5e8c566cff448280a280f35b5f5260205f20908101905b81811015610469575f81556001016104a9565b6001600160ff1b03821682036104f3578452602084209060011b8101905b81811015610439575f80825560018201556002016104da565b634e487b7160e01b85526011600452602485fd5b634e487b7160e01b85526021600452602485fd5b50346102f65760203660031901126102f6576004359061053961303e565b5f80516020614d3383398151915291610550612e04565b92818352602052604082209061056f6006830154600384015490612064565b61057c6001840154612f32565b9060018060a01b0361058e8351613073565b511633148015610749575b156106c4576105bf6105b76105ad86613198565b9288858589613275565b91858561352b565b6006811015806106b057811515806106a3575b61068d576105075760406105f2926004859314610660575b015184613dd5565b600882015491600d81015490600b600a820154910154915f19870196871161064c57915f80516020614b93833981519152959691610636936040519687968761208f565b0390a1805f80516020614d738339815191525d80f35b634e487b7160e01b86526011600452602486fd5b610688610680600c8801545f80516020614b738339815191525490612064565b891015612af7565b6105ea565b63b16acd3f60e01b86526024866102d384611d7a565b50505f60048214156105d2565b634e487b7160e01b86526021600452602486fd5b60405162461bcd60e51b815260206004820152605160248201527f4f6e6c792070726f7669646572206f72207374616b65722063616e20696e697460448201527f6961746520636f6c6c61746572616c2077697468647261772066726f6d2063616064820152701c1858da5d1e4818dbdb5b5a5d1b595b9d607a1b608482015260a490fd5b5060058401546001600160a01b03163314610599565b50346102f65760203660031901126102f6575f80516020614d33833981519152610787612e04565b90600435835260205260408220906107a26001830154612fcd565b926107ad84516120b7565b916012829401935b85518110156107f557806107cb600192886120f6565b518452856020526003604085200183855260205260408420546107ee82876120f6565b52016107b5565b61080f868585604051938493604085526040850190611ecf565b8381036020850152602080845192838152019301915b818110610833575050500390f35b8251845285945060209384019390920191600101610825565b50346102f657806003193601126102f6576020610867612ab7565b604051908152f35b50346102f65760403660031901126102f657600435906024356001600160401b038111610b37576108a4903690600401611d4a565b90925f80516020614d33833981519152936108bd612e04565b9482855260205260408420906108dc6006830154600384015490612064565b9060018301546108eb81612f32565b9161090060018060a01b036103798551613073565b610916848a61090e88613198565b958689613275565b61092184878961352b565b6006811015610b235780151580610b18575b610b0257509287906013860193602060128801910191600d880199600e8901945b8181106109a6578d8d8d8d8d6008810154925490600b600a820154910154915f19870196871161064c57915f80516020614b938339815191529596916109a0936040519687968761208f565b0390a180f35b6109b181838b611fb8565b356109bb816138bd565b88602082015103610aa25760408f6109df60ff9360018060a01b039051161561210a565b8381528b602052205416610a64578e610a0e8f868f918086604092528a602052209360208b5101519285613974565b8d5460018101809111610a4f578f90928f600260409460019796610a36935501548b54612064565b8a5581528a602052208260ff1982541617905501610954565b50634e487b7160e01b8f52601160045260248ffd5b60405162461bcd60e51b815260206004820152601660248201527510dbdb5c1d5d19481d5b9a5d081a5cc8195e1a5d195960521b6044820152606490fd5b60405162461bcd60e51b815260206004820152603260248201527f436f6d7075746520756e697420646f65736e27742062656c6f6e6720746f2063604482015271185c1858da5d1e4818dbdb5b5a5d1b595b9d60721b6064820152608490fd5b886102d360249263b16acd3f60e01b8352611d7a565b506004811415610933565b634e487b7160e01b89526021600452602489fd5b5080fd5b50346102f65760203660031901126102f6575f80516020614d33833981519152600435825260205260408120610b746001820154612fcd565b91825190610b9a610b8483611e5b565b92610b926040519485611e38565b808452611e5b565b602083019390601f1901368537601301815b8551811015610be65780610bc2600192886120f6565b5184528260205260ff604085205416610bdb82876120f6565b901515905201610bac565b5050610c049392916020604051958695604087526040870190611ecf565b918583038287015251918281520192915b818110610c23575050500390f35b82511515845285945060209384019390920191600101610c15565b50346102f65760203660031901126102f657604061032591610c5e611fa0565b505f80516020614d338339815191526004358252602052206015601082015491015460405191610c8d83611d95565b8252602082015260405191829182611d34565b34611398576080366003190112611398576044356001600160a01b03811690600435602435838303611398576064359260ff7f1f364d5cd815a7922b0808e606a82391642c337151b3addb3f98eaf82cfb172e5416158015611363575b15611312575f80516020614d3383398151915293610d1a84612f32565b60208101516112cf5780516001600160a01b0390610d3790613073565b51163303611275577f8984d2d0d7a9f2f70f22692c7c8344aa50cbed8c00a03c924457a31793ee8fd35484106111f8577f8984d2d0d7a9f2f70f22692c7c8344aa50cbed8c00a03c924457a31793ee8fd454841161117d5760400180517f8984d2d0d7a9f2f70f22692c7c8344aa50cbed8c00a03c924457a31793ee8fd5541161110357517f8984d2d0d7a9f2f70f22692c7c8344aa50cbed8c00a03c924457a31793ee8fd6541061108b57801561104157629896808111610ff6577f8984d2d0d7a9f2f70f22692c7c8344aa50cbed8c00a03c924457a31793ee8fd85491604051602081019143835286604083015285606083015260018060601b03199060601b16608082015282609482015260948152610e5460b482611e38565b51902094855f5260205260405f2095604051610e6f81611db0565b60028082526020820187905260408201859052606082018690526080820184905260a082018390525f60c0909201829052885460ff19168117895560018901879055880184905560038801859055600488018390556005880180546001600160a01b0319166001600160a01b0384161790556006880155601a610f30610f25610ef6612e04565b5f80516020614af3833981519152545f80516020614c938339815191525491601c8d01558a60148d0155612044565b8060198b01556120b7565b805191909801976001600160401b038211610fe257602090610f52838b612b83565b01975f5260205f20975f5b828110610fce57602089897f2764696d7b2884dde865501f6b61168dcd00f8bed537f0aca4a1f583341a4c6560a08b8b8b8b865f525f80516020614a73833981519152895287600160405f2001556040519388855289850152604084015260608301526080820152a2604051908152f35b60019060208351930192818c015501610f5d565b634e487b7160e01b5f52604160045260245ffd5b60405162461bcd60e51b815260206004820152603060248201525f80516020614c3383398151915260448201526f206c657373206f7220657175616c203160801b6064820152608490fd5b60405162461bcd60e51b815260206004820152602f60248201525f80516020614c3383398151915260448201526e02067726561746572207468616e203608c1b6064820152608490fd5b60405162461bcd60e51b815260206004820152605760248201525f80516020614b1383398151915260448201527f65206c6f776572206f7220657175616c207468616e206d6178206e756d626572606482015276081bd9881d5b9a5d1cc81a5b8818dbdb5b5a5d1b595b9d604a1b608482015260a490fd5b60405162461bcd60e51b815260206004820152605960248201525f80516020614b1383398151915260448201527f652067726561746572206f7220657175616c207468616e206d696e206e756d62606482015278195c881bd9881d5b9a5d1cc81a5b8818dbdb5b5a5d1b595b9d603a1b608482015260a490fd5b60405162461bcd60e51b815260206004820152604760248201527f4475726174696f6e2073686f756c64206265206c6f776572206f72206571756160448201527f6c207468616e206d617820636170616369747920636f6d6d69746d656e7420646064820152663ab930ba34b7b760c91b608482015260a490fd5b60405162461bcd60e51b815260206004820152604960248201527f4475726174696f6e2073686f756c642062652067726561746572206f7220657160448201527f75616c207468616e206d696e20636170616369747920636f6d6d69746d656e7460648201526810323ab930ba34b7b760b91b608482015260a490fd5b60405162461bcd60e51b815260206004820152602c60248201527f4f6e6c792070726f76696465722063616e20637265617465206361706163697460448201526b1e4818dbdb5b5a5d1b595b9d60a21b6064820152608490fd5b60405162461bcd60e51b815260206004820152601b60248201527a1419595c88185b1c9958591e481a185cc818dbdb5b5a5d1b595b9d602a1b6044820152606490fd5b60405162461bcd60e51b815260206004820152602360248201527f57686974656c6973743a2070726f7669646572206973206e6f7420617070726f6044820152621d995960ea1b6064820152608490fd5b50335f527f1f364d5cd815a7922b0808e606a82391642c337151b3addb3f98eaf82cfb172f60205260ff60405f205416610cfd565b5f80fd5b5f366003190112611398576113bf345f80516020614db383398151915254612064565b5f80516020614db383398151915255005b34611398576020366003190112611398576113e96129ec565b506101606113f8600435612d07565b6101406040519161140a838251611d88565b6020810151602084015260408101516040840152606081015160608401526080810151608084015260a081015160a084015260c081015160c084015260018060a01b0360e08201511660e08401526101008101516101008401526101208101516101208401520151610140820152f35b34611398576060366003190112611398576004356001600160401b038111611398576114aa903690600401611e72565b6024356001600160401b038111611398576114c9903690600401611e72565b60443591906001600160401b038311611398576114ed6114f3933690600401611e72565b9161218e565b005b34611398575f3660031901126113985760205f80516020614db383398151915254604051908152f35b3461139857602036600319011261139857602061153c600435612eaf565b6115496040518092611d88565bf35b34611398576060366003190112611398576114f36040805161156d8282611e38565b60018152601f198201908136602083013782519161158b8484611e38565b60018352803660208501376115a284519485611e38565b600184523660208501376004356115b8826120e9565b526024356115c5836120e9565b526044356115d2846120e9565b5261218e565b34611398576020366003190112611398576004356115f461303e565b5f80516020614d3383398151915261160a612e04565b90825f5260205260405f20906116236001830154612f32565b80516001600160a01b039061163790613073565b5116331480156119d4575b156119785760208061165385613198565b6116726116696006880154600389015490612064565b8686848a613275565b5061167e81878961352b565b0151015180611970575b50516001600160a01b039061169c90613073565b51166116ab8260108501613748565b9060148401916116bb8484613ff6565b80518051601a880192916001600160401b038211610fe2576020906116e08386612b83565b01835f5260205f205f5b83811061195c575050505061174860207f8b5d520ecd83f8a909da38eaeb49b5c1fb3d8d69e22e2b36ec0f5814b5c4aa439201519586601b8a015587601c8a0155549260405191829160208352604060208401526060830190613fbf565b8760408301520390a26015850161176b61176482548096612057565b8095612064565b90556117778382612064565b905f80516020614db3833981519152548083116118db57821561188b576117f4926117a191612057565b5f80516020614db3833981519152556117d86117d0629896806117c860048a015485612044565b048093612057565b948592612064565b926117ef8460018060a01b0360058a01541661378e565b61378e565b6008840154600d850154600b600a870154960154915f198601958611611877576118576040965f80516020614b93833981519152947fc512f9d0bb2627096491f1074af42a5032fe36ef5dcae7c216cfc34f6ea474d69989519586958d8761208f565b0390a182519182526020820152a25f5f80516020614d738339815191525d005b634e487b7160e01b5f52601160045260245ffd5b60405162461bcd60e51b815260206004820152602260248201527f4e6f207265776172647320617661696c61626c6520666f7220776974686472616044820152613b9760f11b6064820152608490fd5b60405162461bcd60e51b815260206004820152604d60248201527f4e6f7420656e6f756768207265776172642062616c616e636520706f6f6c206f60448201527f6e2074686520636f6e74726163742e2057616974207768656e2044414f20776960648201526c3636103932b334b6361034ba1760991b608482015260a490fd5b6001906020845194019381840155016116ea565b915084611688565b60405162461bcd60e51b815260206004820152602e60248201527f4f6e6c792070726f7669646572206f722064656c656761746f722063616e207760448201526d1a5d1a191c985dc81c995dd85c9960921b6064820152608490fd5b5060058301546001600160a01b03163314611642565b6020366003190112611398576004356001600160401b03811161139857611a15903690600401611d4a565b905f80516020614d3383398151915234925f5b818110611a6d5784611a3657005b60405162461bcd60e51b815260206004820152600f60248201526e4578636573736976652076616c756560881b6044820152606490fd5b611a78818386611fb8565b3590815f528360205260405f2091611a8f81612eaf565b6006811015611c60576002611aa49114611fdc565b60018301546040611ab482612f32565b015197611acf611ac860028701548b612044565b8092612057565b98611ad8612e04565b6005870180546001600160a01b031680611c08575080546001600160a01b031916331790555b60018101918282116118775787867fd752175fe73028b933ce110fbf0ff2e6e254cd0384b5773960fe1114e29bdda660207f0b0a4688a90d1b24732d05ddf4925af69f02cd7d9a921b1cdcd4a7c2b6d57d6897611bbb600396611bd49860019f60068c910155600988015580600a880155611b955f80516020614bf3833981519152915f80516020614bb383398151915254612064565b9050805f80516020614bb3833981519152555f80516020614b3383398151915254614210565b845460ff19168d178555604051908152a2015482612064565b90611bff611be185612fcd565b60405193849384526020840152606060408401526060830190611ecf565b0390a301611a28565b90503314611afe5760405162461bcd60e51b815260206004820152602260248201527f4f6e6c792064656c656761746f722063616e206c6f636b20636f6c6c61746572604482015261185b60f21b6064820152608490fd5b634e487b7160e01b5f52602160045260245ffd5b3461139857602036600319011261139857610325600435611c93611fa0565b505f80516020614d33833981519152815f52602052610120611cb860405f2092612d07565b01805115611ce957611cdc90515b6014611cd58260108601612e5b565b9301612e93565b60405191610c8d83611d95565b50611cdc611cf5612e04565b611cc6565b34611398576020366003190112611398576060611d18600435611f02565b6040805191805183526020810151602084015201516040820152f35b9190916020806040830194805184520151910152565b9181601f84011215611398578235916001600160401b038311611398576020808501948460051b01011161139857565b6006811015611c6057600452565b906006821015611c605752565b604081019081106001600160401b03821117610fe257604052565b60e081019081106001600160401b03821117610fe257604052565b606081019081106001600160401b03821117610fe257604052565b61016081019081106001600160401b03821117610fe257604052565b608081019081106001600160401b03821117610fe257604052565b60c081019081106001600160401b03821117610fe257604052565b601f909101601f19168101906001600160401b03821190821017610fe257604052565b6001600160401b038111610fe25760051b60200190565b9080601f83011215611398578135611e8981611e5b565b92611e976040519485611e38565b81845260208085019260051b82010192831161139857602001905b828210611ebf5750505090565b8135815260209182019101611eb2565b90602080835192838152019201905f5b818110611eec5750505090565b8251845260209384019390920191600101611edf565b604051611f0e81611dcb565b5f81525f60208201525f6040820152505f525f80516020614cd383398151915260205260405f2080549081611f7a5750505f80516020614cf3833981519152545f80516020614c138339815191525460405191611f6a83611dcb565b825260208201525f604082015290565b60029060405192611f8a84611dcb565b8352600181015460208401520154604082015290565b60405190611fad82611d95565b5f6020838281520152565b9190811015611fc85760051b0190565b634e487b7160e01b5f52603260045260245ffd5b15611fe357565b60405162461bcd60e51b815260206004820152603360248201527f436170616369747920636f6d6d69746d656e74206973206e6f7420696e205761604482015272697444656c65676174696f6e2073746174757360681b6064820152608490fd5b8181029291811591840414171561187757565b9190820391821161187757565b9190820180921161187757565b811561207b570490565b634e487b7160e01b5f52601260045260245ffd5b9260a094919796959260c0850198855260208501526040840152606083015260808201520152565b906120c182611e5b565b6120ce6040519182611e38565b82815280926120df601f1991611e5b565b0190602036910137565b805115611fc85760200190565b8051821015611fc85760209160051b010190565b1561211157565b60405162461bcd60e51b815260206004820152601760248201527610dbdb5c1d5d19481d5b9a5d081a5cc81a5b881919585b604a1b6044820152606490fd5b3d15612189573d906001600160401b038211610fe2576040519161217e601f8201601f191660200184611e38565b82523d5f602084013e565b606090565b909291928151156129b557815181510361297257815184510361292e575f80516020614d338339815191526121c1612e04565b6080526080515f80516020614d5383398151915254036128f9575b918051926121e9846120b7565b915f915f194301926080515f196080510111905b87811061246c5750505050505f9182916122676122755f80516020614bf383398151915260018060a01b03905416936040519283916122556020840196631cd7b9d760e31b8852604060248601526064850190611ecf565b83810360231901604485015290611ecf565b03601f198101835282611e38565b51915af4612281612150565b901561242d578051156123d9578051810190602081818401930312611398576020810151906001600160401b03821161139857019080603f830112156113985760208201516122cf81611e5b565b926122dd6040519485611e38565b8184526020808086019360051b8301010192831161139857604001905b8282106123c9575050508181510361238c575f5b82811061231c575050509050565b61232681866120f6565b5061233181836120f6565b5161233a613d5b565b106123475760010161230e565b60405162461bcd60e51b815260206004820152601f60248201527f50726f6f6620697320626967676572207468616e20646966666963756c7479006044820152606490fd5b60405162461bcd60e51b8152602060048201526015602482015274092dcecc2d8d2c840e4cae6ead8e840d8cadccee8d605b1b6044820152606490fd5b81518152602091820191016122fa565b60405162461bcd60e51b815260206004820152602660248201527f52616e646f6d5850726f78792e72756e2072657475726e656420656d707479206044820152651c995cdd5b1d60d21b6064820152608490fd5b60405162461bcd60e51b815260206004820152601760248201527614985b991bdb56141c9bde1e4b9c9d5b8819985a5b1959604a1b6044820152606490fd5b61247681856120f6565b519061248281896120f6565b519161248e828d6120f6565b516124a4602061249d846138bd565b0151612f32565b933360018060a01b03606087015116036128a357602085015191821561285257825f528760205260405f209560068701548060805110612802578c928791875f5260128a0160205261250d60405f209161250260ff8454161561210a565b60038c015490612064565b9461254a5f80516020614dd383398151915254604051602081019182528b60408201526040815261253f606082611e38565b5190209485926120f6565b5260038101946080515f528560205260405f205494600186018611611877575f80516020614c138339815191525460018701116127ef5761259a828d61258f81613198565b938460805192613275565b6006811015611c6057600181036127d8575090602080836125c18f956125d097968e61352b565b01510151918960805191613974565b5f80516020614dd383398151915254908d4310611877578d90604051916020830193845240604083015288606083015286608083015260a082015260a0815261261a60c082611e38565b5190205f80516020614ab383398151915255805f525f80516020614a9383398151915260205260405f20845f5260205260ff60405f205416612782575f525f80516020614a9383398151915260205260405f20835f5260205260405f20600160ff1982541617905561268d608051613d0e565b9182548060018401145f14612750575060078801805493600185018095116118775760019460029255016126c48484018254612064565b90555b6080515f526020520160405f205585600886015491600d87015492600b600a89015498015492611877576001977f32c9117442431c0bcfdbbef33bc9918d148ad082e0f38d70bbde857f01d225c89461273f5f80516020614b93833981519152936020966040519485945f1960805101938c8761208f565b0390a1604051908152a35b016121fd565b6001839492940111612766575b506001916126c7565b600201805492905f19841461187757600180940190559161275d565b60405162461bcd60e51b815260206004820152602860248201527f50726f6f6620697320616c7265616479207375626d697474656420666f7220746044820152671a1a5cc81d5b9a5d60c21b6064820152608490fd5b6242963960e51b5f526127ea90611d7a565b60245ffd5b505050505050505050506001915061274a565b60405162461bcd60e51b815260206004820152602260248201527f436170616369747920636f6d6d69746d656e74206973206e6f74207374617274604482015261195960f21b6064820152608490fd5b60405162461bcd60e51b8152602060048201526024808201527f436f6d7075746520756e697420646f65736e2774206861766520636f6d6d69746044820152631b595b9d60e21b6064820152608490fd5b60405162461bcd60e51b815260206004820152602860248201527f4f6e6c7920636f6d707574652070656572206f776e65722063616e207375626d60448201526734ba10383937b7b360c11b6064820152608490fd5b6080515f80516020614d53833981519152555f80516020614ab3833981519152545f80516020614dd3833981519152556121dc565b60405162461bcd60e51b815260206004820152601c60248201527b24b73b30b634b2103932b9bab63a103430b9b432b990373ab6b132b960211b6044820152606490fd5b60405162461bcd60e51b815260206004820152601b60248201527a24b73b30b634b2103637b1b0b6103737b731b2b990373ab6b132b960291b6044820152606490fd5b60405162461bcd60e51b815260206004820152600f60248201526e273790383937b7b3399033b4bb32b760891b6044820152606490fd5b604051906129f982611de6565b5f610140838281528260208201528260408201528260608201528260808201528260a08201528260c08201528260e082015282610100820152826101208201520152565b6006821015611c605752565b516006811015611c605790565b15612a5d57565b60405162461bcd60e51b815260206004820152602c60248201527f4f6e6c792070726f76696465722063616e2072656d6f7665206361706163697460448201526b1e4818dbdb5b5a5d1b595b9d60a21b6064820152608490fd5b612abf612e04565b5f80516020614d538339815191525403612ae5575f80516020614dd38339815191525490565b5f80516020614ab38339815191525490565b15612afe57565b60405162461bcd60e51b815260206004820152605160248201527f436170616369747920636f6d6d69746d656e74206973206661696c656420616e60448201527f64206e6f7420656e6f7567682065706f6368732070617373656420746f2077696064820152701d1a191c985dc818dbdb1b185d195c985b607a1b608482015260a490fd5b90600160401b8111610fe257815491818155828210612ba157505050565b5f5260205f2091820191015b818110612bb8575050565b5f8155600101612bad565b604051612bcf81611d95565b5f81525f6020820152505f80516020614d33833981519152815f52602052610120612bfd60405f2092612d07565b01805190919015612c3c57612c25906014612c1c845160108401612e5b565b93519101612e93565b60405191612c3283611d95565b8252602082015290565b9050612c46612e04565b90612c60612c5660108301613eea565b9260148301613ff6565b5f905f60198401545b808210612c8f575050612c86612c25939260206015930151612064565b91015490612057565b9092612ca9600191612ca28686516120f6565b5190612064565b930190612c69565b15612cb857565b60405162461bcd60e51b815260206004820152602160248201527f436170616369747920636f6d6d69746d656e7420646f65736e277420657869736044820152601d60fa1b6064820152608490fd5b612d0f6129ec565b505f80516020614d33833981519152905f5260205260405f206001810154612d38811515612cb1565b612d40612e04565b91600681015492600382015490612d578286612064565b91612d77612d6486612f32565b93612d6e86613198565b93858588613275565b95612d8c604060028701549501519282612064565b90600486015492602060018060a01b0360058901541695015195600d6020604089015198015198015498612dcc6040519b612dc68d611de6565b8c612a3d565b60208b015260408a01526060890152608088015260a087015260c086015260e085015261010084015261012083015261014082015290565b612e34612e1f5f80516020614df38339815191525442612057565b5f80516020614c738339815191525490612071565b600101806001116118775790565b8054821015611fc8575f5260205f209060011b01905f90565b90612e669082613f18565b905f8212612e8d576001612e7f612e8a93828401612e42565b500154905490612057565b90565b50505f90565b60016020612ea4612e8a9484613ff6565b015191015490612057565b5f80516020614d33833981519152905f52602052612e8a60405f20612ee26001820154612edd811515612cb1565b612f32565b612eeb82613198565b90612ef4612e04565b91612f086006850154600386015490612064565b93613275565b60405190612f1b82611e02565b5f6060838281528260208201528260408201520152565b612f3a612f0e565b505f525f80516020614a7383398151915260205260405f208054908115612f935760405191612f6883611e02565b82526001810154602083015260028101546040830152600301546001600160a01b0316606082015290565b60405162461bcd60e51b81526020600482015260126024820152711419595c88191bd95cdb89dd08195e1a5cdd60721b6044820152606490fd5b5f527f88681cafafd55573d275926fd208ef2ba36c6dd5169e88841d4bc9bcd225302460205260405f20604051808260208294549384815201905f5260205f20925f5b818110613025575050612e8a92500382611e38565b8454835260019485019486945060209093019201613010565b5f80516020614d738339815191525c6130645760015f80516020614d738339815191525d565b633ee5aeb560e01b5f5260045ffd5b5f60a060405161308281611e1d565b82815282602082015282604082015282606082015282608082015201525f527f88681cafafd55573d275926fd208ef2ba36c6dd5169e88841d4bc9bcd225302060205260405f2060018060a01b0381541690811561312757600590604051926130ea84611e1d565b83526001810154602084015260028101546001600160a01b031660408401526003810154606084015260048101546080840152015460a082015290565b60405162461bcd60e51b815260206004820152601360248201527213d999995c88191bd95cdb89dd08195e1a5cdd606a1b6044820152606490fd5b6040519061316f82611db0565b5f60c0838281528260208201528260408201528260608201528260808201528260a08201520152565b906040516131a581611d95565b6131ad613162565b815260c08060208301926131bf613162565b8452600781966131d460ff8254168451612a3d565b600c8101546020845101526008810154604084510152600a810154606084510152600b810154608084510152600981015460a0845101520154828251015261322661321f8251612a49565b8551612a3d565b60208151015160208551015260408151015160408551015260608151015160608551015260808151015160808551015260a08151015160a08551015251015191510152565b811561207b570690565b9192939060200192835151916006831015611c605760a085510151925f198701968088116118775760068896015480155f146132b957505050505050505050600290565b1161351f5760018114801590613515575b61350b57506001955f19820191821161187757811115613500575b507f8984d2d0d7a9f2f70f22692c7c8344aa50cbed8c00a03c924457a31793ee8fdb54845192606084015192608085015160408601519560c087910151945f938688116134e4575b6040015161333a91612044565b946133608361335b61334c888d612057565b613356838c612064565b612044565b612057565b8082106134c7575b5050848710156133e8575b5050505050506040835101528151608081015190816133c9575b50506006831015611c60575f9160c091600185036133b2575b60a08251015251015290565b836060835101526133c4858351612a3d565b6133a6565b60606133d89101918251612064565b90525f6080835101525f8061338d565b9092949850836133fb9294965095612057565b60049790929083821061343c575050505060018101809111613429576020845101525b5f8080808080613373565b601185634e487b7160e01b5f525260245ffd5b61344f9261344991612064565b92612057565b9061345a8183612071565b8060010191826001116134b45761347290839461326b565b61348d575b505061348291612064565b60208451015261341e565b600201915081106134a1576134825f613477565b601186634e487b7160e01b5f525260245ffd5b601189634e487b7160e01b5f525260245ffd5b6134dc9298916134d691612057565b90612064565b955f80613368565b935061333a9060406134f6888a612057565b959192505061332d565b5f95509250846132e5565b9550505050505090565b50838711156132ca565b50505050505050600390565b916135368151612a49565b9260208201936135468551612a49565b906006821015611c60576006811015611c605703613668575b5061356a8151612a49565b6135748451612a49565b906006821015611c60576006811015611c605703613641575b60c080915160208101519451946020860151809103613636575b506040810151604086015180910361362b575b5060608101516060860151809103613620575b5060808101516080860151809103613615575b5060a081015160a086015180910361360a575b500151920151809203613604575050565b60070155565b60098501555f6135f3565b600b8501555f6135e0565b600a8501555f6135cd565b60088501555f6135ba565b600c8501555f6135a7565b61364b8351612a49565b6006811015611c6057825460ff191660ff9190911617825561358d565b61367d82516080606082015191015190612064565b906136888551612a49565b6006811015611c60576004036136f857906136f2917f1ec6d9e2b340c6cc9d5b6690a2d2a1558f252aa30668b45dbdb83bb7728984f260208088510151604051908152a2611b955f80516020614bf3833981519152915f80516020614bb383398151915254612057565b5f61355f565b506137038451612a49565b6006811015611c605715613718575b506136f2565b61374290611b955f80516020614bf3833981519152915f80516020614bb383398151915254612057565b5f613712565b91906137549083613f18565b915f83126137885761378461377d613770600195868501612e42565b5083549586910154612057565b8094612064565b9055565b505f9150565b6001600160a01b03165f80808085856185fcf16137a9612150565b50156137b3575050565b5f8080808560018060a01b035f80516020614cb383398151915254165af16137d9612150565b501561386a575f60209160018060a01b035f80516020614cb3833981519152541693604051908482019263a9059cbb60e01b84526024830152604482015260448152613826606482611e38565b519082855af11561385f575f513d6138565750803b155b6138445750565b635274afe760e01b5f5260045260245ffd5b6001141561383d565b6040513d5f823e3d90fd5b60405162461bcd60e51b815260206004820152602560248201527f4c696253656e6456616c75653a206661696c6564207772617020464c5420746f6044820152640815d1931560da1b6064820152608490fd5b6138c5612f0e565b505f527f88681cafafd55573d275926fd208ef2ba36c6dd5169e88841d4bc9bcd225302260205260405f206001810154908115613932576003906040519261390c84611e02565b81546001600160a01b031684526020840152600281015460408401520154606082015290565b60405162461bcd60e51b815260206004820152601a60248201527910dbdb5c1d5d19481d5b9a5d08191bd95cdb89dd08195e1a5cdd60321b6044820152606490fd5b92939190915f80516020614d33833981519152835f5260205260405f20945f198301928311611877578260ff865416613ccc575f198201918211611877578110613d06575b5080151580613cfd575b613cf5575b5060018301928354938415613cdd575b84831115613cd557829055815f525f80516020614cd3833981519152602052600184018094116118775760030193835f528460205260405f2054845f525f80516020614cd383398151915260205260405f2080548210613ccc57600201548015613ccc57613a4c613a519261335688614410565b612071565b9283613a69575b505050505f526020525f6040812055565b5f80516020614af383398151915254915f80516020614c9383398151915254936010613abf6011840193613ab6613aa28987549b612071565b946134d6613ab08a8361326b565b8a612057565b92839101613f18565b945f19861480613cc3575b613c64575f925f87121580613c50575b613c2f575b5f965b888810613af457505050505050613a58565b6001880180891161187757613b099083612044565b945f82121580613c26575b15613b805750613b778180897f86c93961d1a070b7b56fd1214cf06ccc18a89a3869681be8b74533f85ddc82606020613b6b8b6001613b558f9a829b612e42565b5001613b6381549e8f612064565b90558c612064565b604051908152a36144c4565b975b0196613ae2565b949097613b96613b908286612044565b86612064565b613ba08388612064565b60405190613bad82611d95565b8282526020820152885490600160401b821015610fe257613bd7826001613bdd94018c558b612e42565b906141e7565b87545f19810190811161187757897fd2337a844680345b0a7ba3392e6ddbbf8ff6e72cc99a633764c322c920576b7a6020613c1a6001978c612064565b604051908152a4613b79565b508a8212613b14565b959250613c4a6001613c418587612e42565b500154936144c4565b95613adf565b5082613c5c8887612e42565b505410613ada565b60405162461bcd60e51b815260206004820152603160248201527f56657374696e673a20737461727445706f63682069732062656c6f77207468616044820152706e20616c6c207365656e2065706f63687360781b6064820152608490fd5b50871515613aca565b50505050505050565b505050505050565b935060068501545f19810190811161187757936139d8565b90505f6139c8565b508082116139c3565b91505f6139b9565b5f525f80516020614cd383398151915260205260405f20908154613d59575f80516020614cf38339815191525482555f80516020614c138339815191525460018301555f6002830155565b565b613d63612e04565b7f8984d2d0d7a9f2f70f22692c7c8344aa50cbed8c00a03c924457a31793ee8fe0541115613db0577f8984d2d0d7a9f2f70f22692c7c8344aa50cbed8c00a03c924457a31793ee8fde5490565b7f8984d2d0d7a9f2f70f22692c7c8344aa50cbed8c00a03c924457a31793ee8fdf5490565b9091600f82019283549260ff8416613ee3577fed936607000ae116b16994b38bb5f5f4651eab9f6487adedf146d92388bb7c6f94600160609560ff191617905562989680613e6e613e4660018060a01b03600585015416946008613e3e60028701549283612044565b950154612044565b7f8984d2d0d7a9f2f70f22692c7c8344aa50cbed8c00a03c924457a31793ee8fd95490612044565b0480821015613ecd5750613e845f80929361378e565b7fc8fcad8db84d3cc18b4c41d551ea0ee66dd599cde068d998e57d5e09332c132054613eba9083906001600160a01b031661378e565b60405192835260208301526040820152a1565b90613edb82613e8492612057565b80929361378e565b5050505050565b600181019081548015613f11575f19810190811161187757612e7f600191612e8a94612e42565b5050505f90565b60010180545f199392908015613fba575f905f19810190811161187757929190925b80841115613f485750505050565b90919294613f568287612064565b60011c95613f648786612e42565b505480851115613f86575050508460018101809111611877575b929190613f3a565b919690925090831015613fb35780613fa257505f199450505050565b5f1981019081116118775790613f7e565b9450505050565b505050565b90602082549182815201915f5260205f20905f5b818110613fe05750505090565b8254845260209093019260019283019201613fd3565b9060405161400381611d95565b606081525f6020820152506040519161401b83611d95565b6040516140368161402f8160068601613fbf565b0382611e38565b8352600781015491602084019283526008820154908181146141e05761405c8282612057565b91815f19810111611877576140c7916140bd916140795f916145b7565b5f80516020614c538339815191525f80516020614b5383398151915254918281116141cc575b50805483106141c1575b5061335b6140b792936145b7565b906145ed565b6003840154612044565b91670de0b6b3a7640000830292808404670de0b6b3a76400001490151715611877576141056005655af3107a400061410e95049201548092846144d8565b93908551612064565b84525f5b81811061412157505050505090565b8083600192106141a4575b826141378583612064565b101561419257614152875161414c8684612064565b906120f6565b5161415e8289516120f6565b525b61416a81866120f6565b5161418b826141858a519361417f83866120f6565b51612064565b926120f6565b5201614112565b5f61419e8289516120f6565b52614160565b6141ba6141b28289516120f6565b518751612064565b865261412c565b54915061335b6140a9565b6141d99193508290612057565b915f61409f565b5050505090565b91906141fd576020816001925184550151910155565b634e487b7160e01b5f525f60045260245ffd5b614218612e04565b5f80516020614ad38339815191525490831561440a575f1982019282841161187757614251845f80516020614ad3833981519152612e42565b5080548314959086156143ef575060028410613cd557600119840184811161187757670de0b6b3a764000091613a4c600161429c6142a7945f80516020614ad3833981519152612e42565b500154945b85612044565b047f8984d2d0d7a9f2f70f22692c7c8344aa50cbed8c00a03c924457a31793ee8fe154105f146143cc576289544081029080820462895440149015171561187757629896809004935b7f8984d2d0d7a9f2f70f22692c7c8344aa50cbed8c00a03c924457a31793ee8fe2547f8984d2d0d7a9f2f70f22692c7c8344aa50cbed8c00a03c924457a31793ee8fe354908087106143c4575b508086116143bc575b501561436c5750506143676001915f80516020614ad3833981519152612e42565b500155565b9150916040519161437c83611d95565b82526020820152600160401b821015610fe257613bd7826001613d5994015f80516020614ad3833981519152555f80516020614ad3833981519152612e42565b94505f614346565b95505f61433d565b62a7d8c081029080820462a7d8c0149015171561187757629896809004936142f0565b670de0b6b3a764000091613a4c60016142a7930154946142a1565b50505050565b5f80516020614ad3833981519152545f91905f198101908111611877575f925b8181111561443e5750505090565b6144488282612064565b60011c93614463855f80516020614ad3833981519152612e42565b509182548086115f14614498575050506001015492600181018091111561443057634e487b7160e01b5f52601160045260245ffd5b919590935091908410156144b857505f1981019081116118775790614430565b60010154949350505050565b6001600160ff1b0381146118775760010190565b92919080156145a757816144eb91612071565b5f6144f685846147ad565b8581809711614596575b50600101908186116118775761335683916134d68661452261452b968b612044565b60011c92612044565b91614535816120b7565b945f5b82811061454757505050509190565b826145528284612064565b1015614577575b6001906145668584612044565b614570828a6120f6565b5201614538565b9080158015614588575b5090614559565b611877575f19016001614581565b6145a09250612057565b845f614500565b506145b39192506120b7565b5f91565b5f80516020614df3833981519152545f80516020614c73833981519152545f19830192831161187757612e8a926134d691612044565b905f80516020614c538339815191526146185f80516020614b53833981519152546133568142612071565b82101561475457829054116146db57808211614673576146439061463b836147d4565b9290916147d4565b90929082840361465a5750505050612e8a906148d7565b612e8a945061466d929161344991612057565b90612071565b60405162461bcd60e51b815260206004820152605a60248201525f80516020614bd383398151915260448201525f80516020614d138339815191526064820152790732067726561746572207468616e20746f54696d657374616d760341b608482015260a490fd5b60405162461bcd60e51b815260206004820152606560248201525f80516020614bd383398151915260448201525f80516020614d1383398151915260648201527f73206c6f776572207468616e206669727374207265636f726465642074696d6560848201526407374616d760dc1b60a482015260c490fd5b60405162461bcd60e51b815260206004820152602b60248201527f4d65616e2070726963652063616e206368616e676520696e207375676765737460448201526a1959081a5b9d195c9d985b60aa1b6064820152608490fd5b90808210156147ba575090565b905090565b8054821015611fc8575f5260205f2001905f90565b905f80516020614c5383398151915254916147ef8382612057565b6148085f80516020614b53833981519152548092612071565b937f62e26dda6281f8a7bde8d0de6ef3dc4300cca63258b4641529b5bae7dc08902854918286105f1461485a5750505050614850825f80516020614d938339815191526147bf565b90549060031b1c90565b613a4c61335b9261486a95612057565b60018101809111611877575f80516020614b3383398151915254801561207b57655af3107a4000045f80516020614d93833981519152545f19810190811161187757612e8a926148ca6134d6925f80516020614d938339815191526147bf565b90549060031b1c92612044565b5f80516020614c5383398151915254908082116149e757614910916148fb91612057565b5f80516020614b538339815191525490612071565b5f80516020614d93833981519152548110156149c657801561497c57614943815f80516020614d938339815191526147bf565b90549060031b1c5f1982019182116118775761496f612e8a925f80516020614d938339815191526147bf565b90549060031b1c90612057565b505f80516020614d938339815191525415611fc8575f80516020614d938339815191525f527fd4d5257edb89e07e8d010c6ff96326eddf1fc220d3213e3ef3ddd6c1b3b706415490565b505f80516020614b3383398151915254801561207b57655af3107a40000490565b60405162461bcd60e51b815260206004820152605760248201527f4c69624f7261636c6550726963652e6765745265765072696365417454696d6560448201527f7374616d703a2074696d657374616d70206973206c6f776572207468616e2066606482015276069727374207265636f726465642074696d657374616d7604c1b608482015260a490fdfe88681cafafd55573d275926fd208ef2ba36c6dd5169e88841d4bc9bcd2253021a8de0abb18de6e730ac24d7fe02c877d293683811fc3ac5d8e62e2a52c0d20d9a8de0abb18de6e730ac24d7fe02c877d293683811fc3ac5d8e62e2a52c0d20db8984d2d0d7a9f2f70f22692c7c8344aa50cbed8c00a03c924457a31793ee8fe68984d2d0d7a9f2f70f22692c7c8344aa50cbed8c00a03c924457a31793ee8fe44e756d626572206f6620756e69747320696e20706565722073686f756c64206262e26dda6281f8a7bde8d0de6ef3dc4300cca63258b4641529b5bae7dc08902a62e26dda6281f8a7bde8d0de6ef3dc4300cca63258b4641529b5bae7dc0890278984d2d0d7a9f2f70f22692c7c8344aa50cbed8c00a03c924457a31793ee8fdabd5605b4405616555ea2583cbd913ecf346c52c37520187117aadcea54e7d1498984d2d0d7a9f2f70f22692c7c8344aa50cbed8c00a03c924457a31793ee8fd24c69624f7261636c6550726963652e6765744d65616e526576507269636542658984d2d0d7a9f2f70f22692c7c8344aa50cbed8c00a03c924457a31793ee8fd18984d2d0d7a9f2f70f22692c7c8344aa50cbed8c00a03c924457a31793ee8fdd5265776172642064656c65676174696f6e20726174652073686f756c6420626562e26dda6281f8a7bde8d0de6ef3dc4300cca63258b4641529b5bae7dc0890267d4f8ec43464738265ced6b7ed5f90007e9b7c34318bdd82d9249328b50bd3588984d2d0d7a9f2f70f22692c7c8344aa50cbed8c00a03c924457a31793ee8fe5963aedb451d774c98792f8f69a17e9461c48a04caa71aa32eb23bd42fb81ab5da8de0abb18de6e730ac24d7fe02c877d293683811fc3ac5d8e62e2a52c0d20d88984d2d0d7a9f2f70f22692c7c8344aa50cbed8c00a03c924457a31793ee8fdc747765656e54696d657374616d70733a2066726f6d54696d657374616d702069a8de0abb18de6e730ac24d7fe02c877d293683811fc3ac5d8e62e2a52c0d20d7a8de0abb18de6e730ac24d7fe02c877d293683811fc3ac5d8e62e2a52c0d20dc9b779b17422d0df92223018b32b4d1fa46e071723d6817e2486d003becc55f0062e26dda6281f8a7bde8d0de6ef3dc4300cca63258b4641529b5bae7dc089029a8de0abb18de6e730ac24d7fe02c877d293683811fc3ac5d8e62e2a52c0d20dda8de0abb18de6e730ac24d7fe02c877d293683811fc3ac5d8e62e2a52c0d20da7d4f8ec43464738265ced6b7ed5f90007e9b7c34318bdd82d9249328b50bd357a2646970667358221220f2566bbde440461ce6cae80352e1bf7c6f6c73181ff1e8146a672d0859a7b86a64736f6c634300081a0033","linkReferences":{}},"methodIdentifiers":{"createCommitment(bytes32,uint256,address,uint256)":"886f0e87","depositCollateral(bytes32[])":"3d5f526c","diamondReceive()":"77fc1b6a","finishCommitment(bytes32)":"ea03ef52","getCommitment(bytes32)":"7795820c","getGlobalNonce()":"92163b4b","getProofCounts(bytes32)":"c9b824c2","getRewardBalance()":"5e42b455","getRewardInfo(uint256)":"243d3827","getStatus(bytes32)":"5de28ae0","getUnitExitStatuses(bytes32)":"8c3e717a","removeCUFromCC(bytes32,bytes32[])":"8e7af1d1","removeCommitment(bytes32)":"d6a1c7f8","submitProof(bytes32,bytes32,bytes32)":"4ece5685","submitProofs(bytes32[],bytes32[],bytes32[])":"64b75e31","totalRewards(bytes32)":"de644849","unlockedRewards(bytes32)":"3d081790","withdrawCollateral(bytes32)":"d3cde344","withdrawReward(bytes32)":"474b5809","withdrawnRewards(bytes32)":"88af96c4"},"storageLayout":{"storage":[],"types":{}},"devdoc":{"version":1,"kind":"dev","methods":{"createCommitment(bytes32,uint256,address,uint256)":{"details":"Creates a new commitment","params":{"delegator":"The delegator address. If address is zero, the commitment has no delegator","duration":"The duration of the commitment in Epochs","peerId":"Peer id which linked to the commitment","rewardDelegationRate":"The reward delegation rate in precision"}},"depositCollateral(bytes32[])":{"details":"Deposits collateral for commitments. It makes commitments activeNote: this method consists of indirect potential delegator address update(set delegator to msg.sender if 0x0 before).","params":{"commitmentIds":"Commitment ids"}},"diamondReceive()":{"details":"to add reward balance by msg.value"},"finishCommitment(bytes32)":{"details":"Finishes the commitment if it is in Failed or Ended status","params":{"commitmentId":"Commitment id"}},"getCommitment(bytes32)":{"details":"Returns the commitment info","params":{"commitmentId":"Commitment id"},"returns":{"_0":"info commitment info"}},"getProofCounts(bytes32)":{"details":"Returns proof counts for each CU in current epoch","params":{"commitmentId":"Commitment id"},"returns":{"counts":"proof numbers sent in current epoch","unitIds":"unit ids"}},"getRewardBalance()":{"details":"Returns balance of the reward pool"},"getStatus(bytes32)":{"details":"Returns the commitment status","params":{"commitmentId":"Commitment id"},"returns":{"_0":"status commitment status"}},"getUnitExitStatuses(bytes32)":{"details":"Returns list of units wth exited units marked","params":{"commitmentId":"Commitment id"},"returns":{"isExited":"if unit has exited the cc via removeCUFromCC function","unitIds":"unit ids"}},"removeCUFromCC(bytes32,bytes32[])":{"details":"Remove CU from Ended or Failed CC. Need to call this function before finish the commitment","params":{"commitmentId":"Commitment id","unitIds":"Compute unit ids which will be removed from the commitment"}},"removeCommitment(bytes32)":{"details":"Removes the commitment if it is in WaitDelegation status","params":{"commitmentId":"Commitment id"}},"submitProof(bytes32,bytes32,bytes32)":{"details":"Submits a proof for the commitment","params":{"localUnitNonce":"Local nonce of the unit for calculating the target hash. It's the proof","resultHash":"Target hash of this proof","unitId":"Compute unit id which provide the proof"}},"submitProofs(bytes32[],bytes32[],bytes32[])":{"details":"Submits proofs for the commitment","params":{"localUnitNonces":"Local nonces of the units for calculating the target hashes. It's the proof","resultHashes":"Target hashes of this proof","unitIds":"Compute unit ids which provide the proof"}},"totalRewards(bytes32)":{"details":"Returns the total rewards of the commitment.","params":{"commitmentId":"Commitment id"},"returns":{"_0":"CCRewardsView Returns the total rewards of the commitment minus withdrawn rewards."}},"unlockedRewards(bytes32)":{"details":"Returns the unlocked rewards of the commitment","params":{"commitmentId":"Commitment id"},"returns":{"_0":"CCRewardsView the unlocked rewards of the commitment minus withdrawn rewards."}},"withdrawCollateral(bytes32)":{"details":"Withdraws the collateral from the commitment. Commitment must be Failed or Inactive.","params":{"commitmentId":"Commitment id"}},"withdrawReward(bytes32)":{"details":"Withdraws the reward from the commitment","params":{"commitmentId":"Commitment id"}},"withdrawnRewards(bytes32)":{"details":"Returns rewards withdrawn from the commitment","params":{"commitmentId":"Commitment id"},"returns":{"_0":"CCRewardsView rewards withdrawn from the commitment"}}},"events":{"CollateralDeposited(bytes32,uint256)":{"details":"Emitted when a delegator deposited collateral to commitment","params":{"commitmentId":"Commitment id","totalCollateral":"The total collateral deposited to commitment"}},"CollateralWithdrawn(bytes32,uint256,uint256)":{"details":"Emitted when a someone withdraws deposited collateral from commitment","params":{"amountSlashed":"The slashed part of the collateral","amountWithdrawn":"The returned part of the collateral after slashing","commitmentId":"Commitment id"}},"CommitmentActivated(bytes32,bytes32,uint256,uint256,bytes32[])":{"details":"Emitted when a commitment is activated. Commitment can be activated only if delegator deposited collateral.","params":{"commitmentId":"Commitment id which activated","endEpoch":"The end epoch of the commitment","peerId":"Peer id which linked to the commitment","startEpoch":"The start epoch of the commitment","unitIds":"Compute unit ids which linked to the commitment"}},"CommitmentCreated(bytes32,bytes32,uint256,address,uint256,uint256)":{"details":"Emitted when a new commitment is created","params":{"commitmentId":"Commitment id","delegator":"The delegator address. If address is zero, the commitment has no delegator","duration":"The duration of the commitment in Epochs","fltCollateralPerUnit":"The flt collateral per compute unit","peerId":"Peer id which linked to the commitment","rewardDelegationRate":"The reward delegation rate in precision"}},"CommitmentFinished(bytes32)":{"details":"Emitted when a commitment is finished. Commitment can be finished only if it is in Failed or Ended","params":{"commitmentId":"Commitment id which finished"}},"CommitmentRemoved(bytes32)":{"details":"Emitted when a commitment is removed. Commitment can be removed only if it is in WaitDelegation status","params":{"commitmentId":"Commitment id"}},"ProofSubmitted(bytes32,bytes32,bytes32)":{"details":"Emitted when a proof is submitted","params":{"commitmentId":"Commitment id","localUnitNonce":"The local nonce of the unit for calculating the target hash","unitId":"Compute unit id which linked to the proof"}},"RewardWithdrawn(bytes32,uint256,uint256)":{"details":"Emitted when a reward is withdrawn","params":{"ccRewardsAmount":"The amount withdrawn from the CC rewards -- divided between provider abd staker","commitmentId":"Commitment id","dealStakerRewardsAmount":"The amount of the withdrawn reward from deal staker rewards"}},"UnitActivated(bytes32,bytes32,uint256)":{"details":"Emitted when a unit activated. Unit is activated when it returned from deal","params":{"commitmentId":"Commitment id","unitId":"Compute unit id which activated"}},"UnitDeactivated(bytes32,bytes32)":{"details":"Emitted when a unit deactivated. Unit is deactivated when it moved to deal","params":{"commitmentId":"Commitment id","unitId":"Compute unit id which deactivated"}}},"errors":{"CapacityCommitmentIsNotActive(uint8)":[{"details":"Capacity commitment is not active"}],"InvalidCCStatus(uint8)":[{"details":"Invalid CC status"}],"ReentrancyGuardReentrantCall()":[{"details":"Unauthorized reentrant call."}],"SafeERC20FailedOperation(address)":[{"details":"An operation with an ERC-20 token failed."}]}},"id":80}