{"abi":[{"type":"function","name":"createCommitment","inputs":[{"name":"peerId","type":"bytes32","internalType":"bytes32"},{"name":"duration","type":"uint256","internalType":"uint256"},{"name":"delegator","type":"address","internalType":"address"},{"name":"rewardDelegationRate","type":"uint256","internalType":"uint256"}],"outputs":[{"name":"","type":"bytes32","internalType":"bytes32"}],"stateMutability":"nonpayable"},{"type":"function","name":"depositCollateral","inputs":[{"name":"commitmentIds","type":"bytes32[]","internalType":"bytes32[]"}],"outputs":[],"stateMutability":"payable"},{"type":"function","name":"diamondReceive","inputs":[],"outputs":[],"stateMutability":"payable"},{"type":"function","name":"finishCommitment","inputs":[{"name":"commitmentId","type":"bytes32","internalType":"bytes32"}],"outputs":[],"stateMutability":"nonpayable"},{"type":"function","name":"getCommitment","inputs":[{"name":"commitmentId","type":"bytes32","internalType":"bytes32"}],"outputs":[{"name":"","type":"tuple","internalType":"struct ICapacity.CommitmentView","components":[{"name":"status","type":"uint8","internalType":"enum ICapacity.CCStatus"},{"name":"peerId","type":"bytes32","internalType":"bytes32"},{"name":"collateralPerUnit","type":"uint256","internalType":"uint256"},{"name":"unitCount","type":"uint256","internalType":"uint256"},{"name":"startEpoch","type":"uint256","internalType":"uint256"},{"name":"endEpoch","type":"uint256","internalType":"uint256"},{"name":"rewardDelegatorRate","type":"uint256","internalType":"uint256"},{"name":"delegator","type":"address","internalType":"address"},{"name":"totalFailCount","type":"uint256","internalType":"uint256"},{"name":"failedEpoch","type":"uint256","internalType":"uint256"},{"name":"exitedUnitCount","type":"uint256","internalType":"uint256"}]}],"stateMutability":"view"},{"type":"function","name":"getGlobalNonce","inputs":[],"outputs":[{"name":"","type":"bytes32","internalType":"bytes32"}],"stateMutability":"view"},{"type":"function","name":"getProofCounts","inputs":[{"name":"commitmentId","type":"bytes32","internalType":"bytes32"}],"outputs":[{"name":"unitIds","type":"bytes32[]","internalType":"bytes32[]"},{"name":"counts","type":"uint256[]","internalType":"uint256[]"}],"stateMutability":"view"},{"type":"function","name":"getRewardBalance","inputs":[],"outputs":[{"name":"","type":"uint256","internalType":"uint256"}],"stateMutability":"view"},{"type":"function","name":"getRewardInfo","inputs":[{"name":"epoch","type":"uint256","internalType":"uint256"}],"outputs":[{"name":"","type":"tuple","internalType":"struct ICapacity.RewardInfo","components":[{"name":"minProofsPerEpoch","type":"uint256","internalType":"uint256"},{"name":"maxProofsPerEpoch","type":"uint256","internalType":"uint256"},{"name":"totalSuccessProofs","type":"uint256","internalType":"uint256"}]}],"stateMutability":"view"},{"type":"function","name":"getStatus","inputs":[{"name":"commitmentId","type":"bytes32","internalType":"bytes32"}],"outputs":[{"name":"","type":"uint8","internalType":"enum ICapacity.CCStatus"}],"stateMutability":"view"},{"type":"function","name":"getUnitExitStatuses","inputs":[{"name":"commitmentId","type":"bytes32","internalType":"bytes32"}],"outputs":[{"name":"unitIds","type":"bytes32[]","internalType":"bytes32[]"},{"name":"isExited","type":"bool[]","internalType":"bool[]"}],"stateMutability":"view"},{"type":"function","name":"removeCUFromCC","inputs":[{"name":"commitmentId","type":"bytes32","internalType":"bytes32"},{"name":"unitIds","type":"bytes32[]","internalType":"bytes32[]"}],"outputs":[],"stateMutability":"nonpayable"},{"type":"function","name":"removeCommitment","inputs":[{"name":"commitmentId","type":"bytes32","internalType":"bytes32"}],"outputs":[],"stateMutability":"nonpayable"},{"type":"function","name":"submitProof","inputs":[{"name":"unitId","type":"bytes32","internalType":"bytes32"},{"name":"localUnitNonce","type":"bytes32","internalType":"bytes32"},{"name":"resultHash","type":"bytes32","internalType":"bytes32"}],"outputs":[],"stateMutability":"nonpayable"},{"type":"function","name":"submitProofs","inputs":[{"name":"unitIds","type":"bytes32[]","internalType":"bytes32[]"},{"name":"localUnitNonces","type":"bytes32[]","internalType":"bytes32[]"},{"name":"resultHashes","type":"bytes32[]","internalType":"bytes32[]"}],"outputs":[],"stateMutability":"nonpayable"},{"type":"function","name":"totalRewards","inputs":[{"name":"commitmentId","type":"bytes32","internalType":"bytes32"}],"outputs":[{"name":"","type":"tuple","internalType":"struct ICapacity.CCRewardsView","components":[{"name":"ccRewards","type":"uint256","internalType":"uint256"},{"name":"dealStakerRewards","type":"uint256","internalType":"uint256"}]}],"stateMutability":"view"},{"type":"function","name":"unlockedRewards","inputs":[{"name":"commitmentId","type":"bytes32","internalType":"bytes32"}],"outputs":[{"name":"","type":"tuple","internalType":"struct ICapacity.CCRewardsView","components":[{"name":"ccRewards","type":"uint256","internalType":"uint256"},{"name":"dealStakerRewards","type":"uint256","internalType":"uint256"}]}],"stateMutability":"view"},{"type":"function","name":"withdrawCollateral","inputs":[{"name":"commitmentId","type":"bytes32","internalType":"bytes32"}],"outputs":[],"stateMutability":"nonpayable"},{"type":"function","name":"withdrawReward","inputs":[{"name":"commitmentId","type":"bytes32","internalType":"bytes32"}],"outputs":[],"stateMutability":"nonpayable"},{"type":"function","name":"withdrawnRewards","inputs":[{"name":"commitmentId","type":"bytes32","internalType":"bytes32"}],"outputs":[{"name":"","type":"tuple","internalType":"struct ICapacity.CCRewardsView","components":[{"name":"ccRewards","type":"uint256","internalType":"uint256"},{"name":"dealStakerRewards","type":"uint256","internalType":"uint256"}]}],"stateMutability":"view"},{"type":"event","name":"CollateralDeposited","inputs":[{"name":"commitmentId","type":"bytes32","indexed":true,"internalType":"bytes32"},{"name":"stakerAddress","type":"address","indexed":true,"internalType":"address"},{"name":"totalCollateral","type":"uint256","indexed":false,"internalType":"uint256"}],"anonymous":false},{"type":"event","name":"CollateralWithdrawn","inputs":[{"name":"commitmentId","type":"bytes32","indexed":false,"internalType":"bytes32"},{"name":"amountWithdrawn","type":"uint256","indexed":false,"internalType":"uint256"},{"name":"amountSlashed","type":"uint256","indexed":false,"internalType":"uint256"}],"anonymous":false},{"type":"event","name":"CommitmentActivated","inputs":[{"name":"peerId","type":"bytes32","indexed":true,"internalType":"bytes32"},{"name":"commitmentId","type":"bytes32","indexed":true,"internalType":"bytes32"},{"name":"startEpoch","type":"uint256","indexed":false,"internalType":"uint256"},{"name":"endEpoch","type":"uint256","indexed":false,"internalType":"uint256"},{"name":"unitIds","type":"bytes32[]","indexed":false,"internalType":"bytes32[]"}],"anonymous":false},{"type":"event","name":"CommitmentCreated","inputs":[{"name":"peerId","type":"bytes32","indexed":true,"internalType":"bytes32"},{"name":"commitmentId","type":"bytes32","indexed":false,"internalType":"bytes32"},{"name":"duration","type":"uint256","indexed":false,"internalType":"uint256"},{"name":"delegator","type":"address","indexed":false,"internalType":"address"},{"name":"rewardDelegationRate","type":"uint256","indexed":false,"internalType":"uint256"},{"name":"fltCollateralPerUnit","type":"uint256","indexed":false,"internalType":"uint256"}],"anonymous":false},{"type":"event","name":"CommitmentFailed","inputs":[{"name":"commitmentId","type":"bytes32","indexed":true,"internalType":"bytes32"},{"name":"failedEpoch","type":"uint256","indexed":false,"internalType":"uint256"}],"anonymous":false},{"type":"event","name":"CommitmentFinished","inputs":[{"name":"commitmentId","type":"bytes32","indexed":true,"internalType":"bytes32"}],"anonymous":false},{"type":"event","name":"CommitmentRemoved","inputs":[{"name":"commitmentId","type":"bytes32","indexed":true,"internalType":"bytes32"}],"anonymous":false},{"type":"event","name":"CommitmentStatsUpdated","inputs":[{"name":"commitmentId","type":"bytes32","indexed":false,"internalType":"bytes32"},{"name":"totalFailCount","type":"uint256","indexed":false,"internalType":"uint256"},{"name":"exitedUnitCount","type":"uint256","indexed":false,"internalType":"uint256"},{"name":"activeUnitCount","type":"uint256","indexed":false,"internalType":"uint256"},{"name":"nextAdditionalActiveUnitCount","type":"uint256","indexed":false,"internalType":"uint256"},{"name":"changedEpoch","type":"uint256","indexed":false,"internalType":"uint256"}],"anonymous":false},{"type":"event","name":"ProofSubmitted","inputs":[{"name":"commitmentId","type":"bytes32","indexed":true,"internalType":"bytes32"},{"name":"unitId","type":"bytes32","indexed":true,"internalType":"bytes32"},{"name":"localUnitNonce","type":"bytes32","indexed":false,"internalType":"bytes32"}],"anonymous":false},{"type":"event","name":"ProofsConfirmed","inputs":[{"name":"peerId","type":"bytes32","indexed":true,"internalType":"bytes32"},{"name":"unitIds","type":"bytes32[]","indexed":false,"internalType":"bytes32[]"},{"name":"confirmed","type":"bool[]","indexed":false,"internalType":"bool[]"}],"anonymous":false},{"type":"event","name":"RewardWithdrawn","inputs":[{"name":"commitmentId","type":"bytes32","indexed":true,"internalType":"bytes32"},{"name":"providerReward","type":"uint256","indexed":false,"internalType":"uint256"},{"name":"dealStakerRewardsAmount","type":"uint256","indexed":false,"internalType":"uint256"}],"anonymous":false},{"type":"event","name":"StateUpdated","inputs":[{"name":"commitmentId","type":"bytes32","indexed":true,"internalType":"bytes32"},{"name":"state","type":"tuple","indexed":false,"internalType":"struct DealStakerRewards.VestingState","components":[{"name":"items","type":"uint256[]","internalType":"uint256[]"},{"name":"accumulatedUnlockedFlt","type":"uint256","internalType":"uint256"}]}],"anonymous":false},{"type":"event","name":"UnitActivated","inputs":[{"name":"commitmentId","type":"bytes32","indexed":true,"internalType":"bytes32"},{"name":"unitId","type":"bytes32","indexed":true,"internalType":"bytes32"},{"name":"startEpoch","type":"uint256","indexed":false,"internalType":"uint256"}],"anonymous":false},{"type":"event","name":"UnitDeactivated","inputs":[{"name":"commitmentId","type":"bytes32","indexed":true,"internalType":"bytes32"},{"name":"unitId","type":"bytes32","indexed":true,"internalType":"bytes32"}],"anonymous":false},{"type":"event","name":"VestingScheduleItem","inputs":[{"name":"commitmentId","type":"bytes32","indexed":true,"internalType":"bytes32"},{"name":"id","type":"uint256","indexed":true,"internalType":"uint256"},{"name":"epoch","type":"uint256","indexed":true,"internalType":"uint256"},{"name":"cumulativeAmount","type":"uint256","indexed":false,"internalType":"uint256"}],"anonymous":false},{"type":"event","name":"VestingUpdateItem","inputs":[{"name":"commitmentId","type":"bytes32","indexed":true,"internalType":"bytes32"},{"name":"id","type":"uint256","indexed":true,"internalType":"uint256"},{"name":"cumulativeAmount","type":"uint256","indexed":false,"internalType":"uint256"}],"anonymous":false},{"type":"error","name":"CapacityCommitmentIsNotActive","inputs":[{"name":"status","type":"uint8","internalType":"enum ICapacity.CCStatus"}]},{"type":"error","name":"InvalidCCStatus","inputs":[{"name":"status","type":"uint8","internalType":"enum ICapacity.CCStatus"}]},{"type":"error","name":"ReentrancyGuardReentrantCall","inputs":[]},{"type":"error","name":"SafeERC20FailedOperation","inputs":[{"name":"token","type":"address","internalType":"address"}]}],"bytecode":{"object":"0x60808060405234601557614ee2908161001a8239f35b5f80fdfe60806040526004361015610011575f80fd5b5f803560e01c8063243d382714611c8f5780633d08179014611c095780633d5f526c1461197e578063474b58091461156c5780634ece5685146114df5780635de28ae0146114b25780635e42b4551461148957806364b75e311461140e5780637795820c1461136457806377fc1b6a14611330578063886f0e8714610c3457806388af96c414610bd25780638c3e717a14610b3b5780638e7af1d11461086f57806392163b4b1461084c578063c9b824c21461075f578063d3cde3441461051b578063d6a1c7f814610329578063de644849146102f95763ea03ef52146100f6575f80fd5b346102f65760203660031901126102f6576004356101126130a0565b5f80516020614dcd83398151915281835260205260408220610132612e4f565b6101456006830154600384015490612049565b60018301549161015483612f7d565b9161017661016e610164876131f6565b928486858a6132d3565b918688613589565b6006811015806102e257811515806102d5575b6102bd576102a9576040929160046101ab921490811591610282575b50612b42565b01918251600d82015403610224576101ed928492600560ff1984541617835586525f80516020614aed8339815191526020528560016040822001555190613e4f565b7f9e2d7a240cc27393d69de7eebd70ec786ebc4d7a123669543c02276b488118dc8280a2805f80516020614e0d8339815191525d80f35b60405162461bcd60e51b815260206004820152603060248201527f466f722066696e69736820636f6d6d69746d656e7420616c6c20756e6974732060448201526f1cda1bdd5b1908189948195e1a5d195960821b6064820152608490fd5b90506102a1600c8701545f80516020614bed8339815191525490612049565b11155f6101a5565b634e487b7160e01b87526021600452602487fd5b63b16acd3f60e01b88526024886102d384611d0f565bfd5b50505f6004821415610189565b634e487b7160e01b88526021600452602488fd5b80fd5b50346102f65760203660031901126102f657610325610319600435612c0e565b60405191829182611cc9565b0390f35b50346102f65760203660031901126102f6576004358082525f80516020614dcd833981519152602081905260408320600101546103826001600160a01b0361037961037384612f7d565b516130d5565b51163314612aa1565b61038b83612efa565b60068110156105075760026103a09114611fc1565b83525f80516020614aed833981519152602052826001604082200155818352602052604082208281555f60018201555f60028201555f60038201555f60048201558260058201555f60068201555f60078201555f60088201555f60098201555f600a8201555f600b8201555f600c8201555f600d8201555f600e82015582600f8201555f601082015560118101805490848155816104bc575b50505f60148201555f60158201555f60178201555f6001601883018281550155601a81018054905f81558161049e575b5050601c5f9182601b82015501557f159bd9560f82a1e39125a438288d0cfb97f2dd09bd7338cf55ef5e8c566cff448280a280f35b5f5260205f20908101905b81811015610469575f81556001016104a9565b6001600160ff1b03821682036104f3578452602084209060011b8101905b81811015610439575f80825560018201556002016104da565b634e487b7160e01b85526011600452602485fd5b634e487b7160e01b85526021600452602485fd5b50346102f65760203660031901126102f657600435906105396130a0565b5f80516020614dcd83398151915291610550612e4f565b92818352602052604082209061056f6006830154600384015490612049565b61057c6001840154612f7d565b9060018060a01b0361058e83516130d5565b511633148015610749575b156106c4576105bf6105b76105ad866131f6565b92888585896132d3565b918585613589565b6006811015806106b057811515806106a3575b61068d576105075760406105f2926004859314610660575b015184613e4f565b600882015491600d81015490600b600a820154910154915f19870196871161064c57915f80516020614c0d8339815191529596916106369360405196879687612074565b0390a1805f80516020614e0d8339815191525d80f35b634e487b7160e01b86526011600452602486fd5b610688610680600c8801545f80516020614bed8339815191525490612049565b891015612b42565b6105ea565b63b16acd3f60e01b86526024866102d384611d0f565b50505f60048214156105d2565b634e487b7160e01b86526021600452602486fd5b60405162461bcd60e51b815260206004820152605160248201527f4f6e6c792070726f7669646572206f72207374616b65722063616e20696e697460448201527f6961746520636f6c6c61746572616c2077697468647261772066726f6d2063616064820152701c1858da5d1e4818dbdb5b5a5d1b595b9d607a1b608482015260a490fd5b5060058401546001600160a01b03163314610599565b50346102f65760203660031901126102f6575f80516020614dcd833981519152610787612e4f565b90600435835260205260408220906107a2600183015461302f565b926107ad845161209c565b916012829401935b85518110156107f557806107cb600192886120db565b518452856020526003604085200183855260205260408420546107ee82876120db565b52016107b5565b61080f868585604051938493604085526040850190611e64565b8381036020850152602080845192838152019301915b818110610833575050500390f35b8251845285945060209384019390920191600101610825565b50346102f657806003193601126102f6576020610867612b02565b604051908152f35b50346102f65760403660031901126102f657600435906024356001600160401b038111610b37576108a4903690600401611cdf565b90925f80516020614dcd833981519152936108bd612e4f565b9482855260205260408420906108dc6006830154600384015490612049565b9060018301546108eb81612f7d565b9161090060018060a01b0361037985516130d5565b610916848a61090e886131f6565b9586896132d3565b610921848789613589565b6006811015610b235780151580610b18575b610b0257509287906013860193602060128801910191600d880199600e8901945b8181106109a6578d8d8d8d8d6008810154925490600b600a820154910154915f19870196871161064c57915f80516020614c0d8339815191529596916109a09360405196879687612074565b0390a180f35b6109b181838b611f9d565b356109bb8161391b565b88602082015103610aa25760408f6109df60ff9360018060a01b03905116156120ef565b8381528b602052205416610a64578e610a0e8f868f918086604092528a602052209360208b51015192856139ee565b8d5460018101809111610a4f578f90928f600260409460019796610a36935501548b54612049565b8a5581528a602052208260ff1982541617905501610954565b50634e487b7160e01b8f52601160045260248ffd5b60405162461bcd60e51b815260206004820152601660248201527510dbdb5c1d5d19481d5b9a5d081a5cc8195e1a5d195960521b6044820152606490fd5b60405162461bcd60e51b815260206004820152603260248201527f436f6d7075746520756e697420646f65736e27742062656c6f6e6720746f2063604482015271185c1858da5d1e4818dbdb5b5a5d1b595b9d60721b6064820152608490fd5b886102d360249263b16acd3f60e01b8352611d0f565b506004811415610933565b634e487b7160e01b89526021600452602489fd5b5080fd5b50346102f65760203660031901126102f6575f80516020614dcd83398151915260043582526020526040812090610b75600183015461302f565b90610b80825161209c565b92601301815b8351811015610bc05780610b9c600192866120db565b5184528260205260ff604085205416610bb582886120db565b901515905201610b86565b50505061032560405192839283611e97565b50346102f65760203660031901126102f657604061032591610bf2611f85565b505f80516020614dcd8339815191526004358252602052206015601082015491015460405191610c2183611d2a565b8252602082015260405191829182611cc9565b3461132c57608036600319011261132c576044356001600160a01b0381169060043560243583830361132c576064359260ff7f1f364d5cd815a7922b0808e606a82391642c337151b3addb3f98eaf82cfb172e54161580156112f7575b156112a6575f80516020614dcd83398151915293610cae84612f7d565b60208101516112635780516001600160a01b0390610ccb906130d5565b51163303611209577f8984d2d0d7a9f2f70f22692c7c8344aa50cbed8c00a03c924457a31793ee8fd354841061118c577f8984d2d0d7a9f2f70f22692c7c8344aa50cbed8c00a03c924457a31793ee8fd45484116111115760400180517f8984d2d0d7a9f2f70f22692c7c8344aa50cbed8c00a03c924457a31793ee8fd5541161109757517f8984d2d0d7a9f2f70f22692c7c8344aa50cbed8c00a03c924457a31793ee8fd6541061101f578015610fd557629896808111610f8a577f8984d2d0d7a9f2f70f22692c7c8344aa50cbed8c00a03c924457a31793ee8fd85491604051602081019143835286604083015285606083015260018060601b03199060601b16608082015282609482015260948152610de860b482611dcd565b51902094855f5260205260405f2095604051610e0381611d45565b60028082526020820187905260408201859052606082018690526080820184905260a082018390525f60c0909201829052885460ff19168117895560018901879055880184905560038801859055600488018390556005880180546001600160a01b0319166001600160a01b0384161790556006880155601a610ec4610eb9610e8a612e4f565b5f80516020614b6d833981519152545f80516020614d0d8339815191525491601c8d01558a60148d0155612029565b8060198b015561209c565b805191909801976001600160401b038211610f7657602090610ee6838b612bce565b01975f5260205f20975f5b828110610f6257602089897f2764696d7b2884dde865501f6b61168dcd00f8bed537f0aca4a1f583341a4c6560a08b8b8b8b865f525f80516020614aed833981519152895287600160405f2001556040519388855289850152604084015260608301526080820152a2604051908152f35b60019060208351930192818c015501610ef1565b634e487b7160e01b5f52604160045260245ffd5b60405162461bcd60e51b815260206004820152603060248201525f80516020614cad83398151915260448201526f206c657373206f7220657175616c203160801b6064820152608490fd5b60405162461bcd60e51b815260206004820152602f60248201525f80516020614cad83398151915260448201526e02067726561746572207468616e203608c1b6064820152608490fd5b60405162461bcd60e51b815260206004820152605760248201525f80516020614b8d83398151915260448201527f65206c6f776572206f7220657175616c207468616e206d6178206e756d626572606482015276081bd9881d5b9a5d1cc81a5b8818dbdb5b5a5d1b595b9d604a1b608482015260a490fd5b60405162461bcd60e51b815260206004820152605960248201525f80516020614b8d83398151915260448201527f652067726561746572206f7220657175616c207468616e206d696e206e756d62606482015278195c881bd9881d5b9a5d1cc81a5b8818dbdb5b5a5d1b595b9d603a1b608482015260a490fd5b60405162461bcd60e51b815260206004820152604760248201527f4475726174696f6e2073686f756c64206265206c6f776572206f72206571756160448201527f6c207468616e206d617820636170616369747920636f6d6d69746d656e7420646064820152663ab930ba34b7b760c91b608482015260a490fd5b60405162461bcd60e51b815260206004820152604960248201527f4475726174696f6e2073686f756c642062652067726561746572206f7220657160448201527f75616c207468616e206d696e20636170616369747920636f6d6d69746d656e7460648201526810323ab930ba34b7b760b91b608482015260a490fd5b60405162461bcd60e51b815260206004820152602c60248201527f4f6e6c792070726f76696465722063616e20637265617465206361706163697460448201526b1e4818dbdb5b5a5d1b595b9d60a21b6064820152608490fd5b60405162461bcd60e51b815260206004820152601b60248201527a1419595c88185b1c9958591e481a185cc818dbdb5b5a5d1b595b9d602a1b6044820152606490fd5b60405162461bcd60e51b815260206004820152602360248201527f57686974656c6973743a2070726f7669646572206973206e6f7420617070726f6044820152621d995960ea1b6064820152608490fd5b50335f527f1f364d5cd815a7922b0808e606a82391642c337151b3addb3f98eaf82cfb172f60205260ff60405f205416610c91565b5f80fd5b5f36600319011261132c57611353345f80516020614e4d83398151915254612049565b5f80516020614e4d83398151915255005b3461132c57602036600319011261132c5761137d612a37565b5061016061138c600435612d52565b6101406040519161139e838251611d1d565b6020810151602084015260408101516040840152606081015160608401526080810151608084015260a081015160a084015260c081015160c084015260018060a01b0360e08201511660e08401526101008101516101008401526101208101516101208401520151610140820152f35b3461132c57606036600319011261132c576004356001600160401b03811161132c5761143e903690600401611e07565b6024356001600160401b03811161132c5761145d903690600401611e07565b60443591906001600160401b03831161132c57611481611487933690600401611e07565b91612173565b005b3461132c575f36600319011261132c5760205f80516020614e4d83398151915254604051908152f35b3461132c57602036600319011261132c5760206114d0600435612efa565b6114dd6040518092611d1d565bf35b3461132c57606036600319011261132c57611487604080516115018282611dcd565b60018152601f198201908136602083013782519161151f8484611dcd565b600183528036602085013761153684519485611dcd565b6001845236602085013760043561154c826120ce565b52602435611559836120ce565b52604435611566846120ce565b52612173565b3461132c57602036600319011261132c576004356115886130a0565b5f80516020614dcd83398151915261159e612e4f565b90825f5260205260405f20906115b76001830154612f7d565b80516001600160a01b03906115cb906130d5565b511633148015611968575b1561190c576020806115e7856131f6565b6116066115fd6006880154600389015490612049565b8686848a6132d3565b50611612818789613589565b0151015180611904575b50516001600160a01b0390611630906130d5565b511661163f82601085016137a6565b90601484019161164f8484614070565b80518051601a880192916001600160401b038211610f76576020906116748386612bce565b01835f5260205f205f5b8381106118f057505050506116dc60207f8b5d520ecd83f8a909da38eaeb49b5c1fb3d8d69e22e2b36ec0f5814b5c4aa439201519586601b8a015587601c8a0155549260405191829160208352604060208401526060830190614039565b8760408301520390a2601585016116ff6116f88254809661203c565b8095612049565b905561170b8382612049565b905f80516020614e4d8339815191525480831161186f57821561181f57611788926117359161203c565b5f80516020614e4d8339815191525561176c6117646298968061175c60048a015485612029565b04809361203c565b948592612049565b926117838460018060a01b0360058a0154166137ec565b6137ec565b6008840154600d850154600b600a870154960154915f19860195861161180b576117eb6040965f80516020614c0d833981519152947fc512f9d0bb2627096491f1074af42a5032fe36ef5dcae7c216cfc34f6ea474d69989519586958d87612074565b0390a182519182526020820152a25f5f80516020614e0d8339815191525d005b634e487b7160e01b5f52601160045260245ffd5b60405162461bcd60e51b815260206004820152602260248201527f4e6f207265776172647320617661696c61626c6520666f7220776974686472616044820152613b9760f11b6064820152608490fd5b60405162461bcd60e51b815260206004820152604d60248201527f4e6f7420656e6f756768207265776172642062616c616e636520706f6f6c206f60448201527f6e2074686520636f6e74726163742e2057616974207768656e2044414f20776960648201526c3636103932b334b6361034ba1760991b608482015260a490fd5b60019060208451940193818401550161167e565b91508461161c565b60405162461bcd60e51b815260206004820152602e60248201527f4f6e6c792070726f7669646572206f722064656c656761746f722063616e207760448201526d1a5d1a191c985dc81c995dd85c9960921b6064820152608490fd5b5060058301546001600160a01b031633146115d6565b602036600319011261132c576004356001600160401b03811161132c576119a9903690600401611cdf565b905f80516020614dcd83398151915234925f5b818110611a0157846119ca57005b60405162461bcd60e51b815260206004820152600f60248201526e4578636573736976652076616c756560881b6044820152606490fd5b611a0c818386611f9d565b3590815f528360205260405f2091611a2381612efa565b6006811015611bf5576002611a389114611fc1565b60018301546040611a4882612f7d565b015197611a63611a5c60028701548b612029565b809261203c565b98611a6c612e4f565b6005870180546001600160a01b031680611b9d575080546001600160a01b031916331790555b600181019182821161180b57877f0b0a4688a90d1b24732d05ddf4925af69f02cd7d9a921b1cdcd4a7c2b6d57d6894611b2a600393611b699587600660019e0155600985015580600a850155611b045f80516020614c6d833981519152915f80516020614c2d83398151915254612049565b9050805f80516020614c2d833981519152555f80516020614bad8339815191525461428a565b8960ff19835416178255604051908152877f1eaa3c7e4504a558b82af8aad514e144b09bc2eca413ceef6d6ba6260f772f1660203393a3015482612049565b90611b94611b768561302f565b60405193849384526020840152606060408401526060830190611e64565b0390a3016119bc565b90503314611a925760405162461bcd60e51b815260206004820152602260248201527f4f6e6c792064656c656761746f722063616e206c6f636b20636f6c6c61746572604482015261185b60f21b6064820152608490fd5b634e487b7160e01b5f52602160045260245ffd5b3461132c57602036600319011261132c57610325600435611c28611f85565b505f80516020614dcd833981519152815f52602052610120611c4d60405f2092612d52565b01805115611c7e57611c7190515b6014611c6a8260108601612ea6565b9301612ede565b60405191610c2183611d2a565b50611c71611c8a612e4f565b611c5b565b3461132c57602036600319011261132c576060611cad600435611ee7565b6040805191805183526020810151602084015201516040820152f35b9190916020806040830194805184520151910152565b9181601f8401121561132c578235916001600160401b03831161132c576020808501948460051b01011161132c57565b6006811015611bf557600452565b906006821015611bf55752565b604081019081106001600160401b03821117610f7657604052565b60e081019081106001600160401b03821117610f7657604052565b606081019081106001600160401b03821117610f7657604052565b61016081019081106001600160401b03821117610f7657604052565b608081019081106001600160401b03821117610f7657604052565b60a081019081106001600160401b03821117610f7657604052565b601f909101601f19168101906001600160401b03821190821017610f7657604052565b6001600160401b038111610f765760051b60200190565b9080601f8301121561132c578135611e1e81611df0565b92611e2c6040519485611dcd565b81845260208085019260051b82010192831161132c57602001905b828210611e545750505090565b8135815260209182019101611e47565b90602080835192838152019201905f5b818110611e815750505090565b8251845260209384019390920191600101611e74565b90611eaa90604083526040830190611e64565b906020818303910152602080835192838152019201905f5b818110611ecf5750505090565b82511515845260209384019390920191600101611ec2565b604051611ef381611d60565b5f81525f60208201525f6040820152505f525f80516020614d4d83398151915260205260405f2080549081611f5f5750505f80516020614d6d833981519152545f80516020614c8d8339815191525460405191611f4f83611d60565b825260208201525f604082015290565b60029060405192611f6f84611d60565b8352600181015460208401520154604082015290565b60405190611f9282611d2a565b5f6020838281520152565b9190811015611fad5760051b0190565b634e487b7160e01b5f52603260045260245ffd5b15611fc857565b60405162461bcd60e51b815260206004820152603360248201527f436170616369747920636f6d6d69746d656e74206973206e6f7420696e205761604482015272697444656c65676174696f6e2073746174757360681b6064820152608490fd5b8181029291811591840414171561180b57565b9190820391821161180b57565b9190820180921161180b57565b8115612060570490565b634e487b7160e01b5f52601260045260245ffd5b9260a094919796959260c0850198855260208501526040840152606083015260808201520152565b906120a682611df0565b6120b36040519182611dcd565b82815280926120c4601f1991611df0565b0190602036910137565b805115611fad5760200190565b8051821015611fad5760209160051b010190565b156120f657565b60405162461bcd60e51b815260206004820152601760248201527610dbdb5c1d5d19481d5b9a5d081a5cc81a5b881919585b604a1b6044820152606490fd5b3d1561216e573d906001600160401b038211610f765760405191612163601f8201601f191660200184611dcd565b82523d5f602084013e565b606090565b90929192815115612a005781518151036129bd578151845103612979575f80516020614dcd833981519152916121a7612e4f565b92835f80516020614ded8339815191525403612946575b8151936121ca8561209c565b926121d48661209c565b915f935f908a5f194301925b8a8110612486575050505050917f7b16f0eaed0904ced785555b5d05ad0e1d0e06e0c8862d154768c632cc5d58075f95939286959361222460405192839283611e97565b0390a261228161228f5f80516020614c6d83398151915260018060a01b039054169360405192839161226f6020840196631cd7b9d760e31b8852604060248601526064850190611e64565b83810360231901604485015290611e64565b03601f198101835282611dcd565b51915af461229b612135565b9015612447578051156123f357805181019060208181840193031261132c576020810151906001600160401b03821161132c57019080603f8301121561132c5760208201516122e981611df0565b926122f76040519485611dcd565b8184526020808086019360051b8301010192831161132c57604001905b8282106123e357505050818151036123a6575f5b828110612336575050509050565b61234081866120db565b5061234b81836120db565b51612354613dd5565b1061236157600101612328565b60405162461bcd60e51b815260206004820152601f60248201527f50726f6f6620697320626967676572207468616e20646966666963756c7479006044820152606490fd5b60405162461bcd60e51b8152602060048201526015602482015274092dcecc2d8d2c840e4cae6ead8e840d8cadccee8d605b1b6044820152606490fd5b8151815260209182019101612314565b60405162461bcd60e51b815260206004820152602660248201527f52616e646f6d5850726f78792e72756e2072657475726e656420656d707479206044820152651c995cdd5b1d60d21b6064820152608490fd5b60405162461bcd60e51b815260206004820152601760248201527614985b991bdb56141c9bde1e4b9c9d5b8819985a5b1959604a1b6044820152606490fd5b896124a08261249981612499818c6120db565b51946120db565b5160206124ac8361391b565b016124b78151612f7d565b9a338c606060018060a01b0391015116036128f05760208c015192831561289f57835f528760205260405f209260068401549d8e8c1061284f578f91875f526012860160205260405f209461251060ff875416156120ef565b896127df57509088939291519f61252d905b600388015490612049565b9161256a5f80516020614e6d83398151915254604051602081019182528b60408201526040815261255f606082611dcd565b5190209586926120db565b528c5f526003850160205260405f20549360018501851161180b578d905f80516020614c8d8339815191525460018701116127cc57805f525f80516020614b0d83398151915260205260405f208c5f5260205260ff60405f2054166127cc5761260c9184915f525f80516020614b0d83398151915260205260405f208d5f5260205260405f20600160ff19825416179055612604896131f6565b93848a6132d3565b6006811015611bf557600181036127b55750906020808361263161263e958a8c613589565b01510151908d88876139ee565b5f80516020614e6d8339815191525490438b1161180b5760405190602082019283528b40604083015287606083015289608083015260a082015260a0815261268760c082611dcd565b5190205f80516020614b2d833981519152556126a28a613d88565b9182548060018401145f1461277a575060078401908154916001830180931161180b5760019460039360029255016126dd8585018254612049565b90555b8b5f52016020520160405f205560016126f9858c6120db565b52600881015490600d81015495600b600a830154920154928a5f1981011161180b576001978b6127675f80516020614c0d833981519152937f32c9117442431c0bcfdbbef33bc9918d148ad082e0f38d70bbde857f01d225c8976020976040519586955f1901938c87612074565b0390a1604051908152a35b018b906121e0565b6001839492940111612792575b5060036001926126e0565b600281015490925f19821461180b57600193600285600394019101559250612787565b6242963960e51b5f526127c790611d0f565b60245ffd5b5050505050505050505060019150612772565b9f919392508f9051036127f9578f909261252d8994612522565b60405162461bcd60e51b815260206004820152602860248201527f416c6c20756e6974732073686f756c642062656c6f6e6720746f20746865207360448201526730b6b2903832b2b960c11b6064820152608490fd5b60405162461bcd60e51b815260206004820152602260248201527f436170616369747920636f6d6d69746d656e74206973206e6f74207374617274604482015261195960f21b6064820152608490fd5b60405162461bcd60e51b8152602060048201526024808201527f436f6d7075746520756e697420646f65736e2774206861766520636f6d6d69746044820152631b595b9d60e21b6064820152608490fd5b60405162461bcd60e51b815260206004820152602860248201527f4f6e6c7920636f6d707574652070656572206f776e65722063616e207375626d60448201526734ba10383937b7b360c11b6064820152608490fd5b835f80516020614ded833981519152555f80516020614b2d833981519152545f80516020614e6d833981519152556121be565b60405162461bcd60e51b815260206004820152601c60248201527b24b73b30b634b2103932b9bab63a103430b9b432b990373ab6b132b960211b6044820152606490fd5b60405162461bcd60e51b815260206004820152601b60248201527a24b73b30b634b2103637b1b0b6103737b731b2b990373ab6b132b960291b6044820152606490fd5b60405162461bcd60e51b815260206004820152600f60248201526e273790383937b7b3399033b4bb32b760891b6044820152606490fd5b60405190612a4482611d7b565b5f610140838281528260208201528260408201528260608201528260808201528260a08201528260c08201528260e082015282610100820152826101208201520152565b6006821015611bf55752565b516006811015611bf55790565b15612aa857565b60405162461bcd60e51b815260206004820152602c60248201527f4f6e6c792070726f76696465722063616e2072656d6f7665206361706163697460448201526b1e4818dbdb5b5a5d1b595b9d60a21b6064820152608490fd5b612b0a612e4f565b5f80516020614ded8339815191525403612b30575f80516020614e6d8339815191525490565b5f80516020614b2d8339815191525490565b15612b4957565b60405162461bcd60e51b815260206004820152605160248201527f436170616369747920636f6d6d69746d656e74206973206661696c656420616e60448201527f64206e6f7420656e6f7567682065706f6368732070617373656420746f2077696064820152701d1a191c985dc818dbdb1b185d195c985b607a1b608482015260a490fd5b90600160401b8111610f7657815491818155828210612bec57505050565b5f5260205f2091820191015b818110612c03575050565b5f8155600101612bf8565b604051612c1a81611d2a565b5f81525f6020820152505f80516020614dcd833981519152815f52602052610120612c4860405f2092612d52565b01805190919015612c8757612c70906014612c67845160108401612ea6565b93519101612ede565b60405191612c7d83611d2a565b8252602082015290565b9050612c91612e4f565b90612cab612ca160108301613f64565b9260148301614070565b5f905f60198401545b808210612cda575050612cd1612c70939260206015930151612049565b9101549061203c565b9092612cf4600191612ced8686516120db565b5190612049565b930190612cb4565b15612d0357565b60405162461bcd60e51b815260206004820152602160248201527f436170616369747920636f6d6d69746d656e7420646f65736e277420657869736044820152601d60fa1b6064820152608490fd5b612d5a612a37565b505f80516020614dcd833981519152905f5260205260405f206001810154612d83811515612cfc565b612d8b612e4f565b91600681015492600382015490612da28286612049565b91612dc2612daf86612f7d565b93612db9866131f6565b938585886132d3565b95612dd7604060028701549501519282612049565b90600486015492602060018060a01b0360058901541695015195600d6020604089015198015198015498612e176040519b612e118d611d7b565b8c612a88565b60208b015260408a01526060890152608088015260a087015260c086015260e085015261010084015261012083015261014082015290565b612e7f612e6a5f80516020614e8d833981519152544261203c565b5f80516020614ced8339815191525490612056565b6001018060011161180b5790565b8054821015611fad575f5260205f209060011b01905f90565b90612eb19082613f92565b905f8212612ed8576001612eca612ed593828401612e8d565b50015490549061203c565b90565b50505f90565b60016020612eef612ed59484614070565b01519101549061203c565b5f80516020614dcd833981519152905f52602052612ed560405f20612f2d6001820154612f28811515612cfc565b612f7d565b612f36826131f6565b90612f3f612e4f565b91612f536006850154600386015490612049565b936132d3565b60405190612f6682611d97565b5f6060838281528260208201528260408201520152565b612f85612f59565b50805f525f80516020614aed83398151915260205260405f205415612ff5575f525f80516020614aed83398151915260205260405f2060405190612fc882611d97565b805482526001810154602083015260028101546040830152600301546001600160a01b0316606082015290565b60405162461bcd60e51b81526020600482015260126024820152711419595c88191bd95cdb89dd08195e1a5cdd60721b6044820152606490fd5b5f527f88681cafafd55573d275926fd208ef2ba36c6dd5169e88841d4bc9bcd225302460205260405f20604051808260208294549384815201905f5260205f20925f5b818110613087575050612ed592500382611dcd565b8454835260019485019486945060209093019201613072565b5f80516020614e0d8339815191525c6130c65760015f80516020614e0d8339815191525d565b633ee5aeb560e01b5f5260045ffd5b5f60806040516130e481611db2565b82815282602082015282604082015282606082015201525f527f88681cafafd55573d275926fd208ef2ba36c6dd5169e88841d4bc9bcd225302060205260405f2060018060a01b0381541690811561317e57600281015460038201546004830154600590930154604051949093926001600160a01b03169061316586611db2565b8552602085015260408401526060830152608082015290565b60405162461bcd60e51b815260206004820152601a60248201527913d999995c8e881bd999995c88191bd95cdb89dd08195e1a5cdd60321b6044820152606490fd5b604051906131cd82611d45565b5f60c0838281528260208201528260408201528260608201528260808201528260a08201520152565b9060405161320381611d2a565b61320b6131c0565b815260c080602083019261321d6131c0565b84526007819661323260ff8254168451612a88565b600c8101546020845101526008810154604084510152600a810154606084510152600b810154608084510152600981015460a0845101520154828251015261328461327d8251612a94565b8551612a88565b60208151015160208551015260408151015160408551015260608151015160608551015260808151015160808551015260a08151015160a08551015251015191510152565b8115612060570690565b9192939060200192835151916006831015611bf55760a085510151925f1987019680881161180b5760068896015480155f1461331757505050505050505050600290565b1161357d5760018114801590613573575b61356957506001955f19820191821161180b5781111561355e575b507f8984d2d0d7a9f2f70f22692c7c8344aa50cbed8c00a03c924457a31793ee8fdb54845192606084015192608085015160408601519560c087910151945f93868811613542575b6040015161339891612029565b946133be836133b96133aa888d61203c565b6133b4838c612049565b612029565b61203c565b808210613525575b505084871015613446575b505050505050604083510152815160808101519081613427575b50506006831015611bf5575f9160c09160018503613410575b60a08251015251015290565b83606083510152613422858351612a88565b613404565b60606134369101918251612049565b90525f6080835101525f806133eb565b909294985083613459929496509561203c565b60049790929083821061349a575050505060018101809111613487576020845101525b5f80808080806133d1565b601185634e487b7160e01b5f525260245ffd5b6134ad926134a791612049565b9261203c565b906134b88183612056565b806001019182600111613512576134d09083946132c9565b6134eb575b50506134e091612049565b60208451015261347c565b600201915081106134ff576134e05f6134d5565b601186634e487b7160e01b5f525260245ffd5b601189634e487b7160e01b5f525260245ffd5b61353a9298916135349161203c565b90612049565b955f806133c6565b9350613398906040613554888a61203c565b959192505061338b565b5f9550925084613343565b9550505050505090565b5083871115613328565b50505050505050600390565b916135948151612a94565b9260208201936135a48551612a94565b906006821015611bf5576006811015611bf557036136c6575b506135c88151612a94565b6135d28451612a94565b906006821015611bf5576006811015611bf5570361369f575b60c080915160208101519451946020860151809103613694575b5060408101516040860151809103613689575b506060810151606086015180910361367e575b5060808101516080860151809103613673575b5060a081015160a0860151809103613668575b500151920151809203613662575050565b60070155565b60098501555f613651565b600b8501555f61363e565b600a8501555f61362b565b60088501555f613618565b600c8501555f613605565b6136a98351612a94565b6006811015611bf557825460ff191660ff919091161782556135eb565b6136db82516080606082015191015190612049565b906136e68551612a94565b6006811015611bf5576004036137565790613750917f1ec6d9e2b340c6cc9d5b6690a2d2a1558f252aa30668b45dbdb83bb7728984f260208088510151604051908152a2611b045f80516020614c6d833981519152915f80516020614c2d8339815191525461203c565b5f6135bd565b506137618451612a94565b6006811015611bf55715613776575b50613750565b6137a090611b045f80516020614c6d833981519152915f80516020614c2d8339815191525461203c565b5f613770565b91906137b29083613f92565b915f83126137e6576137e26137db6137ce600195868501612e8d565b508354958691015461203c565b8094612049565b9055565b505f9150565b6001600160a01b03165f80808085856185fcf1613807612135565b5015613811575050565b5f8080808560018060a01b035f80516020614d2d83398151915254165af1613837612135565b50156138c8575f60209160018060a01b035f80516020614d2d833981519152541693604051908482019263a9059cbb60e01b84526024830152604482015260448152613884606482611dcd565b519082855af1156138bd575f513d6138b45750803b155b6138a25750565b635274afe760e01b5f5260045260245ffd5b6001141561389b565b6040513d5f823e3d90fd5b60405162461bcd60e51b815260206004820152602560248201527f4c696253656e6456616c75653a206661696c6564207772617020464c5420746f6044820152640815d1931560da1b6064820152608490fd5b613923612f59565b50805f525f80516020614d8d833981519152602052600160405f20015415613996575f525f80516020614d8d83398151915260205260405f2060036040519161396b83611d97565b80546001600160a01b0316835260018101546020840152600281015460408401520154606082015290565b60405162461bcd60e51b815260206004820152602a60248201527f676574436f6d70757465556e69743a20436f6d7075746520756e697420646f656044820152691cdb89dd08195e1a5cdd60b21b6064820152608490fd5b92939190915f80516020614dcd833981519152835f5260205260405f20945f19830192831161180b578260ff865416613d46575f19820191821161180b578110613d80575b5080151580613d77575b613d6f575b5060018301928354938415613d57575b84831115613d4f57829055815f525f80516020614d4d8339815191526020526001840180941161180b5760030193835f528460205260405f2054845f525f80516020614d4d83398151915260205260405f2080548210613d4657600201548015613d4657613ac6613acb926133b48861448a565b612056565b9283613ae3575b505050505f526020525f6040812055565b5f80516020614b6d83398151915254915f80516020614d0d83398151915254936010613b396011840193613b30613b1c8987549b612056565b94613534613b2a8a836132c9565b8a61203c565b92839101613f92565b945f19861480613d3d575b613cde575f925f87121580613cca575b613ca9575b5f965b888810613b6e57505050505050613ad2565b6001880180891161180b57613b839083612029565b945f82121580613ca0575b15613bfa5750613bf18180897f86c93961d1a070b7b56fd1214cf06ccc18a89a3869681be8b74533f85ddc82606020613be58b6001613bcf8f9a829b612e8d565b5001613bdd81549e8f612049565b90558c612049565b604051908152a361453e565b975b0196613b5c565b949097613c10613c0a8286612029565b86612049565b613c1a8388612049565b60405190613c2782611d2a565b8282526020820152885490600160401b821015610f7657613c51826001613c5794018c558b612e8d565b90614261565b87545f19810190811161180b57897fd2337a844680345b0a7ba3392e6ddbbf8ff6e72cc99a633764c322c920576b7a6020613c946001978c612049565b604051908152a4613bf3565b508a8212613b8e565b959250613cc46001613cbb8587612e8d565b5001549361453e565b95613b59565b5082613cd68887612e8d565b505410613b54565b60405162461bcd60e51b815260206004820152603160248201527f56657374696e673a20737461727445706f63682069732062656c6f77207468616044820152706e20616c6c207365656e2065706f63687360781b6064820152608490fd5b50871515613b44565b50505050505050565b505050505050565b935060068501545f19810190811161180b5793613a52565b90505f613a42565b50808211613a3d565b91505f613a33565b5f525f80516020614d4d83398151915260205260405f20908154613dd3575f80516020614d6d8339815191525482555f80516020614c8d8339815191525460018301555f6002830155565b565b613ddd612e4f565b7f8984d2d0d7a9f2f70f22692c7c8344aa50cbed8c00a03c924457a31793ee8fe0541115613e2a577f8984d2d0d7a9f2f70f22692c7c8344aa50cbed8c00a03c924457a31793ee8fde5490565b7f8984d2d0d7a9f2f70f22692c7c8344aa50cbed8c00a03c924457a31793ee8fdf5490565b9091600f82019283549260ff8416613f5d577fed936607000ae116b16994b38bb5f5f4651eab9f6487adedf146d92388bb7c6f94600160609560ff191617905562989680613ee8613ec060018060a01b03600585015416946008613eb860028701549283612029565b950154612029565b7f8984d2d0d7a9f2f70f22692c7c8344aa50cbed8c00a03c924457a31793ee8fd95490612029565b0480821015613f475750613efe5f8092936137ec565b7fc8fcad8db84d3cc18b4c41d551ea0ee66dd599cde068d998e57d5e09332c132054613f349083906001600160a01b03166137ec565b60405192835260208301526040820152a1565b90613f5582613efe9261203c565b8092936137ec565b5050505050565b600181019081548015613f8b575f19810190811161180b57612eca600191612ed594612e8d565b5050505f90565b60010180545f199392908015614034575f905f19810190811161180b57929190925b80841115613fc25750505050565b90919294613fd08287612049565b60011c95613fde8786612e8d565b50548085111561400057505050846001810180911161180b575b929190613fb4565b91969092509083101561402d578061401c57505f199450505050565b5f19810190811161180b5790613ff8565b9450505050565b505050565b90602082549182815201915f5260205f20905f5b81811061405a5750505090565b825484526020909301926001928301920161404d565b9060405161407d81611d2a565b606081525f6020820152506040519161409583611d2a565b6040516140b0816140a98160068601614039565b0382611dcd565b83526007810154916020840192835260088201549081811461425a576140d6828261203c565b91815f1981011161180b5761414191614137916140f35f91614631565b5f80516020614ccd8339815191525f80516020614bcd8339815191525491828111614246575b508054831061423b575b506133b96141319293614631565b90614667565b6003840154612029565b91670de0b6b3a7640000830292808404670de0b6b3a7640000149015171561180b5761417f6005655af3107a40006141889504920154809284614552565b93908551612049565b84525f5b81811061419b57505050505090565b80836001921061421e575b826141b18583612049565b101561420c576141cc87516141c68684612049565b906120db565b516141d88289516120db565b525b6141e481866120db565b51614205826141ff8a51936141f983866120db565b51612049565b926120db565b520161418c565b5f6142188289516120db565b526141da565b61423461422c8289516120db565b518751612049565b86526141a6565b5491506133b9614123565b614253919350829061203c565b915f614119565b5050505090565b9190614277576020816001925184550151910155565b634e487b7160e01b5f525f60045260245ffd5b614292612e4f565b5f80516020614b4d83398151915254908315614484575f1982019282841161180b576142cb845f80516020614b4d833981519152612e8d565b508054831495908615614469575060028410613d4f57600119840184811161180b57670de0b6b3a764000091613ac66001614316614321945f80516020614b4d833981519152612e8d565b500154945b85612029565b047f8984d2d0d7a9f2f70f22692c7c8344aa50cbed8c00a03c924457a31793ee8fe154105f14614446576289544081029080820462895440149015171561180b57629896809004935b7f8984d2d0d7a9f2f70f22692c7c8344aa50cbed8c00a03c924457a31793ee8fe2547f8984d2d0d7a9f2f70f22692c7c8344aa50cbed8c00a03c924457a31793ee8fe3549080871061443e575b50808611614436575b50156143e65750506143e16001915f80516020614b4d833981519152612e8d565b500155565b915091604051916143f683611d2a565b82526020820152600160401b821015610f7657613c51826001613dd394015f80516020614b4d833981519152555f80516020614b4d833981519152612e8d565b94505f6143c0565b95505f6143b7565b62a7d8c081029080820462a7d8c0149015171561180b576298968090049361436a565b670de0b6b3a764000091613ac660016143219301549461431b565b50505050565b5f80516020614b4d833981519152545f91905f19810190811161180b575f925b818111156144b85750505090565b6144c28282612049565b60011c936144dd855f80516020614b4d833981519152612e8d565b509182548086115f1461451257505050600101549260018101809111156144aa57634e487b7160e01b5f52601160045260245ffd5b9195909350919084101561453257505f19810190811161180b57906144aa565b60010154949350505050565b6001600160ff1b03811461180b5760010190565b9291908015614621578161456591612056565b5f6145708584614827565b8581809711614610575b506001019081861161180b576133b483916135348661459c6145a5968b612029565b60011c92612029565b916145af8161209c565b945f5b8281106145c157505050509190565b826145cc8284612049565b10156145f1575b6001906145e08584612029565b6145ea828a6120db565b52016145b2565b9080158015614602575b50906145d3565b61180b575f190160016145fb565b61461a925061203c565b845f61457a565b5061462d91925061209c565b5f91565b5f80516020614e8d833981519152545f80516020614ced833981519152545f19830192831161180b57612ed59261353491612029565b905f80516020614ccd8339815191526146925f80516020614bcd833981519152546133b48142612056565b8210156147ce5782905411614755578082116146ed576146bd906146b58361484e565b92909161484e565b9092908284036146d45750505050612ed590614951565b612ed594506146e792916134a79161203c565b90612056565b60405162461bcd60e51b815260206004820152605a60248201525f80516020614c4d83398151915260448201525f80516020614dad8339815191526064820152790732067726561746572207468616e20746f54696d657374616d760341b608482015260a490fd5b60405162461bcd60e51b815260206004820152606560248201525f80516020614c4d83398151915260448201525f80516020614dad83398151915260648201527f73206c6f776572207468616e206669727374207265636f726465642074696d6560848201526407374616d760dc1b60a482015260c490fd5b60405162461bcd60e51b815260206004820152602b60248201527f4d65616e2070726963652063616e206368616e676520696e207375676765737460448201526a1959081a5b9d195c9d985b60aa1b6064820152608490fd5b9080821015614834575090565b905090565b8054821015611fad575f5260205f2001905f90565b905f80516020614ccd8339815191525491614869838261203c565b6148825f80516020614bcd833981519152548092612056565b937f62e26dda6281f8a7bde8d0de6ef3dc4300cca63258b4641529b5bae7dc08902854918286105f146148d457505050506148ca825f80516020614e2d833981519152614839565b90549060031b1c90565b613ac66133b9926148e49561203c565b6001810180911161180b575f80516020614bad83398151915254801561206057655af3107a4000045f80516020614e2d833981519152545f19810190811161180b57612ed592614944613534925f80516020614e2d833981519152614839565b90549060031b1c92612029565b5f80516020614ccd8339815191525490808211614a615761498a916149759161203c565b5f80516020614bcd8339815191525490612056565b5f80516020614e2d83398151915254811015614a405780156149f6576149bd815f80516020614e2d833981519152614839565b90549060031b1c5f19820191821161180b576149e9612ed5925f80516020614e2d833981519152614839565b90549060031b1c9061203c565b505f80516020614e2d8339815191525415611fad575f80516020614e2d8339815191525f527fd4d5257edb89e07e8d010c6ff96326eddf1fc220d3213e3ef3ddd6c1b3b706415490565b505f80516020614bad83398151915254801561206057655af3107a40000490565b60405162461bcd60e51b815260206004820152605760248201527f4c69624f7261636c6550726963652e6765745265765072696365417454696d6560448201527f7374616d703a2074696d657374616d70206973206c6f776572207468616e2066606482015276069727374207265636f726465642074696d657374616d7604c1b608482015260a490fdfe88681cafafd55573d275926fd208ef2ba36c6dd5169e88841d4bc9bcd2253021a8de0abb18de6e730ac24d7fe02c877d293683811fc3ac5d8e62e2a52c0d20d9a8de0abb18de6e730ac24d7fe02c877d293683811fc3ac5d8e62e2a52c0d20db8984d2d0d7a9f2f70f22692c7c8344aa50cbed8c00a03c924457a31793ee8fe68984d2d0d7a9f2f70f22692c7c8344aa50cbed8c00a03c924457a31793ee8fe44e756d626572206f6620756e69747320696e20706565722073686f756c64206262e26dda6281f8a7bde8d0de6ef3dc4300cca63258b4641529b5bae7dc08902a62e26dda6281f8a7bde8d0de6ef3dc4300cca63258b4641529b5bae7dc0890278984d2d0d7a9f2f70f22692c7c8344aa50cbed8c00a03c924457a31793ee8fdabd5605b4405616555ea2583cbd913ecf346c52c37520187117aadcea54e7d1498984d2d0d7a9f2f70f22692c7c8344aa50cbed8c00a03c924457a31793ee8fd24c69624f7261636c6550726963652e6765744d65616e526576507269636542658984d2d0d7a9f2f70f22692c7c8344aa50cbed8c00a03c924457a31793ee8fd18984d2d0d7a9f2f70f22692c7c8344aa50cbed8c00a03c924457a31793ee8fdd5265776172642064656c65676174696f6e20726174652073686f756c6420626562e26dda6281f8a7bde8d0de6ef3dc4300cca63258b4641529b5bae7dc0890267d4f8ec43464738265ced6b7ed5f90007e9b7c34318bdd82d9249328b50bd3588984d2d0d7a9f2f70f22692c7c8344aa50cbed8c00a03c924457a31793ee8fe5963aedb451d774c98792f8f69a17e9461c48a04caa71aa32eb23bd42fb81ab5da8de0abb18de6e730ac24d7fe02c877d293683811fc3ac5d8e62e2a52c0d20d88984d2d0d7a9f2f70f22692c7c8344aa50cbed8c00a03c924457a31793ee8fdc88681cafafd55573d275926fd208ef2ba36c6dd5169e88841d4bc9bcd2253022747765656e54696d657374616d70733a2066726f6d54696d657374616d702069a8de0abb18de6e730ac24d7fe02c877d293683811fc3ac5d8e62e2a52c0d20d7a8de0abb18de6e730ac24d7fe02c877d293683811fc3ac5d8e62e2a52c0d20dc9b779b17422d0df92223018b32b4d1fa46e071723d6817e2486d003becc55f0062e26dda6281f8a7bde8d0de6ef3dc4300cca63258b4641529b5bae7dc089029a8de0abb18de6e730ac24d7fe02c877d293683811fc3ac5d8e62e2a52c0d20dda8de0abb18de6e730ac24d7fe02c877d293683811fc3ac5d8e62e2a52c0d20da7d4f8ec43464738265ced6b7ed5f90007e9b7c34318bdd82d9249328b50bd357a26469706673582212204c9362c789d0ab0d75e295606313e23922c9203648ecc237eb0c425da2c8cff464736f6c634300081a0033","linkReferences":{}},"methodIdentifiers":{"createCommitment(bytes32,uint256,address,uint256)":"886f0e87","depositCollateral(bytes32[])":"3d5f526c","diamondReceive()":"77fc1b6a","finishCommitment(bytes32)":"ea03ef52","getCommitment(bytes32)":"7795820c","getGlobalNonce()":"92163b4b","getProofCounts(bytes32)":"c9b824c2","getRewardBalance()":"5e42b455","getRewardInfo(uint256)":"243d3827","getStatus(bytes32)":"5de28ae0","getUnitExitStatuses(bytes32)":"8c3e717a","removeCUFromCC(bytes32,bytes32[])":"8e7af1d1","removeCommitment(bytes32)":"d6a1c7f8","submitProof(bytes32,bytes32,bytes32)":"4ece5685","submitProofs(bytes32[],bytes32[],bytes32[])":"64b75e31","totalRewards(bytes32)":"de644849","unlockedRewards(bytes32)":"3d081790","withdrawCollateral(bytes32)":"d3cde344","withdrawReward(bytes32)":"474b5809","withdrawnRewards(bytes32)":"88af96c4"},"storageLayout":{"storage":[],"types":{}},"devdoc":{"version":1,"kind":"dev","methods":{"createCommitment(bytes32,uint256,address,uint256)":{"details":"Creates a new commitment","params":{"delegator":"The delegator address. If address is zero, the commitment has no delegator","duration":"The duration of the commitment in Epochs","peerId":"Peer id which linked to the commitment","rewardDelegationRate":"The reward delegation rate in precision"}},"depositCollateral(bytes32[])":{"details":"Deposits collateral for commitments. It makes commitments activeNote: this method consists of indirect potential delegator address update(set delegator to msg.sender if 0x0 before).","params":{"commitmentIds":"Commitment ids"}},"diamondReceive()":{"details":"to add reward balance by msg.value"},"finishCommitment(bytes32)":{"details":"Finishes the commitment if it is in Failed or Ended status","params":{"commitmentId":"Commitment id"}},"getCommitment(bytes32)":{"details":"Returns the commitment info","params":{"commitmentId":"Commitment id"},"returns":{"_0":"info commitment info"}},"getProofCounts(bytes32)":{"details":"Returns proof counts for each CU in current epoch","params":{"commitmentId":"Commitment id"},"returns":{"counts":"proof numbers sent in current epoch","unitIds":"unit ids"}},"getRewardBalance()":{"details":"Returns balance of the reward pool"},"getStatus(bytes32)":{"details":"Returns the commitment status","params":{"commitmentId":"Commitment id"},"returns":{"_0":"status commitment status"}},"getUnitExitStatuses(bytes32)":{"details":"Returns list of units wth exited units marked","params":{"commitmentId":"Commitment id"},"returns":{"isExited":"if unit has exited the cc via removeCUFromCC function","unitIds":"unit ids"}},"removeCUFromCC(bytes32,bytes32[])":{"details":"Remove CU from Ended or Failed CC. Need to call this function before finish the commitment","params":{"commitmentId":"Commitment id","unitIds":"Compute unit ids which will be removed from the commitment"}},"removeCommitment(bytes32)":{"details":"Removes the commitment if it is in WaitDelegation status","params":{"commitmentId":"Commitment id"}},"submitProof(bytes32,bytes32,bytes32)":{"details":"Submits a proof for the commitment","params":{"localUnitNonce":"Local nonce of the unit for calculating the target hash. It's the proof","resultHash":"Target hash of this proof","unitId":"Compute unit id which provide the proof"}},"submitProofs(bytes32[],bytes32[],bytes32[])":{"details":"Submits proofs for the commitment","params":{"localUnitNonces":"Local nonces of the units for calculating the target hashes. It's the proof","resultHashes":"Target hashes of this proof","unitIds":"Compute unit ids which provide the proof"}},"totalRewards(bytes32)":{"details":"Returns the total rewards of the commitment.","params":{"commitmentId":"Commitment id"},"returns":{"_0":"CCRewardsView Returns the total rewards of the commitment minus withdrawn rewards."}},"unlockedRewards(bytes32)":{"details":"Returns the unlocked rewards of the commitment","params":{"commitmentId":"Commitment id"},"returns":{"_0":"CCRewardsView the unlocked rewards of the commitment minus withdrawn rewards."}},"withdrawCollateral(bytes32)":{"details":"Withdraws the collateral from the commitment. Commitment must be Failed or Inactive.","params":{"commitmentId":"Commitment id"}},"withdrawReward(bytes32)":{"details":"Withdraws the reward from the commitment","params":{"commitmentId":"Commitment id"}},"withdrawnRewards(bytes32)":{"details":"Returns rewards withdrawn from the commitment","params":{"commitmentId":"Commitment id"},"returns":{"_0":"CCRewardsView rewards withdrawn from the commitment"}}},"events":{"CollateralDeposited(bytes32,address,uint256)":{"details":"Emitted when a delegator deposited collateral to commitment","params":{"commitmentId":"Commitment id","totalCollateral":"The total collateral deposited to commitment"}},"CollateralWithdrawn(bytes32,uint256,uint256)":{"details":"Emitted when a someone withdraws deposited collateral from commitment","params":{"amountSlashed":"The slashed part of the collateral","amountWithdrawn":"The returned part of the collateral after slashing","commitmentId":"Commitment id"}},"CommitmentActivated(bytes32,bytes32,uint256,uint256,bytes32[])":{"details":"Emitted when a commitment is activated. Commitment can be activated only if delegator deposited collateral.","params":{"commitmentId":"Commitment id which activated","endEpoch":"The end epoch of the commitment","peerId":"Peer id which linked to the commitment","startEpoch":"The start epoch of the commitment","unitIds":"Compute unit ids which linked to the commitment"}},"CommitmentCreated(bytes32,bytes32,uint256,address,uint256,uint256)":{"details":"Emitted when a new commitment is created","params":{"commitmentId":"Commitment id","delegator":"The delegator address. If address is zero, the commitment has no delegator","duration":"The duration of the commitment in Epochs","fltCollateralPerUnit":"The flt collateral per compute unit","peerId":"Peer id which linked to the commitment","rewardDelegationRate":"The reward delegation rate in precision"}},"CommitmentFinished(bytes32)":{"details":"Emitted when a commitment is finished. Commitment can be finished only if it is in Failed or Ended","params":{"commitmentId":"Commitment id which finished"}},"CommitmentRemoved(bytes32)":{"details":"Emitted when a commitment is removed. Commitment can be removed only if it is in WaitDelegation status","params":{"commitmentId":"Commitment id"}},"ProofSubmitted(bytes32,bytes32,bytes32)":{"details":"Emitted when a proof is submitted","params":{"commitmentId":"Commitment id","localUnitNonce":"The local nonce of the unit for calculating the target hash","unitId":"Compute unit id which linked to the proof"}},"ProofsConfirmed(bytes32,bytes32[],bool[])":{"details":"Emitted in proof submission","params":{"confirmed":"Confirmation status of the proofs","unitIds":"Compute unit ids"}},"RewardWithdrawn(bytes32,uint256,uint256)":{"details":"Emitted when a reward is withdrawn","params":{"commitmentId":"Commitment id","dealStakerRewardsAmount":"The amount withdrawn for staker (with deal reward)","providerReward":"The amount withdrawn for provider"}},"UnitActivated(bytes32,bytes32,uint256)":{"details":"Emitted when a unit activated. Unit is activated when it returned from deal","params":{"commitmentId":"Commitment id","unitId":"Compute unit id which activated"}},"UnitDeactivated(bytes32,bytes32)":{"details":"Emitted when a unit deactivated. Unit is deactivated when it moved to deal","params":{"commitmentId":"Commitment id","unitId":"Compute unit id which deactivated"}}},"errors":{"CapacityCommitmentIsNotActive(uint8)":[{"details":"Capacity commitment is not active"}],"InvalidCCStatus(uint8)":[{"details":"Invalid CC status"}],"ReentrancyGuardReentrantCall()":[{"details":"Unauthorized reentrant call."}],"SafeERC20FailedOperation(address)":[{"details":"An operation with an ERC-20 token failed."}]}},"id":129}