{"abi":[{"type":"function","name":"addBootstrapNode","inputs":[{"name":"netAddress","type":"string","internalType":"string"}],"outputs":[],"stateMutability":"nonpayable"},{"type":"function","name":"claim","inputs":[],"outputs":[],"stateMutability":"nonpayable"},{"type":"function","name":"confirmChange","inputs":[{"name":"_configurationNumber","type":"uint64","internalType":"uint64"}],"outputs":[],"stateMutability":"nonpayable"},{"type":"function","name":"confirmNextChange","inputs":[],"outputs":[],"stateMutability":"nonpayable"},{"type":"function","name":"join","inputs":[{"name":"publicKey","type":"bytes","internalType":"bytes"}],"outputs":[],"stateMutability":"payable"},{"type":"function","name":"kill","inputs":[],"outputs":[],"stateMutability":"nonpayable"},{"type":"function","name":"leave","inputs":[],"outputs":[],"stateMutability":"nonpayable"},{"type":"function","name":"pause","inputs":[],"outputs":[],"stateMutability":"nonpayable"},{"type":"function","name":"paused","inputs":[],"outputs":[{"name":"","type":"bool","internalType":"bool"}],"stateMutability":"view"},{"type":"function","name":"preFund","inputs":[],"outputs":[],"stateMutability":"payable"},{"type":"function","name":"preRelease","inputs":[{"name":"amount","type":"uint256","internalType":"uint256"}],"outputs":[],"stateMutability":"nonpayable"},{"type":"function","name":"setFederatedPower","inputs":[{"name":"validators","type":"address[]","internalType":"address[]"},{"name":"publicKeys","type":"bytes[]","internalType":"bytes[]"},{"name":"powers","type":"uint256[]","internalType":"uint256[]"}],"outputs":[],"stateMutability":"nonpayable"},{"type":"function","name":"stake","inputs":[],"outputs":[],"stateMutability":"payable"},{"type":"function","name":"submitCheckpoint","inputs":[{"name":"checkpoint","type":"tuple","internalType":"struct BottomUpCheckpoint","components":[{"name":"subnetID","type":"tuple","internalType":"struct SubnetID","components":[{"name":"root","type":"uint64","internalType":"uint64"},{"name":"route","type":"address[]","internalType":"address[]"}]},{"name":"blockHeight","type":"uint256","internalType":"uint256"},{"name":"blockHash","type":"bytes32","internalType":"bytes32"},{"name":"nextConfigurationNumber","type":"uint64","internalType":"uint64"},{"name":"msgs","type":"tuple[]","internalType":"struct IpcEnvelope[]","components":[{"name":"kind","type":"uint8","internalType":"enum IpcMsgKind"},{"name":"to","type":"tuple","internalType":"struct IPCAddress","components":[{"name":"subnetId","type":"tuple","internalType":"struct SubnetID","components":[{"name":"root","type":"uint64","internalType":"uint64"},{"name":"route","type":"address[]","internalType":"address[]"}]},{"name":"rawAddress","type":"tuple","internalType":"struct FvmAddress","components":[{"name":"addrType","type":"uint8","internalType":"uint8"},{"name":"payload","type":"bytes","internalType":"bytes"}]}]},{"name":"from","type":"tuple","internalType":"struct IPCAddress","components":[{"name":"subnetId","type":"tuple","internalType":"struct SubnetID","components":[{"name":"root","type":"uint64","internalType":"uint64"},{"name":"route","type":"address[]","internalType":"address[]"}]},{"name":"rawAddress","type":"tuple","internalType":"struct FvmAddress","components":[{"name":"addrType","type":"uint8","internalType":"uint8"},{"name":"payload","type":"bytes","internalType":"bytes"}]}]},{"name":"nonce","type":"uint64","internalType":"uint64"},{"name":"value","type":"uint256","internalType":"uint256"},{"name":"message","type":"bytes","internalType":"bytes"}]}]},{"name":"signatories","type":"address[]","internalType":"address[]"},{"name":"signatures","type":"bytes[]","internalType":"bytes[]"}],"outputs":[],"stateMutability":"nonpayable"},{"type":"function","name":"unpause","inputs":[],"outputs":[],"stateMutability":"nonpayable"},{"type":"function","name":"unstake","inputs":[{"name":"amount","type":"uint256","internalType":"uint256"}],"outputs":[],"stateMutability":"nonpayable"},{"type":"function","name":"validateActiveQuorumSignatures","inputs":[{"name":"signatories","type":"address[]","internalType":"address[]"},{"name":"hash","type":"bytes32","internalType":"bytes32"},{"name":"signatures","type":"bytes[]","internalType":"bytes[]"}],"outputs":[],"stateMutability":"view"},{"type":"event","name":"ActiveValidatorCollateralUpdated","inputs":[{"name":"validator","type":"address","indexed":false,"internalType":"address"},{"name":"newPower","type":"uint256","indexed":false,"internalType":"uint256"}],"anonymous":false},{"type":"event","name":"ActiveValidatorLeft","inputs":[{"name":"validator","type":"address","indexed":false,"internalType":"address"}],"anonymous":false},{"type":"event","name":"ActiveValidatorReplaced","inputs":[{"name":"oldValidator","type":"address","indexed":false,"internalType":"address"},{"name":"newValidator","type":"address","indexed":false,"internalType":"address"}],"anonymous":false},{"type":"event","name":"CollateralClaimed","inputs":[{"name":"validator","type":"address","indexed":false,"internalType":"address"},{"name":"amount","type":"uint256","indexed":false,"internalType":"uint256"}],"anonymous":false},{"type":"event","name":"ConfigurationNumberConfirmed","inputs":[{"name":"number","type":"uint64","indexed":false,"internalType":"uint64"}],"anonymous":false},{"type":"event","name":"NewActiveValidator","inputs":[{"name":"validator","type":"address","indexed":false,"internalType":"address"},{"name":"power","type":"uint256","indexed":false,"internalType":"uint256"}],"anonymous":false},{"type":"event","name":"NewCollateralRelease","inputs":[{"name":"validator","type":"address","indexed":false,"internalType":"address"},{"name":"amount","type":"uint256","indexed":false,"internalType":"uint256"},{"name":"releaseBlock","type":"uint256","indexed":false,"internalType":"uint256"}],"anonymous":false},{"type":"event","name":"NewStakingChangeRequest","inputs":[{"name":"op","type":"uint8","indexed":false,"internalType":"enum StakingOperation"},{"name":"validator","type":"address","indexed":false,"internalType":"address"},{"name":"payload","type":"bytes","indexed":false,"internalType":"bytes"},{"name":"configurationNumber","type":"uint64","indexed":false,"internalType":"uint64"}],"anonymous":false},{"type":"event","name":"NewWaitingValidator","inputs":[{"name":"validator","type":"address","indexed":false,"internalType":"address"},{"name":"power","type":"uint256","indexed":false,"internalType":"uint256"}],"anonymous":false},{"type":"event","name":"Paused","inputs":[{"name":"account","type":"address","indexed":false,"internalType":"address"}],"anonymous":false},{"type":"event","name":"SubnetBootstrapped","inputs":[{"name":"","type":"tuple[]","indexed":false,"internalType":"struct Validator[]","components":[{"name":"weight","type":"uint256","internalType":"uint256"},{"name":"addr","type":"address","internalType":"address"},{"name":"metadata","type":"bytes","internalType":"bytes"}]}],"anonymous":false},{"type":"event","name":"Unpaused","inputs":[{"name":"account","type":"address","indexed":false,"internalType":"address"}],"anonymous":false},{"type":"event","name":"WaitingValidatorCollateralUpdated","inputs":[{"name":"validator","type":"address","indexed":false,"internalType":"address"},{"name":"newPower","type":"uint256","indexed":false,"internalType":"uint256"}],"anonymous":false},{"type":"event","name":"WaitingValidatorLeft","inputs":[{"name":"validator","type":"address","indexed":false,"internalType":"address"}],"anonymous":false},{"type":"error","name":"AddressInsufficientBalance","inputs":[{"name":"account","type":"address","internalType":"address"}]},{"type":"error","name":"AddressShouldBeValidator","inputs":[]},{"type":"error","name":"CannotConfirmFutureChanges","inputs":[]},{"type":"error","name":"CannotReleaseZero","inputs":[]},{"type":"error","name":"CollateralIsZero","inputs":[]},{"type":"error","name":"DuplicatedGenesisValidator","inputs":[]},{"type":"error","name":"EmptyAddress","inputs":[]},{"type":"error","name":"EnforcedPause","inputs":[]},{"type":"error","name":"ExpectedPause","inputs":[]},{"type":"error","name":"FailedInnerCall","inputs":[]},{"type":"error","name":"InvalidCheckpointEpoch","inputs":[]},{"type":"error","name":"InvalidFederationPayload","inputs":[]},{"type":"error","name":"InvalidPublicKeyLength","inputs":[]},{"type":"error","name":"InvalidSignatureErr","inputs":[{"name":"","type":"uint8","internalType":"uint8"}]},{"type":"error","name":"MaxMsgsPerBatchExceeded","inputs":[]},{"type":"error","name":"MethodNotAllowed","inputs":[{"name":"reason","type":"string","internalType":"string"}]},{"type":"error","name":"NoCollateralToWithdraw","inputs":[]},{"type":"error","name":"NotAllValidatorsHaveLeft","inputs":[]},{"type":"error","name":"NotEnoughBalance","inputs":[]},{"type":"error","name":"NotEnoughCollateral","inputs":[]},{"type":"error","name":"NotEnoughFunds","inputs":[]},{"type":"error","name":"NotEnoughGenesisValidators","inputs":[]},{"type":"error","name":"NotOwner","inputs":[]},{"type":"error","name":"NotOwnerOfPublicKey","inputs":[]},{"type":"error","name":"NotValidator","inputs":[{"name":"","type":"address","internalType":"address"}]},{"type":"error","name":"PQDoesNotContainAddress","inputs":[]},{"type":"error","name":"PQEmpty","inputs":[]},{"type":"error","name":"ReentrancyError","inputs":[]},{"type":"error","name":"SubnetAlreadyBootstrapped","inputs":[]},{"type":"error","name":"SubnetAlreadyKilled","inputs":[]},{"type":"error","name":"SubnetNotBootstrapped","inputs":[]},{"type":"error","name":"WithdrawExceedingCollateral","inputs":[]}],"bytecode":{"object":"0x608060405234801561001057600080fd5b5061501a806100206000396000f3fe6080604052600436106100fe5760003560e01c80635c975abb116100955780638456cb59116100645780638456cb5914610230578063c7ebdaef14610245578063cc2dc2b91461025a578063d66d9e191461027a578063da5d09ee1461028f57600080fd5b80635c975abb146101b45780636170b162146101dd57806366783c9b146101f057806379979f571461021057600080fd5b80633a4b66f1116100d15780633a4b66f11461016d5780633f4ba83a1461017557806341c0e1b51461018a5780634e71d92d1461019f57600080fd5b80630b7fbe601461010357806310fd42611461010d5780632e17de781461012d578063350a14bf1461014d575b600080fd5b61010b6102af565b005b34801561011957600080fd5b5061010b610128366004613a2e565b610393565b34801561013957600080fd5b5061010b610148366004613a7e565b610415565b34801561015957600080fd5b5061010b610168366004613aac565b61050d565b61010b610519565b34801561018157600080fd5b5061010b6105c1565b34801561019657600080fd5b5061010b6105d1565b3480156101ab57600080fd5b5061010b6106a5565b3480156101c057600080fd5b506101c96106f2565b604051901515815260200160405180910390f35b61010b6101eb366004613ac9565b610712565b3480156101fc57600080fd5b5061010b61020b366004613a7e565b61087d565b34801561021c57600080fd5b5061010b61022b366004613b7e565b610996565b34801561023c57600080fd5b5061010b610ae0565b34801561025157600080fd5b5061010b610af0565b34801561026657600080fd5b5061010b610275366004613cf9565b610b0a565b34801561028657600080fd5b5061010b610ba5565b34801561029b57600080fd5b5061010b6102aa366004613dc3565b610cde565b346000036102d057604051631036b5ad60e31b815260040160405180910390fd5b600554600160f81b900460ff16156102fb57604051631b39f2f360e11b815260040160405180910390fd5b336000908152601c6020526040812054900361035457601d80546001810182556000919091527f6d4407e7be21f808e6509aa9fa9143369579dd7d760fe20a2c09680fc146134f0180546001600160a01b031916331790555b336000908152601c602052604081208054349290610373908490613e72565b909155505060008054349190819061038c908490613e72565b9091555050565b61039b610db2565b6103a6600a33610de3565b6103ca57604051633b4f6e2b60e21b81523360048201526024015b60405180910390fd5b80516000036103ec57604051637138356f60e01b815260040160405180910390fd5b3360009081526017602052604090206104058282613f22565b50610411601833610dfb565b5050565b600080516020614f80833981519152805460001901610447576040516329f745a760e01b815260040160405180910390fd5b60018155610453610db2565b61045b610e10565b610463610e3b565b816000036104845760405163c79cad7b60e01b815260040160405180910390fd5b336000908152600c6020526040812060020154908190036104ba57604051633b4f6e2b60e21b81523360048201526024016103c1565b8281116104d95760405162d11df360e61b815260040160405180910390fd5b600554600160f81b900460ff166104fa576104f43384610e90565b50610506565b6105043384610ec4565b505b6000905550565b61051681610ee0565b50565b610521610db2565b610529610e10565b610531610e3b565b3460000361055257604051635a78c58160e11b815260040160405180910390fd5b61055b3361131f565b610592576040518060600160405280602e8152602001614f32602e913960405163015538b160e01b81526004016103c1919061402b565b600554600160f81b900460ff166105b7576105ad3334611342565b6105b561151c565b565b6105b5333461161f565b6105c961163b565b6105b5611688565b6105d9610e10565b6105e16116de565b61ffff161561060357604051636b62255160e11b815260040160405180910390fd5b600554600160f81b900460ff1661062d5760405163dfd06d8f60e01b815260040160405180910390fd5b6006805468ff00000000000000001916600160401b179055600554604080516341c0e1b560e01b815290516001600160a01b03909216916341c0e1b59160048082019260009290919082900301818387803b15801561068b57600080fd5b505af115801561069f573d6000803e3d6000fd5b50505050565b600080516020614f808339815191528054600019016106d7576040516329f745a760e01b815260040160405180910390fd5b600181556106e3610db2565b6106ec33611700565b60009055565b600061070d600080516020614f608339815191525460ff1690565b905090565b600080516020614f80833981519152805460001901610744576040516329f745a760e01b815260040160405180910390fd5b60018155610750610db2565b610758610e10565b600554600160f81b900460ff161561077257610772610e3b565b3460000361079357604051635a78c58160e11b815260040160405180910390fd5b61079c3361131f565b156107d457604051806060016040528060328152602001614ee06032913960405163015538b160e01b81526004016103c1919061402b565b604182146107f5576040516318dca5e960e21b815260040160405180910390fd5b60006108018484611759565b90506001600160a01b038116331461082c57604051634be9251d60e11b815260040160405180910390fd5b600554600160f81b900460ff1661085f57610848338585611799565b6108523334611342565b61085a61151c565b610874565b61086a3385856117a8565b610874333461161f565b50600090555050565b600080516020614f808339815191528054600019016108af576040516329f745a760e01b815260040160405180910390fd5b6001815560008290036108d557604051631036b5ad60e31b815260040160405180910390fd5b600554600160f81b900460ff161561090057604051631b39f2f360e11b815260040160405180910390fd5b336000908152601c60205260409020548211156109305760405163569d45cf60e11b815260040160405180910390fd5b336000908152601c60205260408120805484929061094f90849061403e565b909155505060008054839190819061096890849061403e565b9091555050336000908152601c6020526040812054900361098c5761098c336117b7565b61050633836118bd565b61099e610db2565b6109a785611954565b6000856040516020016109ba9190614243565b60408051601f1981840301815291905280516020909101206003546001549192506109e491613e72565b866020013503610ad857610a328585808060200260200160405190810160405280939291908181526020018383602002808284376000920191909152508592506102759150869050876143c4565b6020808701356000908152601a909152604090208690610a52828261495e565b5050602086013560015560055460405163fba0fa4d60e01b81526001600160a01b039091169063fba0fa4d90610a8c908990600401614243565b600060405180830381600087803b158015610aa657600080fd5b505af1158015610aba573d6000803e3d6000fd5b50610ad89250610ad39150506080880160608901613aac565b610ee0565b505050505050565b610ae861163b565b6105b56119ff565b6013546001600160401b0316610516610ad3600183614a57565b6000610b17600a85611a51565b90506000610b25600a611b62565b600554909150600090606490610b4590600160e01b900460ff1684614447565b610b4f9190614a77565b9050600080610b618886858a8a611bcd565b9150915081610b9b57806005811115610b7c57610b7c61413e565b60405163282ef1c160e01b815260ff90911660048201526024016103c1565b5050505050505050565b600080516020614f80833981519152805460001901610bd7576040516329f745a760e01b815260040160405180910390fd5b60018155610be3610db2565b610beb610e10565b600554600160f81b900460ff1615610c0557610c05610e3b565b336000908152600c602052604081206002015490819003610c3b57604051633b4f6e2b60e21b81523360048201526024016103c1565b610c46601833611d19565b50336000908152601760205260408120610c5f91613935565b600554600160f81b900460ff16610ccd57336000908152601c60205260409020548015610cbc57336000908152601c60205280548291908190610ca390849061403e565b90915550610cb29050336117b7565b610cbc33826118bd565b610cc63383610e90565b50506106ec565b610cd73382610ec4565b5060009055565b610ce6610e10565b73a69720798b23d82a6e4a7aeb1c043cd13cbb2c483314610d375760405162461bcd60e51b815260206004820152600b60248201526a2bb937b7339037bbb732b960a91b60448201526064016103c1565b610d3f611d2e565b848114610d5f57604051637e65935960e01b815260040160405180910390fd5b848314610d7f57604051637e65935960e01b815260040160405180910390fd5b600554600160f81b900460ff1615610da457610d9f868686868686611d37565b610ad8565b610ad8868686868686611e40565b600080516020614f608339815191525460ff16156105b55760405163d93c066560e01b815260040160405180910390fd5b6000610df260038401836121bc565b90505b92915050565b6000610df2836001600160a01b0384166121e2565b600654600160401b900460ff16156105b55760405163248c8efb60e11b815260040160405180910390fd5b6000805b600a82015460ff166002811115610e5857610e5861413e565b1461051657604051806080016040528060458152602001614fa06045913960405163015538b160e01b81526004016103c1919061402b565b6000610e9e600a8484612231565b610eac600a820184846122a1565b610ebf6001600160a01b038416836118bd565b505050565b6000610ed260138484612388565b610ebf600a82018484612231565b60138054600091906001600160401b0390811690841610610f145760405163040aaa0560e11b815260040160405180910390fd5b80546001600160401b03600160401b90910481169084161015610f3657505050565b8054600160401b90046001600160401b0316805b846001600160401b0316816001600160401b0316116112af576001600160401b0381166000908152600184016020526040812060028181015482549293506001600160a01b03169160ff166003811115610fa657610fa661413e565b03610fdb576001600160a01b0381166000908152600c870160205260409020600301610fd56001840182614a99565b5061129b565b6003825460ff166003811115610ff357610ff361413e565b036110dd5760008083600101805461100a90613e85565b80601f016020809104026020016040519081016040528092919081815260200182805461103690613e85565b80156110835780601f1061105857610100808354040283529160200191611083565b820191906000526020600020905b81548152906001019060200180831161106657829003601f168201915b505050505080602001905181019061109b9190614b65565b6001600160a01b0385166000908152600c8b016020526040902091935091506003016110c78382613f22565b506110d6600a890184836123f2565b505061129b565b60008260010180546110ee90613e85565b80601f016020809104026020016040519081016040528092919081815260200182805461111a90613e85565b80156111675780601f1061113c57610100808354040283529160200191611167565b820191906000526020600020905b81548152906001019060200180831161114a57829003601f168201915b505050505080602001905181019061117f9190614be5565b90506001835460ff1660038111156111995761119961413e565b0361121f576111ac600a880183836122a1565b6111ba601588018383612442565b60058701546040516345f5448560e01b8152600481018390526001600160a01b03909116906345f5448590602401600060405180830381600087803b15801561120257600080fd5b505af1158015611216573d6000803e3d6000fd5b50505050611299565b61122d600a880183836124d4565b8660050160009054906101000a90046001600160a01b03166001600160a01b0316635a627dbc826040518263ffffffff1660e01b81526004016000604051808303818588803b15801561127f57600080fd5b505af1158015611293573d6000803e3d6000fd5b50505050505b505b6112a58584612547565b5050600101610f4a565b506112bb846001614bfe565b82546fffffffffffffffff00000000000000001916600160401b6001600160401b039283160217835560405190851681527f246f00b61ce672242f33bb680a47147cd54d3dfd04dbb76956ba42f88087bf639060200160405180910390a150505050565b6001600160a01b0381166000908152600c60205260408120600201541515610df5565b6000611350600a848461258e565b61135e600a820184846124d4565b6005810154600160f81b900460ff16610ebf57601b810154600090815b818110156113d557856001600160a01b031684601b0182815481106113a2576113a2614c1e565b60009182526020909120600160039092020101546001600160a01b0316036113cd57600192506113d5565b60010161137b565b5081611515576001600160a01b0385166000818152600c8501602081815260408084206001810154825160608101845281815280850188905296865293909252600390910180549294929183019161142c90613e85565b80601f016020809104026020016040519081016040528092919081815260200182805461145890613e85565b80156114a55780601f1061147a576101008083540402835291602001916114a5565b820191906000526020600020905b81548152906001019060200180831161148857829003601f168201915b505050919092525050601b8601805460018082018355600092835260209283902084516003909302019182559183015191810180546001600160a01b0319166001600160a01b039093169290921790915560408201519192508291600282019061150f9082613f22565b50505050505b5050505050565b6000806115276125c4565b9050816002015481106104115760068201546001600160401b031661154a6125d1565b61ffff1610610411576005820180546001600160f81b0316600160f81b1790556040517f4914d88063275a25a13b2df37125e216745d812f94c56504be4bd78cf60c95939061159d90601b850190614c34565b60405180910390a1600582015482546001600160a01b039091169063f207564e906115c89084613e72565b845460405160e084901b6001600160e01b031916815260048101919091526024016000604051808303818588803b15801561160257600080fd5b505af1158015611616573d6000803e3d6000fd5b50505050505050565b600061162d601384846125de565b610ebf600a8201848461258e565b7f806e0cbb9fce296bbc336a48f42bf1dbc69722d18d90d6fe705b7582c2bb4bd2600301546001600160a01b031633146105b5576040516330cd747160e01b815260040160405180910390fd5b611690612639565b600080516020614f60833981519152805460ff191681556040513381527f5db9ee0a495bf2e6ff9c91a7834c1ba4fdd244a5e8aa4e537bd38aeae4b073aa906020015b60405180910390a150565b600d5460105460009182916116fa9161ffff9081169116614d30565b91505090565b60008061170e601584612669565b604080516001600160a01b0386168152602081018390529192507f197c586353eaed0a1c53e6e540445b94befab8f932c8115d112115ecbeeed51491015b60405180910390a1505050565b60006041821461176b5761176b614d4b565b600061177a8360018187614d61565b604051611788929190614d8b565b604051908190039020949350505050565b600061069f600a8585856126e1565b600061069f6013858585612709565b601d54600090815b8181101561069f57836001600160a01b031683601d0182815481106117e6576117e6614c1e565b6000918252602090912001546001600160a01b0316036118b557601d830161180f60018461403e565b8154811061181f5761181f614c1e565b600091825260209091200154601d840180546001600160a01b03909216918390811061184d5761184d614c1e565b9060005260206000200160006101000a8154816001600160a01b0302191690836001600160a01b0316021790555082601d0180548061188e5761188e614d9b565b600082815260209020810160001990810180546001600160a01b031916905501905561069f565b6001016117bf565b804710156118e05760405163cd78605960e01b81523060048201526024016103c1565b6000826001600160a01b03168260405160006040518083038185875af1925050503d806000811461192d576040519150601f19603f3d011682016040523d82523d6000602084013e611932565b606091505b5050905080610ebf57604051630a12f52160e11b815260040160405180910390fd5b600554600160a01b90046001600160401b03168061197560808401846143fe565b905011156119965760405163351c700760e01b815260040160405180910390fd5b600554600160a01b90046001600160401b03166119b660808401846143fe565b9050036119c1575050565b6001546003546119d19082613e72565b836020013514610ebf5780836020013514610ebf5760405163fae4eadb60e01b815260040160405180910390fd5b611a07610db2565b600080516020614f60833981519152805460ff191660011781556040513381527f62e78cea01bee320cd4e420270b5ea74000d11b0c9f74754ebdbfc544b05a258906020016116d3565b80516060906000816001600160401b03811115611a7057611a70613983565b604051908082528060200260200182016040528015611a99578160200160208202803683370190505b50905060005b82811015611b5957611aca86868381518110611abd57611abd614c1e565b6020026020010151610de3565b611b1157848181518110611ae057611ae0614c1e565b6020026020010151604051633b4f6e2b60e21b81526004016103c191906001600160a01b0391909116815260200190565b611b3486868381518110611b2757611b27614c1e565b6020026020010151612776565b828281518110611b4657611b46614c1e565b6020908102919091010152600101611a9f565b50949350505050565b600080611b74836003015461ffff1690565b905060015b8161ffff168161ffff1611611bc65761ffff811660009081526005850160205260409020546001600160a01b0316611bb18582612776565b611bbb9085613e72565b935050600101611b79565b5050919050565b805160009081906001908290808203611bee57505015915060029050611d0f565b895181141580611bff575088518114155b15611c1257505015915060019050611d0f565b60005b81811015611cee57600080611c438a8a8581518110611c3657611c36614c1e565b60200260200101516127d9565b5090925090506000816003811115611c5d57611c5d61413e565b14611c75578515600497509750505050505050611d0f565b8c8381518110611c8757611c87614c1e565b60200260200101516001600160a01b0316826001600160a01b031614611cba578515600397509750505050505050611d0f565b8b8381518110611ccc57611ccc614c1e565b602002602001015185611cdf9190613e72565b94508260010192505050611c15565b50878210611d055782600094509450505050611d0f565b5050159150600590505b9550959350505050565b6000610df2836001600160a01b038416612826565b60006001610e3f565b8460005b81811015610b9b576000611d71878784818110611d5a57611d5a614c1e565b9050602002810190611d6c919061453a565b611759565b9050888883818110611d8557611d85614c1e565b9050602002016020810190611d9a9190614db1565b6001600160a01b0316816001600160a01b031614611dcb57604051634be9251d60e11b815260040160405180910390fd5b611e37898984818110611de057611de0614c1e565b9050602002016020810190611df59190614db1565b888885818110611e0757611e07614c1e565b9050602002810190611e19919061453a565b888887818110611e2b57611e2b614c1e565b90506020020135612920565b50600101611d3b565b60065460009086906001600160401b03168111611e705760405163031480b160e51b815260040160405180910390fd5b60005b818110156120fc576000611e92888884818110611d5a57611d5a614c1e565b9050898983818110611ea657611ea6614c1e565b9050602002016020810190611ebb9190614db1565b6001600160a01b0316816001600160a01b031614611eec57604051634be9251d60e11b815260040160405180910390fd5b6000611f1d8b8b85818110611f0357611f03614c1e565b9050602002016020810190611f189190614db1565b612930565b1115611f3c57604051630472b35360e41b815260040160405180910390fd5b611f8f8a8a84818110611f5157611f51614c1e565b9050602002016020810190611f669190614db1565b898985818110611f7857611f78614c1e565b9050602002810190611f8a919061453a565b611799565b611fd78a8a84818110611fa457611fa4614c1e565b9050602002016020810190611fb99190614db1565b878785818110611fcb57611fcb614c1e565b90506020020135612945565b83601b016040518060600160405280888886818110611ff857611ff8614c1e565b9050602002013581526020018c8c8681811061201657612016614c1e565b905060200201602081019061202b9190614db1565b6001600160a01b031681526020018a8a8681811061204b5761204b614c1e565b905060200281019061205d919061453a565b8080601f016020809104026020016040519081016040528093929190818152602001838380828437600092018290525093909452505083546001808201865594825260209182902084516003909202019081559083015193810180546001600160a01b0319166001600160a01b039095169490941790935550604081015190919060028201906120ed9082613f22565b50505081600101915050611e73565b506005820180546001600160f81b0316600160f81b1790556040517f4914d88063275a25a13b2df37125e216745d812f94c56504be4bd78cf60c95939061214790601b850190614c34565b60405180910390a160058201548254604051637903ab2760e11b8152600481018290526001600160a01b039092169163f207564e91906024016000604051808303818588803b15801561219957600080fd5b505af11580156121ad573d6000803e3d6000fd5b50505050505050505050505050565b6001600160a01b038116600090815260018301602052604081205461ffff161515610df2565b600081815260018301602052604081205461222957508154600181810184556000848152602080822090930184905584548482528286019093526040902091909155610df5565b506000610df5565b6001600160a01b0382166000908152600280850160205260409091200154818110156122705760405163ac69360360e01b815260040160405180910390fd5b61227a828261403e565b6001600160a01b039093166000908152600294850160205260409020909301919091555050565b6001600160a01b03821660009081526002840160205260408120600101546122ca90839061403e565b6001600160a01b0384166000908152600280870160205260409091200154909150811580156122f7575080155b1561233c576001600160a01b038416600090815260028087016020526040822082815560018101839055908101829055906123356003830182613935565b505061235d565b6001600160a01b038416600090815260028601602052604090206001018290555b612368858584612953565b8285600101600082825461237c919061403e565b90915550505050505050565b60008160405160200161239d91815260200190565b604051602081830303815290604052905060006123bd8585600185612c10565b9050600080516020614f1283398151915260018584846040516123e39493929190614de2565b60405180910390a15050505050565b6001600160a01b0382166000908152600284016020526040902080549082905581810361241f5750505050565b8181101561243757612432848484612d07565b61069f565b61069f848484612953565b82546000906124519043613e72565b60408051808201825282815260208082018690526001600160a01b038716600090815260018901909152919091209192509061248d9082612f33565b604080516001600160a01b0386168152602081018590529081018390527f083b080788e20bd0930c2bca2ae4fbc51a59ced08c1b5992271f8cb439498a63906060016123e3565b6001600160a01b03821660009081526002840160205260408120600101546124fd908390613e72565b6001600160a01b038416600090815260028601602052604081206001908101839055860180549293508492909190612536908490613e72565b9091555061069f9050848483612d07565b6001600160401b0381166000908152600180840160205260408220805460ff19168155919061257890830182613935565b5060020180546001600160a01b03191690555050565b6001600160a01b03821660009081526002808501602052604082200180548392906125ba908490613e72565b9091555050505050565b600b5460009081906116fa565b6000806116fa600a612f9f565b6000816040516020016125f391815260200190565b604051602081830303815290604052905060006126138585600085612c10565b9050600080516020614f1283398151915260008584846040516123e39493929190614de2565b600080516020614f608339815191525460ff166105b557604051638dfc202b60e01b815260040160405180910390fd5b6001600160a01b038116600090815260018301602052604081208190819061269090612fb0565b915091508061ffff166000036126c6576001600160a01b03841660009081526001860160205260409020805463ffffffff191690555b6126d96001600160a01b038516836118bd565b509392505050565b6001600160a01b03831660009081526002850160205260409020600301611515828483614580565b600061274e8585600286868080601f016020809104026020016040519081016040528093929190818152602001838380828437600092019190915250612c1092505050565b9050600080516020614f128339815191526002858585856040516123e3959493929190614e2d565b60006001835460ff1660028111156127905761279061413e565b036127b657506001600160a01b0381166000908152600283016020526040902054610df5565b506001600160a01b03166000908152600291909101602052604090206001015490565b600080600083516041036128135760208401516040850151606086015160001a612805888285856130a4565b95509550955050505061281f565b50508151600091506002905b9250925092565b6000818152600183016020526040812054801561290f57600061284a60018361403e565b855490915060009061285e9060019061403e565b90508082146128c357600086600001828154811061287e5761287e614c1e565b90600052602060002001549050808760000184815481106128a1576128a1614c1e565b6000918252602080832090910192909255918252600188019052604090208390555b85548690806128d4576128d4614d9b565b600190038181906000526020600020016000905590558560010160008681526020019081526020016000206000905560019350505050610df5565b6000915050610df5565b5092915050565b6000611515601386868686613173565b60008061293e600a84612776565b9392505050565b6000610ebf600a84846123f2565b61296060068401836121bc565b15612a0157806000036129b45761297b6006840184846131d0565b6040516001600160a01b03831681527f3168ba660eed6ef1dc2258b2247cc05fd0f2f350d39e6ad2e2ebc76a8000b40b9060200161174c565b6129c2600684018484613260565b604080516001600160a01b0384168152602081018390527fda148fac2e1063174be7bc0895576bdaba90fd14e575463fa26a967cb895cadd910161174c565b612a0e60038401836121bc565b612a2b57604051632a55ca5360e01b815260040160405180910390fd5b80600003612afa57612a41600384018484613288565b6040516001600160a01b03831681527f4a4c5d1a281180eea1e99d8177fa4798b9f7e019d5c57e7d8d73c6a22199aa5b9060200160405180910390a1600683015461ffff1615610ebf57600080612a9b6006860186613318565b9092509050612aad600686018661335a565b612abb6003860186846133b8565b604080516001600160a01b0384168152602081018390527f2e8038f5812f763c6ef0c5427cb5a05ce6d7064af2ba7d1d270bc02660b019fd91016123e3565b612b0860038401848461343e565b600683015461ffff16600003612b1d57505050565b600080612b2d6003860186613318565b9092509050600080612b426006880188613318565b9150915080831015612bd157612b5b6003880188613458565b612b68600688018861335a565b612b766003880188846133b8565b612b846006880188866134b6565b604080516001600160a01b038087168252841660208201527ffaeb8de771b867cf357f6b459a7002b62ec45d544a8078a3ecd91200cc826d7591015b60405180910390a150505050505050565b604080516001600160a01b0388168152602081018790527f143db27bc2036653dc6f962ff9d0b803163d4af50c256ca9e6927b3d6dcd01979101612bc0565b835460408051606081019091526001600160401b039091169080846003811115612c3c57612c3c61413e565b815260208082018590526001600160a01b0387166040928301526001600160401b03841660009081526001808a01909252919091208251815491929091839160ff1990911690836003811115612c9457612c9461413e565b021790555060208201516001820190612cad9082613f22565b5060409190910151600290910180546001600160a01b0319166001600160a01b03909216919091179055612ce2816001614bfe565b855467ffffffffffffffff19166001600160401b039190911617909455509192915050565b612d1460038401836121bc565b15612d6657612d2760038401848461353c565b604080516001600160a01b0384168152602081018390527f143db27bc2036653dc6f962ff9d0b803163d4af50c256ca9e6927b3d6dcd0197910161174c565b825461ffff610100909104166000612d83600386015461ffff1690565b90508061ffff168261ffff161115612de257612da36003860186866133b8565b604080516001600160a01b0386168152602081018590527f2e8038f5812f763c6ef0c5427cb5a05ce6d7064af2ba7d1d270bc02660b019fd91016123e3565b600080612df26003880188613318565b9150915084811015612e8757612e0b6003880188613458565b612e1860068801876121bc565b15612e2b57612e2b6006880188886131d0565b612e396003880188886133b8565b612e476006880188846134b6565b604080516001600160a01b038085168252881660208201527ffaeb8de771b867cf357f6b459a7002b62ec45d544a8078a3ecd91200cc826d759101612bc0565b612e9460068801876121bc565b15612ee657612ea7600688018888613564565b604080516001600160a01b0388168152602081018790527fda148fac2e1063174be7bc0895576bdaba90fd14e575463fa26a967cb895cadd9101612bc0565b612ef46006880188886134b6565b604080516001600160a01b0388168152602081018790527f19fe3ca603e87854a0747cc10abf06bac64d61bac73d6d15f2fd3ca448f152649101612bc0565b815461ffff80821691600091612f529184916201000090910416614d30565b61ffff81166000908152600180870160209081526040909220865181559186015191810191909155909150612f88908390614d30565b845461ffff191661ffff9190911617909355505050565b6000610df5826003015461ffff1690565b8054600090819061ffff16808203612fdb576040516364b0557f60e01b815260040160405180910390fd5b835462010000900461ffff168160005b8361ffff168361ffff1610156130795761ffff831660009081526001808901602090815260409283902083518085019094528054808552920154908301524310156130365750613079565b60208101516130459083613e72565b61ffff8516600090815260018a8101602052604082208281558101919091559094019360001993909301929150612feb9050565b865463ffffffff19166201000061ffff9485160261ffff191617928216929092179095559492505050565b600080807f7fffffffffffffffffffffffffffffff5d576e7357a4501ddfe92f46681b20a08411156130df5750600091506003905082613169565b604080516000808252602082018084528a905260ff891692820192909252606081018790526080810186905260019060a0016020604051602081039080840390855afa158015613133573d6000803e3d6000fd5b5050604051601f1901519150506001600160a01b03811661315f57506000925060019150829050613169565b9250600091508190505b9450945094915050565b600083838360405160200161318a93929190614e7a565b604051602081830303815290604052905060006131aa8787600385612c10565b9050600080516020614f128339815191526003878484604051612bc09493929190614de2565b60006131dc848361357e565b845490915061ffff166131f08583836135be565b6131fb600182614e9e565b855461ffff191661ffff919091161785556132168582613673565b8161ffff168161ffff160361322c575050505050565b60006132398686856136b8565b9050613247868685846136ea565b6132528686856136b8565b9050610ad88686858461372e565b600061326c848361357e565b9050600061327a8484612776565b90506115158585848461372e565b6000613294848361357e565b845490915061ffff166132a88583836135be565b6132b3600182614e9e565b855461ffff191661ffff919091161785556132ce8582613673565b8161ffff168161ffff16036132e4575050505050565b60006132f18686856136b8565b90506132ff868685846137b6565b61330a8686856136b8565b9050610ad8868685846137fa565b6000806133248461388b565b600160009081526002850160205260408120546001600160a01b03169061334b8583612776565b919350909150505b9250929050565b6133638261388b565b815461ffff16613375836001836135be565b613380600182614e9e565b835461ffff191661ffff9190911617835561339b8382613673565b60006133a9848460016136b8565b905061069f848460018461372e565b82546000906133cc9061ffff166001614d30565b6001600160a01b03831660008181526001870160209081526040808320805461ffff871661ffff19918216811790925581855260028b0190935290832080546001600160a01b03191690941790935587541690911786559091506134308484612776565b9050611515858584846137b6565b600061344a848361357e565b905060006134308484612776565b6134618261388b565b815461ffff16613473836001836135be565b61347e600182614e9e565b835461ffff191661ffff919091161783556134998382613673565b60006134a7848460016136b8565b905061069f84846001846137fa565b82546000906134ca9061ffff166001614d30565b6001600160a01b03831660008181526001870160209081526040808320805461ffff871661ffff19918216811790925581855260028b0190935290832080546001600160a01b031916909417909355875416909117865590915061352e8484612776565b9050611515858584846136ea565b6000613548848361357e565b905060006135568484612776565b9050611515858584846137fa565b6000613570848361357e565b9050600061352e8484612776565b6001600160a01b038116600090815260018301602052604081205461ffff1690819003610df55760405163f2755e3760e01b815260040160405180910390fd5b825461ffff90811690831611156135d7576135d7614d4b565b825461ffff90811690821611156135f0576135f0614d4b565b61ffff9182166000818152600285016020818152604080842080549690971680855281852080546001600160a01b039889168088526001909b018552838720805461ffff19908116909417905590971680865291852080549091168617905591905283546001600160a01b03199081169096179093555281549092169091179055565b61ffff166000908152600282016020908152604080832080546001600160a01b031981169091556001600160a01b031683526001909301905220805461ffff19169055565b61ffff811660009081526002840160205260408120546001600160a01b03166136e18482612776565b95945050505050565b6000805b60018461ffff161115610ad857617fff600185901c1691506137118686846136b8565b905080831115610ad8576137268683866135be565b8193506136ee565b83546201fffe600184901b169060009061ffff165b8061ffff168361ffff1611611616578061ffff168361ffff16101561378257613778878785613773816001614d30565b6138b1565b9093509150613790565b61378d8787856136b8565b91505b83821115611616576137a38784876135be565b9193506201fffe600185901b1691613743565b6000805b60018461ffff161115610ad857617fff600185901c1691506137dd8686846136b8565b905080831015610ad8576137f28683866135be565b8193506137ba565b6000613807836002614eb9565b855490915060009061ffff165b8061ffff168361ffff1611611616578061ffff168361ffff16101561385357613849878785613844816001614d30565b6138f5565b9093509150613861565b61385e8787856136b8565b91505b83821015611616576138748784876135be565b8294508460026138849190614eb9565b9250613814565b805461ffff16600003610516576040516340d9b01160e01b815260040160405180910390fd5b600080806138c08787876136b8565b905060006138cf8888876136b8565b9050818111156138e55784935091506138ec9050565b5084925090505b94509492505050565b600080806139048787876136b8565b905060006139138888876136b8565b9050818110613927575084925090506138ec565b939793965092945050505050565b50805461394190613e85565b6000825580601f10613951575050565b601f01602090049060005260206000209081019061051691905b8082111561397f576000815560010161396b565b5090565b634e487b7160e01b600052604160045260246000fd5b604051601f8201601f191681016001600160401b03811182821017156139c1576139c1613983565b604052919050565b60006001600160401b038211156139e2576139e2613983565b50601f01601f191660200190565b6000613a036139fe846139c9565b613999565b9050828152838383011115613a1757600080fd5b828260208301376000602084830101529392505050565b600060208284031215613a4057600080fd5b81356001600160401b03811115613a5657600080fd5b8201601f81018413613a6757600080fd5b613a76848235602084016139f0565b949350505050565b600060208284031215613a9057600080fd5b5035919050565b6001600160401b038116811461051657600080fd5b600060208284031215613abe57600080fd5b813561293e81613a97565b60008060208385031215613adc57600080fd5b82356001600160401b0380821115613af357600080fd5b818501915085601f830112613b0757600080fd5b813581811115613b1657600080fd5b866020828501011115613b2857600080fd5b60209290920196919550909350505050565b60008083601f840112613b4c57600080fd5b5081356001600160401b03811115613b6357600080fd5b6020830191508360208260051b850101111561335357600080fd5b600080600080600060608688031215613b9657600080fd5b85356001600160401b0380821115613bad57600080fd5b9087019060a0828a031215613bc157600080fd5b90955060208701359080821115613bd757600080fd5b613be389838a01613b3a565b90965094506040880135915080821115613bfc57600080fd5b50613c0988828901613b3a565b969995985093965092949392505050565b60006001600160401b03821115613c3357613c33613983565b5060051b60200190565b6001600160a01b038116811461051657600080fd5b6000613c606139fe84613c1a565b8381529050602080820190600585901b840186811115613c7f57600080fd5b845b81811015613cce5780356001600160401b03811115613ca05760008081fd5b8601601f81018913613cb25760008081fd5b613cc08982358684016139f0565b855250928201928201613c81565b505050509392505050565b600082601f830112613cea57600080fd5b610df283833560208501613c52565b600080600060608486031215613d0e57600080fd5b83356001600160401b0380821115613d2557600080fd5b818601915086601f830112613d3957600080fd5b81356020613d496139fe83613c1a565b82815260059290921b8401810191818101908a841115613d6857600080fd5b948201945b83861015613d8f578535613d8081613c3d565b82529482019490820190613d6d565b9750508701359450506040860135915080821115613dac57600080fd5b50613db986828701613cd9565b9150509250925092565b60008060008060008060608789031215613ddc57600080fd5b86356001600160401b0380821115613df357600080fd5b613dff8a838b01613b3a565b90985096506020890135915080821115613e1857600080fd5b613e248a838b01613b3a565b90965094506040890135915080821115613e3d57600080fd5b50613e4a89828a01613b3a565b979a9699509497509295939492505050565b634e487b7160e01b600052601160045260246000fd5b80820180821115610df557610df5613e5c565b600181811c90821680613e9957607f821691505b602082108103613eb957634e487b7160e01b600052602260045260246000fd5b50919050565b5b818110156104115760008155600101613ec0565b601f821115610ebf57806000526020600020601f840160051c81016020851015613efb5750805b611515601f850160051c830182613ebf565b600019600383901b1c191660019190911b1790565b81516001600160401b03811115613f3b57613f3b613983565b613f4f81613f498454613e85565b84613ed4565b602080601f831160018114613f7e5760008415613f6c5750858301515b613f768582613f0d565b865550610ad8565b600085815260208120601f198616915b82811015613fad57888601518255948401946001909101908401613f8e565b5085821015613fcb5787850151600019600388901b60f8161c191681555b5050505050600190811b01905550565b60005b83811015613ff6578181015183820152602001613fde565b50506000910152565b60008151808452614017816020860160208601613fdb565b601f01601f19169290920160200192915050565b602081526000610df26020830184613fff565b81810381811115610df557610df5613e5c565b60008235603e1983360301811261406757600080fd5b90910192915050565b6000808335601e1984360301811261408757600080fd5b83016020810192503590506001600160401b038111156140a657600080fd5b8060051b360382131561335357600080fd5b60006040830182356140c981613a97565b6001600160401b0316845260206140e284820185614070565b604060208801529283905291600090606087015b8183101561412657843561410981613c3d565b6001600160a01b03168152938301936001929092019183016140f6565b979650505050505050565b6003811061051657600080fd5b634e487b7160e01b600052602160045260246000fd5b60ff8116811461051657600080fd5b6000808335601e1984360301811261417a57600080fd5b83016020810192503590506001600160401b0381111561419957600080fd5b80360382131561335357600080fd5b81835281816020850137506000828201602090810191909152601f909101601f19169091010190565b60006141dd8283614051565b604084526141ee60408501826140b8565b90506141fd6020840184614051565b8482036020860152803561421081614154565b60ff1682526142226020820182614163565b9150604060208401526142396040840183836141a8565b9695505050505050565b600060208083526142548485614051565b60a08285015261426760c08501826140b8565b90506040828601356040860152606060408701356060870152606087013561428e81613a97565b60806001600160401b03821660808901526142ac60808a018a614070565b601f198a8803810160a08c0152818852909350878701600585901b88018901836000805b888110156143b057858c8503018552823560be198836030181126142f2578283fd5b870180356142ff81614131565b6003811061430f5761430f61413e565b855261431d818f0182614051565b60c08f87015261433060c08701826141d1565b905061433e8d830183614051565b8682038e88015261434f82826141d1565b9150508b82013561435f81613a97565b6001600160401b03168c870152818a01358a87015261438160a0830183614163565b925086820360a08801526143968284836141a8565b96505050508c830192508c850194506001810190506142d0565b50919e9d5050505050505050505050505050565b6000610df2368484613c52565b60008235603e198336030181126143e757600080fd5b9190910192915050565b60008135610df581613a97565b6000808335601e1984360301811261441557600080fd5b8301803591506001600160401b0382111561442f57600080fd5b6020019150600581901b360382131561335357600080fd5b8082028115828204841417610df557610df5613e5c565b600160401b82111561447257614472613983565b805482825580831015610ebf5781600052602060002061069f828201858301613ebf565b6000823560be198336030181126143e757600080fd5b6144b68154613e85565b801561041157601f8111600181146144d057505060009055565b8260005260206000206144ee601f840160051c820160018301613ebf565b60008085559055505050565b600081556001810180546000825580156145255781600052602060002061452382820182613ebf565b505b505060006002820155610516600382016144ac565b6000808335601e1984360301811261455157600080fd5b8301803591506001600160401b0382111561456b57600080fd5b60200191503681900382131561335357600080fd5b6001600160401b0383111561459757614597613983565b6145ab836145a58354613e85565b83613ed4565b6000601f8411600181146145d957600085156145c75750838201355b6145d18682613f0d565b845550611515565b600083815260209020601f19861690835b8281101561460a57868501358255602094850194600190920191016145ea565b50868210156146275760001960f88860031b161c19848701351681555b505060018560011b0183555050505050565b61464382836143d1565b803561464e81613a97565b825467ffffffffffffffff19166001600160401b038216178355506001808301602061467c818501856143fe565b94506001600160401b038086111561469657614696613983565b6146a0868561445e565b600093845282842093805b878110156146cd5783356146be81613c3d565b868201559284019286016146ab565b506002880196506146e0848a018a6143d1565b9450843592506146ef83614154565b865460ff191660ff841617909655600387019561470e8585018661453a565b955092508185111561472257614722613983565b614736856147308954613e85565b89613ed4565b809150601f851160018114614764578186156147525750838301355b61475c8782613f0d565b89555061150f565b600088815260209020601f19871690835b828110156147925786860135825594870194908901908701614775565b50878210156147af5760001960f88960031b161c19858701351681555b505060018660011b01885550505050505050505050565b81356147d181614131565b600381106147e1576147e161413e565b60ff1982541660ff821681178355505061480a61480160208401846143d1565b60018301614639565b61482361481a60408401846143d1565b60058301614639565b606082013561483181613a97565b60098201805467ffffffffffffffff19166001600160401b038316179055506080820135600a82015561486760a083018361453a565b61069f8183600b8601614580565b600160401b83111561488957614889613983565b80548382558084101561492057600c81600c02600c810483146148ae576148ae613e5c565b85600c02600c810487146148c4576148c4613e5c565b6000858152602081209283019291909101905b8282101561491b578082556148ee600183016144fa565b6148fa600583016144fa565b80600983015580600a830155614912600b83016144ac565b908301906148d7565b505050505b5060008181526020812083915b85811015610ad8576149486149428487614496565b836147c6565b60209290920191600c919091019060010161492d565b61496882836143d1565b803561497381613a97565b825467ffffffffffffffff19166001600160401b03821617835550600180830160206149a260208501856143fe565b94506001600160401b038511156149bb576149bb613983565b6149c5858461445e565b600092835260208320925b858110156149f25781356149e381613c3d565b848201559082019084016149d0565b5050505050506020820135600282015560408201356003820155614a3c614a1b606084016143f1565b600483016001600160401b0382166001600160401b03198254161781555050565b614a4960808301836143fe565b61069f818360058601614875565b6001600160401b0382811682821603908082111561291957612919613e5c565b600082614a9457634e487b7160e01b600052601260045260246000fd5b500490565b818103614aa4575050565b614aae8254613e85565b6001600160401b03811115614ac557614ac5613983565b614ad381613f498454613e85565b6000601f821160018114614b015760008315614aef5750848201545b614af98482613f0d565b855550611515565b600085815260209020601f19841690600086815260209020845b83811015614b3b5782860154825560019586019590910190602001614b1b565b5085831015613fcb5793015460001960f8600387901b161c19169092555050600190811b01905550565b60008060408385031215614b7857600080fd5b82516001600160401b03811115614b8e57600080fd5b8301601f81018513614b9f57600080fd5b8051614bad6139fe826139c9565b818152866020838501011115614bc257600080fd5b614bd3826020830160208601613fdb565b60209590950151949694955050505050565b600060208284031215614bf757600080fd5b5051919050565b6001600160401b0381811683821601908082111561291957612919613e5c565b634e487b7160e01b600052603260045260246000fd5b6000602080830181845280855480835260408601915060408160051b87010192506000878152848120815b83811015614d2257888603603f190185528154865260018201546001600160a01b031687870152606060408701526002820180548490614c9e81613e85565b8060608b01526001821660008114614cbd5760018114614cd957614d08565b60ff19831660808c0152608082151560051b8c01019350614d08565b8488528b8820885b83811015614cff5781548d8201608001526001909101908d01614ce1565b8c016080019450505b509198505050948701945060039190910190600101614c5f565b509398975050505050505050565b61ffff81811683821601908082111561291957612919613e5c565b634e487b7160e01b600052600160045260246000fd5b60008085851115614d7157600080fd5b83861115614d7e57600080fd5b5050820193919092039150565b8183823760009101908152919050565b634e487b7160e01b600052603160045260246000fd5b600060208284031215614dc357600080fd5b813561293e81613c3d565b60048110614dde57614dde61413e565b9052565b614dec8186614dce565b6001600160a01b0384166020820152608060408201819052600090614e1390830185613fff565b90506001600160401b038316606083015295945050505050565b614e378187614dce565b6001600160a01b0385166020820152608060408201819052600090614e5f90830185876141a8565b90506001600160401b03831660608301529695505050505050565b604081526000614e8e6040830185876141a8565b9050826020830152949350505050565b61ffff82811682821603908082111561291957612919613e5c565b61ffff818116838216028082169190828114614ed757614ed7613e5c565b50509291505056fe4d6574686f64206e6f7420616c6c6f7765642069662076616c696461746f722068617320616c7265616479206a6f696e65641c593a2b803c3f9038e8b6743ba79fbc4276d2770979a01d2768ed12bea3243f4d6574686f64206e6f7420616c6c6f7765642069662076616c696461746f7220686173206e6f74206a6f696e6564c451c9429c27db68f286ab8a68f311f1dccab703ba9423aed29cd397ae63f863691bb03ffc16c56fc96b82fd16cd1b3715f0bc3cdc6407005f49bb62058600954d6574686f64206e6f7420616c6c6f776564206966207065726d697373696f6e656420697320656e61626c656420616e64207375626e657420626f6f747374726170706564a2646970667358221220f428650361e5bd1da4ab4b8709d10eabd069a79b8aaecba58fd724ffaf54ee6c64736f6c63430008180033","linkReferences":{}},"methodIdentifiers":{"addBootstrapNode(string)":"10fd4261","claim()":"4e71d92d","confirmChange(uint64)":"350a14bf","confirmNextChange()":"c7ebdaef","join(bytes)":"6170b162","kill()":"41c0e1b5","leave()":"d66d9e19","pause()":"8456cb59","paused()":"5c975abb","preFund()":"0b7fbe60","preRelease(uint256)":"66783c9b","setFederatedPower(address[],bytes[],uint256[])":"da5d09ee","stake()":"3a4b66f1","submitCheckpoint(((uint64,address[]),uint256,bytes32,uint64,(uint8,((uint64,address[]),(uint8,bytes)),((uint64,address[]),(uint8,bytes)),uint64,uint256,bytes)[]),address[],bytes[])":"79979f57","unpause()":"3f4ba83a","unstake(uint256)":"2e17de78","validateActiveQuorumSignatures(address[],bytes32,bytes[])":"cc2dc2b9"},"id":130}