{"abi":[{"type":"function","name":"activeUnitCount","inputs":[],"outputs":[{"name":"","type":"uint256","internalType":"uint256"}],"stateMutability":"view"},{"type":"function","name":"calculateRewardPool","inputs":[],"outputs":[],"stateMutability":"nonpayable"},{"type":"function","name":"currentEpoch","inputs":[],"outputs":[{"name":"","type":"uint256","internalType":"uint256"}],"stateMutability":"view"},{"type":"function","name":"difficulty","inputs":[],"outputs":[{"name":"","type":"bytes32","internalType":"bytes32"}],"stateMutability":"view"},{"type":"function","name":"epochDuration","inputs":[],"outputs":[{"name":"","type":"uint256","internalType":"uint256"}],"stateMutability":"view"},{"type":"function","name":"fltCollateralPerUnit","inputs":[],"outputs":[{"name":"","type":"uint256","internalType":"uint256"}],"stateMutability":"view"},{"type":"function","name":"fltPrice","inputs":[],"outputs":[{"name":"","type":"uint256","internalType":"uint256"}],"stateMutability":"view"},{"type":"function","name":"getRewardPool","inputs":[{"name":"epoch","type":"uint256","internalType":"uint256"}],"outputs":[{"name":"","type":"uint256","internalType":"uint256"}],"stateMutability":"view"},{"type":"function","name":"initTimestamp","inputs":[],"outputs":[{"name":"","type":"uint256","internalType":"uint256"}],"stateMutability":"view"},{"type":"function","name":"maxFailedRatio","inputs":[],"outputs":[{"name":"","type":"uint256","internalType":"uint256"}],"stateMutability":"view"},{"type":"function","name":"maxProofsPerEpoch","inputs":[],"outputs":[{"name":"","type":"uint256","internalType":"uint256"}],"stateMutability":"view"},{"type":"function","name":"maxRewardPerEpoch","inputs":[],"outputs":[{"name":"","type":"uint256","internalType":"uint256"}],"stateMutability":"view"},{"type":"function","name":"minDuration","inputs":[],"outputs":[{"name":"","type":"uint256","internalType":"uint256"}],"stateMutability":"view"},{"type":"function","name":"minProofsPerEpoch","inputs":[],"outputs":[{"name":"","type":"uint256","internalType":"uint256"}],"stateMutability":"view"},{"type":"function","name":"minRewardPerEpoch","inputs":[],"outputs":[{"name":"","type":"uint256","internalType":"uint256"}],"stateMutability":"view"},{"type":"function","name":"owner","inputs":[],"outputs":[{"name":"","type":"address","internalType":"address"}],"stateMutability":"view"},{"type":"function","name":"randomXProxy","inputs":[],"outputs":[{"name":"","type":"address","internalType":"address"}],"stateMutability":"view"},{"type":"function","name":"renounceOwnership","inputs":[],"outputs":[],"stateMutability":"nonpayable"},{"type":"function","name":"setCapacityConstant","inputs":[{"name":"constantType","type":"uint8","internalType":"enum ICapacityConst.CapacityConstantType"},{"name":"v","type":"uint256","internalType":"uint256"}],"outputs":[],"stateMutability":"nonpayable"},{"type":"function","name":"setDifficulty","inputs":[{"name":"difficulty_","type":"bytes32","internalType":"bytes32"}],"outputs":[],"stateMutability":"nonpayable"},{"type":"function","name":"setFLTPrice","inputs":[{"name":"fltPrice_","type":"uint256","internalType":"uint256"}],"outputs":[],"stateMutability":"nonpayable"},{"type":"function","name":"slashingRate","inputs":[],"outputs":[{"name":"","type":"uint256","internalType":"uint256"}],"stateMutability":"view"},{"type":"function","name":"transferOwnership","inputs":[{"name":"newOwner","type":"address","internalType":"address"}],"outputs":[],"stateMutability":"nonpayable"},{"type":"function","name":"usdCollateralPerUnit","inputs":[],"outputs":[{"name":"","type":"uint256","internalType":"uint256"}],"stateMutability":"view"},{"type":"function","name":"usdTargetRevenuePerEpoch","inputs":[],"outputs":[{"name":"","type":"uint256","internalType":"uint256"}],"stateMutability":"view"},{"type":"function","name":"vestingPeriodCount","inputs":[],"outputs":[{"name":"","type":"uint256","internalType":"uint256"}],"stateMutability":"view"},{"type":"function","name":"vestingPeriodDuration","inputs":[],"outputs":[{"name":"","type":"uint256","internalType":"uint256"}],"stateMutability":"view"},{"type":"function","name":"withdrawEpochsAfterFailed","inputs":[],"outputs":[{"name":"","type":"uint256","internalType":"uint256"}],"stateMutability":"view"},{"type":"event","name":"CapacityConstantUpdated","inputs":[{"name":"constantType","type":"uint8","indexed":false,"internalType":"enum ICapacityConst.CapacityConstantType"},{"name":"newValue","type":"uint256","indexed":false,"internalType":"uint256"}],"anonymous":false},{"type":"event","name":"DifficultyUpdated","inputs":[{"name":"difficulty","type":"bytes32","indexed":false,"internalType":"bytes32"}],"anonymous":false},{"type":"event","name":"FLTPriceUpdated","inputs":[{"name":"newValue","type":"uint256","indexed":false,"internalType":"uint256"}],"anonymous":false},{"type":"event","name":"Initialized","inputs":[{"name":"version","type":"uint8","indexed":false,"internalType":"uint8"}],"anonymous":false},{"type":"event","name":"OwnershipTransferred","inputs":[{"name":"previousOwner","type":"address","indexed":true,"internalType":"address"},{"name":"newOwner","type":"address","indexed":true,"internalType":"address"}],"anonymous":false},{"type":"error","name":"OwnableInvalidOwner","inputs":[{"name":"owner","type":"address","internalType":"address"}]},{"type":"error","name":"OwnableUnauthorizedAccount","inputs":[{"name":"account","type":"address","internalType":"address"}]}],"bytecode":{"object":"0x60808060405234610016576110bb908161001c8239f35b600080fdfe608060408181526004908136101561001657600080fd5b600092833560e01c9081630640d941146109c45750806313baa0691461099857806319cae4621461097b57806322cafa3a1461094f578063280c5e51146109235780633932dbf51461087e5780634ff0876a146108525780634ff3dfd61461082657806356715761146107fa5780635c11f4d4146107ce5780635cfa91f4146107ae5780635ff244911461078257806366aaf7b9146107565780636daecfbe146105075780636f167977146104db578063715018a6146104835780637358c57a1461045757806376671808146104335780637e81538114610407578063800fe125146103db5780638da5cb5b146103a5578063919f49f91461035d578063a376fb9114610331578063b49b0758146102f1578063dad01895146102b3578063e217509014610216578063e79c6270146101e65763f2fde38b1461015857600080fd5b346101e25760203660031901126101e2576001600160a01b038235818116939192908490036101de57610189610bc5565b83156101c8575050600080516020610fc683398151915280546001600160a01b03198116841790915516600080516020610fa68339815191528380a380f35b51631e4fbdf760e01b8152908101849052602490fd5b8480fd5b8280fd5b838234610212578160031936011261021257602090600080516020610e86833981519152549051908152f35b5080fd5b5090346101e25760203660031901126101e2577fd1deff9e525a11d14a1263bcc0b80d6863292470cc5c6e5c433dfdeaa7ef0e2d916020913590610258610bc5565b81600080516020610ee683398151915255610282600080516020610e468339815191525483610bfe565b61029b82600080516020610de683398151915254610a43565b600080516020610ec68339815191525551908152a180f35b8382346102125781600319360112610212576020907f8984d2d0d7a9f2f70f22692c7c8344aa50cbed8c00a03c924457a31793ee8fe3549051908152f35b833461032e578060031936011261032e5761032b600080516020610ee683398151915254600080516020610e468339815191525490610bfe565b80f35b80fd5b838234610212578160031936011261021257602090600080516020610fe6833981519152549051908152f35b8382346102125781600319360112610212577f8984d2d0d7a9f2f70f22692c7c8344aa50cbed8c00a03c924457a31793ee8fd25490516001600160a01b039091168152602090f35b838234610212578160031936011261021257600080516020610fc68339815191525490516001600160a01b039091168152602090f35b838234610212578160031936011261021257602090600080516020610e26833981519152549051908152f35b838234610212578160031936011261021257602090600080516020610e46833981519152549051908152f35b838234610212578160031936011261021257602090610450610b85565b9051908152f35b838234610212578160031936011261021257602090600080516020611046833981519152549051908152f35b833461032e578060031936011261032e5761049c610bc5565b600080516020610fc683398151915280546001600160a01b0319811690915581906001600160a01b0316600080516020610fa68339815191528280a380f35b838234610212578160031936011261021257602090600080516020610ea6833981519152549051908152f35b508290346102125780600319360112610212578235600a8110156101e257602435610530610bc5565b8391806105925781600080516020611006833981519152555b83519261057f577f12ef687a8e3257309ee19f0dd17e311b1e2d18c1d585528c4116af913b0c4af794955082526020820152a180f35b634e487b7160e01b855260218652602485fd5b849250600181036105dd5781600080516020610de6833981519152556105c7600080516020610ee68339815191525483610a43565b600080516020610ec6833981519152555b610549565b849250600281036105fe578160008051602061106683398151915255610549565b8492506003810361061f5781600080516020610ea683398151915255610549565b84925085810361063f5781600080516020610fe683398151915255610549565b849250600581036106845781600080516020610e66833981519152556105d8600080516020610ee683398151915254600080516020610e468339815191525490610bfe565b849250600681036106a55781600080516020610f6683398151915255610549565b849250600781036106c65781600080516020610e2683398151915255610549565b849250600881036106e75781600080516020610e8683398151915255610549565b849250600981036107085781600080516020610f4683398151915255610549565b835162461bcd60e51b8152602081880152602260248201527f476c6f62616c436f6e73743a20756e6b6e6f776e20636f6e7374616e74207479604482015261706560f01b6064820152608490fd5b838234610212578160031936011261021257602090600080516020610e66833981519152549051908152f35b838234610212578160031936011261021257602090600080516020610ee6833981519152549051908152f35b50823461032e57602036600319011261032e575061045060209235610aa4565b838234610212578160031936011261021257602090600080516020610f66833981519152549051908152f35b838234610212578160031936011261021257602090600080516020611006833981519152549051908152f35b838234610212578160031936011261021257602090600080516020610ec6833981519152549051908152f35b838234610212578160031936011261021257602090600080516020610f26833981519152549051908152f35b508290346102125760203660031901126102125782359061089d610bc5565b81600080516020610f068339815191528054600080516020610f8683398151915255556108c8610b85565b600181018091116109105760008051602061102683398151915255519081527f0b5731e9746c6761d5cc9e62a3f59221163bf9ea25d7eb047f33913153f23c9790602090a180f35b634e487b7160e01b845260118552602484fd5b838234610212578160031936011261021257602090600080516020610f46833981519152549051908152f35b838234610212578160031936011261021257602090600080516020610de6833981519152549051908152f35b8382346102125781600319360112610212576020906104506109ff565b838234610212578160031936011261021257602090600080516020611066833981519152549051908152f35b8490346102125781600319360112610212576020907f8984d2d0d7a9f2f70f22692c7c8344aa50cbed8c00a03c924457a31793ee8fe2548152f35b610a07610b85565b600080516020611026833981519152541115610a3057600080516020610f868339815191525490565b600080516020610f068339815191525490565b8115610a4d570490565b634e487b7160e01b600052601260045260246000fd5b600080516020610e068339815191528054821015610a8e5760005260206000209060011b0190600090565b634e487b7160e01b600052603260045260246000fd5b600080516020610e06833981519152546000801991828101908111610b715791909182935b81841115610ad8575050505090565b9091929382850194858111610b1f57600195861c91610af683610a63565b50918254808611600014610b3557505050850154948101809111610b1f57915b90929192610ac9565b634e487b7160e01b600052601160045260246000fd5b91979095509190841015610b6657505083810190811115610b1657634e487b7160e01b600052601160045260246000fd5b015495945050505050565b634e487b7160e01b82526011600452602482fd5b600080516020611046833981519152544203428111610b1f57600080516020610f2683398151915254610bb791610a43565b60010180600111610b1f5790565b600080516020610fc6833981519152546001600160a01b03163303610be657565b60405163118cdaa760e01b8152336004820152602490fd5b90610c07610b85565b600080516020610e0683398151915280548315610dde576000198101936000828611610db75750610c3785610a63565b508054851491908215610dd4575060028310610dcb576001198301838111610b1f57610c64600191610a63565b500154905b8782029082159883830414891715610b1f57610c8491610a43565b600090600080516020610e668339815191525410600014610d775750600080516020610f66833981519152549662895440808302928304141715610b1f5762989680900495808710610d6f575b505b15610ceb57505050610ce6600191610a63565b500155565b6040805194509192909184016001600160401b03811185821017610d5957604052835260208301938452600160401b811015610d5957610d3091600182019055610a63565b929092610d435760019151835551910155565b634e487b7160e01b600052600060045260246000fd5b634e487b7160e01b600052604160045260246000fd5b955038610cd1565b600080516020610e26833981519152549762a7d8c0808402938404141715610db7575062989680900495808711610daf575b50610cd3565b955038610da9565b634e487b7160e01b81526011600452602490fd5b50505050505050565b6001015490610c69565b505050505056fe8984d2d0d7a9f2f70f22692c7c8344aa50cbed8c00a03c924457a31793ee8fd58984d2d0d7a9f2f70f22692c7c8344aa50cbed8c00a03c924457a31793ee8fe48984d2d0d7a9f2f70f22692c7c8344aa50cbed8c00a03c924457a31793ee8fe18984d2d0d7a9f2f70f22692c7c8344aa50cbed8c00a03c924457a31793ee8fd38984d2d0d7a9f2f70f22692c7c8344aa50cbed8c00a03c924457a31793ee8fdf8984d2d0d7a9f2f70f22692c7c8344aa50cbed8c00a03c924457a31793ee8fda8984d2d0d7a9f2f70f22692c7c8344aa50cbed8c00a03c924457a31793ee8fd88984d2d0d7a9f2f70f22692c7c8344aa50cbed8c00a03c924457a31793ee8fd68984d2d0d7a9f2f70f22692c7c8344aa50cbed8c00a03c924457a31793ee8fd18984d2d0d7a9f2f70f22692c7c8344aa50cbed8c00a03c924457a31793ee8fdd7d4f8ec43464738265ced6b7ed5f90007e9b7c34318bdd82d9249328b50bd3588984d2d0d7a9f2f70f22692c7c8344aa50cbed8c00a03c924457a31793ee8fdb8984d2d0d7a9f2f70f22692c7c8344aa50cbed8c00a03c924457a31793ee8fe08984d2d0d7a9f2f70f22692c7c8344aa50cbed8c00a03c924457a31793ee8fdc8be0079c531659141344cd1fd0a4f28419497f9722a3daafe3b4186f6b6457e0b13d3e7783d509d8d65d3e1e62ec0b103a07e0cbfa1ee74ae19127f297dddfcc8984d2d0d7a9f2f70f22692c7c8344aa50cbed8c00a03c924457a31793ee8fd98984d2d0d7a9f2f70f22692c7c8344aa50cbed8c00a03c924457a31793ee8fd48984d2d0d7a9f2f70f22692c7c8344aa50cbed8c00a03c924457a31793ee8fde7d4f8ec43464738265ced6b7ed5f90007e9b7c34318bdd82d9249328b50bd3578984d2d0d7a9f2f70f22692c7c8344aa50cbed8c00a03c924457a31793ee8fd7a26469706673582212205f490447c472fc7a2f19c6f1b37bd6f799e6e701a8484575f2224ddff23968f564736f6c63430008180033","linkReferences":{}},"methodIdentifiers":{"activeUnitCount()":"7e815381","calculateRewardPool()":"b49b0758","currentEpoch()":"76671808","difficulty()":"19cae462","epochDuration()":"4ff0876a","fltCollateralPerUnit()":"4ff3dfd6","fltPrice()":"5ff24491","getRewardPool(uint256)":"5cfa91f4","initTimestamp()":"7358c57a","maxFailedRatio()":"a376fb91","maxProofsPerEpoch()":"280c5e51","maxRewardPerEpoch()":"800fe125","minDuration()":"56715761","minProofsPerEpoch()":"e79c6270","minRewardPerEpoch()":"5c11f4d4","owner()":"8da5cb5b","randomXProxy()":"919f49f9","renounceOwnership()":"715018a6","setCapacityConstant(uint8,uint256)":"6daecfbe","setDifficulty(bytes32)":"3932dbf5","setFLTPrice(uint256)":"e2175090","slashingRate()":"13baa069","transferOwnership(address)":"f2fde38b","usdCollateralPerUnit()":"22cafa3a","usdTargetRevenuePerEpoch()":"66aaf7b9","vestingPeriodCount()":"dad01895","vestingPeriodDuration()":"0640d941","withdrawEpochsAfterFailed()":"6f167977"},"devdoc":{"version":1,"kind":"dev","methods":{"activeUnitCount()":{"details":"Returns the active compute unit count"},"currentEpoch()":{"details":"This function mirrored in:- ts-client/src/dealMatcherClient/dealMatcherClient.ts- subgraph/src/contracts.ts"},"difficulty()":{"details":"Returns the difficulty for randomX"},"epochDuration()":{"details":"Returns epoch duration","returns":{"_0":"epochDuration in seconds"}},"fltCollateralPerUnit()":{"details":"Returns the flt collateral per compute unit for creating CC"},"fltPrice()":{"details":"Returns the flt price"},"getRewardPool(uint256)":{"details":"Returns the reward pool per epoch"},"initTimestamp()":{"details":"Returns epoch init timestamp","returns":{"_0":"initTimestamp in seconds"}},"maxFailedRatio()":{"details":"Returns the max failed ratio for CC"},"maxProofsPerEpoch()":{"details":"Returns the max randomX proofs per epoch"},"maxRewardPerEpoch()":{"details":"Returns the max reward pool per epoch"},"minDuration()":{"details":"Returns the min duration of CC in Epochs"},"minProofsPerEpoch()":{"details":"Returns the min required randomX proofs per epoch for the 1 CU.If lower than this - CU is failed and CC slashed."},"minRewardPerEpoch()":{"details":"Returns the min reward pool per epoch"},"owner()":{"details":"Returns the address of the current owner."},"randomXProxy()":{"details":"Returns the randomX proxy address for verification of randomX proofs"},"renounceOwnership()":{"details":"Leaves the contract without owner. It will not be possible to call `onlyOwner` functions. Can only be called by the current owner. NOTE: Renouncing ownership will leave the contract without an owner, thereby disabling any functionality that is only available to the owner."},"setCapacityConstant(uint8,uint256)":{"details":"Sets a constant with a uint256 value"},"setDifficulty(bytes32)":{"details":"Sets the randomX difficulty"},"setFLTPrice(uint256)":{"details":"Sets the flt price"},"slashingRate()":{"details":"Returns the slashing rate for failed CU"},"transferOwnership(address)":{"details":"Transfers ownership of the contract to a new account (`newOwner`). Can only be called by the current owner."},"usdCollateralPerUnit()":{"details":"Returns the usd collateral per compute for creating CC"},"usdTargetRevenuePerEpoch()":{"details":"Returns the target revenue in usd value per epoch"},"vestingPeriodCount()":{"details":"Returns the total vesting periods"},"vestingPeriodDuration()":{"details":"Returns the vesting duration for one period in Epochs"},"withdrawEpochsAfterFailed()":{"details":"Returns the delay for withdraw collateral in Epochs after failed CC"}},"events":{"CapacityConstantUpdated(uint8,uint256)":{"details":"Emitted when a constant with a uint256 value is updated","params":{"constantType":"The type of the constant","newValue":"The new value of the constant"}},"DifficultyUpdated(bytes32)":{"details":"Emitted when the difficulty is updated","params":{"difficulty":"The new value of the difficulty"}},"FLTPriceUpdated(uint256)":{"details":"Emitted when the FLT price is updated","params":{"newValue":"The new value of the FLT price"}},"Initialized(uint8)":{"details":"Triggered when the contract has been initialized or reinitialized."}},"errors":{"OwnableInvalidOwner(address)":[{"details":"The owner is not a valid owner account. (eg. `address(0)`)"}],"OwnableUnauthorizedAccount(address)":[{"details":"The caller account is not authorized to perform an operation."}]}},"id":67}