{"abi":[{"type":"constructor","inputs":[],"stateMutability":"nonpayable"},{"type":"function","name":"UPGRADE_INTERFACE_VERSION","inputs":[],"outputs":[{"name":"","type":"string","internalType":"string"}],"stateMutability":"view"},{"type":"function","name":"WITHDRAW_REQUEST_DELAY","inputs":[],"outputs":[{"name":"","type":"uint256","internalType":"uint256"}],"stateMutability":"view"},{"type":"function","name":"coordinator","inputs":[],"outputs":[{"name":"","type":"address","internalType":"address"}],"stateMutability":"view"},{"type":"function","name":"dealBalancesTotal","inputs":[{"name":"token","type":"address","internalType":"contract IERC20"}],"outputs":[{"name":"supply","type":"uint256","internalType":"uint256"}],"stateMutability":"view"},{"type":"function","name":"diamond","inputs":[],"outputs":[{"name":"","type":"address","internalType":"address"}],"stateMutability":"view"},{"type":"function","name":"disableOnchainRefund","inputs":[],"outputs":[],"stateMutability":"nonpayable"},{"type":"function","name":"enableOnchainRefund","inputs":[],"outputs":[],"stateMutability":"nonpayable"},{"type":"function","name":"freeBalanceTotal","inputs":[{"name":"token","type":"address","internalType":"contract IERC20"}],"outputs":[{"name":"supply","type":"uint256","internalType":"uint256"}],"stateMutability":"view"},{"type":"function","name":"freezeAccount","inputs":[{"name":"user","type":"address","internalType":"address"}],"outputs":[],"stateMutability":"nonpayable"},{"type":"function","name":"frozen","inputs":[{"name":"user","type":"address","internalType":"address"}],"outputs":[{"name":"frozen","type":"bool","internalType":"bool"}],"stateMutability":"view"},{"type":"function","name":"fundFromLimbo","inputs":[{"name":"token","type":"address","internalType":"contract IERC20"},{"name":"user","type":"address","internalType":"address"},{"name":"amount","type":"uint256","internalType":"uint256"}],"outputs":[],"stateMutability":"nonpayable"},{"type":"function","name":"getFreeBalance","inputs":[{"name":"token","type":"address","internalType":"contract IERC20"},{"name":"user","type":"address","internalType":"address"}],"outputs":[{"name":"","type":"uint256","internalType":"uint256"}],"stateMutability":"view"},{"type":"function","name":"getFullBalance","inputs":[{"name":"token","type":"address","internalType":"contract IERC20"},{"name":"user","type":"address","internalType":"address"}],"outputs":[{"name":"","type":"uint256","internalType":"uint256"}],"stateMutability":"view"},{"type":"function","name":"initialize","inputs":[{"name":"_diamond","type":"address","internalType":"address"}],"outputs":[],"stateMutability":"nonpayable"},{"type":"function","name":"limbo","inputs":[{"name":"token","type":"address","internalType":"contract IERC20"},{"name":"user","type":"address","internalType":"address"}],"outputs":[{"name":"balance","type":"uint256","internalType":"uint256"}],"stateMutability":"view"},{"type":"function","name":"limboTotal","inputs":[{"name":"token","type":"address","internalType":"contract IERC20"}],"outputs":[{"name":"amount","type":"uint256","internalType":"uint256"}],"stateMutability":"view"},{"type":"function","name":"manualWithdrawEnabled","inputs":[],"outputs":[{"name":"","type":"bool","internalType":"bool"}],"stateMutability":"view"},{"type":"function","name":"migrateFundsFromDeal","inputs":[{"name":"token","type":"address","internalType":"contract IERC20"},{"name":"amount","type":"uint256","internalType":"uint256"}],"outputs":[],"stateMutability":"nonpayable"},{"type":"function","name":"moveBalanceFromDeal","inputs":[{"name":"token","type":"address","internalType":"contract IERC20"},{"name":"user","type":"address","internalType":"address"},{"name":"amount","type":"uint256","internalType":"uint256"},{"name":"reserved","type":"uint8","internalType":"uint8"}],"outputs":[],"stateMutability":"nonpayable"},{"type":"function","name":"moveBalanceToDeal","inputs":[{"name":"token","type":"address","internalType":"contract IERC20"},{"name":"user","type":"address","internalType":"address"},{"name":"amount","type":"uint256","internalType":"uint256"},{"name":"reserved","type":"uint8","internalType":"uint8"}],"outputs":[],"stateMutability":"nonpayable"},{"type":"function","name":"moveFreeBalance","inputs":[{"name":"token","type":"address","internalType":"contract IERC20"},{"name":"from","type":"address","internalType":"address"},{"name":"to","type":"address","internalType":"address"},{"name":"amount","type":"uint256","internalType":"uint256"},{"name":"reserved","type":"uint8","internalType":"uint8"}],"outputs":[],"stateMutability":"nonpayable"},{"type":"function","name":"poolBalance","inputs":[{"name":"token","type":"address","internalType":"contract IERC20"}],"outputs":[{"name":"amount","type":"uint256","internalType":"uint256"}],"stateMutability":"view"},{"type":"function","name":"poolTopUp","inputs":[{"name":"token","type":"address","internalType":"contract IERC20"},{"name":"amount","type":"uint256","internalType":"uint256"}],"outputs":[],"stateMutability":"nonpayable"},{"type":"function","name":"poolWithdraw","inputs":[{"name":"token","type":"address","internalType":"contract IERC20"},{"name":"amount","type":"uint256","internalType":"uint256"}],"outputs":[],"stateMutability":"nonpayable"},{"type":"function","name":"proxiableUUID","inputs":[],"outputs":[{"name":"","type":"bytes32","internalType":"bytes32"}],"stateMutability":"view"},{"type":"function","name":"refund","inputs":[{"name":"token","type":"address","internalType":"contract IERC20"},{"name":"user","type":"address","internalType":"address"},{"name":"amount","type":"uint256","internalType":"uint256"}],"outputs":[],"stateMutability":"nonpayable"},{"type":"function","name":"sendToLimbo","inputs":[{"name":"token","type":"address","internalType":"contract IERC20"},{"name":"user","type":"address","internalType":"address"}],"outputs":[],"stateMutability":"nonpayable"},{"type":"function","name":"setCoordinator","inputs":[{"name":"_coordinator","type":"address","internalType":"address"}],"outputs":[],"stateMutability":"nonpayable"},{"type":"function","name":"terminate","inputs":[{"name":"token","type":"address","internalType":"contract IERC20"}],"outputs":[],"stateMutability":"nonpayable"},{"type":"function","name":"terminationRequest","inputs":[{"name":"token","type":"address","internalType":"contract IERC20"}],"outputs":[],"stateMutability":"nonpayable"},{"type":"function","name":"terminationVeto","inputs":[{"name":"token","type":"address","internalType":"contract IERC20"},{"name":"user","type":"address","internalType":"address"}],"outputs":[],"stateMutability":"nonpayable"},{"type":"function","name":"topUpIds","inputs":[{"name":"","type":"string","internalType":"string"}],"outputs":[{"name":"","type":"bool","internalType":"bool"}],"stateMutability":"view"},{"type":"function","name":"unfreezeAccount","inputs":[{"name":"user","type":"address","internalType":"address"}],"outputs":[],"stateMutability":"nonpayable"},{"type":"function","name":"upgradeToAndCall","inputs":[{"name":"newImplementation","type":"address","internalType":"address"},{"name":"data","type":"bytes","internalType":"bytes"}],"outputs":[],"stateMutability":"payable"},{"type":"function","name":"userTopUp","inputs":[{"name":"token","type":"address","internalType":"contract IERC20"},{"name":"user","type":"address","internalType":"address"},{"name":"amount","type":"uint256","internalType":"uint256"},{"name":"topUpId","type":"string","internalType":"string"}],"outputs":[],"stateMutability":"nonpayable"},{"type":"function","name":"withdrawByDeal","inputs":[{"name":"token","type":"address","internalType":"contract IERC20"},{"name":"user","type":"address","internalType":"address"},{"name":"amount","type":"uint256","internalType":"uint256"},{"name":"reserved","type":"uint8","internalType":"uint8"}],"outputs":[],"stateMutability":"nonpayable"},{"type":"function","name":"withdrawFromLimbo","inputs":[{"name":"token","type":"address","internalType":"contract IERC20"},{"name":"user","type":"address","internalType":"address"},{"name":"to","type":"address","internalType":"address"},{"name":"amount","type":"uint256","internalType":"uint256"}],"outputs":[],"stateMutability":"nonpayable"},{"type":"event","name":"AccountFreezeStateChanged","inputs":[{"name":"user","type":"address","indexed":true,"internalType":"address"},{"name":"frozen","type":"bool","indexed":false,"internalType":"bool"}],"anonymous":false},{"type":"event","name":"BalanceMoved","inputs":[{"name":"token","type":"address","indexed":true,"internalType":"contract IERC20"},{"name":"from","type":"address","indexed":true,"internalType":"address"},{"name":"to","type":"address","indexed":true,"internalType":"address"},{"name":"amount","type":"uint256","indexed":false,"internalType":"uint256"},{"name":"reserved","type":"uint8","indexed":false,"internalType":"uint8"}],"anonymous":false},{"type":"event","name":"CoordinatorSet","inputs":[{"name":"coordinator","type":"address","indexed":true,"internalType":"address"}],"anonymous":false},{"type":"event","name":"DealDeposit","inputs":[{"name":"token","type":"address","indexed":true,"internalType":"contract IERC20"},{"name":"deal","type":"address","indexed":true,"internalType":"address"},{"name":"user","type":"address","indexed":true,"internalType":"address"},{"name":"amount","type":"uint256","indexed":false,"internalType":"uint256"},{"name":"reserved","type":"uint8","indexed":false,"internalType":"uint8"}],"anonymous":false},{"type":"event","name":"DealMigrated","inputs":[{"name":"deal","type":"address","indexed":true,"internalType":"address"},{"name":"token","type":"address","indexed":true,"internalType":"contract IERC20"},{"name":"amount","type":"uint256","indexed":false,"internalType":"uint256"}],"anonymous":false},{"type":"event","name":"DealWithdraw","inputs":[{"name":"token","type":"address","indexed":true,"internalType":"contract IERC20"},{"name":"deal","type":"address","indexed":true,"internalType":"address"},{"name":"user","type":"address","indexed":true,"internalType":"address"},{"name":"amount","type":"uint256","indexed":false,"internalType":"uint256"},{"name":"reserved","type":"uint8","indexed":false,"internalType":"uint8"}],"anonymous":false},{"type":"event","name":"FundedFromLimbo","inputs":[{"name":"token","type":"address","indexed":true,"internalType":"contract IERC20"},{"name":"user","type":"address","indexed":true,"internalType":"address"},{"name":"amount","type":"uint256","indexed":false,"internalType":"uint256"}],"anonymous":false},{"type":"event","name":"Initialized","inputs":[{"name":"version","type":"uint64","indexed":false,"internalType":"uint64"}],"anonymous":false},{"type":"event","name":"ManualWithdrawDisabled","inputs":[],"anonymous":false},{"type":"event","name":"ManualWithdrawEnabled","inputs":[],"anonymous":false},{"type":"event","name":"PoolTopUp","inputs":[{"name":"token","type":"address","indexed":true,"internalType":"contract IERC20"},{"name":"amount","type":"uint256","indexed":false,"internalType":"uint256"}],"anonymous":false},{"type":"event","name":"PoolWithdraw","inputs":[{"name":"token","type":"address","indexed":true,"internalType":"contract IERC20"},{"name":"amount","type":"uint256","indexed":false,"internalType":"uint256"}],"anonymous":false},{"type":"event","name":"Refunded","inputs":[{"name":"token","type":"address","indexed":true,"internalType":"contract IERC20"},{"name":"user","type":"address","indexed":true,"internalType":"address"},{"name":"amount","type":"uint256","indexed":false,"internalType":"uint256"}],"anonymous":false},{"type":"event","name":"SentToLimbo","inputs":[{"name":"token","type":"address","indexed":true,"internalType":"contract IERC20"},{"name":"user","type":"address","indexed":true,"internalType":"address"},{"name":"amount","type":"uint256","indexed":false,"internalType":"uint256"}],"anonymous":false},{"type":"event","name":"TerminationExecuted","inputs":[{"name":"token","type":"address","indexed":true,"internalType":"contract IERC20"},{"name":"user","type":"address","indexed":true,"internalType":"address"}],"anonymous":false},{"type":"event","name":"TerminationRequestCreated","inputs":[{"name":"token","type":"address","indexed":true,"internalType":"contract IERC20"},{"name":"user","type":"address","indexed":true,"internalType":"address"}],"anonymous":false},{"type":"event","name":"TerminationVeto","inputs":[{"name":"token","type":"address","indexed":true,"internalType":"contract IERC20"},{"name":"user","type":"address","indexed":true,"internalType":"address"}],"anonymous":false},{"type":"event","name":"Upgraded","inputs":[{"name":"implementation","type":"address","indexed":true,"internalType":"address"}],"anonymous":false},{"type":"event","name":"UserBalanceIncrease","inputs":[{"name":"token","type":"address","indexed":true,"internalType":"contract IERC20"},{"name":"user","type":"address","indexed":true,"internalType":"address"},{"name":"amount","type":"uint256","indexed":false,"internalType":"uint256"},{"name":"topUpId","type":"string","indexed":false,"internalType":"string"}],"anonymous":false},{"type":"event","name":"VodopadSet","inputs":[{"name":"vodopad","type":"address","indexed":true,"internalType":"address"}],"anonymous":false},{"type":"event","name":"Withdrawn","inputs":[{"name":"token","type":"address","indexed":true,"internalType":"contract IERC20"},{"name":"user","type":"address","indexed":true,"internalType":"address"},{"name":"amount","type":"uint256","indexed":false,"internalType":"uint256"},{"name":"reserved","type":"uint8","indexed":false,"internalType":"uint8"}],"anonymous":false},{"type":"event","name":"WithdrawnFromLimbo","inputs":[{"name":"token","type":"address","indexed":true,"internalType":"contract IERC20"},{"name":"user","type":"address","indexed":true,"internalType":"address"},{"name":"to","type":"address","indexed":true,"internalType":"address"},{"name":"amount","type":"uint256","indexed":false,"internalType":"uint256"}],"anonymous":false},{"type":"error","name":"AddressEmptyCode","inputs":[{"name":"target","type":"address","internalType":"address"}]},{"type":"error","name":"ERC1967InvalidImplementation","inputs":[{"name":"implementation","type":"address","internalType":"address"}]},{"type":"error","name":"ERC1967NonPayable","inputs":[]},{"type":"error","name":"FailedCall","inputs":[]},{"type":"error","name":"InvalidInitialization","inputs":[]},{"type":"error","name":"NotInitializing","inputs":[]},{"type":"error","name":"ReentrancyGuardReentrantCall","inputs":[]},{"type":"error","name":"SafeERC20FailedOperation","inputs":[{"name":"token","type":"address","internalType":"address"}]},{"type":"error","name":"UUPSUnauthorizedCallContext","inputs":[]},{"type":"error","name":"UUPSUnsupportedProxiableUUID","inputs":[{"name":"slot","type":"bytes32","internalType":"bytes32"}]}],"bytecode":{"object":"0x60a080604052346100f2573060805260ff19600c5416600c557ff0c57e16840df040f15088dc2f81fe391c3923bec73e23a9662efc9c229c6a005460ff8160401c166100e3576002600160401b03196001600160401b0382160161007d575b604051612bed90816100f7823960805181818161165c01526116fe0152f35b6001600160401b0319166001600160401b039081177ff0c57e16840df040f15088dc2f81fe391c3923bec73e23a9662efc9c229c6a005581527fc7f505b2f371ae2175ee4913f4499e1f2633a7b5936321eed1cdaeb6115181d290602090a15f8061005e565b63f92ee8a960e01b5f5260045ffd5b5f80fdfe6080806040526004361015610012575f80fd5b5f3560e01c90816301627f56146121c6575080630a0090971461219e578063116424cc14611fa95780631229add514611f715780631e4343ec14611f4f578063301aaac914611d2e57806331acc94214611a4d5780633adce715146119f55780633eb026af146118c05780634f1ef286146116b057806352d1902d1461164a57806368abb5e014611612578063788649ea146115ad5780637df5070f146114a15780637fad64011461133757806382ad6f35146111b457806388081fcb14610f8c5780638ea9811714610f1b578063933a6d5e14610ee357806395e1b41814610cea578063985a3e1a14610b905780639cf8fc3614610b3b578063a0aeae9f146109bb578063ad3cb1cc14610970578063ae77dc1014610920578063c08ea6e6146108c6578063c44ead3c1461088e578063c4d66de814610725578063d0516650146106e8578063d4f4ba481461067b578063db2aa12714610572578063de700da614610522578063ec178c13146104e3578063edb4552914610233578063f0b7db4e1461020c578063f26c159f146101d45763fac4bf22146101b3575f80fd5b346101d0575f3660031901126101d057602060405162093a808152f35b5f80fd5b346101d05760203660031901126101d05761020a6101f0612399565b61020560018060a01b03600154163314612661565b6127df565b005b346101d0575f3660031901126101d0575f546040516001600160a01b039091168152602090f35b346101d05760203660031901126101d05761024c612399565b335f52600a60205261026560ff60405f205416156125a3565b61026d61271e565b60ff600c541615610484576001600160a01b0381165f8181526004602090815260408083203384529091529020549091901561043357815f52600460205260405f2060018060a01b0333165f5260205262093a806102cf60405f205442612601565b106103e3575f8281526002602090815260408083203384529091529020541561038a575f82815260026020908152604080832033845282528083208054908490558584526005909252909120805461035293919061032e908490612601565b90555f84815260046020908152604080832033808552925282209190915590612753565b33907ff2a85b5556e546b36f4e27e17ad8d769e99fb9ca86e58a6a27b57f9b08f52afb5f80a35f5f80516020612b388339815191525d005b60405162461bcd60e51b815260206004820152602b60248201527f42616c616e63654b65657065723a2077697468647261773a206e6f7420656e6f60448201526a7567682062616c616e636560a81b6064820152608490fd5b60405162461bcd60e51b815260206004820152602260248201527f42616c616e63654b65657065723a2077697468647261773a20746f6f206561726044820152616c7960f01b6064820152608490fd5b60405162461bcd60e51b815260206004820152602360248201527f42616c616e63654b65657065723a2077697468647261773a206e6f2072657175604482015262195cdd60ea1b6064820152608490fd5b60405162461bcd60e51b815260206004820152603160248201527f42616c616e63654b65657065723a2077697468647261773a206d616e75616c206044820152701dda5d1a191c985dc8191a5cd8589b1959607a1b6064820152608490fd5b346101d05760403660031901126101d05761020a6104ff612399565b6105076123af565b9061051d60018060a01b03600154163314612661565b612818565b346101d05760403660031901126101d05761053b612399565b6105436123af565b6001600160a01b039182165f908152600260209081526040808320949093168252928352819020549051908152f35b346101d05760403660031901126101d05761058b612399565b6024356105a96001600160a01b036105a1612790565b1633146126b9565b60018060a01b03821691825f5260076020528160405f205410610617578161060e7f61a0b4d879cd5e5653631acae542581573d52905e66efcbb6246efca1ef306d693602093865f526007855260405f20610605838254612601565b90553390612753565b604051908152a2005b60405162461bcd60e51b815260206004820152603660248201527f42616c616e63654b65657065723a206e6f7420656e6f75676820616d6f756e74604482015275081d1bc81dda5d1a191c985dc8199c9bdb481c1bdbdb60521b6064820152608490fd5b346101d05760403660031901126101d05760206106e0610699612399565b6106a16123af565b6001600160a01b039182165f81815260028652604080822094909316808252938652828120549181526003865282812093815292855291205490612635565b604051908152f35b346101d05760203660031901126101d0576001600160a01b03610709612399565b165f52600a602052602060ff60405f2054166040519015158152f35b346101d05760203660031901126101d05761073e612399565b5f80516020612b5883398151915254604081901c60ff161591906001600160401b03811680159081610886575b600114908161087c575b159081610873575b50610864576001600160401b031981166001175f80516020612b58833981519152558261083c575b505f80546001600160a01b0319166001600160a01b03929092169190911790555f80516020612b588339815191525490604082901c60ff161561082d576107e857005b60ff60401b19165f80516020612b5883398151915255604051600181527fc7f505b2f371ae2175ee4913f4499e1f2633a7b5936321eed1cdaeb6115181d290602090a1005b631afcd79f60e31b5f5260045ffd5b6001600160481b0319166001600160401b01175f80516020612b5883398151915255826107a5565b63f92ee8a960e01b5f5260045ffd5b9050158461077d565b303b159150610775565b84915061076b565b346101d05760203660031901126101d0576001600160a01b036108af612399565b165f526009602052602060405f2054604051908152f35b346101d05760203660031901126101d0576004356001600160401b0381116101d05760ff6020806108fc819436906004016124ab565b604051928184925191829101835e8101600b81520301902054166040519015158152f35b346101d05760403660031901126101d057610939612399565b6109416123af565b6001600160a01b039182165f908152600860209081526040808320949093168252928352819020549051908152f35b346101d0575f3660031901126101d0576109b7604051610991604082612423565b60058152640352e302e360dc1b6020820152604051918291602083526020830190612503565b0390f35b346101d05760403660031901126101d0576109d4612399565b5f54604051632105305360e01b81523360048201526024803592602091839182906001600160a01b03165afa8015610b0157610a17915f91610b0c575b5061253f565b610a1f61271e565b604051638da5cb5b60e01b815291602083600481335afa928315610b01575f93610ad0575b5060018060a01b031691825f52600360205260405f209060018060a01b03165f5260205260405f20610a77828254612635565b9055815f52600660205260405f20610a90828254612635565b90556040519081527fbe2621ea924b53fdd75100b8ab51dc1f68d20dcb49e18bb989c43111e519529760203392a35f5f80516020612b388339815191525d005b610af391935060203d602011610afa575b610aeb8183612423565b810190612642565b9183610a44565b503d610ae1565b6040513d5f823e3d90fd5b610b2e915060203d602011610b34575b610b268183612423565b810190612527565b84610a11565b503d610b1c565b346101d0575f3660031901126101d057610b6060018060a01b03600154163314612661565b60ff19600c5416600c557f81efeaf2a7b0b2235e7258907f56e43162483d88c18edd2810f1b78378fe06e35f80a1005b346101d05760803660031901126101d057610ba9612399565b610bb16123af565b90610bba6123c5565b6064359190610bd26001600160a01b036105a1612790565b60018060a01b03821691825f52600860205260405f2060018060a01b0386165f526020528360405f205410610c885781610c71857f5fbabf990c76998ecbb2af9cc1a42242bb8b365195f203b61be26915a23101c594602094875f526008865260405f2060018060a01b038b165f52865260405f20610c52848254612601565b9055875f526009865260405f20610c6a848254612601565b9055612753565b6040519485526001600160a01b03908116951693a4005b60405162461bcd60e51b815260206004820152603460248201527f42616c616e63654b65657065723a20776974686472617746726f6d4c696d626f6044820152733a206e6f7420656e6f7567682062616c616e636560601b6064820152608490fd5b346101d05760a03660031901126101d057610d03612399565b610d0b6123af565b610d136123c5565b906064356084359160ff831683036101d0575f54604051632105305360e01b815233600482015290602090829060249082906001600160a01b03165afa8015610b0157610d66915f91610ec4575061253f565b60018060a01b031692835f52600a602052610d8860ff60405f205416156125a3565b60018060a01b031693845f52600a602052610daa60ff60405f205416156125a3565b610db261271e565b60018060a01b031691825f52600260205260405f20845f526020528160405f205410610e64577fec02109b69235dc964dc3600685d13d211d8f05b663fac885f581f60da3fc2ca91835f52600260205260405f20855f5260205260405f20610e1b828254612601565b9055835f52600260205260405f20865f5260205260405f20610e3e828254612635565b9055610e4f60405192839283612622565b0390a45f5f80516020612b388339815191525d005b60405162461bcd60e51b815260206004820152603260248201527f42616c616e63654b65657065723a206d6f76654672656542616c616e63653a206044820152716e6f7420656e6f7567682062616c616e636560701b6064820152608490fd5b610edd915060203d602011610b3457610b268183612423565b87610a11565b346101d05760203660031901126101d0576001600160a01b03610f04612399565b165f526005602052602060405f2054604051908152f35b346101d05760203660031901126101d057610f34612399565b610f476001600160a01b036105a1612790565b600180546001600160a01b0319166001600160a01b039290921691821790557fd1a6a14209a385a964d036e404cb5cfb71f4000cdb03c9366292430787261be65f80a2005b346101d057610f9a366123db565b5f54604051632105305360e01b81523360048201529293919290602090829060249082906001600160a01b03165afa8015610b0157610fdf915f91611195575061253f565b60018060a01b031692835f52600a60205261100160ff60405f205416156125a3565b61100961271e565b60018060a01b031690815f52600360205260405f20845f526020528260405f20541061114457815f5260066020528260405f2054106110ed57610e4f7f1e579e7583af5383169584a02ef5981c4b4f8d7ff2c36ccfdabfa6280036b3dd91835f52600360205260405f20865f5260205260405f20611088868254612601565b9055835f52600260205260405f20865f5260205260405f206110ab868254612635565b9055835f52600660205260405f206110c4868254612601565b9055835f52600560205260405f206110dd868254612635565b9055604051918291339683612622565b60405162461bcd60e51b815260206004820152603c60248201525f80516020612b7883398151915260448201527b616c3a206e6f7420656e6f75676820746f74616c2062616c616e636560201b6064820152608490fd5b60405162461bcd60e51b815260206004820152603660248201525f80516020612b78833981519152604482015275616c3a206e6f7420656e6f7567682062616c616e636560501b6064820152608490fd5b6111ae915060203d602011610b3457610b268183612423565b86610a11565b346101d0576111c2366124c9565b91906111d960018060a01b03600154163314612661565b60018060a01b03821691825f5260056020528360405f2054106112e457825f52600260205260405f2060018060a01b0383165f526020528360405f2054106112975781611284857fec1e5ed733e00f1a00915d56caef57b4f52312dde4f9b3165f213319a0da156b94602094875f526002865260405f2060018060a01b0383165f52865260405f2061126c848254612601565b9055875f526005865260405f20610c6a848254612601565b6040519485526001600160a01b031693a3005b60405162461bcd60e51b815260206004820152603260248201525f80516020612b988339815191526044820152716e6f7420656e6f7567682062616c616e636560701b6064820152608490fd5b60405162461bcd60e51b815260206004820152603860248201525f80516020612b988339815191526044820152776e6f7420656e6f75676820746f74616c2062616c616e636560401b6064820152608490fd5b346101d057611345366124c9565b916113596001600160a01b036105a1612790565b60018060a01b031690815f52600860205260405f2060018060a01b0382165f526020528260405f2054106114435760207fe01090fc510299f9e04f0680c85735399f733add7da9fbbf60e65fb26dd8975291835f526008825260405f2060018060a01b0382165f52825260405f206113d2868254612601565b9055835f526009825260405f206113ea868254612601565b90555f8481526002835260408082206001600160a01b0384168352845290208054611416908790612635565b9055835f526005825260405f2061142e868254612635565b90556040519485526001600160a01b031693a3005b60405162461bcd60e51b815260206004820152603060248201527f42616c616e63654b65657065723a2066756e6446726f6d4c696d626f3a206e6f60448201526f7420656e6f7567682062616c616e636560801b6064820152608490fd5b346101d05760403660031901126101d0576114ba612399565b6114c26123af565b6114d760018060a01b03600154163314612661565b60018060a01b03821691825f52600460205260405f2060018060a01b0383165f5260205260405f205415611568578161152f91845f52600460205260405f2060018060a01b0383165f526020525f6040812055612818565b611538816127df565b6001600160a01b0316907f286bdf093a3e9e05929ff8eacf03b75d534a86a972c2f1a699f8a4699713d70d5f80a3005b60405162461bcd60e51b815260206004820152601f60248201527f42616c616e63654b65657065723a207665746f3a206e6f2072657175657374006044820152606490fd5b346101d05760203660031901126101d0576115c6612399565b6115db60018060a01b03600154163314612661565b6001600160a01b03165f818152600a60209081526040808320805460ff19169055519182525f80516020612a7883398151915291a2005b346101d05760203660031901126101d0576001600160a01b03611633612399565b165f526007602052602060405f2054604051908152f35b346101d0575f3660031901126101d0577f00000000000000000000000000000000000000000000000000000000000000006001600160a01b031630036116a15760206040515f80516020612b188339815191528152f35b63703e46dd60e11b5f5260045ffd5b60403660031901126101d0576116c4612399565b6024356001600160401b0381116101d057366023820112156101d0576116f4903690602481600401359101612475565b6001600160a01b037f00000000000000000000000000000000000000000000000000000000000000001630811490811561189e575b506116a1576117416001600160a01b036105a1612790565b6040516352d1902d60e01b81526001600160a01b0383169290602081600481875afa5f918161186a575b506117835783634c9c8ce360e01b5f5260045260245ffd5b805f80516020612b188339815191528592036118585750813b15611846575f80516020612b1883398151915280546001600160a01b031916821790557fbc7cd75a20ee27fd9adebab32041f755214dbc6bffa90cc0225b39da2e5c2d3b5f80a281511561182e575f8083602061020a95519101845af43d15611826573d9161180a8361245a565b926118186040519485612423565b83523d5f602085013e6129f9565b6060916129f9565b50503461183757005b63b398979f60e01b5f5260045ffd5b634c9c8ce360e01b5f5260045260245ffd5b632a87526960e21b5f5260045260245ffd5b9091506020813d602011611896575b8161188660209383612423565b810103126101d05751908561176b565b3d9150611879565b5f80516020612b18833981519152546001600160a01b03161415905083611729565b346101d05760403660031901126101d0576118d9612399565b60243560018060a01b0360015416331480156119dc575b156119745760207f57031032c395383baf1c155b882b1c6e5df5305b62cdd7e7473f81096b01a8f29161060e60018060a01b03851694855f526007845260405f2061193c848254612635565b90556040516323b872dd60e01b85820152336024820152306044820152606480820185905281529061196f608483612423565b6129a1565b60405162461bcd60e51b815260206004820152604760248201525f80516020612a9883398151915260448201527f6f72206469616d6f6e64206f776e65722063616e2063616c6c207468697320666064820152663ab731ba34b7b760c91b608482015260a490fd5b506001600160a01b036119ed612790565b1633146118f0565b346101d0575f3660031901126101d057611a1a60018060a01b03600154163314612661565b600160ff19600c541617600c557f673504d5f4ad81783d4234d7058eeaf4814c874a6f50a994ceda8df9322f22e75f80a1005b346101d05760803660031901126101d057611a66612399565b611a6e6123af565b6044356064356001600160401b0381116101d057611a909036906004016124ab565b9160018060a01b031692835f52600a602052611ab360ff60405f205416156125a3565b5f546040516302984ebd60e31b815290602090829060049082906001600160a01b03165afa908115610b01575f91611d0f575b506001600160a01b03163303611caf5760405160ff845191602081818801948086835e8101600b8152030190205416611c51576020604051809286518091835e8101600b815203019020600160ff1982541617905560018060a01b031691825f5260076020528160405f205410611bef577fcc27a5bfdacae4227fbb65a1bf87152d71f26eb2abfe0b17b346e9db47dbea5b91835f52600760205260405f20611b90828254612601565b9055835f52600260205260405f20855f5260205260405f20611bb3828254612635565b9055835f52600560205260405f20611bcc828254612635565b9055611bea6040519283928352604060208401526040830190612503565b0390a3005b60405162461bcd60e51b815260206004820152603460248201527f42616c616e63654b65657065723a2075736572546f7055703a206e6f7420656e6044820152736f75676820676174657761792062616c616e636560601b6064820152608490fd5b60405162461bcd60e51b815260206004820152603060248201527f42616c616e63654b65657065723a2075736572546f7055703a20746f702d757060448201526f081a5908185b1c9958591e481d5cd95960821b6064820152608490fd5b60405162461bcd60e51b815260206004820152603260248201527f42616c616e63654b65657065723a204f6e6c7920766f646f7061642063616e2060448201527131b0b636103a3434b990333ab731ba34b7b760711b6064820152608490fd5b611d28915060203d602011610afa57610aeb8183612423565b85611ae6565b346101d05760203660031901126101d057611d47612399565b335f52600a602052611d6060ff60405f205416156125a3565b6001600160a01b03165f818152600360209081526040808320338452909152902054611efb5760ff600c541615611ea8575f81815260026020908152604080832033845290915290205415611e5b575f818152600460209081526040808320338452909152902054611e0f575f818152600460209081526040808320338085529252822042905591907f89a27f546dfff1a0bb7bc60c9474a89e83d0f6fb31c9cf6691b7b9d3daa327ba9080a3005b60405162461bcd60e51b815260206004820152603160248201525f80516020612ab8833981519152604482015270185b1c9958591e481c995c5d595cdd1959607a1b6064820152608490fd5b60405162461bcd60e51b815260206004820152603260248201525f80516020612ab88339815191526044820152716e6f7420656e6f7567682062616c616e636560701b6064820152608490fd5b60405162461bcd60e51b815260206004820152603860248201525f80516020612ab88339815191526044820152771b585b9d585b081dda5d1a191c985dc8191a5cd8589b195960421b6064820152608490fd5b60405162461bcd60e51b815260206004820152603960248201525f80516020612b988339815191526044820152786465616c2062616c616e6365206973206e6f7420656d70747960381b6064820152608490fd5b346101d0575f3660031901126101d057602060ff600c54166040519015158152f35b346101d05760203660031901126101d0576001600160a01b03611f92612399565b165f526006602052602060405f2054604051908152f35b346101d057611fb7366123db565b5f54604051632105305360e01b81523360048201529293919290602090829060249082906001600160a01b03165afa8015610b0157611ffc915f91611195575061253f565b60018060a01b031692835f52600a60205261201e60ff60405f205416156125a3565b61202661271e565b60018060a01b031690815f52600260205260405f20845f526020528260405f20541061214f57815f5260056020528260405f2054106120fa57610e4f7f1ed985403491d4a08bb28bb2994bfd1f10332130c44f1dea5ff57903c21d893c91835f52600360205260405f20865f5260205260405f206120a5868254612635565b9055835f52600260205260405f20865f5260205260405f206120c8868254612601565b9055835f52600660205260405f206120e1868254612635565b9055835f52600560205260405f206110dd868254612601565b60405162461bcd60e51b815260206004820152603a60248201525f80516020612a588339815191526044820152793a206e6f7420656e6f75676820746f74616c2062616c616e636560301b6064820152608490fd5b60405162461bcd60e51b815260206004820152603460248201525f80516020612a588339815191526044820152733a206e6f7420656e6f7567682062616c616e636560601b6064820152608490fd5b346101d0575f3660031901126101d0576001546040516001600160a01b039091168152602090f35b346101d0576121d4366123db565b909360208160248160018060a09998991b035f5416632105305360e01b82523360048301525afa8015610b0157612211915f91611195575061253f565b60018060a01b03831693845f52600a60205261223460ff60405f205416156125a3565b61223c61271e565b60018060a01b03831693845f52600260205260405f20865f526020528160405f20541061234d57845f5260056020528160405f2054106122fb57816122d7917f06b7a26d6a3a682884491b833e0c33a64a6759ba14f903c01b532185938ee45d95875f52600260205260405f20895f5260205260405f206122be848254612601565b9055875f52600560205260405f20610c6a848254612601565b6122e660405192839283612622565b0390a35f5f80516020612b388339815191525d005b60405162461bcd60e51b815260206004820152603760248201525f80516020612af88339815191526044820152766f7420656e6f75676820746f74616c2062616c616e636560481b6064820152608490fd5b60405162461bcd60e51b815260206004820152603160248201525f80516020612af88339815191526044820152706f7420656e6f7567682062616c616e636560781b6064820152608490fd5b600435906001600160a01b03821682036101d057565b602435906001600160a01b03821682036101d057565b604435906001600160a01b03821682036101d057565b60809060031901126101d0576004356001600160a01b03811681036101d057906024356001600160a01b03811681036101d057906044359060643560ff811681036101d05790565b601f909101601f19168101906001600160401b0382119082101761244657604052565b634e487b7160e01b5f52604160045260245ffd5b6001600160401b03811161244657601f01601f191660200190565b9291926124818261245a565b9161248f6040519384612423565b8294818452818301116101d0578281602093845f960137010152565b9080601f830112156101d0578160206124c693359101612475565b90565b60609060031901126101d0576004356001600160a01b03811681036101d057906024356001600160a01b03811681036101d0579060443590565b805180835260209291819084018484015e5f828201840152601f01601f1916010190565b908160209103126101d0575180151581036101d05790565b1561254657565b60405162461bcd60e51b815260206004820152602f60248201527f42616c616e63654b65657065723a204f6e6c79206465616c2063616e2063616c60448201526e36103a3434b990333ab731ba34b7b760891b6064820152608490fd5b156125aa57565b60405162461bcd60e51b815260206004820152602960248201527f42616c616e63654b65657065723a2055736572206973207065726d616e656e74604482015268363c90333937bd32b760b91b6064820152608490fd5b9190820391821161260e57565b634e487b7160e01b5f52601160045260245ffd5b90815260ff909116602082015260400190565b9190820180921161260e57565b908160209103126101d057516001600160a01b03811681036101d05790565b1561266857565b60405162461bcd60e51b815260206004820152603660248201525f80516020612a9883398151915260448201527531b0b71031b0b636103a3434b990333ab731ba34b7b760511b6064820152608490fd5b156126c057565b60405162461bcd60e51b815260206004820152603060248201527f42616c616e63654b65657065723a204f6e6c79206f776e65722063616e20636160448201526f3636103a3434b990333ab731ba34b7b760811b6064820152608490fd5b5f80516020612b388339815191525c6127445760015f80516020612b388339815191525d565b633ee5aeb560e01b5f5260045ffd5b60405163a9059cbb60e01b60208201526001600160a01b03909216602483015260448083019390935291815261278e9161196f606483612423565b565b5f54604051638da5cb5b60e01b815290602090829060049082906001600160a01b03165afa908115610b01575f916127c6575090565b6124c6915060203d602011610afa57610aeb8183612423565b60018060a01b0316805f52600a60205260405f20600160ff198254161790555f80516020612a78833981519152602060405160018152a2565b60018060a01b0316805f52600260205260405f2060018060a01b0383165f5260205260405f205491821561295757815f5260056020528260405f2054106129075760207f76c900dcf08461e70b464dbdfd91efe2f662a56655b60a776873402dfb2d700391835f526005825260405f20612893868254612601565b90555f8481526008835260408082206001600160a01b03841683528452902080546128bf908790612635565b9055835f526009825260405f206128d7868254612635565b90555f8481526002835260408082206001600160a01b0393909316808352928452808220919091555194855293a3565b60405162461bcd60e51b815260206004820152603560248201525f80516020612ad883398151915260448201527420656e6f75676820746f74616c2062616c616e636560581b6064820152608490fd5b60405162461bcd60e51b815260206004820152602f60248201525f80516020612ad883398151915260448201526e20656e6f7567682062616c616e636560881b6064820152608490fd5b905f602091828151910182855af115610b01575f513d6129f057506001600160a01b0381163b155b6129d05750565b635274afe760e01b5f9081526001600160a01b0391909116600452602490fd5b600114156129c9565b90612a1d5750805115612a0e57805190602001fd5b63d6bda27560e01b5f5260045ffd5b81511580612a4e575b612a2e575090565b639996b31560e01b5f9081526001600160a01b0391909116600452602490fd5b50803b15612a2656fe42616c616e63654b65657065723a206d6f766542616c616e6365546f4465616c3f802f8b92b9cc88cab0fa79c2885fa06c5ed00376770579a4eb7d1c2a8eb92d42616c616e63654b65657065723a204f6e6c7920636f6f7264696e61746f722042616c616e63654b65657065723a207769746864726177526571756573743a2042616c616e63654b65657065723a205f73656e64546f4c696d626f3a206e6f7442616c616e63654b65657065723a20776974686472617742794465616c3a206e360894a13ba1a3210667c828492db98dca3e2076cc3735a920a3ca505d382bbc9b779b17422d0df92223018b32b4d1fa46e071723d6817e2486d003becc55f00f0c57e16840df040f15088dc2f81fe391c3923bec73e23a9662efc9c229c6a0042616c616e63654b65657065723a206d6f766542616c616e636546726f6d446542616c616e63654b65657065723a20766f646f70616457697468647261773a20a26469706673582212201715929c01a9970bba99a7eafc5caa5a216a022a2885a5afaef8f4456079a5c064736f6c634300081a0033","linkReferences":{}},"methodIdentifiers":{"UPGRADE_INTERFACE_VERSION()":"ad3cb1cc","WITHDRAW_REQUEST_DELAY()":"fac4bf22","coordinator()":"0a009097","dealBalancesTotal(address)":"1229add5","diamond()":"f0b7db4e","disableOnchainRefund()":"9cf8fc36","enableOnchainRefund()":"3adce715","freeBalanceTotal(address)":"933a6d5e","freezeAccount(address)":"f26c159f","frozen(address)":"d0516650","fundFromLimbo(address,address,uint256)":"7fad6401","getFreeBalance(address,address)":"de700da6","getFullBalance(address,address)":"d4f4ba48","initialize(address)":"c4d66de8","limbo(address,address)":"ae77dc10","limboTotal(address)":"c44ead3c","manualWithdrawEnabled()":"1e4343ec","migrateFundsFromDeal(address,uint256)":"a0aeae9f","moveBalanceFromDeal(address,address,uint256,uint8)":"88081fcb","moveBalanceToDeal(address,address,uint256,uint8)":"116424cc","moveFreeBalance(address,address,address,uint256,uint8)":"95e1b418","poolBalance(address)":"68abb5e0","poolTopUp(address,uint256)":"3eb026af","poolWithdraw(address,uint256)":"db2aa127","proxiableUUID()":"52d1902d","refund(address,address,uint256)":"82ad6f35","sendToLimbo(address,address)":"ec178c13","setCoordinator(address)":"8ea98117","terminate(address)":"edb45529","terminationRequest(address)":"301aaac9","terminationVeto(address,address)":"7df5070f","topUpIds(string)":"c08ea6e6","unfreezeAccount(address)":"788649ea","upgradeToAndCall(address,bytes)":"4f1ef286","userTopUp(address,address,uint256,string)":"31acc942","withdrawByDeal(address,address,uint256,uint8)":"01627f56","withdrawFromLimbo(address,address,address,uint256)":"985a3e1a"},"storageLayout":{"storage":[{"astId":58385,"contract":"src/balance-keeper/BalanceKeeper.sol:BalanceKeeper","label":"diamond","offset":0,"slot":"0","type":"t_address"},{"astId":58387,"contract":"src/balance-keeper/BalanceKeeper.sol:BalanceKeeper","label":"coordinator","offset":0,"slot":"1","type":"t_address"},{"astId":58394,"contract":"src/balance-keeper/BalanceKeeper.sol:BalanceKeeper","label":"freeBalances","offset":0,"slot":"2","type":"t_mapping(t_contract(IERC20)39797,t_mapping(t_address,t_uint256))"},{"astId":58401,"contract":"src/balance-keeper/BalanceKeeper.sol:BalanceKeeper","label":"dealBalances","offset":0,"slot":"3","type":"t_mapping(t_contract(IERC20)39797,t_mapping(t_address,t_uint256))"},{"astId":58408,"contract":"src/balance-keeper/BalanceKeeper.sol:BalanceKeeper","label":"terminationRequests","offset":0,"slot":"4","type":"t_mapping(t_contract(IERC20)39797,t_mapping(t_address,t_uint256))"},{"astId":58413,"contract":"src/balance-keeper/BalanceKeeper.sol:BalanceKeeper","label":"freeBalanceTotal","offset":0,"slot":"5","type":"t_mapping(t_contract(IERC20)39797,t_uint256)"},{"astId":58418,"contract":"src/balance-keeper/BalanceKeeper.sol:BalanceKeeper","label":"dealBalancesTotal","offset":0,"slot":"6","type":"t_mapping(t_contract(IERC20)39797,t_uint256)"},{"astId":58423,"contract":"src/balance-keeper/BalanceKeeper.sol:BalanceKeeper","label":"poolBalance","offset":0,"slot":"7","type":"t_mapping(t_contract(IERC20)39797,t_uint256)"},{"astId":58430,"contract":"src/balance-keeper/BalanceKeeper.sol:BalanceKeeper","label":"limbo","offset":0,"slot":"8","type":"t_mapping(t_contract(IERC20)39797,t_mapping(t_address,t_uint256))"},{"astId":58435,"contract":"src/balance-keeper/BalanceKeeper.sol:BalanceKeeper","label":"limboTotal","offset":0,"slot":"9","type":"t_mapping(t_contract(IERC20)39797,t_uint256)"},{"astId":58439,"contract":"src/balance-keeper/BalanceKeeper.sol:BalanceKeeper","label":"frozen","offset":0,"slot":"10","type":"t_mapping(t_address,t_bool)"},{"astId":58443,"contract":"src/balance-keeper/BalanceKeeper.sol:BalanceKeeper","label":"topUpIds","offset":0,"slot":"11","type":"t_mapping(t_string_memory_ptr,t_bool)"},{"astId":58446,"contract":"src/balance-keeper/BalanceKeeper.sol:BalanceKeeper","label":"manualWithdrawEnabled","offset":0,"slot":"12","type":"t_bool"}],"types":{"t_address":{"encoding":"inplace","label":"address","numberOfBytes":"20"},"t_bool":{"encoding":"inplace","label":"bool","numberOfBytes":"1"},"t_contract(IERC20)39797":{"encoding":"inplace","label":"contract IERC20","numberOfBytes":"20"},"t_mapping(t_address,t_bool)":{"encoding":"mapping","key":"t_address","label":"mapping(address => bool)","numberOfBytes":"32","value":"t_bool"},"t_mapping(t_address,t_uint256)":{"encoding":"mapping","key":"t_address","label":"mapping(address => uint256)","numberOfBytes":"32","value":"t_uint256"},"t_mapping(t_contract(IERC20)39797,t_mapping(t_address,t_uint256))":{"encoding":"mapping","key":"t_contract(IERC20)39797","label":"mapping(contract IERC20 => mapping(address => uint256))","numberOfBytes":"32","value":"t_mapping(t_address,t_uint256)"},"t_mapping(t_contract(IERC20)39797,t_uint256)":{"encoding":"mapping","key":"t_contract(IERC20)39797","label":"mapping(contract IERC20 => uint256)","numberOfBytes":"32","value":"t_uint256"},"t_mapping(t_string_memory_ptr,t_bool)":{"encoding":"mapping","key":"t_string_memory_ptr","label":"mapping(string => bool)","numberOfBytes":"32","value":"t_bool"},"t_string_memory_ptr":{"encoding":"bytes","label":"string","numberOfBytes":"32"},"t_uint256":{"encoding":"inplace","label":"uint256","numberOfBytes":"32"}}},"devdoc":{"version":1,"kind":"dev","methods":{"constructor":{},"proxiableUUID()":{"details":"Implementation of the ERC-1822 {proxiableUUID} function. This returns the storage slot used by the implementation. It is used to validate the implementation's compatibility when performing an upgrade. IMPORTANT: A proxy pointing at a proxiable contract should not be considered proxiable itself, because this risks bricking a proxy that upgrades to it, by delegating to itself until out of gas. Thus it is critical that this function revert if invoked through a proxy. This is guaranteed by the `notDelegated` modifier."},"refund(address,address,uint256)":{"details":"Refunds the specified amount of tokens to the user"},"upgradeToAndCall(address,bytes)":{"details":"Upgrade the implementation of the proxy to `newImplementation`, and subsequently execute the function call encoded in `data`. Calls {_authorizeUpgrade}. Emits an {Upgraded} event."}},"events":{"Initialized(uint64)":{"details":"Triggered when the contract has been initialized or reinitialized."},"Upgraded(address)":{"details":"Emitted when the implementation is upgraded."}},"errors":{"AddressEmptyCode(address)":[{"details":"There's no code at `target` (it is not a contract)."}],"ERC1967InvalidImplementation(address)":[{"details":"The `implementation` of the proxy is invalid."}],"ERC1967NonPayable()":[{"details":"An upgrade function sees `msg.value > 0` that may be lost."}],"FailedCall()":[{"details":"A call to an address target failed. The target may have reverted."}],"InvalidInitialization()":[{"details":"The contract is already initialized."}],"NotInitializing()":[{"details":"The contract is not initializing."}],"ReentrancyGuardReentrantCall()":[{"details":"Unauthorized reentrant call."}],"SafeERC20FailedOperation(address)":[{"details":"An operation with an ERC-20 token failed."}],"UUPSUnauthorizedCallContext()":[{"details":"The call is from an unauthorized context."}],"UUPSUnsupportedProxiableUUID(bytes32)":[{"details":"The storage `slot` is unsupported as a UUID."}]}},"id":75}