{"abi":[{"type":"constructor","inputs":[],"stateMutability":"nonpayable"},{"type":"function","name":"UPGRADE_INTERFACE_VERSION","inputs":[],"outputs":[{"name":"","type":"string","internalType":"string"}],"stateMutability":"view"},{"type":"function","name":"WITHDRAW_REQUEST_DELAY","inputs":[],"outputs":[{"name":"","type":"uint256","internalType":"uint256"}],"stateMutability":"view"},{"type":"function","name":"coordinator","inputs":[],"outputs":[{"name":"","type":"address","internalType":"address"}],"stateMutability":"view"},{"type":"function","name":"dealBalancesTotal","inputs":[{"name":"token","type":"address","internalType":"contract IERC20"}],"outputs":[{"name":"supply","type":"uint256","internalType":"uint256"}],"stateMutability":"view"},{"type":"function","name":"diamond","inputs":[],"outputs":[{"name":"","type":"address","internalType":"address"}],"stateMutability":"view"},{"type":"function","name":"disableOnchainRefund","inputs":[],"outputs":[],"stateMutability":"nonpayable"},{"type":"function","name":"enableOnchainRefund","inputs":[],"outputs":[],"stateMutability":"nonpayable"},{"type":"function","name":"freeBalanceTotal","inputs":[{"name":"token","type":"address","internalType":"contract IERC20"}],"outputs":[{"name":"supply","type":"uint256","internalType":"uint256"}],"stateMutability":"view"},{"type":"function","name":"freezeAccount","inputs":[{"name":"user","type":"address","internalType":"address"}],"outputs":[],"stateMutability":"nonpayable"},{"type":"function","name":"frozen","inputs":[{"name":"user","type":"address","internalType":"address"}],"outputs":[{"name":"frozen","type":"bool","internalType":"bool"}],"stateMutability":"view"},{"type":"function","name":"fundFromLimbo","inputs":[{"name":"token","type":"address","internalType":"contract IERC20"},{"name":"user","type":"address","internalType":"address"},{"name":"amount","type":"uint256","internalType":"uint256"}],"outputs":[],"stateMutability":"nonpayable"},{"type":"function","name":"getFreeBalance","inputs":[{"name":"token","type":"address","internalType":"contract IERC20"},{"name":"user","type":"address","internalType":"address"}],"outputs":[{"name":"","type":"uint256","internalType":"uint256"}],"stateMutability":"view"},{"type":"function","name":"getFullBalance","inputs":[{"name":"token","type":"address","internalType":"contract IERC20"},{"name":"user","type":"address","internalType":"address"}],"outputs":[{"name":"","type":"uint256","internalType":"uint256"}],"stateMutability":"view"},{"type":"function","name":"initialize","inputs":[{"name":"_diamond","type":"address","internalType":"address"}],"outputs":[],"stateMutability":"nonpayable"},{"type":"function","name":"limbo","inputs":[{"name":"token","type":"address","internalType":"contract IERC20"},{"name":"user","type":"address","internalType":"address"}],"outputs":[{"name":"balance","type":"uint256","internalType":"uint256"}],"stateMutability":"view"},{"type":"function","name":"limboTotal","inputs":[{"name":"token","type":"address","internalType":"contract IERC20"}],"outputs":[{"name":"amount","type":"uint256","internalType":"uint256"}],"stateMutability":"view"},{"type":"function","name":"manualWithdrawEnabled","inputs":[],"outputs":[{"name":"","type":"bool","internalType":"bool"}],"stateMutability":"view"},{"type":"function","name":"migrateFundsFromDeal","inputs":[{"name":"token","type":"address","internalType":"contract IERC20"},{"name":"amount","type":"uint256","internalType":"uint256"}],"outputs":[],"stateMutability":"nonpayable"},{"type":"function","name":"moveBalanceFromDeal","inputs":[{"name":"token","type":"address","internalType":"contract IERC20"},{"name":"user","type":"address","internalType":"address"},{"name":"amount","type":"uint256","internalType":"uint256"}],"outputs":[],"stateMutability":"nonpayable"},{"type":"function","name":"moveBalanceToDeal","inputs":[{"name":"token","type":"address","internalType":"contract IERC20"},{"name":"user","type":"address","internalType":"address"},{"name":"amount","type":"uint256","internalType":"uint256"}],"outputs":[],"stateMutability":"nonpayable"},{"type":"function","name":"moveFreeBalance","inputs":[{"name":"token","type":"address","internalType":"contract IERC20"},{"name":"from","type":"address","internalType":"address"},{"name":"to","type":"address","internalType":"address"},{"name":"amount","type":"uint256","internalType":"uint256"}],"outputs":[],"stateMutability":"nonpayable"},{"type":"function","name":"poolBalance","inputs":[{"name":"token","type":"address","internalType":"contract IERC20"}],"outputs":[{"name":"amount","type":"uint256","internalType":"uint256"}],"stateMutability":"view"},{"type":"function","name":"poolTopUp","inputs":[{"name":"token","type":"address","internalType":"contract IERC20"},{"name":"amount","type":"uint256","internalType":"uint256"}],"outputs":[],"stateMutability":"nonpayable"},{"type":"function","name":"proxiableUUID","inputs":[],"outputs":[{"name":"","type":"bytes32","internalType":"bytes32"}],"stateMutability":"view"},{"type":"function","name":"refund","inputs":[{"name":"token","type":"address","internalType":"contract IERC20"},{"name":"user","type":"address","internalType":"address"},{"name":"amount","type":"uint256","internalType":"uint256"}],"outputs":[],"stateMutability":"nonpayable"},{"type":"function","name":"sendToLimbo","inputs":[{"name":"token","type":"address","internalType":"contract IERC20"},{"name":"user","type":"address","internalType":"address"}],"outputs":[],"stateMutability":"nonpayable"},{"type":"function","name":"setCoordinator","inputs":[{"name":"_coordinator","type":"address","internalType":"address"}],"outputs":[],"stateMutability":"nonpayable"},{"type":"function","name":"terminate","inputs":[{"name":"token","type":"address","internalType":"contract IERC20"}],"outputs":[],"stateMutability":"nonpayable"},{"type":"function","name":"terminationRequest","inputs":[{"name":"token","type":"address","internalType":"contract IERC20"}],"outputs":[],"stateMutability":"nonpayable"},{"type":"function","name":"terminationVeto","inputs":[{"name":"token","type":"address","internalType":"contract IERC20"},{"name":"user","type":"address","internalType":"address"}],"outputs":[],"stateMutability":"nonpayable"},{"type":"function","name":"topUpIds","inputs":[{"name":"","type":"string","internalType":"string"}],"outputs":[{"name":"","type":"bool","internalType":"bool"}],"stateMutability":"view"},{"type":"function","name":"unfreezeAccount","inputs":[{"name":"user","type":"address","internalType":"address"}],"outputs":[],"stateMutability":"nonpayable"},{"type":"function","name":"upgradeToAndCall","inputs":[{"name":"newImplementation","type":"address","internalType":"address"},{"name":"data","type":"bytes","internalType":"bytes"}],"outputs":[],"stateMutability":"payable"},{"type":"function","name":"userTopUp","inputs":[{"name":"token","type":"address","internalType":"contract IERC20"},{"name":"user","type":"address","internalType":"address"},{"name":"amount","type":"uint256","internalType":"uint256"},{"name":"topUpId","type":"string","internalType":"string"}],"outputs":[],"stateMutability":"nonpayable"},{"type":"function","name":"withdrawByDeal","inputs":[{"name":"token","type":"address","internalType":"contract IERC20"},{"name":"user","type":"address","internalType":"address"},{"name":"amount","type":"uint256","internalType":"uint256"}],"outputs":[],"stateMutability":"nonpayable"},{"type":"function","name":"withdrawFromLimbo","inputs":[{"name":"token","type":"address","internalType":"contract IERC20"},{"name":"user","type":"address","internalType":"address"},{"name":"to","type":"address","internalType":"address"},{"name":"amount","type":"uint256","internalType":"uint256"}],"outputs":[],"stateMutability":"nonpayable"},{"type":"event","name":"AccountFreezeStateChanged","inputs":[{"name":"user","type":"address","indexed":true,"internalType":"address"},{"name":"frozen","type":"bool","indexed":false,"internalType":"bool"}],"anonymous":false},{"type":"event","name":"BalanceMoved","inputs":[{"name":"token","type":"address","indexed":true,"internalType":"contract IERC20"},{"name":"from","type":"address","indexed":true,"internalType":"address"},{"name":"to","type":"address","indexed":true,"internalType":"address"},{"name":"amount","type":"uint256","indexed":false,"internalType":"uint256"}],"anonymous":false},{"type":"event","name":"CoordinatorSet","inputs":[{"name":"coordinator","type":"address","indexed":true,"internalType":"address"}],"anonymous":false},{"type":"event","name":"DealDeposit","inputs":[{"name":"token","type":"address","indexed":true,"internalType":"contract IERC20"},{"name":"deal","type":"address","indexed":true,"internalType":"address"},{"name":"user","type":"address","indexed":true,"internalType":"address"},{"name":"amount","type":"uint256","indexed":false,"internalType":"uint256"}],"anonymous":false},{"type":"event","name":"DealMigrated","inputs":[{"name":"deal","type":"address","indexed":true,"internalType":"address"},{"name":"token","type":"address","indexed":true,"internalType":"contract IERC20"},{"name":"amount","type":"uint256","indexed":false,"internalType":"uint256"}],"anonymous":false},{"type":"event","name":"DealWithdraw","inputs":[{"name":"token","type":"address","indexed":true,"internalType":"contract IERC20"},{"name":"deal","type":"address","indexed":true,"internalType":"address"},{"name":"user","type":"address","indexed":true,"internalType":"address"},{"name":"amount","type":"uint256","indexed":false,"internalType":"uint256"}],"anonymous":false},{"type":"event","name":"FundedFromLimbo","inputs":[{"name":"token","type":"address","indexed":true,"internalType":"contract IERC20"},{"name":"user","type":"address","indexed":true,"internalType":"address"},{"name":"amount","type":"uint256","indexed":false,"internalType":"uint256"}],"anonymous":false},{"type":"event","name":"Initialized","inputs":[{"name":"version","type":"uint64","indexed":false,"internalType":"uint64"}],"anonymous":false},{"type":"event","name":"ManualWithdrawDisabled","inputs":[],"anonymous":false},{"type":"event","name":"ManualWithdrawEnabled","inputs":[],"anonymous":false},{"type":"event","name":"PoolTopUp","inputs":[{"name":"token","type":"address","indexed":true,"internalType":"contract IERC20"},{"name":"amount","type":"uint256","indexed":false,"internalType":"uint256"}],"anonymous":false},{"type":"event","name":"Refunded","inputs":[{"name":"token","type":"address","indexed":true,"internalType":"contract IERC20"},{"name":"user","type":"address","indexed":true,"internalType":"address"},{"name":"amount","type":"uint256","indexed":false,"internalType":"uint256"}],"anonymous":false},{"type":"event","name":"SentToLimbo","inputs":[{"name":"token","type":"address","indexed":true,"internalType":"contract IERC20"},{"name":"user","type":"address","indexed":true,"internalType":"address"},{"name":"amount","type":"uint256","indexed":false,"internalType":"uint256"}],"anonymous":false},{"type":"event","name":"TerminationExecuted","inputs":[{"name":"token","type":"address","indexed":true,"internalType":"contract IERC20"},{"name":"user","type":"address","indexed":true,"internalType":"address"}],"anonymous":false},{"type":"event","name":"TerminationRequestCreated","inputs":[{"name":"token","type":"address","indexed":true,"internalType":"contract IERC20"},{"name":"user","type":"address","indexed":true,"internalType":"address"}],"anonymous":false},{"type":"event","name":"TerminationVeto","inputs":[{"name":"token","type":"address","indexed":true,"internalType":"contract IERC20"},{"name":"user","type":"address","indexed":true,"internalType":"address"}],"anonymous":false},{"type":"event","name":"Upgraded","inputs":[{"name":"implementation","type":"address","indexed":true,"internalType":"address"}],"anonymous":false},{"type":"event","name":"UserBalanceIncrease","inputs":[{"name":"token","type":"address","indexed":true,"internalType":"contract IERC20"},{"name":"user","type":"address","indexed":true,"internalType":"address"},{"name":"amount","type":"uint256","indexed":false,"internalType":"uint256"},{"name":"topUpId","type":"string","indexed":false,"internalType":"string"}],"anonymous":false},{"type":"event","name":"VodopadSet","inputs":[{"name":"vodopad","type":"address","indexed":true,"internalType":"address"}],"anonymous":false},{"type":"event","name":"WithdrawnFromLimbo","inputs":[{"name":"token","type":"address","indexed":true,"internalType":"contract IERC20"},{"name":"user","type":"address","indexed":true,"internalType":"address"},{"name":"to","type":"address","indexed":true,"internalType":"address"},{"name":"amount","type":"uint256","indexed":false,"internalType":"uint256"}],"anonymous":false},{"type":"error","name":"AddressEmptyCode","inputs":[{"name":"target","type":"address","internalType":"address"}]},{"type":"error","name":"ERC1967InvalidImplementation","inputs":[{"name":"implementation","type":"address","internalType":"address"}]},{"type":"error","name":"ERC1967NonPayable","inputs":[]},{"type":"error","name":"FailedCall","inputs":[]},{"type":"error","name":"InvalidInitialization","inputs":[]},{"type":"error","name":"NotInitializing","inputs":[]},{"type":"error","name":"ReentrancyGuardReentrantCall","inputs":[]},{"type":"error","name":"SafeERC20FailedOperation","inputs":[{"name":"token","type":"address","internalType":"address"}]},{"type":"error","name":"UUPSUnauthorizedCallContext","inputs":[]},{"type":"error","name":"UUPSUnsupportedProxiableUUID","inputs":[{"name":"slot","type":"bytes32","internalType":"bytes32"}]}],"bytecode":{"object":"0x60a080604052346100f2573060805260ff19600c5416600c557ff0c57e16840df040f15088dc2f81fe391c3923bec73e23a9662efc9c229c6a005460ff8160401c166100e3576002600160401b03196001600160401b0382160161007d575b6040516129dc90816100f7823960805181818161170601526117a80152f35b6001600160401b0319166001600160401b039081177ff0c57e16840df040f15088dc2f81fe391c3923bec73e23a9662efc9c229c6a005581527fc7f505b2f371ae2175ee4913f4499e1f2633a7b5936321eed1cdaeb6115181d290602090a15f8061005e565b63f92ee8a960e01b5f5260045ffd5b5f80fdfe6080806040526004361015610012575f80fd5b5f3560e01c9081630373bbe314611ffe575080630a00909714611fd65780631229add514611f9e5780631e4343ec14611f7c578063301aaac914611d5b57806331acc94214611a7a5780633adce71514611a225780633eb026af1461196a5780634f1ef2861461175a57806352d1902d146116f457806368abb5e0146116bc578063788649ea146116575780637d46d8d6146114455780637df5070f146113395780637fad6401146111cf57806382ad6f351461104c5780638ea9811714610fdb578063933a6d5e14610fa3578063985a3e1a14610e665780639cf8fc3614610e11578063a0aeae9f14610cad578063a2e939b114610a9f578063ad3cb1cc14610a54578063ad5fbcc81461085c578063ae77dc101461080c578063c08ea6e6146107b2578063c44ead3c1461077a578063c4d66de814610611578063d0516650146105d4578063d4f4ba4814610567578063de700da614610517578063ec178c13146104d8578063edb4552914610228578063f0b7db4e14610201578063f26c159f146101c95763fac4bf22146101a8575f80fd5b346101c5575f3660031901126101c557602060405162093a808152f35b5f80fd5b346101c55760203660031901126101c5576101ff6101e56121b8565b6101fa60018060a01b0360015416331461245d565b612562565b005b346101c5575f3660031901126101c5575f546040516001600160a01b039091168152602090f35b346101c55760203660031901126101c5576102416121b8565b335f52600a60205261025a60ff60405f205416156123b2565b61026261252d565b60ff600c541615610479576001600160a01b0381165f8181526004602090815260408083203384529091529020549091901561042857815f52600460205260405f2060018060a01b0333165f5260205262093a806102c460405f205442612410565b106103d8575f8281526002602090815260408083203384529091529020541561037f575f828152600260209081526040808320338452825280832080549084905585845260059092529091208054610347939190610323908490612410565b90555f84815260046020908152604080832033808552925282209190915590612773565b33907ff2a85b5556e546b36f4e27e17ad8d769e99fb9ca86e58a6a27b57f9b08f52afb5f80a35f5f805160206129278339815191525d005b60405162461bcd60e51b815260206004820152602b60248201527f42616c616e63654b65657065723a2077697468647261773a206e6f7420656e6f60448201526a7567682062616c616e636560a81b6064820152608490fd5b60405162461bcd60e51b815260206004820152602260248201527f42616c616e63654b65657065723a2077697468647261773a20746f6f206561726044820152616c7960f01b6064820152608490fd5b60405162461bcd60e51b815260206004820152602360248201527f42616c616e63654b65657065723a2077697468647261773a206e6f2072657175604482015262195cdd60ea1b6064820152608490fd5b60405162461bcd60e51b815260206004820152603160248201527f42616c616e63654b65657065723a2077697468647261773a206d616e75616c206044820152701dda5d1a191c985dc8191a5cd8589b1959607a1b6064820152608490fd5b346101c55760403660031901126101c5576101ff6104f46121b8565b6104fc6121ce565b9061051260018060a01b0360015416331461245d565b61259b565b346101c55760403660031901126101c5576105306121b8565b6105386121ce565b6001600160a01b039182165f908152600260209081526040808320949093168252928352819020549051908152f35b346101c55760403660031901126101c55760206105cc6105856121b8565b61058d6121ce565b6001600160a01b039182165f81815260028652604080822094909316808252938652828120549181526003865282812093815292855291205490612431565b604051908152f35b346101c55760203660031901126101c5576001600160a01b036105f56121b8565b165f52600a602052602060ff60405f2054166040519015158152f35b346101c55760203660031901126101c55761062a6121b8565b5f8051602061294783398151915254604081901c60ff161591906001600160401b03811680159081610772575b6001149081610768575b15908161075f575b50610750576001600160401b031981166001175f805160206129478339815191525582610728575b505f80546001600160a01b0319166001600160a01b03929092169190911790555f805160206129478339815191525490604082901c60ff1615610719576106d457005b60ff60401b19165f8051602061294783398151915255604051600181527fc7f505b2f371ae2175ee4913f4499e1f2633a7b5936321eed1cdaeb6115181d290602090a1005b631afcd79f60e31b5f5260045ffd5b6001600160481b0319166001600160401b01175f805160206129478339815191525582610691565b63f92ee8a960e01b5f5260045ffd5b90501584610669565b303b159150610661565b849150610657565b346101c55760203660031901126101c5576001600160a01b0361079b6121b8565b165f526009602052602060405f2054604051908152f35b346101c55760203660031901126101c5576004356001600160401b0381116101c55760ff6020806107e8819436906004016122ba565b604051928184925191829101835e8101600b81520301902054166040519015158152f35b346101c55760403660031901126101c5576108256121b8565b61082d6121ce565b6001600160a01b039182165f908152600860209081526040808320949093168252928352819020549051908152f35b346101c55761086a366122d8565b5f54604051632105305360e01b815233600482015291929190602090829060249082906001600160a01b03165afa8015610a49576108af915f91610a1a575b5061234e565b6001600160a01b0381165f908152600a60205260409020546108d49060ff16156123b2565b6108dc61252d565b60018060a01b03831692835f52600260205260405f2060018060a01b0383165f526020528260405f2054106109ce57835f5260056020528260405f20541061097c578361096a945f52600260205260405f2060018060a01b0384165f5260205260405f2061094b858254612410565b90555f52600560205260405f20610963848254612410565b9055612773565b5f5f805160206129278339815191525d005b60405162461bcd60e51b815260206004820152603760248201525f805160206128e78339815191526044820152766f7420656e6f75676820746f74616c2062616c616e636560481b6064820152608490fd5b60405162461bcd60e51b815260206004820152603160248201525f805160206128e78339815191526044820152706f7420656e6f7567682062616c616e636560781b6064820152608490fd5b610a3c915060203d602011610a42575b610a348183612232565b810190612336565b856108a9565b503d610a2a565b6040513d5f823e3d90fd5b346101c5575f3660031901126101c557610a9b604051610a75604082612232565b60058152640352e302e360dc1b6020820152604051918291602083526020830190612312565b0390f35b346101c557610aad366122d8565b5f54604051632105305360e01b815233600482015291929190602090829060249082906001600160a01b03165afa8015610a4957610af1915f91610a1a575061234e565b60018060a01b031691825f52600a602052610b1360ff60405f205416156123b2565b610b1b61252d565b60018060a01b0316805f52600260205260405f20835f526020528160405f205410610c5e57805f5260056020528160405f205410610c0957805f52600360205260405f20835f5260205260405f20610b74838254612431565b9055805f52600260205260405f20835f5260205260405f20610b97838254612410565b9055805f52600660205260405f20610bb0838254612431565b9055805f52600560205260405f20610bc9838254612410565b90556040519182527f417e6fae9a3404310648daa26e124fbba3b4228d27a617507f91e5d2fc8c604f60203393a45f5f805160206129278339815191525d005b60405162461bcd60e51b815260206004820152603a60248201525f805160206128678339815191526044820152793a206e6f7420656e6f75676820746f74616c2062616c616e636560301b6064820152608490fd5b60405162461bcd60e51b815260206004820152603460248201525f805160206128678339815191526044820152733a206e6f7420656e6f7567682062616c616e636560601b6064820152608490fd5b346101c55760403660031901126101c557610cc66121b8565b5f54604051632105305360e01b81523360048201526024803592602091839182906001600160a01b03165afa8015610a4957610d08915f91610df2575061234e565b610d1061252d565b604051638da5cb5b60e01b815291602083600481335afa928315610a49575f93610dc1575b5060018060a01b031691825f52600360205260405f209060018060a01b03165f5260205260405f20610d68828254612431565b9055815f52600660205260405f20610d81828254612431565b90556040519081527fbe2621ea924b53fdd75100b8ab51dc1f68d20dcb49e18bb989c43111e519529760203392a35f5f805160206129278339815191525d005b610de491935060203d602011610deb575b610ddc8183612232565b81019061243e565b9183610d35565b503d610dd2565b610e0b915060203d602011610a4257610a348183612232565b846108a9565b346101c5575f3660031901126101c557610e3660018060a01b0360015416331461245d565b60ff19600c5416600c557f81efeaf2a7b0b2235e7258907f56e43162483d88c18edd2810f1b78378fe06e35f80a1005b346101c557610e74366121e4565b919290610e926001600160a01b03610e8a612724565b1633146124c8565b60018060a01b03821691825f52600860205260405f2060018060a01b0386165f526020528360405f205410610f415781610f2a857f5fbabf990c76998ecbb2af9cc1a42242bb8b365195f203b61be26915a23101c594602094875f526008865260405f2060018060a01b038b165f52865260405f20610f12848254612410565b9055875f526009865260405f20610963848254612410565b6040519485526001600160a01b03908116951693a4005b60405162461bcd60e51b815260206004820152603460248201527f42616c616e63654b65657065723a20776974686472617746726f6d4c696d626f6044820152733a206e6f7420656e6f7567682062616c616e636560601b6064820152608490fd5b346101c55760203660031901126101c5576001600160a01b03610fc46121b8565b165f526005602052602060405f2054604051908152f35b346101c55760203660031901126101c557610ff46121b8565b6110076001600160a01b03610e8a612724565b600180546001600160a01b0319166001600160a01b039290921691821790557fd1a6a14209a385a964d036e404cb5cfb71f4000cdb03c9366292430787261be65f80a2005b346101c55761105a366122d8565b919061107160018060a01b0360015416331461245d565b60018060a01b03821691825f5260056020528360405f20541061117c57825f52600260205260405f2060018060a01b0383165f526020528360405f20541061112f578161111c857fec1e5ed733e00f1a00915d56caef57b4f52312dde4f9b3165f213319a0da156b94602094875f526002865260405f2060018060a01b0383165f52865260405f20611104848254612410565b9055875f526005865260405f20610963848254612410565b6040519485526001600160a01b031693a3005b60405162461bcd60e51b815260206004820152603260248201525f805160206129878339815191526044820152716e6f7420656e6f7567682062616c616e636560701b6064820152608490fd5b60405162461bcd60e51b815260206004820152603860248201525f805160206129878339815191526044820152776e6f7420656e6f75676820746f74616c2062616c616e636560401b6064820152608490fd5b346101c5576111dd366122d8565b916111f16001600160a01b03610e8a612724565b60018060a01b031690815f52600860205260405f2060018060a01b0382165f526020528260405f2054106112db5760207fe01090fc510299f9e04f0680c85735399f733add7da9fbbf60e65fb26dd8975291835f526008825260405f2060018060a01b0382165f52825260405f2061126a868254612410565b9055835f526009825260405f20611282868254612410565b90555f8481526002835260408082206001600160a01b03841683528452902080546112ae908790612431565b9055835f526005825260405f206112c6868254612431565b90556040519485526001600160a01b031693a3005b60405162461bcd60e51b815260206004820152603060248201527f42616c616e63654b65657065723a2066756e6446726f6d4c696d626f3a206e6f60448201526f7420656e6f7567682062616c616e636560801b6064820152608490fd5b346101c55760403660031901126101c5576113526121b8565b61135a6121ce565b61136f60018060a01b0360015416331461245d565b60018060a01b03821691825f52600460205260405f2060018060a01b0383165f5260205260405f20541561140057816113c791845f52600460205260405f2060018060a01b0383165f526020525f604081205561259b565b6113d081612562565b6001600160a01b0316907f286bdf093a3e9e05929ff8eacf03b75d534a86a972c2f1a699f8a4699713d70d5f80a3005b60405162461bcd60e51b815260206004820152601f60248201527f42616c616e63654b65657065723a207665746f3a206e6f2072657175657374006044820152606490fd5b346101c557611453366122d8565b5f54604051632105305360e01b815233600482015291929190602090829060249082906001600160a01b03165afa8015610a4957611497915f91610a1a575061234e565b60018060a01b031691825f52600a6020526114b960ff60405f205416156123b2565b6114c161252d565b60018060a01b0316805f52600360205260405f20835f526020528160405f20541061160657805f5260066020528160405f2054106115af57805f52600360205260405f20835f5260205260405f2061151a838254612410565b9055805f52600260205260405f20835f5260205260405f2061153d838254612431565b9055805f52600660205260405f20611556838254612410565b9055805f52600560205260405f2061156f838254612431565b90556040519182527fdfc03ed4e632d03b0768927a026cf737ff22fe29053c7a43a16dbaefb523a38960203393a45f5f805160206129278339815191525d005b60405162461bcd60e51b815260206004820152603c60248201525f8051602061296783398151915260448201527b616c3a206e6f7420656e6f75676820746f74616c2062616c616e636560201b6064820152608490fd5b60405162461bcd60e51b815260206004820152603660248201525f80516020612967833981519152604482015275616c3a206e6f7420656e6f7567682062616c616e636560501b6064820152608490fd5b346101c55760203660031901126101c5576116706121b8565b61168560018060a01b0360015416331461245d565b6001600160a01b03165f818152600a60209081526040808320805460ff19169055519182525f8051602061288783398151915291a2005b346101c55760203660031901126101c5576001600160a01b036116dd6121b8565b165f526007602052602060405f2054604051908152f35b346101c5575f3660031901126101c5577f00000000000000000000000000000000000000000000000000000000000000006001600160a01b0316300361174b5760206040515f805160206129078339815191528152f35b63703e46dd60e11b5f5260045ffd5b60403660031901126101c55761176e6121b8565b6024356001600160401b0381116101c557366023820112156101c55761179e903690602481600401359101612284565b6001600160a01b037f000000000000000000000000000000000000000000000000000000000000000016308114908115611948575b5061174b576117eb6001600160a01b03610e8a612724565b6040516352d1902d60e01b81526001600160a01b0383169290602081600481875afa5f9181611914575b5061182d5783634c9c8ce360e01b5f5260045260245ffd5b805f805160206129078339815191528592036119025750813b156118f0575f8051602061290783398151915280546001600160a01b031916821790557fbc7cd75a20ee27fd9adebab32041f755214dbc6bffa90cc0225b39da2e5c2d3b5f80a28151156118d8575f808360206101ff95519101845af43d156118d0573d916118b483612269565b926118c26040519485612232565b83523d5f602085013e612808565b606091612808565b5050346118e157005b63b398979f60e01b5f5260045ffd5b634c9c8ce360e01b5f5260045260245ffd5b632a87526960e21b5f5260045260245ffd5b9091506020813d602011611940575b8161193060209383612232565b810103126101c557519085611815565b3d9150611923565b5f80516020612907833981519152546001600160a01b031614159050836117d3565b346101c55760403660031901126101c5576119836121b8565b7f57031032c395383baf1c155b882b1c6e5df5305b62cdd7e7473f81096b01a8f260206024356119be60018060a01b0360015416331461245d565b611a1960018060a01b03851694855f526007845260405f206119e1848254612431565b90556040516323b872dd60e01b858201523360248201523060448201526064808201859052815290611a14608483612232565b6127b0565b604051908152a2005b346101c5575f3660031901126101c557611a4760018060a01b0360015416331461245d565b600160ff19600c541617600c557f673504d5f4ad81783d4234d7058eeaf4814c874a6f50a994ceda8df9322f22e75f80a1005b346101c55760803660031901126101c557611a936121b8565b611a9b6121ce565b6044356064356001600160401b0381116101c557611abd9036906004016122ba565b9160018060a01b031692835f52600a602052611ae060ff60405f205416156123b2565b5f546040516302984ebd60e31b815290602090829060049082906001600160a01b03165afa908115610a49575f91611d3c575b506001600160a01b03163303611cdc5760405160ff845191602081818801948086835e8101600b8152030190205416611c7e576020604051809286518091835e8101600b815203019020600160ff1982541617905560018060a01b031691825f5260076020528160405f205410611c1c577fcc27a5bfdacae4227fbb65a1bf87152d71f26eb2abfe0b17b346e9db47dbea5b91835f52600760205260405f20611bbd828254612410565b9055835f52600260205260405f20855f5260205260405f20611be0828254612431565b9055835f52600560205260405f20611bf9828254612431565b9055611c176040519283928352604060208401526040830190612312565b0390a3005b60405162461bcd60e51b815260206004820152603460248201527f42616c616e63654b65657065723a2075736572546f7055703a206e6f7420656e6044820152736f75676820676174657761792062616c616e636560601b6064820152608490fd5b60405162461bcd60e51b815260206004820152603060248201527f42616c616e63654b65657065723a2075736572546f7055703a20746f702d757060448201526f081a5908185b1c9958591e481d5cd95960821b6064820152608490fd5b60405162461bcd60e51b815260206004820152603260248201527f42616c616e63654b65657065723a204f6e6c7920766f646f7061642063616e2060448201527131b0b636103a3434b990333ab731ba34b7b760711b6064820152608490fd5b611d55915060203d602011610deb57610ddc8183612232565b85611b13565b346101c55760203660031901126101c557611d746121b8565b335f52600a602052611d8d60ff60405f205416156123b2565b6001600160a01b03165f818152600360209081526040808320338452909152902054611f285760ff600c541615611ed5575f81815260026020908152604080832033845290915290205415611e88575f818152600460209081526040808320338452909152902054611e3c575f818152600460209081526040808320338085529252822042905591907f89a27f546dfff1a0bb7bc60c9474a89e83d0f6fb31c9cf6691b7b9d3daa327ba9080a3005b60405162461bcd60e51b815260206004820152603160248201525f805160206128a7833981519152604482015270185b1c9958591e481c995c5d595cdd1959607a1b6064820152608490fd5b60405162461bcd60e51b815260206004820152603260248201525f805160206128a78339815191526044820152716e6f7420656e6f7567682062616c616e636560701b6064820152608490fd5b60405162461bcd60e51b815260206004820152603860248201525f805160206128a78339815191526044820152771b585b9d585b081dda5d1a191c985dc8191a5cd8589b195960421b6064820152608490fd5b60405162461bcd60e51b815260206004820152603960248201525f805160206129878339815191526044820152786465616c2062616c616e6365206973206e6f7420656d70747960381b6064820152608490fd5b346101c5575f3660031901126101c557602060ff600c54166040519015158152f35b346101c55760203660031901126101c5576001600160a01b03611fbf6121b8565b165f526006602052602060405f2054604051908152f35b346101c5575f3660031901126101c5576001546040516001600160a01b039091168152602090f35b346101c55761200c366121e4565b9190929360208160248160018060a01b035f5416632105305360e01b82523360048301525afa8015610a4957612048915f91612199575061234e565b60018060a01b031691825f52600a60205261206a60ff60405f205416156123b2565b60018060a01b031692835f52600a60205261208c60ff60405f205416156123b2565b61209461252d565b60018060a01b031690815f52600260205260405f20835f526020528060405f2054106121395760207f085c66ddeb74b64c8c86d401ecb013b63e779e0e5cc37526d5999239aa43d99b91835f526002825260405f20855f52825260405f206120fd828254612410565b9055835f526002825260405f20865f52825260405f2061211e828254612431565b9055604051908152a45f5f805160206129278339815191525d005b60405162461bcd60e51b815260206004820152603260248201527f42616c616e63654b65657065723a206d6f76654672656542616c616e63653a206044820152716e6f7420656e6f7567682062616c616e636560701b6064820152608490fd5b6121b2915060203d602011610a4257610a348183612232565b866108a9565b600435906001600160a01b03821682036101c557565b602435906001600160a01b03821682036101c557565b60809060031901126101c5576004356001600160a01b03811681036101c557906024356001600160a01b03811681036101c557906044356001600160a01b03811681036101c5579060643590565b601f909101601f19168101906001600160401b0382119082101761225557604052565b634e487b7160e01b5f52604160045260245ffd5b6001600160401b03811161225557601f01601f191660200190565b92919261229082612269565b9161229e6040519384612232565b8294818452818301116101c5578281602093845f960137010152565b9080601f830112156101c5578160206122d593359101612284565b90565b60609060031901126101c5576004356001600160a01b03811681036101c557906024356001600160a01b03811681036101c5579060443590565b805180835260209291819084018484015e5f828201840152601f01601f1916010190565b908160209103126101c5575180151581036101c55790565b1561235557565b60405162461bcd60e51b815260206004820152602f60248201527f42616c616e63654b65657065723a204f6e6c79206465616c2063616e2063616c60448201526e36103a3434b990333ab731ba34b7b760891b6064820152608490fd5b156123b957565b60405162461bcd60e51b815260206004820152602960248201527f42616c616e63654b65657065723a2055736572206973207065726d616e656e74604482015268363c90333937bd32b760b91b6064820152608490fd5b9190820391821161241d57565b634e487b7160e01b5f52601160045260245ffd5b9190820180921161241d57565b908160209103126101c557516001600160a01b03811681036101c55790565b1561246457565b60405162461bcd60e51b815260206004820152603660248201527f42616c616e63654b65657065723a204f6e6c7920636f6f7264696e61746f722060448201527531b0b71031b0b636103a3434b990333ab731ba34b7b760511b6064820152608490fd5b156124cf57565b60405162461bcd60e51b815260206004820152603060248201527f42616c616e63654b65657065723a204f6e6c79206f776e65722063616e20636160448201526f3636103a3434b990333ab731ba34b7b760811b6064820152608490fd5b5f805160206129278339815191525c6125535760015f805160206129278339815191525d565b633ee5aeb560e01b5f5260045ffd5b60018060a01b0316805f52600a60205260405f20600160ff198254161790555f80516020612887833981519152602060405160018152a2565b60018060a01b0316805f52600260205260405f2060018060a01b0383165f5260205260405f20549182156126da57815f5260056020528260405f20541061268a5760207f76c900dcf08461e70b464dbdfd91efe2f662a56655b60a776873402dfb2d700391835f526005825260405f20612616868254612410565b90555f8481526008835260408082206001600160a01b0384168352845290208054612642908790612431565b9055835f526009825260405f2061265a868254612431565b90555f8481526002835260408082206001600160a01b0393909316808352928452808220919091555194855293a3565b60405162461bcd60e51b815260206004820152603560248201525f805160206128c783398151915260448201527420656e6f75676820746f74616c2062616c616e636560581b6064820152608490fd5b60405162461bcd60e51b815260206004820152602f60248201525f805160206128c783398151915260448201526e20656e6f7567682062616c616e636560881b6064820152608490fd5b5f54604051638da5cb5b60e01b815290602090829060049082906001600160a01b03165afa908115610a49575f9161275a575090565b6122d5915060203d602011610deb57610ddc8183612232565b60405163a9059cbb60e01b60208201526001600160a01b0390921660248301526044808301939093529181526127ae91611a14606483612232565b565b905f602091828151910182855af115610a49575f513d6127ff57506001600160a01b0381163b155b6127df5750565b635274afe760e01b5f9081526001600160a01b0391909116600452602490fd5b600114156127d8565b9061282c575080511561281d57805190602001fd5b63d6bda27560e01b5f5260045ffd5b8151158061285d575b61283d575090565b639996b31560e01b5f9081526001600160a01b0391909116600452602490fd5b50803b1561283556fe42616c616e63654b65657065723a206d6f766542616c616e6365546f4465616c3f802f8b92b9cc88cab0fa79c2885fa06c5ed00376770579a4eb7d1c2a8eb92d42616c616e63654b65657065723a207769746864726177526571756573743a2042616c616e63654b65657065723a205f73656e64546f4c696d626f3a206e6f7442616c616e63654b65657065723a20776974686472617742794465616c3a206e360894a13ba1a3210667c828492db98dca3e2076cc3735a920a3ca505d382bbc9b779b17422d0df92223018b32b4d1fa46e071723d6817e2486d003becc55f00f0c57e16840df040f15088dc2f81fe391c3923bec73e23a9662efc9c229c6a0042616c616e63654b65657065723a206d6f766542616c616e636546726f6d446542616c616e63654b65657065723a20766f646f70616457697468647261773a20a2646970667358221220cf6aa9a4c0fa7d45c9d32d9c3920e45f4496ec09c3f1570697ccc101ec5fa14764736f6c634300081a0033","linkReferences":{}},"methodIdentifiers":{"UPGRADE_INTERFACE_VERSION()":"ad3cb1cc","WITHDRAW_REQUEST_DELAY()":"fac4bf22","coordinator()":"0a009097","dealBalancesTotal(address)":"1229add5","diamond()":"f0b7db4e","disableOnchainRefund()":"9cf8fc36","enableOnchainRefund()":"3adce715","freeBalanceTotal(address)":"933a6d5e","freezeAccount(address)":"f26c159f","frozen(address)":"d0516650","fundFromLimbo(address,address,uint256)":"7fad6401","getFreeBalance(address,address)":"de700da6","getFullBalance(address,address)":"d4f4ba48","initialize(address)":"c4d66de8","limbo(address,address)":"ae77dc10","limboTotal(address)":"c44ead3c","manualWithdrawEnabled()":"1e4343ec","migrateFundsFromDeal(address,uint256)":"a0aeae9f","moveBalanceFromDeal(address,address,uint256)":"7d46d8d6","moveBalanceToDeal(address,address,uint256)":"a2e939b1","moveFreeBalance(address,address,address,uint256)":"0373bbe3","poolBalance(address)":"68abb5e0","poolTopUp(address,uint256)":"3eb026af","proxiableUUID()":"52d1902d","refund(address,address,uint256)":"82ad6f35","sendToLimbo(address,address)":"ec178c13","setCoordinator(address)":"8ea98117","terminate(address)":"edb45529","terminationRequest(address)":"301aaac9","terminationVeto(address,address)":"7df5070f","topUpIds(string)":"c08ea6e6","unfreezeAccount(address)":"788649ea","upgradeToAndCall(address,bytes)":"4f1ef286","userTopUp(address,address,uint256,string)":"31acc942","withdrawByDeal(address,address,uint256)":"ad5fbcc8","withdrawFromLimbo(address,address,address,uint256)":"985a3e1a"},"storageLayout":{"storage":[{"astId":58109,"contract":"src/balance-keeper/BalanceKeeper.sol:BalanceKeeper","label":"diamond","offset":0,"slot":"0","type":"t_address"},{"astId":58111,"contract":"src/balance-keeper/BalanceKeeper.sol:BalanceKeeper","label":"coordinator","offset":0,"slot":"1","type":"t_address"},{"astId":58118,"contract":"src/balance-keeper/BalanceKeeper.sol:BalanceKeeper","label":"freeBalances","offset":0,"slot":"2","type":"t_mapping(t_contract(IERC20)39797,t_mapping(t_address,t_uint256))"},{"astId":58125,"contract":"src/balance-keeper/BalanceKeeper.sol:BalanceKeeper","label":"dealBalances","offset":0,"slot":"3","type":"t_mapping(t_contract(IERC20)39797,t_mapping(t_address,t_uint256))"},{"astId":58132,"contract":"src/balance-keeper/BalanceKeeper.sol:BalanceKeeper","label":"terminationRequests","offset":0,"slot":"4","type":"t_mapping(t_contract(IERC20)39797,t_mapping(t_address,t_uint256))"},{"astId":58137,"contract":"src/balance-keeper/BalanceKeeper.sol:BalanceKeeper","label":"freeBalanceTotal","offset":0,"slot":"5","type":"t_mapping(t_contract(IERC20)39797,t_uint256)"},{"astId":58142,"contract":"src/balance-keeper/BalanceKeeper.sol:BalanceKeeper","label":"dealBalancesTotal","offset":0,"slot":"6","type":"t_mapping(t_contract(IERC20)39797,t_uint256)"},{"astId":58147,"contract":"src/balance-keeper/BalanceKeeper.sol:BalanceKeeper","label":"poolBalance","offset":0,"slot":"7","type":"t_mapping(t_contract(IERC20)39797,t_uint256)"},{"astId":58154,"contract":"src/balance-keeper/BalanceKeeper.sol:BalanceKeeper","label":"limbo","offset":0,"slot":"8","type":"t_mapping(t_contract(IERC20)39797,t_mapping(t_address,t_uint256))"},{"astId":58159,"contract":"src/balance-keeper/BalanceKeeper.sol:BalanceKeeper","label":"limboTotal","offset":0,"slot":"9","type":"t_mapping(t_contract(IERC20)39797,t_uint256)"},{"astId":58163,"contract":"src/balance-keeper/BalanceKeeper.sol:BalanceKeeper","label":"frozen","offset":0,"slot":"10","type":"t_mapping(t_address,t_bool)"},{"astId":58167,"contract":"src/balance-keeper/BalanceKeeper.sol:BalanceKeeper","label":"topUpIds","offset":0,"slot":"11","type":"t_mapping(t_string_memory_ptr,t_bool)"},{"astId":58170,"contract":"src/balance-keeper/BalanceKeeper.sol:BalanceKeeper","label":"manualWithdrawEnabled","offset":0,"slot":"12","type":"t_bool"}],"types":{"t_address":{"encoding":"inplace","label":"address","numberOfBytes":"20"},"t_bool":{"encoding":"inplace","label":"bool","numberOfBytes":"1"},"t_contract(IERC20)39797":{"encoding":"inplace","label":"contract IERC20","numberOfBytes":"20"},"t_mapping(t_address,t_bool)":{"encoding":"mapping","key":"t_address","label":"mapping(address => bool)","numberOfBytes":"32","value":"t_bool"},"t_mapping(t_address,t_uint256)":{"encoding":"mapping","key":"t_address","label":"mapping(address => uint256)","numberOfBytes":"32","value":"t_uint256"},"t_mapping(t_contract(IERC20)39797,t_mapping(t_address,t_uint256))":{"encoding":"mapping","key":"t_contract(IERC20)39797","label":"mapping(contract IERC20 => mapping(address => uint256))","numberOfBytes":"32","value":"t_mapping(t_address,t_uint256)"},"t_mapping(t_contract(IERC20)39797,t_uint256)":{"encoding":"mapping","key":"t_contract(IERC20)39797","label":"mapping(contract IERC20 => uint256)","numberOfBytes":"32","value":"t_uint256"},"t_mapping(t_string_memory_ptr,t_bool)":{"encoding":"mapping","key":"t_string_memory_ptr","label":"mapping(string => bool)","numberOfBytes":"32","value":"t_bool"},"t_string_memory_ptr":{"encoding":"bytes","label":"string","numberOfBytes":"32"},"t_uint256":{"encoding":"inplace","label":"uint256","numberOfBytes":"32"}}},"devdoc":{"version":1,"kind":"dev","methods":{"constructor":{},"proxiableUUID()":{"details":"Implementation of the ERC-1822 {proxiableUUID} function. This returns the storage slot used by the implementation. It is used to validate the implementation's compatibility when performing an upgrade. IMPORTANT: A proxy pointing at a proxiable contract should not be considered proxiable itself, because this risks bricking a proxy that upgrades to it, by delegating to itself until out of gas. Thus it is critical that this function revert if invoked through a proxy. This is guaranteed by the `notDelegated` modifier."},"refund(address,address,uint256)":{"details":"Refunds the specified amount of tokens to the user"},"upgradeToAndCall(address,bytes)":{"details":"Upgrade the implementation of the proxy to `newImplementation`, and subsequently execute the function call encoded in `data`. Calls {_authorizeUpgrade}. Emits an {Upgraded} event."}},"events":{"Initialized(uint64)":{"details":"Triggered when the contract has been initialized or reinitialized."},"Upgraded(address)":{"details":"Emitted when the implementation is upgraded."}},"errors":{"AddressEmptyCode(address)":[{"details":"There's no code at `target` (it is not a contract)."}],"ERC1967InvalidImplementation(address)":[{"details":"The `implementation` of the proxy is invalid."}],"ERC1967NonPayable()":[{"details":"An upgrade function sees `msg.value > 0` that may be lost."}],"FailedCall()":[{"details":"A call to an address target failed. The target may have reverted."}],"InvalidInitialization()":[{"details":"The contract is already initialized."}],"NotInitializing()":[{"details":"The contract is not initializing."}],"ReentrancyGuardReentrantCall()":[{"details":"Unauthorized reentrant call."}],"SafeERC20FailedOperation(address)":[{"details":"An operation with an ERC-20 token failed."}],"UUPSUnauthorizedCallContext()":[{"details":"The call is from an unauthorized context."}],"UUPSUnsupportedProxiableUUID(bytes32)":[{"details":"The storage `slot` is unsupported as a UUID."}]}},"id":74}