{"abi":[{"type":"constructor","inputs":[],"stateMutability":"nonpayable"},{"type":"function","name":"UPGRADE_INTERFACE_VERSION","inputs":[],"outputs":[{"name":"","type":"string","internalType":"string"}],"stateMutability":"view"},{"type":"function","name":"WITHDRAW_REQUEST_DELAY","inputs":[],"outputs":[{"name":"","type":"uint256","internalType":"uint256"}],"stateMutability":"view"},{"type":"function","name":"coordinator","inputs":[],"outputs":[{"name":"","type":"address","internalType":"address"}],"stateMutability":"view"},{"type":"function","name":"dealBalancesTotal","inputs":[{"name":"token","type":"address","internalType":"contract IERC20"}],"outputs":[{"name":"supply","type":"uint256","internalType":"uint256"}],"stateMutability":"view"},{"type":"function","name":"diamond","inputs":[],"outputs":[{"name":"","type":"address","internalType":"address"}],"stateMutability":"view"},{"type":"function","name":"disableOnchainRefund","inputs":[],"outputs":[],"stateMutability":"nonpayable"},{"type":"function","name":"enableOnchainRefund","inputs":[],"outputs":[],"stateMutability":"nonpayable"},{"type":"function","name":"freeBalanceTotal","inputs":[{"name":"token","type":"address","internalType":"contract IERC20"}],"outputs":[{"name":"supply","type":"uint256","internalType":"uint256"}],"stateMutability":"view"},{"type":"function","name":"freezeAccount","inputs":[{"name":"user","type":"address","internalType":"address"}],"outputs":[],"stateMutability":"nonpayable"},{"type":"function","name":"frozen","inputs":[{"name":"user","type":"address","internalType":"address"}],"outputs":[{"name":"frozen","type":"bool","internalType":"bool"}],"stateMutability":"view"},{"type":"function","name":"fundFromLimbo","inputs":[{"name":"token","type":"address","internalType":"contract IERC20"},{"name":"user","type":"address","internalType":"address"},{"name":"amount","type":"uint256","internalType":"uint256"}],"outputs":[],"stateMutability":"nonpayable"},{"type":"function","name":"getDepositInfo","inputs":[{"name":"from","type":"uint256","internalType":"uint256"},{"name":"to","type":"uint256","internalType":"uint256"}],"outputs":[{"name":"","type":"tuple[]","internalType":"struct IBalanceKeeper.DealDepositInfo[]","components":[{"name":"token","type":"address","internalType":"contract IERC20"},{"name":"deal","type":"address","internalType":"address"},{"name":"user","type":"address","internalType":"address"},{"name":"reason","type":"uint8","internalType":"enum IBalanceKeeper.DealDepositReason"},{"name":"amount","type":"uint256","internalType":"uint256"},{"name":"blockNumber","type":"uint256","internalType":"uint256"},{"name":"reserved1","type":"uint256","internalType":"uint256"},{"name":"reserved2","type":"uint256","internalType":"uint256"},{"name":"reserved3","type":"uint256","internalType":"uint256"}]}],"stateMutability":"view"},{"type":"function","name":"getDepositInfoLength","inputs":[],"outputs":[{"name":"","type":"uint256","internalType":"uint256"}],"stateMutability":"view"},{"type":"function","name":"getFreeBalance","inputs":[{"name":"token","type":"address","internalType":"contract IERC20"},{"name":"user","type":"address","internalType":"address"}],"outputs":[{"name":"","type":"uint256","internalType":"uint256"}],"stateMutability":"view"},{"type":"function","name":"getFullBalance","inputs":[{"name":"token","type":"address","internalType":"contract IERC20"},{"name":"user","type":"address","internalType":"address"}],"outputs":[{"name":"","type":"uint256","internalType":"uint256"}],"stateMutability":"view"},{"type":"function","name":"initialize","inputs":[{"name":"_diamond","type":"address","internalType":"address"}],"outputs":[],"stateMutability":"nonpayable"},{"type":"function","name":"limbo","inputs":[{"name":"token","type":"address","internalType":"contract IERC20"},{"name":"user","type":"address","internalType":"address"}],"outputs":[{"name":"balance","type":"uint256","internalType":"uint256"}],"stateMutability":"view"},{"type":"function","name":"limboTotal","inputs":[{"name":"token","type":"address","internalType":"contract IERC20"}],"outputs":[{"name":"amount","type":"uint256","internalType":"uint256"}],"stateMutability":"view"},{"type":"function","name":"manualWithdrawEnabled","inputs":[],"outputs":[{"name":"","type":"bool","internalType":"bool"}],"stateMutability":"view"},{"type":"function","name":"moveBalanceFromDeal","inputs":[{"name":"token","type":"address","internalType":"contract IERC20"},{"name":"user","type":"address","internalType":"address"},{"name":"amount","type":"uint256","internalType":"uint256"},{"name":"reserved","type":"uint8","internalType":"uint8"}],"outputs":[],"stateMutability":"nonpayable"},{"type":"function","name":"moveBalanceToDeal","inputs":[{"name":"token","type":"address","internalType":"contract IERC20"},{"name":"user","type":"address","internalType":"address"},{"name":"amount","type":"uint256","internalType":"uint256"},{"name":"reason","type":"uint8","internalType":"enum IBalanceKeeper.DealDepositReason"}],"outputs":[],"stateMutability":"nonpayable"},{"type":"function","name":"moveFreeBalance","inputs":[{"name":"token","type":"address","internalType":"contract IERC20"},{"name":"from","type":"address","internalType":"address"},{"name":"to","type":"address","internalType":"address"},{"name":"amount","type":"uint256","internalType":"uint256"},{"name":"reserved","type":"uint8","internalType":"uint8"}],"outputs":[],"stateMutability":"nonpayable"},{"type":"function","name":"poolBalance","inputs":[{"name":"token","type":"address","internalType":"contract IERC20"}],"outputs":[{"name":"amount","type":"uint256","internalType":"uint256"}],"stateMutability":"view"},{"type":"function","name":"poolTopUp","inputs":[{"name":"token","type":"address","internalType":"contract IERC20"},{"name":"amount","type":"uint256","internalType":"uint256"}],"outputs":[],"stateMutability":"nonpayable"},{"type":"function","name":"poolWithdraw","inputs":[{"name":"token","type":"address","internalType":"contract IERC20"},{"name":"amount","type":"uint256","internalType":"uint256"}],"outputs":[],"stateMutability":"nonpayable"},{"type":"function","name":"proxiableUUID","inputs":[],"outputs":[{"name":"","type":"bytes32","internalType":"bytes32"}],"stateMutability":"view"},{"type":"function","name":"refund","inputs":[{"name":"token","type":"address","internalType":"contract IERC20"},{"name":"user","type":"address","internalType":"address"},{"name":"amount","type":"uint256","internalType":"uint256"}],"outputs":[],"stateMutability":"nonpayable"},{"type":"function","name":"sendToLimbo","inputs":[{"name":"token","type":"address","internalType":"contract IERC20"},{"name":"user","type":"address","internalType":"address"}],"outputs":[],"stateMutability":"nonpayable"},{"type":"function","name":"setCoordinator","inputs":[{"name":"_coordinator","type":"address","internalType":"address"}],"outputs":[],"stateMutability":"nonpayable"},{"type":"function","name":"terminate","inputs":[{"name":"token","type":"address","internalType":"contract IERC20"}],"outputs":[],"stateMutability":"nonpayable"},{"type":"function","name":"terminationRequest","inputs":[{"name":"token","type":"address","internalType":"contract IERC20"}],"outputs":[],"stateMutability":"nonpayable"},{"type":"function","name":"terminationVeto","inputs":[{"name":"token","type":"address","internalType":"contract IERC20"},{"name":"user","type":"address","internalType":"address"}],"outputs":[],"stateMutability":"nonpayable"},{"type":"function","name":"topUpIds","inputs":[{"name":"","type":"string","internalType":"string"}],"outputs":[{"name":"","type":"bool","internalType":"bool"}],"stateMutability":"view"},{"type":"function","name":"unfreezeAccount","inputs":[{"name":"user","type":"address","internalType":"address"}],"outputs":[],"stateMutability":"nonpayable"},{"type":"function","name":"upgradeToAndCall","inputs":[{"name":"newImplementation","type":"address","internalType":"address"},{"name":"data","type":"bytes","internalType":"bytes"}],"outputs":[],"stateMutability":"payable"},{"type":"function","name":"userTopUp","inputs":[{"name":"token","type":"address","internalType":"contract IERC20"},{"name":"user","type":"address","internalType":"address"},{"name":"amount","type":"uint256","internalType":"uint256"},{"name":"topUpId","type":"string","internalType":"string"}],"outputs":[],"stateMutability":"nonpayable"},{"type":"function","name":"withdrawByDeal","inputs":[{"name":"token","type":"address","internalType":"contract IERC20"},{"name":"user","type":"address","internalType":"address"},{"name":"amount","type":"uint256","internalType":"uint256"},{"name":"reserved","type":"uint8","internalType":"uint8"}],"outputs":[],"stateMutability":"nonpayable"},{"type":"function","name":"withdrawFromLimbo","inputs":[{"name":"token","type":"address","internalType":"contract IERC20"},{"name":"user","type":"address","internalType":"address"},{"name":"to","type":"address","internalType":"address"},{"name":"amount","type":"uint256","internalType":"uint256"}],"outputs":[],"stateMutability":"nonpayable"},{"type":"event","name":"AccountFreezeStateChanged","inputs":[{"name":"user","type":"address","indexed":true,"internalType":"address"},{"name":"frozen","type":"bool","indexed":false,"internalType":"bool"},{"name":"initiator","type":"address","indexed":false,"internalType":"address"}],"anonymous":false},{"type":"event","name":"BalanceMoved","inputs":[{"name":"token","type":"address","indexed":true,"internalType":"contract IERC20"},{"name":"from","type":"address","indexed":true,"internalType":"address"},{"name":"to","type":"address","indexed":true,"internalType":"address"},{"name":"amount","type":"uint256","indexed":false,"internalType":"uint256"},{"name":"reserved","type":"uint8","indexed":false,"internalType":"uint8"}],"anonymous":false},{"type":"event","name":"CoordinatorSet","inputs":[{"name":"coordinator","type":"address","indexed":true,"internalType":"address"},{"name":"initiator","type":"address","indexed":false,"internalType":"address"}],"anonymous":false},{"type":"event","name":"DealDeposit","inputs":[{"name":"token","type":"address","indexed":true,"internalType":"contract IERC20"},{"name":"deal","type":"address","indexed":true,"internalType":"address"},{"name":"user","type":"address","indexed":true,"internalType":"address"},{"name":"amount","type":"uint256","indexed":false,"internalType":"uint256"},{"name":"reason","type":"uint8","indexed":false,"internalType":"enum IBalanceKeeper.DealDepositReason"},{"name":"blockNumber","type":"uint256","indexed":false,"internalType":"uint256"},{"name":"depositIndex","type":"uint256","indexed":false,"internalType":"uint256"}],"anonymous":false},{"type":"event","name":"DealMigrated","inputs":[{"name":"deal","type":"address","indexed":true,"internalType":"address"},{"name":"token","type":"address","indexed":true,"internalType":"contract IERC20"},{"name":"amount","type":"uint256","indexed":false,"internalType":"uint256"}],"anonymous":false},{"type":"event","name":"DealWithdraw","inputs":[{"name":"token","type":"address","indexed":true,"internalType":"contract IERC20"},{"name":"deal","type":"address","indexed":true,"internalType":"address"},{"name":"user","type":"address","indexed":true,"internalType":"address"},{"name":"amount","type":"uint256","indexed":false,"internalType":"uint256"},{"name":"reserved","type":"uint8","indexed":false,"internalType":"uint8"}],"anonymous":false},{"type":"event","name":"FreeBalanceDecrease","inputs":[{"name":"token","type":"address","indexed":true,"internalType":"contract IERC20"},{"name":"user","type":"address","indexed":true,"internalType":"address"},{"name":"reason","type":"uint8","indexed":true,"internalType":"enum IBalanceKeeper.BalanceChangeReason"},{"name":"amount","type":"uint256","indexed":false,"internalType":"uint256"},{"name":"info","type":"address","indexed":false,"internalType":"address"}],"anonymous":false},{"type":"event","name":"FreeBalanceIncrease","inputs":[{"name":"token","type":"address","indexed":true,"internalType":"contract IERC20"},{"name":"user","type":"address","indexed":true,"internalType":"address"},{"name":"reason","type":"uint8","indexed":true,"internalType":"enum IBalanceKeeper.BalanceChangeReason"},{"name":"amount","type":"uint256","indexed":false,"internalType":"uint256"},{"name":"info","type":"address","indexed":false,"internalType":"address"}],"anonymous":false},{"type":"event","name":"FundedFromLimbo","inputs":[{"name":"token","type":"address","indexed":true,"internalType":"contract IERC20"},{"name":"user","type":"address","indexed":true,"internalType":"address"},{"name":"initiator","type":"address","indexed":false,"internalType":"address"},{"name":"amount","type":"uint256","indexed":false,"internalType":"uint256"}],"anonymous":false},{"type":"event","name":"Initialized","inputs":[{"name":"version","type":"uint64","indexed":false,"internalType":"uint64"}],"anonymous":false},{"type":"event","name":"ManualWithdrawDisabled","inputs":[{"name":"initiator","type":"address","indexed":false,"internalType":"address"}],"anonymous":false},{"type":"event","name":"ManualWithdrawEnabled","inputs":[{"name":"initiator","type":"address","indexed":false,"internalType":"address"}],"anonymous":false},{"type":"event","name":"PoolTopUp","inputs":[{"name":"token","type":"address","indexed":true,"internalType":"contract IERC20"},{"name":"initiator","type":"address","indexed":true,"internalType":"address"},{"name":"amount","type":"uint256","indexed":false,"internalType":"uint256"}],"anonymous":false},{"type":"event","name":"PoolWithdraw","inputs":[{"name":"token","type":"address","indexed":true,"internalType":"contract IERC20"},{"name":"initiator","type":"address","indexed":true,"internalType":"address"},{"name":"amount","type":"uint256","indexed":false,"internalType":"uint256"}],"anonymous":false},{"type":"event","name":"Refunded","inputs":[{"name":"token","type":"address","indexed":true,"internalType":"contract IERC20"},{"name":"user","type":"address","indexed":true,"internalType":"address"},{"name":"amount","type":"uint256","indexed":false,"internalType":"uint256"},{"name":"initiator","type":"address","indexed":false,"internalType":"address"}],"anonymous":false},{"type":"event","name":"SentToLimbo","inputs":[{"name":"token","type":"address","indexed":true,"internalType":"contract IERC20"},{"name":"user","type":"address","indexed":true,"internalType":"address"},{"name":"initiator","type":"address","indexed":false,"internalType":"address"},{"name":"amount","type":"uint256","indexed":false,"internalType":"uint256"}],"anonymous":false},{"type":"event","name":"TerminationExecuted","inputs":[{"name":"token","type":"address","indexed":true,"internalType":"contract IERC20"},{"name":"user","type":"address","indexed":true,"internalType":"address"},{"name":"initiator","type":"address","indexed":false,"internalType":"address"}],"anonymous":false},{"type":"event","name":"TerminationRequestCreated","inputs":[{"name":"token","type":"address","indexed":true,"internalType":"contract IERC20"},{"name":"user","type":"address","indexed":true,"internalType":"address"},{"name":"initiator","type":"address","indexed":false,"internalType":"address"}],"anonymous":false},{"type":"event","name":"TerminationVeto","inputs":[{"name":"token","type":"address","indexed":true,"internalType":"contract IERC20"},{"name":"user","type":"address","indexed":true,"internalType":"address"},{"name":"initiator","type":"address","indexed":false,"internalType":"address"}],"anonymous":false},{"type":"event","name":"Upgraded","inputs":[{"name":"implementation","type":"address","indexed":true,"internalType":"address"}],"anonymous":false},{"type":"event","name":"UserBalanceIncrease","inputs":[{"name":"token","type":"address","indexed":true,"internalType":"contract IERC20"},{"name":"user","type":"address","indexed":true,"internalType":"address"},{"name":"initiator","type":"address","indexed":true,"internalType":"address"},{"name":"amount","type":"uint256","indexed":false,"internalType":"uint256"},{"name":"topUpId","type":"string","indexed":false,"internalType":"string"}],"anonymous":false},{"type":"event","name":"Withdrawn","inputs":[{"name":"token","type":"address","indexed":true,"internalType":"contract IERC20"},{"name":"user","type":"address","indexed":true,"internalType":"address"},{"name":"amount","type":"uint256","indexed":false,"internalType":"uint256"},{"name":"reserved","type":"uint8","indexed":false,"internalType":"uint8"},{"name":"initiator","type":"address","indexed":false,"internalType":"address"}],"anonymous":false},{"type":"event","name":"WithdrawnFromLimbo","inputs":[{"name":"token","type":"address","indexed":true,"internalType":"contract IERC20"},{"name":"user","type":"address","indexed":true,"internalType":"address"},{"name":"to","type":"address","indexed":true,"internalType":"address"},{"name":"initiator","type":"address","indexed":false,"internalType":"address"},{"name":"amount","type":"uint256","indexed":false,"internalType":"uint256"}],"anonymous":false},{"type":"error","name":"AddressEmptyCode","inputs":[{"name":"target","type":"address","internalType":"address"}]},{"type":"error","name":"ERC1967InvalidImplementation","inputs":[{"name":"implementation","type":"address","internalType":"address"}]},{"type":"error","name":"ERC1967NonPayable","inputs":[]},{"type":"error","name":"FailedCall","inputs":[]},{"type":"error","name":"InvalidInitialization","inputs":[]},{"type":"error","name":"NotInitializing","inputs":[]},{"type":"error","name":"ReentrancyGuardReentrantCall","inputs":[]},{"type":"error","name":"SafeERC20FailedOperation","inputs":[{"name":"token","type":"address","internalType":"address"}]},{"type":"error","name":"UUPSUnauthorizedCallContext","inputs":[]},{"type":"error","name":"UUPSUnsupportedProxiableUUID","inputs":[{"name":"slot","type":"bytes32","internalType":"bytes32"}]}],"bytecode":{"object":"0x60a080604052346100f2573060805260ff19600c5416600c557ff0c57e16840df040f15088dc2f81fe391c3923bec73e23a9662efc9c229c6a005460ff8160401c166100e3576002600160401b03196001600160401b0382160161007d575b6040516132dc90816100f782396080518181816116b401526117560152f35b6001600160401b0319166001600160401b039081177ff0c57e16840df040f15088dc2f81fe391c3923bec73e23a9662efc9c229c6a005581527fc7f505b2f371ae2175ee4913f4499e1f2633a7b5936321eed1cdaeb6115181d290602090a15f8061005e565b63f92ee8a960e01b5f5260045ffd5b5f80fdfe6080806040526004361015610012575f80fd5b5f3560e01c90816301627f56146127355750806304930575146127185780630a009097146126f0578063116424cc146123355780631229add5146122fd5780631e4343ec146122db578063301aaac9146120ad57806331acc94214611d975780633adce71514611d395780633bf9bb0b14611a735780633eb026af146119185780634f1ef2861461170857806352d1902d146116a257806368abb5e01461166a578063788649ea146116025780637df5070f146114eb5780637fad64011461135157806382ad6f351461118057806388081fcb14610f265780638ea9811714610ead578063933a6d5e14610e7557806395e1b41814610bee578063985a3e1a14610a6c5780639cf8fc3614610a11578063ad3cb1cc146109c6578063ae77dc1014610976578063c08ea6e61461091c578063c44ead3c146108e4578063c4d66de81461077b578063d05166501461073e578063d4f4ba48146106d1578063db2aa127146105ad578063de700da61461055d578063ec178c131461051e578063edb455291461023e578063f0b7db4e14610217578063f26c159f146101df5763fac4bf22146101be575f80fd5b346101db575f3660031901126101db57602060405162093a808152f35b5f80fd5b346101db5760203660031901126101db576102156101fb61292f565b61021060018060a01b03600154163314612c21565b612e5b565b005b346101db575f3660031901126101db575f546040516001600160a01b039091168152602090f35b346101db5760203660031901126101db5761025761292f565b335f52600a60205261027060ff60405f20541615612b4e565b610278612d3d565b60ff600c5416156104bf576001600160a01b0381165f8181526004602090815260408083203384529091529020549091901561046e57815f52600460205260405f2060018060a01b0333165f5260205262093a806102da60405f205442612bf5565b1061041e575f828152600260209081526040808320338452909152902054156103c5575f828152600260209081526040808320338452909152902080546103869290916103278380612bf5565b9055835f52600560205260405f20610340838254612bf5565b905560056040518381525f6020820152855f8051602061312783398151915260403393a45f84815260046020908152604080832033808552925282209190915590612d72565b604051903382527f58c9b83f9c19bf10c1eabd844bd0371158317b08615ff5e11c9ba5761bca6ba860203393a35f5f805160206132278339815191525d005b60405162461bcd60e51b815260206004820152602b60248201527f42616c616e63654b65657065723a2077697468647261773a206e6f7420656e6f60448201526a7567682062616c616e636560a81b6064820152608490fd5b60405162461bcd60e51b815260206004820152602260248201527f42616c616e63654b65657065723a2077697468647261773a20746f6f206561726044820152616c7960f01b6064820152608490fd5b60405162461bcd60e51b815260206004820152602360248201527f42616c616e63654b65657065723a2077697468647261773a206e6f2072657175604482015262195cdd60ea1b6064820152608490fd5b60405162461bcd60e51b815260206004820152603160248201527f42616c616e63654b65657065723a2077697468647261773a206d616e75616c206044820152701dda5d1a191c985dc8191a5cd8589b1959607a1b6064820152608490fd5b346101db5760403660031901126101db5761021561053a61292f565b610542612945565b9061055860018060a01b03600154163314612c21565b612e99565b346101db5760403660031901126101db5761057661292f565b61057e612945565b6001600160a01b039182165f908152600260209081526040808320949093168252928352819020549051908152f35b346101db5760403660031901126101db576105c661292f565b602435906105d2612d3d565b6105ed6001600160a01b036105e5612e0c565b163314612ca4565b60018060a01b03811690815f5260076020528260405f20541061066d578261062f91835f52600760205260405f20610626838254612bf5565b90553390612d72565b6040519182527fab8ee1a4a7de523166c3532be846a4090f08cce2dcad80e897e9df474fc6a85a60203393a35f5f805160206132278339815191525d005b60405162461bcd60e51b815260206004820152603660248201527f42616c616e63654b65657065723a206e6f7420656e6f75676820616d6f756e74604482015275081d1bc81dda5d1a191c985dc8199c9bdb481c1bdbdb60521b6064820152608490fd5b346101db5760403660031901126101db5760206107366106ef61292f565b6106f7612945565b6001600160a01b039182165f81815260028652604080822094909316808252938652828120549181526003865282812093815292855291205490612bac565b604051908152f35b346101db5760203660031901126101db576001600160a01b0361075f61292f565b165f52600a602052602060ff60405f2054166040519015158152f35b346101db5760203660031901126101db5761079461292f565b5f8051602061324783398151915254604081901c60ff161591906001600160401b038116801590816108dc575b60011490816108d2575b1590816108c9575b506108ba576001600160401b031981166001175f805160206132478339815191525582610892575b505f80546001600160a01b0319166001600160a01b03929092169190911790555f805160206132478339815191525490604082901c60ff16156108835761083e57005b60ff60401b19165f8051602061324783398151915255604051600181527fc7f505b2f371ae2175ee4913f4499e1f2633a7b5936321eed1cdaeb6115181d290602090a1005b631afcd79f60e31b5f5260045ffd5b6001600160481b0319166001600160401b01175f8051602061324783398151915255826107fb565b63f92ee8a960e01b5f5260045ffd5b905015846107d3565b303b1591506107cb565b8491506107c1565b346101db5760203660031901126101db576001600160a01b0361090561292f565b165f526009602052602060405f2054604051908152f35b346101db5760203660031901126101db576004356001600160401b0381116101db5760ff60208061095281943690600401612a49565b604051928184925191829101835e8101600b81520301902054166040519015158152f35b346101db5760403660031901126101db5761098f61292f565b610997612945565b6001600160a01b039182165f908152600860209081526040808320949093168252928352819020549051908152f35b346101db575f3660031901126101db57610a0d6040516109e76040826129d5565b60058152640352e302e360dc1b6020820152604051918291602083526020830190612aae565b0390f35b346101db575f3660031901126101db57610a3660018060a01b03600154163314612c21565b60ff19600c5416600c557fc090ba447c2876286710fa3f84277e63b8c4b98a2691afca3435f79060a716cb6020604051338152a1005b346101db5760803660031901126101db57610a8561292f565b610a8d612945565b90610a9661295b565b9060643591610aa3612d3d565b610ab66001600160a01b036105e5612e0c565b60018060a01b03821691825f52600860205260405f2060018060a01b0386165f526020528360405f205410610b8c5781610b59857f5d16c4a1e4b62879fbf1bda626a5a21daded2fc836b50947712c5d595f947fbd94610b7794875f52600860205260405f2060018060a01b038b165f5260205260405f20610b39848254612bf5565b9055875f52600960205260405f20610b52848254612bf5565b9055612d72565b6040516001600160a01b039182169690911694909182913383612d09565b0390a45f5f805160206132278339815191525d005b60405162461bcd60e51b815260206004820152603460248201527f42616c616e63654b65657065723a20776974686472617746726f6d4c696d626f6044820152733a206e6f7420656e6f7567682062616c616e636560601b6064820152608490fd5b346101db5760a03660031901126101db57610c0761292f565b610c0f612945565b610c1761295b565b6064359160843560ff811681036101db575f54604051632105305360e01b815233600482015290602090829060249082906001600160a01b03165afa8015610e6a57610c6a915f91610e3b575b50612aea565b60018060a01b03821693845f52600a602052610c8d60ff60405f20541615612b4e565b60018060a01b03841695865f52600a602052610cb060ff60405f20541615612b4e565b610cb8612d3d565b60018060a01b031693845f52600260205260405f20865f526020528160405f205410610ddb5786855f80516020613207833981519152610dbd7fec02109b69235dc964dc3600685d13d211d8f05b663fac885f581f60da3fc2ca9760028b855f805160206131278339815191528399825f528460205260405f20845f5260205260405f20610d478d8254612bf5565b9055825f52600560205260405f20610d608d8254612bf5565b90558b610d7260405192839283612d24565b0390a4835f528560205260405f20855f5260205260405f20610d95888254612bac565b9055835f52600560205260405f20610dae888254612bac565b90556040519182918883612d24565b0390a46040805191825260ff90921660208201529081908101610b77565b60405162461bcd60e51b815260206004820152603260248201527f42616c616e63654b65657065723a206d6f76654672656542616c616e63653a206044820152716e6f7420656e6f7567682062616c616e636560701b6064820152608490fd5b610e5d915060203d602011610e63575b610e5581836129d5565b810190612ad2565b87610c64565b503d610e4b565b6040513d5f823e3d90fd5b346101db5760203660031901126101db576001600160a01b03610e9661292f565b165f526005602052602060405f2054604051908152f35b346101db5760203660031901126101db57610ec661292f565b610ed96001600160a01b036105e5612e0c565b600180546001600160a01b0319166001600160a01b039290921691821790556040513381527f770b8c4e13577f5ef5749f2e790fdb6a3f401e49bb3eded50a027c81f72c6a7c90602090a2005b346101db57610f3436612971565b5f54604051632105305360e01b81523360048201529293919290602090829060249082906001600160a01b03165afa8015610e6a57610f79915f916111615750612aea565b60018060a01b031692835f52600a602052610f9b60ff60405f20541615612b4e565b610fa3612d3d565b60018060a01b031690815f52600360205260405f20845f526020528260405f20541061111057815f5260066020528260405f2054106110b957610b777f1e579e7583af5383169584a02ef5981c4b4f8d7ff2c36ccfdabfa6280036b3dd91835f52600360205260405f20865f5260205260405f20611022868254612bf5565b9055835f52600660205260405f2061103b868254612bf5565b9055835f52600260205260405f20865f5260205260405f2061105e868254612bac565b9055835f52600560205260405f20611077868254612bac565b9055600186855f805160206132078339815191526040518061109a338c83612d24565b0390a460405191829133968390815260ff909116602082015260400190565b60405162461bcd60e51b815260206004820152603c60248201525f8051602061326783398151915260448201527b616c3a206e6f7420656e6f75676820746f74616c2062616c616e636560201b6064820152608490fd5b60405162461bcd60e51b815260206004820152603660248201525f80516020613267833981519152604482015275616c3a206e6f7420656e6f7567682062616c616e636560501b6064820152608490fd5b61117a915060203d602011610e6357610e5581836129d5565b86610c64565b346101db5761118e36612a74565b611196612d3d565b6111ab60018060a01b03600154163314612c21565b60018060a01b03831691825f5260056020528160405f2054106112fe57825f52600260205260405f2060018060a01b0382165f526020528160405f2054106112b1578161128e7fed3f8d40e0f7f69b8048638c399ff0c54ec9b89759e2b8f2207729452e1422f19361129c93865f52600260205260405f2060018060a01b0382165f5260205260405f20611240838254612bf5565b9055865f52600560205260405f20611259838254612bf5565b905560018060a01b03811697600889895f8051602061312783398151915260405180611286338a83612d24565b0390a4612d72565b604051918291339083612d24565b0390a35f5f805160206132278339815191525d005b60405162461bcd60e51b815260206004820152603260248201525f805160206132878339815191526044820152716e6f7420656e6f7567682062616c616e636560701b6064820152608490fd5b60405162461bcd60e51b815260206004820152603860248201525f805160206132878339815191526044820152776e6f7420656e6f75676820746f74616c2062616c616e636560401b6064820152608490fd5b346101db5761135f36612a74565b916113736001600160a01b036105e5612e0c565b60018060a01b031690815f52600860205260405f2060018060a01b0382165f526020528260405f20541061148d576114887fad800992a52028310197800abba2e1d874c3952c1622e9266ba9e0abac9ecbee91835f52600860205260405f2060018060a01b0382165f5260205260405f206113ef868254612bf5565b9055835f52600960205260405f20611408868254612bf5565b9055835f52600260205260405f2060018060a01b0382165f5260205260405f20611433868254612bac565b9055835f52600560205260405f2061144c868254612bac565b905560018060a01b031693600785855f8051602061320783398151915260405180611478338883612d24565b0390a46040519182913383612d09565b0390a3005b60405162461bcd60e51b815260206004820152603060248201527f42616c616e63654b65657065723a2066756e6446726f6d4c696d626f3a206e6f60448201526f7420656e6f7567682062616c616e636560801b6064820152608490fd5b346101db5760403660031901126101db5761150461292f565b61150c612945565b9061152260018060a01b03600154163314612c21565b60018060a01b03811690815f52600460205260405f2060018060a01b0384165f5260205260405f2054156115bd578261157a91835f52600460205260405f2060018060a01b0383165f526020525f6040812055612e99565b61158382612e5b565b6040513381526001600160a01b03909216917f578c57b9c6614c72323596d4a9a6a5676102b3adaa6814118c74afe38b6c8ae690602090a3005b60405162461bcd60e51b815260206004820152601f60248201527f42616c616e63654b65657065723a207665746f3a206e6f2072657175657374006044820152606490fd5b346101db5760203660031901126101db5761161b61292f565b61163060018060a01b03600154163314612c21565b60018060a01b0316805f52600a60205260405f2060ff1981541690555f80516020613147833981519152604080515f8152336020820152a2005b346101db5760203660031901126101db576001600160a01b0361168b61292f565b165f526007602052602060405f2054604051908152f35b346101db575f3660031901126101db577f00000000000000000000000000000000000000000000000000000000000000006001600160a01b031630036116f95760206040515f805160206131e78339815191528152f35b63703e46dd60e11b5f5260045ffd5b60403660031901126101db5761171c61292f565b6024356001600160401b0381116101db57366023820112156101db5761174c903690602481600401359101612a13565b6001600160a01b037f0000000000000000000000000000000000000000000000000000000000000000163081149081156118f6575b506116f9576117996001600160a01b036105e5612e0c565b6040516352d1902d60e01b81526001600160a01b0383169290602081600481875afa5f91816118c2575b506117db5783634c9c8ce360e01b5f5260045260245ffd5b805f805160206131e78339815191528592036118b05750813b1561189e575f805160206131e783398151915280546001600160a01b031916821790557fbc7cd75a20ee27fd9adebab32041f755214dbc6bffa90cc0225b39da2e5c2d3b5f80a2815115611886575f8083602061021595519101845af43d1561187e573d91611862836129f8565b9261187060405194856129d5565b83523d5f602085013e6130a8565b6060916130a8565b50503461188f57005b63b398979f60e01b5f5260045ffd5b634c9c8ce360e01b5f5260045260245ffd5b632a87526960e21b5f5260045260245ffd5b9091506020813d6020116118ee575b816118de602093836129d5565b810103126101db575190856117c3565b3d91506118d1565b5f805160206131e7833981519152546001600160a01b03161415905083611781565b346101db5760403660031901126101db5761193161292f565b6024359061193d612d3d565b6001546001600160a01b031633148015611a5a575b156119f2576119b460018060a01b03821691825f52600760205260405f2061197b858254612bac565b90556040516323b872dd60e01b602082015233602482015230604482015260648082018690528152906119af6084836129d5565b613050565b6040519182527fc5efc688606a98f36c8fcc0d9c778216b9db9aa4809a8de9f18e3cc8885c99a760203393a35f5f805160206132278339815191525d005b60405162461bcd60e51b815260206004820152604760248201525f8051602061316783398151915260448201527f6f72206469616d6f6e64206f776e65722063616e2063616c6c207468697320666064820152663ab731ba34b7b760c91b608482015260a490fd5b506001600160a01b03611a6b612e0c565b163314611952565b346101db5760403660031901126101db57600435602435818110611cfb57600d54811015611cbb57611aa58282612bf5565b9160018301809311611c5957611aba83612c79565b92611ac860405194856129d5565b808452611ad7601f1991612c79565b015f5b818110611c6d575050805b82811115611ba557836040518091602082016020835281518091526020604084019201905f5b818110611b19575050500390f35b9193509160206101206001926101008751858060a01b038151168352858060a01b03858201511685840152858060a01b036040820151166040840152611b6760608201516060850190612a67565b6080810151608084015260a081015160a084015260c081015160c084015260e081015160e08401520151610100820152019401910191849392611b0b565b611c48611bb182612bc5565b50611bbc8484612bf5565b90600760405191611bcc836129b9565b80546001600160a01b03908116845260018201548116602085015260028201549081166040850152611c079060a01c60ff1660608501612bb9565b60038101546080840152600481015460a0840152600581015460c0840152600681015460e08401520154610100820152611c418288612c90565b5285612c90565b505f198114611c5957600101611ae5565b634e487b7160e01b5f52601160045260245ffd5b602090604051611c7c816129b9565b5f81525f838201525f60408201525f60608201525f60808201525f60a08201525f60c08201525f60e08201525f61010082015282828801015201611ada565b60405162461bcd60e51b81526020600482015260186024820152776765744465706f736974496e666f3a206f766572666c6f7760401b6044820152606490fd5b60405162461bcd60e51b815260206004820152601660248201527573746f7265644465616c733a20746f203c2066726f6d60501b6044820152606490fd5b346101db575f3660031901126101db57611d5e60018060a01b03600154163314612c21565b600160ff19600c541617600c557ffc30ceacbbd28b9ae09ddbb48ae26fbe5ebc9eb59bb3470290fadd187d7c40246020604051338152a1005b346101db5760803660031901126101db57611db061292f565b611db8612945565b906044356064356001600160401b0381116101db57611ddb903690600401612a49565b9260018060a01b031691825f52600a602052611dfe60ff60405f20541615612b4e565b5f546040516302984ebd60e31b815290602090829060049082906001600160a01b03165afa908115610e6a575f9161207e575b506001600160a01b0316330361201e5760405160ff855191602081818901948086835e8101600b8152030190205416611fc0576020604051809287518091835e8101600b815203019020600160ff1982541617905560018060a01b031690815f5260076020528060405f205410611f5e577fd255d18d8ecbcbaa2126775ba49c6bddd4ec7bed71589374889bacdd0334bb4a90825f52600760205260405f20611edb828254612bf5565b9055825f52600260205260405f20845f5260205260405f20611efe828254612bac565b9055825f52600560205260405f20611f17828254612bac565b90555f84845f8051602061320783398151915260405180611f39338883612d24565b0390a46040519081526040602082015280611f5933966040830190612aae565b0390a4005b60405162461bcd60e51b815260206004820152603460248201527f42616c616e63654b65657065723a2075736572546f7055703a206e6f7420656e6044820152736f75676820676174657761792062616c616e636560601b6064820152608490fd5b60405162461bcd60e51b815260206004820152603060248201527f42616c616e63654b65657065723a2075736572546f7055703a20746f702d757060448201526f081a5908185b1c9958591e481d5cd95960821b6064820152608490fd5b60405162461bcd60e51b815260206004820152603260248201527f42616c616e63654b65657065723a204f6e6c7920766f646f7061642063616e2060448201527131b0b636103a3434b990333ab731ba34b7b760711b6064820152608490fd5b6120a0915060203d6020116120a6575b61209881836129d5565b810190612c02565b85611e31565b503d61208e565b346101db5760203660031901126101db576120c661292f565b335f52600a6020526120df60ff60405f20541615612b4e565b6001600160a01b03165f8181526003602090815260408083203384529091529020546122875760ff600c541615612234575f818152600260209081526040808320338452909152902054156121e7575f81815260046020908152604080832033845290915290205461219b57805f52600460205260405f2060018060a01b0333165f5260205260405f20429055604051903382527f4365d6807428f602d009451dbfac23489f573dc32f596c2e89dee5df4573575760203393a3005b60405162461bcd60e51b815260206004820152603160248201525f80516020613187833981519152604482015270185b1c9958591e481c995c5d595cdd1959607a1b6064820152608490fd5b60405162461bcd60e51b815260206004820152603260248201525f805160206131878339815191526044820152716e6f7420656e6f7567682062616c616e636560701b6064820152608490fd5b60405162461bcd60e51b815260206004820152603860248201525f805160206131878339815191526044820152771b585b9d585b081dda5d1a191c985dc8191a5cd8589b195960421b6064820152608490fd5b60405162461bcd60e51b815260206004820152603960248201525f805160206132878339815191526044820152786465616c2062616c616e6365206973206e6f7420656d70747960381b6064820152608490fd5b346101db575f3660031901126101db57602060ff600c54166040519015158152f35b346101db5760203660031901126101db576001600160a01b0361231e61292f565b165f526006602052602060405f2054604051908152f35b346101db5760803660031901126101db5761234e61292f565b612356612945565b604435906064359060028210156101db575f54604051632105305360e01b815233600482015290602090829060249082906001600160a01b03165afa8015610e6a576123a8915f916111615750612aea565b60018060a01b031692835f52600a6020526123ca60ff60405f20541615612b4e565b6123d2612d3d565b60018060a01b031690815f52600260205260405f20845f526020528260405f2054106126a157815f5260056020528260405f20541061264c57815f52600360205260405f20845f5260205260405f2061242c848254612bac565b9055815f52600660205260405f20612445848254612bac565b9055815f52600260205260405f20845f5260205260405f20612468848254612bf5565b9055815f52600560205260405f20612481848254612bf5565b9055600384835f80516020613127833981519152604051806124a4338a83612d24565b0390a46124af612da9565b6040516124bb816129b9565b838152602081013381526040820190878252606083016124db8682612bb9565b6080840188815260a0850186815260c08601915f835260e08701935f85526101008801955f8752600d54600160401b811015612638578060016125219201600d55612bc5565b999099612625575189546001600160a01b03199081166001600160a01b03928316178b55915160018b018054841691831691909117905597516002808b018054909316919099161781559051968710156126115760079681549060ff60a01b9060a01b169060ff60a01b191617905551600387015551600486015551600585015551600684015551910155600d54915f198301928311611c59576125cf906040519586526020860190612a67565b604084015260608301527f58a01cec638e44fd50f881445a9cedbc0c087ba39f0218de7ddc71ec1180129060803393a45f5f805160206132278339815191525d005b634e487b7160e01b5f52602160045260245ffd5b634e487b7160e01b5f525f60045260245ffd5b634e487b7160e01b5f52604160045260245ffd5b60405162461bcd60e51b815260206004820152603a60248201525f805160206131078339815191526044820152793a206e6f7420656e6f75676820746f74616c2062616c616e636560301b6064820152608490fd5b60405162461bcd60e51b815260206004820152603460248201525f805160206131078339815191526044820152733a206e6f7420656e6f7567682062616c616e636560601b6064820152608490fd5b346101db575f3660031901126101db576001546040516001600160a01b039091168152602090f35b346101db575f3660031901126101db576020600d54604051908152f35b346101db5761274336612971565b91909360208160248160018060a01b035f5416632105305360e01b82523360048301525afa8015610e6a5761277e915f916111615750612aea565b60018060a01b03811693845f52600a6020526127a160ff60405f20541615612b4e565b6127a9612d3d565b60018060a01b03841693845f52600260205260405f20865f526020528160405f2054106128e357845f5260056020528160405f205410612891577f266db432dd60d996c5eacf4e77fb6e9d1642097fad309f5fce95908bb09e15949361286c8360609560ff94895f52600260205260405f208b5f5260205260405f20612830848254612bf5565b9055895f52600560205260405f20612849848254612bf5565b905560048b8b5f8051602061312783398151915260405180611286338a83612d24565b604051928352166020820152336040820152a35f5f805160206132278339815191525d005b60405162461bcd60e51b815260206004820152603760248201525f805160206131c78339815191526044820152766f7420656e6f75676820746f74616c2062616c616e636560481b6064820152608490fd5b60405162461bcd60e51b815260206004820152603160248201525f805160206131c78339815191526044820152706f7420656e6f7567682062616c616e636560781b6064820152608490fd5b600435906001600160a01b03821682036101db57565b602435906001600160a01b03821682036101db57565b604435906001600160a01b03821682036101db57565b60809060031901126101db576004356001600160a01b03811681036101db57906024356001600160a01b03811681036101db57906044359060643560ff811681036101db5790565b61012081019081106001600160401b0382111761263857604052565b601f909101601f19168101906001600160401b0382119082101761263857604052565b6001600160401b03811161263857601f01601f191660200190565b929192612a1f826129f8565b91612a2d60405193846129d5565b8294818452818301116101db578281602093845f960137010152565b9080601f830112156101db57816020612a6493359101612a13565b90565b9060028210156126115752565b60609060031901126101db576004356001600160a01b03811681036101db57906024356001600160a01b03811681036101db579060443590565b805180835260209291819084018484015e5f828201840152601f01601f1916010190565b908160209103126101db575180151581036101db5790565b15612af157565b60405162461bcd60e51b815260206004820152602f60248201527f42616c616e63654b65657065723a204f6e6c79206465616c2063616e2063616c60448201526e36103a3434b990333ab731ba34b7b760891b6064820152608490fd5b15612b5557565b60405162461bcd60e51b815260206004820152602960248201527f42616c616e63654b65657065723a2055736572206973207065726d616e656e74604482015268363c90333937bd32b760b91b6064820152608490fd5b91908201809211611c5957565b60028210156126115752565b600d54811015612be157600d5f5260205f209060031b01905f90565b634e487b7160e01b5f52603260045260245ffd5b91908203918211611c5957565b908160209103126101db57516001600160a01b03811681036101db5790565b15612c2857565b60405162461bcd60e51b815260206004820152603660248201525f8051602061316783398151915260448201527531b0b71031b0b636103a3434b990333ab731ba34b7b760511b6064820152608490fd5b6001600160401b0381116126385760051b60200190565b8051821015612be15760209160051b010190565b15612cab57565b60405162461bcd60e51b815260206004820152603060248201527f42616c616e63654b65657065723a204f6e6c79206f776e65722063616e20636160448201526f3636103a3434b990333ab731ba34b7b760811b6064820152608490fd5b6001600160a01b039091168152602081019190915260400190565b9081526001600160a01b03909116602082015260400190565b5f805160206132278339815191525c612d635760015f805160206132278339815191525d565b633ee5aeb560e01b5f5260045ffd5b6119af612da79392612d9960405194859263a9059cbb60e01b602085015260248401612d09565b03601f1981018452836129d5565b565b60643b15612e085760405163a3b1b31d60e01b815260208160048160645afa908115610e6a575f91612dd9575090565b90506020813d602011612e00575b81612df4602093836129d5565b810103126101db575190565b3d9150612de7565b4390565b5f54604051638da5cb5b60e01b815290602090829060049082906001600160a01b03165afa908115610e6a575f91612e42575090565b612a64915060203d6020116120a65761209881836129d5565b60018060a01b0316805f52600a60205260405f20600160ff198254161790555f805160206131478339815191526040805160018152336020820152a2565b60018060a01b0316805f52600260205260405f2060018060a01b0383165f5260205260405f205491821561300657815f5260056020528260405f205410612fb657612fb17f8d6aa7cd13e7031d191d6fa5505e7bca293b15b474585bd0748c94280a1dfb0c91835f52600860205260405f2060018060a01b0382165f5260205260405f20612f28868254612bac565b9055835f52600960205260405f20612f41868254612bac565b9055835f52600260205260405f2060018060a01b0382165f5260205260405f20612f6c868254612bf5565b9055835f52600560205260405f20612f85868254612bf5565b905560018060a01b031693600685855f8051602061312783398151915260405180611478338883612d24565b0390a3565b60405162461bcd60e51b815260206004820152603560248201525f805160206131a783398151915260448201527420656e6f75676820746f74616c2062616c616e636560581b6064820152608490fd5b60405162461bcd60e51b815260206004820152602f60248201525f805160206131a783398151915260448201526e20656e6f7567682062616c616e636560881b6064820152608490fd5b905f602091828151910182855af115610e6a575f513d61309f57506001600160a01b0381163b155b61307f5750565b635274afe760e01b5f9081526001600160a01b0391909116600452602490fd5b60011415613078565b906130cc57508051156130bd57805190602001fd5b63d6bda27560e01b5f5260045ffd5b815115806130fd575b6130dd575090565b639996b31560e01b5f9081526001600160a01b0391909116600452602490fd5b50803b156130d556fe42616c616e63654b65657065723a206d6f766542616c616e6365546f4465616c69bee883171cca38453cbb97adc848425ea48ea1b0fcc40c53abc32e3ef7b0e5ebbe21d9a1cf17261291d004eb85252315dcfcbeb7780eb74ea43763e23bed0342616c616e63654b65657065723a204f6e6c7920636f6f7264696e61746f722042616c616e63654b65657065723a207769746864726177526571756573743a2042616c616e63654b65657065723a205f73656e64546f4c696d626f3a206e6f7442616c616e63654b65657065723a20776974686472617742794465616c3a206e360894a13ba1a3210667c828492db98dca3e2076cc3735a920a3ca505d382bbc8a574e0ee9236bf8a1f1625cca6131131ef4fba2e05aaa184e939ba4da397c8a9b779b17422d0df92223018b32b4d1fa46e071723d6817e2486d003becc55f00f0c57e16840df040f15088dc2f81fe391c3923bec73e23a9662efc9c229c6a0042616c616e63654b65657065723a206d6f766542616c616e636546726f6d446542616c616e63654b65657065723a20766f646f70616457697468647261773a20a2646970667358221220c4960d50f46fb6cb776e0229d5a66f7d936a08f4ae33ec4f2f3d925545551d1664736f6c634300081a0033","linkReferences":{}},"methodIdentifiers":{"UPGRADE_INTERFACE_VERSION()":"ad3cb1cc","WITHDRAW_REQUEST_DELAY()":"fac4bf22","coordinator()":"0a009097","dealBalancesTotal(address)":"1229add5","diamond()":"f0b7db4e","disableOnchainRefund()":"9cf8fc36","enableOnchainRefund()":"3adce715","freeBalanceTotal(address)":"933a6d5e","freezeAccount(address)":"f26c159f","frozen(address)":"d0516650","fundFromLimbo(address,address,uint256)":"7fad6401","getDepositInfo(uint256,uint256)":"3bf9bb0b","getDepositInfoLength()":"04930575","getFreeBalance(address,address)":"de700da6","getFullBalance(address,address)":"d4f4ba48","initialize(address)":"c4d66de8","limbo(address,address)":"ae77dc10","limboTotal(address)":"c44ead3c","manualWithdrawEnabled()":"1e4343ec","moveBalanceFromDeal(address,address,uint256,uint8)":"88081fcb","moveBalanceToDeal(address,address,uint256,uint8)":"116424cc","moveFreeBalance(address,address,address,uint256,uint8)":"95e1b418","poolBalance(address)":"68abb5e0","poolTopUp(address,uint256)":"3eb026af","poolWithdraw(address,uint256)":"db2aa127","proxiableUUID()":"52d1902d","refund(address,address,uint256)":"82ad6f35","sendToLimbo(address,address)":"ec178c13","setCoordinator(address)":"8ea98117","terminate(address)":"edb45529","terminationRequest(address)":"301aaac9","terminationVeto(address,address)":"7df5070f","topUpIds(string)":"c08ea6e6","unfreezeAccount(address)":"788649ea","upgradeToAndCall(address,bytes)":"4f1ef286","userTopUp(address,address,uint256,string)":"31acc942","withdrawByDeal(address,address,uint256,uint8)":"01627f56","withdrawFromLimbo(address,address,address,uint256)":"985a3e1a"},"storageLayout":{"storage":[{"astId":50088,"contract":"src/balance-keeper/BalanceKeeper.sol:BalanceKeeper","label":"diamond","offset":0,"slot":"0","type":"t_address"},{"astId":50090,"contract":"src/balance-keeper/BalanceKeeper.sol:BalanceKeeper","label":"coordinator","offset":0,"slot":"1","type":"t_address"},{"astId":50097,"contract":"src/balance-keeper/BalanceKeeper.sol:BalanceKeeper","label":"freeBalances","offset":0,"slot":"2","type":"t_mapping(t_contract(IERC20)39797,t_mapping(t_address,t_uint256))"},{"astId":50104,"contract":"src/balance-keeper/BalanceKeeper.sol:BalanceKeeper","label":"dealBalances","offset":0,"slot":"3","type":"t_mapping(t_contract(IERC20)39797,t_mapping(t_address,t_uint256))"},{"astId":50111,"contract":"src/balance-keeper/BalanceKeeper.sol:BalanceKeeper","label":"terminationRequests","offset":0,"slot":"4","type":"t_mapping(t_contract(IERC20)39797,t_mapping(t_address,t_uint256))"},{"astId":50116,"contract":"src/balance-keeper/BalanceKeeper.sol:BalanceKeeper","label":"freeBalanceTotal","offset":0,"slot":"5","type":"t_mapping(t_contract(IERC20)39797,t_uint256)"},{"astId":50121,"contract":"src/balance-keeper/BalanceKeeper.sol:BalanceKeeper","label":"dealBalancesTotal","offset":0,"slot":"6","type":"t_mapping(t_contract(IERC20)39797,t_uint256)"},{"astId":50126,"contract":"src/balance-keeper/BalanceKeeper.sol:BalanceKeeper","label":"poolBalance","offset":0,"slot":"7","type":"t_mapping(t_contract(IERC20)39797,t_uint256)"},{"astId":50133,"contract":"src/balance-keeper/BalanceKeeper.sol:BalanceKeeper","label":"limbo","offset":0,"slot":"8","type":"t_mapping(t_contract(IERC20)39797,t_mapping(t_address,t_uint256))"},{"astId":50138,"contract":"src/balance-keeper/BalanceKeeper.sol:BalanceKeeper","label":"limboTotal","offset":0,"slot":"9","type":"t_mapping(t_contract(IERC20)39797,t_uint256)"},{"astId":50142,"contract":"src/balance-keeper/BalanceKeeper.sol:BalanceKeeper","label":"frozen","offset":0,"slot":"10","type":"t_mapping(t_address,t_bool)"},{"astId":50146,"contract":"src/balance-keeper/BalanceKeeper.sol:BalanceKeeper","label":"topUpIds","offset":0,"slot":"11","type":"t_mapping(t_string_memory_ptr,t_bool)"},{"astId":50149,"contract":"src/balance-keeper/BalanceKeeper.sol:BalanceKeeper","label":"manualWithdrawEnabled","offset":0,"slot":"12","type":"t_bool"},{"astId":50153,"contract":"src/balance-keeper/BalanceKeeper.sol:BalanceKeeper","label":"dealDeposits","offset":0,"slot":"13","type":"t_array(t_struct(DealDepositInfo)51543_storage)dyn_storage"}],"types":{"t_address":{"encoding":"inplace","label":"address","numberOfBytes":"20"},"t_array(t_struct(DealDepositInfo)51543_storage)dyn_storage":{"encoding":"dynamic_array","label":"struct IBalanceKeeper.DealDepositInfo[]","numberOfBytes":"32","base":"t_struct(DealDepositInfo)51543_storage"},"t_bool":{"encoding":"inplace","label":"bool","numberOfBytes":"1"},"t_contract(IERC20)39797":{"encoding":"inplace","label":"contract IERC20","numberOfBytes":"20"},"t_enum(DealDepositReason)51522":{"encoding":"inplace","label":"enum IBalanceKeeper.DealDepositReason","numberOfBytes":"1"},"t_mapping(t_address,t_bool)":{"encoding":"mapping","key":"t_address","label":"mapping(address => bool)","numberOfBytes":"32","value":"t_bool"},"t_mapping(t_address,t_uint256)":{"encoding":"mapping","key":"t_address","label":"mapping(address => uint256)","numberOfBytes":"32","value":"t_uint256"},"t_mapping(t_contract(IERC20)39797,t_mapping(t_address,t_uint256))":{"encoding":"mapping","key":"t_contract(IERC20)39797","label":"mapping(contract IERC20 => mapping(address => uint256))","numberOfBytes":"32","value":"t_mapping(t_address,t_uint256)"},"t_mapping(t_contract(IERC20)39797,t_uint256)":{"encoding":"mapping","key":"t_contract(IERC20)39797","label":"mapping(contract IERC20 => uint256)","numberOfBytes":"32","value":"t_uint256"},"t_mapping(t_string_memory_ptr,t_bool)":{"encoding":"mapping","key":"t_string_memory_ptr","label":"mapping(string => bool)","numberOfBytes":"32","value":"t_bool"},"t_string_memory_ptr":{"encoding":"bytes","label":"string","numberOfBytes":"32"},"t_struct(DealDepositInfo)51543_storage":{"encoding":"inplace","label":"struct IBalanceKeeper.DealDepositInfo","numberOfBytes":"256","members":[{"astId":51525,"contract":"src/balance-keeper/BalanceKeeper.sol:BalanceKeeper","label":"token","offset":0,"slot":"0","type":"t_contract(IERC20)39797"},{"astId":51527,"contract":"src/balance-keeper/BalanceKeeper.sol:BalanceKeeper","label":"deal","offset":0,"slot":"1","type":"t_address"},{"astId":51529,"contract":"src/balance-keeper/BalanceKeeper.sol:BalanceKeeper","label":"user","offset":0,"slot":"2","type":"t_address"},{"astId":51532,"contract":"src/balance-keeper/BalanceKeeper.sol:BalanceKeeper","label":"reason","offset":20,"slot":"2","type":"t_enum(DealDepositReason)51522"},{"astId":51534,"contract":"src/balance-keeper/BalanceKeeper.sol:BalanceKeeper","label":"amount","offset":0,"slot":"3","type":"t_uint256"},{"astId":51536,"contract":"src/balance-keeper/BalanceKeeper.sol:BalanceKeeper","label":"blockNumber","offset":0,"slot":"4","type":"t_uint256"},{"astId":51538,"contract":"src/balance-keeper/BalanceKeeper.sol:BalanceKeeper","label":"reserved1","offset":0,"slot":"5","type":"t_uint256"},{"astId":51540,"contract":"src/balance-keeper/BalanceKeeper.sol:BalanceKeeper","label":"reserved2","offset":0,"slot":"6","type":"t_uint256"},{"astId":51542,"contract":"src/balance-keeper/BalanceKeeper.sol:BalanceKeeper","label":"reserved3","offset":0,"slot":"7","type":"t_uint256"}]},"t_uint256":{"encoding":"inplace","label":"uint256","numberOfBytes":"32"}}},"devdoc":{"version":1,"kind":"dev","methods":{"constructor":{},"proxiableUUID()":{"details":"Implementation of the ERC-1822 {proxiableUUID} function. This returns the storage slot used by the implementation. It is used to validate the implementation's compatibility when performing an upgrade. IMPORTANT: A proxy pointing at a proxiable contract should not be considered proxiable itself, because this risks bricking a proxy that upgrades to it, by delegating to itself until out of gas. Thus it is critical that this function revert if invoked through a proxy. This is guaranteed by the `notDelegated` modifier."},"refund(address,address,uint256)":{"details":"Refunds the specified amount of tokens to the user"},"upgradeToAndCall(address,bytes)":{"details":"Upgrade the implementation of the proxy to `newImplementation`, and subsequently execute the function call encoded in `data`. Calls {_authorizeUpgrade}. Emits an {Upgraded} event."}},"events":{"Initialized(uint64)":{"details":"Triggered when the contract has been initialized or reinitialized."},"Upgraded(address)":{"details":"Emitted when the implementation is upgraded."}},"errors":{"AddressEmptyCode(address)":[{"details":"There's no code at `target` (it is not a contract)."}],"ERC1967InvalidImplementation(address)":[{"details":"The `implementation` of the proxy is invalid."}],"ERC1967NonPayable()":[{"details":"An upgrade function sees `msg.value > 0` that may be lost."}],"FailedCall()":[{"details":"A call to an address target failed. The target may have reverted."}],"InvalidInitialization()":[{"details":"The contract is already initialized."}],"NotInitializing()":[{"details":"The contract is not initializing."}],"ReentrancyGuardReentrantCall()":[{"details":"Unauthorized reentrant call."}],"SafeERC20FailedOperation(address)":[{"details":"An operation with an ERC-20 token failed."}],"UUPSUnauthorizedCallContext()":[{"details":"The call is from an unauthorized context."}],"UUPSUnsupportedProxiableUUID(bytes32)":[{"details":"The storage `slot` is unsupported as a UUID."}]}},"id":62}