{"abi":[{"type":"function","name":"activeUnitCount","inputs":[],"outputs":[{"name":"","type":"uint256","internalType":"uint256"}],"stateMutability":"view"},{"type":"function","name":"addPaymentTokenToWhitelist","inputs":[{"name":"paymentToken","type":"address","internalType":"address"}],"outputs":[],"stateMutability":"nonpayable"},{"type":"function","name":"currentEpoch","inputs":[],"outputs":[{"name":"","type":"uint256","internalType":"uint256"}],"stateMutability":"view"},{"type":"function","name":"dealImpl","inputs":[],"outputs":[{"name":"","type":"address","internalType":"contract IDeal"}],"stateMutability":"view"},{"type":"function","name":"difficulty","inputs":[],"outputs":[{"name":"","type":"bytes32","internalType":"bytes32"}],"stateMutability":"view"},{"type":"function","name":"epochDuration","inputs":[],"outputs":[{"name":"","type":"uint256","internalType":"uint256"}],"stateMutability":"view"},{"type":"function","name":"epochTimestamp","inputs":[{"name":"epoch","type":"uint256","internalType":"uint256"}],"outputs":[{"name":"","type":"uint256","internalType":"uint256"}],"stateMutability":"view"},{"type":"function","name":"fltCollateralPerUnit","inputs":[],"outputs":[{"name":"","type":"uint256","internalType":"uint256"}],"stateMutability":"view"},{"type":"function","name":"fltPrice","inputs":[],"outputs":[{"name":"","type":"uint256","internalType":"uint256"}],"stateMutability":"view"},{"type":"function","name":"fltPriceAtEpoch","inputs":[{"name":"epoch","type":"uint256","internalType":"uint256"}],"outputs":[{"name":"","type":"uint256","internalType":"uint256"}],"stateMutability":"view"},{"type":"function","name":"getAllConstants","inputs":[],"outputs":[{"name":"","type":"tuple","internalType":"struct IGlobalConst.GlobalConstants","components":[{"name":"constants1","type":"tuple","internalType":"struct IGlobalConst.Constants1","components":[{"name":"fltPrice","type":"uint256","internalType":"uint256"},{"name":"fltCollateralPerUnit","type":"uint256","internalType":"uint256"},{"name":"usdCollateralPerUnit","type":"uint256","internalType":"uint256"},{"name":"usdTargetRevenuePerEpoch","type":"uint256","internalType":"uint256"},{"name":"minDuration","type":"uint256","internalType":"uint256"},{"name":"maxDuration","type":"uint256","internalType":"uint256"},{"name":"minRewardPerEpoch","type":"uint256","internalType":"uint256"},{"name":"maxRewardPerEpoch","type":"uint256","internalType":"uint256"},{"name":"vestingPeriodDuration","type":"uint256","internalType":"uint256"},{"name":"vestingPeriodCount","type":"uint256","internalType":"uint256"},{"name":"slashingRate","type":"uint256","internalType":"uint256"},{"name":"minProofsPerEpoch","type":"uint256","internalType":"uint256"},{"name":"maxProofsPerEpoch","type":"uint256","internalType":"uint256"},{"name":"withdrawEpochsAfterFailed","type":"uint256","internalType":"uint256"},{"name":"maxFailedRatio","type":"uint256","internalType":"uint256"}]},{"name":"constants2","type":"tuple","internalType":"struct IGlobalConst.Constants2","components":[{"name":"epochDuration","type":"uint256","internalType":"uint256"},{"name":"minDealRematchingEpoch","type":"uint256","internalType":"uint256"},{"name":"minDealDepositedEpoch","type":"uint256","internalType":"uint256"},{"name":"minCUPerCommitment","type":"uint256","internalType":"uint256"},{"name":"maxCUPerCommitment","type":"uint256","internalType":"uint256"},{"name":"precision","type":"uint256","internalType":"uint256"},{"name":"initTimestamp","type":"uint256","internalType":"uint256"},{"name":"difficulty","type":"bytes32","internalType":"bytes32"}]}]}],"stateMutability":"view"},{"type":"function","name":"getRewardPool","inputs":[{"name":"epoch","type":"uint256","internalType":"uint256"}],"outputs":[{"name":"","type":"uint256","internalType":"uint256"}],"stateMutability":"view"},{"type":"function","name":"grantAccess","inputs":[{"name":"account","type":"address","internalType":"address"}],"outputs":[],"stateMutability":"nonpayable"},{"type":"function","name":"initTimestamp","inputs":[],"outputs":[{"name":"","type":"uint256","internalType":"uint256"}],"stateMutability":"view"},{"type":"function","name":"isApproved","inputs":[{"name":"account","type":"address","internalType":"address"}],"outputs":[{"name":"","type":"bool","internalType":"bool"}],"stateMutability":"view"},{"type":"function","name":"isPaymentTokenAllowed","inputs":[{"name":"paymentToken","type":"address","internalType":"address"}],"outputs":[{"name":"","type":"bool","internalType":"bool"}],"stateMutability":"view"},{"type":"function","name":"lastPriceSetting","inputs":[],"outputs":[{"name":"timestamp","type":"uint256","internalType":"uint256"},{"name":"price","type":"uint256","internalType":"uint256"}],"stateMutability":"view"},{"type":"function","name":"maxCUPerCommitment","inputs":[],"outputs":[{"name":"","type":"uint256","internalType":"uint256"}],"stateMutability":"view"},{"type":"function","name":"maxDuration","inputs":[],"outputs":[{"name":"","type":"uint256","internalType":"uint256"}],"stateMutability":"view"},{"type":"function","name":"maxFailedRatio","inputs":[],"outputs":[{"name":"","type":"uint256","internalType":"uint256"}],"stateMutability":"view"},{"type":"function","name":"maxProofsPerEpoch","inputs":[],"outputs":[{"name":"","type":"uint256","internalType":"uint256"}],"stateMutability":"view"},{"type":"function","name":"maxProtocolVersion","inputs":[],"outputs":[{"name":"","type":"uint256","internalType":"uint256"}],"stateMutability":"view"},{"type":"function","name":"maxRewardPerEpoch","inputs":[],"outputs":[{"name":"","type":"uint256","internalType":"uint256"}],"stateMutability":"view"},{"type":"function","name":"maxUnitCountPerProvider","inputs":[],"outputs":[{"name":"","type":"uint256","internalType":"uint256"}],"stateMutability":"view"},{"type":"function","name":"minCUPerCommitment","inputs":[],"outputs":[{"name":"","type":"uint256","internalType":"uint256"}],"stateMutability":"view"},{"type":"function","name":"minDealDepositedEpochs","inputs":[],"outputs":[{"name":"","type":"uint256","internalType":"uint256"}],"stateMutability":"view"},{"type":"function","name":"minDealRematchingEpochs","inputs":[],"outputs":[{"name":"","type":"uint256","internalType":"uint256"}],"stateMutability":"view"},{"type":"function","name":"minDuration","inputs":[],"outputs":[{"name":"","type":"uint256","internalType":"uint256"}],"stateMutability":"view"},{"type":"function","name":"minProofsPerEpoch","inputs":[],"outputs":[{"name":"","type":"uint256","internalType":"uint256"}],"stateMutability":"view"},{"type":"function","name":"minProtocolVersion","inputs":[],"outputs":[{"name":"","type":"uint256","internalType":"uint256"}],"stateMutability":"view"},{"type":"function","name":"minRewardPerEpoch","inputs":[],"outputs":[{"name":"","type":"uint256","internalType":"uint256"}],"stateMutability":"view"},{"type":"function","name":"oracle","inputs":[],"outputs":[{"name":"","type":"address","internalType":"address"}],"stateMutability":"view"},{"type":"function","name":"owner","inputs":[],"outputs":[{"name":"","type":"address","internalType":"address"}],"stateMutability":"view"},{"type":"function","name":"precision","inputs":[],"outputs":[{"name":"","type":"uint256","internalType":"uint256"}],"stateMutability":"pure"},{"type":"function","name":"randomXProxy","inputs":[],"outputs":[{"name":"","type":"address","internalType":"address"}],"stateMutability":"view"},{"type":"function","name":"removePaymentTokenFromWhitelist","inputs":[{"name":"paymentToken","type":"address","internalType":"address"}],"outputs":[],"stateMutability":"nonpayable"},{"type":"function","name":"renounceOwnership","inputs":[],"outputs":[],"stateMutability":"nonpayable"},{"type":"function","name":"revokeAccess","inputs":[{"name":"account","type":"address","internalType":"address"}],"outputs":[],"stateMutability":"nonpayable"},{"type":"function","name":"setCapacityConstant","inputs":[{"name":"constantType","type":"uint8","internalType":"enum ICapacityConst.CapacityConstantType"},{"name":"v","type":"uint256","internalType":"uint256"}],"outputs":[],"stateMutability":"nonpayable"},{"type":"function","name":"setConstant","inputs":[{"name":"constantType","type":"uint8","internalType":"enum IGlobalConst.ConstantType"},{"name":"v","type":"uint256","internalType":"uint256"}],"outputs":[],"stateMutability":"nonpayable"},{"type":"function","name":"setDealImpl","inputs":[{"name":"dealImpl_","type":"address","internalType":"contract IDeal"}],"outputs":[],"stateMutability":"nonpayable"},{"type":"function","name":"setDifficulty","inputs":[{"name":"difficulty_","type":"bytes32","internalType":"bytes32"}],"outputs":[],"stateMutability":"nonpayable"},{"type":"function","name":"setFLTPrice","inputs":[{"name":"fltPrice_","type":"uint256","internalType":"uint256"}],"outputs":[],"stateMutability":"nonpayable"},{"type":"function","name":"setOracle","inputs":[{"name":"oracle_","type":"address","internalType":"address"}],"outputs":[],"stateMutability":"nonpayable"},{"type":"function","name":"slashingRate","inputs":[],"outputs":[{"name":"","type":"uint256","internalType":"uint256"}],"stateMutability":"view"},{"type":"function","name":"transferOwnership","inputs":[{"name":"newOwner","type":"address","internalType":"address"}],"outputs":[],"stateMutability":"nonpayable"},{"type":"function","name":"usdCollateralPerUnit","inputs":[],"outputs":[{"name":"","type":"uint256","internalType":"uint256"}],"stateMutability":"view"},{"type":"function","name":"usdTargetRevenuePerEpoch","inputs":[],"outputs":[{"name":"","type":"uint256","internalType":"uint256"}],"stateMutability":"view"},{"type":"function","name":"vestingPeriodCount","inputs":[],"outputs":[{"name":"","type":"uint256","internalType":"uint256"}],"stateMutability":"view"},{"type":"function","name":"vestingPeriodDuration","inputs":[],"outputs":[{"name":"","type":"uint256","internalType":"uint256"}],"stateMutability":"view"},{"type":"function","name":"withdrawEpochsAfterFailed","inputs":[],"outputs":[{"name":"","type":"uint256","internalType":"uint256"}],"stateMutability":"view"},{"type":"event","name":"CapacityConstantUpdated","inputs":[{"name":"constantType","type":"uint8","indexed":false,"internalType":"enum ICapacityConst.CapacityConstantType"},{"name":"newValue","type":"uint256","indexed":false,"internalType":"uint256"}],"anonymous":false},{"type":"event","name":"ConstantUpdated","inputs":[{"name":"constantType","type":"uint8","indexed":false,"internalType":"enum IGlobalConst.ConstantType"},{"name":"newValue","type":"uint256","indexed":false,"internalType":"uint256"}],"anonymous":false},{"type":"event","name":"DealImplSet","inputs":[{"name":"dealImpl","type":"address","indexed":false,"internalType":"contract IDeal"}],"anonymous":false},{"type":"event","name":"DifficultyUpdated","inputs":[{"name":"difficulty","type":"bytes32","indexed":false,"internalType":"bytes32"}],"anonymous":false},{"type":"event","name":"FLTPriceUpdated","inputs":[{"name":"newValue","type":"uint256","indexed":false,"internalType":"uint256"}],"anonymous":false},{"type":"event","name":"Initialized","inputs":[{"name":"version","type":"uint64","indexed":false,"internalType":"uint64"}],"anonymous":false},{"type":"event","name":"OracleSet","inputs":[{"name":"oracle","type":"address","indexed":false,"internalType":"address"}],"anonymous":false},{"type":"event","name":"OwnershipTransferred","inputs":[{"name":"previousOwner","type":"address","indexed":true,"internalType":"address"},{"name":"newOwner","type":"address","indexed":true,"internalType":"address"}],"anonymous":false},{"type":"event","name":"PaymentTokenAddedToWhitelist","inputs":[{"name":"paymentToken","type":"address","indexed":true,"internalType":"address"}],"anonymous":false},{"type":"event","name":"PaymentTokenRemovedFromWhitelist","inputs":[{"name":"paymentToken","type":"address","indexed":true,"internalType":"address"}],"anonymous":false},{"type":"event","name":"WhitelistAccessGranted","inputs":[{"name":"account","type":"address","indexed":false,"internalType":"address"}],"anonymous":false},{"type":"event","name":"WhitelistAccessRevoked","inputs":[{"name":"account","type":"address","indexed":false,"internalType":"address"}],"anonymous":false},{"type":"error","name":"InvalidInitialization","inputs":[]},{"type":"error","name":"NotInitializing","inputs":[]},{"type":"error","name":"OwnableInvalidOwner","inputs":[{"name":"owner","type":"address","internalType":"address"}]},{"type":"error","name":"OwnableUnauthorizedAccount","inputs":[{"name":"account","type":"address","internalType":"address"}]}],"bytecode":{"object":"0x60808060405234601557612ac3908161001a8239f35b5f80fdfe60806040526004361015610011575f80fd5b5f3560e01c806301c869b614611b0a57806303eed73e14611ae15780630640d94114611ab8578063069f7a6414611a8f5780630ae5e73914611a1257806312d69357146119d457806313baa069146119ab57806319cae4621461199157806322cafa3a14611968578063280c5e511461193f57806332da089e146119215780633932dbf5146118735780634348bb31146117ff578063441407ea146117d65780634469ac9b146117ad5780634ff0876a146117845780634ff3dfd61461175b57806356715761146117325780635c11f4d4146117095780635cfa91f4146116eb5780635ff24491146116c257806366aaf7b914611699578063673448dd146116105780636daecfbe14610f425780636db5c8fd14610f195780636f16797714610ef0578063715018a614610e9c57806372ea4f2314610e735780637358c57a14610e4a5780637667180814610e285780637adbf97314610d645780637dc0d1d014610d305780637e81538114610d07578063800fe12514610cde57806385e6853114610c6457806389e4a0ba14610b8c5780638da5cb5b14610b585780638de1de7114610b05578063919f49f914610abe578063960dd223146107035780639ef90176146106da578063a376fb91146106b1578063c2bae29214610688578063d3b5dc3b1461066b578063d6a5a04b14610637578063d6f563d8146104dc578063dad01895146104b3578063e2175090146103c6578063e79c62701461039d578063f2fde38b1461031a5763f5c741a71461024a575f80fd5b34610316576020366003190112610316576004356001600160a01b0381169081900361031657610278611c24565b80156102c757805f525f8051602061294e83398151915260205260405f20600160ff198254161790557f972ddfd1048d93d29628766f1d4054287790c95ca089d448c7526eeeec18ed735f80a2005b60405162461bcd60e51b815260206004820152602160248201527f5a65726f20746f6b656e2061646472657373206973206e6f7420616c6c6f77656044820152601960fa1b6064820152608490fd5b5f80fd5b34610316576020366003190112610316576004356001600160a01b038116908190036103165761034861209d565b801561038a575f8051602061288e83398151915280546001600160a01b0319811683179091556001600160a01b03165f8051602061286e8339815191525f80a3005b631e4fbdf760e01b5f525f60045260245ffd5b34610316575f3660031901126103165760205f8051602061284e83398151915254604051908152f35b34610316576020366003190112610316575f8051602061298e83398151915254600435906001600160a01b0316330361046e576020816104267fd1deff9e525a11d14a1263bcc0b80d6863292470cc5c6e5c433dfdeaa7ef0e2d93612122565b61043e5f805160206126ee8339815191525482611e5e565b610456815f80516020612a6e83398151915254612052565b5f8051602061270e83398151915255604051908152a1005b60405162461bcd60e51b815260206004820152601d60248201527f4f6e6c79206f7261636c652063616e2073657420464c542070726963650000006044820152606490fd5b34610316575f3660031901126103165760205f805160206127ae83398151915254604051908152f35b346103165760403660031901126103165760043560058110156103165760243590610505611c24565b5f825f805160206125ae8339815191528361056757555b60405190610553577f201e1b27d7e31716378e28dd51ab57b07c4387abf9d578358af3b12737872f0e9260409282526020820152a1005b634e487b7160e01b5f52602160045260245ffd5b5050505f600182145f1461058a57825f805160206127ee8339815191525561051c565b505f600282036105a957825f8051602061292e8339815191525561051c565b505f600382036105c857825f8051602061296e8339815191525561051c565b505f600482036105e757825f805160206128ee8339815191525561051c565b60405162461bcd60e51b815260206004820152602260248201527f476c6f62616c436f6e73743a20756e6b6e6f776e20636f6e7374616e74207479604482015261706560f01b6064820152608490fd5b34610316575f366003190112610316575f805160206125ce833981519152546040516001600160a01b039091168152602090f35b34610316575f366003190112610316576020604051629896808152f35b34610316575f3660031901126103165760205f8051602061272e83398151915254604051908152f35b34610316575f3660031901126103165760205f8051602061280e83398151915254604051908152f35b34610316575f3660031901126103165760205f8051602061258e83398151915254604051908152f35b34610316575f3660031901126103165761071b611b91565b610723611bc4565b5f8082526020820181905260408201819052606082018190526080820181905260a0820181905260c0820181905260e08201819052610100820181905261012082018190526101408201819052610160820181905261018082018190526101a082018190526101c08201528152610798611be4565b905f8252602082015f9052604082015f9052606082015f9052608082015f905260a082015f905260c082015f905260e082015f9052602001525f8051602061264e833981519152545f8051602061270e83398151915254905f80516020612a6e833981519152545f8051602061260e833981519152545f8051602061262e833981519152545f805160206129ce833981519152545f805160206127ce833981519152545f80516020612a0e833981519152545f805160206125ee83398151915254905f805160206127ae83398151915254925f805160206128ae83398151915254945f8051602061284e83398151915254965f8051602061274e83398151915254985f805160206126ae833981519152549a5f8051602061280e833981519152549c6108c2611bc4565b9e8f91825260208201526040015260608d015260808c015260a08b015260c08a015260e08901526101008801526101208701526101408601526101608501526101808401526101a08301526101c08201525f80516020612a4e8339815191525f8051602061278e83398151915254905f805160206125ae833981519152905f805160206127ee833981519152549154905f8051602061258e833981519152545f8051602061272e8339815191525491549261097b611ca7565b94610984611be4565b96875260208701526040860152606085015260808401526298968060a084015260c083015260e08201526109b6611b91565b90828252602082015260405191805183526020810151602084015260408101516040840152606081015160608401526080810151608084015260a081015160a084015260c081015160c084015260e081015160e08401526101008101516101008401526101208101516101208401526101408101516101408401526101608101516101608401526101808101516101808401526101a08101516101a08401526101c001516101c08301526020015180516101e0830152602081015161020083015260408101516102208301526060810151610240830152608081015161026083015260a081015161028083015260c08101516102a083015260e001516102c08201526102e090f35b34610316575f366003190112610316577f8984d2d0d7a9f2f70f22692c7c8344aa50cbed8c00a03c924457a31793ee8fd1546040516001600160a01b039091168152602090f35b34610316576020366003190112610316576004356001600160a01b03811681036103165760018060a01b03165f525f8051602061294e833981519152602052602060ff60405f2054166040519015158152f35b34610316575f366003190112610316575f8051602061288e833981519152546040516001600160a01b039091168152602090f35b34610316576020366003190112610316576004356001600160a01b0381169081900361031657610bba611c24565b803b15610c0d575f805160206125ce83398151915280546001600160a01b031916821790556040519081527f7af5c74f6888b661f9fb5dd1005c495f8e7d547682930c3dd1697dad117f69fc90602090a1005b60405162461bcd60e51b815260206004820152602960248201527f4e6577206465616c20696d706c656d656e746174696f6e206973206e6f7420616044820152680818dbdb9d1c9858dd60ba1b6064820152608490fd5b34610316576020366003190112610316576004356001600160a01b038116908190036103165760207fbf16401515c3259ef6fd204d106ff51a2a7185ecd4e3ed51d42612a218fc8c7791610cb6611c24565b805f525f805160206129ae833981519152825260405f2060ff198154169055604051908152a1005b34610316575f3660031901126103165760205f80516020612a0e83398151915254604051908152f35b34610316575f3660031901126103165760205f805160206126ee83398151915254604051908152f35b34610316575f366003190112610316575f8051602061298e833981519152546040516001600160a01b039091168152602090f35b34610316576020366003190112610316576004356001600160a01b0381169081900361031657610d92611c24565b8015610de4575f8051602061298e83398151915280546001600160a01b031916821790556040519081527f3f32684a32a11dabdbb8c0177de80aa3ae36a004d75210335b49e544e48cd0aa90602090a1005b606460405162461bcd60e51b815260206004820152602060248201527f4f7261636c652073686f756c646e2774206265207a65726f20616464726573736044820152fd5b34610316575f366003190112610316576020610e42611d3f565b604051908152f35b34610316575f3660031901126103165760205f80516020612a4e83398151915254604051908152f35b34610316575f3660031901126103165760205f805160206125ae83398151915254604051908152f35b34610316575f36600319011261031657610eb461209d565b5f8051602061288e83398151915280546001600160a01b031981169091555f906001600160a01b03165f8051602061286e8339815191528280a3005b34610316575f3660031901126103165760205f805160206126ae83398151915254604051908152f35b34610316575f3660031901126103165760205f805160206129ce83398151915254604051908152f35b3461031657604036600319011261031657600435600d8110156103165760243590610f6b611c24565b5f8161107157821561102a575f805160206129ce833981519152548311610fd457825f8051602061262e833981519152555b60405190610553577f12ef687a8e3257309ee19f0dd17e311b1e2d18c1d585528c4116af913b0c4af79260409282526020820152a1005b60405162461bcd60e51b815260206004820152603b60248201525f805160206126ce83398151915260448201527a206e6f74206265206c6172676572207468616e206d6178696d756d60281b6064820152608490fd5b60405162461bcd60e51b815260206004820152602c60248201525f805160206126ce83398151915260448201526b20626520706f73697469766560a01b6064820152608490fd5b505f6001820361110e57825f8051602061262e83398151915254116110a657825f805160206129ce833981519152555b610f9d565b60405162461bcd60e51b815260206004820152603a60248201527f6d6178696d756d20636f6d6d69746d656e74206475726174696f6e206d757374604482015279206e6f74206265206c6f776572207468616e206d696e696d756d60301b6064820152608490fd5b505f600282036111fb5782156111ac575f8051602061272e83398151915254831161114857825f8051602061258e83398151915255610f9d565b60405162461bcd60e51b815260206004820152604360248201525f80516020612a2e83398151915260448201527f656e74206d757374206e6f74206265206c6172676572207468616e206d6178696064820152626d756d60e81b608482015260a490fd5b60405162461bcd60e51b815260206004820152603460248201525f80516020612a2e833981519152604482015273656e74206d75737420626520706f73697469766560601b6064820152608490fd5b505f600382036112a557825f8051602061258e833981519152541161122f57825f8051602061272e83398151915255610f9d565b60405162461bcd60e51b815260206004820152604260248201527f6d6178696d756d206e756d626572206f662043557320696e20636f6d6d69746d60448201527f656e74206d757374206e6f74206265206c6f776572207468616e206d696e696d606482015261756d60f01b608482015260a490fd5b505f600482036112eb57825f80516020612a6e833981519152556112d75f8051602061264e8339815191525484612052565b5f8051602061270e83398151915255610f9d565b505f6005820361130a57825f805160206128ae83398151915255610f9d565b505f6006820361132957825f805160206126ae83398151915255610f9d565b505f6007820361134857825f8051602061280e83398151915255610f9d565b505f6008820361138957825f8051602061260e833981519152556110a15f8051602061264e833981519152545f805160206126ee8339815191525490611e5e565b505f60098203611423575f80516020612a0e8339815191525483116113bd57825f805160206127ce83398151915255610f9d565b60405162461bcd60e51b815260206004820152603860248201527f6d696e696d756d20726577617264207065722065706f6368206d757374206e6f60448201527774206265206c6172676572207468616e206d6178696d756d60401b6064820152608490fd5b505f600a82036114bc57825f805160206127ce833981519152541161145757825f80516020612a0e83398151915255610f9d565b60405162461bcd60e51b815260206004820152603760248201527f6d6178696d756d20726577617264207065722065706f6368206d757374206e6f60448201527674206265206c6f776572207468616e206d696e696d756d60481b6064820152608490fd5b505f600b8203611566575f8051602061274e8339815191525483116114f057825f8051602061284e83398151915255610f9d565b60405162461bcd60e51b815260206004820152604260248201527f6d696e696d756d206e756d626572206f662070726f6f6673207065722065706f60448201527f6368206d757374206e6f74206265206c6172676572207468616e206d6178696d606482015261756d60f01b608482015260a490fd5b505f600c82036105e757825f8051602061284e833981519152541161159a57825f8051602061274e83398151915255610f9d565b60405162461bcd60e51b815260206004820152604260248201527f6d6178696d756d206e756d626572206f662070726f6f6673207065722065706f60448201527f6368206d757374206e6f74206265206c6172676572207468616e206d696e696d606482015261756d60f01b608482015260a490fd5b34610316576020366003190112610316576004356001600160a01b03811681036103165760ff7f1f364d5cd815a7922b0808e606a82391642c337151b3addb3f98eaf82cfb172e541615801561166e575b6020906040519015158152f35b5060018060a01b03165f525f805160206129ae833981519152602052602060ff60405f205416611661565b34610316575f3660031901126103165760205f8051602061260e83398151915254604051908152f35b34610316575f3660031901126103165760205f8051602061264e83398151915254604051908152f35b34610316576020366003190112610316576020610e42600435611daa565b34610316575f3660031901126103165760205f805160206127ce83398151915254604051908152f35b34610316575f3660031901126103165760205f8051602061262e83398151915254604051908152f35b34610316575f3660031901126103165760205f8051602061270e83398151915254604051908152f35b34610316575f3660031901126103165760205f8051602061278e83398151915254604051908152f35b34610316575f3660031901126103165760205f8051602061292e83398151915254604051908152f35b34610316575f3660031901126103165760205f805160206128ee83398151915254604051908152f35b34610316576020366003190112610316576004356001600160a01b038116908190036103165761182d611c24565b805f525f8051602061294e83398151915260205260405f2060ff1981541690557f323f9f2471a499ed29474d77289b2083f21f72dc30c77a4bd96532b6ee3ad8885f80a2005b346103165760203660031901126103165760043561188f611c24565b5f8051602061268e833981519152545f805160206129ee83398151915255805f8051602061268e833981519152556118c5611d3f565b6001810180911161190d577f0b5731e9746c6761d5cc9e62a3f59221163bf9ea25d7eb047f33913153f23c97916020915f8051602061282e83398151915255604051908152a1005b634e487b7160e01b5f52601160045260245ffd5b34610316576020366003190112610316576020610e42600435611ce8565b34610316575f3660031901126103165760205f8051602061274e83398151915254604051908152f35b34610316575f3660031901126103165760205f80516020612a6e83398151915254604051908152f35b34610316575f366003190112610316576020610e42611ca7565b34610316575f3660031901126103165760205f805160206128ae83398151915254604051908152f35b34610316576020366003190112610316576004356001810180911161190d576119fc90611ce8565b5f19810190811161190d57610e426020916123e3565b34610316576020366003190112610316576004356001600160a01b038116908190036103165760207fab9a16269e54e8ae681de331f196f57a4b158e28d53818a27ff5e5698e29174991611a64611c24565b805f525f805160206129ae833981519152825260405f20600160ff19825416179055604051908152a1005b34610316575f3660031901126103165760205f805160206127ee83398151915254604051908152f35b34610316575f3660031901126103165760205f805160206125ee83398151915254604051908152f35b34610316575f3660031901126103165760205f8051602061296e83398151915254604051908152f35b34610316575f366003190112610316575f8051602061276e833981519152545f8051602061266e833981519152545f805160206128ce8339815191525490915f19820191821161190d57611b63611b6992604094611c11565b90611b84565b5f8051602061264e8339815191525482519182526020820152f35b9190820180921161190d57565b60408051919082016001600160401b03811183821017611bb057604052565b634e487b7160e01b5f52604160045260245ffd5b604051906101e082016001600160401b03811183821017611bb057604052565b6040519061010082016001600160401b03811183821017611bb057604052565b9190820391821161190d57565b8181029291811591840414171561190d57565b7fc8fcad8db84d3cc18b4c41d551ea0ee66dd599cde068d998e57d5e09332c1320546001600160a01b03163303611c5757565b60405162461bcd60e51b815260206004820152602260248201527f4c69624469616d6f6e643a204d75737420626520636f6e7472616374206f776e60448201526132b960f11b6064820152608490fd5b611caf611d3f565b5f8051602061282e833981519152541115611cd6575f805160206129ee8339815191525490565b5f8051602061268e8339815191525490565b5f80516020612a4e833981519152545f8051602061278e833981519152545f19830192831161190d57611d1e92611b6391611c11565b90565b8115611d2b570490565b634e487b7160e01b5f52601260045260245ffd5b611d6f611d5a5f80516020612a4e8339815191525442611c04565b5f8051602061278e8339815191525490611d21565b6001018060011161190d5790565b8054821015611d96575f5260205f209060011b01905f90565b634e487b7160e01b5f52603260045260245ffd5b5f8051602061256e833981519152545f91905f19810190811161190d575f925b81811115611dd85750505090565b611de28282611b84565b60011c93611dfd855f8051602061256e833981519152611d7d565b509182548086115f14611e325750505060010154926001810180911115611dca57634e487b7160e01b5f52601160045260245ffd5b91959093509190841015611e5257505f19810190811161190d5790611dca565b60010154949350505050565b611e66611d3f565b5f8051602061256e83398151915254831561204c575f1981019281841161190d57611e9e845f8051602061256e833981519152611d7d565b50805484149590861561203157506002831061202957600119830183811161190d57670de0b6b3a764000091611ef46001611ee9611ef9945f8051602061256e833981519152611d7d565b500154945b85611c11565b611d21565b045f8051602061260e83398151915254105f14612006576289544081029080820462895440149015171561190d57629896809004935b5f805160206127ce833981519152545f80516020612a0e8339815191525490808710611ffe575b50808611611ff6575b5015611f85575050611f806001915f8051602061256e833981519152611d7d565b500155565b909150611f90611b91565b91825260208201928352600160401b811015611bb057806001611fd092015f8051602061256e833981519152555f8051602061256e833981519152611d7d565b929092611fe35760019151835551910155565b634e487b7160e01b5f525f60045260245ffd5b94505f611f5f565b95505f611f56565b62a7d8c081029080820462a7d8c0149015171561190d5762989680900493611f2f565b505050505050565b670de0b6b3a764000091611ef46001611ef993015494611eee565b50505050565b906298968082029180830462989680149015171561190d5761207391611d21565b670de0b6b3a7640000810290808204670de0b6b3a7640000149015171561190d5762989680900490565b5f8051602061288e833981519152546001600160a01b031633036120bd57565b63118cdaa760e01b5f523360045260245ffd5b8054821015611d96575f5260205f2001905f90565b80549190600160401b831015611bb05782612108916001612120950181556120d0565b90919082549060031b91821b915f19901b1916179055565b565b5f8051602061276e833981519152905f805160206128ce833981519152545f8051602061264e83398151915254908115611d2b5781655af3107a4000048315611d2b5783655af3107a4000049482156123cf57545f8051602061266e833981519152545f1984019384119391908461190d57611ef46121a86121ce93611b638685611c11565b6121c95f8051602061266e833981519152546121c48142611d21565b611c11565b611c04565b9283156123475760018411612295575b5050505050805f8051602061264e833981519152555f805160206128ce833981519152545f19810190811161190d5761224a9161222b612237925f805160206128ce8339815191526120d0565b90549060031b1c611b84565b5f805160206128ce8339815191526120e5565b5f8051602061290e833981519152545f19810190811161190d576121209161222b612282925f8051602061290e8339815191526120d0565b5f8051602061290e8339815191526120e5565b969194929590939661190d576122d66122bb855f805160206128ce8339815191526120d0565b90549060031b1c945f8051602061290e8339815191526120d0565b90549060031b1c925f965f19810190811197885b61190d578181101561233357600181019081811161190d5761232c612282612326846123208f8d611b6360019961223793611c11565b8c611c11565b89611b84565b01886122ea565b505094509450945050505f808080806121de565b50926121089250906121c96123be959661239361237c6123aa956121c98b61222b8b5f805160206128ce8339815191526120d0565b612108885f805160206128ce8339815191526120d0565b61222b865f8051602061290e8339815191526120d0565b915f8051602061290e8339815191526120d0565b5f8051602061264e83398151915255565b634e487b7160e01b5f52600160045260245ffd5b5f8051602061276e83398151915254908082116124e55761241c9161240791611c04565b5f8051602061266e8339815191525490611d21565b5f805160206128ce833981519152548110156124d25780156124885761244f815f805160206128ce8339815191526120d0565b90549060031b1c5f19820191821161190d5761247b611d1e925f805160206128ce8339815191526120d0565b90549060031b1c90611c04565b505f805160206128ce8339815191525415611d96575f805160206128ce8339815191525f527fbe06bae5d39cb7e0efc053b565594c50550d26af23bc11ab40fff03218cbf97c5490565b505f8051602061264e8339815191525490565b60405162461bcd60e51b815260206004820152605460248201527f4c69624f7261636c6550726963652e6765745072696365417454696d6573746160448201527f6d703a2074696d657374616d70206973206c6f776572207468616e2066697273606482015273074207265636f726465642074696d657374616d760641b608482015260a490fdfe8984d2d0d7a9f2f70f22692c7c8344aa50cbed8c00a03c924457a31793ee8fe68984d2d0d7a9f2f70f22692c7c8344aa50cbed8c00a03c924457a31793ee8fd560ac4d56f7e69877e4b95a6e91f4b3612278b580a93ea7637885a480e01503182aa6b2026f27b721aa31227fdbd84cf04c442933bec8e7f3be70f27c62fe42a08984d2d0d7a9f2f70f22692c7c8344aa50cbed8c00a03c924457a31793ee8fe48984d2d0d7a9f2f70f22692c7c8344aa50cbed8c00a03c924457a31793ee8fe18984d2d0d7a9f2f70f22692c7c8344aa50cbed8c00a03c924457a31793ee8fd362e26dda6281f8a7bde8d0de6ef3dc4300cca63258b4641529b5bae7dc08902a62e26dda6281f8a7bde8d0de6ef3dc4300cca63258b4641529b5bae7dc0890278984d2d0d7a9f2f70f22692c7c8344aa50cbed8c00a03c924457a31793ee8fdf8984d2d0d7a9f2f70f22692c7c8344aa50cbed8c00a03c924457a31793ee8fda6d696e696d756d20636f6d6d69746d656e74206475726174696f6e206d7573748984d2d0d7a9f2f70f22692c7c8344aa50cbed8c00a03c924457a31793ee8fd28984d2d0d7a9f2f70f22692c7c8344aa50cbed8c00a03c924457a31793ee8fd88984d2d0d7a9f2f70f22692c7c8344aa50cbed8c00a03c924457a31793ee8fd68984d2d0d7a9f2f70f22692c7c8344aa50cbed8c00a03c924457a31793ee8fdd62e26dda6281f8a7bde8d0de6ef3dc4300cca63258b4641529b5bae7dc0890267d4f8ec43464738265ced6b7ed5f90007e9b7c34318bdd82d9249328b50bd3588984d2d0d7a9f2f70f22692c7c8344aa50cbed8c00a03c924457a31793ee8fe58984d2d0d7a9f2f70f22692c7c8344aa50cbed8c00a03c924457a31793ee8fe260ac4d56f7e69877e4b95a6e91f4b3612278b580a93ea7637885a480e01503198984d2d0d7a9f2f70f22692c7c8344aa50cbed8c00a03c924457a31793ee8fdb8984d2d0d7a9f2f70f22692c7c8344aa50cbed8c00a03c924457a31793ee8fe08984d2d0d7a9f2f70f22692c7c8344aa50cbed8c00a03c924457a31793ee8fdc8be0079c531659141344cd1fd0a4f28419497f9722a3daafe3b4186f6b6457e0b13d3e7783d509d8d65d3e1e62ec0b103a07e0cbfa1ee74ae19127f297dddfcc8984d2d0d7a9f2f70f22692c7c8344aa50cbed8c00a03c924457a31793ee8fd962e26dda6281f8a7bde8d0de6ef3dc4300cca63258b4641529b5bae7dc08902860ac4d56f7e69877e4b95a6e91f4b3612278b580a93ea7637885a480e015031c62e26dda6281f8a7bde8d0de6ef3dc4300cca63258b4641529b5bae7dc08902960ac4d56f7e69877e4b95a6e91f4b3612278b580a93ea7637885a480e015031a60ac4d56f7e69877e4b95a6e91f4b3612278b580a93ea7637885a480e015031d60ac4d56f7e69877e4b95a6e91f4b3612278b580a93ea7637885a480e015031b8984d2d0d7a9f2f70f22692c7c8344aa50cbed8c00a03c924457a31793ee8fe71f364d5cd815a7922b0808e606a82391642c337151b3addb3f98eaf82cfb172f8984d2d0d7a9f2f70f22692c7c8344aa50cbed8c00a03c924457a31793ee8fd48984d2d0d7a9f2f70f22692c7c8344aa50cbed8c00a03c924457a31793ee8fde8984d2d0d7a9f2f70f22692c7c8344aa50cbed8c00a03c924457a31793ee8fe36d696e696d756d206e756d626572206f662043557320696e20636f6d6d69746d7d4f8ec43464738265ced6b7ed5f90007e9b7c34318bdd82d9249328b50bd3578984d2d0d7a9f2f70f22692c7c8344aa50cbed8c00a03c924457a31793ee8fd7a264697066735822122085622adb1c5ec7e2fcbd9dd257bfb885f21b8f9c515cf91bea38d86d18f8794964736f6c634300081a0033","linkReferences":{}},"methodIdentifiers":{"activeUnitCount()":"7e815381","addPaymentTokenToWhitelist(address)":"f5c741a7","currentEpoch()":"76671808","dealImpl()":"d6a5a04b","difficulty()":"19cae462","epochDuration()":"4ff0876a","epochTimestamp(uint256)":"32da089e","fltCollateralPerUnit()":"4ff3dfd6","fltPrice()":"5ff24491","fltPriceAtEpoch(uint256)":"12d69357","getAllConstants()":"960dd223","getRewardPool(uint256)":"5cfa91f4","grantAccess(address)":"0ae5e739","initTimestamp()":"7358c57a","isApproved(address)":"673448dd","isPaymentTokenAllowed(address)":"8de1de71","lastPriceSetting()":"01c869b6","maxCUPerCommitment()":"c2bae292","maxDuration()":"6db5c8fd","maxFailedRatio()":"a376fb91","maxProofsPerEpoch()":"280c5e51","maxProtocolVersion()":"03eed73e","maxRewardPerEpoch()":"800fe125","maxUnitCountPerProvider()":"441407ea","minCUPerCommitment()":"9ef90176","minDealDepositedEpochs()":"72ea4f23","minDealRematchingEpochs()":"069f7a64","minDuration()":"56715761","minProofsPerEpoch()":"e79c6270","minProtocolVersion()":"4469ac9b","minRewardPerEpoch()":"5c11f4d4","oracle()":"7dc0d1d0","owner()":"8da5cb5b","precision()":"d3b5dc3b","randomXProxy()":"919f49f9","removePaymentTokenFromWhitelist(address)":"4348bb31","renounceOwnership()":"715018a6","revokeAccess(address)":"85e68531","setCapacityConstant(uint8,uint256)":"6daecfbe","setConstant(uint8,uint256)":"d6f563d8","setDealImpl(address)":"89e4a0ba","setDifficulty(bytes32)":"3932dbf5","setFLTPrice(uint256)":"e2175090","setOracle(address)":"7adbf973","slashingRate()":"13baa069","transferOwnership(address)":"f2fde38b","usdCollateralPerUnit()":"22cafa3a","usdTargetRevenuePerEpoch()":"66aaf7b9","vestingPeriodCount()":"dad01895","vestingPeriodDuration()":"0640d941","withdrawEpochsAfterFailed()":"6f167977"},"storageLayout":{"storage":[],"types":{}},"devdoc":{"version":1,"kind":"dev","methods":{"activeUnitCount()":{"details":"Returns the active compute unit count"},"addPaymentTokenToWhitelist(address)":{"details":"Adds payment token address to whitelist"},"currentEpoch()":{"details":"This function mirrored in:- ts-client/src/dealMatcherClient/dealMatcherClient.ts- subgraph/src/contracts.ts"},"difficulty()":{"details":"Returns the difficulty for randomX"},"epochDuration()":{"details":"Returns epoch duration","returns":{"_0":"epochDuration in seconds"}},"epochTimestamp(uint256)":{"details":"Returns timestamp of the given epoch","returns":{"_0":"start epoch timestamp in seconds"}},"fltCollateralPerUnit()":{"details":"Returns the flt collateral per compute unit for creating CC"},"fltPrice()":{"details":"Returns the last set flt price in usd/flt"},"fltPriceAtEpoch(uint256)":{"details":"Returns the flt price at the end of the epoch previous to given one.It means that this function will always return the same result for the same arguments.Epoch must be less or equal than current epoch.","params":{"epoch":"- epoch where"},"returns":{"_0":"price in flt/usd"}},"getAllConstants()":{"details":"Returns all chain constants","returns":{"_0":"all chain constants"}},"getRewardPool(uint256)":{"details":"Returns the reward pool per epoch"},"initTimestamp()":{"details":"Returns epoch init timestamp","returns":{"_0":"initTimestamp in seconds"}},"isPaymentTokenAllowed(address)":{"details":"Checks if address is allowed to use as payment token in deals/offers","returns":{"_0":"true if address is allowed"}},"lastPriceSetting()":{"details":"Gets last set flt price in usd/flt and timestamp of the last stored price"},"maxCUPerCommitment()":{"details":"Returns the max number of CU in CC"},"maxDuration()":{"details":"Returns the max duration of CC in Epochs"},"maxFailedRatio()":{"details":"Returns the max failed ratio for CC"},"maxProofsPerEpoch()":{"details":"Returns the max randomX proofs per epoch"},"maxProtocolVersion()":{"details":"Returns max protocol version which can be specified in offers and deals","returns":{"_0":"max protocol version"}},"maxRewardPerEpoch()":{"details":"Returns the max reward pool per epoch"},"maxUnitCountPerProvider()":{"details":"Returns max unit count allowed for single provider to have in all offers combined","returns":{"_0":"max unit count per provider"}},"minCUPerCommitment()":{"details":"Returns the min number of CU in CC"},"minDealDepositedEpochs()":{"details":"Returns min deposited Epochs constant for new deals","returns":{"_0":"min deposited Epochs for new deals"}},"minDealRematchingEpochs()":{"details":"Returns min rematching Epochs constant for all deals","returns":{"_0":"min rematching Epochs for all deals"}},"minDuration()":{"details":"Returns the min duration of CC in Epochs"},"minProofsPerEpoch()":{"details":"Returns the min required randomX proofs per epoch for the 1 CU.If lower than this - CU is failed and CC slashed."},"minProtocolVersion()":{"details":"Returns min protocol version which can be specified in offers and deals","returns":{"_0":"min protocol version"}},"minRewardPerEpoch()":{"details":"Returns the min reward pool per epoch"},"oracle()":{"details":"Returns the oracle address"},"owner()":{"details":"Returns the address of the current owner."},"precision()":{"details":"Returns precision for decimal values (USD, percentage)"},"randomXProxy()":{"details":"Returns the randomX proxy address for verification of randomX proofs"},"removePaymentTokenFromWhitelist(address)":{"details":"Removes payment token address from whitelist"},"renounceOwnership()":{"details":"Leaves the contract without owner. It will not be possible to call `onlyOwner` functions. Can only be called by the current owner. NOTE: Renouncing ownership will leave the contract without an owner, thereby disabling any functionality that is only available to the owner."},"setCapacityConstant(uint8,uint256)":{"details":"Sets a constant with a uint256 value"},"setConstant(uint8,uint256)":{"details":"Sets constant with uint256 value","params":{"constantType":"Constant type","v":"New uint256 value"}},"setDifficulty(bytes32)":{"details":"Sets the randomX difficulty"},"setFLTPrice(uint256)":{"details":"Sets the flt price"},"setOracle(address)":{"details":"Sets a new oracle"},"slashingRate()":{"details":"Returns the slashing rate for failed CU"},"transferOwnership(address)":{"details":"Transfers ownership of the contract to a new account (`newOwner`). Can only be called by the current owner."},"usdCollateralPerUnit()":{"details":"Returns the usd collateral per compute for creating CC"},"usdTargetRevenuePerEpoch()":{"details":"Returns the target revenue in usd value per epoch"},"vestingPeriodCount()":{"details":"Returns the total vesting periods"},"vestingPeriodDuration()":{"details":"Returns the vesting duration for one period in Epochs"},"withdrawEpochsAfterFailed()":{"details":"Returns the delay for withdraw collateral in Epochs after failed CC"}},"events":{"CapacityConstantUpdated(uint8,uint256)":{"details":"Emitted when a constant with a uint256 value is updated","params":{"constantType":"The type of the constant","newValue":"The new value of the constant"}},"ConstantUpdated(uint8,uint256)":{"details":"Emitted when a constant with uint256 value is updated","params":{"constantType":"Constant type","newValue":"New uint256 value"}},"DifficultyUpdated(bytes32)":{"details":"Emitted when the difficulty is updated","params":{"difficulty":"The new value of the difficulty"}},"FLTPriceUpdated(uint256)":{"details":"Emitted when the FLT price is updated","params":{"newValue":"The new value of the FLT price"}},"Initialized(uint64)":{"details":"Triggered when the contract has been initialized or reinitialized."},"OracleSet(address)":{"details":"Emitted when new oracle address is set","params":{"oracle":"The oracle address"}}},"errors":{"InvalidInitialization()":[{"details":"The contract is already initialized."}],"NotInitializing()":[{"details":"The contract is not initializing."}],"OwnableInvalidOwner(address)":[{"details":"The owner is not a valid owner account. (eg. `address(0)`)"}],"OwnableUnauthorizedAccount(address)":[{"details":"The caller account is not authorized to perform an operation."}]}},"id":102}