{"abi":[{"type":"function","name":"activeUnitCount","inputs":[],"outputs":[{"name":"","type":"uint256","internalType":"uint256"}],"stateMutability":"view"},{"type":"function","name":"addPaymentTokenToWhitelist","inputs":[{"name":"paymentToken","type":"address","internalType":"address"}],"outputs":[],"stateMutability":"nonpayable"},{"type":"function","name":"calculateRewardPool","inputs":[],"outputs":[],"stateMutability":"nonpayable"},{"type":"function","name":"currentEpoch","inputs":[],"outputs":[{"name":"","type":"uint256","internalType":"uint256"}],"stateMutability":"view"},{"type":"function","name":"dealImpl","inputs":[],"outputs":[{"name":"","type":"address","internalType":"contract IDeal"}],"stateMutability":"view"},{"type":"function","name":"difficulty","inputs":[],"outputs":[{"name":"","type":"bytes32","internalType":"bytes32"}],"stateMutability":"view"},{"type":"function","name":"epochDuration","inputs":[],"outputs":[{"name":"","type":"uint256","internalType":"uint256"}],"stateMutability":"view"},{"type":"function","name":"epochTimestamp","inputs":[{"name":"epoch","type":"uint256","internalType":"uint256"}],"outputs":[{"name":"","type":"uint256","internalType":"uint256"}],"stateMutability":"view"},{"type":"function","name":"fltCollateralPerUnit","inputs":[],"outputs":[{"name":"","type":"uint256","internalType":"uint256"}],"stateMutability":"view"},{"type":"function","name":"fltPrice","inputs":[],"outputs":[{"name":"","type":"uint256","internalType":"uint256"}],"stateMutability":"view"},{"type":"function","name":"fltPriceAtEpoch","inputs":[{"name":"epoch","type":"uint256","internalType":"uint256"}],"outputs":[{"name":"","type":"uint256","internalType":"uint256"}],"stateMutability":"view"},{"type":"function","name":"getRewardPool","inputs":[{"name":"epoch","type":"uint256","internalType":"uint256"}],"outputs":[{"name":"","type":"uint256","internalType":"uint256"}],"stateMutability":"view"},{"type":"function","name":"grantAccess","inputs":[{"name":"account","type":"address","internalType":"address"}],"outputs":[],"stateMutability":"nonpayable"},{"type":"function","name":"initTimestamp","inputs":[],"outputs":[{"name":"","type":"uint256","internalType":"uint256"}],"stateMutability":"view"},{"type":"function","name":"isApproved","inputs":[{"name":"account","type":"address","internalType":"address"}],"outputs":[{"name":"","type":"bool","internalType":"bool"}],"stateMutability":"view"},{"type":"function","name":"isPaymentTokenAllowed","inputs":[{"name":"paymentToken","type":"address","internalType":"address"}],"outputs":[{"name":"","type":"bool","internalType":"bool"}],"stateMutability":"view"},{"type":"function","name":"maxCUPerCommitment","inputs":[],"outputs":[{"name":"","type":"uint256","internalType":"uint256"}],"stateMutability":"view"},{"type":"function","name":"maxDuration","inputs":[],"outputs":[{"name":"","type":"uint256","internalType":"uint256"}],"stateMutability":"view"},{"type":"function","name":"maxFailedRatio","inputs":[],"outputs":[{"name":"","type":"uint256","internalType":"uint256"}],"stateMutability":"view"},{"type":"function","name":"maxProofsPerEpoch","inputs":[],"outputs":[{"name":"","type":"uint256","internalType":"uint256"}],"stateMutability":"view"},{"type":"function","name":"maxProtocolVersion","inputs":[],"outputs":[{"name":"","type":"uint256","internalType":"uint256"}],"stateMutability":"view"},{"type":"function","name":"maxRewardPerEpoch","inputs":[],"outputs":[{"name":"","type":"uint256","internalType":"uint256"}],"stateMutability":"view"},{"type":"function","name":"maxUnitCountPerProvider","inputs":[],"outputs":[{"name":"","type":"uint256","internalType":"uint256"}],"stateMutability":"view"},{"type":"function","name":"meanFltPrice","inputs":[{"name":"fromEpoch","type":"uint256","internalType":"uint256"},{"name":"toEpoch","type":"uint256","internalType":"uint256"}],"outputs":[{"name":"","type":"uint256","internalType":"uint256"}],"stateMutability":"view"},{"type":"function","name":"minCUPerCommitment","inputs":[],"outputs":[{"name":"","type":"uint256","internalType":"uint256"}],"stateMutability":"view"},{"type":"function","name":"minDealDepositedEpochs","inputs":[],"outputs":[{"name":"","type":"uint256","internalType":"uint256"}],"stateMutability":"view"},{"type":"function","name":"minDealRematchingEpochs","inputs":[],"outputs":[{"name":"","type":"uint256","internalType":"uint256"}],"stateMutability":"view"},{"type":"function","name":"minDuration","inputs":[],"outputs":[{"name":"","type":"uint256","internalType":"uint256"}],"stateMutability":"view"},{"type":"function","name":"minProofsPerEpoch","inputs":[],"outputs":[{"name":"","type":"uint256","internalType":"uint256"}],"stateMutability":"view"},{"type":"function","name":"minProtocolVersion","inputs":[],"outputs":[{"name":"","type":"uint256","internalType":"uint256"}],"stateMutability":"view"},{"type":"function","name":"minRewardPerEpoch","inputs":[],"outputs":[{"name":"","type":"uint256","internalType":"uint256"}],"stateMutability":"view"},{"type":"function","name":"oracle","inputs":[],"outputs":[{"name":"","type":"address","internalType":"address"}],"stateMutability":"view"},{"type":"function","name":"owner","inputs":[],"outputs":[{"name":"","type":"address","internalType":"address"}],"stateMutability":"view"},{"type":"function","name":"precision","inputs":[],"outputs":[{"name":"","type":"uint256","internalType":"uint256"}],"stateMutability":"pure"},{"type":"function","name":"randomXProxy","inputs":[],"outputs":[{"name":"","type":"address","internalType":"address"}],"stateMutability":"view"},{"type":"function","name":"removePaymentTokenFromWhitelist","inputs":[{"name":"paymentToken","type":"address","internalType":"address"}],"outputs":[],"stateMutability":"nonpayable"},{"type":"function","name":"renounceOwnership","inputs":[],"outputs":[],"stateMutability":"nonpayable"},{"type":"function","name":"revokeAccess","inputs":[{"name":"account","type":"address","internalType":"address"}],"outputs":[],"stateMutability":"nonpayable"},{"type":"function","name":"setCapacityConstant","inputs":[{"name":"constantType","type":"uint8","internalType":"enum ICapacityConst.CapacityConstantType"},{"name":"v","type":"uint256","internalType":"uint256"}],"outputs":[],"stateMutability":"nonpayable"},{"type":"function","name":"setConstant","inputs":[{"name":"constantType","type":"uint8","internalType":"enum IGlobalConst.ConstantType"},{"name":"v","type":"uint256","internalType":"uint256"}],"outputs":[],"stateMutability":"nonpayable"},{"type":"function","name":"setDealImpl","inputs":[{"name":"dealImpl_","type":"address","internalType":"contract IDeal"}],"outputs":[],"stateMutability":"nonpayable"},{"type":"function","name":"setDifficulty","inputs":[{"name":"difficulty_","type":"bytes32","internalType":"bytes32"}],"outputs":[],"stateMutability":"nonpayable"},{"type":"function","name":"setFLTPrice","inputs":[{"name":"fltPrice_","type":"uint256","internalType":"uint256"}],"outputs":[],"stateMutability":"nonpayable"},{"type":"function","name":"setOracle","inputs":[{"name":"oracle_","type":"address","internalType":"address"}],"outputs":[],"stateMutability":"nonpayable"},{"type":"function","name":"slashingRate","inputs":[],"outputs":[{"name":"","type":"uint256","internalType":"uint256"}],"stateMutability":"view"},{"type":"function","name":"transferOwnership","inputs":[{"name":"newOwner","type":"address","internalType":"address"}],"outputs":[],"stateMutability":"nonpayable"},{"type":"function","name":"usdCollateralPerUnit","inputs":[],"outputs":[{"name":"","type":"uint256","internalType":"uint256"}],"stateMutability":"view"},{"type":"function","name":"usdTargetRevenuePerEpoch","inputs":[],"outputs":[{"name":"","type":"uint256","internalType":"uint256"}],"stateMutability":"view"},{"type":"function","name":"vestingPeriodCount","inputs":[],"outputs":[{"name":"","type":"uint256","internalType":"uint256"}],"stateMutability":"view"},{"type":"function","name":"vestingPeriodDuration","inputs":[],"outputs":[{"name":"","type":"uint256","internalType":"uint256"}],"stateMutability":"view"},{"type":"function","name":"withdrawEpochsAfterFailed","inputs":[],"outputs":[{"name":"","type":"uint256","internalType":"uint256"}],"stateMutability":"view"},{"type":"event","name":"CapacityConstantUpdated","inputs":[{"name":"constantType","type":"uint8","indexed":false,"internalType":"enum ICapacityConst.CapacityConstantType"},{"name":"newValue","type":"uint256","indexed":false,"internalType":"uint256"}],"anonymous":false},{"type":"event","name":"ConstantUpdated","inputs":[{"name":"constantType","type":"uint8","indexed":false,"internalType":"enum IGlobalConst.ConstantType"},{"name":"newValue","type":"uint256","indexed":false,"internalType":"uint256"}],"anonymous":false},{"type":"event","name":"DealImplSet","inputs":[{"name":"dealImpl","type":"address","indexed":false,"internalType":"contract IDeal"}],"anonymous":false},{"type":"event","name":"DifficultyUpdated","inputs":[{"name":"difficulty","type":"bytes32","indexed":false,"internalType":"bytes32"}],"anonymous":false},{"type":"event","name":"FLTPriceUpdated","inputs":[{"name":"newValue","type":"uint256","indexed":false,"internalType":"uint256"}],"anonymous":false},{"type":"event","name":"Initialized","inputs":[{"name":"version","type":"uint64","indexed":false,"internalType":"uint64"}],"anonymous":false},{"type":"event","name":"OracleSet","inputs":[{"name":"oracle","type":"address","indexed":false,"internalType":"address"}],"anonymous":false},{"type":"event","name":"OwnershipTransferred","inputs":[{"name":"previousOwner","type":"address","indexed":true,"internalType":"address"},{"name":"newOwner","type":"address","indexed":true,"internalType":"address"}],"anonymous":false},{"type":"event","name":"PaymentTokenAddedToWhitelist","inputs":[{"name":"paymentToken","type":"address","indexed":true,"internalType":"address"}],"anonymous":false},{"type":"event","name":"PaymentTokenRemovedFromWhitelist","inputs":[{"name":"paymentToken","type":"address","indexed":true,"internalType":"address"}],"anonymous":false},{"type":"event","name":"WhitelistAccessGranted","inputs":[{"name":"account","type":"address","indexed":false,"internalType":"address"}],"anonymous":false},{"type":"event","name":"WhitelistAccessRevoked","inputs":[{"name":"account","type":"address","indexed":false,"internalType":"address"}],"anonymous":false},{"type":"error","name":"InvalidInitialization","inputs":[]},{"type":"error","name":"NotInitializing","inputs":[]},{"type":"error","name":"OwnableInvalidOwner","inputs":[{"name":"owner","type":"address","internalType":"address"}]},{"type":"error","name":"OwnableUnauthorizedAccount","inputs":[{"name":"account","type":"address","internalType":"address"}]}],"bytecode":{"object":"0x60808060405234601557612869908161001a8239f35b5f80fdfe60806040526004361015610011575f80fd5b5f3560e01c806303eed73e146116dc5780630640d941146116a0578063069f7a64146116775780630ae5e739146115fa57806312d69357146115bc57806313baa0691461159357806319cae4621461157957806322cafa3a14611550578063280c5e511461152757806332da089e146115095780633932dbf51461146f5780634348bb31146113fb578063441407ea146113d25780634469ac9b146113a95780634828bdf9146113495780634ff0876a146113205780634ff3dfd6146112f757806356715761146112ce5780635c11f4d4146112a55780635cfa91f4146112875780635ff244911461125e57806366aaf7b914611235578063673448dd146111ac5780636daecfbe14610bd35780636db5c8fd14610baa5780636f16797714610b81578063715018a614610b2d57806372ea4f2314610b045780637358c57a14610adb5780637667180814610ab95780637adbf973146109f55780637dc0d1d0146109c15780637e81538114610998578063800fe1251461096f57806385e68531146108f557806389e4a0ba1461081d5780638da5cb5b146107e95780638de1de7114610796578063919f49f91461074f5780639ef9017614610726578063a376fb91146106fd578063b49b0758146106c4578063c2bae2921461069b578063d3b5dc3b1461067e578063d6a5a04b1461064a578063d6f563d8146104ef578063dad01895146104b3578063e2175090146103c6578063e79c62701461039d578063f2fde38b1461031a5763f5c741a71461024a575f80fd5b34610316576020366003190112610316576004356001600160a01b0381169081900361031657610278611712565b80156102c757805f525f805160206126d483398151915260205260405f20600160ff198254161790557f972ddfd1048d93d29628766f1d4054287790c95ca089d448c7526eeeec18ed735f80a2005b60405162461bcd60e51b815260206004820152602160248201527f5a65726f20746f6b656e2061646472657373206973206e6f7420616c6c6f77656044820152601960fa1b6064820152608490fd5b5f80fd5b34610316576020366003190112610316576004356001600160a01b0381169081900361031657610348611bc7565b801561038a575f8051602061261483398151915280546001600160a01b0319811683179091556001600160a01b03165f805160206125f48339815191525f80a3005b631e4fbdf760e01b5f525f60045260245ffd5b34610316575f3660031901126103165760205f805160206125d483398151915254604051908152f35b34610316576020366003190112610316575f8051602061271483398151915254600435906001600160a01b0316330361046e576020816104267fd1deff9e525a11d14a1263bcc0b80d6863292470cc5c6e5c433dfdeaa7ef0e2d93611c4c565b61043e5f805160206124948339815191525482611972565b610456815f8051602061281483398151915254611b7c565b5f805160206124b483398151915255604051908152a1005b60405162461bcd60e51b815260206004820152601d60248201527f4f6e6c79206f7261636c652063616e2073657420464c542070726963650000006044820152606490fd5b34610316575f3660031901126103165760207f8984d2d0d7a9f2f70f22692c7c8344aa50cbed8c00a03c924457a31793ee8fe554604051908152f35b346103165760403660031901126103165760043560058110156103165760243590610518611712565b5f825f805160206123748339815191528361057a57555b60405190610566577f201e1b27d7e31716378e28dd51ab57b07c4387abf9d578358af3b12737872f0e9260409282526020820152a1005b634e487b7160e01b5f52602160045260245ffd5b5050505f600182145f1461059d57825f805160206125748339815191525561052f565b505f600282036105bc57825f805160206126b48339815191525561052f565b505f600382036105db57825f805160206126f48339815191525561052f565b505f600482036105fa57825f805160206126748339815191525561052f565b60405162461bcd60e51b815260206004820152602260248201527f476c6f62616c436f6e73743a20756e6b6e6f776e20636f6e7374616e74207479604482015261706560f01b6064820152608490fd5b34610316575f366003190112610316575f80516020612394833981519152546040516001600160a01b039091168152602090f35b34610316575f366003190112610316576020604051629896808152f35b34610316575f3660031901126103165760205f805160206124d483398151915254604051908152f35b34610316575f366003190112610316576106fb5f805160206123f4833981519152545f805160206124948339815191525490611972565b005b34610316575f3660031901126103165760205f8051602061259483398151915254604051908152f35b34610316575f3660031901126103165760205f8051602061235483398151915254604051908152f35b34610316575f366003190112610316577f8984d2d0d7a9f2f70f22692c7c8344aa50cbed8c00a03c924457a31793ee8fd1546040516001600160a01b039091168152602090f35b34610316576020366003190112610316576004356001600160a01b03811681036103165760018060a01b03165f525f805160206126d4833981519152602052602060ff60405f2054166040519015158152f35b34610316575f366003190112610316575f80516020612614833981519152546040516001600160a01b039091168152602090f35b34610316576020366003190112610316576004356001600160a01b038116908190036103165761084b611712565b803b1561089e575f8051602061239483398151915280546001600160a01b031916821790556040519081527f7af5c74f6888b661f9fb5dd1005c495f8e7d547682930c3dd1697dad117f69fc90602090a1005b60405162461bcd60e51b815260206004820152602960248201527f4e6577206465616c20696d706c656d656e746174696f6e206973206e6f7420616044820152680818dbdb9d1c9858dd60ba1b6064820152608490fd5b34610316576020366003190112610316576004356001600160a01b038116908190036103165760207fbf16401515c3259ef6fd204d106ff51a2a7185ecd4e3ed51d42612a218fc8c7791610947611712565b805f525f80516020612754833981519152825260405f2060ff198154169055604051908152a1005b34610316575f3660031901126103165760205f805160206127b483398151915254604051908152f35b34610316575f3660031901126103165760205f8051602061249483398151915254604051908152f35b34610316575f366003190112610316575f80516020612714833981519152546040516001600160a01b039091168152602090f35b34610316576020366003190112610316576004356001600160a01b0381169081900361031657610a23611712565b8015610a75575f8051602061271483398151915280546001600160a01b031916821790556040519081527f3f32684a32a11dabdbb8c0177de80aa3ae36a004d75210335b49e544e48cd0aa90602090a1005b606460405162461bcd60e51b815260206004820152602060248201527f4f7261636c652073686f756c646e2774206265207a65726f20616464726573736044820152fd5b34610316575f366003190112610316576020610ad3611853565b604051908152f35b34610316575f3660031901126103165760205f805160206127f483398151915254604051908152f35b34610316575f3660031901126103165760205f8051602061237483398151915254604051908152f35b34610316575f36600319011261031657610b45611bc7565b5f8051602061261483398151915280546001600160a01b031981169091555f906001600160a01b03165f805160206125f48339815191528280a3005b34610316575f3660031901126103165760205f8051602061245483398151915254604051908152f35b34610316575f3660031901126103165760205f8051602061277483398151915254604051908152f35b3461031657604036600319011261031657600435600d8110156103165760243590610bfc611712565b5f81610d02578215610cbb575f80516020612774833981519152548311610c6557825f805160206123d4833981519152555b60405190610566577f12ef687a8e3257309ee19f0dd17e311b1e2d18c1d585528c4116af913b0c4af79260409282526020820152a1005b60405162461bcd60e51b815260206004820152603b60248201525f8051602061247483398151915260448201527a206e6f74206265206c6172676572207468616e206d6178696d756d60281b6064820152608490fd5b60405162461bcd60e51b815260206004820152602c60248201525f8051602061247483398151915260448201526b20626520706f73697469766560a01b6064820152608490fd5b505f60018203610d9f57825f805160206123d48339815191525411610d3757825f80516020612774833981519152555b610c2e565b60405162461bcd60e51b815260206004820152603a60248201527f6d6178696d756d20636f6d6d69746d656e74206475726174696f6e206d757374604482015279206e6f74206265206c6f776572207468616e206d696e696d756d60301b6064820152608490fd5b505f60028203610e8c578215610e3d575f805160206124d4833981519152548311610dd957825f8051602061235483398151915255610c2e565b60405162461bcd60e51b815260206004820152604360248201525f805160206127d483398151915260448201527f656e74206d757374206e6f74206265206c6172676572207468616e206d6178696064820152626d756d60e81b608482015260a490fd5b60405162461bcd60e51b815260206004820152603460248201525f805160206127d4833981519152604482015273656e74206d75737420626520706f73697469766560601b6064820152608490fd5b505f60038203610f3657825f805160206123548339815191525411610ec057825f805160206124d483398151915255610c2e565b60405162461bcd60e51b815260206004820152604260248201527f6d6178696d756d206e756d626572206f662043557320696e20636f6d6d69746d60448201527f656e74206d757374206e6f74206265206c6f776572207468616e206d696e696d606482015261756d60f01b608482015260a490fd5b505f60048203610f7c57825f8051602061281483398151915255610f685f805160206123f48339815191525484611b7c565b5f805160206124b483398151915255610c2e565b505f60058203610f9b57825f8051602061263483398151915255610c2e565b505f60068203610fba57825f8051602061245483398151915255610c2e565b505f60078203610fd957825f8051602061259483398151915255610c2e565b505f6008820361101a57825f805160206123b483398151915255610d325f805160206123f4833981519152545f805160206124948339815191525490611972565b505f6009820361103957825f8051602061255483398151915255610c2e565b505f600a820361105857825f805160206127b483398151915255610c2e565b505f600b8203611102575f805160206124f483398151915254831161108c57825f805160206125d483398151915255610c2e565b60405162461bcd60e51b815260206004820152604260248201527f6d696e696d756d206e756d626572206f662070726f6f6673207065722065706f60448201527f6368206d757374206e6f74206265206c6172676572207468616e206d6178696d606482015261756d60f01b608482015260a490fd5b505f600c82036105fa57825f805160206125d4833981519152541161113657825f805160206124f483398151915255610c2e565b60405162461bcd60e51b815260206004820152604260248201527f6d6178696d756d206e756d626572206f662070726f6f6673207065722065706f60448201527f6368206d757374206e6f74206265206c6172676572207468616e206d696e696d606482015261756d60f01b608482015260a490fd5b34610316576020366003190112610316576004356001600160a01b03811681036103165760ff7f1f364d5cd815a7922b0808e606a82391642c337151b3addb3f98eaf82cfb172e541615801561120a575b6020906040519015158152f35b5060018060a01b03165f525f80516020612754833981519152602052602060ff60405f2054166111fd565b34610316575f3660031901126103165760205f805160206123b483398151915254604051908152f35b34610316575f3660031901126103165760205f805160206123f483398151915254604051908152f35b34610316576020366003190112610316576020610ad36004356118be565b34610316575f3660031901126103165760205f8051602061255483398151915254604051908152f35b34610316575f3660031901126103165760205f805160206123d483398151915254604051908152f35b34610316575f3660031901126103165760205f805160206124b483398151915254604051908152f35b34610316575f3660031901126103165760205f8051602061253483398151915254604051908152f35b34610316576040366003190112610316576024356113686004356117f6565b90600181018091116113955761137d906117f6565b5f1981019190821161139557602091610ad391612097565b634e487b7160e01b5f52601160045260245ffd5b34610316575f3660031901126103165760205f805160206126b483398151915254604051908152f35b34610316575f3660031901126103165760205f8051602061267483398151915254604051908152f35b34610316576020366003190112610316576004356001600160a01b0381169081900361031657611429611712565b805f525f805160206126d483398151915260205260405f2060ff1981541690557f323f9f2471a499ed29474d77289b2083f21f72dc30c77a4bd96532b6ee3ad8885f80a2005b346103165760203660031901126103165760043561148b611712565b5f80516020612434833981519152545f8051602061279483398151915255805f80516020612434833981519152556114c1611853565b60018101809111611395577f0b5731e9746c6761d5cc9e62a3f59221163bf9ea25d7eb047f33913153f23c97916020915f805160206125b483398151915255604051908152a1005b34610316576020366003190112610316576020610ad36004356117f6565b34610316575f3660031901126103165760205f805160206124f483398151915254604051908152f35b34610316575f3660031901126103165760205f8051602061281483398151915254604051908152f35b34610316575f366003190112610316576020610ad36117a2565b34610316575f3660031901126103165760205f8051602061263483398151915254604051908152f35b346103165760203660031901126103165760043560018101809111611395576115e4906117f6565b5f19810190811161139557610ad3602091611f0d565b34610316576020366003190112610316576004356001600160a01b038116908190036103165760207fab9a16269e54e8ae681de331f196f57a4b158e28d53818a27ff5e5698e2917499161164c611712565b805f525f80516020612754833981519152825260405f20600160ff19825416179055604051908152a1005b34610316575f3660031901126103165760205f8051602061257483398151915254604051908152f35b34610316575f3660031901126103165760207f8984d2d0d7a9f2f70f22692c7c8344aa50cbed8c00a03c924457a31793ee8fe454604051908152f35b34610316575f3660031901126103165760205f805160206126f483398151915254604051908152f35b9190820180921161139557565b7fc8fcad8db84d3cc18b4c41d551ea0ee66dd599cde068d998e57d5e09332c1320546001600160a01b0316330361174557565b60405162461bcd60e51b815260206004820152602260248201527f4c69624469616d6f6e643a204d75737420626520636f6e7472616374206f776e60448201526132b960f11b6064820152608490fd5b9190820391821161139557565b6117aa611853565b5f805160206125b48339815191525411156117d1575f805160206127948339815191525490565b5f805160206124348339815191525490565b8181029291811591840414171561139557565b5f805160206127f4833981519152545f80516020612534833981519152545f198301928311611395576118329261182c916117e3565b90611705565b90565b811561183f570490565b634e487b7160e01b5f52601260045260245ffd5b61188361186e5f805160206127f48339815191525442611795565b5f805160206125348339815191525490611835565b600101806001116113955790565b80548210156118aa575f5260205f209060011b01905f90565b634e487b7160e01b5f52603260045260245ffd5b5f80516020612334833981519152545f91905f198101908111611395575f925b818111156118ec5750505090565b6118f68282611705565b60011c93611911855f80516020612334833981519152611891565b509182548086115f1461194657505050600101549260018101809111156118de57634e487b7160e01b5f52601160045260245ffd5b9195909350919084101561196657505f19810190811161139557906118de565b60010154949350505050565b9061197b611853565b5f80516020612334833981519152548215611b76575f19810192818411611395576119b3845f80516020612334833981519152611891565b508054841491908215611b64575060028310611b5c5760011983019083821161139557611a0060016119f5611a05945f80516020612334833981519152611891565b500154975b886117e3565b611835565b5f805160206123b4833981519152541015611b18575f805160206125548339815191525494628954408102908082046289544014901517156113955762989680900494808610611b10575b505b15611a77575050611a726001915f80516020612334833981519152611891565b500155565b60408051935090919083016001600160401b03811184821017611afc57604052825260208201928352600160401b811015611afc57806001611ad692015f80516020612334833981519152555f80516020612334833981519152611891565b929092611ae95760019151835551910155565b634e487b7160e01b5f525f60045260245ffd5b634e487b7160e01b5f52604160045260245ffd5b94505f611a50565b5f805160206127b4833981519152549462a7d8c081029080820462a7d8c014901517156113955762989680900494808611611b54575b50611a52565b94505f611b4e565b505050505050565b90611a006001611a05930154976119fa565b50505050565b906298968082029180830462989680149015171561139557611b9d91611835565b670de0b6b3a7640000810290808204670de0b6b3a764000014901517156113955762989680900490565b5f80516020612614833981519152546001600160a01b03163303611be757565b63118cdaa760e01b5f523360045260245ffd5b80548210156118aa575f5260205f2001905f90565b80549190600160401b831015611afc5782611c32916001611c4a95018155611bfa565b90919082549060031b91821b915f19901b1916179055565b565b5f80516020612514833981519152905f80516020612654833981519152545f805160206123f48339815191525490811561183f5781655af3107a400004831561183f5783655af3107a400004948215611ef957545f80516020612414833981519152545f1984019384119391908461139557611a00611cd2611cf89361182c86856117e3565b611cf35f8051602061241483398151915254611cee8142611835565b6117e3565b611795565b928315611e715760018411611dbf575b5050505050805f805160206123f4833981519152555f80516020612654833981519152545f19810190811161139557611d7491611d55611d61925f80516020612654833981519152611bfa565b90549060031b1c611705565b5f80516020612654833981519152611c0f565b5f80516020612694833981519152545f19810190811161139557611c4a91611d55611dac925f80516020612694833981519152611bfa565b5f80516020612694833981519152611c0f565b969194929590939661139557611e00611de5855f80516020612654833981519152611bfa565b90549060031b1c945f80516020612694833981519152611bfa565b90549060031b1c925f965f19810190811197885b6113955781811015611e5d57600181019081811161139557611e56611dac611e5084611e4a8f8d61182c600199611d61936117e3565b8c6117e3565b89611705565b0188611e14565b505094509450945050505f80808080611d08565b5092611c32925090611cf3611ee89596611ebd611ea6611ed495611cf38b611d558b5f80516020612654833981519152611bfa565b611c32885f80516020612654833981519152611bfa565b611d55865f80516020612694833981519152611bfa565b915f80516020612694833981519152611bfa565b5f805160206123f483398151915255565b634e487b7160e01b5f52600160045260245ffd5b5f80516020612514833981519152549080821161200f57611f4691611f3191611795565b5f805160206124148339815191525490611835565b5f8051602061265483398151915254811015611ffc578015611fb257611f79815f80516020612654833981519152611bfa565b90549060031b1c5f19820191821161139557611fa5611832925f80516020612654833981519152611bfa565b90549060031b1c90611795565b505f8051602061265483398151915254156118aa575f805160206126548339815191525f527fbe06bae5d39cb7e0efc053b565594c50550d26af23bc11ab40fff03218cbf97c5490565b505f805160206123f48339815191525490565b60405162461bcd60e51b815260206004820152605460248201527f4c69624f7261636c6550726963652e6765745072696365417454696d6573746160448201527f6d703a2074696d657374616d70206973206c6f776572207468616e2066697273606482015273074207265636f726465642074696d657374616d760641b608482015260a490fd5b905f8051602061251483398151915254908282116122aa57808311612232576120c08284611795565b906120da5f80516020612414833981519152548093611835565b5f80516020612654833981519152549092818410156121e65761210a845f80516020612654833981519152611bfa565b90549060031b1c925b61212182611a008884611795565b95838710156121805750505050612145835f80516020612654833981519152611bfa565b90549060031b1c5b828403612161575050505061183290611f0d565b611832945061217a929161217491611795565b92611795565b90611835565b61219292611a00611cf3928694611795565b60018101809111611395575f1982019182116113955761182c6121c56121e1935f80516020612654833981519152611bfa565b90549060031b1c915f805160206123f4833981519152546117e3565b61214d565b6121f882611cf383611a00898b611795565b60018101809111611395575f198301908382116113955761182c6121c561222c935f80516020612654833981519152611bfa565b92612113565b60405162461bcd60e51b815260206004820152605760248201525f8051602061273483398151915260448201527f656e54696d657374616d70733a2066726f6d54696d657374616d7020697320676064820152760726561746572207468616e20746f54696d657374616d7604c1b608482015260a490fd5b60405162461bcd60e51b815260206004820152606260248201525f8051602061273483398151915260448201527f656e54696d657374616d70733a2066726f6d54696d657374616d70206973206c60648201527f6f776572207468616e206669727374207265636f726465642074696d6573746160848201526106d760f41b60a482015260c490fdfe8984d2d0d7a9f2f70f22692c7c8344aa50cbed8c00a03c924457a31793ee8fe68984d2d0d7a9f2f70f22692c7c8344aa50cbed8c00a03c924457a31793ee8fd560ac4d56f7e69877e4b95a6e91f4b3612278b580a93ea7637885a480e01503182aa6b2026f27b721aa31227fdbd84cf04c442933bec8e7f3be70f27c62fe42a08984d2d0d7a9f2f70f22692c7c8344aa50cbed8c00a03c924457a31793ee8fe18984d2d0d7a9f2f70f22692c7c8344aa50cbed8c00a03c924457a31793ee8fd362e26dda6281f8a7bde8d0de6ef3dc4300cca63258b4641529b5bae7dc08902a62e26dda6281f8a7bde8d0de6ef3dc4300cca63258b4641529b5bae7dc0890278984d2d0d7a9f2f70f22692c7c8344aa50cbed8c00a03c924457a31793ee8fdf8984d2d0d7a9f2f70f22692c7c8344aa50cbed8c00a03c924457a31793ee8fda6d696e696d756d20636f6d6d69746d656e74206475726174696f6e206d7573748984d2d0d7a9f2f70f22692c7c8344aa50cbed8c00a03c924457a31793ee8fd28984d2d0d7a9f2f70f22692c7c8344aa50cbed8c00a03c924457a31793ee8fd88984d2d0d7a9f2f70f22692c7c8344aa50cbed8c00a03c924457a31793ee8fd68984d2d0d7a9f2f70f22692c7c8344aa50cbed8c00a03c924457a31793ee8fdd62e26dda6281f8a7bde8d0de6ef3dc4300cca63258b4641529b5bae7dc0890267d4f8ec43464738265ced6b7ed5f90007e9b7c34318bdd82d9249328b50bd3588984d2d0d7a9f2f70f22692c7c8344aa50cbed8c00a03c924457a31793ee8fe260ac4d56f7e69877e4b95a6e91f4b3612278b580a93ea7637885a480e01503198984d2d0d7a9f2f70f22692c7c8344aa50cbed8c00a03c924457a31793ee8fdb8984d2d0d7a9f2f70f22692c7c8344aa50cbed8c00a03c924457a31793ee8fe08984d2d0d7a9f2f70f22692c7c8344aa50cbed8c00a03c924457a31793ee8fdc8be0079c531659141344cd1fd0a4f28419497f9722a3daafe3b4186f6b6457e0b13d3e7783d509d8d65d3e1e62ec0b103a07e0cbfa1ee74ae19127f297dddfcc8984d2d0d7a9f2f70f22692c7c8344aa50cbed8c00a03c924457a31793ee8fd962e26dda6281f8a7bde8d0de6ef3dc4300cca63258b4641529b5bae7dc08902860ac4d56f7e69877e4b95a6e91f4b3612278b580a93ea7637885a480e015031c62e26dda6281f8a7bde8d0de6ef3dc4300cca63258b4641529b5bae7dc08902960ac4d56f7e69877e4b95a6e91f4b3612278b580a93ea7637885a480e015031a60ac4d56f7e69877e4b95a6e91f4b3612278b580a93ea7637885a480e015031d60ac4d56f7e69877e4b95a6e91f4b3612278b580a93ea7637885a480e015031b8984d2d0d7a9f2f70f22692c7c8344aa50cbed8c00a03c924457a31793ee8fe74c69624f7261636c6550726963652e6765744d65616e507269636542657477651f364d5cd815a7922b0808e606a82391642c337151b3addb3f98eaf82cfb172f8984d2d0d7a9f2f70f22692c7c8344aa50cbed8c00a03c924457a31793ee8fd48984d2d0d7a9f2f70f22692c7c8344aa50cbed8c00a03c924457a31793ee8fde8984d2d0d7a9f2f70f22692c7c8344aa50cbed8c00a03c924457a31793ee8fe36d696e696d756d206e756d626572206f662043557320696e20636f6d6d69746d7d4f8ec43464738265ced6b7ed5f90007e9b7c34318bdd82d9249328b50bd3578984d2d0d7a9f2f70f22692c7c8344aa50cbed8c00a03c924457a31793ee8fd7a2646970667358221220e487ebf65804a660cdc10d0a0d3b02b1bc292aa00783787df80cb97ce2be0d7564736f6c634300081a0033","linkReferences":{}},"methodIdentifiers":{"activeUnitCount()":"7e815381","addPaymentTokenToWhitelist(address)":"f5c741a7","calculateRewardPool()":"b49b0758","currentEpoch()":"76671808","dealImpl()":"d6a5a04b","difficulty()":"19cae462","epochDuration()":"4ff0876a","epochTimestamp(uint256)":"32da089e","fltCollateralPerUnit()":"4ff3dfd6","fltPrice()":"5ff24491","fltPriceAtEpoch(uint256)":"12d69357","getRewardPool(uint256)":"5cfa91f4","grantAccess(address)":"0ae5e739","initTimestamp()":"7358c57a","isApproved(address)":"673448dd","isPaymentTokenAllowed(address)":"8de1de71","maxCUPerCommitment()":"c2bae292","maxDuration()":"6db5c8fd","maxFailedRatio()":"a376fb91","maxProofsPerEpoch()":"280c5e51","maxProtocolVersion()":"03eed73e","maxRewardPerEpoch()":"800fe125","maxUnitCountPerProvider()":"441407ea","meanFltPrice(uint256,uint256)":"4828bdf9","minCUPerCommitment()":"9ef90176","minDealDepositedEpochs()":"72ea4f23","minDealRematchingEpochs()":"069f7a64","minDuration()":"56715761","minProofsPerEpoch()":"e79c6270","minProtocolVersion()":"4469ac9b","minRewardPerEpoch()":"5c11f4d4","oracle()":"7dc0d1d0","owner()":"8da5cb5b","precision()":"d3b5dc3b","randomXProxy()":"919f49f9","removePaymentTokenFromWhitelist(address)":"4348bb31","renounceOwnership()":"715018a6","revokeAccess(address)":"85e68531","setCapacityConstant(uint8,uint256)":"6daecfbe","setConstant(uint8,uint256)":"d6f563d8","setDealImpl(address)":"89e4a0ba","setDifficulty(bytes32)":"3932dbf5","setFLTPrice(uint256)":"e2175090","setOracle(address)":"7adbf973","slashingRate()":"13baa069","transferOwnership(address)":"f2fde38b","usdCollateralPerUnit()":"22cafa3a","usdTargetRevenuePerEpoch()":"66aaf7b9","vestingPeriodCount()":"dad01895","vestingPeriodDuration()":"0640d941","withdrawEpochsAfterFailed()":"6f167977"},"storageLayout":{"storage":[],"types":{}},"devdoc":{"version":1,"kind":"dev","methods":{"activeUnitCount()":{"details":"Returns the active compute unit count"},"addPaymentTokenToWhitelist(address)":{"details":"Adds payment token address to whitelist"},"currentEpoch()":{"details":"This function mirrored in:- ts-client/src/dealMatcherClient/dealMatcherClient.ts- subgraph/src/contracts.ts"},"difficulty()":{"details":"Returns the difficulty for randomX"},"epochDuration()":{"details":"Returns epoch duration","returns":{"_0":"epochDuration in seconds"}},"epochTimestamp(uint256)":{"details":"Returns timestamp of the given epoch","returns":{"_0":"start epoch timestamp in seconds"}},"fltCollateralPerUnit()":{"details":"Returns the flt collateral per compute unit for creating CC"},"fltPrice()":{"details":"Returns the last set flt price in usd/flt"},"fltPriceAtEpoch(uint256)":{"details":"Returns the flt price at the end of the epoch previous to given one.It means that this function will always return the same result for the same arguments.Epoch must be less or equal than current epoch.","params":{"epoch":"- epoch where"},"returns":{"_0":"price in flt/usd"}},"getRewardPool(uint256)":{"details":"Returns the reward pool per epoch"},"initTimestamp()":{"details":"Returns epoch init timestamp","returns":{"_0":"initTimestamp in seconds"}},"isPaymentTokenAllowed(address)":{"details":"Checks if address is allowed to use as payment token in deals/offers","returns":{"_0":"true if address is allowed"}},"maxCUPerCommitment()":{"details":"Returns the max number of CU in CC"},"maxDuration()":{"details":"Returns the max duration of CC in Epochs"},"maxFailedRatio()":{"details":"Returns the max failed ratio for CC"},"maxProofsPerEpoch()":{"details":"Returns the max randomX proofs per epoch"},"maxProtocolVersion()":{"details":"Returns max protocol version which can be specified in offers and deals","returns":{"_0":"max protocol version"}},"maxRewardPerEpoch()":{"details":"Returns the max reward pool per epoch"},"maxUnitCountPerProvider()":{"details":"Returns max unit count allowed for single provider to have in all offers combined","returns":{"_0":"max unit count per provider"}},"meanFltPrice(uint256,uint256)":{"details":"Returns the mean FLT price at [beginOfFromEpoch,  beginOfToEpoch).It means that this function will always return the same result for the same arguments.Epochs must be less or equal than current epoch.","params":{"fromEpoch":"- left boundary","toEpoch":"- right boundary"},"returns":{"_0":"price in usd/flt units multiplied by PRECISION"}},"minCUPerCommitment()":{"details":"Returns the min number of CU in CC"},"minDealDepositedEpochs()":{"details":"Returns min deposited Epochs constant for new deals","returns":{"_0":"min deposited Epochs for new deals"}},"minDealRematchingEpochs()":{"details":"Returns min rematching Epochs constant for all deals","returns":{"_0":"min rematching Epochs for all deals"}},"minDuration()":{"details":"Returns the min duration of CC in Epochs"},"minProofsPerEpoch()":{"details":"Returns the min required randomX proofs per epoch for the 1 CU.If lower than this - CU is failed and CC slashed."},"minProtocolVersion()":{"details":"Returns min protocol version which can be specified in offers and deals","returns":{"_0":"min protocol version"}},"minRewardPerEpoch()":{"details":"Returns the min reward pool per epoch"},"owner()":{"details":"Returns the address of the current owner."},"precision()":{"details":"Returns precision for decimal values (USD, percentage)"},"randomXProxy()":{"details":"Returns the randomX proxy address for verification of randomX proofs"},"removePaymentTokenFromWhitelist(address)":{"details":"Removes payment token address from whitelist"},"renounceOwnership()":{"details":"Leaves the contract without owner. It will not be possible to call `onlyOwner` functions. Can only be called by the current owner. NOTE: Renouncing ownership will leave the contract without an owner, thereby disabling any functionality that is only available to the owner."},"setCapacityConstant(uint8,uint256)":{"details":"Sets a constant with a uint256 value"},"setConstant(uint8,uint256)":{"details":"Sets constant with uint256 value","params":{"constantType":"Constant type","v":"New uint256 value"}},"setDifficulty(bytes32)":{"details":"Sets the randomX difficulty"},"setFLTPrice(uint256)":{"details":"Sets the flt price"},"setOracle(address)":{"details":"Sets a new oracle"},"slashingRate()":{"details":"Returns the slashing rate for failed CU"},"transferOwnership(address)":{"details":"Transfers ownership of the contract to a new account (`newOwner`). Can only be called by the current owner."},"usdCollateralPerUnit()":{"details":"Returns the usd collateral per compute for creating CC"},"usdTargetRevenuePerEpoch()":{"details":"Returns the target revenue in usd value per epoch"},"vestingPeriodCount()":{"details":"Returns the total vesting periods"},"vestingPeriodDuration()":{"details":"Returns the vesting duration for one period in Epochs"},"withdrawEpochsAfterFailed()":{"details":"Returns the delay for withdraw collateral in Epochs after failed CC"}},"events":{"CapacityConstantUpdated(uint8,uint256)":{"details":"Emitted when a constant with a uint256 value is updated","params":{"constantType":"The type of the constant","newValue":"The new value of the constant"}},"ConstantUpdated(uint8,uint256)":{"details":"Emitted when a constant with uint256 value is updated","params":{"constantType":"Constant type","newValue":"New uint256 value"}},"DifficultyUpdated(bytes32)":{"details":"Emitted when the difficulty is updated","params":{"difficulty":"The new value of the difficulty"}},"FLTPriceUpdated(uint256)":{"details":"Emitted when the FLT price is updated","params":{"newValue":"The new value of the FLT price"}},"Initialized(uint64)":{"details":"Triggered when the contract has been initialized or reinitialized."},"OracleSet(address)":{"details":"Emitted when new oracle address is set","params":{"oracle":"The oracle address"}}},"errors":{"InvalidInitialization()":[{"details":"The contract is already initialized."}],"NotInitializing()":[{"details":"The contract is not initializing."}],"OwnableInvalidOwner(address)":[{"details":"The owner is not a valid owner account. (eg. `address(0)`)"}],"OwnableUnauthorizedAccount(address)":[{"details":"The caller account is not authorized to perform an operation."}]}},"id":95}