{"abi":[{"type":"function","name":"claim","inputs":[],"outputs":[],"stateMutability":"nonpayable"},{"type":"event","name":"CollateralClaimed","inputs":[{"name":"validator","type":"address","indexed":false,"internalType":"address"},{"name":"amount","type":"uint256","indexed":false,"internalType":"uint256"}],"anonymous":false},{"type":"event","name":"Paused","inputs":[{"name":"account","type":"address","indexed":false,"internalType":"address"}],"anonymous":false},{"type":"event","name":"Unpaused","inputs":[{"name":"account","type":"address","indexed":false,"internalType":"address"}],"anonymous":false},{"type":"error","name":"AddressInsufficientBalance","inputs":[{"name":"account","type":"address","internalType":"address"}]},{"type":"error","name":"EnforcedPause","inputs":[]},{"type":"error","name":"ExpectedPause","inputs":[]},{"type":"error","name":"FailedInnerCall","inputs":[]},{"type":"error","name":"NoCollateralToWithdraw","inputs":[]},{"type":"error","name":"ReentrancyError","inputs":[]}],"bytecode":{"object":"0x608060405234801561001057600080fd5b5061039b806100206000396000f3fe608060405234801561001057600080fd5b506004361061002b5760003560e01c80634e71d92d14610030575b600080fd5b61003861003a565b005b7f691bb03ffc16c56fc96b82fd16cd1b3715f0bc3cdc6407005f49bb620586009580546000190161007e576040516329f745a760e01b815260040160405180910390fd5b6001815561008a610099565b610093336100de565b60009055565b7fc451c9429c27db68f286ab8a68f311f1dccab703ba9423aed29cd397ae63f8635460ff16156100dc5760405163d93c066560e01b815260040160405180910390fd5b565b6000806100ec601584610136565b604080516001600160a01b0386168152602081018390529192507f197c586353eaed0a1c53e6e540445b94befab8f932c8115d112115ecbeeed514910160405180910390a1505050565b6001600160a01b038116600090815260018301602052604081208190819061015d906101b0565b915091508061ffff16600003610193576001600160a01b03841660009081526001860160205260409020805463ffffffff191690555b6101a66001600160a01b038516836102a4565b5090505b92915050565b8054600090819061ffff168082036101db576040516364b0557f60e01b815260040160405180910390fd5b835462010000900461ffff168160005b8361ffff168361ffff1610156102795761ffff831660009081526001808901602090815260409283902083518085019094528054808552920154908301524310156102365750610279565b60208101516102459083610344565b61ffff8516600090815260018a81016020526040822082815581019190915590940193600019939093019291506101eb9050565b865463ffffffff19166201000061ffff9485160261ffff191617928216929092179095559492505050565b804710156102cb5760405163cd78605960e01b815230600482015260240160405180910390fd5b6000826001600160a01b03168260405160006040518083038185875af1925050503d8060008114610318576040519150601f19603f3d011682016040523d82523d6000602084013e61031d565b606091505b505090508061033f57604051630a12f52160e11b815260040160405180910390fd5b505050565b808201808211156101aa57634e487b7160e01b600052601160045260246000fdfea264697066735822122046d98d65562e35abe2dc25a562554775ee70a347b623f80860c68d52cebec93264736f6c63430008180033","linkReferences":{}},"methodIdentifiers":{"claim()":"4e71d92d"},"id":98}