{"abi":[{"type":"function","name":"resolveSelectors","inputs":[{"name":"facetName","type":"string","internalType":"string"}],"outputs":[{"name":"facetSelectors","type":"bytes4[]","internalType":"bytes4[]"}],"stateMutability":"pure"}],"bytecode":{"object":"0x612a5561003a600b82828239805160001a60731461002d57634e487b7160e01b600052600060045260246000fd5b30600052607381538281f3fe73000000000000000000000000000000000000000030146080604052600436106100355760003560e01c806366e2898c1461003a575b600080fd5b61004d610048366004610f2d565b610063565b60405161005a9190610fc2565b60405180910390f35b6040516d11d85d195dd85e511a585b5bdb9960921b6020820152606090602e0160405160208183030381529060405280519060200120826040516020016100aa9190611010565b60405160208183030381529060405280519060200120036100f757604051806060016040528060408152602001611ae0604091398060200190518101906100f1919061103f565b92915050565b6040517114dd589b995d1058dd1bdc911a585b5bdb9960721b6020820152603201604051602081830303815290604052805190602001208260405160200161013f9190611010565b604051602081830303815290604052805190602001200361018657604051806060016040528060408152602001611ae0604091398060200190518101906100f1919061103f565b6040517414dd589b995d149959da5cdd1c9e511a585b5bdb99605a1b602082015260350160405160208183030381529060405280519060200120826040516020016101d19190611010565b604051602081830303815290604052805190602001200361021857604051806060016040528060408152602001611ae0604091398060200190518101906100f1919061103f565b6040516d13dddb995c9cda1a5c119858d95d60921b6020820152602e01604051602081830303815290604052805190602001208260405160200161025c9190611010565b60405160208183030381529060405280519060200120036102a3576040518060a00160405280608081526020016126a0608091398060200190518101906100f1919061103f565b6040516e111a585b5bdb9910dd5d119858d95d608a1b6020820152602f0160405160208183030381529060405280519060200120826040516020016102e89190611010565b604051602081830303815290604052805190602001200361032f57604051806080016040528060608152602001612040606091398060200190518101906100f1919061103f565b60405170111a585b5bdb99131bdd5c19519858d95d607a1b602082015260310160405160208183030381529060405280519060200120826040516020016103769190611010565b60405160208183030381529060405280519060200120036103be5760405180610100016040528060e0815260200161122060e091398060200190518101906100f1919061103f565b6040517111d85d195dd85e51d95d1d195c919858d95d60721b602082015260320160405160208183030381529060405280519060200120826040516020016104069190611010565b60405160208183030381529060405280519060200120036104505760405180610460016040528061044081526020016121a061044091398060200190518101906100f1919061103f565b6040517211d85d195dd85e53585b9859d95c919858d95d606a1b602082015260330160405160208183030381529060405280519060200120826040516020016104999190611010565b60405160208183030381529060405280519060200120036104e357604051806101400160405280610120815260200161110061012091398060200190518101906100f1919061103f565b6040517411d85d195dd85e53595cdcd95b99d95c919858d95d605a1b6020820152603501604051602081830303815290604052805190602001208260405160200161052e9190611010565b6040516020818303038152906040528051906020012003610575576040518060a0016040528060808152602001611700608091398060200190518101906100f1919061103f565b6040517110da1958dadc1bda5b9d1a5b99d19858d95d60721b602082015260320160405160208183030381529060405280519060200120826040516020016105bd9190611010565b6040516020818303038152906040528051906020012003610604576040518060e0016040528060c08152602001611a2060c091398060200190518101906100f1919061103f565b60405173151bdc111bdddb919a5b985b1a5d1e519858d95d60621b6020820152603401604051602081830303815290604052805190602001208260405160200161064e9190611010565b6040516020818303038152906040528051906020012003610695576040518060c0016040528060a08152602001611fa060a091398060200190518101906100f1919061103f565b60405171161b995d13595cdcd859da5b99d19858d95d60721b602082015260320160405160208183030381529060405280519060200120826040516020016106dd9190611010565b604051602081830303815290604052805190602001200361072457604051806080016040528060608152602001612640606091398060200190518101906100f1919061103f565b6040517514dd589b995d1058dd1bdc91d95d1d195c919858d95d60521b602082015260360160405160208183030381529060405280519060200120826040516020016107709190611010565b60405160208183030381529060405280519060200120036107ba576040518061044001604052806104208152602001611b8061042091398060200190518101906100f1919061103f565b6040517f5375626e65744163746f724d616e6167657246616365740000000000000000006020820152603701604051602081830303815290604052805190602001208260405160200161080d9190611010565b604051602081830303815290604052805190602001200361085757604051806101800160405280610160815260200161272061016091398060200190518101906100f1919061103f565b6040517414dd589b995d1058dd1bdc94185d5cd9519858d95d605a1b602082015260350160405160208183030381529060405280519060200120826040516020016108a29190611010565b60405160208183030381529060405280519060200120036108e9576040518060c0016040528060a081526020016120a060a091398060200190518101906100f1919061103f565b6040517514dd589b995d1058dd1bdc94995dd85c99119858d95d60521b602082015260360160405160208183030381529060405280519060200120826040516020016109359190611010565b604051602081830303815290604052805190602001200361097c57604051806080016040528060608152602001612140606091398060200190518101906100f1919061103f565b6040517f5375626e65744163746f72436865636b706f696e74696e6746616365740000006020820152603d0160405160208183030381529060405280519060200120826040516020016109cf9190611010565b6040516020818303038152906040528051906020012003610a16576040518060a0016040528060808152602001611780608091398060200190518101906100f1919061103f565b60405172149959da5cdd195c94dd589b995d119858d95d606a1b60208201526033016040516020818303038152906040528051906020012082604051602001610a5f9190611010565b6040516020818303038152906040528051906020012003610aa657604051806080016040528060608152602001611300606091398060200190518101906100f1919061103f565b6040517014dd589b995d11d95d1d195c919858d95d607a1b60208201526031016040516020818303038152906040528051906020012082604051602001610aed9190611010565b6040516020818303038152906040528051906020012003610b3757604051806102400160405280610220815260200161180061022091398060200190518101906100f1919061103f565b6040517545524332305072657365744669786564537570706c7960501b60208201526036016040516020818303038152906040528051906020012082604051602001610b839190611010565b6040516020818303038152906040528051906020012003610bcd57604051806101c001604052806101a081526020016128806101a091398060200190518101906100f1919061103f565b6040517f4e756d626572436f6e747261637446616365744569676874000000000000000060208201526038016040516020818303038152906040528051906020012082604051602001610c209190611010565b6040516020818303038152906040528051906020012003610c6757604051806080016040528060608152602001611b20606091398060200190518101906100f1919061103f565b6040517f4e756d626572436f6e74726163744661636574536576656e000000000000000060208201526038016040516020818303038152906040528051906020012082604051602001610cba9190611010565b6040516020818303038152906040528051906020012003610d0157604051806080016040528060608152602001611b20606091398060200190518101906100f1919061103f565b6040516e53656c6563746f724c69627261727960881b6020820152602f016040516020818303038152906040528051906020012082604051602001610d469190611010565b6040516020818303038152906040528051906020012003610d8d576040518060800160405280606081526020016125e0606091398060200190518101906100f1919061103f565b60405168546573745574696c7360b81b60208201526029016040516020818303038152906040528051906020012082604051602001610dcc9190611010565b6040516020818303038152906040528051906020012003610e165760405180610160016040528061014081526020016115c061014091398060200190518101906100f1919061103f565b6040516e5375626e65744163746f724d6f636b60881b6020820152602f016040516020818303038152906040528051906020012082604051602001610e5b9190611010565b6040516020818303038152906040528051906020012003610ea557604051806102800160405280610260815260200161136061026091398060200190518101906100f1919061103f565b60405162461bcd60e51b815260206004820152601260248201527114d95b1958dd1bdc881b9bdd08199bdd5b9960721b604482015260640160405180910390fd5b634e487b7160e01b600052604160045260246000fd5b604051601f8201601f1916810167ffffffffffffffff81118282101715610f2557610f25610ee6565b604052919050565b60006020808385031215610f4057600080fd5b823567ffffffffffffffff80821115610f5857600080fd5b818501915085601f830112610f6c57600080fd5b813581811115610f7e57610f7e610ee6565b610f90601f8201601f19168501610efc565b91508082528684828501011115610fa657600080fd5b8084840185840137600090820190930192909252509392505050565b6020808252825182820181905260009190848201906040850190845b818110156110045783516001600160e01b03191683529284019291840191600101610fde565b50909695505050505050565b6000825160005b818110156110315760208186018101518583015201611017565b506000920191825250919050565b6000602080838503121561105257600080fd5b825167ffffffffffffffff8082111561106a57600080fd5b818501915085601f83011261107e57600080fd5b81518181111561109057611090610ee6565b8060051b91506110a1848301610efc565b81815291830184019184810190888411156110bb57600080fd5b938501935b838510156110f357845192506001600160e01b0319831683146110e35760008081fd5b82825293850193908501906110c0565b9897505050505050505056fe000000000000000000000000000000000000000000000000000000000000002000000000000000000000000000000000000000000000000000000000000000075a627dbc0000000000000000000000000000000000000000000000000000000018f44b70000000000000000000000000000000000000000000000000000000000517e1aa0000000000000000000000000000000000000000000000000000000041c0e1b500000000000000000000000000000000000000000000000000000000f207564e000000000000000000000000000000000000000000000000000000006b2c1eef0000000000000000000000000000000000000000000000000000000045f544850000000000000000000000000000000000000000000000000000000000000000000000000000000000000000000000000000000000000000000000200000000000000000000000000000000000000000000000000000000000000005cdffacc60000000000000000000000000000000000000000000000000000000052ef6b2c00000000000000000000000000000000000000000000000000000000adfca15e000000000000000000000000000000000000000000000000000000007a0ed6270000000000000000000000000000000000000000000000000000000001ffc9a70000000000000000000000000000000000000000000000000000000000000000000000000000000000000000000000000000000000000000000000200000000000000000000000000000000000000000000000000000000000000001fc3b0ad3000000000000000000000000000000000000000000000000000000000000000000000000000000000000000000000000000000000000000000000020000000000000000000000000000000000000000000000000000000000000001110fd4261000000000000000000000000000000000000000000000000000000004e71d92d00000000000000000000000000000000000000000000000000000000350a14bf00000000000000000000000000000000000000000000000000000000c7ebdaef000000000000000000000000000000000000000000000000000000006170b1620000000000000000000000000000000000000000000000000000000041c0e1b500000000000000000000000000000000000000000000000000000000d66d9e19000000000000000000000000000000000000000000000000000000008456cb59000000000000000000000000000000000000000000000000000000005c975abb000000000000000000000000000000000000000000000000000000000b7fbe600000000000000000000000000000000000000000000000000000000066783c9b00000000000000000000000000000000000000000000000000000000da5d09ee000000000000000000000000000000000000000000000000000000003a4b66f10000000000000000000000000000000000000000000000000000000079979f57000000000000000000000000000000000000000000000000000000003f4ba83a000000000000000000000000000000000000000000000000000000002e17de7800000000000000000000000000000000000000000000000000000000cc2dc2b90000000000000000000000000000000000000000000000000000000000000000000000000000000000000000000000000000000000000000000000200000000000000000000000000000000000000000000000000000000000000008997da8d4000000000000000000000000000000000000000000000000000000005727dc5c0000000000000000000000000000000000000000000000000000000003a507be000000000000000000000000000000000000000000000000000000007a308a4c00000000000000000000000000000000000000000000000000000000eeeac01e00000000000000000000000000000000000000000000000000000000bc9e2bcf00000000000000000000000000000000000000000000000000000000f6caf0ac00000000000000000000000000000000000000000000000000000000573081a2000000000000000000000000000000000000000000000000000000000000000000000000000000000000000000000000000000000000000000000020000000000000000000000000000000000000000000000000000000000000000225bf0db6000000000000000000000000000000000000000000000000000000003eeb723f000000000000000000000000000000000000000000000000000000000000000000000000000000000000000000000000000000000000000000000020000000000000000000000000000000000000000000000000000000000000000279979f5700000000000000000000000000000000000000000000000000000000cc2dc2b9000000000000000000000000000000000000000000000000000000000000000000000000000000000000000000000000000000000000000000000020000000000000000000000000000000000000000000000000000000000000000f42bf3cc10000000000000000000000000000000000000000000000000000000062c9d7fb00000000000000000000000000000000000000000000000000000000967ba537000000000000000000000000000000000000000000000000000000000be06111000000000000000000000000000000000000000000000000000000001b0766c300000000000000000000000000000000000000000000000000000000a372bf30000000000000000000000000000000000000000000000000000000000f5849d1000000000000000000000000000000000000000000000000000000004d7115140000000000000000000000000000000000000000000000000000000089bba29900000000000000000000000000000000000000000000000000000000540b5ad60000000000000000000000000000000000000000000000000000000054a4eddb000000000000000000000000000000000000000000000000000000009836b75f00000000000000000000000000000000000000000000000000000000030f6051000000000000000000000000000000000000000000000000000000001163dca500000000000000000000000000000000000000000000000000000000a46d044d000000000000000000000000000000000000000000000000000000000000000000000000000000000000000000000000000000000000000000000020000000000000000000000000000000000000000000000000000000000000000453b4e7bf00000000000000000000000000000000000000000000000000000000fba0fa4d00000000000000000000000000000000000000000000000000000000dc749b0500000000000000000000000000000000000000000000000000000000ac81837900000000000000000000000000000000000000000000000000000000000000000000000000000000000000000000000000000000000000000000002000000000000000000000000000000000000000000000000000000000000000000000000000000000000000000000000000000000000000000000000000000020000000000000000000000000000000000000000000000000000000000000000167e0badb000000000000000000000000000000000000000000000000000000000000000000000000000000000000000000000000000000000000000000000020000000000000000000000000000000000000000000000000000000000000001f3354c3e10000000000000000000000000000000000000000000000000000000035142c8c0000000000000000000000000000000000000000000000000000000006c46853000000000000000000000000000000000000000000000000000000004b27aa72000000000000000000000000000000000000000000000000000000004b0694e2000000000000000000000000000000000000000000000000000000008ef3f76100000000000000000000000000000000000000000000000000000000e02d971b00000000000000000000000000000000000000000000000000000000903e693000000000000000000000000000000000000000000000000000000000948628a900000000000000000000000000000000000000000000000000000000d92e8f1200000000000000000000000000000000000000000000000000000000c7cda762000000000000000000000000000000000000000000000000000000009754b29e0000000000000000000000000000000000000000000000000000000038a210b30000000000000000000000000000000000000000000000000000000080f76021000000000000000000000000000000000000000000000000000000005dd9147c00000000000000000000000000000000000000000000000000000000d6eb591000000000000000000000000000000000000000000000000000000000332a5ac9000000000000000000000000000000000000000000000000000000001597bf7e0000000000000000000000000000000000000000000000000000000052d182d1000000000000000000000000000000000000000000000000000000001904bb2e00000000000000000000000000000000000000000000000000000000cfca28240000000000000000000000000000000000000000000000000000000040550a1c00000000000000000000000000000000000000000000000000000000d081be03000000000000000000000000000000000000000000000000000000001f3a0e410000000000000000000000000000000000000000000000000000000072d0a0e000000000000000000000000000000000000000000000000000000000599c7bd1000000000000000000000000000000000000000000000000000000009e33bd0200000000000000000000000000000000000000000000000000000000c5ab224100000000000000000000000000000000000000000000000000000000f0cf6c9600000000000000000000000000000000000000000000000000000000ad81e4d60000000000000000000000000000000000000000000000000000000080875df700000000000000000000000000000000000000000000000000000000000000000000000000000000000000000000000000000000000000000000002000000000000000000000000000000000000000000000000000000000000000030df14461000000000000000000000000000000000000000000000000000000001119697400000000000000000000000000000000000000000000000000000000e49a547d00000000000000000000000000000000000000000000000000000000000000000000000000000000000000000000000000000000000000000000002000000000000000000000000000000000000000000000000000000000000000011f931c1c00000000000000000000000000000000000000000000000000000000000000000000000000000000000000000000000000000000000000000000002000000000000000000000000000000000000000000000000000000000000000038456cb59000000000000000000000000000000000000000000000000000000005c975abb000000000000000000000000000000000000000000000000000000003f4ba83a00000000000000000000000000000000000000000000000000000000000000000000000000000000000000000000000000000000000000000000002000000000000000000000000000000000000000000000000000000000000000014e71d92d00000000000000000000000000000000000000000000000000000000000000000000000000000000000000000000000000000000000000000000002000000000000000000000000000000000000000000000000000000000000000208789f83b0000000000000000000000000000000000000000000000000000000006c46853000000000000000000000000000000000000000000000000000000002da5794a00000000000000000000000000000000000000000000000000000000dd81b5cf0000000000000000000000000000000000000000000000000000000041b6a2e80000000000000000000000000000000000000000000000000000000038d6693200000000000000000000000000000000000000000000000000000000b3ab3f7400000000000000000000000000000000000000000000000000000000ac12d763000000000000000000000000000000000000000000000000000000004aa8f8a500000000000000000000000000000000000000000000000000000000ca41d5ce00000000000000000000000000000000000000000000000000000000444ead5100000000000000000000000000000000000000000000000000000000d6c5c39700000000000000000000000000000000000000000000000000000000544dddff000000000000000000000000000000000000000000000000000000006ad21bb000000000000000000000000000000000000000000000000000000000a517218f000000000000000000000000000000000000000000000000000000009704276600000000000000000000000000000000000000000000000000000000b1ba49b000000000000000000000000000000000000000000000000000000000f3229131000000000000000000000000000000000000000000000000000000000338150f0000000000000000000000000000000000000000000000000000000094074b03000000000000000000000000000000000000000000000000000000007edeac920000000000000000000000000000000000000000000000000000000006572c1a00000000000000000000000000000000000000000000000000000000c66c66a1000000000000000000000000000000000000000000000000000000003594c3c1000000000000000000000000000000000000000000000000000000009d3070b50000000000000000000000000000000000000000000000000000000042398a9a000000000000000000000000000000000000000000000000000000005d02968500000000000000000000000000000000000000000000000000000000599c7bd10000000000000000000000000000000000000000000000000000000005aff0b3000000000000000000000000000000000000000000000000000000008cfd78e70000000000000000000000000000000000000000000000000000000002e30f9a00000000000000000000000000000000000000000000000000000000a2b67158000000000000000000000000000000000000000000000000000000000000000000000000000000000000000000000000000000000000000000000020000000000000000000000000000000000000000000000000000000000000000166e2898c0000000000000000000000000000000000000000000000000000000000000000000000000000000000000000000000000000000000000000000000200000000000000000000000000000000000000000000000000000000000000001dd8319ee00000000000000000000000000000000000000000000000000000000000000000000000000000000000000000000000000000000000000000000002000000000000000000000000000000000000000000000000000000000000000028da5cb5b00000000000000000000000000000000000000000000000000000000f2fde38b000000000000000000000000000000000000000000000000000000000000000000000000000000000000000000000000000000000000000000000020000000000000000000000000000000000000000000000000000000000000000910fd4261000000000000000000000000000000000000000000000000000000006170b1620000000000000000000000000000000000000000000000000000000041c0e1b500000000000000000000000000000000000000000000000000000000d66d9e19000000000000000000000000000000000000000000000000000000000b7fbe600000000000000000000000000000000000000000000000000000000066783c9b00000000000000000000000000000000000000000000000000000000da5d09ee000000000000000000000000000000000000000000000000000000003a4b66f1000000000000000000000000000000000000000000000000000000002e17de78000000000000000000000000000000000000000000000000000000000000000000000000000000000000000000000000000000000000000000000020000000000000000000000000000000000000000000000000000000000000000bdd62ed3e00000000000000000000000000000000000000000000000000000000095ea7b30000000000000000000000000000000000000000000000000000000070a082310000000000000000000000000000000000000000000000000000000042966c680000000000000000000000000000000000000000000000000000000079cc679000000000000000000000000000000000000000000000000000000000313ce5670000000000000000000000000000000000000000000000000000000006fdde030000000000000000000000000000000000000000000000000000000095d89b410000000000000000000000000000000000000000000000000000000018160ddd00000000000000000000000000000000000000000000000000000000a9059cbb0000000000000000000000000000000000000000000000000000000023b872dd00000000000000000000000000000000000000000000000000000000a2646970667358221220b12405d4afa358a6c0209eb4ee8a3f417db05f9ab99e782502919e7e6154b7dc64736f6c63430008180033","linkReferences":{}},"methodIdentifiers":{"resolveSelectors(string)":"66e2898c"},"id":114}