{"abi":[{"type":"function","name":"addComputePeers","inputs":[{"name":"offerId","type":"bytes32","internalType":"bytes32"},{"name":"peers","type":"tuple[]","internalType":"struct IOffer.RegisterComputePeer[]","components":[{"name":"peerId","type":"bytes32","internalType":"bytes32"},{"name":"owner","type":"address","internalType":"address"},{"name":"unitIds","type":"bytes32[]","internalType":"bytes32[]"}]}],"outputs":[],"stateMutability":"nonpayable"},{"type":"function","name":"addComputeUnits","inputs":[{"name":"peerId","type":"bytes32","internalType":"bytes32"},{"name":"unitIds","type":"bytes32[]","internalType":"bytes32[]"}],"outputs":[],"stateMutability":"nonpayable"},{"type":"function","name":"addEffector","inputs":[{"name":"offerId","type":"bytes32","internalType":"bytes32"},{"name":"newEffectors","type":"tuple[]","internalType":"struct CIDV1[]","components":[{"name":"prefixes","type":"bytes4","internalType":"bytes4"},{"name":"hash","type":"bytes32","internalType":"bytes32"}]}],"outputs":[],"stateMutability":"nonpayable"},{"type":"function","name":"changeMinPricePerCuPerEpoch","inputs":[{"name":"offerId","type":"bytes32","internalType":"bytes32"},{"name":"newMinPricePerCuPerEpoch","type":"uint256","internalType":"uint256"}],"outputs":[],"stateMutability":"nonpayable"},{"type":"function","name":"changePaymentToken","inputs":[{"name":"offerId","type":"bytes32","internalType":"bytes32"},{"name":"newPaymentToken","type":"address","internalType":"address"}],"outputs":[],"stateMutability":"nonpayable"},{"type":"function","name":"getBaseOffer","inputs":[{"name":"offerId","type":"bytes32","internalType":"bytes32"}],"outputs":[{"name":"","type":"tuple","internalType":"struct IBaseOffer.BaseOffer","components":[{"name":"provider","type":"address","internalType":"address"},{"name":"paymentToken","type":"address","internalType":"address"},{"name":"peerCount","type":"uint256","internalType":"uint256"},{"name":"minProtocolVersion","type":"uint256","internalType":"uint256"},{"name":"maxProtocolVersion","type":"uint256","internalType":"uint256"}]}],"stateMutability":"view"},{"type":"function","name":"getComputePeer","inputs":[{"name":"peerId","type":"bytes32","internalType":"bytes32"}],"outputs":[{"name":"","type":"tuple","internalType":"struct IBaseOffer.ComputePeer","components":[{"name":"offerId","type":"bytes32","internalType":"bytes32"},{"name":"commitmentId","type":"bytes32","internalType":"bytes32"},{"name":"unitCount","type":"uint256","internalType":"uint256"},{"name":"owner","type":"address","internalType":"address"}]}],"stateMutability":"view"},{"type":"function","name":"getComputeUnit","inputs":[{"name":"unitId","type":"bytes32","internalType":"bytes32"}],"outputs":[{"name":"","type":"tuple","internalType":"struct IBaseOffer.ComputeUnit","components":[{"name":"deal","type":"address","internalType":"address"},{"name":"peerId","type":"bytes32","internalType":"bytes32"},{"name":"startEpoch","type":"uint256","internalType":"uint256"},{"name":"onchainWorkerId","type":"bytes32","internalType":"bytes32"}]}],"stateMutability":"view"},{"type":"function","name":"getComputeUnitIds","inputs":[{"name":"peerId","type":"bytes32","internalType":"bytes32"}],"outputs":[{"name":"","type":"bytes32[]","internalType":"bytes32[]"}],"stateMutability":"view"},{"type":"function","name":"getComputeUnits","inputs":[{"name":"peerId","type":"bytes32","internalType":"bytes32"}],"outputs":[{"name":"","type":"tuple[]","internalType":"struct IBaseOffer.ComputeUnitView[]","components":[{"name":"id","type":"bytes32","internalType":"bytes32"},{"name":"deal","type":"address","internalType":"address"},{"name":"startEpoch","type":"uint256","internalType":"uint256"},{"name":"onchainWorkerId","type":"bytes32","internalType":"bytes32"}]}],"stateMutability":"view"},{"type":"function","name":"getEffectorInfo","inputs":[{"name":"id","type":"tuple","internalType":"struct CIDV1","components":[{"name":"prefixes","type":"bytes4","internalType":"bytes4"},{"name":"hash","type":"bytes32","internalType":"bytes32"}]}],"outputs":[{"name":"","type":"tuple","internalType":"struct IOffer.EffectorInfo","components":[{"name":"description","type":"string","internalType":"string"},{"name":"metadata","type":"tuple","internalType":"struct CIDV1","components":[{"name":"prefixes","type":"bytes4","internalType":"bytes4"},{"name":"hash","type":"bytes32","internalType":"bytes32"}]}]}],"stateMutability":"view"},{"type":"function","name":"getOffer","inputs":[{"name":"offerId","type":"bytes32","internalType":"bytes32"}],"outputs":[{"name":"","type":"tuple","internalType":"struct IOffer.Offer","components":[{"name":"provider","type":"address","internalType":"address"},{"name":"minPricePerCuPerEpoch","type":"uint256","internalType":"uint256"},{"name":"paymentToken","type":"address","internalType":"address"},{"name":"peerCount","type":"uint256","internalType":"uint256"},{"name":"minProtocolVersion","type":"uint256","internalType":"uint256"},{"name":"maxProtocolVersion","type":"uint256","internalType":"uint256"}]}],"stateMutability":"view"},{"type":"function","name":"getProviderInfo","inputs":[{"name":"provider","type":"address","internalType":"address"}],"outputs":[{"name":"","type":"tuple","internalType":"struct IBaseOffer.ProviderInfo","components":[{"name":"name","type":"string","internalType":"string"},{"name":"metadata","type":"tuple","internalType":"struct CIDV1","components":[{"name":"prefixes","type":"bytes4","internalType":"bytes4"},{"name":"hash","type":"bytes32","internalType":"bytes32"}]},{"name":"unitCount","type":"uint256","internalType":"uint256"}]}],"stateMutability":"view"},{"type":"function","name":"registerMarketOffer","inputs":[{"name":"minPricePerCuPerEpoch","type":"uint256","internalType":"uint256"},{"name":"paymentToken","type":"address","internalType":"address"},{"name":"effectors","type":"tuple[]","internalType":"struct CIDV1[]","components":[{"name":"prefixes","type":"bytes4","internalType":"bytes4"},{"name":"hash","type":"bytes32","internalType":"bytes32"}]},{"name":"peers","type":"tuple[]","internalType":"struct IOffer.RegisterComputePeer[]","components":[{"name":"peerId","type":"bytes32","internalType":"bytes32"},{"name":"owner","type":"address","internalType":"address"},{"name":"unitIds","type":"bytes32[]","internalType":"bytes32[]"}]},{"name":"minProtocolVersion","type":"uint256","internalType":"uint256"},{"name":"maxProtocolVersion","type":"uint256","internalType":"uint256"}],"outputs":[{"name":"","type":"bytes32","internalType":"bytes32"}],"stateMutability":"nonpayable"},{"type":"function","name":"removeComputePeer","inputs":[{"name":"peerId","type":"bytes32","internalType":"bytes32"}],"outputs":[],"stateMutability":"nonpayable"},{"type":"function","name":"removeComputeUnit","inputs":[{"name":"unitId","type":"bytes32","internalType":"bytes32"}],"outputs":[],"stateMutability":"nonpayable"},{"type":"function","name":"removeEffector","inputs":[{"name":"offerId","type":"bytes32","internalType":"bytes32"},{"name":"effectors","type":"tuple[]","internalType":"struct CIDV1[]","components":[{"name":"prefixes","type":"bytes4","internalType":"bytes4"},{"name":"hash","type":"bytes32","internalType":"bytes32"}]}],"outputs":[],"stateMutability":"nonpayable"},{"type":"function","name":"removeEffectorInfo","inputs":[{"name":"id","type":"tuple","internalType":"struct CIDV1","components":[{"name":"prefixes","type":"bytes4","internalType":"bytes4"},{"name":"hash","type":"bytes32","internalType":"bytes32"}]}],"outputs":[],"stateMutability":"nonpayable"},{"type":"function","name":"removeOffer","inputs":[{"name":"offerId","type":"bytes32","internalType":"bytes32"}],"outputs":[],"stateMutability":"nonpayable"},{"type":"function","name":"setEffectorInfo","inputs":[{"name":"id","type":"tuple","internalType":"struct CIDV1","components":[{"name":"prefixes","type":"bytes4","internalType":"bytes4"},{"name":"hash","type":"bytes32","internalType":"bytes32"}]},{"name":"description","type":"string","internalType":"string"},{"name":"metadata","type":"tuple","internalType":"struct CIDV1","components":[{"name":"prefixes","type":"bytes4","internalType":"bytes4"},{"name":"hash","type":"bytes32","internalType":"bytes32"}]}],"outputs":[],"stateMutability":"nonpayable"},{"type":"function","name":"setProviderInfo","inputs":[{"name":"name","type":"string","internalType":"string"},{"name":"metadata","type":"tuple","internalType":"struct CIDV1","components":[{"name":"prefixes","type":"bytes4","internalType":"bytes4"},{"name":"hash","type":"bytes32","internalType":"bytes32"}]}],"outputs":[],"stateMutability":"nonpayable"},{"type":"event","name":"ComputeUnitCreated","inputs":[{"name":"peerId","type":"bytes32","indexed":true,"internalType":"bytes32"},{"name":"unitId","type":"bytes32","indexed":false,"internalType":"bytes32"}],"anonymous":false},{"type":"event","name":"ComputeUnitRemoved","inputs":[{"name":"peerId","type":"bytes32","indexed":true,"internalType":"bytes32"},{"name":"unitId","type":"bytes32","indexed":true,"internalType":"bytes32"}],"anonymous":false},{"type":"event","name":"EffectorAdded","inputs":[{"name":"offerId","type":"bytes32","indexed":true,"internalType":"bytes32"},{"name":"effector","type":"tuple","indexed":false,"internalType":"struct CIDV1","components":[{"name":"prefixes","type":"bytes4","internalType":"bytes4"},{"name":"hash","type":"bytes32","internalType":"bytes32"}]}],"anonymous":false},{"type":"event","name":"EffectorInfoRemoved","inputs":[{"name":"id","type":"tuple","indexed":false,"internalType":"struct CIDV1","components":[{"name":"prefixes","type":"bytes4","internalType":"bytes4"},{"name":"hash","type":"bytes32","internalType":"bytes32"}]}],"anonymous":false},{"type":"event","name":"EffectorInfoSet","inputs":[{"name":"id","type":"tuple","indexed":false,"internalType":"struct CIDV1","components":[{"name":"prefixes","type":"bytes4","internalType":"bytes4"},{"name":"hash","type":"bytes32","internalType":"bytes32"}]},{"name":"description","type":"string","indexed":false,"internalType":"string"},{"name":"metadata","type":"tuple","indexed":false,"internalType":"struct CIDV1","components":[{"name":"prefixes","type":"bytes4","internalType":"bytes4"},{"name":"hash","type":"bytes32","internalType":"bytes32"}]}],"anonymous":false},{"type":"event","name":"EffectorRemoved","inputs":[{"name":"offerId","type":"bytes32","indexed":true,"internalType":"bytes32"},{"name":"effector","type":"tuple","indexed":false,"internalType":"struct CIDV1","components":[{"name":"prefixes","type":"bytes4","internalType":"bytes4"},{"name":"hash","type":"bytes32","internalType":"bytes32"}]}],"anonymous":false},{"type":"event","name":"MarketOfferRegistered","inputs":[{"name":"provider","type":"address","indexed":true,"internalType":"address"},{"name":"offerId","type":"bytes32","indexed":false,"internalType":"bytes32"},{"name":"minPricePerCuPerEpoch","type":"uint256","indexed":false,"internalType":"uint256"},{"name":"paymentToken","type":"address","indexed":false,"internalType":"address"},{"name":"effectors","type":"tuple[]","indexed":false,"internalType":"struct CIDV1[]","components":[{"name":"prefixes","type":"bytes4","internalType":"bytes4"},{"name":"hash","type":"bytes32","internalType":"bytes32"}]},{"name":"minProtocolVersion","type":"uint256","indexed":false,"internalType":"uint256"},{"name":"maxProtocolVersion","type":"uint256","indexed":false,"internalType":"uint256"}],"anonymous":false},{"type":"event","name":"MarketOfferRemoved","inputs":[{"name":"offerId","type":"bytes32","indexed":true,"internalType":"bytes32"}],"anonymous":false},{"type":"event","name":"MinPricePerCuPerEpochUpdated","inputs":[{"name":"offerId","type":"bytes32","indexed":true,"internalType":"bytes32"},{"name":"minPricePerCuPerEpoch","type":"uint256","indexed":false,"internalType":"uint256"}],"anonymous":false},{"type":"event","name":"PaymentTokenUpdated","inputs":[{"name":"offerId","type":"bytes32","indexed":true,"internalType":"bytes32"},{"name":"paymentToken","type":"address","indexed":false,"internalType":"address"}],"anonymous":false},{"type":"event","name":"PeerCreated","inputs":[{"name":"offerId","type":"bytes32","indexed":true,"internalType":"bytes32"},{"name":"peerId","type":"bytes32","indexed":false,"internalType":"bytes32"},{"name":"owner","type":"address","indexed":false,"internalType":"address"}],"anonymous":false},{"type":"event","name":"PeerRemoved","inputs":[{"name":"offerId","type":"bytes32","indexed":true,"internalType":"bytes32"},{"name":"peerId","type":"bytes32","indexed":true,"internalType":"bytes32"}],"anonymous":false},{"type":"event","name":"ProtocolVersionUpgraded","inputs":[{"name":"offerId","type":"bytes32","indexed":true,"internalType":"bytes32"},{"name":"minProtocolVersion","type":"uint256","indexed":false,"internalType":"uint256"},{"name":"maxProtocolVersion","type":"uint256","indexed":false,"internalType":"uint256"}],"anonymous":false},{"type":"event","name":"ProviderInfoUpdated","inputs":[{"name":"provider","type":"address","indexed":true,"internalType":"address"},{"name":"name","type":"string","indexed":false,"internalType":"string"},{"name":"metadata","type":"tuple","indexed":false,"internalType":"struct CIDV1","components":[{"name":"prefixes","type":"bytes4","internalType":"bytes4"},{"name":"hash","type":"bytes32","internalType":"bytes32"}]}],"anonymous":false}],"bytecode":{"object":"0x608080604052346015576138f7908161001a8239f35b5f80fdfe60806040526004361015610011575f80fd5b5f3560e01c8063087b97ba146120805780630bcee1a214611fde57806319c671ca14611ea957806334205efd14611d1c5780633591187c14611904578063428c46e51461184157806362ac63fa1461178f578063745e920b1461173957806374920a9d146116035780637583902f1461153b57806386e68254146114e457806391d27f711461139a5780639faf0d201461115a578063b017191a146110e2578063b6015c6e14610c1c578063b6b9084e14610b52578063c685738e14610950578063d597b8c814610877578063da74336a1461061c578063edd9db67146101b45763f46bcb1d14610100575f80fd5b346101b05760403660031901126101b05761019e600435805f525f805160206137e283398151915260205261015c60405f2061014660018060a01b0382541615156122b2565b60016004820154101590816101a0575b5061256b565b5f8181525f805160206137e28339815191526020526040902054610195906001600160a01b031661018e8115156122b2565b33146122fb565b60243590612ec0565b005b600191506005015411155f610156565b5f80fd5b346101b05760c03660031901126101b0576101cd612170565b6044356001600160401b0381116101b0576101ec9036906004016121c3565b9091906064356001600160401b0381116101b05761020e903690600401612226565b909160016084351480610610575b61022590612e5e565b5f805160206138828339815191529360405160208101907febbe29d10864671a7296ae5158eb0df8533e86c62e6a8460f3029ae682538c5182523360601b6040820152436054820152365f60748301376102926074823681015f838201520301601f1981018352826123fc565b5190209460018060a01b0333165f526020526102b160405f20546124c9565b156105d2575f8581525f805160206137e283398151915260205260409020600201546001600160a01b0316610596576001600160a01b0316946102f586151561274c565b7f60ac4d56f7e69877e4b95a6e91f4b3612278b580a93ea7637885a480e015031a54600110610551577f60ac4d56f7e69877e4b95a6e91f4b3612278b580a93ea7637885a480e015031b5460011161050d57855f525f805160206138a283398151915260205261036b60ff60405f2054166127a9565b604051610377816123e1565b3381525f602080830182815260408085018b81526060860185815260016080880181815260a089018281528e89525f805160206137e2833981519152885297859020985189546001600160a01b03199081166001600160a01b03928316178b559651928a01929092559251600289018054909616911617909355915160038601559051600485015591516005939093019290925551909661041888836123fc565b5f82526040519060c08201908883525f8a840152604083015260c0606083015282518091528860e083019301905f5b8a8282106104ef5750505050907f02b4bfba88db81e84c717b16bf874a79ecc39de3944a9f18dd7122ae32f0990782600160806104959796950152600160a08201528033930390a285612cee565b6104a160043584612ec0565b5f5b8181106104b557505050604051908152f35b806104e96104c6600193858761265e565b6104d1888201612694565b906104df60408201826126a8565b9290913589612b0f565b016104a3565b60408661050286986001959697516121aa565b019501929101610447565b60405162461bcd60e51b815260206004820152601c60248201527b4d61782070726f746f636f6c2076657273696f6e20746f6f2062696760201b6044820152606490fd5b60405162461bcd60e51b815260206004820152601e60248201527f4d696e2070726f746f636f6c2076657273696f6e20746f6f20736d616c6c00006044820152606490fd5b60405162461bcd60e51b81526020600482015260146024820152734f6666657220616c72656164792065786973747360601b6044820152606490fd5b60405162461bcd60e51b8152602060048201526016602482015275141c9bdd9a59195c88191bd95cdb89dd08195e1a5cdd60521b6044820152606490fd5b5060a43560011461021c565b346101b057366003190160a081126101b0576040136101b0576044356001600160401b0381116101b057610654903690600401612285565b9060403660631901126101b0576106696128c0565b81156108325761068061067b36612460565b612943565b5f9081525f805160206137c283398151915260205260409020916001600160401b03811161081e576106b283546124c9565b601f81116107e3575b505f81601f811160011461078057806106e8925f91610775575b508160011b915f199060031b1c19161790565b83555b606435600184016001600160e01b031982168083036101b0577f07e6a99b56bd76df684b4e8200a585d033be87a4728f1b66545d48c61bfc405e956002928460e01c63ffffffff1982541617905560843592839101556107646040519586956107538761252a565b60a0604088015260a0870191612e3e565b9250606084015260808301520390a1005b9050840135866106d5565b50601f19821690845f528260205f20925f5b8181106107c85750106107af575b5050600181811b0183556106eb565b8301355f19600384901b60f8161c1916905583806107a0565b86840135855560019094019360209384019386935001610792565b61080e90845f5260205f20601f840160051c81019160208510610814575b601f0160051c0190612501565b836106bb565b9091508190610801565b634e487b7160e01b5f52604160045260245ffd5b60405162461bcd60e51b815260206004820152601f60248201527f4465736372697074696f6e2073686f756c64206265206e6f7420656d707479006044820152606490fd5b346101b05760203660031901126101b05761089061270f565b5061089961270f565b506004355f525f805160206137e283398151915260205260c060405f2060018060a01b03815416906108cc8215156122b2565b604051906108d9826123e1565b82825260018101546020830190815260018060a01b03600283015416604084019081526003830154916060850192835260a06005600486015495608088019687520154950194855260405195865251602086015260018060a01b0390511660408501525160608401525160808301525160a0820152f35b346101b05760603660031901126101b0576004356001600160401b0381116101b057610980903690600401612285565b9060403660231901126101b0578115610b1257335f9081525f8051602061388283398151915260205260409020916001600160401b03811161081e576109c683546124c9565b601f8111610ae2575b505f81601f8111600114610a7f57806109fb925f9161077557508160011b915f199060031b1c19161790565b83555b602435926001600160e01b03198416600182018186036101b0577f25909849cdf41a66fb9d72a68c492d440847318f46672d5f21aed036bc2a3c5c94600293610a6b928860e01c63ffffffff19825416179055604435948591015560405194606086526060860191612e3e565b9450602083015260408201528033930390a2005b50601f19821690845f528260205f20925f5b818110610ac7575010610aae575b5050600181811b0183556109fe565b8301355f19600384901b60f8161c191690558380610a9f565b86840135855560019094019360209384019386935001610a91565b610b0c90845f5260205f20601f840160051c8101916020851061081457601f0160051c0190612501565b836109cf565b60405162461bcd60e51b81526020600482015260186024820152774e616d652073686f756c64206265206e6f7420656d70747960401b6044820152606490fd5b346101b05761019e610b6336612256565b91610b6d81612a92565b515f525f805160206137e2833981519152602052610bb160405f20610b9c60018060a01b0382541615156122b2565b6001600482015410159081610c0c575061256b565b805f525f805160206137a283398151915260205260405f2054610bd58115156125c7565b5f9081525f805160206137e28339815191526020526040902054610c07906001600160a01b031661018e8115156122b2565b612fa0565b6001915060050154111586610156565b346101b05760203660031901126101b057600435805f525f8051602061386283398151915260205260405f20604051808260208294549384815201905f5260205f20925f5b8181106110c9575050610c76925003826123fc565b805191610c8283612e13565b92610c9060405194856123fc565b808452610c9f601f1991612e13565b015f5b8181106110b25750505f525f805160206137a2833981519152602052600160405f2001545f9080610dc9575b505f5b8251811015610d5c5780610ce760019285612e2a565b51805f525f8051602061384283398151915260205260405f2060028101548015610d55575b6003858060a01b038354169201549160405193610d28856123c6565b8452602084015260408301526060820152610d438287612e2a565b52610d4e8186612e2a565b5001610cd1565b5084610d0c565b836040518091602082016020835281518091526020604084019201905f5b818110610d88575050500390f35b91935091602060806001926060875180518352858060a01b038582015116858401526040810151604084015201516060820152019401910191849392610d7a565b90505f610140604051610ddb816123aa565b8281528260208201528260408201528260608201528260808201528260a08201528260c08201528260e0820152826101008201528261012082015201525f527fa8de0abb18de6e730ac24d7fe02c877d293683811fc3ac5d8e62e2a52c0d20d760205260405f206001810154801561106357610ea3610e7b7f7d4f8ec43464738265ced6b7ed5f90007e9b7c34318bdd82d9249328b50bd357544261273f565b7f7d4f8ec43464738265ced6b7ed5f90007e9b7c34318bdd82d9249328b50bd3585490613332565b6001018060011161104f57600683015492600381015490610ec48286612f93565b610ecd85612a92565b90604051610eda81612359565b610ee2613350565b81526020810191610ef1613350565b8352610f0260ff8654168351613326565b600c8501546020835101526008850154604083510152600a850154606083510152600b850154608083510152600985015460a083510152600785015460c08351015281515196600688101561103b5784610fb293610f646101409a8751613326565b60208151015160208751015260408151015160408751015260608151015160608751015260808151015160808751015260a08151015160a08751015260c08151015160c08751015287613396565b93610fc7604060028601549401519189612f93565b60048501549160018060a01b03600587015416935194600d602060408801519701519701549961100360405199610ffd8b6123aa565b8a613326565b60208901526040880152606087015288608087015260a086015260c085015260e0840152610100830152610120820152015283610cce565b634e487b7160e01b5f52602160045260245ffd5b634e487b7160e01b5f52601160045260245ffd5b60405162461bcd60e51b815260206004820152602160248201527f436170616369747920636f6d6d69746d656e7420646f65736e277420657869736044820152601d60fa1b6064820152608490fd5b6020906110bd61263a565b82828801015201610ca2565b8454835260019485019486945060209093019201610c61565b346101b05761019e6110f3366121f3565b91805f525f805160206137e283398151915260205261112360405f20610b9c60018060a01b0382541615156122b2565b5f8181525f805160206137e28339815191526020526040902054611155906001600160a01b031661018e8115156122b2565b612cee565b346101b05760203660031901126101b05760043561117781612a92565b515f525f805160206137e28339815191526020526111bb60405f206111a660018060a01b0382541615156122b2565b600160048201541015908161138a575061256b565b805f525f805160206137a283398151915260205260405f20546111df8115156125c7565b5f9081525f805160206137e28339815191526020526040902054611211906001600160a01b031661018e8115156122b2565b805f525f805160206137a283398151915260205260405f20805490815f525f805160206137e2833981519152602052600260405f2091611252841515612a51565b8254611268906001600160a01b031633146122fb565b015461134c57600301805480156112d65761128290612f87565b9055815f525f805160206137a28339815191526020525f60036040822082815582600182015582600282015501557f5f91ba2d62c13db8e4353c3b2d314e715907459581a42b764f350231f8ee0cf35f80a3005b60405162461bcd60e51b815260206004820152604260248201527f4c6962426173654f666665723a20617474656d707420746f2072656d6f76652060448201527f6120706565722066726f6d20616e206f6666657220776974686f757420706565606482015261727360f01b608482015260a490fd5b60405162461bcd60e51b8152602060048201526016602482015275506565722068617320636f6d7075746520756e69747360501b6044820152606490fd5b6001915060050154111583610156565b346101b05760203660031901126101b057600435805f525f805160206137e28339815191526020526113dd60405f206111a660018060a01b0382541615156122b2565b5f8181525f805160206137e2833981519152602052604090205461140f906001600160a01b031661018e8115156122b2565b805f525f805160206137e2833981519152602052600360405f2061144160018060a01b0382541661018e8115156122b2565b01546114a557805f525f805160206137e28339815191526020525f60056040822082815582600182015582600282015582600382015582600482015501557f0e2c810360f652bf120515b49756167e4b196601c40ce83c5df5a8fa22d7f9b85f80a2005b60405162461bcd60e51b81526020600482015260176024820152764f666665722068617320636f6d7075746520706565727360481b6044820152606490fd5b346101b05760203660031901126101b0576114fd61263a565b50608061150b600435612a92565b60405190805182526020810151602083015260408101516040830152606060018060a01b03910151166060820152f35b346101b05760203660031901126101b0576004356001600160a01b03811681036101b0576115676126dd565b506115706126dd565b506001600160a01b03165f9081525f8051602061388283398151915260205260409081902090516115ed916115a48261238f565b6115ad816127f4565b825260036115bd60018301612894565b91602084019283520154604083019081526115f960405194859460208652516080602087015260a0860190612186565b925160408501906121aa565b5160808301520390f35b346101b05761161136612256565b9190815f525f805160206137e283398151915260205261165760405f2061164260018060a01b0382541615156122b2565b6001600482015410159081611729575061256b565b5f8281525f805160206137e28339815191526020526040902054611689906001600160a01b031661018e8115156122b2565b82156116d5575f5b83811061169a57005b806116cf6116ab600193878661265e565b6116b760208201612694565b906116c560408201826126a8565b9290913588612b0f565b01611691565b60405162461bcd60e51b815260206004820152602660248201527f4f666665723a2070656572732061727261792073686f756c64206e6f7420626560448201526520656d70747960d01b6064820152608490fd5b6001915060050154111585610156565b346101b05760203660031901126101b05761175261263a565b5060806117606004356129d1565b60606040519160018060a01b038151168352602081015160208401526040810151604084015201516060820152f35b346101b05760203660031901126101b0576004355f525f8051602061386283398151915260205260405f20604051806020835491828152019081935f5260205f20905f5b81811061182b57505050816117e99103826123fc565b604051918291602083019060208452518091526040830191905f5b818110611812575050500390f35b8251845285945060209384019390920191600101611804565b82548452602090930192600192830192016117d3565b346101b05760203660031901126101b05761185a612610565b50611863612610565b506004355f525f805160206137e283398151915260205260a060405f20600180831b03815416906118958215156122b2565b600180841b03600282015416906003810154600560048301549201549260806040516118c081612374565b86815260208101928352604081019384526060810194855201938452604051948552600180871b039051166020850152516040840152516060830152516080820152f35b346101b05760203660031901126101b0576004355f8051602061388283398151915261193b6020611934846129d1565b0151612a92565b515f525f805160206137e283398151915260205261197f60405f2061196a60018060a01b0382541615156122b2565b6001600482015410159081611d0c575061256b565b815f525f80516020613842833981519152602052600160405f2001548015611cca575f525f805160206137a283398151915260205260405f20546119c48115156125c7565b5f9081525f805160206137e283398151915260205260409020546119f6906001600160a01b031661018e8115156122b2565b815f525f8051602061384283398151915260205260405f2090600182015491611a20831515612988565b5f8381525f805160206137a283398151915260209081526040808320805484525f805160206137e28339815191528352818420546001600160a01b03168085529590925290912092909190611a76903314612e5e565b6001820154611c8f57546001600160a01b0316611c50576002018054918215611bec5760030191825415611b8357611aad90612f87565b9055611ab98154612f87565b9055805f525f80516020613862833981519152602052611adc8260405f20613672565b15611b3357815f525f805160206138428339815191526020525f60036040822082815582600182015582600282015501557f5abefe0a1fb3d6df34b14e459422791829e024e367c6df8eaf0bf218cf42fb365f80a3005b60405162461bcd60e51b815260206004820152602260248201527f496e76616c69642072656d6f76652066726f6d20656e756d657261626c652073604482015261195d60f21b6064820152608490fd5b60405162461bcd60e51b815260206004820152604860248201525f8051602061382283398151915260448201527f75746520756e697420626563617573652070726f766964657220686173207a65606482015267726f20756e69747360c01b608482015260a490fd5b60a460405162461bcd60e51b815260206004820152604460248201525f8051602061382283398151915260448201527f75746520756e69742062656361757365207065657220686173207a65726f20756064820152636e69747360e01b6084820152fd5b60405162461bcd60e51b815260206004820152601760248201527610dbdb5c1d5d19481d5b9a5d081a5cc81a5b881919585b604a1b6044820152606490fd5b60405162461bcd60e51b81526020600482015260136024820152721419595c881a185cc818dbdb5b5a5d1b595b9d606a1b6044820152606490fd5b60405162461bcd60e51b815260206004820152601a60248201527913d999995c8e881d5b9a5d08191bd95cc81b9bdd08195e1a5cdd60321b6044820152606490fd5b6001915060050154111584610156565b346101b057611d2a366121f3565b825f525f805160206137e2833981519152602052611d5960405f2061164260018060a01b0382541615156122b2565b5f8381525f805160206137e28339815191526020526040902054611d8b906001600160a01b031661018e8115156122b2565b5f8381525f805160206137e28339815191526020526040902054611db9906001600160a01b031633146122fb565b5f5b818110611dc457005b611dcf818385612978565b90611ddd61067b368461249a565b855f525f8051602061380283398151915260205260405f20815f5260205260ff60405f20541615611e6b577f5151d310b0333d894aac0234a4665be715d061a6fbf0f84ce313f315a8272dce60406001948893845f525f80516020613802833981519152602052825f20905f52602052815f2060ff198154169055611e648251809261254a565ba201611dbb565b60405162461bcd60e51b81526020600482015260166024820152751159999958dd1bdc88191bd95cdb89dd08195e1a5cdd60521b6044820152606490fd5b346101b05760403660031901126101b057611ec26128c0565b611ece61067b36612460565b805f525f805160206137c2833981519152602052611eef60405f20546124c9565b15611f9b575f525f805160206137c28339815191526020525f600260408220611f1881546124c9565b80611f58575b5082600182015501557f735be6859fb325819656a18d6683153766e980fb5bc8822c2a757810ad46599760408051611f558161252a565ba1005b601f8111600114611f6e57508281555b83611f1e565b81845260208420611f8a91601f0160051c810190600101612501565b808352826020812081835555611f68565b60405162461bcd60e51b815260206004820152601b60248201527a1159999958dd1bdc881a5b999bc8191bd95cdb89dd08195e1a5cdd602a1b6044820152606490fd5b346101b05760403660031901126101b057611ff761241f565b5061200061241f565b5061200d61067b36612460565b5f525f805160206137c283398151915260205261207060405f2061204a60016040519261203984612359565b612042816127f4565b845201612894565b6020820190815261207c6040519384936020855251606060208601526080850190612186565b915160408401906121aa565b0390f35b346101b05760403660031901126101b0576004357f69320c1eb39a752844ba207d2f98bd240d07dabf1449b4c1bd432daea12b744a60206120bf612170565b5f8481525f805160206137e2833981519152835260409020546120f0906001600160a01b031661018e8115156122b2565b835f525f805160206137e28339815191528252600260405f209161211e3360018060a01b03855416146122fb565b6001600160a01b03169161213383151561274c565b825f525f805160206138a2833981519152845261215660ff60405f2054166127a9565b0180546001600160a01b03191682179055604051908152a2005b602435906001600160a01b03821682036101b057565b805180835260209291819084018484015e5f828201840152601f01601f1916010190565b80516001600160e01b0319168252602090810151910152565b9181601f840112156101b0578235916001600160401b0383116101b0576020808501948460061b0101116101b057565b9060406003198301126101b05760043591602435906001600160401b0382116101b057612222916004016121c3565b9091565b9181601f840112156101b0578235916001600160401b0383116101b0576020808501948460051b0101116101b057565b9060406003198301126101b05760043591602435906001600160401b0382116101b05761222291600401612226565b9181601f840112156101b0578235916001600160401b0383116101b057602083818601950101116101b057565b156122b957565b60405162461bcd60e51b815260206004820152601a60248201527913d999995c8e881bd999995c88191bd95cdb89dd08195e1a5cdd60321b6044820152606490fd5b1561230257565b60405162461bcd60e51b815260206004820152602960248201527f4f666665723a206f6e6c792070726f76696465722063616e2063616c6c2074686044820152681a5cc81b595d1a1bd960ba1b6064820152608490fd5b604081019081106001600160401b0382111761081e57604052565b60a081019081106001600160401b0382111761081e57604052565b606081019081106001600160401b0382111761081e57604052565b61016081019081106001600160401b0382111761081e57604052565b608081019081106001600160401b0382111761081e57604052565b60c081019081106001600160401b0382111761081e57604052565b601f909101601f19168101906001600160401b0382119082101761081e57604052565b6040519061242c82612359565b6060825260405160208361243f83612359565b5f83525f828401520152565b35906001600160e01b0319821682036101b057565b60409060031901126101b0576040519061247982612359565b816004356001600160e01b0319811681036101b05781526020602435910152565b91908260409103126101b0576040516124b281612359565b60208082946124c08161244b565b84520135910152565b90600182811c921680156124f7575b60208310146124e357565b634e487b7160e01b5f52602260045260245ffd5b91607f16916124d8565b81811061250c575050565b5f8155600101612501565b8181029291811591840414171561104f57565b60043563ffffffff60e01b81168091036101b05781526020602435910152565b60209081906001600160e01b03196125618261244b565b1684520135910152565b1561257257565b60405162461bcd60e51b815260206004820152602760248201527f4f666665723a206d6574686f64206f6e6c7920776f726b732077697468205631604482015266206f666665727360c81b6064820152608490fd5b156125ce57565b60405162461bcd60e51b815260206004820152601a60248201527913d999995c8e881c19595c88191bd95cc81b9bdd08195e1a5cdd60321b6044820152606490fd5b6040519061261d82612374565b5f6080838281528260208201528260408201528260608201520152565b60405190612647826123c6565b5f6060838281528260208201528260408201520152565b91908110156126805760051b81013590605e19813603018212156101b0570190565b634e487b7160e01b5f52603260045260245ffd5b356001600160a01b03811681036101b05790565b903590601e19813603018212156101b057018035906001600160401b0382116101b057602001918160051b360383136101b057565b604051906126ea8261238f565b5f6040836060815281516126fd81612359565b83815283602082015260208201520152565b6040519061271c826123e1565b5f60a0838281528260208201528260408201528260608201528260808201520152565b9190820391821161104f57565b1561275357565b60405162461bcd60e51b815260206004820152602860248201527f5061796d656e7420746f6b656e2073686f756c64206265206e6f74207a65726f604482015267206164647265737360c01b6064820152608490fd5b156127b057565b60405162461bcd60e51b815260206004820152601c60248201527b14185e5b595b9d081d1bdad95b881a5cc81b9bdd08185b1b1bddd95960221b6044820152606490fd5b9060405191825f825492612807846124c9565b8084529360018116908115612872575060011461282e575b5061282c925003836123fc565b565b90505f9291925260205f20905f915b81831061285657505090602061282c928201015f61281f565b602091935080600191548385890101520191019091849261283d565b90506020925061282c94915060ff191682840152151560051b8201015f61281f565b906040516128a181612359565b825460e01b6001600160e01b0319168152600192909201546020830152565b7fc8fcad8db84d3cc18b4c41d551ea0ee66dd599cde068d998e57d5e09332c1320546001600160a01b031633036128f357565b60405162461bcd60e51b815260206004820152602260248201527f4c69624469616d6f6e643a204d75737420626520636f6e7472616374206f776e60448201526132b960f11b6064820152608490fd5b602063ffffffff60e01b82511691015160405190602082019283526024820152602481526129726044826123fc565b51902090565b91908110156126805760061b0190565b1561298f57565b60405162461bcd60e51b815260206004820152601a60248201527910dbdb5c1d5d19481d5b9a5d08191bd95cdb89dd08195e1a5cdd60321b6044820152606490fd5b6129d961263a565b50805f525f80516020613842833981519152602052612a00600160405f2001541515612988565b5f525f8051602061384283398151915260205260405f20600360405191612a26836123c6565b80546001600160a01b0316835260018101546020840152600281015460408401520154606082015290565b15612a5857565b60405162461bcd60e51b81526020600482015260126024820152711419595c88191bd95cdb89dd08195e1a5cdd60721b6044820152606490fd5b612a9a61263a565b50805f525f805160206137a2833981519152602052612abe60405f20541515612a51565b5f525f805160206137a283398151915260205260405f2060405190612ae2826123c6565b805482526001810154602083015260028101546040830152600301546001600160a01b0316606082015290565b93929193815f525f805160206137a283398151915260205260405f20815f525f805160206137e283398151915260205260405f208154612c8e578315612c37576001600160a01b03871615612bda57828255600391820180546001600160a01b0319166001600160a01b039098169790971787550180545f19811461104f5760010190559354604080518381526001600160a01b03909216602083015261282c95917f2a9c96970c242b218486fb3338450a874ff7ccad1fcad3d89b2781f48ece88d09190a2612fa0565b60405162461bcd60e51b815260206004820152602f60248201527f4c6962426173654f666665723a204f776e657220616464726573732073686f7560448201526e6c64206265206e6f7420656d70747960881b6064820152608490fd5b60405162461bcd60e51b815260206004820152602960248201527f4c6962426173654f666665723a20506565722069642073686f756c64206265206044820152686e6f7420656d70747960b81b6064820152608490fd5b60405162461bcd60e51b815260206004820152603260248201527f4c6962426173654f666665723a205065657220616c7265616479206578697374604482015271399034b71030b737ba3432b91037b33332b960711b6064820152608490fd5b909291815f525f805160206137e2833981519152602052612d1c60018060a01b0360405f20541633146122fb565b5f5b818110612d2c575050509050565b612d37818387612978565b90612d4561067b368461249a565b845f525f8051602061380283398151915260205260405f20815f5260205260ff60405f205416612dd4577f3c96a39027441c49cc91433cc2f6a915b4aa9be8119e89e1ee6700fe60eb253160406001948793845f525f80516020613802833981519152602052825f20905f52602052815f208660ff19825416179055612dcd8251809261254a565ba201612d1e565b60405162461bcd60e51b81526020600482015260176024820152764566666563746f7220616c72656164792065786973747360481b6044820152606490fd5b6001600160401b03811161081e5760051b60200190565b80518210156126805760209160051b010190565b908060209392818452848401375f828201840152601f01601f1916010190565b15612e6557565b60405162461bcd60e51b815260206004820152602d60248201527f4f666665723a2070726f746f636f6c2076657273696f6e206d69736d6174636860448201526c2c20726571756972656420763160981b6064820152608490fd5b90815f525f805160206137e283398151915260205260405f20612eed60018060a01b0382541633146122fb565b8115612f2657817fe1ee92410921704d98c80cd8205bc1af1be59a37950d466e1f8367ce56b868f19260016020930155604051908152a2565b60405162461bcd60e51b815260206004820152603360248201527f4d696e20707269636520706572204355207065722065706f63682073686f756c6044820152720642062652067726561746572207468616e203606c1b6064820152608490fd5b801561104f575f190190565b9190820180921161104f57565b5f8181525f805160206137a283398151915260209081526040808320805484525f805160206137e28339815191528352818420546001600160a01b031684525f8051602061388283398151915290925290912091949093909181156132c5576003019361300e828654612f93565b7f60ac4d56f7e69877e4b95a6e91f4b3612278b580a93ea7637885a480e015031c5410613266575f5b8281101561323f578060051b8501359081156131e857815f525f80516020613842833981519152602052600160405f20015461319157604051613079816123c6565b5f80825260208083018b81526040808501848152606086018581528886525f805160206138428339815191528552828620965187546001600160a01b0319166001600160a01b0391909116178755925160018701555160028601559051600394909401939093558a82525f805160206138628339815191529052206130ff90839061374d565b1561313857877f47026182b34ce173abdac328faf5c45bef1648cf75d4b88723a745c9ee792c196020600194604051908152a201613037565b60405162461bcd60e51b815260206004820152602b60248201527f4c6962426173654f666665723a20496e76616c69642061646420746f20656e7560448201526a1b595c98589b19481cd95d60aa1b6064820152608490fd5b60405162461bcd60e51b815260206004820152602960248201527f4c6962426173654f666665723a20436f6d7075746520756e697420616c72656160448201526864792065786973747360b81b6064820152608490fd5b60405162461bcd60e51b815260206004820152602960248201527f4c6962426173654f666665723a20556e69742069642073686f756c64206265206044820152686e6f7420656d70747960b81b6064820152608490fd5b50909360029295506132629350613257858254612f93565b905501918254612f93565b9055565b60405162461bcd60e51b815260206004820152603160248201527f4c6962426173654f666665723a204578636565646564206d6178204355206e7560448201527036b132b9103832b910283937bb34b232b960791b6064820152608490fd5b60405162461bcd60e51b815260206004820152603360248201527f4c6962426173654f666665723a20756e697473206c656e6774682073686f756c6044820152720642062652067726561746572207468616e203606c1b6064820152608490fd5b600682101561103b5752565b811561333c570490565b634e487b7160e01b5f52601260045260245ffd5b6040519060e082016001600160401b0381118382101761081e576040525f60c0838281528260208201528260408201528260608201528260808201528260a08201520152565b919293906020019283515191600683101561103b5760a085510151925f1987019680881161104f5760068896015480155f146133da57505050505050505050600290565b116136515760018114801590613647575b61363d57506001955f19820191821161104f57811115613632575b507f8984d2d0d7a9f2f70f22692c7c8344aa50cbed8c00a03c924457a31793ee8fdb54845192606084015192608085015160408601519560c087910151945f93868811613616575b6040015161345b91612517565b946134818361347c61346d888d61273f565b613477838c612f93565b612517565b61273f565b8082106135f9575b505084871015613509575b5050505050506040835101528151608081015190816134ea575b5050600683101561103b575f9160c091600185036134d3575b60a08251015251015290565b836060835101526134e5858351613326565b6134c7565b60606134f99101918251612f93565b90525f6080835101525f806134ae565b90929498508361351c929496509561273f565b60049790929083821061355d57505050506001810180911161354a576020845101525b5f8080808080613494565b601185634e487b7160e01b5f525260245ffd5b6135709261356a91612f93565b9261273f565b9061357b8183613332565b8060010191826001116135e657829381156135d357066135ac575b50506135a191612f93565b60208451015261353f565b600201915081106135c0576135a15f613596565b601186634e487b7160e01b5f525260245ffd5b60128a634e487b7160e01b5f525260245ffd5b601189634e487b7160e01b5f525260245ffd5b61360e9298916136089161273f565b90612f93565b955f80613489565b935061345b906040613628888a61273f565b959192505061344e565b5f9550925084613406565b9550505050505090565b50838711156133eb565b50505050505050600390565b8054821015612680575f5260205f2001905f90565b906001820191815f528260205260405f20548015155f14613745575f19810181811161104f5782545f1981019190821161104f578181036136fa575b505050805480156136e6575f1901906136c7828261365d565b8154905f199060031b1b19169055555f526020525f6040812055600190565b634e487b7160e01b5f52603160045260245ffd5b61373061370a61371a938661365d565b90549060031b1c9283928661365d565b819391549060031b91821b915f19901b19161790565b90555f528360205260405f20555f80806136ae565b505050505f90565b6001810190825f528160205260405f2054155f1461379a578054600160401b81101561081e5761378761371a82600187940185558461365d565b905554915f5260205260405f2055600190565b5050505f9056fe88681cafafd55573d275926fd208ef2ba36c6dd5169e88841d4bc9bcd225302188681cafafd55573d275926fd208ef2ba36c6dd5169e88841d4bc9bcd225302588681cafafd55573d275926fd208ef2ba36c6dd5169e88841d4bc9bcd225302088681cafafd55573d275926fd208ef2ba36c6dd5169e88841d4bc9bcd22530234c6962426173654f666665723a2063616e6e6f742072656d6f766520636f6d7088681cafafd55573d275926fd208ef2ba36c6dd5169e88841d4bc9bcd225302288681cafafd55573d275926fd208ef2ba36c6dd5169e88841d4bc9bcd225302488681cafafd55573d275926fd208ef2ba36c6dd5169e88841d4bc9bcd225301f60ac4d56f7e69877e4b95a6e91f4b3612278b580a93ea7637885a480e015031da2646970667358221220465c54201dd3e8fe5ab3346f1771e2fb17bc481b6f4f1c19e3c8a97cbd6bcdaf64736f6c634300081a0033","linkReferences":{}},"methodIdentifiers":{"addComputePeers(bytes32,(bytes32,address,bytes32[])[])":"74920a9d","addComputeUnits(bytes32,bytes32[])":"b6b9084e","addEffector(bytes32,(bytes4,bytes32)[])":"b017191a","changeMinPricePerCuPerEpoch(bytes32,uint256)":"f46bcb1d","changePaymentToken(bytes32,address)":"087b97ba","getBaseOffer(bytes32)":"428c46e5","getComputePeer(bytes32)":"86e68254","getComputeUnit(bytes32)":"745e920b","getComputeUnitIds(bytes32)":"62ac63fa","getComputeUnits(bytes32)":"b6015c6e","getEffectorInfo((bytes4,bytes32))":"0bcee1a2","getOffer(bytes32)":"d597b8c8","getProviderInfo(address)":"7583902f","registerMarketOffer(uint256,address,(bytes4,bytes32)[],(bytes32,address,bytes32[])[],uint256,uint256)":"edd9db67","removeComputePeer(bytes32)":"9faf0d20","removeComputeUnit(bytes32)":"3591187c","removeEffector(bytes32,(bytes4,bytes32)[])":"34205efd","removeEffectorInfo((bytes4,bytes32))":"19c671ca","removeOffer(bytes32)":"91d27f71","setEffectorInfo((bytes4,bytes32),string,(bytes4,bytes32))":"da74336a","setProviderInfo(string,(bytes4,bytes32))":"c685738e"},"storageLayout":{"storage":[],"types":{}},"devdoc":{"version":1,"kind":"dev","methods":{"addComputePeers(bytes32,(bytes32,address,bytes32[])[])":{"details":"Add compute peers to an offer"},"addComputeUnits(bytes32,bytes32[])":{"details":"Add compute units to a peer"},"addEffector(bytes32,(bytes4,bytes32)[])":{"details":"Add effectors to an offer"},"changeMinPricePerCuPerEpoch(bytes32,uint256)":{"details":"Change the min price per CU per epoch of an offer"},"getBaseOffer(bytes32)":{"details":"Returns the offer info","params":{"offerId":"The offer id"},"returns":{"_0":"offer The offer info"}},"getComputePeer(bytes32)":{"details":"Returns the compute peer info"},"getComputeUnit(bytes32)":{"details":"Returns the compute unit info"},"getComputeUnitIds(bytes32)":{"details":"Returns the compute unit ids of a peer"},"getComputeUnits(bytes32)":{"details":"Returns the compute units info of a peer"},"getEffectorInfo((bytes4,bytes32))":{"details":"Returns the effector info","params":{"id":"The effector cid"}},"getOffer(bytes32)":{"details":"Returns the offer info","params":{"offerId":"The offer id"},"returns":{"_0":"offer The offer info"}},"getProviderInfo(address)":{"details":"Returns the provider info","params":{"provider":"The provider address"},"returns":{"_0":"providerInfo The provider info"}},"registerMarketOffer(uint256,address,(bytes4,bytes32)[],(bytes32,address,bytes32[])[],uint256,uint256)":{"details":"Register a new offer","params":{"effectors":"The effectors of the offer","minPricePerCuPerEpoch":"The min price per CU per epoch which the provider specify for the matching with the deal","paymentToken":"The payment token of the offer","peers":"The compute peers of the offer"}},"removeEffector(bytes32,(bytes4,bytes32)[])":{"details":"Remove effectors from an offer"},"removeEffectorInfo((bytes4,bytes32))":{"details":"Remove the effector info. Effector info can be removed by the contract owner"},"setEffectorInfo((bytes4,bytes32),string,(bytes4,bytes32))":{"details":"Set the effector info. Effector info can be added by the contract owner"},"setProviderInfo(string,(bytes4,bytes32))":{"details":"Set the provider info","params":{"metadata":"The metadata of the provider","name":"The name of the provider"}}},"events":{"ComputeUnitCreated(bytes32,bytes32)":{"details":"Emitted when a compute unit created for a peer","params":{"peerId":"The peer id","unitId":"The compute unit id"}},"ComputeUnitRemoved(bytes32,bytes32)":{"details":"Emitted when a compute unit removed from a peer","params":{"peerId":"The peer id","unitId":"The compute unit id"}},"EffectorAdded(bytes32,(bytes4,bytes32))":{"details":"Emitted when an effector added to an offer","params":{"effector":"The effector cid","offerId":"The offer id"}},"EffectorInfoRemoved((bytes4,bytes32))":{"details":"Emitted when the effector info is removed","params":{"id":"The effector cid"}},"EffectorInfoSet((bytes4,bytes32),string,(bytes4,bytes32))":{"details":"Emitted when the effector info is set. Effector info can be added by the contract owner","params":{"description":"The description of the effector","id":"The effector cid","metadata":"The metadata of the effector"}},"EffectorRemoved(bytes32,(bytes4,bytes32))":{"details":"Emitted when an effector removed from an offer","params":{"effector":"The effector cid","offerId":"The offer id"}},"MarketOfferRegistered(address,bytes32,uint256,address,(bytes4,bytes32)[],uint256,uint256)":{"details":"Emitted when a new offer is registered","params":{"effectors":"The effectors of the offer","minPricePerCuPerEpoch":"The min price per cu per epoch which the provider specify for the matching with the deal","offerId":"The offer id","paymentToken":"The payment token of the offer","provider":"The provider address"}},"MarketOfferRemoved(bytes32)":{"details":"Emitted when an offer removed","params":{"offerId":"The offer i"}},"MinPricePerCuPerEpochUpdated(bytes32,uint256)":{"details":"Emitted when the min price per worker per epoch of an offer is updated","params":{"minPricePerCuPerEpoch":"The new min price per worker per epoch","offerId":"The offer id"}},"PaymentTokenUpdated(bytes32,address)":{"details":"Emitted when the payment token of an offer is updated","params":{"offerId":"The offer id","paymentToken":"The new payment token"}},"PeerCreated(bytes32,bytes32,address)":{"details":"Emitted when a peer created for an offer"},"PeerRemoved(bytes32,bytes32)":{"details":"Emitted when a peer removed from an offer","params":{"offerId":"The offer id","peerId":"The peer id"}},"ProtocolVersionUpgraded(bytes32,uint256,uint256)":{"details":"Emitted when protocol version of an offer is updated","params":{"maxProtocolVersion":"The new maximum supported protocol version","minProtocolVersion":"The new minimum supported protocol version","offerId":"The offer id"}},"ProviderInfoUpdated(address,string,(bytes4,bytes32))":{"details":"Emitted when a provider info is updated","params":{"metadata":"The new metadata of the provider","name":"The new name of the provider","provider":"The provider address"}}}},"id":130}