{"abi":[{"type":"function","name":"addComputePeers","inputs":[{"name":"offerId","type":"bytes32","internalType":"bytes32"},{"name":"peers","type":"tuple[]","internalType":"struct IOffer.RegisterComputePeer[]","components":[{"name":"peerId","type":"bytes32","internalType":"bytes32"},{"name":"owner","type":"address","internalType":"address"},{"name":"unitIds","type":"bytes32[]","internalType":"bytes32[]"}]}],"outputs":[],"stateMutability":"nonpayable"},{"type":"function","name":"addComputeUnits","inputs":[{"name":"peerId","type":"bytes32","internalType":"bytes32"},{"name":"unitIds","type":"bytes32[]","internalType":"bytes32[]"}],"outputs":[],"stateMutability":"nonpayable"},{"type":"function","name":"addEffector","inputs":[{"name":"offerId","type":"bytes32","internalType":"bytes32"},{"name":"newEffectors","type":"tuple[]","internalType":"struct CIDV1[]","components":[{"name":"prefixes","type":"bytes4","internalType":"bytes4"},{"name":"hash","type":"bytes32","internalType":"bytes32"}]}],"outputs":[],"stateMutability":"nonpayable"},{"type":"function","name":"changeMinPricePerCuPerEpoch","inputs":[{"name":"offerId","type":"bytes32","internalType":"bytes32"},{"name":"newMinPricePerCuPerEpoch","type":"uint256","internalType":"uint256"}],"outputs":[],"stateMutability":"nonpayable"},{"type":"function","name":"changePaymentToken","inputs":[{"name":"offerId","type":"bytes32","internalType":"bytes32"},{"name":"newPaymentToken","type":"address","internalType":"address"}],"outputs":[],"stateMutability":"nonpayable"},{"type":"function","name":"getBaseOffer","inputs":[{"name":"offerId","type":"bytes32","internalType":"bytes32"}],"outputs":[{"name":"","type":"tuple","internalType":"struct IBaseOffer.BaseOffer","components":[{"name":"provider","type":"address","internalType":"address"},{"name":"paymentToken","type":"address","internalType":"address"},{"name":"peerCount","type":"uint256","internalType":"uint256"},{"name":"minProtocolVersion","type":"uint256","internalType":"uint256"},{"name":"maxProtocolVersion","type":"uint256","internalType":"uint256"}]}],"stateMutability":"view"},{"type":"function","name":"getComputePeer","inputs":[{"name":"peerId","type":"bytes32","internalType":"bytes32"}],"outputs":[{"name":"","type":"tuple","internalType":"struct IBaseOffer.ComputePeer","components":[{"name":"offerId","type":"bytes32","internalType":"bytes32"},{"name":"commitmentId","type":"bytes32","internalType":"bytes32"},{"name":"unitCount","type":"uint256","internalType":"uint256"},{"name":"owner","type":"address","internalType":"address"}]}],"stateMutability":"view"},{"type":"function","name":"getComputeUnit","inputs":[{"name":"unitId","type":"bytes32","internalType":"bytes32"}],"outputs":[{"name":"","type":"tuple","internalType":"struct IBaseOffer.ComputeUnit","components":[{"name":"deal","type":"address","internalType":"address"},{"name":"peerId","type":"bytes32","internalType":"bytes32"},{"name":"startEpoch","type":"uint256","internalType":"uint256"},{"name":"onchainWorkerId","type":"bytes32","internalType":"bytes32"}]}],"stateMutability":"view"},{"type":"function","name":"getComputeUnitIds","inputs":[{"name":"peerId","type":"bytes32","internalType":"bytes32"}],"outputs":[{"name":"","type":"bytes32[]","internalType":"bytes32[]"}],"stateMutability":"view"},{"type":"function","name":"getComputeUnits","inputs":[{"name":"peerId","type":"bytes32","internalType":"bytes32"}],"outputs":[{"name":"","type":"tuple[]","internalType":"struct IBaseOffer.ComputeUnitView[]","components":[{"name":"id","type":"bytes32","internalType":"bytes32"},{"name":"deal","type":"address","internalType":"address"},{"name":"startEpoch","type":"uint256","internalType":"uint256"},{"name":"onchainWorkerId","type":"bytes32","internalType":"bytes32"}]}],"stateMutability":"view"},{"type":"function","name":"getEffectorInfo","inputs":[{"name":"id","type":"tuple","internalType":"struct CIDV1","components":[{"name":"prefixes","type":"bytes4","internalType":"bytes4"},{"name":"hash","type":"bytes32","internalType":"bytes32"}]}],"outputs":[{"name":"","type":"tuple","internalType":"struct IOffer.EffectorInfo","components":[{"name":"description","type":"string","internalType":"string"},{"name":"metadata","type":"tuple","internalType":"struct CIDV1","components":[{"name":"prefixes","type":"bytes4","internalType":"bytes4"},{"name":"hash","type":"bytes32","internalType":"bytes32"}]}]}],"stateMutability":"view"},{"type":"function","name":"getOffer","inputs":[{"name":"offerId","type":"bytes32","internalType":"bytes32"}],"outputs":[{"name":"","type":"tuple","internalType":"struct IOffer.Offer","components":[{"name":"provider","type":"address","internalType":"address"},{"name":"minPricePerCuPerEpoch","type":"uint256","internalType":"uint256"},{"name":"paymentToken","type":"address","internalType":"address"},{"name":"peerCount","type":"uint256","internalType":"uint256"},{"name":"minProtocolVersion","type":"uint256","internalType":"uint256"},{"name":"maxProtocolVersion","type":"uint256","internalType":"uint256"}]}],"stateMutability":"view"},{"type":"function","name":"getProviderInfo","inputs":[{"name":"provider","type":"address","internalType":"address"}],"outputs":[{"name":"","type":"tuple","internalType":"struct IBaseOffer.ProviderInfo","components":[{"name":"name","type":"string","internalType":"string"},{"name":"metadata","type":"tuple","internalType":"struct CIDV1","components":[{"name":"prefixes","type":"bytes4","internalType":"bytes4"},{"name":"hash","type":"bytes32","internalType":"bytes32"}]},{"name":"unitCount","type":"uint256","internalType":"uint256"}]}],"stateMutability":"view"},{"type":"function","name":"registerMarketOffer","inputs":[{"name":"minPricePerCuPerEpoch","type":"uint256","internalType":"uint256"},{"name":"paymentToken","type":"address","internalType":"address"},{"name":"effectors","type":"tuple[]","internalType":"struct CIDV1[]","components":[{"name":"prefixes","type":"bytes4","internalType":"bytes4"},{"name":"hash","type":"bytes32","internalType":"bytes32"}]},{"name":"peers","type":"tuple[]","internalType":"struct IOffer.RegisterComputePeer[]","components":[{"name":"peerId","type":"bytes32","internalType":"bytes32"},{"name":"owner","type":"address","internalType":"address"},{"name":"unitIds","type":"bytes32[]","internalType":"bytes32[]"}]},{"name":"minProtocolVersion","type":"uint256","internalType":"uint256"},{"name":"maxProtocolVersion","type":"uint256","internalType":"uint256"}],"outputs":[{"name":"","type":"bytes32","internalType":"bytes32"}],"stateMutability":"nonpayable"},{"type":"function","name":"removeComputePeer","inputs":[{"name":"peerId","type":"bytes32","internalType":"bytes32"}],"outputs":[],"stateMutability":"nonpayable"},{"type":"function","name":"removeComputeUnit","inputs":[{"name":"unitId","type":"bytes32","internalType":"bytes32"}],"outputs":[],"stateMutability":"nonpayable"},{"type":"function","name":"removeEffector","inputs":[{"name":"offerId","type":"bytes32","internalType":"bytes32"},{"name":"effectors","type":"tuple[]","internalType":"struct CIDV1[]","components":[{"name":"prefixes","type":"bytes4","internalType":"bytes4"},{"name":"hash","type":"bytes32","internalType":"bytes32"}]}],"outputs":[],"stateMutability":"nonpayable"},{"type":"function","name":"removeEffectorInfo","inputs":[{"name":"id","type":"tuple","internalType":"struct CIDV1","components":[{"name":"prefixes","type":"bytes4","internalType":"bytes4"},{"name":"hash","type":"bytes32","internalType":"bytes32"}]}],"outputs":[],"stateMutability":"nonpayable"},{"type":"function","name":"removeOffer","inputs":[{"name":"offerId","type":"bytes32","internalType":"bytes32"}],"outputs":[],"stateMutability":"nonpayable"},{"type":"function","name":"setEffectorInfo","inputs":[{"name":"id","type":"tuple","internalType":"struct CIDV1","components":[{"name":"prefixes","type":"bytes4","internalType":"bytes4"},{"name":"hash","type":"bytes32","internalType":"bytes32"}]},{"name":"description","type":"string","internalType":"string"},{"name":"metadata","type":"tuple","internalType":"struct CIDV1","components":[{"name":"prefixes","type":"bytes4","internalType":"bytes4"},{"name":"hash","type":"bytes32","internalType":"bytes32"}]}],"outputs":[],"stateMutability":"nonpayable"},{"type":"function","name":"setProviderInfo","inputs":[{"name":"name","type":"string","internalType":"string"},{"name":"metadata","type":"tuple","internalType":"struct CIDV1","components":[{"name":"prefixes","type":"bytes4","internalType":"bytes4"},{"name":"hash","type":"bytes32","internalType":"bytes32"}]}],"outputs":[],"stateMutability":"nonpayable"},{"type":"event","name":"ComputeUnitCreated","inputs":[{"name":"peerId","type":"bytes32","indexed":true,"internalType":"bytes32"},{"name":"unitId","type":"bytes32","indexed":false,"internalType":"bytes32"}],"anonymous":false},{"type":"event","name":"ComputeUnitRemoved","inputs":[{"name":"peerId","type":"bytes32","indexed":true,"internalType":"bytes32"},{"name":"unitId","type":"bytes32","indexed":true,"internalType":"bytes32"}],"anonymous":false},{"type":"event","name":"EffectorAdded","inputs":[{"name":"offerId","type":"bytes32","indexed":true,"internalType":"bytes32"},{"name":"effector","type":"tuple","indexed":false,"internalType":"struct CIDV1","components":[{"name":"prefixes","type":"bytes4","internalType":"bytes4"},{"name":"hash","type":"bytes32","internalType":"bytes32"}]}],"anonymous":false},{"type":"event","name":"EffectorInfoRemoved","inputs":[{"name":"id","type":"tuple","indexed":false,"internalType":"struct CIDV1","components":[{"name":"prefixes","type":"bytes4","internalType":"bytes4"},{"name":"hash","type":"bytes32","internalType":"bytes32"}]}],"anonymous":false},{"type":"event","name":"EffectorInfoSet","inputs":[{"name":"id","type":"tuple","indexed":false,"internalType":"struct CIDV1","components":[{"name":"prefixes","type":"bytes4","internalType":"bytes4"},{"name":"hash","type":"bytes32","internalType":"bytes32"}]},{"name":"description","type":"string","indexed":false,"internalType":"string"},{"name":"metadata","type":"tuple","indexed":false,"internalType":"struct CIDV1","components":[{"name":"prefixes","type":"bytes4","internalType":"bytes4"},{"name":"hash","type":"bytes32","internalType":"bytes32"}]}],"anonymous":false},{"type":"event","name":"EffectorRemoved","inputs":[{"name":"offerId","type":"bytes32","indexed":true,"internalType":"bytes32"},{"name":"effector","type":"tuple","indexed":false,"internalType":"struct CIDV1","components":[{"name":"prefixes","type":"bytes4","internalType":"bytes4"},{"name":"hash","type":"bytes32","internalType":"bytes32"}]}],"anonymous":false},{"type":"event","name":"MarketOfferRegistered","inputs":[{"name":"provider","type":"address","indexed":true,"internalType":"address"},{"name":"offerId","type":"bytes32","indexed":false,"internalType":"bytes32"},{"name":"minPricePerCuPerEpoch","type":"uint256","indexed":false,"internalType":"uint256"},{"name":"paymentToken","type":"address","indexed":false,"internalType":"address"},{"name":"effectors","type":"tuple[]","indexed":false,"internalType":"struct CIDV1[]","components":[{"name":"prefixes","type":"bytes4","internalType":"bytes4"},{"name":"hash","type":"bytes32","internalType":"bytes32"}]},{"name":"minProtocolVersion","type":"uint256","indexed":false,"internalType":"uint256"},{"name":"maxProtocolVersion","type":"uint256","indexed":false,"internalType":"uint256"}],"anonymous":false},{"type":"event","name":"MarketOfferRemoved","inputs":[{"name":"offerId","type":"bytes32","indexed":true,"internalType":"bytes32"}],"anonymous":false},{"type":"event","name":"MinPricePerCuPerEpochUpdated","inputs":[{"name":"offerId","type":"bytes32","indexed":true,"internalType":"bytes32"},{"name":"minPricePerCuPerEpoch","type":"uint256","indexed":false,"internalType":"uint256"}],"anonymous":false},{"type":"event","name":"PaymentTokenUpdated","inputs":[{"name":"offerId","type":"bytes32","indexed":true,"internalType":"bytes32"},{"name":"paymentToken","type":"address","indexed":false,"internalType":"address"}],"anonymous":false},{"type":"event","name":"PeerCreated","inputs":[{"name":"offerId","type":"bytes32","indexed":true,"internalType":"bytes32"},{"name":"peerId","type":"bytes32","indexed":false,"internalType":"bytes32"},{"name":"owner","type":"address","indexed":false,"internalType":"address"}],"anonymous":false},{"type":"event","name":"PeerRemoved","inputs":[{"name":"offerId","type":"bytes32","indexed":true,"internalType":"bytes32"},{"name":"peerId","type":"bytes32","indexed":true,"internalType":"bytes32"}],"anonymous":false},{"type":"event","name":"ProtocolVersionUpgraded","inputs":[{"name":"offerId","type":"bytes32","indexed":true,"internalType":"bytes32"},{"name":"minProtocolVersion","type":"uint256","indexed":false,"internalType":"uint256"},{"name":"maxProtocolVersion","type":"uint256","indexed":false,"internalType":"uint256"}],"anonymous":false},{"type":"event","name":"ProviderInfoUpdated","inputs":[{"name":"provider","type":"address","indexed":true,"internalType":"address"},{"name":"name","type":"string","indexed":false,"internalType":"string"},{"name":"metadata","type":"tuple","indexed":false,"internalType":"struct CIDV1","components":[{"name":"prefixes","type":"bytes4","internalType":"bytes4"},{"name":"hash","type":"bytes32","internalType":"bytes32"}]}],"anonymous":false}],"bytecode":{"object":"0x60808060405234601557613951908161001a8239f35b5f80fdfe60806040526004361015610011575f80fd5b5f3560e01c8063087b97ba146120d05780630bcee1a21461202e57806319c671ca14611ef957806334205efd14611d6c5780633591187c146118fc578063428c46e51461183957806362ac63fa14611787578063745e920b1461173157806374920a9d146115fd5780637583902f1461153557806386e68254146114de57806391d27f71146113945780639faf0d2014611156578063b017191a146110de578063b6015c6e14610c18578063b6b9084e14610b50578063c685738e1461094e578063d597b8c814610875578063da74336a1461061a578063edd9db67146101b25763f46bcb1d14610100575f80fd5b346101ae5760403660031901126101ae5761019d600435805f525f8051602061383c83398151915260205261015b60405f2061014660018060a01b038254161515612302565b6001600482015414908161019f575b506125bb565b5f8181525f8051602061383c8339815191526020526040902054610194906001600160a01b031661018d811515612302565b331461234b565b60243590612f1a565b005b6001915060050154145f610155565b5f80fd5b346101ae5760c03660031901126101ae576101cb6121c0565b6044356001600160401b0381116101ae576101ea903690600401612213565b9091906064356001600160401b0381116101ae5761020c903690600401612276565b90916001608435148061060e575b61022390612eb8565b5f805160206138dc8339815191529360405160208101907febbe29d10864671a7296ae5158eb0df8533e86c62e6a8460f3029ae682538c5182523360601b6040820152436054820152365f60748301376102906074823681015f838201520301601f19810183528261244c565b5190209460018060a01b0333165f526020526102af60405f2054612519565b156105d0575f8581525f8051602061383c83398151915260205260409020600201546001600160a01b0316610594576001600160a01b0316946102f386151561279c565b7f60ac4d56f7e69877e4b95a6e91f4b3612278b580a93ea7637885a480e015031a5460011061054f577f60ac4d56f7e69877e4b95a6e91f4b3612278b580a93ea7637885a480e015031b5460011161050b57855f525f805160206138fc83398151915260205261036960ff60405f2054166127f9565b60405161037581612431565b3381525f602080830182815260408085018b81526060860185815260016080880181815260a089018281528e89525f8051602061383c833981519152885297859020985189546001600160a01b03199081166001600160a01b03928316178b559651928a019290925592516002890180549096169116179093559151600386015590516004850155915160059390930192909255519096610416888361244c565b5f82526040519060c08201908883525f8a840152604083015260c0606083015282518091528860e083019301905f5b8a8282106104ed5750505050907f02b4bfba88db81e84c717b16bf874a79ecc39de3944a9f18dd7122ae32f0990782600160806104939796950152600160a08201528033930390a285612d48565b61049f60043584612f1a565b5f5b8181106104b357505050604051908152f35b806104e76104c460019385876126ae565b6104cf8882016126e4565b906104dd60408201826126f8565b9290913589612b69565b016104a1565b60408661050086986001959697516121fa565b019501929101610445565b60405162461bcd60e51b815260206004820152601c60248201527b4d61782070726f746f636f6c2076657273696f6e20746f6f2062696760201b6044820152606490fd5b60405162461bcd60e51b815260206004820152601e60248201527f4d696e2070726f746f636f6c2076657273696f6e20746f6f20736d616c6c00006044820152606490fd5b60405162461bcd60e51b81526020600482015260146024820152734f6666657220616c72656164792065786973747360601b6044820152606490fd5b60405162461bcd60e51b8152602060048201526016602482015275141c9bdd9a59195c88191bd95cdb89dd08195e1a5cdd60521b6044820152606490fd5b5060a43560011461021a565b346101ae57366003190160a081126101ae576040136101ae576044356001600160401b0381116101ae576106529036906004016122d5565b9060403660631901126101ae57610667612910565b81156108305761067e610679366124b0565b612993565b5f9081525f8051602061381c83398151915260205260409020916001600160401b03811161081c576106b08354612519565b601f81116107e1575b505f81601f811160011461077e57806106e6925f91610773575b508160011b915f199060031b1c19161790565b83555b606435600184016001600160e01b031982168083036101ae577f07e6a99b56bd76df684b4e8200a585d033be87a4728f1b66545d48c61bfc405e956002928460e01c63ffffffff1982541617905560843592839101556107626040519586956107518761257a565b60a0604088015260a0870191612e98565b9250606084015260808301520390a1005b9050840135866106d3565b50601f19821690845f528260205f20925f5b8181106107c65750106107ad575b5050600181811b0183556106e9565b8301355f19600384901b60f8161c19169055838061079e565b86840135855560019094019360209384019386935001610790565b61080c90845f5260205f20601f840160051c81019160208510610812575b601f0160051c0190612551565b836106b9565b90915081906107ff565b634e487b7160e01b5f52604160045260245ffd5b60405162461bcd60e51b815260206004820152601f60248201527f4465736372697074696f6e2073686f756c64206265206e6f7420656d707479006044820152606490fd5b346101ae5760203660031901126101ae5761088e61275f565b5061089761275f565b506004355f525f8051602061383c83398151915260205260c060405f2060018060a01b03815416906108ca821515612302565b604051906108d782612431565b82825260018101546020830190815260018060a01b03600283015416604084019081526003830154916060850192835260a06005600486015495608088019687520154950194855260405195865251602086015260018060a01b0390511660408501525160608401525160808301525160a0820152f35b346101ae5760603660031901126101ae576004356001600160401b0381116101ae5761097e9036906004016122d5565b9060403660231901126101ae578115610b1057335f9081525f805160206138dc83398151915260205260409020916001600160401b03811161081c576109c48354612519565b601f8111610ae0575b505f81601f8111600114610a7d57806109f9925f9161077357508160011b915f199060031b1c19161790565b83555b602435926001600160e01b03198416600182018186036101ae577f25909849cdf41a66fb9d72a68c492d440847318f46672d5f21aed036bc2a3c5c94600293610a69928860e01c63ffffffff19825416179055604435948591015560405194606086526060860191612e98565b9450602083015260408201528033930390a2005b50601f19821690845f528260205f20925f5b818110610ac5575010610aac575b5050600181811b0183556109fc565b8301355f19600384901b60f8161c191690558380610a9d565b86840135855560019094019360209384019386935001610a8f565b610b0a90845f5260205f20601f840160051c8101916020851061081257601f0160051c0190612551565b836109cd565b60405162461bcd60e51b81526020600482015260186024820152774e616d652073686f756c64206265206e6f7420656d70747960401b6044820152606490fd5b346101ae5761019d610b61366122a6565b91610b6b81612aec565b515f525f8051602061383c833981519152602052610bae60405f20610b9a60018060a01b038254161515612302565b60016004820154149081610c0957506125bb565b805f525f805160206137fc83398151915260205260405f2054610bd2811515612617565b5f9081525f8051602061383c8339815191526020526040902054610c04906001600160a01b031661018d811515612302565b612ffa565b60019150600501541486610155565b346101ae5760203660031901126101ae57600435805f525f805160206138bc83398151915260205260405f20604051808260208294549384815201905f5260205f20925f5b8181106110c5575050610c729250038261244c565b805191610c7e83612e6d565b92610c8c604051948561244c565b808452610c9b601f1991612e6d565b015f5b8181106110ae5750505f525f805160206137fc833981519152602052600160405f2001545f9080610dc5575b505f5b8251811015610d585780610ce360019285612e84565b51805f525f8051602061389c83398151915260205260405f2060028101548015610d51575b6003858060a01b038354169201549160405193610d2485612416565b8452602084015260408301526060820152610d3f8287612e84565b52610d4a8186612e84565b5001610ccd565b5084610d08565b836040518091602082016020835281518091526020604084019201905f5b818110610d84575050500390f35b91935091602060806001926060875180518352858060a01b038582015116858401526040810151604084015201516060820152019401910191849392610d76565b90505f610140604051610dd7816123fa565b8281528260208201528260408201528260608201528260808201528260a08201528260c08201528260e0820152826101008201528261012082015201525f527fa8de0abb18de6e730ac24d7fe02c877d293683811fc3ac5d8e62e2a52c0d20d760205260405f206001810154801561105f57610e9f610e777f7d4f8ec43464738265ced6b7ed5f90007e9b7c34318bdd82d9249328b50bd357544261278f565b7f7d4f8ec43464738265ced6b7ed5f90007e9b7c34318bdd82d9249328b50bd358549061338c565b6001018060011161104b57600683015492600381015490610ec08286612fed565b610ec985612aec565b90604051610ed6816123a9565b610ede6133aa565b81526020810191610eed6133aa565b8352610efe60ff8654168351613380565b600c8501546020835101526008850154604083510152600a850154606083510152600b850154608083510152600985015460a083510152600785015460c0835101528151519660068810156110375784610fae93610f606101409a8751613380565b60208151015160208751015260408151015160408751015260608151015160608751015260808151015160808751015260a08151015160a08751015260c08151015160c087510152876133f0565b93610fc3604060028601549401519189612fed565b60048501549160018060a01b03600587015416935194600d6020604088015197015197015499610fff60405199610ff98b6123fa565b8a613380565b60208901526040880152606087015288608087015260a086015260c085015260e0840152610100830152610120820152015283610cca565b634e487b7160e01b5f52602160045260245ffd5b634e487b7160e01b5f52601160045260245ffd5b60405162461bcd60e51b815260206004820152602160248201527f436170616369747920636f6d6d69746d656e7420646f65736e277420657869736044820152601d60fa1b6064820152608490fd5b6020906110b961268a565b82828801015201610c9e565b8454835260019485019486945060209093019201610c5d565b346101ae5761019d6110ef36612243565b91805f525f8051602061383c83398151915260205261111f60405f20610b9a60018060a01b038254161515612302565b5f8181525f8051602061383c8339815191526020526040902054611151906001600160a01b031661018d811515612302565b612d48565b346101ae5760203660031901126101ae5760043561117381612aec565b515f525f8051602061383c8339815191526020526111b660405f206111a260018060a01b038254161515612302565b6001600482015414908161138557506125bb565b805f525f805160206137fc83398151915260205260405f20546111da811515612617565b5f9081525f8051602061383c833981519152602052604090205461120c906001600160a01b031661018d811515612302565b805f525f805160206137fc83398151915260205260405f20805490815f525f8051602061383c833981519152602052600260405f209161124d841515612aab565b8254611263906001600160a01b0316331461234b565b015461134757600301805480156112d15761127d90612fe1565b9055815f525f805160206137fc8339815191526020525f60036040822082815582600182015582600282015501557f5f91ba2d62c13db8e4353c3b2d314e715907459581a42b764f350231f8ee0cf35f80a3005b60405162461bcd60e51b815260206004820152604260248201527f4c6962426173654f666665723a20617474656d707420746f2072656d6f76652060448201527f6120706565722066726f6d20616e206f6666657220776974686f757420706565606482015261727360f01b608482015260a490fd5b60405162461bcd60e51b8152602060048201526016602482015275506565722068617320636f6d7075746520756e69747360501b6044820152606490fd5b60019150600501541483610155565b346101ae5760203660031901126101ae57600435805f525f8051602061383c8339815191526020526113d760405f206111a260018060a01b038254161515612302565b5f8181525f8051602061383c8339815191526020526040902054611409906001600160a01b031661018d811515612302565b805f525f8051602061383c833981519152602052600360405f2061143b60018060a01b0382541661018d811515612302565b015461149f57805f525f8051602061383c8339815191526020525f60056040822082815582600182015582600282015582600382015582600482015501557f0e2c810360f652bf120515b49756167e4b196601c40ce83c5df5a8fa22d7f9b85f80a2005b60405162461bcd60e51b81526020600482015260176024820152764f666665722068617320636f6d7075746520706565727360481b6044820152606490fd5b346101ae5760203660031901126101ae576114f761268a565b506080611505600435612aec565b60405190805182526020810151602083015260408101516040830152606060018060a01b03910151166060820152f35b346101ae5760203660031901126101ae576004356001600160a01b03811681036101ae5761156161272d565b5061156a61272d565b506001600160a01b03165f9081525f805160206138dc83398151915260205260409081902090516115e79161159e826123df565b6115a781612844565b825260036115b7600183016128e4565b91602084019283520154604083019081526115f360405194859460208652516080602087015260a08601906121d6565b925160408501906121fa565b5160808301520390f35b346101ae5761160b366122a6565b9190815f525f8051602061383c83398151915260205261165060405f2061163c60018060a01b038254161515612302565b6001600482015414908161172257506125bb565b5f8281525f8051602061383c8339815191526020526040902054611682906001600160a01b031661018d811515612302565b82156116ce575f5b83811061169357005b806116c86116a460019387866126ae565b6116b0602082016126e4565b906116be60408201826126f8565b9290913588612b69565b0161168a565b60405162461bcd60e51b815260206004820152602660248201527f4f666665723a2070656572732061727261792073686f756c64206e6f7420626560448201526520656d70747960d01b6064820152608490fd5b60019150600501541485610155565b346101ae5760203660031901126101ae5761174a61268a565b5060806117586004356129d8565b60606040519160018060a01b038151168352602081015160208401526040810151604084015201516060820152f35b346101ae5760203660031901126101ae576004355f525f805160206138bc83398151915260205260405f20604051806020835491828152019081935f5260205f20905f5b81811061182357505050816117e191038261244c565b604051918291602083019060208452518091526040830191905f5b81811061180a575050500390f35b82518452859450602093840193909201916001016117fc565b82548452602090930192600192830192016117cb565b346101ae5760203660031901126101ae57611852612660565b5061185b612660565b506004355f525f8051602061383c83398151915260205260a060405f20600180831b038154169061188d821515612302565b600180841b03600282015416906003810154600560048301549201549260806040516118b8816123c4565b86815260208101928352604081019384526060810194855201938452604051948552600180871b039051166020850152516040840152516060830152516080820152f35b346101ae5760203660031901126101ae576004355f805160206138dc833981519152611933602061192c846129d8565b0151612aec565b515f525f8051602061383c83398151915260205261197660405f2061196260018060a01b038254161515612302565b60016004820154149081611d5d57506125bb565b815f525f8051602061389c833981519152602052600160405f2001548015611d1b575f525f805160206137fc83398151915260205260405f20546119bb811515612617565b5f9081525f8051602061383c83398151915260205260409020546119ed906001600160a01b031661018d811515612302565b815f525f8051602061389c83398151915260205260405f20906001820154918215611cbc575f8381525f805160206137fc83398151915260209081526040808320805484525f8051602061383c8339815191528352818420546001600160a01b03168085529590925290912092909190611a68903314612eb8565b6001820154611c8157546001600160a01b0316611c42576002018054918215611bde5760030191825415611b7557611a9f90612fe1565b9055611aab8154612fe1565b9055805f525f805160206138bc833981519152602052611ace8260405f206136cc565b15611b2557815f525f8051602061389c8339815191526020525f60036040822082815582600182015582600282015501557f5abefe0a1fb3d6df34b14e459422791829e024e367c6df8eaf0bf218cf42fb365f80a3005b60405162461bcd60e51b815260206004820152602260248201527f496e76616c69642072656d6f76652066726f6d20656e756d657261626c652073604482015261195d60f21b6064820152608490fd5b60405162461bcd60e51b815260206004820152604860248201525f8051602061387c83398151915260448201527f75746520756e697420626563617573652070726f766964657220686173207a65606482015267726f20756e69747360c01b608482015260a490fd5b60a460405162461bcd60e51b815260206004820152604460248201525f8051602061387c83398151915260448201527f75746520756e69742062656361757365207065657220686173207a65726f20756064820152636e69747360e01b6084820152fd5b60405162461bcd60e51b815260206004820152601760248201527610dbdb5c1d5d19481d5b9a5d081a5cc81a5b881919585b604a1b6044820152606490fd5b60405162461bcd60e51b81526020600482015260136024820152721419595c881a185cc818dbdb5b5a5d1b595b9d606a1b6044820152606490fd5b60405162461bcd60e51b815260206004820152603160248201527f72656d6f766542617365436f6d70757465556e69743a20436f6d7075746520756044820152701b9a5d08191bd95cdb89dd08195e1a5cdd607a1b6064820152608490fd5b60405162461bcd60e51b815260206004820152601a60248201527913d999995c8e881d5b9a5d08191bd95cc81b9bdd08195e1a5cdd60321b6044820152606490fd5b60019150600501541484610155565b346101ae57611d7a36612243565b825f525f8051602061383c833981519152602052611da960405f2061163c60018060a01b038254161515612302565b5f8381525f8051602061383c8339815191526020526040902054611ddb906001600160a01b031661018d811515612302565b5f8381525f8051602061383c8339815191526020526040902054611e09906001600160a01b0316331461234b565b5f5b818110611e1457005b611e1f8183856129c8565b90611e2d61067936846124ea565b855f525f8051602061385c83398151915260205260405f20815f5260205260ff60405f20541615611ebb577f5151d310b0333d894aac0234a4665be715d061a6fbf0f84ce313f315a8272dce60406001948893845f525f8051602061385c833981519152602052825f20905f52602052815f2060ff198154169055611eb48251809261259a565ba201611e0b565b60405162461bcd60e51b81526020600482015260166024820152751159999958dd1bdc88191bd95cdb89dd08195e1a5cdd60521b6044820152606490fd5b346101ae5760403660031901126101ae57611f12612910565b611f1e610679366124b0565b805f525f8051602061381c833981519152602052611f3f60405f2054612519565b15611feb575f525f8051602061381c8339815191526020525f600260408220611f688154612519565b80611fa8575b5082600182015501557f735be6859fb325819656a18d6683153766e980fb5bc8822c2a757810ad46599760408051611fa58161257a565ba1005b601f8111600114611fbe57508281555b83611f6e565b81845260208420611fda91601f0160051c810190600101612551565b808352826020812081835555611fb8565b60405162461bcd60e51b815260206004820152601b60248201527a1159999958dd1bdc881a5b999bc8191bd95cdb89dd08195e1a5cdd602a1b6044820152606490fd5b346101ae5760403660031901126101ae5761204761246f565b5061205061246f565b5061205d610679366124b0565b5f525f8051602061381c8339815191526020526120c060405f2061209a600160405192612089846123a9565b61209281612844565b8452016128e4565b602082019081526120cc60405193849360208552516060602086015260808501906121d6565b915160408401906121fa565b0390f35b346101ae5760403660031901126101ae576004357f69320c1eb39a752844ba207d2f98bd240d07dabf1449b4c1bd432daea12b744a602061210f6121c0565b5f8481525f8051602061383c83398151915283526040902054612140906001600160a01b031661018d811515612302565b835f525f8051602061383c8339815191528252600260405f209161216e3360018060a01b038554161461234b565b6001600160a01b03169161218383151561279c565b825f525f805160206138fc83398151915284526121a660ff60405f2054166127f9565b0180546001600160a01b03191682179055604051908152a2005b602435906001600160a01b03821682036101ae57565b805180835260209291819084018484015e5f828201840152601f01601f1916010190565b80516001600160e01b0319168252602090810151910152565b9181601f840112156101ae578235916001600160401b0383116101ae576020808501948460061b0101116101ae57565b9060406003198301126101ae5760043591602435906001600160401b0382116101ae5761227291600401612213565b9091565b9181601f840112156101ae578235916001600160401b0383116101ae576020808501948460051b0101116101ae57565b9060406003198301126101ae5760043591602435906001600160401b0382116101ae5761227291600401612276565b9181601f840112156101ae578235916001600160401b0383116101ae57602083818601950101116101ae57565b1561230957565b60405162461bcd60e51b815260206004820152601a60248201527913d999995c8e881bd999995c88191bd95cdb89dd08195e1a5cdd60321b6044820152606490fd5b1561235257565b60405162461bcd60e51b815260206004820152602960248201527f4f666665723a206f6e6c792070726f76696465722063616e2063616c6c2074686044820152681a5cc81b595d1a1bd960ba1b6064820152608490fd5b604081019081106001600160401b0382111761081c57604052565b60a081019081106001600160401b0382111761081c57604052565b606081019081106001600160401b0382111761081c57604052565b61016081019081106001600160401b0382111761081c57604052565b608081019081106001600160401b0382111761081c57604052565b60c081019081106001600160401b0382111761081c57604052565b601f909101601f19168101906001600160401b0382119082101761081c57604052565b6040519061247c826123a9565b6060825260405160208361248f836123a9565b5f83525f828401520152565b35906001600160e01b0319821682036101ae57565b60409060031901126101ae57604051906124c9826123a9565b816004356001600160e01b0319811681036101ae5781526020602435910152565b91908260409103126101ae57604051612502816123a9565b60208082946125108161249b565b84520135910152565b90600182811c92168015612547575b602083101461253357565b634e487b7160e01b5f52602260045260245ffd5b91607f1691612528565b81811061255c575050565b5f8155600101612551565b8181029291811591840414171561104b57565b60043563ffffffff60e01b81168091036101ae5781526020602435910152565b60209081906001600160e01b03196125b18261249b565b1684520135910152565b156125c257565b60405162461bcd60e51b815260206004820152602760248201527f4f666665723a206d6574686f64206f6e6c7920776f726b732077697468205631604482015266206f666665727360c81b6064820152608490fd5b1561261e57565b60405162461bcd60e51b815260206004820152601a60248201527913d999995c8e881c19595c88191bd95cc81b9bdd08195e1a5cdd60321b6044820152606490fd5b6040519061266d826123c4565b5f6080838281528260208201528260408201528260608201520152565b6040519061269782612416565b5f6060838281528260208201528260408201520152565b91908110156126d05760051b81013590605e19813603018212156101ae570190565b634e487b7160e01b5f52603260045260245ffd5b356001600160a01b03811681036101ae5790565b903590601e19813603018212156101ae57018035906001600160401b0382116101ae57602001918160051b360383136101ae57565b6040519061273a826123df565b5f60408360608152815161274d816123a9565b83815283602082015260208201520152565b6040519061276c82612431565b5f60a0838281528260208201528260408201528260608201528260808201520152565b9190820391821161104b57565b156127a357565b60405162461bcd60e51b815260206004820152602860248201527f5061796d656e7420746f6b656e2073686f756c64206265206e6f74207a65726f604482015267206164647265737360c01b6064820152608490fd5b1561280057565b60405162461bcd60e51b815260206004820152601c60248201527b14185e5b595b9d081d1bdad95b881a5cc81b9bdd08185b1b1bddd95960221b6044820152606490fd5b9060405191825f82549261285784612519565b80845293600181169081156128c2575060011461287e575b5061287c9250038361244c565b565b90505f9291925260205f20905f915b8183106128a657505090602061287c928201015f61286f565b602091935080600191548385890101520191019091849261288d565b90506020925061287c94915060ff191682840152151560051b8201015f61286f565b906040516128f1816123a9565b825460e01b6001600160e01b0319168152600192909201546020830152565b7fc8fcad8db84d3cc18b4c41d551ea0ee66dd599cde068d998e57d5e09332c1320546001600160a01b0316330361294357565b60405162461bcd60e51b815260206004820152602260248201527f4c69624469616d6f6e643a204d75737420626520636f6e7472616374206f776e60448201526132b960f11b6064820152608490fd5b602063ffffffff60e01b82511691015160405190602082019283526024820152602481526129c260448261244c565b51902090565b91908110156126d05760061b0190565b6129e061268a565b50805f525f8051602061389c833981519152602052600160405f20015415612a53575f525f8051602061389c83398151915260205260405f20600360405191612a2883612416565b80546001600160a01b0316835260018101546020840152600281015460408401520154606082015290565b60405162461bcd60e51b815260206004820152602a60248201527f676574436f6d70757465556e69743a20436f6d7075746520756e697420646f656044820152691cdb89dd08195e1a5cdd60b21b6064820152608490fd5b15612ab257565b60405162461bcd60e51b81526020600482015260126024820152711419595c88191bd95cdb89dd08195e1a5cdd60721b6044820152606490fd5b612af461268a565b50805f525f805160206137fc833981519152602052612b1860405f20541515612aab565b5f525f805160206137fc83398151915260205260405f2060405190612b3c82612416565b805482526001810154602083015260028101546040830152600301546001600160a01b0316606082015290565b93929193815f525f805160206137fc83398151915260205260405f20815f525f8051602061383c83398151915260205260405f208154612ce8578315612c91576001600160a01b03871615612c3457828255600391820180546001600160a01b0319166001600160a01b039098169790971787550180545f19811461104b5760010190559354604080518381526001600160a01b03909216602083015261287c95917f2a9c96970c242b218486fb3338450a874ff7ccad1fcad3d89b2781f48ece88d09190a2612ffa565b60405162461bcd60e51b815260206004820152602f60248201527f4c6962426173654f666665723a204f776e657220616464726573732073686f7560448201526e6c64206265206e6f7420656d70747960881b6064820152608490fd5b60405162461bcd60e51b815260206004820152602960248201527f4c6962426173654f666665723a20506565722069642073686f756c64206265206044820152686e6f7420656d70747960b81b6064820152608490fd5b60405162461bcd60e51b815260206004820152603260248201527f4c6962426173654f666665723a205065657220616c7265616479206578697374604482015271399034b71030b737ba3432b91037b33332b960711b6064820152608490fd5b909291815f525f8051602061383c833981519152602052612d7660018060a01b0360405f205416331461234b565b5f5b818110612d86575050509050565b612d918183876129c8565b90612d9f61067936846124ea565b845f525f8051602061385c83398151915260205260405f20815f5260205260ff60405f205416612e2e577f3c96a39027441c49cc91433cc2f6a915b4aa9be8119e89e1ee6700fe60eb253160406001948793845f525f8051602061385c833981519152602052825f20905f52602052815f208660ff19825416179055612e278251809261259a565ba201612d78565b60405162461bcd60e51b81526020600482015260176024820152764566666563746f7220616c72656164792065786973747360481b6044820152606490fd5b6001600160401b03811161081c5760051b60200190565b80518210156126d05760209160051b010190565b908060209392818452848401375f828201840152601f01601f1916010190565b15612ebf57565b60405162461bcd60e51b815260206004820152602d60248201527f4f666665723a2070726f746f636f6c2076657273696f6e206d69736d6174636860448201526c2c20726571756972656420763160981b6064820152608490fd5b90815f525f8051602061383c83398151915260205260405f20612f4760018060a01b03825416331461234b565b8115612f8057817fe1ee92410921704d98c80cd8205bc1af1be59a37950d466e1f8367ce56b868f19260016020930155604051908152a2565b60405162461bcd60e51b815260206004820152603360248201527f4d696e20707269636520706572204355207065722065706f63682073686f756c6044820152720642062652067726561746572207468616e203606c1b6064820152608490fd5b801561104b575f190190565b9190820180921161104b57565b5f8181525f805160206137fc83398151915260209081526040808320805484525f8051602061383c8339815191528352818420546001600160a01b031684525f805160206138dc833981519152909252909120919490939091811561331f5760030193613068828654612fed565b7f60ac4d56f7e69877e4b95a6e91f4b3612278b580a93ea7637885a480e015031c54106132c0575f5b82811015613299578060051b85013590811561324257815f525f8051602061389c833981519152602052600160405f2001546131eb576040516130d381612416565b5f80825260208083018b81526040808501848152606086018581528886525f8051602061389c8339815191528552828620965187546001600160a01b0319166001600160a01b0391909116178755925160018701555160028601559051600394909401939093558a82525f805160206138bc8339815191529052206131599083906137a7565b1561319257877f47026182b34ce173abdac328faf5c45bef1648cf75d4b88723a745c9ee792c196020600194604051908152a201613091565b60405162461bcd60e51b815260206004820152602b60248201527f4c6962426173654f666665723a20496e76616c69642061646420746f20656e7560448201526a1b595c98589b19481cd95d60aa1b6064820152608490fd5b60405162461bcd60e51b815260206004820152602960248201527f4c6962426173654f666665723a20436f6d7075746520756e697420616c72656160448201526864792065786973747360b81b6064820152608490fd5b60405162461bcd60e51b815260206004820152602960248201527f4c6962426173654f666665723a20556e69742069642073686f756c64206265206044820152686e6f7420656d70747960b81b6064820152608490fd5b50909360029295506132bc93506132b1858254612fed565b905501918254612fed565b9055565b60405162461bcd60e51b815260206004820152603160248201527f4c6962426173654f666665723a204578636565646564206d6178204355206e7560448201527036b132b9103832b910283937bb34b232b960791b6064820152608490fd5b60405162461bcd60e51b815260206004820152603360248201527f4c6962426173654f666665723a20756e697473206c656e6774682073686f756c6044820152720642062652067726561746572207468616e203606c1b6064820152608490fd5b60068210156110375752565b8115613396570490565b634e487b7160e01b5f52601260045260245ffd5b6040519060e082016001600160401b0381118382101761081c576040525f60c0838281528260208201528260408201528260608201528260808201528260a08201520152565b91929390602001928351519160068310156110375760a085510151925f1987019680881161104b5760068896015480155f1461343457505050505050505050600290565b116136ab57600181148015906136a1575b61369757506001955f19820191821161104b5781111561368c575b507f8984d2d0d7a9f2f70f22692c7c8344aa50cbed8c00a03c924457a31793ee8fdb54845192606084015192608085015160408601519560c087910151945f93868811613670575b604001516134b591612567565b946134db836134d66134c7888d61278f565b6134d1838c612fed565b612567565b61278f565b808210613653575b505084871015613563575b505050505050604083510152815160808101519081613544575b50506006831015611037575f9160c0916001850361352d575b60a08251015251015290565b8360608351015261353f858351613380565b613521565b60606135539101918251612fed565b90525f6080835101525f80613508565b909294985083613576929496509561278f565b6004979092908382106135b75750505050600181018091116135a4576020845101525b5f80808080806134ee565b601185634e487b7160e01b5f525260245ffd5b6135ca926135c491612fed565b9261278f565b906135d5818361338c565b806001019182600111613640578293811561362d5706613606575b50506135fb91612fed565b602084510152613599565b6002019150811061361a576135fb5f6135f0565b601186634e487b7160e01b5f525260245ffd5b60128a634e487b7160e01b5f525260245ffd5b601189634e487b7160e01b5f525260245ffd5b6136689298916136629161278f565b90612fed565b955f806134e3565b93506134b5906040613682888a61278f565b95919250506134a8565b5f9550925084613460565b9550505050505090565b5083871115613445565b50505050505050600390565b80548210156126d0575f5260205f2001905f90565b906001820191815f528260205260405f20548015155f1461379f575f19810181811161104b5782545f1981019190821161104b57818103613754575b50505080548015613740575f19019061372182826136b7565b8154905f199060031b1b19169055555f526020525f6040812055600190565b634e487b7160e01b5f52603160045260245ffd5b61378a61376461377493866136b7565b90549060031b1c928392866136b7565b819391549060031b91821b915f19901b19161790565b90555f528360205260405f20555f8080613708565b505050505f90565b6001810190825f528160205260405f2054155f146137f4578054600160401b81101561081c576137e16137748260018794018555846136b7565b905554915f5260205260405f2055600190565b5050505f9056fe88681cafafd55573d275926fd208ef2ba36c6dd5169e88841d4bc9bcd225302188681cafafd55573d275926fd208ef2ba36c6dd5169e88841d4bc9bcd225302588681cafafd55573d275926fd208ef2ba36c6dd5169e88841d4bc9bcd225302088681cafafd55573d275926fd208ef2ba36c6dd5169e88841d4bc9bcd22530234c6962426173654f666665723a2063616e6e6f742072656d6f766520636f6d7088681cafafd55573d275926fd208ef2ba36c6dd5169e88841d4bc9bcd225302288681cafafd55573d275926fd208ef2ba36c6dd5169e88841d4bc9bcd225302488681cafafd55573d275926fd208ef2ba36c6dd5169e88841d4bc9bcd225301f60ac4d56f7e69877e4b95a6e91f4b3612278b580a93ea7637885a480e015031da264697066735822122010fef88a3d584d2e68426352912be88c46292b40272a84a16395fabf9b4eb56464736f6c634300081a0033","linkReferences":{}},"methodIdentifiers":{"addComputePeers(bytes32,(bytes32,address,bytes32[])[])":"74920a9d","addComputeUnits(bytes32,bytes32[])":"b6b9084e","addEffector(bytes32,(bytes4,bytes32)[])":"b017191a","changeMinPricePerCuPerEpoch(bytes32,uint256)":"f46bcb1d","changePaymentToken(bytes32,address)":"087b97ba","getBaseOffer(bytes32)":"428c46e5","getComputePeer(bytes32)":"86e68254","getComputeUnit(bytes32)":"745e920b","getComputeUnitIds(bytes32)":"62ac63fa","getComputeUnits(bytes32)":"b6015c6e","getEffectorInfo((bytes4,bytes32))":"0bcee1a2","getOffer(bytes32)":"d597b8c8","getProviderInfo(address)":"7583902f","registerMarketOffer(uint256,address,(bytes4,bytes32)[],(bytes32,address,bytes32[])[],uint256,uint256)":"edd9db67","removeComputePeer(bytes32)":"9faf0d20","removeComputeUnit(bytes32)":"3591187c","removeEffector(bytes32,(bytes4,bytes32)[])":"34205efd","removeEffectorInfo((bytes4,bytes32))":"19c671ca","removeOffer(bytes32)":"91d27f71","setEffectorInfo((bytes4,bytes32),string,(bytes4,bytes32))":"da74336a","setProviderInfo(string,(bytes4,bytes32))":"c685738e"},"storageLayout":{"storage":[],"types":{}},"devdoc":{"version":1,"kind":"dev","methods":{"addComputePeers(bytes32,(bytes32,address,bytes32[])[])":{"details":"Add compute peers to an offer"},"addComputeUnits(bytes32,bytes32[])":{"details":"Add compute units to a peer"},"addEffector(bytes32,(bytes4,bytes32)[])":{"details":"Add effectors to an offer"},"changeMinPricePerCuPerEpoch(bytes32,uint256)":{"details":"Change the min price per CU per epoch of an offer"},"getBaseOffer(bytes32)":{"details":"Returns the offer info","params":{"offerId":"The offer id"},"returns":{"_0":"offer The offer info"}},"getComputePeer(bytes32)":{"details":"Returns the compute peer info"},"getComputeUnit(bytes32)":{"details":"Returns the compute unit info"},"getComputeUnitIds(bytes32)":{"details":"Returns the compute unit ids of a peer"},"getComputeUnits(bytes32)":{"details":"Returns the compute units info of a peer"},"getEffectorInfo((bytes4,bytes32))":{"details":"Returns the effector info","params":{"id":"The effector cid"}},"getOffer(bytes32)":{"details":"Returns the offer info","params":{"offerId":"The offer id"},"returns":{"_0":"offer The offer info"}},"getProviderInfo(address)":{"details":"Returns the provider info","params":{"provider":"The provider address"},"returns":{"_0":"providerInfo The provider info"}},"registerMarketOffer(uint256,address,(bytes4,bytes32)[],(bytes32,address,bytes32[])[],uint256,uint256)":{"details":"Register a new offer","params":{"effectors":"The effectors of the offer","minPricePerCuPerEpoch":"The min price per CU per epoch which the provider specify for the matching with the deal","paymentToken":"The payment token of the offer","peers":"The compute peers of the offer"}},"removeEffector(bytes32,(bytes4,bytes32)[])":{"details":"Remove effectors from an offer"},"removeEffectorInfo((bytes4,bytes32))":{"details":"Remove the effector info. Effector info can be removed by the contract owner"},"setEffectorInfo((bytes4,bytes32),string,(bytes4,bytes32))":{"details":"Set the effector info. Effector info can be added by the contract owner"},"setProviderInfo(string,(bytes4,bytes32))":{"details":"Set the provider info","params":{"metadata":"The metadata of the provider","name":"The name of the provider"}}},"events":{"ComputeUnitCreated(bytes32,bytes32)":{"details":"Emitted when a compute unit created for a peer","params":{"peerId":"The peer id","unitId":"The compute unit id"}},"ComputeUnitRemoved(bytes32,bytes32)":{"details":"Emitted when a compute unit removed from a peer","params":{"peerId":"The peer id","unitId":"The compute unit id"}},"EffectorAdded(bytes32,(bytes4,bytes32))":{"details":"Emitted when an effector added to an offer","params":{"effector":"The effector cid","offerId":"The offer id"}},"EffectorInfoRemoved((bytes4,bytes32))":{"details":"Emitted when the effector info is removed","params":{"id":"The effector cid"}},"EffectorInfoSet((bytes4,bytes32),string,(bytes4,bytes32))":{"details":"Emitted when the effector info is set. Effector info can be added by the contract owner","params":{"description":"The description of the effector","id":"The effector cid","metadata":"The metadata of the effector"}},"EffectorRemoved(bytes32,(bytes4,bytes32))":{"details":"Emitted when an effector removed from an offer","params":{"effector":"The effector cid","offerId":"The offer id"}},"MarketOfferRegistered(address,bytes32,uint256,address,(bytes4,bytes32)[],uint256,uint256)":{"details":"Emitted when a new offer is registered","params":{"effectors":"The effectors of the offer","minPricePerCuPerEpoch":"The min price per cu per epoch which the provider specify for the matching with the deal","offerId":"The offer id","paymentToken":"The payment token of the offer","provider":"The provider address"}},"MarketOfferRemoved(bytes32)":{"details":"Emitted when an offer removed","params":{"offerId":"The offer i"}},"MinPricePerCuPerEpochUpdated(bytes32,uint256)":{"details":"Emitted when the min price per worker per epoch of an offer is updated","params":{"minPricePerCuPerEpoch":"The new min price per worker per epoch","offerId":"The offer id"}},"PaymentTokenUpdated(bytes32,address)":{"details":"Emitted when the payment token of an offer is updated","params":{"offerId":"The offer id","paymentToken":"The new payment token"}},"PeerCreated(bytes32,bytes32,address)":{"details":"Emitted when a peer created for an offer"},"PeerRemoved(bytes32,bytes32)":{"details":"Emitted when a peer removed from an offer","params":{"offerId":"The offer id","peerId":"The peer id"}},"ProtocolVersionUpgraded(bytes32,uint256,uint256)":{"details":"Emitted when protocol version of an offer is updated","params":{"maxProtocolVersion":"The new maximum supported protocol version","minProtocolVersion":"The new minimum supported protocol version","offerId":"The offer id"}},"ProviderInfoUpdated(address,string,(bytes4,bytes32))":{"details":"Emitted when a provider info is updated","params":{"metadata":"The new metadata of the provider","name":"The new name of the provider","provider":"The provider address"}}}},"id":135}