{"abi":[{"type":"function","name":"Config_init","inputs":[{"name":"diamond_","type":"address","internalType":"contract IDiamond"},{"name":"appCID_","type":"tuple","internalType":"struct CIDV1","components":[{"name":"prefixes","type":"bytes4","internalType":"bytes4"},{"name":"hash","type":"bytes32","internalType":"bytes32"}]},{"name":"paymentToken_","type":"address","internalType":"contract IERC20"},{"name":"targetWorkers_","type":"uint256","internalType":"uint256"},{"name":"resources_","type":"tuple[]","internalType":"struct IOfferV2.ResourceRequirement[]","components":[{"name":"resourceId","type":"bytes32","internalType":"bytes32"},{"name":"ty","type":"uint8","internalType":"enum IOfferV2.ResourceType"},{"name":"quantity","type":"uint256","internalType":"uint256"}]},{"name":"pricePerEpoch_","type":"uint256","internalType":"uint256"},{"name":"maxWorkersPerProvider_","type":"uint256","internalType":"uint256"},{"name":"owner_","type":"address","internalType":"address"},{"name":"providersAccessType_","type":"uint8","internalType":"enum IConfigV2.AccessTypeV2"},{"name":"providersAccessList_","type":"address[]","internalType":"address[]"}],"outputs":[],"stateMutability":"nonpayable"},{"type":"function","name":"addProviderToAccessList","inputs":[{"name":"provider","type":"address","internalType":"address"}],"outputs":[],"stateMutability":"nonpayable"},{"type":"function","name":"appCID","inputs":[],"outputs":[{"name":"","type":"tuple","internalType":"struct CIDV1","components":[{"name":"prefixes","type":"bytes4","internalType":"bytes4"},{"name":"hash","type":"bytes32","internalType":"bytes32"}]}],"stateMutability":"view"},{"type":"function","name":"changeProvidersAccessType","inputs":[{"name":"accessType","type":"uint8","internalType":"enum IConfigV2.AccessTypeV2"}],"outputs":[],"stateMutability":"nonpayable"},{"type":"function","name":"creationBlock","inputs":[],"outputs":[{"name":"","type":"uint256","internalType":"uint256"}],"stateMutability":"view"},{"type":"function","name":"diamond","inputs":[],"outputs":[{"name":"","type":"address","internalType":"contract IDiamond"}],"stateMutability":"view"},{"type":"function","name":"isProviderAllowed","inputs":[{"name":"account","type":"address","internalType":"address"}],"outputs":[{"name":"","type":"bool","internalType":"bool"}],"stateMutability":"view"},{"type":"function","name":"maxWorkersPerProvider","inputs":[],"outputs":[{"name":"","type":"uint256","internalType":"uint256"}],"stateMutability":"view"},{"type":"function","name":"owner","inputs":[],"outputs":[{"name":"","type":"address","internalType":"address"}],"stateMutability":"view"},{"type":"function","name":"paymentToken","inputs":[],"outputs":[{"name":"","type":"address","internalType":"contract IERC20"}],"stateMutability":"view"},{"type":"function","name":"pricePerEpoch","inputs":[],"outputs":[{"name":"","type":"uint256","internalType":"uint256"}],"stateMutability":"view"},{"type":"function","name":"providersAccessType","inputs":[],"outputs":[{"name":"","type":"uint8","internalType":"enum IConfigV2.AccessTypeV2"}],"stateMutability":"view"},{"type":"function","name":"removeProviderFromAccessList","inputs":[{"name":"provider","type":"address","internalType":"address"}],"outputs":[],"stateMutability":"nonpayable"},{"type":"function","name":"renounceOwnership","inputs":[],"outputs":[],"stateMutability":"nonpayable"},{"type":"function","name":"requiredResources","inputs":[],"outputs":[{"name":"","type":"tuple[]","internalType":"struct IOfferV2.ResourceRequirement[]","components":[{"name":"resourceId","type":"bytes32","internalType":"bytes32"},{"name":"ty","type":"uint8","internalType":"enum IOfferV2.ResourceType"},{"name":"quantity","type":"uint256","internalType":"uint256"}]}],"stateMutability":"view"},{"type":"function","name":"setAppCID","inputs":[{"name":"appCID_","type":"tuple","internalType":"struct CIDV1","components":[{"name":"prefixes","type":"bytes4","internalType":"bytes4"},{"name":"hash","type":"bytes32","internalType":"bytes32"}]}],"outputs":[],"stateMutability":"nonpayable"},{"type":"function","name":"targetWorkers","inputs":[],"outputs":[{"name":"","type":"uint256","internalType":"uint256"}],"stateMutability":"view"},{"type":"function","name":"transferOwnership","inputs":[{"name":"newOwner","type":"address","internalType":"address"}],"outputs":[],"stateMutability":"nonpayable"},{"type":"event","name":"AppCIDChanged","inputs":[{"name":"newAppCID","type":"tuple","indexed":false,"internalType":"struct CIDV1","components":[{"name":"prefixes","type":"bytes4","internalType":"bytes4"},{"name":"hash","type":"bytes32","internalType":"bytes32"}]}],"anonymous":false},{"type":"event","name":"Initialized","inputs":[{"name":"version","type":"uint64","indexed":false,"internalType":"uint64"}],"anonymous":false},{"type":"event","name":"OwnershipTransferred","inputs":[{"name":"previousOwner","type":"address","indexed":true,"internalType":"address"},{"name":"newOwner","type":"address","indexed":true,"internalType":"address"}],"anonymous":false},{"type":"event","name":"ProviderAddedToAccessList","inputs":[{"name":"provider","type":"address","indexed":false,"internalType":"address"}],"anonymous":false},{"type":"event","name":"ProviderRemovedFromAccessList","inputs":[{"name":"provider","type":"address","indexed":false,"internalType":"address"}],"anonymous":false},{"type":"event","name":"ProvidersAccessTypeChanged","inputs":[{"name":"newAccessType","type":"uint8","indexed":false,"internalType":"enum IConfigV2.AccessTypeV2"}],"anonymous":false},{"type":"error","name":"InvalidInitialization","inputs":[]},{"type":"error","name":"NotInitializing","inputs":[]},{"type":"error","name":"OwnableInvalidOwner","inputs":[{"name":"owner","type":"address","internalType":"address"}]},{"type":"error","name":"OwnableUnauthorizedAccount","inputs":[{"name":"account","type":"address","internalType":"address"}]}],"bytecode":{"object":"0x60808060405234601557611551908161001a8239f35b5f80fdfe60806040526004361015610011575f80fd5b5f803560e01c80631763451414610fef578063176474cf14610e725780632943dcab14610e475780633013ce2914610e115780633e8ae1ae14610de3578063444e6a5a14610cd85780634e4d7af814610b5b5780635fc8f59c14610b30578063636fcefb146109b8578063715018a61461096257806373134c15146107bf57806385313e51146102525780638a0c725b146102275780638da5cb5b146101f15780639bc668681461017c578063d4773ff014610145578063f0b7db4e1461010f5763f2fde38b146100e0575f80fd5b3461010c57602036600319011261010c576101096100fc611018565b61010461125a565b6111d4565b80f35b80fd5b503461010c578060031936011261010c57505f8051602061133c833981519152546040516001600160a01b039091168152602090f35b503461010c578060031936011261010c575061017860ff5f805160206113dc83398151915254166040519182918261102e565b0390f35b503461010c578060031936011261010c5780602060405161019c81611055565b828152015250604080516101af81611055565b63ffffffff60e01b5f8051602061135c8339815191525460e01b169081815260205f805160206114dc8339815191525491019081528251918252516020820152f35b503461010c578060031936011261010c57505f8051602061149c833981519152546040516001600160a01b039091168152602090f35b503461010c578060031936011261010c575060205f8051602061141c83398151915254604051908152f35b503461010c5761016036600319011261010c576004356001600160a01b038116810361065a57604036602319011261065a576064356001600160a01b03811681036106695760a4356001600160401b03811161053257366023820112156105325760048101356001600160401b0381116107bb5736602460608302840101116107bb5761010435906001600160a01b03821682036107b757610124359060038210156107b35761014435936001600160401b0385116107af57366023860112156107af576004850135956001600160401b0387116107ab573660248860051b880101116107ab575f805160206114bc83398151915254604081901c60ff161595906001600160401b038116801590816107a3575b6001149081610799575b159081610790575b50610781576001600160401b031981166001175f805160206114bc833981519152556103be919087610759575b506103ae61128d565b6103b661128d565b61010461128d565b6103c661128d565b5f8051602061133c833981519152976103dd6112b8565b5f8051602061147c8339815191525588546001600160a01b039182166001600160a01b0319918216178a555f8051602061145c83398151915280549390921692169190911790556084355f805160206113bc83398151915255600160401b8211610745575f8051602061137c83398151915254825f8051602061137c833981519152558083106106b8575b505f8051602061137c833981519152885294959487905f805160206114fc833981519152906024015b83831061066d57505050506104d79060c4355f8051602061131c8339815191525560e4355f8051602061141c833981519152555f805160206113dc8339815191526111bc565b8480935f8051602061139c833981519152945b8681101561053657600581901b850160240135906001600160a01b038216820361053257600191828060a01b03165f528660205260405f208260ff19825416179055016104ea565b8380fd5b5081935060243563ffffffff60e01b811681036106695760e01c63ffffffff195f8051602061135c8339815191525416175f8051602061135c833981519152556044355f805160206114dc8339815191525560018060a01b03905416803b1561065a57816040518092634492bd6b60e01b82528183816105ba602460048301611232565b03925af1801561065e57610645575b50505f805160206113fc833981519152604051806105e8602482611232565b0390a16105f25780f35b60ff60401b195f805160206114bc83398151915254165f805160206114bc833981519152557fc7f505b2f371ae2175ee4913f4499e1f2633a7b5936321eed1cdaeb6115181d2602060405160018152a180f35b8161064f91611084565b61065a5781836105c9565b5080fd5b6040513d84823e3d90fd5b8280fd5b8098979835825560018201908a602082013591600683101561065a576001936003936060935060ff801983541691161790556040810135600286015501920192019190979697610491565b80600302906003820403610731578260030260038104840361071d575f8051602061137c8339815191528a525f805160206114fc83398151915291820191015b8181106107055750610468565b6003908a81558a60018201558a6002820155016106f8565b634e487b7160e01b8a52601160045260248afd5b634e487b7160e01b89526011600452602489fd5b634e487b7160e01b88526041600452602488fd5b6001600160481b0319166001600160401b01175f805160206114bc833981519152555f6103a5565b63f92ee8a960e01b8b5260048bfd5b9050155f610378565b303b159150610370565b889150610366565b8880fd5b8780fd5b8680fd5b8580fd5b8480fd5b503461010c57602036600319011261010c576107d9611018565b5f8051602061133c833981519152546040516302984ebd60e31b815290602090829060049082906001600160a01b03165afa908115610957578391610928575b506001600160a01b031633148015610908575b610835906110c6565b60ff5f805160206113dc833981519152541660038110156108f457156108b1576001600160a01b03165f8181525f8051602061139c8339815191526020908152604091829020805460ff1916600117905590519182527f4c26e4de691e265be6cf03e639754839907bf74687cd524a6734851331527ffd91a180f35b60405162461bcd60e51b815260206004820152601b60248201527a436f6e6669673a206163636573732074797065206973204e4f4e4560281b6044820152606490fd5b634e487b7160e01b83526021600452602483fd5b505f8051602061149c833981519152546001600160a01b0316331461082c565b61094a915060203d602011610950575b6109428183611084565b8101906110a7565b5f610819565b503d610938565b6040513d85823e3d90fd5b503461010c578060031936011261010c5761097b61125a565b5f8051602061149c83398151915280546001600160a01b0319811690915581906001600160a01b03165f8051602061143c8339815191528280a380f35b503461010c57602036600319011261010c57600435600381101561065a575f8051602061133c833981519152546040516302984ebd60e31b815290602090829060049082906001600160a01b03165afa908115610957578391610b11575b506001600160a01b031633148015610af1575b610a32906110c6565b60ff5f805160206113dc833981519152541660038110156108f4578114610aa157610a9b81610a8f7f1f5a251428f76335a835fcae94ab6a9bcf09ac33bd3c782eb6a81bdf878a7393935f805160206113dc8339815191526111bc565b6040519182918261102e565b0390a180f35b60405162461bcd60e51b815260206004820152602260248201527f436f6e6669673a20616363657373207479706520697320616c72656164792073604482015261195d60f21b6064820152608490fd5b505f8051602061149c833981519152546001600160a01b03163314610a29565b610b2a915060203d602011610950576109428183611084565b5f610a16565b503461010c578060031936011261010c575060205f8051602061131c83398151915254604051908152f35b503461010c578060031936011261010c575f8051602061137c833981519152546001600160401b038111610cc45760405190610b9d60208260051b0183611084565b8082525f8051602061137c8339815191528352602082019083905f805160206114fc833981519152835b828410610c4657505050506040519160208301906020845251809152604083019190845b818610610bf85784840385f35b90919283518051825260208101516006811015610c3257826040602093606093856001970152015160408201520194019501949190610beb565b634e487b7160e01b84526021600452602484fd5b604051606081016001600160401b03811182821017610cb0576040528254815260ff6001840154166006811015610c9c576001928260209283600395015260028601546040820152815201920193019290610bc7565b634e487b7160e01b89526021600452602489fd5b634e487b7160e01b89526041600452602489fd5b634e487b7160e01b82526041600452602482fd5b503461010c57602036600319011261010c57610cf2611018565b5f8051602061133c833981519152546040516302984ebd60e31b815290602090829060049082906001600160a01b03165afa918215610957577f38fb081a0b484406977bd94ff8edb79be44b5ca514130361182516b39e2c4528926020928591610dc6575b506001600160a01b031633148015610da6575b610d73906110c6565b6001600160a01b03165f8181525f8051602061139c8339815191528352604090819020805460ff1916905551908152a180f35b505f8051602061149c833981519152546001600160a01b03163314610d6a565b610ddd9150833d8511610950576109428183611084565b5f610d57565b503461010c57602036600319011261010c576020610e07610e02611018565b61112c565b6040519015158152f35b503461010c578060031936011261010c57505f8051602061145c833981519152546040516001600160a01b039091168152602090f35b503461010c578060031936011261010c575060205f805160206113bc83398151915254604051908152f35b5034610fac576040366003190112610fac575f8051602061133c83398151915280546040516302984ebd60e31b815290602090829060049082906001600160a01b03165afa908115610fa1575f91610fd0575b506001600160a01b031633148015610fb0575b610ee1906110c6565b6004356001600160e01b031981168103610fac5760e01c63ffffffff195f8051602061135c8339815191525416175f8051602061135c833981519152556024355f805160206114dc8339815191525560018060a01b03905416803b15610fac575f6040518092634492bd6b60e01b8252818381610f616004808301611232565b03925af18015610fa157610f8e575b505f805160206113fc83398151915260405180610a9b600482611232565b610f9a91505f90611084565b5f80610f70565b6040513d5f823e3d90fd5b5f80fd5b505f8051602061149c833981519152546001600160a01b03163314610ed8565b610fe9915060203d602011610950576109428183611084565b5f610ec5565b34610fac575f366003190112610fac5760205f8051602061147c83398151915254604051908152f35b600435906001600160a01b0382168203610fac57565b9190602083019260038210156110415752565b634e487b7160e01b5f52602160045260245ffd5b604081019081106001600160401b0382111761107057604052565b634e487b7160e01b5f52604160045260245ffd5b601f909101601f19168101906001600160401b0382119082101761107057604052565b90816020910312610fac57516001600160a01b0381168103610fac5790565b156110cd57565b60405162461bcd60e51b815260206004820152603160248201527f4f6e6c7920566f646f706164206f72204465616c204f776e65722063616e206360448201527030b636103a3434b990333ab731ba34b7b760791b6064820152608490fd5b60ff5f805160206113dc833981519152541660038110156110415780156111b5576001811461118b5760021461116157505f90565b6001600160a01b03165f9081525f8051602061139c833981519152602052604090205460ff161590565b506001600160a01b03165f9081525f8051602061139c833981519152602052604090205460ff1690565b5050600190565b9060038110156110415760ff80198354169116179055565b6001600160a01b0316801561121f575f8051602061149c83398151915280546001600160a01b0319811683179091556001600160a01b03165f8051602061143c8339815191525f80a3565b631e4fbdf760e01b5f525f60045260245ffd5b60408101929180356001600160e01b0319811690819003610fac578252602090810135910152565b5f8051602061149c833981519152546001600160a01b0316330361127a57565b63118cdaa760e01b5f523360045260245ffd5b60ff5f805160206114bc8339815191525460401c16156112a957565b631afcd79f60e31b5f5260045ffd5b60643b156113175760405163a3b1b31d60e01b815260208160048160645afa908115610fa1575f916112e8575090565b90506020813d60201161130f575b8161130360209383611084565b81010312610fac575190565b3d91506112f6565b439056fe136dd5357dcf392c42e49859cef979aa9638cbada31d1f29a19bc18654c3ba66136dd5357dcf392c42e49859cef979aa9638cbada31d1f29a19bc18654c3ba5c136dd5357dcf392c42e49859cef979aa9638cbada31d1f29a19bc18654c3ba5e136dd5357dcf392c42e49859cef979aa9638cbada31d1f29a19bc18654c3ba65136dd5357dcf392c42e49859cef979aa9638cbada31d1f29a19bc18654c3ba64136dd5357dcf392c42e49859cef979aa9638cbada31d1f29a19bc18654c3ba61136dd5357dcf392c42e49859cef979aa9638cbada31d1f29a19bc18654c3ba63c820a66d3bdd50a45cf12cda6dc8ec9e94fb5123edd7da736eea18316f8523a0136dd5357dcf392c42e49859cef979aa9638cbada31d1f29a19bc18654c3ba628be0079c531659141344cd1fd0a4f28419497f9722a3daafe3b4186f6b6457e0136dd5357dcf392c42e49859cef979aa9638cbada31d1f29a19bc18654c3ba60136dd5357dcf392c42e49859cef979aa9638cbada31d1f29a19bc18654c3ba5db13d3e7783d509d8d65d3e1e62ec0b103a07e0cbfa1ee74ae19127f297dddfccf0c57e16840df040f15088dc2f81fe391c3923bec73e23a9662efc9c229c6a00136dd5357dcf392c42e49859cef979aa9638cbada31d1f29a19bc18654c3ba5f548c65cbf2bdf872afec988c5b3fb8afde695bac13e6d3020de483ba011bf217a2646970667358221220e37edb4fbe95b79acba1f1c2442d49c7d740aac2570db8962c0b5f35a2c2ed9664736f6c634300081a0033","linkReferences":{}},"methodIdentifiers":{"Config_init(address,(bytes4,bytes32),address,uint256,(bytes32,uint8,uint256)[],uint256,uint256,address,uint8,address[])":"85313e51","addProviderToAccessList(address)":"73134c15","appCID()":"9bc66868","changeProvidersAccessType(uint8)":"636fcefb","creationBlock()":"17634514","diamond()":"f0b7db4e","isProviderAllowed(address)":"3e8ae1ae","maxWorkersPerProvider()":"8a0c725b","owner()":"8da5cb5b","paymentToken()":"3013ce29","pricePerEpoch()":"5fc8f59c","providersAccessType()":"d4773ff0","removeProviderFromAccessList(address)":"444e6a5a","renounceOwnership()":"715018a6","requiredResources()":"4e4d7af8","setAppCID((bytes4,bytes32))":"176474cf","targetWorkers()":"2943dcab","transferOwnership(address)":"f2fde38b"},"storageLayout":{"storage":[],"types":{}},"devdoc":{"version":1,"kind":"dev","methods":{"addProviderToAccessList(address)":{"details":"Adds a provider to the access list"},"appCID()":{"details":"Returns the app CID"},"changeProvidersAccessType(uint8)":{"details":"Change the providers access type"},"creationBlock()":{"details":"Returns the creation block of the deal"},"isProviderAllowed(address)":{"details":"Returns the boolean indicating whether the provider is allowed or not"},"maxWorkersPerProvider()":{"details":"Returns the max number of workers per provider"},"owner()":{"details":"Returns the address of the current owner."},"paymentToken()":{"details":"Returns the payment token address"},"pricePerEpoch()":{"details":"Returns the price per epoch"},"providersAccessType()":{"details":"Returns the providers access type"},"removeProviderFromAccessList(address)":{"details":"Removes a provider from the access list"},"renounceOwnership()":{"details":"Leaves the contract without owner. It will not be possible to call `onlyOwner` functions. Can only be called by the current owner. NOTE: Renouncing ownership will leave the contract without an owner, thereby disabling any functionality that is only available to the owner."},"requiredResources()":{"details":"Returns the price per epoch"},"setAppCID((bytes4,bytes32))":{"details":"Sets the app CID"},"targetWorkers()":{"details":"Returns the max number of workers"},"transferOwnership(address)":{"details":"Transfers ownership of the contract to a new account (`newOwner`). Can only be called by the current owner."}},"events":{"AppCIDChanged((bytes4,bytes32))":{"details":"Emitted when the app CID is changed","params":{"newAppCID":"The new app CID"}},"Initialized(uint64)":{"details":"Triggered when the contract has been initialized or reinitialized."},"ProviderAddedToAccessList(address)":{"details":"Emitted when a provider is added to the access list","params":{"provider":"The provider address"}},"ProviderRemovedFromAccessList(address)":{"details":"Emitted when a provider is removed from the access list","params":{"provider":"The provider address"}},"ProvidersAccessTypeChanged(uint8)":{"details":"Emitted when the providers access type is changed","params":{"newAccessType":"The new access type"}}},"errors":{"InvalidInitialization()":[{"details":"The contract is already initialized."}],"NotInitializing()":[{"details":"The contract is not initializing."}],"OwnableInvalidOwner(address)":[{"details":"The owner is not a valid owner account. (eg. `address(0)`)"}],"OwnableUnauthorizedAccount(address)":[{"details":"The caller account is not authorized to perform an operation."}]}},"id":105}