{"abi":[{"type":"constructor","inputs":[{"name":"difficulty_","type":"bytes32","internalType":"bytes32"}],"stateMutability":"nonpayable"},{"type":"function","name":"difficulty","inputs":[],"outputs":[{"name":"","type":"bytes32","internalType":"bytes32"}],"stateMutability":"view"},{"type":"function","name":"run","inputs":[{"name":"k","type":"bytes32","internalType":"bytes32"},{"name":"h","type":"bytes32","internalType":"bytes32"}],"outputs":[{"name":"","type":"bytes32","internalType":"bytes32"}],"stateMutability":"view"}],"bytecode":{"object":"0x60a03461005e57601f61015c38819003918201601f19168301916001600160401b038311848410176100635780849260209460405283398101031261005e575160805260405160e2908161007a8239608051818181604a015260850152f35b600080fd5b634e487b7160e01b600052604160045260246000fdfe6080806040526004361015601257600080fd5b600090813560e01c90816319cae462146070575063c57fbcd414603457600080fd5b34606d576040366003190112606d5760206040517f00000000000000000000000000000000000000000000000000000000000000008152f35b80fd5b90503460a8578160031936011260a8576020907f00000000000000000000000000000000000000000000000000000000000000008152f35b5080fdfea2646970667358221220055408be7e60a64e56696f38eb5aaaec94e063a420e2377140066253fbab7d1a64736f6c63430008180033","linkReferences":{}},"methodIdentifiers":{"difficulty()":"19cae462","run(bytes32,bytes32)":"c57fbcd4"},"devdoc":{"version":1,"kind":"dev"},"id":100}