{"abi":[{"type":"constructor","inputs":[{"name":"difficulty_","type":"bytes32","internalType":"bytes32"}],"stateMutability":"nonpayable"},{"type":"function","name":"difficulty","inputs":[],"outputs":[{"name":"","type":"bytes32","internalType":"bytes32"}],"stateMutability":"view"},{"type":"function","name":"run","inputs":[{"name":"ks","type":"bytes32[]","internalType":"bytes32[]"},{"name":"hs","type":"bytes32[]","internalType":"bytes32[]"}],"outputs":[{"name":"","type":"bytes32[]","internalType":"bytes32[]"}],"stateMutability":"nonpayable"}],"bytecode":{"object":"0x60a034605d57601f61031f38819003918201601f19168301916001600160401b03831184841017606157808492602094604052833981010312605d57516080526040516102a99081610076823960805181818160b801526101ad0152f35b5f80fd5b634e487b7160e01b5f52604160045260245ffdfe6080806040526004361015610012575f80fd5b5f3560e01c90816319cae46214610198575063e6bdceb814610032575f80fd5b34610194576040366003190112610194576004356001600160401b03811161019457610062903690600401610220565b6024356001600160401b03811161019457610081903690600401610220565b8151905103610158578051906100aa6100a161009c84610209565b6101d0565b92808452610209565b6020830190601f19013682377f0000000000000000000000000000000000000000000000000000000000000000905f5b8351811015610114578451811015610100578083602060019360051b88010152016100da565b634e487b7160e01b5f52603260045260245ffd5b8185604051918291602083019060208452518091526040830191905f5b81811061013f575050500390f35b8251845285945060209384019390920191600101610131565b60405162461bcd60e51b8152602060048201526014602482015273092dcecc2d8d2c840d2dce0eae840d8cadccee8d60631b6044820152606490fd5b5f80fd5b34610194575f366003190112610194576020907f00000000000000000000000000000000000000000000000000000000000000008152f35b6040519190601f01601f191682016001600160401b038111838210176101f557604052565b634e487b7160e01b5f52604160045260245ffd5b6001600160401b0381116101f55760051b60200190565b9080601f8301121561019457813561023a61009c82610209565b9260208085848152019260051b82010192831161019457602001905b8282106102635750505090565b813581526020918201910161025656fea26469706673582212203548b0e855a29d1b54263926c54ae38d3f08e55a852bee0428481dda0087885b64736f6c634300081a0033","linkReferences":{}},"methodIdentifiers":{"difficulty()":"19cae462","run(bytes32[],bytes32[])":"e6bdceb8"},"storageLayout":{"storage":[],"types":{}},"devdoc":{"version":1,"kind":"dev"},"id":162}