{"abi":[{"type":"function","name":"matchDeal","inputs":[{"name":"deal","type":"address","internalType":"contract IDeal"},{"name":"offers","type":"bytes32[]","internalType":"bytes32[]"},{"name":"computeUnits","type":"bytes32[][][]","internalType":"bytes32[][][]"}],"outputs":[],"stateMutability":"nonpayable"},{"type":"function","name":"moveResourcesFromDeal","inputs":[{"name":"unitIds","type":"bytes32[]","internalType":"bytes32[]"},{"name":"onchainWorkerId","type":"bytes32","internalType":"bytes32"}],"outputs":[],"stateMutability":"nonpayable"},{"type":"function","name":"reportWorkerActivated","inputs":[{"name":"peerId","type":"bytes32","internalType":"bytes32"},{"name":"onchainWorkerId","type":"bytes32","internalType":"bytes32"},{"name":"offchainWorkerId","type":"bytes32","internalType":"bytes32"}],"outputs":[],"stateMutability":"nonpayable"},{"type":"event","name":"CommitmentFailed","inputs":[{"name":"commitmentId","type":"bytes32","indexed":true,"internalType":"bytes32"},{"name":"failedEpoch","type":"uint256","indexed":false,"internalType":"uint256"}],"anonymous":false},{"type":"event","name":"CommitmentStatsUpdated","inputs":[{"name":"commitmentId","type":"bytes32","indexed":false,"internalType":"bytes32"},{"name":"totalFailCount","type":"uint256","indexed":false,"internalType":"uint256"},{"name":"exitedUnitCount","type":"uint256","indexed":false,"internalType":"uint256"},{"name":"activeUnitCount","type":"uint256","indexed":false,"internalType":"uint256"},{"name":"nextAdditionalActiveUnitCount","type":"uint256","indexed":false,"internalType":"uint256"},{"name":"changedEpoch","type":"uint256","indexed":false,"internalType":"uint256"}],"anonymous":false},{"type":"event","name":"ComputeUnitsMatched","inputs":[{"name":"peerId","type":"bytes32","indexed":true,"internalType":"bytes32"},{"name":"deal","type":"address","indexed":false,"internalType":"contract IDeal"},{"name":"onchainWorkerId","type":"bytes32","indexed":false,"internalType":"bytes32"},{"name":"cuIds","type":"bytes32[]","indexed":false,"internalType":"bytes32[]"},{"name":"appCID","type":"tuple","indexed":false,"internalType":"struct CIDV1","components":[{"name":"prefixes","type":"bytes4","internalType":"bytes4"},{"name":"hash","type":"bytes32","internalType":"bytes32"}]}],"anonymous":false},{"type":"event","name":"ComputeUnitsRemovedFromDeal","inputs":[{"name":"peerId","type":"bytes32","indexed":true,"internalType":"bytes32"},{"name":"deal","type":"address","indexed":true,"internalType":"contract IDeal"},{"name":"cuIds","type":"bytes32[]","indexed":false,"internalType":"bytes32[]"},{"name":"onchainWorkerId","type":"bytes32","indexed":false,"internalType":"bytes32"}],"anonymous":false},{"type":"event","name":"EntityAdded","inputs":[{"name":"commitmentId","type":"bytes32","indexed":true,"internalType":"bytes32"},{"name":"entityId","type":"bytes32","indexed":false,"internalType":"bytes32"},{"name":"rewardPerEpoch","type":"uint256","indexed":false,"internalType":"uint256"},{"name":"currentEpoch","type":"uint256","indexed":false,"internalType":"uint256"}],"anonymous":false},{"type":"event","name":"EntityRemoved","inputs":[{"name":"commitmentId","type":"bytes32","indexed":true,"internalType":"bytes32"},{"name":"entityId","type":"bytes32","indexed":false,"internalType":"bytes32"},{"name":"currentEpoch","type":"uint256","indexed":false,"internalType":"uint256"}],"anonymous":false},{"type":"event","name":"StateUpdated","inputs":[{"name":"commitmentId","type":"bytes32","indexed":true,"internalType":"bytes32"},{"name":"state","type":"tuple","indexed":false,"internalType":"struct DealStakerRewards.VestingState","components":[{"name":"items","type":"uint256[]","internalType":"uint256[]"},{"name":"accumulatedUnlockedFlt","type":"uint256","internalType":"uint256"}]}],"anonymous":false},{"type":"event","name":"UnitActivated","inputs":[{"name":"commitmentId","type":"bytes32","indexed":true,"internalType":"bytes32"},{"name":"unitId","type":"bytes32","indexed":true,"internalType":"bytes32"},{"name":"startEpoch","type":"uint256","indexed":false,"internalType":"uint256"}],"anonymous":false},{"type":"event","name":"UnitDeactivated","inputs":[{"name":"commitmentId","type":"bytes32","indexed":true,"internalType":"bytes32"},{"name":"unitId","type":"bytes32","indexed":true,"internalType":"bytes32"}],"anonymous":false},{"type":"event","name":"VestingScheduleItem","inputs":[{"name":"commitmentId","type":"bytes32","indexed":true,"internalType":"bytes32"},{"name":"id","type":"uint256","indexed":true,"internalType":"uint256"},{"name":"epoch","type":"uint256","indexed":true,"internalType":"uint256"},{"name":"cumulativeAmount","type":"uint256","indexed":false,"internalType":"uint256"}],"anonymous":false},{"type":"event","name":"VestingUpdateItem","inputs":[{"name":"commitmentId","type":"bytes32","indexed":true,"internalType":"bytes32"},{"name":"id","type":"uint256","indexed":true,"internalType":"uint256"},{"name":"cumulativeAmount","type":"uint256","indexed":false,"internalType":"uint256"}],"anonymous":false},{"type":"event","name":"WorkerActivated","inputs":[{"name":"peer_id","type":"bytes32","indexed":true,"internalType":"bytes32"},{"name":"deal","type":"address","indexed":true,"internalType":"contract IDeal"},{"name":"onchain_worker_id","type":"bytes32","indexed":false,"internalType":"bytes32"},{"name":"offchain_worker_id","type":"bytes32","indexed":false,"internalType":"bytes32"}],"anonymous":false},{"type":"error","name":"CapacityCommitmentIsNotActive","inputs":[{"name":"status","type":"uint8","internalType":"enum ICapacity.CCStatus"}]},{"type":"error","name":"MinWorkersNotMatched","inputs":[{"name":"_minWorkers","type":"uint256","internalType":"uint256"}]}],"bytecode":{"object":"0x60808060405234601557613749908161001a8239f35b5f80fdfe6104406040526004361015610012575f80fd5b5f3560e01c806312a4ebb0146115825780638e4643cb146100b35763bf0d37071461003b575f80fd5b346100af5760603660031901126100af57335f9081525f8051602061359483398151915260205260409020546100739060ff16611823565b6040516024358152604435602082015233907f5e6ccfe7e8dfa0d98def7301d2e492ecf44a59c709b85dd83617e3d937fef891604060043592a3005b5f80fd5b346100af5760603660031901126100af576004356104208190526001600160a01b03811690036100af576024356001600160401b0381116100af576100fc9036906004016117cb565b6103e0526044356001600160401b0381116100af5761011f9036906004016117cb565b6101c0526102a0527f13f5ac65dc9f5b2765e76eb17d53fe3e7065903823eb36bdd7841fa3f8dacbbe61040052610420516001600160a01b03165f9081525f80516020613594833981519152602052604090205460ff161561153d57604051638da5cb5b60e01b815261042051602090829060049082906001600160a01b03165afa908115610566575f916114fb575b506001600160a01b0316331480156114c8575b1561146e576040516302734eab60e51b815261042051602090829060049082906001600160a01b03165afa908115610566575f91611433575b506005811015610c8d5760018114908115611428575b50156113e557610420516001600160a01b03165f90815261040051602052604090205461023c611cac565b81159182156113af575b50501561136a576040516370220a9b60e01b815261042051602090829060049082906001600160a01b03165afa8015610566575f61014052611336575b50604051633013ce2960e01b815261042051602090829060049082906001600160a01b03165afa8015610566575f6101a0526112f2575b50604051634d7599f160e01b815261042051602090829060049082906001600160a01b03165afa8015610566575f6103c0526112be575b50604051632943dcab60e01b815261042051602090829060049082906001600160a01b03165afa8015610566575f9061128a575b61033491506103c051906118e9565b6102e08190526102c052604051638a0c725b60e01b815261042051602090829060049082906001600160a01b03165afa8015610566575f61036052611256575b50604051630ad0798d60e11b815261042051602090829060049082906001600160a01b03165afa8015610566575f61026052611222575b506040516319e749ff60e11b815261042051602090829060049082906001600160a01b03165afa8015610566575f610280526111ee575b50604051637e0f2f1560e11b8152610420515f90829060049082906001600160a01b03165afa8015610566575f61038052611139575b50604051631378cd0d60e31b815260408160048160018060a01b0361042051165afa8015610566575f610320526110fe575b50604051630d4773ff60e41b815261042051602090829060049082906001600160a01b03165afa8015610566575f610240526110c1575b505f6103a0525f610340525b6103e051610340511061057157604051632db3119360e01b815261042051602090829060049082906001600160a01b03165afa908115610566575f91610534575b506104eb6102e0516104e66102c0516103c0516118dc565b6118e9565b8111610522576103a0516104fb57005b610503611cac565b610420516001600160a01b03165f908152610400516020526040902055005b631275878760e21b5f5260045260245ffd5b90506020813d60201161055e575b8161054f60209383611791565b810103126100af5751816104ce565b3d9150610542565b6040513d5f823e3d90fd5b610582610340516103e0518361192f565b35610200525f60a06040516105968161172c565b8281528260208201528260408201528260608201528260808201520152610200515f527f88681cafafd55573d275926fd208ef2ba36c6dd5169e88841d4bc9bcd225302060205260405f2060018060a01b0381541690811561107f57604051610300526106056103005161172c565b81610300515260018101549160206103005101928352600560018060a01b0360028401541692604061030051019384526003810154606061030051015260048101546080610300510152015460a061030051015260405190631f4570d760e11b8252600482015260208160248160018060a01b0361042051165afa908115610566575f91611061575b5015918215611053575b508115611037575b508015611020575b801561100d575b8015610ffa575b610fc457610300515160405163016712bf60e61b81526001600160a01b03918216600482015261042051909160209183916024918391165afa908115610566575f91610fc9575b506101e0525f610220525b61071c610340516101c0516102a051611957565b9050610220511015610fc457610360516101e05110801590610fb9575b610fa95761075e610754610340516101c0516102a051611957565b6102205191611957565b90506102605111610fa4575f6101205261078d61077d610260516117b4565b6040516101805261018051611791565b610260516101805152601f196107a5610260516117b4565b013660206101805101375f805b6107c9610754610340516101c0516102a051611957565b9050821015610f9d576107f3826107ed610754610340516101c0516102a051611957565b9061192f565b356107fd816119d9565b610160819052602001516101005261012051610f865761010051610120525b61082861010051611d87565b61020051815103610f7b5761016051516001600160a01b0316610f7b576003610240511015610c8d5760016102405114159081610ea5575b50610e6d576040516305e8c93760e51b815261010051600482015261042051602090829060249082906001600160a01b03165afa908115610566575f91610e77575b50610e6d57906108bf916108b982610180516117fb565b5261199b565b906102605182146108d5576001905b01906107b2565b50506108ee5f805160206134f48339815191525461199b565b60e05260e0515f805160206134f48339815191525560405160c05261091460c05161175b565b60e05160c0515261018051602060c0510152610100515f525f805160206134b483398151915260205260405f2060a0525f5b6101805151811015610cf25761095f81610180516117fb565b515f8181525f805160206136748339815191526020526040902080549192916001600160a01b0316610ca1576104205181546001600160a01b0319166001600160a01b039190911617815560e05160039091015560a0516001015491826109cc575b506001915001610946565b5f805160206136b4833981519152926109e3611cac565b93815f5260205260405f206109fb6001820154611d87565b610a04846119d9565b90845f526012830160205260405f2090610a2760068501546003860154906118dc565b90610a3e828a610a3688611e98565b938489611f88565b610a49828789612239565b6006811015610c8d5760018103610c7c575091610a746001926020808c9601510151908589856127db565b805460ff191682178155015403610c1657600b8201610a9381546119a9565b90555b5f805160206135148339815191525490516040516370220a9b60e01b815290602090829060049082906001600160a01b03165afa908115610566575f91610be2575b506298968091610af5916004850154918180821091180218611f6b565b047fecc2a9581aa0ec66253fe6dd29ab490ad7a55cde02026a17baa162151745bb55606060148401610b2789826126ef565b865f52601685016020528360405f205560178501610b468582546118dc565b90555492604051908782526020820152886040820152a26008810154600d82015490600b600a840154930154925f198801978811610bce576001975f8051602061357483398151915294610ba1926040519586958987611a59565b0390a17fbd9cde1bbc961036d34368ae328c38917036a98eacfb025a1ff6d2c6235d0a145f80a3836109c1565b634e487b7160e01b5f52601160045260245ffd5b90506020813d8211610c0e575b81610bfc60209383611791565b810103126100af575162989680610ad8565b3d9150610bef565b600a8201610c2481546119a9565b90555f805160206135f48339815191525f805160206135b4833981519152545f198101908111610bce57610c779150805f805160206135b4833981519152555f80516020613534833981519152546124be565b610a96565b6242963960e51b5f5260045260245ffd5b634e487b7160e01b5f52602160045260245ffd5b60405162461bcd60e51b815260206004820152602360248201527f436f6d7075746520756e6974206d617463686564206d756c7469706c652074696044820152626d657360e81b6064820152608490fd5b506103005151610420516001600160a01b0391821691163b156100af576040519063d76e480560e01b825260048201526060602482015260c051516064820152602060c051015160406084830152805160805260805160a483015281602060c4820192015f5b6080518110610e54575050805f9261010051604483015203818360018060a01b0361042051165af1801561056657610e44575b5060c051517f6e5629a2cfaa82d1ea7ad51936794f666271fbd5068017020eaaafdbb017e615610de3602060c05101516040519360018060a01b0361042051168552602085015260a0604085015260a08401906118a9565b6103208051516001600160e01b03191660608501525160200151608084015261010051929081900390a260016103a052610e1f6101e05161199b565b6101e052610e2f6102e0516119a9565b6102e0525b6001610220510161022052610708565b5f610e4e91611791565b81610d8b565b8151845260209384019385935090910190600101610d58565b50906001906108ce565b610e98915060203d8111610e9e575b610e908183611791565b81019061193f565b856108a2565b503d610e86565b60200151801591508115610ebb575b5085610860565b90505f805160206136b4833981519152905f5260205260405f206001810154908115610f2c57610eed610f1992611d87565b610ef682611e98565b90610eff611cac565b91610f1360068501546003860154906118dc565b93611f88565b6006811015610c8d576001141585610eb4565b60405162461bcd60e51b815260206004820152602160248201527f436170616369747920636f6d6d69746d656e7420646f65736e277420657869736044820152601d60fa1b6064820152608490fd5b5050906001906108ce565b61010051610120511461081c5750906001906108ce565b5050610e34565b610e34565b600161034051016103405261048d565b506102e05115610739565b610fa9565b90506020813d8211610ff2575b81610fe360209383611791565b810103126100af5751826106fd565b3d9150610fd6565b506102805160a0610300510151106106b6565b50610280516080610300510151116106af565b506110316103805161020051611cea565b156106a8565b516101a0516001600160a01b03908116911614159050826106a0565b516101405110915083610698565b611079915060203d8111610e9e57610e908183611791565b8461068e565b60405162461bcd60e51b815260206004820152601a60248201527913d999995c8e881bd999995c88191bd95cdb89dd08195e1a5cdd60321b6044820152606490fd5b6020813d6020116110f6575b816110da60209383611791565b810103126100af575160038110156100af576102405281610481565b3d91506110cd565b60403d604011611132575b6111138183611791565b81016040828203126100af57611128916118f6565b610320528161044a565b503d611109565b3d805f833e6111488183611791565b81016020828203126100af578151916001600160401b0383116100af5781601f8483010112156100af578281015191611180836117b4565b9361118e6040519586611791565b83855260208501928260208660061b8484010101116100af5780820160200193915b60208660061b828401010185106111d1575050505050506103805281610418565b6040602080946111e187896118f6565b81520195019492506111b0565b6020813d60201161121a575b8161120760209383611791565b810103126100af575161028052816103e2565b3d91506111fa565b6020813d60201161124e575b8161123b60209383611791565b810103126100af575161026052816103ab565b3d915061122e565b6020813d602011611282575b8161126f60209383611791565b810103126100af57516103605281610374565b3d9150611262565b506020813d6020116112b6575b816112a460209383611791565b810103126100af576103349051610325565b3d9150611297565b6020813d6020116112ea575b816112d760209383611791565b810103126100af57516103c052816102f1565b3d91506112ca565b6020813d60201161132e575b8161130b60209383611791565b810103126100af57516001600160a01b03811681036100af576101a052816102ba565b3d91506112fe565b6020813d602011611362575b8161134f60209383611791565b810103126100af57516101405281610283565b3d9150611342565b60405162461bcd60e51b815260206004820152601d60248201527f4d6174636865723a20746f6f206561726c7920746f2072656d617463680000006044820152606490fd5b6113dd9192507f60ac4d56f7e69877e4b95a6e91f4b3612278b580a93ea7637885a480e015031954906118dc565b108280610246565b60405162461bcd60e51b815260206004820152601b60248201527a4d6174636865723a206465616c206973206e6f742061637469766560281b6044820152606490fd5b600391501482610211565b90506020813d602011611466575b8161144e60209383611791565b810103126100af575160058110156100af57826101fb565b3d9150611441565b60405162461bcd60e51b815260206004820152602c60248201527f4d6174636865723a2073656e646572206973206e6f74206465616c206f776e6560448201526b1c881bdc881d9bd91bdc185960a21b6064820152608490fd5b507f21811dc5bb11da2b2076245a2c14796806445512606a02297e6b92fb11728109546001600160a01b031633146101c2565b90506020813d602011611535575b8161151660209383611791565b810103126100af57516001600160a01b03811681036100af57826101af565b3d9150611509565b60405162461bcd60e51b815260206004820152601f60248201527f4d6174636865723a206465616c206973206e6f742072656769737465726564006044820152606490fd5b346100af5760403660031901126100af576004356001600160401b0381116100af57366023820112156100af578060040135906115be826117b4565b916115cc6040519384611791565b8083526024602084019160051b830101913683116100af57602401905b82821061171c57835f5b815181101561162c57600190611626336001600160a01b0361161e61161885886117fb565b516119d9565b511614611823565b016115f3565b505f80805b83518310156116ca57505061164681836117fb565b51805f525f80516020613674833981519152602052600160405f20928184015492611672841515611860565b828495818060a01b03815416955f525f805160206134b48339815191526020525f60036040822092848060a01b031981541681550155015490816116ba575b50500191611631565b6116c391611a81565b85806116b1565b7f118eadf482fadba3bc45c0744984b47fd3dba6c9c6fd58baf6edf551dd25e1ac611703856040519182916040835260408301906118a9565b60243560208301526001600160a01b03909516940390a3005b81358152602091820191016115e9565b60c081019081106001600160401b0382111761174757604052565b634e487b7160e01b5f52604160045260245ffd5b604081019081106001600160401b0382111761174757604052565b608081019081106001600160401b0382111761174757604052565b601f909101601f19168101906001600160401b0382119082101761174757604052565b6001600160401b0381116117475760051b60200190565b9181601f840112156100af578235916001600160401b0383116100af576020808501948460051b0101116100af57565b805182101561180f5760209160051b010190565b634e487b7160e01b5f52603260045260245ffd5b1561182a57565b60405162461bcd60e51b815260206004820152600e60248201526d13db9b1e48199c9bdb481919585b60921b6044820152606490fd5b1561186757565b60405162461bcd60e51b815260206004820152601a60248201527910dbdb5c1d5d19481d5b9a5d08191bd95cdb89dd08195e1a5cdd60321b6044820152606490fd5b90602080835192838152019201905f5b8181106118c65750505090565b82518452602093840193909201916001016118b9565b91908201809211610bce57565b91908203918211610bce57565b91908260409103126100af5760405161190e8161175b565b8092805163ffffffff60e01b811681036100af578252602090810151910152565b919081101561180f5760051b0190565b908160209103126100af575180151581036100af5790565b919081101561180f5760051b81013590601e19813603018212156100af5701803591906001600160401b0383116100af576020018260051b360381136100af579190565b5f198114610bce5760010190565b8015610bce575f190190565b604051906119c282611776565b5f6060838281528260208201528260408201520152565b6119e16119b5565b50805f525f80516020613674833981519152602052611a08600160405f2001541515611860565b5f525f8051602061367483398151915260205260405f20600360405191611a2e83611776565b80546001600160a01b0316835260018101546020840152600281015460408401520154606082015290565b9260a094919796959260c0850198855260208501526040840152606083015260808201520152565b5f805160206136b483398151915290611a98611cac565b6001810192838211610bce575f19820190828211610bce57835f5260205260405f20611ac76001820154611d87565b865f526012820160205283600160405f20611b0b611b03611af160068801546003890154906118dc565b85611afb89611e98565b97888a611f88565b94868a612239565b60ff198154168155015586857f8e4b27eeb3194deef0b3140997e6b82f53eb7350daceb9355268009b92f70add60206040518a8152a36006811015610c8d578015908115611c83575b50611c7b57600b810194855460018101809111610bce5786555f805160206135f4833981519152965f805160206135b4833981519152549460018601809611610bce57611bd2611c76965f805160206135748339815191529a50805f805160206135b4833981519152555f80516020613534833981519152546124be565b7fc68e8cb1dc96033edd3ea2af8f58e28c84f27bc0c225295e9b1c873226f775e6604060148601611c0384826126ef565b60168701855f5280602052825f2054611c2160178a019182546118e9565b9055855f526020525f8281205554928151908582526020820152a25f525f80516020613674833981519152602052600260405f200155600881015494600a600d83015492015490549160405196879687611a59565b0390a1565b505050505050565b60049150145f611b54565b8115611c98570490565b634e487b7160e01b5f52601260045260245ffd5b611cdc611cc75f805160206136f483398151915254426118e9565b5f805160206136348339815191525490611c8e565b60010180600111610bce5790565b5f5b8251811015611d7f57611cff81846117fb565b51602063ffffffff60e01b8251169101516040519060208201928352602482015260248152611d2f604482611791565b519020825f527f88681cafafd55573d275926fd208ef2ba36c6dd5169e88841d4bc9bcd225302360205260405f20905f5260205260ff60405f20541615611d7857600101611cec565b5050505f90565b505050600190565b611d8f6119b5565b50805f525f805160206134b483398151915260205260405f205415611dff575f525f805160206134b483398151915260205260405f2060405190611dd282611776565b805482526001810154602083015260028101546040830152600301546001600160a01b0316606082015290565b60405162461bcd60e51b81526020600482015260126024820152711419595c88191bd95cdb89dd08195e1a5cdd60721b6044820152606490fd5b6040519060e082016001600160401b03811183821017611747576040525f60c0838281528260208201528260408201528260608201528260808201528260a08201520152565b6006821015610c8d5752565b516006811015610c8d5790565b90604051611ea58161175b565b611ead611e39565b815260c0806020830192611ebf611e39565b845260078196611ed460ff8254168451611e7f565b600c8101546020845101526008810154604084510152600a810154606084510152600b810154608084510152600981015460a08451015201548282510152611f26611f1f8251611e8b565b8551611e7f565b60208151015160208551015260408151015160408551015260608151015160608551015260808151015160808551015260a08151015160a08551015251015191510152565b81810292918115918404141715610bce57565b8115611c98570690565b9192939060200192835151916006831015610c8d5760a085510151925f19870196808811610bce5760068896015480155f14611fcc57505050505050505050600290565b1161222d5760018114801590612223575b61221957506001955f198201918211610bce5781111561220e575b507f8984d2d0d7a9f2f70f22692c7c8344aa50cbed8c00a03c924457a31793ee8fdb54845192606084015192608085015160408601519560c087910151945f938688116121f2575b6040015161204d91611f6b565b9461206e836104e661205f888d6118e9565b612069838c6118dc565b611f6b565b8082106121d5575b5050848710156120f6575b5050505050506040835101528151608081015190816120d7575b50506006831015610c8d575f9160c091600185036120c0575b60a08251015251015290565b836060835101526120d2858351611e7f565b6120b4565b60606120e691019182516118dc565b90525f6080835101525f8061209b565b90929498508361210992949650956118e9565b60049790929083821061214a575050505060018101809111612137576020845101525b5f8080808080612081565b601185634e487b7160e01b5f525260245ffd5b61215d92612157916118dc565b926118e9565b906121688183611c8e565b8060010191826001116121c257612180908394611f7e565b61219b575b5050612190916118dc565b60208451015261212c565b600201915081106121af576121905f612185565b601186634e487b7160e01b5f525260245ffd5b601189634e487b7160e01b5f525260245ffd5b6121ea9298916121e4916118e9565b906118dc565b955f80612076565b935061204d906040612204888a6118e9565b9591925050612040565b5f9550925084611ff8565b9550505050505090565b5083871115611fdd565b50505050505050600390565b916122448151611e8b565b9260208201936122548551611e8b565b906006821015610c8d576006811015610c8d5703612376575b506122788151611e8b565b6122828451611e8b565b906006821015610c8d576006811015610c8d570361234f575b60c080915160208101519451946020860151809103612344575b5060408101516040860151809103612339575b506060810151606086015180910361232e575b5060808101516080860151809103612323575b5060a081015160a0860151809103612318575b500151920151809203612312575050565b60070155565b60098501555f612301565b600b8501555f6122ee565b600a8501555f6122db565b60088501555f6122c8565b600c8501555f6122b5565b6123598351611e8b565b6006811015610c8d57825460ff191660ff9190911617825561229b565b61238b825160806060820151910151906118dc565b906123968551611e8b565b6006811015610c8d5760040361242c5790612426917f1ec6d9e2b340c6cc9d5b6690a2d2a1558f252aa30668b45dbdb83bb7728984f260208088510151604051908152a26124005f805160206135f4833981519152915f805160206135b4833981519152546118e9565b9050805f805160206135b4833981519152555f80516020613534833981519152546124be565b5f61226d565b506124378451611e8b565b6006811015610c8d571561244c575b50612426565b612476906124005f805160206135f4833981519152915f805160206135b4833981519152546118e9565b5f612446565b805482101561180f575f5260205f209060011b01905f90565b91906124ab576020816001925184550151910155565b634e487b7160e01b5f525f60045260245ffd5b6124c6611cac565b5f805160206134d4833981519152549083156126b2575f19820192828411610bce576124ff845f805160206134d483398151915261247c565b508054831495908615612697575060028410611c7b576001198401848111610bce57670de0b6b3a764000091612555600161254a61255a945f805160206134d483398151915261247c565b500154945b85611f6b565b611c8e565b045f8051602061351483398151915254105f146126745762895440810290808204628954401490151715610bce57629896809004935b7f8984d2d0d7a9f2f70f22692c7c8344aa50cbed8c00a03c924457a31793ee8fe2547f8984d2d0d7a9f2f70f22692c7c8344aa50cbed8c00a03c924457a31793ee8fe3549080871061266c575b50808611612664575b501561260c5750506126076001915f805160206134d483398151915261247c565b500155565b9150916040519161261c8361175b565b82526020820152600160401b8210156117475761265c82600161266294015f805160206134d4833981519152555f805160206134d483398151915261247c565b90612495565b565b94505f6125e6565b95505f6125dd565b62a7d8c081029080820462a7d8c01490151715610bce5762989680900493612590565b670de0b6b3a764000091612555600161255a9301549461254f565b50505050565b90602082549182815201915f5260205f20905f5b8181106126d95750505090565b82548452602090930192600192830192016126cc565b6126f98282612b88565b80518051600684019392916001600160401b03821161174757600160401b82116117475784548286558083106127b5575b50602001845f5260205f205f5b8381106127a15750505050916127969160207f8b5d520ecd83f8a909da38eaeb49b5c1fb3d8d69e22e2b36ec0f5814b5c4aa439401519485600783015560088201555493604051928392602084526040602085015260608401906126b8565b9060408301520390a2565b600190602084519401938184015501612737565b855f528260205f2091820191015b8181106127d0575061272a565b5f81556001016127c3565b92939190915f805160206136b4833981519152835f5260205260405f20945f198301928311610bce578260ff865416612b4e575f198201918211610bce578110612b80575b5080151580612b77575b612b6f575b5060018301928354938415612b57575b84831115611c7b57829055815f525f8051602061365483398151915260205260018401809411610bce5760030193835f528460205260405f2054845f525f8051602061365483398151915260205260405f2080548210612b4e57600201548015612b4e576125556128b39261206988612d79565b92836128cb575b505050505f526020525f6040812055565b7f8984d2d0d7a9f2f70f22692c7c8344aa50cbed8c00a03c924457a31793ee8fe454917f8984d2d0d7a9f2f70f22692c7c8344aa50cbed8c00a03c924457a31793ee8fe554936010612947601184019361293e61292a8987549b611c8e565b946121e46129388a83611f7e565b8a6118e9565b92839101612f4e565b945f19861480612b45575b612ae6575f925f87121580612ad2575b612ab1575b5f965b88881061297c575050505050506128ba565b60018801808911610bce576129919083611f6b565b945f82121580612aa8575b15612a0857506129ff8180897f86c93961d1a070b7b56fd1214cf06ccc18a89a3869681be8b74533f85ddc826060206129f38b60016129dd8f9a829b61247c565b50016129eb81549e8f6118dc565b90558c6118dc565b604051908152a3612e2d565b975b019661296a565b949097612a1e612a188286611f6b565b866118dc565b612a2883886118dc565b60405190612a358261175b565b8282526020820152885490600160401b8210156117475761265c826001612a5f94018c558b61247c565b87545f198101908111610bce57897fd2337a844680345b0a7ba3392e6ddbbf8ff6e72cc99a633764c322c920576b7a6020612a9c6001978c6118dc565b604051908152a4612a01565b508a821261299c565b959250612acc6001612ac3858761247c565b50015493612e2d565b95612967565b5082612ade888761247c565b505410612962565b60405162461bcd60e51b815260206004820152603160248201527f56657374696e673a20737461727445706f63682069732062656c6f77207468616044820152706e20616c6c207365656e2065706f63687360781b6064820152608490fd5b50871515612952565b50505050505050565b935060068501545f198101908111610bce579361283f565b90505f61282f565b5080821161282a565b91505f612820565b90604051612b958161175b565b606081525f60208201525060405191612bad8361175b565b604051612bc881612bc181600686016126b8565b0382611791565b835260078101549160208401928352600882015490818114612d7257612bee82826118e9565b91815f19810111610bce57612c5991612c4f91612c0b5f91612ff5565b5f805160206136148339815191525f805160206135548339815191525491828111612d5e575b5080548310612d53575b506104e6612c499293612ff5565b9061302e565b6003840154611f6b565b91670de0b6b3a7640000830292808404670de0b6b3a76400001490151715610bce57612c976005655af3107a4000612ca09504920154809284612e73565b939085516118dc565b84525f5b818110612cb357505050505090565b808360019210612d36575b82612cc985836118dc565b1015612d2457612ce48751612cde86846118dc565b906117fb565b51612cf08289516117fb565b525b612cfc81866117fb565b51612d1d82612d178a5193612d1183866117fb565b516118dc565b926117fb565b5201612ca4565b5f612d308289516117fb565b52612cf2565b612d4c612d448289516117fb565b5187516118dc565b8652612cbe565b5491506104e6612c3b565b612d6b91935082906118e9565b915f612c31565b5050505090565b5f805160206134d4833981519152545f91905f198101908111610bce575f925b81811115612da75750505090565b612db182826118dc565b60011c93612dcc855f805160206134d483398151915261247c565b509182548086115f14612e015750505060010154926001810180911115612d9957634e487b7160e01b5f52601160045260245ffd5b91959093509190841015612e2157505f198101908111610bce5790612d99565b60010154949350505050565b6001600160ff1b038114610bce5760010190565b90612e4b826117b4565b612e586040519182611791565b8281528092612e69601f19916117b4565b0190602036910137565b9291908015612f3e5781612e8691611c8e565b905f612e9285836131ee565b8581809711612f2d575b5060010190818611610bce5761206984916121e485612ebe612ec7968b611f6b565b60011c92611f6b565b91612ed182612e41565b945f5b838110612ee357505050509190565b83612eee82846118dc565b1015612f13575b600190612f028484611f6b565b612f0c828a6117fb565b5201612ed4565b8115612ef55790612f256001916119a9565b919050612ef5565b612f3792506118e9565b845f612e9c565b50612f4a919250612e41565b5f91565b60010180545f199392908015612ff0575f905f198101908111610bce57929190925b80841115612f7e5750505050565b90919294612f8c82876118dc565b60011c95612f9a878661247c565b505480851115612fbc575050508460018101809111610bce575b929190612f70565b919690925090831015612fe95780612fd857505f199450505050565b5f198101908111610bce5790612fb4565b9450505050565b505050565b5f805160206136f4833981519152545f80516020613634833981519152545f198301928311610bce5761302b926121e491611f6b565b90565b905f805160206136148339815191526130595f80516020613554833981519152546120698142611c8e565b821015613195578290541161311c578082116130b4576130849061307c83613215565b929091613215565b90929082840361309b575050505061302b90613318565b61302b94506130ae9291612157916118e9565b90611c8e565b60405162461bcd60e51b815260206004820152605a60248201525f805160206135d483398151915260448201525f805160206136948339815191526064820152790732067726561746572207468616e20746f54696d657374616d760341b608482015260a490fd5b60405162461bcd60e51b815260206004820152606560248201525f805160206135d483398151915260448201525f8051602061369483398151915260648201527f73206c6f776572207468616e206669727374207265636f726465642074696d6560848201526407374616d760dc1b60a482015260c490fd5b60405162461bcd60e51b815260206004820152602b60248201527f4d65616e2070726963652063616e206368616e676520696e207375676765737460448201526a1959081a5b9d195c9d985b60aa1b6064820152608490fd5b90808210156131fb575090565b905090565b805482101561180f575f5260205f2001905f90565b905f80516020613614833981519152549161323083826118e9565b6132495f80516020613554833981519152548092611c8e565b937f62e26dda6281f8a7bde8d0de6ef3dc4300cca63258b4641529b5bae7dc08902854918286105f1461329b5750505050613291825f805160206136d4833981519152613200565b90549060031b1c90565b6125556104e6926132ab956118e9565b60018101809111610bce575f80516020613534833981519152548015611c9857655af3107a4000045f805160206136d4833981519152545f198101908111610bce5761302b9261330b6121e4925f805160206136d4833981519152613200565b90549060031b1c92611f6b565b5f805160206136148339815191525490808211613428576133519161333c916118e9565b5f805160206135548339815191525490611c8e565b5f805160206136d4833981519152548110156134075780156133bd57613384815f805160206136d4833981519152613200565b90549060031b1c5f198201918211610bce576133b061302b925f805160206136d4833981519152613200565b90549060031b1c906118e9565b505f805160206136d4833981519152541561180f575f805160206136d48339815191525f527fd4d5257edb89e07e8d010c6ff96326eddf1fc220d3213e3ef3ddd6c1b3b706415490565b505f80516020613534833981519152548015611c9857655af3107a40000490565b60405162461bcd60e51b815260206004820152605760248201527f4c69624f7261636c6550726963652e6765745265765072696365417454696d6560448201527f7374616d703a2074696d657374616d70206973206c6f776572207468616e2066606482015276069727374207265636f726465642074696d657374616d7604c1b608482015260a490fdfe88681cafafd55573d275926fd208ef2ba36c6dd5169e88841d4bc9bcd22530218984d2d0d7a9f2f70f22692c7c8344aa50cbed8c00a03c924457a31793ee8fe613f5ac65dc9f5b2765e76eb17d53fe3e7065903823eb36bdd7841fa3f8dacbbf8984d2d0d7a9f2f70f22692c7c8344aa50cbed8c00a03c924457a31793ee8fe162e26dda6281f8a7bde8d0de6ef3dc4300cca63258b4641529b5bae7dc08902a62e26dda6281f8a7bde8d0de6ef3dc4300cca63258b4641529b5bae7dc089027bd5605b4405616555ea2583cbd913ecf346c52c37520187117aadcea54e7d14921811dc5bb11da2b2076245a2c14796806445512606a02297e6b92fb117281078984d2d0d7a9f2f70f22692c7c8344aa50cbed8c00a03c924457a31793ee8fd24c69624f7261636c6550726963652e6765744d65616e526576507269636542658984d2d0d7a9f2f70f22692c7c8344aa50cbed8c00a03c924457a31793ee8fd162e26dda6281f8a7bde8d0de6ef3dc4300cca63258b4641529b5bae7dc0890267d4f8ec43464738265ced6b7ed5f90007e9b7c34318bdd82d9249328b50bd358a8de0abb18de6e730ac24d7fe02c877d293683811fc3ac5d8e62e2a52c0d20d888681cafafd55573d275926fd208ef2ba36c6dd5169e88841d4bc9bcd2253022747765656e54696d657374616d70733a2066726f6d54696d657374616d702069a8de0abb18de6e730ac24d7fe02c877d293683811fc3ac5d8e62e2a52c0d20d762e26dda6281f8a7bde8d0de6ef3dc4300cca63258b4641529b5bae7dc0890297d4f8ec43464738265ced6b7ed5f90007e9b7c34318bdd82d9249328b50bd357a2646970667358221220588ee77722b28ea420d90614f1072f1b0d62f1a6841ef764236967978536ce5b64736f6c634300081a0033","linkReferences":{}},"methodIdentifiers":{"matchDeal(address,bytes32[],bytes32[][][])":"8e4643cb","moveResourcesFromDeal(bytes32[],bytes32)":"12a4ebb0","reportWorkerActivated(bytes32,bytes32,bytes32)":"bf0d3707"},"storageLayout":{"storage":[],"types":{}},"devdoc":{"version":1,"kind":"dev","methods":{"matchDeal(address,bytes32[],bytes32[][][])":{"details":"Match Deal with Compute Units provided.There should be `bytes32[][] calldata peers` as well, but it is not supported by subgraph codegen.Ref to https://github.com/graphprotocol/graph-tooling/issues/342.","params":{"computeUnits":": Compute Units per offer id (3D array: provider -> peer -> CU) to match with.","deal":": Deal to match.","offers":": Offers array that represents offers in computeUnits 3D array."}},"moveResourcesFromDeal(bytes32[],bytes32)":{"details":"Return resources from deal"},"reportWorkerActivated(bytes32,bytes32,bytes32)":{"details":"Report that a worker is activated, only throws event","params":{"offchainWorkerId":"The offchain worker id","onchainWorkerId":"The onchain worker id","peerId":"The peer id"}}},"events":{"ComputeUnitsMatched(bytes32,address,bytes32,bytes32[],(bytes4,bytes32))":{"details":"Emitted when a deal is matched with a compute unit","params":{"appCID":"The app cid of the deal","cuIds":"ids of compute units matched","deal":"The deal address","onchainWorkerId":"onchain worker id, for use in tools that interact with chain","peerId":"The peer id of the deal"}},"ComputeUnitsRemovedFromDeal(bytes32,address,bytes32[],bytes32)":{"details":"Emitted when a compute unit removed from a peer","params":{"cuIds":"The list of compute unit ids","deal":"The deal address","peerId":"The peer id"}},"UnitActivated(bytes32,bytes32,uint256)":{"details":"Emitted when a unit activated. Unit is activated when it returned from deal","params":{"commitmentId":"Commitment id","unitId":"Compute unit id which activated"}},"UnitDeactivated(bytes32,bytes32)":{"details":"Emitted when a unit deactivated. Unit is deactivated when it moved to deal","params":{"commitmentId":"Commitment id","unitId":"Compute unit id which deactivated"}},"WorkerActivated(bytes32,address,bytes32,bytes32)":{"details":"Emitted when a worker is activated","params":{"deal":"The deal address","offchain_worker_id":"The offchain worker id","onchain_worker_id":"The onchain worker id","peer_id":"The peer id"}}},"errors":{"CapacityCommitmentIsNotActive(uint8)":[{"details":"Capacity commitment is not active"}],"MinWorkersNotMatched(uint256)":[{"details":"Throws if the min workers of the deal is not matched","params":{"_minWorkers":"The min workers of the deal"}}]}},"id":127}