{"abi":[{"type":"function","name":"addComputePeers","inputs":[{"name":"offerId","type":"bytes32","internalType":"bytes32"},{"name":"peers","type":"tuple[]","internalType":"struct IOffer.RegisterComputePeer[]","components":[{"name":"peerId","type":"bytes32","internalType":"bytes32"},{"name":"owner","type":"address","internalType":"address"},{"name":"unitIds","type":"bytes32[]","internalType":"bytes32[]"}]}],"outputs":[],"stateMutability":"nonpayable"},{"type":"function","name":"addComputeUnits","inputs":[{"name":"peerId","type":"bytes32","internalType":"bytes32"},{"name":"unitIds","type":"bytes32[]","internalType":"bytes32[]"}],"outputs":[],"stateMutability":"nonpayable"},{"type":"function","name":"addEffector","inputs":[{"name":"offerId","type":"bytes32","internalType":"bytes32"},{"name":"newEffectors","type":"tuple[]","internalType":"struct CIDV1[]","components":[{"name":"prefixes","type":"bytes4","internalType":"bytes4"},{"name":"hash","type":"bytes32","internalType":"bytes32"}]}],"outputs":[],"stateMutability":"nonpayable"},{"type":"function","name":"changeMinPricePerCuPerEpoch","inputs":[{"name":"offerId","type":"bytes32","internalType":"bytes32"},{"name":"newMinPricePerCuPerEpoch","type":"uint256","internalType":"uint256"}],"outputs":[],"stateMutability":"nonpayable"},{"type":"function","name":"changePaymentToken","inputs":[{"name":"offerId","type":"bytes32","internalType":"bytes32"},{"name":"newPaymentToken","type":"address","internalType":"address"}],"outputs":[],"stateMutability":"nonpayable"},{"type":"function","name":"getComputePeer","inputs":[{"name":"peerId","type":"bytes32","internalType":"bytes32"}],"outputs":[{"name":"","type":"tuple","internalType":"struct IOffer.ComputePeer","components":[{"name":"offerId","type":"bytes32","internalType":"bytes32"},{"name":"commitmentId","type":"bytes32","internalType":"bytes32"},{"name":"unitCount","type":"uint256","internalType":"uint256"},{"name":"owner","type":"address","internalType":"address"}]}],"stateMutability":"view"},{"type":"function","name":"getComputeUnit","inputs":[{"name":"unitId","type":"bytes32","internalType":"bytes32"}],"outputs":[{"name":"","type":"tuple","internalType":"struct IOffer.ComputeUnit","components":[{"name":"deal","type":"address","internalType":"address"},{"name":"peerId","type":"bytes32","internalType":"bytes32"},{"name":"startEpoch","type":"uint256","internalType":"uint256"},{"name":"onchainWorkerId","type":"bytes32","internalType":"bytes32"}]}],"stateMutability":"view"},{"type":"function","name":"getComputeUnitIds","inputs":[{"name":"peerId","type":"bytes32","internalType":"bytes32"}],"outputs":[{"name":"","type":"bytes32[]","internalType":"bytes32[]"}],"stateMutability":"view"},{"type":"function","name":"getComputeUnits","inputs":[{"name":"peerId","type":"bytes32","internalType":"bytes32"}],"outputs":[{"name":"","type":"tuple[]","internalType":"struct IOffer.ComputeUnitView[]","components":[{"name":"id","type":"bytes32","internalType":"bytes32"},{"name":"deal","type":"address","internalType":"address"},{"name":"startEpoch","type":"uint256","internalType":"uint256"},{"name":"onchainWorkerId","type":"bytes32","internalType":"bytes32"}]}],"stateMutability":"view"},{"type":"function","name":"getEffectorInfo","inputs":[{"name":"id","type":"tuple","internalType":"struct CIDV1","components":[{"name":"prefixes","type":"bytes4","internalType":"bytes4"},{"name":"hash","type":"bytes32","internalType":"bytes32"}]}],"outputs":[{"name":"","type":"tuple","internalType":"struct IOffer.EffectorInfo","components":[{"name":"description","type":"string","internalType":"string"},{"name":"metadata","type":"tuple","internalType":"struct CIDV1","components":[{"name":"prefixes","type":"bytes4","internalType":"bytes4"},{"name":"hash","type":"bytes32","internalType":"bytes32"}]}]}],"stateMutability":"view"},{"type":"function","name":"getOffer","inputs":[{"name":"offerId","type":"bytes32","internalType":"bytes32"}],"outputs":[{"name":"","type":"tuple","internalType":"struct IOffer.Offer","components":[{"name":"provider","type":"address","internalType":"address"},{"name":"minPricePerCuPerEpoch","type":"uint256","internalType":"uint256"},{"name":"paymentToken","type":"address","internalType":"address"},{"name":"peerCount","type":"uint256","internalType":"uint256"},{"name":"minProtocolVersion","type":"uint256","internalType":"uint256"},{"name":"maxProtocolVersion","type":"uint256","internalType":"uint256"}]}],"stateMutability":"view"},{"type":"function","name":"getProviderInfo","inputs":[{"name":"provider","type":"address","internalType":"address"}],"outputs":[{"name":"","type":"tuple","internalType":"struct IOffer.ProviderInfo","components":[{"name":"name","type":"string","internalType":"string"},{"name":"metadata","type":"tuple","internalType":"struct CIDV1","components":[{"name":"prefixes","type":"bytes4","internalType":"bytes4"},{"name":"hash","type":"bytes32","internalType":"bytes32"}]},{"name":"unitCount","type":"uint256","internalType":"uint256"}]}],"stateMutability":"view"},{"type":"function","name":"matchDeal","inputs":[{"name":"deal","type":"address","internalType":"contract IDeal"},{"name":"offers","type":"bytes32[]","internalType":"bytes32[]"},{"name":"computeUnits","type":"bytes32[][][]","internalType":"bytes32[][][]"}],"outputs":[],"stateMutability":"nonpayable"},{"type":"function","name":"moveResourcesFromDeal","inputs":[{"name":"unitIds","type":"bytes32[]","internalType":"bytes32[]"},{"name":"onchainWorkerId","type":"bytes32","internalType":"bytes32"}],"outputs":[],"stateMutability":"nonpayable"},{"type":"function","name":"registerMarketOffer","inputs":[{"name":"minPricePerCuPerEpoch","type":"uint256","internalType":"uint256"},{"name":"paymentToken","type":"address","internalType":"address"},{"name":"effectors","type":"tuple[]","internalType":"struct CIDV1[]","components":[{"name":"prefixes","type":"bytes4","internalType":"bytes4"},{"name":"hash","type":"bytes32","internalType":"bytes32"}]},{"name":"peers","type":"tuple[]","internalType":"struct IOffer.RegisterComputePeer[]","components":[{"name":"peerId","type":"bytes32","internalType":"bytes32"},{"name":"owner","type":"address","internalType":"address"},{"name":"unitIds","type":"bytes32[]","internalType":"bytes32[]"}]},{"name":"minProtocolVersion","type":"uint256","internalType":"uint256"},{"name":"maxProtocolVersion","type":"uint256","internalType":"uint256"}],"outputs":[{"name":"","type":"bytes32","internalType":"bytes32"}],"stateMutability":"nonpayable"},{"type":"function","name":"removeComputePeer","inputs":[{"name":"peerId","type":"bytes32","internalType":"bytes32"}],"outputs":[],"stateMutability":"nonpayable"},{"type":"function","name":"removeComputeUnit","inputs":[{"name":"unitId","type":"bytes32","internalType":"bytes32"}],"outputs":[],"stateMutability":"nonpayable"},{"type":"function","name":"removeEffector","inputs":[{"name":"offerId","type":"bytes32","internalType":"bytes32"},{"name":"effectors","type":"tuple[]","internalType":"struct CIDV1[]","components":[{"name":"prefixes","type":"bytes4","internalType":"bytes4"},{"name":"hash","type":"bytes32","internalType":"bytes32"}]}],"outputs":[],"stateMutability":"nonpayable"},{"type":"function","name":"removeEffectorInfo","inputs":[{"name":"id","type":"tuple","internalType":"struct CIDV1","components":[{"name":"prefixes","type":"bytes4","internalType":"bytes4"},{"name":"hash","type":"bytes32","internalType":"bytes32"}]}],"outputs":[],"stateMutability":"nonpayable"},{"type":"function","name":"removeOffer","inputs":[{"name":"offerId","type":"bytes32","internalType":"bytes32"}],"outputs":[],"stateMutability":"nonpayable"},{"type":"function","name":"setEffectorInfo","inputs":[{"name":"id","type":"tuple","internalType":"struct CIDV1","components":[{"name":"prefixes","type":"bytes4","internalType":"bytes4"},{"name":"hash","type":"bytes32","internalType":"bytes32"}]},{"name":"description","type":"string","internalType":"string"},{"name":"metadata","type":"tuple","internalType":"struct CIDV1","components":[{"name":"prefixes","type":"bytes4","internalType":"bytes4"},{"name":"hash","type":"bytes32","internalType":"bytes32"}]}],"outputs":[],"stateMutability":"nonpayable"},{"type":"function","name":"setProviderInfo","inputs":[{"name":"name","type":"string","internalType":"string"},{"name":"metadata","type":"tuple","internalType":"struct CIDV1","components":[{"name":"prefixes","type":"bytes4","internalType":"bytes4"},{"name":"hash","type":"bytes32","internalType":"bytes32"}]}],"outputs":[],"stateMutability":"nonpayable"},{"type":"event","name":"CommitmentFailed","inputs":[{"name":"commitmentId","type":"bytes32","indexed":true,"internalType":"bytes32"},{"name":"failedEpoch","type":"uint256","indexed":false,"internalType":"uint256"}],"anonymous":false},{"type":"event","name":"CommitmentStatsUpdated","inputs":[{"name":"commitmentId","type":"bytes32","indexed":false,"internalType":"bytes32"},{"name":"totalFailCount","type":"uint256","indexed":false,"internalType":"uint256"},{"name":"exitedUnitCount","type":"uint256","indexed":false,"internalType":"uint256"},{"name":"activeUnitCount","type":"uint256","indexed":false,"internalType":"uint256"},{"name":"nextAdditionalActiveUnitCount","type":"uint256","indexed":false,"internalType":"uint256"},{"name":"changedEpoch","type":"uint256","indexed":false,"internalType":"uint256"}],"anonymous":false},{"type":"event","name":"ComputeUnitCreated","inputs":[{"name":"peerId","type":"bytes32","indexed":true,"internalType":"bytes32"},{"name":"unitId","type":"bytes32","indexed":false,"internalType":"bytes32"}],"anonymous":false},{"type":"event","name":"ComputeUnitRemoved","inputs":[{"name":"peerId","type":"bytes32","indexed":true,"internalType":"bytes32"},{"name":"unitId","type":"bytes32","indexed":true,"internalType":"bytes32"}],"anonymous":false},{"type":"event","name":"ComputeUnitsMatched","inputs":[{"name":"peerId","type":"bytes32","indexed":true,"internalType":"bytes32"},{"name":"deal","type":"address","indexed":false,"internalType":"contract IDeal"},{"name":"onchainWorkerId","type":"bytes32","indexed":false,"internalType":"bytes32"},{"name":"cuIds","type":"bytes32[]","indexed":false,"internalType":"bytes32[]"},{"name":"appCID","type":"tuple","indexed":false,"internalType":"struct CIDV1","components":[{"name":"prefixes","type":"bytes4","internalType":"bytes4"},{"name":"hash","type":"bytes32","internalType":"bytes32"}]}],"anonymous":false},{"type":"event","name":"ComputeUnitsRemovedFromDeal","inputs":[{"name":"peerId","type":"bytes32","indexed":true,"internalType":"bytes32"},{"name":"deal","type":"address","indexed":true,"internalType":"contract IDeal"},{"name":"cuIds","type":"bytes32[]","indexed":false,"internalType":"bytes32[]"},{"name":"onchainWorkerId","type":"bytes32","indexed":false,"internalType":"bytes32"}],"anonymous":false},{"type":"event","name":"EffectorAdded","inputs":[{"name":"offerId","type":"bytes32","indexed":true,"internalType":"bytes32"},{"name":"effector","type":"tuple","indexed":false,"internalType":"struct CIDV1","components":[{"name":"prefixes","type":"bytes4","internalType":"bytes4"},{"name":"hash","type":"bytes32","internalType":"bytes32"}]}],"anonymous":false},{"type":"event","name":"EffectorInfoRemoved","inputs":[{"name":"id","type":"tuple","indexed":false,"internalType":"struct CIDV1","components":[{"name":"prefixes","type":"bytes4","internalType":"bytes4"},{"name":"hash","type":"bytes32","internalType":"bytes32"}]}],"anonymous":false},{"type":"event","name":"EffectorInfoSet","inputs":[{"name":"id","type":"tuple","indexed":false,"internalType":"struct CIDV1","components":[{"name":"prefixes","type":"bytes4","internalType":"bytes4"},{"name":"hash","type":"bytes32","internalType":"bytes32"}]},{"name":"description","type":"string","indexed":false,"internalType":"string"},{"name":"metadata","type":"tuple","indexed":false,"internalType":"struct CIDV1","components":[{"name":"prefixes","type":"bytes4","internalType":"bytes4"},{"name":"hash","type":"bytes32","internalType":"bytes32"}]}],"anonymous":false},{"type":"event","name":"EffectorRemoved","inputs":[{"name":"offerId","type":"bytes32","indexed":true,"internalType":"bytes32"},{"name":"effector","type":"tuple","indexed":false,"internalType":"struct CIDV1","components":[{"name":"prefixes","type":"bytes4","internalType":"bytes4"},{"name":"hash","type":"bytes32","internalType":"bytes32"}]}],"anonymous":false},{"type":"event","name":"EntityAdded","inputs":[{"name":"commitmentId","type":"bytes32","indexed":true,"internalType":"bytes32"},{"name":"entityId","type":"bytes32","indexed":false,"internalType":"bytes32"},{"name":"rewardPerEpoch","type":"uint256","indexed":false,"internalType":"uint256"},{"name":"currentEpoch","type":"uint256","indexed":false,"internalType":"uint256"}],"anonymous":false},{"type":"event","name":"EntityRemoved","inputs":[{"name":"commitmentId","type":"bytes32","indexed":true,"internalType":"bytes32"},{"name":"entityId","type":"bytes32","indexed":false,"internalType":"bytes32"},{"name":"currentEpoch","type":"uint256","indexed":false,"internalType":"uint256"}],"anonymous":false},{"type":"event","name":"MarketOfferRegistered","inputs":[{"name":"provider","type":"address","indexed":true,"internalType":"address"},{"name":"offerId","type":"bytes32","indexed":false,"internalType":"bytes32"},{"name":"minPricePerCuPerEpoch","type":"uint256","indexed":false,"internalType":"uint256"},{"name":"paymentToken","type":"address","indexed":false,"internalType":"address"},{"name":"effectors","type":"tuple[]","indexed":false,"internalType":"struct CIDV1[]","components":[{"name":"prefixes","type":"bytes4","internalType":"bytes4"},{"name":"hash","type":"bytes32","internalType":"bytes32"}]},{"name":"minProtocolVersion","type":"uint256","indexed":false,"internalType":"uint256"},{"name":"maxProtocolVersion","type":"uint256","indexed":false,"internalType":"uint256"}],"anonymous":false},{"type":"event","name":"MarketOfferRemoved","inputs":[{"name":"offerId","type":"bytes32","indexed":true,"internalType":"bytes32"}],"anonymous":false},{"type":"event","name":"MinPricePerCuPerEpochUpdated","inputs":[{"name":"offerId","type":"bytes32","indexed":true,"internalType":"bytes32"},{"name":"minPricePerCuPerEpoch","type":"uint256","indexed":false,"internalType":"uint256"}],"anonymous":false},{"type":"event","name":"PaymentTokenUpdated","inputs":[{"name":"offerId","type":"bytes32","indexed":true,"internalType":"bytes32"},{"name":"paymentToken","type":"address","indexed":false,"internalType":"address"}],"anonymous":false},{"type":"event","name":"PeerCreated","inputs":[{"name":"offerId","type":"bytes32","indexed":true,"internalType":"bytes32"},{"name":"peerId","type":"bytes32","indexed":false,"internalType":"bytes32"},{"name":"owner","type":"address","indexed":false,"internalType":"address"}],"anonymous":false},{"type":"event","name":"PeerRemoved","inputs":[{"name":"offerId","type":"bytes32","indexed":true,"internalType":"bytes32"},{"name":"peerId","type":"bytes32","indexed":true,"internalType":"bytes32"}],"anonymous":false},{"type":"event","name":"ProviderInfoUpdated","inputs":[{"name":"provider","type":"address","indexed":true,"internalType":"address"},{"name":"name","type":"string","indexed":false,"internalType":"string"},{"name":"metadata","type":"tuple","indexed":false,"internalType":"struct CIDV1","components":[{"name":"prefixes","type":"bytes4","internalType":"bytes4"},{"name":"hash","type":"bytes32","internalType":"bytes32"}]}],"anonymous":false},{"type":"event","name":"StateUpdated","inputs":[{"name":"commitmentId","type":"bytes32","indexed":true,"internalType":"bytes32"},{"name":"state","type":"tuple","indexed":false,"internalType":"struct DealStakerRewards.VestingState","components":[{"name":"items","type":"uint256[]","internalType":"uint256[]"},{"name":"accumulatedUnlockedFlt","type":"uint256","internalType":"uint256"}]}],"anonymous":false},{"type":"event","name":"UnitActivated","inputs":[{"name":"commitmentId","type":"bytes32","indexed":true,"internalType":"bytes32"},{"name":"unitId","type":"bytes32","indexed":true,"internalType":"bytes32"},{"name":"startEpoch","type":"uint256","indexed":false,"internalType":"uint256"}],"anonymous":false},{"type":"event","name":"UnitDeactivated","inputs":[{"name":"commitmentId","type":"bytes32","indexed":true,"internalType":"bytes32"},{"name":"unitId","type":"bytes32","indexed":true,"internalType":"bytes32"}],"anonymous":false},{"type":"event","name":"VestingScheduleItem","inputs":[{"name":"commitmentId","type":"bytes32","indexed":true,"internalType":"bytes32"},{"name":"id","type":"uint256","indexed":true,"internalType":"uint256"},{"name":"epoch","type":"uint256","indexed":true,"internalType":"uint256"},{"name":"cumulativeAmount","type":"uint256","indexed":false,"internalType":"uint256"}],"anonymous":false},{"type":"event","name":"VestingUpdateItem","inputs":[{"name":"commitmentId","type":"bytes32","indexed":true,"internalType":"bytes32"},{"name":"id","type":"uint256","indexed":true,"internalType":"uint256"},{"name":"cumulativeAmount","type":"uint256","indexed":false,"internalType":"uint256"}],"anonymous":false},{"type":"error","name":"CapacityCommitmentIsNotActive","inputs":[{"name":"status","type":"uint8","internalType":"enum ICapacity.CCStatus"}]},{"type":"error","name":"MinWorkersNotMatched","inputs":[{"name":"_minWorkers","type":"uint256","internalType":"uint256"}]}],"bytecode":{"object":"0x60808060405234601557615cf9908161001a8239f35b5f80fdfe6104806040526004361015610012575f80fd5b5f3560e01c8063087b97ba14612f6f5780630bcee1a214612eba57806312a4ebb014612cdf57806319c671ca14612baa57806334205efd14612a815780633591187c1461285357806362ac63fa146127cb578063745e920b1461277557806374920a9d146126c75780637583902f146125ff57806386e68254146125a85780638e4643cb1461129157806391d27f71146111a15780639faf0d2014611093578063b017191a14610f68578063b6015c6e14610c47578063b6b9084e14610bc8578063c685738e146109c6578063d597b8c81461095f578063da74336a14610709578063edd9db67146101ed5763f46bcb1d1461010c575f80fd5b346101e95760403660031901126101e957600435602435815f525f80516020615a6483398151915260205260405f2061014f60018060a01b038254163314613265565b811561018857817fe1ee92410921704d98c80cd8205bc1af1be59a37950d466e1f8367ce56b868f19260016020930155604051908152a2005b60405162461bcd60e51b815260206004820152603360248201527f4d696e20707269636520706572204355207065722065706f63682073686f756c6044820152720642062652067726561746572207468616e203606c1b6064820152608490fd5b5f80fd5b346101e95760c03660031901126101e95760043561020961302e565b906044356001600160401b0381116101e957610229903690600401613143565b91906064356001600160401b0381116101e95761024a9036906004016131d9565b92909360843560a435915f80516020615c648339815191529760405160208101907febbe29d10864671a7296ae5158eb0df8533e86c62e6a8460f3029ae682538c5182523360601b6040820152436054820152365f60748301376102c16074823681015f838201520301601f198101835282613109565b5190209860018060a01b0333165f526020526102e060405f20546133d5565b156106cb575f8981525f80516020615a6483398151915260205260409020600201546001600160a01b031661068f57841561062e576001600160a01b03169361032a8515156132af565b7f60ac4d56f7e69877e4b95a6e91f4b3612278b580a93ea7637885a480e015031a5483106105e9577f60ac4d56f7e69877e4b95a6e91f4b3612278b580a93ea7637885a480e015031b5484116105a557838311610566578190855f525f80516020615c848339815191526020526103a760ff60405f20541661330c565b6040516103b3816130ee565b33815260058b60208301848152604084018a815260608501905f825260808601928a845260a08701948c86525f525f80516020615a6483398151915260205260405f209660018060a01b039060018060a01b039051161660018060a01b031988541617875551600187015560018060a01b03905116600286019060018060a01b031660018060a01b0319825416179055516003850155516004840155519101555f5b82811061051057506040519560c08701918b88526020880152604087015260c060608701525260e0840194905f5b8181106104f25750505090829160807f02b4bfba88db81e84c717b16bf874a79ecc39de3944a9f18dd7122ae32f0990794015260a08201528033930390a25f5b8181106104d557602084604051908152f35b806104ec6104e66001938587613678565b86613a3d565b016104c3565b909195604080826105056001948b61354a565b019701929101610483565b600191925061053161052c3661052784888d61356b565b6133a6565b61390b565b8b5f525f80516020615ba483398151915260205260405f20905f5260205260405f208260ff1982541617905501908291610455565b60405162461bcd60e51b815260206004820152601760248201527657726f6e672070726f746f636f6c2076657273696f6e7360481b6044820152606490fd5b60405162461bcd60e51b815260206004820152601c60248201527b4d61782070726f746f636f6c2076657273696f6e20746f6f2062696760201b6044820152606490fd5b60405162461bcd60e51b815260206004820152601e60248201527f4d696e2070726f746f636f6c2076657273696f6e20746f6f20736d616c6c00006044820152606490fd5b60405162461bcd60e51b815260206004820152603360248201527f4d696e20707269636520706572206375207065722065706f63682073686f756c6044820152720642062652067726561746572207468616e203606c1b6064820152608490fd5b60405162461bcd60e51b81526020600482015260146024820152734f6666657220616c72656164792065786973747360601b6044820152606490fd5b60405162461bcd60e51b8152602060048201526016602482015275141c9bdd9a59195c88191bd95cdb89dd08195e1a5cdd60521b6044820152606490fd5b346101e957366003190160a081126101e9576040136101e9576044356001600160401b0381116101e957610741903690600401613238565b9060403660631901126101e9576107566139a6565b811561091a5761076861052c3661336c565b5f9081525f80516020615a2483398151915260205260409020916001600160401b0381116109065761079a83546133d5565b601f81116108cb575b505f81601f811160011461086857806107d0925f9161085d575b508160011b915f199060031b1c19161790565b83555b606435600184016001600160e01b031982168083036101e9577f07e6a99b56bd76df684b4e8200a585d033be87a4728f1b66545d48c61bfc405e956002928460e01c63ffffffff19825416179055608435928391015561084c60405195869561083b8761352a565b60a0604088015260a087019161382c565b9250606084015260808301520390a1005b9050840135866107bd565b50601f19821690845f528260205f20925f5b8181106108b0575010610897575b5050600181811b0183556107d3565b8301355f19600384901b60f8161c191690558380610888565b8684013585556001909401936020938401938693500161087a565b6108f690845f5260205f20601f840160051c810191602085106108fc575b601f0160051c0190613501565b836107a3565b90915081906108e9565b634e487b7160e01b5f52604160045260245ffd5b60405162461bcd60e51b815260206004820152601f60248201527f4465736372697074696f6e2073686f756c64206265206e6f7420656d707479006044820152606490fd5b346101e95760203660031901126101e95760c061097d60043561387c565b60a060405191600180831b03815116835260208101516020840152600180831b0360408201511660408401526060810151606084015260808101516080840152015160a0820152f35b346101e95760603660031901126101e9576004356001600160401b0381116101e9576109f6903690600401613238565b9060403660231901126101e9578115610b8857335f9081525f80516020615c6483398151915260205260409020916001600160401b03811161090657610a3c83546133d5565b601f8111610b58575b505f81601f8111600114610af55780610a71925f9161085d57508160011b915f199060031b1c19161790565b83555b602435926001600160e01b03198416600182018186036101e9577f25909849cdf41a66fb9d72a68c492d440847318f46672d5f21aed036bc2a3c5c94600293610ae1928860e01c63ffffffff1982541617905560443594859101556040519460608652606086019161382c565b9450602083015260408201528033930390a2005b50601f19821690845f528260205f20925f5b818110610b3d575010610b24575b5050600181811b018355610a74565b8301355f19600384901b60f8161c191690558380610b15565b86840135855560019094019360209384019386935001610b07565b610b8290845f5260205f20601f840160051c810191602085106108fc57601f0160051c0190613501565b83610a45565b60405162461bcd60e51b81526020600482015260186024820152774e616d652073686f756c64206265206e6f7420656d70747960401b6044820152606490fd5b346101e957610c45610bd936613209565b91610be58115156137e2565b805f525f805160206159c4833981519152602052610c40600160405f208054610c0f8115156137a1565b5f525f80516020615a64833981519152602052610c38828060a01b0360405f2054163314613265565b0154156135c4565b613cf2565b005b346101e95760203660031901126101e957600435805f525f80516020615c0483398151915260205260405f20604051808260208294549384815201905f5260205f20925f5b818110610f4f575050610ca192500382613109565b805191610cad8361312c565b92610cbb6040519485613109565b808452610cca601f199161312c565b015f5b818110610f385750505f525f805160206159c4833981519152602052600160405f2001545f9080610df4575b505f5b8251811015610d875780610d12600192856134d9565b51805f525f80516020615bc483398151915260205260405f2060028101548015610d80575b6003858060a01b038354169201549160405193610d53856130d3565b8452602084015260408301526060820152610d6e82876134d9565b52610d7981866134d9565b5001610cfc565b5084610d37565b836040518091602082016020835281518091526020604084019201905f5b818110610db3575050500390f35b91935091602060806001926060875180518352858060a01b038582015116858401526040810151604084015201516060820152019401910191849392610da5565b90505f610140604051610e06816130b7565b8281528260208201528260408201528260608201528260808201528260a08201528260c08201528260e0820152826101008201528261012082015201525f80516020615c24833981519152905f5260205260405f206001810154610e6b811515613c90565b610140610e76613bf2565b600684015493600381015491610e8c83876136cc565b90610eac610e9987613b6e565b92610ea38561438f565b9284848761446c565b93610ec16040600286015494015191896136cc565b600485015491602060018060a01b0360058801541694015194600d6020604088015197015197015499610f0060405199610efa8b6130b7565b8a613ce6565b60208901526040880152606087015288608087015260a086015260c085015260e0840152610100830152610120820152015283610cf9565b602090610f43613612565b82828801015201610ccd565b8454835260019485019486945060209093019201610c8c565b346101e957610f7636613173565b825f525f80516020615a64833981519152602052610fa160018060a01b0360405f2054163314613265565b5f5b818110610fac57005b610fb781838561356b565b90610fc561052c36846133a6565b855f525f80516020615ba483398151915260205260405f20815f5260205260ff60405f205416611054577f3c96a39027441c49cc91433cc2f6a915b4aa9be8119e89e1ee6700fe60eb253160406001948893845f525f80516020615ba4833981519152602052825f20905f52602052815f208660ff1982541617905561104d8251809261354a565ba201610fa3565b60405162461bcd60e51b81526020600482015260176024820152764566666563746f7220616c72656164792065786973747360481b6044820152606490fd5b346101e95760203660031901126101e957600435805f525f805160206159c483398151915260205260405f20805490815f525f80516020615a64833981519152602052600260405f20916110e88415156137a1565b6110fc60018060a01b038454163314613265565b01546111635760030161110f8154613606565b9055815f525f805160206159c48339815191526020525f60036040822082815582600182015582600282015501557f5f91ba2d62c13db8e4353c3b2d314e715907459581a42b764f350231f8ee0cf35f80a3005b60405162461bcd60e51b8152602060048201526016602482015275506565722068617320636f6d7075746520756e69747360501b6044820152606490fd5b346101e95760203660031901126101e957600435805f525f80516020615a64833981519152602052600360405f206111ee60018060a01b038254166111e7811515613636565b3314613265565b015461125257805f525f80516020615a648339815191526020525f60056040822082815582600182015582600282015582600382015582600482015501557f0e2c810360f652bf120515b49756167e4b196601c40ce83c5df5a8fa22d7f9b85f80a2005b60405162461bcd60e51b81526020600482015260176024820152764f666665722068617320636f6d7075746520706565727360481b6044820152606490fd5b346101e95760603660031901126101e9576004356104608190526001600160a01b03811690036101e9576024356001600160401b0381116101e9576112da9036906004016131d9565b61020052610300526044356001600160401b0381116101e9576113019036906004016131d9565b6101e052610340527f13f5ac65dc9f5b2765e76eb17d53fe3e7065903823eb36bdd7841fa3f8dacbbe61040052610460516001600160a01b03165f9081527f21811dc5bb11da2b2076245a2c14796806445512606a02297e6b92fb11728107602052604090205460ff161561256357604051638da5cb5b60e01b815261046051602090829060049082906001600160a01b03165afa908115611755575f91612521575b50336001600160a01b03909116036124d2576040516302734eab60e51b815261046051602090829060049082906001600160a01b03165afa908115611755575f91612497575b506005811015611dcd576001811490811561248c575b501561244957610460516001600160a01b03165f90815261040051602052604090205461142b613bf2565b8115918215612413575b5050156123ce576040516370220a9b60e01b815261046051602090829060049082906001600160a01b03165afa8015611755575f6104405261239a575b50604051633013ce2960e01b815261046051602090829060049082906001600160a01b03165afa8015611755575f61012052612356575b50604051634d7599f160e01b815261046051602090829060049082906001600160a01b03165afa8015611755575f6103e052612322575b50604051632943dcab60e01b815261046051602090829060049082906001600160a01b03165afa8015611755575f906122ee575b61152391506103e051906136d9565b6102e08190526103c052604051638a0c725b60e01b815261046051602090829060049082906001600160a01b03165afa8015611755575f610320526122ba575b50604051630ad0798d60e11b815261046051602090829060049082906001600160a01b03165afa8015611755575f61022052612286575b506040516319e749ff60e11b815261046051602090829060049082906001600160a01b03165afa8015611755575f61018052612252575b50604051637e0f2f1560e11b8152610460515f90829060049082906001600160a01b03165afa8015611755575f6101c052612198575b50604051631378cd0d60e31b815260408160048160018060a01b0361046051165afa8015611755575f6103605261215d575b50604051630d4773ff60e41b815261046051602090829060049082906001600160a01b03165afa8015611755575f6102a052612120575b505f610420525f6103a0525b610200516103a0511061176057604051632db3119360e01b815261046051602090829060049082906001600160a01b03165afa908115611755575f91611723575b506116da6102e0516116d56103c0516103e0516136cc565b6136d9565b811161171157610420516116ea57005b6116f2613bf2565b610460516001600160a01b03165f908152610400516020526040902055005b631275878760e21b5f5260045260245ffd5b90506020813d60201161174d575b8161173e60209383613109565b810103126101e95751816116bd565b3d9150611731565b6040513d5f823e3d90fd5b6117746103a051610200516103005161371f565b35610260526117856102605161387c565b61038081905251604051631f4570d760e11b81526001600160a01b03918216600482015261046051909160209183916024918391165afa908115611755575f91612102575b501580156120ef575b80156120ce575b80156120b7575b80156120a4575b8015612091575b61205957610380515160405163016712bf60e61b81526001600160a01b03918216600482015261046051909160209183916024918391165afa8015611755575f6102c05261205e575b506102c051610240525f610280525b61185b6103a0516101e0516103405161377c565b90506102805110156120595761032051610240511080159061204e575b61203e5761189d6118936103a0516101e0516103405161377c565b610280519161377c565b90506102205111612039575f610140526118cc6118bc6102205161312c565b6040516101a0526101a051613109565b610220516101a05152601f196118e46102205161312c565b013660206101a05101375f805b6119086118936103a0516101e0516103405161377c565b9050821015612032576119328261192c6118936103a0516101e0516103405161377c565b9061371f565b3561193b613612565b5061194581613940565b61016081905260200151610100526101405161201b5761010051610140525b61196c613612565b5061197961010051613b6e565b610260518151036120105761016051516001600160a01b03166120105760036102a0511015611dcd5760016102a05114159081611f86575b50611f4e576040516305e8c93760e51b815261010051600482015261046051602090829060249082906001600160a01b03165afa908115611755575f91611f58575b50611f4e5790611a1091611a0a826101a0516134d9565b52613793565b90610220518214611a26576001905b01906118f1565b5050611a3f5f80516020615a0483398151915254613793565b60e05260e0515f80516020615a048339815191525560405160c052611a6560c051613081565b60e05160c051526101a051602060c0510152610100515f525f805160206159c483398151915260205260405f2060a0525f5b6101a05151811015611de157611ab0816101a0516134d9565b515f8181525f80516020615bc4833981519152602052604090206104605181546001600160a01b0319166001600160a01b039190911617815560e05160039091015560a05160010154919082611b0c575b506001915001611a97565b5f80516020615c2483398151915292611b23613bf2565b93815f5260205260405f20611b3b6001820154613b6e565b611b4484613940565b90845f526012830160205260405f2090611b6760068501546003860154906136cc565b90611b7e828a611b768861438f565b93848961446c565b611b8982878961471d565b6006811015611dcd5760018103611dbc575091611bb46001926020808c960151015190858985614960565b805460ff191682178155015403611d5657600b8201611bd38154613606565b90555b5f80516020615a448339815191525490516040516370220a9b60e01b815290602090829060049082906001600160a01b03165afa908115611755575f91611d22575b506298968091611c35916004850154918180821091180218613517565b047fecc2a9581aa0ec66253fe6dd29ab490ad7a55cde02026a17baa162151745bb55606060148401611c678982614fcb565b865f52601685016020528360405f205560178501611c868582546136cc565b90555492604051908782526020820152886040820152a26008810154600d82015490600b600a840154930154925f198801978811611d0e576001975f80516020615ac483398151915294611ce1926040519586958987614017565b0390a17fbd9cde1bbc961036d34368ae328c38917036a98eacfb025a1ff6d2c6235d0a145f80a382611b01565b634e487b7160e01b5f52601160045260245ffd5b90506020813d8211611d4e575b81611d3c60209383613109565b810103126101e9575162989680611c18565b3d9150611d2f565b600a8201611d648154613606565b90555f80516020615b248339815191525f80516020615ae4833981519152545f198101908111611d0e57611db79150805f80516020615ae4833981519152555f80516020615a8483398151915254614da7565b611bd6565b6242963960e51b5f5260045260245ffd5b634e487b7160e01b5f52602160045260245ffd5b506103805151610460516001600160a01b0391821691163b156101e9576040519063d76e480560e01b825260048201526060602482015260a4810160c051516064830152602060c051015190604060848401528151608052608051905281602060c4820192015f5b6080518110611f35575050805f9261010051604483015203818360018060a01b0361046051165af1801561175557611f25575b5060c051517f6e5629a2cfaa82d1ea7ad51936794f666271fbd5068017020eaaafdbb017e615611ed4602060c05101516040519360018060a01b0361046051168552602085015260a0604085015260a08401906131a6565b91611ee56060820161036051613068565b8061010051930390a2600161042052611f0061024051613793565b61024052611f106102e051613606565b6102e0525b6001610280510161028052611847565b5f611f2f91613109565b80611e7c565b8151845260209384019385935090910190600101611e49565b5090600190611a1f565b611f79915060203d8111611f7f575b611f718183613109565b81019061372f565b846119f3565b503d611f67565b60200151801591508115611f9c575b50846119b1565b90505f80516020615c24833981519152905f52602052611ffd60405f20611fd16001820154611fcc811515613c90565b613b6e565b611fda8261438f565b90611fe3613bf2565b91611ff760068501546003860154906136cc565b9361446c565b6006811015611dcd576001141584611f95565b505090600190611a1f565b610100516101405114611964575090600190611a1f565b5050611f15565b611f15565b60016103a051016103a05261167c565b506102e05115611878565b61203e565b6020813d8211612089575b8161207660209383613109565b810103126101e957516102c05280611838565b3d9150612069565b506101805160a0610380510151106117ef565b50610180516080610380510151116117e8565b506120c86101c05161026051613c30565b156117e1565b506103805160400151610120516001600160a01b03908116911614156117da565b50602061038051015161044051106117d3565b61211a915060203d8111611f7f57611f718183613109565b816117ca565b6020813d602011612155575b8161213960209383613109565b810103126101e9575160038110156101e9576102a05280611670565b3d915061212c565b60403d604011612191575b6121728183613109565b81016040828203126101e957612187916136e6565b6103605280611639565b503d612168565b3d805f833e6121a78183613109565b60208282810103126101e95781516001600160401b0381116101e957818301601f8285010112156101e95780830151916121e08361312c565b936121ee6040519586613109565b838552602085019282820160208660061b8385010101116101e95792602084830101935b60208660061b82850101018510612233575050505050506101c05280611607565b604060208093612245878701896136e6565b8152019501949150612212565b6020813d60201161227e575b8161226b60209383613109565b810103126101e9575161018052806115d1565b3d915061225e565b6020813d6020116122b2575b8161229f60209383613109565b810103126101e95751610220528061159a565b3d9150612292565b6020813d6020116122e6575b816122d360209383613109565b810103126101e957516103205280611563565b3d91506122c6565b506020813d60201161231a575b8161230860209383613109565b810103126101e9576115239051611514565b3d91506122fb565b6020813d60201161234e575b8161233b60209383613109565b810103126101e957516103e052806114e0565b3d915061232e565b6020813d602011612392575b8161236f60209383613109565b810103126101e957516001600160a01b03811681036101e95761012052806114a9565b3d9150612362565b6020813d6020116123c6575b816123b360209383613109565b810103126101e957516104405280611472565b3d91506123a6565b60405162461bcd60e51b815260206004820152601d60248201527f4d6174636865723a20746f6f206561726c7920746f2072656d617463680000006044820152606490fd5b6124419192507f60ac4d56f7e69877e4b95a6e91f4b3612278b580a93ea7637885a480e015031954906136cc565b108180611435565b60405162461bcd60e51b815260206004820152601b60248201527a4d6174636865723a206465616c206973206e6f742061637469766560281b6044820152606490fd5b600391501481611400565b90506020813d6020116124ca575b816124b260209383613109565b810103126101e9575160058110156101e957816113ea565b3d91506124a5565b60405162461bcd60e51b815260206004820152602160248201527f4d6174636865723a2073656e646572206973206e6f74206465616c206f776e656044820152603960f91b6064820152608490fd5b90506020813d60201161255b575b8161253c60209383613109565b810103126101e957516001600160a01b03811681036101e957816113a4565b3d915061252f565b60405162461bcd60e51b815260206004820152601f60248201527f4d6174636865723a206465616c206973206e6f742072656769737465726564006044820152606490fd5b346101e95760203660031901126101e9576125c1613612565b5060806125cf600435613b6e565b60405190805182526020810151602083015260408101516040830152606060018060a01b03910151166060820152f35b346101e95760203660031901126101e9576004356001600160a01b03811681036101e95761262b61369a565b5061263461369a565b506001600160a01b03165f9081525f80516020615c6483398151915260205260409081902090516126b1916126688261309c565b6126718161340d565b82526003612681600183016134ad565b91602084019283520154604083019081526126bd60405194859460208652516080602087015260a0860190613044565b92516040850190613068565b5160808301520390f35b346101e9576126d536613209565b9190815f525f80516020615a6483398151915260205261270660018060a01b0360405f2054166111e7811515613636565b8215612734575f5b83811061271757005b8061272e6127286001938786613678565b85613a3d565b0161270e565b60405162461bcd60e51b815260206004820152601960248201527850656572732073686f756c64206e6f7420626520656d70747960381b6044820152606490fd5b346101e95760203660031901126101e95761278e613612565b50608061279c600435613940565b60606040519160018060a01b038151168352602081015160208401526040810151604084015201516060820152f35b346101e95760203660031901126101e9576004355f525f80516020615c0483398151915260205260405f206040519081602082549182815201915f5260205f20905f5b81811061283d576128398561282581870382613109565b6040519182916020835260208301906131a6565b0390f35b825484526020909301926001928301920161280e565b346101e95760203660031901126101e9576004355f80516020615c64833981519152815f525f80516020615bc483398151915260205260405f2060018101549161289e83151561357b565b5f8381525f805160206159c483398151915260209081526040808320805484525f80516020615a648339815191528352818420546001600160a01b031680855294909252909120909290913303612a31576128fd6001840154156135c4565b546001600160a01b03166129f25760026003920161291b8154613606565b9055016129288154613606565b9055805f525f80516020615c0483398151915260205261294b8260405f20614261565b156129a257815f525f80516020615bc48339815191526020525f60036040822082815582600182015582600282015501557f5abefe0a1fb3d6df34b14e459422791829e024e367c6df8eaf0bf218cf42fb365f80a3005b60405162461bcd60e51b815260206004820152602260248201527f496e76616c69642072656d6f76652066726f6d20656e756d657261626c652073604482015261195d60f21b6064820152608490fd5b60405162461bcd60e51b815260206004820152601760248201527610dbdb5c1d5d19481d5b9a5d081a5cc81a5b881919585b604a1b6044820152606490fd5b60405162461bcd60e51b815260206004820152602260248201527f4f6e6c79206f776e65722063616e2072656d6f766520636f6d7075746520756e6044820152611a5d60f21b6064820152608490fd5b346101e957612a8f36613173565b825f525f80516020615a64833981519152602052612aba60018060a01b0360405f2054163314613265565b5f5b818110612ac557005b612ad081838561356b565b90612ade61052c36846133a6565b855f525f80516020615ba483398151915260205260405f20815f5260205260ff60405f20541615612b6c577f5151d310b0333d894aac0234a4665be715d061a6fbf0f84ce313f315a8272dce60406001948893845f525f80516020615ba4833981519152602052825f20905f52602052815f2060ff198154169055612b658251809261354a565ba201612abc565b60405162461bcd60e51b81526020600482015260166024820152751159999958dd1bdc88191bd95cdb89dd08195e1a5cdd60521b6044820152606490fd5b346101e95760403660031901126101e957612bc36139a6565b612bcf61052c3661336c565b805f525f80516020615a24833981519152602052612bf060405f20546133d5565b15612c9c575f525f80516020615a248339815191526020525f600260408220612c1981546133d5565b80612c59575b5082600182015501557f735be6859fb325819656a18d6683153766e980fb5bc8822c2a757810ad46599760408051612c568161352a565ba1005b601f8111600114612c6f57508281555b83612c1f565b81845260208420612c8b91601f0160051c810190600101613501565b808352826020812081835555612c69565b60405162461bcd60e51b815260206004820152601b60248201527a1159999958dd1bdc881a5b999bc8191bd95cdb89dd08195e1a5cdd602a1b6044820152606490fd5b346101e95760403660031901126101e9576004356001600160401b0381116101e957366023820112156101e957806004013590612d1b8261312c565b91612d296040519384613109565b8083526024602084019160051b830101913683116101e957602401905b828210612eaa57835f5b8151811015612dba57336001600160a01b03612d75612d6f84866134d9565b51613940565b511603612d8457600101612d50565b60405162461bcd60e51b815260206004820152600e60248201526d13db9b1e48199c9bdb481919585b60921b6044820152606490fd5b505f80805b8351831015612e58575050612dd481836134d9565b51805f525f80516020615bc4833981519152602052600160405f20928184015492612e0084151561357b565b828495818060a01b03815416955f525f805160206159c48339815191526020525f60036040822092848060a01b03198154168155015501549081612e48575b50500191612dbf565b612e519161403f565b8580612e3f565b7f118eadf482fadba3bc45c0744984b47fd3dba6c9c6fd58baf6edf551dd25e1ac612e91856040519182916040835260408301906131a6565b60243560208301526001600160a01b03909516940390a3005b8135815260209182019101612d46565b346101e95760403660031901126101e957604051612ed781613081565b60608152602060405191612eea83613081565b5f83525f828401520152612f0061052c3661336c565b5f525f80516020615a24833981519152602052612f6360405f20612f3d600160405192612f2c84613081565b612f358161340d565b8452016134ad565b602082019081526128396040519384936020855251606060208601526080850190613044565b91516040840190613068565b346101e95760403660031901126101e9576004357f69320c1eb39a752844ba207d2f98bd240d07dabf1449b4c1bd432daea12b744a6020612fae61302e565b835f525f80516020615a648339815191528252600260405f2091612fdc60018060a01b038454163314613265565b6001600160a01b031691612ff18315156132af565b825f525f80516020615c84833981519152845261301460ff60405f20541661330c565b0180546001600160a01b03191682179055604051908152a2005b602435906001600160a01b03821682036101e957565b805180835260209291819084018484015e5f828201840152601f01601f1916010190565b80516001600160e01b0319168252602090810151910152565b604081019081106001600160401b0382111761090657604052565b606081019081106001600160401b0382111761090657604052565b61016081019081106001600160401b0382111761090657604052565b608081019081106001600160401b0382111761090657604052565b60c081019081106001600160401b0382111761090657604052565b601f909101601f19168101906001600160401b0382119082101761090657604052565b6001600160401b0381116109065760051b60200190565b9181601f840112156101e9578235916001600160401b0383116101e9576020808501948460061b0101116101e957565b9060406003198301126101e95760043591602435906001600160401b0382116101e9576131a291600401613143565b9091565b90602080835192838152019201905f5b8181106131c35750505090565b82518452602093840193909201916001016131b6565b9181601f840112156101e9578235916001600160401b0383116101e9576020808501948460051b0101116101e957565b9060406003198301126101e95760043591602435906001600160401b0382116101e9576131a2916004016131d9565b9181601f840112156101e9578235916001600160401b0383116101e957602083818601950101116101e957565b1561326c57565b60405162461bcd60e51b815260206004820152601b60248201527a27b7363c9037bbb732b91031b0b71031b430b733b29037b33332b960291b6044820152606490fd5b156132b657565b60405162461bcd60e51b815260206004820152602860248201527f5061796d656e7420746f6b656e2073686f756c64206265206e6f74207a65726f604482015267206164647265737360c01b6064820152608490fd5b1561331357565b60405162461bcd60e51b815260206004820152601c60248201527b14185e5b595b9d081d1bdad95b881a5cc81b9bdd08185b1b1bddd95960221b6044820152606490fd5b35906001600160e01b0319821682036101e957565b60409060031901126101e9576040519061338582613081565b816004356001600160e01b0319811681036101e95781526020602435910152565b91908260409103126101e9576040516133be81613081565b60208082946133cc81613357565b84520135910152565b90600182811c92168015613403575b60208310146133ef57565b634e487b7160e01b5f52602260045260245ffd5b91607f16916133e4565b9060405191825f825492613420846133d5565b808452936001811690811561348b5750600114613447575b5061344592500383613109565b565b90505f9291925260205f20905f915b81831061346f575050906020613445928201015f613438565b6020919350806001915483858901015201910190918492613456565b90506020925061344594915060ff191682840152151560051b8201015f613438565b906040516134ba81613081565b825460e01b6001600160e01b0319168152600192909201546020830152565b80518210156134ed5760209160051b010190565b634e487b7160e01b5f52603260045260245ffd5b81811061350c575050565b5f8155600101613501565b81810292918115918404141715611d0e57565b60043563ffffffff60e01b81168091036101e95781526020602435910152565b60209081906001600160e01b031961356182613357565b1684520135910152565b91908110156134ed5760061b0190565b1561358257565b60405162461bcd60e51b815260206004820152601a60248201527910dbdb5c1d5d19481d5b9a5d08191bd95cdb89dd08195e1a5cdd60321b6044820152606490fd5b156135cb57565b60405162461bcd60e51b81526020600482015260136024820152721419595c881a185cc818dbdb5b5a5d1b595b9d606a1b6044820152606490fd5b8015611d0e575f190190565b6040519061361f826130d3565b5f6060838281528260208201528260408201520152565b1561363d57565b60405162461bcd60e51b815260206004820152601360248201527213d999995c88191bd95cdb89dd08195e1a5cdd606a1b6044820152606490fd5b91908110156134ed5760051b81013590605e19813603018212156101e9570190565b604051906136a78261309c565b5f6040836060815281516136ba81613081565b83815283602082015260208201520152565b91908201809211611d0e57565b91908203918211611d0e57565b91908260409103126101e9576040516136fe81613081565b8092805163ffffffff60e01b811681036101e9578252602090810151910152565b91908110156134ed5760051b0190565b908160209103126101e9575180151581036101e95790565b903590601e19813603018212156101e957018035906001600160401b0382116101e957602001918160051b360383136101e957565b908210156134ed576131a29160051b810190613747565b5f198114611d0e5760010190565b156137a857565b60405162461bcd60e51b81526020600482015260126024820152711419595c88191bd95cdb89dd08195e1a5cdd60721b6044820152606490fd5b156137e957565b60405162461bcd60e51b815260206004820152601b60248201527a506565722069642073686f756c64206265206e6f7420656d70747960281b6044820152606490fd5b908060209392818452848401375f828201840152601f01601f1916010190565b60405190613859826130ee565b5f60a0838281528260208201528260408201528260608201528260808201520152565b61388461384c565b5061388d61384c565b505f9081525f80516020615a648339815191526020526040902080546001600160a01b0316906005906138c1831515613636565b604051926138ce846130ee565b83526001810154602084015260028101546001600160a01b031660408401526003810154606084015260048101546080840152015460a082015290565b602063ffffffff60e01b825116910151604051906020820192835260248201526024815261393a604482613109565b51902090565b613948613612565b505f525f80516020615bc483398151915260205260405f20600360018201549161397383151561357b565b60405192613980846130d3565b81546001600160a01b031684526020840152600281015460408401520154606082015290565b7fc8fcad8db84d3cc18b4c41d551ea0ee66dd599cde068d998e57d5e09332c1320546001600160a01b031633036139d957565b60405162461bcd60e51b815260206004820152602260248201527f4c69624469616d6f6e643a204d75737420626520636f6e7472616374206f776e60448201526132b960f11b6064820152608490fd5b356001600160a01b03811681036101e95790565b813590815f525f805160206159c483398151915260205260405f2092815f525f80516020615a6483398151915260205260405f20938054613b1d5761344594613b17937f2a9c96970c242b218486fb3338450a874ff7ccad1fcad3d89b2781f48ece88d06040613aea600395613ab48a15156137e2565b848155602088019087613ac683613a29565b910180546001600160a01b0319166001600160a01b03909216919091179055613a29565b81518981526001600160a01b039091166020820152a201613b0b8154613793565b90556040810190613747565b91613cf2565b60405162461bcd60e51b8152602060048201526024808201527f5065657220616c72656164792065786973747320696e20616e6f74686572206f604482015263333332b960e11b6064820152608490fd5b613b76613612565b505f525f805160206159c483398151915260205260405f20805490613b9c8215156137a1565b60405191613ba9836130d3565b82526001810154602083015260028101546040830152600301546001600160a01b0316606082015290565b8115613bde570490565b634e487b7160e01b5f52601260045260245ffd5b613c22613c0d5f80516020615ca483398151915254426136d9565b5f80516020615b648339815191525490613bd4565b60010180600111611d0e5790565b5f5b8251811015613c8857613c4e613c4882856134d9565b5161390b565b825f525f80516020615ba483398151915260205260405f20905f5260205260ff60405f20541615613c8157600101613c32565b5050505f90565b505050600190565b15613c9757565b60405162461bcd60e51b815260206004820152602160248201527f436170616369747920636f6d6d69746d656e7420646f65736e277420657869736044820152601d60fa1b6064820152608490fd5b6006821015611dcd5752565b5f8181525f805160206159c483398151915260209081526040808320805484525f80516020615a648339815191528352818420546001600160a01b031684525f80516020615c648339815191529092529091206002909101805492959490939092918315613fd25760030190613d698483546136cc565b7f60ac4d56f7e69877e4b95a6e91f4b3612278b580a93ea7637885a480e015031c5410613f81575f5b848110613db8575050613db493949550613dad8382546136cc565b90556136cc565b9055565b613dc381868461371f565b35908115613f3e57815f525f80516020615bc4833981519152602052600160405f200154613efb57604051613df7816130d3565b5f80825260208083018c81526040808501848152606086018581528886525f80516020615bc48339815191528552828620965187546001600160a01b0319166001600160a01b0391909116178755925160018701555160028601559051600394909401939093558b82525f80516020615c04833981519152905220613e7d908390614d18565b15613eb657887f47026182b34ce173abdac328faf5c45bef1648cf75d4b88723a745c9ee792c196020600194604051908152a201613d92565b60405162461bcd60e51b815260206004820152601d60248201527f496e76616c69642061646420746f20656e756d657261626c65207365740000006044820152606490fd5b60405162461bcd60e51b815260206004820152601b60248201527a436f6d7075746520756e697420616c72656164792065786973747360281b6044820152606490fd5b60405162461bcd60e51b815260206004820152601b60248201527a556e69742069642073686f756c64206265206e6f7420656d70747960281b6044820152606490fd5b60405162461bcd60e51b815260206004820152602360248201527f4578636565646564206d6178204355206e756d626572207065722050726f76696044820152623232b960e91b6064820152608490fd5b60405162461bcd60e51b815260206004820152601e60248201527f556e6974732073686f756c642062652067726561746572207468616e203000006044820152606490fd5b9260a094919796959260c0850198855260208501526040840152606083015260808201520152565b5f80516020615c2483398151915290614056613bf2565b6001810192838211611d0e575f19820190828211611d0e57835f5260205260405f206140856001820154613b6e565b865f526012820160205283600160405f206140c96140c16140af60068801546003890154906136cc565b856140b98961438f565b97888a61446c565b94868a61471d565b60ff198154168155015586857f8e4b27eeb3194deef0b3140997e6b82f53eb7350daceb9355268009b92f70add60206040518a8152a36006811015611dcd578015908115614241575b5061423957600b810194855460018101809111611d0e5786555f80516020615b24833981519152965f80516020615ae4833981519152549460018601809611611d0e57614190614234965f80516020615ac48339815191529a50805f80516020615ae4833981519152555f80516020615a8483398151915254614da7565b7fc68e8cb1dc96033edd3ea2af8f58e28c84f27bc0c225295e9b1c873226f775e66040601486016141c18482614fcb565b60168701855f5280602052825f20546141df60178a019182546136d9565b9055855f526020525f8281205554928151908582526020820152a25f525f80516020615bc4833981519152602052600260405f200155600881015494600a600d83015492015490549160405196879687614017565b0390a1565b505050505050565b60049150145f614112565b80548210156134ed575f5260205f2001905f90565b906001820191815f528260205260405f20548015155f14614334575f198101818111611d0e5782545f19810191908211611d0e578181036142e9575b505050805480156142d5575f1901906142b6828261424c565b8154905f199060031b1b19169055555f526020525f6040812055600190565b634e487b7160e01b5f52603160045260245ffd5b61431f6142f9614309938661424c565b90549060031b1c9283928661424c565b819391549060031b91821b915f19901b19161790565b90555f528360205260405f20555f808061429d565b505050505f90565b6040519060e082016001600160401b03811183821017610906576040525f60c0838281528260208201528260408201528260608201528260808201528260a08201520152565b516006811015611dcd5790565b9060405161439c81613081565b6143a461433c565b815260c08060208301926143b661433c565b8452600781966143cb60ff8254168451613ce6565b600c8101546020845101526008810154604084510152600a810154606084510152600b810154608084510152600981015460a0845101520154828251015261441d6144168251614382565b8551613ce6565b60208151015160208551015260408151015160408551015260608151015160608551015260808151015160808551015260a08151015160a08551015251015191510152565b8115613bde570690565b9192939060200192835151916006831015611dcd5760a085510151925f19870196808811611d0e5760068896015480155f146144b057505050505050505050600290565b116147115760018114801590614707575b6146fd57506001955f198201918211611d0e578111156146f2575b507f8984d2d0d7a9f2f70f22692c7c8344aa50cbed8c00a03c924457a31793ee8fdb54845192606084015192608085015160408601519560c087910151945f938688116146d6575b6040015161453191613517565b94614552836116d5614543888d6136d9565b61454d838c6136cc565b613517565b8082106146b9575b5050848710156145da575b5050505050506040835101528151608081015190816145bb575b50506006831015611dcd575f9160c091600185036145a4575b60a08251015251015290565b836060835101526145b6858351613ce6565b614598565b60606145ca91019182516136cc565b90525f6080835101525f8061457f565b9092949850836145ed92949650956136d9565b60049790929083821061462e57505050506001810180911161461b576020845101525b5f8080808080614565565b601185634e487b7160e01b5f525260245ffd5b6146419261463b916136cc565b926136d9565b9061464c8183613bd4565b8060010191826001116146a657614664908394614462565b61467f575b5050614674916136cc565b602084510152614610565b60020191508110614693576146745f614669565b601186634e487b7160e01b5f525260245ffd5b601189634e487b7160e01b5f525260245ffd5b6146ce9298916146c8916136d9565b906136cc565b955f8061455a565b93506145319060406146e8888a6136d9565b9591925050614524565b5f95509250846144dc565b9550505050505090565b50838711156144c1565b50505050505050600390565b916147288151614382565b9260208201936147388551614382565b906006821015611dcd576006811015611dcd570361485a575b5061475c8151614382565b6147668451614382565b906006821015611dcd576006811015611dcd5703614833575b60c080915160208101519451946020860151809103614828575b506040810151604086015180910361481d575b5060608101516060860151809103614812575b5060808101516080860151809103614807575b5060a081015160a08601518091036147fc575b5001519201518092036147f6575050565b60070155565b60098501555f6147e5565b600b8501555f6147d2565b600a8501555f6147bf565b60088501555f6147ac565b600c8501555f614799565b61483d8351614382565b6006811015611dcd57825460ff191660ff9190911617825561477f565b61486f825160806060820151910151906136cc565b9061487a8551614382565b6006811015611dcd57600403614910579061490a917f1ec6d9e2b340c6cc9d5b6690a2d2a1558f252aa30668b45dbdb83bb7728984f260208088510151604051908152a26148e45f80516020615b24833981519152915f80516020615ae4833981519152546136d9565b9050805f80516020615ae4833981519152555f80516020615a8483398151915254614da7565b5f614751565b5061491b8451614382565b6006811015611dcd5715614930575b5061490a565b61495a906148e45f80516020615b24833981519152915f80516020615ae4833981519152546136d9565b5f61492a565b92939190915f80516020615c24833981519152835f5260205260405f20945f198301928311611d0e578260ff865416614cde575f198201918211611d0e578110614d10575b5080151580614d07575b614cff575b5060018301928354938415614ce7575b8483111561423957829055815f525f80516020615b8483398151915260205260018401809411611d0e5760030193835f528460205260405f2054845f525f80516020615b8483398151915260205260405f2080548210614cde57600201548015614cde57614a38614a3d9261454d886150ad565b613bd4565b9283614a55575b505050505f526020525f6040812055565b7f8984d2d0d7a9f2f70f22692c7c8344aa50cbed8c00a03c924457a31793ee8fe454917f8984d2d0d7a9f2f70f22692c7c8344aa50cbed8c00a03c924457a31793ee8fe554936010614ad16011840193614ac8614ab48987549b613bd4565b946146c8614ac28a83614462565b8a6136d9565b92839101615366565b945f19861480614cd5575b614c76575f925f87121580614c62575b614c41575b5f965b888810614b0657505050505050614a44565b60018801808911611d0e57614b1b9083613517565b945f82121580614c38575b15614b925750614b898180897f86c93961d1a070b7b56fd1214cf06ccc18a89a3869681be8b74533f85ddc82606020614b7d8b6001614b678f9a829b614d65565b5001614b7581549e8f6136cc565b90558c6136cc565b604051908152a3615161565b975b0196614af4565b949097614ba8614ba28286613517565b866136cc565b614bb283886136cc565b60405190614bbf82613081565b8282526020820152885490600160401b82101561090657614be9826001614bef94018c558b614d65565b90614d7e565b87545f198101908111611d0e57897fd2337a844680345b0a7ba3392e6ddbbf8ff6e72cc99a633764c322c920576b7a6020614c2c6001978c6136cc565b604051908152a4614b8b565b508a8212614b26565b959250614c5c6001614c538587614d65565b50015493615161565b95614af1565b5082614c6e8887614d65565b505410614aec565b60405162461bcd60e51b815260206004820152603160248201527f56657374696e673a20737461727445706f63682069732062656c6f77207468616044820152706e20616c6c207365656e2065706f63687360781b6064820152608490fd5b50871515614adc565b50505050505050565b935060068501545f198101908111611d0e57936149c4565b90505f6149b4565b508082116149af565b91505f6149a5565b6001810190825f528160205260405f2054155f14613c81578054600160401b81101561090657614d5261430982600187940185558461424c565b905554915f5260205260405f2055600190565b80548210156134ed575f5260205f209060011b01905f90565b9190614d94576020816001925184550151910155565b634e487b7160e01b5f525f60045260245ffd5b614daf613bf2565b5f805160206159e483398151915254908315614f8e575f19820192828411611d0e57614de8845f805160206159e4833981519152614d65565b508054831495908615614f73575060028410614239576001198401848111611d0e57670de0b6b3a764000091614a386001614e33614e3e945f805160206159e4833981519152614d65565b500154945b85613517565b045f80516020615a4483398151915254105f14614f505762895440810290808204628954401490151715611d0e57629896809004935b7f8984d2d0d7a9f2f70f22692c7c8344aa50cbed8c00a03c924457a31793ee8fe2547f8984d2d0d7a9f2f70f22692c7c8344aa50cbed8c00a03c924457a31793ee8fe35490808710614f48575b50808611614f40575b5015614ef0575050614eeb6001915f805160206159e4833981519152614d65565b500155565b91509160405191614f0083613081565b82526020820152600160401b82101561090657614be982600161344594015f805160206159e4833981519152555f805160206159e4833981519152614d65565b94505f614eca565b95505f614ec1565b62a7d8c081029080820462a7d8c01490151715611d0e5762989680900493614e74565b670de0b6b3a764000091614a386001614e3e93015494614e38565b50505050565b90602082549182815201915f5260205f20905f5b818110614fb55750505090565b8254845260209093019260019283019201614fa8565b614fd58282615175565b80518051600684019392916001600160401b03821161090657600160401b8211610906576020908554838755808410615092575b5001845f5260205f205f5b83811061507e5750505050916150739160207f8b5d520ecd83f8a909da38eaeb49b5c1fb3d8d69e22e2b36ec0f5814b5c4aa43940151948560078301556008820155549360405192839260208452604060208501526060840190614f94565b9060408301520390a2565b600190602084519401938184015501615014565b6150a790875f5284845f209182019101613501565b5f615009565b5f805160206159e4833981519152545f91905f198101908111611d0e575f925b818111156150db5750505090565b6150e582826136cc565b60011c93615100855f805160206159e4833981519152614d65565b509182548086115f1461513557505050600101549260018101809111156150cd57634e487b7160e01b5f52601160045260245ffd5b9195909350919084101561515557505f198101908111611d0e57906150cd565b60010154949350505050565b6001600160ff1b038114611d0e5760010190565b9060405161518281613081565b606081525f6020820152506040519161519a83613081565b6040516151b5816151ae8160068601614f94565b0382613109565b83526007810154916020840192835260088201549081811461535f576151db82826136d9565b91815f19810111611d0e576152469161523c916151f85f9161551a565b5f80516020615b448339815191525f80516020615aa4833981519152549182811161534b575b5080548310615340575b506116d5615236929361551a565b90615553565b6003840154613517565b91670de0b6b3a7640000830292808404670de0b6b3a76400001490151715611d0e576152846005655af3107a400061528d950492015480928461543f565b939085516136cc565b84525f5b8181106152a057505050505090565b808360019210615323575b826152b685836136cc565b1015615311576152d187516152cb86846136cc565b906134d9565b516152dd8289516134d9565b525b6152e981866134d9565b5161530a826153048a51936152fe83866134d9565b516136cc565b926134d9565b5201615291565b5f61531d8289516134d9565b526152df565b6153396153318289516134d9565b5187516136cc565b86526152ab565b5491506116d5615228565b61535891935082906136d9565b915f61521e565b5050505090565b60010180545f199392908015615408575f905f198101908111611d0e57929190925b808411156153965750505050565b909192946153a482876136cc565b60011c956153b28786614d65565b5054808511156153d4575050508460018101809111611d0e575b929190615388565b91969092509083101561540157806153f057505f199450505050565b5f198101908111611d0e57906153cc565b9450505050565b505050565b906154178261312c565b6154246040519182613109565b8281528092615435601f199161312c565b0190602036910137565b929190801561550a578161545291613bd4565b905f61545e8583615713565b85818097116154f9575b5060010190818611611d0e5761454d84916146c88561548a615493968b613517565b60011c92613517565b9161549d8261540d565b945f5b8381106154af57505050509190565b836154ba82846136cc565b10156154df575b6001906154ce8484613517565b6154d8828a6134d9565b52016154a0565b81156154c157906154f1600191613606565b9190506154c1565b61550392506136d9565b845f615468565b5061551691925061540d565b5f91565b5f80516020615ca4833981519152545f80516020615b64833981519152545f198301928311611d0e57615550926146c891613517565b90565b905f80516020615b4483398151915261557e5f80516020615aa48339815191525461454d8142613bd4565b8210156156ba5782905411615641578082116155d9576155a9906155a183615725565b929091615725565b9092908284036155c0575050505061555090615828565b61555094506155d3929161463b916136d9565b90613bd4565b60405162461bcd60e51b815260206004820152605a60248201525f80516020615b0483398151915260448201525f80516020615be48339815191526064820152790732067726561746572207468616e20746f54696d657374616d760341b608482015260a490fd5b60405162461bcd60e51b815260206004820152606560248201525f80516020615b0483398151915260448201525f80516020615be483398151915260648201527f73206c6f776572207468616e206669727374207265636f726465642074696d6560848201526407374616d760dc1b60a482015260c490fd5b60405162461bcd60e51b815260206004820152602b60248201527f4d65616e2070726963652063616e206368616e676520696e207375676765737460448201526a1959081a5b9d195c9d985b60aa1b6064820152608490fd5b9080821015615720575090565b905090565b905f80516020615b44833981519152549161574083826136d9565b6157595f80516020615aa4833981519152548092613bd4565b937f62e26dda6281f8a7bde8d0de6ef3dc4300cca63258b4641529b5bae7dc08902854918286105f146157ab57505050506157a1825f80516020615c4483398151915261424c565b90549060031b1c90565b614a386116d5926157bb956136d9565b60018101809111611d0e575f80516020615a84833981519152548015613bde57655af3107a4000045f80516020615c44833981519152545f198101908111611d0e576155509261581b6146c8925f80516020615c4483398151915261424c565b90549060031b1c92613517565b5f80516020615b448339815191525490808211615938576158619161584c916136d9565b5f80516020615aa48339815191525490613bd4565b5f80516020615c44833981519152548110156159175780156158cd57615894815f80516020615c4483398151915261424c565b90549060031b1c5f198201918211611d0e576158c0615550925f80516020615c4483398151915261424c565b90549060031b1c906136d9565b505f80516020615c4483398151915254156134ed575f80516020615c448339815191525f527fd4d5257edb89e07e8d010c6ff96326eddf1fc220d3213e3ef3ddd6c1b3b706415490565b505f80516020615a84833981519152548015613bde57655af3107a40000490565b60405162461bcd60e51b815260206004820152605760248201527f4c69624f7261636c6550726963652e6765745265765072696365417454696d6560448201527f7374616d703a2074696d657374616d70206973206c6f776572207468616e2066606482015276069727374207265636f726465642074696d657374616d7604c1b608482015260a490fdfe88681cafafd55573d275926fd208ef2ba36c6dd5169e88841d4bc9bcd22530218984d2d0d7a9f2f70f22692c7c8344aa50cbed8c00a03c924457a31793ee8fe613f5ac65dc9f5b2765e76eb17d53fe3e7065903823eb36bdd7841fa3f8dacbbf88681cafafd55573d275926fd208ef2ba36c6dd5169e88841d4bc9bcd22530258984d2d0d7a9f2f70f22692c7c8344aa50cbed8c00a03c924457a31793ee8fe188681cafafd55573d275926fd208ef2ba36c6dd5169e88841d4bc9bcd225302062e26dda6281f8a7bde8d0de6ef3dc4300cca63258b4641529b5bae7dc08902a62e26dda6281f8a7bde8d0de6ef3dc4300cca63258b4641529b5bae7dc089027bd5605b4405616555ea2583cbd913ecf346c52c37520187117aadcea54e7d1498984d2d0d7a9f2f70f22692c7c8344aa50cbed8c00a03c924457a31793ee8fd24c69624f7261636c6550726963652e6765744d65616e526576507269636542658984d2d0d7a9f2f70f22692c7c8344aa50cbed8c00a03c924457a31793ee8fd162e26dda6281f8a7bde8d0de6ef3dc4300cca63258b4641529b5bae7dc0890267d4f8ec43464738265ced6b7ed5f90007e9b7c34318bdd82d9249328b50bd358a8de0abb18de6e730ac24d7fe02c877d293683811fc3ac5d8e62e2a52c0d20d888681cafafd55573d275926fd208ef2ba36c6dd5169e88841d4bc9bcd225302388681cafafd55573d275926fd208ef2ba36c6dd5169e88841d4bc9bcd2253022747765656e54696d657374616d70733a2066726f6d54696d657374616d70206988681cafafd55573d275926fd208ef2ba36c6dd5169e88841d4bc9bcd2253024a8de0abb18de6e730ac24d7fe02c877d293683811fc3ac5d8e62e2a52c0d20d762e26dda6281f8a7bde8d0de6ef3dc4300cca63258b4641529b5bae7dc08902988681cafafd55573d275926fd208ef2ba36c6dd5169e88841d4bc9bcd225301f60ac4d56f7e69877e4b95a6e91f4b3612278b580a93ea7637885a480e015031d7d4f8ec43464738265ced6b7ed5f90007e9b7c34318bdd82d9249328b50bd357a2646970667358221220716cb1114fa43bd10bcca4fdddf6eec7099c49e013fb63ba38c8f2bb4e4aacff64736f6c634300081a0033","linkReferences":{}},"methodIdentifiers":{"addComputePeers(bytes32,(bytes32,address,bytes32[])[])":"74920a9d","addComputeUnits(bytes32,bytes32[])":"b6b9084e","addEffector(bytes32,(bytes4,bytes32)[])":"b017191a","changeMinPricePerCuPerEpoch(bytes32,uint256)":"f46bcb1d","changePaymentToken(bytes32,address)":"087b97ba","getComputePeer(bytes32)":"86e68254","getComputeUnit(bytes32)":"745e920b","getComputeUnitIds(bytes32)":"62ac63fa","getComputeUnits(bytes32)":"b6015c6e","getEffectorInfo((bytes4,bytes32))":"0bcee1a2","getOffer(bytes32)":"d597b8c8","getProviderInfo(address)":"7583902f","matchDeal(address,bytes32[],bytes32[][][])":"8e4643cb","moveResourcesFromDeal(bytes32[],bytes32)":"12a4ebb0","registerMarketOffer(uint256,address,(bytes4,bytes32)[],(bytes32,address,bytes32[])[],uint256,uint256)":"edd9db67","removeComputePeer(bytes32)":"9faf0d20","removeComputeUnit(bytes32)":"3591187c","removeEffector(bytes32,(bytes4,bytes32)[])":"34205efd","removeEffectorInfo((bytes4,bytes32))":"19c671ca","removeOffer(bytes32)":"91d27f71","setEffectorInfo((bytes4,bytes32),string,(bytes4,bytes32))":"da74336a","setProviderInfo(string,(bytes4,bytes32))":"c685738e"},"storageLayout":{"storage":[],"types":{}},"devdoc":{"version":1,"kind":"dev","methods":{"addComputePeers(bytes32,(bytes32,address,bytes32[])[])":{"details":"Add compute peers to an offer"},"addComputeUnits(bytes32,bytes32[])":{"details":"Add compute units to a peer"},"addEffector(bytes32,(bytes4,bytes32)[])":{"details":"Add effectors to an offer"},"changeMinPricePerCuPerEpoch(bytes32,uint256)":{"details":"Change the min price per CU per epoch of an offer"},"changePaymentToken(bytes32,address)":{"details":"Change the payment token of an offer"},"getComputePeer(bytes32)":{"details":"Returns the compute peer info"},"getComputeUnit(bytes32)":{"details":"Returns the compute unit info"},"getComputeUnitIds(bytes32)":{"details":"Returns the compute unit ids of a peer"},"getComputeUnits(bytes32)":{"details":"Returns the compute units info of a peer"},"getEffectorInfo((bytes4,bytes32))":{"details":"Returns the effector info","params":{"id":"The effector cid"}},"getOffer(bytes32)":{"details":"Returns the offer info","params":{"offerId":"The offer id"},"returns":{"_0":"offer The offer info"}},"getProviderInfo(address)":{"details":"Returns the provider info","params":{"provider":"The provider address"},"returns":{"_0":"providerInfo The provider info"}},"matchDeal(address,bytes32[],bytes32[][][])":{"details":"Match Deal with Compute Units provided.There should be `bytes32[][] calldata peers` as well, but it is not supported by subgraph codegen.Ref to https://github.com/graphprotocol/graph-tooling/issues/342.","params":{"computeUnits":": Compute Units per offer id (3D array: provider -> peer -> CU) to match with.","deal":": Deal to match.","offers":": Offers array that represents offers in computeUnits 3D array."}},"moveResourcesFromDeal(bytes32[],bytes32)":{"details":"Return resources from deal"},"registerMarketOffer(uint256,address,(bytes4,bytes32)[],(bytes32,address,bytes32[])[],uint256,uint256)":{"details":"Register a new offer","params":{"effectors":"The effectors of the offer","minPricePerCuPerEpoch":"The min price per CU per epoch which the provider specify for the matching with the deal","paymentToken":"The payment token of the offer","peers":"The compute peers of the offer"}},"removeComputePeer(bytes32)":{"details":"Remove compute peers from an offer after all CUs removed.Only owner can remove Peer."},"removeComputeUnit(bytes32)":{"details":"Remove compute units from a peer.Only owner can remove Compute Unit that not in Deal and in CC."},"removeEffector(bytes32,(bytes4,bytes32)[])":{"details":"Remove effectors from an offer"},"removeEffectorInfo((bytes4,bytes32))":{"details":"Remove the effector info. Effector info can be removed by the contract owner"},"removeOffer(bytes32)":{"details":"Remove an offer.Only owner can change offer after all Peers removed (and CUs before)."},"setEffectorInfo((bytes4,bytes32),string,(bytes4,bytes32))":{"details":"Set the effector info. Effector info can be added by the contract owner"},"setProviderInfo(string,(bytes4,bytes32))":{"details":"Set the provider info","params":{"metadata":"The metadata of the provider","name":"The name of the provider"}}},"events":{"ComputeUnitCreated(bytes32,bytes32)":{"details":"Emitted when a compute unit created for a peer","params":{"peerId":"The peer id","unitId":"The compute unit id"}},"ComputeUnitRemoved(bytes32,bytes32)":{"details":"Emitted when a compute unit removed from a peer","params":{"peerId":"The peer id","unitId":"The compute unit id"}},"ComputeUnitsMatched(bytes32,address,bytes32,bytes32[],(bytes4,bytes32))":{"details":"Emitted when a deal is matched with a compute unit","params":{"appCID":"The app cid of the deal","cuIds":"ids of compute units matched","deal":"The deal address","onchainWorkerId":"onchain worker id, for use in tools that interact with chain","peerId":"The peer id of the deal"}},"ComputeUnitsRemovedFromDeal(bytes32,address,bytes32[],bytes32)":{"details":"Emitted when a compute unit removed from a peer","params":{"cuIds":"The list of compute unit ids","deal":"The deal address","peerId":"The peer id"}},"EffectorAdded(bytes32,(bytes4,bytes32))":{"details":"Emitted when an effector added to an offer","params":{"effector":"The effector cid","offerId":"The offer id"}},"EffectorInfoRemoved((bytes4,bytes32))":{"details":"Emitted when the effector info is removed","params":{"id":"The effector cid"}},"EffectorInfoSet((bytes4,bytes32),string,(bytes4,bytes32))":{"details":"Emitted when the effector info is set. Effector info can be added by the contract owner","params":{"description":"The description of the effector","id":"The effector cid","metadata":"The metadata of the effector"}},"EffectorRemoved(bytes32,(bytes4,bytes32))":{"details":"Emitted when an effector removed from an offer","params":{"effector":"The effector cid","offerId":"The offer id"}},"MarketOfferRegistered(address,bytes32,uint256,address,(bytes4,bytes32)[],uint256,uint256)":{"details":"Emitted when a new offer is registered","params":{"effectors":"The effectors of the offer","minPricePerCuPerEpoch":"The min price per cu per epoch which the provider specify for the matching with the deal","offerId":"The offer id","paymentToken":"The payment token of the offer","provider":"The provider address"}},"MarketOfferRemoved(bytes32)":{"details":"Emitted when an offer removed","params":{"offerId":"The offer id"}},"MinPricePerCuPerEpochUpdated(bytes32,uint256)":{"details":"Emitted when the min price per worker per epoch of an offer is updated","params":{"minPricePerCuPerEpoch":"The new min price per worker per epoch","offerId":"The offer id"}},"PaymentTokenUpdated(bytes32,address)":{"details":"Emitted when the payment token of an offer is updated","params":{"offerId":"The offer id","paymentToken":"The new payment token"}},"PeerCreated(bytes32,bytes32,address)":{"details":"Emitted when a peer created for an offer"},"PeerRemoved(bytes32,bytes32)":{"details":"Emitted when a peer removed from an offer","params":{"offerId":"The offer id","peerId":"The peer id"}},"ProviderInfoUpdated(address,string,(bytes4,bytes32))":{"details":"Emitted when a provider info is updated","params":{"metadata":"The new metadata of the provider","name":"The new name of the provider","provider":"The provider address"}},"UnitActivated(bytes32,bytes32,uint256)":{"details":"Emitted when a unit activated. Unit is activated when it returned from deal","params":{"commitmentId":"Commitment id","unitId":"Compute unit id which activated"}},"UnitDeactivated(bytes32,bytes32)":{"details":"Emitted when a unit deactivated. Unit is deactivated when it moved to deal","params":{"commitmentId":"Commitment id","unitId":"Compute unit id which deactivated"}}},"errors":{"CapacityCommitmentIsNotActive(uint8)":[{"details":"Capacity commitment is not active"}],"MinWorkersNotMatched(uint256)":[{"details":"Throws if the min workers of the deal is not matched","params":{"_minWorkers":"The min workers of the deal"}}]}},"id":81}