{"abi":[{"type":"function","name":"addComputePeers","inputs":[{"name":"offerId","type":"bytes32","internalType":"bytes32"},{"name":"peers","type":"tuple[]","internalType":"struct IOffer.RegisterComputePeer[]","components":[{"name":"peerId","type":"bytes32","internalType":"bytes32"},{"name":"owner","type":"address","internalType":"address"},{"name":"unitIds","type":"bytes32[]","internalType":"bytes32[]"}]}],"outputs":[],"stateMutability":"nonpayable"},{"type":"function","name":"addComputeUnits","inputs":[{"name":"peerId","type":"bytes32","internalType":"bytes32"},{"name":"unitIds","type":"bytes32[]","internalType":"bytes32[]"}],"outputs":[],"stateMutability":"nonpayable"},{"type":"function","name":"addEffector","inputs":[{"name":"offerId","type":"bytes32","internalType":"bytes32"},{"name":"newEffectors","type":"tuple[]","internalType":"struct CIDV1[]","components":[{"name":"prefixes","type":"bytes4","internalType":"bytes4"},{"name":"hash","type":"bytes32","internalType":"bytes32"}]}],"outputs":[],"stateMutability":"nonpayable"},{"type":"function","name":"changeMinPricePerCuPerEpoch","inputs":[{"name":"offerId","type":"bytes32","internalType":"bytes32"},{"name":"newMinPricePerCuPerEpoch","type":"uint256","internalType":"uint256"}],"outputs":[],"stateMutability":"nonpayable"},{"type":"function","name":"changePaymentToken","inputs":[{"name":"offerId","type":"bytes32","internalType":"bytes32"},{"name":"newPaymentToken","type":"address","internalType":"address"}],"outputs":[],"stateMutability":"nonpayable"},{"type":"function","name":"getComputePeer","inputs":[{"name":"peerId","type":"bytes32","internalType":"bytes32"}],"outputs":[{"name":"","type":"tuple","internalType":"struct IOffer.ComputePeer","components":[{"name":"offerId","type":"bytes32","internalType":"bytes32"},{"name":"commitmentId","type":"bytes32","internalType":"bytes32"},{"name":"unitCount","type":"uint256","internalType":"uint256"},{"name":"owner","type":"address","internalType":"address"}]}],"stateMutability":"view"},{"type":"function","name":"getComputeUnit","inputs":[{"name":"unitId","type":"bytes32","internalType":"bytes32"}],"outputs":[{"name":"","type":"tuple","internalType":"struct IOffer.ComputeUnit","components":[{"name":"deal","type":"address","internalType":"address"},{"name":"peerId","type":"bytes32","internalType":"bytes32"},{"name":"startEpoch","type":"uint256","internalType":"uint256"},{"name":"onchainWorkerId","type":"bytes32","internalType":"bytes32"}]}],"stateMutability":"view"},{"type":"function","name":"getComputeUnitIds","inputs":[{"name":"peerId","type":"bytes32","internalType":"bytes32"}],"outputs":[{"name":"","type":"bytes32[]","internalType":"bytes32[]"}],"stateMutability":"view"},{"type":"function","name":"getComputeUnits","inputs":[{"name":"peerId","type":"bytes32","internalType":"bytes32"}],"outputs":[{"name":"","type":"tuple[]","internalType":"struct IOffer.ComputeUnitView[]","components":[{"name":"id","type":"bytes32","internalType":"bytes32"},{"name":"deal","type":"address","internalType":"address"},{"name":"startEpoch","type":"uint256","internalType":"uint256"},{"name":"onchainWorkerId","type":"bytes32","internalType":"bytes32"}]}],"stateMutability":"view"},{"type":"function","name":"getEffectorInfo","inputs":[{"name":"id","type":"tuple","internalType":"struct CIDV1","components":[{"name":"prefixes","type":"bytes4","internalType":"bytes4"},{"name":"hash","type":"bytes32","internalType":"bytes32"}]}],"outputs":[{"name":"","type":"tuple","internalType":"struct IOffer.EffectorInfo","components":[{"name":"description","type":"string","internalType":"string"},{"name":"metadata","type":"tuple","internalType":"struct CIDV1","components":[{"name":"prefixes","type":"bytes4","internalType":"bytes4"},{"name":"hash","type":"bytes32","internalType":"bytes32"}]}]}],"stateMutability":"view"},{"type":"function","name":"getOffer","inputs":[{"name":"offerId","type":"bytes32","internalType":"bytes32"}],"outputs":[{"name":"","type":"tuple","internalType":"struct IOffer.Offer","components":[{"name":"provider","type":"address","internalType":"address"},{"name":"minPricePerCuPerEpoch","type":"uint256","internalType":"uint256"},{"name":"paymentToken","type":"address","internalType":"address"},{"name":"peerCount","type":"uint256","internalType":"uint256"},{"name":"minProtocolVersion","type":"uint256","internalType":"uint256"},{"name":"maxProtocolVersion","type":"uint256","internalType":"uint256"}]}],"stateMutability":"view"},{"type":"function","name":"getProviderInfo","inputs":[{"name":"provider","type":"address","internalType":"address"}],"outputs":[{"name":"","type":"tuple","internalType":"struct IOffer.ProviderInfo","components":[{"name":"name","type":"string","internalType":"string"},{"name":"metadata","type":"tuple","internalType":"struct CIDV1","components":[{"name":"prefixes","type":"bytes4","internalType":"bytes4"},{"name":"hash","type":"bytes32","internalType":"bytes32"}]},{"name":"unitCount","type":"uint256","internalType":"uint256"}]}],"stateMutability":"view"},{"type":"function","name":"matchDeal","inputs":[{"name":"deal","type":"address","internalType":"contract IDeal"},{"name":"offers","type":"bytes32[]","internalType":"bytes32[]"},{"name":"computeUnits","type":"bytes32[][][]","internalType":"bytes32[][][]"}],"outputs":[],"stateMutability":"nonpayable"},{"type":"function","name":"moveResourcesFromDeal","inputs":[{"name":"unitIds","type":"bytes32[]","internalType":"bytes32[]"},{"name":"onchainWorkerId","type":"bytes32","internalType":"bytes32"}],"outputs":[],"stateMutability":"nonpayable"},{"type":"function","name":"registerMarketOffer","inputs":[{"name":"minPricePerCuPerEpoch","type":"uint256","internalType":"uint256"},{"name":"paymentToken","type":"address","internalType":"address"},{"name":"effectors","type":"tuple[]","internalType":"struct CIDV1[]","components":[{"name":"prefixes","type":"bytes4","internalType":"bytes4"},{"name":"hash","type":"bytes32","internalType":"bytes32"}]},{"name":"peers","type":"tuple[]","internalType":"struct IOffer.RegisterComputePeer[]","components":[{"name":"peerId","type":"bytes32","internalType":"bytes32"},{"name":"owner","type":"address","internalType":"address"},{"name":"unitIds","type":"bytes32[]","internalType":"bytes32[]"}]},{"name":"minProtocolVersion","type":"uint256","internalType":"uint256"},{"name":"maxProtocolVersion","type":"uint256","internalType":"uint256"}],"outputs":[{"name":"","type":"bytes32","internalType":"bytes32"}],"stateMutability":"nonpayable"},{"type":"function","name":"removeComputePeer","inputs":[{"name":"peerId","type":"bytes32","internalType":"bytes32"}],"outputs":[],"stateMutability":"nonpayable"},{"type":"function","name":"removeComputeUnit","inputs":[{"name":"unitId","type":"bytes32","internalType":"bytes32"}],"outputs":[],"stateMutability":"nonpayable"},{"type":"function","name":"removeEffector","inputs":[{"name":"offerId","type":"bytes32","internalType":"bytes32"},{"name":"effectors","type":"tuple[]","internalType":"struct CIDV1[]","components":[{"name":"prefixes","type":"bytes4","internalType":"bytes4"},{"name":"hash","type":"bytes32","internalType":"bytes32"}]}],"outputs":[],"stateMutability":"nonpayable"},{"type":"function","name":"removeEffectorInfo","inputs":[{"name":"id","type":"tuple","internalType":"struct CIDV1","components":[{"name":"prefixes","type":"bytes4","internalType":"bytes4"},{"name":"hash","type":"bytes32","internalType":"bytes32"}]}],"outputs":[],"stateMutability":"nonpayable"},{"type":"function","name":"removeOffer","inputs":[{"name":"offerId","type":"bytes32","internalType":"bytes32"}],"outputs":[],"stateMutability":"nonpayable"},{"type":"function","name":"setEffectorInfo","inputs":[{"name":"id","type":"tuple","internalType":"struct CIDV1","components":[{"name":"prefixes","type":"bytes4","internalType":"bytes4"},{"name":"hash","type":"bytes32","internalType":"bytes32"}]},{"name":"description","type":"string","internalType":"string"},{"name":"metadata","type":"tuple","internalType":"struct CIDV1","components":[{"name":"prefixes","type":"bytes4","internalType":"bytes4"},{"name":"hash","type":"bytes32","internalType":"bytes32"}]}],"outputs":[],"stateMutability":"nonpayable"},{"type":"function","name":"setProviderInfo","inputs":[{"name":"name","type":"string","internalType":"string"},{"name":"metadata","type":"tuple","internalType":"struct CIDV1","components":[{"name":"prefixes","type":"bytes4","internalType":"bytes4"},{"name":"hash","type":"bytes32","internalType":"bytes32"}]}],"outputs":[],"stateMutability":"nonpayable"},{"type":"event","name":"CommitmentFailed","inputs":[{"name":"commitmentId","type":"bytes32","indexed":true,"internalType":"bytes32"},{"name":"failedEpoch","type":"uint256","indexed":false,"internalType":"uint256"}],"anonymous":false},{"type":"event","name":"CommitmentStatsUpdated","inputs":[{"name":"commitmentId","type":"bytes32","indexed":false,"internalType":"bytes32"},{"name":"totalFailCount","type":"uint256","indexed":false,"internalType":"uint256"},{"name":"exitedUnitCount","type":"uint256","indexed":false,"internalType":"uint256"},{"name":"activeUnitCount","type":"uint256","indexed":false,"internalType":"uint256"},{"name":"nextAdditionalActiveUnitCount","type":"uint256","indexed":false,"internalType":"uint256"},{"name":"changedEpoch","type":"uint256","indexed":false,"internalType":"uint256"}],"anonymous":false},{"type":"event","name":"ComputeUnitCreated","inputs":[{"name":"peerId","type":"bytes32","indexed":true,"internalType":"bytes32"},{"name":"unitId","type":"bytes32","indexed":false,"internalType":"bytes32"}],"anonymous":false},{"type":"event","name":"ComputeUnitRemoved","inputs":[{"name":"peerId","type":"bytes32","indexed":true,"internalType":"bytes32"},{"name":"unitId","type":"bytes32","indexed":true,"internalType":"bytes32"}],"anonymous":false},{"type":"event","name":"ComputeUnitsMatched","inputs":[{"name":"peerId","type":"bytes32","indexed":true,"internalType":"bytes32"},{"name":"deal","type":"address","indexed":false,"internalType":"contract IDeal"},{"name":"onchainWorkerId","type":"bytes32","indexed":false,"internalType":"bytes32"},{"name":"cuIds","type":"bytes32[]","indexed":false,"internalType":"bytes32[]"},{"name":"appCID","type":"tuple","indexed":false,"internalType":"struct CIDV1","components":[{"name":"prefixes","type":"bytes4","internalType":"bytes4"},{"name":"hash","type":"bytes32","internalType":"bytes32"}]}],"anonymous":false},{"type":"event","name":"ComputeUnitsRemovedFromDeal","inputs":[{"name":"cuIds","type":"bytes32[]","indexed":false,"internalType":"bytes32[]"},{"name":"deal","type":"address","indexed":false,"internalType":"contract IDeal"},{"name":"peerId","type":"bytes32","indexed":false,"internalType":"bytes32"},{"name":"onchainWorkerId","type":"bytes32","indexed":false,"internalType":"bytes32"}],"anonymous":false},{"type":"event","name":"EffectorAdded","inputs":[{"name":"offerId","type":"bytes32","indexed":true,"internalType":"bytes32"},{"name":"effector","type":"tuple","indexed":false,"internalType":"struct CIDV1","components":[{"name":"prefixes","type":"bytes4","internalType":"bytes4"},{"name":"hash","type":"bytes32","internalType":"bytes32"}]}],"anonymous":false},{"type":"event","name":"EffectorInfoRemoved","inputs":[{"name":"id","type":"tuple","indexed":false,"internalType":"struct CIDV1","components":[{"name":"prefixes","type":"bytes4","internalType":"bytes4"},{"name":"hash","type":"bytes32","internalType":"bytes32"}]}],"anonymous":false},{"type":"event","name":"EffectorInfoSet","inputs":[{"name":"id","type":"tuple","indexed":false,"internalType":"struct CIDV1","components":[{"name":"prefixes","type":"bytes4","internalType":"bytes4"},{"name":"hash","type":"bytes32","internalType":"bytes32"}]},{"name":"description","type":"string","indexed":false,"internalType":"string"},{"name":"metadata","type":"tuple","indexed":false,"internalType":"struct CIDV1","components":[{"name":"prefixes","type":"bytes4","internalType":"bytes4"},{"name":"hash","type":"bytes32","internalType":"bytes32"}]}],"anonymous":false},{"type":"event","name":"EffectorRemoved","inputs":[{"name":"offerId","type":"bytes32","indexed":true,"internalType":"bytes32"},{"name":"effector","type":"tuple","indexed":false,"internalType":"struct CIDV1","components":[{"name":"prefixes","type":"bytes4","internalType":"bytes4"},{"name":"hash","type":"bytes32","internalType":"bytes32"}]}],"anonymous":false},{"type":"event","name":"EntityAdded","inputs":[{"name":"commitmentId","type":"bytes32","indexed":true,"internalType":"bytes32"},{"name":"entityId","type":"bytes32","indexed":false,"internalType":"bytes32"},{"name":"rewardPerEpoch","type":"uint256","indexed":false,"internalType":"uint256"},{"name":"currentEpoch","type":"uint256","indexed":false,"internalType":"uint256"}],"anonymous":false},{"type":"event","name":"EntityRemoved","inputs":[{"name":"commitmentId","type":"bytes32","indexed":true,"internalType":"bytes32"},{"name":"entityId","type":"bytes32","indexed":false,"internalType":"bytes32"},{"name":"currentEpoch","type":"uint256","indexed":false,"internalType":"uint256"}],"anonymous":false},{"type":"event","name":"MarketOfferRegistered","inputs":[{"name":"provider","type":"address","indexed":true,"internalType":"address"},{"name":"offerId","type":"bytes32","indexed":false,"internalType":"bytes32"},{"name":"minPricePerCuPerEpoch","type":"uint256","indexed":false,"internalType":"uint256"},{"name":"paymentToken","type":"address","indexed":false,"internalType":"address"},{"name":"effectors","type":"tuple[]","indexed":false,"internalType":"struct CIDV1[]","components":[{"name":"prefixes","type":"bytes4","internalType":"bytes4"},{"name":"hash","type":"bytes32","internalType":"bytes32"}]},{"name":"minProtocolVersion","type":"uint256","indexed":false,"internalType":"uint256"},{"name":"maxProtocolVersion","type":"uint256","indexed":false,"internalType":"uint256"}],"anonymous":false},{"type":"event","name":"MarketOfferRemoved","inputs":[{"name":"offerId","type":"bytes32","indexed":true,"internalType":"bytes32"}],"anonymous":false},{"type":"event","name":"MinPricePerCuPerEpochUpdated","inputs":[{"name":"offerId","type":"bytes32","indexed":true,"internalType":"bytes32"},{"name":"minPricePerCuPerEpoch","type":"uint256","indexed":false,"internalType":"uint256"}],"anonymous":false},{"type":"event","name":"PaymentTokenUpdated","inputs":[{"name":"offerId","type":"bytes32","indexed":true,"internalType":"bytes32"},{"name":"paymentToken","type":"address","indexed":false,"internalType":"address"}],"anonymous":false},{"type":"event","name":"PeerCreated","inputs":[{"name":"offerId","type":"bytes32","indexed":true,"internalType":"bytes32"},{"name":"peerId","type":"bytes32","indexed":false,"internalType":"bytes32"},{"name":"owner","type":"address","indexed":false,"internalType":"address"}],"anonymous":false},{"type":"event","name":"PeerRemoved","inputs":[{"name":"offerId","type":"bytes32","indexed":true,"internalType":"bytes32"},{"name":"peerId","type":"bytes32","indexed":true,"internalType":"bytes32"}],"anonymous":false},{"type":"event","name":"ProviderInfoUpdated","inputs":[{"name":"provider","type":"address","indexed":true,"internalType":"address"},{"name":"name","type":"string","indexed":false,"internalType":"string"},{"name":"metadata","type":"tuple","indexed":false,"internalType":"struct CIDV1","components":[{"name":"prefixes","type":"bytes4","internalType":"bytes4"},{"name":"hash","type":"bytes32","internalType":"bytes32"}]}],"anonymous":false},{"type":"event","name":"StateUpdated","inputs":[{"name":"commitmentId","type":"bytes32","indexed":true,"internalType":"bytes32"},{"name":"state","type":"tuple","indexed":false,"internalType":"struct DealStakerRewards.VestingState","components":[{"name":"items","type":"uint256[]","internalType":"uint256[]"},{"name":"accumulatedUnlockedFlt","type":"uint256","internalType":"uint256"}]}],"anonymous":false},{"type":"event","name":"UnitActivated","inputs":[{"name":"commitmentId","type":"bytes32","indexed":true,"internalType":"bytes32"},{"name":"unitId","type":"bytes32","indexed":true,"internalType":"bytes32"},{"name":"startEpoch","type":"uint256","indexed":false,"internalType":"uint256"}],"anonymous":false},{"type":"event","name":"UnitDeactivated","inputs":[{"name":"commitmentId","type":"bytes32","indexed":true,"internalType":"bytes32"},{"name":"unitId","type":"bytes32","indexed":true,"internalType":"bytes32"}],"anonymous":false},{"type":"event","name":"VestingScheduleItem","inputs":[{"name":"commitmentId","type":"bytes32","indexed":true,"internalType":"bytes32"},{"name":"id","type":"uint256","indexed":true,"internalType":"uint256"},{"name":"epoch","type":"uint256","indexed":true,"internalType":"uint256"},{"name":"cumulativeAmount","type":"uint256","indexed":false,"internalType":"uint256"}],"anonymous":false},{"type":"event","name":"VestingUpdateItem","inputs":[{"name":"commitmentId","type":"bytes32","indexed":true,"internalType":"bytes32"},{"name":"id","type":"uint256","indexed":true,"internalType":"uint256"},{"name":"cumulativeAmount","type":"uint256","indexed":false,"internalType":"uint256"}],"anonymous":false},{"type":"error","name":"CapacityCommitmentIsNotActive","inputs":[{"name":"status","type":"uint8","internalType":"enum ICapacity.CCStatus"}]},{"type":"error","name":"MinWorkersNotMatched","inputs":[{"name":"_minWorkers","type":"uint256","internalType":"uint256"}]}],"bytecode":{"object":"0x60808060405234601557615cec908161001a8239f35b5f80fdfe6104806040526004361015610012575f80fd5b5f3560e01c8063087b97ba14612f545780630bcee1a214612e9f57806312a4ebb014612ca157806319c671ca14612b6c57806334205efd14612a435780633591187c1461281557806362ac63fa1461278d578063745e920b1461273757806374920a9d146126895780637583902f146125c157806386e682541461256a5780638e4643cb1461129157806391d27f71146111a15780639faf0d2014611093578063b017191a14610f68578063b6015c6e14610c47578063b6b9084e14610bc8578063c685738e146109c6578063d597b8c81461095f578063da74336a14610709578063edd9db67146101ed5763f46bcb1d1461010c575f80fd5b346101e95760403660031901126101e957600435602435815f525f80516020615a5783398151915260205260405f2061014f60018060a01b03825416331461324a565b811561018857817fe1ee92410921704d98c80cd8205bc1af1be59a37950d466e1f8367ce56b868f19260016020930155604051908152a2005b60405162461bcd60e51b815260206004820152603360248201527f4d696e20707269636520706572204355207065722065706f63682073686f756c6044820152720642062652067726561746572207468616e203606c1b6064820152608490fd5b5f80fd5b346101e95760c03660031901126101e957600435610209613013565b906044356001600160401b0381116101e957610229903690600401613128565b91906064356001600160401b0381116101e95761024a9036906004016131be565b92909360843560a435915f80516020615c578339815191529760405160208101907febbe29d10864671a7296ae5158eb0df8533e86c62e6a8460f3029ae682538c5182523360601b6040820152436054820152365f60748301376102c16074823681015f838201520301601f1981018352826130ee565b5190209860018060a01b0333165f526020526102e060405f20546133ba565b156106cb575f8981525f80516020615a5783398151915260205260409020600201546001600160a01b031661068f57841561062e576001600160a01b03169361032a851515613294565b7f60ac4d56f7e69877e4b95a6e91f4b3612278b580a93ea7637885a480e015031a5483106105e9577f60ac4d56f7e69877e4b95a6e91f4b3612278b580a93ea7637885a480e015031b5484116105a557838311610566578190855f525f80516020615c778339815191526020526103a760ff60405f2054166132f1565b6040516103b3816130d3565b33815260058b60208301848152604084018a815260608501905f825260808601928a845260a08701948c86525f525f80516020615a5783398151915260205260405f209660018060a01b039060018060a01b039051161660018060a01b031988541617875551600187015560018060a01b03905116600286019060018060a01b031660018060a01b0319825416179055516003850155516004840155519101555f5b82811061051057506040519560c08701918b88526020880152604087015260c060608701525260e0840194905f5b8181106104f25750505090829160807f02b4bfba88db81e84c717b16bf874a79ecc39de3944a9f18dd7122ae32f0990794015260a08201528033930390a25f5b8181106104d557602084604051908152f35b806104ec6104e6600193858761365d565b86613a22565b016104c3565b909195604080826105056001948b61352f565b019701929101610483565b600191925061053161052c3661052784888d613550565b61338b565b6138f0565b8b5f525f80516020615b9783398151915260205260405f20905f5260205260405f208260ff1982541617905501908291610455565b60405162461bcd60e51b815260206004820152601760248201527657726f6e672070726f746f636f6c2076657273696f6e7360481b6044820152606490fd5b60405162461bcd60e51b815260206004820152601c60248201527b4d61782070726f746f636f6c2076657273696f6e20746f6f2062696760201b6044820152606490fd5b60405162461bcd60e51b815260206004820152601e60248201527f4d696e2070726f746f636f6c2076657273696f6e20746f6f20736d616c6c00006044820152606490fd5b60405162461bcd60e51b815260206004820152603360248201527f4d696e20707269636520706572206375207065722065706f63682073686f756c6044820152720642062652067726561746572207468616e203606c1b6064820152608490fd5b60405162461bcd60e51b81526020600482015260146024820152734f6666657220616c72656164792065786973747360601b6044820152606490fd5b60405162461bcd60e51b8152602060048201526016602482015275141c9bdd9a59195c88191bd95cdb89dd08195e1a5cdd60521b6044820152606490fd5b346101e957366003190160a081126101e9576040136101e9576044356001600160401b0381116101e95761074190369060040161321d565b9060403660631901126101e95761075661398b565b811561091a5761076861052c36613351565b5f9081525f80516020615a3783398151915260205260409020916001600160401b0381116109065761079a83546133ba565b601f81116108cb575b505f81601f811160011461086857806107d0925f9161085d575b508160011b915f199060031b1c19161790565b83555b606435600184016001600160e01b031982168083036101e9577f07e6a99b56bd76df684b4e8200a585d033be87a4728f1b66545d48c61bfc405e956002928460e01c63ffffffff19825416179055608435928391015561084c60405195869561083b8761350f565b60a0604088015260a0870191613811565b9250606084015260808301520390a1005b9050840135866107bd565b50601f19821690845f528260205f20925f5b8181106108b0575010610897575b5050600181811b0183556107d3565b8301355f19600384901b60f8161c191690558380610888565b8684013585556001909401936020938401938693500161087a565b6108f690845f5260205f20601f840160051c810191602085106108fc575b601f0160051c01906134e6565b836107a3565b90915081906108e9565b634e487b7160e01b5f52604160045260245ffd5b60405162461bcd60e51b815260206004820152601f60248201527f4465736372697074696f6e2073686f756c64206265206e6f7420656d707479006044820152606490fd5b346101e95760203660031901126101e95760c061097d600435613861565b60a060405191600180831b03815116835260208101516020840152600180831b0360408201511660408401526060810151606084015260808101516080840152015160a0820152f35b346101e95760603660031901126101e9576004356001600160401b0381116101e9576109f690369060040161321d565b9060403660231901126101e9578115610b8857335f9081525f80516020615c5783398151915260205260409020916001600160401b03811161090657610a3c83546133ba565b601f8111610b58575b505f81601f8111600114610af55780610a71925f9161085d57508160011b915f199060031b1c19161790565b83555b602435926001600160e01b03198416600182018186036101e9577f25909849cdf41a66fb9d72a68c492d440847318f46672d5f21aed036bc2a3c5c94600293610ae1928860e01c63ffffffff19825416179055604435948591015560405194606086526060860191613811565b9450602083015260408201528033930390a2005b50601f19821690845f528260205f20925f5b818110610b3d575010610b24575b5050600181811b018355610a74565b8301355f19600384901b60f8161c191690558380610b15565b86840135855560019094019360209384019386935001610b07565b610b8290845f5260205f20601f840160051c810191602085106108fc57601f0160051c01906134e6565b83610a45565b60405162461bcd60e51b81526020600482015260186024820152774e616d652073686f756c64206265206e6f7420656d70747960401b6044820152606490fd5b346101e957610c45610bd9366131ee565b91610be58115156137c7565b805f525f805160206159d7833981519152602052610c40600160405f208054610c0f811515613786565b5f525f80516020615a57833981519152602052610c38828060a01b0360405f205416331461324a565b0154156135a9565b613cd7565b005b346101e95760203660031901126101e957600435805f525f80516020615bf783398151915260205260405f20604051808260208294549384815201905f5260205f20925f5b818110610f4f575050610ca1925003826130ee565b805191610cad83613111565b92610cbb60405194856130ee565b808452610cca601f1991613111565b015f5b818110610f385750505f525f805160206159d7833981519152602052600160405f2001545f9080610df4575b505f5b8251811015610d875780610d12600192856134be565b51805f525f80516020615bb783398151915260205260405f2060028101548015610d80575b6003858060a01b038354169201549160405193610d53856130b8565b8452602084015260408301526060820152610d6e82876134be565b52610d7981866134be565b5001610cfc565b5084610d37565b836040518091602082016020835281518091526020604084019201905f5b818110610db3575050500390f35b91935091602060806001926060875180518352858060a01b038582015116858401526040810151604084015201516060820152019401910191849392610da5565b90505f610140604051610e068161309c565b8281528260208201528260408201528260608201528260808201528260a08201528260c08201528260e0820152826101008201528261012082015201525f80516020615c17833981519152905f5260205260405f206001810154610e6b811515613c75565b610140610e76613bd7565b600684015493600381015491610e8c83876136b1565b90610eac610e9987613b53565b92610ea385614374565b92848487614451565b93610ec16040600286015494015191896136b1565b600485015491602060018060a01b0360058801541694015194600d6020604088015197015197015499610f0060405199610efa8b61309c565b8a613ccb565b60208901526040880152606087015288608087015260a086015260c085015260e0840152610100830152610120820152015283610cf9565b602090610f436135f7565b82828801015201610ccd565b8454835260019485019486945060209093019201610c8c565b346101e957610f7636613158565b825f525f80516020615a57833981519152602052610fa160018060a01b0360405f205416331461324a565b5f5b818110610fac57005b610fb7818385613550565b90610fc561052c368461338b565b855f525f80516020615b9783398151915260205260405f20815f5260205260ff60405f205416611054577f3c96a39027441c49cc91433cc2f6a915b4aa9be8119e89e1ee6700fe60eb253160406001948893845f525f80516020615b97833981519152602052825f20905f52602052815f208660ff1982541617905561104d8251809261352f565ba201610fa3565b60405162461bcd60e51b81526020600482015260176024820152764566666563746f7220616c72656164792065786973747360481b6044820152606490fd5b346101e95760203660031901126101e957600435805f525f805160206159d783398151915260205260405f20805490815f525f80516020615a57833981519152602052600260405f20916110e8841515613786565b6110fc60018060a01b03845416331461324a565b01546111635760030161110f81546135eb565b9055815f525f805160206159d78339815191526020525f60036040822082815582600182015582600282015501557f5f91ba2d62c13db8e4353c3b2d314e715907459581a42b764f350231f8ee0cf35f80a3005b60405162461bcd60e51b8152602060048201526016602482015275506565722068617320636f6d7075746520756e69747360501b6044820152606490fd5b346101e95760203660031901126101e957600435805f525f80516020615a57833981519152602052600360405f206111ee60018060a01b038254166111e781151561361b565b331461324a565b015461125257805f525f80516020615a578339815191526020525f60056040822082815582600182015582600282015582600382015582600482015501557f0e2c810360f652bf120515b49756167e4b196601c40ce83c5df5a8fa22d7f9b85f80a2005b60405162461bcd60e51b81526020600482015260176024820152764f666665722068617320636f6d7075746520706565727360481b6044820152606490fd5b346101e95760603660031901126101e9576004356104608190526001600160a01b03811690036101e9576024356001600160401b0381116101e9576112da9036906004016131be565b61020052610300526044356001600160401b0381116101e9576113019036906004016131be565b6101e052610340527f13f5ac65dc9f5b2765e76eb17d53fe3e7065903823eb36bdd7841fa3f8dacbbe61040052610460516001600160a01b03165f9081527f21811dc5bb11da2b2076245a2c14796806445512606a02297e6b92fb11728107602052604090205460ff161561252557604051638da5cb5b60e01b815261046051602090829060049082906001600160a01b03165afa908115611755575f916124e3575b50336001600160a01b0390911603612494576040516302734eab60e51b815261046051602090829060049082906001600160a01b03165afa908115611755575f91612459575b506005811015611d8f576001811490811561244e575b501561240b57610460516001600160a01b03165f90815261040051602052604090205461142b613bd7565b81159182156123d5575b505015612390576040516370220a9b60e01b815261046051602090829060049082906001600160a01b03165afa8015611755575f6104405261235c575b50604051633013ce2960e01b815261046051602090829060049082906001600160a01b03165afa8015611755575f61012052612318575b50604051634d7599f160e01b815261046051602090829060049082906001600160a01b03165afa8015611755575f6103e0526122e4575b50604051632943dcab60e01b815261046051602090829060049082906001600160a01b03165afa8015611755575f906122b0575b61152391506103e051906136be565b6102e08190526103c052604051638a0c725b60e01b815261046051602090829060049082906001600160a01b03165afa8015611755575f6103205261227c575b50604051630ad0798d60e11b815261046051602090829060049082906001600160a01b03165afa8015611755575f61022052612248575b506040516319e749ff60e11b815261046051602090829060049082906001600160a01b03165afa8015611755575f61018052612214575b50604051637e0f2f1560e11b8152610460515f90829060049082906001600160a01b03165afa8015611755575f6101c05261215a575b50604051631378cd0d60e31b815260408160048160018060a01b0361046051165afa8015611755575f6103605261211f575b50604051630d4773ff60e41b815261046051602090829060049082906001600160a01b03165afa8015611755575f6102a0526120e2575b505f610420525f6103a0525b610200516103a0511061176057604051632db3119360e01b815261046051602090829060049082906001600160a01b03165afa908115611755575f91611723575b506116da6102e0516116d56103c0516103e0516136b1565b6136be565b811161171157610420516116ea57005b6116f2613bd7565b610460516001600160a01b03165f908152610400516020526040902055005b631275878760e21b5f5260045260245ffd5b90506020813d60201161174d575b8161173e602093836130ee565b810103126101e95751816116bd565b3d9150611731565b6040513d5f823e3d90fd5b6117746103a0516102005161030051613704565b356102605261178561026051613861565b61038081905251604051631f4570d760e11b81526001600160a01b03918216600482015261046051909160209183916024918391165afa908115611755575f916120c4575b501580156120b1575b8015612090575b8015612079575b8015612066575b8015612053575b61201b57610380515160405163016712bf60e61b81526001600160a01b03918216600482015261046051909160209183916024918391165afa8015611755575f6102c052612020575b506102c051610240525f610280525b61185b6103a0516101e05161034051613761565b905061028051101561201b57610320516102405110801590612010575b6120005761189d6118936103a0516101e05161034051613761565b6102805191613761565b90506102205111611ffb575f610140526118cc6118bc61022051613111565b6040516101a0526101a0516130ee565b610220516101a05152601f196118e461022051613111565b013660206101a05101375f805b6119086118936103a0516101e05161034051613761565b9050821015611ff4576119328261192c6118936103a0516101e05161034051613761565b90613704565b3561193b6135f7565b5061194581613925565b610160819052602001516101005261014051611fdd5761010051610140525b61196c6135f7565b5061197961010051613b53565b61026051815103611fd25761016051516001600160a01b0316611fd25760036102a0511015611d8f5760016102a05114159081611f48575b50611f10576040516305e8c93760e51b815261010051600482015261046051602090829060249082906001600160a01b03165afa908115611755575f91611f1a575b50611f105790611a1091611a0a826101a0516134be565b52613778565b90610220518214611a26576001905b01906118f1565b5050611a3f5f80516020615a1783398151915254613778565b60e05260e0515f80516020615a178339815191525560405160c052611a6560c051613066565b60e05160c051526101a051602060c0510152610100515f525f805160206159d783398151915260205260405f2060a0525f5b6101a05151811015611da357611ab0816101a0516134be565b515f8181525f80516020615bb7833981519152602052604090206104605181546001600160a01b0319166001600160a01b039190911617815560e05160039091015560a05160010154919082611b0c575b506001915001611a97565b5f80516020615c1783398151915292611b23613bd7565b93815f5260205260405f20611b3b6001820154613b53565b611b4484613925565b90845f526012830160205260405f2090611b6760068501546003860154906136b1565b90611b7e828a611b7688614374565b938489614451565b611b89828789614702565b6006811015611d8f5760018103611d7e57506020908101510151611baf91898785614945565b600160ff19825416179055600a820190611bc982546135eb565b82555f80516020615b178339815191525f80516020615ad7833981519152545f198101908111611d3857611c1c9150805f80516020615ad7833981519152555f80516020615a7783398151915254614d8c565b516040516370220a9b60e01b81526014840191602090829060049082906001600160a01b03165afa908115611755575f91611d4c575b50606062989680611c897fecc2a9581aa0ec66253fe6dd29ab490ad7a55cde02026a17baa162151745bb55936004880154906134fc565b0492611c958a82614fb1565b875f52601686016020528360405f205560178601611cb48582546136b1565b90555492604051908882526020820152896040820152a26008820154600b600d8401549254930154925f198801978811611d38576001975f80516020615ab783398151915294611d0b926040519586958987613ffc565b0390a17fbd9cde1bbc961036d34368ae328c38917036a98eacfb025a1ff6d2c6235d0a145f80a382611b01565b634e487b7160e01b5f52601160045260245ffd5b90506020813d8211611d76575b81611d66602093836130ee565b810103126101e957516060611c52565b3d9150611d59565b6242963960e51b5f5260045260245ffd5b634e487b7160e01b5f52602160045260245ffd5b506103805151610460516001600160a01b0391821691163b156101e9576040519063d76e480560e01b825260048201526060602482015260a4810160c051516064830152602060c051015190604060848401528151608052608051905281602060c4820192015f5b6080518110611ef7575050805f9261010051604483015203818360018060a01b0361046051165af1801561175557611ee7575b5060c051517f6e5629a2cfaa82d1ea7ad51936794f666271fbd5068017020eaaafdbb017e615611e96602060c05101516040519360018060a01b0361046051168552602085015260a0604085015260a084019061318b565b91611ea7606082016103605161304d565b8061010051930390a2600161042052611ec261024051613778565b61024052611ed26102e0516135eb565b6102e0525b6001610280510161028052611847565b5f611ef1916130ee565b80611e3e565b8151845260209384019385935090910190600101611e0b565b5090600190611a1f565b611f3b915060203d8111611f41575b611f3381836130ee565b810190613714565b846119f3565b503d611f29565b60200151801591508115611f5e575b50846119b1565b90505f80516020615c17833981519152905f52602052611fbf60405f20611f936001820154611f8e811515613c75565b613b53565b611f9c82614374565b90611fa5613bd7565b91611fb960068501546003860154906136b1565b93614451565b6006811015611d8f576001141584611f57565b505090600190611a1f565b610100516101405114611964575090600190611a1f565b5050611ed7565b611ed7565b60016103a051016103a05261167c565b506102e05115611878565b612000565b6020813d821161204b575b81612038602093836130ee565b810103126101e957516102c05280611838565b3d915061202b565b506101805160a0610380510151106117ef565b50610180516080610380510151116117e8565b5061208a6101c05161026051613c15565b156117e1565b506103805160400151610120516001600160a01b03908116911614156117da565b50602061038051015161044051106117d3565b6120dc915060203d8111611f4157611f3381836130ee565b816117ca565b6020813d602011612117575b816120fb602093836130ee565b810103126101e9575160038110156101e9576102a05280611670565b3d91506120ee565b60403d604011612153575b61213481836130ee565b81016040828203126101e957612149916136cb565b6103605280611639565b503d61212a565b3d805f833e61216981836130ee565b60208282810103126101e95781516001600160401b0381116101e957818301601f8285010112156101e95780830151916121a283613111565b936121b060405195866130ee565b838552602085019282820160208660061b8385010101116101e95792602084830101935b60208660061b828501010185106121f5575050505050506101c05280611607565b604060208093612207878701896136cb565b81520195019491506121d4565b6020813d602011612240575b8161222d602093836130ee565b810103126101e9575161018052806115d1565b3d9150612220565b6020813d602011612274575b81612261602093836130ee565b810103126101e95751610220528061159a565b3d9150612254565b6020813d6020116122a8575b81612295602093836130ee565b810103126101e957516103205280611563565b3d9150612288565b506020813d6020116122dc575b816122ca602093836130ee565b810103126101e9576115239051611514565b3d91506122bd565b6020813d602011612310575b816122fd602093836130ee565b810103126101e957516103e052806114e0565b3d91506122f0565b6020813d602011612354575b81612331602093836130ee565b810103126101e957516001600160a01b03811681036101e95761012052806114a9565b3d9150612324565b6020813d602011612388575b81612375602093836130ee565b810103126101e957516104405280611472565b3d9150612368565b60405162461bcd60e51b815260206004820152601d60248201527f4d6174636865723a20746f6f206561726c7920746f2072656d617463680000006044820152606490fd5b6124039192507f60ac4d56f7e69877e4b95a6e91f4b3612278b580a93ea7637885a480e015031954906136b1565b108180611435565b60405162461bcd60e51b815260206004820152601b60248201527a4d6174636865723a206465616c206973206e6f742061637469766560281b6044820152606490fd5b600391501481611400565b90506020813d60201161248c575b81612474602093836130ee565b810103126101e9575160058110156101e957816113ea565b3d9150612467565b60405162461bcd60e51b815260206004820152602160248201527f4d6174636865723a2073656e646572206973206e6f74206465616c206f776e656044820152603960f91b6064820152608490fd5b90506020813d60201161251d575b816124fe602093836130ee565b810103126101e957516001600160a01b03811681036101e957816113a4565b3d91506124f1565b60405162461bcd60e51b815260206004820152601f60248201527f4d6174636865723a206465616c206973206e6f742072656769737465726564006044820152606490fd5b346101e95760203660031901126101e9576125836135f7565b506080612591600435613b53565b60405190805182526020810151602083015260408101516040830152606060018060a01b03910151166060820152f35b346101e95760203660031901126101e9576004356001600160a01b03811681036101e9576125ed61367f565b506125f661367f565b506001600160a01b03165f9081525f80516020615c5783398151915260205260409081902090516126739161262a82613081565b612633816133f2565b8252600361264360018301613492565b916020840192835201546040830190815261267f60405194859460208652516080602087015260a0860190613029565b9251604085019061304d565b5160808301520390f35b346101e957612697366131ee565b9190815f525f80516020615a578339815191526020526126c860018060a01b0360405f2054166111e781151561361b565b82156126f6575f5b8381106126d957005b806126f06126ea600193878661365d565b85613a22565b016126d0565b60405162461bcd60e51b815260206004820152601960248201527850656572732073686f756c64206e6f7420626520656d70747960381b6044820152606490fd5b346101e95760203660031901126101e9576127506135f7565b50608061275e600435613925565b60606040519160018060a01b038151168352602081015160208401526040810151604084015201516060820152f35b346101e95760203660031901126101e9576004355f525f80516020615bf783398151915260205260405f206040519081602082549182815201915f5260205f20905f5b8181106127ff576127fb856127e7818703826130ee565b60405191829160208352602083019061318b565b0390f35b82548452602090930192600192830192016127d0565b346101e95760203660031901126101e9576004355f80516020615c57833981519152815f525f80516020615bb783398151915260205260405f20600181015491612860831515613560565b5f8381525f805160206159d783398151915260209081526040808320805484525f80516020615a578339815191528352818420546001600160a01b0316808552949092529091209092909133036129f3576128bf6001840154156135a9565b546001600160a01b03166129b4576002600392016128dd81546135eb565b9055016128ea81546135eb565b9055805f525f80516020615bf783398151915260205261290d8260405f20614246565b1561296457815f525f80516020615bb78339815191526020525f60036040822082815582600182015582600282015501557f5abefe0a1fb3d6df34b14e459422791829e024e367c6df8eaf0bf218cf42fb365f80a3005b60405162461bcd60e51b815260206004820152602260248201527f496e76616c69642072656d6f76652066726f6d20656e756d657261626c652073604482015261195d60f21b6064820152608490fd5b60405162461bcd60e51b815260206004820152601760248201527610dbdb5c1d5d19481d5b9a5d081a5cc81a5b881919585b604a1b6044820152606490fd5b60405162461bcd60e51b815260206004820152602260248201527f4f6e6c79206f776e65722063616e2072656d6f766520636f6d7075746520756e6044820152611a5d60f21b6064820152608490fd5b346101e957612a5136613158565b825f525f80516020615a57833981519152602052612a7c60018060a01b0360405f205416331461324a565b5f5b818110612a8757005b612a92818385613550565b90612aa061052c368461338b565b855f525f80516020615b9783398151915260205260405f20815f5260205260ff60405f20541615612b2e577f5151d310b0333d894aac0234a4665be715d061a6fbf0f84ce313f315a8272dce60406001948893845f525f80516020615b97833981519152602052825f20905f52602052815f2060ff198154169055612b278251809261352f565ba201612a7e565b60405162461bcd60e51b81526020600482015260166024820152751159999958dd1bdc88191bd95cdb89dd08195e1a5cdd60521b6044820152606490fd5b346101e95760403660031901126101e957612b8561398b565b612b9161052c36613351565b805f525f80516020615a37833981519152602052612bb260405f20546133ba565b15612c5e575f525f80516020615a378339815191526020525f600260408220612bdb81546133ba565b80612c1b575b5082600182015501557f735be6859fb325819656a18d6683153766e980fb5bc8822c2a757810ad46599760408051612c188161350f565ba1005b601f8111600114612c3157508281555b83612be1565b81845260208420612c4d91601f0160051c8101906001016134e6565b808352826020812081835555612c2b565b60405162461bcd60e51b815260206004820152601b60248201527a1159999958dd1bdc881a5b999bc8191bd95cdb89dd08195e1a5cdd602a1b6044820152606490fd5b346101e95760403660031901126101e9576004356001600160401b0381116101e957366023820112156101e957806004013590612cdd82613111565b91612ceb60405193846130ee565b8083526024602084019160051b830101913683116101e957602401905b828210612e8f57602435845f5b8151811015612d7f57336001600160a01b03612d3a612d3484866134be565b51613925565b511603612d4957600101612d15565b60405162461bcd60e51b815260206004820152600e60248201526d13db9b1e48199c9bdb481919585b60921b6044820152606490fd5b50905f5b8251811015610c4557612d9681846134be565b5190815f525f80516020615bb783398151915260205260405f2091600183015490612dc2821515613560565b83545f8381525f805160206159d7833981519152602052604081206001600160a01b0319831687556003909601556001909401546001600160a01b03909416939081612e7f575b505084515f19810193908411611d38576001938314612e2b575b505001612d83565b7fe6554fed0408e406eebae5f176604ce1b41ce67a43d6e1353df4195d026bcdc09160405191829160808352612e64608084018a61318b565b91602084015260408301528660608301520390a18480612e23565b612e8891614024565b8580612e09565b8135815260209182019101612d08565b346101e95760403660031901126101e957604051612ebc81613066565b60608152602060405191612ecf83613066565b5f83525f828401520152612ee561052c36613351565b5f525f80516020615a37833981519152602052612f4860405f20612f22600160405192612f1184613066565b612f1a816133f2565b845201613492565b602082019081526127fb6040519384936020855251606060208601526080850190613029565b9151604084019061304d565b346101e95760403660031901126101e9576004357f69320c1eb39a752844ba207d2f98bd240d07dabf1449b4c1bd432daea12b744a6020612f93613013565b835f525f80516020615a578339815191528252600260405f2091612fc160018060a01b03845416331461324a565b6001600160a01b031691612fd6831515613294565b825f525f80516020615c778339815191528452612ff960ff60405f2054166132f1565b0180546001600160a01b03191682179055604051908152a2005b602435906001600160a01b03821682036101e957565b805180835260209291819084018484015e5f828201840152601f01601f1916010190565b80516001600160e01b0319168252602090810151910152565b604081019081106001600160401b0382111761090657604052565b606081019081106001600160401b0382111761090657604052565b61016081019081106001600160401b0382111761090657604052565b608081019081106001600160401b0382111761090657604052565b60c081019081106001600160401b0382111761090657604052565b601f909101601f19168101906001600160401b0382119082101761090657604052565b6001600160401b0381116109065760051b60200190565b9181601f840112156101e9578235916001600160401b0383116101e9576020808501948460061b0101116101e957565b9060406003198301126101e95760043591602435906001600160401b0382116101e95761318791600401613128565b9091565b90602080835192838152019201905f5b8181106131a85750505090565b825184526020938401939092019160010161319b565b9181601f840112156101e9578235916001600160401b0383116101e9576020808501948460051b0101116101e957565b9060406003198301126101e95760043591602435906001600160401b0382116101e957613187916004016131be565b9181601f840112156101e9578235916001600160401b0383116101e957602083818601950101116101e957565b1561325157565b60405162461bcd60e51b815260206004820152601b60248201527a27b7363c9037bbb732b91031b0b71031b430b733b29037b33332b960291b6044820152606490fd5b1561329b57565b60405162461bcd60e51b815260206004820152602860248201527f5061796d656e7420746f6b656e2073686f756c64206265206e6f74207a65726f604482015267206164647265737360c01b6064820152608490fd5b156132f857565b60405162461bcd60e51b815260206004820152601c60248201527b14185e5b595b9d081d1bdad95b881a5cc81b9bdd08185b1b1bddd95960221b6044820152606490fd5b35906001600160e01b0319821682036101e957565b60409060031901126101e9576040519061336a82613066565b816004356001600160e01b0319811681036101e95781526020602435910152565b91908260409103126101e9576040516133a381613066565b60208082946133b18161333c565b84520135910152565b90600182811c921680156133e8575b60208310146133d457565b634e487b7160e01b5f52602260045260245ffd5b91607f16916133c9565b9060405191825f825492613405846133ba565b8084529360018116908115613470575060011461342c575b5061342a925003836130ee565b565b90505f9291925260205f20905f915b81831061345457505090602061342a928201015f61341d565b602091935080600191548385890101520191019091849261343b565b90506020925061342a94915060ff191682840152151560051b8201015f61341d565b9060405161349f81613066565b825460e01b6001600160e01b0319168152600192909201546020830152565b80518210156134d25760209160051b010190565b634e487b7160e01b5f52603260045260245ffd5b8181106134f1575050565b5f81556001016134e6565b81810292918115918404141715611d3857565b60043563ffffffff60e01b81168091036101e95781526020602435910152565b60209081906001600160e01b03196135468261333c565b1684520135910152565b91908110156134d25760061b0190565b1561356757565b60405162461bcd60e51b815260206004820152601a60248201527910dbdb5c1d5d19481d5b9a5d08191bd95cdb89dd08195e1a5cdd60321b6044820152606490fd5b156135b057565b60405162461bcd60e51b81526020600482015260136024820152721419595c881a185cc818dbdb5b5a5d1b595b9d606a1b6044820152606490fd5b8015611d38575f190190565b60405190613604826130b8565b5f6060838281528260208201528260408201520152565b1561362257565b60405162461bcd60e51b815260206004820152601360248201527213d999995c88191bd95cdb89dd08195e1a5cdd606a1b6044820152606490fd5b91908110156134d25760051b81013590605e19813603018212156101e9570190565b6040519061368c82613081565b5f60408360608152815161369f81613066565b83815283602082015260208201520152565b91908201809211611d3857565b91908203918211611d3857565b91908260409103126101e9576040516136e381613066565b8092805163ffffffff60e01b811681036101e9578252602090810151910152565b91908110156134d25760051b0190565b908160209103126101e9575180151581036101e95790565b903590601e19813603018212156101e957018035906001600160401b0382116101e957602001918160051b360383136101e957565b908210156134d2576131879160051b81019061372c565b5f198114611d385760010190565b1561378d57565b60405162461bcd60e51b81526020600482015260126024820152711419595c88191bd95cdb89dd08195e1a5cdd60721b6044820152606490fd5b156137ce57565b60405162461bcd60e51b815260206004820152601b60248201527a506565722069642073686f756c64206265206e6f7420656d70747960281b6044820152606490fd5b908060209392818452848401375f828201840152601f01601f1916010190565b6040519061383e826130d3565b5f60a0838281528260208201528260408201528260608201528260808201520152565b613869613831565b50613872613831565b505f9081525f80516020615a578339815191526020526040902080546001600160a01b0316906005906138a683151561361b565b604051926138b3846130d3565b83526001810154602084015260028101546001600160a01b031660408401526003810154606084015260048101546080840152015460a082015290565b602063ffffffff60e01b825116910151604051906020820192835260248201526024815261391f6044826130ee565b51902090565b61392d6135f7565b505f525f80516020615bb783398151915260205260405f206003600182015491613958831515613560565b60405192613965846130b8565b81546001600160a01b031684526020840152600281015460408401520154606082015290565b7fc8fcad8db84d3cc18b4c41d551ea0ee66dd599cde068d998e57d5e09332c1320546001600160a01b031633036139be57565b60405162461bcd60e51b815260206004820152602260248201527f4c69624469616d6f6e643a204d75737420626520636f6e7472616374206f776e60448201526132b960f11b6064820152608490fd5b356001600160a01b03811681036101e95790565b813590815f525f805160206159d783398151915260205260405f2092815f525f80516020615a5783398151915260205260405f20938054613b025761342a94613afc937f2a9c96970c242b218486fb3338450a874ff7ccad1fcad3d89b2781f48ece88d06040613acf600395613a998a15156137c7565b848155602088019087613aab83613a0e565b910180546001600160a01b0319166001600160a01b03909216919091179055613a0e565b81518981526001600160a01b039091166020820152a201613af08154613778565b9055604081019061372c565b91613cd7565b60405162461bcd60e51b8152602060048201526024808201527f5065657220616c72656164792065786973747320696e20616e6f74686572206f604482015263333332b960e11b6064820152608490fd5b613b5b6135f7565b505f525f805160206159d783398151915260205260405f20805490613b81821515613786565b60405191613b8e836130b8565b82526001810154602083015260028101546040830152600301546001600160a01b0316606082015290565b8115613bc3570490565b634e487b7160e01b5f52601260045260245ffd5b613c07613bf25f80516020615c9783398151915254426136be565b5f80516020615b578339815191525490613bb9565b60010180600111611d385790565b5f5b8251811015613c6d57613c33613c2d82856134be565b516138f0565b825f525f80516020615b9783398151915260205260405f20905f5260205260ff60405f20541615613c6657600101613c17565b5050505f90565b505050600190565b15613c7c57565b60405162461bcd60e51b815260206004820152602160248201527f436170616369747920636f6d6d69746d656e7420646f65736e277420657869736044820152601d60fa1b6064820152608490fd5b6006821015611d8f5752565b5f8181525f805160206159d783398151915260209081526040808320805484525f80516020615a578339815191528352818420546001600160a01b031684525f80516020615c578339815191529092529091206002909101805492959490939092918315613fb75760030190613d4e8483546136b1565b7f60ac4d56f7e69877e4b95a6e91f4b3612278b580a93ea7637885a480e015031c5410613f66575f5b848110613d9d575050613d9993949550613d928382546136b1565b90556136b1565b9055565b613da8818684613704565b35908115613f2357815f525f80516020615bb7833981519152602052600160405f200154613ee057604051613ddc816130b8565b5f80825260208083018c81526040808501848152606086018581528886525f80516020615bb78339815191528552828620965187546001600160a01b0319166001600160a01b0391909116178755925160018701555160028601559051600394909401939093558b82525f80516020615bf7833981519152905220613e62908390614cfd565b15613e9b57887f47026182b34ce173abdac328faf5c45bef1648cf75d4b88723a745c9ee792c196020600194604051908152a201613d77565b60405162461bcd60e51b815260206004820152601d60248201527f496e76616c69642061646420746f20656e756d657261626c65207365740000006044820152606490fd5b60405162461bcd60e51b815260206004820152601b60248201527a436f6d7075746520756e697420616c72656164792065786973747360281b6044820152606490fd5b60405162461bcd60e51b815260206004820152601b60248201527a556e69742069642073686f756c64206265206e6f7420656d70747960281b6044820152606490fd5b60405162461bcd60e51b815260206004820152602360248201527f4578636565646564206d6178204355206e756d626572207065722050726f76696044820152623232b960e91b6064820152608490fd5b60405162461bcd60e51b815260206004820152601e60248201527f556e6974732073686f756c642062652067726561746572207468616e203000006044820152606490fd5b9260a094919796959260c0850198855260208501526040840152606083015260808201520152565b5f80516020615c178339815191529061403b613bd7565b6001810192838211611d38575f19820190828211611d3857835f5260205260405f2061406a6001820154613b53565b865f526012820160205283600160405f206140ae6140a661409460068801546003890154906136b1565b8561409e89614374565b97888a614451565b94868a614702565b60ff198154168155015586857f8e4b27eeb3194deef0b3140997e6b82f53eb7350daceb9355268009b92f70add60206040518a8152a36006811015611d8f578015908115614226575b5061421e57600b810194855460018101809111611d385786555f80516020615b17833981519152965f80516020615ad7833981519152549460018601809611611d3857614175614219965f80516020615ab78339815191529a50805f80516020615ad7833981519152555f80516020615a7783398151915254614d8c565b7fc68e8cb1dc96033edd3ea2af8f58e28c84f27bc0c225295e9b1c873226f775e66040601486016141a68482614fb1565b60168701855f5280602052825f20546141c460178a019182546136be565b9055855f526020525f8281205554928151908582526020820152a25f525f80516020615bb7833981519152602052600260405f200155600881015494600a600d83015492015490549160405196879687613ffc565b0390a1565b505050505050565b60049150145f6140f7565b80548210156134d2575f5260205f2001905f90565b906001820191815f528260205260405f20548015155f14614319575f198101818111611d385782545f19810191908211611d38578181036142ce575b505050805480156142ba575f19019061429b8282614231565b8154905f199060031b1b19169055555f526020525f6040812055600190565b634e487b7160e01b5f52603160045260245ffd5b6143046142de6142ee9386614231565b90549060031b1c92839286614231565b819391549060031b91821b915f19901b19161790565b90555f528360205260405f20555f8080614282565b505050505f90565b6040519060e082016001600160401b03811183821017610906576040525f60c0838281528260208201528260408201528260608201528260808201528260a08201520152565b516006811015611d8f5790565b9060405161438181613066565b614389614321565b815260c080602083019261439b614321565b8452600781966143b060ff8254168451613ccb565b600c8101546020845101526008810154604084510152600a810154606084510152600b810154608084510152600981015460a084510152015482825101526144026143fb8251614367565b8551613ccb565b60208151015160208551015260408151015160408551015260608151015160608551015260808151015160808551015260a08151015160a08551015251015191510152565b8115613bc3570690565b9192939060200192835151916006831015611d8f5760a085510151925f19870196808811611d385760068896015480155f1461449557505050505050505050600290565b116146f657600181148015906146ec575b6146e257506001955f198201918211611d38578111156146d7575b507f8984d2d0d7a9f2f70f22692c7c8344aa50cbed8c00a03c924457a31793ee8fdb54845192606084015192608085015160408601519560c087910151945f938688116146bb575b60400151614516916134fc565b94614537836116d5614528888d6136be565b614532838c6136b1565b6134fc565b80821061469e575b5050848710156145bf575b5050505050506040835101528151608081015190816145a0575b50506006831015611d8f575f9160c09160018503614589575b60a08251015251015290565b8360608351015261459b858351613ccb565b61457d565b60606145af91019182516136b1565b90525f6080835101525f80614564565b9092949850836145d292949650956136be565b600497909290838210614613575050505060018101809111614600576020845101525b5f808080808061454a565b601185634e487b7160e01b5f525260245ffd5b61462692614620916136b1565b926136be565b906146318183613bb9565b80600101918260011161468b57614649908394614447565b614664575b5050614659916136b1565b6020845101526145f5565b60020191508110614678576146595f61464e565b601186634e487b7160e01b5f525260245ffd5b601189634e487b7160e01b5f525260245ffd5b6146b39298916146ad916136be565b906136b1565b955f8061453f565b93506145169060406146cd888a6136be565b9591925050614509565b5f95509250846144c1565b9550505050505090565b50838711156144a6565b50505050505050600390565b9161470d8151614367565b92602082019361471d8551614367565b906006821015611d8f576006811015611d8f570361483f575b506147418151614367565b61474b8451614367565b906006821015611d8f576006811015611d8f5703614818575b60c08091516020810151945194602086015180910361480d575b5060408101516040860151809103614802575b50606081015160608601518091036147f7575b50608081015160808601518091036147ec575b5060a081015160a08601518091036147e1575b5001519201518092036147db575050565b60070155565b60098501555f6147ca565b600b8501555f6147b7565b600a8501555f6147a4565b60088501555f614791565b600c8501555f61477e565b6148228351614367565b6006811015611d8f57825460ff191660ff91909116178255614764565b614854825160806060820151910151906136b1565b9061485f8551614367565b6006811015611d8f576004036148f557906148ef917f1ec6d9e2b340c6cc9d5b6690a2d2a1558f252aa30668b45dbdb83bb7728984f260208088510151604051908152a26148c95f80516020615b17833981519152915f80516020615ad7833981519152546136be565b9050805f80516020615ad7833981519152555f80516020615a7783398151915254614d8c565b5f614736565b506149008451614367565b6006811015611d8f5715614915575b506148ef565b61493f906148c95f80516020615b17833981519152915f80516020615ad7833981519152546136be565b5f61490f565b92939190915f80516020615c17833981519152835f5260205260405f20945f198301928311611d38578260ff865416614cc3575f198201918211611d38578110614cf5575b5080151580614cec575b614ce4575b5060018301928354938415614ccc575b8483111561421e57829055815f525f80516020615b7783398151915260205260018401809411611d385760030193835f528460205260405f2054845f525f80516020615b7783398151915260205260405f2080548210614cc357600201548015614cc357614a1d614a229261453288615093565b613bb9565b9283614a3a575b505050505f526020525f6040812055565b7f8984d2d0d7a9f2f70f22692c7c8344aa50cbed8c00a03c924457a31793ee8fe454917f8984d2d0d7a9f2f70f22692c7c8344aa50cbed8c00a03c924457a31793ee8fe554936010614ab66011840193614aad614a998987549b613bb9565b946146ad614aa78a83614447565b8a6136be565b92839101615332565b945f19861480614cba575b614c5b575f925f87121580614c47575b614c26575b5f965b888810614aeb57505050505050614a29565b60018801808911611d3857614b0090836134fc565b945f82121580614c1d575b15614b775750614b6e8180897f86c93961d1a070b7b56fd1214cf06ccc18a89a3869681be8b74533f85ddc82606020614b628b6001614b4c8f9a829b614d4a565b5001614b5a81549e8f6136b1565b90558c6136b1565b604051908152a3615147565b975b0196614ad9565b949097614b8d614b8782866134fc565b866136b1565b614b9783886136b1565b60405190614ba482613066565b8282526020820152885490600160401b82101561090657614bce826001614bd494018c558b614d4a565b90614d63565b87545f198101908111611d3857897fd2337a844680345b0a7ba3392e6ddbbf8ff6e72cc99a633764c322c920576b7a6020614c116001978c6136b1565b604051908152a4614b70565b508a8212614b0b565b959250614c416001614c388587614d4a565b50015493615147565b95614ad6565b5082614c538887614d4a565b505410614ad1565b60405162461bcd60e51b815260206004820152603160248201527f56657374696e673a20737461727445706f63682069732062656c6f77207468616044820152706e20616c6c207365656e2065706f63687360781b6064820152608490fd5b50871515614ac1565b50505050505050565b935060068501545f198101908111611d3857936149a9565b90505f614999565b50808211614994565b91505f61498a565b6001810190825f528160205260405f2054155f14613c66578054600160401b81101561090657614d376142ee826001879401855584614231565b905554915f5260205260405f2055600190565b80548210156134d2575f5260205f209060011b01905f90565b9190614d79576020816001925184550151910155565b634e487b7160e01b5f525f60045260245ffd5b90614d95613bd7565b5f805160206159f783398151915254908215614f74575f19820192828411611d3857614dce845f805160206159f7833981519152614d4a565b508054831491908215614f6257506002841061421e57600119840190848211611d3857614a1d6001614e10614e1b945f805160206159f7833981519152614d4a565b500154975b886134fc565b7f8984d2d0d7a9f2f70f22692c7c8344aa50cbed8c00a03c924457a31793ee8fe1541015614f0b577f8984d2d0d7a9f2f70f22692c7c8344aa50cbed8c00a03c924457a31793ee8fe2549462895440810290808204628954401490151715611d385762989680900494808610614f03575b505b15614eb3575050614eae6001915f805160206159f7833981519152614d4a565b500155565b91509160405191614ec383613066565b82526020820152600160401b82101561090657614bce82600161342a94015f805160206159f7833981519152555f805160206159f7833981519152614d4a565b94505f614e8c565b7f8984d2d0d7a9f2f70f22692c7c8344aa50cbed8c00a03c924457a31793ee8fe3549462a7d8c081029080820462a7d8c01490151715611d385762989680900494808611614f5a575b50614e8e565b94505f614f54565b90614a1d6001614e1b93015497614e15565b50505050565b90602082549182815201915f5260205f20905f5b818110614f9b5750505090565b8254845260209093019260019283019201614f8e565b614fbb828261515b565b80518051600684019392916001600160401b03821161090657600160401b8211610906576020908554838755808410615078575b5001845f5260205f205f5b8381106150645750505050916150599160207f8b5d520ecd83f8a909da38eaeb49b5c1fb3d8d69e22e2b36ec0f5814b5c4aa43940151948560078301556008820155549360405192839260208452604060208501526060840190614f7a565b9060408301520390a2565b600190602084519401938184015501614ffa565b61508d90875f5284845f2091820191016134e6565b5f614fef565b5f805160206159f7833981519152545f91905f198101908111611d38575f925b818111156150c15750505090565b6150cb82826136b1565b60011c936150e6855f805160206159f7833981519152614d4a565b509182548086115f1461511b57505050600101549260018101809111156150b357634e487b7160e01b5f52601160045260245ffd5b9195909350919084101561513b57505f198101908111611d3857906150b3565b60010154949350505050565b6001600160ff1b038114611d385760010190565b9060405161516881613066565b606081525f6020820152506040519161518083613066565b60405161519b816151948160068601614f7a565b03826130ee565b83526007810154916020840192835260088201549081811461532b576151c182826136be565b91815f19810111611d38576151f96151f36151de61520e936154e6565b5f80516020615a9783398151915254906136b1565b926154e6565b5f80516020615a9783398151915254906136be565b5f19810191908211611d3857615231916152279161551f565b60038401546134fc565b91670de0b6b3a7640000830292808404670de0b6b3a76400001490151715611d385761526f6005655af3107a4000615278950492015480928461540b565b939085516136b1565b84525f5b81811061528b57505050505090565b80836001921061530e575b826152a185836136b1565b10156152fc576152bc87516152b686846136b1565b906134be565b516152c88289516134be565b525b6152d481866134be565b516152f5826152ef8a51936152e983866134be565b516136b1565b926134be565b520161527c565b5f6153088289516134be565b526152ca565b61532461531c8289516134be565b5187516136b1565b8652615296565b5050505090565b60010180545f1993929080156153d4575f905f198101908111611d3857929190925b808411156153625750505050565b9091929461537082876136b1565b60011c9561537e8786614d4a565b5054808511156153a0575050508460018101809111611d38575b929190615354565b9196909250908310156153cd57806153bc57505f199450505050565b5f198101908111611d385790615398565b9450505050565b505050565b906153e382613111565b6153f060405191826130ee565b8281528092615401601f1991613111565b0190602036910137565b92919080156154d6578161541e91613bb9565b905f61542a8583615829565b85818097116154c5575b5060010190818611611d385761453284916146ad8561545661545f968b6134fc565b60011c926134fc565b91615469826153d9565b945f5b83811061547b57505050509190565b8361548682846136b1565b10156154ab575b60019061549a84846134fc565b6154a4828a6134be565b520161546c565b811561548d57906154bd6001916135eb565b91905061548d565b6154cf92506136be565b845f615434565b506154e29192506153d9565b5f91565b5f80516020615c97833981519152545f80516020615b57833981519152545f198301928311611d385761551c926146ad916134fc565b90565b905f80516020615b3783398151915261554a5f80516020615a97833981519152546145328142613bb9565b8210156157f2575490828211615779578083116157115761556b82846136be565b906155855f80516020615a97833981519152548093613bb9565b5f80516020615c378339815191525490928184101561569b576155b5845f80516020615c37833981519152614231565b90549060031b1c925b6155cc82614a1d88846136be565b958387101561562557505050506155f0835f80516020615c37833981519152614231565b90549060031b1c5b82840361560c575050505061551c9061583b565b61551c945061561f9291614620916136be565b90613bb9565b61563792614a1d6116d59286946136be565b9060018201809211611d38575f198101908111611d3857615665905f80516020615c37833981519152614231565b90549060031b1c5f80516020615a77833981519152548015613bc357615696926146ad91655af3107a4000046134fc565b6155f8565b6156ad826116d583614a1d898b6136be565b60018101809111611d38575f198301838111611d38576156da905f80516020615c37833981519152614231565b90549060031b1c5f80516020615a77833981519152548015613bc35761570b926146ad91655af3107a4000046134fc565b926155be565b60405162461bcd60e51b815260206004820152605a60248201525f80516020615af783398151915260448201525f80516020615bd78339815191526064820152790732067726561746572207468616e20746f54696d657374616d760341b608482015260a490fd5b60405162461bcd60e51b815260206004820152606560248201525f80516020615af783398151915260448201525f80516020615bd783398151915260648201527f73206c6f776572207468616e206669727374207265636f726465642074696d6560848201526407374616d760dc1b60a482015260c490fd5b60405162461bcd60e51b815260206004820152600f60248201526e6d65616e2063616e206368616e676560881b6044820152606490fd5b9080821015615836575090565b905090565b5f80516020615b37833981519152549080821161594b576158749161585f916136be565b5f80516020615a978339815191525490613bb9565b5f80516020615c378339815191525481101561592a5780156158e0576158a7815f80516020615c37833981519152614231565b90549060031b1c5f198201918211611d38576158d361551c925f80516020615c37833981519152614231565b90549060031b1c906136be565b505f80516020615c3783398151915254156134d2575f80516020615c378339815191525f527fd4d5257edb89e07e8d010c6ff96326eddf1fc220d3213e3ef3ddd6c1b3b706415490565b505f80516020615a77833981519152548015613bc357655af3107a40000490565b60405162461bcd60e51b815260206004820152605760248201527f4c69624f7261636c6550726963652e6765745265765072696365417454696d6560448201527f7374616d703a2074696d657374616d70206973206c6f776572207468616e2066606482015276069727374207265636f726465642074696d657374616d7604c1b608482015260a490fdfe88681cafafd55573d275926fd208ef2ba36c6dd5169e88841d4bc9bcd22530218984d2d0d7a9f2f70f22692c7c8344aa50cbed8c00a03c924457a31793ee8fe613f5ac65dc9f5b2765e76eb17d53fe3e7065903823eb36bdd7841fa3f8dacbbf88681cafafd55573d275926fd208ef2ba36c6dd5169e88841d4bc9bcd225302588681cafafd55573d275926fd208ef2ba36c6dd5169e88841d4bc9bcd225302062e26dda6281f8a7bde8d0de6ef3dc4300cca63258b4641529b5bae7dc08902a62e26dda6281f8a7bde8d0de6ef3dc4300cca63258b4641529b5bae7dc089027bd5605b4405616555ea2583cbd913ecf346c52c37520187117aadcea54e7d1498984d2d0d7a9f2f70f22692c7c8344aa50cbed8c00a03c924457a31793ee8fd24c69624f7261636c6550726963652e6765744d65616e526576507269636542658984d2d0d7a9f2f70f22692c7c8344aa50cbed8c00a03c924457a31793ee8fd162e26dda6281f8a7bde8d0de6ef3dc4300cca63258b4641529b5bae7dc0890267d4f8ec43464738265ced6b7ed5f90007e9b7c34318bdd82d9249328b50bd358a8de0abb18de6e730ac24d7fe02c877d293683811fc3ac5d8e62e2a52c0d20d888681cafafd55573d275926fd208ef2ba36c6dd5169e88841d4bc9bcd225302388681cafafd55573d275926fd208ef2ba36c6dd5169e88841d4bc9bcd2253022747765656e54696d657374616d70733a2066726f6d54696d657374616d70206988681cafafd55573d275926fd208ef2ba36c6dd5169e88841d4bc9bcd2253024a8de0abb18de6e730ac24d7fe02c877d293683811fc3ac5d8e62e2a52c0d20d762e26dda6281f8a7bde8d0de6ef3dc4300cca63258b4641529b5bae7dc08902988681cafafd55573d275926fd208ef2ba36c6dd5169e88841d4bc9bcd225301f60ac4d56f7e69877e4b95a6e91f4b3612278b580a93ea7637885a480e015031d7d4f8ec43464738265ced6b7ed5f90007e9b7c34318bdd82d9249328b50bd357a2646970667358221220d812a00433b53bd7992b1aa62da5f21c0ed57cab69bc447ef01bfe6ed607390464736f6c634300081a0033","linkReferences":{}},"methodIdentifiers":{"addComputePeers(bytes32,(bytes32,address,bytes32[])[])":"74920a9d","addComputeUnits(bytes32,bytes32[])":"b6b9084e","addEffector(bytes32,(bytes4,bytes32)[])":"b017191a","changeMinPricePerCuPerEpoch(bytes32,uint256)":"f46bcb1d","changePaymentToken(bytes32,address)":"087b97ba","getComputePeer(bytes32)":"86e68254","getComputeUnit(bytes32)":"745e920b","getComputeUnitIds(bytes32)":"62ac63fa","getComputeUnits(bytes32)":"b6015c6e","getEffectorInfo((bytes4,bytes32))":"0bcee1a2","getOffer(bytes32)":"d597b8c8","getProviderInfo(address)":"7583902f","matchDeal(address,bytes32[],bytes32[][][])":"8e4643cb","moveResourcesFromDeal(bytes32[],bytes32)":"12a4ebb0","registerMarketOffer(uint256,address,(bytes4,bytes32)[],(bytes32,address,bytes32[])[],uint256,uint256)":"edd9db67","removeComputePeer(bytes32)":"9faf0d20","removeComputeUnit(bytes32)":"3591187c","removeEffector(bytes32,(bytes4,bytes32)[])":"34205efd","removeEffectorInfo((bytes4,bytes32))":"19c671ca","removeOffer(bytes32)":"91d27f71","setEffectorInfo((bytes4,bytes32),string,(bytes4,bytes32))":"da74336a","setProviderInfo(string,(bytes4,bytes32))":"c685738e"},"storageLayout":{"storage":[],"types":{}},"devdoc":{"version":1,"kind":"dev","methods":{"addComputePeers(bytes32,(bytes32,address,bytes32[])[])":{"details":"Add compute peers to an offer"},"addComputeUnits(bytes32,bytes32[])":{"details":"Add compute units to a peer"},"addEffector(bytes32,(bytes4,bytes32)[])":{"details":"Add effectors to an offer"},"changeMinPricePerCuPerEpoch(bytes32,uint256)":{"details":"Change the min price per CU per epoch of an offer"},"changePaymentToken(bytes32,address)":{"details":"Change the payment token of an offer"},"getComputePeer(bytes32)":{"details":"Returns the compute peer info"},"getComputeUnit(bytes32)":{"details":"Returns the compute unit info"},"getComputeUnitIds(bytes32)":{"details":"Returns the compute unit ids of a peer"},"getComputeUnits(bytes32)":{"details":"Returns the compute units info of a peer"},"getEffectorInfo((bytes4,bytes32))":{"details":"Returns the effector info","params":{"id":"The effector cid"}},"getOffer(bytes32)":{"details":"Returns the offer info","params":{"offerId":"The offer id"},"returns":{"_0":"offer The offer info"}},"getProviderInfo(address)":{"details":"Returns the provider info","params":{"provider":"The provider address"},"returns":{"_0":"providerInfo The provider info"}},"matchDeal(address,bytes32[],bytes32[][][])":{"details":"Match Deal with Compute Units provided.There should be `bytes32[][] calldata peers` as well, but it is not supported by subgraph codegen.Ref to https://github.com/graphprotocol/graph-tooling/issues/342.","params":{"computeUnits":": Compute Units per offer id (3D array: provider -> peer -> CU) to match with.","deal":": Deal to match.","offers":": Offers array that represents offers in computeUnits 3D array."}},"moveResourcesFromDeal(bytes32[],bytes32)":{"details":"Return resources from deal"},"registerMarketOffer(uint256,address,(bytes4,bytes32)[],(bytes32,address,bytes32[])[],uint256,uint256)":{"details":"Register a new offer","params":{"effectors":"The effectors of the offer","minPricePerCuPerEpoch":"The min price per CU per epoch which the provider specify for the matching with the deal","paymentToken":"The payment token of the offer","peers":"The compute peers of the offer"}},"removeComputePeer(bytes32)":{"details":"Remove compute peers from an offer after all CUs removed.Only owner can remove Peer."},"removeComputeUnit(bytes32)":{"details":"Remove compute units from a peer.Only owner can remove Compute Unit that not in Deal and in CC."},"removeEffector(bytes32,(bytes4,bytes32)[])":{"details":"Remove effectors from an offer"},"removeEffectorInfo((bytes4,bytes32))":{"details":"Remove the effector info. Effector info can be removed by the contract owner"},"removeOffer(bytes32)":{"details":"Remove an offer.Only owner can change offer after all Peers removed (and CUs before)."},"setEffectorInfo((bytes4,bytes32),string,(bytes4,bytes32))":{"details":"Set the effector info. Effector info can be added by the contract owner"},"setProviderInfo(string,(bytes4,bytes32))":{"details":"Set the provider info","params":{"metadata":"The metadata of the provider","name":"The name of the provider"}}},"events":{"ComputeUnitCreated(bytes32,bytes32)":{"details":"Emitted when a compute unit created for a peer","params":{"peerId":"The peer id","unitId":"The compute unit id"}},"ComputeUnitRemoved(bytes32,bytes32)":{"details":"Emitted when a compute unit removed from a peer","params":{"peerId":"The peer id","unitId":"The compute unit id"}},"ComputeUnitsMatched(bytes32,address,bytes32,bytes32[],(bytes4,bytes32))":{"details":"Emitted when a deal is matched with a compute unit","params":{"appCID":"The app cid of the deal","cuIds":"ids of compute units matched","deal":"The deal address","onchainWorkerId":"onchain worker id, for use in tools that interact with chain","peerId":"The peer id of the deal"}},"ComputeUnitsRemovedFromDeal(bytes32[],address,bytes32,bytes32)":{"details":"Emitted when a compute unit removed from a peer","params":{"cuIds":"The list of compute unit ids","deal":"The deal address","peerId":"The peer id"}},"EffectorAdded(bytes32,(bytes4,bytes32))":{"details":"Emitted when an effector added to an offer","params":{"effector":"The effector cid","offerId":"The offer id"}},"EffectorInfoRemoved((bytes4,bytes32))":{"details":"Emitted when the effector info is removed","params":{"id":"The effector cid"}},"EffectorInfoSet((bytes4,bytes32),string,(bytes4,bytes32))":{"details":"Emitted when the effector info is set. Effector info can be added by the contract owner","params":{"description":"The description of the effector","id":"The effector cid","metadata":"The metadata of the effector"}},"EffectorRemoved(bytes32,(bytes4,bytes32))":{"details":"Emitted when an effector removed from an offer","params":{"effector":"The effector cid","offerId":"The offer id"}},"MarketOfferRegistered(address,bytes32,uint256,address,(bytes4,bytes32)[],uint256,uint256)":{"details":"Emitted when a new offer is registered","params":{"effectors":"The effectors of the offer","minPricePerCuPerEpoch":"The min price per cu per epoch which the provider specify for the matching with the deal","offerId":"The offer id","paymentToken":"The payment token of the offer","provider":"The provider address"}},"MarketOfferRemoved(bytes32)":{"details":"Emitted when an offer removed","params":{"offerId":"The offer id"}},"MinPricePerCuPerEpochUpdated(bytes32,uint256)":{"details":"Emitted when the min price per worker per epoch of an offer is updated","params":{"minPricePerCuPerEpoch":"The new min price per worker per epoch","offerId":"The offer id"}},"PaymentTokenUpdated(bytes32,address)":{"details":"Emitted when the payment token of an offer is updated","params":{"offerId":"The offer id","paymentToken":"The new payment token"}},"PeerCreated(bytes32,bytes32,address)":{"details":"Emitted when a peer created for an offer"},"PeerRemoved(bytes32,bytes32)":{"details":"Emitted when a peer removed from an offer","params":{"offerId":"The offer id","peerId":"The peer id"}},"ProviderInfoUpdated(address,string,(bytes4,bytes32))":{"details":"Emitted when a provider info is updated","params":{"metadata":"The new metadata of the provider","name":"The new name of the provider","provider":"The provider address"}},"UnitActivated(bytes32,bytes32,uint256)":{"details":"Emitted when a unit activated. Unit is activated when it returned from deal","params":{"commitmentId":"Commitment id","unitId":"Compute unit id which activated"}},"UnitDeactivated(bytes32,bytes32)":{"details":"Emitted when a unit deactivated. Unit is deactivated when it moved to deal","params":{"commitmentId":"Commitment id","unitId":"Compute unit id which deactivated"}}},"errors":{"CapacityCommitmentIsNotActive(uint8)":[{"details":"Capacity commitment is not active"}],"MinWorkersNotMatched(uint256)":[{"details":"Throws if the min workers of the deal is not matched","params":{"_minWorkers":"The min workers of the deal"}}]}},"id":97}