{"abi":[{"type":"function","name":"matchDeal","inputs":[{"name":"deal","type":"address","internalType":"contract IDeal"},{"name":"offers","type":"bytes32[]","internalType":"bytes32[]"},{"name":"computeUnits","type":"bytes32[][][]","internalType":"bytes32[][][]"}],"outputs":[],"stateMutability":"nonpayable"},{"type":"function","name":"moveResourcesFromDeal","inputs":[{"name":"unitIds","type":"bytes32[]","internalType":"bytes32[]"},{"name":"onchainWorkerId","type":"bytes32","internalType":"bytes32"}],"outputs":[],"stateMutability":"nonpayable"},{"type":"function","name":"reportWorkerActivated","inputs":[{"name":"peerId","type":"bytes32","internalType":"bytes32"},{"name":"onchainWorkerId","type":"bytes32","internalType":"bytes32"},{"name":"offchainWorkerId","type":"bytes32","internalType":"bytes32"}],"outputs":[],"stateMutability":"nonpayable"},{"type":"event","name":"CommitmentFailed","inputs":[{"name":"commitmentId","type":"bytes32","indexed":true,"internalType":"bytes32"},{"name":"failedEpoch","type":"uint256","indexed":false,"internalType":"uint256"}],"anonymous":false},{"type":"event","name":"CommitmentStatsUpdated","inputs":[{"name":"commitmentId","type":"bytes32","indexed":false,"internalType":"bytes32"},{"name":"totalFailCount","type":"uint256","indexed":false,"internalType":"uint256"},{"name":"exitedUnitCount","type":"uint256","indexed":false,"internalType":"uint256"},{"name":"activeUnitCount","type":"uint256","indexed":false,"internalType":"uint256"},{"name":"nextAdditionalActiveUnitCount","type":"uint256","indexed":false,"internalType":"uint256"},{"name":"changedEpoch","type":"uint256","indexed":false,"internalType":"uint256"}],"anonymous":false},{"type":"event","name":"ComputeUnitsMatched","inputs":[{"name":"peerId","type":"bytes32","indexed":true,"internalType":"bytes32"},{"name":"deal","type":"address","indexed":false,"internalType":"contract IDeal"},{"name":"onchainWorkerId","type":"bytes32","indexed":false,"internalType":"bytes32"},{"name":"cuIds","type":"bytes32[]","indexed":false,"internalType":"bytes32[]"},{"name":"appCID","type":"tuple","indexed":false,"internalType":"struct CIDV1","components":[{"name":"prefixes","type":"bytes4","internalType":"bytes4"},{"name":"hash","type":"bytes32","internalType":"bytes32"}]}],"anonymous":false},{"type":"event","name":"ComputeUnitsRemovedFromDeal","inputs":[{"name":"peerId","type":"bytes32","indexed":true,"internalType":"bytes32"},{"name":"deal","type":"address","indexed":true,"internalType":"contract IDeal"},{"name":"cuIds","type":"bytes32[]","indexed":false,"internalType":"bytes32[]"},{"name":"onchainWorkerId","type":"bytes32","indexed":false,"internalType":"bytes32"}],"anonymous":false},{"type":"event","name":"EntityAdded","inputs":[{"name":"commitmentId","type":"bytes32","indexed":true,"internalType":"bytes32"},{"name":"entityId","type":"bytes32","indexed":false,"internalType":"bytes32"},{"name":"rewardPerEpoch","type":"uint256","indexed":false,"internalType":"uint256"},{"name":"currentEpoch","type":"uint256","indexed":false,"internalType":"uint256"}],"anonymous":false},{"type":"event","name":"EntityRemoved","inputs":[{"name":"commitmentId","type":"bytes32","indexed":true,"internalType":"bytes32"},{"name":"entityId","type":"bytes32","indexed":false,"internalType":"bytes32"},{"name":"currentEpoch","type":"uint256","indexed":false,"internalType":"uint256"}],"anonymous":false},{"type":"event","name":"StateUpdated","inputs":[{"name":"commitmentId","type":"bytes32","indexed":true,"internalType":"bytes32"},{"name":"state","type":"tuple","indexed":false,"internalType":"struct DealStakerRewards.VestingState","components":[{"name":"items","type":"uint256[]","internalType":"uint256[]"},{"name":"accumulatedUnlockedFlt","type":"uint256","internalType":"uint256"}]}],"anonymous":false},{"type":"event","name":"UnitActivated","inputs":[{"name":"commitmentId","type":"bytes32","indexed":true,"internalType":"bytes32"},{"name":"unitId","type":"bytes32","indexed":true,"internalType":"bytes32"},{"name":"startEpoch","type":"uint256","indexed":false,"internalType":"uint256"}],"anonymous":false},{"type":"event","name":"UnitDeactivated","inputs":[{"name":"commitmentId","type":"bytes32","indexed":true,"internalType":"bytes32"},{"name":"unitId","type":"bytes32","indexed":true,"internalType":"bytes32"}],"anonymous":false},{"type":"event","name":"VestingScheduleItem","inputs":[{"name":"commitmentId","type":"bytes32","indexed":true,"internalType":"bytes32"},{"name":"id","type":"uint256","indexed":true,"internalType":"uint256"},{"name":"epoch","type":"uint256","indexed":true,"internalType":"uint256"},{"name":"cumulativeAmount","type":"uint256","indexed":false,"internalType":"uint256"}],"anonymous":false},{"type":"event","name":"VestingUpdateItem","inputs":[{"name":"commitmentId","type":"bytes32","indexed":true,"internalType":"bytes32"},{"name":"id","type":"uint256","indexed":true,"internalType":"uint256"},{"name":"cumulativeAmount","type":"uint256","indexed":false,"internalType":"uint256"}],"anonymous":false},{"type":"event","name":"WorkerActivated","inputs":[{"name":"peer_id","type":"bytes32","indexed":true,"internalType":"bytes32"},{"name":"deal","type":"address","indexed":true,"internalType":"contract IDeal"},{"name":"onchain_worker_id","type":"bytes32","indexed":false,"internalType":"bytes32"},{"name":"offchain_worker_id","type":"bytes32","indexed":false,"internalType":"bytes32"}],"anonymous":false},{"type":"error","name":"CapacityCommitmentIsNotActive","inputs":[{"name":"status","type":"uint8","internalType":"enum ICapacity.CCStatus"}]},{"type":"error","name":"MinWorkersNotMatched","inputs":[{"name":"_minWorkers","type":"uint256","internalType":"uint256"}]}],"bytecode":{"object":"0x608080604052346015576138e2908161001a8239f35b5f80fdfe6104806040526004361015610012575f80fd5b5f3560e01c806312a4ebb01461163f5780638e4643cb146100b35763bf0d37071461003b575f80fd5b346100af5760603660031901126100af57335f9081525f8051602061372d83398151915260205260409020546100739060ff166119b2565b6040516024358152604435602082015233907f5e6ccfe7e8dfa0d98def7301d2e492ecf44a59c709b85dd83617e3d937fef891604060043592a3005b5f80fd5b346100af5760603660031901126100af576004356104608190526001600160a01b03811690036100af576024356001600160401b0381116100af576100fc90369060040161195a565b610420526101a0526044356001600160401b0381116100af5761012390369060040161195a565b6103a0526102e0527f13f5ac65dc9f5b2765e76eb17d53fe3e7065903823eb36bdd7841fa3f8dacbbe61044052610460516001600160a01b03165f9081525f8051602061372d833981519152602052604090205460ff16156115fa57604051638da5cb5b60e01b815261046051602090829060049082906001600160a01b03165afa908115610563575f916115b8575b506001600160a01b031633148015611585575b1561152b576040516302734eab60e51b815261046051602090829060049082906001600160a01b03165afa908115610563575f916114f0575b506005811015610c9f57600181149081156114e5575b50156114a257610460516001600160a01b03165f908152610440516020526040902054610240611e45565b811591821561146c575b505015611427576040516370220a9b60e01b815261046051602090829060049082906001600160a01b03165afa8015610563575f6101c0526113f3575b50604051633013ce2960e01b815261046051602090829060049082906001600160a01b03165afa8015610563575f610160526113af575b50604051634d7599f160e01b815261046051602090829060049082906001600160a01b03165afa8015610563575f6104005261137b575b50604051632943dcab60e01b815261046051602090829060049082906001600160a01b03165afa8015610563575f90611347575b61033891506104005190611a2f565b6103e081905261032052604051638a0c725b60e01b815261046051602090829060049082906001600160a01b03165afa8015610563575f6102c052611313575b50604051630ad0798d60e11b815261046051602090829060049082906001600160a01b03165afa8015610563575f610240526112df575b506040516319e749ff60e11b815261046051602090829060049082906001600160a01b03165afa908115610563575f916112ad575b50604051637e0f2f1560e11b8152610460515f90829060049082906001600160a01b03165afa8015610563575f6101e0526111f8575b50604051631378cd0d60e31b815260408160048160018060a01b0361046051165afa8015610563575f610340526111bd575b50604051630d4773ff60e41b815261046051602090829060049082906001600160a01b03165afa8015610563575f6102a052611180575b505f905f610380525b61042051610380511061056e5750604051632db3119360e01b815261046051602090829060049082906001600160a01b03165afa908115610563575f91610531575b506104eb6103e0516104e66103205161040051611a22565b611a2f565b811161051f57506104f857005b610500611e45565b610460516001600160a01b03165f908152610440516020526040902055005b631275878760e21b5f5260045260245ffd5b90506020813d60201161055b575b8161054c60209383611920565b810103126100af5751826104ce565b3d915061053f565b6040513d5f823e3d90fd5b61058261038051610420516101a051611a75565b35610300525f60a0604051610596816118bb565b8281528260208201528260408201528260608201528260808201520152610300515f527f88681cafafd55573d275926fd208ef2ba36c6dd5169e88841d4bc9bcd225302060205260405f206103c05260018060a01b036103c0515416801561113e576040516103605261060b610360516118bb565b610360515260016103c05101546020610360510190815260018060a01b0360026103c0510154166040610360510190815260036103c0510154606061036051015260046103c0510154806080610360510152600160056103c0510154918260a0610360510152149081611133575b50156110d1576103605151604051631f4570d760e11b81526001600160a01b03918216600482015261046051909160209183916024918391165afa908115610563575f916110b3575b50159182156110a5575b508115611089575b508015611072575b8015611062575b8015611052575b61104d57610360515160405163016712bf60e61b81526001600160a01b03918216600482015261046051909160209183916024918391165afa908115610563575f9161101c575b50610260525f61028052905b610751610380516103a0516102e051611a9d565b9050610280511015611016576102c051610260511080159061100b575b610ff957610793610789610380516103a0516102e051611a9d565b6102805191611a9d565b90506102405111610ff3575f610180526107c26107b261024051611943565b6040516102205261022051611920565b610240516102205152601f196107da61024051611943565b013660206102205101375f805b6107fe610789610380516103a0516102e051611a9d565b9050821015610feb5761082882610822610789610380516103a0516102e051611a9d565b90611a75565b3561083281611b1f565b610200819052602001516101405261018051610fd45761014051610180525b61085d61014051611f20565b61030051815103610fc95761020051516001600160a01b0316610fc95760036102a0511015610c9f5760016102a05114159081610ef3575b50610ebb576040516305e8c93760e51b815261014051600482015261046051602090829060249082906001600160a01b03165afa908115610563575f91610ec5575b50610ebb57906108f4916108ee826102205161198a565b52611ae1565b9061024051821461090a576001905b01906107e7565b5050506109245f8051602061368d83398151915254611ae1565b61012052610120515f8051602061368d833981519152556040516101005261094e610100516118ea565b610120516101005152610220516020610100510152610140515f525f8051602061364d83398151915260205260405f2060e05260405160c0526370220a9b60e01b60c05152602060c051600460c05160018060a01b0361046051165afa60a05260a05115610563575f60805260a051610e83575b5f5b6102205151811015610d04576109dd816102205161198a565b515f8181525f8051602061380d8339815191526020526040902080549192916001600160a01b0316610cb3576104605181546001600160a01b0319166001600160a01b03919091161781556101205160039091015560e051600101549182610a4b575b5060019150016109c4565b5f8051602061384d83398151915292610a62611e45565b93815f5260205260405f20610a7a6001820154611f20565b835f526012820160205260405f2090610a9c6006840154600385015490611a22565b90610ab38289610aab87612031565b938488612121565b610abe8286886123d2565b6006811015610c9f5760018103610c8e575091610ae96001926020808b960151015190858885612974565b805460ff191682178155015403610c2857600b8101610b088154611aef565b90555b62989680610b3b5f805160206136ad83398151915254600484015490608051811090608051180260805118612104565b047fecc2a9581aa0ec66253fe6dd29ab490ad7a55cde02026a17baa162151745bb55606060148401610b6d8982612888565b865f52601685016020528360405f205560178501610b8c858254611a22565b90555492604051908782526020820152886040820152a26008810154600d82015490600b600a840154930154925f198801978811610c14576001975f8051602061370d83398151915294610be7926040519586958987611bf2565b0390a17fbd9cde1bbc961036d34368ae328c38917036a98eacfb025a1ff6d2c6235d0a145f80a383610a40565b634e487b7160e01b5f52601160045260245ffd5b600a8101610c368154611aef565b90555f8051602061378d8339815191525f8051602061374d833981519152545f198101908111610c1457610c899150805f8051602061374d833981519152555f805160206136cd83398151915254612657565b610b0b565b6242963960e51b5f5260045260245ffd5b634e487b7160e01b5f52602160045260245ffd5b60405162461bcd60e51b815260206004820152602360248201527f436f6d7075746520756e6974206d617463686564206d756c7469706c652074696044820152626d657360e81b6064820152608490fd5b506103605151610460516001600160a01b0391821691163b156100af576040519063d76e480560e01b82526004820152606060248201528060a4810161010051516064830152602061010051015190604060848401528151809152602060c484019201905f905b808210610e675750505090805f9261014051604483015203818360018060a01b0361046051165af1801561056357610e57575b5061010051517f6e5629a2cfaa82d1ea7ad51936794f666271fbd5068017020eaaafdbb017e615610df860206101005101516040519360018060a01b0361046051168552602085015260a0604085015260a08401906119ef565b6103408051516001600160e01b03191660608501525160200151608084015261014051929081900390a2600190610e3161026051611ae1565b61026052610e416103e051611aef565b6103e0525b60016102805101610280529061073d565b5f610e6191611920565b81610d9e565b9193509160208060019286518152019401920184939291610d6b565b60203d8111610eb4575b80610e9c60209260c051611920565b60c05190810103126100af5760c051516080526109c2565b503d610e8d565b5090600190610903565b610ee6915060203d8111610eec575b610ede8183611920565b810190611a85565b866108d7565b503d610ed4565b60200151801591508115610f09575b5086610895565b90505f8051602061384d833981519152905f5260205260405f206001810154908115610f7a57610f3b610f6792611f20565b610f4482612031565b90610f4d611e45565b91610f616006850154600386015490611a22565b93612121565b6006811015610c9f576001141586610f02565b60405162461bcd60e51b815260206004820152602160248201527f436170616369747920636f6d6d69746d656e7420646f65736e277420657869736044820152601d60fa1b6064820152608490fd5b505090600190610903565b610140516101805114610851575090600190610903565b505090610e46565b90610e46565b905b600161038051016103805261048c565b506103e0511561076e565b90610ffb565b90506020813d8211611045575b8161103660209383611920565b810103126100af575183610731565b3d9150611029565b610ffb565b508060a0610360510151106106ea565b50806080610360510151116106e3565b506110836101e05161030051611e83565b156106dc565b51610160516001600160a01b03908116911614159050836106d4565b516101c051109150846106cc565b6110cb915060203d8111610eec57610ede8183611920565b856106c2565b60405162461bcd60e51b815260206004820152603460248201527f4d6174636865723a206f6e6c79206f66666572732056312063616e206265206d6044820152736174636865642077697468205631206465616c7360601b6064820152608490fd5b600191501485610679565b60405162461bcd60e51b815260206004820152601a60248201527913d999995c8e881bd999995c88191bd95cdb89dd08195e1a5cdd60321b6044820152606490fd5b6020813d6020116111b5575b8161119960209383611920565b810103126100af575160038110156100af576102a05281610483565b3d915061118c565b60403d6040116111f1575b6111d28183611920565b81016040828203126100af576111e791611a3c565b610340528161044c565b503d6111c8565b3d805f833e6112078183611920565b81016020828203126100af578151916001600160401b0383116100af5781601f8483010112156100af57828101519161123f83611943565b9361124d6040519586611920565b83855260208501928260208660061b8484010101116100af5780820160200193915b60208660061b82840101018510611290575050505050506101e0528161041a565b6040602080946112a08789611a3c565b815201950194925061126f565b90506020813d6020116112d7575b816112c860209383611920565b810103126100af5751816103e4565b3d91506112bb565b6020813d60201161130b575b816112f860209383611920565b810103126100af575161024052806103af565b3d91506112eb565b6020813d60201161133f575b8161132c60209383611920565b810103126100af57516102c05280610378565b3d915061131f565b506020813d602011611373575b8161136160209383611920565b810103126100af576103389051610329565b3d9150611354565b6020813d6020116113a7575b8161139460209383611920565b810103126100af575161040052806102f5565b3d9150611387565b6020813d6020116113eb575b816113c860209383611920565b810103126100af57516001600160a01b03811681036100af5761016052806102be565b3d91506113bb565b6020813d60201161141f575b8161140c60209383611920565b810103126100af57516101c05280610287565b3d91506113ff565b60405162461bcd60e51b815260206004820152601d60248201527f4d6174636865723a20746f6f206561726c7920746f2072656d617463680000006044820152606490fd5b61149a9192507f60ac4d56f7e69877e4b95a6e91f4b3612278b580a93ea7637885a480e01503195490611a22565b10818061024a565b60405162461bcd60e51b815260206004820152601b60248201527a4d6174636865723a206465616c206973206e6f742061637469766560281b6044820152606490fd5b600391501481610215565b90506020813d602011611523575b8161150b60209383611920565b810103126100af575160058110156100af57816101ff565b3d91506114fe565b60405162461bcd60e51b815260206004820152602c60248201527f4d6174636865723a2073656e646572206973206e6f74206465616c206f776e6560448201526b1c881bdc881d9bd91bdc185960a21b6064820152608490fd5b507f21811dc5bb11da2b2076245a2c14796806445512606a02297e6b92fb11728109546001600160a01b031633146101c6565b90506020813d6020116115f2575b816115d360209383611920565b810103126100af57516001600160a01b03811681036100af57816101b3565b3d91506115c6565b60405162461bcd60e51b815260206004820152601f60248201527f4d6174636865723a206465616c206973206e6f742072656769737465726564006044820152606490fd5b346100af5760403660031901126100af576004356001600160401b0381116100af57366023820112156100af5780600401359061167b82611943565b916116896040519384611920565b8083526024602084019160051b830101913683116100af57602401905b8282106118ab57835f5b81518110156116e9576001906116e3336001600160a01b036116db6116d5858861198a565b51611b1f565b5116146119b2565b016116b0565b505f90819081805b8251841015611859575050611706828261198a565b51805f525f8051602061380d83398151915260205260405f209260018401549182156117fa57829460018060a01b03815416938715611795575b5f9081525f8051602061364d8339815191526020526040812082546001600160a01b031916835560039092015560019081015490929181611785575b505001926116f1565b61178e91611c1a565b868061177c565b965091906040516370220a9b60e01b8152602081600481885afa908115610563575f916117c8575b509691929091611740565b90506020813d82116117f2575b816117e260209383611920565b810103126100af575160016117bd565b3d91506117d5565b60405162461bcd60e51b815260206004820152603160248201527f6d6f76655265736f757263657346726f6d4465616c3a20436f6d7075746520756044820152701b9a5d08191bd95cdb89dd08195e1a5cdd607a1b6064820152608490fd5b7f118eadf482fadba3bc45c0744984b47fd3dba6c9c6fd58baf6edf551dd25e1ac611892846040519182916040835260408301906119ef565b60243560208301526001600160a01b03909516940390a3005b81358152602091820191016116a6565b60c081019081106001600160401b038211176118d657604052565b634e487b7160e01b5f52604160045260245ffd5b604081019081106001600160401b038211176118d657604052565b608081019081106001600160401b038211176118d657604052565b601f909101601f19168101906001600160401b038211908210176118d657604052565b6001600160401b0381116118d65760051b60200190565b9181601f840112156100af578235916001600160401b0383116100af576020808501948460051b0101116100af57565b805182101561199e5760209160051b010190565b634e487b7160e01b5f52603260045260245ffd5b156119b957565b60405162461bcd60e51b815260206004820152600e60248201526d13db9b1e48199c9bdb481919585b60921b6044820152606490fd5b90602080835192838152019201905f5b818110611a0c5750505090565b82518452602093840193909201916001016119ff565b91908201809211610c1457565b91908203918211610c1457565b91908260409103126100af57604051611a54816118ea565b8092805163ffffffff60e01b811681036100af578252602090810151910152565b919081101561199e5760051b0190565b908160209103126100af575180151581036100af5790565b919081101561199e5760051b81013590601e19813603018212156100af5701803591906001600160401b0383116100af576020018260051b360381136100af579190565b5f198114610c145760010190565b8015610c14575f190190565b60405190611b0882611905565b5f6060838281528260208201528260408201520152565b611b27611afb565b50805f525f8051602061380d833981519152602052600160405f20015415611b9a575f525f8051602061380d83398151915260205260405f20600360405191611b6f83611905565b80546001600160a01b0316835260018101546020840152600281015460408401520154606082015290565b60405162461bcd60e51b815260206004820152602a60248201527f676574436f6d70757465556e69743a20436f6d7075746520756e697420646f656044820152691cdb89dd08195e1a5cdd60b21b6064820152608490fd5b9260a094919796959260c0850198855260208501526040840152606083015260808201520152565b5f8051602061384d83398151915290611c31611e45565b6001810192838211610c14575f19820190828211610c1457835f5260205260405f20611c606001820154611f20565b865f526012820160205283600160405f20611ca4611c9c611c8a6006880154600389015490611a22565b85611c9489612031565b97888a612121565b94868a6123d2565b60ff198154168155015586857f8e4b27eeb3194deef0b3140997e6b82f53eb7350daceb9355268009b92f70add60206040518a8152a36006811015610c9f578015908115611e1c575b50611e1457600b810194855460018101809111610c145786555f8051602061378d833981519152965f8051602061374d833981519152549460018601809611610c1457611d6b611e0f965f8051602061370d8339815191529a50805f8051602061374d833981519152555f805160206136cd83398151915254612657565b7fc68e8cb1dc96033edd3ea2af8f58e28c84f27bc0c225295e9b1c873226f775e6604060148601611d9c8482612888565b60168701855f5280602052825f2054611dba60178a01918254611a2f565b9055855f526020525f8281205554928151908582526020820152a25f525f8051602061380d833981519152602052600260405f200155600881015494600a600d83015492015490549160405196879687611bf2565b0390a1565b505050505050565b60049150145f611ced565b8115611e31570490565b634e487b7160e01b5f52601260045260245ffd5b611e75611e605f8051602061388d8339815191525442611a2f565b5f805160206137cd8339815191525490611e27565b60010180600111610c145790565b5f5b8251811015611f1857611e98818461198a565b51602063ffffffff60e01b8251169101516040519060208201928352602482015260248152611ec8604482611920565b519020825f527f88681cafafd55573d275926fd208ef2ba36c6dd5169e88841d4bc9bcd225302360205260405f20905f5260205260ff60405f20541615611f1157600101611e85565b5050505f90565b505050600190565b611f28611afb565b50805f525f8051602061364d83398151915260205260405f205415611f98575f525f8051602061364d83398151915260205260405f2060405190611f6b82611905565b805482526001810154602083015260028101546040830152600301546001600160a01b0316606082015290565b60405162461bcd60e51b81526020600482015260126024820152711419595c88191bd95cdb89dd08195e1a5cdd60721b6044820152606490fd5b6040519060e082016001600160401b038111838210176118d6576040525f60c0838281528260208201528260408201528260608201528260808201528260a08201520152565b6006821015610c9f5752565b516006811015610c9f5790565b9060405161203e816118ea565b612046611fd2565b815260c0806020830192612058611fd2565b84526007819661206d60ff8254168451612018565b600c8101546020845101526008810154604084510152600a810154606084510152600b810154608084510152600981015460a084510152015482825101526120bf6120b88251612024565b8551612018565b60208151015160208551015260408151015160408551015260608151015160608551015260808151015160808551015260a08151015160a08551015251015191510152565b81810292918115918404141715610c1457565b8115611e31570690565b9192939060200192835151916006831015610c9f5760a085510151925f19870196808811610c145760068896015480155f1461216557505050505050505050600290565b116123c657600181148015906123bc575b6123b257506001955f198201918211610c14578111156123a7575b507f8984d2d0d7a9f2f70f22692c7c8344aa50cbed8c00a03c924457a31793ee8fdb54845192606084015192608085015160408601519560c087910151945f9386881161238b575b604001516121e691612104565b94612207836104e66121f8888d611a2f565b612202838c611a22565b612104565b80821061236e575b50508487101561228f575b505050505050604083510152815160808101519081612270575b50506006831015610c9f575f9160c09160018503612259575b60a08251015251015290565b8360608351015261226b858351612018565b61224d565b606061227f9101918251611a22565b90525f6080835101525f80612234565b9092949850836122a29294965095611a2f565b6004979092908382106122e35750505050600181018091116122d0576020845101525b5f808080808061221a565b601185634e487b7160e01b5f525260245ffd5b6122f6926122f091611a22565b92611a2f565b906123018183611e27565b80600101918260011161235b57612319908394612117565b612334575b505061232991611a22565b6020845101526122c5565b60020191508110612348576123295f61231e565b601186634e487b7160e01b5f525260245ffd5b601189634e487b7160e01b5f525260245ffd5b61238392989161237d91611a2f565b90611a22565b955f8061220f565b93506121e690604061239d888a611a2f565b95919250506121d9565b5f9550925084612191565b9550505050505090565b5083871115612176565b50505050505050600390565b916123dd8151612024565b9260208201936123ed8551612024565b906006821015610c9f576006811015610c9f570361250f575b506124118151612024565b61241b8451612024565b906006821015610c9f576006811015610c9f57036124e8575b60c0809151602081015194519460208601518091036124dd575b50604081015160408601518091036124d2575b50606081015160608601518091036124c7575b50608081015160808601518091036124bc575b5060a081015160a08601518091036124b1575b5001519201518092036124ab575050565b60070155565b60098501555f61249a565b600b8501555f612487565b600a8501555f612474565b60088501555f612461565b600c8501555f61244e565b6124f28351612024565b6006811015610c9f57825460ff191660ff91909116178255612434565b61252482516080606082015191015190611a22565b9061252f8551612024565b6006811015610c9f576004036125c557906125bf917f1ec6d9e2b340c6cc9d5b6690a2d2a1558f252aa30668b45dbdb83bb7728984f260208088510151604051908152a26125995f8051602061378d833981519152915f8051602061374d83398151915254611a2f565b9050805f8051602061374d833981519152555f805160206136cd83398151915254612657565b5f612406565b506125d08451612024565b6006811015610c9f57156125e5575b506125bf565b61260f906125995f8051602061378d833981519152915f8051602061374d83398151915254611a2f565b5f6125df565b805482101561199e575f5260205f209060011b01905f90565b9190612644576020816001925184550151910155565b634e487b7160e01b5f525f60045260245ffd5b61265f611e45565b5f8051602061366d8339815191525490831561284b575f19820192828411610c1457612698845f8051602061366d833981519152612615565b508054831495908615612830575060028410611e14576001198401848111610c1457670de0b6b3a7640000916126ee60016126e36126f3945f8051602061366d833981519152612615565b500154945b85612104565b611e27565b045f805160206136ad83398151915254105f1461280d5762895440810290808204628954401490151715610c1457629896809004935b7f8984d2d0d7a9f2f70f22692c7c8344aa50cbed8c00a03c924457a31793ee8fe2547f8984d2d0d7a9f2f70f22692c7c8344aa50cbed8c00a03c924457a31793ee8fe35490808710612805575b508086116127fd575b50156127a55750506127a06001915f8051602061366d833981519152612615565b500155565b915091604051916127b5836118ea565b82526020820152600160401b8210156118d6576127f58260016127fb94015f8051602061366d833981519152555f8051602061366d833981519152612615565b9061262e565b565b94505f61277f565b95505f612776565b62a7d8c081029080820462a7d8c01490151715610c145762989680900493612729565b670de0b6b3a7640000916126ee60016126f3930154946126e8565b50505050565b90602082549182815201915f5260205f20905f5b8181106128725750505090565b8254845260209093019260019283019201612865565b6128928282612d21565b80518051600684019392916001600160401b0382116118d657600160401b82116118d657845482865580831061294e575b50602001845f5260205f205f5b83811061293a57505050509161292f9160207f8b5d520ecd83f8a909da38eaeb49b5c1fb3d8d69e22e2b36ec0f5814b5c4aa43940151948560078301556008820155549360405192839260208452604060208501526060840190612851565b9060408301520390a2565b6001906020845194019381840155016128d0565b855f528260205f2091820191015b81811061296957506128c3565b5f815560010161295c565b92939190915f8051602061384d833981519152835f5260205260405f20945f198301928311610c14578260ff865416612ce7575f198201918211610c14578110612d19575b5080151580612d10575b612d08575b5060018301928354938415612cf0575b84831115611e1457829055815f525f805160206137ed83398151915260205260018401809411610c145760030193835f528460205260405f2054845f525f805160206137ed83398151915260205260405f2080548210612ce757600201548015612ce7576126ee612a4c9261220288612f12565b9283612a64575b505050505f526020525f6040812055565b7f8984d2d0d7a9f2f70f22692c7c8344aa50cbed8c00a03c924457a31793ee8fe454917f8984d2d0d7a9f2f70f22692c7c8344aa50cbed8c00a03c924457a31793ee8fe554936010612ae06011840193612ad7612ac38987549b611e27565b9461237d612ad18a83612117565b8a611a2f565b928391016130e7565b945f19861480612cde575b612c7f575f925f87121580612c6b575b612c4a575b5f965b888810612b1557505050505050612a53565b60018801808911610c1457612b2a9083612104565b945f82121580612c41575b15612ba15750612b988180897f86c93961d1a070b7b56fd1214cf06ccc18a89a3869681be8b74533f85ddc82606020612b8c8b6001612b768f9a829b612615565b5001612b8481549e8f611a22565b90558c611a22565b604051908152a3612fc6565b975b0196612b03565b949097612bb7612bb18286612104565b86611a22565b612bc18388611a22565b60405190612bce826118ea565b8282526020820152885490600160401b8210156118d6576127f5826001612bf894018c558b612615565b87545f198101908111610c1457897fd2337a844680345b0a7ba3392e6ddbbf8ff6e72cc99a633764c322c920576b7a6020612c356001978c611a22565b604051908152a4612b9a565b508a8212612b35565b959250612c656001612c5c8587612615565b50015493612fc6565b95612b00565b5082612c778887612615565b505410612afb565b60405162461bcd60e51b815260206004820152603160248201527f56657374696e673a20737461727445706f63682069732062656c6f77207468616044820152706e20616c6c207365656e2065706f63687360781b6064820152608490fd5b50871515612aeb565b50505050505050565b935060068501545f198101908111610c1457936129d8565b90505f6129c8565b508082116129c3565b91505f6129b9565b90604051612d2e816118ea565b606081525f60208201525060405191612d46836118ea565b604051612d6181612d5a8160068601612851565b0382611920565b835260078101549160208401928352600882015490818114612f0b57612d878282611a2f565b91815f19810111610c1457612df291612de891612da45f9161318e565b5f805160206137ad8339815191525f805160206136ed8339815191525491828111612ef7575b5080548310612eec575b506104e6612de2929361318e565b906131c7565b6003840154612104565b91670de0b6b3a7640000830292808404670de0b6b3a76400001490151715610c1457612e306005655af3107a4000612e39950492015480928461300c565b93908551611a22565b84525f5b818110612e4c57505050505090565b808360019210612ecf575b82612e628583611a22565b1015612ebd57612e7d8751612e778684611a22565b9061198a565b51612e8982895161198a565b525b612e95818661198a565b51612eb682612eb08a5193612eaa838661198a565b51611a22565b9261198a565b5201612e3d565b5f612ec982895161198a565b52612e8b565b612ee5612edd82895161198a565b518751611a22565b8652612e57565b5491506104e6612dd4565b612f049193508290611a2f565b915f612dca565b5050505090565b5f8051602061366d833981519152545f91905f198101908111610c14575f925b81811115612f405750505090565b612f4a8282611a22565b60011c93612f65855f8051602061366d833981519152612615565b509182548086115f14612f9a5750505060010154926001810180911115612f3257634e487b7160e01b5f52601160045260245ffd5b91959093509190841015612fba57505f198101908111610c145790612f32565b60010154949350505050565b6001600160ff1b038114610c145760010190565b90612fe482611943565b612ff16040519182611920565b8281528092613002601f1991611943565b0190602036910137565b92919080156130d7578161301f91611e27565b905f61302b8583613387565b85818097116130c6575b5060010190818611610c1457612202849161237d85613057613060968b612104565b60011c92612104565b9161306a82612fda565b945f5b83811061307c57505050509190565b836130878284611a22565b10156130ac575b60019061309b8484612104565b6130a5828a61198a565b520161306d565b811561308e57906130be600191611aef565b91905061308e565b6130d09250611a2f565b845f613035565b506130e3919250612fda565b5f91565b60010180545f199392908015613189575f905f198101908111610c1457929190925b808411156131175750505050565b909192946131258287611a22565b60011c956131338786612615565b505480851115613155575050508460018101809111610c14575b929190613109565b919690925090831015613182578061317157505f199450505050565b5f198101908111610c14579061314d565b9450505050565b505050565b5f8051602061388d833981519152545f805160206137cd833981519152545f198301928311610c14576131c49261237d91612104565b90565b905f805160206137ad8339815191526131f25f805160206136ed833981519152546122028142611e27565b82101561332e57829054116132b55780821161324d5761321d90613215836133ae565b9290916133ae565b90929082840361323457505050506131c4906134b1565b6131c4945061324792916122f091611a2f565b90611e27565b60405162461bcd60e51b815260206004820152605a60248201525f8051602061376d83398151915260448201525f8051602061382d8339815191526064820152790732067726561746572207468616e20746f54696d657374616d760341b608482015260a490fd5b60405162461bcd60e51b815260206004820152606560248201525f8051602061376d83398151915260448201525f8051602061382d83398151915260648201527f73206c6f776572207468616e206669727374207265636f726465642074696d6560848201526407374616d760dc1b60a482015260c490fd5b60405162461bcd60e51b815260206004820152602b60248201527f4d65616e2070726963652063616e206368616e676520696e207375676765737460448201526a1959081a5b9d195c9d985b60aa1b6064820152608490fd5b9080821015613394575090565b905090565b805482101561199e575f5260205f2001905f90565b905f805160206137ad83398151915254916133c98382611a2f565b6133e25f805160206136ed833981519152548092611e27565b937f62e26dda6281f8a7bde8d0de6ef3dc4300cca63258b4641529b5bae7dc08902854918286105f14613434575050505061342a825f8051602061386d833981519152613399565b90549060031b1c90565b6126ee6104e69261344495611a2f565b60018101809111610c14575f805160206136cd833981519152548015611e3157655af3107a4000045f8051602061386d833981519152545f198101908111610c14576131c4926134a461237d925f8051602061386d833981519152613399565b90549060031b1c92612104565b5f805160206137ad83398151915254908082116135c1576134ea916134d591611a2f565b5f805160206136ed8339815191525490611e27565b5f8051602061386d833981519152548110156135a05780156135565761351d815f8051602061386d833981519152613399565b90549060031b1c5f198201918211610c14576135496131c4925f8051602061386d833981519152613399565b90549060031b1c90611a2f565b505f8051602061386d833981519152541561199e575f8051602061386d8339815191525f527fd4d5257edb89e07e8d010c6ff96326eddf1fc220d3213e3ef3ddd6c1b3b706415490565b505f805160206136cd833981519152548015611e3157655af3107a40000490565b60405162461bcd60e51b815260206004820152605760248201527f4c69624f7261636c6550726963652e6765745265765072696365417454696d6560448201527f7374616d703a2074696d657374616d70206973206c6f776572207468616e2066606482015276069727374207265636f726465642074696d657374616d7604c1b608482015260a490fdfe88681cafafd55573d275926fd208ef2ba36c6dd5169e88841d4bc9bcd22530218984d2d0d7a9f2f70f22692c7c8344aa50cbed8c00a03c924457a31793ee8fe613f5ac65dc9f5b2765e76eb17d53fe3e7065903823eb36bdd7841fa3f8dacbbf8984d2d0d7a9f2f70f22692c7c8344aa50cbed8c00a03c924457a31793ee8fe162e26dda6281f8a7bde8d0de6ef3dc4300cca63258b4641529b5bae7dc08902a62e26dda6281f8a7bde8d0de6ef3dc4300cca63258b4641529b5bae7dc089027bd5605b4405616555ea2583cbd913ecf346c52c37520187117aadcea54e7d14921811dc5bb11da2b2076245a2c14796806445512606a02297e6b92fb117281078984d2d0d7a9f2f70f22692c7c8344aa50cbed8c00a03c924457a31793ee8fd24c69624f7261636c6550726963652e6765744d65616e526576507269636542658984d2d0d7a9f2f70f22692c7c8344aa50cbed8c00a03c924457a31793ee8fd162e26dda6281f8a7bde8d0de6ef3dc4300cca63258b4641529b5bae7dc0890267d4f8ec43464738265ced6b7ed5f90007e9b7c34318bdd82d9249328b50bd358a8de0abb18de6e730ac24d7fe02c877d293683811fc3ac5d8e62e2a52c0d20d888681cafafd55573d275926fd208ef2ba36c6dd5169e88841d4bc9bcd2253022747765656e54696d657374616d70733a2066726f6d54696d657374616d702069a8de0abb18de6e730ac24d7fe02c877d293683811fc3ac5d8e62e2a52c0d20d762e26dda6281f8a7bde8d0de6ef3dc4300cca63258b4641529b5bae7dc0890297d4f8ec43464738265ced6b7ed5f90007e9b7c34318bdd82d9249328b50bd357a2646970667358221220d4f4ee4b5ec196f3a471506b224a7168c299ea08764c774f5fc76ca1cd88265b64736f6c634300081a0033","linkReferences":{}},"methodIdentifiers":{"matchDeal(address,bytes32[],bytes32[][][])":"8e4643cb","moveResourcesFromDeal(bytes32[],bytes32)":"12a4ebb0","reportWorkerActivated(bytes32,bytes32,bytes32)":"bf0d3707"},"storageLayout":{"storage":[],"types":{}},"devdoc":{"version":1,"kind":"dev","methods":{"matchDeal(address,bytes32[],bytes32[][][])":{"details":"Match Deal with Compute Units provided.There should be `bytes32[][] calldata peers` as well, but it is not supported by subgraph codegen.Ref to https://github.com/graphprotocol/graph-tooling/issues/342.","params":{"computeUnits":": Compute Units per offer id (3D array: provider -> peer -> CU) to match with.","deal":": Deal to match.","offers":": Offers array that represents offers in computeUnits 3D array."}},"moveResourcesFromDeal(bytes32[],bytes32)":{"details":"Return resources from deal"},"reportWorkerActivated(bytes32,bytes32,bytes32)":{"details":"Report that a worker is activated, only throws event","params":{"offchainWorkerId":"The offchain worker id","onchainWorkerId":"The onchain worker id","peerId":"The peer id"}}},"events":{"ComputeUnitsMatched(bytes32,address,bytes32,bytes32[],(bytes4,bytes32))":{"details":"Emitted when a deal is matched with a compute unit","params":{"appCID":"The app cid of the deal","cuIds":"ids of compute units matched","deal":"The deal address","onchainWorkerId":"onchain worker id, for use in tools that interact with chain","peerId":"The peer id of the deal"}},"ComputeUnitsRemovedFromDeal(bytes32,address,bytes32[],bytes32)":{"details":"Emitted when a compute unit removed from a peer","params":{"cuIds":"The list of compute unit ids","deal":"The deal address","peerId":"The peer id"}},"UnitActivated(bytes32,bytes32,uint256)":{"details":"Emitted when a unit activated. Unit is activated when it returned from deal","params":{"commitmentId":"Commitment id","unitId":"Compute unit id which activated"}},"UnitDeactivated(bytes32,bytes32)":{"details":"Emitted when a unit deactivated. Unit is deactivated when it moved to deal","params":{"commitmentId":"Commitment id","unitId":"Compute unit id which deactivated"}},"WorkerActivated(bytes32,address,bytes32,bytes32)":{"details":"Emitted when a worker is activated","params":{"deal":"The deal address","offchain_worker_id":"The offchain worker id","onchain_worker_id":"The onchain worker id","peer_id":"The peer id"}}},"errors":{"CapacityCommitmentIsNotActive(uint8)":[{"details":"Capacity commitment is not active"}],"MinWorkersNotMatched(uint256)":[{"details":"Throws if the min workers of the deal is not matched","params":{"_minWorkers":"The min workers of the deal"}}]}},"id":120}