{"abi":[{"type":"function","name":"propagate","inputs":[{"name":"msgCid","type":"bytes32","internalType":"bytes32"}],"outputs":[],"stateMutability":"payable"},{"type":"function","name":"sendContractXnetMessage","inputs":[{"name":"envelope","type":"tuple","internalType":"struct IpcEnvelope","components":[{"name":"kind","type":"uint8","internalType":"enum IpcMsgKind"},{"name":"to","type":"tuple","internalType":"struct IPCAddress","components":[{"name":"subnetId","type":"tuple","internalType":"struct SubnetID","components":[{"name":"root","type":"uint64","internalType":"uint64"},{"name":"route","type":"address[]","internalType":"address[]"}]},{"name":"rawAddress","type":"tuple","internalType":"struct FvmAddress","components":[{"name":"addrType","type":"uint8","internalType":"uint8"},{"name":"payload","type":"bytes","internalType":"bytes"}]}]},{"name":"from","type":"tuple","internalType":"struct IPCAddress","components":[{"name":"subnetId","type":"tuple","internalType":"struct SubnetID","components":[{"name":"root","type":"uint64","internalType":"uint64"},{"name":"route","type":"address[]","internalType":"address[]"}]},{"name":"rawAddress","type":"tuple","internalType":"struct FvmAddress","components":[{"name":"addrType","type":"uint8","internalType":"uint8"},{"name":"payload","type":"bytes","internalType":"bytes"}]}]},{"name":"nonce","type":"uint64","internalType":"uint64"},{"name":"value","type":"uint256","internalType":"uint256"},{"name":"message","type":"bytes","internalType":"bytes"}]}],"outputs":[{"name":"committed","type":"tuple","internalType":"struct IpcEnvelope","components":[{"name":"kind","type":"uint8","internalType":"enum IpcMsgKind"},{"name":"to","type":"tuple","internalType":"struct IPCAddress","components":[{"name":"subnetId","type":"tuple","internalType":"struct SubnetID","components":[{"name":"root","type":"uint64","internalType":"uint64"},{"name":"route","type":"address[]","internalType":"address[]"}]},{"name":"rawAddress","type":"tuple","internalType":"struct FvmAddress","components":[{"name":"addrType","type":"uint8","internalType":"uint8"},{"name":"payload","type":"bytes","internalType":"bytes"}]}]},{"name":"from","type":"tuple","internalType":"struct IPCAddress","components":[{"name":"subnetId","type":"tuple","internalType":"struct SubnetID","components":[{"name":"root","type":"uint64","internalType":"uint64"},{"name":"route","type":"address[]","internalType":"address[]"}]},{"name":"rawAddress","type":"tuple","internalType":"struct FvmAddress","components":[{"name":"addrType","type":"uint8","internalType":"uint8"},{"name":"payload","type":"bytes","internalType":"bytes"}]}]},{"name":"nonce","type":"uint64","internalType":"uint64"},{"name":"value","type":"uint256","internalType":"uint256"},{"name":"message","type":"bytes","internalType":"bytes"}]}],"stateMutability":"payable"},{"type":"event","name":"NewBottomUpMsgBatch","inputs":[{"name":"epoch","type":"uint256","indexed":true,"internalType":"uint256"},{"name":"batch","type":"tuple","indexed":false,"internalType":"struct BottomUpMsgBatch","components":[{"name":"subnetID","type":"tuple","internalType":"struct SubnetID","components":[{"name":"root","type":"uint64","internalType":"uint64"},{"name":"route","type":"address[]","internalType":"address[]"}]},{"name":"blockHeight","type":"uint256","internalType":"uint256"},{"name":"msgs","type":"tuple[]","internalType":"struct IpcEnvelope[]","components":[{"name":"kind","type":"uint8","internalType":"enum IpcMsgKind"},{"name":"to","type":"tuple","internalType":"struct IPCAddress","components":[{"name":"subnetId","type":"tuple","internalType":"struct SubnetID","components":[{"name":"root","type":"uint64","internalType":"uint64"},{"name":"route","type":"address[]","internalType":"address[]"}]},{"name":"rawAddress","type":"tuple","internalType":"struct FvmAddress","components":[{"name":"addrType","type":"uint8","internalType":"uint8"},{"name":"payload","type":"bytes","internalType":"bytes"}]}]},{"name":"from","type":"tuple","internalType":"struct IPCAddress","components":[{"name":"subnetId","type":"tuple","internalType":"struct SubnetID","components":[{"name":"root","type":"uint64","internalType":"uint64"},{"name":"route","type":"address[]","internalType":"address[]"}]},{"name":"rawAddress","type":"tuple","internalType":"struct FvmAddress","components":[{"name":"addrType","type":"uint8","internalType":"uint8"},{"name":"payload","type":"bytes","internalType":"bytes"}]}]},{"name":"nonce","type":"uint64","internalType":"uint64"},{"name":"value","type":"uint256","internalType":"uint256"},{"name":"message","type":"bytes","internalType":"bytes"}]}]}],"anonymous":false},{"type":"event","name":"NewTopDownMessage","inputs":[{"name":"subnet","type":"address","indexed":true,"internalType":"address"},{"name":"message","type":"tuple","indexed":false,"internalType":"struct IpcEnvelope","components":[{"name":"kind","type":"uint8","internalType":"enum IpcMsgKind"},{"name":"to","type":"tuple","internalType":"struct IPCAddress","components":[{"name":"subnetId","type":"tuple","internalType":"struct SubnetID","components":[{"name":"root","type":"uint64","internalType":"uint64"},{"name":"route","type":"address[]","internalType":"address[]"}]},{"name":"rawAddress","type":"tuple","internalType":"struct FvmAddress","components":[{"name":"addrType","type":"uint8","internalType":"uint8"},{"name":"payload","type":"bytes","internalType":"bytes"}]}]},{"name":"from","type":"tuple","internalType":"struct IPCAddress","components":[{"name":"subnetId","type":"tuple","internalType":"struct SubnetID","components":[{"name":"root","type":"uint64","internalType":"uint64"},{"name":"route","type":"address[]","internalType":"address[]"}]},{"name":"rawAddress","type":"tuple","internalType":"struct FvmAddress","components":[{"name":"addrType","type":"uint8","internalType":"uint8"},{"name":"payload","type":"bytes","internalType":"bytes"}]}]},{"name":"nonce","type":"uint64","internalType":"uint64"},{"name":"value","type":"uint256","internalType":"uint256"},{"name":"message","type":"bytes","internalType":"bytes"}]}],"anonymous":false},{"type":"error","name":"CallFailed","inputs":[]},{"type":"error","name":"CannotSendCrossMsgToItself","inputs":[]},{"type":"error","name":"InsufficientFunds","inputs":[]},{"type":"error","name":"InvalidXnetMessage","inputs":[{"name":"reason","type":"uint8","internalType":"enum InvalidXnetMessageReason"}]},{"type":"error","name":"MethodNotAllowed","inputs":[{"name":"reason","type":"string","internalType":"string"}]},{"type":"error","name":"NotRegisteredSubnet","inputs":[]}],"bytecode":{"object":"0x608060405234801561001057600080fd5b50612e20806100206000396000f3fe6080604052600436106100295760003560e01c806325bf0db61461002e5780633eeb723f14610043575b600080fd5b61004161003c3660046121a4565b61006c565b005b6100566100513660046121bd565b610527565b6040516100639190612397565b60405180910390f35b60065462010000900460ff166100b857604051806060016040528060368152602001612d7b6036913960405163015538b160e01b81526004016100af91906123aa565b60405180910390fd5b600081815260216020526040808220815160c081019092528054909291610445918490829060ff1660028111156100f1576100f16121f7565b6002811115610102576101026121f7565b8152604080516080810182526001840180546001600160401b031682840190815260028601805485516020828102820181019097528181529686019694959394869486936060870193909183018282801561018657602002820191906000526020600020905b81546001600160a01b03168152600190910190602001808311610168575b5050509190925250505081526040805180820190915260028301805460ff168252600384018054602094850194840191906101c0906123bd565b80601f01602080910402602001604051908101604052809291908181526020018280546101ec906123bd565b80156102395780601f1061020e57610100808354040283529160200191610239565b820191906000526020600020905b81548152906001019060200180831161021c57829003601f168201915b505050919092525050509052508152604080516080810182526005840180546001600160401b03168284019081526006860180548551602082810282018101909752818152968601969495939486948693606087019390918301828280156102ca57602002820191906000526020600020905b81546001600160a01b031681526001909101906020018083116102ac575b5050509190925250505081526040805180820190915260028301805460ff16825260038401805460209485019484019190610304906123bd565b80601f0160208091040260200160405190810160405280929190818152602001828054610330906123bd565b801561037d5780601f106103525761010080835404028352916020019161037d565b820191906000526020600020905b81548152906001019060200180831161036057829003601f168201915b50505091909252505050905250815260098201546001600160401b03166020820152600a8201546040820152600b820180546060909201916103be906123bd565b80601f01602080910402602001604051908101604052809291908181526020018280546103ea906123bd565b80156104375780601f1061040c57610100808354040283529160200191610437565b820191906000526020600020905b81548152906001019060200180831161041a57829003601f168201915b505050505081525050610754565b600a8301546000858152602160205260408120805460ff191681556001810180546001600160401b031916815593945091928181816104876002870182611f1c565b505060028201805460ff1916815560006104a46003850182611f3d565b505050506005820180546001600160401b0319168155600081816104cb6006870182611f1c565b505060028201805460ff1916815560006104e86003850182611f3d565b505050506009820180546001600160401b03191690556000600a830181905561051590600b840190611f3d565b50506105218183610deb565b50505050565b61052f611f77565b600654610100900460ff16610571576040518060600160405280603a8152602001612db1603a913960405163015538b160e01b81526004016100af91906123aa565b333b61059357600060405163bc0f01cf60e01b81526004016100af91906123f1565b348260800135146105ba57600360405163bc0f01cf60e01b81526004016100af91906123f1565b60016105c9602084018461240b565b60028111156105da576105da6121f7565b146105fb57600460405163bc0f01cf60e01b81526004016100af91906123f1565b61060860a083018361242c565b8101906106159190612556565b506040805160c0810190915260018152602080820190610637908501856125e6565b610640906126b3565b815260408051608081018252601280546001600160401b031682840190815260138054855160208281028201810190975281815296860196949586959394936060870193909290918301828280156106c157602002820191906000526020600020905b81546001600160a01b031681526001909101906020018083116106a3575b50505050508152505081526020016106d833610e00565b90528152600060208201523460408201526060016106f960a085018561242c565b8080601f01602080910402602001604051908101604052809392919081815260200183838082843760009201829052509390945250929350915061073e905082610754565b905061074e826080015182610deb565b50919050565b602081015151604051630c133d1360e31b8152600091829173__$a0fe38a9a81205afccc10810b09a4d3f45$__90636099e898906107969084906004016127c4565b602060405180830381865af41580156107b3573d6000803e3d6000fd5b505050506040513d601f19601f820116820180604052508101906107d791906127d7565b156107f857600160405163bc0f01cf60e01b81526004016100af91906123f1565b60405163c836244d60e01b815273__$a0fe38a9a81205afccc10810b09a4d3f45$__9063c836244d906108349084906012870190600401612868565b602060405180830381865af4158015610851573d6000803e3d6000fd5b505050506040513d601f19601f8201168201806040525081019061087591906127d7565b1561089357604051632f3335ff60e21b815260040160405180910390fd5b60408085015151905163855f7e4560e01b815260009073__$33b79814e84bf6cf5e47244090b19ce5f8$__9063855f7e45906108d8908990601289019060040161288d565b602060405180830381865af41580156108f5573d6000803e3d6000fd5b505050506040513d601f19601f820116820180604052508101906109199190612936565b604051631ccc893360e11b815290915060009073__$a0fe38a9a81205afccc10810b09a4d3f45$__906339991266906109589087908790600401612953565b600060405180830381865af4158015610975573d6000803e3d6000fd5b505050506040513d6000823e601f3d908101601f1916820160405261099d9190810190612978565b60405163c836244d60e01b815273__$a0fe38a9a81205afccc10810b09a4d3f45$__9163c836244d916109d8919060128a0190600401612868565b602060405180830381865af41580156109f5573d6000803e3d6000fd5b505050506040513d601f19601f82011682018060405250810190610a1991906127d7565b905060006001836001811115610a3157610a316121f7565b03610bca576040516308c7427760e11b815273__$a0fe38a9a81205afccc10810b09a4d3f45$__9063118e84ee90610a6d9087906004016127c4565b600060405180830381865af4158015610a8a573d6000803e3d6000fd5b505050506040513d6000823e601f3d908101601f19168201604052610ab29190810190612978565b60405163c836244d60e01b815273__$a0fe38a9a81205afccc10810b09a4d3f45$__9163c836244d91610aed919060128b0190600401612868565b602060405180830381865af4158015610b0a573d6000803e3d6000fd5b505050506040513d601f19601f82011682018060405250810190610b2e91906127d7565b8015610bc35750604051632cff562160e11b8152610bc39060019073__$a0fe38a9a81205afccc10810b09a4d3f45$__906359feac4290610b739089906004016127c4565b602060405180830381865af4158015610b90573d6000803e3d6000fd5b505050506040513d601f19601f82011682018060405250810190610bb49190612a58565b6001600160a01b031690610eae565b9050610ca4565b6000836001811115610bde57610bde6121f7565b03610ca45760405163089032d560e01b8152610ca19060019073__$a0fe38a9a81205afccc10810b09a4d3f45$__9063089032d590610c26908a9060128d0190600401612868565b600060405180830381865af4158015610c43573d6000803e3d6000fd5b505050506040513d6000823e601f3d908101601f19168201604052610c6b9190810190612978565b604051632cff562160e11b815273__$a0fe38a9a81205afccc10810b09a4d3f45$__916359feac4291610b7391906004016127c4565b90505b8015610d4b57600088516002811115610cbf57610cbf6121f7565b03610d4b5760405163015538b160e01b815260206004820152604f60248201527f70726f7061676174696f6e206f6620605472616e7366657260206d657373616760448201527f6573206e6f742073757070706f7274656420666f72207375626e65747320776960648201526e746820455243323020737570706c7960881b608482015260a4016100af565b6000836001811115610d5f57610d5f6121f7565b1480610d685750815b15610dcf57600386018054600890610d94906801000000000000000090046001600160401b0316612a8b565b91906101000a8154816001600160401b0302191690836001600160401b03160217905550610dc188610f3f565b506000979650505050505050565b610dd888611118565b5050506080909401511515949350505050565b8015610dfc57610dfc606383611a8e565b5050565b60408051808201909152600081526060602082015260006040518060600160405280600a6001600160401b0316815260200160146001600160801b0316815260200184604051602001610e6b919060609190911b6bffffffffffffffffffffffff1916815260140190565b60408051601f19818403018152918152915251610e8b9190602001612ab1565b60408051601f198184030181528282019091526004825260208201529392505050565b6000816001811115610ec257610ec26121f7565b836001600160a01b03166380875df76040518163ffffffff1660e01b81526004016040805180830381865afa158015610eff573d6000803e3d6000fd5b505050506040513d601f19601f82011682018060405250810190610f239190612afa565b516001811115610f3557610f356121f7565b1490505b92915050565b60208101515160405163089032d560e01b8152600091829173__$a0fe38a9a81205afccc10810b09a4d3f45$__9163089032d591610f839190601290600401612868565b600060405180830381865af4158015610fa0573d6000803e3d6000fd5b505050506040513d6000823e601f3d908101601f19168201604052610fc89190810190612978565b9050600080610fd683611b28565b9150915081610ff857604051630e991abd60e41b815260040160405180910390fd5b60038101546001600160401b031660608601819052611018816001612b3b565b6003830180546001600160401b0319166001600160401b03929092169190911790556080860151600283018054600090611053908490612b62565b90915550506040516304e384ff60e21b815273__$a0fe38a9a81205afccc10810b09a4d3f45$__9063138e13fc9061108f9087906004016127c4565b602060405180830381865af41580156110ac573d6000803e3d6000fd5b505050506040513d601f19601f820116820180604052508101906110d09190612a58565b6001600160a01b03167ffdd39ce2560484814971f663392e78ae37dc62ba184b3370d830371dd271a8b7876040516111089190612397565b60405180910390a2505050505050565b600080611129438360010154611cbc565b6003830180546001600160401b031660608601819052919250600191600090611153908490612b3b565b92506101000a8154816001600160401b0302191690836001600160401b031602179055506000806111968360009081526023602052604090206002810154151591565b915091508161137a5760128401805482546001600160401b0319166001600160401b0390911617825560138501805483916111d691600184019190611fb8565b505050600280820184905560038201805460018181018355600092835260209092208851600c90920201805489949193849260ff19909216918490811115611220576112206121f7565b0217905550602082810151805180516001850180546001600160401b0319166001600160401b0390921691909117815581840151805193949193849261126d926002890192910190612008565b505050602082810151805160028401805460ff191660ff9092169190911781559181015190919060038401906112a39082612bc5565b505050506040830151805180516005850180546001600160401b0319166001600160401b039092169190911781556020808301518051949550919384926112f1926006890192910190612008565b505050602082810151805160028401805460ff191660ff9092169190911781559181015190919060038401906113279082612bc5565b5050505060608301516009830180546001600160401b0319166001600160401b03909216919091179055506080820151600a82015560a0820151600b8201906113709082612bc5565b5050505050505050565b60038481015490820154600160c01b9091046001600160401b03169003611a48576040805160a0810182526012860180546001600160401b0316606083019081526013880180548551602082810282018101909752818152439660009695869594909360808701939283018282801561141c57602002820191906000526020600020905b81546001600160a01b031681526001909101906020018083116113fe575b505050505081525050815260200183815260200184600301805490506001600160401b0381111561144f5761144f612479565b60405190808252806020026020018201604052801561148857816020015b611475611f77565b81526020019060019003908161146d5790505b509052600384015490915060005b8181101561185e578460030181815481106114b3576114b3612c84565b600091825260209091206040805160c08101909152600c909202018054829060ff1660028111156114e6576114e66121f7565b60028111156114f7576114f76121f7565b8152604080516080810182526001840180546001600160401b031682840190815260028601805485516020828102820181019097528181529686019694959394869486936060870193909183018282801561157b57602002820191906000526020600020905b81546001600160a01b0316815260019091019060200180831161155d575b5050509190925250505081526040805180820190915260028301805460ff168252600384018054602094850194840191906115b5906123bd565b80601f01602080910402602001604051908101604052809291908181526020018280546115e1906123bd565b801561162e5780601f106116035761010080835404028352916020019161162e565b820191906000526020600020905b81548152906001019060200180831161161157829003601f168201915b505050919092525050509052508152604080516080810182526005840180546001600160401b03168284019081526006860180548551602082810282018101909752818152968601969495939486948693606087019390918301828280156116bf57602002820191906000526020600020905b81546001600160a01b031681526001909101906020018083116116a1575b5050509190925250505081526040805180820190915260028301805460ff168252600384018054602094850194840191906116f9906123bd565b80601f0160208091040260200160405190810160405280929190818152602001828054611725906123bd565b80156117725780601f1061174757610100808354040283529160200191611772565b820191906000526020600020905b81548152906001019060200180831161175557829003601f168201915b50505091909252505050905250815260098201546001600160401b03166020820152600a8201546040820152600b820180546060909201916117b3906123bd565b80601f01602080910402602001604051908101604052809291908181526020018280546117df906123bd565b801561182c5780601f106118015761010080835404028352916020019161182c565b820191906000526020600020905b81548152906001019060200180831161180f57829003601f168201915b5050505050815250508360400151828151811061184b5761184b612c84565b6020908102919091010152600101611496565b50827f0b1b135d7eb5326c8c53b4b711f8ace381cbfe4326102b012b9ccd2852abaa588360405161188f9190612c9a565b60405180910390a26118a560038501600061205d565b60038401805460018181018355600092835260209092208a51600c9092020180548b93919291839160ff1916908360028111156118e4576118e46121f7565b0217905550602082810151805180516001850180546001600160401b0319166001600160401b03909216919091178155818401518051939491938492611931926002890192910190612008565b505050602082810151805160028401805460ff191660ff9092169190911781559181015190919060038401906119679082612bc5565b505050506040830151805180516005850180546001600160401b0319166001600160401b039092169190911781556020808301518051949550919384926119b5926006890192910190612008565b505050602082810151805160028401805460ff191660ff9092169190911781559181015190919060038401906119eb9082612bc5565b5050505060608301516009830180546001600160401b0319166001600160401b03909216919091179055506080820151600a82015560a0820151600b820190611a349082612bc5565b505050611a4082611cee565b505050611a87565b60038101805460018181018355600092835260209092208751600c9092020180548893919291839160ff191690836002811115611220576112206121f7565b5050505050565b80471015611aaf5760405163356680b760e01b815260040160405180910390fd5b6000826001600160a01b03168260405160006040518083038185875af1925050503d8060008114611afc576040519150601f19603f3d011682016040523d82523d6000602084013e611b01565b606091505b5050905080611b2357604051633204506f60e01b815260040160405180910390fd5b505050565b6040516390ba52cf60e01b815260009081908190601f90829073__$a0fe38a9a81205afccc10810b09a4d3f45$__906390ba52cf90611b6b9089906004016127c4565b602060405180830381865af4158015611b88573d6000803e3d6000fd5b505050506040513d601f19601f82011682018060405250810190611bac9190612d28565b81526020808201929092526040908101600020815180830183526004820180546001600160401b031682526005830180548551818802810188019096528086529397509194909385820193909291830182828015611c3357602002820191906000526020600020905b81546001600160a01b03168152600190910190602001808311611c15575b505050919092525050604051630c133d1360e31b815273__$a0fe38a9a81205afccc10810b09a4d3f45$__92636099e8989250611c72916004016127c4565b602060405180830381865af4158015611c8f573d6000803e3d6000fd5b505050506040513d601f19601f82011682018060405250810190611cb391906127d7565b15925050915091565b600081611cd2816001600160401b038616612d41565b611cdd906001612b62565b611ce79190612d63565b9392505050565b602081810151600090815260238252604081208351805182546001600160401b0319166001600160401b039091161782558084015180519394929391928492611d3d9260018501920190612008565b5050506020830151600282015560408301515160005b81811015611a87578260030185604001518281518110611d7557611d75612c84565b6020908102919091018101518254600181810185556000948552929093208151600c909402018054919390929091839160ff1990911690836002811115611dbe57611dbe6121f7565b0217905550602082810151805180516001850180546001600160401b0319166001600160401b03909216919091178155818401518051939491938492611e0b926002890192910190612008565b505050602082810151805160028401805460ff191660ff909216919091178155918101519091906003840190611e419082612bc5565b505050506040830151805180516005850180546001600160401b0319166001600160401b03909216919091178155602080830151805194955091938492611e8f926006890192910190612008565b505050602082810151805160028401805460ff191660ff909216919091178155918101519091906003840190611ec59082612bc5565b5050505060608301516009830180546001600160401b0319166001600160401b03909216919091179055506080820151600a82015560a0820151600b820190611f0e9082612bc5565b505050806001019050611d53565b5080546000825590600052602060002090810190611f3a919061207e565b50565b508054611f49906123bd565b6000825580601f10611f59575050565b601f016020900490600052602060002090810190611f3a919061207e565b6040805160c081019091528060008152602001611f92612093565b8152602001611f9f612093565b8152600060208201819052604082015260609081015290565b828054828255906000526020600020908101928215611ff85760005260206000209182015b82811115611ff8578254825591600101919060010190611fdd565b5061200492915061207e565b5090565b828054828255906000526020600020908101928215611ff8579160200282015b82811115611ff857825182546001600160a01b0319166001600160a01b03909116178255602090920191600190910190612028565b50805460008255600c0290600052602060002090810190611f3a91906120d8565b5b80821115612004576000815560010161207f565b60408051608081018252600091810191825260608082015290819081526020016120d36040518060400160405280600060ff168152602001606081525090565b905290565b8082111561200457805460ff191681556001810180546001600160401b031916815560009081818161210d6002870182611f1c565b505060028201805460ff19168155600061212a6003850182611f3d565b505050506005820180546001600160401b0319168155600081816121516006870182611f1c565b505060028201805460ff19168155600061216e6003850182611f3d565b505050506009820180546001600160401b03191690556000600a830181905561219b90600b840190611f3d565b50600c016120d8565b6000602082840312156121b657600080fd5b5035919050565b6000602082840312156121cf57600080fd5b81356001600160401b038111156121e557600080fd5b820160c08185031215611ce757600080fd5b634e487b7160e01b600052602160045260246000fd5b6003811061221d5761221d6121f7565b9052565b6000604083016001600160401b03835116845260208084015160406020870152828151808552606088019150602083019450600092505b808310156122815784516001600160a01b03168252938301936001929092019190830190612258565b509695505050505050565b6000815180845260005b818110156122b257602081850181015186830182015201612296565b506000602082860101526020601f19601f83011685010191505092915050565b60008151604084526122e76040850182612221565b90506020830151848203602086015260ff81511682526020810151905060406020830152612318604083018261228c565b95945050505050565b61232c82825161220d565b6000602082015160c0602085015261234760c08501826122d2565b90506040830151848203604086015261236082826122d2565b9150506001600160401b0360608401511660608501526080830151608085015260a083015184820360a0860152612318828261228c565b602081526000611ce76020830184612321565b602081526000611ce7602083018461228c565b600181811c908216806123d157607f821691505b60208210810361074e57634e487b7160e01b600052602260045260246000fd5b6020810160058310612405576124056121f7565b91905290565b60006020828403121561241d57600080fd5b813560038110611ce757600080fd5b6000808335601e1984360301811261244357600080fd5b8301803591506001600160401b0382111561245d57600080fd5b60200191503681900382131561247257600080fd5b9250929050565b634e487b7160e01b600052604160045260246000fd5b604080519081016001600160401b03811182821017156124b1576124b1612479565b60405290565b604051601f8201601f191681016001600160401b03811182821017156124df576124df612479565b604052919050565b600082601f8301126124f857600080fd5b81356001600160401b0381111561251157612511612479565b612524601f8201601f19166020016124b7565b81815284602083860101111561253957600080fd5b816020850160208301376000918101602001919091529392505050565b60006020828403121561256857600080fd5b81356001600160401b038082111561257f57600080fd5b908301906040828603121561259357600080fd5b61259b61248f565b8235828111156125aa57600080fd5b6125b6878286016124e7565b8252506020830135828111156125cb57600080fd5b6125d7878286016124e7565b60208301525095945050505050565b60008235603e198336030181126125fc57600080fd5b9190910192915050565b6001600160401b0381168114611f3a57600080fd5b60006001600160401b0382111561263457612634612479565b5060051b60200190565b6001600160a01b0381168114611f3a57600080fd5b60006040828403121561266557600080fd5b61266d61248f565b9050813560ff8116811461268057600080fd5b815260208201356001600160401b0381111561269b57600080fd5b6126a7848285016124e7565b60208301525092915050565b6000604082360312156126c557600080fd5b6126cd61248f565b82356001600160401b03808211156126e457600080fd5b8185019150604082360312156126f957600080fd5b61270161248f565b823561270c81612606565b81526020838101358381111561272157600080fd5b939093019236601f85011261273557600080fd5b83356127486127438261261b565b6124b7565b81815260059190911b8501820190828101903683111561276757600080fd5b958301955b8287101561278e57863561277f8161263e565b8252958301959083019061276c565b848401525050818552868101359350828411156127aa57600080fd5b6127b636858901612653565b908501525091949350505050565b602081526000611ce76020830184612221565b6000602082840312156127e957600080fd5b81518015158114611ce757600080fd5b6000604083016001600160401b03835416845260018084016020604060208801528382548086526060890191508360005260206000209550600093505b8084101561285c5785546001600160a01b03168252948401949284019290820190612836565b50979650505050505050565b60408152600061287b6040830185612221565b828103602084015261231881856127f9565b6040815261289f60408201845161220d565b6000602084015160c060608401526128bb6101008401826122d2565b90506040850151603f19808584030160808601526128d983836122d2565b92506001600160401b0360608801511660a0860152608087015160c086015260a08701519150808584030160e086015250612914828261228c565b915050828103602084015261231881856127f9565b60028110611f3a57600080fd5b60006020828403121561294857600080fd5b8151611ce781612929565b6040815260006129666040830185612221565b82810360208401526123188185612221565b6000602080838503121561298b57600080fd5b82516001600160401b03808211156129a257600080fd5b90840190604082870312156129b657600080fd5b6129be61248f565b82516129c981612606565b815282840151828111156129dc57600080fd5b80840193505086601f8401126129f157600080fd5b82519150612a016127438361261b565b82815260059290921b83018401918481019088841115612a2057600080fd5b938501935b83851015612a47578451612a388161263e565b82529385019390850190612a25565b948201949094529695505050505050565b600060208284031215612a6a57600080fd5b8151611ce78161263e565b634e487b7160e01b600052601160045260246000fd5b60006001600160401b03808316818103612aa757612aa7612a75565b6001019392505050565b602081526001600160401b0382511660208201526001600160801b03602083015116604082015260006040830151606080840152612af2608084018261228c565b949350505050565b600060408284031215612b0c57600080fd5b612b1461248f565b8251612b1f81612929565b81526020830151612b2f8161263e565b60208201529392505050565b6001600160401b03818116838216019080821115612b5b57612b5b612a75565b5092915050565b80820180821115610f3957610f39612a75565b601f821115611b23576000816000526020600020601f850160051c81016020861015612b9e5750805b601f850160051c820191505b81811015612bbd57828155600101612baa565b505050505050565b81516001600160401b03811115612bde57612bde612479565b612bf281612bec84546123bd565b84612b75565b602080601f831160018114612c275760008415612c0f5750858301515b600019600386901b1c1916600185901b178555612bbd565b600085815260208120601f198616915b82811015612c5657888601518255948401946001909101908401612c37565b5085821015612c745787850151600019600388901b60f8161c191681555b5050505050600190811b01905550565b634e487b7160e01b600052603260045260246000fd5b600060208083528351606082850152612cb66080850182612221565b90508185015160408501526040850151601f19808684030160608701528282518085528585019150858160051b860101868501945060005b82811015612d1a5784878303018452612d08828751612321565b95880195938801939150600101612cee565b509998505050505050505050565b600060208284031215612d3a57600080fd5b5051919050565b600082612d5e57634e487b7160e01b600052601260045260246000fd5b500490565b8082028115828204841417610f3957610f39612a7556fe537570706f727420666f72206d756c74692d6c6576656c2063726f73732d6e6574206d657373616765732069732064697361626c6564537570706f727420666f722067656e6572616c2d707572706f73652063726f73732d6e6574206d657373616765732069732064697361626c6564a2646970667358221220bdd2d4fe5f5e741c3f71a0bc6bed59a9c81de60729c201f24782a643d42b2e4864736f6c63430008180033","linkReferences":{"src/lib/CrossMsgHelper.sol":{"CrossMsgHelper":[{"start":2251,"length":20}]},"src/lib/SubnetIDHelper.sol":{"SubnetIDHelper":[{"start":1934,"length":20},{"start":2087,"length":20},{"start":2382,"length":20},{"start":2508,"length":20},{"start":2661,"length":20},{"start":2785,"length":20},{"start":2923,"length":20},{"start":3097,"length":20},{"start":3226,"length":20},{"start":3961,"length":20},{"start":4231,"length":20},{"start":7011,"length":20},{"start":7275,"length":20}]}}},"methodIdentifiers":{"propagate(bytes32)":"25bf0db6","sendContractXnetMessage((uint8,((uint64,address[]),(uint8,bytes)),((uint64,address[]),(uint8,bytes)),uint64,uint256,bytes))":"3eeb723f"},"id":61}