{"abi":[{"type":"constructor","inputs":[{"name":"_name","type":"string","internalType":"string"},{"name":"_symbol","type":"string","internalType":"string"},{"name":"_initialSupply","type":"uint256","internalType":"uint256"}],"stateMutability":"nonpayable"},{"type":"function","name":"allowance","inputs":[{"name":"owner","type":"address","internalType":"address"},{"name":"spender","type":"address","internalType":"address"}],"outputs":[{"name":"","type":"uint256","internalType":"uint256"}],"stateMutability":"view"},{"type":"function","name":"approve","inputs":[{"name":"spender","type":"address","internalType":"address"},{"name":"value","type":"uint256","internalType":"uint256"}],"outputs":[{"name":"","type":"bool","internalType":"bool"}],"stateMutability":"nonpayable"},{"type":"function","name":"balanceOf","inputs":[{"name":"account","type":"address","internalType":"address"}],"outputs":[{"name":"","type":"uint256","internalType":"uint256"}],"stateMutability":"view"},{"type":"function","name":"currentSupply","inputs":[],"outputs":[{"name":"","type":"uint256","internalType":"uint256"}],"stateMutability":"view"},{"type":"function","name":"decimals","inputs":[],"outputs":[{"name":"","type":"uint8","internalType":"uint8"}],"stateMutability":"view"},{"type":"function","name":"mint","inputs":[{"name":"_to","type":"address","internalType":"address"},{"name":"_amount","type":"uint256","internalType":"uint256"}],"outputs":[],"stateMutability":"nonpayable"},{"type":"function","name":"name","inputs":[],"outputs":[{"name":"","type":"string","internalType":"string"}],"stateMutability":"view"},{"type":"function","name":"owner","inputs":[],"outputs":[{"name":"","type":"address","internalType":"address"}],"stateMutability":"view"},{"type":"function","name":"renounceOwnership","inputs":[],"outputs":[],"stateMutability":"nonpayable"},{"type":"function","name":"symbol","inputs":[],"outputs":[{"name":"","type":"string","internalType":"string"}],"stateMutability":"view"},{"type":"function","name":"totalSupply","inputs":[],"outputs":[{"name":"","type":"uint256","internalType":"uint256"}],"stateMutability":"view"},{"type":"function","name":"transfer","inputs":[{"name":"to","type":"address","internalType":"address"},{"name":"value","type":"uint256","internalType":"uint256"}],"outputs":[{"name":"","type":"bool","internalType":"bool"}],"stateMutability":"nonpayable"},{"type":"function","name":"transferFrom","inputs":[{"name":"from","type":"address","internalType":"address"},{"name":"to","type":"address","internalType":"address"},{"name":"value","type":"uint256","internalType":"uint256"}],"outputs":[{"name":"","type":"bool","internalType":"bool"}],"stateMutability":"nonpayable"},{"type":"function","name":"transferOwnership","inputs":[{"name":"newOwner","type":"address","internalType":"address"}],"outputs":[],"stateMutability":"nonpayable"},{"type":"event","name":"Approval","inputs":[{"name":"owner","type":"address","indexed":true,"internalType":"address"},{"name":"spender","type":"address","indexed":true,"internalType":"address"},{"name":"value","type":"uint256","indexed":false,"internalType":"uint256"}],"anonymous":false},{"type":"event","name":"OwnershipTransferred","inputs":[{"name":"previousOwner","type":"address","indexed":true,"internalType":"address"},{"name":"newOwner","type":"address","indexed":true,"internalType":"address"}],"anonymous":false},{"type":"event","name":"Transfer","inputs":[{"name":"from","type":"address","indexed":true,"internalType":"address"},{"name":"to","type":"address","indexed":true,"internalType":"address"},{"name":"value","type":"uint256","indexed":false,"internalType":"uint256"}],"anonymous":false},{"type":"error","name":"ERC20InsufficientAllowance","inputs":[{"name":"spender","type":"address","internalType":"address"},{"name":"allowance","type":"uint256","internalType":"uint256"},{"name":"needed","type":"uint256","internalType":"uint256"}]},{"type":"error","name":"ERC20InsufficientBalance","inputs":[{"name":"sender","type":"address","internalType":"address"},{"name":"balance","type":"uint256","internalType":"uint256"},{"name":"needed","type":"uint256","internalType":"uint256"}]},{"type":"error","name":"ERC20InvalidApprover","inputs":[{"name":"approver","type":"address","internalType":"address"}]},{"type":"error","name":"ERC20InvalidReceiver","inputs":[{"name":"receiver","type":"address","internalType":"address"}]},{"type":"error","name":"ERC20InvalidSender","inputs":[{"name":"sender","type":"address","internalType":"address"}]},{"type":"error","name":"ERC20InvalidSpender","inputs":[{"name":"spender","type":"address","internalType":"address"}]},{"type":"error","name":"OwnableInvalidOwner","inputs":[{"name":"owner","type":"address","internalType":"address"}]},{"type":"error","name":"OwnableUnauthorizedAccount","inputs":[{"name":"account","type":"address","internalType":"address"}]}],"bytecode":{"object":"0x608060405260006006553480156200001657600080fd5b5060405162000e3b38038062000e3b83398101604081905262000039916200034a565b33838360036200004a83826200044e565b5060046200005982826200044e565b5050506001600160a01b0381166200008c57604051631e4fbdf760e01b8152600060048201526024015b60405180910390fd5b6200009781620000bf565b50620000b6620000af6005546001600160a01b031690565b8262000111565b50505062000542565b600580546001600160a01b038381166001600160a01b0319831681179093556040519116919082907f8be0079c531659141344cd1fd0a4f28419497f9722a3daafe3b4186f6b6457e090600090a35050565b6001600160a01b0382166200013d5760405163ec442f0560e01b81526000600482015260240162000083565b6200014b600083836200014f565b5050565b6001600160a01b0383166200017e5780600260008282546200017291906200051a565b90915550620001f29050565b6001600160a01b03831660009081526020819052604090205481811015620001d35760405163391434e360e21b81526001600160a01b0385166004820152602481018290526044810183905260640162000083565b6001600160a01b03841660009081526020819052604090209082900390555b6001600160a01b03821662000210576002805482900390556200022f565b6001600160a01b03821660009081526020819052604090208054820190555b816001600160a01b0316836001600160a01b03167fddf252ad1be2c89b69c2b068fc378daa952ba7f163c4a11628f55a4df523b3ef836040516200027591815260200190565b60405180910390a3505050565b634e487b7160e01b600052604160045260246000fd5b600082601f830112620002aa57600080fd5b81516001600160401b0380821115620002c757620002c762000282565b604051601f8301601f19908116603f01168101908282118183101715620002f257620002f262000282565b81604052838152602092508660208588010111156200031057600080fd5b600091505b8382101562000334578582018301518183018401529082019062000315565b6000602085830101528094505050505092915050565b6000806000606084860312156200036057600080fd5b83516001600160401b03808211156200037857600080fd5b620003868783880162000298565b945060208601519150808211156200039d57600080fd5b50620003ac8682870162000298565b925050604084015190509250925092565b600181811c90821680620003d257607f821691505b602082108103620003f357634e487b7160e01b600052602260045260246000fd5b50919050565b601f82111562000449576000816000526020600020601f850160051c81016020861015620004245750805b601f850160051c820191505b81811015620004455782815560010162000430565b5050505b505050565b81516001600160401b038111156200046a576200046a62000282565b62000482816200047b8454620003bd565b84620003f9565b602080601f831160018114620004ba5760008415620004a15750858301515b600019600386901b1c1916600185901b17855562000445565b600085815260208120601f198616915b82811015620004eb57888601518255948401946001909101908401620004ca565b50858210156200050a5787850151600019600388901b60f8161c191681555b5050505050600190811b01905550565b808201808211156200053c57634e487b7160e01b600052601160045260246000fd5b92915050565b6108e980620005526000396000f3fe608060405234801561001057600080fd5b50600436106100ea5760003560e01c8063715018a61161008c57806395d89b411161006657806395d89b41146101ce578063a9059cbb146101d6578063dd62ed3e146101e9578063f2fde38b1461022257600080fd5b8063715018a6146101a2578063771282f6146101aa5780638da5cb5b146101b357600080fd5b806323b872dd116100c857806323b872dd14610142578063313ce5671461015557806340c10f191461016457806370a082311461017957600080fd5b806306fdde03146100ef578063095ea7b31461010d57806318160ddd14610130575b600080fd5b6100f7610235565b6040516101049190610732565b60405180910390f35b61012061011b36600461079d565b6102c7565b6040519015158152602001610104565b6002545b604051908152602001610104565b6101206101503660046107c7565b6102e1565b60405160128152602001610104565b61017761017236600461079d565b610305565b005b610134610187366004610803565b6001600160a01b031660009081526020819052604090205490565b61017761031b565b61013460065481565b6005546040516001600160a01b039091168152602001610104565b6100f761032f565b6101206101e436600461079d565b61033e565b6101346101f7366004610825565b6001600160a01b03918216600090815260016020908152604080832093909416825291909152205490565b610177610230366004610803565b61034c565b60606003805461024490610858565b80601f016020809104026020016040519081016040528092919081815260200182805461027090610858565b80156102bd5780601f10610292576101008083540402835291602001916102bd565b820191906000526020600020905b8154815290600101906020018083116102a057829003601f168201915b5050505050905090565b6000336102d581858561038f565b60019150505b92915050565b6000336102ef8582856103a1565b6102fa85858561041f565b506001949350505050565b61030d61047e565b61031782826104ab565b5050565b61032361047e565b61032d60006104e1565b565b60606004805461024490610858565b6000336102d581858561041f565b61035461047e565b6001600160a01b03811661038357604051631e4fbdf760e01b8152600060048201526024015b60405180910390fd5b61038c816104e1565b50565b61039c8383836001610533565b505050565b6001600160a01b038381166000908152600160209081526040808320938616835292905220546000198114610419578181101561040a57604051637dc7a0d960e11b81526001600160a01b0384166004820152602481018290526044810183905260640161037a565b61041984848484036000610533565b50505050565b6001600160a01b03831661044957604051634b637e8f60e11b81526000600482015260240161037a565b6001600160a01b0382166104735760405163ec442f0560e01b81526000600482015260240161037a565b61039c838383610608565b6005546001600160a01b0316331461032d5760405163118cdaa760e01b815233600482015260240161037a565b6001600160a01b0382166104d55760405163ec442f0560e01b81526000600482015260240161037a565b61031760008383610608565b600580546001600160a01b038381166001600160a01b0319831681179093556040519116919082907f8be0079c531659141344cd1fd0a4f28419497f9722a3daafe3b4186f6b6457e090600090a35050565b6001600160a01b03841661055d5760405163e602df0560e01b81526000600482015260240161037a565b6001600160a01b03831661058757604051634a1406b160e11b81526000600482015260240161037a565b6001600160a01b038085166000908152600160209081526040808320938716835292905220829055801561041957826001600160a01b0316846001600160a01b03167f8c5be1e5ebec7d5bd14f71427d1e84f3dd0314c0f7b2291e5b200ac8c7c3b925846040516105fa91815260200190565b60405180910390a350505050565b6001600160a01b0383166106335780600260008282546106289190610892565b909155506106a59050565b6001600160a01b038316600090815260208190526040902054818110156106865760405163391434e360e21b81526001600160a01b0385166004820152602481018290526044810183905260640161037a565b6001600160a01b03841660009081526020819052604090209082900390555b6001600160a01b0382166106c1576002805482900390556106e0565b6001600160a01b03821660009081526020819052604090208054820190555b816001600160a01b0316836001600160a01b03167fddf252ad1be2c89b69c2b068fc378daa952ba7f163c4a11628f55a4df523b3ef8360405161072591815260200190565b60405180910390a3505050565b60006020808352835180602085015260005b8181101561076057858101830151858201604001528201610744565b506000604082860101526040601f19601f8301168501019250505092915050565b80356001600160a01b038116811461079857600080fd5b919050565b600080604083850312156107b057600080fd5b6107b983610781565b946020939093013593505050565b6000806000606084860312156107dc57600080fd5b6107e584610781565b92506107f360208501610781565b9150604084013590509250925092565b60006020828403121561081557600080fd5b61081e82610781565b9392505050565b6000806040838503121561083857600080fd5b61084183610781565b915061084f60208401610781565b90509250929050565b600181811c9082168061086c57607f821691505b60208210810361088c57634e487b7160e01b600052602260045260246000fd5b50919050565b808201808211156102db57634e487b7160e01b600052601160045260246000fdfea2646970667358221220411b3f6ffd66b1c991a5ce9542e3e62f666a0b4a6e9e94d7af1ec684526691fd64736f6c63430008180033","linkReferences":{}},"methodIdentifiers":{"allowance(address,address)":"dd62ed3e","approve(address,uint256)":"095ea7b3","balanceOf(address)":"70a08231","currentSupply()":"771282f6","decimals()":"313ce567","mint(address,uint256)":"40c10f19","name()":"06fdde03","owner()":"8da5cb5b","renounceOwnership()":"715018a6","symbol()":"95d89b41","totalSupply()":"18160ddd","transfer(address,uint256)":"a9059cbb","transferFrom(address,address,uint256)":"23b872dd","transferOwnership(address)":"f2fde38b"},"id":104}