{"abi":[{"type":"function","name":"addStake","inputs":[],"outputs":[],"stateMutability":"payable"},{"type":"function","name":"fund","inputs":[{"name":"subnetId","type":"tuple","internalType":"struct SubnetID","components":[{"name":"root","type":"uint64","internalType":"uint64"},{"name":"route","type":"address[]","internalType":"address[]"}]},{"name":"to","type":"tuple","internalType":"struct FvmAddress","components":[{"name":"addrType","type":"uint8","internalType":"uint8"},{"name":"payload","type":"bytes","internalType":"bytes"}]}],"outputs":[],"stateMutability":"payable"},{"type":"function","name":"fundWithToken","inputs":[{"name":"subnetId","type":"tuple","internalType":"struct SubnetID","components":[{"name":"root","type":"uint64","internalType":"uint64"},{"name":"route","type":"address[]","internalType":"address[]"}]},{"name":"to","type":"tuple","internalType":"struct FvmAddress","components":[{"name":"addrType","type":"uint8","internalType":"uint8"},{"name":"payload","type":"bytes","internalType":"bytes"}]},{"name":"amount","type":"uint256","internalType":"uint256"}],"outputs":[],"stateMutability":"nonpayable"},{"type":"function","name":"kill","inputs":[],"outputs":[],"stateMutability":"nonpayable"},{"type":"function","name":"register","inputs":[{"name":"genesisCircSupply","type":"uint256","internalType":"uint256"}],"outputs":[],"stateMutability":"payable"},{"type":"function","name":"release","inputs":[{"name":"to","type":"tuple","internalType":"struct FvmAddress","components":[{"name":"addrType","type":"uint8","internalType":"uint8"},{"name":"payload","type":"bytes","internalType":"bytes"}]}],"outputs":[],"stateMutability":"payable"},{"type":"function","name":"releaseStake","inputs":[{"name":"amount","type":"uint256","internalType":"uint256"}],"outputs":[],"stateMutability":"nonpayable"},{"type":"function","name":"withdraw12345","inputs":[],"outputs":[],"stateMutability":"nonpayable"},{"type":"event","name":"NewBottomUpMsgBatch","inputs":[{"name":"epoch","type":"uint256","indexed":true,"internalType":"uint256"},{"name":"batch","type":"tuple","indexed":false,"internalType":"struct BottomUpMsgBatch","components":[{"name":"subnetID","type":"tuple","internalType":"struct SubnetID","components":[{"name":"root","type":"uint64","internalType":"uint64"},{"name":"route","type":"address[]","internalType":"address[]"}]},{"name":"blockHeight","type":"uint256","internalType":"uint256"},{"name":"msgs","type":"tuple[]","internalType":"struct IpcEnvelope[]","components":[{"name":"kind","type":"uint8","internalType":"enum IpcMsgKind"},{"name":"to","type":"tuple","internalType":"struct IPCAddress","components":[{"name":"subnetId","type":"tuple","internalType":"struct SubnetID","components":[{"name":"root","type":"uint64","internalType":"uint64"},{"name":"route","type":"address[]","internalType":"address[]"}]},{"name":"rawAddress","type":"tuple","internalType":"struct FvmAddress","components":[{"name":"addrType","type":"uint8","internalType":"uint8"},{"name":"payload","type":"bytes","internalType":"bytes"}]}]},{"name":"from","type":"tuple","internalType":"struct IPCAddress","components":[{"name":"subnetId","type":"tuple","internalType":"struct SubnetID","components":[{"name":"root","type":"uint64","internalType":"uint64"},{"name":"route","type":"address[]","internalType":"address[]"}]},{"name":"rawAddress","type":"tuple","internalType":"struct FvmAddress","components":[{"name":"addrType","type":"uint8","internalType":"uint8"},{"name":"payload","type":"bytes","internalType":"bytes"}]}]},{"name":"nonce","type":"uint64","internalType":"uint64"},{"name":"value","type":"uint256","internalType":"uint256"},{"name":"message","type":"bytes","internalType":"bytes"}]}]}],"anonymous":false},{"type":"event","name":"NewTopDownMessage","inputs":[{"name":"subnet","type":"address","indexed":true,"internalType":"address"},{"name":"message","type":"tuple","indexed":false,"internalType":"struct IpcEnvelope","components":[{"name":"kind","type":"uint8","internalType":"enum IpcMsgKind"},{"name":"to","type":"tuple","internalType":"struct IPCAddress","components":[{"name":"subnetId","type":"tuple","internalType":"struct SubnetID","components":[{"name":"root","type":"uint64","internalType":"uint64"},{"name":"route","type":"address[]","internalType":"address[]"}]},{"name":"rawAddress","type":"tuple","internalType":"struct FvmAddress","components":[{"name":"addrType","type":"uint8","internalType":"uint8"},{"name":"payload","type":"bytes","internalType":"bytes"}]}]},{"name":"from","type":"tuple","internalType":"struct IPCAddress","components":[{"name":"subnetId","type":"tuple","internalType":"struct SubnetID","components":[{"name":"root","type":"uint64","internalType":"uint64"},{"name":"route","type":"address[]","internalType":"address[]"}]},{"name":"rawAddress","type":"tuple","internalType":"struct FvmAddress","components":[{"name":"addrType","type":"uint8","internalType":"uint8"},{"name":"payload","type":"bytes","internalType":"bytes"}]}]},{"name":"nonce","type":"uint64","internalType":"uint64"},{"name":"value","type":"uint256","internalType":"uint256"},{"name":"message","type":"bytes","internalType":"bytes"}]}],"anonymous":false},{"type":"event","name":"Transferred","inputs":[{"name":"","type":"bool","indexed":false,"internalType":"bool"}],"anonymous":false},{"type":"error","name":"AddressEmptyCode","inputs":[{"name":"target","type":"address","internalType":"address"}]},{"type":"error","name":"AddressInsufficientBalance","inputs":[{"name":"account","type":"address","internalType":"address"}]},{"type":"error","name":"AlreadyRegisteredSubnet","inputs":[]},{"type":"error","name":"CallFailed","inputs":[]},{"type":"error","name":"CannotReleaseZero","inputs":[]},{"type":"error","name":"FailedInnerCall","inputs":[]},{"type":"error","name":"InsufficientFunds","inputs":[]},{"type":"error","name":"InvalidActorAddress","inputs":[]},{"type":"error","name":"InvalidXnetMessage","inputs":[{"name":"reason","type":"uint8","internalType":"enum InvalidXnetMessageReason"}]},{"type":"error","name":"MethodNotAllowed","inputs":[{"name":"reason","type":"string","internalType":"string"}]},{"type":"error","name":"NotEmptySubnetCircSupply","inputs":[]},{"type":"error","name":"NotEnoughFunds","inputs":[]},{"type":"error","name":"NotEnoughFundsToRelease","inputs":[]},{"type":"error","name":"NotRegisteredSubnet","inputs":[]},{"type":"error","name":"ReentrancyError","inputs":[]},{"type":"error","name":"SafeERC20FailedOperation","inputs":[{"name":"token","type":"address","internalType":"address"}]},{"type":"error","name":"UnexpectedSupplySource","inputs":[]}],"bytecode":{"object":"0x608060405234801561001057600080fd5b5061332d806100206000396000f3fe60806040526004361061007b5760003560e01c80635a627dbc1161004e5780635a627dbc146100ea5780636b2c1eef146100f2578063eddaf11c14610105578063f207564e1461011a57600080fd5b80630517e1aa1461008057806318f44b70146100a257806341c0e1b5146100b557806345f54485146100ca575b600080fd5b34801561008c57600080fd5b506100a061009b366004612538565b61012d565b005b6100a06100b03660046125a4565b610337565b3480156100c157600080fd5b506100a0610515565b3480156100d657600080fd5b506100a06100e5366004612607565b610727565b6100a061090a565b6100a0610100366004612620565b610976565b34801561011157600080fd5b506100a0610a3a565b6100a0610128366004612607565b610b14565b7f691bb03ffc16c56fc96b82fd16cd1b3715f0bc3cdc6407005f49bb6205860095805460001901610171576040516329f745a760e01b815260040160405180910390fd5b6001815560008290036101a357600360405163bc0f01cf60e01b815260040161019a9190612672565b60405180910390fd5b60006101ae85612769565b604051632cff562160e11b815273__$a0fe38a9a81205afccc10810b09a4d3f45$__916359feac42916101e49190600401612890565b602060405180830381865af4158015610201573d6000803e3d6000fd5b505050506040513d601f19601f8201168201806040525081019061022591906128a3565b6001600160a01b03166380875df76040518163ffffffff1660e01b81526004016040805180830381865afa158015610261573d6000803e3d6000fd5b505050506040513d601f19601f8201168201806040525081019061028591906128c0565b9050610292816001610de7565b61029c8184610e2a565b60405163266a83ad60e21b815260009073__$33b79814e84bf6cf5e47244090b19ce5f8$__906399aa0eb4906102dc90899033908a908a9060040161299d565b600060405180830381865af41580156102f9573d6000803e3d6000fd5b505050506040513d6000823e601f3d908101601f191682016040526103219190810190612c91565b905061032c81610e63565b505060009055505050565b3460000361035b57600360405163bc0f01cf60e01b815260040161019a9190612672565b600061036e61036984612769565b61103c565b5090508061038f57604051630e991abd60e41b815260040160405180910390fd5b600061039a84612769565b604051632cff562160e11b815273__$a0fe38a9a81205afccc10810b09a4d3f45$__916359feac42916103d09190600401612890565b602060405180830381865af41580156103ed573d6000803e3d6000fd5b505050506040513d601f19601f8201168201806040525081019061041191906128a3565b6001600160a01b03166380875df76040518163ffffffff1660e01b81526004016040805180830381865afa15801561044d573d6000803e3d6000fd5b505050506040513d601f19601f8201168201806040525081019061047191906128c0565b905061047e816000610de7565b60405163266a83ad60e21b815260009073__$33b79814e84bf6cf5e47244090b19ce5f8$__906399aa0eb4906104be90889033908990349060040161299d565b600060405180830381865af41580156104db573d6000803e3d6000fd5b505050506040513d6000823e601f3d908101601f191682016040526105039190810190612c91565b905061050e81610e63565b5050505050565b600080610521336111d0565b915091508161054357604051630e991abd60e41b815260040160405180910390fd5b60028101541561056657604051637c67c70160e11b815260040160405180910390fd5b80546040805180820182526004840180546001600160401b031682526005850180548451602082810282018101909652818152600095808601939192908301828280156105dc57602002820191906000526020600020905b81546001600160a01b031681526001909101906020018083116105be575b5050509190925250506040516390ba52cf60e01b815273__$a0fe38a9a81205afccc10810b09a4d3f45$__926390ba52cf925061061b91600401612890565b602060405180830381865af4158015610638573d6000803e3d6000fd5b505050506040513d601f19601f8201168201806040525081019061065c9190612d71565b60038054919250600191601090610684908490600160801b90046001600160401b0316612da0565b82546001600160401b039182166101009390930a9283029190920219909116179055506000818152601f6020526040812081815560018101829055600281018290556003810180546fffffffffffffffffffffffffffffffff191690556004810180546001600160401b031916815590919081610704600585018261229b565b5061071692506024915083905061130b565b506107213383611320565b50505050565b7f691bb03ffc16c56fc96b82fd16cd1b3715f0bc3cdc6407005f49bb620586009580546000190161076b576040516329f745a760e01b815260040160405180910390fd5b6001815560008290036107915760405163c79cad7b60e01b815260040160405180910390fd5b60008061079d336111d0565b91509150816107bf57604051630e991abd60e41b815260040160405180910390fd5b80548411156107e1576040516379b33e7960e01b815260040160405180910390fd5b838160000160008282546107f59190612dc0565b90915550506040805180820182526004830180546001600160401b031682526005840180548451602082810282018101909652818152610901958a95949381860193909183018282801561087257602002820191906000526020600020905b81546001600160a01b03168152600190910190602001808311610854575b505050919092525050604051632cff562160e11b815273__$a0fe38a9a81205afccc10810b09a4d3f45$__926359feac4292506108b191600401612890565b602060405180830381865af41580156108ce573d6000803e3d6000fd5b505050506040513d601f19601f820116820180604052508101906108f291906128a3565b6001600160a01b031690611320565b50506000905550565b3460000361092b57604051631036b5ad60e31b815260040160405180910390fd5b600080610937336111d0565b915091508161095957604051630e991abd60e41b815260040160405180910390fd5b3481600001600082825461096d9190612dd3565b90915550505050565b3460000361099a57600360405163bc0f01cf60e01b815260040161019a9190612672565b604051630c30422f60e11b815260009073__$33b79814e84bf6cf5e47244090b19ce5f8$__90631860845e906109db90601290339087903490600401612e55565b600060405180830381865af41580156109f8573d6000803e3d6000fd5b505050506040513d6000823e601f3d908101601f19168201604052610a209190810190612c91565b9050610a2b816113b5565b610a36606334611320565b5050565b60405163a9059cbb60e01b815273f8369061ec7e245d911aec1e4a679760d8d1a5306004820152678ac7230489e800006024820152600090737bf7e9028d63cd79cf17029c7f76c281424a36109063a9059cbb906044016020604051808303816000875af1158015610ab0573d6000803e3d6000fd5b505050506040513d601f19601f82011682018060405250810190610ad49190612e9b565b90507f1a6483e82a4650c8e1045b23a64892b7d0ab56ac88d4cfb791c4bb1fa06877d181604051610b09911515815260200190565b60405180910390a150565b60065460135460ff90911690610b2b906001612dd3565b10610b63576040518060600160405280602381526020016132d56023913960405163015538b160e01b815260040161019a9190612ee9565b80341015610b8457604051631036b5ad60e31b815260040160405180910390fd5b6000610b908234612dc0565b604080518082018252601280546001600160401b03168252601380548451602082810282018101909652818152959650600095939492938386019390929190830182828015610c0857602002820191906000526020600020905b81546001600160a01b03168152600190910190602001808311610bea575b50505091909252505060405163aa5106cb60e01b815273__$a0fe38a9a81205afccc10810b09a4d3f45$__9263aa5106cb9250610c49913390600401612efc565b600060405180830381865af4158015610c66573d6000803e3d6000fd5b505050506040513d6000823e601f3d908101601f19168201604052610c8e9190810190612f26565b9050600080610c9c8361103c565b915091508115610cbf57604051631b538cdf60e11b815260040160405180910390fd5b82516004820180546001600160401b0319166001600160401b039092169190911781556020808501518051869392610cfe9260058701929101906122b9565b505050838155436001820155600281018590556040516390ba52cf60e01b8152610d959073__$a0fe38a9a81205afccc10810b09a4d3f45$__906390ba52cf90610d4c908790600401612890565b602060405180830381865af4158015610d69573d6000803e3d6000fd5b505050506040513d601f19601f82011682018060405250810190610d8d9190612d71565b602490611d24565b506003805460019190601090610dbc908490600160801b90046001600160401b0316612f5a565b92506101000a8154816001600160401b0302191690836001600160401b031602179055505050505050565b806001811115610df957610df961265c565b82516001811115610e0c57610e0c61265c565b14610a36576040516340772cb360e11b815260040160405180910390fd5b600182516001811115610e3f57610e3f61265c565b03610a36576020820151610e5e6001600160a01b038216333085611d30565b505050565b60208101515160405163089032d560e01b8152600091829173__$a0fe38a9a81205afccc10810b09a4d3f45$__9163089032d591610ea79190601290600401612f7a565b600060405180830381865af4158015610ec4573d6000803e3d6000fd5b505050506040513d6000823e601f3d908101601f19168201604052610eec9190810190612f26565b9050600080610efa8361103c565b9150915081610f1c57604051630e991abd60e41b815260040160405180910390fd5b60038101546001600160401b031660608601819052610f3c816001612f5a565b6003830180546001600160401b0319166001600160401b03929092169190911790556080860151600283018054600090610f77908490612dd3565b90915550506040516304e384ff60e21b815273__$a0fe38a9a81205afccc10810b09a4d3f45$__9063138e13fc90610fb3908790600401612890565b602060405180830381865af4158015610fd0573d6000803e3d6000fd5b505050506040513d601f19601f82011682018060405250810190610ff491906128a3565b6001600160a01b03167ffdd39ce2560484814971f663392e78ae37dc62ba184b3370d830371dd271a8b78760405161102c919061306f565b60405180910390a2505050505050565b6040516390ba52cf60e01b815260009081908190601f90829073__$a0fe38a9a81205afccc10810b09a4d3f45$__906390ba52cf9061107f908990600401612890565b602060405180830381865af415801561109c573d6000803e3d6000fd5b505050506040513d601f19601f820116820180604052508101906110c09190612d71565b81526020808201929092526040908101600020815180830183526004820180546001600160401b03168252600583018054855181880281018801909652808652939750919490938582019390929183018282801561114757602002820191906000526020600020905b81546001600160a01b03168152600190910190602001808311611129575b505050919092525050604051630c133d1360e31b815273__$a0fe38a9a81205afccc10810b09a4d3f45$__92636099e898925061118691600401612890565b602060405180830381865af41580156111a3573d6000803e3d6000fd5b505050506040513d601f19601f820116820180604052508101906111c79190612e9b565b15925050915091565b600080806001600160a01b0384166111fb576040516370e4510960e01b815260040160405180910390fd5b6040805180820182526012830180546001600160401b0316825260138401805484516020828102820181019096528181526000958086019391929083018282801561126f57602002820191906000526020600020905b81546001600160a01b03168152600190910190602001808311611251575b50505091909252505060405163aa5106cb60e01b815273__$a0fe38a9a81205afccc10810b09a4d3f45$__9263aa5106cb92506112b0918990600401612efc565b600060405180830381865af41580156112cd573d6000803e3d6000fd5b505050506040513d6000823e601f3d908101601f191682016040526112f59190810190612f26565b90506113008161103c565b935093505050915091565b60006113178383611d8a565b90505b92915050565b804710156113415760405163356680b760e01b815260040160405180910390fd5b6000826001600160a01b03168260405160006040518083038185875af1925050503d806000811461138e576040519150601f19603f3d011682016040523d82523d6000602084013e611393565b606091505b5050905080610e5e57604051633204506f60e01b815260040160405180910390fd5b6000806113c6438360010154611e84565b6003830180546001600160401b0316606086018190529192506001916000906113f0908490612f5a565b92506101000a8154816001600160401b0302191690836001600160401b031602179055506000806114338360009081526023602052604090206002810154151591565b91509150816116175760128401805482546001600160401b0319166001600160401b0390911617825560138501805483916114739160018401919061231e565b505050600280820184905560038201805460018181018355600092835260209092208851600c90920201805489949193849260ff199092169184908111156114bd576114bd61265c565b0217905550602082810151805180516001850180546001600160401b0319166001600160401b0390921691909117815581840151805193949193849261150a9260028901929101906122b9565b505050602082810151805160028401805460ff191660ff9092169190911781559181015190919060038401906115409082613106565b505050506040830151805180516005850180546001600160401b0319166001600160401b0390921691909117815560208083015180519495509193849261158e9260068901929101906122b9565b505050602082810151805160028401805460ff191660ff9092169190911781559181015190919060038401906115c49082613106565b5050505060608301516009830180546001600160401b0319166001600160401b03909216919091179055506080820151600a82015560a0820151600b82019061160d9082613106565b5050505050505050565b60038481015490820154600160c01b9091046001600160401b03169003611ce5576040805160a0810182526012860180546001600160401b031660608301908152601388018054855160208281028201810190975281815243966000969586959490936080870193928301828280156116b957602002820191906000526020600020905b81546001600160a01b0316815260019091019060200180831161169b575b505050505081525050815260200183815260200184600301805490506001600160401b038111156116ec576116ec61268c565b60405190808252806020026020018201604052801561172557816020015b61171261235e565b81526020019060019003908161170a5790505b509052600384015490915060005b81811015611afb57846003018181548110611750576117506131c5565b600091825260209091206040805160c08101909152600c909202018054829060ff1660028111156117835761178361265c565b60028111156117945761179461265c565b8152604080516080810182526001840180546001600160401b031682840190815260028601805485516020828102820181019097528181529686019694959394869486936060870193909183018282801561181857602002820191906000526020600020905b81546001600160a01b031681526001909101906020018083116117fa575b5050509190925250505081526040805180820190915260028301805460ff1682526003840180546020948501948401919061185290613082565b80601f016020809104026020016040519081016040528092919081815260200182805461187e90613082565b80156118cb5780601f106118a0576101008083540402835291602001916118cb565b820191906000526020600020905b8154815290600101906020018083116118ae57829003601f168201915b505050919092525050509052508152604080516080810182526005840180546001600160401b031682840190815260068601805485516020828102820181019097528181529686019694959394869486936060870193909183018282801561195c57602002820191906000526020600020905b81546001600160a01b0316815260019091019060200180831161193e575b5050509190925250505081526040805180820190915260028301805460ff1682526003840180546020948501948401919061199690613082565b80601f01602080910402602001604051908101604052809291908181526020018280546119c290613082565b8015611a0f5780601f106119e457610100808354040283529160200191611a0f565b820191906000526020600020905b8154815290600101906020018083116119f257829003601f168201915b50505091909252505050905250815260098201546001600160401b03166020820152600a8201546040820152600b82018054606090920191611a5090613082565b80601f0160208091040260200160405190810160405280929190818152602001828054611a7c90613082565b8015611ac95780601f10611a9e57610100808354040283529160200191611ac9565b820191906000526020600020905b815481529060010190602001808311611aac57829003601f168201915b50505050508152505083604001518281518110611ae857611ae86131c5565b6020908102919091010152600101611733565b50827f0b1b135d7eb5326c8c53b4b711f8ace381cbfe4326102b012b9ccd2852abaa5883604051611b2c91906131db565b60405180910390a2611b4260038501600061239f565b60038401805460018181018355600092835260209092208a51600c9092020180548b93919291839160ff191690836002811115611b8157611b8161265c565b0217905550602082810151805180516001850180546001600160401b0319166001600160401b03909216919091178155818401518051939491938492611bce9260028901929101906122b9565b505050602082810151805160028401805460ff191660ff909216919091178155918101519091906003840190611c049082613106565b505050506040830151805180516005850180546001600160401b0319166001600160401b03909216919091178155602080830151805194955091938492611c529260068901929101906122b9565b505050602082810151805160028401805460ff191660ff909216919091178155918101519091906003840190611c889082613106565b5050505060608301516009830180546001600160401b0319166001600160401b03909216919091179055506080820151600a82015560a0820151600b820190611cd19082613106565b505050611cdd82611eaf565b50505061050e565b60038101805460018181018355600092835260209092208751600c9092020180548893919291839160ff1916908360028111156114bd576114bd61265c565b600061131783836120dd565b604080516001600160a01b0385811660248301528416604482015260648082018490528251808303909101815260849091019091526020810180516001600160e01b03166323b872dd60e01b17905261072190859061212c565b60008181526001830160205260408120548015611e73576000611dae600183612dc0565b8554909150600090611dc290600190612dc0565b9050808214611e27576000866000018281548110611de257611de26131c5565b9060005260206000200154905080876000018481548110611e0557611e056131c5565b6000918252602080832090910192909255918252600188019052604090208390555b8554869080611e3857611e38613269565b60019003818190600052602060002001600090559055856001016000868152602001908152602001600020600090556001935050505061131a565b600091505061131a565b5092915050565b600081611e9a816001600160401b03861661327f565b611ea5906001612dd3565b61131791906132a1565b602081810151600090815260238252604081208351805182546001600160401b0319166001600160401b039091161782558084015180519394929391928492611efe92600185019201906122b9565b5050506020830151600282015560408301515160005b8181101561050e578260030185604001518281518110611f3657611f366131c5565b6020908102919091018101518254600181810185556000948552929093208151600c909402018054919390929091839160ff1990911690836002811115611f7f57611f7f61265c565b0217905550602082810151805180516001850180546001600160401b0319166001600160401b03909216919091178155818401518051939491938492611fcc9260028901929101906122b9565b505050602082810151805160028401805460ff191660ff9092169190911781559181015190919060038401906120029082613106565b505050506040830151805180516005850180546001600160401b0319166001600160401b039092169190911781556020808301518051949550919384926120509260068901929101906122b9565b505050602082810151805160028401805460ff191660ff9092169190911781559181015190919060038401906120869082613106565b5050505060608301516009830180546001600160401b0319166001600160401b03909216919091179055506080820151600a82015560a0820151600b8201906120cf9082613106565b505050806001019050611f14565b60008181526001830160205260408120546121245750815460018181018455600084815260208082209093018490558454848252828601909352604090209190915561131a565b50600061131a565b60006121416001600160a01b0384168361218f565b905080516000141580156121665750808060200190518101906121649190612e9b565b155b15610e5e57604051635274afe760e01b81526001600160a01b038416600482015260240161019a565b60606113178383600084600080856001600160a01b031684866040516121b591906132b8565b60006040518083038185875af1925050503d80600081146121f2576040519150601f19603f3d011682016040523d82523d6000602084013e6121f7565b606091505b5091509150612207868383612213565b925050505b9392505050565b606082612228576122238261226f565b61220c565b815115801561223f57506001600160a01b0384163b155b1561226857604051639996b31560e01b81526001600160a01b038516600482015260240161019a565b508061220c565b80511561227f5780518082602001fd5b604051630a12f52160e11b815260040160405180910390fd5b50565b508054600082559060005260206000209081019061229891906123c0565b82805482825590600052602060002090810192821561230e579160200282015b8281111561230e57825182546001600160a01b0319166001600160a01b039091161782556020909201916001909101906122d9565b5061231a9291506123c0565b5090565b82805482825590600052602060002090810192821561230e5760005260206000209182015b8281111561230e578254825591600101919060010190612343565b6040805160c0810190915280600081526020016123796123d5565b81526020016123866123d5565b8152600060208201819052604082015260609081015290565b50805460008255600c0290600052602060002090810190612298919061241a565b5b8082111561231a57600081556001016123c1565b60408051608081018252600091810191825260608082015290819081526020016124156040518060400160405280600060ff168152602001606081525090565b905290565b8082111561231a57805460ff191681556001810180546001600160401b031916815560009081818161244f600287018261229b565b505060028201805460ff19168155600061246c60038501826124e6565b505050506005820180546001600160401b031916815560008181612493600687018261229b565b505060028201805460ff1916815560006124b060038501826124e6565b505050506009820180546001600160401b03191690556000600a83018190556124dd90600b8401906124e6565b50600c0161241a565b5080546124f290613082565b6000825580601f10612502575050565b601f01602090049060005260206000209081019061229891906123c0565b60006040828403121561253257600080fd5b50919050565b60008060006060848603121561254d57600080fd5b83356001600160401b038082111561256457600080fd5b61257087838801612520565b9450602086013591508082111561258657600080fd5b5061259386828701612520565b925050604084013590509250925092565b600080604083850312156125b757600080fd5b82356001600160401b03808211156125ce57600080fd5b6125da86838701612520565b935060208501359150808211156125f057600080fd5b506125fd85828601612520565b9150509250929050565b60006020828403121561261957600080fd5b5035919050565b60006020828403121561263257600080fd5b81356001600160401b0381111561264857600080fd5b61265484828501612520565b949350505050565b634e487b7160e01b600052602160045260246000fd5b60208101600583106126865761268661265c565b91905290565b634e487b7160e01b600052604160045260246000fd5b604080519081016001600160401b03811182821017156126c4576126c461268c565b60405290565b60405160c081016001600160401b03811182821017156126c4576126c461268c565b604051601f8201601f191681016001600160401b03811182821017156127145761271461268c565b604052919050565b6001600160401b038116811461229857600080fd5b60006001600160401b0382111561274a5761274a61268c565b5060051b60200190565b6001600160a01b038116811461229857600080fd5b60006040823603121561277b57600080fd5b6127836126a2565b823561278e8161271c565b81526020838101356001600160401b038111156127aa57600080fd5b840136601f8201126127bb57600080fd5b80356127ce6127c982612731565b6126ec565b81815260059190911b820183019083810190368311156127ed57600080fd5b928401925b8284101561281457833561280581612754565b825292840192908401906127f2565b938501939093525091949350505050565b6000604083016001600160401b03835116845260208084015160406020870152828151808552606088019150602083019450600092505b808310156128855784516001600160a01b0316825293830193600192909201919083019061285c565b509695505050505050565b6020815260006113176020830184612825565b6000602082840312156128b557600080fd5b815161220c81612754565b6000604082840312156128d257600080fd5b6128da6126a2565b8251600281106128e957600080fd5b815260208301516128f981612754565b60208201529392505050565b60ff8116811461229857600080fd5b6000813561292181612905565b60ff168352602082013536839003601e1901811261293e57600080fd5b82016020810190356001600160401b0381111561295a57600080fd5b80360382131561296957600080fd5b60406020860152806040860152808260608701376000606082870101526060601f19601f8301168601019250505092915050565b60808152600060c0820186356129b28161271c565b6001600160401b03908116608085015260209088820135368a9003601e190181126129dc57600080fd5b8901602081019035828111156129f157600080fd5b8060051b3603821315612a0357600080fd5b604060a0880152938490529260e0860191506000905b80821015612a4b578435612a2c81612754565b6001600160a01b03168352938301939183019160019190910190612a19565b50506001600160a01b03881660208601528481036040860152612a6e8188612914565b935050505082606083015295945050505050565b805160038110612a9157600080fd5b919050565b8051612a918161271c565b600060408284031215612ab357600080fd5b612abb6126a2565b90508151612ac88161271c565b81526020828101516001600160401b03811115612ae457600080fd5b8301601f81018513612af557600080fd5b8051612b036127c982612731565b81815260059190911b82018301908381019087831115612b2257600080fd5b928401925b82841015612b49578351612b3a81612754565b82529284019290840190612b27565b8085870152505050505092915050565b60005b83811015612b74578181015183820152602001612b5c565b50506000910152565b600082601f830112612b8e57600080fd5b81516001600160401b03811115612ba757612ba761268c565b612bba601f8201601f19166020016126ec565b818152846020838601011115612bcf57600080fd5b612654826020830160208701612b59565b600060408284031215612bf257600080fd5b612bfa6126a2565b905081516001600160401b0380821115612c1357600080fd5b612c1f85838601612aa1565b83526020840151915080821115612c3557600080fd5b9083019060408286031215612c4957600080fd5b612c516126a2565b8251612c5c81612905565b8152602083015182811115612c7057600080fd5b612c7c87828601612b7d565b60208301525080602085015250505092915050565b600060208284031215612ca357600080fd5b81516001600160401b0380821115612cba57600080fd5b9083019060c08286031215612cce57600080fd5b612cd66126ca565b612cdf83612a82565b8152602083015182811115612cf357600080fd5b612cff87828601612be0565b602083015250604083015182811115612d1757600080fd5b612d2387828601612be0565b604083015250612d3560608401612a96565b60608201526080830151608082015260a083015182811115612d5657600080fd5b612d6287828601612b7d565b60a08301525095945050505050565b600060208284031215612d8357600080fd5b5051919050565b634e487b7160e01b600052601160045260246000fd5b6001600160401b03828116828216039080821115611e7d57611e7d612d8a565b8181038181111561131a5761131a612d8a565b8082018082111561131a5761131a612d8a565b6000604083016001600160401b03835416845260018084016020604060208801528382548086526060890191508360005260206000209550600093505b80841015612e495785546001600160a01b03168252948401949284019290820190612e23565b50979650505050505050565b608081526000612e686080830187612de6565b6001600160a01b03861660208401528281036040840152612e898186612914565b91505082606083015295945050505050565b600060208284031215612ead57600080fd5b8151801515811461220c57600080fd5b60008151808452612ed5816020860160208601612b59565b601f01601f19169290920160200192915050565b6020815260006113176020830184612ebd565b604081526000612f0f6040830185612825565b905060018060a01b03831660208301529392505050565b600060208284031215612f3857600080fd5b81516001600160401b03811115612f4e57600080fd5b61265484828501612aa1565b6001600160401b03818116838216019080821115611e7d57611e7d612d8a565b604081526000612f8d6040830185612825565b8281036020840152612f9f8185612de6565b95945050505050565b6000815160408452612fbd6040850182612825565b90506020830151848203602086015260ff81511682526020810151905060406020830152612f9f6040830182612ebd565b60008151600381106130025761300261265c565b80845250602082015160c0602085015261301f60c0850182612fa8565b9050604083015184820360408601526130388282612fa8565b9150506001600160401b0360608401511660608501526080830151608085015260a083015184820360a0860152612f9f8282612ebd565b6020815260006113176020830184612fee565b600181811c9082168061309657607f821691505b60208210810361253257634e487b7160e01b600052602260045260246000fd5b601f821115610e5e576000816000526020600020601f850160051c810160208610156130df5750805b601f850160051c820191505b818110156130fe578281556001016130eb565b505050505050565b81516001600160401b0381111561311f5761311f61268c565b6131338161312d8454613082565b846130b6565b602080601f83116001811461316857600084156131505750858301515b600019600386901b1c1916600185901b1785556130fe565b600085815260208120601f198616915b8281101561319757888601518255948401946001909101908401613178565b50858210156131b55787850151600019600388901b60f8161c191681555b5050505050600190811b01905550565b634e487b7160e01b600052603260045260246000fd5b6000602080835283516060828501526131f76080850182612825565b90508185015160408501526040850151601f19808684030160608701528282518085528585019150858160051b860101868501945060005b8281101561325b5784878303018452613249828751612fee565b9588019593880193915060010161322f565b509998505050505050505050565b634e487b7160e01b600052603160045260246000fd5b60008261329c57634e487b7160e01b600052601260045260246000fd5b500490565b808202811582820484141761131a5761131a612d8a565b600082516132ca818460208701612b59565b919091019291505056fe5375626e657420646f6573206e6f7420616c6c6f77206368696c64207375626e657473a2646970667358221220c9b11f6d5f3f6f6996554c215137793331dfcb829395d4f18538e8990039b8cd64736f6c63430008180033","linkReferences":{"src/lib/CrossMsgHelper.sol":{"CrossMsgHelper":[{"start":718,"length":20},{"start":1200,"length":20},{"start":2508,"length":20}]},"src/lib/SubnetIDHelper.sol":{"SubnetIDHelper":[{"start":477,"length":20},{"start":969,"length":20},{"start":1556,"length":20},{"start":2218,"length":20},{"start":3136,"length":20},{"start":3396,"length":20},{"start":3741,"length":20},{"start":4011,"length":20},{"start":4215,"length":20},{"start":4479,"length":20},{"start":4775,"length":20}]}}},"methodIdentifiers":{"addStake()":"5a627dbc","fund((uint64,address[]),(uint8,bytes))":"18f44b70","fundWithToken((uint64,address[]),(uint8,bytes),uint256)":"0517e1aa","kill()":"41c0e1b5","register(uint256)":"f207564e","release((uint8,bytes))":"6b2c1eef","releaseStake(uint256)":"45f54485","withdraw12345()":"eddaf11c"},"id":60}