{"abi":[{"type":"function","name":"pause","inputs":[],"outputs":[],"stateMutability":"nonpayable"},{"type":"function","name":"paused","inputs":[],"outputs":[{"name":"","type":"bool","internalType":"bool"}],"stateMutability":"view"},{"type":"function","name":"unpause","inputs":[],"outputs":[],"stateMutability":"nonpayable"},{"type":"event","name":"Paused","inputs":[{"name":"account","type":"address","indexed":false,"internalType":"address"}],"anonymous":false},{"type":"event","name":"Unpaused","inputs":[{"name":"account","type":"address","indexed":false,"internalType":"address"}],"anonymous":false},{"type":"error","name":"EnforcedPause","inputs":[]},{"type":"error","name":"ExpectedPause","inputs":[]},{"type":"error","name":"NotOwner","inputs":[]}],"bytecode":{"object":"0x608060405234801561001057600080fd5b50610262806100206000396000f3fe608060405234801561001057600080fd5b50600436106100415760003560e01c80633f4ba83a146100465780635c975abb146100505780638456cb591461006c575b600080fd5b61004e610074565b005b610058610086565b604051901515815260200160405180910390f35b61004e6100a6565b61007c6100b6565b610084610103565b565b60006100a160008051602061020d8339815191525460ff1690565b905090565b6100ae6100b6565b610084610159565b7f806e0cbb9fce296bbc336a48f42bf1dbc69722d18d90d6fe705b7582c2bb4bd2600301546001600160a01b03163314610084576040516330cd747160e01b815260040160405180910390fd5b61010b6101ab565b60008051602061020d833981519152805460ff191681556040513381527f5db9ee0a495bf2e6ff9c91a7834c1ba4fdd244a5e8aa4e537bd38aeae4b073aa906020015b60405180910390a150565b6101616101db565b60008051602061020d833981519152805460ff191660011781556040513381527f62e78cea01bee320cd4e420270b5ea74000d11b0c9f74754ebdbfc544b05a2589060200161014e565b60008051602061020d8339815191525460ff1661008457604051638dfc202b60e01b815260040160405180910390fd5b60008051602061020d8339815191525460ff16156100845760405163d93c066560e01b815260040160405180910390fdfec451c9429c27db68f286ab8a68f311f1dccab703ba9423aed29cd397ae63f863a26469706673582212200cc6b0d114174de1827e524521c586a219d33a82355bd577e7b7b551ed5d5fc864736f6c63430008180033","linkReferences":{}},"methodIdentifiers":{"pause()":"8456cb59","paused()":"5c975abb","unpause()":"3f4ba83a"},"id":101}