{"abi":[{"type":"function","name":"applyMsg","inputs":[{"name":"arrivingFrom","type":"tuple","internalType":"struct SubnetID","components":[{"name":"root","type":"uint64","internalType":"uint64"},{"name":"route","type":"address[]","internalType":"address[]"}]},{"name":"crossMsg","type":"tuple","internalType":"struct IpcEnvelope","components":[{"name":"kind","type":"uint8","internalType":"enum IpcMsgKind"},{"name":"to","type":"tuple","internalType":"struct IPCAddress","components":[{"name":"subnetId","type":"tuple","internalType":"struct SubnetID","components":[{"name":"root","type":"uint64","internalType":"uint64"},{"name":"route","type":"address[]","internalType":"address[]"}]},{"name":"rawAddress","type":"tuple","internalType":"struct FvmAddress","components":[{"name":"addrType","type":"uint8","internalType":"uint8"},{"name":"payload","type":"bytes","internalType":"bytes"}]}]},{"name":"from","type":"tuple","internalType":"struct IPCAddress","components":[{"name":"subnetId","type":"tuple","internalType":"struct SubnetID","components":[{"name":"root","type":"uint64","internalType":"uint64"},{"name":"route","type":"address[]","internalType":"address[]"}]},{"name":"rawAddress","type":"tuple","internalType":"struct FvmAddress","components":[{"name":"addrType","type":"uint8","internalType":"uint8"},{"name":"payload","type":"bytes","internalType":"bytes"}]}]},{"name":"nonce","type":"uint64","internalType":"uint64"},{"name":"value","type":"uint256","internalType":"uint256"},{"name":"message","type":"bytes","internalType":"bytes"}]}],"outputs":[],"stateMutability":"nonpayable"},{"type":"function","name":"getNextBottomUpMsgBatch","inputs":[],"outputs":[{"name":"batch","type":"tuple","internalType":"struct BottomUpMsgBatch","components":[{"name":"subnetID","type":"tuple","internalType":"struct SubnetID","components":[{"name":"root","type":"uint64","internalType":"uint64"},{"name":"route","type":"address[]","internalType":"address[]"}]},{"name":"blockHeight","type":"uint256","internalType":"uint256"},{"name":"msgs","type":"tuple[]","internalType":"struct IpcEnvelope[]","components":[{"name":"kind","type":"uint8","internalType":"enum IpcMsgKind"},{"name":"to","type":"tuple","internalType":"struct IPCAddress","components":[{"name":"subnetId","type":"tuple","internalType":"struct SubnetID","components":[{"name":"root","type":"uint64","internalType":"uint64"},{"name":"route","type":"address[]","internalType":"address[]"}]},{"name":"rawAddress","type":"tuple","internalType":"struct FvmAddress","components":[{"name":"addrType","type":"uint8","internalType":"uint8"},{"name":"payload","type":"bytes","internalType":"bytes"}]}]},{"name":"from","type":"tuple","internalType":"struct IPCAddress","components":[{"name":"subnetId","type":"tuple","internalType":"struct SubnetID","components":[{"name":"root","type":"uint64","internalType":"uint64"},{"name":"route","type":"address[]","internalType":"address[]"}]},{"name":"rawAddress","type":"tuple","internalType":"struct FvmAddress","components":[{"name":"addrType","type":"uint8","internalType":"uint8"},{"name":"payload","type":"bytes","internalType":"bytes"}]}]},{"name":"nonce","type":"uint64","internalType":"uint64"},{"name":"value","type":"uint256","internalType":"uint256"},{"name":"message","type":"bytes","internalType":"bytes"}]}]}],"stateMutability":"view"},{"type":"function","name":"registerSubnet","inputs":[{"name":"subnet","type":"tuple","internalType":"struct SubnetID","components":[{"name":"root","type":"uint64","internalType":"uint64"},{"name":"route","type":"address[]","internalType":"address[]"}]}],"outputs":[],"stateMutability":"nonpayable"},{"type":"function","name":"setSubnet","inputs":[{"name":"subnet","type":"tuple","internalType":"struct SubnetID","components":[{"name":"root","type":"uint64","internalType":"uint64"},{"name":"route","type":"address[]","internalType":"address[]"}]},{"name":"bottomUpPeriod","type":"uint256","internalType":"uint256"}],"outputs":[],"stateMutability":"nonpayable"},{"type":"event","name":"NewBottomUpMsgBatch","inputs":[{"name":"epoch","type":"uint256","indexed":true,"internalType":"uint256"},{"name":"batch","type":"tuple","indexed":false,"internalType":"struct BottomUpMsgBatch","components":[{"name":"subnetID","type":"tuple","internalType":"struct SubnetID","components":[{"name":"root","type":"uint64","internalType":"uint64"},{"name":"route","type":"address[]","internalType":"address[]"}]},{"name":"blockHeight","type":"uint256","internalType":"uint256"},{"name":"msgs","type":"tuple[]","internalType":"struct IpcEnvelope[]","components":[{"name":"kind","type":"uint8","internalType":"enum IpcMsgKind"},{"name":"to","type":"tuple","internalType":"struct IPCAddress","components":[{"name":"subnetId","type":"tuple","internalType":"struct SubnetID","components":[{"name":"root","type":"uint64","internalType":"uint64"},{"name":"route","type":"address[]","internalType":"address[]"}]},{"name":"rawAddress","type":"tuple","internalType":"struct FvmAddress","components":[{"name":"addrType","type":"uint8","internalType":"uint8"},{"name":"payload","type":"bytes","internalType":"bytes"}]}]},{"name":"from","type":"tuple","internalType":"struct IPCAddress","components":[{"name":"subnetId","type":"tuple","internalType":"struct SubnetID","components":[{"name":"root","type":"uint64","internalType":"uint64"},{"name":"route","type":"address[]","internalType":"address[]"}]},{"name":"rawAddress","type":"tuple","internalType":"struct FvmAddress","components":[{"name":"addrType","type":"uint8","internalType":"uint8"},{"name":"payload","type":"bytes","internalType":"bytes"}]}]},{"name":"nonce","type":"uint64","internalType":"uint64"},{"name":"value","type":"uint256","internalType":"uint256"},{"name":"message","type":"bytes","internalType":"bytes"}]}]}],"anonymous":false},{"type":"event","name":"NewTopDownMessage","inputs":[{"name":"subnet","type":"address","indexed":true,"internalType":"address"},{"name":"message","type":"tuple","indexed":false,"internalType":"struct IpcEnvelope","components":[{"name":"kind","type":"uint8","internalType":"enum IpcMsgKind"},{"name":"to","type":"tuple","internalType":"struct IPCAddress","components":[{"name":"subnetId","type":"tuple","internalType":"struct SubnetID","components":[{"name":"root","type":"uint64","internalType":"uint64"},{"name":"route","type":"address[]","internalType":"address[]"}]},{"name":"rawAddress","type":"tuple","internalType":"struct FvmAddress","components":[{"name":"addrType","type":"uint8","internalType":"uint8"},{"name":"payload","type":"bytes","internalType":"bytes"}]}]},{"name":"from","type":"tuple","internalType":"struct IPCAddress","components":[{"name":"subnetId","type":"tuple","internalType":"struct SubnetID","components":[{"name":"root","type":"uint64","internalType":"uint64"},{"name":"route","type":"address[]","internalType":"address[]"}]},{"name":"rawAddress","type":"tuple","internalType":"struct FvmAddress","components":[{"name":"addrType","type":"uint8","internalType":"uint8"},{"name":"payload","type":"bytes","internalType":"bytes"}]}]},{"name":"nonce","type":"uint64","internalType":"uint64"},{"name":"value","type":"uint256","internalType":"uint256"},{"name":"message","type":"bytes","internalType":"bytes"}]}],"anonymous":false},{"type":"error","name":"CannotSendCrossMsgToItself","inputs":[]},{"type":"error","name":"InvalidXnetMessage","inputs":[{"name":"reason","type":"uint8","internalType":"enum InvalidXnetMessageReason"}]},{"type":"error","name":"MethodNotAllowed","inputs":[{"name":"reason","type":"string","internalType":"string"}]},{"type":"error","name":"NotRegisteredSubnet","inputs":[]}],"bytecode":{"object":"0x608060405234801561001057600080fd5b5061378e806100206000396000f3fe608060405234801561001057600080fd5b506004361061004c5760003560e01c80634b8e4e8f14610051578063830238c31461006f57806397c2cd8b14610084578063c8251fe814610097575b600080fd5b6100596100aa565b6040516100669190612ac1565b60405180910390f35b61008261007d366004612e49565b610563565b005b610082610092366004612f50565b610571565b6100826100a5366004612f8c565b610646565b6100dd6040805160a081019091526000606080830191825260808301528190815260200160008152602001606081525090565b6000806100ee438360010154610769565b6000818152602384016020908152604091829020825160a08101845281546001600160401b03166060820190815260018301805486518187028101870190975280875296975091959294869491938693608087019390919083018282801561017f57602002820191906000526020600020905b81546001600160a01b03168152600190910190602001808311610161575b50505050508152505081526020016002820154815260200160038201805480602002602001604051908101604052809291908181526020016000905b82821015610554576000848152602090206040805160c08101909152600c84029091018054829060ff1660028111156101f6576101f6612982565b600281111561020757610207612982565b8152604080516080810182526001840180546001600160401b031682840190815260028601805485516020828102820181019097528181529686019694959394869486936060870193909183018282801561028b57602002820191906000526020600020905b81546001600160a01b0316815260019091019060200180831161026d575b5050509190925250505081526040805180820190915260028301805460ff168252600384018054602094850194840191906102c590612fd0565b80601f01602080910402602001604051908101604052809291908181526020018280546102f190612fd0565b801561033e5780601f106103135761010080835404028352916020019161033e565b820191906000526020600020905b81548152906001019060200180831161032157829003601f168201915b505050919092525050509052508152604080516080810182526005840180546001600160401b03168284019081526006860180548551602082810282018101909752818152968601969495939486948693606087019390918301828280156103cf57602002820191906000526020600020905b81546001600160a01b031681526001909101906020018083116103b1575b5050509190925250505081526040805180820190915260028301805460ff1682526003840180546020948501948401919061040990612fd0565b80601f016020809104026020016040519081016040528092919081815260200182805461043590612fd0565b80156104825780601f1061045757610100808354040283529160200191610482565b820191906000526020600020905b81548152906001019060200180831161046557829003601f168201915b50505091909252505050905250815260098201546001600160401b03166020820152600a8201546040820152600b820180546060909201916104c390612fd0565b80601f01602080910402602001604051908101604052809291908181526020018280546104ef90612fd0565b801561053c5780601f106105115761010080835404028352916020019161053c565b820191906000526020600020905b81548152906001019060200180831161051f57829003601f168201915b505050505081525050815260200190600101906101bb565b50505050815250509250505090565b61056d828261079d565b5050565b6040516390ba52cf60e01b81526000908290601f90839073__$a0fe38a9a81205afccc10810b09a4d3f45$__906390ba52cf906105b290869060040161300a565b602060405180830381865af41580156105cf573d6000803e3d6000fd5b505050506040513d601f19601f820116820180604052508101906105f3919061301d565b815260208082019290925260400160002082516004820180546001600160401b0319166001600160401b03909216919091178155838301518051919361063f936005019291019061268f565b5050505050565b60008083516012820180546001600160401b0319166001600160401b0390921691909117815560208086015180519394508693610689926013870192019061268f565b505050600181018290556040516390ba52cf60e01b81528390601f83019060009073__$a0fe38a9a81205afccc10810b09a4d3f45$__906390ba52cf906106d490869060040161300a565b602060405180830381865af41580156106f1573d6000803e3d6000fd5b505050506040513d601f19601f82011682018060405250810190610715919061301d565b815260208082019290925260400160002082516004820180546001600160401b0319166001600160401b039092169190911781558383015180519193610761936005019291019061268f565b505050505050565b60008161077f816001600160401b03861661304c565b61078a90600161306e565b6107949190613081565b90505b92915050565b602081015151604051630c133d1360e31b815260009173__$a0fe38a9a81205afccc10810b09a4d3f45$__91636099e898916107db9160040161300a565b602060405180830381865af41580156107f8573d6000803e3d6000fd5b505050506040513d601f19601f8201168201806040525081019061081c91906130a8565b1561087d5761087882600163bc0f01cf60e01b600160405160240161084191906130c3565b60408051601f198184030181529190526020810180516001600160e01b03166001600160e01b031990931692909217909152610e55565b505050565b604080518082019091526000808252602082015260405163855f7e4560e01b815260009073__$33b79814e84bf6cf5e47244090b19ce5f8$__9063855f7e45906108d0908790601288019060040161314c565b602060405180830381865af41580156108ed573d6000803e3d6000fd5b505050506040513d601f19601f82011682018060405250810190610911919061317e565b9050600181600181111561092757610927612982565b03610b315760008061093887610f16565b915091508161094a5750505050505050565b60608601516003820154600160401b90046001600160401b039081169116146109965761098d86600163bc0f01cf60e01b600260405160240161084191906130c3565b50505050505050565b60018160030160088282829054906101000a90046001600160401b03166109bd91906131a2565b82546101009290920a6001600160401b038181021990931691831602179091556040805180820182526004850180549093168152600585018054835160208083028201810190955281815292955083860193830182828015610a4857602002820191906000526020600020905b81546001600160a01b03168152600190910190602001808311610a2a575b505050919092525050604051632cff562160e11b815273__$a0fe38a9a81205afccc10810b09a4d3f45$__926359feac429250610a879160040161300a565b602060405180830381865af4158015610aa4573d6000803e3d6000fd5b505050506040513d601f19601f82011682018060405250810190610ac891906131c9565b6001600160a01b03166380875df76040518163ffffffff1660e01b81526004016040805180830381865afa158015610b04573d6000803e3d6000fd5b505050506040513d601f19601f82011682018060405250810190610b2891906131e6565b93505050610c06565b6000816001811115610b4557610b45612982565b03610c065760608401516003840154600160401b90046001600160401b03908116911614610b8d5761063f84600163bc0f01cf60e01b600260405160240161084191906130c3565b60018360030160088282829054906101000a90046001600160401b0316610bb491906131a2565b92506101000a8154816001600160401b0302191690836001600160401b03160217905550610c036040805180820182526000808252602091820181905282518084019093528083529082015290565b91505b60208401515160405163c836244d60e01b815273__$a0fe38a9a81205afccc10810b09a4d3f45$__9163c836244d91610c4791906012880190600401613227565b602060405180830381865af4158015610c64573d6000803e3d6000fd5b505050506040513d601f19601f82011682018060405250810190610c8891906130a8565b610e25576000610c97856110aa565b60008181526021860160205260409020865181549293508792829060ff19166001836002811115610cca57610cca612982565b0217905550602082810151805180516001850180546001600160401b0319166001600160401b03909216919091178155818401518051939491938492610d1792600289019291019061268f565b505050602082810151805160028401805460ff191660ff909216919091178155918101519091906003840190610d4d9082613282565b505050506040830151805180516005850180546001600160401b0319166001600160401b03909216919091178155602080830151805194955091938492610d9b92600689019291019061268f565b505050602082810151805160028401805460ff191660ff909216919091178155918101519091906003840190610dd19082613282565b5050505060608301516009830180546001600160401b0319166001600160401b03909216919091179055506080820151600a82015560a0820151600b820190610e1a9082613282565b505050505050505050565b600080610e3286856110da565b915091508115610e4d57610e4886600083610e55565b61098d565b61098d866002835b610e5e836111c1565b15610e6857505050565b600283516002811115610e7d57610e7d612982565b03610e8757505050565b604051634dbefc2d60e11b8152610f109073__$33b79814e84bf6cf5e47244090b19ce5f8$__90639b7df85a90610ec690879087908790600401613341565b600060405180830381865af4158015610ee3573d6000803e3d6000fd5b505050506040513d6000823e601f3d908101601f19168201604052610f0b919081019061351e565b6111ef565b50505050565b6040516390ba52cf60e01b815260009081908190601f90829073__$a0fe38a9a81205afccc10810b09a4d3f45$__906390ba52cf90610f5990899060040161300a565b602060405180830381865af4158015610f76573d6000803e3d6000fd5b505050506040513d601f19601f82011682018060405250810190610f9a919061301d565b81526020808201929092526040908101600020815180830183526004820180546001600160401b03168252600583018054855181880281018801909652808652939750919490938582019390929183018282801561102157602002820191906000526020600020905b81546001600160a01b03168152600190910190602001808311611003575b505050919092525050604051630c133d1360e31b815273__$a0fe38a9a81205afccc10810b09a4d3f45$__92636099e89892506110609160040161300a565b602060405180830381865af415801561107d573d6000803e3d6000fd5b505050506040513d601f19601f820116820180604052508101906110a191906130a8565b15925050915091565b6000816040516020016110bd91906135fe565b604051602081830303815290604052805190602001209050919050565b6000606073__$33b79814e84bf6cf5e47244090b19ce5f8$__6001600160a01b0316630cb8986260e01b8585604051602401611117929190613611565b60408051601f198184030181529181526020820180516001600160e01b03166001600160e01b0319909416939093179092529051611155919061365a565b600060405180830381855af49150503d8060008114611190576040519150601f19603f3d011682016040523d82523d6000602084013e611195565b606091505b50909250905081156111ba57808060200190518101906111b59190613676565b915091505b9250929050565b600080825160028111156111d7576111d7612982565b036111e55750608001511590565b5060a00151511590565b602081015151604051630c133d1360e31b8152600091829173__$a0fe38a9a81205afccc10810b09a4d3f45$__90636099e8989061123190849060040161300a565b602060405180830381865af415801561124e573d6000803e3d6000fd5b505050506040513d601f19601f8201168201806040525081019061127291906130a8565b1561129c57600160405163bc0f01cf60e01b815260040161129391906130c3565b60405180910390fd5b60405163c836244d60e01b815273__$a0fe38a9a81205afccc10810b09a4d3f45$__9063c836244d906112d89084906012870190600401613227565b602060405180830381865af41580156112f5573d6000803e3d6000fd5b505050506040513d601f19601f8201168201806040525081019061131991906130a8565b1561133757604051632f3335ff60e21b815260040160405180910390fd5b60408085015151905163855f7e4560e01b815260009073__$33b79814e84bf6cf5e47244090b19ce5f8$__9063855f7e459061137c908990601289019060040161314c565b602060405180830381865af4158015611399573d6000803e3d6000fd5b505050506040513d601f19601f820116820180604052508101906113bd919061317e565b604051631ccc893360e11b815290915060009073__$a0fe38a9a81205afccc10810b09a4d3f45$__906339991266906113fc90879087906004016136c3565b600060405180830381865af4158015611419573d6000803e3d6000fd5b505050506040513d6000823e601f3d908101601f1916820160405261144191908101906136e8565b60405163c836244d60e01b815273__$a0fe38a9a81205afccc10810b09a4d3f45$__9163c836244d9161147c919060128a0190600401613227565b602060405180830381865af4158015611499573d6000803e3d6000fd5b505050506040513d601f19601f820116820180604052508101906114bd91906130a8565b9050600060018360018111156114d5576114d5612982565b0361166e576040516308c7427760e11b815273__$a0fe38a9a81205afccc10810b09a4d3f45$__9063118e84ee9061151190879060040161300a565b600060405180830381865af415801561152e573d6000803e3d6000fd5b505050506040513d6000823e601f3d908101601f1916820160405261155691908101906136e8565b60405163c836244d60e01b815273__$a0fe38a9a81205afccc10810b09a4d3f45$__9163c836244d91611591919060128b0190600401613227565b602060405180830381865af41580156115ae573d6000803e3d6000fd5b505050506040513d601f19601f820116820180604052508101906115d291906130a8565b80156116675750604051632cff562160e11b81526116679060019073__$a0fe38a9a81205afccc10810b09a4d3f45$__906359feac429061161790899060040161300a565b602060405180830381865af4158015611634573d6000803e3d6000fd5b505050506040513d601f19601f8201168201806040525081019061165891906131c9565b6001600160a01b03169061188a565b9050611748565b600083600181111561168257611682612982565b036117485760405163089032d560e01b81526117459060019073__$a0fe38a9a81205afccc10810b09a4d3f45$__9063089032d5906116ca908a9060128d0190600401613227565b600060405180830381865af41580156116e7573d6000803e3d6000fd5b505050506040513d6000823e601f3d908101601f1916820160405261170f91908101906136e8565b604051632cff562160e11b815273__$a0fe38a9a81205afccc10810b09a4d3f45$__916359feac4291611617919060040161300a565b90505b80156117ef5760008851600281111561176357611763612982565b036117ef5760405163015538b160e01b815260206004820152604f60248201527f70726f7061676174696f6e206f6620605472616e7366657260206d657373616760448201527f6573206e6f742073757070706f7274656420666f72207375626e65747320776960648201526e746820455243323020737570706c7960881b608482015260a401611293565b600083600181111561180357611803612982565b148061180c5750815b1561186e5760038601805460089061183390600160401b90046001600160401b031661371c565b91906101000a8154816001600160401b0302191690836001600160401b0316021790555061186088611919565b506000979650505050505050565b61187788611af2565b5050506080909401511515949350505050565b600081600181111561189e5761189e612982565b836001600160a01b03166380875df76040518163ffffffff1660e01b81526004016040805180830381865afa1580156118db573d6000803e3d6000fd5b505050506040513d601f19601f820116820180604052508101906118ff91906131e6565b51600181111561191157611911612982565b149392505050565b60208101515160405163089032d560e01b8152600091829173__$a0fe38a9a81205afccc10810b09a4d3f45$__9163089032d59161195d9190601290600401613227565b600060405180830381865af415801561197a573d6000803e3d6000fd5b505050506040513d6000823e601f3d908101601f191682016040526119a291908101906136e8565b90506000806119b083610f16565b91509150816119d257604051630e991abd60e41b815260040160405180910390fd5b60038101546001600160401b0316606086018190526119f28160016131a2565b6003830180546001600160401b0319166001600160401b03929092169190911790556080860151600283018054600090611a2d90849061306e565b90915550506040516304e384ff60e21b815273__$a0fe38a9a81205afccc10810b09a4d3f45$__9063138e13fc90611a6990879060040161300a565b602060405180830381865af4158015611a86573d6000803e3d6000fd5b505050506040513d601f19601f82011682018060405250810190611aaa91906131c9565b6001600160a01b03167ffdd39ce2560484814971f663392e78ae37dc62ba184b3370d830371dd271a8b787604051611ae291906135fe565b60405180910390a2505050505050565b600080611b03438360010154610769565b6003830180546001600160401b031660608601819052919250600191600090611b2d9084906131a2565b92506101000a8154816001600160401b0302191690836001600160401b03160217905550600080611b708360009081526023602052604090206002810154151591565b9150915081611d545760128401805482546001600160401b0319166001600160401b039091161782556013850180548391611bb0916001840191906126f4565b505050600280820184905560038201805460018181018355600092835260209092208851600c90920201805489949193849260ff19909216918490811115611bfa57611bfa612982565b0217905550602082810151805180516001850180546001600160401b0319166001600160401b03909216919091178155818401518051939491938492611c4792600289019291019061268f565b505050602082810151805160028401805460ff191660ff909216919091178155918101519091906003840190611c7d9082613282565b505050506040830151805180516005850180546001600160401b0319166001600160401b03909216919091178155602080830151805194955091938492611ccb92600689019291019061268f565b505050602082810151805160028401805460ff191660ff909216919091178155918101519091906003840190611d019082613282565b5050505060608301516009830180546001600160401b0319166001600160401b03909216919091179055506080820151600a82015560a0820151600b820190611d4a9082613282565b5050505050505050565b60038481015490820154600160c01b9091046001600160401b03169003612422576040805160a0810182526012860180546001600160401b03166060830190815260138801805485516020828102820181019097528181524396600096958695949093608087019392830182828015611df657602002820191906000526020600020905b81546001600160a01b03168152600190910190602001808311611dd8575b505050505081525050815260200183815260200184600301805490506001600160401b03811115611e2957611e29612b4f565b604051908082528060200260200182016040528015611e6257816020015b611e4f612734565b815260200190600190039081611e475790505b509052600384015490915060005b8181101561223857846003018181548110611e8d57611e8d613742565b600091825260209091206040805160c08101909152600c909202018054829060ff166002811115611ec057611ec0612982565b6002811115611ed157611ed1612982565b8152604080516080810182526001840180546001600160401b0316828401908152600286018054855160208281028201810190975281815296860196949593948694869360608701939091830182828015611f5557602002820191906000526020600020905b81546001600160a01b03168152600190910190602001808311611f37575b5050509190925250505081526040805180820190915260028301805460ff16825260038401805460209485019484019190611f8f90612fd0565b80601f0160208091040260200160405190810160405280929190818152602001828054611fbb90612fd0565b80156120085780601f10611fdd57610100808354040283529160200191612008565b820191906000526020600020905b815481529060010190602001808311611feb57829003601f168201915b505050919092525050509052508152604080516080810182526005840180546001600160401b031682840190815260068601805485516020828102820181019097528181529686019694959394869486936060870193909183018282801561209957602002820191906000526020600020905b81546001600160a01b0316815260019091019060200180831161207b575b5050509190925250505081526040805180820190915260028301805460ff168252600384018054602094850194840191906120d390612fd0565b80601f01602080910402602001604051908101604052809291908181526020018280546120ff90612fd0565b801561214c5780601f106121215761010080835404028352916020019161214c565b820191906000526020600020905b81548152906001019060200180831161212f57829003601f168201915b50505091909252505050905250815260098201546001600160401b03166020820152600a8201546040820152600b8201805460609092019161218d90612fd0565b80601f01602080910402602001604051908101604052809291908181526020018280546121b990612fd0565b80156122065780601f106121db57610100808354040283529160200191612206565b820191906000526020600020905b8154815290600101906020018083116121e957829003601f168201915b5050505050815250508360400151828151811061222557612225613742565b6020908102919091010152600101611e70565b50827f0b1b135d7eb5326c8c53b4b711f8ace381cbfe4326102b012b9ccd2852abaa58836040516122699190612ac1565b60405180910390a261227f600385016000612775565b60038401805460018181018355600092835260209092208a51600c9092020180548b93919291839160ff1916908360028111156122be576122be612982565b0217905550602082810151805180516001850180546001600160401b0319166001600160401b0390921691909117815581840151805193949193849261230b92600289019291019061268f565b505050602082810151805160028401805460ff191660ff9092169190911781559181015190919060038401906123419082613282565b505050506040830151805180516005850180546001600160401b0319166001600160401b0390921691909117815560208083015180519495509193849261238f92600689019291019061268f565b505050602082810151805160028401805460ff191660ff9092169190911781559181015190919060038401906123c59082613282565b5050505060608301516009830180546001600160401b0319166001600160401b03909216919091179055506080820151600a82015560a0820151600b82019061240e9082613282565b50505061241a82612461565b50505061063f565b60038101805460018181018355600092835260209092208751600c9092020180548893919291839160ff191690836002811115611bfa57611bfa612982565b602081810151600090815260238252604081208351805182546001600160401b0319166001600160401b0390911617825580840151805193949293919284926124b0926001850192019061268f565b5050506020830151600282015560408301515160005b8181101561063f5782600301856040015182815181106124e8576124e8613742565b6020908102919091018101518254600181810185556000948552929093208151600c909402018054919390929091839160ff199091169083600281111561253157612531612982565b0217905550602082810151805180516001850180546001600160401b0319166001600160401b0390921691909117815581840151805193949193849261257e92600289019291019061268f565b505050602082810151805160028401805460ff191660ff9092169190911781559181015190919060038401906125b49082613282565b505050506040830151805180516005850180546001600160401b0319166001600160401b0390921691909117815560208083015180519495509193849261260292600689019291019061268f565b505050602082810151805160028401805460ff191660ff9092169190911781559181015190919060038401906126389082613282565b5050505060608301516009830180546001600160401b0319166001600160401b03909216919091179055506080820151600a82015560a0820151600b8201906126819082613282565b5050508060010190506124c6565b8280548282559060005260206000209081019282156126e4579160200282015b828111156126e457825182546001600160a01b0319166001600160a01b039091161782556020909201916001909101906126af565b506126f0929150612799565b5090565b8280548282559060005260206000209081019282156126e45760005260206000209182015b828111156126e4578254825591600101919060010190612719565b6040805160c08101909152806000815260200161274f6127ae565b815260200161275c6127ae565b8152600060208201819052604082015260609081015290565b50805460008255600c029060005260206000209081019061279691906127f3565b50565b5b808211156126f0576000815560010161279a565b60408051608081018252600091810191825260608082015290819081526020016127ee6040518060400160405280600060ff168152602001606081525090565b905290565b808211156126f057805460ff191681556001810180546001600160401b031916815560009081818161282860028701826128bf565b505060028201805460ff19168155600061284560038501826128dd565b505050506005820180546001600160401b03191681556000818161286c60068701826128bf565b505060028201805460ff19168155600061288960038501826128dd565b505050506009820180546001600160401b03191690556000600a83018190556128b690600b8401906128dd565b50600c016127f3565b50805460008255906000526020600020908101906127969190612799565b5080546128e990612fd0565b6000825580601f106128f9575050565b601f0160209004906000526020600020908101906127969190612799565b6000604083016001600160401b03835116845260208084015160406020870152828151808552606088019150602083019450600092505b808310156129775784516001600160a01b0316825293830193600192909201919083019061294e565b509695505050505050565b634e487b7160e01b600052602160045260246000fd5b6003811061279657612796612982565b60005b838110156129c35781810151838201526020016129ab565b50506000910152565b600081518084526129e48160208601602086016129a8565b601f01601f19169290920160200192915050565b6000815160408452612a0d6040850182612917565b90506020830151848203602086015260ff81511682526020810151905060406020830152612a3e60408301826129cc565b95945050505050565b60008151612a5481612998565b80845250602082015160c06020850152612a7160c08501826129f8565b905060408301518482036040860152612a8a82826129f8565b9150506001600160401b0360608401511660608501526080830151608085015260a083015184820360a0860152612a3e82826129cc565b600060208083528351606082850152612add6080850182612917565b90508185015160408501526040850151601f19808684030160608701528282518085528585019150858160051b860101868501945060005b82811015612b415784878303018452612b2f828751612a47565b95880195938801939150600101612b15565b509998505050505050505050565b634e487b7160e01b600052604160045260246000fd5b604080519081016001600160401b0381118282101715612b8757612b87612b4f565b60405290565b60405160c081016001600160401b0381118282101715612b8757612b87612b4f565b604051601f8201601f191681016001600160401b0381118282101715612bd757612bd7612b4f565b604052919050565b6001600160401b038116811461279657600080fd5b8035612bff81612bdf565b919050565b60006001600160401b03821115612c1d57612c1d612b4f565b5060051b60200190565b6001600160a01b038116811461279657600080fd5b600060408284031215612c4e57600080fd5b612c56612b65565b90508135612c6381612bdf565b81526020828101356001600160401b03811115612c7f57600080fd5b8301601f81018513612c9057600080fd5b8035612ca3612c9e82612c04565b612baf565b81815260059190911b82018301908381019087831115612cc257600080fd5b928401925b82841015612ce9578335612cda81612c27565b82529284019290840190612cc7565b8085870152505050505092915050565b6003811061279657600080fd5b8035612bff81612cf9565b60ff8116811461279657600080fd5b60006001600160401b03821115612d3957612d39612b4f565b50601f01601f191660200190565b600082601f830112612d5857600080fd5b8135612d66612c9e82612d20565b818152846020838601011115612d7b57600080fd5b816020850160208301376000918101602001919091529392505050565b600060408284031215612daa57600080fd5b612db2612b65565b905081356001600160401b0380821115612dcb57600080fd5b612dd785838601612c3c565b83526020840135915080821115612ded57600080fd5b9083019060408286031215612e0157600080fd5b612e09612b65565b8235612e1481612d11565b8152602083013582811115612e2857600080fd5b612e3487828601612d47565b60208301525080602085015250505092915050565b60008060408385031215612e5c57600080fd5b82356001600160401b0380821115612e7357600080fd5b612e7f86838701612c3c565b93506020850135915080821115612e9557600080fd5b9084019060c08287031215612ea957600080fd5b612eb1612b8d565b612eba83612d06565b8152602083013582811115612ece57600080fd5b612eda88828601612d98565b602083015250604083013582811115612ef257600080fd5b612efe88828601612d98565b604083015250612f1060608401612bf4565b60608201526080830135608082015260a083013582811115612f3157600080fd5b612f3d88828601612d47565b60a0830152508093505050509250929050565b600060208284031215612f6257600080fd5b81356001600160401b03811115612f7857600080fd5b612f8484828501612c3c565b949350505050565b60008060408385031215612f9f57600080fd5b82356001600160401b03811115612fb557600080fd5b612fc185828601612c3c565b95602094909401359450505050565b600181811c90821680612fe457607f821691505b60208210810361300457634e487b7160e01b600052602260045260246000fd5b50919050565b6020815260006107946020830184612917565b60006020828403121561302f57600080fd5b5051919050565b634e487b7160e01b600052601160045260246000fd5b60008261306957634e487b7160e01b600052601260045260246000fd5b500490565b8082018082111561079757610797613036565b808202811582820484141761079757610797613036565b80518015158114612bff57600080fd5b6000602082840312156130ba57600080fd5b61079482613098565b60208101600583106130d7576130d7612982565b91905290565b6000604083016001600160401b03835416845260018084016020604060208801528382548086526060890191508360005260206000209550600093505b808410156131405785546001600160a01b0316825294840194928401929082019061311a565b50979650505050505050565b60408152600061315f6040830185612a47565b8281036020840152612a3e81856130dd565b6002811061279657600080fd5b60006020828403121561319057600080fd5b815161319b81613171565b9392505050565b6001600160401b038181168382160190808211156131c2576131c2613036565b5092915050565b6000602082840312156131db57600080fd5b815161319b81612c27565b6000604082840312156131f857600080fd5b613200612b65565b825161320b81613171565b8152602083015161321b81612c27565b60208201529392505050565b60408152600061315f6040830185612917565b601f821115610878576000816000526020600020601f850160051c810160208610156132635750805b601f850160051c820191505b818110156107615782815560010161326f565b81516001600160401b0381111561329b5761329b612b4f565b6132af816132a98454612fd0565b8461323a565b602080601f8311600181146132e457600084156132cc5750858301515b600019600386901b1c1916600185901b178555610761565b600085815260208120601f198616915b82811015613313578886015182559484019460019091019084016132f4565b50858210156133315787850151600019600388901b60f8161c191681555b5050505050600190811b01905550565b6060815260006133546060830186612a47565b61335d85612998565b846020840152828103604084015261337581856129cc565b9695505050505050565b8051612bff81612cf9565b8051612bff81612bdf565b6000604082840312156133a757600080fd5b6133af612b65565b905081516133bc81612bdf565b81526020828101516001600160401b038111156133d857600080fd5b8301601f810185136133e957600080fd5b80516133f7612c9e82612c04565b81815260059190911b8201830190838101908783111561341657600080fd5b928401925b82841015612ce957835161342e81612c27565b8252928401929084019061341b565b600082601f83011261344e57600080fd5b815161345c612c9e82612d20565b81815284602083860101111561347157600080fd5b612f848260208301602087016129a8565b60006040828403121561349457600080fd5b61349c612b65565b905081516001600160401b03808211156134b557600080fd5b6134c185838601613395565b835260208401519150808211156134d757600080fd5b90830190604082860312156134eb57600080fd5b6134f3612b65565b82516134fe81612d11565b815260208301518281111561351257600080fd5b612e348782860161343d565b60006020828403121561353057600080fd5b81516001600160401b038082111561354757600080fd5b9083019060c0828603121561355b57600080fd5b613563612b8d565b61356c8361337f565b815260208301518281111561358057600080fd5b61358c87828601613482565b6020830152506040830151828111156135a457600080fd5b6135b087828601613482565b6040830152506135c26060840161338a565b60608201526080830151608082015260a0830151828111156135e357600080fd5b6135ef8782860161343d565b60a08301525095945050505050565b6020815260006107946020830184612a47565b6060815260006136246060830185612a47565b905082516002811061363857613638612982565b60208381019190915292909201516001600160a01b0316604090910152919050565b6000825161366c8184602087016129a8565b9190910192915050565b6000806040838503121561368957600080fd5b61369283613098565b915060208301516001600160401b038111156136ad57600080fd5b6136b98582860161343d565b9150509250929050565b6040815260006136d66040830185612917565b8281036020840152612a3e8185612917565b6000602082840312156136fa57600080fd5b81516001600160401b0381111561371057600080fd5b612f8484828501613395565b60006001600160401b0380831681810361373857613738613036565b6001019392505050565b634e487b7160e01b600052603260045260246000fdfea264697066735822122047c727fd03ffdb8b09ed8490526e7fdda27c59634b7e1f6a3a8582067b6735a664736f6c63430008180033","linkReferences":{"src/lib/CrossMsgHelper.sol":{"CrossMsgHelper":[{"start":2243,"length":20},{"start":3770,"length":20},{"start":4352,"length":20},{"start":4975,"length":20}]},"src/lib/SubnetIDHelper.sol":{"SubnetIDHelper":[{"start":1450,"length":20},{"start":1740,"length":20},{"start":2005,"length":20},{"start":2688,"length":20},{"start":3131,"length":20},{"start":3921,"length":20},{"start":4185,"length":20},{"start":4649,"length":20},{"start":4811,"length":20},{"start":5106,"length":20},{"start":5232,"length":20},{"start":5385,"length":20},{"start":5509,"length":20},{"start":5647,"length":20},{"start":5821,"length":20},{"start":5950,"length":20},{"start":6483,"length":20},{"start":6753,"length":20}]}}},"methodIdentifiers":{"applyMsg((uint64,address[]),(uint8,((uint64,address[]),(uint8,bytes)),((uint64,address[]),(uint8,bytes)),uint64,uint256,bytes))":"830238c3","getNextBottomUpMsgBatch()":"4b8e4e8f","registerSubnet((uint64,address[]))":"97c2cd8b","setSubnet((uint64,address[]),uint256)":"c8251fe8"},"id":128}