{"abi":[{"type":"constructor","inputs":[],"stateMutability":"nonpayable"},{"type":"function","name":"UPGRADE_INTERFACE_VERSION","inputs":[],"outputs":[{"name":"","type":"string","internalType":"string"}],"stateMutability":"view"},{"type":"function","name":"WITHDRAW_REQUEST_DELAY","inputs":[],"outputs":[{"name":"","type":"uint256","internalType":"uint256"}],"stateMutability":"view"},{"type":"function","name":"coordinator","inputs":[],"outputs":[{"name":"","type":"address","internalType":"address"}],"stateMutability":"view"},{"type":"function","name":"dealBalancesTotal","inputs":[{"name":"token","type":"address","internalType":"contract IERC20"}],"outputs":[{"name":"supply","type":"uint256","internalType":"uint256"}],"stateMutability":"view"},{"type":"function","name":"diamond","inputs":[],"outputs":[{"name":"","type":"address","internalType":"address"}],"stateMutability":"view"},{"type":"function","name":"disableOnchainRefund","inputs":[],"outputs":[],"stateMutability":"nonpayable"},{"type":"function","name":"enableOnchainRefund","inputs":[],"outputs":[],"stateMutability":"nonpayable"},{"type":"function","name":"freeBalanceTotal","inputs":[{"name":"token","type":"address","internalType":"contract IERC20"}],"outputs":[{"name":"supply","type":"uint256","internalType":"uint256"}],"stateMutability":"view"},{"type":"function","name":"freezeAccount","inputs":[{"name":"user","type":"address","internalType":"address"}],"outputs":[],"stateMutability":"nonpayable"},{"type":"function","name":"frozen","inputs":[{"name":"user","type":"address","internalType":"address"}],"outputs":[{"name":"frozen","type":"bool","internalType":"bool"}],"stateMutability":"view"},{"type":"function","name":"fundFromLimbo","inputs":[{"name":"token","type":"address","internalType":"contract IERC20"},{"name":"user","type":"address","internalType":"address"},{"name":"amount","type":"uint256","internalType":"uint256"}],"outputs":[],"stateMutability":"nonpayable"},{"type":"function","name":"getFreeBalance","inputs":[{"name":"token","type":"address","internalType":"contract IERC20"},{"name":"user","type":"address","internalType":"address"}],"outputs":[{"name":"","type":"uint256","internalType":"uint256"}],"stateMutability":"view"},{"type":"function","name":"getFullBalance","inputs":[{"name":"token","type":"address","internalType":"contract IERC20"},{"name":"user","type":"address","internalType":"address"}],"outputs":[{"name":"","type":"uint256","internalType":"uint256"}],"stateMutability":"view"},{"type":"function","name":"initialize","inputs":[{"name":"_diamond","type":"address","internalType":"address"}],"outputs":[],"stateMutability":"nonpayable"},{"type":"function","name":"limbo","inputs":[{"name":"token","type":"address","internalType":"contract IERC20"},{"name":"user","type":"address","internalType":"address"}],"outputs":[{"name":"balance","type":"uint256","internalType":"uint256"}],"stateMutability":"view"},{"type":"function","name":"limboTotal","inputs":[{"name":"token","type":"address","internalType":"contract IERC20"}],"outputs":[{"name":"amount","type":"uint256","internalType":"uint256"}],"stateMutability":"view"},{"type":"function","name":"manualWithdrawEnabled","inputs":[],"outputs":[{"name":"","type":"bool","internalType":"bool"}],"stateMutability":"view"},{"type":"function","name":"migrateFundsFromDeal","inputs":[{"name":"token","type":"address","internalType":"contract IERC20"},{"name":"amount","type":"uint256","internalType":"uint256"}],"outputs":[],"stateMutability":"nonpayable"},{"type":"function","name":"moveBalanceFromDeal","inputs":[{"name":"token","type":"address","internalType":"contract IERC20"},{"name":"from","type":"address","internalType":"address"},{"name":"to","type":"address","internalType":"address"},{"name":"amount","type":"uint256","internalType":"uint256"}],"outputs":[],"stateMutability":"nonpayable"},{"type":"function","name":"moveBalanceToDeal","inputs":[{"name":"token","type":"address","internalType":"contract IERC20"},{"name":"user","type":"address","internalType":"address"},{"name":"amount","type":"uint256","internalType":"uint256"}],"outputs":[],"stateMutability":"nonpayable"},{"type":"function","name":"poolBalance","inputs":[{"name":"token","type":"address","internalType":"contract IERC20"}],"outputs":[{"name":"amount","type":"uint256","internalType":"uint256"}],"stateMutability":"view"},{"type":"function","name":"poolTopUp","inputs":[{"name":"token","type":"address","internalType":"contract IERC20"},{"name":"amount","type":"uint256","internalType":"uint256"}],"outputs":[],"stateMutability":"nonpayable"},{"type":"function","name":"proxiableUUID","inputs":[],"outputs":[{"name":"","type":"bytes32","internalType":"bytes32"}],"stateMutability":"view"},{"type":"function","name":"refund","inputs":[{"name":"token","type":"address","internalType":"contract IERC20"},{"name":"user","type":"address","internalType":"address"},{"name":"amount","type":"uint256","internalType":"uint256"}],"outputs":[],"stateMutability":"nonpayable"},{"type":"function","name":"sendToLimbo","inputs":[{"name":"token","type":"address","internalType":"contract IERC20"},{"name":"user","type":"address","internalType":"address"}],"outputs":[],"stateMutability":"nonpayable"},{"type":"function","name":"setCoordinator","inputs":[{"name":"_coordinator","type":"address","internalType":"address"}],"outputs":[],"stateMutability":"nonpayable"},{"type":"function","name":"setVodopad","inputs":[{"name":"_vodopad","type":"address","internalType":"address"}],"outputs":[],"stateMutability":"nonpayable"},{"type":"function","name":"terminate","inputs":[{"name":"token","type":"address","internalType":"contract IERC20"}],"outputs":[],"stateMutability":"nonpayable"},{"type":"function","name":"terminationRequest","inputs":[{"name":"token","type":"address","internalType":"contract IERC20"}],"outputs":[],"stateMutability":"nonpayable"},{"type":"function","name":"terminationVeto","inputs":[{"name":"token","type":"address","internalType":"contract IERC20"},{"name":"user","type":"address","internalType":"address"}],"outputs":[],"stateMutability":"nonpayable"},{"type":"function","name":"topUpIds","inputs":[{"name":"","type":"string","internalType":"string"}],"outputs":[{"name":"","type":"bool","internalType":"bool"}],"stateMutability":"view"},{"type":"function","name":"unfreezeAccount","inputs":[{"name":"user","type":"address","internalType":"address"}],"outputs":[],"stateMutability":"nonpayable"},{"type":"function","name":"upgradeToAndCall","inputs":[{"name":"newImplementation","type":"address","internalType":"address"},{"name":"data","type":"bytes","internalType":"bytes"}],"outputs":[],"stateMutability":"payable"},{"type":"function","name":"userTopUp","inputs":[{"name":"token","type":"address","internalType":"contract IERC20"},{"name":"user","type":"address","internalType":"address"},{"name":"amount","type":"uint256","internalType":"uint256"},{"name":"topUpId","type":"string","internalType":"string"}],"outputs":[],"stateMutability":"nonpayable"},{"type":"function","name":"vodopad","inputs":[],"outputs":[{"name":"","type":"address","internalType":"address"}],"stateMutability":"view"},{"type":"function","name":"withdrawByDeal","inputs":[{"name":"token","type":"address","internalType":"contract IERC20"},{"name":"user","type":"address","internalType":"address"},{"name":"amount","type":"uint256","internalType":"uint256"}],"outputs":[],"stateMutability":"nonpayable"},{"type":"function","name":"withdrawFromLimbo","inputs":[{"name":"token","type":"address","internalType":"contract IERC20"},{"name":"user","type":"address","internalType":"address"},{"name":"to","type":"address","internalType":"address"},{"name":"amount","type":"uint256","internalType":"uint256"}],"outputs":[],"stateMutability":"nonpayable"},{"type":"event","name":"AccountFreezeStateChanged","inputs":[{"name":"user","type":"address","indexed":true,"internalType":"address"},{"name":"frozen","type":"bool","indexed":false,"internalType":"bool"}],"anonymous":false},{"type":"event","name":"CoordinatorSet","inputs":[{"name":"coordinator","type":"address","indexed":true,"internalType":"address"}],"anonymous":false},{"type":"event","name":"DealMigrated","inputs":[{"name":"deal","type":"address","indexed":true,"internalType":"address"},{"name":"token","type":"address","indexed":true,"internalType":"contract IERC20"},{"name":"amount","type":"uint256","indexed":false,"internalType":"uint256"}],"anonymous":false},{"type":"event","name":"FundedFromLimbo","inputs":[{"name":"token","type":"address","indexed":true,"internalType":"contract IERC20"},{"name":"user","type":"address","indexed":true,"internalType":"address"},{"name":"amount","type":"uint256","indexed":false,"internalType":"uint256"}],"anonymous":false},{"type":"event","name":"Initialized","inputs":[{"name":"version","type":"uint64","indexed":false,"internalType":"uint64"}],"anonymous":false},{"type":"event","name":"ManualWithdrawDisabled","inputs":[],"anonymous":false},{"type":"event","name":"ManualWithdrawEnabled","inputs":[],"anonymous":false},{"type":"event","name":"Moved","inputs":[{"name":"token","type":"address","indexed":true,"internalType":"contract IERC20"},{"name":"from","type":"address","indexed":true,"internalType":"address"},{"name":"to","type":"address","indexed":true,"internalType":"address"},{"name":"amount","type":"uint256","indexed":false,"internalType":"uint256"}],"anonymous":false},{"type":"event","name":"PoolTopUp","inputs":[{"name":"token","type":"address","indexed":true,"internalType":"contract IERC20"},{"name":"amount","type":"uint256","indexed":false,"internalType":"uint256"}],"anonymous":false},{"type":"event","name":"Refunded","inputs":[{"name":"token","type":"address","indexed":true,"internalType":"contract IERC20"},{"name":"user","type":"address","indexed":true,"internalType":"address"},{"name":"amount","type":"uint256","indexed":false,"internalType":"uint256"}],"anonymous":false},{"type":"event","name":"SentToLimbo","inputs":[{"name":"token","type":"address","indexed":true,"internalType":"contract IERC20"},{"name":"user","type":"address","indexed":true,"internalType":"address"},{"name":"amount","type":"uint256","indexed":false,"internalType":"uint256"}],"anonymous":false},{"type":"event","name":"TerminationExecuted","inputs":[{"name":"token","type":"address","indexed":true,"internalType":"contract IERC20"},{"name":"user","type":"address","indexed":true,"internalType":"address"}],"anonymous":false},{"type":"event","name":"TerminationRequestCreated","inputs":[{"name":"token","type":"address","indexed":true,"internalType":"contract IERC20"},{"name":"user","type":"address","indexed":true,"internalType":"address"}],"anonymous":false},{"type":"event","name":"TerminationVeto","inputs":[{"name":"token","type":"address","indexed":true,"internalType":"contract IERC20"},{"name":"user","type":"address","indexed":true,"internalType":"address"}],"anonymous":false},{"type":"event","name":"Upgraded","inputs":[{"name":"implementation","type":"address","indexed":true,"internalType":"address"}],"anonymous":false},{"type":"event","name":"UserBalanceIncrease","inputs":[{"name":"token","type":"address","indexed":true,"internalType":"contract IERC20"},{"name":"user","type":"address","indexed":true,"internalType":"address"},{"name":"amount","type":"uint256","indexed":false,"internalType":"uint256"},{"name":"topUpId","type":"string","indexed":false,"internalType":"string"}],"anonymous":false},{"type":"event","name":"VodopadSet","inputs":[{"name":"vodopad","type":"address","indexed":true,"internalType":"address"}],"anonymous":false},{"type":"event","name":"WithdrawnFromLimbo","inputs":[{"name":"token","type":"address","indexed":true,"internalType":"contract IERC20"},{"name":"user","type":"address","indexed":true,"internalType":"address"},{"name":"to","type":"address","indexed":true,"internalType":"address"},{"name":"amount","type":"uint256","indexed":false,"internalType":"uint256"}],"anonymous":false},{"type":"error","name":"AddressEmptyCode","inputs":[{"name":"target","type":"address","internalType":"address"}]},{"type":"error","name":"ERC1967InvalidImplementation","inputs":[{"name":"implementation","type":"address","internalType":"address"}]},{"type":"error","name":"ERC1967NonPayable","inputs":[]},{"type":"error","name":"FailedCall","inputs":[]},{"type":"error","name":"InvalidInitialization","inputs":[]},{"type":"error","name":"NotInitializing","inputs":[]},{"type":"error","name":"ReentrancyGuardReentrantCall","inputs":[]},{"type":"error","name":"SafeERC20FailedOperation","inputs":[{"name":"token","type":"address","internalType":"address"}]},{"type":"error","name":"UUPSUnauthorizedCallContext","inputs":[]},{"type":"error","name":"UUPSUnsupportedProxiableUUID","inputs":[{"name":"slot","type":"bytes32","internalType":"bytes32"}]}],"bytecode":{"object":"0x60a080604052346100f2573060805260ff19600c5416600c557ff0c57e16840df040f15088dc2f81fe391c3923bec73e23a9662efc9c229c6a005460ff8160401c166100e3576002600160401b03196001600160401b0382160161007d575b60405161254490816100f78239608051818181611579015261161b0152f35b6001600160401b0319166001600160401b039081177ff0c57e16840df040f15088dc2f81fe391c3923bec73e23a9662efc9c229c6a005581527fc7f505b2f371ae2175ee4913f4499e1f2633a7b5936321eed1cdaeb6115181d290602090a15f8061005e565b63f92ee8a960e01b5f5260045ffd5b5f80fdfe6080806040526004361015610012575f80fd5b5f3560e01c9081630a00909714611de4575080631229add514611dac57806314c275e814611d845780631e4343ec14611d62578063301aaac914611b4157806331acc942146118b05780633adce7151461186d5780633eb026af146117ca5780634f1ef286146115cd57806352d1902d1461156757806368abb5e01461152f578063788649ea146114e05780637df5070f146113e95780637fad64011461127f57806382ad6f35146111115780638ea98117146110a0578063933a6d5e14611068578063985a3e1a14610f2b5780639cf8fc3614610eeb578063a0aeae9f14610dda578063a2e939b114610c24578063ad3cb1cc14610bd9578063ad5fbcc814610a63578063ae77dc1014610a13578063c08ea6e6146109b9578063c44ead3c14610981578063c4d66de814610837578063cff2a7a11461064b578063d05166501461060e578063d4f4ba48146105a1578063de700da614610551578063eb9483a5146104f8578063ec178c13146104ce578063edb455291461021e578063f0b7db4e146101f7578063f26c159f146101d45763fac4bf22146101b3575f80fd5b346101d0575f3660031901126101d057602060405162093a808152f35b5f80fd5b346101d05760203660031901126101d0576101f56101f0611e07565b612095565b005b346101d0575f3660031901126101d0575f546040516001600160a01b039091168152602090f35b346101d05760203660031901126101d057610237611e07565b335f52600b60205261025060ff60405f20541615611f85565b6102586122e3565b60ff600c54161561046f576001600160a01b0381165f8181526005602090815260408083203384529091529020549091901561041e57815f52600560205260405f2060018060a01b0333165f5260205262093a806102ba60405f205442611fe3565b106103ce575f82815260036020908152604080832033845290915290205415610375575f82815260036020908152604080832033845282528083208054908490558584526006909252909120805461033d939190610319908490611fe3565b90555f848152600560209081526040808320338085529252822091909155906122a6565b33907ff2a85b5556e546b36f4e27e17ad8d769e99fb9ca86e58a6a27b57f9b08f52afb5f80a35f5f8051602061248f8339815191525d005b60405162461bcd60e51b815260206004820152602b60248201527f42616c616e63654b65657065723a2077697468647261773a206e6f7420656e6f60448201526a7567682062616c616e636560a81b6064820152608490fd5b60405162461bcd60e51b815260206004820152602260248201527f42616c616e63654b65657065723a2077697468647261773a20746f6f206561726044820152616c7960f01b6064820152608490fd5b60405162461bcd60e51b815260206004820152602360248201527f42616c616e63654b65657065723a2077697468647261773a206e6f2072657175604482015262195cdd60ea1b6064820152608490fd5b60405162461bcd60e51b815260206004820152603160248201527f42616c616e63654b65657065723a2077697468647261773a206d616e75616c206044820152701dda5d1a191c985dc8191a5cd8589b1959607a1b6064820152608490fd5b346101d05760403660031901126101d0576101f56104ea611e07565b6104f2611e1d565b906120ce565b346101d05760203660031901126101d0576001600160a01b03610519611e07565b168060018060a01b031960025416176002557f5c0c0c7501c5d87c54d94317f93c8cf0409863e931b37857da1c0b12418669f85f80a2005b346101d05760403660031901126101d05761056a611e07565b610572611e1d565b6001600160a01b039182165f908152600360209081526040808320949093168252928352819020549051908152f35b346101d05760403660031901126101d05760206106066105bf611e07565b6105c7611e1d565b6001600160a01b039182165f81815260038652604080822094909316808252938652828120549181526004865282812093815292855291205490612004565b604051908152f35b346101d05760203660031901126101d0576001600160a01b0361062f611e07565b165f52600b602052602060ff60405f2054166040519015158152f35b346101d05761065936611f13565b909160018060a01b031691825f52600b60205261067d60ff60405f20541615611f85565b60018060a01b031692835f52600b60205261069f60ff60405f20541615611f85565b6106a76122e3565b60018060a01b031690815f52600460205260405f20835f526020528060405f2054106107e657815f5260076020528060405f20541061078f5760207f9f784fc02a186f1c98b2d9f15fda084da27cdd291a3785d978f91911d880516b91835f526004825260405f20855f52825260405f20610723828254611fe3565b9055835f526003825260405f20865f52825260405f20610744828254612004565b9055835f526007825260405f2061075c828254611fe3565b9055835f526006825260405f20610774828254612004565b9055604051908152a45f5f8051602061248f8339815191525d005b60405162461bcd60e51b815260206004820152603c60248201525f805160206124cf83398151915260448201527b616c3a206e6f7420656e6f75676820746f74616c2062616c616e636560201b6064820152608490fd5b60405162461bcd60e51b815260206004820152603660248201525f805160206124cf833981519152604482015275616c3a206e6f7420656e6f7567682062616c616e636560501b6064820152608490fd5b346101d05760203660031901126101d057610850611e07565b5f805160206124af83398151915254604081901c60ff161591906001600160401b03811680159081610979575b600114908161096f575b159081610966575b50610957576001600160401b031981166001175f805160206124af833981519152558261092f575b505f80546001600160a01b0319166001600160a01b03929092169190911790556108dd57005b60ff60401b195f805160206124af83398151915254165f805160206124af833981519152557fc7f505b2f371ae2175ee4913f4499e1f2633a7b5936321eed1cdaeb6115181d2602060405160018152a1005b6001600160481b0319166001600160401b01175f805160206124af83398151915255826108b7565b63f92ee8a960e01b5f5260045ffd5b9050158461088f565b303b159150610887565b84915061087d565b346101d05760203660031901126101d0576001600160a01b036109a2611e07565b165f52600a602052602060405f2054604051908152f35b346101d05760203660031901126101d0576004356001600160401b0381116101d05760ff6020806109ef81943690600401611ebb565b604051928184925191829101835e8101600d81520301902054166040519015158152f35b346101d05760403660031901126101d057610a2c611e07565b610a34611e1d565b6001600160a01b039182165f908152600960209081526040808320949093168252928352819020549051908152f35b346101d057610a7136611ed9565b9060018060a01b0381165f52600b602052610a9360ff60405f20541615611f85565b610a9b6122e3565b60018060a01b03831692835f52600360205260405f2060018060a01b0383165f526020528260405f205410610b8d57835f5260066020528260405f205410610b3b5783610b29945f52600360205260405f2060018060a01b0384165f5260205260405f20610b0a858254611fe3565b90555f52600660205260405f20610b22848254611fe3565b90556122a6565b5f5f8051602061248f8339815191525d005b60405162461bcd60e51b815260206004820152603760248201525f8051602061244f8339815191526044820152766f7420656e6f75676820746f74616c2062616c616e636560481b6064820152608490fd5b60405162461bcd60e51b815260206004820152603160248201525f8051602061244f8339815191526044820152706f7420656e6f7567682062616c616e636560781b6064820152608490fd5b346101d0575f3660031901126101d057610c20604051610bfa604082611e33565b60058152640352e302e360dc1b6020820152604051918291602083526020830190611f61565b0390f35b346101d057610c3236611ed9565b9160018060a01b0382165f52600b602052610c5460ff60405f20541615611f85565b610c5c6122e3565b60018060a01b031690815f52600360205260405f2060018060a01b0382165f526020528260405f205410610d8b57815f5260066020528260405f205410610d3657815f52600460205260405f2060018060a01b0382165f5260205260405f20610cc6848254612004565b9055815f52600360205260405f209060018060a01b03165f5260205260405f20610cf1838254611fe3565b9055805f52600760205260405f20610d0a838254612004565b90555f526006602052610d2260405f20918254611fe3565b90555f5f8051602061248f8339815191525d005b60405162461bcd60e51b815260206004820152603a60248201525f805160206123ef8339815191526044820152793a206e6f7420656e6f75676820746f74616c2062616c616e636560301b6064820152608490fd5b60405162461bcd60e51b815260206004820152603460248201525f805160206123ef8339815191526044820152733a206e6f7420656e6f7567682062616c616e636560601b6064820152608490fd5b346101d05760403660031901126101d057610df3611e07565b602435610dfe6122e3565b604051638da5cb5b60e01b815291602083600481335afa928315610ee0575f93610eaf575b5060018060a01b031691825f52600460205260405f209060018060a01b03165f5260205260405f20610e56828254612004565b9055815f52600760205260405f20610e6f828254612004565b90556040519081527fbe2621ea924b53fdd75100b8ab51dc1f68d20dcb49e18bb989c43111e519529760203392a35f5f8051602061248f8339815191525d005b610ed291935060203d602011610ed9575b610eca8183611e33565b810190612076565b9183610e23565b503d610ec0565b6040513d5f823e3d90fd5b346101d0575f3660031901126101d05760ff19600c5416600c557f81efeaf2a7b0b2235e7258907f56e43162483d88c18edd2810f1b78378fe06e35f80a1005b346101d057610f3936611f13565b919290610f576001600160a01b03610f4f612257565b163314612011565b60018060a01b03821691825f52600960205260405f2060018060a01b0386165f526020528360405f2054106110065781610fef857f5fbabf990c76998ecbb2af9cc1a42242bb8b365195f203b61be26915a23101c594602094875f526009865260405f2060018060a01b038b165f52865260405f20610fd7848254611fe3565b9055875f52600a865260405f20610b22848254611fe3565b6040519485526001600160a01b03908116951693a4005b60405162461bcd60e51b815260206004820152603460248201527f42616c616e63654b65657065723a20776974686472617746726f6d4c696d626f6044820152733a206e6f7420656e6f7567682062616c616e636560601b6064820152608490fd5b346101d05760203660031901126101d0576001600160a01b03611089611e07565b165f526006602052602060405f2054604051908152f35b346101d05760203660031901126101d0576110b9611e07565b6110cc6001600160a01b03610f4f612257565b600180546001600160a01b0319166001600160a01b039290921691821790557fd1a6a14209a385a964d036e404cb5cfb71f4000cdb03c9366292430787261be65f80a2005b346101d05761111f36611ed9565b919060018060a01b03821691825f52600360205260405f2060018060a01b0383165f526020528360405f20541061123257825f5260066020528360405f2054106111df57816111cc857fec1e5ed733e00f1a00915d56caef57b4f52312dde4f9b3165f213319a0da156b94602094875f526003865260405f2060018060a01b0383165f52865260405f206111b4848254611fe3565b9055875f526006865260405f20610b22848254611fe3565b6040519485526001600160a01b031693a3005b60405162461bcd60e51b815260206004820152603860248201525f805160206124ef8339815191526044820152776e6f7420656e6f75676820746f74616c2062616c616e636560401b6064820152608490fd5b60405162461bcd60e51b815260206004820152603260248201525f805160206124ef8339815191526044820152716e6f7420656e6f7567682062616c616e636560701b6064820152608490fd5b346101d05761128d36611ed9565b916112a16001600160a01b03610f4f612257565b60018060a01b031690815f52600960205260405f2060018060a01b0382165f526020528260405f20541061138b5760207fe01090fc510299f9e04f0680c85735399f733add7da9fbbf60e65fb26dd8975291835f526009825260405f2060018060a01b0382165f52825260405f2061131a868254611fe3565b9055835f52600a825260405f20611332868254611fe3565b90555f8481526003835260408082206001600160a01b038416835284529020805461135e908790612004565b9055835f526006825260405f20611376868254612004565b90556040519485526001600160a01b031693a3005b60405162461bcd60e51b815260206004820152603060248201527f42616c616e63654b65657065723a2066756e6446726f6d4c696d626f3a206e6f60448201526f7420656e6f7567682062616c616e636560801b6064820152608490fd5b346101d05760403660031901126101d057611402611e07565b61140a611e1d565b60018060a01b03821691825f52600560205260405f2060018060a01b0383165f5260205260405f20541561149b578161146291845f52600560205260405f2060018060a01b0383165f526020525f60408120556120ce565b61146b81612095565b6001600160a01b0316907f286bdf093a3e9e05929ff8eacf03b75d534a86a972c2f1a699f8a4699713d70d5f80a3005b60405162461bcd60e51b815260206004820152601f60248201527f42616c616e63654b65657065723a207665746f3a206e6f2072657175657374006044820152606490fd5b346101d05760203660031901126101d0576001600160a01b03611501611e07565b16805f52600b60205260405f2060ff1981541690555f8051602061240f83398151915260206040515f8152a2005b346101d05760203660031901126101d0576001600160a01b03611550611e07565b165f526008602052602060405f2054604051908152f35b346101d0575f3660031901126101d0577f00000000000000000000000000000000000000000000000000000000000000006001600160a01b031630036115be5760206040515f8051602061246f8339815191528152f35b63703e46dd60e11b5f5260045ffd5b60403660031901126101d0576115e1611e07565b6024356001600160401b0381116101d057366023820112156101d057611611903690602481600401359101611e85565b6001600160a01b037f0000000000000000000000000000000000000000000000000000000000000000163081149081156117a8575b506115be576040516352d1902d60e01b81526001600160a01b0383169290602081600481875afa5f9181611774575b5061168d5783634c9c8ce360e01b5f5260045260245ffd5b805f8051602061246f8339815191528592036117625750813b15611750575f8051602061246f83398151915280546001600160a01b031916821790557fbc7cd75a20ee27fd9adebab32041f755214dbc6bffa90cc0225b39da2e5c2d3b5f80a2815115611738575f808360206101f595519101845af43d15611730573d9161171483611e6a565b926117226040519485611e33565b83523d5f602085013e612370565b606091612370565b50503461174157005b63b398979f60e01b5f5260045ffd5b634c9c8ce360e01b5f5260045260245ffd5b632a87526960e21b5f5260045260245ffd5b9091506020813d6020116117a0575b8161179060209383611e33565b810103126101d057519085611675565b3d9150611783565b5f8051602061246f833981519152546001600160a01b03161415905083611646565b346101d05760403660031901126101d0576117e3611e07565b7f57031032c395383baf1c155b882b1c6e5df5305b62cdd7e7473f81096b01a8f2602060243561186460018060a01b03851694855f526008845260405f2061182c848254612004565b90556040516323b872dd60e01b85820152336024820152306044820152606480820185905281529061185f608483611e33565b612318565b604051908152a2005b346101d0575f3660031901126101d057600160ff19600c541617600c557f673504d5f4ad81783d4234d7058eeaf4814c874a6f50a994ceda8df9322f22e75f80a1005b346101d05760803660031901126101d0576118c9611e07565b6118d1611e1d565b6044356064356001600160401b0381116101d0576118f3903690600401611ebb565b9160018060a01b031692835f52600b60205261191660ff60405f20541615611f85565b6002546001600160a01b03163303611ae15760405160ff845191602081818801948086835e8101600d8152030190205416611a83576020604051809286518091835e8101600d815203019020600160ff1982541617905560018060a01b031691825f5260086020528160405f205410611a21577fcc27a5bfdacae4227fbb65a1bf87152d71f26eb2abfe0b17b346e9db47dbea5b91835f52600860205260405f206119c2828254611fe3565b9055835f52600360205260405f20855f5260205260405f206119e5828254612004565b9055835f52600660205260405f206119fe828254612004565b9055611a1c6040519283928352604060208401526040830190611f61565b0390a3005b60405162461bcd60e51b815260206004820152603460248201527f42616c616e63654b65657065723a2075736572546f7055703a206e6f7420656e6044820152736f75676820676174657761792062616c616e636560601b6064820152608490fd5b60405162461bcd60e51b815260206004820152603060248201527f42616c616e63654b65657065723a20706f6f6c546f7055703a20746f702d757060448201526f081a5908185b1c9958591e481d5cd95960821b6064820152608490fd5b60405162461bcd60e51b815260206004820152603260248201527f42616c616e63654b65657065723a204f6e6c7920766f646f7061642063616e2060448201527131b0b636103a3434b990333ab731ba34b7b760711b6064820152608490fd5b346101d05760203660031901126101d057611b5a611e07565b335f52600b602052611b7360ff60405f20541615611f85565b6001600160a01b03165f818152600460209081526040808320338452909152902054611d0e5760ff600c541615611cbb575f81815260036020908152604080832033845290915290205415611c6e575f818152600560209081526040808320338452909152902054611c22575f818152600560209081526040808320338085529252822042905591907f89a27f546dfff1a0bb7bc60c9474a89e83d0f6fb31c9cf6691b7b9d3daa327ba9080a3005b60405162461bcd60e51b815260206004820152603160248201525f8051602061242f833981519152604482015270185b1c9958591e481c995c5d595cdd1959607a1b6064820152608490fd5b60405162461bcd60e51b815260206004820152603260248201525f8051602061242f8339815191526044820152716e6f7420656e6f7567682062616c616e636560701b6064820152608490fd5b60405162461bcd60e51b815260206004820152603860248201525f8051602061242f8339815191526044820152771b585b9d585b081dda5d1a191c985dc8191a5cd8589b195960421b6064820152608490fd5b60405162461bcd60e51b815260206004820152603960248201525f805160206124ef8339815191526044820152786465616c2062616c616e6365206973206e6f7420656d70747960381b6064820152608490fd5b346101d0575f3660031901126101d057602060ff600c54166040519015158152f35b346101d0575f3660031901126101d0576002546040516001600160a01b039091168152602090f35b346101d05760203660031901126101d0576001600160a01b03611dcd611e07565b165f526007602052602060405f2054604051908152f35b346101d0575f3660031901126101d0576001546001600160a01b03168152602090f35b600435906001600160a01b03821682036101d057565b602435906001600160a01b03821682036101d057565b601f909101601f19168101906001600160401b03821190821017611e5657604052565b634e487b7160e01b5f52604160045260245ffd5b6001600160401b038111611e5657601f01601f191660200190565b929192611e9182611e6a565b91611e9f6040519384611e33565b8294818452818301116101d0578281602093845f960137010152565b9080601f830112156101d057816020611ed693359101611e85565b90565b60609060031901126101d0576004356001600160a01b03811681036101d057906024356001600160a01b03811681036101d0579060443590565b60809060031901126101d0576004356001600160a01b03811681036101d057906024356001600160a01b03811681036101d057906044356001600160a01b03811681036101d0579060643590565b805180835260209291819084018484015e5f828201840152601f01601f1916010190565b15611f8c57565b60405162461bcd60e51b815260206004820152602960248201527f42616c616e63654b65657065723a2055736572206973207065726d616e656e74604482015268363c90333937bd32b760b91b6064820152608490fd5b91908203918211611ff057565b634e487b7160e01b5f52601160045260245ffd5b91908201809211611ff057565b1561201857565b60405162461bcd60e51b815260206004820152603060248201527f42616c616e63654b65657065723a204f6e6c79206f776e65722063616e20636160448201526f3636103a3434b990333ab731ba34b7b760811b6064820152608490fd5b908160209103126101d057516001600160a01b03811681036101d05790565b60018060a01b0316805f52600b60205260405f20600160ff198254161790555f8051602061240f833981519152602060405160018152a2565b60018060a01b0316805f52600360205260405f2060018060a01b0383165f5260205260405f205491821561220d57815f5260066020528260405f2054106121bd5760207f76c900dcf08461e70b464dbdfd91efe2f662a56655b60a776873402dfb2d700391835f526006825260405f20612149868254611fe3565b90555f8481526009835260408082206001600160a01b0384168352845290208054612175908790612004565b9055835f52600a825260405f2061218d868254612004565b90555f8481526003835260408082206001600160a01b0393909316808352928452808220919091555194855293a3565b60405162461bcd60e51b815260206004820152603560248201525f805160206123cf83398151915260448201527420656e6f75676820746f74616c2062616c616e636560581b6064820152608490fd5b60405162461bcd60e51b815260206004820152602f60248201525f805160206123cf83398151915260448201526e20656e6f7567682062616c616e636560881b6064820152608490fd5b5f54604051638da5cb5b60e01b815290602090829060049082906001600160a01b03165afa908115610ee0575f9161228d575090565b611ed6915060203d602011610ed957610eca8183611e33565b60405163a9059cbb60e01b60208201526001600160a01b0390921660248301526044808301939093529181526122e19161185f606483611e33565b565b5f8051602061248f8339815191525c6123095760015f8051602061248f8339815191525d565b633ee5aeb560e01b5f5260045ffd5b905f602091828151910182855af115610ee0575f513d61236757506001600160a01b0381163b155b6123475750565b635274afe760e01b5f9081526001600160a01b0391909116600452602490fd5b60011415612340565b90612394575080511561238557805190602001fd5b63d6bda27560e01b5f5260045ffd5b815115806123c5575b6123a5575090565b639996b31560e01b5f9081526001600160a01b0391909116600452602490fd5b50803b1561239d56fe42616c616e63654b65657065723a20667265657a65546f4c696d623a206e6f7442616c616e63654b65657065723a206d6f766542616c616e6365546f4465616c3f802f8b92b9cc88cab0fa79c2885fa06c5ed00376770579a4eb7d1c2a8eb92d42616c616e63654b65657065723a207769746864726177526571756573743a2042616c616e63654b65657065723a20776974686472617742794465616c3a206e360894a13ba1a3210667c828492db98dca3e2076cc3735a920a3ca505d382bbc9b779b17422d0df92223018b32b4d1fa46e071723d6817e2486d003becc55f00f0c57e16840df040f15088dc2f81fe391c3923bec73e23a9662efc9c229c6a0042616c616e63654b65657065723a206d6f766542616c616e636546726f6d446542616c616e63654b65657065723a20766f646f70616457697468647261773a20a2646970667358221220b3ebeab050aa8f61a120829f64480711713850d9b7fc3135c6769750405f074464736f6c634300081a0033","linkReferences":{}},"methodIdentifiers":{"UPGRADE_INTERFACE_VERSION()":"ad3cb1cc","WITHDRAW_REQUEST_DELAY()":"fac4bf22","coordinator()":"0a009097","dealBalancesTotal(address)":"1229add5","diamond()":"f0b7db4e","disableOnchainRefund()":"9cf8fc36","enableOnchainRefund()":"3adce715","freeBalanceTotal(address)":"933a6d5e","freezeAccount(address)":"f26c159f","frozen(address)":"d0516650","fundFromLimbo(address,address,uint256)":"7fad6401","getFreeBalance(address,address)":"de700da6","getFullBalance(address,address)":"d4f4ba48","initialize(address)":"c4d66de8","limbo(address,address)":"ae77dc10","limboTotal(address)":"c44ead3c","manualWithdrawEnabled()":"1e4343ec","migrateFundsFromDeal(address,uint256)":"a0aeae9f","moveBalanceFromDeal(address,address,address,uint256)":"cff2a7a1","moveBalanceToDeal(address,address,uint256)":"a2e939b1","poolBalance(address)":"68abb5e0","poolTopUp(address,uint256)":"3eb026af","proxiableUUID()":"52d1902d","refund(address,address,uint256)":"82ad6f35","sendToLimbo(address,address)":"ec178c13","setCoordinator(address)":"8ea98117","setVodopad(address)":"eb9483a5","terminate(address)":"edb45529","terminationRequest(address)":"301aaac9","terminationVeto(address,address)":"7df5070f","topUpIds(string)":"c08ea6e6","unfreezeAccount(address)":"788649ea","upgradeToAndCall(address,bytes)":"4f1ef286","userTopUp(address,address,uint256,string)":"31acc942","vodopad()":"14c275e8","withdrawByDeal(address,address,uint256)":"ad5fbcc8","withdrawFromLimbo(address,address,address,uint256)":"985a3e1a"},"storageLayout":{"storage":[{"astId":56421,"contract":"src/balance-keeper/BalanceKeeperMock.sol:BalanceKeeperMock","label":"diamond","offset":0,"slot":"0","type":"t_address"},{"astId":56423,"contract":"src/balance-keeper/BalanceKeeperMock.sol:BalanceKeeperMock","label":"coordinator","offset":0,"slot":"1","type":"t_address"},{"astId":56425,"contract":"src/balance-keeper/BalanceKeeperMock.sol:BalanceKeeperMock","label":"vodopad","offset":0,"slot":"2","type":"t_address"},{"astId":56432,"contract":"src/balance-keeper/BalanceKeeperMock.sol:BalanceKeeperMock","label":"freeBalances","offset":0,"slot":"3","type":"t_mapping(t_contract(IERC20)39797,t_mapping(t_address,t_uint256))"},{"astId":56439,"contract":"src/balance-keeper/BalanceKeeperMock.sol:BalanceKeeperMock","label":"dealBalances","offset":0,"slot":"4","type":"t_mapping(t_contract(IERC20)39797,t_mapping(t_address,t_uint256))"},{"astId":56446,"contract":"src/balance-keeper/BalanceKeeperMock.sol:BalanceKeeperMock","label":"terminationRequests","offset":0,"slot":"5","type":"t_mapping(t_contract(IERC20)39797,t_mapping(t_address,t_uint256))"},{"astId":56451,"contract":"src/balance-keeper/BalanceKeeperMock.sol:BalanceKeeperMock","label":"freeBalanceTotal","offset":0,"slot":"6","type":"t_mapping(t_contract(IERC20)39797,t_uint256)"},{"astId":56456,"contract":"src/balance-keeper/BalanceKeeperMock.sol:BalanceKeeperMock","label":"dealBalancesTotal","offset":0,"slot":"7","type":"t_mapping(t_contract(IERC20)39797,t_uint256)"},{"astId":56461,"contract":"src/balance-keeper/BalanceKeeperMock.sol:BalanceKeeperMock","label":"poolBalance","offset":0,"slot":"8","type":"t_mapping(t_contract(IERC20)39797,t_uint256)"},{"astId":56468,"contract":"src/balance-keeper/BalanceKeeperMock.sol:BalanceKeeperMock","label":"limbo","offset":0,"slot":"9","type":"t_mapping(t_contract(IERC20)39797,t_mapping(t_address,t_uint256))"},{"astId":56473,"contract":"src/balance-keeper/BalanceKeeperMock.sol:BalanceKeeperMock","label":"limboTotal","offset":0,"slot":"10","type":"t_mapping(t_contract(IERC20)39797,t_uint256)"},{"astId":56477,"contract":"src/balance-keeper/BalanceKeeperMock.sol:BalanceKeeperMock","label":"frozen","offset":0,"slot":"11","type":"t_mapping(t_address,t_bool)"},{"astId":56480,"contract":"src/balance-keeper/BalanceKeeperMock.sol:BalanceKeeperMock","label":"manualWithdrawEnabled","offset":0,"slot":"12","type":"t_bool"},{"astId":56484,"contract":"src/balance-keeper/BalanceKeeperMock.sol:BalanceKeeperMock","label":"topUpIds","offset":0,"slot":"13","type":"t_mapping(t_string_memory_ptr,t_bool)"}],"types":{"t_address":{"encoding":"inplace","label":"address","numberOfBytes":"20"},"t_bool":{"encoding":"inplace","label":"bool","numberOfBytes":"1"},"t_contract(IERC20)39797":{"encoding":"inplace","label":"contract IERC20","numberOfBytes":"20"},"t_mapping(t_address,t_bool)":{"encoding":"mapping","key":"t_address","label":"mapping(address => bool)","numberOfBytes":"32","value":"t_bool"},"t_mapping(t_address,t_uint256)":{"encoding":"mapping","key":"t_address","label":"mapping(address => uint256)","numberOfBytes":"32","value":"t_uint256"},"t_mapping(t_contract(IERC20)39797,t_mapping(t_address,t_uint256))":{"encoding":"mapping","key":"t_contract(IERC20)39797","label":"mapping(contract IERC20 => mapping(address => uint256))","numberOfBytes":"32","value":"t_mapping(t_address,t_uint256)"},"t_mapping(t_contract(IERC20)39797,t_uint256)":{"encoding":"mapping","key":"t_contract(IERC20)39797","label":"mapping(contract IERC20 => uint256)","numberOfBytes":"32","value":"t_uint256"},"t_mapping(t_string_memory_ptr,t_bool)":{"encoding":"mapping","key":"t_string_memory_ptr","label":"mapping(string => bool)","numberOfBytes":"32","value":"t_bool"},"t_string_memory_ptr":{"encoding":"bytes","label":"string","numberOfBytes":"32"},"t_uint256":{"encoding":"inplace","label":"uint256","numberOfBytes":"32"}}},"devdoc":{"version":1,"kind":"dev","methods":{"constructor":{},"proxiableUUID()":{"details":"Implementation of the ERC-1822 {proxiableUUID} function. This returns the storage slot used by the implementation. It is used to validate the implementation's compatibility when performing an upgrade. IMPORTANT: A proxy pointing at a proxiable contract should not be considered proxiable itself, because this risks bricking a proxy that upgrades to it, by delegating to itself until out of gas. Thus it is critical that this function revert if invoked through a proxy. This is guaranteed by the `notDelegated` modifier."},"refund(address,address,uint256)":{"details":"Refunds the specified amount of tokens to the user"},"upgradeToAndCall(address,bytes)":{"details":"Upgrade the implementation of the proxy to `newImplementation`, and subsequently execute the function call encoded in `data`. Calls {_authorizeUpgrade}. Emits an {Upgraded} event."}},"events":{"Initialized(uint64)":{"details":"Triggered when the contract has been initialized or reinitialized."},"Upgraded(address)":{"details":"Emitted when the implementation is upgraded."}},"errors":{"AddressEmptyCode(address)":[{"details":"There's no code at `target` (it is not a contract)."}],"ERC1967InvalidImplementation(address)":[{"details":"The `implementation` of the proxy is invalid."}],"ERC1967NonPayable()":[{"details":"An upgrade function sees `msg.value > 0` that may be lost."}],"FailedCall()":[{"details":"A call to an address target failed. The target may have reverted."}],"InvalidInitialization()":[{"details":"The contract is already initialized."}],"NotInitializing()":[{"details":"The contract is not initializing."}],"ReentrancyGuardReentrantCall()":[{"details":"Unauthorized reentrant call."}],"SafeERC20FailedOperation(address)":[{"details":"An operation with an ERC-20 token failed."}],"UUPSUnauthorizedCallContext()":[{"details":"The call is from an unauthorized context."}],"UUPSUnsupportedProxiableUUID(bytes32)":[{"details":"The storage `slot` is unsupported as a UUID."}]}},"id":71}