{"abi":[{"type":"constructor","inputs":[],"stateMutability":"nonpayable"},{"type":"function","name":"UPGRADE_INTERFACE_VERSION","inputs":[],"outputs":[{"name":"","type":"string","internalType":"string"}],"stateMutability":"view"},{"type":"function","name":"WITHDRAW_REQUEST_DELAY","inputs":[],"outputs":[{"name":"","type":"uint256","internalType":"uint256"}],"stateMutability":"view"},{"type":"function","name":"coordinator","inputs":[],"outputs":[{"name":"","type":"address","internalType":"address"}],"stateMutability":"view"},{"type":"function","name":"dealBalancesTotal","inputs":[{"name":"token","type":"address","internalType":"contract IERC20"}],"outputs":[{"name":"supply","type":"uint256","internalType":"uint256"}],"stateMutability":"view"},{"type":"function","name":"diamond","inputs":[],"outputs":[{"name":"","type":"address","internalType":"address"}],"stateMutability":"view"},{"type":"function","name":"disableOnchainRefund","inputs":[],"outputs":[],"stateMutability":"nonpayable"},{"type":"function","name":"enableOnchainRefund","inputs":[],"outputs":[],"stateMutability":"nonpayable"},{"type":"function","name":"freeBalanceTotal","inputs":[{"name":"token","type":"address","internalType":"contract IERC20"}],"outputs":[{"name":"supply","type":"uint256","internalType":"uint256"}],"stateMutability":"view"},{"type":"function","name":"freezeAccount","inputs":[{"name":"user","type":"address","internalType":"address"}],"outputs":[],"stateMutability":"nonpayable"},{"type":"function","name":"frozen","inputs":[{"name":"user","type":"address","internalType":"address"}],"outputs":[{"name":"frozen","type":"bool","internalType":"bool"}],"stateMutability":"view"},{"type":"function","name":"fundFromLimbo","inputs":[{"name":"token","type":"address","internalType":"contract IERC20"},{"name":"user","type":"address","internalType":"address"},{"name":"amount","type":"uint256","internalType":"uint256"}],"outputs":[],"stateMutability":"nonpayable"},{"type":"function","name":"getFreeBalance","inputs":[{"name":"token","type":"address","internalType":"contract IERC20"},{"name":"user","type":"address","internalType":"address"}],"outputs":[{"name":"","type":"uint256","internalType":"uint256"}],"stateMutability":"view"},{"type":"function","name":"getFullBalance","inputs":[{"name":"token","type":"address","internalType":"contract IERC20"},{"name":"user","type":"address","internalType":"address"}],"outputs":[{"name":"","type":"uint256","internalType":"uint256"}],"stateMutability":"view"},{"type":"function","name":"initialize","inputs":[{"name":"_diamond","type":"address","internalType":"address"}],"outputs":[],"stateMutability":"nonpayable"},{"type":"function","name":"limbo","inputs":[{"name":"token","type":"address","internalType":"contract IERC20"},{"name":"user","type":"address","internalType":"address"}],"outputs":[{"name":"balance","type":"uint256","internalType":"uint256"}],"stateMutability":"view"},{"type":"function","name":"limboTotal","inputs":[{"name":"token","type":"address","internalType":"contract IERC20"}],"outputs":[{"name":"amount","type":"uint256","internalType":"uint256"}],"stateMutability":"view"},{"type":"function","name":"manualWithdrawEnabled","inputs":[],"outputs":[{"name":"","type":"bool","internalType":"bool"}],"stateMutability":"view"},{"type":"function","name":"migrateFundsFromDeal","inputs":[{"name":"token","type":"address","internalType":"contract IERC20"},{"name":"amount","type":"uint256","internalType":"uint256"}],"outputs":[],"stateMutability":"nonpayable"},{"type":"function","name":"moveBalanceFromDeal","inputs":[{"name":"token","type":"address","internalType":"contract IERC20"},{"name":"user","type":"address","internalType":"address"},{"name":"amount","type":"uint256","internalType":"uint256"},{"name":"reserved","type":"uint8","internalType":"uint8"}],"outputs":[],"stateMutability":"nonpayable"},{"type":"function","name":"moveBalanceToDeal","inputs":[{"name":"token","type":"address","internalType":"contract IERC20"},{"name":"user","type":"address","internalType":"address"},{"name":"amount","type":"uint256","internalType":"uint256"},{"name":"reserved","type":"uint8","internalType":"uint8"}],"outputs":[],"stateMutability":"nonpayable"},{"type":"function","name":"moveFreeBalance","inputs":[{"name":"token","type":"address","internalType":"contract IERC20"},{"name":"from","type":"address","internalType":"address"},{"name":"to","type":"address","internalType":"address"},{"name":"amount","type":"uint256","internalType":"uint256"},{"name":"reserved","type":"uint8","internalType":"uint8"}],"outputs":[],"stateMutability":"nonpayable"},{"type":"function","name":"poolBalance","inputs":[{"name":"token","type":"address","internalType":"contract IERC20"}],"outputs":[{"name":"amount","type":"uint256","internalType":"uint256"}],"stateMutability":"view"},{"type":"function","name":"poolTopUp","inputs":[{"name":"token","type":"address","internalType":"contract IERC20"},{"name":"amount","type":"uint256","internalType":"uint256"}],"outputs":[],"stateMutability":"nonpayable"},{"type":"function","name":"poolWithdraw","inputs":[{"name":"token","type":"address","internalType":"contract IERC20"},{"name":"amount","type":"uint256","internalType":"uint256"}],"outputs":[],"stateMutability":"nonpayable"},{"type":"function","name":"proxiableUUID","inputs":[],"outputs":[{"name":"","type":"bytes32","internalType":"bytes32"}],"stateMutability":"view"},{"type":"function","name":"refund","inputs":[{"name":"token","type":"address","internalType":"contract IERC20"},{"name":"user","type":"address","internalType":"address"},{"name":"amount","type":"uint256","internalType":"uint256"}],"outputs":[],"stateMutability":"nonpayable"},{"type":"function","name":"sendToLimbo","inputs":[{"name":"token","type":"address","internalType":"contract IERC20"},{"name":"user","type":"address","internalType":"address"}],"outputs":[],"stateMutability":"nonpayable"},{"type":"function","name":"setCoordinator","inputs":[{"name":"_coordinator","type":"address","internalType":"address"}],"outputs":[],"stateMutability":"nonpayable"},{"type":"function","name":"setVodopad","inputs":[{"name":"_vodopad","type":"address","internalType":"address"}],"outputs":[],"stateMutability":"nonpayable"},{"type":"function","name":"terminate","inputs":[{"name":"token","type":"address","internalType":"contract IERC20"}],"outputs":[],"stateMutability":"nonpayable"},{"type":"function","name":"terminationRequest","inputs":[{"name":"token","type":"address","internalType":"contract IERC20"}],"outputs":[],"stateMutability":"nonpayable"},{"type":"function","name":"terminationVeto","inputs":[{"name":"token","type":"address","internalType":"contract IERC20"},{"name":"user","type":"address","internalType":"address"}],"outputs":[],"stateMutability":"nonpayable"},{"type":"function","name":"topUpIds","inputs":[{"name":"","type":"string","internalType":"string"}],"outputs":[{"name":"","type":"bool","internalType":"bool"}],"stateMutability":"view"},{"type":"function","name":"unfreezeAccount","inputs":[{"name":"user","type":"address","internalType":"address"}],"outputs":[],"stateMutability":"nonpayable"},{"type":"function","name":"upgradeToAndCall","inputs":[{"name":"newImplementation","type":"address","internalType":"address"},{"name":"data","type":"bytes","internalType":"bytes"}],"outputs":[],"stateMutability":"payable"},{"type":"function","name":"userTopUp","inputs":[{"name":"token","type":"address","internalType":"contract IERC20"},{"name":"user","type":"address","internalType":"address"},{"name":"amount","type":"uint256","internalType":"uint256"},{"name":"topUpId","type":"string","internalType":"string"}],"outputs":[],"stateMutability":"nonpayable"},{"type":"function","name":"vodopad","inputs":[],"outputs":[{"name":"","type":"address","internalType":"address"}],"stateMutability":"view"},{"type":"function","name":"withdrawByDeal","inputs":[{"name":"token","type":"address","internalType":"contract IERC20"},{"name":"user","type":"address","internalType":"address"},{"name":"amount","type":"uint256","internalType":"uint256"},{"name":"reserved","type":"uint8","internalType":"uint8"}],"outputs":[],"stateMutability":"nonpayable"},{"type":"function","name":"withdrawFromLimbo","inputs":[{"name":"token","type":"address","internalType":"contract IERC20"},{"name":"user","type":"address","internalType":"address"},{"name":"to","type":"address","internalType":"address"},{"name":"amount","type":"uint256","internalType":"uint256"}],"outputs":[],"stateMutability":"nonpayable"},{"type":"event","name":"AccountFreezeStateChanged","inputs":[{"name":"user","type":"address","indexed":true,"internalType":"address"},{"name":"frozen","type":"bool","indexed":false,"internalType":"bool"}],"anonymous":false},{"type":"event","name":"BalanceMoved","inputs":[{"name":"token","type":"address","indexed":true,"internalType":"contract IERC20"},{"name":"from","type":"address","indexed":true,"internalType":"address"},{"name":"to","type":"address","indexed":true,"internalType":"address"},{"name":"amount","type":"uint256","indexed":false,"internalType":"uint256"},{"name":"reserved","type":"uint8","indexed":false,"internalType":"uint8"}],"anonymous":false},{"type":"event","name":"CoordinatorSet","inputs":[{"name":"coordinator","type":"address","indexed":true,"internalType":"address"}],"anonymous":false},{"type":"event","name":"DealDeposit","inputs":[{"name":"token","type":"address","indexed":true,"internalType":"contract IERC20"},{"name":"deal","type":"address","indexed":true,"internalType":"address"},{"name":"user","type":"address","indexed":true,"internalType":"address"},{"name":"amount","type":"uint256","indexed":false,"internalType":"uint256"},{"name":"reserved","type":"uint8","indexed":false,"internalType":"uint8"}],"anonymous":false},{"type":"event","name":"DealMigrated","inputs":[{"name":"deal","type":"address","indexed":true,"internalType":"address"},{"name":"token","type":"address","indexed":true,"internalType":"contract IERC20"},{"name":"amount","type":"uint256","indexed":false,"internalType":"uint256"}],"anonymous":false},{"type":"event","name":"DealWithdraw","inputs":[{"name":"token","type":"address","indexed":true,"internalType":"contract IERC20"},{"name":"deal","type":"address","indexed":true,"internalType":"address"},{"name":"user","type":"address","indexed":true,"internalType":"address"},{"name":"amount","type":"uint256","indexed":false,"internalType":"uint256"},{"name":"reserved","type":"uint8","indexed":false,"internalType":"uint8"}],"anonymous":false},{"type":"event","name":"FundedFromLimbo","inputs":[{"name":"token","type":"address","indexed":true,"internalType":"contract IERC20"},{"name":"user","type":"address","indexed":true,"internalType":"address"},{"name":"amount","type":"uint256","indexed":false,"internalType":"uint256"}],"anonymous":false},{"type":"event","name":"Initialized","inputs":[{"name":"version","type":"uint64","indexed":false,"internalType":"uint64"}],"anonymous":false},{"type":"event","name":"ManualWithdrawDisabled","inputs":[],"anonymous":false},{"type":"event","name":"ManualWithdrawEnabled","inputs":[],"anonymous":false},{"type":"event","name":"PoolTopUp","inputs":[{"name":"token","type":"address","indexed":true,"internalType":"contract IERC20"},{"name":"amount","type":"uint256","indexed":false,"internalType":"uint256"}],"anonymous":false},{"type":"event","name":"PoolWithdraw","inputs":[{"name":"token","type":"address","indexed":true,"internalType":"contract IERC20"},{"name":"amount","type":"uint256","indexed":false,"internalType":"uint256"}],"anonymous":false},{"type":"event","name":"Refunded","inputs":[{"name":"token","type":"address","indexed":true,"internalType":"contract IERC20"},{"name":"user","type":"address","indexed":true,"internalType":"address"},{"name":"amount","type":"uint256","indexed":false,"internalType":"uint256"}],"anonymous":false},{"type":"event","name":"SentToLimbo","inputs":[{"name":"token","type":"address","indexed":true,"internalType":"contract IERC20"},{"name":"user","type":"address","indexed":true,"internalType":"address"},{"name":"amount","type":"uint256","indexed":false,"internalType":"uint256"}],"anonymous":false},{"type":"event","name":"TerminationExecuted","inputs":[{"name":"token","type":"address","indexed":true,"internalType":"contract IERC20"},{"name":"user","type":"address","indexed":true,"internalType":"address"}],"anonymous":false},{"type":"event","name":"TerminationRequestCreated","inputs":[{"name":"token","type":"address","indexed":true,"internalType":"contract IERC20"},{"name":"user","type":"address","indexed":true,"internalType":"address"}],"anonymous":false},{"type":"event","name":"TerminationVeto","inputs":[{"name":"token","type":"address","indexed":true,"internalType":"contract IERC20"},{"name":"user","type":"address","indexed":true,"internalType":"address"}],"anonymous":false},{"type":"event","name":"Upgraded","inputs":[{"name":"implementation","type":"address","indexed":true,"internalType":"address"}],"anonymous":false},{"type":"event","name":"UserBalanceIncrease","inputs":[{"name":"token","type":"address","indexed":true,"internalType":"contract IERC20"},{"name":"user","type":"address","indexed":true,"internalType":"address"},{"name":"amount","type":"uint256","indexed":false,"internalType":"uint256"},{"name":"topUpId","type":"string","indexed":false,"internalType":"string"}],"anonymous":false},{"type":"event","name":"VodopadSet","inputs":[{"name":"vodopad","type":"address","indexed":true,"internalType":"address"}],"anonymous":false},{"type":"event","name":"Withdrawn","inputs":[{"name":"token","type":"address","indexed":true,"internalType":"contract IERC20"},{"name":"user","type":"address","indexed":true,"internalType":"address"},{"name":"amount","type":"uint256","indexed":false,"internalType":"uint256"},{"name":"reserved","type":"uint8","indexed":false,"internalType":"uint8"}],"anonymous":false},{"type":"event","name":"WithdrawnFromLimbo","inputs":[{"name":"token","type":"address","indexed":true,"internalType":"contract IERC20"},{"name":"user","type":"address","indexed":true,"internalType":"address"},{"name":"to","type":"address","indexed":true,"internalType":"address"},{"name":"amount","type":"uint256","indexed":false,"internalType":"uint256"}],"anonymous":false},{"type":"error","name":"AddressEmptyCode","inputs":[{"name":"target","type":"address","internalType":"address"}]},{"type":"error","name":"ERC1967InvalidImplementation","inputs":[{"name":"implementation","type":"address","internalType":"address"}]},{"type":"error","name":"ERC1967NonPayable","inputs":[]},{"type":"error","name":"FailedCall","inputs":[]},{"type":"error","name":"InvalidInitialization","inputs":[]},{"type":"error","name":"NotInitializing","inputs":[]},{"type":"error","name":"ReentrancyGuardReentrantCall","inputs":[]},{"type":"error","name":"SafeERC20FailedOperation","inputs":[{"name":"token","type":"address","internalType":"address"}]},{"type":"error","name":"UUPSUnauthorizedCallContext","inputs":[]},{"type":"error","name":"UUPSUnsupportedProxiableUUID","inputs":[{"name":"slot","type":"bytes32","internalType":"bytes32"}]}],"bytecode":{"object":"0x60a080604052346100f2573060805260ff19600c5416600c557ff0c57e16840df040f15088dc2f81fe391c3923bec73e23a9662efc9c229c6a005460ff8160401c166100e3576002600160401b03196001600160401b0382160161007d575b60405161285090816100f782396080518181816114fb015261159d0152f35b6001600160401b0319166001600160401b039081177ff0c57e16840df040f15088dc2f81fe391c3923bec73e23a9662efc9c229c6a005581527fc7f505b2f371ae2175ee4913f4499e1f2633a7b5936321eed1cdaeb6115181d290602090a15f8061005e565b63f92ee8a960e01b5f5260045ffd5b5f80fdfe60806040526004361015610011575f80fd5b5f3560e01c806301627f5614611f0b5780630a00909714611ee3578063116424cc14611d315780631229add514611cf957806314c275e814611cd15780631e4343ec14611caf578063301aaac914611a8e57806331acc942146117fd5780633adce715146117ba5780633eb026af1461174c5780634f1ef2861461154f57806352d1902d146114e957806368abb5e0146114b1578063788649ea146114625780637df5070f1461136b5780637fad64011461120157806382ad6f351461109357806388081fcb14610ecd5780638ea9811714610e5c578063933a6d5e14610e2457806395e1b41814610c8b578063985a3e1a14610b315780639cf8fc3614610af1578063a0aeae9f146109e0578063ad3cb1cc14610995578063ae77dc1014610945578063c08ea6e6146108eb578063c44ead3c146108b3578063c4d66de814610769578063d05166501461072c578063d4f4ba48146106bf578063db2aa127146105b4578063de700da614610564578063eb9483a51461050b578063ec178c13146104e1578063edb4552914610231578063f0b7db4e1461020a578063f26c159f146101e75763fac4bf22146101c6575f80fd5b346101e3575f3660031901126101e357602060405162093a808152f35b5f80fd5b346101e35760203660031901126101e3576102086102036120a7565b612413565b005b346101e3575f3660031901126101e3575f546040516001600160a01b039091168152602090f35b346101e35760203660031901126101e35761024a6120a7565b335f52600b60205261026360ff60405f20541615612235565b61026b612358565b60ff600c541615610482576001600160a01b0381165f8181526005602090815260408083203384529091529020549091901561043157815f52600560205260405f2060018060a01b0333165f5260205262093a806102cd60405f205442612293565b106103e1575f82815260036020908152604080832033845290915290205415610388575f82815260036020908152604080832033845282528083208054908490558584526006909252909120805461035093919061032c908490612293565b90555f8481526005602090815260408083203380855292528220919091559061238d565b33907ff2a85b5556e546b36f4e27e17ad8d769e99fb9ca86e58a6a27b57f9b08f52afb5f80a35f5f8051602061279b8339815191525d005b60405162461bcd60e51b815260206004820152602b60248201527f42616c616e63654b65657065723a2077697468647261773a206e6f7420656e6f60448201526a7567682062616c616e636560a81b6064820152608490fd5b60405162461bcd60e51b815260206004820152602260248201527f42616c616e63654b65657065723a2077697468647261773a20746f6f206561726044820152616c7960f01b6064820152608490fd5b60405162461bcd60e51b815260206004820152602360248201527f42616c616e63654b65657065723a2077697468647261773a206e6f2072657175604482015262195cdd60ea1b6064820152608490fd5b60405162461bcd60e51b815260206004820152603160248201527f42616c616e63654b65657065723a2077697468647261773a206d616e75616c206044820152701dda5d1a191c985dc8191a5cd8589b1959607a1b6064820152608490fd5b346101e35760403660031901126101e3576102086104fd6120a7565b6105056120bd565b9061244c565b346101e35760203660031901126101e3576001600160a01b0361052c6120a7565b168060018060a01b031960025416176002557f5c0c0c7501c5d87c54d94317f93c8cf0409863e931b37857da1c0b12418669f85f80a2005b346101e35760403660031901126101e35761057d6120a7565b6105856120bd565b6001600160a01b039182165f908152600360209081526040808320949093168252928352819020549051908152f35b346101e35760403660031901126101e3576105cd6120a7565b6024356105eb6001600160a01b036105e36125d5565b1633146122d4565b60018060a01b03821691825f5260086020528160405f20541061065b57816106527f61a0b4d879cd5e5653631acae542581573d52905e66efcbb6246efca1ef306d693602093865f526008855260405f20610647838254612293565b9055339030906123cf565b604051908152a2005b60405162461bcd60e51b815260206004820152603660248201527f42616c616e63654b65657065723a206e6f7420656e6f75676820616d6f756e74604482015275081d1bc81dda5d1a191c985dc8199c9bdb481c1bdbdb60521b6064820152608490fd5b346101e35760403660031901126101e35760206107246106dd6120a7565b6106e56120bd565b6001600160a01b039182165f818152600386526040808220949093168082529386528281205491815260048652828120938152928552912054906122c7565b604051908152f35b346101e35760203660031901126101e3576001600160a01b0361074d6120a7565b165f52600b602052602060ff60405f2054166040519015158152f35b346101e35760203660031901126101e3576107826120a7565b5f805160206127bb83398151915254604081901c60ff161591906001600160401b038116801590816108ab575b60011490816108a1575b159081610898575b50610889576001600160401b031981166001175f805160206127bb8339815191525582610861575b505f80546001600160a01b0319166001600160a01b039290921691909117905561080f57005b60ff60401b195f805160206127bb83398151915254165f805160206127bb833981519152557fc7f505b2f371ae2175ee4913f4499e1f2633a7b5936321eed1cdaeb6115181d2602060405160018152a1005b6001600160481b0319166001600160401b01175f805160206127bb83398151915255826107e9565b63f92ee8a960e01b5f5260045ffd5b905015846107c1565b303b1591506107b9565b8491506107af565b346101e35760203660031901126101e3576001600160a01b036108d46120a7565b165f52600a602052602060405f2054604051908152f35b346101e35760203660031901126101e3576004356001600160401b0381116101e35760ff602080610921819436906004016121b9565b604051928184925191829101835e8101600d81520301902054166040519015158152f35b346101e35760403660031901126101e35761095e6120a7565b6109666120bd565b6001600160a01b039182165f908152600960209081526040808320949093168252928352819020549051908152f35b346101e3575f3660031901126101e3576109dc6040516109b6604082612131565b60058152640352e302e360dc1b6020820152604051918291602083526020830190612211565b0390f35b346101e35760403660031901126101e3576109f96120a7565b602435610a04612358565b604051638da5cb5b60e01b815291602083600481335afa928315610ae6575f93610ab5575b5060018060a01b031691825f52600460205260405f209060018060a01b03165f5260205260405f20610a5c8282546122c7565b9055815f52600760205260405f20610a758282546122c7565b90556040519081527fbe2621ea924b53fdd75100b8ab51dc1f68d20dcb49e18bb989c43111e519529760203392a35f5f8051602061279b8339815191525d005b610ad891935060203d602011610adf575b610ad08183612131565b810190612339565b9183610a29565b503d610ac6565b6040513d5f823e3d90fd5b346101e3575f3660031901126101e35760ff19600c5416600c557f81efeaf2a7b0b2235e7258907f56e43162483d88c18edd2810f1b78378fe06e35f80a1005b346101e35760803660031901126101e357610b4a6120a7565b610b526120bd565b90610b5b6120d3565b6064359190610b736001600160a01b036105e36125d5565b60018060a01b03821691825f52600960205260405f2060018060a01b0386165f526020528360405f205410610c295781610c12857f5fbabf990c76998ecbb2af9cc1a42242bb8b365195f203b61be26915a23101c594602094875f526009865260405f2060018060a01b038b165f52865260405f20610bf3848254612293565b9055875f52600a865260405f20610c0b848254612293565b905561238d565b6040519485526001600160a01b03908116951693a4005b60405162461bcd60e51b815260206004820152603460248201527f42616c616e63654b65657065723a20776974686472617746726f6d4c696d626f6044820152733a206e6f7420656e6f7567682062616c616e636560601b6064820152608490fd5b346101e35760a03660031901126101e357610ca46120a7565b610cac6120bd565b610cb46120d3565b906064356084359160ff831683036101e35760018060a01b031692835f52600b602052610ce860ff60405f20541615612235565b60018060a01b031693845f52600b602052610d0a60ff60405f20541615612235565b610d12612358565b60018060a01b031691825f52600360205260405f20845f526020528160405f205410610dc4577fec02109b69235dc964dc3600685d13d211d8f05b663fac885f581f60da3fc2ca91835f52600360205260405f20855f5260205260405f20610d7b828254612293565b9055835f52600360205260405f20865f5260205260405f20610d9e8282546122c7565b9055610daf604051928392836122b4565b0390a45f5f8051602061279b8339815191525d005b60405162461bcd60e51b815260206004820152603260248201527f42616c616e63654b65657065723a206d6f76654672656542616c616e63653a206044820152716e6f7420656e6f7567682062616c616e636560701b6064820152608490fd5b346101e35760203660031901126101e3576001600160a01b03610e456120a7565b165f526006602052602060405f2054604051908152f35b346101e35760203660031901126101e357610e756120a7565b610e886001600160a01b036105e36125d5565b600180546001600160a01b0319166001600160a01b039290921691821790557fd1a6a14209a385a964d036e404cb5cfb71f4000cdb03c9366292430787261be65f80a2005b346101e357610edb366120e9565b909160018060a01b031692835f52600b602052610eff60ff60405f20541615612235565b610f07612358565b60018060a01b031690815f52600460205260405f20845f526020528260405f20541061104257815f5260076020528260405f205410610feb57610daf7f1e579e7583af5383169584a02ef5981c4b4f8d7ff2c36ccfdabfa6280036b3dd91835f52600460205260405f20865f5260205260405f20610f86868254612293565b9055835f52600360205260405f20865f5260205260405f20610fa98682546122c7565b9055835f52600760205260405f20610fc2868254612293565b9055835f52600660205260405f20610fdb8682546122c7565b90556040519182913396836122b4565b60405162461bcd60e51b815260206004820152603c60248201525f805160206127db83398151915260448201527b616c3a206e6f7420656e6f75676820746f74616c2062616c616e636560201b6064820152608490fd5b60405162461bcd60e51b815260206004820152603660248201525f805160206127db833981519152604482015275616c3a206e6f7420656e6f7567682062616c616e636560501b6064820152608490fd5b346101e3576110a1366121d7565b919060018060a01b03821691825f52600360205260405f2060018060a01b0383165f526020528360405f2054106111b457825f5260066020528360405f205410611161578161114e857fec1e5ed733e00f1a00915d56caef57b4f52312dde4f9b3165f213319a0da156b94602094875f526003865260405f2060018060a01b0383165f52865260405f20611136848254612293565b9055875f526006865260405f20610c0b848254612293565b6040519485526001600160a01b031693a3005b60405162461bcd60e51b815260206004820152603860248201525f805160206127fb8339815191526044820152776e6f7420656e6f75676820746f74616c2062616c616e636560401b6064820152608490fd5b60405162461bcd60e51b815260206004820152603260248201525f805160206127fb8339815191526044820152716e6f7420656e6f7567682062616c616e636560701b6064820152608490fd5b346101e35761120f366121d7565b916112236001600160a01b036105e36125d5565b60018060a01b031690815f52600960205260405f2060018060a01b0382165f526020528260405f20541061130d5760207fe01090fc510299f9e04f0680c85735399f733add7da9fbbf60e65fb26dd8975291835f526009825260405f2060018060a01b0382165f52825260405f2061129c868254612293565b9055835f52600a825260405f206112b4868254612293565b90555f8481526003835260408082206001600160a01b03841683528452902080546112e09087906122c7565b9055835f526006825260405f206112f88682546122c7565b90556040519485526001600160a01b031693a3005b60405162461bcd60e51b815260206004820152603060248201527f42616c616e63654b65657065723a2066756e6446726f6d4c696d626f3a206e6f60448201526f7420656e6f7567682062616c616e636560801b6064820152608490fd5b346101e35760403660031901126101e3576113846120a7565b61138c6120bd565b60018060a01b03821691825f52600560205260405f2060018060a01b0383165f5260205260405f20541561141d57816113e491845f52600560205260405f2060018060a01b0383165f526020525f604081205561244c565b6113ed81612413565b6001600160a01b0316907f286bdf093a3e9e05929ff8eacf03b75d534a86a972c2f1a699f8a4699713d70d5f80a3005b60405162461bcd60e51b815260206004820152601f60248201527f42616c616e63654b65657065723a207665746f3a206e6f2072657175657374006044820152606490fd5b346101e35760203660031901126101e3576001600160a01b036114836120a7565b16805f52600b60205260405f2060ff1981541690555f8051602061271b83398151915260206040515f8152a2005b346101e35760203660031901126101e3576001600160a01b036114d26120a7565b165f526008602052602060405f2054604051908152f35b346101e3575f3660031901126101e3577f00000000000000000000000000000000000000000000000000000000000000006001600160a01b031630036115405760206040515f8051602061277b8339815191528152f35b63703e46dd60e11b5f5260045ffd5b60403660031901126101e3576115636120a7565b6024356001600160401b0381116101e357366023820112156101e357611593903690602481600401359101612183565b6001600160a01b037f00000000000000000000000000000000000000000000000000000000000000001630811490811561172a575b50611540576040516352d1902d60e01b81526001600160a01b0383169290602081600481875afa5f91816116f6575b5061160f5783634c9c8ce360e01b5f5260045260245ffd5b805f8051602061277b8339815191528592036116e45750813b156116d2575f8051602061277b83398151915280546001600160a01b031916821790557fbc7cd75a20ee27fd9adebab32041f755214dbc6bffa90cc0225b39da2e5c2d3b5f80a28151156116ba575f8083602061020895519101845af43d156116b2573d9161169683612168565b926116a46040519485612131565b83523d5f602085013e61267c565b60609161267c565b5050346116c357005b63b398979f60e01b5f5260045ffd5b634c9c8ce360e01b5f5260045260245ffd5b632a87526960e21b5f5260045260245ffd5b9091506020813d602011611722575b8161171260209383612131565b810103126101e3575190856115f7565b3d9150611705565b5f8051602061277b833981519152546001600160a01b031614159050836115c8565b346101e35760403660031901126101e3576117656120a7565b7f57031032c395383baf1c155b882b1c6e5df5305b62cdd7e7473f81096b01a8f260206024356106528160018060a01b03861695865f526008855260405f206117af8382546122c7565b9055309033906123cf565b346101e3575f3660031901126101e357600160ff19600c541617600c557f673504d5f4ad81783d4234d7058eeaf4814c874a6f50a994ceda8df9322f22e75f80a1005b346101e35760803660031901126101e3576118166120a7565b61181e6120bd565b6044356064356001600160401b0381116101e3576118409036906004016121b9565b9160018060a01b031692835f52600b60205261186360ff60405f20541615612235565b6002546001600160a01b03163303611a2e5760405160ff845191602081818801948086835e8101600d81520301902054166119d0576020604051809286518091835e8101600d815203019020600160ff1982541617905560018060a01b031691825f5260086020528160405f20541061196e577fcc27a5bfdacae4227fbb65a1bf87152d71f26eb2abfe0b17b346e9db47dbea5b91835f52600860205260405f2061190f828254612293565b9055835f52600360205260405f20855f5260205260405f206119328282546122c7565b9055835f52600660205260405f2061194b8282546122c7565b90556119696040519283928352604060208401526040830190612211565b0390a3005b60405162461bcd60e51b815260206004820152603460248201527f42616c616e63654b65657065723a2075736572546f7055703a206e6f7420656e6044820152736f75676820676174657761792062616c616e636560601b6064820152608490fd5b60405162461bcd60e51b815260206004820152603060248201527f42616c616e63654b65657065723a20706f6f6c546f7055703a20746f702d757060448201526f081a5908185b1c9958591e481d5cd95960821b6064820152608490fd5b60405162461bcd60e51b815260206004820152603260248201527f42616c616e63654b65657065723a204f6e6c7920766f646f7061642063616e2060448201527131b0b636103a3434b990333ab731ba34b7b760711b6064820152608490fd5b346101e35760203660031901126101e357611aa76120a7565b335f52600b602052611ac060ff60405f20541615612235565b6001600160a01b03165f818152600460209081526040808320338452909152902054611c5b5760ff600c541615611c08575f81815260036020908152604080832033845290915290205415611bbb575f818152600560209081526040808320338452909152902054611b6f575f818152600560209081526040808320338085529252822042905591907f89a27f546dfff1a0bb7bc60c9474a89e83d0f6fb31c9cf6691b7b9d3daa327ba9080a3005b60405162461bcd60e51b815260206004820152603160248201525f8051602061273b833981519152604482015270185b1c9958591e481c995c5d595cdd1959607a1b6064820152608490fd5b60405162461bcd60e51b815260206004820152603260248201525f8051602061273b8339815191526044820152716e6f7420656e6f7567682062616c616e636560701b6064820152608490fd5b60405162461bcd60e51b815260206004820152603860248201525f8051602061273b8339815191526044820152771b585b9d585b081dda5d1a191c985dc8191a5cd8589b195960421b6064820152608490fd5b60405162461bcd60e51b815260206004820152603960248201525f805160206127fb8339815191526044820152786465616c2062616c616e6365206973206e6f7420656d70747960381b6064820152608490fd5b346101e3575f3660031901126101e357602060ff600c54166040519015158152f35b346101e3575f3660031901126101e3576002546040516001600160a01b039091168152602090f35b346101e35760203660031901126101e3576001600160a01b03611d1a6120a7565b165f526007602052602060405f2054604051908152f35b346101e357611d3f366120e9565b909160018060a01b031692835f52600b602052611d6360ff60405f20541615612235565b611d6b612358565b60018060a01b031690815f52600360205260405f20845f526020528260405f205410611e9457815f5260066020528260405f205410611e3f57610daf7f1ed985403491d4a08bb28bb2994bfd1f10332130c44f1dea5ff57903c21d893c91835f52600460205260405f20865f5260205260405f20611dea8682546122c7565b9055835f52600360205260405f20865f5260205260405f20611e0d868254612293565b9055835f52600760205260405f20611e268682546122c7565b9055835f52600660205260405f20610fdb868254612293565b60405162461bcd60e51b815260206004820152603a60248201525f805160206126fb8339815191526044820152793a206e6f7420656e6f75676820746f74616c2062616c616e636560301b6064820152608490fd5b60405162461bcd60e51b815260206004820152603460248201525f805160206126fb8339815191526044820152733a206e6f7420656e6f7567682062616c616e636560601b6064820152608490fd5b346101e3575f3660031901126101e3576001546040516001600160a01b039091168152602090f35b346101e357611f19366120e9565b6001600160a01b0383165f818152600b602052604090205490949290611f429060ff1615612235565b611f4a612358565b60018060a01b03831693845f52600360205260405f20865f526020528160405f20541061205b57845f5260066020528160405f2054106120095781611fe5917f06b7a26d6a3a682884491b833e0c33a64a6759ba14f903c01b532185938ee45d95875f52600360205260405f20895f5260205260405f20611fcc848254612293565b9055875f52600660205260405f20610c0b848254612293565b611ff4604051928392836122b4565b0390a35f5f8051602061279b8339815191525d005b60405162461bcd60e51b815260206004820152603760248201525f8051602061275b8339815191526044820152766f7420656e6f75676820746f74616c2062616c616e636560481b6064820152608490fd5b60405162461bcd60e51b815260206004820152603160248201525f8051602061275b8339815191526044820152706f7420656e6f7567682062616c616e636560781b6064820152608490fd5b600435906001600160a01b03821682036101e357565b602435906001600160a01b03821682036101e357565b604435906001600160a01b03821682036101e357565b60809060031901126101e3576004356001600160a01b03811681036101e357906024356001600160a01b03811681036101e357906044359060643560ff811681036101e35790565b601f909101601f19168101906001600160401b0382119082101761215457604052565b634e487b7160e01b5f52604160045260245ffd5b6001600160401b03811161215457601f01601f191660200190565b92919261218f82612168565b9161219d6040519384612131565b8294818452818301116101e3578281602093845f960137010152565b9080601f830112156101e3578160206121d493359101612183565b90565b60609060031901126101e3576004356001600160a01b03811681036101e357906024356001600160a01b03811681036101e3579060443590565b805180835260209291819084018484015e5f828201840152601f01601f1916010190565b1561223c57565b60405162461bcd60e51b815260206004820152602960248201527f42616c616e63654b65657065723a2055736572206973207065726d616e656e74604482015268363c90333937bd32b760b91b6064820152608490fd5b919082039182116122a057565b634e487b7160e01b5f52601160045260245ffd5b90815260ff909116602082015260400190565b919082018092116122a057565b156122db57565b60405162461bcd60e51b815260206004820152603060248201527f42616c616e63654b65657065723a204f6e6c79206f776e65722063616e20636160448201526f3636103a3434b990333ab731ba34b7b760811b6064820152608490fd5b908160209103126101e357516001600160a01b03811681036101e35790565b5f8051602061279b8339815191525c61237e5760015f8051602061279b8339815191525d565b633ee5aeb560e01b5f5260045ffd5b60405163a9059cbb60e01b60208201526001600160a01b0390921660248301526044808301939093529181526123cd916123c8606483612131565b612624565b565b6040516323b872dd60e01b60208201526001600160a01b0392831660248201529290911660448301526064808301939093529181526123cd916123c8608483612131565b60018060a01b0316805f52600b60205260405f20600160ff198254161790555f8051602061271b833981519152602060405160018152a2565b60018060a01b0316805f52600360205260405f2060018060a01b0383165f5260205260405f205491821561258b57815f5260066020528260405f20541061253b5760207f76c900dcf08461e70b464dbdfd91efe2f662a56655b60a776873402dfb2d700391835f526006825260405f206124c7868254612293565b90555f8481526009835260408082206001600160a01b03841683528452902080546124f39087906122c7565b9055835f52600a825260405f2061250b8682546122c7565b90555f8481526003835260408082206001600160a01b0393909316808352928452808220919091555194855293a3565b60405162461bcd60e51b815260206004820152603560248201525f805160206126db83398151915260448201527420656e6f75676820746f74616c2062616c616e636560581b6064820152608490fd5b60405162461bcd60e51b815260206004820152602f60248201525f805160206126db83398151915260448201526e20656e6f7567682062616c616e636560881b6064820152608490fd5b5f54604051638da5cb5b60e01b815290602090829060049082906001600160a01b03165afa908115610ae6575f9161260b575090565b6121d4915060203d602011610adf57610ad08183612131565b905f602091828151910182855af115610ae6575f513d61267357506001600160a01b0381163b155b6126535750565b635274afe760e01b5f9081526001600160a01b0391909116600452602490fd5b6001141561264c565b906126a0575080511561269157805190602001fd5b63d6bda27560e01b5f5260045ffd5b815115806126d1575b6126b1575090565b639996b31560e01b5f9081526001600160a01b0391909116600452602490fd5b50803b156126a956fe42616c616e63654b65657065723a20667265657a65546f4c696d623a206e6f7442616c616e63654b65657065723a206d6f766542616c616e6365546f4465616c3f802f8b92b9cc88cab0fa79c2885fa06c5ed00376770579a4eb7d1c2a8eb92d42616c616e63654b65657065723a207769746864726177526571756573743a2042616c616e63654b65657065723a20776974686472617742794465616c3a206e360894a13ba1a3210667c828492db98dca3e2076cc3735a920a3ca505d382bbc9b779b17422d0df92223018b32b4d1fa46e071723d6817e2486d003becc55f00f0c57e16840df040f15088dc2f81fe391c3923bec73e23a9662efc9c229c6a0042616c616e63654b65657065723a206d6f766542616c616e636546726f6d446542616c616e63654b65657065723a20766f646f70616457697468647261773a20a264697066735822122028263d5b4f78bd27fde4d400846ca4a231badbc3990c7c1ada7a648954a06d6b64736f6c634300081a0033","linkReferences":{}},"methodIdentifiers":{"UPGRADE_INTERFACE_VERSION()":"ad3cb1cc","WITHDRAW_REQUEST_DELAY()":"fac4bf22","coordinator()":"0a009097","dealBalancesTotal(address)":"1229add5","diamond()":"f0b7db4e","disableOnchainRefund()":"9cf8fc36","enableOnchainRefund()":"3adce715","freeBalanceTotal(address)":"933a6d5e","freezeAccount(address)":"f26c159f","frozen(address)":"d0516650","fundFromLimbo(address,address,uint256)":"7fad6401","getFreeBalance(address,address)":"de700da6","getFullBalance(address,address)":"d4f4ba48","initialize(address)":"c4d66de8","limbo(address,address)":"ae77dc10","limboTotal(address)":"c44ead3c","manualWithdrawEnabled()":"1e4343ec","migrateFundsFromDeal(address,uint256)":"a0aeae9f","moveBalanceFromDeal(address,address,uint256,uint8)":"88081fcb","moveBalanceToDeal(address,address,uint256,uint8)":"116424cc","moveFreeBalance(address,address,address,uint256,uint8)":"95e1b418","poolBalance(address)":"68abb5e0","poolTopUp(address,uint256)":"3eb026af","poolWithdraw(address,uint256)":"db2aa127","proxiableUUID()":"52d1902d","refund(address,address,uint256)":"82ad6f35","sendToLimbo(address,address)":"ec178c13","setCoordinator(address)":"8ea98117","setVodopad(address)":"eb9483a5","terminate(address)":"edb45529","terminationRequest(address)":"301aaac9","terminationVeto(address,address)":"7df5070f","topUpIds(string)":"c08ea6e6","unfreezeAccount(address)":"788649ea","upgradeToAndCall(address,bytes)":"4f1ef286","userTopUp(address,address,uint256,string)":"31acc942","vodopad()":"14c275e8","withdrawByDeal(address,address,uint256,uint8)":"01627f56","withdrawFromLimbo(address,address,address,uint256)":"985a3e1a"},"storageLayout":{"storage":[{"astId":59680,"contract":"src/balance-keeper/BalanceKeeperMock.sol:BalanceKeeperMock","label":"diamond","offset":0,"slot":"0","type":"t_address"},{"astId":59682,"contract":"src/balance-keeper/BalanceKeeperMock.sol:BalanceKeeperMock","label":"coordinator","offset":0,"slot":"1","type":"t_address"},{"astId":59684,"contract":"src/balance-keeper/BalanceKeeperMock.sol:BalanceKeeperMock","label":"vodopad","offset":0,"slot":"2","type":"t_address"},{"astId":59691,"contract":"src/balance-keeper/BalanceKeeperMock.sol:BalanceKeeperMock","label":"freeBalances","offset":0,"slot":"3","type":"t_mapping(t_contract(IERC20)39797,t_mapping(t_address,t_uint256))"},{"astId":59698,"contract":"src/balance-keeper/BalanceKeeperMock.sol:BalanceKeeperMock","label":"dealBalances","offset":0,"slot":"4","type":"t_mapping(t_contract(IERC20)39797,t_mapping(t_address,t_uint256))"},{"astId":59705,"contract":"src/balance-keeper/BalanceKeeperMock.sol:BalanceKeeperMock","label":"terminationRequests","offset":0,"slot":"5","type":"t_mapping(t_contract(IERC20)39797,t_mapping(t_address,t_uint256))"},{"astId":59710,"contract":"src/balance-keeper/BalanceKeeperMock.sol:BalanceKeeperMock","label":"freeBalanceTotal","offset":0,"slot":"6","type":"t_mapping(t_contract(IERC20)39797,t_uint256)"},{"astId":59715,"contract":"src/balance-keeper/BalanceKeeperMock.sol:BalanceKeeperMock","label":"dealBalancesTotal","offset":0,"slot":"7","type":"t_mapping(t_contract(IERC20)39797,t_uint256)"},{"astId":59720,"contract":"src/balance-keeper/BalanceKeeperMock.sol:BalanceKeeperMock","label":"poolBalance","offset":0,"slot":"8","type":"t_mapping(t_contract(IERC20)39797,t_uint256)"},{"astId":59727,"contract":"src/balance-keeper/BalanceKeeperMock.sol:BalanceKeeperMock","label":"limbo","offset":0,"slot":"9","type":"t_mapping(t_contract(IERC20)39797,t_mapping(t_address,t_uint256))"},{"astId":59732,"contract":"src/balance-keeper/BalanceKeeperMock.sol:BalanceKeeperMock","label":"limboTotal","offset":0,"slot":"10","type":"t_mapping(t_contract(IERC20)39797,t_uint256)"},{"astId":59736,"contract":"src/balance-keeper/BalanceKeeperMock.sol:BalanceKeeperMock","label":"frozen","offset":0,"slot":"11","type":"t_mapping(t_address,t_bool)"},{"astId":59739,"contract":"src/balance-keeper/BalanceKeeperMock.sol:BalanceKeeperMock","label":"manualWithdrawEnabled","offset":0,"slot":"12","type":"t_bool"},{"astId":59743,"contract":"src/balance-keeper/BalanceKeeperMock.sol:BalanceKeeperMock","label":"topUpIds","offset":0,"slot":"13","type":"t_mapping(t_string_memory_ptr,t_bool)"}],"types":{"t_address":{"encoding":"inplace","label":"address","numberOfBytes":"20"},"t_bool":{"encoding":"inplace","label":"bool","numberOfBytes":"1"},"t_contract(IERC20)39797":{"encoding":"inplace","label":"contract IERC20","numberOfBytes":"20"},"t_mapping(t_address,t_bool)":{"encoding":"mapping","key":"t_address","label":"mapping(address => bool)","numberOfBytes":"32","value":"t_bool"},"t_mapping(t_address,t_uint256)":{"encoding":"mapping","key":"t_address","label":"mapping(address => uint256)","numberOfBytes":"32","value":"t_uint256"},"t_mapping(t_contract(IERC20)39797,t_mapping(t_address,t_uint256))":{"encoding":"mapping","key":"t_contract(IERC20)39797","label":"mapping(contract IERC20 => mapping(address => uint256))","numberOfBytes":"32","value":"t_mapping(t_address,t_uint256)"},"t_mapping(t_contract(IERC20)39797,t_uint256)":{"encoding":"mapping","key":"t_contract(IERC20)39797","label":"mapping(contract IERC20 => uint256)","numberOfBytes":"32","value":"t_uint256"},"t_mapping(t_string_memory_ptr,t_bool)":{"encoding":"mapping","key":"t_string_memory_ptr","label":"mapping(string => bool)","numberOfBytes":"32","value":"t_bool"},"t_string_memory_ptr":{"encoding":"bytes","label":"string","numberOfBytes":"32"},"t_uint256":{"encoding":"inplace","label":"uint256","numberOfBytes":"32"}}},"devdoc":{"version":1,"kind":"dev","methods":{"constructor":{},"proxiableUUID()":{"details":"Implementation of the ERC-1822 {proxiableUUID} function. This returns the storage slot used by the implementation. It is used to validate the implementation's compatibility when performing an upgrade. IMPORTANT: A proxy pointing at a proxiable contract should not be considered proxiable itself, because this risks bricking a proxy that upgrades to it, by delegating to itself until out of gas. Thus it is critical that this function revert if invoked through a proxy. This is guaranteed by the `notDelegated` modifier."},"refund(address,address,uint256)":{"details":"Refunds the specified amount of tokens to the user"},"upgradeToAndCall(address,bytes)":{"details":"Upgrade the implementation of the proxy to `newImplementation`, and subsequently execute the function call encoded in `data`. Calls {_authorizeUpgrade}. Emits an {Upgraded} event."}},"events":{"Initialized(uint64)":{"details":"Triggered when the contract has been initialized or reinitialized."},"Upgraded(address)":{"details":"Emitted when the implementation is upgraded."}},"errors":{"AddressEmptyCode(address)":[{"details":"There's no code at `target` (it is not a contract)."}],"ERC1967InvalidImplementation(address)":[{"details":"The `implementation` of the proxy is invalid."}],"ERC1967NonPayable()":[{"details":"An upgrade function sees `msg.value > 0` that may be lost."}],"FailedCall()":[{"details":"A call to an address target failed. The target may have reverted."}],"InvalidInitialization()":[{"details":"The contract is already initialized."}],"NotInitializing()":[{"details":"The contract is not initializing."}],"ReentrancyGuardReentrantCall()":[{"details":"Unauthorized reentrant call."}],"SafeERC20FailedOperation(address)":[{"details":"An operation with an ERC-20 token failed."}],"UUPSUnauthorizedCallContext()":[{"details":"The call is from an unauthorized context."}],"UUPSUnsupportedProxiableUUID(bytes32)":[{"details":"The storage `slot` is unsupported as a UUID."}]}},"id":76}