{"abi":[{"type":"function","name":"performCall","inputs":[{"name":"supplySource","type":"tuple","internalType":"struct SupplySource","components":[{"name":"kind","type":"uint8","internalType":"enum SupplyKind"},{"name":"tokenAddress","type":"address","internalType":"address"}]},{"name":"target","type":"address","internalType":"address payable"},{"name":"data","type":"bytes","internalType":"bytes"},{"name":"value","type":"uint256","internalType":"uint256"}],"outputs":[{"name":"success","type":"bool","internalType":"bool"},{"name":"ret","type":"bytes","internalType":"bytes"}],"stateMutability":"nonpayable"},{"type":"error","name":"NotEnoughBalance","inputs":[]}],"bytecode":{"object":"0x608060405234801561001057600080fd5b506104f2806100206000396000f3fe608060405234801561001057600080fd5b506004361061002b5760003560e01c80637bf257a814610030575b600080fd5b61004361003e36600461033a565b61005a565b60405161005192919061041d565b60405180910390f35b6000606061006a86868686610078565b915091505b94509492505050565b600060608260000361009957610090858560006100fb565b9150915061006f565b6000865160018111156100ae576100ae610459565b036100c8576100be8585856100fb565b909250905061006f565b6001865160018111156100dd576100dd610459565b0361006f576100ee86868686610188565b9097909650945050505050565b60006060824710156101205760405163569d45cf60e11b815260040160405180910390fd5b846001600160a01b03168385604051610139919061046f565b60006040518083038185875af1925050503d8060008114610176576040519150601f19603f3d011682016040523d82523d6000602084013e61017b565b606091505b5091509150935093915050565b600060606101978686856101c9565b909250905081156101b4576101ae858560006100fb565b90925090505b8161006f5780511561002b5780518082602001fd5b6000606084602001516001600160a01b031663a9059cbb60e01b858560405160200161020a9291906001600160a01b03929092168252602082015260400190565b60408051601f1981840301815290829052610228929160200161048b565b60408051601f19818403018152908290526102429161046f565b6000604051808303816000865af19150503d8060008114610176576040519150601f19603f3d011682016040523d82523d6000602084013e61017b565b634e487b7160e01b600052604160045260246000fd5b6001600160a01b03811681146102aa57600080fd5b50565b600082601f8301126102be57600080fd5b813567ffffffffffffffff808211156102d9576102d961027f565b604051601f8301601f19908116603f011681019082821181831017156103015761030161027f565b8160405283815286602085880101111561031a57600080fd5b836020870160208301376000602085830101528094505050505092915050565b60008060008084860360a081121561035157600080fd5b604081121561035f57600080fd5b506040516040810167ffffffffffffffff82821081831117156103845761038461027f565b81604052873591506002821061039957600080fd5b9082526020870135906103ab82610295565b816020840152829650604088013592506103c483610295565b919450606087013591808311156103da57600080fd5b50506103e8878288016102ad565b949793965093946080013593505050565b60005b838110156104145781810151838201526020016103fc565b50506000910152565b821515815260406020820152600082518060408401526104448160608501602087016103f9565b601f01601f1916919091016060019392505050565b634e487b7160e01b600052602160045260246000fd5b600082516104818184602087016103f9565b9190910192915050565b6001600160e01b03198316815281516000906104ae8160048501602087016103f9565b91909101600401939250505056fea2646970667358221220714747b7755d167a507094591ca9968fc8a2a458137cc0453c243b2b2c417bd064736f6c63430008180033","linkReferences":{}},"methodIdentifiers":{"performCall((uint8,address),address,bytes,uint256)":"7bf257a8"},"id":130}