{"abi":[{"type":"function","name":"addCheckpointSignature","inputs":[{"name":"height","type":"uint256","internalType":"uint256"},{"name":"membershipProof","type":"bytes32[]","internalType":"bytes32[]"},{"name":"weight","type":"uint256","internalType":"uint256"},{"name":"signature","type":"bytes","internalType":"bytes"}],"outputs":[],"stateMutability":"nonpayable"},{"type":"function","name":"commitCheckpoint","inputs":[{"name":"checkpoint","type":"tuple","internalType":"struct BottomUpCheckpoint","components":[{"name":"subnetID","type":"tuple","internalType":"struct SubnetID","components":[{"name":"root","type":"uint64","internalType":"uint64"},{"name":"route","type":"address[]","internalType":"address[]"}]},{"name":"blockHeight","type":"uint256","internalType":"uint256"},{"name":"blockHash","type":"bytes32","internalType":"bytes32"},{"name":"nextConfigurationNumber","type":"uint64","internalType":"uint64"},{"name":"msgs","type":"tuple[]","internalType":"struct IpcEnvelope[]","components":[{"name":"kind","type":"uint8","internalType":"enum IpcMsgKind"},{"name":"to","type":"tuple","internalType":"struct IPCAddress","components":[{"name":"subnetId","type":"tuple","internalType":"struct SubnetID","components":[{"name":"root","type":"uint64","internalType":"uint64"},{"name":"route","type":"address[]","internalType":"address[]"}]},{"name":"rawAddress","type":"tuple","internalType":"struct FvmAddress","components":[{"name":"addrType","type":"uint8","internalType":"uint8"},{"name":"payload","type":"bytes","internalType":"bytes"}]}]},{"name":"from","type":"tuple","internalType":"struct IPCAddress","components":[{"name":"subnetId","type":"tuple","internalType":"struct SubnetID","components":[{"name":"root","type":"uint64","internalType":"uint64"},{"name":"route","type":"address[]","internalType":"address[]"}]},{"name":"rawAddress","type":"tuple","internalType":"struct FvmAddress","components":[{"name":"addrType","type":"uint8","internalType":"uint8"},{"name":"payload","type":"bytes","internalType":"bytes"}]}]},{"name":"nonce","type":"uint64","internalType":"uint64"},{"name":"value","type":"uint256","internalType":"uint256"},{"name":"message","type":"bytes","internalType":"bytes"}]}]}],"outputs":[],"stateMutability":"nonpayable"},{"type":"function","name":"createBottomUpCheckpoint","inputs":[{"name":"checkpoint","type":"tuple","internalType":"struct BottomUpCheckpoint","components":[{"name":"subnetID","type":"tuple","internalType":"struct SubnetID","components":[{"name":"root","type":"uint64","internalType":"uint64"},{"name":"route","type":"address[]","internalType":"address[]"}]},{"name":"blockHeight","type":"uint256","internalType":"uint256"},{"name":"blockHash","type":"bytes32","internalType":"bytes32"},{"name":"nextConfigurationNumber","type":"uint64","internalType":"uint64"},{"name":"msgs","type":"tuple[]","internalType":"struct IpcEnvelope[]","components":[{"name":"kind","type":"uint8","internalType":"enum IpcMsgKind"},{"name":"to","type":"tuple","internalType":"struct IPCAddress","components":[{"name":"subnetId","type":"tuple","internalType":"struct SubnetID","components":[{"name":"root","type":"uint64","internalType":"uint64"},{"name":"route","type":"address[]","internalType":"address[]"}]},{"name":"rawAddress","type":"tuple","internalType":"struct FvmAddress","components":[{"name":"addrType","type":"uint8","internalType":"uint8"},{"name":"payload","type":"bytes","internalType":"bytes"}]}]},{"name":"from","type":"tuple","internalType":"struct IPCAddress","components":[{"name":"subnetId","type":"tuple","internalType":"struct SubnetID","components":[{"name":"root","type":"uint64","internalType":"uint64"},{"name":"route","type":"address[]","internalType":"address[]"}]},{"name":"rawAddress","type":"tuple","internalType":"struct FvmAddress","components":[{"name":"addrType","type":"uint8","internalType":"uint8"},{"name":"payload","type":"bytes","internalType":"bytes"}]}]},{"name":"nonce","type":"uint64","internalType":"uint64"},{"name":"value","type":"uint256","internalType":"uint256"},{"name":"message","type":"bytes","internalType":"bytes"}]}]},{"name":"membershipRootHash","type":"bytes32","internalType":"bytes32"},{"name":"membershipWeight","type":"uint256","internalType":"uint256"}],"outputs":[],"stateMutability":"nonpayable"},{"type":"function","name":"pruneBottomUpCheckpoints","inputs":[{"name":"newRetentionHeight","type":"uint256","internalType":"uint256"}],"outputs":[],"stateMutability":"nonpayable"},{"type":"event","name":"NewBottomUpMsgBatch","inputs":[{"name":"epoch","type":"uint256","indexed":true,"internalType":"uint256"},{"name":"batch","type":"tuple","indexed":false,"internalType":"struct BottomUpMsgBatch","components":[{"name":"subnetID","type":"tuple","internalType":"struct SubnetID","components":[{"name":"root","type":"uint64","internalType":"uint64"},{"name":"route","type":"address[]","internalType":"address[]"}]},{"name":"blockHeight","type":"uint256","internalType":"uint256"},{"name":"msgs","type":"tuple[]","internalType":"struct IpcEnvelope[]","components":[{"name":"kind","type":"uint8","internalType":"enum IpcMsgKind"},{"name":"to","type":"tuple","internalType":"struct IPCAddress","components":[{"name":"subnetId","type":"tuple","internalType":"struct SubnetID","components":[{"name":"root","type":"uint64","internalType":"uint64"},{"name":"route","type":"address[]","internalType":"address[]"}]},{"name":"rawAddress","type":"tuple","internalType":"struct FvmAddress","components":[{"name":"addrType","type":"uint8","internalType":"uint8"},{"name":"payload","type":"bytes","internalType":"bytes"}]}]},{"name":"from","type":"tuple","internalType":"struct IPCAddress","components":[{"name":"subnetId","type":"tuple","internalType":"struct SubnetID","components":[{"name":"root","type":"uint64","internalType":"uint64"},{"name":"route","type":"address[]","internalType":"address[]"}]},{"name":"rawAddress","type":"tuple","internalType":"struct FvmAddress","components":[{"name":"addrType","type":"uint8","internalType":"uint8"},{"name":"payload","type":"bytes","internalType":"bytes"}]}]},{"name":"nonce","type":"uint64","internalType":"uint64"},{"name":"value","type":"uint256","internalType":"uint256"},{"name":"message","type":"bytes","internalType":"bytes"}]}]}],"anonymous":false},{"type":"event","name":"NewTopDownMessage","inputs":[{"name":"subnet","type":"address","indexed":true,"internalType":"address"},{"name":"message","type":"tuple","indexed":false,"internalType":"struct IpcEnvelope","components":[{"name":"kind","type":"uint8","internalType":"enum IpcMsgKind"},{"name":"to","type":"tuple","internalType":"struct IPCAddress","components":[{"name":"subnetId","type":"tuple","internalType":"struct SubnetID","components":[{"name":"root","type":"uint64","internalType":"uint64"},{"name":"route","type":"address[]","internalType":"address[]"}]},{"name":"rawAddress","type":"tuple","internalType":"struct FvmAddress","components":[{"name":"addrType","type":"uint8","internalType":"uint8"},{"name":"payload","type":"bytes","internalType":"bytes"}]}]},{"name":"from","type":"tuple","internalType":"struct IPCAddress","components":[{"name":"subnetId","type":"tuple","internalType":"struct SubnetID","components":[{"name":"root","type":"uint64","internalType":"uint64"},{"name":"route","type":"address[]","internalType":"address[]"}]},{"name":"rawAddress","type":"tuple","internalType":"struct FvmAddress","components":[{"name":"addrType","type":"uint8","internalType":"uint8"},{"name":"payload","type":"bytes","internalType":"bytes"}]}]},{"name":"nonce","type":"uint64","internalType":"uint64"},{"name":"value","type":"uint256","internalType":"uint256"},{"name":"message","type":"bytes","internalType":"bytes"}]}],"anonymous":false},{"type":"event","name":"QuorumReached","inputs":[{"name":"objKind","type":"uint8","indexed":false,"internalType":"enum QuorumObjKind"},{"name":"height","type":"uint256","indexed":false,"internalType":"uint256"},{"name":"objHash","type":"bytes32","indexed":false,"internalType":"bytes32"},{"name":"quorumWeight","type":"uint256","indexed":false,"internalType":"uint256"}],"anonymous":false},{"type":"event","name":"QuorumWeightUpdated","inputs":[{"name":"objKind","type":"uint8","indexed":false,"internalType":"enum QuorumObjKind"},{"name":"height","type":"uint256","indexed":false,"internalType":"uint256"},{"name":"objHash","type":"bytes32","indexed":false,"internalType":"bytes32"},{"name":"newWeight","type":"uint256","indexed":false,"internalType":"uint256"}],"anonymous":false},{"type":"error","name":"CannotSendCrossMsgToItself","inputs":[]},{"type":"error","name":"CheckpointAlreadyExists","inputs":[]},{"type":"error","name":"CheckpointNotCreated","inputs":[]},{"type":"error","name":"FailedAddIncompleteQuorum","inputs":[]},{"type":"error","name":"FailedAddSignatory","inputs":[]},{"type":"error","name":"FailedRemoveIncompleteQuorum","inputs":[]},{"type":"error","name":"InvalidActorAddress","inputs":[]},{"type":"error","name":"InvalidCheckpointEpoch","inputs":[]},{"type":"error","name":"InvalidCheckpointSource","inputs":[]},{"type":"error","name":"InvalidRetentionHeight","inputs":[]},{"type":"error","name":"InvalidSignature","inputs":[]},{"type":"error","name":"InvalidSubnet","inputs":[]},{"type":"error","name":"InvalidXnetMessage","inputs":[{"name":"reason","type":"uint8","internalType":"enum InvalidXnetMessageReason"}]},{"type":"error","name":"MaxMsgsPerBatchExceeded","inputs":[]},{"type":"error","name":"MethodNotAllowed","inputs":[{"name":"reason","type":"string","internalType":"string"}]},{"type":"error","name":"NotAuthorized","inputs":[{"name":"","type":"address","internalType":"address"}]},{"type":"error","name":"NotEnoughSubnetCircSupply","inputs":[]},{"type":"error","name":"NotRegisteredSubnet","inputs":[]},{"type":"error","name":"NotSystemActor","inputs":[]},{"type":"error","name":"QuorumAlreadyProcessed","inputs":[]},{"type":"error","name":"SignatureReplay","inputs":[]},{"type":"error","name":"SubnetNotFound","inputs":[]},{"type":"error","name":"ZeroMembershipWeight","inputs":[]}],"bytecode":{"object":"0x608060405234801561001057600080fd5b5061493f806100206000396000f3fe608060405234801561001057600080fd5b506004361061004c5760003560e01c806353b4e7bf14610051578063ac81837914610066578063dc749b0514610079578063fba0fa4d1461008c575b600080fd5b61006461005f3660046135ec565b61009f565b005b6100646100743660046136b9565b6100f1565b6100646100873660046136ea565b6101c4565b61006461009a366004613737565b610293565b6100aa600b85610448565b6000848152602260205260409020600201541515806100dc576040516358cdd2e760e01b815260040160405180910390fd5b6100ea600b86868686610471565b5050505050565b6100f9610711565b600c545b818110156101b557600081815260226020526040812080546001600160401b03191681559081816101316001830182613215565b5050600060028301819055600383018190556004830180546001600160401b0319169055610163906005840190613233565b5050600081815260236020526040812080546001600160401b03191681559081816101916001830182613215565b505060028201600090556003820160006101ab9190613233565b50506001016100fd565b506101c1600b826107a3565b50565b6101cc610711565b6001546101dd906020850135613789565b156101fb5760405163fae4eadb60e01b815260040160405180910390fd5b61021a8360200135600090815260226020526040902060020154151590565b156102385760405163b8a1eae160e01b815260040160405180910390fd5b61027d6000600b0184602001358560405160200161025691906139e4565b60408051601f1981840301815291905280516020909101206004548690869060ff1661090a565b61028e61028984613dde565b6109fb565b505050565b3361029e8280613e88565b6102a790613ea8565b604051632cff562160e11b815273__$a0fe38a9a81205afccc10810b09a4d3f45$__916359feac42916102dd9190600401613f1f565b602060405180830381865af41580156102fa573d6000803e3d6000fd5b505050506040513d601f19601f8201168201806040525081019061031e9190613f32565b6001600160a01b03161461034557604051637f39132760e11b815260040160405180910390fd5b60008061035133610c59565b9150915081610372576040516208ed5b60e31b815260040160405180910390fd5b61037c8380613e88565b61038590613ea8565b60405163c836244d60e01b815273__$a0fe38a9a81205afccc10810b09a4d3f45$__9163c836244d916103bf919060048087019101613fbe565b602060405180830381865af41580156103dc573d6000803e3d6000fd5b505050506040513d601f19601f820116820180604052508101906104009190613ffc565b61041d576040516303b5db8360e11b815260040160405180910390fd5b61043261042d6080850185614017565b610d94565b61028e6104426080850185614017565b83610dca565b816001015481101561046d57604051630108e13760e21b815260040160405180910390fd5b5050565b60008481526002860160205260408120805490919081906104929085610eec565b50909250905060008160038111156104ac576104ac6138cf565b146104ca57604051638baa579f60e01b815260040160405180910390fd5b600087815260058901602052604090206104e49083610f39565b1561050257604051635a3fd0d960e11b815260040160405180910390fd5b604080516001600160a01b038416602082015290810186905260009060600160408051601f1981840301815282825280516020918201209083015201604051602081830303815290604052805190602001209050600061056788866001015484610f60565b90508061059757604051634a0bfec160e01b81526001600160a01b03851660048201526024015b60405180910390fd5b600089815260058b01602052604081206105b19086610f76565b9050806105d157604051633363140f60e01b815260040160405180910390fd5b60008a815260068c01602090815260408083206001600160a01b038916845290915290206105ff88826140dc565b508786600301600082825461061491906141b1565b9091555050600286015460038701541061070457600486015460ff166106bc5760048601805460ff1916600117905561065060038c018b610f8b565b905080610670576040516344a7b48760e11b815260040160405180910390fd5b8a54865460038801546040517fc08568b61a3224ac0d48121f065552f2f645d3777d353bd87291108bc3651494936106af9360ff909116928f926141d4565b60405180910390a1610704565b8a54865460038801546040517f103355808c87614c31e835c1a86487b17b1e54cf36e0ac4469c8d1e892239cbc936106fb9360ff909116928f926141d4565b60405180910390a15b5050505050505050505050565b604051635d3f8a6960e01b815233600482015273__$e800e3908cdbb6b1b5bd452383a17b18f7$__90635d3f8a6990602401602060405180830381865af4158015610760573d6000803e3d6000fd5b505050506040513d601f19601f820116820180604052508101906107849190613ffc565b6107a15760405163f0d97f3b60e01b815260040160405180910390fd5b565b60018201548082116107c857604051636819a3a960e01b815260040160405180910390fd5b805b8281101561090057600081815260058501602052604081206107eb90610f97565b805190915060005b818110156108a1578660060160008581526020019081526020016000206000848381518110610824576108246141fd565b60200260200101516001600160a01b03166001600160a01b0316815260200190815260200160002060006108589190613254565b61089883828151811061086d5761086d6141fd565b6020026020010151886005016000878152602001908152602001600020610fab90919063ffffffff16565b506001016107f3565b50600083815260028088016020908152604080842084815560018101859055928301849055600383018490556004909201805460ff1916905560058901905281209081816108ef8282613215565b5050505082600101925050506107ca565b5050600190910155565b856001015485101561092f57604051630108e13760e21b815260040160405180910390fd5b8160000361095057604051634e8ac6e560e01b815260040160405180910390fd5b600061095c8383610fc0565b9050600061096d6003890188610fd8565b90508061098d57604051630cbd1cd360e11b815260040160405180910390fd5b506040805160a08101825295865260208087019586528682019283526000606088018181526080890182815299825260029a8b0190925291909120955186559351600186015551958401959095555051600382015590516004909101805460ff191691151591909117905550565b60208181015160009081526022825260408082209084015160038201558351805182546001600160401b0319166001600160401b039091161782558084015180519394929391928492610a54926001850192019061328e565b50505060608301516004820180546001600160401b0319166001600160401b039092169190911790556020830151600282015560808301515160005b818110156100ea578260050185608001518281518110610ab257610ab26141fd565b6020908102919091018101518254600181810185556000948552929093208151600c909402018054919390929091839160ff1990911690836002811115610afb57610afb6138cf565b0217905550602082810151805180516001850180546001600160401b0319166001600160401b03909216919091178155818401518051939491938492610b4892600289019291019061328e565b505050602082810151805160028401805460ff191660ff909216919091178155918101519091906003840190610b7e90826140dc565b505050506040830151805180516005850180546001600160401b0319166001600160401b03909216919091178155602080830151805194955091938492610bcc92600689019291019061328e565b505050602082810151805160028401805460ff191660ff909216919091178155918101519091906003840190610c0290826140dc565b5050505060608301516009830180546001600160401b0319166001600160401b03909216919091179055506080820151600a82015560a0820151600b820190610c4b90826140dc565b505050806001019050610a90565b600080806001600160a01b038416610c84576040516370e4510960e01b815260040160405180910390fd5b6040805180820182526012830180546001600160401b03168252601384018054845160208281028201810190965281815260009580860193919290830182828015610cf857602002820191906000526020600020905b81546001600160a01b03168152600190910190602001808311610cda575b50505091909252505060405163aa5106cb60e01b815273__$a0fe38a9a81205afccc10810b09a4d3f45$__9263aa5106cb9250610d39918990600401614213565b600060405180830381865af4158015610d56573d6000803e3d6000fd5b505050506040513d6000823e601f3d908101601f19168201604052610d7e91908101906142f0565b9050610d8981610fe4565b935093505050915091565b600354600090600160c01b90046001600160401b031682111561028e5760405163351c700760e01b815260040160405180910390fd5b600082815b81811015610e1357858582818110610de957610de96141fd565b9050602002810190610dfb9190614324565b610e099060800135846141b1565b9250600101610dcf565b5060028301548290811115610e3b57604051631d36ca1560e21b815260040160405180910390fd5b80846002016000828254610e4f919061433a565b90915550506040805180820182526004860180546001600160401b031682526005870180548451602082810282018101909652818152610ee49580860193919290830182828015610ec957602002820191906000526020600020905b81546001600160a01b03168152600190910190602001808311610eab575b505050505081525050878790610edf919061434d565b611178565b505050505050565b60008060008351604103610f265760208401516040850151606086015160001a610f18888285856111b6565b955095509550505050610f32565b50508151600091506002905b9250925092565b6001600160a01b038116600090815260018301602052604081205415155b90505b92915050565b600082610f6d8584611285565b14949350505050565b6000610f57836001600160a01b0384166112c8565b6000610f578383611317565b60606000610fa483611411565b9392505050565b6000610f57836001600160a01b038416611317565b60006064610fce838561435a565b610f579190614371565b6000610f5783836112c8565b6040516390ba52cf60e01b815260009081908190601f90829073__$a0fe38a9a81205afccc10810b09a4d3f45$__906390ba52cf90611027908990600401613f1f565b602060405180830381865af4158015611044573d6000803e3d6000fd5b505050506040513d601f19601f820116820180604052508101906110689190614385565b81526020808201929092526040908101600020815180830183526004820180546001600160401b0316825260058301805485518188028101880190965280865293975091949093858201939092918301828280156110ef57602002820191906000526020600020905b81546001600160a01b031681526001909101906020018083116110d1575b505050919092525050604051630c133d1360e31b815273__$a0fe38a9a81205afccc10810b09a4d3f45$__92636099e898925061112e91600401613f1f565b602060405180830381865af415801561114b573d6000803e3d6000fd5b505050506040513d601f19601f8201168201806040525081019061116f9190613ffc565b15925050915091565b805160005b818110156111b0576111a88484838151811061119b5761119b6141fd565b602002602001015161146d565b60010161117d565b50505050565b600080807f7fffffffffffffffffffffffffffffff5d576e7357a4501ddfe92f46681b20a08411156111f1575060009150600390508261127b565b604080516000808252602082018084528a905260ff891692820192909252606081018790526080810186905260019060a0016020604051602081039080840390855afa158015611245573d6000803e3d6000fd5b5050604051601f1901519150506001600160a01b0381166112715750600092506001915082905061127b565b9250600091508190505b9450945094915050565b600081815b84518110156112c0576112b6828683815181106112a9576112a96141fd565b6020026020010151611b24565b915060010161128a565b509392505050565b600081815260018301602052604081205461130f57508154600181810184556000848152602080822090930184905584548482528286019093526040902091909155610f5a565b506000610f5a565b6000818152600183016020526040812054801561140057600061133b60018361433a565b855490915060009061134f9060019061433a565b90508082146113b457600086600001828154811061136f5761136f6141fd565b9060005260206000200154905080876000018481548110611392576113926141fd565b6000918252602080832090910192909255918252600188019052604090208390555b85548690806113c5576113c561439e565b600190038181906000526020600020016000905590558560010160008681526020019081526020016000206000905560019350505050610f5a565b6000915050610f5a565b5092915050565b60608160000180548060200260200160405190810160405280929190818152602001828054801561146157602002820191906000526020600020905b81548152602001906001019080831161144d575b50505050509050919050565b602081015151604051630c133d1360e31b815260009173__$a0fe38a9a81205afccc10810b09a4d3f45$__91636099e898916114ab91600401613f1f565b602060405180830381865af41580156114c8573d6000803e3d6000fd5b505050506040513d601f19601f820116820180604052508101906114ec9190613ffc565b156115485761028e82600163bc0f01cf60e01b600160405160240161151191906143b4565b60408051601f198184030181529190526020810180516001600160e01b03166001600160e01b031990931692909217909152611b53565b604080518082019091526000808252602082015260405163855f7e4560e01b815260009073__$33b79814e84bf6cf5e47244090b19ce5f8$__9063855f7e459061159b90879060128801906004016144de565b602060405180830381865af41580156115b8573d6000803e3d6000fd5b505050506040513d601f19601f820116820180604052508101906115dc91906144fe565b905060018160018111156115f2576115f26138cf565b036117fc5760008061160387610fe4565b91509150816116155750505050505050565b60608601516003820154600160401b90046001600160401b039081169116146116615761165886600163bc0f01cf60e01b600260405160240161151191906143b4565b50505050505050565b60018160030160088282829054906101000a90046001600160401b0316611688919061451b565b82546101009290920a6001600160401b03818102199093169183160217909155604080518082018252600485018054909316815260058501805483516020808302820181019095528181529295508386019383018282801561171357602002820191906000526020600020905b81546001600160a01b031681526001909101906020018083116116f5575b505050919092525050604051632cff562160e11b815273__$a0fe38a9a81205afccc10810b09a4d3f45$__926359feac42925061175291600401613f1f565b602060405180830381865af415801561176f573d6000803e3d6000fd5b505050506040513d601f19601f820116820180604052508101906117939190613f32565b6001600160a01b03166380875df76040518163ffffffff1660e01b81526004016040805180830381865afa1580156117cf573d6000803e3d6000fd5b505050506040513d601f19601f820116820180604052508101906117f3919061453b565b935050506118d1565b6000816001811115611810576118106138cf565b036118d15760608401516003840154600160401b90046001600160401b03908116911614611858576100ea84600163bc0f01cf60e01b600260405160240161151191906143b4565b60018360030160088282829054906101000a90046001600160401b031661187f919061451b565b92506101000a8154816001600160401b0302191690836001600160401b031602179055506118ce6040805180820182526000808252602091820181905282518084019093528083529082015290565b91505b60208401515160405163c836244d60e01b815273__$a0fe38a9a81205afccc10810b09a4d3f45$__9163c836244d9161191291906012880190600401613fbe565b602060405180830381865af415801561192f573d6000803e3d6000fd5b505050506040513d601f19601f820116820180604052508101906119539190613ffc565b611af057600061196285611c0e565b60008181526021860160205260409020865181549293508792829060ff19166001836002811115611995576119956138cf565b0217905550602082810151805180516001850180546001600160401b0319166001600160401b039092169190911781558184015180519394919384926119e292600289019291019061328e565b505050602082810151805160028401805460ff191660ff909216919091178155918101519091906003840190611a1890826140dc565b505050506040830151805180516005850180546001600160401b0319166001600160401b03909216919091178155602080830151805194955091938492611a6692600689019291019061328e565b505050602082810151805160028401805460ff191660ff909216919091178155918101519091906003840190611a9c90826140dc565b5050505060608301516009830180546001600160401b0319166001600160401b03909216919091179055506080820151600a82015560a0820151600b820190611ae590826140dc565b505050505050505050565b600080611afd8685611c3e565b915091508115611b1857611b1386600083611b53565b611658565b61165886600283611b53565b6000818310611b40576000828152602084905260409020610f57565b6000838152602083905260409020610f57565b611b5c83611d25565b15611b6657505050565b600283516002811115611b7b57611b7b6138cf565b03611b8557505050565b604051634dbefc2d60e11b81526111b09073__$33b79814e84bf6cf5e47244090b19ce5f8$__90639b7df85a90611bc49087908790879060040161457c565b600060405180830381865af4158015611be1573d6000803e3d6000fd5b505050506040513d6000823e601f3d908101601f19168201604052611c09919081019061469c565b611d53565b600081604051602001611c21919061477c565b604051602081830303815290604052805190602001209050919050565b6000606073__$33b79814e84bf6cf5e47244090b19ce5f8$__6001600160a01b0316630cb8986260e01b8585604051602401611c7b92919061478f565b60408051601f198184030181529181526020820180516001600160e01b03166001600160e01b0319909416939093179092529051611cb991906147d1565b600060405180830381855af49150503d8060008114611cf4576040519150601f19603f3d011682016040523d82523d6000602084013e611cf9565b606091505b5090925090508115611d1e5780806020019051810190611d1991906147e3565b915091505b9250929050565b60008082516002811115611d3b57611d3b6138cf565b03611d495750608001511590565b5060a00151511590565b602081015151604051630c133d1360e31b8152600091829173__$a0fe38a9a81205afccc10810b09a4d3f45$__90636099e89890611d95908490600401613f1f565b602060405180830381865af4158015611db2573d6000803e3d6000fd5b505050506040513d601f19601f82011682018060405250810190611dd69190613ffc565b15611df757600160405163bc0f01cf60e01b815260040161058e91906143b4565b60405163c836244d60e01b815273__$a0fe38a9a81205afccc10810b09a4d3f45$__9063c836244d90611e339084906012870190600401613fbe565b602060405180830381865af4158015611e50573d6000803e3d6000fd5b505050506040513d601f19601f82011682018060405250810190611e749190613ffc565b15611e9257604051632f3335ff60e21b815260040160405180910390fd5b60408085015151905163855f7e4560e01b815260009073__$33b79814e84bf6cf5e47244090b19ce5f8$__9063855f7e4590611ed790899060128901906004016144de565b602060405180830381865af4158015611ef4573d6000803e3d6000fd5b505050506040513d601f19601f82011682018060405250810190611f1891906144fe565b604051631ccc893360e11b815290915060009073__$a0fe38a9a81205afccc10810b09a4d3f45$__90633999126690611f579087908790600401614830565b600060405180830381865af4158015611f74573d6000803e3d6000fd5b505050506040513d6000823e601f3d908101601f19168201604052611f9c91908101906142f0565b60405163c836244d60e01b815273__$a0fe38a9a81205afccc10810b09a4d3f45$__9163c836244d91611fd7919060128a0190600401613fbe565b602060405180830381865af4158015611ff4573d6000803e3d6000fd5b505050506040513d601f19601f820116820180604052508101906120189190613ffc565b905060006001836001811115612030576120306138cf565b036121c9576040516308c7427760e11b815273__$a0fe38a9a81205afccc10810b09a4d3f45$__9063118e84ee9061206c908790600401613f1f565b600060405180830381865af4158015612089573d6000803e3d6000fd5b505050506040513d6000823e601f3d908101601f191682016040526120b191908101906142f0565b60405163c836244d60e01b815273__$a0fe38a9a81205afccc10810b09a4d3f45$__9163c836244d916120ec919060128b0190600401613fbe565b602060405180830381865af4158015612109573d6000803e3d6000fd5b505050506040513d601f19601f8201168201806040525081019061212d9190613ffc565b80156121c25750604051632cff562160e11b81526121c29060019073__$a0fe38a9a81205afccc10810b09a4d3f45$__906359feac4290612172908990600401613f1f565b602060405180830381865af415801561218f573d6000803e3d6000fd5b505050506040513d601f19601f820116820180604052508101906121b39190613f32565b6001600160a01b0316906123e5565b90506122a3565b60008360018111156121dd576121dd6138cf565b036122a35760405163089032d560e01b81526122a09060019073__$a0fe38a9a81205afccc10810b09a4d3f45$__9063089032d590612225908a9060128d0190600401613fbe565b600060405180830381865af4158015612242573d6000803e3d6000fd5b505050506040513d6000823e601f3d908101601f1916820160405261226a91908101906142f0565b604051632cff562160e11b815273__$a0fe38a9a81205afccc10810b09a4d3f45$__916359feac42916121729190600401613f1f565b90505b801561234a576000885160028111156122be576122be6138cf565b0361234a5760405163015538b160e01b815260206004820152604f60248201527f70726f7061676174696f6e206f6620605472616e7366657260206d657373616760448201527f6573206e6f742073757070706f7274656420666f72207375626e65747320776960648201526e746820455243323020737570706c7960881b608482015260a40161058e565b600083600181111561235e5761235e6138cf565b14806123675750815b156123c95760038601805460089061238e90600160401b90046001600160401b0316614855565b91906101000a8154816001600160401b0302191690836001600160401b031602179055506123bb88612474565b506000979650505050505050565b6123d28861264d565b5050506080909401511515949350505050565b60008160018111156123f9576123f96138cf565b836001600160a01b03166380875df76040518163ffffffff1660e01b81526004016040805180830381865afa158015612436573d6000803e3d6000fd5b505050506040513d601f19601f8201168201806040525081019061245a919061453b565b51600181111561246c5761246c6138cf565b149392505050565b60208101515160405163089032d560e01b8152600091829173__$a0fe38a9a81205afccc10810b09a4d3f45$__9163089032d5916124b89190601290600401613fbe565b600060405180830381865af41580156124d5573d6000803e3d6000fd5b505050506040513d6000823e601f3d908101601f191682016040526124fd91908101906142f0565b905060008061250b83610fe4565b915091508161252d57604051630e991abd60e41b815260040160405180910390fd5b60038101546001600160401b03166060860181905261254d81600161451b565b6003830180546001600160401b0319166001600160401b039290921691909117905560808601516002830180546000906125889084906141b1565b90915550506040516304e384ff60e21b815273__$a0fe38a9a81205afccc10810b09a4d3f45$__9063138e13fc906125c4908790600401613f1f565b602060405180830381865af41580156125e1573d6000803e3d6000fd5b505050506040513d601f19601f820116820180604052508101906126059190613f32565b6001600160a01b03167ffdd39ce2560484814971f663392e78ae37dc62ba184b3370d830371dd271a8b78760405161263d919061477c565b60405180910390a2505050505050565b60008061265e438360010154612fbc565b6003830180546001600160401b03166060860181905291925060019160009061268890849061451b565b92506101000a8154816001600160401b0302191690836001600160401b031602179055506000806126cb8360009081526023602052604090206002810154151591565b91509150816128af5760128401805482546001600160401b0319166001600160401b03909116178255601385018054839161270b916001840191906132f3565b505050600280820184905560038201805460018181018355600092835260209092208851600c90920201805489949193849260ff19909216918490811115612755576127556138cf565b0217905550602082810151805180516001850180546001600160401b0319166001600160401b039092169190911781558184015180519394919384926127a292600289019291019061328e565b505050602082810151805160028401805460ff191660ff9092169190911781559181015190919060038401906127d890826140dc565b505050506040830151805180516005850180546001600160401b0319166001600160401b0390921691909117815560208083015180519495509193849261282692600689019291019061328e565b505050602082810151805160028401805460ff191660ff90921691909117815591810151909190600384019061285c90826140dc565b5050505060608301516009830180546001600160401b0319166001600160401b03909216919091179055506080820151600a82015560a0820151600b8201906128a590826140dc565b5050505050505050565b60038481015490820154600160c01b9091046001600160401b03169003612f7d576040805160a0810182526012860180546001600160401b0316606083019081526013880180548551602082810282018101909752818152439660009695869594909360808701939283018282801561295157602002820191906000526020600020905b81546001600160a01b03168152600190910190602001808311612933575b505050505081525050815260200183815260200184600301805490506001600160401b038111156129845761298461349a565b6040519080825280602002602001820160405280156129bd57816020015b6129aa613333565b8152602001906001900390816129a25790505b509052600384015490915060005b81811015612d93578460030181815481106129e8576129e86141fd565b600091825260209091206040805160c08101909152600c909202018054829060ff166002811115612a1b57612a1b6138cf565b6002811115612a2c57612a2c6138cf565b8152604080516080810182526001840180546001600160401b0316828401908152600286018054855160208281028201810190975281815296860196949593948694869360608701939091830182828015612ab057602002820191906000526020600020905b81546001600160a01b03168152600190910190602001808311612a92575b5050509190925250505081526040805180820190915260028301805460ff16825260038401805460209485019484019190612aea90614060565b80601f0160208091040260200160405190810160405280929190818152602001828054612b1690614060565b8015612b635780601f10612b3857610100808354040283529160200191612b63565b820191906000526020600020905b815481529060010190602001808311612b4657829003601f168201915b505050919092525050509052508152604080516080810182526005840180546001600160401b0316828401908152600686018054855160208281028201810190975281815296860196949593948694869360608701939091830182828015612bf457602002820191906000526020600020905b81546001600160a01b03168152600190910190602001808311612bd6575b5050509190925250505081526040805180820190915260028301805460ff16825260038401805460209485019484019190612c2e90614060565b80601f0160208091040260200160405190810160405280929190818152602001828054612c5a90614060565b8015612ca75780601f10612c7c57610100808354040283529160200191612ca7565b820191906000526020600020905b815481529060010190602001808311612c8a57829003601f168201915b50505091909252505050905250815260098201546001600160401b03166020820152600a8201546040820152600b82018054606090920191612ce890614060565b80601f0160208091040260200160405190810160405280929190818152602001828054612d1490614060565b8015612d615780601f10612d3657610100808354040283529160200191612d61565b820191906000526020600020905b815481529060010190602001808311612d4457829003601f168201915b50505050508152505083604001518281518110612d8057612d806141fd565b60209081029190910101526001016129cb565b50827f0b1b135d7eb5326c8c53b4b711f8ace381cbfe4326102b012b9ccd2852abaa5883604051612dc4919061487b565b60405180910390a2612dda600385016000613233565b60038401805460018181018355600092835260209092208a51600c9092020180548b93919291839160ff191690836002811115612e1957612e196138cf565b0217905550602082810151805180516001850180546001600160401b0319166001600160401b03909216919091178155818401518051939491938492612e6692600289019291019061328e565b505050602082810151805160028401805460ff191660ff909216919091178155918101519091906003840190612e9c90826140dc565b505050506040830151805180516005850180546001600160401b0319166001600160401b03909216919091178155602080830151805194955091938492612eea92600689019291019061328e565b505050602082810151805160028401805460ff191660ff909216919091178155918101519091906003840190612f2090826140dc565b5050505060608301516009830180546001600160401b0319166001600160401b03909216919091179055506080820151600a82015560a0820151600b820190612f6990826140dc565b505050612f7582612fe7565b5050506100ea565b60038101805460018181018355600092835260209092208751600c9092020180548893919291839160ff191690836002811115612755576127556138cf565b600081612fd2816001600160401b038616614371565b612fdd9060016141b1565b610f57919061435a565b602081810151600090815260238252604081208351805182546001600160401b0319166001600160401b039091161782558084015180519394929391928492613036926001850192019061328e565b5050506020830151600282015560408301515160005b818110156100ea57826003018560400151828151811061306e5761306e6141fd565b6020908102919091018101518254600181810185556000948552929093208151600c909402018054919390929091839160ff19909116908360028111156130b7576130b76138cf565b0217905550602082810151805180516001850180546001600160401b0319166001600160401b0390921691909117815581840151805193949193849261310492600289019291019061328e565b505050602082810151805160028401805460ff191660ff90921691909117815591810151909190600384019061313a90826140dc565b505050506040830151805180516005850180546001600160401b0319166001600160401b0390921691909117815560208083015180519495509193849261318892600689019291019061328e565b505050602082810151805160028401805460ff191660ff9092169190911781559181015190919060038401906131be90826140dc565b5050505060608301516009830180546001600160401b0319166001600160401b03909216919091179055506080820151600a82015560a0820151600b82019061320790826140dc565b50505080600101905061304c565b50805460008255906000526020600020908101906101c19190613374565b50805460008255600c02906000526020600020908101906101c19190613389565b50805461326090614060565b6000825580601f10613270575050565b601f0160209004906000526020600020908101906101c19190613374565b8280548282559060005260206000209081019282156132e3579160200282015b828111156132e357825182546001600160a01b0319166001600160a01b039091161782556020909201916001909101906132ae565b506132ef929150613374565b5090565b8280548282559060005260206000209081019282156132e35760005260206000209182015b828111156132e3578254825591600101919060010190613318565b6040805160c08101909152806000815260200161334e613455565b815260200161335b613455565b8152600060208201819052604082015260609081015290565b5b808211156132ef5760008155600101613375565b808211156132ef57805460ff191681556001810180546001600160401b03191681556000908181816133be6002870182613215565b505060028201805460ff1916815560006133db6003850182613254565b505050506005820180546001600160401b0319168155600081816134026006870182613215565b505060028201805460ff19168155600061341f6003850182613254565b505050506009820180546001600160401b03191690556000600a830181905561344c90600b840190613254565b50600c01613389565b60408051608081018252600091810191825260608082015290819081526020016134956040518060400160405280600060ff168152602001606081525090565b905290565b634e487b7160e01b600052604160045260246000fd5b604080519081016001600160401b03811182821017156134d2576134d261349a565b60405290565b60405160c081016001600160401b03811182821017156134d2576134d261349a565b60405160a081016001600160401b03811182821017156134d2576134d261349a565b604051601f8201601f191681016001600160401b03811182821017156135445761354461349a565b604052919050565b60006001600160401b038211156135655761356561349a565b5060051b60200190565b60006001600160401b038211156135885761358861349a565b50601f01601f191660200190565b600082601f8301126135a757600080fd5b81356135ba6135b58261356f565b61351c565b8181528460208386010111156135cf57600080fd5b816020850160208301376000918101602001919091529392505050565b6000806000806080858703121561360257600080fd5b843593506020808601356001600160401b038082111561362157600080fd5b818801915088601f83011261363557600080fd5b81356136436135b58261354c565b81815260059190911b8301840190848101908b83111561366257600080fd5b938501935b8285101561368057843582529385019390850190613667565b9750505060408801359450606088013592508083111561369f57600080fd5b50506136ad87828801613596565b91505092959194509250565b6000602082840312156136cb57600080fd5b5035919050565b600060a082840312156136e457600080fd5b50919050565b6000806000606084860312156136ff57600080fd5b83356001600160401b0381111561371557600080fd5b613721868287016136d2565b9660208601359650604090950135949350505050565b60006020828403121561374957600080fd5b81356001600160401b0381111561375f57600080fd5b61376b848285016136d2565b949350505050565b634e487b7160e01b600052601260045260246000fd5b60008261379857613798613773565b500690565b60008235603e198336030181126137b357600080fd5b90910192915050565b6001600160401b03811681146101c157600080fd5b80356137dc816137bc565b919050565b6000808335601e198436030181126137f857600080fd5b83016020810192503590506001600160401b0381111561381757600080fd5b8060051b3603821315611d1e57600080fd5b6001600160a01b03811681146101c157600080fd5b600060408301823561384f816137bc565b6001600160401b031684526020613868848201856137e1565b604060208801529283905291600090606087015b818310156138ac57843561388f81613829565b6001600160a01b031681529383019360019290920191830161387c565b979650505050505050565b600381106101c157600080fd5b80356137dc816138b7565b634e487b7160e01b600052602160045260246000fd5b600381106101c1576101c16138cf565b60ff811681146101c157600080fd5b6000808335601e1984360301811261391b57600080fd5b83016020810192503590506001600160401b0381111561393a57600080fd5b803603821315611d1e57600080fd5b81835281816020850137506000828201602090810191909152601f909101601f19169091010190565b600061397e828361379d565b6040845261398f604085018261383e565b905061399e602084018461379d565b848203602086015280356139b1816138f5565b60ff1682526139c36020820182613904565b9150604060208401526139da604084018383613949565b9695505050505050565b600060208083526139f5848561379d565b60a082850152613a0860c085018261383e565b90508185013560408501526060604086013560608601526060860135613a2d816137bc565b60806001600160401b038083166080890152613a4c60808a018a6137e1565b601f198a8803810160a08c0152818852909450878701600586901b88018901836000805b89811015613b4457858c8503018552823560be19883603018112613a92578283fd5b87018035613a9f816138b7565b613aa8816138e5565b8552613ab6818f018261379d565b60c08f870152613ac960c0870182613972565b9050613ad8604083018361379d565b8682036040880152613aea8282613972565b9150508c820135613afa816137bc565b8a16868e0152818b01358b870152613b1560a0830183613904565b925086820360a0880152613b2a828483613949565b96505050508c830192508c85019450600181019050613a70565b50919e9d5050505050505050505050505050565b600060408284031215613b6a57600080fd5b613b726134b0565b90508135613b7f816137bc565b81526020828101356001600160401b03811115613b9b57600080fd5b8301601f81018513613bac57600080fd5b8035613bba6135b58261354c565b81815260059190911b82018301908381019087831115613bd957600080fd5b928401925b82841015613c00578335613bf181613829565b82529284019290840190613bde565b8085870152505050505092915050565b600060408284031215613c2257600080fd5b613c2a6134b0565b905081356001600160401b0380821115613c4357600080fd5b613c4f85838601613b58565b83526020840135915080821115613c6557600080fd5b9083019060408286031215613c7957600080fd5b613c816134b0565b8235613c8c816138f5565b8152602083013582811115613ca057600080fd5b613cac87828601613596565b60208301525080602085015250505092915050565b6000613ccf6135b58461354c565b8381529050602080820190600585901b840186811115613cee57600080fd5b845b81811015613dd35780356001600160401b0380821115613d105760008081fd5b9087019060c0828b031215613d255760008081fd5b613d2d6134d8565b613d36836138c4565b81528583013582811115613d4a5760008081fd5b613d568c828601613c10565b878301525060408084013583811115613d6f5760008081fd5b613d7b8d828701613c10565b8284015250506060613d8e8185016137d1565b908201526080838101359082015260a08084013583811115613db05760008081fd5b613dbc8d828701613596565b918301919091525086525050928201928201613cf0565b505050509392505050565b600060a08236031215613df057600080fd5b613df86134fa565b82356001600160401b0380821115613e0f57600080fd5b613e1b36838701613b58565b8352602085013560208401526040850135604084015260608501359150613e41826137bc565b8160608401526080850135915080821115613e5b57600080fd5b50830136601f820112613e6d57600080fd5b613e7c36823560208401613cc1565b60808301525092915050565b60008235603e19833603018112613e9e57600080fd5b9190910192915050565b6000610f5a3683613b58565b6000604083016001600160401b03835116845260208084015160406020870152828151808552606088019150602083019450600092505b80831015613f145784516001600160a01b03168252938301936001929092019190830190613eeb565b509695505050505050565b602081526000610f576020830184613eb4565b600060208284031215613f4457600080fd5b8151610fa481613829565b6000604083016001600160401b03835416845260018084016020604060208801528382548086526060890191508360005260206000209550600093505b80841015613fb25785546001600160a01b03168252948401949284019290820190613f8c565b50979650505050505050565b604081526000613fd16040830185613eb4565b8281036020840152613fe38185613f4f565b95945050505050565b805180151581146137dc57600080fd5b60006020828403121561400e57600080fd5b610f5782613fec565b6000808335601e1984360301811261402e57600080fd5b8301803591506001600160401b0382111561404857600080fd5b6020019150600581901b3603821315611d1e57600080fd5b600181811c9082168061407457607f821691505b6020821081036136e457634e487b7160e01b600052602260045260246000fd5b601f82111561028e576000816000526020600020601f850160051c810160208610156140bd5750805b601f850160051c820191505b81811015610ee4578281556001016140c9565b81516001600160401b038111156140f5576140f561349a565b614109816141038454614060565b84614094565b602080601f83116001811461413e57600084156141265750858301515b600019600386901b1c1916600185901b178555610ee4565b600085815260208120601f198616915b8281101561416d5788860151825594840194600190910190840161414e565b508582101561418b5787850151600019600388901b60f8161c191681555b5050505050600190811b01905550565b634e487b7160e01b600052601160045260246000fd5b80820180821115610f5a57610f5a61419b565b600281106101c1576101c16138cf565b608081016141e1866141c4565b9481526020810193909352604083019190915260609091015290565b634e487b7160e01b600052603260045260246000fd5b6040815260006142266040830185613eb4565b905060018060a01b03831660208301529392505050565b80516137dc816137bc565b60006040828403121561425a57600080fd5b6142626134b0565b9050815161426f816137bc565b81526020828101516001600160401b0381111561428b57600080fd5b8301601f8101851361429c57600080fd5b80516142aa6135b58261354c565b81815260059190911b820183019083810190878311156142c957600080fd5b928401925b82841015613c005783516142e181613829565b825292840192908401906142ce565b60006020828403121561430257600080fd5b81516001600160401b0381111561431857600080fd5b61376b84828501614248565b6000823560be19833603018112613e9e57600080fd5b81810381811115610f5a57610f5a61419b565b6000610f57368484613cc1565b8082028115828204841417610f5a57610f5a61419b565b60008261438057614380613773565b500490565b60006020828403121561439757600080fd5b5051919050565b634e487b7160e01b600052603160045260246000fd5b60208101600583106143c8576143c86138cf565b91905290565b60005b838110156143e95781810151838201526020016143d1565b50506000910152565b6000815180845261440a8160208601602086016143ce565b601f01601f19169290920160200192915050565b60008151604084526144336040850182613eb4565b90506020830151848203602086015260ff81511682526020810151905060406020830152613fe360408301826143f2565b60008151614471816138e5565b80845250602082015160c0602085015261448e60c085018261441e565b9050604083015184820360408601526144a7828261441e565b9150506001600160401b0360608401511660608501526080830151608085015260a083015184820360a0860152613fe382826143f2565b604081526000613fd16040830185614464565b600281106101c157600080fd5b60006020828403121561451057600080fd5b8151610fa4816144f1565b6001600160401b0381811683821601908082111561140a5761140a61419b565b60006040828403121561454d57600080fd5b6145556134b0565b8251614560816144f1565b8152602083015161457081613829565b60208201529392505050565b60608152600061458f6060830186614464565b614598856138e5565b84602084015282810360408401526139da81856143f2565b80516137dc816138b7565b600082601f8301126145cc57600080fd5b81516145da6135b58261356f565b8181528460208386010111156145ef57600080fd5b61376b8260208301602087016143ce565b60006040828403121561461257600080fd5b61461a6134b0565b905081516001600160401b038082111561463357600080fd5b61463f85838601614248565b8352602084015191508082111561465557600080fd5b908301906040828603121561466957600080fd5b6146716134b0565b825161467c816138f5565b815260208301518281111561469057600080fd5b613cac878286016145bb565b6000602082840312156146ae57600080fd5b81516001600160401b03808211156146c557600080fd5b9083019060c082860312156146d957600080fd5b6146e16134d8565b6146ea836145b0565b81526020830151828111156146fe57600080fd5b61470a87828601614600565b60208301525060408301518281111561472257600080fd5b61472e87828601614600565b6040830152506147406060840161423d565b60608201526080830151608082015260a08301518281111561476157600080fd5b61476d878286016145bb565b60a08301525095945050505050565b602081526000610f576020830184614464565b6060815260006147a26060830185614464565b905082516147af816141c4565b60208381019190915292909201516001600160a01b0316604090910152919050565b60008251613e9e8184602087016143ce565b600080604083850312156147f657600080fd5b6147ff83613fec565b915060208301516001600160401b0381111561481a57600080fd5b614826858286016145bb565b9150509250929050565b6040815260006148436040830185613eb4565b8281036020840152613fe38185613eb4565b60006001600160401b038083168181036148715761487161419b565b6001019392505050565b6000602080835283516060828501526148976080850182613eb4565b90508185015160408501526040850151601f19808684030160608701528282518085528585019150858160051b860101868501945060005b828110156148fb57848783030184526148e9828751614464565b958801959388019391506001016148cf565b50999850505050505050505056fea26469706673582212200637e0b73cec18fcd7558cdb1ead7bc4e53dc44abeffa465dd9e66ceb5edc35c64736f6c63430008180033","linkReferences":{"src/lib/AccountHelper.sol":{"AccountHelper":[{"start":1862,"length":20}]},"src/lib/CrossMsgHelper.sol":{"CrossMsgHelper":[{"start":5518,"length":20},{"start":7096,"length":20},{"start":7268,"length":20},{"start":7882,"length":20}]},"src/lib/SubnetIDHelper.sol":{"SubnetIDHelper":[{"start":726,"length":20},{"start":948,"length":20},{"start":3376,"length":20},{"start":4127,"length":20},{"start":4391,"length":20},{"start":5285,"length":20},{"start":5963,"length":20},{"start":6406,"length":20},{"start":7565,"length":20},{"start":7718,"length":20},{"start":8013,"length":20},{"start":8139,"length":20},{"start":8292,"length":20},{"start":8416,"length":20},{"start":8554,"length":20},{"start":8728,"length":20},{"start":8857,"length":20},{"start":9390,"length":20},{"start":9660,"length":20}]}}},"methodIdentifiers":{"addCheckpointSignature(uint256,bytes32[],uint256,bytes)":"53b4e7bf","commitCheckpoint(((uint64,address[]),uint256,bytes32,uint64,(uint8,((uint64,address[]),(uint8,bytes)),((uint64,address[]),(uint8,bytes)),uint64,uint256,bytes)[]))":"fba0fa4d","createBottomUpCheckpoint(((uint64,address[]),uint256,bytes32,uint64,(uint8,((uint64,address[]),(uint8,bytes)),((uint64,address[]),(uint8,bytes)),uint64,uint256,bytes)[]),bytes32,uint256)":"dc749b05","pruneBottomUpCheckpoints(uint256)":"ac818379"},"id":62}