{"abi":[{"type":"function","name":"appliedTopDownNonce","inputs":[],"outputs":[{"name":"","type":"uint64","internalType":"uint64"}],"stateMutability":"view"},{"type":"function","name":"bottomUpCheckPeriod","inputs":[],"outputs":[{"name":"","type":"uint256","internalType":"uint256"}],"stateMutability":"view"},{"type":"function","name":"bottomUpCheckpoint","inputs":[{"name":"e","type":"uint256","internalType":"uint256"}],"outputs":[{"name":"","type":"tuple","internalType":"struct BottomUpCheckpoint","components":[{"name":"subnetID","type":"tuple","internalType":"struct SubnetID","components":[{"name":"root","type":"uint64","internalType":"uint64"},{"name":"route","type":"address[]","internalType":"address[]"}]},{"name":"blockHeight","type":"uint256","internalType":"uint256"},{"name":"blockHash","type":"bytes32","internalType":"bytes32"},{"name":"nextConfigurationNumber","type":"uint64","internalType":"uint64"},{"name":"msgs","type":"tuple[]","internalType":"struct IpcEnvelope[]","components":[{"name":"kind","type":"uint8","internalType":"enum IpcMsgKind"},{"name":"to","type":"tuple","internalType":"struct IPCAddress","components":[{"name":"subnetId","type":"tuple","internalType":"struct SubnetID","components":[{"name":"root","type":"uint64","internalType":"uint64"},{"name":"route","type":"address[]","internalType":"address[]"}]},{"name":"rawAddress","type":"tuple","internalType":"struct FvmAddress","components":[{"name":"addrType","type":"uint8","internalType":"uint8"},{"name":"payload","type":"bytes","internalType":"bytes"}]}]},{"name":"from","type":"tuple","internalType":"struct IPCAddress","components":[{"name":"subnetId","type":"tuple","internalType":"struct SubnetID","components":[{"name":"root","type":"uint64","internalType":"uint64"},{"name":"route","type":"address[]","internalType":"address[]"}]},{"name":"rawAddress","type":"tuple","internalType":"struct FvmAddress","components":[{"name":"addrType","type":"uint8","internalType":"uint8"},{"name":"payload","type":"bytes","internalType":"bytes"}]}]},{"name":"nonce","type":"uint64","internalType":"uint64"},{"name":"value","type":"uint256","internalType":"uint256"},{"name":"message","type":"bytes","internalType":"bytes"}]}]}],"stateMutability":"view"},{"type":"function","name":"bottomUpMsgBatch","inputs":[{"name":"e","type":"uint256","internalType":"uint256"}],"outputs":[{"name":"","type":"tuple","internalType":"struct BottomUpMsgBatch","components":[{"name":"subnetID","type":"tuple","internalType":"struct SubnetID","components":[{"name":"root","type":"uint64","internalType":"uint64"},{"name":"route","type":"address[]","internalType":"address[]"}]},{"name":"blockHeight","type":"uint256","internalType":"uint256"},{"name":"msgs","type":"tuple[]","internalType":"struct IpcEnvelope[]","components":[{"name":"kind","type":"uint8","internalType":"enum IpcMsgKind"},{"name":"to","type":"tuple","internalType":"struct IPCAddress","components":[{"name":"subnetId","type":"tuple","internalType":"struct SubnetID","components":[{"name":"root","type":"uint64","internalType":"uint64"},{"name":"route","type":"address[]","internalType":"address[]"}]},{"name":"rawAddress","type":"tuple","internalType":"struct FvmAddress","components":[{"name":"addrType","type":"uint8","internalType":"uint8"},{"name":"payload","type":"bytes","internalType":"bytes"}]}]},{"name":"from","type":"tuple","internalType":"struct IPCAddress","components":[{"name":"subnetId","type":"tuple","internalType":"struct SubnetID","components":[{"name":"root","type":"uint64","internalType":"uint64"},{"name":"route","type":"address[]","internalType":"address[]"}]},{"name":"rawAddress","type":"tuple","internalType":"struct FvmAddress","components":[{"name":"addrType","type":"uint8","internalType":"uint8"},{"name":"payload","type":"bytes","internalType":"bytes"}]}]},{"name":"nonce","type":"uint64","internalType":"uint64"},{"name":"value","type":"uint256","internalType":"uint256"},{"name":"message","type":"bytes","internalType":"bytes"}]}]}],"stateMutability":"view"},{"type":"function","name":"bottomUpNonce","inputs":[],"outputs":[{"name":"","type":"uint64","internalType":"uint64"}],"stateMutability":"view"},{"type":"function","name":"getAppliedBottomUpNonce","inputs":[{"name":"subnetId","type":"tuple","internalType":"struct SubnetID","components":[{"name":"root","type":"uint64","internalType":"uint64"},{"name":"route","type":"address[]","internalType":"address[]"}]}],"outputs":[{"name":"","type":"bool","internalType":"bool"},{"name":"","type":"uint64","internalType":"uint64"}],"stateMutability":"view"},{"type":"function","name":"getCheckpointCurrentWeight","inputs":[{"name":"h","type":"uint256","internalType":"uint256"}],"outputs":[{"name":"","type":"uint256","internalType":"uint256"}],"stateMutability":"view"},{"type":"function","name":"getCheckpointInfo","inputs":[{"name":"h","type":"uint256","internalType":"uint256"}],"outputs":[{"name":"","type":"tuple","internalType":"struct QuorumInfo","components":[{"name":"hash","type":"bytes32","internalType":"bytes32"},{"name":"rootHash","type":"bytes32","internalType":"bytes32"},{"name":"threshold","type":"uint256","internalType":"uint256"},{"name":"currentWeight","type":"uint256","internalType":"uint256"},{"name":"reached","type":"bool","internalType":"bool"}]}],"stateMutability":"view"},{"type":"function","name":"getCheckpointRetentionHeight","inputs":[],"outputs":[{"name":"","type":"uint256","internalType":"uint256"}],"stateMutability":"view"},{"type":"function","name":"getCheckpointSignatureBundle","inputs":[{"name":"h","type":"uint256","internalType":"uint256"}],"outputs":[{"name":"ch","type":"tuple","internalType":"struct BottomUpCheckpoint","components":[{"name":"subnetID","type":"tuple","internalType":"struct SubnetID","components":[{"name":"root","type":"uint64","internalType":"uint64"},{"name":"route","type":"address[]","internalType":"address[]"}]},{"name":"blockHeight","type":"uint256","internalType":"uint256"},{"name":"blockHash","type":"bytes32","internalType":"bytes32"},{"name":"nextConfigurationNumber","type":"uint64","internalType":"uint64"},{"name":"msgs","type":"tuple[]","internalType":"struct IpcEnvelope[]","components":[{"name":"kind","type":"uint8","internalType":"enum IpcMsgKind"},{"name":"to","type":"tuple","internalType":"struct IPCAddress","components":[{"name":"subnetId","type":"tuple","internalType":"struct SubnetID","components":[{"name":"root","type":"uint64","internalType":"uint64"},{"name":"route","type":"address[]","internalType":"address[]"}]},{"name":"rawAddress","type":"tuple","internalType":"struct FvmAddress","components":[{"name":"addrType","type":"uint8","internalType":"uint8"},{"name":"payload","type":"bytes","internalType":"bytes"}]}]},{"name":"from","type":"tuple","internalType":"struct IPCAddress","components":[{"name":"subnetId","type":"tuple","internalType":"struct SubnetID","components":[{"name":"root","type":"uint64","internalType":"uint64"},{"name":"route","type":"address[]","internalType":"address[]"}]},{"name":"rawAddress","type":"tuple","internalType":"struct FvmAddress","components":[{"name":"addrType","type":"uint8","internalType":"uint8"},{"name":"payload","type":"bytes","internalType":"bytes"}]}]},{"name":"nonce","type":"uint64","internalType":"uint64"},{"name":"value","type":"uint256","internalType":"uint256"},{"name":"message","type":"bytes","internalType":"bytes"}]}]},{"name":"info","type":"tuple","internalType":"struct QuorumInfo","components":[{"name":"hash","type":"bytes32","internalType":"bytes32"},{"name":"rootHash","type":"bytes32","internalType":"bytes32"},{"name":"threshold","type":"uint256","internalType":"uint256"},{"name":"currentWeight","type":"uint256","internalType":"uint256"},{"name":"reached","type":"bool","internalType":"bool"}]},{"name":"signatories","type":"address[]","internalType":"address[]"},{"name":"signatures","type":"bytes[]","internalType":"bytes[]"}],"stateMutability":"view"},{"type":"function","name":"getCommitSha","inputs":[],"outputs":[{"name":"","type":"bytes32","internalType":"bytes32"}],"stateMutability":"view"},{"type":"function","name":"getCurrentBottomUpCheckpoint","inputs":[],"outputs":[{"name":"exists","type":"bool","internalType":"bool"},{"name":"epoch","type":"uint256","internalType":"uint256"},{"name":"checkpoint","type":"tuple","internalType":"struct BottomUpCheckpoint","components":[{"name":"subnetID","type":"tuple","internalType":"struct SubnetID","components":[{"name":"root","type":"uint64","internalType":"uint64"},{"name":"route","type":"address[]","internalType":"address[]"}]},{"name":"blockHeight","type":"uint256","internalType":"uint256"},{"name":"blockHash","type":"bytes32","internalType":"bytes32"},{"name":"nextConfigurationNumber","type":"uint64","internalType":"uint64"},{"name":"msgs","type":"tuple[]","internalType":"struct IpcEnvelope[]","components":[{"name":"kind","type":"uint8","internalType":"enum IpcMsgKind"},{"name":"to","type":"tuple","internalType":"struct IPCAddress","components":[{"name":"subnetId","type":"tuple","internalType":"struct SubnetID","components":[{"name":"root","type":"uint64","internalType":"uint64"},{"name":"route","type":"address[]","internalType":"address[]"}]},{"name":"rawAddress","type":"tuple","internalType":"struct FvmAddress","components":[{"name":"addrType","type":"uint8","internalType":"uint8"},{"name":"payload","type":"bytes","internalType":"bytes"}]}]},{"name":"from","type":"tuple","internalType":"struct IPCAddress","components":[{"name":"subnetId","type":"tuple","internalType":"struct SubnetID","components":[{"name":"root","type":"uint64","internalType":"uint64"},{"name":"route","type":"address[]","internalType":"address[]"}]},{"name":"rawAddress","type":"tuple","internalType":"struct FvmAddress","components":[{"name":"addrType","type":"uint8","internalType":"uint8"},{"name":"payload","type":"bytes","internalType":"bytes"}]}]},{"name":"nonce","type":"uint64","internalType":"uint64"},{"name":"value","type":"uint256","internalType":"uint256"},{"name":"message","type":"bytes","internalType":"bytes"}]}]}],"stateMutability":"view"},{"type":"function","name":"getCurrentConfigurationNumber","inputs":[],"outputs":[{"name":"","type":"uint64","internalType":"uint64"}],"stateMutability":"view"},{"type":"function","name":"getCurrentMembership","inputs":[],"outputs":[{"name":"","type":"tuple","internalType":"struct Membership","components":[{"name":"validators","type":"tuple[]","internalType":"struct Validator[]","components":[{"name":"weight","type":"uint256","internalType":"uint256"},{"name":"addr","type":"address","internalType":"address"},{"name":"metadata","type":"bytes","internalType":"bytes"}]},{"name":"configurationNumber","type":"uint64","internalType":"uint64"}]}],"stateMutability":"view"},{"type":"function","name":"getIncompleteCheckpointHeights","inputs":[],"outputs":[{"name":"","type":"uint256[]","internalType":"uint256[]"}],"stateMutability":"view"},{"type":"function","name":"getIncompleteCheckpoints","inputs":[],"outputs":[{"name":"","type":"tuple[]","internalType":"struct BottomUpCheckpoint[]","components":[{"name":"subnetID","type":"tuple","internalType":"struct SubnetID","components":[{"name":"root","type":"uint64","internalType":"uint64"},{"name":"route","type":"address[]","internalType":"address[]"}]},{"name":"blockHeight","type":"uint256","internalType":"uint256"},{"name":"blockHash","type":"bytes32","internalType":"bytes32"},{"name":"nextConfigurationNumber","type":"uint64","internalType":"uint64"},{"name":"msgs","type":"tuple[]","internalType":"struct IpcEnvelope[]","components":[{"name":"kind","type":"uint8","internalType":"enum IpcMsgKind"},{"name":"to","type":"tuple","internalType":"struct IPCAddress","components":[{"name":"subnetId","type":"tuple","internalType":"struct SubnetID","components":[{"name":"root","type":"uint64","internalType":"uint64"},{"name":"route","type":"address[]","internalType":"address[]"}]},{"name":"rawAddress","type":"tuple","internalType":"struct FvmAddress","components":[{"name":"addrType","type":"uint8","internalType":"uint8"},{"name":"payload","type":"bytes","internalType":"bytes"}]}]},{"name":"from","type":"tuple","internalType":"struct IPCAddress","components":[{"name":"subnetId","type":"tuple","internalType":"struct SubnetID","components":[{"name":"root","type":"uint64","internalType":"uint64"},{"name":"route","type":"address[]","internalType":"address[]"}]},{"name":"rawAddress","type":"tuple","internalType":"struct FvmAddress","components":[{"name":"addrType","type":"uint8","internalType":"uint8"},{"name":"payload","type":"bytes","internalType":"bytes"}]}]},{"name":"nonce","type":"uint64","internalType":"uint64"},{"name":"value","type":"uint256","internalType":"uint256"},{"name":"message","type":"bytes","internalType":"bytes"}]}]}],"stateMutability":"view"},{"type":"function","name":"getLastConfigurationNumber","inputs":[],"outputs":[{"name":"","type":"uint64","internalType":"uint64"}],"stateMutability":"view"},{"type":"function","name":"getLastMembership","inputs":[],"outputs":[{"name":"","type":"tuple","internalType":"struct Membership","components":[{"name":"validators","type":"tuple[]","internalType":"struct Validator[]","components":[{"name":"weight","type":"uint256","internalType":"uint256"},{"name":"addr","type":"address","internalType":"address"},{"name":"metadata","type":"bytes","internalType":"bytes"}]},{"name":"configurationNumber","type":"uint64","internalType":"uint64"}]}],"stateMutability":"view"},{"type":"function","name":"getLatestParentFinality","inputs":[],"outputs":[{"name":"","type":"tuple","internalType":"struct ParentFinality","components":[{"name":"height","type":"uint256","internalType":"uint256"},{"name":"blockHash","type":"bytes32","internalType":"bytes32"}]}],"stateMutability":"view"},{"type":"function","name":"getNetworkName","inputs":[],"outputs":[{"name":"","type":"tuple","internalType":"struct SubnetID","components":[{"name":"root","type":"uint64","internalType":"uint64"},{"name":"route","type":"address[]","internalType":"address[]"}]}],"stateMutability":"view"},{"type":"function","name":"getParentFinality","inputs":[{"name":"blockNumber","type":"uint256","internalType":"uint256"}],"outputs":[{"name":"","type":"tuple","internalType":"struct ParentFinality","components":[{"name":"height","type":"uint256","internalType":"uint256"},{"name":"blockHash","type":"bytes32","internalType":"bytes32"}]}],"stateMutability":"view"},{"type":"function","name":"getQuorumThreshold","inputs":[{"name":"totalWeight","type":"uint256","internalType":"uint256"}],"outputs":[{"name":"","type":"uint256","internalType":"uint256"}],"stateMutability":"view"},{"type":"function","name":"getSubnet","inputs":[{"name":"subnetId","type":"tuple","internalType":"struct SubnetID","components":[{"name":"root","type":"uint64","internalType":"uint64"},{"name":"route","type":"address[]","internalType":"address[]"}]}],"outputs":[{"name":"","type":"bool","internalType":"bool"},{"name":"","type":"tuple","internalType":"struct Subnet","components":[{"name":"stake","type":"uint256","internalType":"uint256"},{"name":"genesisEpoch","type":"uint256","internalType":"uint256"},{"name":"circSupply","type":"uint256","internalType":"uint256"},{"name":"topDownNonce","type":"uint64","internalType":"uint64"},{"name":"appliedBottomUpNonce","type":"uint64","internalType":"uint64"},{"name":"id","type":"tuple","internalType":"struct SubnetID","components":[{"name":"root","type":"uint64","internalType":"uint64"},{"name":"route","type":"address[]","internalType":"address[]"}]}]}],"stateMutability":"view"},{"type":"function","name":"getSubnetKeys","inputs":[],"outputs":[{"name":"","type":"bytes32[]","internalType":"bytes32[]"}],"stateMutability":"view"},{"type":"function","name":"getSubnetTopDownMsgsLength","inputs":[{"name":"subnetId","type":"tuple","internalType":"struct SubnetID","components":[{"name":"root","type":"uint64","internalType":"uint64"},{"name":"route","type":"address[]","internalType":"address[]"}]}],"outputs":[{"name":"","type":"uint256","internalType":"uint256"}],"stateMutability":"view"},{"type":"function","name":"getTopDownNonce","inputs":[{"name":"subnetId","type":"tuple","internalType":"struct SubnetID","components":[{"name":"root","type":"uint64","internalType":"uint64"},{"name":"route","type":"address[]","internalType":"address[]"}]}],"outputs":[{"name":"","type":"bool","internalType":"bool"},{"name":"","type":"uint64","internalType":"uint64"}],"stateMutability":"view"},{"type":"function","name":"listSubnets","inputs":[],"outputs":[{"name":"","type":"tuple[]","internalType":"struct Subnet[]","components":[{"name":"stake","type":"uint256","internalType":"uint256"},{"name":"genesisEpoch","type":"uint256","internalType":"uint256"},{"name":"circSupply","type":"uint256","internalType":"uint256"},{"name":"topDownNonce","type":"uint64","internalType":"uint64"},{"name":"appliedBottomUpNonce","type":"uint64","internalType":"uint64"},{"name":"id","type":"tuple","internalType":"struct SubnetID","components":[{"name":"root","type":"uint64","internalType":"uint64"},{"name":"route","type":"address[]","internalType":"address[]"}]}]}],"stateMutability":"view"},{"type":"function","name":"majorityPercentage","inputs":[],"outputs":[{"name":"","type":"uint64","internalType":"uint64"}],"stateMutability":"view"},{"type":"function","name":"maxMsgsPerBottomUpBatch","inputs":[],"outputs":[{"name":"","type":"uint64","internalType":"uint64"}],"stateMutability":"view"},{"type":"function","name":"postbox","inputs":[{"name":"id","type":"bytes32","internalType":"bytes32"}],"outputs":[{"name":"storableMsg","type":"tuple","internalType":"struct IpcEnvelope","components":[{"name":"kind","type":"uint8","internalType":"enum IpcMsgKind"},{"name":"to","type":"tuple","internalType":"struct IPCAddress","components":[{"name":"subnetId","type":"tuple","internalType":"struct SubnetID","components":[{"name":"root","type":"uint64","internalType":"uint64"},{"name":"route","type":"address[]","internalType":"address[]"}]},{"name":"rawAddress","type":"tuple","internalType":"struct FvmAddress","components":[{"name":"addrType","type":"uint8","internalType":"uint8"},{"name":"payload","type":"bytes","internalType":"bytes"}]}]},{"name":"from","type":"tuple","internalType":"struct IPCAddress","components":[{"name":"subnetId","type":"tuple","internalType":"struct SubnetID","components":[{"name":"root","type":"uint64","internalType":"uint64"},{"name":"route","type":"address[]","internalType":"address[]"}]},{"name":"rawAddress","type":"tuple","internalType":"struct FvmAddress","components":[{"name":"addrType","type":"uint8","internalType":"uint8"},{"name":"payload","type":"bytes","internalType":"bytes"}]}]},{"name":"nonce","type":"uint64","internalType":"uint64"},{"name":"value","type":"uint256","internalType":"uint256"},{"name":"message","type":"bytes","internalType":"bytes"}]}],"stateMutability":"view"},{"type":"function","name":"subnets","inputs":[{"name":"h","type":"bytes32","internalType":"bytes32"}],"outputs":[{"name":"subnet","type":"tuple","internalType":"struct Subnet","components":[{"name":"stake","type":"uint256","internalType":"uint256"},{"name":"genesisEpoch","type":"uint256","internalType":"uint256"},{"name":"circSupply","type":"uint256","internalType":"uint256"},{"name":"topDownNonce","type":"uint64","internalType":"uint64"},{"name":"appliedBottomUpNonce","type":"uint64","internalType":"uint64"},{"name":"id","type":"tuple","internalType":"struct SubnetID","components":[{"name":"root","type":"uint64","internalType":"uint64"},{"name":"route","type":"address[]","internalType":"address[]"}]}]}],"stateMutability":"view"},{"type":"function","name":"totalSubnets","inputs":[],"outputs":[{"name":"","type":"uint64","internalType":"uint64"}],"stateMutability":"view"}],"bytecode":{"object":"0x608060405234801561001057600080fd5b50613a13806100206000396000f3fe608060405234801561001057600080fd5b50600436106101f05760003560e01c80637edeac921161010f578063ac12d763116100a2578063ca41d5ce11610071578063ca41d5ce14610559578063d6c5c3971461057c578063dd81b5cf14610593578063f3229131146105b357600080fd5b8063ac12d7631461046a578063b1ba49b014610504578063b3ab3f7414610515578063c66c66a11461053857600080fd5b806397042766116100de57806397042766146104225780639d3070b514610437578063a2b671581461044a578063a517218f1461046257600080fd5b80637edeac92146103c25780638789f83b146103d55780638cfd78e7146103ed57806394074b031461040d57600080fd5b806341b6a2e811610187578063544dddff11610156578063544dddff1461037c578063599c7bd11461038d5780635d029685146103985780636ad21bb0146103ad57600080fd5b806341b6a2e81461034857806342398a9a14610359578063444ead511461036c5780634aa8f8a51461037457600080fd5b806306c46853116101c357806306c46853146102d95780632da5794a146102e15780633594c3c11461030157806338d669321461031657600080fd5b806302e30f9a146101f55780630338150f1461021e57806305aff0b31461028c57806306572c1a146102b8575b600080fd5b610208610203366004612e02565b6105bb565b6040516102159190612ee4565b60405180910390f35b604080518082018252600080825260209182018190528251808401845281815282018190528054835180850185528281528301829052815281805282902082518084019093528054835260010154908201525b60408051825181526020928301519281019290925201610215565b600354600160c01b90046001600160401b03165b6040516001600160401b039091168152602001610215565b6102cb6102c6366004612e02565b6106a0565b604051908152602001610215565b6001546102cb565b6102f46102ef366004612e02565b6106ba565b60405161021591906130f2565b610309610b6c565b6040516102159190613105565b610329610324366004613149565b610b78565b6040805192151583526001600160401b03909116602083015201610215565b6003546001600160401b03166102a0565b610329610367366004613149565b610bc4565b6005546102cb565b600c546102cb565b6008546001600160401b03166102a0565b60045460ff166102a0565b6103a0610c05565b6040516102159190613183565b6103b5610d8a565b60405161021591906131e7565b6102716103d0366004612e02565b610ecf565b600354600160401b90046001600160401b03166102a0565b6104006103fb366004612e02565b610f18565b6040516102159190613289565b6104156112a7565b604051610215919061329c565b61042a61133c565b60405161021591906132af565b6102cb610445366004613498565b6118bd565b600354600160801b90046001600160401b03166102a0565b6103096118de565b6104f7610478366004612e02565b6040805160a081018252600080825260208201819052918101829052606081018290526080810191909152506000908152600d6020908152604091829020825160a081018452815481526001820154928101929092526002810154928201929092526003820154606082015260049091015460ff161515608082015290565b60405161021591906134cc565b600a546001600160401b03166102a0565b6102cb610523366004612e02565b6000908152600d602052604090206003015490565b61054b610546366004613149565b6118ea565b604051610215929190613507565b61056c610567366004612e02565b6119d3565b6040516102159493929190613522565b610584611f37565b60405161021593929190613611565b6105a66105a1366004612e02565b611f56565b6040516102159190613632565b6103b56123ec565b6105c3612cdb565b6000828152601f6020908152604091829020825160c0810184528154815260018201548184015260028201548185015260038201546001600160401b038082166060840152600160401b909104811660808301528451808601865260048401805490921681526005840180548751818802810188019098528088529396949560a0880195929485820193929183018282801561068857602002820191906000526020600020905b81546001600160a01b0316815260019091019060200180831161066a575b5050509190925250505090525092915050565b905090565b6004546000906106b490839060ff1661250f565b92915050565b6106c2612d46565b600082815260226020908152604091829020825160e08101845281546001600160401b031660a082019081526001830180548651818702810187019097528087529295939486949293869360c0870193909290919083018282801561075057602002820191906000526020600020905b81546001600160a01b03168152600190910190602001808311610732575b505050505081525050815260200160028201548152602001600382015481526020016004820160009054906101000a90046001600160401b03166001600160401b03166001600160401b0316815260200160058201805480602002602001604051908101604052809291908181526020016000905b82821015610b5e576000848152602090206040805160c08101909152600c84029091018054829060ff16600281111561080057610800612ef7565b600281111561081157610811612ef7565b8152604080516080810182526001840180546001600160401b031682840190815260028601805485516020828102820181019097528181529686019694959394869486936060870193909183018282801561089557602002820191906000526020600020905b81546001600160a01b03168152600190910190602001808311610877575b5050509190925250505081526040805180820190915260028301805460ff168252600384018054602094850194840191906108cf90613675565b80601f01602080910402602001604051908101604052809291908181526020018280546108fb90613675565b80156109485780601f1061091d57610100808354040283529160200191610948565b820191906000526020600020905b81548152906001019060200180831161092b57829003601f168201915b505050919092525050509052508152604080516080810182526005840180546001600160401b03168284019081526006860180548551602082810282018101909752818152968601969495939486948693606087019390918301828280156109d957602002820191906000526020600020905b81546001600160a01b031681526001909101906020018083116109bb575b5050509190925250505081526040805180820190915260028301805460ff16825260038401805460209485019484019190610a1390613675565b80601f0160208091040260200160405190810160405280929190818152602001828054610a3f90613675565b8015610a8c5780601f10610a6157610100808354040283529160200191610a8c565b820191906000526020600020905b815481529060010190602001808311610a6f57829003601f168201915b50505091909252505050905250815260098201546001600160401b03166020820152600a8201546040820152600b82018054606090920191610acd90613675565b80601f0160208091040260200160405190810160405280929190818152602001828054610af990613675565b8015610b465780601f10610b1b57610100808354040283529160200191610b46565b820191906000526020600020905b815481529060010190602001808311610b2957829003601f168201915b505050505081525050815260200190600101906107c5565b505050915250909392505050565b606061069b602461252e565b6000808080610b8e610b89866136af565b61253b565b9150915081610ba4575060009485945092505050565b60030154600195600160401b9091046001600160401b0316945092505050565b6000808080610bd5610b89866136af565b9150915081610beb575060009485945092505050565b600301546001956001600160401b03909116945092505050565b60606000610c1360246126cf565b90506000816001600160401b03811115610c2f57610c2f613306565b604051908082528060200260200182016040528015610c6857816020015b610c55612cdb565b815260200190600190039081610c4d5790505b50905060005b82811015610d83576000610c836024836126d9565b6000818152601f6020908152604091829020825160c0810184528154815260018201548184015260028201548185015260038201546001600160401b038082166060840152600160401b909104811660808301528451808601865260048401805490921681526005840180548751818802810188019098528088529798509296939560a088019591949293858301939192909190830182828015610d5057602002820191906000526020600020905b81546001600160a01b03168152600190910190602001808311610d32575b50505050508152505081525050838381518110610d6f57610d6f6136bb565b602090810291909101015250600101610c6e565b5092915050565b60408051808201909152606081526000602082015260408051600780546060602082028401810185529383018181529293919284929091849160009085015b82821015610ead57600084815260209081902060408051606081018252600386029092018054835260018101546001600160a01b03169383019390935260028301805492939291840191610e1c90613675565b80601f0160208091040260200160405190810160405280929190818152602001828054610e4890613675565b8015610e955780601f10610e6a57610100808354040283529160200191610e95565b820191906000526020600020905b815481529060010190602001808311610e7857829003601f168201915b50505050508152505081526020019060010190610dc9565b50505090825250600191909101546001600160401b0316602090910152919050565b60408051808201825260008082526020808301829052835180850185528281528101829052848252808052908390208351808501909452805484526001015490830152906106b4565b610f20612d81565b60008281526021602052604090819020815160c081019092528054829060ff166002811115610f5157610f51612ef7565b6002811115610f6257610f62612ef7565b8152604080516080810182526001840180546001600160401b0316828401908152600286018054855160208281028201810190975281815296860196949593948694869360608701939091830182828015610fe657602002820191906000526020600020905b81546001600160a01b03168152600190910190602001808311610fc8575b5050509190925250505081526040805180820190915260028301805460ff1682526003840180546020948501948401919061102090613675565b80601f016020809104026020016040519081016040528092919081815260200182805461104c90613675565b80156110995780601f1061106e57610100808354040283529160200191611099565b820191906000526020600020905b81548152906001019060200180831161107c57829003601f168201915b505050919092525050509052508152604080516080810182526005840180546001600160401b031682840190815260068601805485516020828102820181019097528181529686019694959394869486936060870193909183018282801561112a57602002820191906000526020600020905b81546001600160a01b0316815260019091019060200180831161110c575b5050509190925250505081526040805180820190915260028301805460ff1682526003840180546020948501948401919061116490613675565b80601f016020809104026020016040519081016040528092919081815260200182805461119090613675565b80156111dd5780601f106111b2576101008083540402835291602001916111dd565b820191906000526020600020905b8154815290600101906020018083116111c057829003601f168201915b50505091909252505050905250815260098201546001600160401b03166020820152600a8201546040820152600b8201805460609092019161121e90613675565b80601f016020809104026020016040519081016040528092919081815260200182805461124a90613675565b80156112975780601f1061126c57610100808354040283529160200191611297565b820191906000526020600020905b81548152906001019060200180831161127a57829003601f168201915b5050505050815250509050919050565b604080518082019091526000815260606020820152604080518082018252601280546001600160401b0316825260138054845160208281028201810190965281815293949293838601939092919083018282801561132e57602002820191906000526020600020905b81546001600160a01b03168152600190910190602001808311611310575b505050505081525050905090565b6060600061134a600e61252e565b80519091506000816001600160401b0381111561136957611369613306565b6040519080825280602002602001820160405280156113a257816020015b61138f612d46565b8152602001906001900390816113875790505b50905060005b82816001600160401b031610156118b5576000602201600085836001600160401b0316815181106113db576113db6136bb565b6020908102919091018101518252818101929092526040908101600020815160e08101835281546001600160401b031660a082019081526001830180548551818802810188019096528086529295939486949293869360c0870193919083018282801561147157602002820191906000526020600020905b81546001600160a01b03168152600190910190602001808311611453575b505050505081525050815260200160028201548152602001600382015481526020016004820160009054906101000a90046001600160401b03166001600160401b03166001600160401b0316815260200160058201805480602002602001604051908101604052809291908181526020016000905b8282101561187f576000848152602090206040805160c08101909152600c84029091018054829060ff16600281111561152157611521612ef7565b600281111561153257611532612ef7565b8152604080516080810182526001840180546001600160401b03168284019081526002860180548551602082810282018101909752818152968601969495939486948693606087019390918301828280156115b657602002820191906000526020600020905b81546001600160a01b03168152600190910190602001808311611598575b5050509190925250505081526040805180820190915260028301805460ff168252600384018054602094850194840191906115f090613675565b80601f016020809104026020016040519081016040528092919081815260200182805461161c90613675565b80156116695780601f1061163e57610100808354040283529160200191611669565b820191906000526020600020905b81548152906001019060200180831161164c57829003601f168201915b505050919092525050509052508152604080516080810182526005840180546001600160401b03168284019081526006860180548551602082810282018101909752818152968601969495939486948693606087019390918301828280156116fa57602002820191906000526020600020905b81546001600160a01b031681526001909101906020018083116116dc575b5050509190925250505081526040805180820190915260028301805460ff1682526003840180546020948501948401919061173490613675565b80601f016020809104026020016040519081016040528092919081815260200182805461176090613675565b80156117ad5780601f10611782576101008083540402835291602001916117ad565b820191906000526020600020905b81548152906001019060200180831161179057829003601f168201915b50505091909252505050905250815260098201546001600160401b03166020820152600a8201546040820152600b820180546060909201916117ee90613675565b80601f016020809104026020016040519081016040528092919081815260200182805461181a90613675565b80156118675780601f1061183c57610100808354040283529160200191611867565b820191906000526020600020905b81548152906001019060200180831161184a57829003601f168201915b505050505081525050815260200190600101906114e6565b505050508152505082826001600160401b0316815181106118a2576118a26136bb565b60209081029190910101526001016113a8565b509392505050565b6000806118c98361253b565b600301546001600160401b0316949350505050565b606061069b600e61252e565b60006118f4612cdb565b611900610b89846136af565b6040805160c08101825282548152600183015460208083019190915260028401548284015260038401546001600160401b038082166060850152600160401b909104811660808401528351808501855260048601805490921681526005860180548651818602810186019097528087529495879560a08801959394938581019391908301828280156119bb57602002820191906000526020600020905b81546001600160a01b0316815260019091019060200180831161199d575b50505050508152505081525050905091509150915091565b6119db612d46565b6040805160a081018252600080825260208201819052918101829052606081018290526080810191909152600083815260226020908152604091829020825160e08101845281546001600160401b031660a082019081526001830180548651818702810187019097528087526060968796949594869493869360c087019392830182828015611a9357602002820191906000526020600020905b81546001600160a01b03168152600190910190602001808311611a75575b505050505081525050815260200160028201548152602001600382015481526020016004820160009054906101000a90046001600160401b03166001600160401b03166001600160401b0316815260200160058201805480602002602001604051908101604052809291908181526020016000905b82821015611ea1576000848152602090206040805160c08101909152600c84029091018054829060ff166002811115611b4357611b43612ef7565b6002811115611b5457611b54612ef7565b8152604080516080810182526001840180546001600160401b0316828401908152600286018054855160208281028201810190975281815296860196949593948694869360608701939091830182828015611bd857602002820191906000526020600020905b81546001600160a01b03168152600190910190602001808311611bba575b5050509190925250505081526040805180820190915260028301805460ff16825260038401805460209485019484019190611c1290613675565b80601f0160208091040260200160405190810160405280929190818152602001828054611c3e90613675565b8015611c8b5780601f10611c6057610100808354040283529160200191611c8b565b820191906000526020600020905b815481529060010190602001808311611c6e57829003601f168201915b505050919092525050509052508152604080516080810182526005840180546001600160401b0316828401908152600686018054855160208281028201810190975281815296860196949593948694869360608701939091830182828015611d1c57602002820191906000526020600020905b81546001600160a01b03168152600190910190602001808311611cfe575b5050509190925250505081526040805180820190915260028301805460ff16825260038401805460209485019484019190611d5690613675565b80601f0160208091040260200160405190810160405280929190818152602001828054611d8290613675565b8015611dcf5780601f10611da457610100808354040283529160200191611dcf565b820191906000526020600020905b815481529060010190602001808311611db257829003601f168201915b50505091909252505050905250815260098201546001600160401b03166020820152600a8201546040820152600b82018054606090920191611e1090613675565b80601f0160208091040260200160405190810160405280929190818152602001828054611e3c90613675565b8015611e895780601f10611e5e57610100808354040283529160200191611e89565b820191906000526020600020905b815481529060010190602001808311611e6c57829003601f168201915b50505050508152505081526020019060010190611b08565b505050915250506040516308a6ad2560e01b8152600b60048201526024810187905290945073__$dd40c2ca5826d197ed7e2b6aae8146ec7b$__906308a6ad2590604401600060405180830381865af4158015611f02573d6000803e3d6000fd5b505050506040513d6000823e601f3d908101601f19168201604052611f2a9190810190613832565b9597919650949350915050565b600080611f42612d46565b611f4a6126e5565b91959094509092509050565b611f896040805160a081019091526000606080830191825260808301528190815260200160008152602001606081525090565b600082815260236020908152604091829020825160a08101845281546001600160401b031660608201908152600183018054865181870281018701909752808752929593948694929386936080870193909290919083018282801561201757602002820191906000526020600020905b81546001600160a01b03168152600190910190602001808311611ff9575b50505050508152505081526020016002820154815260200160038201805480602002602001604051908101604052809291908181526020016000905b82821015610b5e576000848152602090206040805160c08101909152600c84029091018054829060ff16600281111561208e5761208e612ef7565b600281111561209f5761209f612ef7565b8152604080516080810182526001840180546001600160401b031682840190815260028601805485516020828102820181019097528181529686019694959394869486936060870193909183018282801561212357602002820191906000526020600020905b81546001600160a01b03168152600190910190602001808311612105575b5050509190925250505081526040805180820190915260028301805460ff1682526003840180546020948501948401919061215d90613675565b80601f016020809104026020016040519081016040528092919081815260200182805461218990613675565b80156121d65780601f106121ab576101008083540402835291602001916121d6565b820191906000526020600020905b8154815290600101906020018083116121b957829003601f168201915b505050919092525050509052508152604080516080810182526005840180546001600160401b031682840190815260068601805485516020828102820181019097528181529686019694959394869486936060870193909183018282801561226757602002820191906000526020600020905b81546001600160a01b03168152600190910190602001808311612249575b5050509190925250505081526040805180820190915260028301805460ff168252600384018054602094850194840191906122a190613675565b80601f01602080910402602001604051908101604052809291908181526020018280546122cd90613675565b801561231a5780601f106122ef5761010080835404028352916020019161231a565b820191906000526020600020905b8154815290600101906020018083116122fd57829003601f168201915b50505091909252505050905250815260098201546001600160401b03166020820152600a8201546040820152600b8201805460609092019161235b90613675565b80601f016020809104026020016040519081016040528092919081815260200182805461238790613675565b80156123d45780601f106123a9576101008083540402835291602001916123d4565b820191906000526020600020905b8154815290600101906020018083116123b757829003601f168201915b50505050508152505081526020019060010190612053565b60408051808201909152606081526000602082015260408051600980546060602082028401810185529383018181529293919284929091849160009085015b82821015610ead57600084815260209081902060408051606081018252600386029092018054835260018101546001600160a01b0316938301939093526002830180549293929184019161247e90613675565b80601f01602080910402602001604051908101604052809291908181526020018280546124aa90613675565b80156124f75780601f106124cc576101008083540402835291602001916124f7565b820191906000526020600020905b8154815290600101906020018083116124da57829003601f168201915b5050505050815250508152602001906001019061242b565b6000606461251d83856138fe565b6125279190613915565b9392505050565b6060600061252783612c2a565b6040516390ba52cf60e01b815260009081908190601f90829073__$a0fe38a9a81205afccc10810b09a4d3f45$__906390ba52cf9061257e908990600401613937565b602060405180830381865af415801561259b573d6000803e3d6000fd5b505050506040513d601f19601f820116820180604052508101906125bf9190613996565b81526020808201929092526040908101600020815180830183526004820180546001600160401b03168252600583018054855181880281018801909652808652939750919490938582019390929183018282801561264657602002820191906000526020600020905b81546001600160a01b03168152600190910190602001808311612628575b505050919092525050604051630c133d1360e31b815273__$a0fe38a9a81205afccc10810b09a4d3f45$__92636099e898925061268591600401613937565b602060405180830381865af41580156126a2573d6000803e3d6000fd5b505050506040513d601f19601f820116820180604052508101906126c691906139af565b15925050915091565b60006106b4825490565b60006125278383612c86565b6000806126f0612d46565b6000612700438260010154612cb0565b6000818152602283016020908152604091829020825160e08101845281546001600160401b031660a082019081526001830180548651818702810187019097528087529699509195929486949193869360c087019390919083018282801561279157602002820191906000526020600020905b81546001600160a01b03168152600190910190602001808311612773575b505050505081525050815260200160028201548152602001600382015481526020016004820160009054906101000a90046001600160401b03166001600160401b03166001600160401b0316815260200160058201805480602002602001604051908101604052809291908181526020016000905b82821015612b9f576000848152602090206040805160c08101909152600c84029091018054829060ff16600281111561284157612841612ef7565b600281111561285257612852612ef7565b8152604080516080810182526001840180546001600160401b03168284019081526002860180548551602082810282018101909752818152968601969495939486948693606087019390918301828280156128d657602002820191906000526020600020905b81546001600160a01b031681526001909101906020018083116128b8575b5050509190925250505081526040805180820190915260028301805460ff1682526003840180546020948501948401919061291090613675565b80601f016020809104026020016040519081016040528092919081815260200182805461293c90613675565b80156129895780601f1061295e57610100808354040283529160200191612989565b820191906000526020600020905b81548152906001019060200180831161296c57829003601f168201915b505050919092525050509052508152604080516080810182526005840180546001600160401b0316828401908152600686018054855160208281028201810190975281815296860196949593948694869360608701939091830182828015612a1a57602002820191906000526020600020905b81546001600160a01b031681526001909101906020018083116129fc575b5050509190925250505081526040805180820190915260028301805460ff16825260038401805460209485019484019190612a5490613675565b80601f0160208091040260200160405190810160405280929190818152602001828054612a8090613675565b8015612acd5780601f10612aa257610100808354040283529160200191612acd565b820191906000526020600020905b815481529060010190602001808311612ab057829003601f168201915b50505091909252505050905250815260098201546001600160401b03166020820152600a8201546040820152600b82018054606090920191612b0e90613675565b80601f0160208091040260200160405190810160405280929190818152602001828054612b3a90613675565b8015612b875780601f10612b5c57610100808354040283529160200191612b87565b820191906000526020600020905b815481529060010190602001808311612b6a57829003601f168201915b50505050508152505081526020019060010190612806565b505050915250508051604051630c133d1360e31b815291935073__$a0fe38a9a81205afccc10810b09a4d3f45$__91636099e89891612be091600401613937565b602060405180830381865af4158015612bfd573d6000803e3d6000fd5b505050506040513d601f19601f82011682018060405250810190612c2191906139af565b15935050909192565b606081600001805480602002602001604051908101604052809291908181526020018280548015612c7a57602002820191906000526020600020905b815481526020019060010190808311612c66575b50505050509050919050565b6000826000018281548110612c9d57612c9d6136bb565b9060005260206000200154905092915050565b600081612cc6816001600160401b038616613915565b612cd19060016139ca565b61252791906138fe565b6040518060c0016040528060008152602001600081526020016000815260200160006001600160401b0316815260200160006001600160401b03168152602001612d41604051806040016040528060006001600160401b03168152602001606081525090565b905290565b6040805160e081018252600060a08201818152606060c084018190529083526020830182905292820181905282820152608081019190915290565b6040805160c081019091528060008152602001612d9c612dc2565b8152602001612da9612dc2565b8152600060208201819052604082015260609081015290565b6040805160808101825260009181019182526060808201529081908152602001612d416040518060400160405280600060ff168152602001606081525090565b600060208284031215612e1457600080fd5b5035919050565b6000604083016001600160401b03835116845260208084015160406020870152828151808552606088019150602083019450600092505b80831015612e7b5784516001600160a01b03168252938301936001929092019190830190612e52565b509695505050505050565b805182526020810151602083015260408101516040830152600060608201516001600160401b038082166060860152806080850151166080860152505060a082015160c060a0850152612edc60c0850182612e1b565b949350505050565b6020815260006125276020830184612e86565b634e487b7160e01b600052602160045260246000fd5b60005b83811015612f28578181015183820152602001612f10565b50506000910152565b60008151808452612f49816020860160208601612f0d565b601f01601f19169290920160200192915050565b6000815160408452612f726040850182612e1b565b90506020830151848203602086015260ff81511682526020810151905060406020830152612fa36040830182612f31565b95945050505050565b6000815160038110612fce57634e487b7160e01b600052602160045260246000fd5b80845250602082015160c06020850152612feb60c0850182612f5d565b9050604083015184820360408601526130048282612f5d565b915050606083015161302160608601826001600160401b03169052565b506080830151608085015260a083015184820360a0860152612fa38282612f31565b60008282518085526020808601955060208260051b8401016020860160005b8481101561309057601f1986840301895261307e838351612fac565b98840198925090830190600101613062565b5090979650505050505050565b6000815160a084526130b260a0850182612e1b565b905060208301516020850152604083015160408501526001600160401b03606084015116606085015260808301518482036080860152612fa38282613043565b602081526000612527602083018461309d565b6020808252825182820181905260009190848201906040850190845b8181101561313d57835183529284019291840191600101613121565b50909695505050505050565b60006020828403121561315b57600080fd5b81356001600160401b0381111561317157600080fd5b82016040818503121561252757600080fd5b600060208083016020845280855180835260408601915060408160051b87010192506020870160005b828110156131da57603f198886030184526131c8858351612e86565b945092850192908501906001016131ac565b5092979650505050505050565b60006020808352606080840185516040808588015282825180855260808901915060808160051b8a01019450868401935060005b8181101561326b57898603607f19018352845180518752888101516001600160a01b03168988015284015184870188905261325888880182612f31565b965050938701939187019160010161321b565b50505050928601516001600160401b03811660408701529250612fa3565b6020815260006125276020830184612fac565b6020815260006125276020830184612e1b565b600060208083016020845280855180835260408601915060408160051b87010192506020870160005b828110156131da57603f198886030184526132f485835161309d565b945092850192908501906001016132d8565b634e487b7160e01b600052604160045260246000fd5b604080519081016001600160401b038111828210171561333e5761333e613306565b60405290565b60405160a081016001600160401b038111828210171561333e5761333e613306565b604051601f8201601f191681016001600160401b038111828210171561338e5761338e613306565b604052919050565b60006001600160401b038211156133af576133af613306565b5060051b60200190565b6001600160a01b03811681146133ce57600080fd5b50565b6000604082840312156133e357600080fd5b6133eb61331c565b905081356001600160401b03808216821461340557600080fd5b908252602090838201358181111561341c57600080fd5b84019050601f8101851361342f57600080fd5b803561344261343d82613396565b613366565b81815260059190911b8201830190838101908783111561346157600080fd5b928401925b82841015613488578335613479816133b9565b82529284019290840190613466565b8085870152505050505092915050565b6000602082840312156134aa57600080fd5b81356001600160401b038111156134c057600080fd5b612edc848285016133d1565b60a081016106b48284805182526020810151602083015260408101516040830152606081015160608301526080810151151560808301525050565b8215158152604060208201526000612edc6040830184612e86565b60006101008083526135368184018861309d565b9050602061357381850188805182526020810151602083015260408101516040830152606081015160608301526080810151151560808301525050565b83820360c085015285518083528187019282019060005b818110156135af5784516001600160a01b03168352938301939183019160010161358a565b505084810360e086015285518082528282019350600581901b8201830183880160005b8381101561360057601f198584030187526135ee838351612f31565b968601969250908501906001016135d2565b50909b9a5050505050505050505050565b8315158152826020820152606060408201526000612fa3606083018461309d565b60208152600082516060602084015261364e6080840182612e1b565b9050602084015160408401526040840151601f19848303016060850152612fa38282613043565b600181811c9082168061368957607f821691505b6020821081036136a957634e487b7160e01b600052602260045260246000fd5b50919050565b60006106b436836133d1565b634e487b7160e01b600052603260045260246000fd5b805180151581146136e157600080fd5b919050565b600082601f8301126136f757600080fd5b8151602061370761343d83613396565b8083825260208201915060208460051b87010193508684111561372957600080fd5b602086015b84811015612e7b578051613741816133b9565b835291830191830161372e565b6000601f83601f84011261376157600080fd5b8251602061377161343d83613396565b82815260059290921b8501810191818101908784111561379057600080fd5b8287015b848110156138265780516001600160401b03808211156137b45760008081fd5b818a0191508a603f8301126137c95760008081fd5b858201516040828211156137df576137df613306565b6137f0828b01601f19168901613366565b92508183528c818386010111156138075760008081fd5b61381682898501838701612f0d565b5050845250918301918301613794565b50979650505050505050565b600080600083850360e081121561384857600080fd5b60a081121561385657600080fd5b5061385f613344565b8451815260208501516020820152604085015160408201526060850151606082015261388d608086016136d1565b608082015260a08501519093506001600160401b03808211156138af57600080fd5b6138bb878388016136e6565b935060c08601519150808211156138d157600080fd5b506138de8682870161374e565b9150509250925092565b634e487b7160e01b600052601160045260246000fd5b80820281158282048414176106b4576106b46138e8565b60008261393257634e487b7160e01b600052601260045260246000fd5b500490565b602080825282516001600160401b0316828201528281015160408084015280516060840181905260009291820190839060808601905b80831015612e7b5783516001600160a01b0316825292840192600192909201919084019061396d565b6000602082840312156139a857600080fd5b5051919050565b6000602082840312156139c157600080fd5b612527826136d1565b808201808211156106b4576106b46138e856fea26469706673582212205129a12e1c2aea94790bb53166ff2c42a8e28232f444b07fef769d2a05ad64c264736f6c63430008180033","linkReferences":{"src/lib/LibQuorum.sol":{"LibQuorum":[{"start":7912,"length":20}]},"src/lib/SubnetIDHelper.sol":{"SubnetIDHelper":[{"start":9590,"length":20},{"start":9854,"length":20},{"start":11226,"length":20}]}}},"methodIdentifiers":{"appliedTopDownNonce()":"8789f83b","bottomUpCheckPeriod()":"06c46853","bottomUpCheckpoint(uint256)":"2da5794a","bottomUpMsgBatch(uint256)":"dd81b5cf","bottomUpNonce()":"41b6a2e8","getAppliedBottomUpNonce((uint64,address[]))":"38d66932","getCheckpointCurrentWeight(uint256)":"b3ab3f74","getCheckpointInfo(uint256)":"ac12d763","getCheckpointRetentionHeight()":"4aa8f8a5","getCheckpointSignatureBundle(uint256)":"ca41d5ce","getCommitSha()":"444ead51","getCurrentBottomUpCheckpoint()":"d6c5c397","getCurrentConfigurationNumber()":"544dddff","getCurrentMembership()":"6ad21bb0","getIncompleteCheckpointHeights()":"a517218f","getIncompleteCheckpoints()":"97042766","getLastConfigurationNumber()":"b1ba49b0","getLastMembership()":"f3229131","getLatestParentFinality()":"0338150f","getNetworkName()":"94074b03","getParentFinality(uint256)":"7edeac92","getQuorumThreshold(uint256)":"06572c1a","getSubnet((uint64,address[]))":"c66c66a1","getSubnetKeys()":"3594c3c1","getSubnetTopDownMsgsLength((uint64,address[]))":"9d3070b5","getTopDownNonce((uint64,address[]))":"42398a9a","listSubnets()":"5d029685","majorityPercentage()":"599c7bd1","maxMsgsPerBottomUpBatch()":"05aff0b3","postbox(bytes32)":"8cfd78e7","subnets(bytes32)":"02e30f9a","totalSubnets()":"a2b67158"},"id":59}