{"abi":[{"type":"constructor","inputs":[{"name":"_gw","type":"address","internalType":"contract GatewayDiamond"}],"stateMutability":"nonpayable"},{"type":"receive","stateMutability":"payable"},{"type":"function","name":"register","inputs":[{"name":"amount","type":"uint256","internalType":"uint256"}],"outputs":[],"stateMutability":"nonpayable"},{"type":"function","name":"stake","inputs":[{"name":"amount","type":"uint256","internalType":"uint256"}],"outputs":[],"stateMutability":"nonpayable"}],"bytecode":{"object":"0x608060405234801561001057600080fd5b5060405161063f38038061063f83398101604081905261002f916100dd565b600f80546001600160a01b0319166001600160a01b03831617905561005f306a6b31bffa03c1c535c00000610065565b5061010d565b60405163c88a5e6d60e01b81526001600160a01b038316600482015260248101829052737109709ecfa91a80626ff3989d68f67f5b1dd12d9063c88a5e6d90604401600060405180830381600087803b1580156100c157600080fd5b505af11580156100d5573d6000803e3d6000fd5b505050505050565b6000602082840312156100ef57600080fd5b81516001600160a01b038116811461010657600080fd5b9392505050565b6105238061011c6000396000f3fe60806040526004361061002d5760003560e01c8063a694fc3a14610039578063f207564e1461005b57600080fd5b3661003457005b600080fd5b34801561004557600080fd5b50610059610054366004610404565b61007b565b005b34801561006757600080fd5b50610059610076366004610404565b610107565b610099816000610094678ac7230489e800006003610433565b610182565b9050600f60009054906101000a90046001600160a01b03166001600160a01b0316635a627dbc826040518263ffffffff1660e01b81526004016000604051808303818588803b1580156100eb57600080fd5b505af11580156100ff573d6000803e3d6000fd5b505050505050565b610120816000610094678ac7230489e800006003610433565b600f54604051637903ab2760e11b8152600481018390529192506001600160a01b03169063f207564e90602401600060405180830381600087803b15801561016757600080fd5b505af115801561017b573d6000803e3d6000fd5b5050505050565b600061018f8484846101c6565b90506101bf6040518060400160405280600c81526020016b109bdd5b990814995cdd5b1d60a21b8152508261038e565b9392505050565b6000818311156102425760405162461bcd60e51b815260206004820152603e60248201527f5374645574696c7320626f756e642875696e743235362c75696e743235362c7560448201527f696e74323536293a204d6178206973206c657373207468616e206d696e2e0000606482015260840160405180910390fd5b8284101580156102525750818411155b1561025e5750826101bf565b600061026a8484610450565b610275906001610463565b90506003851115801561028757508481115b1561029e576102968585610463565b9150506101bf565b6102ab6003600019610450565b85101580156102c457506102c185600019610450565b81115b156102df576102d585600019610450565b6102969084610450565b828511156103355760006102f38487610450565b905060006103018383610476565b905080600003610316578493505050506101bf565b60016103228288610463565b61032c9190610450565b93505050610386565b838510156103865760006103498686610450565b905060006103578383610476565b90508060000361036c578593505050506101bf565b6103768186610450565b610381906001610463565b935050505b509392505050565b6103d382826040516024016103a4929190610498565b60408051601f198184030181529190526020810180516001600160e01b0316632d839cb360e21b1790526103d7565b5050565b6103e0816103e3565b50565b80516a636f6e736f6c652e6c6f67602083016000808483855afa5050505050565b60006020828403121561041657600080fd5b5035919050565b634e487b7160e01b600052601160045260246000fd5b808202811582820484141761044a5761044a61041d565b92915050565b8181038181111561044a5761044a61041d565b8082018082111561044a5761044a61041d565b60008261049357634e487b7160e01b600052601260045260246000fd5b500690565b604081526000835180604084015260005b818110156104c657602081870181015160608684010152016104a9565b506000606082850101526060601f19601f830116840101915050826020830152939250505056fea26469706673582212205d508c8a9a4df8ed22f3e6d78432802e417dadfc7d36d55aa04c9ff95bf2b8e164736f6c63430008180033","linkReferences":{}},"methodIdentifiers":{"register(uint256)":"f207564e","stake(uint256)":"a694fc3a"},"id":127}