{"abi":[{"type":"function","name":"applyCrossMessages","inputs":[{"name":"crossMsgs","type":"tuple[]","internalType":"struct IpcEnvelope[]","components":[{"name":"kind","type":"uint8","internalType":"enum IpcMsgKind"},{"name":"to","type":"tuple","internalType":"struct IPCAddress","components":[{"name":"subnetId","type":"tuple","internalType":"struct SubnetID","components":[{"name":"root","type":"uint64","internalType":"uint64"},{"name":"route","type":"address[]","internalType":"address[]"}]},{"name":"rawAddress","type":"tuple","internalType":"struct FvmAddress","components":[{"name":"addrType","type":"uint8","internalType":"uint8"},{"name":"payload","type":"bytes","internalType":"bytes"}]}]},{"name":"from","type":"tuple","internalType":"struct IPCAddress","components":[{"name":"subnetId","type":"tuple","internalType":"struct SubnetID","components":[{"name":"root","type":"uint64","internalType":"uint64"},{"name":"route","type":"address[]","internalType":"address[]"}]},{"name":"rawAddress","type":"tuple","internalType":"struct FvmAddress","components":[{"name":"addrType","type":"uint8","internalType":"uint8"},{"name":"payload","type":"bytes","internalType":"bytes"}]}]},{"name":"nonce","type":"uint64","internalType":"uint64"},{"name":"value","type":"uint256","internalType":"uint256"},{"name":"message","type":"bytes","internalType":"bytes"}]}],"outputs":[],"stateMutability":"nonpayable"},{"type":"event","name":"NewBottomUpMsgBatch","inputs":[{"name":"epoch","type":"uint256","indexed":true,"internalType":"uint256"},{"name":"batch","type":"tuple","indexed":false,"internalType":"struct BottomUpMsgBatch","components":[{"name":"subnetID","type":"tuple","internalType":"struct SubnetID","components":[{"name":"root","type":"uint64","internalType":"uint64"},{"name":"route","type":"address[]","internalType":"address[]"}]},{"name":"blockHeight","type":"uint256","internalType":"uint256"},{"name":"msgs","type":"tuple[]","internalType":"struct IpcEnvelope[]","components":[{"name":"kind","type":"uint8","internalType":"enum IpcMsgKind"},{"name":"to","type":"tuple","internalType":"struct IPCAddress","components":[{"name":"subnetId","type":"tuple","internalType":"struct SubnetID","components":[{"name":"root","type":"uint64","internalType":"uint64"},{"name":"route","type":"address[]","internalType":"address[]"}]},{"name":"rawAddress","type":"tuple","internalType":"struct FvmAddress","components":[{"name":"addrType","type":"uint8","internalType":"uint8"},{"name":"payload","type":"bytes","internalType":"bytes"}]}]},{"name":"from","type":"tuple","internalType":"struct IPCAddress","components":[{"name":"subnetId","type":"tuple","internalType":"struct SubnetID","components":[{"name":"root","type":"uint64","internalType":"uint64"},{"name":"route","type":"address[]","internalType":"address[]"}]},{"name":"rawAddress","type":"tuple","internalType":"struct FvmAddress","components":[{"name":"addrType","type":"uint8","internalType":"uint8"},{"name":"payload","type":"bytes","internalType":"bytes"}]}]},{"name":"nonce","type":"uint64","internalType":"uint64"},{"name":"value","type":"uint256","internalType":"uint256"},{"name":"message","type":"bytes","internalType":"bytes"}]}]}],"anonymous":false},{"type":"event","name":"NewTopDownMessage","inputs":[{"name":"subnet","type":"address","indexed":true,"internalType":"address"},{"name":"message","type":"tuple","indexed":false,"internalType":"struct IpcEnvelope","components":[{"name":"kind","type":"uint8","internalType":"enum IpcMsgKind"},{"name":"to","type":"tuple","internalType":"struct IPCAddress","components":[{"name":"subnetId","type":"tuple","internalType":"struct SubnetID","components":[{"name":"root","type":"uint64","internalType":"uint64"},{"name":"route","type":"address[]","internalType":"address[]"}]},{"name":"rawAddress","type":"tuple","internalType":"struct FvmAddress","components":[{"name":"addrType","type":"uint8","internalType":"uint8"},{"name":"payload","type":"bytes","internalType":"bytes"}]}]},{"name":"from","type":"tuple","internalType":"struct IPCAddress","components":[{"name":"subnetId","type":"tuple","internalType":"struct SubnetID","components":[{"name":"root","type":"uint64","internalType":"uint64"},{"name":"route","type":"address[]","internalType":"address[]"}]},{"name":"rawAddress","type":"tuple","internalType":"struct FvmAddress","components":[{"name":"addrType","type":"uint8","internalType":"uint8"},{"name":"payload","type":"bytes","internalType":"bytes"}]}]},{"name":"nonce","type":"uint64","internalType":"uint64"},{"name":"value","type":"uint256","internalType":"uint256"},{"name":"message","type":"bytes","internalType":"bytes"}]}],"anonymous":false},{"type":"error","name":"CannotSendCrossMsgToItself","inputs":[]},{"type":"error","name":"InvalidXnetMessage","inputs":[{"name":"reason","type":"uint8","internalType":"enum InvalidXnetMessageReason"}]},{"type":"error","name":"MethodNotAllowed","inputs":[{"name":"reason","type":"string","internalType":"string"}]},{"type":"error","name":"NotRegisteredSubnet","inputs":[]},{"type":"error","name":"NotSystemActor","inputs":[]}],"bytecode":{"object":"0x608060405234801561001057600080fd5b50613283806100206000396000f3fe608060405234801561001057600080fd5b506004361061002b5760003560e01c8063dd8319ee14610030575b600080fd5b61004361003e3660046123d4565b610045565b005b61004d610155565b604080518082018252601280546001600160401b0316825260138054845160208281028201810190965281815261015195808601939192908301828280156100be57602002820191906000526020600020905b81546001600160a01b031681526001909101906020018083116100a0575b5050509190925250506040516308c7427760e11b815273__$a0fe38a9a81205afccc10810b09a4d3f45$__9263118e84ee92506100fd916004016124b3565b600060405180830381865af415801561011a573d6000803e3d6000fd5b505050506040513d6000823e601f3d908101601f191682016040526101429190810190612670565b61014c83856128be565b6101e7565b5050565b604051635d3f8a6960e01b815233600482015273__$e800e3908cdbb6b1b5bd452383a17b18f7$__90635d3f8a6990602401602060405180830381865af41580156101a4573d6000803e3d6000fd5b505050506040513d601f19601f820116820180604052508101906101c891906129ec565b6101e55760405163f0d97f3b60e01b815260040160405180910390fd5b565b805160005b8181101561021f576102178484838151811061020a5761020a612a07565b6020026020010151610225565b6001016101ec565b50505050565b602081015151604051630c133d1360e31b815260009173__$a0fe38a9a81205afccc10810b09a4d3f45$__91636099e89891610263916004016124b3565b602060405180830381865af4158015610280573d6000803e3d6000fd5b505050506040513d601f19601f820116820180604052508101906102a491906129ec565b156103055761030082600163bc0f01cf60e01b60016040516024016102c99190612a33565b60408051601f198184030181529190526020810180516001600160e01b03166001600160e01b0319909316929092179091526108e4565b505050565b604080518082019091526000808252602082015260405163855f7e4560e01b815260009073__$33b79814e84bf6cf5e47244090b19ce5f8$__9063855f7e45906103589087906012880190600401612be5565b602060405180830381865af4158015610375573d6000803e3d6000fd5b505050506040513d601f19601f820116820180604052508101906103999190612c17565b905060018160018111156103af576103af612a1d565b036105b9576000806103c08761099f565b91509150816103d25750505050505050565b60608601516003820154600160401b90046001600160401b0390811691161461041e5761041586600163bc0f01cf60e01b60026040516024016102c99190612a33565b50505050505050565b60018160030160088282829054906101000a90046001600160401b03166104459190612c4a565b82546101009290920a6001600160401b0381810219909316918316021790915560408051808201825260048501805490931681526005850180548351602080830282018101909552818152929550838601938301828280156104d057602002820191906000526020600020905b81546001600160a01b031681526001909101906020018083116104b2575b505050919092525050604051632cff562160e11b815273__$a0fe38a9a81205afccc10810b09a4d3f45$__926359feac42925061050f916004016124b3565b602060405180830381865af415801561052c573d6000803e3d6000fd5b505050506040513d601f19601f820116820180604052508101906105509190612c71565b6001600160a01b03166380875df76040518163ffffffff1660e01b81526004016040805180830381865afa15801561058c573d6000803e3d6000fd5b505050506040513d601f19601f820116820180604052508101906105b09190612c8e565b93505050610695565b60008160018111156105cd576105cd612a1d565b036106955760608401516003840154600160401b90046001600160401b0390811691161461061c5761061584600163bc0f01cf60e01b60026040516024016102c99190612a33565b5050505050565b60018360030160088282829054906101000a90046001600160401b03166106439190612c4a565b92506101000a8154816001600160401b0302191690836001600160401b031602179055506106926040805180820182526000808252602091820181905282518084019093528083529082015290565b91505b60208401515160405163c836244d60e01b815273__$a0fe38a9a81205afccc10810b09a4d3f45$__9163c836244d916106d691906012880190600401612ccf565b602060405180830381865af41580156106f3573d6000803e3d6000fd5b505050506040513d601f19601f8201168201806040525081019061071791906129ec565b6108b457600061072685610b33565b60008181526021860160205260409020865181549293508792829060ff1916600183600281111561075957610759612a1d565b0217905550602082810151805180516001850180546001600160401b0319166001600160401b039092169190911781558184015180519394919384926107a692600289019291019061214c565b505050602082810151805160028401805460ff191660ff9092169190911781559181015190919060038401906107dc9082612d6c565b505050506040830151805180516005850180546001600160401b0319166001600160401b0390921691909117815560208083015180519495509193849261082a92600689019291019061214c565b505050602082810151805160028401805460ff191660ff9092169190911781559181015190919060038401906108609082612d6c565b5050505060608301516009830180546001600160401b0319166001600160401b03909216919091179055506080820151600a82015560a0820151600b8201906108a99082612d6c565b505050505050505050565b6000806108c18685610b63565b9150915081156108dc576108d7866000836108e4565b610415565b610415866002835b6108ed83610c4a565b156108f757505050565b60028351600281111561090c5761090c612a1d565b0361091657505050565b604051634dbefc2d60e11b815261021f9073__$33b79814e84bf6cf5e47244090b19ce5f8$__90639b7df85a9061095590879087908790600401612e2b565b600060405180830381865af4158015610972573d6000803e3d6000fd5b505050506040513d6000823e601f3d908101601f1916820160405261099a9190810190612f6a565b610c78565b6040516390ba52cf60e01b815260009081908190601f90829073__$a0fe38a9a81205afccc10810b09a4d3f45$__906390ba52cf906109e29089906004016124b3565b602060405180830381865af41580156109ff573d6000803e3d6000fd5b505050506040513d601f19601f82011682018060405250810190610a23919061304a565b81526020808201929092526040908101600020815180830183526004820180546001600160401b031682526005830180548551818802810188019096528086529397509194909385820193909291830182828015610aaa57602002820191906000526020600020905b81546001600160a01b03168152600190910190602001808311610a8c575b505050919092525050604051630c133d1360e31b815273__$a0fe38a9a81205afccc10810b09a4d3f45$__92636099e8989250610ae9916004016124b3565b602060405180830381865af4158015610b06573d6000803e3d6000fd5b505050506040513d601f19601f82011682018060405250810190610b2a91906129ec565b15925050915091565b600081604051602001610b469190613063565b604051602081830303815290604052805190602001209050919050565b6000606073__$33b79814e84bf6cf5e47244090b19ce5f8$__6001600160a01b0316630cb8986260e01b8585604051602401610ba0929190613076565b60408051601f198184030181529181526020820180516001600160e01b03166001600160e01b0319909416939093179092529051610bde91906130bf565b600060405180830381855af49150503d8060008114610c19576040519150601f19603f3d011682016040523d82523d6000602084013e610c1e565b606091505b5090925090508115610c435780806020019051810190610c3e91906130db565b915091505b9250929050565b60008082516002811115610c6057610c60612a1d565b03610c6e5750608001511590565b5060a00151511590565b602081015151604051630c133d1360e31b8152600091829173__$a0fe38a9a81205afccc10810b09a4d3f45$__90636099e89890610cba9084906004016124b3565b602060405180830381865af4158015610cd7573d6000803e3d6000fd5b505050506040513d601f19601f82011682018060405250810190610cfb91906129ec565b15610d2557600160405163bc0f01cf60e01b8152600401610d1c9190612a33565b60405180910390fd5b60405163c836244d60e01b815273__$a0fe38a9a81205afccc10810b09a4d3f45$__9063c836244d90610d619084906012870190600401612ccf565b602060405180830381865af4158015610d7e573d6000803e3d6000fd5b505050506040513d601f19601f82011682018060405250810190610da291906129ec565b15610dc057604051632f3335ff60e21b815260040160405180910390fd5b60408085015151905163855f7e4560e01b815260009073__$33b79814e84bf6cf5e47244090b19ce5f8$__9063855f7e4590610e059089906012890190600401612be5565b602060405180830381865af4158015610e22573d6000803e3d6000fd5b505050506040513d601f19601f82011682018060405250810190610e469190612c17565b604051631ccc893360e11b815290915060009073__$a0fe38a9a81205afccc10810b09a4d3f45$__90633999126690610e859087908790600401613128565b600060405180830381865af4158015610ea2573d6000803e3d6000fd5b505050506040513d6000823e601f3d908101601f19168201604052610eca9190810190612670565b60405163c836244d60e01b815273__$a0fe38a9a81205afccc10810b09a4d3f45$__9163c836244d91610f05919060128a0190600401612ccf565b602060405180830381865af4158015610f22573d6000803e3d6000fd5b505050506040513d601f19601f82011682018060405250810190610f4691906129ec565b905060006001836001811115610f5e57610f5e612a1d565b036110f7576040516308c7427760e11b815273__$a0fe38a9a81205afccc10810b09a4d3f45$__9063118e84ee90610f9a9087906004016124b3565b600060405180830381865af4158015610fb7573d6000803e3d6000fd5b505050506040513d6000823e601f3d908101601f19168201604052610fdf9190810190612670565b60405163c836244d60e01b815273__$a0fe38a9a81205afccc10810b09a4d3f45$__9163c836244d9161101a919060128b0190600401612ccf565b602060405180830381865af4158015611037573d6000803e3d6000fd5b505050506040513d601f19601f8201168201806040525081019061105b91906129ec565b80156110f05750604051632cff562160e11b81526110f09060019073__$a0fe38a9a81205afccc10810b09a4d3f45$__906359feac42906110a09089906004016124b3565b602060405180830381865af41580156110bd573d6000803e3d6000fd5b505050506040513d601f19601f820116820180604052508101906110e19190612c71565b6001600160a01b031690611313565b90506111d1565b600083600181111561110b5761110b612a1d565b036111d15760405163089032d560e01b81526111ce9060019073__$a0fe38a9a81205afccc10810b09a4d3f45$__9063089032d590611153908a9060128d0190600401612ccf565b600060405180830381865af4158015611170573d6000803e3d6000fd5b505050506040513d6000823e601f3d908101601f191682016040526111989190810190612670565b604051632cff562160e11b815273__$a0fe38a9a81205afccc10810b09a4d3f45$__916359feac42916110a091906004016124b3565b90505b8015611278576000885160028111156111ec576111ec612a1d565b036112785760405163015538b160e01b815260206004820152604f60248201527f70726f7061676174696f6e206f6620605472616e7366657260206d657373616760448201527f6573206e6f742073757070706f7274656420666f72207375626e65747320776960648201526e746820455243323020737570706c7960881b608482015260a401610d1c565b600083600181111561128c5761128c612a1d565b14806112955750815b156112f7576003860180546008906112bc90600160401b90046001600160401b031661314d565b91906101000a8154816001600160401b0302191690836001600160401b031602179055506112e9886113a4565b506000979650505050505050565b6113008861157d565b5050506080909401511515949350505050565b600081600181111561132757611327612a1d565b836001600160a01b03166380875df76040518163ffffffff1660e01b81526004016040805180830381865afa158015611364573d6000803e3d6000fd5b505050506040513d601f19601f820116820180604052508101906113889190612c8e565b51600181111561139a5761139a612a1d565b1490505b92915050565b60208101515160405163089032d560e01b8152600091829173__$a0fe38a9a81205afccc10810b09a4d3f45$__9163089032d5916113e89190601290600401612ccf565b600060405180830381865af4158015611405573d6000803e3d6000fd5b505050506040513d6000823e601f3d908101601f1916820160405261142d9190810190612670565b905060008061143b8361099f565b915091508161145d57604051630e991abd60e41b815260040160405180910390fd5b60038101546001600160401b03166060860181905261147d816001612c4a565b6003830180546001600160401b0319166001600160401b039290921691909117905560808601516002830180546000906114b8908490613173565b90915550506040516304e384ff60e21b815273__$a0fe38a9a81205afccc10810b09a4d3f45$__9063138e13fc906114f49087906004016124b3565b602060405180830381865af4158015611511573d6000803e3d6000fd5b505050506040513d601f19601f820116820180604052508101906115359190612c71565b6001600160a01b03167ffdd39ce2560484814971f663392e78ae37dc62ba184b3370d830371dd271a8b78760405161156d9190613063565b60405180910390a2505050505050565b60008061158e438360010154611eec565b6003830180546001600160401b0316606086018190529192506001916000906115b8908490612c4a565b92506101000a8154816001600160401b0302191690836001600160401b031602179055506000806115fb8360009081526023602052604090206002810154151591565b91509150816117df5760128401805482546001600160401b0319166001600160401b03909116178255601385018054839161163b916001840191906121b1565b505050600280820184905560038201805460018181018355600092835260209092208851600c90920201805489949193849260ff1990921691849081111561168557611685612a1d565b0217905550602082810151805180516001850180546001600160401b0319166001600160401b039092169190911781558184015180519394919384926116d292600289019291019061214c565b505050602082810151805160028401805460ff191660ff9092169190911781559181015190919060038401906117089082612d6c565b505050506040830151805180516005850180546001600160401b0319166001600160401b0390921691909117815560208083015180519495509193849261175692600689019291019061214c565b505050602082810151805160028401805460ff191660ff90921691909117815591810151909190600384019061178c9082612d6c565b5050505060608301516009830180546001600160401b0319166001600160401b03909216919091179055506080820151600a82015560a0820151600b8201906117d59082612d6c565b5050505050505050565b60038481015490820154600160c01b9091046001600160401b03169003611ead576040805160a0810182526012860180546001600160401b0316606083019081526013880180548551602082810282018101909752818152439660009695869594909360808701939283018282801561188157602002820191906000526020600020905b81546001600160a01b03168152600190910190602001808311611863575b505050505081525050815260200183815260200184600301805490506001600160401b038111156118b4576118b46124c6565b6040519080825280602002602001820160405280156118ed57816020015b6118da6121f1565b8152602001906001900390816118d25790505b509052600384015490915060005b81811015611cc35784600301818154811061191857611918612a07565b600091825260209091206040805160c08101909152600c909202018054829060ff16600281111561194b5761194b612a1d565b600281111561195c5761195c612a1d565b8152604080516080810182526001840180546001600160401b03168284019081526002860180548551602082810282018101909752818152968601969495939486948693606087019390918301828280156119e057602002820191906000526020600020905b81546001600160a01b031681526001909101906020018083116119c2575b5050509190925250505081526040805180820190915260028301805460ff16825260038401805460209485019484019190611a1a90612ce2565b80601f0160208091040260200160405190810160405280929190818152602001828054611a4690612ce2565b8015611a935780601f10611a6857610100808354040283529160200191611a93565b820191906000526020600020905b815481529060010190602001808311611a7657829003601f168201915b505050919092525050509052508152604080516080810182526005840180546001600160401b0316828401908152600686018054855160208281028201810190975281815296860196949593948694869360608701939091830182828015611b2457602002820191906000526020600020905b81546001600160a01b03168152600190910190602001808311611b06575b5050509190925250505081526040805180820190915260028301805460ff16825260038401805460209485019484019190611b5e90612ce2565b80601f0160208091040260200160405190810160405280929190818152602001828054611b8a90612ce2565b8015611bd75780601f10611bac57610100808354040283529160200191611bd7565b820191906000526020600020905b815481529060010190602001808311611bba57829003601f168201915b50505091909252505050905250815260098201546001600160401b03166020820152600a8201546040820152600b82018054606090920191611c1890612ce2565b80601f0160208091040260200160405190810160405280929190818152602001828054611c4490612ce2565b8015611c915780601f10611c6657610100808354040283529160200191611c91565b820191906000526020600020905b815481529060010190602001808311611c7457829003601f168201915b50505050508152505083604001518281518110611cb057611cb0612a07565b60209081029190910101526001016118fb565b50827f0b1b135d7eb5326c8c53b4b711f8ace381cbfe4326102b012b9ccd2852abaa5883604051611cf49190613186565b60405180910390a2611d0a600385016000612232565b60038401805460018181018355600092835260209092208a51600c9092020180548b93919291839160ff191690836002811115611d4957611d49612a1d565b0217905550602082810151805180516001850180546001600160401b0319166001600160401b03909216919091178155818401518051939491938492611d9692600289019291019061214c565b505050602082810151805160028401805460ff191660ff909216919091178155918101519091906003840190611dcc9082612d6c565b505050506040830151805180516005850180546001600160401b0319166001600160401b03909216919091178155602080830151805194955091938492611e1a92600689019291019061214c565b505050602082810151805160028401805460ff191660ff909216919091178155918101519091906003840190611e509082612d6c565b5050505060608301516009830180546001600160401b0319166001600160401b03909216919091179055506080820151600a82015560a0820151600b820190611e999082612d6c565b505050611ea582611f1e565b505050610615565b60038101805460018181018355600092835260209092208751600c9092020180548893919291839160ff19169083600281111561168557611685612a1d565b600081611f02816001600160401b038616613214565b611f0d906001613173565b611f179190613236565b9392505050565b602081810151600090815260238252604081208351805182546001600160401b0319166001600160401b039091161782558084015180519394929391928492611f6d926001850192019061214c565b5050506020830151600282015560408301515160005b81811015610615578260030185604001518281518110611fa557611fa5612a07565b6020908102919091018101518254600181810185556000948552929093208151600c909402018054919390929091839160ff1990911690836002811115611fee57611fee612a1d565b0217905550602082810151805180516001850180546001600160401b0319166001600160401b0390921691909117815581840151805193949193849261203b92600289019291019061214c565b505050602082810151805160028401805460ff191660ff9092169190911781559181015190919060038401906120719082612d6c565b505050506040830151805180516005850180546001600160401b0319166001600160401b039092169190911781556020808301518051949550919384926120bf92600689019291019061214c565b505050602082810151805160028401805460ff191660ff9092169190911781559181015190919060038401906120f59082612d6c565b5050505060608301516009830180546001600160401b0319166001600160401b03909216919091179055506080820151600a82015560a0820151600b82019061213e9082612d6c565b505050806001019050611f83565b8280548282559060005260206000209081019282156121a1579160200282015b828111156121a157825182546001600160a01b0319166001600160a01b0390911617825560209092019160019091019061216c565b506121ad929150612256565b5090565b8280548282559060005260206000209081019282156121a15760005260206000209182015b828111156121a15782548255916001019190600101906121d6565b6040805160c08101909152806000815260200161220c61226b565b815260200161221961226b565b8152600060208201819052604082015260609081015290565b50805460008255600c029060005260206000209081019061225391906122b0565b50565b5b808211156121ad5760008155600101612257565b60408051608081018252600091810191825260608082015290819081526020016122ab6040518060400160405280600060ff168152602001606081525090565b905290565b808211156121ad57805460ff191681556001810180546001600160401b03191681556000908181816122e5600287018261237c565b505060028201805460ff191681556000612302600385018261239a565b505050506005820180546001600160401b031916815560008181612329600687018261237c565b505060028201805460ff191681556000612346600385018261239a565b505050506009820180546001600160401b03191690556000600a830181905561237390600b84019061239a565b50600c016122b0565b50805460008255906000526020600020908101906122539190612256565b5080546123a690612ce2565b6000825580601f106123b6575050565b601f0160209004906000526020600020908101906122539190612256565b600080602083850312156123e757600080fd5b82356001600160401b03808211156123fe57600080fd5b818501915085601f83011261241257600080fd5b81358181111561242157600080fd5b8660208260051b850101111561243657600080fd5b60209290920196919550909350505050565b6000604083016001600160401b03835116845260208084015160406020870152828151808552606088019150602083019450600092505b808310156124a85784516001600160a01b0316825293830193600192909201919083019061247f565b509695505050505050565b602081526000611f176020830184612448565b634e487b7160e01b600052604160045260246000fd5b604080519081016001600160401b03811182821017156124fe576124fe6124c6565b60405290565b60405160c081016001600160401b03811182821017156124fe576124fe6124c6565b604051601f8201601f191681016001600160401b038111828210171561254e5761254e6124c6565b604052919050565b6001600160401b038116811461225357600080fd5b805161257681612556565b919050565b60006001600160401b03821115612594576125946124c6565b5060051b60200190565b6001600160a01b038116811461225357600080fd5b6000604082840312156125c557600080fd5b6125cd6124dc565b905081516125da81612556565b81526020828101516001600160401b038111156125f657600080fd5b8301601f8101851361260757600080fd5b805161261a6126158261257b565b612526565b81815260059190911b8201830190838101908783111561263957600080fd5b928401925b828410156126605783516126518161259e565b8252928401929084019061263e565b8085870152505050505092915050565b60006020828403121561268257600080fd5b81516001600160401b0381111561269857600080fd5b6126a4848285016125b3565b949350505050565b6003811061225357600080fd5b8035612576816126ac565b803561257681612556565b60ff8116811461225357600080fd5b60006001600160401b038211156126f7576126f76124c6565b50601f01601f191660200190565b600082601f83011261271657600080fd5b8135612724612615826126de565b81815284602083860101111561273957600080fd5b816020850160208301376000918101602001919091529392505050565b60006040828403121561276857600080fd5b6127706124dc565b9050813561277d816126cf565b815260208201356001600160401b0381111561279857600080fd5b6127a484828501612705565b60208301525092915050565b6000604082840312156127c257600080fd5b6127ca6124dc565b905081356001600160401b03808211156127e357600080fd5b90830190604082860312156127f757600080fd5b6127ff6124dc565b823561280a81612556565b81526020838101358381111561281f57600080fd5b80850194505086601f85011261283457600080fd5b83356128426126158261257b565b81815260059190911b8501820190828101908983111561286157600080fd5b958301955b828710156128885786356128798161259e565b82529583019590830190612866565b848401525050818552858101359350828411156128a457600080fd5b6128b087858801612756565b818601525050505092915050565b60006128cc6126158461257b565b80848252602080830192508560051b8501368111156128ea57600080fd5b855b818110156129d05780356001600160401b038082111561290c5760008081fd5b818901915060c082360312156129225760008081fd5b61292a612504565b612933836126b9565b815285830135828111156129475760008081fd5b612953368286016127b0565b87830152506040808401358381111561296c5760008081fd5b612978368287016127b0565b828401525050606061298b8185016126c4565b908201526080838101359082015260a080840135838111156129ad5760008081fd5b6129b936828701612705565b9183019190915250875250509382019382016128ec565b50919695505050505050565b8051801515811461257657600080fd5b6000602082840312156129fe57600080fd5b611f17826129dc565b634e487b7160e01b600052603260045260246000fd5b634e487b7160e01b600052602160045260246000fd5b6020810160058310612a4757612a47612a1d565b91905290565b6003811061225357612253612a1d565b60005b83811015612a78578181015183820152602001612a60565b50506000910152565b60008151808452612a99816020860160208601612a5d565b601f01601f19169290920160200192915050565b6000815160408452612ac26040850182612448565b90506020830151848203602086015260ff81511682526020810151905060406020830152612af36040830182612a81565b95945050505050565b60008151612b0981612a4d565b80845250602082015160c06020850152612b2660c0850182612aad565b905060408301518482036040860152612b3f8282612aad565b9150506001600160401b0360608401511660608501526080830151608085015260a083015184820360a0860152612af38282612a81565b6000604083016001600160401b03835416845260018084016020604060208801528382548086526060890191508360005260206000209550600093505b80841015612bd95785546001600160a01b03168252948401949284019290820190612bb3565b50979650505050505050565b604081526000612bf86040830185612afc565b8281036020840152612af38185612b76565b6002811061225357600080fd5b600060208284031215612c2957600080fd5b8151611f1781612c0a565b634e487b7160e01b600052601160045260246000fd5b6001600160401b03818116838216019080821115612c6a57612c6a612c34565b5092915050565b600060208284031215612c8357600080fd5b8151611f178161259e565b600060408284031215612ca057600080fd5b612ca86124dc565b8251612cb381612c0a565b81526020830151612cc38161259e565b60208201529392505050565b604081526000612bf86040830185612448565b600181811c90821680612cf657607f821691505b602082108103612d1657634e487b7160e01b600052602260045260246000fd5b50919050565b601f821115610300576000816000526020600020601f850160051c81016020861015612d455750805b601f850160051c820191505b81811015612d6457828155600101612d51565b505050505050565b81516001600160401b03811115612d8557612d856124c6565b612d9981612d938454612ce2565b84612d1c565b602080601f831160018114612dce5760008415612db65750858301515b600019600386901b1c1916600185901b178555612d64565b600085815260208120601f198616915b82811015612dfd57888601518255948401946001909101908401612dde565b5085821015612e1b5787850151600019600388901b60f8161c191681555b5050505050600190811b01905550565b606081526000612e3e6060830186612afc565b612e4785612a4d565b8460208401528281036040840152612e5f8185612a81565b9695505050505050565b8051612576816126ac565b600082601f830112612e8557600080fd5b8151612e93612615826126de565b818152846020838601011115612ea857600080fd5b6126a4826020830160208701612a5d565b600060408284031215612ecb57600080fd5b612ed36124dc565b905081516001600160401b0380821115612eec57600080fd5b612ef8858386016125b3565b83526020840151915080821115612f0e57600080fd5b9083019060408286031215612f2257600080fd5b612f2a6124dc565b8251612f35816126cf565b8152602083015182811115612f4957600080fd5b612f5587828601612e74565b60208301525080602085015250505092915050565b600060208284031215612f7c57600080fd5b81516001600160401b0380821115612f9357600080fd5b9083019060c08286031215612fa757600080fd5b612faf612504565b612fb883612e69565b8152602083015182811115612fcc57600080fd5b612fd887828601612eb9565b602083015250604083015182811115612ff057600080fd5b612ffc87828601612eb9565b60408301525061300e6060840161256b565b60608201526080830151608082015260a08301518281111561302f57600080fd5b61303b87828601612e74565b60a08301525095945050505050565b60006020828403121561305c57600080fd5b5051919050565b602081526000611f176020830184612afc565b6060815260006130896060830185612afc565b905082516002811061309d5761309d612a1d565b60208381019190915292909201516001600160a01b0316604090910152919050565b600082516130d1818460208701612a5d565b9190910192915050565b600080604083850312156130ee57600080fd5b6130f7836129dc565b915060208301516001600160401b0381111561311257600080fd5b61311e85828601612e74565b9150509250929050565b60408152600061313b6040830185612448565b8281036020840152612af38185612448565b60006001600160401b0380831681810361316957613169612c34565b6001019392505050565b8082018082111561139e5761139e612c34565b6000602080835283516060828501526131a26080850182612448565b90508185015160408501526040850151601f19808684030160608701528282518085528585019150858160051b860101868501945060005b8281101561320657848783030184526131f4828751612afc565b958801959388019391506001016131da565b509998505050505050505050565b60008261323157634e487b7160e01b600052601260045260246000fd5b500490565b808202811582820484141761139e5761139e612c3456fea2646970667358221220c1e20173f9466536fde19303d136b5b37a99f07b4f0cda3f0fd64b391bebba6b64736f6c63430008180033","linkReferences":{"src/lib/AccountHelper.sol":{"AccountHelper":[{"start":394,"length":20}]},"src/lib/CrossMsgHelper.sol":{"CrossMsgHelper":[{"start":843,"length":20},{"start":2377,"length":20},{"start":2953,"length":20},{"start":3576,"length":20}]},"src/lib/SubnetIDHelper.sol":{"SubnetIDHelper":[{"start":246,"length":20},{"start":605,"length":20},{"start":1288,"length":20},{"start":1738,"length":20},{"start":2522,"length":20},{"start":2786,"length":20},{"start":3250,"length":20},{"start":3412,"length":20},{"start":3707,"length":20},{"start":3833,"length":20},{"start":3986,"length":20},{"start":4110,"length":20},{"start":4248,"length":20},{"start":4422,"length":20},{"start":4551,"length":20},{"start":5086,"length":20},{"start":5356,"length":20}]}}},"methodIdentifiers":{"applyCrossMessages((uint8,((uint64,address[]),(uint8,bytes)),((uint64,address[]),(uint8,bytes)),uint64,uint256,bytes)[])":"dd8319ee"},"id":64}