{"abi":[{"type":"constructor","inputs":[{"name":"_subnetActor","type":"address","internalType":"contract SubnetActorDiamond"}],"stateMutability":"nonpayable"},{"type":"receive","stateMutability":"payable"},{"type":"function","name":"getRandomValidator","inputs":[{"name":"id","type":"uint8","internalType":"uint8"}],"outputs":[{"name":"","type":"address","internalType":"address"}],"stateMutability":"view"},{"type":"function","name":"getRandomValidatorFromSetOrZero","inputs":[{"name":"seed","type":"uint8","internalType":"uint8"}],"outputs":[{"name":"","type":"address","internalType":"address"}],"stateMutability":"view"},{"type":"function","name":"ghost_stakedSum","inputs":[],"outputs":[{"name":"","type":"uint256","internalType":"uint256"}],"stateMutability":"view"},{"type":"function","name":"ghost_unstakedSum","inputs":[],"outputs":[{"name":"","type":"uint256","internalType":"uint256"}],"stateMutability":"view"},{"type":"function","name":"ghost_validators_staked","inputs":[{"name":"","type":"address","internalType":"address"}],"outputs":[{"name":"","type":"uint256","internalType":"uint256"}],"stateMutability":"view"},{"type":"function","name":"ghost_validators_unstaked","inputs":[{"name":"","type":"address","internalType":"address"}],"outputs":[{"name":"","type":"uint256","internalType":"uint256"}],"stateMutability":"view"},{"type":"function","name":"join","inputs":[{"name":"id","type":"uint8","internalType":"uint8"},{"name":"amount","type":"uint256","internalType":"uint256"}],"outputs":[],"stateMutability":"nonpayable"},{"type":"function","name":"joinedValidators","inputs":[],"outputs":[{"name":"","type":"address[]","internalType":"address[]"}],"stateMutability":"view"},{"type":"function","name":"joinedValidatorsNumber","inputs":[],"outputs":[{"name":"","type":"uint256","internalType":"uint256"}],"stateMutability":"view"},{"type":"function","name":"leave","inputs":[{"name":"id","type":"uint8","internalType":"uint8"}],"outputs":[{"name":"","type":"address","internalType":"address"}],"stateMutability":"nonpayable"},{"type":"function","name":"stake","inputs":[{"name":"id","type":"uint8","internalType":"uint8"},{"name":"amount","type":"uint256","internalType":"uint256"}],"outputs":[],"stateMutability":"nonpayable"},{"type":"function","name":"unstake","inputs":[{"name":"id","type":"uint8","internalType":"uint8"},{"name":"amount","type":"uint256","internalType":"uint256"}],"outputs":[],"stateMutability":"nonpayable"}],"bytecode":{"object":"0x608060405234801561001057600080fd5b506040516113f13803806113f183398101604081905261002f916100ed565b600f80546001600160a01b0383166001600160a01b0319918216811790925560108054909116909117905561006f306a6b31bffa03c1c535c00000610075565b5061011d565b60405163c88a5e6d60e01b81526001600160a01b038316600482015260248101829052737109709ecfa91a80626ff3989d68f67f5b1dd12d9063c88a5e6d90604401600060405180830381600087803b1580156100d157600080fd5b505af11580156100e5573d6000803e3d6000fd5b505050505050565b6000602082840312156100ff57600080fd5b81516001600160a01b038116811461011657600080fd5b9392505050565b6112c58061012c6000396000f3fe6080604052600436106100ab5760003560e01c8063b4545b9e11610064578063b4545b9e1461019d578063bc5683e1146101bf578063bd0fa1b1146101d4578063c2da0512146101f4578063dd752e5514610221578063f2a2870b1461024157600080fd5b80630a52ee96146100b75780632cb54025146100e0578063a075812714610118578063a64efe5d1461013a578063a7818a481461015a578063b00053cf1461018757600080fd5b366100b257005b600080fd5b3480156100c357600080fd5b506100cd60165481565b6040519081526020015b60405180910390f35b3480156100ec57600080fd5b506101006100fb366004611089565b610261565b6040516001600160a01b0390911681526020016100d7565b34801561012457600080fd5b5061012d610481565b6040516100d791906110a4565b34801561014657600080fd5b50610100610155366004611089565b610492565b34801561016657600080fd5b506100cd6101753660046110f1565b60136020526000908152604090205481565b34801561019357600080fd5b506100cd60155481565b3480156101a957600080fd5b506101bd6101b836600461111a565b6104da565b005b3480156101cb57600080fd5b506100cd610684565b3480156101e057600080fd5b506101bd6101ef36600461111a565b610696565b34801561020057600080fd5b506100cd61020f3660046110f1565b60146020526000908152604090205481565b34801561022d57600080fd5b506101bd61023c36600461111a565b61085e565b34801561024d57600080fd5b5061010061025c366004611089565b610a01565b60008061026d83610a01565b90506001600160a01b0381166102835792915050565b601054604051630acbdfbf60e11b81526001600160a01b0383811660048301526000921690631597bf7e90602401602060405180830381865afa1580156102ce573d6000803e3d6000fd5b505050506040513d601f19601f820116820180604052508101906102f29190611144565b60405163ca669fa760e01b81526001600160a01b0384166004820152909150737109709ecfa91a80626ff3989d68f67f5b1dd12d9063ca669fa790602401600060405180830381600087803b15801561034a57600080fd5b505af115801561035e573d6000803e3d6000fd5b50505050600f60009054906101000a90046001600160a01b03166001600160a01b031663d66d9e196040518163ffffffff1660e01b8152600401600060405180830381600087803b1580156103b257600080fd5b505af11580156103c6573d6000803e3d6000fd5b50505050600f60009054906101000a90046001600160a01b03166001600160a01b031663c7ebdaef6040518163ffffffff1660e01b8152600401600060405180830381600087803b15801561041a57600080fd5b505af115801561042e573d6000803e3d6000fd5b50505050610446826011610a5890919063ffffffff16565b506001600160a01b038216600090815260146020526040812082905560168054839290610474908490611173565b9091555091949350505050565b606061048d6011610a74565b905090565b60008060c88360ff1610156104b1576104aa83610a01565b90506104be565b6104ba83610a81565b5090505b6001600160a01b0381166104d457503392915050565b92915050565b6104f88160006104f3678ac7230489e800006003611186565b610ba3565b9050600061050583610492565b60405163ca669fa760e01b81526001600160a01b0382166004820152909150737109709ecfa91a80626ff3989d68f67f5b1dd12d9063ca669fa790602401600060405180830381600087803b15801561055d57600080fd5b505af1158015610571573d6000803e3d6000fd5b5050600f546040516305c2fbcf60e31b8152600481018690526001600160a01b039091169250632e17de789150602401600060405180830381600087803b1580156105bb57600080fd5b505af11580156105cf573d6000803e3d6000fd5b50505050600f60009054906101000a90046001600160a01b03166001600160a01b031663c7ebdaef6040518163ffffffff1660e01b8152600401600060405180830381600087803b15801561062357600080fd5b505af1158015610637573d6000803e3d6000fd5b50505050816016600082825461064d9190611173565b90915550506001600160a01b0381166000908152601460205260408120805484929061067a908490611173565b9091555050505050565b60006106906011610a74565b51905090565b8160ff166000036106a5575050565b6106be8160006104f3678ac7230489e800006003611186565b90506000806106cc84610a81565b915091506106da8284610be0565b60405163ca669fa760e01b81526001600160a01b0383166004820152737109709ecfa91a80626ff3989d68f67f5b1dd12d9063ca669fa790602401600060405180830381600087803b15801561072f57600080fd5b505af1158015610743573d6000803e3d6000fd5b5050600f546040516330b858b160e11b81526001600160a01b039091169250636170b162915085906107799085906004016111e3565b6000604051808303818588803b15801561079257600080fd5b505af11580156107a6573d6000803e3d6000fd5b5050600f546040805163c7ebdaef60e01b815290516001600160a01b03909216945063c7ebdaef9350600480820193506000929182900301818387803b1580156107ef57600080fd5b505af1158015610803573d6000803e3d6000fd5b5050505082601560008282546108199190611173565b90915550506001600160a01b03821660009081526013602052604081208054859290610846908490611173565b909155506108579050601183610c7c565b5050505050565b6108778160006104f3678ac7230489e800006003611186565b9050600061088483610492565b90506108908183610be0565b60405163ca669fa760e01b81526001600160a01b0382166004820152737109709ecfa91a80626ff3989d68f67f5b1dd12d9063ca669fa790602401600060405180830381600087803b1580156108e557600080fd5b505af11580156108f9573d6000803e3d6000fd5b50505050600f60009054906101000a90046001600160a01b03166001600160a01b0316633a4b66f1836040518263ffffffff1660e01b81526004016000604051808303818588803b15801561094d57600080fd5b505af1158015610961573d6000803e3d6000fd5b5050600f546040805163c7ebdaef60e01b815290516001600160a01b03909216945063c7ebdaef9350600480820193506000929182900301818387803b1580156109aa57600080fd5b505af11580156109be573d6000803e3d6000fd5b5050505081601560008282546109d49190611173565b90915550506001600160a01b0381166000908152601360205260408120805484929061067a908490611173565b600080610a0e6011610c91565b905080600003610a215750600092915050565b610a2b6011610a74565b610a388260ff86166111f6565b81518110610a4857610a48611218565b6020026020010151915050919050565b6000610a6d836001600160a01b038416610c9b565b9392505050565b60606000610a6d83610d8e565b60408051604180825260808201909252600091606091906020820181803683370190505090508260f81b81600181518110610abe57610abe611218565b60200101906001600160f81b031916908160001a905350600060018251610ae59190611244565b67ffffffffffffffff811115610afd57610afd61122e565b6040519080825280601f01601f191660200182016040528015610b27576020820181803683370190505b50905060015b8251811015610b9257828181518110610b4857610b48611218565b01602001516001600160f81b03191682610b63600184611244565b81518110610b7357610b73611218565b60200101906001600160f81b031916908160001a905350600101610b2d565b508051602090910120939092509050565b6000610bb0848484610dea565b9050610a6d6040518060400160405280600c81526020016b109bdd5b990814995cdd5b1d60a21b81525082610fae565b6000826001600160a01b03168260405160006040518083038185875af1925050503d8060008114610c2d576040519150601f19603f3d011682016040523d82523d6000602084013e610c32565b606091505b5050905080610c775760405162461bcd60e51b815260206004820152600c60248201526b1c185e4a0a4819985a5b195960a21b60448201526064015b60405180910390fd5b505050565b6000610a6d836001600160a01b038416610ff7565b60006104d4825490565b60008181526001830160205260408120548015610d84576000610cbf600183611244565b8554909150600090610cd390600190611244565b9050808214610d38576000866000018281548110610cf357610cf3611218565b9060005260206000200154905080876000018481548110610d1657610d16611218565b6000918252602080832090910192909255918252600188019052604090208390555b8554869080610d4957610d49611257565b6001900381819060005260206000200160009055905585600101600086815260200190815260200160002060009055600193505050506104d4565b60009150506104d4565b606081600001805480602002602001604051908101604052809291908181526020018280548015610dde57602002820191906000526020600020905b815481526020019060010190808311610dca575b50505050509050919050565b600081831115610e625760405162461bcd60e51b815260206004820152603e60248201527f5374645574696c7320626f756e642875696e743235362c75696e743235362c7560448201527f696e74323536293a204d6178206973206c657373207468616e206d696e2e00006064820152608401610c6e565b828410158015610e725750818411155b15610e7e575082610a6d565b6000610e8a8484611244565b610e95906001611173565b905060038511158015610ea757508481115b15610ebe57610eb68585611173565b915050610a6d565b610ecb6003600019611244565b8510158015610ee45750610ee185600019611244565b81115b15610eff57610ef585600019611244565b610eb69084611244565b82851115610f55576000610f138487611244565b90506000610f2183836111f6565b905080600003610f3657849350505050610a6d565b6001610f428288611173565b610f4c9190611244565b93505050610fa6565b83851015610fa6576000610f698686611244565b90506000610f7783836111f6565b905080600003610f8c57859350505050610a6d565b610f968186611244565b610fa1906001611173565b935050505b509392505050565b610ff38282604051602401610fc492919061126d565b60408051601f198184030181529190526020810180516001600160e01b0316632d839cb360e21b179052611046565b5050565b600081815260018301602052604081205461103e575081546001818101845560008481526020808220909301849055845484825282860190935260409020919091556104d4565b5060006104d4565b61104f81611052565b50565b80516a636f6e736f6c652e6c6f67602083016000808483855afa5050505050565b803560ff8116811461108457600080fd5b919050565b60006020828403121561109b57600080fd5b610a6d82611073565b6020808252825182820181905260009190848201906040850190845b818110156110e55783516001600160a01b0316835292840192918401916001016110c0565b50909695505050505050565b60006020828403121561110357600080fd5b81356001600160a01b0381168114610a6d57600080fd5b6000806040838503121561112d57600080fd5b61113683611073565b946020939093013593505050565b60006020828403121561115657600080fd5b5051919050565b634e487b7160e01b600052601160045260246000fd5b808201808211156104d4576104d461115d565b80820281158282048414176104d4576104d461115d565b6000815180845260005b818110156111c3576020818501810151868301820152016111a7565b506000602082860101526020601f19601f83011685010191505092915050565b602081526000610a6d602083018461119d565b60008261121357634e487b7160e01b600052601260045260246000fd5b500690565b634e487b7160e01b600052603260045260246000fd5b634e487b7160e01b600052604160045260246000fd5b818103818111156104d4576104d461115d565b634e487b7160e01b600052603160045260246000fd5b604081526000611280604083018561119d565b9050826020830152939250505056fea26469706673582212203112f821a3edfaa4c9e20e7fdd3046584b9ad3f177493d753f553c2100e1e6f164736f6c63430008180033","linkReferences":{}},"methodIdentifiers":{"getRandomValidator(uint8)":"a64efe5d","getRandomValidatorFromSetOrZero(uint8)":"f2a2870b","ghost_stakedSum()":"b00053cf","ghost_unstakedSum()":"0a52ee96","ghost_validators_staked(address)":"a7818a48","ghost_validators_unstaked(address)":"c2da0512","join(uint8,uint256)":"bd0fa1b1","joinedValidators()":"a0758127","joinedValidatorsNumber()":"bc5683e1","leave(uint8)":"2cb54025","stake(uint8,uint256)":"dd752e55","unstake(uint8,uint256)":"b4545b9e"},"id":128}