{"abi":[{"type":"function","name":"activeUnitCount","inputs":[],"outputs":[{"name":"","type":"uint256","internalType":"uint256"}],"stateMutability":"view"},{"type":"function","name":"calculateRewardPool","inputs":[],"outputs":[],"stateMutability":"nonpayable"},{"type":"function","name":"currentEpoch","inputs":[],"outputs":[{"name":"","type":"uint256","internalType":"uint256"}],"stateMutability":"view"},{"type":"function","name":"difficulty","inputs":[],"outputs":[{"name":"","type":"bytes32","internalType":"bytes32"}],"stateMutability":"view"},{"type":"function","name":"epochDuration","inputs":[],"outputs":[{"name":"","type":"uint256","internalType":"uint256"}],"stateMutability":"view"},{"type":"function","name":"fltCollateralPerUnit","inputs":[],"outputs":[{"name":"","type":"uint256","internalType":"uint256"}],"stateMutability":"view"},{"type":"function","name":"fltPrice","inputs":[],"outputs":[{"name":"","type":"uint256","internalType":"uint256"}],"stateMutability":"view"},{"type":"function","name":"getRewardPool","inputs":[{"name":"epoch","type":"uint256","internalType":"uint256"}],"outputs":[{"name":"","type":"uint256","internalType":"uint256"}],"stateMutability":"view"},{"type":"function","name":"initTimestamp","inputs":[],"outputs":[{"name":"","type":"uint256","internalType":"uint256"}],"stateMutability":"view"},{"type":"function","name":"maxFailedRatio","inputs":[],"outputs":[{"name":"","type":"uint256","internalType":"uint256"}],"stateMutability":"view"},{"type":"function","name":"maxProofsPerEpoch","inputs":[],"outputs":[{"name":"","type":"uint256","internalType":"uint256"}],"stateMutability":"view"},{"type":"function","name":"maxProtocolVersion","inputs":[],"outputs":[{"name":"","type":"uint256","internalType":"uint256"}],"stateMutability":"view"},{"type":"function","name":"maxRewardPerEpoch","inputs":[],"outputs":[{"name":"","type":"uint256","internalType":"uint256"}],"stateMutability":"view"},{"type":"function","name":"minDealDepositedEpochs","inputs":[],"outputs":[{"name":"","type":"uint256","internalType":"uint256"}],"stateMutability":"view"},{"type":"function","name":"minDealRematchingEpochs","inputs":[],"outputs":[{"name":"","type":"uint256","internalType":"uint256"}],"stateMutability":"view"},{"type":"function","name":"minDuration","inputs":[],"outputs":[{"name":"","type":"uint256","internalType":"uint256"}],"stateMutability":"view"},{"type":"function","name":"minProofsPerEpoch","inputs":[],"outputs":[{"name":"","type":"uint256","internalType":"uint256"}],"stateMutability":"view"},{"type":"function","name":"minProtocolVersion","inputs":[],"outputs":[{"name":"","type":"uint256","internalType":"uint256"}],"stateMutability":"view"},{"type":"function","name":"minRewardPerEpoch","inputs":[],"outputs":[{"name":"","type":"uint256","internalType":"uint256"}],"stateMutability":"view"},{"type":"function","name":"owner","inputs":[],"outputs":[{"name":"","type":"address","internalType":"address"}],"stateMutability":"view"},{"type":"function","name":"precision","inputs":[],"outputs":[{"name":"","type":"uint256","internalType":"uint256"}],"stateMutability":"pure"},{"type":"function","name":"randomXProxy","inputs":[],"outputs":[{"name":"","type":"address","internalType":"address"}],"stateMutability":"view"},{"type":"function","name":"renounceOwnership","inputs":[],"outputs":[],"stateMutability":"nonpayable"},{"type":"function","name":"setCapacityConstant","inputs":[{"name":"constantType","type":"uint8","internalType":"enum ICapacityConst.CapacityConstantType"},{"name":"v","type":"uint256","internalType":"uint256"}],"outputs":[],"stateMutability":"nonpayable"},{"type":"function","name":"setConstant","inputs":[{"name":"constantType","type":"uint8","internalType":"enum IGlobalConst.ConstantType"},{"name":"v","type":"uint256","internalType":"uint256"}],"outputs":[],"stateMutability":"nonpayable"},{"type":"function","name":"setDifficulty","inputs":[{"name":"difficulty_","type":"bytes32","internalType":"bytes32"}],"outputs":[],"stateMutability":"nonpayable"},{"type":"function","name":"setFLTPrice","inputs":[{"name":"fltPrice_","type":"uint256","internalType":"uint256"}],"outputs":[],"stateMutability":"nonpayable"},{"type":"function","name":"slashingRate","inputs":[],"outputs":[{"name":"","type":"uint256","internalType":"uint256"}],"stateMutability":"view"},{"type":"function","name":"transferOwnership","inputs":[{"name":"newOwner","type":"address","internalType":"address"}],"outputs":[],"stateMutability":"nonpayable"},{"type":"function","name":"usdCollateralPerUnit","inputs":[],"outputs":[{"name":"","type":"uint256","internalType":"uint256"}],"stateMutability":"view"},{"type":"function","name":"usdTargetRevenuePerEpoch","inputs":[],"outputs":[{"name":"","type":"uint256","internalType":"uint256"}],"stateMutability":"view"},{"type":"function","name":"vestingPeriodCount","inputs":[],"outputs":[{"name":"","type":"uint256","internalType":"uint256"}],"stateMutability":"view"},{"type":"function","name":"vestingPeriodDuration","inputs":[],"outputs":[{"name":"","type":"uint256","internalType":"uint256"}],"stateMutability":"view"},{"type":"function","name":"withdrawEpochsAfterFailed","inputs":[],"outputs":[{"name":"","type":"uint256","internalType":"uint256"}],"stateMutability":"view"},{"type":"event","name":"CapacityConstantUpdated","inputs":[{"name":"constantType","type":"uint8","indexed":false,"internalType":"enum ICapacityConst.CapacityConstantType"},{"name":"newValue","type":"uint256","indexed":false,"internalType":"uint256"}],"anonymous":false},{"type":"event","name":"ConstantUpdated","inputs":[{"name":"constantType","type":"uint8","indexed":false,"internalType":"enum IGlobalConst.ConstantType"},{"name":"newValue","type":"uint256","indexed":false,"internalType":"uint256"}],"anonymous":false},{"type":"event","name":"DifficultyUpdated","inputs":[{"name":"difficulty","type":"bytes32","indexed":false,"internalType":"bytes32"}],"anonymous":false},{"type":"event","name":"FLTPriceUpdated","inputs":[{"name":"newValue","type":"uint256","indexed":false,"internalType":"uint256"}],"anonymous":false},{"type":"event","name":"Initialized","inputs":[{"name":"version","type":"uint8","indexed":false,"internalType":"uint8"}],"anonymous":false},{"type":"event","name":"OwnershipTransferred","inputs":[{"name":"previousOwner","type":"address","indexed":true,"internalType":"address"},{"name":"newOwner","type":"address","indexed":true,"internalType":"address"}],"anonymous":false},{"type":"error","name":"OwnableInvalidOwner","inputs":[{"name":"owner","type":"address","internalType":"address"}]},{"type":"error","name":"OwnableUnauthorizedAccount","inputs":[{"name":"account","type":"address","internalType":"address"}]}],"bytecode":{"object":"0x60808060405234610016576112d2908161001c8239f35b600080fdfe608060408181526004908136101561001657600080fd5b600092833560e01c90816303eed73e14610b9b575080630640d94114610b5d578063069f7a6414610b3157806313baa06914610b0557806319cae46214610ae857806322cafa3a14610abc578063280c5e5114610a905780633932dbf5146109eb5780634469ac9b146109ad5780634ff0876a146109815780634ff3dfd61461095557806356715761146109295780635c11f4d4146108fd5780635cfa91f4146108dd5780635ff24491146108b157806366aaf7b9146108855780636daecfbe146106975780636f1679771461066b578063715018a61461061357806372ea4f23146105e75780637358c57a146105bb57806376671808146105975780637e8153811461056b578063800fe1251461053f5780638da5cb5b14610509578063919f49f9146104c1578063a376fb9114610495578063b49b075814610455578063d3b5dc3b14610437578063d6f563d814610333578063dad01895146102f5578063e217509014610258578063e79c6270146102285763f2fde38b1461019a57600080fd5b34610224576020366003190112610224576001600160a01b03823581811693919290849003610220576101cb610d9c565b831561020a5750506000805160206111dd83398151915280546001600160a01b031981168417909155166000805160206111bd8339815191528380a380f35b51631e4fbdf760e01b8152908101849052602490fd5b8480fd5b8280fd5b83823461025457816003193601126102545760209060008051602061107d833981519152549051908152f35b5080fd5b509034610224576020366003190112610224577fd1deff9e525a11d14a1263bcc0b80d6863292470cc5c6e5c433dfdeaa7ef0e2d91602091359061029a610d9c565b816000805160206110dd833981519152556102c460008051602061103d8339815191525483610dd5565b6102dd82600080516020610fbd83398151915254610c1a565b6000805160206110bd8339815191525551908152a180f35b8382346102545781600319360112610254576020907f8984d2d0d7a9f2f70f22692c7c8344aa50cbed8c00a03c924457a31793ee8fe3549051908152f35b508290346102545780600319360112610254578235838110156102245760243561035b610d9c565b8391806103bd5781600080516020610fdd833981519152555b8351926103aa577f201e1b27d7e31716378e28dd51ab57b07c4387abf9d578358af3b12737872f0e94955082526020820152a180f35b634e487b7160e01b855260218652602485fd5b849250600181036103de578160008051602061113d83398151915255610374565b835162461bcd60e51b81528061043381890160809060208152602260208201527f476c6f62616c436f6e73743a20756e6b6e6f776e20636f6e7374616e74207479604082015261706560f01b60608201520190565b0390fd5b83823461025457816003193601126102545760209051629896808152f35b833461049257806003193601126104925761048f6000805160206110dd8339815191525460008051602061103d8339815191525490610dd5565b80f35b80fd5b8382346102545781600319360112610254576020906000805160206111fd833981519152549051908152f35b8382346102545781600319360112610254577f8984d2d0d7a9f2f70f22692c7c8344aa50cbed8c00a03c924457a31793ee8fd25490516001600160a01b039091168152602090f35b8382346102545781600319360112610254576000805160206111dd8339815191525490516001600160a01b039091168152602090f35b83823461025457816003193601126102545760209060008051602061101d833981519152549051908152f35b83823461025457816003193601126102545760209060008051602061103d833981519152549051908152f35b8382346102545781600319360112610254576020906105b4610d5c565b9051908152f35b83823461025457816003193601126102545760209060008051602061125d833981519152549051908152f35b838234610254578160031936011261025457602090600080516020610fdd833981519152549051908152f35b833461049257806003193601126104925761062c610d9c565b6000805160206111dd83398151915280546001600160a01b0319811690915581906001600160a01b03166000805160206111bd8339815191528280a380f35b83823461025457816003193601126102545760209060008051602061109d833981519152549051908152f35b508290346102545780600319360112610254578235600a811015610224576024356106c0610d9c565b83918061070f578160008051602061121d833981519152555b8351926103aa577f12ef687a8e3257309ee19f0dd17e311b1e2d18c1d585528c4116af913b0c4af794955082526020820152a180f35b8492506001810361075a5781600080516020610fbd833981519152556107446000805160206110dd8339815191525483610c1a565b6000805160206110bd833981519152555b6106d9565b8492506002810361077b578160008051602061127d833981519152556106d9565b8492506003810361079c578160008051602061109d833981519152556106d9565b8492508581036107bc57816000805160206111fd833981519152556106d9565b84925060058103610801578160008051602061105d833981519152556107556000805160206110dd8339815191525460008051602061103d8339815191525490610dd5565b84925060068103610822578160008051602061117d833981519152556106d9565b84925060078103610843578160008051602061101d833981519152556106d9565b84925060088103610864578160008051602061107d833981519152556106d9565b849250600981036103de578160008051602061115d833981519152556106d9565b83823461025457816003193601126102545760209060008051602061105d833981519152549051908152f35b8382346102545781600319360112610254576020906000805160206110dd833981519152549051908152f35b50823461049257602036600319011261049257506105b460209235610c7b565b83823461025457816003193601126102545760209060008051602061117d833981519152549051908152f35b83823461025457816003193601126102545760209060008051602061121d833981519152549051908152f35b8382346102545781600319360112610254576020906000805160206110bd833981519152549051908152f35b83823461025457816003193601126102545760209060008051602061111d833981519152549051908152f35b8382346102545781600319360112610254576020907f60ac4d56f7e69877e4b95a6e91f4b3612278b580a93ea7637885a480e015031a549051908152f35b5082903461025457602036600319011261025457823590610a0a610d9c565b816000805160206110fd833981519152805460008051602061119d8339815191525555610a35610d5c565b60018101809111610a7d5760008051602061123d83398151915255519081527f0b5731e9746c6761d5cc9e62a3f59221163bf9ea25d7eb047f33913153f23c9790602090a180f35b634e487b7160e01b845260118552602484fd5b83823461025457816003193601126102545760209060008051602061115d833981519152549051908152f35b838234610254578160031936011261025457602090600080516020610fbd833981519152549051908152f35b8382346102545781600319360112610254576020906105b4610bd6565b83823461025457816003193601126102545760209060008051602061127d833981519152549051908152f35b83823461025457816003193601126102545760209060008051602061113d833981519152549051908152f35b8382346102545781600319360112610254576020907f8984d2d0d7a9f2f70f22692c7c8344aa50cbed8c00a03c924457a31793ee8fe2549051908152f35b8490346102545781600319360112610254576020907f60ac4d56f7e69877e4b95a6e91f4b3612278b580a93ea7637885a480e015031b548152f35b610bde610d5c565b60008051602061123d833981519152541115610c075760008051602061119d8339815191525490565b6000805160206110fd8339815191525490565b8115610c24570490565b634e487b7160e01b600052601260045260246000fd5b600080516020610ffd8339815191528054821015610c655760005260206000209060011b0190600090565b634e487b7160e01b600052603260045260246000fd5b600080516020610ffd833981519152546000801991828101908111610d485791909182935b81841115610caf575050505090565b9091929382850194858111610cf657600195861c91610ccd83610c3a565b50918254808611600014610d0c57505050850154948101809111610cf657915b90929192610ca0565b634e487b7160e01b600052601160045260246000fd5b91979095509190841015610d3d57505083810190811115610ced57634e487b7160e01b600052601160045260246000fd5b015495945050505050565b634e487b7160e01b82526011600452602482fd5b60008051602061125d833981519152544203428111610cf65760008051602061111d83398151915254610d8e91610c1a565b60010180600111610cf65790565b6000805160206111dd833981519152546001600160a01b03163303610dbd57565b60405163118cdaa760e01b8152336004820152602490fd5b90610dde610d5c565b600080516020610ffd83398151915280548315610fb5576000198101936000828611610f8e5750610e0e85610c3a565b508054851491908215610fab575060028310610fa2576001198301838111610cf657610e3b600191610c3a565b500154905b8782029082159883830414891715610cf657610e5b91610c1a565b60009060008051602061105d8339815191525410600014610f4e575060008051602061117d833981519152549662895440808302928304141715610cf65762989680900495808710610f46575b505b15610ec257505050610ebd600191610c3a565b500155565b6040805194509192909184016001600160401b03811185821017610f3057604052835260208301938452600160401b811015610f3057610f0791600182019055610c3a565b929092610f1a5760019151835551910155565b634e487b7160e01b600052600060045260246000fd5b634e487b7160e01b600052604160045260246000fd5b955038610ea8565b60008051602061101d833981519152549762a7d8c0808402938404141715610f8e575062989680900495808711610f86575b50610eaa565b955038610f80565b634e487b7160e01b81526011600452602490fd5b50505050505050565b6001015490610e40565b505050505056fe8984d2d0d7a9f2f70f22692c7c8344aa50cbed8c00a03c924457a31793ee8fd560ac4d56f7e69877e4b95a6e91f4b3612278b580a93ea7637885a480e01503188984d2d0d7a9f2f70f22692c7c8344aa50cbed8c00a03c924457a31793ee8fe48984d2d0d7a9f2f70f22692c7c8344aa50cbed8c00a03c924457a31793ee8fe18984d2d0d7a9f2f70f22692c7c8344aa50cbed8c00a03c924457a31793ee8fd38984d2d0d7a9f2f70f22692c7c8344aa50cbed8c00a03c924457a31793ee8fdf8984d2d0d7a9f2f70f22692c7c8344aa50cbed8c00a03c924457a31793ee8fda8984d2d0d7a9f2f70f22692c7c8344aa50cbed8c00a03c924457a31793ee8fd88984d2d0d7a9f2f70f22692c7c8344aa50cbed8c00a03c924457a31793ee8fd68984d2d0d7a9f2f70f22692c7c8344aa50cbed8c00a03c924457a31793ee8fd18984d2d0d7a9f2f70f22692c7c8344aa50cbed8c00a03c924457a31793ee8fdd7d4f8ec43464738265ced6b7ed5f90007e9b7c34318bdd82d9249328b50bd35860ac4d56f7e69877e4b95a6e91f4b3612278b580a93ea7637885a480e01503198984d2d0d7a9f2f70f22692c7c8344aa50cbed8c00a03c924457a31793ee8fdb8984d2d0d7a9f2f70f22692c7c8344aa50cbed8c00a03c924457a31793ee8fe08984d2d0d7a9f2f70f22692c7c8344aa50cbed8c00a03c924457a31793ee8fdc8be0079c531659141344cd1fd0a4f28419497f9722a3daafe3b4186f6b6457e0b13d3e7783d509d8d65d3e1e62ec0b103a07e0cbfa1ee74ae19127f297dddfcc8984d2d0d7a9f2f70f22692c7c8344aa50cbed8c00a03c924457a31793ee8fd98984d2d0d7a9f2f70f22692c7c8344aa50cbed8c00a03c924457a31793ee8fd48984d2d0d7a9f2f70f22692c7c8344aa50cbed8c00a03c924457a31793ee8fde7d4f8ec43464738265ced6b7ed5f90007e9b7c34318bdd82d9249328b50bd3578984d2d0d7a9f2f70f22692c7c8344aa50cbed8c00a03c924457a31793ee8fd7a2646970667358221220782efc22b2d4735671c45dce7bc8691928f2f566c9ffccc3c0131bcea0e401ff64736f6c63430008180033","linkReferences":{}},"methodIdentifiers":{"activeUnitCount()":"7e815381","calculateRewardPool()":"b49b0758","currentEpoch()":"76671808","difficulty()":"19cae462","epochDuration()":"4ff0876a","fltCollateralPerUnit()":"4ff3dfd6","fltPrice()":"5ff24491","getRewardPool(uint256)":"5cfa91f4","initTimestamp()":"7358c57a","maxFailedRatio()":"a376fb91","maxProofsPerEpoch()":"280c5e51","maxProtocolVersion()":"03eed73e","maxRewardPerEpoch()":"800fe125","minDealDepositedEpochs()":"72ea4f23","minDealRematchingEpochs()":"069f7a64","minDuration()":"56715761","minProofsPerEpoch()":"e79c6270","minProtocolVersion()":"4469ac9b","minRewardPerEpoch()":"5c11f4d4","owner()":"8da5cb5b","precision()":"d3b5dc3b","randomXProxy()":"919f49f9","renounceOwnership()":"715018a6","setCapacityConstant(uint8,uint256)":"6daecfbe","setConstant(uint8,uint256)":"d6f563d8","setDifficulty(bytes32)":"3932dbf5","setFLTPrice(uint256)":"e2175090","slashingRate()":"13baa069","transferOwnership(address)":"f2fde38b","usdCollateralPerUnit()":"22cafa3a","usdTargetRevenuePerEpoch()":"66aaf7b9","vestingPeriodCount()":"dad01895","vestingPeriodDuration()":"0640d941","withdrawEpochsAfterFailed()":"6f167977"},"devdoc":{"version":1,"kind":"dev","methods":{"activeUnitCount()":{"details":"Returns the active compute unit count"},"currentEpoch()":{"details":"This function mirrored in:- ts-client/src/dealMatcherClient/dealMatcherClient.ts- subgraph/src/contracts.ts"},"difficulty()":{"details":"Returns the difficulty for randomX"},"epochDuration()":{"details":"Returns epoch duration","returns":{"_0":"epochDuration in seconds"}},"fltCollateralPerUnit()":{"details":"Returns the flt collateral per compute unit for creating CC"},"fltPrice()":{"details":"Returns the flt price"},"getRewardPool(uint256)":{"details":"Returns the reward pool per epoch"},"initTimestamp()":{"details":"Returns epoch init timestamp","returns":{"_0":"initTimestamp in seconds"}},"maxFailedRatio()":{"details":"Returns the max failed ratio for CC"},"maxProofsPerEpoch()":{"details":"Returns the max randomX proofs per epoch"},"maxProtocolVersion()":{"details":"Returns max protocol version which can be specified in offers and deals","returns":{"_0":"max protocol version"}},"maxRewardPerEpoch()":{"details":"Returns the max reward pool per epoch"},"minDealDepositedEpochs()":{"details":"Returns min deposited Epochs constant for new deals","returns":{"_0":"min deposited Epochs for new deals"}},"minDealRematchingEpochs()":{"details":"Returns min rematching Epochs constant for all deals","returns":{"_0":"min rematching Epochs for all deals"}},"minDuration()":{"details":"Returns the min duration of CC in Epochs"},"minProofsPerEpoch()":{"details":"Returns the min required randomX proofs per epoch for the 1 CU.If lower than this - CU is failed and CC slashed."},"minProtocolVersion()":{"details":"Returns min protocol version which can be specified in offers and deals","returns":{"_0":"min protocol version"}},"minRewardPerEpoch()":{"details":"Returns the min reward pool per epoch"},"owner()":{"details":"Returns the address of the current owner."},"precision()":{"details":"Returns precision for decimal values (USD, percentage)"},"randomXProxy()":{"details":"Returns the randomX proxy address for verification of randomX proofs"},"renounceOwnership()":{"details":"Leaves the contract without owner. It will not be possible to call `onlyOwner` functions. Can only be called by the current owner. NOTE: Renouncing ownership will leave the contract without an owner, thereby disabling any functionality that is only available to the owner."},"setCapacityConstant(uint8,uint256)":{"details":"Sets a constant with a uint256 value"},"setConstant(uint8,uint256)":{"details":"Sets constant with uint256 value","params":{"constantType":"Constant type","v":"New uint256 value"}},"setDifficulty(bytes32)":{"details":"Sets the randomX difficulty"},"setFLTPrice(uint256)":{"details":"Sets the flt price"},"slashingRate()":{"details":"Returns the slashing rate for failed CU"},"transferOwnership(address)":{"details":"Transfers ownership of the contract to a new account (`newOwner`). Can only be called by the current owner."},"usdCollateralPerUnit()":{"details":"Returns the usd collateral per compute for creating CC"},"usdTargetRevenuePerEpoch()":{"details":"Returns the target revenue in usd value per epoch"},"vestingPeriodCount()":{"details":"Returns the total vesting periods"},"vestingPeriodDuration()":{"details":"Returns the vesting duration for one period in Epochs"},"withdrawEpochsAfterFailed()":{"details":"Returns the delay for withdraw collateral in Epochs after failed CC"}},"events":{"CapacityConstantUpdated(uint8,uint256)":{"details":"Emitted when a constant with a uint256 value is updated","params":{"constantType":"The type of the constant","newValue":"The new value of the constant"}},"ConstantUpdated(uint8,uint256)":{"details":"Emitted when a constant with uint256 value is updated","params":{"constantType":"Constant type","newValue":"New uint256 value"}},"DifficultyUpdated(bytes32)":{"details":"Emitted when the difficulty is updated","params":{"difficulty":"The new value of the difficulty"}},"FLTPriceUpdated(uint256)":{"details":"Emitted when the FLT price is updated","params":{"newValue":"The new value of the FLT price"}},"Initialized(uint8)":{"details":"Triggered when the contract has been initialized or reinitialized."}},"errors":{"OwnableInvalidOwner(address)":[{"details":"The owner is not a valid owner account. (eg. `address(0)`)"}],"OwnableUnauthorizedAccount(address)":[{"details":"The caller account is not authorized to perform an operation."}]}},"id":70}