{"abi":[{"type":"function","name":"multicall","inputs":[{"name":"data","type":"bytes[]","internalType":"bytes[]"}],"outputs":[{"name":"results","type":"bytes[]","internalType":"bytes[]"}],"stateMutability":"nonpayable"},{"type":"error","name":"AddressEmptyCode","inputs":[{"name":"target","type":"address","internalType":"address"}]},{"type":"error","name":"FailedCall","inputs":[]}],"bytecode":{"object":"0x60808060405234601557610412908161001a8239f35b5f80fdfe60806040526004361015610011575f80fd5b5f3560e01c63ac9650d814610024575f80fd5b34610094576020366003190112610094576004356001600160401b0381116100945736602382011215610094576004810135906001600160401b038211610094573660248360051b83010111610094576100909160246100849201610261565b60405191829182610098565b0390f35b5f80fd5b602081016020825282518091526040820191602060408360051b8301019401925f915b8383106100ca57505050505090565b909192939460208080600193603f19868203018752818a518051918291828552018484015e5f828201840152601f01601f1916010197019594919091019201906100bb565b634e487b7160e01b5f52604160045260245ffd5b6040519190601f01601f191682016001600160401b0381118382101761014857604052565b61010f565b6001600160401b0381116101485760051b60200190565b634e487b7160e01b5f52603260045260245ffd5b91908110156101b95760051b81013590601e19813603018212156100945701803591906001600160401b038311610094576020018236038113610094579190565b610164565b6001600160401b03811161014857601f01601f191660200190565b9291926101ed6101e8836101be565b610123565b938285528282011161009457815f926020928387013784010152565b1561021057565b60405162461bcd60e51b81526020600482015260156024820152744469616d6f6e643a2066756e6374696f6e20646e6560581b6044820152606490fd5b80518210156101b95760209160051b010190565b61026d6101e88361014d565b82815291601f1961027d8261014d565b015f5b8181106103345750505f5b8181106102985750505090565b806103186102b36102ac6001948688610178565b36916101d9565b6103016102f4602083015163ffffffff60e01b165f527fc8fcad8db84d3cc18b4c41d551ea0ee66dd599cde068d998e57d5e09332c131c60205260405f2090565b546001600160a01b031690565b610313858060a01b0382161515610209565b610345565b610322828761024d565b5261032d818661024d565b500161028b565b806060602080938801015201610280565b5f8061037793602081519101845af43d1561037a573d916103686101e8846101be565b9283523d5f602085013e61037e565b90565b6060915b906103a2575080511561039357805190602001fd5b63d6bda27560e01b5f5260045ffd5b815115806103d3575b6103b3575090565b639996b31560e01b5f9081526001600160a01b0391909116600452602490fd5b50803b156103ab56fea26469706673582212204a680fa395cea74dc368f2bd8c5bd46213f787d1d18929f95bfc3ccd8695e46864736f6c634300081a0033","linkReferences":{}},"methodIdentifiers":{"multicall(bytes[])":"ac9650d8"},"storageLayout":{"storage":[],"types":{}},"devdoc":{"version":1,"kind":"dev","methods":{"multicall(bytes[])":{"details":"Receives and executes a batch of function calls on this contract."}},"errors":{"AddressEmptyCode(address)":[{"details":"There's no code at `target` (it is not a contract)."}],"FailedCall()":[{"details":"A call to an address target failed. The target may have reverted."}]}},"id":133}