{"abi":[{"type":"constructor","inputs":[{"name":"name","type":"string","internalType":"string"},{"name":"symbol","type":"string","internalType":"string"},{"name":"initialSupply","type":"uint256","internalType":"uint256"},{"name":"owner","type":"address","internalType":"address"}],"stateMutability":"nonpayable"},{"type":"function","name":"allowance","inputs":[{"name":"owner","type":"address","internalType":"address"},{"name":"spender","type":"address","internalType":"address"}],"outputs":[{"name":"","type":"uint256","internalType":"uint256"}],"stateMutability":"view"},{"type":"function","name":"approve","inputs":[{"name":"spender","type":"address","internalType":"address"},{"name":"value","type":"uint256","internalType":"uint256"}],"outputs":[{"name":"","type":"bool","internalType":"bool"}],"stateMutability":"nonpayable"},{"type":"function","name":"balanceOf","inputs":[{"name":"account","type":"address","internalType":"address"}],"outputs":[{"name":"","type":"uint256","internalType":"uint256"}],"stateMutability":"view"},{"type":"function","name":"burn","inputs":[{"name":"value","type":"uint256","internalType":"uint256"}],"outputs":[],"stateMutability":"nonpayable"},{"type":"function","name":"burnFrom","inputs":[{"name":"account","type":"address","internalType":"address"},{"name":"value","type":"uint256","internalType":"uint256"}],"outputs":[],"stateMutability":"nonpayable"},{"type":"function","name":"decimals","inputs":[],"outputs":[{"name":"","type":"uint8","internalType":"uint8"}],"stateMutability":"view"},{"type":"function","name":"name","inputs":[],"outputs":[{"name":"","type":"string","internalType":"string"}],"stateMutability":"view"},{"type":"function","name":"symbol","inputs":[],"outputs":[{"name":"","type":"string","internalType":"string"}],"stateMutability":"view"},{"type":"function","name":"totalSupply","inputs":[],"outputs":[{"name":"","type":"uint256","internalType":"uint256"}],"stateMutability":"view"},{"type":"function","name":"transfer","inputs":[{"name":"to","type":"address","internalType":"address"},{"name":"value","type":"uint256","internalType":"uint256"}],"outputs":[{"name":"","type":"bool","internalType":"bool"}],"stateMutability":"nonpayable"},{"type":"function","name":"transferFrom","inputs":[{"name":"from","type":"address","internalType":"address"},{"name":"to","type":"address","internalType":"address"},{"name":"value","type":"uint256","internalType":"uint256"}],"outputs":[{"name":"","type":"bool","internalType":"bool"}],"stateMutability":"nonpayable"},{"type":"event","name":"Approval","inputs":[{"name":"owner","type":"address","indexed":true,"internalType":"address"},{"name":"spender","type":"address","indexed":true,"internalType":"address"},{"name":"value","type":"uint256","indexed":false,"internalType":"uint256"}],"anonymous":false},{"type":"event","name":"Transfer","inputs":[{"name":"from","type":"address","indexed":true,"internalType":"address"},{"name":"to","type":"address","indexed":true,"internalType":"address"},{"name":"value","type":"uint256","indexed":false,"internalType":"uint256"}],"anonymous":false},{"type":"error","name":"ERC20InsufficientAllowance","inputs":[{"name":"spender","type":"address","internalType":"address"},{"name":"allowance","type":"uint256","internalType":"uint256"},{"name":"needed","type":"uint256","internalType":"uint256"}]},{"type":"error","name":"ERC20InsufficientBalance","inputs":[{"name":"sender","type":"address","internalType":"address"},{"name":"balance","type":"uint256","internalType":"uint256"},{"name":"needed","type":"uint256","internalType":"uint256"}]},{"type":"error","name":"ERC20InvalidApprover","inputs":[{"name":"approver","type":"address","internalType":"address"}]},{"type":"error","name":"ERC20InvalidReceiver","inputs":[{"name":"receiver","type":"address","internalType":"address"}]},{"type":"error","name":"ERC20InvalidSender","inputs":[{"name":"sender","type":"address","internalType":"address"}]},{"type":"error","name":"ERC20InvalidSpender","inputs":[{"name":"spender","type":"address","internalType":"address"}]}],"bytecode":{"object":"0x60806040523480156200001157600080fd5b5060405162000cad38038062000cad8339810160408190526200003491620002af565b83836003620000448382620003d5565b506004620000538282620003d5565b5050506200006881836200007260201b60201c565b50505050620004c9565b6001600160a01b038216620000a25760405163ec442f0560e01b8152600060048201526024015b60405180910390fd5b620000b060008383620000b4565b5050565b6001600160a01b038316620000e3578060026000828254620000d79190620004a1565b90915550620001579050565b6001600160a01b03831660009081526020819052604090205481811015620001385760405163391434e360e21b81526001600160a01b0385166004820152602481018290526044810183905260640162000099565b6001600160a01b03841660009081526020819052604090209082900390555b6001600160a01b038216620001755760028054829003905562000194565b6001600160a01b03821660009081526020819052604090208054820190555b816001600160a01b0316836001600160a01b03167fddf252ad1be2c89b69c2b068fc378daa952ba7f163c4a11628f55a4df523b3ef83604051620001da91815260200190565b60405180910390a3505050565b634e487b7160e01b600052604160045260246000fd5b600082601f8301126200020f57600080fd5b81516001600160401b03808211156200022c576200022c620001e7565b604051601f8301601f19908116603f01168101908282118183101715620002575762000257620001e7565b81604052838152602092508660208588010111156200027557600080fd5b600091505b838210156200029957858201830151818301840152908201906200027a565b6000602085830101528094505050505092915050565b60008060008060808587031215620002c657600080fd5b84516001600160401b0380821115620002de57600080fd5b620002ec88838901620001fd565b955060208701519150808211156200030357600080fd5b506200031287828801620001fd565b60408701516060880151919550935090506001600160a01b03811681146200033957600080fd5b939692955090935050565b600181811c908216806200035957607f821691505b6020821081036200037a57634e487b7160e01b600052602260045260246000fd5b50919050565b601f821115620003d0576000816000526020600020601f850160051c81016020861015620003ab5750805b601f850160051c820191505b81811015620003cc57828155600101620003b7565b5050505b505050565b81516001600160401b03811115620003f157620003f1620001e7565b620004098162000402845462000344565b8462000380565b602080601f831160018114620004415760008415620004285750858301515b600019600386901b1c1916600185901b178555620003cc565b600085815260208120601f198616915b82811015620004725788860151825594840194600190910190840162000451565b5085821015620004915787850151600019600388901b60f8161c191681555b5050505050600190811b01905550565b80820180821115620004c357634e487b7160e01b600052601160045260246000fd5b92915050565b6107d480620004d96000396000f3fe608060405234801561001057600080fd5b50600436106100a95760003560e01c806342966c681161007157806342966c681461012357806370a082311461013857806379cc67901461016157806395d89b4114610174578063a9059cbb1461017c578063dd62ed3e1461018f57600080fd5b806306fdde03146100ae578063095ea7b3146100cc57806318160ddd146100ef57806323b872dd14610101578063313ce56714610114575b600080fd5b6100b66101c8565b6040516100c39190610604565b60405180910390f35b6100df6100da36600461066f565b61025a565b60405190151581526020016100c3565b6002545b6040519081526020016100c3565b6100df61010f366004610699565b610274565b604051601281526020016100c3565b6101366101313660046106d5565b610298565b005b6100f36101463660046106ee565b6001600160a01b031660009081526020819052604090205490565b61013661016f36600461066f565b6102a5565b6100b66102be565b6100df61018a36600461066f565b6102cd565b6100f361019d366004610710565b6001600160a01b03918216600090815260016020908152604080832093909416825291909152205490565b6060600380546101d790610743565b80601f016020809104026020016040519081016040528092919081815260200182805461020390610743565b80156102505780601f1061022557610100808354040283529160200191610250565b820191906000526020600020905b81548152906001019060200180831161023357829003601f168201915b5050505050905090565b6000336102688185856102db565b60019150505b92915050565b6000336102828582856102ed565b61028d858585610370565b506001949350505050565b6102a233826103cf565b50565b6102b08233836102ed565b6102ba82826103cf565b5050565b6060600480546101d790610743565b600033610268818585610370565b6102e88383836001610405565b505050565b6001600160a01b03838116600090815260016020908152604080832093861683529290522054600019811461036a578181101561035b57604051637dc7a0d960e11b81526001600160a01b038416600482015260248101829052604481018390526064015b60405180910390fd5b61036a84848484036000610405565b50505050565b6001600160a01b03831661039a57604051634b637e8f60e11b815260006004820152602401610352565b6001600160a01b0382166103c45760405163ec442f0560e01b815260006004820152602401610352565b6102e88383836104da565b6001600160a01b0382166103f957604051634b637e8f60e11b815260006004820152602401610352565b6102ba826000836104da565b6001600160a01b03841661042f5760405163e602df0560e01b815260006004820152602401610352565b6001600160a01b03831661045957604051634a1406b160e11b815260006004820152602401610352565b6001600160a01b038085166000908152600160209081526040808320938716835292905220829055801561036a57826001600160a01b0316846001600160a01b03167f8c5be1e5ebec7d5bd14f71427d1e84f3dd0314c0f7b2291e5b200ac8c7c3b925846040516104cc91815260200190565b60405180910390a350505050565b6001600160a01b0383166105055780600260008282546104fa919061077d565b909155506105779050565b6001600160a01b038316600090815260208190526040902054818110156105585760405163391434e360e21b81526001600160a01b03851660048201526024810182905260448101839052606401610352565b6001600160a01b03841660009081526020819052604090209082900390555b6001600160a01b038216610593576002805482900390556105b2565b6001600160a01b03821660009081526020819052604090208054820190555b816001600160a01b0316836001600160a01b03167fddf252ad1be2c89b69c2b068fc378daa952ba7f163c4a11628f55a4df523b3ef836040516105f791815260200190565b60405180910390a3505050565b60006020808352835180602085015260005b8181101561063257858101830151858201604001528201610616565b506000604082860101526040601f19601f8301168501019250505092915050565b80356001600160a01b038116811461066a57600080fd5b919050565b6000806040838503121561068257600080fd5b61068b83610653565b946020939093013593505050565b6000806000606084860312156106ae57600080fd5b6106b784610653565b92506106c560208501610653565b9150604084013590509250925092565b6000602082840312156106e757600080fd5b5035919050565b60006020828403121561070057600080fd5b61070982610653565b9392505050565b6000806040838503121561072357600080fd5b61072c83610653565b915061073a60208401610653565b90509250929050565b600181811c9082168061075757607f821691505b60208210810361077757634e487b7160e01b600052602260045260246000fd5b50919050565b8082018082111561026e57634e487b7160e01b600052601160045260246000fdfea2646970667358221220c79c1b7681403988f3dee4fc9c3d654186101477c1306ec35a053ad5985a46df64736f6c63430008180033","linkReferences":{}},"methodIdentifiers":{"allowance(address,address)":"dd62ed3e","approve(address,uint256)":"095ea7b3","balanceOf(address)":"70a08231","burn(uint256)":"42966c68","burnFrom(address,uint256)":"79cc6790","decimals()":"313ce567","name()":"06fdde03","symbol()":"95d89b41","totalSupply()":"18160ddd","transfer(address,uint256)":"a9059cbb","transferFrom(address,address,uint256)":"23b872dd"},"id":105}