{"abi":[{"type":"constructor","inputs":[{"name":"_registry","type":"address","internalType":"contract SubnetRegistryDiamond"}],"stateMutability":"nonpayable"},{"type":"function","name":"deploySubnetActorFromRegistry","inputs":[{"name":"_minCollateral","type":"uint256","internalType":"uint256"},{"name":"_minValidators","type":"uint64","internalType":"uint64"},{"name":"_bottomUpCheckPeriod","type":"uint64","internalType":"uint64"},{"name":"_activeValidatorsLimit","type":"uint16","internalType":"uint16"},{"name":"_majorityPercentage","type":"uint8","internalType":"uint8"},{"name":"_minCrossMsgFee","type":"uint256","internalType":"uint256"},{"name":"_pathSize","type":"uint8","internalType":"uint8"},{"name":"_powerScale","type":"int8","internalType":"int8"},{"name":"seed","type":"uint256","internalType":"uint256"}],"outputs":[],"stateMutability":"nonpayable"},{"type":"function","name":"getGateway","inputs":[],"outputs":[{"name":"","type":"address","internalType":"address"}],"stateMutability":"view"},{"type":"function","name":"getOwners","inputs":[],"outputs":[{"name":"","type":"address[]","internalType":"address[]"}],"stateMutability":"view"},{"type":"function","name":"getSubnetDeployedBy","inputs":[{"name":"owner","type":"address","internalType":"address"}],"outputs":[{"name":"subnet","type":"address","internalType":"address"}],"stateMutability":"view"},{"type":"function","name":"getSubnetDeployedWithNonce","inputs":[{"name":"owner","type":"address","internalType":"address"},{"name":"nonce","type":"uint64","internalType":"uint64"}],"outputs":[{"name":"subnet","type":"address","internalType":"address"}],"stateMutability":"view"},{"type":"function","name":"getUserLastNonce","inputs":[{"name":"user","type":"address","internalType":"address"}],"outputs":[{"name":"nonce","type":"uint64","internalType":"uint64"}],"stateMutability":"view"}],"bytecode":{"object":"0x608060405234801561001057600080fd5b50604051610c7f380380610c7f83398101604081905261002f9161005f565b601180546001600160a01b03929092166001600160a01b031992831681179091556012805490921617905561008f565b60006020828403121561007157600080fd5b81516001600160a01b038116811461008857600080fd5b9392505050565b610be18061009e6000396000f3fe608060405234801561001057600080fd5b50600436106100625760003560e01c8063030f60511461006757806342bf3cc11461009757806358b1bc92146100b757806364675ce8146100ca578063a0e67e2b146100df578063ce75761f146100f4575b600080fd5b61007a6100753660046107fa565b610107565b6040516001600160401b0390911681526020015b60405180910390f35b61009f61017c565b6040516001600160a01b03909116815260200161008e565b61009f6100c536600461082c565b6101ef565b6100dd6100d836600461087b565b610274565b005b6100e761062b565b60405161008e9190610925565b61009f6101023660046107fa565b610637565b60125460405163030f605160e01b81526001600160a01b038381166004830152600092169063030f605190602401602060405180830381865afa158015610152573d6000803e3d6000fd5b505050506040513d601f19601f820116820180604052508101906101769190610972565b92915050565b601254604080516342bf3cc160e01b815290516000926001600160a01b0316916342bf3cc19160048083019260209291908290030181865afa1580156101c6573d6000803e3d6000fd5b505050506040513d601f19601f820116820180604052508101906101ea919061098f565b905090565b601254604051639836b75f60e01b81526001600160a01b0384811660048301526001600160401b03841660248301526000921690639836b75f90604401602060405180830381865afa158015610249573d6000803e3d6000fd5b505050506040513d601f19601f8201168201806040525081019061026d919061098f565b9392505050565b670de0b6b3a7640000891180610288575088155b1561029957670de0b6b3a764000098505b600a6001600160401b03881611806102b857506001600160401b038716155b156102c257600a96505b60338560ff1610806102d7575060648560ff16115b156102e157604694505b6012600083900b13156102f357601291505b60016001600160401b038916118061031257506001600160401b038816155b1561031c57600197505b60058360ff16111561032d57600192505b670de0b6b3a7640000841180610341575083155b1561034f576402540be40093505b603261ffff87161180610364575061ffff8616155b1561036e57603295505b60008360ff166001600160401b0381111561038b5761038b6109ac565b6040519080825280602002602001820160405280156103b4578160200160208202803683370190505b50905060005b8460ff168110156103f857808282815181106103d8576103d86109c2565b6001600160a01b03909216602092830291909101909101526001016103ba565b5060006040518061016001604052808c81526020018b6001600160401b031681526020018a6001600160401b03168152602001601260009054906101000a90046001600160a01b03166001600160a01b03166342bf3cc16040518163ffffffff1660e01b8152600401602060405180830381865afa15801561047e573d6000803e3d6000fd5b505050506040513d601f19601f820116820180604052508101906104a2919061098f565b6001600160a01b0316815261ffff8a16602082015260ff8916604082015260006060820181905286810b608083015260a082015260c0016105046040805180820182526000808252602091820181905282518084019093528083529082015290565b815260408051808201909152607b81526020818101869052909101529050600061052d846106a6565b60405163ca669fa760e01b81526001600160a01b0382166004820152909150737109709ecfa91a80626ff3989d68f67f5b1dd12d9063ca669fa790602401600060405180830381600087803b15801561058557600080fd5b505af1158015610599573d6000803e3d6000fd5b505060115460405163fc3b0ad360e01b81526001600160a01b03909116925063fc3b0ad391506105cd908590600401610aa5565b6020604051808303816000875af11580156105ec573d6000803e3d6000fd5b505050506040513d601f19601f82011682018060405250810190610610919061098f565b5061061c600f8261070b565b50505050505050505050505050565b60606101ea600f610720565b601254604051631163dca560e01b81526001600160a01b0383811660048301526000921690631163dca590602401602060405180830381865afa158015610682573d6000803e3d6000fd5b505050506040513d601f19601f82011682018060405250810190610176919061098f565b6000806106b3600f61072d565b90508015806106ca57506106c8600484610b89565b155b156106d757503392915050565b6106e1600f610720565b6106eb8285610b89565b815181106106fb576106fb6109c2565b6020026020010151915050919050565b600061026d836001600160a01b038416610737565b6060600061026d83610786565b6000610176825490565b600081815260018301602052604081205461077e57508154600181810184556000848152602080822090930184905584548482528286019093526040902091909155610176565b506000610176565b6060816000018054806020026020016040519081016040528092919081815260200182805480156107d657602002820191906000526020600020905b8154815260200190600101908083116107c2575b50505050509050919050565b6001600160a01b03811681146107f757600080fd5b50565b60006020828403121561080c57600080fd5b813561026d816107e2565b6001600160401b03811681146107f757600080fd5b6000806040838503121561083f57600080fd5b823561084a816107e2565b9150602083013561085a81610817565b809150509250929050565b803560ff8116811461087657600080fd5b919050565b60008060008060008060008060006101208a8c03121561089a57600080fd5b8935985060208a01356108ac81610817565b975060408a01356108bc81610817565b965060608a013561ffff811681146108d357600080fd5b95506108e160808b01610865565b945060a08a013593506108f660c08b01610865565b925060e08a01358060000b811461090c57600080fd5b809250506101008a013590509295985092959850929598565b6020808252825182820181905260009190848201906040850190845b818110156109665783516001600160a01b031683529284019291840191600101610941565b50909695505050505050565b60006020828403121561098457600080fd5b815161026d81610817565b6000602082840312156109a157600080fd5b815161026d816107e2565b634e487b7160e01b600052604160045260246000fd5b634e487b7160e01b600052603260045260246000fd5b634e487b7160e01b600052602160045260246000fd5b600181106109fe576109fe6109d8565b9052565b600381106109fe576109fe6109d8565b805160028110610a2457610a246109d8565b82526020908101516001600160a01b0316910152565b6000604083016001600160401b03835116845260208084015160406020870152828151808552606088019150602083019450600092505b80831015610a9a5784516001600160a01b03168252938301936001929092019190830190610a71565b509695505050505050565b602081528151602082015260006020830151610acc60408401826001600160401b03169052565b5060408301516001600160401b03811660608401525060608301516001600160a01b038116608084015250608083015161ffff811660a08401525060a083015160ff811660c08401525060c0830151610b2860e08401826109ee565b5060e0830151610100610b3f8185018360000b9052565b8401519050610120610b5384820183610a02565b8401519050610140610b6784820183610a12565b840151610180848101529050610b816101a0840182610a3a565b949350505050565b600082610ba657634e487b7160e01b600052601260045260246000fd5b50069056fea264697066735822122044b39b5cd17ce501961a9d2ca94b04e7ee4b05668aba7ca60b012d880547d35464736f6c63430008180033","linkReferences":{}},"methodIdentifiers":{"deploySubnetActorFromRegistry(uint256,uint64,uint64,uint16,uint8,uint256,uint8,int8,uint256)":"64675ce8","getGateway()":"42bf3cc1","getOwners()":"a0e67e2b","getSubnetDeployedBy(address)":"ce75761f","getSubnetDeployedWithNonce(address,uint64)":"58b1bc92","getUserLastNonce(address)":"030f6051"},"id":129}