{"abi":[{"type":"function","name":"activeValidatorsLimit","inputs":[],"outputs":[{"name":"","type":"uint16","internalType":"uint16"}],"stateMutability":"view"},{"type":"function","name":"bootstrapped","inputs":[],"outputs":[{"name":"","type":"bool","internalType":"bool"}],"stateMutability":"view"},{"type":"function","name":"bottomUpCheckPeriod","inputs":[],"outputs":[{"name":"","type":"uint256","internalType":"uint256"}],"stateMutability":"view"},{"type":"function","name":"bottomUpCheckpointAtEpoch","inputs":[{"name":"epoch","type":"uint256","internalType":"uint256"}],"outputs":[{"name":"exists","type":"bool","internalType":"bool"},{"name":"checkpoint","type":"tuple","internalType":"struct BottomUpCheckpoint","components":[{"name":"subnetID","type":"tuple","internalType":"struct SubnetID","components":[{"name":"root","type":"uint64","internalType":"uint64"},{"name":"route","type":"address[]","internalType":"address[]"}]},{"name":"blockHeight","type":"uint256","internalType":"uint256"},{"name":"blockHash","type":"bytes32","internalType":"bytes32"},{"name":"nextConfigurationNumber","type":"uint64","internalType":"uint64"},{"name":"msgs","type":"tuple[]","internalType":"struct IpcEnvelope[]","components":[{"name":"kind","type":"uint8","internalType":"enum IpcMsgKind"},{"name":"to","type":"tuple","internalType":"struct IPCAddress","components":[{"name":"subnetId","type":"tuple","internalType":"struct SubnetID","components":[{"name":"root","type":"uint64","internalType":"uint64"},{"name":"route","type":"address[]","internalType":"address[]"}]},{"name":"rawAddress","type":"tuple","internalType":"struct FvmAddress","components":[{"name":"addrType","type":"uint8","internalType":"uint8"},{"name":"payload","type":"bytes","internalType":"bytes"}]}]},{"name":"from","type":"tuple","internalType":"struct IPCAddress","components":[{"name":"subnetId","type":"tuple","internalType":"struct SubnetID","components":[{"name":"root","type":"uint64","internalType":"uint64"},{"name":"route","type":"address[]","internalType":"address[]"}]},{"name":"rawAddress","type":"tuple","internalType":"struct FvmAddress","components":[{"name":"addrType","type":"uint8","internalType":"uint8"},{"name":"payload","type":"bytes","internalType":"bytes"}]}]},{"name":"nonce","type":"uint64","internalType":"uint64"},{"name":"value","type":"uint256","internalType":"uint256"},{"name":"message","type":"bytes","internalType":"bytes"}]}]}],"stateMutability":"view"},{"type":"function","name":"bottomUpCheckpointHashAtEpoch","inputs":[{"name":"epoch","type":"uint256","internalType":"uint256"}],"outputs":[{"name":"","type":"bool","internalType":"bool"},{"name":"","type":"bytes32","internalType":"bytes32"}],"stateMutability":"view"},{"type":"function","name":"consensus","inputs":[],"outputs":[{"name":"","type":"uint8","internalType":"enum ConsensusType"}],"stateMutability":"view"},{"type":"function","name":"crossMsgsHash","inputs":[{"name":"messages","type":"tuple[]","internalType":"struct IpcEnvelope[]","components":[{"name":"kind","type":"uint8","internalType":"enum IpcMsgKind"},{"name":"to","type":"tuple","internalType":"struct IPCAddress","components":[{"name":"subnetId","type":"tuple","internalType":"struct SubnetID","components":[{"name":"root","type":"uint64","internalType":"uint64"},{"name":"route","type":"address[]","internalType":"address[]"}]},{"name":"rawAddress","type":"tuple","internalType":"struct FvmAddress","components":[{"name":"addrType","type":"uint8","internalType":"uint8"},{"name":"payload","type":"bytes","internalType":"bytes"}]}]},{"name":"from","type":"tuple","internalType":"struct IPCAddress","components":[{"name":"subnetId","type":"tuple","internalType":"struct SubnetID","components":[{"name":"root","type":"uint64","internalType":"uint64"},{"name":"route","type":"address[]","internalType":"address[]"}]},{"name":"rawAddress","type":"tuple","internalType":"struct FvmAddress","components":[{"name":"addrType","type":"uint8","internalType":"uint8"},{"name":"payload","type":"bytes","internalType":"bytes"}]}]},{"name":"nonce","type":"uint64","internalType":"uint64"},{"name":"value","type":"uint256","internalType":"uint256"},{"name":"message","type":"bytes","internalType":"bytes"}]}],"outputs":[{"name":"","type":"bytes32","internalType":"bytes32"}],"stateMutability":"pure"},{"type":"function","name":"genesisBalances","inputs":[],"outputs":[{"name":"","type":"address[]","internalType":"address[]"},{"name":"","type":"uint256[]","internalType":"uint256[]"}],"stateMutability":"view"},{"type":"function","name":"genesisCircSupply","inputs":[],"outputs":[{"name":"","type":"uint256","internalType":"uint256"}],"stateMutability":"view"},{"type":"function","name":"genesisValidators","inputs":[],"outputs":[{"name":"","type":"tuple[]","internalType":"struct Validator[]","components":[{"name":"weight","type":"uint256","internalType":"uint256"},{"name":"addr","type":"address","internalType":"address"},{"name":"metadata","type":"bytes","internalType":"bytes"}]}],"stateMutability":"view"},{"type":"function","name":"getActiveValidatorsNumber","inputs":[],"outputs":[{"name":"","type":"uint16","internalType":"uint16"}],"stateMutability":"view"},{"type":"function","name":"getBootstrapNodes","inputs":[],"outputs":[{"name":"","type":"string[]","internalType":"string[]"}],"stateMutability":"view"},{"type":"function","name":"getConfigurationNumbers","inputs":[],"outputs":[{"name":"","type":"uint64","internalType":"uint64"},{"name":"","type":"uint64","internalType":"uint64"}],"stateMutability":"view"},{"type":"function","name":"getParent","inputs":[],"outputs":[{"name":"","type":"tuple","internalType":"struct SubnetID","components":[{"name":"root","type":"uint64","internalType":"uint64"},{"name":"route","type":"address[]","internalType":"address[]"}]}],"stateMutability":"view"},{"type":"function","name":"getPower","inputs":[{"name":"validator","type":"address","internalType":"address"}],"outputs":[{"name":"","type":"uint256","internalType":"uint256"}],"stateMutability":"view"},{"type":"function","name":"getTotalCollateral","inputs":[],"outputs":[{"name":"","type":"uint256","internalType":"uint256"}],"stateMutability":"view"},{"type":"function","name":"getTotalConfirmedCollateral","inputs":[],"outputs":[{"name":"","type":"uint256","internalType":"uint256"}],"stateMutability":"view"},{"type":"function","name":"getTotalValidatorCollateral","inputs":[{"name":"validator","type":"address","internalType":"address"}],"outputs":[{"name":"","type":"uint256","internalType":"uint256"}],"stateMutability":"view"},{"type":"function","name":"getTotalValidatorsNumber","inputs":[],"outputs":[{"name":"","type":"uint16","internalType":"uint16"}],"stateMutability":"view"},{"type":"function","name":"getValidator","inputs":[{"name":"validatorAddress","type":"address","internalType":"address"}],"outputs":[{"name":"validator","type":"tuple","internalType":"struct ValidatorInfo","components":[{"name":"federatedPower","type":"uint256","internalType":"uint256"},{"name":"confirmedCollateral","type":"uint256","internalType":"uint256"},{"name":"totalCollateral","type":"uint256","internalType":"uint256"},{"name":"metadata","type":"bytes","internalType":"bytes"}]}],"stateMutability":"view"},{"type":"function","name":"ipcGatewayAddr","inputs":[],"outputs":[{"name":"","type":"address","internalType":"address"}],"stateMutability":"view"},{"type":"function","name":"isActiveValidator","inputs":[{"name":"validator","type":"address","internalType":"address"}],"outputs":[{"name":"","type":"bool","internalType":"bool"}],"stateMutability":"view"},{"type":"function","name":"isWaitingValidator","inputs":[{"name":"validator","type":"address","internalType":"address"}],"outputs":[{"name":"","type":"bool","internalType":"bool"}],"stateMutability":"view"},{"type":"function","name":"killed","inputs":[],"outputs":[{"name":"","type":"bool","internalType":"bool"}],"stateMutability":"view"},{"type":"function","name":"lastBottomUpCheckpointHeight","inputs":[],"outputs":[{"name":"","type":"uint256","internalType":"uint256"}],"stateMutability":"view"},{"type":"function","name":"majorityPercentage","inputs":[],"outputs":[{"name":"","type":"uint8","internalType":"uint8"}],"stateMutability":"view"},{"type":"function","name":"minActivationCollateral","inputs":[],"outputs":[{"name":"","type":"uint256","internalType":"uint256"}],"stateMutability":"view"},{"type":"function","name":"minValidators","inputs":[],"outputs":[{"name":"","type":"uint64","internalType":"uint64"}],"stateMutability":"view"},{"type":"function","name":"permissionMode","inputs":[],"outputs":[{"name":"","type":"uint8","internalType":"enum PermissionMode"}],"stateMutability":"view"},{"type":"function","name":"powerScale","inputs":[],"outputs":[{"name":"","type":"int8","internalType":"int8"}],"stateMutability":"view"},{"type":"function","name":"supplySource","inputs":[],"outputs":[{"name":"supply","type":"tuple","internalType":"struct SupplySource","components":[{"name":"kind","type":"uint8","internalType":"enum SupplyKind"},{"name":"tokenAddress","type":"address","internalType":"address"}]}],"stateMutability":"view"}],"bytecode":{"object":"0x608060405234801561001057600080fd5b50611b7b806100206000396000f3fe608060405234801561001057600080fd5b50600436106101e55760003560e01c806380875df71161010f578063c5ab2241116100a2578063d6eb591011610071578063d6eb591014610252578063d92e8f1214610441578063e02d971b14610456578063f0cf6c961461046957600080fd5b8063c5ab2241146103f0578063c7cda7621461040b578063cfca282414610413578063d081be031461042e57600080fd5b8063948628a9116100de578063948628a9146103b05780639754b29e146103b85780639e33bd02146103cd578063ad81e4d6146103d557600080fd5b806380875df71461035657806380f760211461036b5780638ef3f76114610380578063903e69301461039a57600080fd5b806338a210b31161018757806352d182d11161015657806352d182d114610314578063599c7bd11461031c5780635dd9147c1461033b57806372d0a0e01461034e57600080fd5b806338a210b31461028c57806340550a1c146102b65780634b0694e2146102c95780634b27aa72146102f357600080fd5b80631f3a0e41116101c35780631f3a0e4114610234578063332a5ac9146102525780633354c3e11461025a57806335142c8c1461027a57600080fd5b806306c46853146101ea5780631597bf7e146102015780631904bb2e14610214575b600080fd5b6003545b6040519081526020015b60405180910390f35b6101ee61020f36600461123e565b61047c565b61022761022236600461123e565b61049f565b6040516101f8919061129f565b600654600160401b900460ff165b60405190151581526020016101f8565b6101ee6105b7565b600a54610100900461ffff165b60405161ffff90911681526020016101f8565b600554600160f81b900460ff16610242565b601354604080516001600160401b038084168252600160401b9093049092166020830152016101f8565b6102426102c436600461123e565b6105c6565b6102dc6102d73660046112e0565b6105d1565b6040805192151583526020830191909152016101f8565b6103066103013660046112e0565b610617565b6040516101f89291906114ee565b610267610b7d565b600554600160e01b900460ff1660405160ff90911681526020016101f8565b6101ee61034936600461123e565b610b87565b6001546101ee565b61035e610b92565b6040516101f89190611509565b610373610bf8565b6040516101f8919061153c565b600554600160f01b900460ff166040516101f8919061154f565b6103a2610c8d565b6040516101f8929190611569565b6000546101ee565b6103c0610dd5565b6040516101f891906115ed565b6002546101ee565b600554604051600160e81b90910460000b81526020016101f8565b6006546040516001600160401b0390911681526020016101f8565b610267610f54565b6005546040516001600160a01b0390911681526020016101f8565b61024261043c36600461123e565b610f5e565b610449610f69565b6040516101f89190611651565b6101ee6104643660046116db565b61107d565b600a5460ff166040516101f8919061174f565b6001600160a01b0381166000908152600c60205260408120600201545b92915050565b6104ca6040518060800160405280600081526020016000815260200160008152602001606081525090565b6000600a016002016000836001600160a01b03166001600160a01b0316815260200190815260200160002060405180608001604052908160008201548152602001600182015481526020016002820154815260200160038201805461052e9061175c565b80601f016020809104026020016040519081016040528092919081815260200182805461055a9061175c565b80156105a75780601f1061057c576101008083540402835291602001916105a7565b820191906000526020600020905b81548152906001019060200180831161058a57829003601f168201915b5050505050815250509050919050565b60006105c16110b0565b905090565b6000610499826110bf565b6000806000806105e085610617565b9150915081816040516020016105f69190611796565b60405160208183030381529060405280519060200120935093505050915091565b60006106576040805160e081018252600060a08201818152606060c084018190529083526020830182905292820181905282820152608081019190915290565b6000838152601a6020908152604091829020825160e08101845281546001600160401b031660a082019081526001830180548651818702810187019097528087529295939486949293869360c087019390929091908301828280156106e557602002820191906000526020600020905b81546001600160a01b031681526001909101906020018083116106c7575b505050505081525050815260200160028201548152602001600382015481526020016004820160009054906101000a90046001600160401b03166001600160401b03166001600160401b0316815260200160058201805480602002602001604051908101604052809291908181526020016000905b82821015610af3576000848152602090206040805160c08101909152600c84029091018054829060ff16600281111561079557610795611364565b60028111156107a6576107a6611364565b8152604080516080810182526001840180546001600160401b031682840190815260028601805485516020828102820181019097528181529686019694959394869486936060870193909183018282801561082a57602002820191906000526020600020905b81546001600160a01b0316815260019091019060200180831161080c575b5050509190925250505081526040805180820190915260028301805460ff168252600384018054602094850194840191906108649061175c565b80601f01602080910402602001604051908101604052809291908181526020018280546108909061175c565b80156108dd5780601f106108b2576101008083540402835291602001916108dd565b820191906000526020600020905b8154815290600101906020018083116108c057829003601f168201915b505050919092525050509052508152604080516080810182526005840180546001600160401b031682840190815260068601805485516020828102820181019097528181529686019694959394869486936060870193909183018282801561096e57602002820191906000526020600020905b81546001600160a01b03168152600190910190602001808311610950575b5050509190925250505081526040805180820190915260028301805460ff168252600384018054602094850194840191906109a89061175c565b80601f01602080910402602001604051908101604052809291908181526020018280546109d49061175c565b8015610a215780601f106109f657610100808354040283529160200191610a21565b820191906000526020600020905b815481529060010190602001808311610a0457829003601f168201915b50505091909252505050905250815260098201546001600160401b03166020820152600a8201546040820152600b82018054606090920191610a629061175c565b80601f0160208091040260200160405190810160405280929190818152602001828054610a8e9061175c565b8015610adb5780601f10610ab057610100808354040283529160200191610adb565b820191906000526020600020905b815481529060010190602001808311610abe57829003601f168201915b5050505050815250508152602001906001019061075a565b505050915250508051604051630c133d1360e31b815291925073__$a0fe38a9a81205afccc10810b09a4d3f45$__91636099e89891610b34916004016117a9565b602060405180830381865af4158015610b51573d6000803e3d6000fd5b505050506040513d601f19601f82011682018060405250810190610b759190611808565b159150915091565b60006105c16110d4565b6000610499826110f0565b60408051808201909152600080825260208201526040805180820190915260078054829060ff166001811115610bca57610bca611364565b6001811115610bdb57610bdb611364565b8152905461010090046001600160a01b0316602090910152919050565b604080518082019091526000815260606020820152604080518082018252600880546001600160401b03168252600980548451602082810282018101909652818152939492938386019390929190830182828015610c7f57602002820191906000526020600020905b81546001600160a01b03168152600190910190602001808311610c61575b505050505081525050905090565b601d5460609081906000816001600160401b03811115610caf57610caf61182a565b604051908082528060200260200182016040528015610cd8578160200160208202803683370190505b5090506000826001600160401b03811115610cf557610cf561182a565b604051908082528060200260200182016040528015610d1e578160200160208202803683370190505b50905060005b83811015610dca57600080601d018281548110610d4357610d43611840565b9060005260206000200160009054906101000a90046001600160a01b0316905080848381518110610d7657610d76611840565b6001600160a01b039283166020918202929092018101919091529082166000908152601c90915260409020548351849084908110610db657610db6611840565b602090810291909101015250600101610d24565b509094909350915050565b60606000610de360186110fe565b90506000816001600160401b03811115610dff57610dff61182a565b604051908082528060200260200182016040528015610e3257816020015b6060815260200190600190039081610e1d5790505b50905081600003610e435792915050565b6000610e4f6018611108565b905060005b83811015610f4b5760006017016000838381518110610e7557610e75611840565b60200260200101516001600160a01b03166001600160a01b031681526020019081526020016000208054610ea89061175c565b80601f0160208091040260200160405190810160405280929190818152602001828054610ed49061175c565b8015610f215780601f10610ef657610100808354040283529160200191610f21565b820191906000526020600020905b815481529060010190602001808311610f0457829003601f168201915b5050505050838281518110610f3857610f38611840565b6020908102919091010152600101610e54565b50909392505050565b60006105c1611115565b600061049982611122565b60606000601b01805480602002602001604051908101604052809291908181526020016000905b8282101561107457600084815260209081902060408051606081018252600386029092018054835260018101546001600160a01b03169383019390935260028301805492939291840191610fe39061175c565b80601f016020809104026020016040519081016040528092919081815260200182805461100f9061175c565b801561105c5780601f106110315761010080835404028352916020019161105c565b820191906000526020600020905b81548152906001019060200180831161103f57829003601f168201915b50505050508152505081526020019060010190610f90565b50505050905090565b60008282604051602001611092929190611a16565b60405160208183030381529060405280519060200120905092915050565b600b5460009081905b91505090565b6000806110cd600d8461112c565b9392505050565b600d5460105460009182916110b99161ffff9081169116611b15565b6000806110cd600a84611152565b6000610499825490565b606060006110cd836111b5565b6000806110b9600a611211565b6000806110cd6010845b6001600160a01b038116600090815260018301602052604081205461ffff1615156110cd565b60006001835460ff16600281111561116c5761116c611364565b0361119257506001600160a01b0381166000908152600283016020526040902054610499565b506001600160a01b03166000908152600291909101602052604090206001015490565b60608160000180548060200260200160405190810160405280929190818152602001828054801561120557602002820191906000526020600020905b8154815260200190600101908083116111f1575b50505050509050919050565b6000610499826003015461ffff1690565b80356001600160a01b038116811461123957600080fd5b919050565b60006020828403121561125057600080fd5b6110cd82611222565b6000815180845260005b8181101561127f57602081850181015186830182015201611263565b506000602082860101526020601f19601f83011685010191505092915050565b60208152815160208201526020820151604082015260408201516060820152600060608301516080808401526112d860a0840182611259565b949350505050565b6000602082840312156112f257600080fd5b5035919050565b6000604083016001600160401b03835116845260208084015160406020870152828151808552606088019150602083019450600092505b808310156113595784516001600160a01b03168252938301936001929092019190830190611330565b509695505050505050565b634e487b7160e01b600052602160045260246000fd5b6003811061138a5761138a611364565b50565b60008151604084526113a260408501826112f9565b90506020830151848203602086015260ff815116825260208101519050604060208301526113d36040830182611259565b95945050505050565b600060a0825160a085526113f360a08601826112f9565b90506020808501518187015260408086015160408801526060808701516001600160401b0380821660608b01526080915060808901518a870360808c01528681518089528789019150878160051b8a0101888401935060005b828110156114dc57601f198b8303018452845160c0815161146c8161137a565b8452818c01518c85018290526114848286018261138d565b9150508a8201518482038c86015261149c828261138d565b915050878a830151168a85015288820151898501528d82015191508381038e8501526114c88183611259565b968c0196958c01959350505060010161144c565b509d9c50505050505050505050505050565b82151581526040602082015260006112d860408301846113dc565b815160408201906002811061152057611520611364565b82526020928301516001600160a01b0316929091019190915290565b6020815260006110cd60208301846112f9565b602081016001831061156357611563611364565b91905290565b604080825283519082018190526000906020906060840190828701845b828110156115ab5781516001600160a01b031684529284019290840190600101611586565b5050508381038285015284518082528583019183019060005b818110156115e0578351835292840192918401916001016115c4565b5090979650505050505050565b600060208083016020845280855180835260408601915060408160051b87010192506020870160005b8281101561164457603f19888603018452611632858351611259565b94509285019290850190600101611616565b5092979650505050505050565b600060208083018184528085518083526040925060408601915060408160051b87010184880160005b838110156116cd57888303603f19018552815180518452878101516001600160a01b03168885015286015160608785018190526116b981860183611259565b96890196945050509086019060010161167a565b509098975050505050505050565b600080602083850312156116ee57600080fd5b82356001600160401b038082111561170557600080fd5b818501915085601f83011261171957600080fd5b81358181111561172857600080fd5b8660208260051b850101111561173d57600080fd5b60209290920196919550909350505050565b602081016115638361137a565b600181811c9082168061177057607f821691505b60208210810361179057634e487b7160e01b600052602260045260246000fd5b50919050565b6020815260006110cd60208301846113dc565b602080825282516001600160401b0316828201528281015160408084015280516060840181905260009291820190839060808601905b808310156113595783516001600160a01b031682529284019260019290920191908401906117df565b60006020828403121561181a57600080fd5b815180151581146110cd57600080fd5b634e487b7160e01b600052604160045260246000fd5b634e487b7160e01b600052603260045260246000fd5b60008235603e1983360301811261186c57600080fd5b90910192915050565b80356001600160401b038116811461123957600080fd5b6000808335601e198436030181126118a357600080fd5b83016020810192503590506001600160401b038111156118c257600080fd5b8036038213156118d157600080fd5b9250929050565b81835281816020850137506000828201602090810191909152601f909101601f19169091010190565b6000813560ff811680821461191557600080fd5b845250611925602083018361188c565b604060208601526113d36040860182846118d8565b60006119468283611856565b60408452608084016001600160401b038061196084611875565b166040870152602080840135601e1985360301811261197e57600080fd5b9093018381019390358281111561199457600080fd5b8060051b36038513156119a657600080fd5b604060608901529283905260009260a0880192505b808410156119eb576001600160a01b036119d486611222565b1683529381019360019390930192918101916119bb565b506119f881870187611856565b93508682038188015250611a0c8184611901565b9695505050505050565b60208082528181018390526000906040808401600586901b8501820187855b888110156116cd57878303603f190184528135368b900360be19018112611a5b57600080fd5b8a0160c0813560038110611a6e57600080fd5b611a778161137a565b8552611a8582890183611856565b8189870152611a968287018261193a565b915050611aa587830183611856565b85820388870152611ab6828261193a565b91505060606001600160401b03611ace828501611875565b16908601526080828101359086015260a0611aeb8184018461188c565b935086830382880152611aff8385836118d8565b978a019796505050928701925050600101611a35565b61ffff818116838216019080821115611b3e57634e487b7160e01b600052601160045260246000fd5b509291505056fea264697066735822122057a66236db2947f420418d87739939f8605b8173a5272fa5c5b6d8eefc63a81264736f6c63430008180033","linkReferences":{"src/lib/SubnetIDHelper.sol":{"SubnetIDHelper":[{"start":2862,"length":20}]}}},"methodIdentifiers":{"activeValidatorsLimit()":"3354c3e1","bootstrapped()":"35142c8c","bottomUpCheckPeriod()":"06c46853","bottomUpCheckpointAtEpoch(uint256)":"4b27aa72","bottomUpCheckpointHashAtEpoch(uint256)":"4b0694e2","consensus()":"8ef3f761","crossMsgsHash((uint8,((uint64,address[]),(uint8,bytes)),((uint64,address[]),(uint8,bytes)),uint64,uint256,bytes)[])":"e02d971b","genesisBalances()":"903e6930","genesisCircSupply()":"948628a9","genesisValidators()":"d92e8f12","getActiveValidatorsNumber()":"c7cda762","getBootstrapNodes()":"9754b29e","getConfigurationNumbers()":"38a210b3","getParent()":"80f76021","getPower(address)":"5dd9147c","getTotalCollateral()":"d6eb5910","getTotalConfirmedCollateral()":"332a5ac9","getTotalValidatorCollateral(address)":"1597bf7e","getTotalValidatorsNumber()":"52d182d1","getValidator(address)":"1904bb2e","ipcGatewayAddr()":"cfca2824","isActiveValidator(address)":"40550a1c","isWaitingValidator(address)":"d081be03","killed()":"1f3a0e41","lastBottomUpCheckpointHeight()":"72d0a0e0","majorityPercentage()":"599c7bd1","minActivationCollateral()":"9e33bd02","minValidators()":"c5ab2241","permissionMode()":"f0cf6c96","powerScale()":"ad81e4d6","supplySource()":"80875df7"},"id":95}