{"abi":[{"type":"function","name":"currentEpoch","inputs":[],"outputs":[{"name":"","type":"uint256","internalType":"uint256"}],"stateMutability":"view"},{"type":"function","name":"epochDuration","inputs":[],"outputs":[{"name":"","type":"uint256","internalType":"uint256"}],"stateMutability":"view"},{"type":"function","name":"initTimestamp","inputs":[],"outputs":[{"name":"","type":"uint256","internalType":"uint256"}],"stateMutability":"view"},{"type":"event","name":"Initialized","inputs":[{"name":"version","type":"uint8","indexed":false,"internalType":"uint8"}],"anonymous":false}],"bytecode":{"object":"0x60808060405234610016576101a7908161001c8239f35b600080fdfe608080604052600436101561001357600080fd5b600090813560e01c9081634ff0876a14610104575080637358c57a146100d95763766718081461004257600080fd5b346100d657806003193601126100d6576000805160206101528339815191525442034281116100c257600080516020610132833981519152549081156100ae5704600101908160011161009a57602082604051908152f35b634e487b7160e01b81526011600452602490fd5b634e487b7160e01b83526012600452602483fd5b634e487b7160e01b82526011600452602482fd5b80fd5b50346100d657806003193601126100d657602060008051602061015283398151915254604051908152f35b90503461012d578160031936011261012d57602090600080516020610132833981519152548152f35b5080fdfe7d4f8ec43464738265ced6b7ed5f90007e9b7c34318bdd82d9249328b50bd3587d4f8ec43464738265ced6b7ed5f90007e9b7c34318bdd82d9249328b50bd357a2646970667358221220b185727e9a8fd0ca9c53637d427674ab2f64a6e4fde162b8be600ec101cdc51c64736f6c63430008180033","linkReferences":{}},"methodIdentifiers":{"currentEpoch()":"76671808","epochDuration()":"4ff0876a","initTimestamp()":"7358c57a"},"storageLayout":{"storage":[{"astId":4469,"contract":"src/core/EpochController.sol:EpochController","label":"_initialized","offset":0,"slot":"0","type":"t_uint8"},{"astId":4472,"contract":"src/core/EpochController.sol:EpochController","label":"_initializing","offset":1,"slot":"0","type":"t_bool"}],"types":{"t_bool":{"encoding":"inplace","label":"bool","numberOfBytes":"1"},"t_uint8":{"encoding":"inplace","label":"uint8","numberOfBytes":"1"}}},"devdoc":{"version":1,"kind":"dev","methods":{"currentEpoch()":{"details":"This function mirrored in:- ts-client/src/dealMatcherClient/dealMatcherClient.ts- subgraph/src/contracts.ts"},"epochDuration()":{"details":"Returns epoch duration","returns":{"_0":"epochDuration in seconds"}},"initTimestamp()":{"details":"Returns epoch init timestamp","returns":{"_0":"initTimestamp in seconds"}}},"events":{"Initialized(uint8)":{"details":"Triggered when the contract has been initialized or reinitialized."}}},"id":71}