{"abi":[{"type":"constructor","inputs":[],"stateMutability":"nonpayable"},{"type":"receive","stateMutability":"payable"},{"type":"function","name":"UPGRADE_INTERFACE_VERSION","inputs":[],"outputs":[{"name":"","type":"string","internalType":"string"}],"stateMutability":"view"},{"type":"function","name":"initialize","inputs":[{"name":"usdToken_","type":"address","internalType":"contract IERC20"}],"outputs":[],"stateMutability":"nonpayable"},{"type":"function","name":"multicall","inputs":[{"name":"data","type":"bytes[]","internalType":"bytes[]"}],"outputs":[{"name":"results","type":"bytes[]","internalType":"bytes[]"}],"stateMutability":"nonpayable"},{"type":"function","name":"owner","inputs":[],"outputs":[{"name":"","type":"address","internalType":"address"}],"stateMutability":"view"},{"type":"function","name":"proxiableUUID","inputs":[],"outputs":[{"name":"","type":"bytes32","internalType":"bytes32"}],"stateMutability":"view"},{"type":"function","name":"renounceOwnership","inputs":[],"outputs":[],"stateMutability":"nonpayable"},{"type":"function","name":"sendFLT","inputs":[{"name":"addr","type":"address","internalType":"address"},{"name":"value","type":"uint256","internalType":"uint256"}],"outputs":[],"stateMutability":"nonpayable"},{"type":"function","name":"sendUSD","inputs":[{"name":"addr","type":"address","internalType":"address"},{"name":"value","type":"uint256","internalType":"uint256"}],"outputs":[],"stateMutability":"nonpayable"},{"type":"function","name":"transferOwnership","inputs":[{"name":"newOwner","type":"address","internalType":"address"}],"outputs":[],"stateMutability":"nonpayable"},{"type":"function","name":"upgradeToAndCall","inputs":[{"name":"newImplementation","type":"address","internalType":"address"},{"name":"data","type":"bytes","internalType":"bytes"}],"outputs":[],"stateMutability":"payable"},{"type":"function","name":"usdToken","inputs":[],"outputs":[{"name":"","type":"address","internalType":"contract IERC20"}],"stateMutability":"view"},{"type":"event","name":"Initialized","inputs":[{"name":"version","type":"uint64","indexed":false,"internalType":"uint64"}],"anonymous":false},{"type":"event","name":"OwnershipTransferred","inputs":[{"name":"previousOwner","type":"address","indexed":true,"internalType":"address"},{"name":"newOwner","type":"address","indexed":true,"internalType":"address"}],"anonymous":false},{"type":"event","name":"Upgraded","inputs":[{"name":"implementation","type":"address","indexed":true,"internalType":"address"}],"anonymous":false},{"type":"error","name":"AddressEmptyCode","inputs":[{"name":"target","type":"address","internalType":"address"}]},{"type":"error","name":"ERC1967InvalidImplementation","inputs":[{"name":"implementation","type":"address","internalType":"address"}]},{"type":"error","name":"ERC1967NonPayable","inputs":[]},{"type":"error","name":"FailedCall","inputs":[]},{"type":"error","name":"InvalidInitialization","inputs":[]},{"type":"error","name":"NotInitializing","inputs":[]},{"type":"error","name":"OwnableInvalidOwner","inputs":[{"name":"owner","type":"address","internalType":"address"}]},{"type":"error","name":"OwnableUnauthorizedAccount","inputs":[{"name":"account","type":"address","internalType":"address"}]},{"type":"error","name":"UUPSUnauthorizedCallContext","inputs":[]},{"type":"error","name":"UUPSUnsupportedProxiableUUID","inputs":[{"name":"slot","type":"bytes32","internalType":"bytes32"}]}],"bytecode":{"object":"0x60a080604052346100e857306080527ff0c57e16840df040f15088dc2f81fe391c3923bec73e23a9662efc9c229c6a005460ff8160401c166100d9576002600160401b03196001600160401b03821601610073575b604051610b8290816100ed823960805181818161050301526105d20152f35b6001600160401b0319166001600160401b039081177ff0c57e16840df040f15088dc2f81fe391c3923bec73e23a9662efc9c229c6a005581527fc7f505b2f371ae2175ee4913f4499e1f2633a7b5936321eed1cdaeb6115181d290602090a15f80610054565b63f92ee8a960e01b5f5260045ffd5b5f80fdfe6080604052600436101561001a575b3615610018575f80fd5b005b5f3560e01c80630af76b8f146108025780633922f542146107605780634f1ef2861461055757806352d1902d146104f1578063715018a61461049d5780638da5cb5b14610469578063ac9650d8146102a2578063ad3cb1cc14610257578063c4d66de8146100eb578063f2fde38b146100c25763f897a22b0361000e57346100be575f3660031901126100be575f546040516001600160a01b039091168152602090f35b5f80fd5b346100be5760203660031901126100be576100186100de6108b8565b6100e6610a10565b6109b2565b346100be5760203660031901126100be576004356001600160a01b038116908190036100be575f80516020610b2d83398151915254604081901c60ff161591906001600160401b0381168015908161024f575b6001149081610245575b15908161023c575b5061022d576001600160401b031981166001175f80516020610b2d8339815191525582610205575b505f80546001600160a01b031916919091179055610194610aa1565b61019c610aa1565b6101a5336109b2565b6101ad610aa1565b6101b357005b60ff60401b195f80516020610b2d83398151915254165f80516020610b2d833981519152557fc7f505b2f371ae2175ee4913f4499e1f2633a7b5936321eed1cdaeb6115181d2602060405160018152a1005b6001600160481b0319166001600160401b01175f80516020610b2d8339815191525582610178565b63f92ee8a960e01b5f5260045ffd5b90501584610150565b303b159150610148565b84915061013e565b346100be575f3660031901126100be5761029e6040516102786040826108ce565b60058152640352e302e360dc1b6020820152604051918291602083526020830190610920565b0390f35b346100be5760203660031901126100be576004356001600160401b0381116100be57366023820112156100be576004810135906001600160401b0382116100be573660248360051b830101116100be579060209160405161030384826108ce565b5f815283810191601f19850136843761031b84610973565b9061032960405192836108ce565b848252601f1961033886610973565b01865f5b82811061045a575050503681900360421901905f5b868110156103fd5760248160051b83010135838112156100be578201602481013591906001600160401b0383116100be576044019180360383136100be575f80600194896103cd6103e1958f8e6040519483869484860198893784019083820190898252519283915e010185815203601f1981018352826108ce565b5190305af46103da610944565b9030610a43565b6103eb828761098a565b526103f6818661098a565b5001610351565b604080518981528551818b018190525f92600582901b8301810191888d01918d9085015b82871061042e5785850386f35b90919293828061044a600193603f198a82030186528851610920565b9601920196019592919092610421565b6060858201830152810161033c565b346100be575f3660031901126100be575f80516020610acd833981519152546040516001600160a01b039091168152602090f35b346100be575f3660031901126100be576104b5610a10565b5f80516020610acd83398151915280546001600160a01b031981169091555f906001600160a01b03165f80516020610b0d8339815191528280a3005b346100be575f3660031901126100be577f00000000000000000000000000000000000000000000000000000000000000006001600160a01b031630036105485760206040515f80516020610aed8339815191528152f35b63703e46dd60e11b5f5260045ffd5b60403660031901126100be5761056b6108b8565b602435906001600160401b0382116100be57366023830112156100be5781600401359061059782610905565b916105a560405193846108ce565b808352602083019336602483830101116100be57815f926024602093018737840101526001600160a01b037f00000000000000000000000000000000000000000000000000000000000000001630811490811561073e575b506105485761060a610a10565b6040516352d1902d60e01b81526001600160a01b0382169390602081600481885afa5f918161070a575b5061064c5784634c9c8ce360e01b5f5260045260245ffd5b805f80516020610aed8339815191528692036106f85750823b156106e6575f80516020610aed83398151915280546001600160a01b031916821790557fbc7cd75a20ee27fd9adebab32041f755214dbc6bffa90cc0225b39da2e5c2d3b5f80a28251156106cd575f8091610018945190845af46106c7610944565b91610a43565b505050346106d757005b63b398979f60e01b5f5260045ffd5b634c9c8ce360e01b5f5260045260245ffd5b632a87526960e21b5f5260045260245ffd5b9091506020813d602011610736575b81610726602093836108ce565b810103126100be57519086610634565b3d9150610719565b5f80516020610aed833981519152546001600160a01b031614159050846105fd565b346100be5760403660031901126100be575f602061077c6108b8565b610784610a10565b825460405163a9059cbb60e01b81526001600160a01b0392831660048201526024803590820152938492604492849291165af180156107f7576107c357005b6020813d6020116107ef575b816107dc602093836108ce565b810103126100be5751801515036100be57005b3d91506107cf565b6040513d5f823e3d90fd5b346100be5760403660031901126100be5761081b6108b8565b60243590610827610a10565b81471115610880575f80809381935af161083f610944565b501561084757005b60405162461bcd60e51b815260206004820152601160248201527021b0b73737ba1039b2b7321032ba3432b960791b6044820152606490fd5b60405162461bcd60e51b815260206004820152601060248201526f2737ba1032b737bab3b41032ba3432b960811b6044820152606490fd5b600435906001600160a01b03821682036100be57565b601f909101601f19168101906001600160401b038211908210176108f157604052565b634e487b7160e01b5f52604160045260245ffd5b6001600160401b0381116108f157601f01601f191660200190565b805180835260209291819084018484015e5f828201840152601f01601f1916010190565b3d1561096e573d9061095582610905565b9161096360405193846108ce565b82523d5f602084013e565b606090565b6001600160401b0381116108f15760051b60200190565b805182101561099e5760209160051b010190565b634e487b7160e01b5f52603260045260245ffd5b6001600160a01b031680156109fd575f80516020610acd83398151915280546001600160a01b0319811683179091556001600160a01b03165f80516020610b0d8339815191525f80a3565b631e4fbdf760e01b5f525f60045260245ffd5b5f80516020610acd833981519152546001600160a01b03163303610a3057565b63118cdaa760e01b5f523360045260245ffd5b90610a675750805115610a5857805190602001fd5b63d6bda27560e01b5f5260045ffd5b81511580610a98575b610a78575090565b639996b31560e01b5f9081526001600160a01b0391909116600452602490fd5b50803b15610a70565b60ff5f80516020610b2d8339815191525460401c1615610abd57565b631afcd79f60e31b5f5260045ffdfe9016d09d72d40fdae2fd8ceac6b6234c7706214fd39c1cd1e609a0528c199300360894a13ba1a3210667c828492db98dca3e2076cc3735a920a3ca505d382bbc8be0079c531659141344cd1fd0a4f28419497f9722a3daafe3b4186f6b6457e0f0c57e16840df040f15088dc2f81fe391c3923bec73e23a9662efc9c229c6a00a264697066735822122090eee6842e0f47a7431d6d8548449d3072c824a3e6a9fe5282bfd3d54b696a8164736f6c634300081a0033","linkReferences":{}},"methodIdentifiers":{"UPGRADE_INTERFACE_VERSION()":"ad3cb1cc","initialize(address)":"c4d66de8","multicall(bytes[])":"ac9650d8","owner()":"8da5cb5b","proxiableUUID()":"52d1902d","renounceOwnership()":"715018a6","sendFLT(address,uint256)":"0af76b8f","sendUSD(address,uint256)":"3922f542","transferOwnership(address)":"f2fde38b","upgradeToAndCall(address,bytes)":"4f1ef286","usdToken()":"f897a22b"},"storageLayout":{"storage":[{"astId":58382,"contract":"src/dev/OwnableFaucet.sol:OwnableFaucet","label":"usdToken","offset":0,"slot":"0","type":"t_contract(IERC20)39759"}],"types":{"t_contract(IERC20)39759":{"encoding":"inplace","label":"contract IERC20","numberOfBytes":"20"}}},"devdoc":{"version":1,"kind":"dev","methods":{"multicall(bytes[])":{"details":"Receives and executes a batch of function calls on this contract."},"owner()":{"details":"Returns the address of the current owner."},"proxiableUUID()":{"details":"Implementation of the ERC-1822 {proxiableUUID} function. This returns the storage slot used by the implementation. It is used to validate the implementation's compatibility when performing an upgrade. IMPORTANT: A proxy pointing at a proxiable contract should not be considered proxiable itself, because this risks bricking a proxy that upgrades to it, by delegating to itself until out of gas. Thus it is critical that this function revert if invoked through a proxy. This is guaranteed by the `notDelegated` modifier."},"renounceOwnership()":{"details":"Leaves the contract without owner. It will not be possible to call `onlyOwner` functions. Can only be called by the current owner. NOTE: Renouncing ownership will leave the contract without an owner, thereby disabling any functionality that is only available to the owner."},"transferOwnership(address)":{"details":"Transfers ownership of the contract to a new account (`newOwner`). Can only be called by the current owner."},"upgradeToAndCall(address,bytes)":{"details":"Upgrade the implementation of the proxy to `newImplementation`, and subsequently execute the function call encoded in `data`. Calls {_authorizeUpgrade}. Emits an {Upgraded} event."}},"events":{"Initialized(uint64)":{"details":"Triggered when the contract has been initialized or reinitialized."},"Upgraded(address)":{"details":"Emitted when the implementation is upgraded."}},"errors":{"AddressEmptyCode(address)":[{"details":"There's no code at `target` (it is not a contract)."}],"ERC1967InvalidImplementation(address)":[{"details":"The `implementation` of the proxy is invalid."}],"ERC1967NonPayable()":[{"details":"An upgrade function sees `msg.value > 0` that may be lost."}],"FailedCall()":[{"details":"A call to an address target failed. The target may have reverted."}],"InvalidInitialization()":[{"details":"The contract is already initialized."}],"NotInitializing()":[{"details":"The contract is not initializing."}],"OwnableInvalidOwner(address)":[{"details":"The owner is not a valid owner account. (eg. `address(0)`)"}],"OwnableUnauthorizedAccount(address)":[{"details":"The caller account is not authorized to perform an operation."}],"UUPSUnauthorizedCallContext()":[{"details":"The call is from an unauthorized context."}],"UUPSUnsupportedProxiableUUID(bytes32)":[{"details":"The storage `slot` is unsupported as a UUID."}]}},"id":83}