{"abi":[{"type":"constructor","inputs":[{"name":"usdToken_","type":"address","internalType":"contract IERC20"}],"stateMutability":"nonpayable"},{"type":"receive","stateMutability":"payable"},{"type":"function","name":"multicall","inputs":[{"name":"data","type":"bytes[]","internalType":"bytes[]"}],"outputs":[{"name":"results","type":"bytes[]","internalType":"bytes[]"}],"stateMutability":"nonpayable"},{"type":"function","name":"owner","inputs":[],"outputs":[{"name":"","type":"address","internalType":"address"}],"stateMutability":"view"},{"type":"function","name":"renounceOwnership","inputs":[],"outputs":[],"stateMutability":"nonpayable"},{"type":"function","name":"sendFLT","inputs":[{"name":"addr","type":"address","internalType":"address"},{"name":"value","type":"uint256","internalType":"uint256"}],"outputs":[],"stateMutability":"nonpayable"},{"type":"function","name":"sendUSD","inputs":[{"name":"addr","type":"address","internalType":"address"},{"name":"value","type":"uint256","internalType":"uint256"}],"outputs":[],"stateMutability":"nonpayable"},{"type":"function","name":"transferOwnership","inputs":[{"name":"newOwner","type":"address","internalType":"address"}],"outputs":[],"stateMutability":"nonpayable"},{"type":"function","name":"usdToken","inputs":[],"outputs":[{"name":"","type":"address","internalType":"contract IERC20"}],"stateMutability":"view"},{"type":"event","name":"OwnershipTransferred","inputs":[{"name":"previousOwner","type":"address","indexed":true,"internalType":"address"},{"name":"newOwner","type":"address","indexed":true,"internalType":"address"}],"anonymous":false}],"bytecode":{"object":"0x60a0346100ad57601f6108cf38819003918201601f19168301916001600160401b038311848410176100b2578084926020946040528339810103126100ad57516001600160a01b039081811681036100ad576000543360018060a01b0319821617600055604051923391167f8be0079c531659141344cd1fd0a4f28419497f9722a3daafe3b4186f6b6457e0600080a360805261080690816100c98239608051818181608301526104950152f35b600080fd5b634e487b7160e01b600052604160045260246000fdfe6080604052600436101561001b575b361561001957600080fd5b005b60003560e01c80630af76b8f146105035780633922f54214610441578063715018a6146103fa5780638da5cb5b146103d1578063ac9650d814610166578063f2fde38b146100b75763f897a22b0361000e57346100b25760003660031901126100b2576040517f00000000000000000000000000000000000000000000000000000000000000006001600160a01b03168152602090f35b600080fd5b346100b25760203660031901126100b2576100d06105ba565b6100d86106bb565b6001600160a01b03908116908115610112576000548260018060a01b0319821617600055166000805160206107b1833981519152600080a3005b60405162461bcd60e51b815260206004820152602660248201527f4f776e61626c653a206e6577206f776e657220697320746865207a65726f206160448201526564647265737360d01b6064820152608490fd5b346100b25760203660031901126100b2576001600160401b03600435116100b2573660236004350112156100b2576001600160401b03600480350135116100b2573660246004356004013560051b6004350101116100b2576040516001600160401b0360208201908111908211176103aa5760208101604052600081526101f26004356004013561067a565b906102006040519283610618565b6004803501358083526102129061067a565b601f190160005b8181106103c057505060005b60043560040135811061029a57826040518091602082016020835281518091526040830190602060408260051b8601019301916000905b82821061026b57505050500390f35b9193600191939550602061028a8192603f198a820301865288516105f3565b960192019201859493919261025c565b60248160051b6004350101356042196004353603018112156100b257600435019060248201359160018060401b0383116100b25760440182360381136100b25760206103109184604051958692848401378101828101906000825261030488518093868b016105d0565b01038085520183610618565b604051916001600160401b0360608401908111908411176103aa578260008061038e93606060019701604052602784527f416464726573733a206c6f772d6c6576656c2064656c65676174652063616c6c6020850152660819985a5b195960ca1b6040850152602081519101305af461038761063b565b9030610713565b6103988286610691565b526103a38185610691565b5001610225565b634e487b7160e01b600052604160045260246000fd5b806060602080938701015201610219565b346100b25760003660031901126100b2576000546040516001600160a01b039091168152602090f35b346100b25760003660031901126100b2576104136106bb565b600080546001600160a01b0319811682556001600160a01b03166000805160206107b18339815191528280a3005b346100b25760403660031901126100b2576044602061045e6105ba565b6104666106bb565b60405163a9059cbb60e01b81526001600160a01b039182166004820152602480359082015292839182906000907f0000000000000000000000000000000000000000000000000000000000000000165af180156104f7576104c357005b6020813d6020116104ef575b816104dc60209383610618565b810103126100b25751801515036100b257005b3d91506104cf565b6040513d6000823e3d90fd5b346100b25760403660031901126100b25761051c6105ba565b602435906105286106bb565b8147111561058257600080809381935af161054161063b565b501561054957005b60405162461bcd60e51b815260206004820152601160248201527021b0b73737ba1039b2b7321032ba3432b960791b6044820152606490fd5b60405162461bcd60e51b815260206004820152601060248201526f2737ba1032b737bab3b41032ba3432b960811b6044820152606490fd5b600435906001600160a01b03821682036100b257565b60005b8381106105e35750506000910152565b81810151838201526020016105d3565b9060209161060c815180928185528580860191016105d0565b601f01601f1916010190565b601f909101601f19168101906001600160401b038211908210176103aa57604052565b3d15610675573d906001600160401b0382116103aa5760405191610669601f8201601f191660200184610618565b82523d6000602084013e565b606090565b6001600160401b0381116103aa5760051b60200190565b80518210156106a55760209160051b010190565b634e487b7160e01b600052603260045260246000fd5b6000546001600160a01b031633036106cf57565b606460405162461bcd60e51b815260206004820152602060248201527f4f776e61626c653a2063616c6c6572206973206e6f7420746865206f776e65726044820152fd5b919290156107755750815115610727575090565b3b156107305790565b60405162461bcd60e51b815260206004820152601d60248201527f416464726573733a2063616c6c20746f206e6f6e2d636f6e74726163740000006044820152606490fd5b8251909150156107885750805190602001fd5b60405162461bcd60e51b8152602060048201529081906107ac9060248301906105f3565b0390fdfe8be0079c531659141344cd1fd0a4f28419497f9722a3daafe3b4186f6b6457e0a2646970667358221220d65fe26a8c8505a47fa7e5f048fe2cc1a9d4910197c201a2d9d7fa3deace853864736f6c63430008180033","linkReferences":{}},"methodIdentifiers":{"multicall(bytes[])":"ac9650d8","owner()":"8da5cb5b","renounceOwnership()":"715018a6","sendFLT(address,uint256)":"0af76b8f","sendUSD(address,uint256)":"3922f542","transferOwnership(address)":"f2fde38b","usdToken()":"f897a22b"},"devdoc":{"version":1,"kind":"dev","methods":{"multicall(bytes[])":{"details":"Receives and executes a batch of function calls on this contract."},"owner()":{"details":"Returns the address of the current owner."},"renounceOwnership()":{"details":"Leaves the contract without owner. It will not be possible to call `onlyOwner` functions. Can only be called by the current owner. NOTE: Renouncing ownership will leave the contract without an owner, thereby disabling any functionality that is only available to the owner."},"transferOwnership(address)":{"details":"Transfers ownership of the contract to a new account (`newOwner`). Can only be called by the current owner."}}},"id":97}