{"abi":[{"type":"constructor","inputs":[{"name":"core_","type":"address","internalType":"contract ICore"}],"stateMutability":"nonpayable"},{"type":"function","name":"core","inputs":[],"outputs":[{"name":"","type":"address","internalType":"contract ICore"}],"stateMutability":"view"},{"type":"function","name":"owner","inputs":[],"outputs":[{"name":"","type":"address","internalType":"address"}],"stateMutability":"view"},{"type":"event","name":"Initialized","inputs":[{"name":"version","type":"uint8","indexed":false,"internalType":"uint8"}],"anonymous":false}],"bytecode":{"object":"0x60a03461011857601f6102cf38819003918201601f19168301916001600160401b0383118484101761011d5780849260209460405283398101031261011857516001600160a01b03811681036101185760805260005460ff8160081c166100c35760ff80821603610088575b60405161019b90816101348239608051818181604c015260aa0152f35b60ff90811916176000557f7f26b83ff96e1f2b6a682f133852f6798a09c465da95921460cefb3847402498602060405160ff8152a13861006b565b60405162461bcd60e51b815260206004820152602760248201527f496e697469616c697a61626c653a20636f6e747261637420697320696e697469604482015266616c697a696e6760c81b6064820152608490fd5b600080fd5b634e487b7160e01b600052604160045260246000fdfe608080604052600436101561001357600080fd5b600090813560e01c9081638da5cb5b1461007e575063f2f4eb261461003757600080fd5b3461007b578060031936011261007b576040517f00000000000000000000000000000000000000000000000000000000000000006001600160a01b03168152602090f35b80fd5b905034610161578160031936011261016157638da5cb5b60e01b81526001600160a01b036020826004817f000000000000000000000000000000000000000000000000000000000000000085165afa9182156101565783926100e8575b6020838360405191168152f35b90915060203d60201161014f575b601f8101601f191682016001600160401b0381118382101761013b5760209183916040528101031261013757518181168103610137576020925090386100db565b8280fd5b634e487b7160e01b85526041600452602485fd5b503d6100f6565b6040513d85823e3d90fd5b5080fdfea2646970667358221220fb034c2a4c48d771ab63bd3605e15b6e2be8349caec923f3a565f529deacb5e964736f6c63430008180033","linkReferences":{}},"methodIdentifiers":{"core()":"f2f4eb26","owner()":"8da5cb5b"},"storageLayout":{"storage":[{"astId":4469,"contract":"src/core/modules/BaseModule.sol:BaseModule","label":"_initialized","offset":0,"slot":"0","type":"t_uint8"},{"astId":4472,"contract":"src/core/modules/BaseModule.sol:BaseModule","label":"_initializing","offset":1,"slot":"0","type":"t_bool"}],"types":{"t_bool":{"encoding":"inplace","label":"bool","numberOfBytes":"1"},"t_uint8":{"encoding":"inplace","label":"uint8","numberOfBytes":"1"}}},"devdoc":{"version":1,"kind":"dev","events":{"Initialized(uint8)":{"details":"Triggered when the contract has been initialized or reinitialized."}}},"id":77}