{"abi":[{"type":"constructor","inputs":[],"stateMutability":"nonpayable"},{"type":"function","name":"activateWorker","inputs":[{"name":"onchainWorkerId","type":"bytes32","internalType":"bytes32"},{"name":"offchainWorkerId","type":"bytes32","internalType":"bytes32"}],"outputs":[],"stateMutability":"nonpayable"},{"type":"function","name":"addProviderToAccessList","inputs":[{"name":"provider","type":"address","internalType":"address"}],"outputs":[],"stateMutability":"nonpayable"},{"type":"function","name":"addWorker","inputs":[{"name":"computeProvider","type":"address","internalType":"address"},{"name":"workerData","type":"tuple","internalType":"struct IWorkerManager.WorkerData","components":[{"name":"onchainId","type":"bytes32","internalType":"bytes32"},{"name":"computeUnitIds","type":"bytes32[]","internalType":"bytes32[]"}]},{"name":"peerId","type":"bytes32","internalType":"bytes32"}],"outputs":[],"stateMutability":"nonpayable"},{"type":"function","name":"appCID","inputs":[],"outputs":[{"name":"","type":"tuple","internalType":"struct CIDV1","components":[{"name":"prefixes","type":"bytes4","internalType":"bytes4"},{"name":"hash","type":"bytes32","internalType":"bytes32"}]}],"stateMutability":"view"},{"type":"function","name":"changeProvidersAccessType","inputs":[{"name":"accessType","type":"uint8","internalType":"enum IConfig.AccessType"}],"outputs":[],"stateMutability":"nonpayable"},{"type":"function","name":"computePeerUsed","inputs":[{"name":"peerId","type":"bytes32","internalType":"bytes32"}],"outputs":[{"name":"","type":"bool","internalType":"bool"}],"stateMutability":"view"},{"type":"function","name":"creationBlock","inputs":[],"outputs":[{"name":"","type":"uint256","internalType":"uint256"}],"stateMutability":"view"},{"type":"function","name":"cuCountPerWorker","inputs":[],"outputs":[{"name":"","type":"uint256","internalType":"uint256"}],"stateMutability":"view"},{"type":"function","name":"depositFromOwner","inputs":[{"name":"amount","type":"uint256","internalType":"uint256"}],"outputs":[],"stateMutability":"nonpayable"},{"type":"function","name":"effectors","inputs":[],"outputs":[{"name":"","type":"tuple[]","internalType":"struct CIDV1[]","components":[{"name":"prefixes","type":"bytes4","internalType":"bytes4"},{"name":"hash","type":"bytes32","internalType":"bytes32"}]}],"stateMutability":"view"},{"type":"function","name":"getActivatedWorkerCount","inputs":[],"outputs":[{"name":"","type":"uint256","internalType":"uint256"}],"stateMutability":"view"},{"type":"function","name":"getFreeBalance","inputs":[],"outputs":[{"name":"","type":"uint256","internalType":"uint256"}],"stateMutability":"view"},{"type":"function","name":"getMaxPaidEpoch","inputs":[],"outputs":[{"name":"","type":"uint256","internalType":"uint256"}],"stateMutability":"view"},{"type":"function","name":"getProtocolVersion","inputs":[],"outputs":[{"name":"","type":"uint256","internalType":"uint256"}],"stateMutability":"view"},{"type":"function","name":"getRewardAmount","inputs":[{"name":"onchainWorkerId","type":"bytes32","internalType":"bytes32"}],"outputs":[{"name":"","type":"tuple","internalType":"struct IDeal.DealRewards","components":[{"name":"providerReward","type":"uint256","internalType":"uint256"},{"name":"stakerReward","type":"uint256","internalType":"uint256"}]}],"stateMutability":"view"},{"type":"function","name":"getStatus","inputs":[],"outputs":[{"name":"","type":"uint8","internalType":"enum IDeal.Status"}],"stateMutability":"view"},{"type":"function","name":"getWorker","inputs":[{"name":"onchainWorkerId","type":"bytes32","internalType":"bytes32"}],"outputs":[{"name":"","type":"tuple","internalType":"struct IWorkerManager.Worker","components":[{"name":"offchainId","type":"bytes32","internalType":"bytes32"},{"name":"onchainId","type":"bytes32","internalType":"bytes32"},{"name":"peerId","type":"bytes32","internalType":"bytes32"},{"name":"provider","type":"address","internalType":"address"},{"name":"joinedEpoch","type":"uint256","internalType":"uint256"},{"name":"computeUnitIds","type":"bytes32[]","internalType":"bytes32[]"}]}],"stateMutability":"view"},{"type":"function","name":"getWorkerCount","inputs":[],"outputs":[{"name":"","type":"uint256","internalType":"uint256"}],"stateMutability":"view"},{"type":"function","name":"getWorkerCount","inputs":[{"name":"provider","type":"address","internalType":"address"}],"outputs":[{"name":"","type":"uint256","internalType":"uint256"}],"stateMutability":"view"},{"type":"function","name":"getWorkers","inputs":[],"outputs":[{"name":"","type":"tuple[]","internalType":"struct IWorkerManager.Worker[]","components":[{"name":"offchainId","type":"bytes32","internalType":"bytes32"},{"name":"onchainId","type":"bytes32","internalType":"bytes32"},{"name":"peerId","type":"bytes32","internalType":"bytes32"},{"name":"provider","type":"address","internalType":"address"},{"name":"joinedEpoch","type":"uint256","internalType":"uint256"},{"name":"computeUnitIds","type":"bytes32[]","internalType":"bytes32[]"}]}],"stateMutability":"view"},{"type":"function","name":"initialize","inputs":[{"name":"diamond_","type":"address","internalType":"contract IDiamond"},{"name":"appCID_","type":"tuple","internalType":"struct CIDV1","components":[{"name":"prefixes","type":"bytes4","internalType":"bytes4"},{"name":"hash","type":"bytes32","internalType":"bytes32"}]},{"name":"paymentToken_","type":"address","internalType":"contract IERC20"},{"name":"minWorkers_","type":"uint256","internalType":"uint256"},{"name":"targetWorkers_","type":"uint256","internalType":"uint256"},{"name":"cuCountPerWorker_","type":"uint256","internalType":"uint256"},{"name":"maxWorkersPerProvider_","type":"uint256","internalType":"uint256"},{"name":"pricePerCuPerEpoch_","type":"uint256","internalType":"uint256"},{"name":"effectors_","type":"tuple[]","internalType":"struct CIDV1[]","components":[{"name":"prefixes","type":"bytes4","internalType":"bytes4"},{"name":"hash","type":"bytes32","internalType":"bytes32"}]},{"name":"providersAccessType_","type":"uint8","internalType":"enum IConfig.AccessType"},{"name":"providersAccessList_","type":"address[]","internalType":"address[]"},{"name":"protocolVersion_","type":"uint256","internalType":"uint256"},{"name":"owner_","type":"address","internalType":"address"}],"outputs":[],"stateMutability":"nonpayable"},{"type":"function","name":"isProviderAllowed","inputs":[{"name":"account","type":"address","internalType":"address"}],"outputs":[{"name":"","type":"bool","internalType":"bool"}],"stateMutability":"view"},{"type":"function","name":"maxWorkersPerProvider","inputs":[],"outputs":[{"name":"","type":"uint256","internalType":"uint256"}],"stateMutability":"view"},{"type":"function","name":"migrateToBalanceKeeper","inputs":[],"outputs":[],"stateMutability":"nonpayable"},{"type":"function","name":"minWorkers","inputs":[],"outputs":[{"name":"","type":"uint256","internalType":"uint256"}],"stateMutability":"view"},{"type":"function","name":"multicall","inputs":[{"name":"data","type":"bytes[]","internalType":"bytes[]"}],"outputs":[{"name":"results","type":"bytes[]","internalType":"bytes[]"}],"stateMutability":"nonpayable"},{"type":"function","name":"owner","inputs":[],"outputs":[{"name":"","type":"address","internalType":"address"}],"stateMutability":"view"},{"type":"function","name":"paymentToken","inputs":[],"outputs":[{"name":"","type":"address","internalType":"contract IERC20"}],"stateMutability":"view"},{"type":"function","name":"pricePerCuPerEpoch","inputs":[],"outputs":[{"name":"","type":"uint256","internalType":"uint256"}],"stateMutability":"view"},{"type":"function","name":"providersAccessType","inputs":[],"outputs":[{"name":"","type":"uint8","internalType":"enum IConfig.AccessType"}],"stateMutability":"view"},{"type":"function","name":"removeProviderFromAccessList","inputs":[{"name":"provider","type":"address","internalType":"address"}],"outputs":[],"stateMutability":"nonpayable"},{"type":"function","name":"removeStaleWorkers","inputs":[{"name":"onchainWorkerIds","type":"bytes32[]","internalType":"bytes32[]"}],"outputs":[],"stateMutability":"nonpayable"},{"type":"function","name":"removeWorker","inputs":[{"name":"onchainWorkerId","type":"bytes32","internalType":"bytes32"}],"outputs":[],"stateMutability":"nonpayable"},{"type":"function","name":"renounceOwnership","inputs":[],"outputs":[],"stateMutability":"nonpayable"},{"type":"function","name":"setAppCID","inputs":[{"name":"appCID_","type":"tuple","internalType":"struct CIDV1","components":[{"name":"prefixes","type":"bytes4","internalType":"bytes4"},{"name":"hash","type":"bytes32","internalType":"bytes32"}]}],"outputs":[],"stateMutability":"nonpayable"},{"type":"function","name":"stop","inputs":[],"outputs":[],"stateMutability":"nonpayable"},{"type":"function","name":"targetWorkers","inputs":[],"outputs":[{"name":"","type":"uint256","internalType":"uint256"}],"stateMutability":"view"},{"type":"function","name":"transferOwnership","inputs":[{"name":"newOwner","type":"address","internalType":"address"}],"outputs":[],"stateMutability":"nonpayable"},{"type":"function","name":"withdraw","inputs":[{"name":"amount","type":"uint256","internalType":"uint256"}],"outputs":[],"stateMutability":"nonpayable"},{"type":"function","name":"withdrawRewards","inputs":[{"name":"onchainWorkerId","type":"bytes32","internalType":"bytes32"}],"outputs":[],"stateMutability":"nonpayable"},{"type":"event","name":"AppCIDChanged","inputs":[{"name":"newAppCID","type":"tuple","indexed":false,"internalType":"struct CIDV1","components":[{"name":"prefixes","type":"bytes4","internalType":"bytes4"},{"name":"hash","type":"bytes32","internalType":"bytes32"}]}],"anonymous":false},{"type":"event","name":"DealEnded","inputs":[{"name":"endedEpoch","type":"uint256","indexed":false,"internalType":"uint256"}],"anonymous":false},{"type":"event","name":"Deposited","inputs":[{"name":"amount","type":"uint256","indexed":false,"internalType":"uint256"}],"anonymous":false},{"type":"event","name":"Initialized","inputs":[{"name":"version","type":"uint64","indexed":false,"internalType":"uint64"}],"anonymous":false},{"type":"event","name":"MaxPaidEpochUpdated","inputs":[{"name":"maxPaidEpoch","type":"uint256","indexed":false,"internalType":"uint256"}],"anonymous":false},{"type":"event","name":"OwnershipTransferred","inputs":[{"name":"previousOwner","type":"address","indexed":true,"internalType":"address"},{"name":"newOwner","type":"address","indexed":true,"internalType":"address"}],"anonymous":false},{"type":"event","name":"ProviderAddedToAccessList","inputs":[{"name":"provider","type":"address","indexed":false,"internalType":"address"}],"anonymous":false},{"type":"event","name":"ProviderRemovedFromAccessList","inputs":[{"name":"provider","type":"address","indexed":false,"internalType":"address"}],"anonymous":false},{"type":"event","name":"ProvidersAccessTypeChanged","inputs":[{"name":"newAccessType","type":"uint8","indexed":false,"internalType":"enum IConfig.AccessType"}],"anonymous":false},{"type":"event","name":"RewardWithdrawn","inputs":[{"name":"onchainWorkerId","type":"bytes32","indexed":false,"internalType":"bytes32"},{"name":"providerReward","type":"uint256","indexed":false,"internalType":"uint256"},{"name":"stakerReward","type":"uint256","indexed":false,"internalType":"uint256"}],"anonymous":false},{"type":"event","name":"Withdrawn","inputs":[{"name":"amount","type":"uint256","indexed":false,"internalType":"uint256"}],"anonymous":false},{"type":"event","name":"WorkerIdUpdated","inputs":[{"name":"onchainWorkerId","type":"bytes32","indexed":false,"internalType":"bytes32"},{"name":"offchainWorkerId","type":"bytes32","indexed":false,"internalType":"bytes32"}],"anonymous":false},{"type":"event","name":"WorkerJoined","inputs":[{"name":"peerId","type":"bytes32","indexed":true,"internalType":"bytes32"},{"name":"onchainId","type":"bytes32","indexed":false,"internalType":"bytes32"}],"anonymous":false},{"type":"event","name":"WorkerRemoved","inputs":[{"name":"peerId","type":"bytes32","indexed":true,"internalType":"bytes32"},{"name":"onchainId","type":"bytes32","indexed":false,"internalType":"bytes32"}],"anonymous":false},{"type":"error","name":"AddressEmptyCode","inputs":[{"name":"target","type":"address","internalType":"address"}]},{"type":"error","name":"FailedCall","inputs":[]},{"type":"error","name":"InvalidInitialization","inputs":[]},{"type":"error","name":"NotInitializing","inputs":[]},{"type":"error","name":"OwnableInvalidOwner","inputs":[{"name":"owner","type":"address","internalType":"address"}]},{"type":"error","name":"OwnableUnauthorizedAccount","inputs":[{"name":"account","type":"address","internalType":"address"}]},{"type":"error","name":"ReentrancyGuardReentrantCall","inputs":[]},{"type":"error","name":"SafeERC20FailedOperation","inputs":[{"name":"token","type":"address","internalType":"address"}]}],"bytecode":{"object":"0x6080806040523460d0577ff0c57e16840df040f15088dc2f81fe391c3923bec73e23a9662efc9c229c6a005460ff8160401c1660c1576002600160401b03196001600160401b03821601605c575b604051614e2e90816100d58239f35b6001600160401b0319166001600160401b039081177ff0c57e16840df040f15088dc2f81fe391c3923bec73e23a9662efc9c229c6a005581527fc7f505b2f371ae2175ee4913f4499e1f2633a7b5936321eed1cdaeb6115181d290602090a15f80604d565b63f92ee8a960e01b5f5260045ffd5b5f80fdfe60806040526004361015610011575f80fd5b5f803560e01c80630574131f14612ace57806307da68f51461288a57806315a0f31a1461285f5780631763451414612834578063176474cf1461271b5780631af57b96146126ea57806322ebd58a146126505780632943dcab146126255780632db31193146125fa5780632e1a7d4d1461205e5780633013ce291461202857806333ce93fe14611ffd578063378b22e414611fd25780633e8ae1ae14611fa4578063444e6a5a14611e7c5780634d7599f114611e515780634e69d56014611e2357806359c4afc014611ddd578063630eceea14611cec578063636fcefb14611b5957806370220a9b14611b2e578063715018a614611ad857806373134c15146119355780637dfb6626146118315780638a0c725b146118065780638da5cb5b146117d05780639bc6686814611773578063aba93a101461173f578063ac9650d814611527578063ade0a202146114fc578063bc126f1f1461138e578063bd1926e014611351578063c1499f71146111dd578063cb7b88d114610f58578063d4773ff014610f21578063d76e48051461095c578063d93446c41461030e578063e93c4f15146102e7578063f2fde38b146102ba5763fc1e5e2a146101d2575f80fd5b346102b757806003193601126102b7575f80516020614a99833981519152546101fa81612de2565b6102076040519182612dbf565b8181525f80516020614a9983398151915283526020810191837f5702833323968fbb14fdd86869039efe011756b786a9a900c16991bda0e3e573845b83831061029957868587604051928392602084019060208552518091526040840192915b818110610275575050500390f35b91935091602060408261028b6001948851612c89565b019401910191849392610267565b600260206001926102a9856134c4565b815201920192019190610243565b80fd5b50346102b75760203660031901126102b7576102e46102d7612c73565b6102df613ed6565b613660565b80f35b50346102b757806003193601126102b75760206060610304613865565b0151604051908152f35b50346102b7576101c03660031901126102b7576004356001600160a01b0381168103610958576040366023190112610958576064356001600160a01b03811681036109545760c4359161012435919060a4356084356001600160401b0385116109505736602386011215610950576004850135956001600160401b0387116107cd573660248860061b880101116107cd576101443590600382101561094c57610164356001600160401b038111610948576103cd903690600401612d16565b6101a4359790959194906001600160a01b0389168903610944575f80516020614d5983398151915254604081901c60ff161599906001600160401b0381168015908161093c575b6001149081610932575b159081610929575b5061091a576001600160401b031981166001175f80516020614d598339815191525561047491908b6108f2575b5061045c614829565b610464614829565b61046c614829565b6102df614829565b61047c614829565b8115610899578282116108305783156107d157435f805160206149b9833981519152555f8051602061499983398151915280546001600160a01b03998a166001600160a01b03199182161782555f80516020614b59833981519152805493909a169216919091179097555f80516020614cb9833981519152555f80516020614b79833981519152555f80516020614cd98339815191525560e4355f80516020614dd983398151915255610104355f80516020614a5983398151915255875b878110156105d3575f80516020614a9983398151915254600160401b8110156105bf5760018101805f80516020614a99833981519152558110156105ab57906105a56001925f80516020614a998339815191528c5260208c2060248460061b8c010191851b01613c42565b0161053a565b634e487b7160e01b8a52603260045260248afd5b634e487b7160e01b8a52604160045260248afd5b508795506105f1909291925f80516020614d198339815191526134ac565b5f805160206149f983398151915290855b81811061078c575050505061062560245f80516020614c39833981519152613c42565b604051906024359063ffffffff60e01b8216809203610788575f80516020614b198339815191526040846020946004965260443585820152a1610666614829565b610184355f80516020614db983398151915255610681614829565b54604051630ecce30160e31b815292839182906001600160a01b03165afa90811561077d578391610747575b505f198101908111610733575f80516020614cf98339815191525560015f80516020614b99833981519152556106e05780f35b60ff60401b195f80516020614d5983398151915254165f80516020614d59833981519152557fc7f505b2f371ae2175ee4913f4499e1f2633a7b5936321eed1cdaeb6115181d2602060405160018152a180f35b634e487b7160e01b83526011600452602483fd5b90506020813d602011610775575b8161076260209383612dbf565b810103126107715751836106ad565b5f80fd5b3d9150610755565b6040513d85823e3d90fd5b8480fd5b610797818386613650565b35906001600160a01b03821682036107cd57600191828060a01b03165f528360205260405f208260ff1982541617905501610602565b8780fd5b60405162461bcd60e51b815260206004820152603160248201527f436f6e6669673a206375436f756e74506572576f726b65722073686f756c6420604482015270062652067726561746572207468616e203607c1b6064820152608490fd5b60405162461bcd60e51b815260206004820152603b60248201527f436f6e6669673a206d696e576f726b6572732073686f756c64206265206c657360448201527a73206f7220657175616c20746f20746172676574576f726b65727360281b6064820152608490fd5b60405162461bcd60e51b815260206004820152602b60248201527f436f6e6669673a206d696e576f726b6572732073686f756c642062652067726560448201526a061746572207468616e20360ac1b6064820152608490fd5b6001600160481b0319166001600160401b01175f80516020614d59833981519152555f610453565b63f92ee8a960e01b8e5260048efd5b9050155f610426565b303b15915061041e565b8c9150610414565b8b80fd5b8980fd5b8880fd5b8680fd5b8280fd5b5080fd5b50346102b75760603660031901126102b757610976612c73565b6024356001600160401b038111610954576040600319823603011261095457604051906109a282612d88565b600481013582526024810135906001600160401b03821161078857019036602383011215610f1d576004820135916109d983612de2565b926109e76040519485612dbf565b808452602060048186019260051b840101019136831161095057602401905b828210610f0d5750505060208101918252604435905f8051602061499983398151915293610a3e60018060a01b038654163314612df9565b610a466136be565b610a4e613398565b6005811015610ef9576002610a64911415612e4f565b5f80516020614c99833981519152938454955f80516020614b7983398151915254871015610ebb57875b82518051821015610b335781610aa391613628565b5190818a525f805160206149d983398151915260205260ff60408b205416610aef576001918a525f805160206149d983398151915260205260408a208260ff1982541617905501610a8e565b60405162461bcd60e51b815260206004820152601c60248201527b10dbdb5c1d5d19481d5b9a5d081a5cc8185b1c9958591e481d5cd95960221b6044820152606490fd5b50508688968688525f80516020614b3983398151915260205260ff604089205416610e80578688525f80516020614b3983398151915260205260408820600160ff1982541617905560018060a01b0385165f525f80516020614ad983398151915260205260405f20545f80516020614dd983398151915254811015610e3c5760018101809111610e28576001600160a01b0386165f9081525f80516020614ad9833981519152602052604090205560018201918210610e14575554604051630ecce30160e31b81529190602090839060049082906001600160a01b03165afa8015610e09578690610dd6575b60059250845191519360405192610c3584612d59565b888452602080850191825260408086018a81526001600160a01b03948516606088019081526080880196875260a08801998a528a518d525f80516020614d99833981519152909352908b20955186559151600186015590516002850155516003840180546001600160a01b03191691909216179055516004820155915180519291909101906001600160401b038311610dc257600160401b8311610dc2578154838355808410610d9c575b5060200190855260208520855b838110610d885750505050610d1081515f80516020614bd9833981519152614869565b15610d445760207f9cd57cfa2e12a37215cabc6897396db265419bd7f06adad06227a2b163ecd6a39151604051908152a280f35b60405162461bcd60e51b815260206004820152601c60248201527b11985a5b1959081d1bc8185919081ddbdc9ad95c881d1bc81b1a5cdd60221b6044820152606490fd5b600190602084519401938184015501610ced565b828752836020882091820191015b818110610db75750610ce0565b878155600101610daa565b634e487b7160e01b86526041600452602486fd5b506020823d602011610e01575b81610df060209383612dbf565b810103126107715760059151610c1f565b3d9150610de3565b6040513d88823e3d90fd5b634e487b7160e01b88526011600452602488fd5b634e487b7160e01b89526011600452602489fd5b606460405162461bcd60e51b815260206004820152602060248201527f4d617820776f726b657273207065722070726f766964657220726561636865646044820152fd5b60405162461bcd60e51b81526020600482015260136024820152721419595c925908185b1c9958591e481d5cd959606a1b6044820152606490fd5b60405162461bcd60e51b815260206004820152601660248201527515185c99d95d081ddbdc9ad95c9cc81c995858da195960521b6044820152606490fd5b634e487b7160e01b87526021600452602487fd5b8135815260209182019101610a06565b8380fd5b50346102b757806003193601126102b75750610f5460ff5f80516020614d19833981519152541660405191829182612d46565b0390f35b50346102b75760203660031901126102b7576004356001600160401b03811161095857610f89903690600401612d16565b5f80516020614999833981519152546040516307dc0d1d60e41b815290602090829060049082906001600160a01b03165afa9081156111d2578491611198575b506001600160a01b0316330361115457610fe16136be565b610fe9613865565b610ff1613398565b6005811015806111365760028214801561114a575b818115611126575b50156110e6576110d25780159081156110c7575b50611053575b50825b818110611036578380f35b8061104d6110476001938587613650565b3561433a565b0161102b565b60a0015115611062575f611028565b60405162461bcd60e51b815260206004820152603760248201527f4174206c65617374203120756e706169642065706f636820726571756972656460448201527620746f20636f6e7369646572206465616c207374616c6560481b6064820152608490fd5b60039150145f611022565b634e487b7160e01b85526021600452602485fd5b60405162461bcd60e51b815260206004820152601860248201527715dbdc9ad95c9cc81a5b881919585b08185c99481c185a5960421b6044820152606490fd5b905061113657600382148161100e565b634e487b7160e01b86526021600452602486fd5b5050848115611006565b606460405162461bcd60e51b815260206004820152602060248201527f4f6e6c79206f7261636c652063616e2063616c6c2074686973206d6574686f646044820152fd5b90506020813d6020116111ca575b816111b360209383612dbf565b81010312610f1d576111c490612ef3565b5f610fc9565b3d91506111a6565b6040513d86823e3d90fd5b50346102b757806003193601126102b7576112045f80516020614bd9833981519152613520565b805161120f81612de2565b9061121d6040519283612dbf565b80825261122c601f1991612de2565b01835b81811061133a575050825b82518110156112d3578061125060019285613628565b5185525f80516020614d99833981519152602052604085206112b260056040519261127a84612d59565b8054845285810154602085015260028101546040850152858060a01b0360038201541660608501526004810154608085015201613520565b60a08201526112c18285613628565b526112cc8184613628565b500161123a565b81846040519182916020830160208452825180915260408401602060408360051b870101940192905b82821061130b57505050500390f35b9193600191939550602061132a8192603f198a82030186528851612ca2565b96019201920185949391926112fc565b6020906113456134f0565b8282860101520161122f565b50346102b75760203660031901126102b75760ff6040826020935060043581525f80516020614b3983398151915284522054166040519015158152f35b50346102b75760203660031901126102b7576004356113ac816135a7565b5f8051602061499983398151915260018060a01b0390541690608060408201516024604051809581936321b9a09560e21b835260048301525afa9182156111d25784926114cb575b50606001516001600160a01b031633149081156114b4575b508015611494575b1561142a576102e4906114256136be565b61433a565b60405162461bcd60e51b815260206004820152603c60248201527f4f6e6c792070726f76696465722c2070656572206f776e6572206f722064656160448201527b1b081bdddb995c8818d85b8818d85b1b081d1a1a5cc81b595d1a1bd960221b6064820152608490fd5b505f80516020614bf9833981519152546001600160a01b03163314611414565b606001516001600160a01b0316331490505f61140c565b6114ee91925060803d6080116114f5575b6114e68183612dbf565b810190613025565b905f6113f4565b503d6114dc565b50346102b757806003193601126102b7575060205f80516020614af983398151915254604051908152f35b50346102b75760203660031901126102b7576004356001600160401b03811161095857611558903690600401612d16565b9060206040516115688282612dbf565b848152818101601f19830136823761157f85612de2565b9361158d6040519586612dbf565b858552601f1961159c87612de2565b01875b81811061173057505036819003601e190190875b878110156116b857888160051b830135848112156109585783018035906001600160401b0382116109545788018136038113610954578661161e84938b6040519382859383850197883783018281018881528e519283915e010185815203601f198101835282612dbf565b5190305af4893d156116a557503d906001600160401b038211611691579161166f6001928c98979695948a601f19601f84011601916116606040519384612dbf565b82523d8a8c84013e5b306147bf565b611679828b613628565b52611684818a613628565b50019091929394506115b3565b634e487b7160e01b8b52604160045260248bfd5b959493929161166f600192606090611669565b88868860405191808301818452825180915260408401918060408360051b870101940192865b8388106116eb5786860387f35b9091929394838080600193603f198b8203018752818a518051918291828552018484015e86838284010152601f801991011601019701930197019690939291936116de565b6060878201870152850161159f565b50346102b75760203660031901126102b757610f5461175f6004356135a7565b604051918291602083526020830190612ca2565b50346102b757806003193601126102b75761178c612fae565b50506040805160015f80516020614c398339815191526117ab83612d88565b63ffffffff60e01b815460e01b168352015460208201526117ce82518092612c89565bf35b50346102b757806003193601126102b757505f80516020614bf9833981519152546040516001600160a01b039091168152602090f35b50346102b757806003193601126102b7575060205f80516020614dd983398151915254604051908152f35b50346102b75760203660031901126102b75760043561184f816135a7565b905f8051602061499983398151915260018060a01b03905416608060408401516024604051809481936321b9a09560e21b835260048301525afa80156111d2576102e4936118bc928692611914575b50606001516001600160a01b031633149081156118fd575b5061307a565b6118c46136be565b6118f16118d0826135a7565b6118d8613865565b928184925190606060018060a01b039101511691613f09565b61014081015190613ab4565b606001516001600160a01b0316331490505f6118b6565b61192e91925060803d6080116114f5576114e68183612dbf565b905f61189e565b50346102b75760203660031901126102b75761194f612c73565b5f80516020614999833981519152546040516302984ebd60e31b815290602090829060049082906001600160a01b03165afa90811561077d578391611a9e575b506001600160a01b031633148015611a7e575b6119ab90612f07565b60ff5f80516020614d1983398151915254166003811015611a6a5715611a27576001600160a01b03165f8181525f805160206149f98339815191526020908152604091829020805460ff1916600117905590519182527f4c26e4de691e265be6cf03e639754839907bf74687cd524a6734851331527ffd91a180f35b60405162461bcd60e51b815260206004820152601b60248201527a436f6e6669673a206163636573732074797065206973204e4f4e4560281b6044820152606490fd5b634e487b7160e01b83526021600452602483fd5b505f80516020614bf9833981519152546001600160a01b031633146119a2565b90506020813d602011611ad0575b81611ab960209383612dbf565b8101031261095457611aca90612ef3565b5f61198f565b3d9150611aac565b50346102b757806003193601126102b757611af1613ed6565b5f80516020614bf983398151915280546001600160a01b0319811690915581906001600160a01b03165f80516020614bb98339815191528280a380f35b50346102b757806003193601126102b7575060205f80516020614a5983398151915254604051908152f35b50346102b75760203660031901126102b7576004356003811015610958575f80516020614999833981519152546040516302984ebd60e31b815290602090829060049082906001600160a01b03165afa90811561077d578391611cb2575b506001600160a01b031633148015611c92575b611bd390612f07565b60ff5f80516020614d1983398151915254166003811015611a6a578114611c4257611c3c81611c307f1f5a251428f76335a835fcae94ab6a9bcf09ac33bd3c782eb6a81bdf878a7393935f80516020614d198339815191526134ac565b60405191829182612d46565b0390a180f35b60405162461bcd60e51b815260206004820152602260248201527f436f6e6669673a20616363657373207479706520697320616c72656164792073604482015261195d60f21b6064820152608490fd5b505f80516020614bf9833981519152546001600160a01b03163314611bca565b90506020813d602011611ce4575b81611ccd60209383612dbf565b8101031261095457611cde90612ef3565b5f611bb7565b3d9150611cc0565b50346102b757806003193601126102b7575f8051602061499983398151915254604051638da5cb5b60e01b815290602090829060049082906001600160a01b03165afa908115611dd2578291611d98575b506001600160a01b03163303611d55576102e46136be565b60405162461bcd60e51b815260206004820152601b60248201527a13db9b1e48191a585b5bdb99081bdddb995c8818d85b8818d85b1b602a1b6044820152606490fd5b90506020813d602011611dca575b81611db360209383612dbf565b8101031261095857611dc490612ef3565b5f611d3d565b3d9150611da6565b6040513d84823e3d90fd5b50346102b75760203660031901126102b757611df7612c73565b905060018060a01b03165f525f80516020614ad9833981519152602052602060405f2054604051908152f35b50346102b757806003193601126102b757611e3c613398565b604051906005811015611a6a57602092508152f35b50346102b757806003193601126102b7575060205f80516020614c9983398151915254604051908152f35b50346102b75760203660031901126102b757611e96612c73565b5f80516020614999833981519152546040516302984ebd60e31b815290602090829060049082906001600160a01b03165afa90811561077d578391611f57575b505f80516020614c19833981519152916020916001600160a01b031633148015611f37575b611f0490612f07565b6001600160a01b03165f8181525f805160206149f98339815191528352604090819020805460ff1916905551908152a180f35b505f80516020614bf9833981519152546001600160a01b03163314611efb565b90506020813d602011611f9c575b81611f7260209383612dbf565b81010312610954575f80516020614c1983398151915291611f94602092612ef3565b915091611ed6565b3d9150611f65565b50346102b75760203660031901126102b7576020611fc8611fc3612c73565b613308565b6040519015158152f35b50346102b757806003193601126102b7575060205f80516020614d3983398151915254604051908152f35b50346102b757806003193601126102b7575060205f80516020614db983398151915254604051908152f35b50346102b757806003193601126102b757505f80516020614b59833981519152546040516001600160a01b039091168152602090f35b50346102b75760203660031901126102b7575f8051602061499983398151915280546040516302984ebd60e31b8152600480359392602091839182906001600160a01b03165afa9081156111d25784916125c0575b506001600160a01b0316331480156125a0575b6120cf90612f07565b5f80516020614c798339815191525c6125915760015f80516020614c798339815191525d6120fb6136be565b5f80516020614ab9833981519152612111613865565b82546040516372ea4f2360e01b815290602090829060049082906001600160a01b03165afa908115610e0957869161255d575b5061217961216461218e925f80516020614a5983398151915254906132b7565b5f80516020614cd983398151915254906132b7565b5f80516020614b7983398151915254906132b7565b6060820161219d8682516132ca565b809152610100830151151580612554575b156124db57505060c08101515f80516020614d798339815191525484546040516372ea4f2360e01b81529190602090839060049082906001600160a01b03165afa9081156124d057889161249a575b6122079250612e8b565b10156124315784926122316020928461222388600497546132ca565b905561014081015190613ab4565b5460405163fd44f92160e01b815292839182906001600160a01b03165afa908115611dd2578291612402575b505f80516020614b59833981519152545f80516020614bf983398151915280546001600160a01b039384169391929082169116833b15610788576040516388081fcb60e01b8152918591839182916122ba918a9160048501612ecb565b038183875af19081156111d25784916123ed575b50505f80516020614b598339815191525490546001600160a01b039182169116823b15610f1d576040516312bc368360e31b81529184918391829161231a9189913391600486016132d7565b038183865af190811561077d5783916123d8575b50505f80516020614b59833981519152546001600160a01b031690803b1561095457838391612375938360405180968195829462b13fab60e11b8452339060048501612ecb565b03925af18015611dd2576123c3575b507f430648de173157e069201c943adb2d4e340e7cf5b27b1b09c9cb852f03d63b56602083604051908152a1805f80516020614c798339815191525d80f35b816123cd91612dbf565b61095857815f612384565b816123e291612dbf565b61095857815f61232e565b816123f791612dbf565b61095457825f6122ce565b612424915060203d60201161242a575b61241c8183612dbf565b810190612eac565b5f61225d565b503d612412565b60405162461bcd60e51b815260206004820152603b60248201527f43616e2774207769746864726177206265666f7265206d696e4465616c44657060448201527a1bdcda5d1959115c1bd8da1cc818599d195c881919585b08195b99602a1b6064820152608490fd5b90506020823d6020116124c8575b816124b560209383612dbf565b81010312610771576122079151906121fd565b3d91506124a8565b6040513d8a823e3d90fd5b9091939250106124f457602060049161223186946118f1565b60405162461bcd60e51b815260206004820152603260248201527f467265652062616c616e6365206e6565647320746f20636f766572206d696e4460448201527165616c4465706f736974656445706f63687360701b6064820152608490fd5b508181106121ae565b90506020813d602011612589575b8161257860209383612dbf565b810103126107715751612179612144565b3d915061256b565b633ee5aeb560e01b8352600483fd5b505f80516020614bf9833981519152546001600160a01b031633146120c6565b90506020813d6020116125f2575b816125db60209383612dbf565b81010312610f1d576125ec90612ef3565b5f6120b3565b3d91506125ce565b50346102b757806003193601126102b7575060205f80516020614cb983398151915254604051908152f35b50346102b757806003193601126102b7575060205f80516020614b7983398151915254604051908152f35b50346102b75760403660031901126102b75760043561266e816135a7565b905f8051602061499983398151915260018060a01b03905416608060408401516024604051809481936321b9a09560e21b835260048301525afa80156111d2576102e4936126d99286926119145750606001516001600160a01b031633149081156118fd575061307a565b6126e16136be565b60243590613135565b50346102b75760203660031901126102b7576040612709600435612fc6565b60208251918051835201516020820152f35b50346102b75760403660031901126102b7575f8051602061499983398151915280546040516302984ebd60e31b815290602090829060049082906001600160a01b03165afa90811561077d5783916127fa575b506001600160a01b0316331480156127da575b61278a90612f07565b506127a360045f80516020614c39833981519152613c42565b60405160043563ffffffff60e01b811680910361095457816040915f80516020614b1983398151915293526024356020820152a180f35b505f80516020614bf9833981519152546001600160a01b03163314612781565b90506020813d60201161282c575b8161281560209383612dbf565b810103126109545761282690612ef3565b5f61276e565b3d9150612808565b50346102b757806003193601126102b7575060205f805160206149b983398151915254604051908152f35b50346102b757806003193601126102b7575060205f80516020614cd983398151915254604051908152f35b50346102b757806003193601126102b7575f8051602061499983398151915280546040516302984ebd60e31b815291929190602090829060049082906001600160a01b03165afa908115611dd2578291612a94575b506001600160a01b031633148015612a74575b6128fb90612f07565b6129036136be565b61290b613398565b916005831015612a6057612923600283941415612f6d565b61292e6118f1613865565b8054604051630ecce30160e31b815290602090829060049082906001600160a01b03165afa90811561077d578391612a28575b506020817f3ad16bb58712aa329948d76146b096a4f4b85e024d99473dc50bcd358811b86c925f80516020614d3983398151915254116129fd575b805f80516020614d7983398151915255604051908152a1546001600160a01b0316803b156129fa5781809160046040518094819363437e8bf160e01b83525af18015611dd2576129e95750f35b816129f391612dbf565b6102b75780f35b50fd5b805f80516020614d39833981519152555f80516020614a3983398151915282604051838152a161299c565b9250506020823d602011612a58575b81612a4460209383612dbf565b810103126107715790518291906020612961565b3d9150612a37565b634e487b7160e01b82526021600452602482fd5b505f80516020614bf9833981519152546001600160a01b031633146128f2565b90506020813d602011612ac6575b81612aaf60209383612dbf565b8101031261095857612ac090612ef3565b5f6128df565b3d9150612aa2565b5034610771576020366003190112610771576004355f80516020614999833981519152612b0560018060a01b038254163314612df9565b612b0d6136be565b612b15613398565b6005811015612c5f57600491612b3060026020931415612e4f565b612b58612b3b613865565b60608101612b4a878251612e8b565b905261014081015190613ab4565b5460405163fd44f92160e01b815292839182906001600160a01b03165afa908115612c35575f91612c40575b505f80516020614b59833981519152545f80516020614bf9833981519152546001600160a01b03928316929081169116823b1561077157612be1925f9283869360405196879586948593630459093360e21b855260048501612ecb565b03925af18015612c3557612c1f575b5060207f2a89b2e3d580398d6dc2db5e0f336b52602bbaa51afa9bb5cdf59239cf0d2bea91604051908152a180f35b612c2c9192505f90612dbf565b5f906020612bf0565b6040513d5f823e3d90fd5b612c59915060203d60201161242a5761241c8183612dbf565b5f612b84565b634e487b7160e01b5f52602160045260245ffd5b600435906001600160a01b038216820361077157565b80516001600160e01b0319168252602090810151910152565b602060e060a060c085019380518652838101518487015260408101516040870152600180831b0360608201511660608701526080810151608087015201519360c060a08201528451809452019201905f5b818110612d005750505090565b8251845260209384019390920191600101612cf3565b9181601f84011215610771578235916001600160401b038311610771576020808501948460051b01011161077157565b919060208301926003821015612c5f5752565b60c081019081106001600160401b03821117612d7457604052565b634e487b7160e01b5f52604160045260245ffd5b604081019081106001600160401b03821117612d7457604052565b61016081019081106001600160401b03821117612d7457604052565b601f909101601f19168101906001600160401b03821190821017612d7457604052565b6001600160401b038111612d745760051b60200190565b15612e0057565b60405162461bcd60e51b815260206004820152602160248201527f436f6e6669673a2063616c6c6572206973206e6f7420746865204469616d6f6e6044820152601960fa1b6064820152608490fd5b15612e5657565b60405162461bcd60e51b815260206004820152600d60248201526c1119585b081a5cc8195b991959609a1b6044820152606490fd5b91908201809211612e9857565b634e487b7160e01b5f52601160045260245ffd5b9081602091031261077157516001600160a01b03811681036107715790565b6001600160a01b0391821681529116602082015260408101919091525f606082015260800190565b51906001600160a01b038216820361077157565b15612f0e57565b60405162461bcd60e51b815260206004820152603160248201527f4f6e6c7920566f646f706164206f72204465616c204f776e65722063616e206360448201527030b636103a3434b990333ab731ba34b7b760791b6064820152608490fd5b15612f7457565b60405162461bcd60e51b81526020600482015260126024820152714465616c206973206e6f742061637469766560701b6044820152606490fd5b60405190612fbb82612d88565b5f6020838281520152565b604051612fd281612d88565b5f81525f602082015250612fe4613865565b90612fee816135a7565b511561300b57816130026130089383613d0d565b91613df8565b90565b505060405161301981612d88565b5f81525f602082015290565b908160809103126107715760405190608082016001600160401b03811183821017612d74576130729160609160405280518452602081015160208501526040810151604085015201612ef3565b606082015290565b1561308157565b60405162461bcd60e51b815260206004820152603060248201527f4f6e6c792070726f7669646572206f722070656572206f776e65722063616e2060448201526f18d85b1b081d1a1a5cc81b595d1a1bd960821b6064820152608490fd5b156130e657565b60405162461bcd60e51b815260206004820152602160248201527f4f6666636861696e20776f726b65722069642063616e277420626520656d70746044820152607960f81b6064820152608490fd5b81151590613142826130df565b61314a613865565b61014081015192825f525f80516020614d9983398151915260205261317260405f20916130df565b805415613289575b8481557fcf79e0e27c8c35d39bd9b727f35e6f79573597f660c88baf483fc1511c49203c60408051858152876020820152a160025f80516020614af983398151915254910154936131cb8284613ab4565b6131d3613398565b6005811015612c5f57806131ed60026131f4931415612e4f565b1515612f6d565b1461328357815f525f80516020614c59833981519152602052600160a060405f209260e0810151845501519101555f8051602061499983398151915260018060a01b03905416803b15610771575f9283606492604051968795869463bf0d370760e01b86526004860152602485015260448401525af18015612c35576132775750565b5f61328191612dbf565b565b50505050565b5f80516020614af9833981519152545f198114612e98576001015f80516020614af98339815191525561317a565b81810292918115918404141715612e9857565b91908203918211612e9857565b6001600160a01b0391821681529181166020830152909116604082015260608101919091525f608082015260a00190565b60ff5f80516020614d1983398151915254166003811015612c5f57801561339157600181146133675760021461333d57505f90565b6001600160a01b03165f9081525f805160206149f9833981519152602052604090205460ff161590565b506001600160a01b03165f9081525f805160206149f9833981519152602052604090205460ff1690565b5050600190565b6133a0613865565b6101008101516134a6575f80516020614d39833981519152548015159081613498575b5061349357610140810151905f80516020614999833981519152915f80516020614cb9833981519152541161348c576060015190546040516372ea4f2360e01b815290602090829060049082906001600160a01b03165afa908115612c35575f91613458575b50612179612164613449925f80516020614a5983398151915254906132b7565b1161345357600190565b600490565b90506020813d602011613484575b8161347360209383612dbf565b810103126107715751612179613429565b3d9150613466565b5050600390565b505f90565b905060c0820151115f6133c3565b50600290565b906003811015612c5f5760ff80198354169116179055565b906040516134d181612d88565b825460e01b6001600160e01b0319168152600192909201546020830152565b604051906134fd82612d59565b606060a0835f81525f60208201525f60408201525f838201525f60808201520152565b90604051918281549182825260208201905f5260205f20925f5b81811061354f57505061328192500383612dbf565b845483526001948501948794506020909301920161353a565b1561356f57565b60405162461bcd60e51b815260206004820152601060248201526f15dbdc9ad95c881b9bdd08199bdd5b9960821b6044820152606490fd5b6135af6134f0565b505f525f80516020614d9983398151915260205260405f20613008604051916135d783612d59565b805483526001810154602084019081526002820154604085015260038201546001600160a01b03166060850152600482015460808501529061361b90600501613520565b60a0840152511515613568565b805182101561363c5760209160051b010190565b634e487b7160e01b5f52603260045260245ffd5b919081101561363c5760051b0190565b6001600160a01b031680156136ab575f80516020614bf983398151915280546001600160a01b0319811683179091556001600160a01b03165f80516020614bb98339815191525f80a3565b631e4fbdf760e01b5f525f60045260245ffd5b5f805160206149998339815191525460405163fd44f92160e01b81525f80516020614ab983398151915291602090829060049082906001600160a01b03165afa908115612c35575f916137f5575b505f80516020614b99833981519152546137f15760015f80516020614b998339815191525560018060a01b035f80516020614b5983398151915254169060018060a01b03169160205f82546040518381019163a9059cbb60e01b8352876024830152604482015260448152613782606482612dbf565b519082865af115612c35575f513d6137e85750813b155b6137d55754823b156107715760445f9283604051958694859363a0aeae9f60e01b8552600485015260248401525af18015612c35576132775750565b50635274afe760e01b5f5260045260245ffd5b60011415613799565b5050565b61380e915060203d60201161242a5761241c8183612dbf565b5f61370c565b6040519061382182612da3565b5f610140838281528260208201528260408201528260608201528260808201528260a08201528260c08201528260e082015282610100820152826101208201520152565b61386d613814565b505f8051602061499983398151915254604051630ecce30160e31b81525f80516020614ab98339815191529291602090829060049082906001600160a01b03165afa908115612c35575f91613a82575b505f198101818111612e9857905f80516020614d7983398151915254915f9280613a76575b505f80516020614af983398151915254945f80516020614a5983398151915254935f80516020614cd9833981519152549161391b613814565b5054935f80516020614a79833981519152545f80516020614a1983398151915254906040519661394a88612da3565b8088528160208901528260408901526060880152608087015260a086015260c08501528260e08501521515610100840152836101208401528561014084015282955f80516020614cf9833981519152549384841115613a6d57505f80516020614d39833981519152549485841115613a36578585106139e6575050506139e29192506139dc60a08601938451926132ca565b90612e8b565b9052565b613a0492916139ff6139ff926139ff6139e2988a6132ca565b6132b7565b60608601613a138282516132ca565b9052613a2460808701918251612e8b565b90526139dc60a08601938451926132ca565b613a4d95506139ff6139ff9293956139ff956132ca565b60608301613a5c8282516132ca565b90526139e260808401918251612e8b565b96505050505050565b6001935090505f6138e2565b90506020813d602011613aac575b81613a9d60209383612dbf565b8101031261077157515f6138bd565b3d9150613a90565b905f80516020614ab9833981519152825160608401918251809203613c3a575b505060208301516080840151809103613c25575b50604083015160a0840151809103613c10575b505f80516020614cd9833981519152549060e08401519361010081015115613b33575b505050505f80516020614cf983398151915255565b5f80516020614cb9833981519152548085109182613bc357505050906139ff613b6c9251935f80516020614a59833981519152546132b7565b8015613baf57613b8e6020915f80516020614a39833981519152930484612e8b565b805f80516020614d3983398151915255604051908152a15b5f808080613b1e565b634e487b7160e01b5f52601260045260245ffd5b6101400151101593509150829050613c08575b5015613ba6575f5f80516020614d39833981519152555f80516020614a3983398151915260206040515f8152a1613ba6565b90505f613bd6565b5f80516020614a19833981519152555f613afb565b5f80516020614a79833981519152555f613ae8565b555f80613ad4565b9080356001600160e01b0319811681036107715760019160209160e01c63ffffffff198554161784550135910155565b90816101609103126107715760405190613c8b82612da3565b8051906006821015610771576101409183526020810151602084015260408101516040840152606081015160608401526080810151608084015260a081015160a084015260c081015160c0840152613ce560e08201612ef3565b60e0840152610100810151610100840152610120810151610120840152015161014082015290565b9060e00151905f805160206149998339815191529060ff5f80516020614d1983398151915254166003811015612c5f57600114613df357613d50610160916146a9565b9154604051631de5608360e21b81526004810193909352829060249082906001600160a01b03165afa908115612c35575f91613dc4575b5061012081015180613dbe575060a00180515f198101908111612e98578211613dae575090565b515f19810191508111612e985790565b91505090565b613de691506101603d8111613dec575b613dde8183612dbf565b810190613c72565b5f613d87565b503d613dd4565b505090565b91604051613e0581612d88565b5f81525f602082015250825f525f80516020614c59833981519152602052613e3060405f2093614725565b92805491828110613ec55760a0613e4c613e58946001936132ca565b940151910154906132ca565b90818110613eb657613e96613e8f612164613e7a613e9e9562989680956132ca565b5f80516020614a5983398151915254906132b7565b93846132b7565b0480926132ca565b9060405191613eac83612d88565b8252602082015290565b50505060405161301981612d88565b505050505060405161301981612d88565b5f80516020614bf9833981519152546001600160a01b03163303613ef657565b63118cdaa760e01b5f523360045260245ffd5b9291905f901561328357613f1d8385613d0d565b91613f29838587613df8565b92835194613f3d6020860196875190612e8b565b91821561433057613f7991608091895f525f80516020614c5983398151915260205260405f20908155600160a0830151910155019182516132ca565b90525f80516020614999833981519152805460405163fd44f92160e01b81529190602090839060049082906001600160a01b03165afa918215612c35575f9261430f575b5060018060a01b035f80516020614b5983398151915254169285516141d7575b508551614026575b50505050916060917fc512f9d0bb2627096491f1074af42a5032fe36ef5dcae7c216cfc34f6ea474d6935190519060405192835260208301526040820152a1565b54604051638da5cb5b60e01b81529190602090839060049082906001600160a01b03165afa9182156111d257849261419b575b505f80516020614bf9833981519152805487516001600160a01b039384169493909116843b15610950576040516388081fcb60e01b8152918791839182916140a691908a60048501612ecb565b038183885af18015610e0957908691614186575b5050548651906001600160a01b0316833b15614182578286916140f260405194859384936312bc368360e31b85528a600486016132d7565b038183875af1801561417757908591614162575b5050855192823b15610788579161413793918580946040519687958694859362b13fab60e11b855260048501612ecb565b03925af18015611dd25761414d575b8080613fe5565b614158828092612dbf565b6102b75780614146565b8161416c91612dbf565b610f1d57835f614106565b6040513d87823e3d90fd5b8580fd5b8161419091612dbf565b61078857845f6140ba565b9091506020813d6020116141cf575b816141b760209383612dbf565b81010312610f1d576141c890612ef3565b905f614059565b3d91506141aa565b5f80516020614bf9833981519152805487516001600160a01b03868116939216833b15610771576040516388081fcb60e01b8152915f918391829161422191908c60048501612ecb565b038183875af18015612c35576142fa575b50548751906001600160a01b0316823b156107cd5783889161426960405194859384936312bc368360e31b85528c600486016132d7565b038183865af180156142ef579087916142da575b5050865191813b15610950579186916142ad938360405180968195829462b13fab60e11b84528c60048501612ecb565b03925af18015614177579085916142c5575b50613fdd565b816142cf91612dbf565b610f1d57835f6142bf565b816142e491612dbf565b61418257855f61427d565b6040513d89823e3d90fd5b6143079197505f90612dbf565b5f955f614232565b61432991925060203d60201161242a5761241c8183612dbf565b905f613fbd565b5050505050505050565b614343816135a7565b9161434c613865565b9183519061436a845f9360018060a01b036060890151169084613f09565b5f80516020614c9983398151915294815f525f80516020614d9983398151915260205260405f20946040519561439f87612d59565b8054875260018101549660208101978852600282015491604082019283526143fa6143ea600560018060a01b0360038501541693606086019485526004810154608087015201613520565b9960a084019a8b52511515613568565b5f5b8951805182101561443a579061441481600193613628565b515f525f805160206149d983398151915260205260405f2060ff198154169055016143fc565b505091939597509193959761444f815461481d565b9055516001600160a01b03165f9081525f80516020614ad983398151915260205260409020805461447f9061481d565b90555161467e575b5190815f525f80516020614b3983398151915260205260405f2060ff198154169055835f525f80516020614d99833981519152602052600560405f205f81555f60018201555f60028201555f60038201555f6004820155018054905f815581614660575b5050614504845f80516020614bd98339815191526148d3565b156146115761454c917f2931f8975c0ce3cdf8ebe0cac36f06048736d46d6df66ac21cfe717b9ee710066020604051878152a25f80516020614af98339815191525490613ab4565b5f805160206149998339815191525460a09190910151906001600160a01b0316803b1561077157604051809263012a4ebb60e41b8252604482016040600484015281518091526020606484019201905f5b8181106145f85750505091815f81819588602483015203925af18015612c35576145e3575b5081525f80516020614c598339815191526020526001604082208281550155565b6145f09192505f90612dbf565b5f905f6145c2565b825184528694506020938401939092019160010161459d565b60405162461bcd60e51b815260206004820152602160248201527f4661696c656420746f2072656d6f766520776f726b65722066726f6d206c69736044820152601d60fa1b6064820152608490fd5b5f5260205f20908101905b818110156144eb575f815560010161466b565b6146955f80516020614af98339815191525461481d565b5f80516020614af983398151915255614487565b6146b2906135a7565b5f805160206149998339815191525460409182015191516321b9a09560e21b81526004810192909252608090829060249082906001600160a01b03165afa8015612c35576020915f91614706575b50015190565b61471f915060803d6080116114f5576114e68183612dbf565b5f614700565b5f805160206149998339815191529060ff5f80516020614d1983398151915254166003811015612c5f576001146147b957614762610160916146a9565b9154604051631de5608360e21b81526004810193909352829060249082906001600160a01b03165afa8015612c355760c0915f916147a05750015190565b61471f91506101603d8111613dec57613dde8183612dbf565b50505f90565b906147e357508051156147d457805190602001fd5b63d6bda27560e01b5f5260045ffd5b81511580614814575b6147f4575090565b639996b31560e01b5f9081526001600160a01b0391909116600452602490fd5b50803b156147ec565b8015612e98575f190190565b60ff5f80516020614d598339815191525460401c161561484557565b631afcd79f60e31b5f5260045ffd5b805482101561363c575f5260205f2001905f90565b6001810190825f528160205260405f2054155f146148cc578054600160401b811015612d74576148b96148a3826001879401855584614854565b819391549060031b91821b915f19901b19161790565b905554915f5260205260405f2055600190565b5050505f90565b906001820191815f528260205260405f20548015155f14614990575f198101818111612e985782545f19810191908211612e985781810361495b575b50505080548015614947575f1901906149288282614854565b8154905f199060031b1b19169055555f526020525f6040812055600190565b634e487b7160e01b5f52603160045260245ffd5b61497b61496b6148a39386614854565b90549060031b1c92839286614854565b90555f528360205260405f20555f808061490f565b505050505f9056fe8953f5482bc1a621075e75537625fa3bd2025e7df7baf6ba1dbfbf2212912d048953f5482bc1a621075e75537625fa3bd2025e7df7baf6ba1dbfbf2212912d05ec986952a0671e4b2e5ec4461085fb880bc7a7b88668240f8d55173039155d248953f5482bc1a621075e75537625fa3bd2025e7df7baf6ba1dbfbf2212912d1185276e830bb0cbb783f0e6b4a968acc65deef7a2b0ff14d52821c42f785b9cc1cecd349d986645e1758ec135f91f1ad20564a8bcc6c2b5a5eaca9b09841495c58953f5482bc1a621075e75537625fa3bd2025e7df7baf6ba1dbfbf2212912d0e85276e830bb0cbb783f0e6b4a968acc65deef7a2b0ff14d52821c42f785b9cc08953f5482bc1a621075e75537625fa3bd2025e7df7baf6ba1dbfbf2212912d0f85276e830bb0cbb783f0e6b4a968acc65deef7a2b0ff14d52821c42f785b9cbfec986952a0671e4b2e5ec4461085fb880bc7a7b88668240f8d55173039155d22ec986952a0671e4b2e5ec4461085fb880bc7a7b88668240f8d55173039155d21c820a66d3bdd50a45cf12cda6dc8ec9e94fb5123edd7da736eea18316f8523a0ec986952a0671e4b2e5ec4461085fb880bc7a7b88668240f8d55173039155d258953f5482bc1a621075e75537625fa3bd2025e7df7baf6ba1dbfbf2212912d088953f5482bc1a621075e75537625fa3bd2025e7df7baf6ba1dbfbf2212912d0b85276e830bb0cbb783f0e6b4a968acc65deef7a2b0ff14d52821c42f785b9cc78be0079c531659141344cd1fd0a4f28419497f9722a3daafe3b4186f6b6457e0ec986952a0671e4b2e5ec4461085fb880bc7a7b88668240f8d55173039155d26b13d3e7783d509d8d65d3e1e62ec0b103a07e0cbfa1ee74ae19127f297dddfcc38fb081a0b484406977bd94ff8edb79be44b5ca514130361182516b39e2c45288953f5482bc1a621075e75537625fa3bd2025e7df7baf6ba1dbfbf2212912d0685276e830bb0cbb783f0e6b4a968acc65deef7a2b0ff14d52821c42f785b9cc49b779b17422d0df92223018b32b4d1fa46e071723d6817e2486d003becc55f00ec986952a0671e4b2e5ec4461085fb880bc7a7b88668240f8d55173039155d208953f5482bc1a621075e75537625fa3bd2025e7df7baf6ba1dbfbf2212912d0a8953f5482bc1a621075e75537625fa3bd2025e7df7baf6ba1dbfbf2212912d0d85276e830bb0cbb783f0e6b4a968acc65deef7a2b0ff14d52821c42f785b9cc38953f5482bc1a621075e75537625fa3bd2025e7df7baf6ba1dbfbf2212912d1085276e830bb0cbb783f0e6b4a968acc65deef7a2b0ff14d52821c42f785b9cc2f0c57e16840df040f15088dc2f81fe391c3923bec73e23a9662efc9c229c6a0085276e830bb0cbb783f0e6b4a968acc65deef7a2b0ff14d52821c42f785b9cc5ec986952a0671e4b2e5ec4461085fb880bc7a7b88668240f8d55173039155d2385276e830bb0cbb783f0e6b4a968acc65deef7a2b0ff14d52821c42f785b9cc68953f5482bc1a621075e75537625fa3bd2025e7df7baf6ba1dbfbf2212912d0ca2646970667358221220b41f39987aeb90587fe2e3d94fcbc688fe45fe80fe5c4c59b06b669d4034c10464736f6c634300081a0033","linkReferences":{}},"methodIdentifiers":{"activateWorker(bytes32,bytes32)":"22ebd58a","addProviderToAccessList(address)":"73134c15","addWorker(address,(bytes32,bytes32[]),bytes32)":"d76e4805","appCID()":"9bc66868","changeProvidersAccessType(uint8)":"636fcefb","computePeerUsed(bytes32)":"bd1926e0","creationBlock()":"17634514","cuCountPerWorker()":"15a0f31a","depositFromOwner(uint256)":"0574131f","effectors()":"fc1e5e2a","getActivatedWorkerCount()":"ade0a202","getFreeBalance()":"e93c4f15","getMaxPaidEpoch()":"378b22e4","getProtocolVersion()":"33ce93fe","getRewardAmount(bytes32)":"1af57b96","getStatus()":"4e69d560","getWorker(bytes32)":"aba93a10","getWorkerCount()":"4d7599f1","getWorkerCount(address)":"59c4afc0","getWorkers()":"c1499f71","initialize(address,(bytes4,bytes32),address,uint256,uint256,uint256,uint256,uint256,(bytes4,bytes32)[],uint8,address[],uint256,address)":"d93446c4","isProviderAllowed(address)":"3e8ae1ae","maxWorkersPerProvider()":"8a0c725b","migrateToBalanceKeeper()":"630eceea","minWorkers()":"2db31193","multicall(bytes[])":"ac9650d8","owner()":"8da5cb5b","paymentToken()":"3013ce29","pricePerCuPerEpoch()":"70220a9b","providersAccessType()":"d4773ff0","removeProviderFromAccessList(address)":"444e6a5a","removeStaleWorkers(bytes32[])":"cb7b88d1","removeWorker(bytes32)":"bc126f1f","renounceOwnership()":"715018a6","setAppCID((bytes4,bytes32))":"176474cf","stop()":"07da68f5","targetWorkers()":"2943dcab","transferOwnership(address)":"f2fde38b","withdraw(uint256)":"2e1a7d4d","withdrawRewards(bytes32)":"7dfb6626"},"storageLayout":{"storage":[],"types":{}},"devdoc":{"version":1,"kind":"dev","methods":{"activateWorker(bytes32,bytes32)":{"details":"Set offchain worker ID for a corresponding onchain worker for a deal"},"addProviderToAccessList(address)":{"details":"Adds a provider to the access list"},"addWorker(address,(bytes32,bytes32[]),bytes32)":{"details":"Adds a compute unit to the deal","params":{"computeProvider":"The compute provider address","peerId":"The peer ID","workerData":"The worker with data"}},"appCID()":{"details":"Returns the app CID"},"changeProvidersAccessType(uint8)":{"details":"Change the providers access type"},"computePeerUsed(bytes32)":{"details":"Returns the boolean flag indicating whether the peer exists in the deal"},"constructor":{},"creationBlock()":{"details":"Returns the creation block of the deal"},"cuCountPerWorker()":{"details":"Returns number of CUs in a worker"},"depositFromOwner(uint256)":{"details":"Deposits payment token to the deal"},"effectors()":{"details":"Returns the effector CIDs"},"getActivatedWorkerCount()":{"details":"Returns the worker count. Worker is a compute unit that has a worker ID"},"getFreeBalance()":{"details":"Returns the free balance of the deal"},"getMaxPaidEpoch()":{"details":"Returns the max paid epoch"},"getProtocolVersion()":{"details":"Returns the protocol version"},"getRewardAmount(bytes32)":{"details":"Returns the reward amount by compute unit ID"},"getStatus()":{"details":"Returns the status of the deal"},"getWorker(bytes32)":{"details":"Returns worker by ID"},"getWorkerCount()":{"details":"Returns total number of workers"},"getWorkerCount(address)":{"details":"Returns number of workers in provider"},"getWorkers()":{"details":"Returns workers registered in this deal"},"isProviderAllowed(address)":{"details":"Returns the boolean indicating whether the provider is allowed or not"},"maxWorkersPerProvider()":{"details":"Returns the max number of workers per provider"},"migrateToBalanceKeeper()":{"details":"Migrate balance to balance keeper"},"minWorkers()":{"details":"Returns the min number of workers"},"multicall(bytes[])":{"details":"Receives and executes a batch of function calls on this contract."},"owner()":{"details":"Returns the address of the current owner."},"paymentToken()":{"details":"Returns the payment token address"},"pricePerCuPerEpoch()":{"details":"Returns the price per CU per epoch"},"providersAccessType()":{"details":"Returns the providers access type"},"removeProviderFromAccessList(address)":{"details":"Removes a provider from the access list"},"removeStaleWorkers(bytes32[])":{"details":"Allows oracle to remove worker from a deal that is not paying workers."},"removeWorker(bytes32)":{"details":"Removes a worker from the deal"},"renounceOwnership()":{"details":"Leaves the contract without owner. It will not be possible to call `onlyOwner` functions. Can only be called by the current owner. NOTE: Renouncing ownership will leave the contract without an owner, thereby disabling any functionality that is only available to the owner."},"setAppCID((bytes4,bytes32))":{"details":"Sets the app CID"},"stop()":{"details":"Stop the deal"},"targetWorkers()":{"details":"Returns the max number of workers"},"transferOwnership(address)":{"details":"Transfers ownership of the contract to a new account (`newOwner`). Can only be called by the current owner."},"withdraw(uint256)":{"details":"Withdraws payment token from the deal"},"withdrawRewards(bytes32)":{"details":"Withdraws rewards from the deal by compute unit ID"}},"events":{"AppCIDChanged((bytes4,bytes32))":{"details":"Emitted when the app CID is changed","params":{"newAppCID":"The new app CID"}},"DealEnded(uint256)":{"details":"Emitted when a deal is ended. This event can be emitted in the not-ended epoch. It can be emitted after the ended epoch in any epoch"},"Deposited(uint256)":{"details":"Emitted when a owner deposits payment token to the deal"},"Initialized(uint64)":{"details":"Triggered when the contract has been initialized or reinitialized."},"MaxPaidEpochUpdated(uint256)":{"details":"Emitted when a max paid epoch is updated"},"ProviderAddedToAccessList(address)":{"details":"Emitted when a provider is added to the access list","params":{"provider":"The provider address"}},"ProviderRemovedFromAccessList(address)":{"details":"Emitted when a provider is removed from the access list","params":{"provider":"The provider address"}},"ProvidersAccessTypeChanged(uint8)":{"details":"Emitted when the providers access type is changed","params":{"newAccessType":"The new access type"}},"RewardWithdrawn(bytes32,uint256,uint256)":{"details":"Emitted when a compute unit withdraws rewards from the deal"},"Withdrawn(uint256)":{"details":"Emitted when a owner withdraws payment token from the deal"},"WorkerIdUpdated(bytes32,bytes32)":{"details":"Emitted when a worker ID is updated","params":{"offchainWorkerId":"The new worker ID","onchainWorkerId":"The worker"}},"WorkerJoined(bytes32,bytes32)":{"details":"Emitted when a new worker is added","params":{"onchainId":"The worker ID","peerId":"The id of compute peer"}},"WorkerRemoved(bytes32,bytes32)":{"details":"Emitted when a worker is removed","params":{"onchainId":"The worker onchain ID","peerId":"The id of compute peer"}}},"errors":{"AddressEmptyCode(address)":[{"details":"There's no code at `target` (it is not a contract)."}],"FailedCall()":[{"details":"A call to an address target failed. The target may have reverted."}],"InvalidInitialization()":[{"details":"The contract is already initialized."}],"NotInitializing()":[{"details":"The contract is not initializing."}],"OwnableInvalidOwner(address)":[{"details":"The owner is not a valid owner account. (eg. `address(0)`)"}],"OwnableUnauthorizedAccount(address)":[{"details":"The caller account is not authorized to perform an operation."}],"ReentrancyGuardReentrantCall()":[{"details":"Unauthorized reentrant call."}],"SafeERC20FailedOperation(address)":[{"details":"An operation with an ERC-20 token failed."}]}},"id":109}