{"abi":[{"type":"constructor","inputs":[],"stateMutability":"nonpayable"},{"type":"function","name":"activateWorker","inputs":[{"name":"onchainWorkerId","type":"bytes32","internalType":"bytes32"},{"name":"offchainWorkerId","type":"bytes32","internalType":"bytes32"}],"outputs":[],"stateMutability":"nonpayable"},{"type":"function","name":"addProviderToAccessList","inputs":[{"name":"provider","type":"address","internalType":"address"}],"outputs":[],"stateMutability":"nonpayable"},{"type":"function","name":"addWorker","inputs":[{"name":"computeProvider","type":"address","internalType":"address"},{"name":"workerData","type":"tuple","internalType":"struct IWorkerManager.WorkerData","components":[{"name":"onchainId","type":"bytes32","internalType":"bytes32"},{"name":"computeUnitIds","type":"bytes32[]","internalType":"bytes32[]"}]},{"name":"peerId","type":"bytes32","internalType":"bytes32"}],"outputs":[],"stateMutability":"nonpayable"},{"type":"function","name":"appCID","inputs":[],"outputs":[{"name":"","type":"tuple","internalType":"struct CIDV1","components":[{"name":"prefixes","type":"bytes4","internalType":"bytes4"},{"name":"hash","type":"bytes32","internalType":"bytes32"}]}],"stateMutability":"view"},{"type":"function","name":"changeProvidersAccessType","inputs":[{"name":"accessType","type":"uint8","internalType":"enum IConfig.AccessType"}],"outputs":[],"stateMutability":"nonpayable"},{"type":"function","name":"computePeerUsed","inputs":[{"name":"peerId","type":"bytes32","internalType":"bytes32"}],"outputs":[{"name":"","type":"bool","internalType":"bool"}],"stateMutability":"view"},{"type":"function","name":"creationBlock","inputs":[],"outputs":[{"name":"","type":"uint256","internalType":"uint256"}],"stateMutability":"view"},{"type":"function","name":"cuCountPerWorker","inputs":[],"outputs":[{"name":"","type":"uint256","internalType":"uint256"}],"stateMutability":"view"},{"type":"function","name":"depositFromOwner","inputs":[{"name":"amount","type":"uint256","internalType":"uint256"},{"name":"reason","type":"uint8","internalType":"enum IBalanceKeeper.DealDepositReason"}],"outputs":[],"stateMutability":"nonpayable"},{"type":"function","name":"effectors","inputs":[],"outputs":[{"name":"","type":"tuple[]","internalType":"struct CIDV1[]","components":[{"name":"prefixes","type":"bytes4","internalType":"bytes4"},{"name":"hash","type":"bytes32","internalType":"bytes32"}]}],"stateMutability":"view"},{"type":"function","name":"getActivatedWorkerCount","inputs":[],"outputs":[{"name":"","type":"uint256","internalType":"uint256"}],"stateMutability":"view"},{"type":"function","name":"getFreeBalance","inputs":[],"outputs":[{"name":"","type":"uint256","internalType":"uint256"}],"stateMutability":"view"},{"type":"function","name":"getMaxPaidEpoch","inputs":[],"outputs":[{"name":"","type":"uint256","internalType":"uint256"}],"stateMutability":"view"},{"type":"function","name":"getProtocolVersion","inputs":[],"outputs":[{"name":"","type":"uint256","internalType":"uint256"}],"stateMutability":"view"},{"type":"function","name":"getRewardAmount","inputs":[{"name":"onchainWorkerId","type":"bytes32","internalType":"bytes32"}],"outputs":[{"name":"","type":"tuple","internalType":"struct IDeal.DealRewards","components":[{"name":"providerReward","type":"uint256","internalType":"uint256"},{"name":"stakerReward","type":"uint256","internalType":"uint256"}]}],"stateMutability":"view"},{"type":"function","name":"getStatus","inputs":[],"outputs":[{"name":"","type":"uint8","internalType":"enum IDeal.Status"}],"stateMutability":"view"},{"type":"function","name":"getWorker","inputs":[{"name":"onchainWorkerId","type":"bytes32","internalType":"bytes32"}],"outputs":[{"name":"","type":"tuple","internalType":"struct IWorkerManager.Worker","components":[{"name":"offchainId","type":"bytes32","internalType":"bytes32"},{"name":"onchainId","type":"bytes32","internalType":"bytes32"},{"name":"peerId","type":"bytes32","internalType":"bytes32"},{"name":"provider","type":"address","internalType":"address"},{"name":"joinedEpoch","type":"uint256","internalType":"uint256"},{"name":"computeUnitIds","type":"bytes32[]","internalType":"bytes32[]"}]}],"stateMutability":"view"},{"type":"function","name":"getWorkerCount","inputs":[],"outputs":[{"name":"","type":"uint256","internalType":"uint256"}],"stateMutability":"view"},{"type":"function","name":"getWorkerCount","inputs":[{"name":"provider","type":"address","internalType":"address"}],"outputs":[{"name":"","type":"uint256","internalType":"uint256"}],"stateMutability":"view"},{"type":"function","name":"getWorkers","inputs":[],"outputs":[{"name":"","type":"tuple[]","internalType":"struct IWorkerManager.Worker[]","components":[{"name":"offchainId","type":"bytes32","internalType":"bytes32"},{"name":"onchainId","type":"bytes32","internalType":"bytes32"},{"name":"peerId","type":"bytes32","internalType":"bytes32"},{"name":"provider","type":"address","internalType":"address"},{"name":"joinedEpoch","type":"uint256","internalType":"uint256"},{"name":"computeUnitIds","type":"bytes32[]","internalType":"bytes32[]"}]}],"stateMutability":"view"},{"type":"function","name":"initialize","inputs":[{"name":"diamond_","type":"address","internalType":"contract IDiamond"},{"name":"appCID_","type":"tuple","internalType":"struct CIDV1","components":[{"name":"prefixes","type":"bytes4","internalType":"bytes4"},{"name":"hash","type":"bytes32","internalType":"bytes32"}]},{"name":"paymentToken_","type":"address","internalType":"contract IERC20"},{"name":"minWorkers_","type":"uint256","internalType":"uint256"},{"name":"targetWorkers_","type":"uint256","internalType":"uint256"},{"name":"cuCountPerWorker_","type":"uint256","internalType":"uint256"},{"name":"maxWorkersPerProvider_","type":"uint256","internalType":"uint256"},{"name":"pricePerCuPerEpoch_","type":"uint256","internalType":"uint256"},{"name":"effectors_","type":"tuple[]","internalType":"struct CIDV1[]","components":[{"name":"prefixes","type":"bytes4","internalType":"bytes4"},{"name":"hash","type":"bytes32","internalType":"bytes32"}]},{"name":"providersAccessType_","type":"uint8","internalType":"enum IConfig.AccessType"},{"name":"providersAccessList_","type":"address[]","internalType":"address[]"},{"name":"protocolVersion_","type":"uint256","internalType":"uint256"},{"name":"owner_","type":"address","internalType":"address"}],"outputs":[],"stateMutability":"nonpayable"},{"type":"function","name":"isProviderAllowed","inputs":[{"name":"account","type":"address","internalType":"address"}],"outputs":[{"name":"","type":"bool","internalType":"bool"}],"stateMutability":"view"},{"type":"function","name":"maxWorkersPerProvider","inputs":[],"outputs":[{"name":"","type":"uint256","internalType":"uint256"}],"stateMutability":"view"},{"type":"function","name":"minWorkers","inputs":[],"outputs":[{"name":"","type":"uint256","internalType":"uint256"}],"stateMutability":"view"},{"type":"function","name":"multicall","inputs":[{"name":"data","type":"bytes[]","internalType":"bytes[]"}],"outputs":[{"name":"results","type":"bytes[]","internalType":"bytes[]"}],"stateMutability":"nonpayable"},{"type":"function","name":"owner","inputs":[],"outputs":[{"name":"","type":"address","internalType":"address"}],"stateMutability":"view"},{"type":"function","name":"paymentToken","inputs":[],"outputs":[{"name":"","type":"address","internalType":"contract IERC20"}],"stateMutability":"view"},{"type":"function","name":"pricePerCuPerEpoch","inputs":[],"outputs":[{"name":"","type":"uint256","internalType":"uint256"}],"stateMutability":"view"},{"type":"function","name":"providersAccessType","inputs":[],"outputs":[{"name":"","type":"uint8","internalType":"enum IConfig.AccessType"}],"stateMutability":"view"},{"type":"function","name":"removeProviderFromAccessList","inputs":[{"name":"provider","type":"address","internalType":"address"}],"outputs":[],"stateMutability":"nonpayable"},{"type":"function","name":"removeStaleWorkers","inputs":[{"name":"onchainWorkerIds","type":"bytes32[]","internalType":"bytes32[]"}],"outputs":[],"stateMutability":"nonpayable"},{"type":"function","name":"removeWorker","inputs":[{"name":"onchainWorkerId","type":"bytes32","internalType":"bytes32"}],"outputs":[],"stateMutability":"nonpayable"},{"type":"function","name":"renounceOwnership","inputs":[],"outputs":[],"stateMutability":"nonpayable"},{"type":"function","name":"setAppCID","inputs":[{"name":"appCID_","type":"tuple","internalType":"struct CIDV1","components":[{"name":"prefixes","type":"bytes4","internalType":"bytes4"},{"name":"hash","type":"bytes32","internalType":"bytes32"}]}],"outputs":[],"stateMutability":"nonpayable"},{"type":"function","name":"stop","inputs":[],"outputs":[],"stateMutability":"nonpayable"},{"type":"function","name":"targetWorkers","inputs":[],"outputs":[{"name":"","type":"uint256","internalType":"uint256"}],"stateMutability":"view"},{"type":"function","name":"transferOwnership","inputs":[{"name":"newOwner","type":"address","internalType":"address"}],"outputs":[],"stateMutability":"nonpayable"},{"type":"function","name":"withdraw","inputs":[{"name":"amount","type":"uint256","internalType":"uint256"}],"outputs":[],"stateMutability":"nonpayable"},{"type":"function","name":"withdrawRewards","inputs":[{"name":"onchainWorkerId","type":"bytes32","internalType":"bytes32"}],"outputs":[],"stateMutability":"nonpayable"},{"type":"event","name":"AppCIDChanged","inputs":[{"name":"newAppCID","type":"tuple","indexed":false,"internalType":"struct CIDV1","components":[{"name":"prefixes","type":"bytes4","internalType":"bytes4"},{"name":"hash","type":"bytes32","internalType":"bytes32"}]}],"anonymous":false},{"type":"event","name":"DealEnded","inputs":[{"name":"endedEpoch","type":"uint256","indexed":false,"internalType":"uint256"}],"anonymous":false},{"type":"event","name":"Deposited","inputs":[{"name":"amount","type":"uint256","indexed":false,"internalType":"uint256"}],"anonymous":false},{"type":"event","name":"Initialized","inputs":[{"name":"version","type":"uint64","indexed":false,"internalType":"uint64"}],"anonymous":false},{"type":"event","name":"MaxPaidEpochUpdated","inputs":[{"name":"maxPaidEpoch","type":"uint256","indexed":false,"internalType":"uint256"}],"anonymous":false},{"type":"event","name":"OwnershipTransferred","inputs":[{"name":"previousOwner","type":"address","indexed":true,"internalType":"address"},{"name":"newOwner","type":"address","indexed":true,"internalType":"address"}],"anonymous":false},{"type":"event","name":"ProviderAddedToAccessList","inputs":[{"name":"provider","type":"address","indexed":false,"internalType":"address"}],"anonymous":false},{"type":"event","name":"ProviderRemovedFromAccessList","inputs":[{"name":"provider","type":"address","indexed":false,"internalType":"address"}],"anonymous":false},{"type":"event","name":"ProvidersAccessTypeChanged","inputs":[{"name":"newAccessType","type":"uint8","indexed":false,"internalType":"enum IConfig.AccessType"}],"anonymous":false},{"type":"event","name":"RewardWithdrawn","inputs":[{"name":"onchainWorkerId","type":"bytes32","indexed":false,"internalType":"bytes32"},{"name":"providerReward","type":"uint256","indexed":false,"internalType":"uint256"},{"name":"stakerReward","type":"uint256","indexed":false,"internalType":"uint256"}],"anonymous":false},{"type":"event","name":"Withdrawn","inputs":[{"name":"amount","type":"uint256","indexed":false,"internalType":"uint256"}],"anonymous":false},{"type":"event","name":"WorkerIdUpdated","inputs":[{"name":"onchainWorkerId","type":"bytes32","indexed":false,"internalType":"bytes32"},{"name":"offchainWorkerId","type":"bytes32","indexed":false,"internalType":"bytes32"}],"anonymous":false},{"type":"event","name":"WorkerJoined","inputs":[{"name":"peerId","type":"bytes32","indexed":true,"internalType":"bytes32"},{"name":"onchainId","type":"bytes32","indexed":false,"internalType":"bytes32"}],"anonymous":false},{"type":"event","name":"WorkerRemoved","inputs":[{"name":"peerId","type":"bytes32","indexed":true,"internalType":"bytes32"},{"name":"onchainId","type":"bytes32","indexed":false,"internalType":"bytes32"}],"anonymous":false},{"type":"error","name":"AddressEmptyCode","inputs":[{"name":"target","type":"address","internalType":"address"}]},{"type":"error","name":"FailedCall","inputs":[]},{"type":"error","name":"InvalidInitialization","inputs":[]},{"type":"error","name":"NotInitializing","inputs":[]},{"type":"error","name":"OwnableInvalidOwner","inputs":[{"name":"owner","type":"address","internalType":"address"}]},{"type":"error","name":"OwnableUnauthorizedAccount","inputs":[{"name":"account","type":"address","internalType":"address"}]},{"type":"error","name":"ReentrancyGuardReentrantCall","inputs":[]}],"bytecode":{"object":"0x6080806040523460d0577ff0c57e16840df040f15088dc2f81fe391c3923bec73e23a9662efc9c229c6a005460ff8160401c1660c1576002600160401b03196001600160401b03821601605c575b604051614bf390816100d58239f35b6001600160401b0319166001600160401b039081177ff0c57e16840df040f15088dc2f81fe391c3923bec73e23a9662efc9c229c6a005581527fc7f505b2f371ae2175ee4913f4499e1f2633a7b5936321eed1cdaeb6115181d290602090a15f80604d565b63f92ee8a960e01b5f5260045ffd5b5f80fdfe60806040526004361015610011575f80fd5b5f803560e01c806307da68f51461291357806315a0f31a146128e857806317634514146128bd578063176474cf146127a45780631af57b961461277357806322ebd58a146126e15780632943dcab146126b65780632db311931461268b5780632e1a7d4d146121075780633013ce29146120d157806333ce93fe146120a6578063378b22e41461207b5780633e8ae1ae1461204d578063444e6a5a14611f255780634d7599f114611efa5780634e69d56014611ecc57806359c4afc014611e86578063636fcefb14611cf357806370220a9b14611cc8578063715018a614611c7257806373134c1514611acf5780637dfb6626146119d35780638a0c725b146119a85780638da5cb5b146119725780639bc6686814611915578063aba93a10146118e1578063ac9650d8146116c9578063ade0a2021461169e578063bc126f1f14611538578063bd1926e0146114fb578063c1499f7114611387578063cb7b88d11461111e578063d4773ff0146110e7578063d76e480514610b2a578063d93446c4146104d9578063e93c4f15146104b2578063ed7b7653146102dc578063f2fde38b146102af5763fc1e5e2a146101c7575f80fd5b346102ac57806003193601126102ac575f8051602061487e833981519152546101ef81612cba565b6101fc6040519182612c97565b8181525f8051602061487e83398151915283526020810191837f5702833323968fbb14fdd86869039efe011756b786a9a900c16991bda0e3e573845b83831061028e57868587604051928392602084019060208552518091526040840192915b81811061026a575050500390f35b9193509160206040826102806001948851612b61565b01940191019184939261025c565b6002602060019261029e85613346565b815201920192019190610238565b80fd5b50346102ac5760203660031901126102ac576102d96102cc612b4b565b6102d4613c58565b613538565b80f35b50346102ac5760403660031901126102ac5760043560243560028110156104ae575f8051602061477e83398151915261031f60018060a01b0382541633146134e2565b61032761321a565b600581101561049a57602085939261034460026004941415612f13565b61036c61034f6135e7565b6060810161035e898251613105565b905261014081015190613836565b5460405163fd44f92160e01b815292839182906001600160a01b03165afa90811561048f578391610460575b505f8051602061493e833981519152545f805160206149be833981519152546001600160a01b03918216929082169116803b1561045c578492836084926040519687958694630459093360e21b86526004860152602485015289604485015260648401525af1801561045157610438575b507f2a89b2e3d580398d6dc2db5e0f336b52602bbaa51afa9bb5cdf59239cf0d2bea602083604051908152a180f35b8161044291612c97565b61044d57815f610409565b5080fd5b6040513d84823e3d90fd5b8480fd5b610482915060203d602011610488575b61047a8183612c97565b810190613112565b5f610398565b503d610470565b6040513d85823e3d90fd5b634e487b7160e01b85526021600452602485fd5b8280fd5b50346102ac57806003193601126102ac57602060606104cf6135e7565b0151604051908152f35b50346102ac576101c03660031901126102ac576004356001600160a01b038116810361044d57604036602319011261044d576064356001600160a01b03811681036104ae5760c4359161012435919060a4356084356001600160401b038511610b265736602386011215610b26576004850135956001600160401b0387116109a3573660248860061b880101116109a35761014435906003821015610b2257610164356001600160401b038111610b1e57610598903690600401612bee565b6101a4359790959194906001600160a01b0389168903610b1a575f80516020614b1e83398151915254604081901c60ff161599906001600160401b03811680159081610b12575b6001149081610b08575b159081610aff575b50610af0576001600160401b031981166001175f80516020614b1e8339815191525561063f91908b610ac8575b506106276145ab565b61062f6145ab565b6106376145ab565b6102d46145ab565b6106476145ab565b8115610a6f57828211610a065783156109a7575f8051602061477e8339815191529761067161471a565b5f8051602061479e8339815191525588546001600160a01b039182166001600160a01b0319918216178a555f8051602061493e83398151915280549390921692169190911790555f80516020614a7e833981519152555f8051602061495e833981519152555f80516020614a9e8339815191525560e4355f80516020614b9e83398151915255610104355f8051602061483e83398151915255875b878110156107a5575f8051602061487e83398151915254600160401b8110156107915760018101805f8051602061487e8339815191525581101561077d57906107776001925f8051602061487e8339815191528c5260208c2060248460061b8c010191851b016139c4565b0161070c565b634e487b7160e01b8a52603260045260248afd5b634e487b7160e01b8a52604160045260248afd5b508795506107c3909291925f80516020614ade83398151915261332e565b5f805160206147de83398151915290855b81811061096257505050506107f760245f805160206149fe8339815191526139c4565b604051906024359063ffffffff60e01b821680920361045c575f805160206148fe8339815191526040846020946004965260443585820152a16108386145ab565b610184355f80516020614b7e833981519152556108536145ab565b54604051630ecce30160e31b815292839182906001600160a01b03165afa90811561048f57839161092c575b505f198101908111610918575f80516020614abe8339815191525560017f85276e830bb0cbb783f0e6b4a968acc65deef7a2b0ff14d52821c42f785b9cc7556108c55780f35b60ff60401b195f80516020614b1e83398151915254165f80516020614b1e833981519152557fc7f505b2f371ae2175ee4913f4499e1f2633a7b5936321eed1cdaeb6115181d2602060405160018152a180f35b634e487b7160e01b83526011600452602483fd5b90506020813d60201161095a575b8161094760209383612c97565b8101031261095657518361087f565b5f80fd5b3d915061093a565b61096d8183866134d2565b35906001600160a01b03821682036109a357600191828060a01b03165f528360205260405f208260ff19825416179055016107d4565b8780fd5b60405162461bcd60e51b815260206004820152603160248201527f436f6e6669673a206375436f756e74506572576f726b65722073686f756c6420604482015270062652067726561746572207468616e203607c1b6064820152608490fd5b60405162461bcd60e51b815260206004820152603b60248201527f436f6e6669673a206d696e576f726b6572732073686f756c64206265206c657360448201527a73206f7220657175616c20746f20746172676574576f726b65727360281b6064820152608490fd5b60405162461bcd60e51b815260206004820152602b60248201527f436f6e6669673a206d696e576f726b6572732073686f756c642062652067726560448201526a061746572207468616e20360ac1b6064820152608490fd5b6001600160481b0319166001600160401b01175f80516020614b1e833981519152555f61061e565b63f92ee8a960e01b8e5260048efd5b9050155f6105f1565b303b1591506105e9565b8c91506105df565b8b80fd5b8980fd5b8880fd5b8680fd5b50346102ac5760603660031901126102ac57610b44612b4b565b6024356001600160401b0381116104ae57604060031982360301126104ae5760405190610b7082612c60565b600481013582526024810135906001600160401b03821161045c570190366023830112156110e357600482013591610ba783612cba565b92610bb56040519485612c97565b808452602060048186019260051b8401010191368311610b2657602401905b8282106110d35750505060208101918252604435905f8051602061477e83398151915293610c0c60018060a01b0386541633146134e2565b610c1461321a565b60058110156110bf576002610c2a911415612f13565b5f80516020614a5e833981519152938454955f8051602061495e8339815191525487101561108157875b82518051821015610cf95781610c69916134aa565b5190818a525f805160206147be83398151915260205260ff60408b205416610cb5576001918a525f805160206147be83398151915260205260408a208260ff1982541617905501610c54565b60405162461bcd60e51b815260206004820152601c60248201527b10dbdb5c1d5d19481d5b9a5d081a5cc8185b1c9958591e481d5cd95960221b6044820152606490fd5b50508688968688525f8051602061491e83398151915260205260ff604089205416611046578688525f8051602061491e83398151915260205260408820600160ff1982541617905560018060a01b0385165f525f805160206148be83398151915260205260405f20545f80516020614b9e833981519152548110156110025760018101809111610fee576001600160a01b0386165f9081525f805160206148be833981519152602052604090205560018201918210610fda575554604051630ecce30160e31b81529190602090839060049082906001600160a01b03165afa8015610fcf578690610f9c575b60059250845191519360405192610dfb84612c31565b888452602080850191825260408086018a81526001600160a01b03948516606088019081526080880196875260a08801998a528a518d525f80516020614b5e833981519152909352908b20955186559151600186015590516002850155516003840180546001600160a01b03191691909216179055516004820155915180519291909101906001600160401b038311610f8857600160401b8311610f88578154838355808410610f62575b5060200190855260208520855b838110610f4e5750505050610ed681515f8051602061499e8339815191526145eb565b15610f0a5760207f9cd57cfa2e12a37215cabc6897396db265419bd7f06adad06227a2b163ecd6a39151604051908152a280f35b60405162461bcd60e51b815260206004820152601c60248201527b11985a5b1959081d1bc8185919081ddbdc9ad95c881d1bc81b1a5cdd60221b6044820152606490fd5b600190602084519401938184015501610eb3565b828752836020882091820191015b818110610f7d5750610ea6565b878155600101610f70565b634e487b7160e01b86526041600452602486fd5b506020823d602011610fc7575b81610fb660209383612c97565b810103126109565760059151610de5565b3d9150610fa9565b6040513d88823e3d90fd5b634e487b7160e01b88526011600452602488fd5b634e487b7160e01b89526011600452602489fd5b606460405162461bcd60e51b815260206004820152602060248201527f4d617820776f726b657273207065722070726f766964657220726561636865646044820152fd5b60405162461bcd60e51b81526020600482015260136024820152721419595c925908185b1c9958591e481d5cd959606a1b6044820152606490fd5b60405162461bcd60e51b815260206004820152601660248201527515185c99d95d081ddbdc9ad95c9cc81c995858da195960521b6044820152606490fd5b634e487b7160e01b87526021600452602487fd5b8135815260209182019101610bd4565b8380fd5b50346102ac57806003193601126102ac575061111a60ff5f80516020614ade833981519152541660405191829182612c1e565b0390f35b50346102ac5760203660031901126102ac576004356001600160401b03811161044d5761114f903690600401612bee565b5f8051602061477e833981519152546040516307dc0d1d60e41b815290602090829060049082906001600160a01b03165afa90811561137c578491611342575b506001600160a01b031633036112fe576111a76135e7565b6111af61321a565b6005811015806112e0576002821480156112f4575b8181156112d0575b50156112905761049a578015908115611285575b50611211575b50825b8181106111f4578380f35b8061120b61120560019385876134d2565b356140bc565b016111e9565b60a0015115611220575f6111e6565b60405162461bcd60e51b815260206004820152603760248201527f4174206c65617374203120756e706169642065706f636820726571756972656460448201527620746f20636f6e7369646572206465616c207374616c6560481b6064820152608490fd5b60039150145f6111e0565b60405162461bcd60e51b815260206004820152601860248201527715dbdc9ad95c9cc81a5b881919585b08185c99481c185a5960421b6044820152606490fd5b90506112e05760038214816111cc565b634e487b7160e01b86526021600452602486fd5b50508481156111c4565b606460405162461bcd60e51b815260206004820152602060248201527f4f6e6c79206f7261636c652063616e2063616c6c2074686973206d6574686f646044820152fd5b90506020813d602011611374575b8161135d60209383612c97565b810103126110e35761136e90612cd1565b5f61118f565b3d9150611350565b6040513d86823e3d90fd5b50346102ac57806003193601126102ac576113ae5f8051602061499e8339815191526133a2565b80516113b981612cba565b906113c76040519283612c97565b8082526113d6601f1991612cba565b01835b8181106114e4575050825b825181101561147d57806113fa600192856134aa565b5185525f80516020614b5e8339815191526020526040852061145c60056040519261142484612c31565b8054845285810154602085015260028101546040850152858060a01b03600382015416606085015260048101546080850152016133a2565b60a082015261146b82856134aa565b5261147681846134aa565b50016113e4565b81846040519182916020830160208452825180915260408401602060408360051b870101940192905b8282106114b557505050500390f35b919360019193955060206114d48192603f198a82030186528851612b7a565b96019201920185949391926114a6565b6020906114ef613372565b828286010152016113d9565b50346102ac5760203660031901126102ac5760ff6040826020935060043581525f8051602061491e83398151915284522054166040519015158152f35b50346102ac5760203660031901126102ac5760043561155681613429565b5f8051602061477e83398151915260018060a01b0390541690608060408201516024604051809581936321b9a09560e21b835260048301525afa91821561137c57849261166d575b50606001516001600160a01b03163314908115611656575b508015611636575b156115cc576102d9906140bc565b60405162461bcd60e51b815260206004820152603c60248201527f4f6e6c792070726f76696465722c2070656572206f776e6572206f722064656160448201527b1b081bdddb995c8818d85b8818d85b1b081d1a1a5cc81b595d1a1bd960221b6064820152608490fd5b505f805160206149be833981519152546001600160a01b031633146115be565b606001516001600160a01b0316331490505f6115b6565b61169091925060803d608011611697575b6116888183612c97565b810190612e03565b905f61159e565b503d61167e565b50346102ac57806003193601126102ac575060205f805160206148de83398151915254604051908152f35b50346102ac5760203660031901126102ac576004356001600160401b03811161044d576116fa903690600401612bee565b90602060405161170a8282612c97565b848152818101601f19830136823761172185612cba565b9361172f6040519586612c97565b858552601f1961173e87612cba565b01875b8181106118d257505036819003601e190190875b8781101561185a57888160051b8301358481121561044d5783018035906001600160401b0382116104ae57880181360381136104ae57866117c084938b6040519382859383850197883783018281018881528e519283915e010185815203601f198101835282612c97565b5190305af4893d1561184757503d906001600160401b03821161183357916118116001928c98979695948a601f19601f84011601916118026040519384612c97565b82523d8a8c84013e5b30614541565b61181b828b6134aa565b52611826818a6134aa565b5001909192939450611755565b634e487b7160e01b8b52604160045260248bfd5b959493929161181160019260609061180b565b88868860405191808301818452825180915260408401918060408360051b870101940192865b83881061188d5786860387f35b9091929394838080600193603f198b8203018752818a518051918291828552018484015e86838284010152601f80199101160101970193019701969093929193611880565b60608782018701528501611741565b50346102ac5760203660031901126102ac5761111a611901600435613429565b604051918291602083526020830190612b7a565b50346102ac57806003193601126102ac5761192e612d8c565b50506040805160015f805160206149fe83398151915261194d83612c60565b63ffffffff60e01b815460e01b1683520154602082015261197082518092612b61565bf35b50346102ac57806003193601126102ac57505f805160206149be833981519152546040516001600160a01b039091168152602090f35b50346102ac57806003193601126102ac575060205f80516020614b9e83398151915254604051908152f35b50346102ac5760203660031901126102ac576004356119f181613429565b905f8051602061477e83398151915260018060a01b03905416608060408401516024604051809481936321b9a09560e21b835260048301525afa801561137c576102d993611a5e928692611aae575b50606001516001600160a01b03163314908115611a97575b50612e58565b611a8b611a6a82613429565b611a726135e7565b928184925190606060018060a01b039101511691613c8b565b61014081015190613836565b606001516001600160a01b0316331490505f611a58565b611ac891925060803d608011611697576116888183612c97565b905f611a40565b50346102ac5760203660031901126102ac57611ae9612b4b565b5f8051602061477e833981519152546040516302984ebd60e31b815290602090829060049082906001600160a01b03165afa90811561048f578391611c38575b506001600160a01b031633148015611c18575b611b4590612ce5565b60ff5f80516020614ade83398151915254166003811015611c045715611bc1576001600160a01b03165f8181525f805160206147de8339815191526020908152604091829020805460ff1916600117905590519182527f4c26e4de691e265be6cf03e639754839907bf74687cd524a6734851331527ffd91a180f35b60405162461bcd60e51b815260206004820152601b60248201527a436f6e6669673a206163636573732074797065206973204e4f4e4560281b6044820152606490fd5b634e487b7160e01b83526021600452602483fd5b505f805160206149be833981519152546001600160a01b03163314611b3c565b90506020813d602011611c6a575b81611c5360209383612c97565b810103126104ae57611c6490612cd1565b5f611b29565b3d9150611c46565b50346102ac57806003193601126102ac57611c8b613c58565b5f805160206149be83398151915280546001600160a01b0319811690915581906001600160a01b03165f8051602061497e8339815191528280a380f35b50346102ac57806003193601126102ac575060205f8051602061483e83398151915254604051908152f35b50346102ac5760203660031901126102ac57600435600381101561044d575f8051602061477e833981519152546040516302984ebd60e31b815290602090829060049082906001600160a01b03165afa90811561048f578391611e4c575b506001600160a01b031633148015611e2c575b611d6d90612ce5565b60ff5f80516020614ade83398151915254166003811015611c04578114611ddc57611dd681611dca7f1f5a251428f76335a835fcae94ab6a9bcf09ac33bd3c782eb6a81bdf878a7393935f80516020614ade83398151915261332e565b60405191829182612c1e565b0390a180f35b60405162461bcd60e51b815260206004820152602260248201527f436f6e6669673a20616363657373207479706520697320616c72656164792073604482015261195d60f21b6064820152608490fd5b505f805160206149be833981519152546001600160a01b03163314611d64565b90506020813d602011611e7e575b81611e6760209383612c97565b810103126104ae57611e7890612cd1565b5f611d51565b3d9150611e5a565b50346102ac5760203660031901126102ac57611ea0612b4b565b905060018060a01b03165f525f805160206148be833981519152602052602060405f2054604051908152f35b50346102ac57806003193601126102ac57611ee561321a565b604051906005811015611c0457602092508152f35b50346102ac57806003193601126102ac575060205f80516020614a5e83398151915254604051908152f35b50346102ac5760203660031901126102ac57611f3f612b4b565b5f8051602061477e833981519152546040516302984ebd60e31b815290602090829060049082906001600160a01b03165afa90811561048f578391612000575b505f805160206149de833981519152916020916001600160a01b031633148015611fe0575b611fad90612ce5565b6001600160a01b03165f8181525f805160206147de8339815191528352604090819020805460ff1916905551908152a180f35b505f805160206149be833981519152546001600160a01b03163314611fa4565b90506020813d602011612045575b8161201b60209383612c97565b810103126104ae575f805160206149de8339815191529161203d602092612cd1565b915091611f7f565b3d915061200e565b50346102ac5760203660031901126102ac57602061207161206c612b4b565b61318a565b6040519015158152f35b50346102ac57806003193601126102ac575060205f80516020614afe83398151915254604051908152f35b50346102ac57806003193601126102ac575060205f80516020614b7e83398151915254604051908152f35b50346102ac57806003193601126102ac57505f8051602061493e833981519152546040516001600160a01b039091168152602090f35b50346102ac5760203660031901126102ac575f8051602061477e83398151915280546040516302984ebd60e31b8152600480359392602091839182906001600160a01b03165afa90811561137c578491612651575b506001600160a01b031633148015612631575b61217890612ce5565b5f80516020614a3e8339815191525c6126225760015f80516020614a3e8339815191525d5f8051602061489e8339815191526121b26135e7565b82546040516372ea4f2360e01b815290602090829060049082906001600160a01b03165afa908115610fcf5786916125ee575b5061221a61220561222f925f8051602061483e83398151915254906130e5565b5f80516020614a9e83398151915254906130e5565b5f8051602061495e83398151915254906130e5565b6060820161223e8682516130f8565b8091526101008301511515806125e5575b1561256c57505060c08101515f80516020614b3e8339815191525484546040516372ea4f2360e01b81529190602090839060049082906001600160a01b03165afa90811561256157889161252b575b6122a89250613105565b10156124c25784926122d2602092846122c488600497546130f8565b905561014081015190613836565b5460405163fd44f92160e01b815292839182906001600160a01b03165afa9081156104515782916124a3575b505f8051602061493e833981519152545f805160206149be83398151915280546001600160a01b039384169391929082169116833b1561045c576040516388081fcb60e01b81529185918391829161235b918a9160048501613131565b038183875af190811561137c57849161248e575b50505f8051602061493e8339815191525490546001600160a01b039182169116823b156110e3576040516312bc368360e31b8152918491839182916123bb918991339160048601613159565b038183865af190811561048f578391612479575b50505f8051602061493e833981519152546001600160a01b031690803b156104ae57838391612416938360405180968195829462b13fab60e11b8452339060048501613131565b03925af1801561045157612464575b507f430648de173157e069201c943adb2d4e340e7cf5b27b1b09c9cb852f03d63b56602083604051908152a1805f80516020614a3e8339815191525d80f35b8161246e91612c97565b61044d57815f612425565b8161248391612c97565b61044d57815f6123cf565b8161249891612c97565b6104ae57825f61236f565b6124bc915060203d6020116104885761047a8183612c97565b5f6122fe565b60405162461bcd60e51b815260206004820152603b60248201527f43616e2774207769746864726177206265666f7265206d696e4465616c44657060448201527a1bdcda5d1959115c1bd8da1cc818599d195c881919585b08195b99602a1b6064820152608490fd5b90506020823d602011612559575b8161254660209383612c97565b81010312610956576122a891519061229e565b3d9150612539565b6040513d8a823e3d90fd5b9091939250106125855760206004916122d28694611a8b565b60405162461bcd60e51b815260206004820152603260248201527f467265652062616c616e6365206e6565647320746f20636f766572206d696e4460448201527165616c4465706f736974656445706f63687360701b6064820152608490fd5b5081811061224f565b90506020813d60201161261a575b8161260960209383612c97565b81010312610956575161221a6121e5565b3d91506125fc565b633ee5aeb560e01b8352600483fd5b505f805160206149be833981519152546001600160a01b0316331461216f565b90506020813d602011612683575b8161266c60209383612c97565b810103126110e35761267d90612cd1565b5f61215c565b3d915061265f565b50346102ac57806003193601126102ac575060205f80516020614a7e83398151915254604051908152f35b50346102ac57806003193601126102ac575060205f8051602061495e83398151915254604051908152f35b50346102ac5760403660031901126102ac576004356126ff81613429565b905f8051602061477e83398151915260018060a01b03905416608060408401516024604051809481936321b9a09560e21b835260048301525afa801561137c576102d99361276a928692611aae5750606001516001600160a01b03163314908115611a975750612e58565b60243590612f4f565b50346102ac5760203660031901126102ac576040612792600435612da4565b60208251918051835201516020820152f35b50346102ac5760403660031901126102ac575f8051602061477e83398151915280546040516302984ebd60e31b815290602090829060049082906001600160a01b03165afa90811561048f578391612883575b506001600160a01b031633148015612863575b61281390612ce5565b5061282c60045f805160206149fe8339815191526139c4565b60405160043563ffffffff60e01b81168091036104ae57816040915f805160206148fe83398151915293526024356020820152a180f35b505f805160206149be833981519152546001600160a01b0316331461280a565b90506020813d6020116128b5575b8161289e60209383612c97565b810103126104ae576128af90612cd1565b5f6127f7565b3d9150612891565b50346102ac57806003193601126102ac575060205f8051602061479e83398151915254604051908152f35b50346102ac57806003193601126102ac575060205f80516020614a9e83398151915254604051908152f35b5034610956575f366003190112610956575f8051602061477e83398151915280546040516302984ebd60e31b815290602090829060049082906001600160a01b03165afa908115612a74575f91612b11575b506001600160a01b031633148015612af1575b61298190612ce5565b61298961321a565b6005811015612add57600261299f911415612d4b565b6129aa611a8b6135e7565b8054604051630ecce30160e31b815290602090829060049082906001600160a01b03165afa908115612a74575f91612aaa575b506020817f3ad16bb58712aa329948d76146b096a4f4b85e024d99473dc50bcd358811b86c925f80516020614afe8339815191525411612a7f575b805f80516020614b3e83398151915255604051908152a1546001600160a01b0316803b15610956575f809160046040518094819363437e8bf160e01b83525af18015612a7457612a66575080f35b612a7291505f90612c97565b005b6040513d5f823e3d90fd5b805f80516020614afe833981519152555f8051602061481e83398151915282604051838152a1612a18565b90506020813d602011612ad5575b81612ac560209383612c97565b81010312610956575160206129dd565b3d9150612ab8565b634e487b7160e01b5f52602160045260245ffd5b505f805160206149be833981519152546001600160a01b03163314612978565b90506020813d602011612b43575b81612b2c60209383612c97565b8101031261095657612b3d90612cd1565b5f612965565b3d9150612b1f565b600435906001600160a01b038216820361095657565b80516001600160e01b0319168252602090810151910152565b602060e060a060c085019380518652838101518487015260408101516040870152600180831b0360608201511660608701526080810151608087015201519360c060a08201528451809452019201905f5b818110612bd85750505090565b8251845260209384019390920191600101612bcb565b9181601f84011215610956578235916001600160401b038311610956576020808501948460051b01011161095657565b919060208301926003821015612add5752565b60c081019081106001600160401b03821117612c4c57604052565b634e487b7160e01b5f52604160045260245ffd5b604081019081106001600160401b03821117612c4c57604052565b61016081019081106001600160401b03821117612c4c57604052565b601f909101601f19168101906001600160401b03821190821017612c4c57604052565b6001600160401b038111612c4c5760051b60200190565b51906001600160a01b038216820361095657565b15612cec57565b60405162461bcd60e51b815260206004820152603160248201527f4f6e6c7920566f646f706164206f72204465616c204f776e65722063616e206360448201527030b636103a3434b990333ab731ba34b7b760791b6064820152608490fd5b15612d5257565b60405162461bcd60e51b81526020600482015260126024820152714465616c206973206e6f742061637469766560701b6044820152606490fd5b60405190612d9982612c60565b5f6020838281520152565b604051612db081612c60565b5f81525f602082015250612dc26135e7565b90612dcc81613429565b5115612de95781612de0612de69383613a8f565b91613b7a565b90565b5050604051612df781612c60565b5f81525f602082015290565b908160809103126109565760405190608082016001600160401b03811183821017612c4c57612e509160609160405280518452602081015160208501526040810151604085015201612cd1565b606082015290565b15612e5f57565b60405162461bcd60e51b815260206004820152603060248201527f4f6e6c792070726f7669646572206f722070656572206f776e65722063616e2060448201526f18d85b1b081d1a1a5cc81b595d1a1bd960821b6064820152608490fd5b15612ec457565b60405162461bcd60e51b815260206004820152602160248201527f4f6666636861696e20776f726b65722069642063616e277420626520656d70746044820152607960f81b6064820152608490fd5b15612f1a57565b60405162461bcd60e51b815260206004820152600d60248201526c1119585b081a5cc8195b991959609a1b6044820152606490fd5b81151590612f5c82612ebd565b612f646135e7565b61014081015192825f525f80516020614b5e833981519152602052612f8c60405f2091612ebd565b8054156130a3575b8481557fcf79e0e27c8c35d39bd9b727f35e6f79573597f660c88baf483fc1511c49203c60408051858152876020820152a160025f805160206148de8339815191525491015493612fe58284613836565b612fed61321a565b6005811015612add5780613007600261300e931415612f13565b1515612d4b565b1461309d57815f525f80516020614a1e833981519152602052600160a060405f209260e0810151845501519101555f8051602061477e83398151915260018060a01b03905416803b15610956575f9283606492604051968795869463bf0d370760e01b86526004860152602485015260448401525af18015612a74576130915750565b5f61309b91612c97565b565b50505050565b5f805160206148de833981519152545f1981146130d1576001015f805160206148de83398151915255612f94565b634e487b7160e01b5f52601160045260245ffd5b818102929181159184041417156130d157565b919082039182116130d157565b919082018092116130d157565b9081602091031261095657516001600160a01b03811681036109565790565b6001600160a01b0391821681529116602082015260408101919091525f606082015260800190565b6001600160a01b0391821681529181166020830152909116604082015260608101919091525f608082015260a00190565b60ff5f80516020614ade83398151915254166003811015612add57801561321357600181146131e9576002146131bf57505f90565b6001600160a01b03165f9081525f805160206147de833981519152602052604090205460ff161590565b506001600160a01b03165f9081525f805160206147de833981519152602052604090205460ff1690565b5050600190565b6132226135e7565b610100810151613328575f80516020614afe83398151915254801515908161331a575b5061331557610140810151905f8051602061477e833981519152915f80516020614a7e833981519152541161330e576060015190546040516372ea4f2360e01b815290602090829060049082906001600160a01b03165afa908115612a74575f916132da575b5061221a6122056132cb925f8051602061483e83398151915254906130e5565b116132d557600190565b600490565b90506020813d602011613306575b816132f560209383612c97565b81010312610956575161221a6132ab565b3d91506132e8565b5050600390565b505f90565b905060c0820151115f613245565b50600290565b906003811015612add5760ff80198354169116179055565b9060405161335381612c60565b825460e01b6001600160e01b0319168152600192909201546020830152565b6040519061337f82612c31565b606060a0835f81525f60208201525f60408201525f838201525f60808201520152565b90604051918281549182825260208201905f5260205f20925f5b8181106133d157505061309b92500383612c97565b84548352600194850194879450602090930192016133bc565b156133f157565b60405162461bcd60e51b815260206004820152601060248201526f15dbdc9ad95c881b9bdd08199bdd5b9960821b6044820152606490fd5b613431613372565b505f525f80516020614b5e83398151915260205260405f20612de66040519161345983612c31565b805483526001810154602084019081526002820154604085015260038201546001600160a01b03166060850152600482015460808501529061349d906005016133a2565b60a08401525115156133ea565b80518210156134be5760209160051b010190565b634e487b7160e01b5f52603260045260245ffd5b91908110156134be5760051b0190565b156134e957565b60405162461bcd60e51b815260206004820152602160248201527f436f6e6669673a2063616c6c6572206973206e6f7420746865204469616d6f6e6044820152601960fa1b6064820152608490fd5b6001600160a01b03168015613583575f805160206149be83398151915280546001600160a01b0319811683179091556001600160a01b03165f8051602061497e8339815191525f80a3565b631e4fbdf760e01b5f525f60045260245ffd5b604051906135a382612c7b565b5f610140838281528260208201528260408201528260608201528260808201528260a08201528260c08201528260e082015282610100820152826101208201520152565b6135ef613596565b505f8051602061477e83398151915254604051630ecce30160e31b81525f8051602061489e8339815191529291602090829060049082906001600160a01b03165afa908115612a74575f91613804575b505f1981018181116130d157905f80516020614b3e83398151915254915f92806137f8575b505f805160206148de83398151915254945f8051602061483e83398151915254935f80516020614a9e833981519152549161369d613596565b5054935f8051602061485e833981519152545f805160206147fe8339815191525490604051966136cc88612c7b565b8088528160208901528260408901526060880152608087015260a086015260c08501528260e08501521515610100840152836101208401528561014084015282955f80516020614abe8339815191525493848411156137ef57505f80516020614afe8339815191525494858411156137b8578585106137685750505061376491925061375e60a08601938451926130f8565b90613105565b9052565b613786929161378161378192613781613764988a6130f8565b6130e5565b606086016137958282516130f8565b90526137a660808701918251613105565b905261375e60a08601938451926130f8565b6137cf9550613781613781929395613781956130f8565b606083016137de8282516130f8565b905261376460808401918251613105565b96505050505050565b6001935090505f613664565b90506020813d60201161382e575b8161381f60209383612c97565b8101031261095657515f61363f565b3d9150613812565b905f8051602061489e8339815191528251606084019182518092036139bc575b5050602083015160808401518091036139a7575b50604083015160a0840151809103613992575b505f80516020614a9e833981519152549060e084015193610100810151156138b5575b505050505f80516020614abe83398151915255565b5f80516020614a7e83398151915254808510918261394557505050906137816138ee9251935f8051602061483e833981519152546130e5565b8015613931576139106020915f8051602061481e833981519152930484613105565b805f80516020614afe83398151915255604051908152a15b5f8080806138a0565b634e487b7160e01b5f52601260045260245ffd5b610140015110159350915082905061398a575b5015613928575f5f80516020614afe833981519152555f8051602061481e83398151915260206040515f8152a1613928565b90505f613958565b5f805160206147fe833981519152555f61387d565b5f8051602061485e833981519152555f61386a565b555f80613856565b9080356001600160e01b0319811681036109565760019160209160e01c63ffffffff198554161784550135910155565b90816101609103126109565760405190613a0d82612c7b565b8051906006821015610956576101409183526020810151602084015260408101516040840152606081015160608401526080810151608084015260a081015160a084015260c081015160c0840152613a6760e08201612cd1565b60e0840152610100810151610100840152610120810151610120840152015161014082015290565b9060e00151905f8051602061477e8339815191529060ff5f80516020614ade83398151915254166003811015612add57600114613b7557613ad26101609161442b565b9154604051631de5608360e21b81526004810193909352829060249082906001600160a01b03165afa908115612a74575f91613b46575b5061012081015180613b40575060a00180515f1981019081116130d1578211613b30575090565b515f198101915081116130d15790565b91505090565b613b6891506101603d8111613b6e575b613b608183612c97565b8101906139f4565b5f613b09565b503d613b56565b505090565b91604051613b8781612c60565b5f81525f602082015250825f525f80516020614a1e833981519152602052613bb260405f20936144a7565b92805491828110613c475760a0613bce613bda946001936130f8565b940151910154906130f8565b90818110613c3857613c18613c11612205613bfc613c209562989680956130f8565b5f8051602061483e83398151915254906130e5565b93846130e5565b0480926130f8565b9060405191613c2e83612c60565b8252602082015290565b505050604051612df781612c60565b5050505050604051612df781612c60565b5f805160206149be833981519152546001600160a01b03163303613c7857565b63118cdaa760e01b5f523360045260245ffd5b9291905f901561309d57613c9f8385613a8f565b91613cab838587613b7a565b92835194613cbf6020860196875190613105565b9182156140b257613cfb91608091895f525f80516020614a1e83398151915260205260405f20908155600160a0830151910155019182516130f8565b90525f8051602061477e833981519152805460405163fd44f92160e01b81529190602090839060049082906001600160a01b03165afa918215612a74575f92614091575b5060018060a01b035f8051602061493e8339815191525416928551613f59575b508551613da8575b50505050916060917fc512f9d0bb2627096491f1074af42a5032fe36ef5dcae7c216cfc34f6ea474d6935190519060405192835260208301526040820152a1565b54604051638da5cb5b60e01b81529190602090839060049082906001600160a01b03165afa91821561137c578492613f1d575b505f805160206149be833981519152805487516001600160a01b039384169493909116843b15610b26576040516388081fcb60e01b815291879183918291613e2891908a60048501613131565b038183885af18015610fcf57908691613f08575b5050548651906001600160a01b0316833b15613f0457828691613e7460405194859384936312bc368360e31b85528a60048601613159565b038183875af18015613ef957908591613ee4575b5050855192823b1561045c5791613eb993918580946040519687958694859362b13fab60e11b855260048501613131565b03925af1801561045157613ecf575b8080613d67565b613eda828092612c97565b6102ac5780613ec8565b81613eee91612c97565b6110e357835f613e88565b6040513d87823e3d90fd5b8580fd5b81613f1291612c97565b61045c57845f613e3c565b9091506020813d602011613f51575b81613f3960209383612c97565b810103126110e357613f4a90612cd1565b905f613ddb565b3d9150613f2c565b5f805160206149be833981519152805487516001600160a01b03868116939216833b15610956576040516388081fcb60e01b8152915f9183918291613fa391908c60048501613131565b038183875af18015612a745761407c575b50548751906001600160a01b0316823b156109a357838891613feb60405194859384936312bc368360e31b85528c60048601613159565b038183865af180156140715790879161405c575b5050865191813b15610b265791869161402f938360405180968195829462b13fab60e11b84528c60048501613131565b03925af18015613ef957908591614047575b50613d5f565b8161405191612c97565b6110e357835f614041565b8161406691612c97565b613f0457855f613fff565b6040513d89823e3d90fd5b6140899197505f90612c97565b5f955f613fb4565b6140ab91925060203d6020116104885761047a8183612c97565b905f613d3f565b5050505050505050565b6140c581613429565b916140ce6135e7565b918351906140ec845f9360018060a01b036060890151169084613c8b565b5f80516020614a5e83398151915294815f525f80516020614b5e83398151915260205260405f20946040519561412187612c31565b80548752600181015496602081019788526002820154916040820192835261417c61416c600560018060a01b03600385015416936060860194855260048101546080870152016133a2565b9960a084019a8b525115156133ea565b5f5b895180518210156141bc5790614196816001936134aa565b515f525f805160206147be83398151915260205260405f2060ff1981541690550161417e565b50509193959750919395976141d1815461459f565b9055516001600160a01b03165f9081525f805160206148be8339815191526020526040902080546142019061459f565b905551614400575b5190815f525f8051602061491e83398151915260205260405f2060ff198154169055835f525f80516020614b5e833981519152602052600560405f205f81555f60018201555f60028201555f60038201555f6004820155018054905f8155816143e2575b5050614286845f8051602061499e833981519152614655565b15614393576142ce917f2931f8975c0ce3cdf8ebe0cac36f06048736d46d6df66ac21cfe717b9ee710066020604051878152a25f805160206148de8339815191525490613836565b5f8051602061477e8339815191525460a09190910151906001600160a01b0316803b1561095657604051809263012a4ebb60e41b8252604482016040600484015281518091526020606484019201905f5b81811061437a5750505091815f81819588602483015203925af18015612a7457614365575b5081525f80516020614a1e8339815191526020526001604082208281550155565b6143729192505f90612c97565b5f905f614344565b825184528694506020938401939092019160010161431f565b60405162461bcd60e51b815260206004820152602160248201527f4661696c656420746f2072656d6f766520776f726b65722066726f6d206c69736044820152601d60fa1b6064820152608490fd5b5f5260205f20908101905b8181101561426d575f81556001016143ed565b6144175f805160206148de8339815191525461459f565b5f805160206148de83398151915255614209565b61443490613429565b5f8051602061477e8339815191525460409182015191516321b9a09560e21b81526004810192909252608090829060249082906001600160a01b03165afa8015612a74576020915f91614488575b50015190565b6144a1915060803d608011611697576116888183612c97565b5f614482565b5f8051602061477e8339815191529060ff5f80516020614ade83398151915254166003811015612add5760011461453b576144e46101609161442b565b9154604051631de5608360e21b81526004810193909352829060249082906001600160a01b03165afa8015612a745760c0915f916145225750015190565b6144a191506101603d8111613b6e57613b608183612c97565b50505f90565b90614565575080511561455657805190602001fd5b63d6bda27560e01b5f5260045ffd5b81511580614596575b614576575090565b639996b31560e01b5f9081526001600160a01b0391909116600452602490fd5b50803b1561456e565b80156130d1575f190190565b60ff5f80516020614b1e8339815191525460401c16156145c757565b631afcd79f60e31b5f5260045ffd5b80548210156134be575f5260205f2001905f90565b6001810190825f528160205260405f2054155f1461464e578054600160401b811015612c4c5761463b6146258260018794018555846145d6565b819391549060031b91821b915f19901b19161790565b905554915f5260205260405f2055600190565b5050505f90565b906001820191815f528260205260405f20548015155f14614712575f1981018181116130d15782545f198101919082116130d1578181036146dd575b505050805480156146c9575f1901906146aa82826145d6565b8154905f199060031b1b19169055555f526020525f6040812055600190565b634e487b7160e01b5f52603160045260245ffd5b6146fd6146ed61462593866145d6565b90549060031b1c928392866145d6565b90555f528360205260405f20555f8080614691565b505050505f90565b60643b156147795760405163a3b1b31d60e01b815260208160048160645afa908115612a74575f9161474a575090565b90506020813d602011614771575b8161476560209383612c97565b81010312610956575190565b3d9150614758565b439056fe8953f5482bc1a621075e75537625fa3bd2025e7df7baf6ba1dbfbf2212912d048953f5482bc1a621075e75537625fa3bd2025e7df7baf6ba1dbfbf2212912d05ec986952a0671e4b2e5ec4461085fb880bc7a7b88668240f8d55173039155d248953f5482bc1a621075e75537625fa3bd2025e7df7baf6ba1dbfbf2212912d1185276e830bb0cbb783f0e6b4a968acc65deef7a2b0ff14d52821c42f785b9cc1cecd349d986645e1758ec135f91f1ad20564a8bcc6c2b5a5eaca9b09841495c58953f5482bc1a621075e75537625fa3bd2025e7df7baf6ba1dbfbf2212912d0e85276e830bb0cbb783f0e6b4a968acc65deef7a2b0ff14d52821c42f785b9cc08953f5482bc1a621075e75537625fa3bd2025e7df7baf6ba1dbfbf2212912d0f85276e830bb0cbb783f0e6b4a968acc65deef7a2b0ff14d52821c42f785b9cbfec986952a0671e4b2e5ec4461085fb880bc7a7b88668240f8d55173039155d22ec986952a0671e4b2e5ec4461085fb880bc7a7b88668240f8d55173039155d21c820a66d3bdd50a45cf12cda6dc8ec9e94fb5123edd7da736eea18316f8523a0ec986952a0671e4b2e5ec4461085fb880bc7a7b88668240f8d55173039155d258953f5482bc1a621075e75537625fa3bd2025e7df7baf6ba1dbfbf2212912d088953f5482bc1a621075e75537625fa3bd2025e7df7baf6ba1dbfbf2212912d0b8be0079c531659141344cd1fd0a4f28419497f9722a3daafe3b4186f6b6457e0ec986952a0671e4b2e5ec4461085fb880bc7a7b88668240f8d55173039155d26b13d3e7783d509d8d65d3e1e62ec0b103a07e0cbfa1ee74ae19127f297dddfcc38fb081a0b484406977bd94ff8edb79be44b5ca514130361182516b39e2c45288953f5482bc1a621075e75537625fa3bd2025e7df7baf6ba1dbfbf2212912d0685276e830bb0cbb783f0e6b4a968acc65deef7a2b0ff14d52821c42f785b9cc49b779b17422d0df92223018b32b4d1fa46e071723d6817e2486d003becc55f00ec986952a0671e4b2e5ec4461085fb880bc7a7b88668240f8d55173039155d208953f5482bc1a621075e75537625fa3bd2025e7df7baf6ba1dbfbf2212912d0a8953f5482bc1a621075e75537625fa3bd2025e7df7baf6ba1dbfbf2212912d0d85276e830bb0cbb783f0e6b4a968acc65deef7a2b0ff14d52821c42f785b9cc38953f5482bc1a621075e75537625fa3bd2025e7df7baf6ba1dbfbf2212912d1085276e830bb0cbb783f0e6b4a968acc65deef7a2b0ff14d52821c42f785b9cc2f0c57e16840df040f15088dc2f81fe391c3923bec73e23a9662efc9c229c6a0085276e830bb0cbb783f0e6b4a968acc65deef7a2b0ff14d52821c42f785b9cc5ec986952a0671e4b2e5ec4461085fb880bc7a7b88668240f8d55173039155d2385276e830bb0cbb783f0e6b4a968acc65deef7a2b0ff14d52821c42f785b9cc68953f5482bc1a621075e75537625fa3bd2025e7df7baf6ba1dbfbf2212912d0ca2646970667358221220ac47da8349b85e40fa35a882aaa5430d4f9357e7292da0ef5e4f9dedf5334b7164736f6c634300081a0033","linkReferences":{}},"methodIdentifiers":{"activateWorker(bytes32,bytes32)":"22ebd58a","addProviderToAccessList(address)":"73134c15","addWorker(address,(bytes32,bytes32[]),bytes32)":"d76e4805","appCID()":"9bc66868","changeProvidersAccessType(uint8)":"636fcefb","computePeerUsed(bytes32)":"bd1926e0","creationBlock()":"17634514","cuCountPerWorker()":"15a0f31a","depositFromOwner(uint256,uint8)":"ed7b7653","effectors()":"fc1e5e2a","getActivatedWorkerCount()":"ade0a202","getFreeBalance()":"e93c4f15","getMaxPaidEpoch()":"378b22e4","getProtocolVersion()":"33ce93fe","getRewardAmount(bytes32)":"1af57b96","getStatus()":"4e69d560","getWorker(bytes32)":"aba93a10","getWorkerCount()":"4d7599f1","getWorkerCount(address)":"59c4afc0","getWorkers()":"c1499f71","initialize(address,(bytes4,bytes32),address,uint256,uint256,uint256,uint256,uint256,(bytes4,bytes32)[],uint8,address[],uint256,address)":"d93446c4","isProviderAllowed(address)":"3e8ae1ae","maxWorkersPerProvider()":"8a0c725b","minWorkers()":"2db31193","multicall(bytes[])":"ac9650d8","owner()":"8da5cb5b","paymentToken()":"3013ce29","pricePerCuPerEpoch()":"70220a9b","providersAccessType()":"d4773ff0","removeProviderFromAccessList(address)":"444e6a5a","removeStaleWorkers(bytes32[])":"cb7b88d1","removeWorker(bytes32)":"bc126f1f","renounceOwnership()":"715018a6","setAppCID((bytes4,bytes32))":"176474cf","stop()":"07da68f5","targetWorkers()":"2943dcab","transferOwnership(address)":"f2fde38b","withdraw(uint256)":"2e1a7d4d","withdrawRewards(bytes32)":"7dfb6626"},"storageLayout":{"storage":[],"types":{}},"devdoc":{"version":1,"kind":"dev","methods":{"activateWorker(bytes32,bytes32)":{"details":"Set offchain worker ID for a corresponding onchain worker for a deal"},"addProviderToAccessList(address)":{"details":"Adds a provider to the access list"},"addWorker(address,(bytes32,bytes32[]),bytes32)":{"details":"Adds a compute unit to the deal","params":{"computeProvider":"The compute provider address","peerId":"The peer ID","workerData":"The worker with data"}},"appCID()":{"details":"Returns the app CID"},"changeProvidersAccessType(uint8)":{"details":"Change the providers access type"},"computePeerUsed(bytes32)":{"details":"Returns the boolean flag indicating whether the peer exists in the deal"},"constructor":{},"creationBlock()":{"details":"Returns the creation block of the deal"},"cuCountPerWorker()":{"details":"Returns number of CUs in a worker"},"depositFromOwner(uint256,uint8)":{"details":"Deposits payment token to the deal"},"effectors()":{"details":"Returns the effector CIDs"},"getActivatedWorkerCount()":{"details":"Returns the worker count. Worker is a compute unit that has a worker ID"},"getFreeBalance()":{"details":"Returns the free balance of the deal"},"getMaxPaidEpoch()":{"details":"Returns the max paid epoch"},"getProtocolVersion()":{"details":"Returns the protocol version"},"getRewardAmount(bytes32)":{"details":"Returns the reward amount by compute unit ID"},"getStatus()":{"details":"Returns the status of the deal"},"getWorker(bytes32)":{"details":"Returns worker by ID"},"getWorkerCount()":{"details":"Returns total number of workers"},"getWorkerCount(address)":{"details":"Returns number of workers in provider"},"getWorkers()":{"details":"Returns workers registered in this deal"},"isProviderAllowed(address)":{"details":"Returns the boolean indicating whether the provider is allowed or not"},"maxWorkersPerProvider()":{"details":"Returns the max number of workers per provider"},"minWorkers()":{"details":"Returns the min number of workers"},"multicall(bytes[])":{"details":"Receives and executes a batch of function calls on this contract."},"owner()":{"details":"Returns the address of the current owner."},"paymentToken()":{"details":"Returns the payment token address"},"pricePerCuPerEpoch()":{"details":"Returns the price per CU per epoch"},"providersAccessType()":{"details":"Returns the providers access type"},"removeProviderFromAccessList(address)":{"details":"Removes a provider from the access list"},"removeStaleWorkers(bytes32[])":{"details":"Allows oracle to remove worker from a deal that is not paying workers."},"removeWorker(bytes32)":{"details":"Removes a worker from the deal"},"renounceOwnership()":{"details":"Leaves the contract without owner. It will not be possible to call `onlyOwner` functions. Can only be called by the current owner. NOTE: Renouncing ownership will leave the contract without an owner, thereby disabling any functionality that is only available to the owner."},"setAppCID((bytes4,bytes32))":{"details":"Sets the app CID"},"stop()":{"details":"Stop the deal"},"targetWorkers()":{"details":"Returns the max number of workers"},"transferOwnership(address)":{"details":"Transfers ownership of the contract to a new account (`newOwner`). Can only be called by the current owner."},"withdraw(uint256)":{"details":"Withdraws payment token from the deal"},"withdrawRewards(bytes32)":{"details":"Withdraws rewards from the deal by compute unit ID"}},"events":{"AppCIDChanged((bytes4,bytes32))":{"details":"Emitted when the app CID is changed","params":{"newAppCID":"The new app CID"}},"DealEnded(uint256)":{"details":"Emitted when a deal is ended. This event can be emitted in the not-ended epoch. It can be emitted after the ended epoch in any epoch"},"Deposited(uint256)":{"details":"Emitted when a owner deposits payment token to the deal"},"Initialized(uint64)":{"details":"Triggered when the contract has been initialized or reinitialized."},"MaxPaidEpochUpdated(uint256)":{"details":"Emitted when a max paid epoch is updated"},"ProviderAddedToAccessList(address)":{"details":"Emitted when a provider is added to the access list","params":{"provider":"The provider address"}},"ProviderRemovedFromAccessList(address)":{"details":"Emitted when a provider is removed from the access list","params":{"provider":"The provider address"}},"ProvidersAccessTypeChanged(uint8)":{"details":"Emitted when the providers access type is changed","params":{"newAccessType":"The new access type"}},"RewardWithdrawn(bytes32,uint256,uint256)":{"details":"Emitted when a compute unit withdraws rewards from the deal"},"Withdrawn(uint256)":{"details":"Emitted when a owner withdraws payment token from the deal"},"WorkerIdUpdated(bytes32,bytes32)":{"details":"Emitted when a worker ID is updated","params":{"offchainWorkerId":"The new worker ID","onchainWorkerId":"The worker"}},"WorkerJoined(bytes32,bytes32)":{"details":"Emitted when a new worker is added","params":{"onchainId":"The worker ID","peerId":"The id of compute peer"}},"WorkerRemoved(bytes32,bytes32)":{"details":"Emitted when a worker is removed","params":{"onchainId":"The worker onchain ID","peerId":"The id of compute peer"}}},"errors":{"AddressEmptyCode(address)":[{"details":"There's no code at `target` (it is not a contract)."}],"FailedCall()":[{"details":"A call to an address target failed. The target may have reverted."}],"InvalidInitialization()":[{"details":"The contract is already initialized."}],"NotInitializing()":[{"details":"The contract is not initializing."}],"OwnableInvalidOwner(address)":[{"details":"The owner is not a valid owner account. (eg. `address(0)`)"}],"OwnableUnauthorizedAccount(address)":[{"details":"The caller account is not authorized to perform an operation."}],"ReentrancyGuardReentrantCall()":[{"details":"Unauthorized reentrant call."}]}},"id":95}