{"abi":[{"type":"function","name":"modifyState","inputs":[],"outputs":[],"stateMutability":"nonpayable"},{"type":"event","name":"SuccesfullyModified","inputs":[],"anonymous":false}],"bytecode":{"object":"0x60808060405234601557610158908161001a8239f35b5f80fdfe6080806040526004361015610012575f80fd5b5f3560e01c6374def39214610025575f80fd5b3461011e575f36600319011261011e577fc8fcad8db84d3cc18b4c41d551ea0ee66dd599cde068d998e57d5e09332c1320546001600160a01b031633036100d1577f963aedb451d774c98792f8f69a17e9461c48a04caa71aa32eb23bd42fb81ab5d80546001600160a01b03191673a7ea032dea10e551eeea78c40e483d13323247c91790557ffa62f0a5f01c72ed90e5c8e41cfd2d51acb386ad75ae5f23c8c0508c3c4198b55f80a1005b62461bcd60e51b815260206004820152602260248201527f4c69624469616d6f6e643a204d75737420626520636f6e7472616374206f776e60448201526132b960f11b6064820152608490fd5b5f80fdfea26469706673582212207ff2d9039c14e2440896e437edb451a3abf5c5432184ec983346adff0bf24a6064736f6c634300081a0033","linkReferences":{}},"methodIdentifiers":{"modifyState()":"74def392"},"storageLayout":{"storage":[],"types":{}},"devdoc":{"version":1,"kind":"dev"},"id":62}