{"src/balance-keeper/BalanceKeeper.sol":{"BalanceKeeper":{"abi":[{"type":"constructor","inputs":[],"stateMutability":"nonpayable"},{"type":"function","name":"UPGRADE_INTERFACE_VERSION","inputs":[],"outputs":[{"name":"","type":"string","internalType":"string"}],"stateMutability":"view"},{"type":"function","name":"WITHDRAW_REQUEST_DELAY","inputs":[],"outputs":[{"name":"","type":"uint256","internalType":"uint256"}],"stateMutability":"view"},{"type":"function","name":"coordinator","inputs":[],"outputs":[{"name":"","type":"address","internalType":"address"}],"stateMutability":"view"},{"type":"function","name":"dealBalancesTotal","inputs":[{"name":"token","type":"address","internalType":"contract IERC20"}],"outputs":[{"name":"supply","type":"uint256","internalType":"uint256"}],"stateMutability":"view"},{"type":"function","name":"diamond","inputs":[],"outputs":[{"name":"","type":"address","internalType":"address"}],"stateMutability":"view"},{"type":"function","name":"disableOnchainRefund","inputs":[],"outputs":[],"stateMutability":"nonpayable"},{"type":"function","name":"enableOnchainRefund","inputs":[],"outputs":[],"stateMutability":"nonpayable"},{"type":"function","name":"freeBalanceTotal","inputs":[{"name":"token","type":"address","internalType":"contract IERC20"}],"outputs":[{"name":"supply","type":"uint256","internalType":"uint256"}],"stateMutability":"view"},{"type":"function","name":"freezeAccount","inputs":[{"name":"user","type":"address","internalType":"address"}],"outputs":[],"stateMutability":"nonpayable"},{"type":"function","name":"frozen","inputs":[{"name":"user","type":"address","internalType":"address"}],"outputs":[{"name":"frozen","type":"bool","internalType":"bool"}],"stateMutability":"view"},{"type":"function","name":"fundFromLimbo","inputs":[{"name":"token","type":"address","internalType":"contract IERC20"},{"name":"user","type":"address","internalType":"address"},{"name":"amount","type":"uint256","internalType":"uint256"}],"outputs":[],"stateMutability":"nonpayable"},{"type":"function","name":"getDepositInfo","inputs":[{"name":"from","type":"uint256","internalType":"uint256"},{"name":"to","type":"uint256","internalType":"uint256"}],"outputs":[{"name":"","type":"tuple[]","internalType":"struct IBalanceKeeper.DealDepositInfo[]","components":[{"name":"token","type":"address","internalType":"contract IERC20"},{"name":"deal","type":"address","internalType":"address"},{"name":"user","type":"address","internalType":"address"},{"name":"reason","type":"uint8","internalType":"enum IBalanceKeeper.DealDepositReason"},{"name":"amount","type":"uint256","internalType":"uint256"},{"name":"blockNumber","type":"uint256","internalType":"uint256"},{"name":"reserved1","type":"uint256","internalType":"uint256"},{"name":"reserved2","type":"uint256","internalType":"uint256"},{"name":"reserved3","type":"uint256","internalType":"uint256"}]}],"stateMutability":"view"},{"type":"function","name":"getDepositInfoLength","inputs":[],"outputs":[{"name":"","type":"uint256","internalType":"uint256"}],"stateMutability":"view"},{"type":"function","name":"getFreeBalance","inputs":[{"name":"token","type":"address","internalType":"contract IERC20"},{"name":"user","type":"address","internalType":"address"}],"outputs":[{"name":"","type":"uint256","internalType":"uint256"}],"stateMutability":"view"},{"type":"function","name":"getFullBalance","inputs":[{"name":"token","type":"address","internalType":"contract IERC20"},{"name":"user","type":"address","internalType":"address"}],"outputs":[{"name":"","type":"uint256","internalType":"uint256"}],"stateMutability":"view"},{"type":"function","name":"initialize","inputs":[{"name":"_diamond","type":"address","internalType":"address"}],"outputs":[],"stateMutability":"nonpayable"},{"type":"function","name":"limbo","inputs":[{"name":"token","type":"address","internalType":"contract IERC20"},{"name":"user","type":"address","internalType":"address"}],"outputs":[{"name":"balance","type":"uint256","internalType":"uint256"}],"stateMutability":"view"},{"type":"function","name":"limboTotal","inputs":[{"name":"token","type":"address","internalType":"contract IERC20"}],"outputs":[{"name":"amount","type":"uint256","internalType":"uint256"}],"stateMutability":"view"},{"type":"function","name":"manualWithdrawEnabled","inputs":[],"outputs":[{"name":"","type":"bool","internalType":"bool"}],"stateMutability":"view"},{"type":"function","name":"moveBalanceFromDeal","inputs":[{"name":"token","type":"address","internalType":"contract IERC20"},{"name":"user","type":"address","internalType":"address"},{"name":"amount","type":"uint256","internalType":"uint256"},{"name":"reserved","type":"uint8","internalType":"uint8"}],"outputs":[],"stateMutability":"nonpayable"},{"type":"function","name":"moveBalanceToDeal","inputs":[{"name":"token","type":"address","internalType":"contract IERC20"},{"name":"user","type":"address","internalType":"address"},{"name":"amount","type":"uint256","internalType":"uint256"},{"name":"reason","type":"uint8","internalType":"enum IBalanceKeeper.DealDepositReason"}],"outputs":[],"stateMutability":"nonpayable"},{"type":"function","name":"moveFreeBalance","inputs":[{"name":"token","type":"address","internalType":"contract IERC20"},{"name":"from","type":"address","internalType":"address"},{"name":"to","type":"address","internalType":"address"},{"name":"amount","type":"uint256","internalType":"uint256"},{"name":"reserved","type":"uint8","internalType":"uint8"}],"outputs":[],"stateMutability":"nonpayable"},{"type":"function","name":"poolBalance","inputs":[{"name":"token","type":"address","internalType":"contract IERC20"}],"outputs":[{"name":"amount","type":"uint256","internalType":"uint256"}],"stateMutability":"view"},{"type":"function","name":"poolTopUp","inputs":[{"name":"token","type":"address","internalType":"contract IERC20"},{"name":"amount","type":"uint256","internalType":"uint256"}],"outputs":[],"stateMutability":"nonpayable"},{"type":"function","name":"poolWithdraw","inputs":[{"name":"token","type":"address","internalType":"contract IERC20"},{"name":"amount","type":"uint256","internalType":"uint256"}],"outputs":[],"stateMutability":"nonpayable"},{"type":"function","name":"proxiableUUID","inputs":[],"outputs":[{"name":"","type":"bytes32","internalType":"bytes32"}],"stateMutability":"view"},{"type":"function","name":"refund","inputs":[{"name":"token","type":"address","internalType":"contract IERC20"},{"name":"user","type":"address","internalType":"address"},{"name":"amount","type":"uint256","internalType":"uint256"}],"outputs":[],"stateMutability":"nonpayable"},{"type":"function","name":"sendToLimbo","inputs":[{"name":"token","type":"address","internalType":"contract IERC20"},{"name":"user","type":"address","internalType":"address"}],"outputs":[],"stateMutability":"nonpayable"},{"type":"function","name":"setCoordinator","inputs":[{"name":"_coordinator","type":"address","internalType":"address"}],"outputs":[],"stateMutability":"nonpayable"},{"type":"function","name":"terminate","inputs":[{"name":"token","type":"address","internalType":"contract IERC20"}],"outputs":[],"stateMutability":"nonpayable"},{"type":"function","name":"terminationRequest","inputs":[{"name":"token","type":"address","internalType":"contract IERC20"}],"outputs":[],"stateMutability":"nonpayable"},{"type":"function","name":"terminationVeto","inputs":[{"name":"token","type":"address","internalType":"contract IERC20"},{"name":"user","type":"address","internalType":"address"}],"outputs":[],"stateMutability":"nonpayable"},{"type":"function","name":"topUpIds","inputs":[{"name":"","type":"string","internalType":"string"}],"outputs":[{"name":"","type":"bool","internalType":"bool"}],"stateMutability":"view"},{"type":"function","name":"unfreezeAccount","inputs":[{"name":"user","type":"address","internalType":"address"}],"outputs":[],"stateMutability":"nonpayable"},{"type":"function","name":"upgradeToAndCall","inputs":[{"name":"newImplementation","type":"address","internalType":"address"},{"name":"data","type":"bytes","internalType":"bytes"}],"outputs":[],"stateMutability":"payable"},{"type":"function","name":"userTopUp","inputs":[{"name":"token","type":"address","internalType":"contract IERC20"},{"name":"user","type":"address","internalType":"address"},{"name":"amount","type":"uint256","internalType":"uint256"},{"name":"topUpId","type":"string","internalType":"string"}],"outputs":[],"stateMutability":"nonpayable"},{"type":"function","name":"withdrawByDeal","inputs":[{"name":"token","type":"address","internalType":"contract IERC20"},{"name":"user","type":"address","internalType":"address"},{"name":"amount","type":"uint256","internalType":"uint256"},{"name":"reserved","type":"uint8","internalType":"uint8"}],"outputs":[],"stateMutability":"nonpayable"},{"type":"function","name":"withdrawFromLimbo","inputs":[{"name":"token","type":"address","internalType":"contract IERC20"},{"name":"user","type":"address","internalType":"address"},{"name":"to","type":"address","internalType":"address"},{"name":"amount","type":"uint256","internalType":"uint256"}],"outputs":[],"stateMutability":"nonpayable"},{"type":"event","name":"AccountFreezeStateChanged","inputs":[{"name":"user","type":"address","indexed":true,"internalType":"address"},{"name":"frozen","type":"bool","indexed":false,"internalType":"bool"},{"name":"initiator","type":"address","indexed":false,"internalType":"address"}],"anonymous":false},{"type":"event","name":"BalanceMoved","inputs":[{"name":"token","type":"address","indexed":true,"internalType":"contract IERC20"},{"name":"from","type":"address","indexed":true,"internalType":"address"},{"name":"to","type":"address","indexed":true,"internalType":"address"},{"name":"amount","type":"uint256","indexed":false,"internalType":"uint256"},{"name":"reserved","type":"uint8","indexed":false,"internalType":"uint8"}],"anonymous":false},{"type":"event","name":"CoordinatorSet","inputs":[{"name":"coordinator","type":"address","indexed":true,"internalType":"address"},{"name":"initiator","type":"address","indexed":false,"internalType":"address"}],"anonymous":false},{"type":"event","name":"DealDeposit","inputs":[{"name":"token","type":"address","indexed":true,"internalType":"contract IERC20"},{"name":"deal","type":"address","indexed":true,"internalType":"address"},{"name":"user","type":"address","indexed":true,"internalType":"address"},{"name":"amount","type":"uint256","indexed":false,"internalType":"uint256"},{"name":"reason","type":"uint8","indexed":false,"internalType":"enum IBalanceKeeper.DealDepositReason"},{"name":"blockNumber","type":"uint256","indexed":false,"internalType":"uint256"},{"name":"depositIndex","type":"uint256","indexed":false,"internalType":"uint256"}],"anonymous":false},{"type":"event","name":"DealMigrated","inputs":[{"name":"deal","type":"address","indexed":true,"internalType":"address"},{"name":"token","type":"address","indexed":true,"internalType":"contract IERC20"},{"name":"amount","type":"uint256","indexed":false,"internalType":"uint256"}],"anonymous":false},{"type":"event","name":"DealWithdraw","inputs":[{"name":"token","type":"address","indexed":true,"internalType":"contract IERC20"},{"name":"deal","type":"address","indexed":true,"internalType":"address"},{"name":"user","type":"address","indexed":true,"internalType":"address"},{"name":"amount","type":"uint256","indexed":false,"internalType":"uint256"},{"name":"reserved","type":"uint8","indexed":false,"internalType":"uint8"}],"anonymous":false},{"type":"event","name":"FreeBalanceDecrease","inputs":[{"name":"token","type":"address","indexed":true,"internalType":"contract IERC20"},{"name":"user","type":"address","indexed":true,"internalType":"address"},{"name":"reason","type":"uint8","indexed":true,"internalType":"enum IBalanceKeeper.BalanceChangeReason"},{"name":"amount","type":"uint256","indexed":false,"internalType":"uint256"},{"name":"info","type":"address","indexed":false,"internalType":"address"}],"anonymous":false},{"type":"event","name":"FreeBalanceIncrease","inputs":[{"name":"token","type":"address","indexed":true,"internalType":"contract IERC20"},{"name":"user","type":"address","indexed":true,"internalType":"address"},{"name":"reason","type":"uint8","indexed":true,"internalType":"enum IBalanceKeeper.BalanceChangeReason"},{"name":"amount","type":"uint256","indexed":false,"internalType":"uint256"},{"name":"info","type":"address","indexed":false,"internalType":"address"}],"anonymous":false},{"type":"event","name":"FundedFromLimbo","inputs":[{"name":"token","type":"address","indexed":true,"internalType":"contract IERC20"},{"name":"user","type":"address","indexed":true,"internalType":"address"},{"name":"initiator","type":"address","indexed":false,"internalType":"address"},{"name":"amount","type":"uint256","indexed":false,"internalType":"uint256"}],"anonymous":false},{"type":"event","name":"Initialized","inputs":[{"name":"version","type":"uint64","indexed":false,"internalType":"uint64"}],"anonymous":false},{"type":"event","name":"ManualWithdrawDisabled","inputs":[{"name":"initiator","type":"address","indexed":false,"internalType":"address"}],"anonymous":false},{"type":"event","name":"ManualWithdrawEnabled","inputs":[{"name":"initiator","type":"address","indexed":false,"internalType":"address"}],"anonymous":false},{"type":"event","name":"PoolTopUp","inputs":[{"name":"token","type":"address","indexed":true,"internalType":"contract IERC20"},{"name":"initiator","type":"address","indexed":true,"internalType":"address"},{"name":"amount","type":"uint256","indexed":false,"internalType":"uint256"}],"anonymous":false},{"type":"event","name":"PoolWithdraw","inputs":[{"name":"token","type":"address","indexed":true,"internalType":"contract IERC20"},{"name":"initiator","type":"address","indexed":true,"internalType":"address"},{"name":"amount","type":"uint256","indexed":false,"internalType":"uint256"}],"anonymous":false},{"type":"event","name":"Refunded","inputs":[{"name":"token","type":"address","indexed":true,"internalType":"contract IERC20"},{"name":"user","type":"address","indexed":true,"internalType":"address"},{"name":"amount","type":"uint256","indexed":false,"internalType":"uint256"},{"name":"initiator","type":"address","indexed":false,"internalType":"address"}],"anonymous":false},{"type":"event","name":"SentToLimbo","inputs":[{"name":"token","type":"address","indexed":true,"internalType":"contract IERC20"},{"name":"user","type":"address","indexed":true,"internalType":"address"},{"name":"initiator","type":"address","indexed":false,"internalType":"address"},{"name":"amount","type":"uint256","indexed":false,"internalType":"uint256"}],"anonymous":false},{"type":"event","name":"TerminationExecuted","inputs":[{"name":"token","type":"address","indexed":true,"internalType":"contract IERC20"},{"name":"user","type":"address","indexed":true,"internalType":"address"},{"name":"initiator","type":"address","indexed":false,"internalType":"address"}],"anonymous":false},{"type":"event","name":"TerminationRequestCreated","inputs":[{"name":"token","type":"address","indexed":true,"internalType":"contract IERC20"},{"name":"user","type":"address","indexed":true,"internalType":"address"},{"name":"initiator","type":"address","indexed":false,"internalType":"address"}],"anonymous":false},{"type":"event","name":"TerminationVeto","inputs":[{"name":"token","type":"address","indexed":true,"internalType":"contract IERC20"},{"name":"user","type":"address","indexed":true,"internalType":"address"},{"name":"initiator","type":"address","indexed":false,"internalType":"address"}],"anonymous":false},{"type":"event","name":"Upgraded","inputs":[{"name":"implementation","type":"address","indexed":true,"internalType":"address"}],"anonymous":false},{"type":"event","name":"UserBalanceIncrease","inputs":[{"name":"token","type":"address","indexed":true,"internalType":"contract IERC20"},{"name":"user","type":"address","indexed":true,"internalType":"address"},{"name":"initiator","type":"address","indexed":true,"internalType":"address"},{"name":"amount","type":"uint256","indexed":false,"internalType":"uint256"},{"name":"topUpId","type":"string","indexed":false,"internalType":"string"}],"anonymous":false},{"type":"event","name":"Withdrawn","inputs":[{"name":"token","type":"address","indexed":true,"internalType":"contract IERC20"},{"name":"user","type":"address","indexed":true,"internalType":"address"},{"name":"amount","type":"uint256","indexed":false,"internalType":"uint256"},{"name":"reserved","type":"uint8","indexed":false,"internalType":"uint8"},{"name":"initiator","type":"address","indexed":false,"internalType":"address"}],"anonymous":false},{"type":"event","name":"WithdrawnFromLimbo","inputs":[{"name":"token","type":"address","indexed":true,"internalType":"contract IERC20"},{"name":"user","type":"address","indexed":true,"internalType":"address"},{"name":"to","type":"address","indexed":true,"internalType":"address"},{"name":"initiator","type":"address","indexed":false,"internalType":"address"},{"name":"amount","type":"uint256","indexed":false,"internalType":"uint256"}],"anonymous":false},{"type":"error","name":"AddressEmptyCode","inputs":[{"name":"target","type":"address","internalType":"address"}]},{"type":"error","name":"ERC1967InvalidImplementation","inputs":[{"name":"implementation","type":"address","internalType":"address"}]},{"type":"error","name":"ERC1967NonPayable","inputs":[]},{"type":"error","name":"FailedCall","inputs":[]},{"type":"error","name":"InvalidInitialization","inputs":[]},{"type":"error","name":"NotInitializing","inputs":[]},{"type":"error","name":"ReentrancyGuardReentrantCall","inputs":[]},{"type":"error","name":"SafeERC20FailedOperation","inputs":[{"name":"token","type":"address","internalType":"address"}]},{"type":"error","name":"UUPSUnauthorizedCallContext","inputs":[]},{"type":"error","name":"UUPSUnsupportedProxiableUUID","inputs":[{"name":"slot","type":"bytes32","internalType":"bytes32"}]}],"userdoc":{},"devdoc":{"version":1,"kind":"dev","methods":{"constructor":{},"proxiableUUID()":{"details":"Implementation of the ERC-1822 {proxiableUUID} function. This returns the storage slot used by the implementation. It is used to validate the implementation's compatibility when performing an upgrade. IMPORTANT: A proxy pointing at a proxiable contract should not be considered proxiable itself, because this risks bricking a proxy that upgrades to it, by delegating to itself until out of gas. Thus it is critical that this function revert if invoked through a proxy. This is guaranteed by the `notDelegated` modifier."},"refund(address,address,uint256)":{"details":"Refunds the specified amount of tokens to the user"},"upgradeToAndCall(address,bytes)":{"details":"Upgrade the implementation of the proxy to `newImplementation`, and subsequently execute the function call encoded in `data`. Calls {_authorizeUpgrade}. Emits an {Upgraded} event."}},"events":{"Initialized(uint64)":{"details":"Triggered when the contract has been initialized or reinitialized."},"Upgraded(address)":{"details":"Emitted when the implementation is upgraded."}},"errors":{"AddressEmptyCode(address)":[{"details":"There's no code at `target` (it is not a contract)."}],"ERC1967InvalidImplementation(address)":[{"details":"The `implementation` of the proxy is invalid."}],"ERC1967NonPayable()":[{"details":"An upgrade function sees `msg.value > 0` that may be lost."}],"FailedCall()":[{"details":"A call to an address target failed. The target may have reverted."}],"InvalidInitialization()":[{"details":"The contract is already initialized."}],"NotInitializing()":[{"details":"The contract is not initializing."}],"ReentrancyGuardReentrantCall()":[{"details":"Unauthorized reentrant call."}],"SafeERC20FailedOperation(address)":[{"details":"An operation with an ERC-20 token failed."}],"UUPSUnauthorizedCallContext()":[{"details":"The call is from an unauthorized context."}],"UUPSUnsupportedProxiableUUID(bytes32)":[{"details":"The storage `slot` is unsupported as a UUID."}]}},"storageLayout":{"storage":[{"astId":6139,"contract":"src/balance-keeper/BalanceKeeper.sol:BalanceKeeper","label":"diamond","offset":0,"slot":"0","type":"t_address"},{"astId":6141,"contract":"src/balance-keeper/BalanceKeeper.sol:BalanceKeeper","label":"coordinator","offset":0,"slot":"1","type":"t_address"},{"astId":6148,"contract":"src/balance-keeper/BalanceKeeper.sol:BalanceKeeper","label":"freeBalances","offset":0,"slot":"2","type":"t_mapping(t_contract(IERC20)938,t_mapping(t_address,t_uint256))"},{"astId":6155,"contract":"src/balance-keeper/BalanceKeeper.sol:BalanceKeeper","label":"dealBalances","offset":0,"slot":"3","type":"t_mapping(t_contract(IERC20)938,t_mapping(t_address,t_uint256))"},{"astId":6162,"contract":"src/balance-keeper/BalanceKeeper.sol:BalanceKeeper","label":"terminationRequests","offset":0,"slot":"4","type":"t_mapping(t_contract(IERC20)938,t_mapping(t_address,t_uint256))"},{"astId":6167,"contract":"src/balance-keeper/BalanceKeeper.sol:BalanceKeeper","label":"freeBalanceTotal","offset":0,"slot":"5","type":"t_mapping(t_contract(IERC20)938,t_uint256)"},{"astId":6172,"contract":"src/balance-keeper/BalanceKeeper.sol:BalanceKeeper","label":"dealBalancesTotal","offset":0,"slot":"6","type":"t_mapping(t_contract(IERC20)938,t_uint256)"},{"astId":6177,"contract":"src/balance-keeper/BalanceKeeper.sol:BalanceKeeper","label":"poolBalance","offset":0,"slot":"7","type":"t_mapping(t_contract(IERC20)938,t_uint256)"},{"astId":6184,"contract":"src/balance-keeper/BalanceKeeper.sol:BalanceKeeper","label":"limbo","offset":0,"slot":"8","type":"t_mapping(t_contract(IERC20)938,t_mapping(t_address,t_uint256))"},{"astId":6189,"contract":"src/balance-keeper/BalanceKeeper.sol:BalanceKeeper","label":"limboTotal","offset":0,"slot":"9","type":"t_mapping(t_contract(IERC20)938,t_uint256)"},{"astId":6193,"contract":"src/balance-keeper/BalanceKeeper.sol:BalanceKeeper","label":"frozen","offset":0,"slot":"10","type":"t_mapping(t_address,t_bool)"},{"astId":6197,"contract":"src/balance-keeper/BalanceKeeper.sol:BalanceKeeper","label":"topUpIds","offset":0,"slot":"11","type":"t_mapping(t_string_memory_ptr,t_bool)"},{"astId":6200,"contract":"src/balance-keeper/BalanceKeeper.sol:BalanceKeeper","label":"manualWithdrawEnabled","offset":0,"slot":"12","type":"t_bool"},{"astId":6204,"contract":"src/balance-keeper/BalanceKeeper.sol:BalanceKeeper","label":"dealDeposits","offset":0,"slot":"13","type":"t_array(t_struct(DealDepositInfo)7594_storage)dyn_storage"}],"types":{"t_address":{"encoding":"inplace","label":"address","numberOfBytes":"20"},"t_array(t_struct(DealDepositInfo)7594_storage)dyn_storage":{"encoding":"dynamic_array","label":"struct IBalanceKeeper.DealDepositInfo[]","numberOfBytes":"32","base":"t_struct(DealDepositInfo)7594_storage"},"t_bool":{"encoding":"inplace","label":"bool","numberOfBytes":"1"},"t_contract(IERC20)938":{"encoding":"inplace","label":"contract IERC20","numberOfBytes":"20"},"t_enum(DealDepositReason)7573":{"encoding":"inplace","label":"enum IBalanceKeeper.DealDepositReason","numberOfBytes":"1"},"t_mapping(t_address,t_bool)":{"encoding":"mapping","key":"t_address","label":"mapping(address => bool)","numberOfBytes":"32","value":"t_bool"},"t_mapping(t_address,t_uint256)":{"encoding":"mapping","key":"t_address","label":"mapping(address => uint256)","numberOfBytes":"32","value":"t_uint256"},"t_mapping(t_contract(IERC20)938,t_mapping(t_address,t_uint256))":{"encoding":"mapping","key":"t_contract(IERC20)938","label":"mapping(contract IERC20 => mapping(address => uint256))","numberOfBytes":"32","value":"t_mapping(t_address,t_uint256)"},"t_mapping(t_contract(IERC20)938,t_uint256)":{"encoding":"mapping","key":"t_contract(IERC20)938","label":"mapping(contract IERC20 => uint256)","numberOfBytes":"32","value":"t_uint256"},"t_mapping(t_string_memory_ptr,t_bool)":{"encoding":"mapping","key":"t_string_memory_ptr","label":"mapping(string => bool)","numberOfBytes":"32","value":"t_bool"},"t_string_memory_ptr":{"encoding":"bytes","label":"string","numberOfBytes":"32"},"t_struct(DealDepositInfo)7594_storage":{"encoding":"inplace","label":"struct IBalanceKeeper.DealDepositInfo","numberOfBytes":"256","members":[{"astId":7576,"contract":"src/balance-keeper/BalanceKeeper.sol:BalanceKeeper","label":"token","offset":0,"slot":"0","type":"t_contract(IERC20)938"},{"astId":7578,"contract":"src/balance-keeper/BalanceKeeper.sol:BalanceKeeper","label":"deal","offset":0,"slot":"1","type":"t_address"},{"astId":7580,"contract":"src/balance-keeper/BalanceKeeper.sol:BalanceKeeper","label":"user","offset":0,"slot":"2","type":"t_address"},{"astId":7583,"contract":"src/balance-keeper/BalanceKeeper.sol:BalanceKeeper","label":"reason","offset":20,"slot":"2","type":"t_enum(DealDepositReason)7573"},{"astId":7585,"contract":"src/balance-keeper/BalanceKeeper.sol:BalanceKeeper","label":"amount","offset":0,"slot":"3","type":"t_uint256"},{"astId":7587,"contract":"src/balance-keeper/BalanceKeeper.sol:BalanceKeeper","label":"blockNumber","offset":0,"slot":"4","type":"t_uint256"},{"astId":7589,"contract":"src/balance-keeper/BalanceKeeper.sol:BalanceKeeper","label":"reserved1","offset":0,"slot":"5","type":"t_uint256"},{"astId":7591,"contract":"src/balance-keeper/BalanceKeeper.sol:BalanceKeeper","label":"reserved2","offset":0,"slot":"6","type":"t_uint256"},{"astId":7593,"contract":"src/balance-keeper/BalanceKeeper.sol:BalanceKeeper","label":"reserved3","offset":0,"slot":"7","type":"t_uint256"}]},"t_uint256":{"encoding":"inplace","label":"uint256","numberOfBytes":"32"}}},"evm":{"bytecode":{"object":"60a080604052346100f2573060805260ff19600c5416600c557ff0c57e16840df040f15088dc2f81fe391c3923bec73e23a9662efc9c229c6a005460ff8160401c166100e3576002600160401b03196001600160401b0382160161007d575b6040516132dc90816100f782396080518181816116b401526117560152f35b6001600160401b0319166001600160401b039081177ff0c57e16840df040f15088dc2f81fe391c3923bec73e23a9662efc9c229c6a005581527fc7f505b2f371ae2175ee4913f4499e1f2633a7b5936321eed1cdaeb6115181d290602090a15f8061005e565b63f92ee8a960e01b5f5260045ffd5b5f80fdfe6080806040526004361015610012575f80fd5b5f3560e01c90816301627f56146127355750806304930575146127185780630a009097146126f0578063116424cc146123355780631229add5146122fd5780631e4343ec146122db578063301aaac9146120ad57806331acc94214611d975780633adce71514611d395780633bf9bb0b14611a735780633eb026af146119185780634f1ef2861461170857806352d1902d146116a257806368abb5e01461166a578063788649ea146116025780637df5070f146114eb5780637fad64011461135157806382ad6f351461118057806388081fcb14610f265780638ea9811714610ead578063933a6d5e14610e7557806395e1b41814610bee578063985a3e1a14610a6c5780639cf8fc3614610a11578063ad3cb1cc146109c6578063ae77dc1014610976578063c08ea6e61461091c578063c44ead3c146108e4578063c4d66de81461077b578063d05166501461073e578063d4f4ba48146106d1578063db2aa127146105ad578063de700da61461055d578063ec178c131461051e578063edb455291461023e578063f0b7db4e14610217578063f26c159f146101df5763fac4bf22146101be575f80fd5b346101db575f3660031901126101db57602060405162093a808152f35b5f80fd5b346101db5760203660031901126101db576102156101fb61292f565b61021060018060a01b03600154163314612c21565b612e5b565b005b346101db575f3660031901126101db575f546040516001600160a01b039091168152602090f35b346101db5760203660031901126101db5761025761292f565b335f52600a60205261027060ff60405f20541615612b4e565b610278612d3d565b60ff600c5416156104bf576001600160a01b0381165f8181526004602090815260408083203384529091529020549091901561046e57815f52600460205260405f2060018060a01b0333165f5260205262093a806102da60405f205442612bf5565b1061041e575f828152600260209081526040808320338452909152902054156103c5575f828152600260209081526040808320338452909152902080546103869290916103278380612bf5565b9055835f52600560205260405f20610340838254612bf5565b905560056040518381525f6020820152855f8051602061312783398151915260403393a45f84815260046020908152604080832033808552925282209190915590612d72565b604051903382527f58c9b83f9c19bf10c1eabd844bd0371158317b08615ff5e11c9ba5761bca6ba860203393a35f5f805160206132278339815191525d005b60405162461bcd60e51b815260206004820152602b60248201527f42616c616e63654b65657065723a2077697468647261773a206e6f7420656e6f60448201526a7567682062616c616e636560a81b6064820152608490fd5b60405162461bcd60e51b815260206004820152602260248201527f42616c616e63654b65657065723a2077697468647261773a20746f6f206561726044820152616c7960f01b6064820152608490fd5b60405162461bcd60e51b815260206004820152602360248201527f42616c616e63654b65657065723a2077697468647261773a206e6f2072657175604482015262195cdd60ea1b6064820152608490fd5b60405162461bcd60e51b815260206004820152603160248201527f42616c616e63654b65657065723a2077697468647261773a206d616e75616c206044820152701dda5d1a191c985dc8191a5cd8589b1959607a1b6064820152608490fd5b346101db5760403660031901126101db5761021561053a61292f565b610542612945565b9061055860018060a01b03600154163314612c21565b612e99565b346101db5760403660031901126101db5761057661292f565b61057e612945565b6001600160a01b039182165f908152600260209081526040808320949093168252928352819020549051908152f35b346101db5760403660031901126101db576105c661292f565b602435906105d2612d3d565b6105ed6001600160a01b036105e5612e0c565b163314612ca4565b60018060a01b03811690815f5260076020528260405f20541061066d578261062f91835f52600760205260405f20610626838254612bf5565b90553390612d72565b6040519182527fab8ee1a4a7de523166c3532be846a4090f08cce2dcad80e897e9df474fc6a85a60203393a35f5f805160206132278339815191525d005b60405162461bcd60e51b815260206004820152603660248201527f42616c616e63654b65657065723a206e6f7420656e6f75676820616d6f756e74604482015275081d1bc81dda5d1a191c985dc8199c9bdb481c1bdbdb60521b6064820152608490fd5b346101db5760403660031901126101db5760206107366106ef61292f565b6106f7612945565b6001600160a01b039182165f81815260028652604080822094909316808252938652828120549181526003865282812093815292855291205490612bac565b604051908152f35b346101db5760203660031901126101db576001600160a01b0361075f61292f565b165f52600a602052602060ff60405f2054166040519015158152f35b346101db5760203660031901126101db5761079461292f565b5f8051602061324783398151915254604081901c60ff161591906001600160401b038116801590816108dc575b60011490816108d2575b1590816108c9575b506108ba576001600160401b031981166001175f805160206132478339815191525582610892575b505f80546001600160a01b0319166001600160a01b03929092169190911790555f805160206132478339815191525490604082901c60ff16156108835761083e57005b60ff60401b19165f8051602061324783398151915255604051600181527fc7f505b2f371ae2175ee4913f4499e1f2633a7b5936321eed1cdaeb6115181d290602090a1005b631afcd79f60e31b5f5260045ffd5b6001600160481b0319166001600160401b01175f8051602061324783398151915255826107fb565b63f92ee8a960e01b5f5260045ffd5b905015846107d3565b303b1591506107cb565b8491506107c1565b346101db5760203660031901126101db576001600160a01b0361090561292f565b165f526009602052602060405f2054604051908152f35b346101db5760203660031901126101db576004356001600160401b0381116101db5760ff60208061095281943690600401612a49565b604051928184925191829101835e8101600b81520301902054166040519015158152f35b346101db5760403660031901126101db5761098f61292f565b610997612945565b6001600160a01b039182165f908152600860209081526040808320949093168252928352819020549051908152f35b346101db575f3660031901126101db57610a0d6040516109e76040826129d5565b60058152640352e302e360dc1b6020820152604051918291602083526020830190612aae565b0390f35b346101db575f3660031901126101db57610a3660018060a01b03600154163314612c21565b60ff19600c5416600c557fc090ba447c2876286710fa3f84277e63b8c4b98a2691afca3435f79060a716cb6020604051338152a1005b346101db5760803660031901126101db57610a8561292f565b610a8d612945565b90610a9661295b565b9060643591610aa3612d3d565b610ab66001600160a01b036105e5612e0c565b60018060a01b03821691825f52600860205260405f2060018060a01b0386165f526020528360405f205410610b8c5781610b59857f5d16c4a1e4b62879fbf1bda626a5a21daded2fc836b50947712c5d595f947fbd94610b7794875f52600860205260405f2060018060a01b038b165f5260205260405f20610b39848254612bf5565b9055875f52600960205260405f20610b52848254612bf5565b9055612d72565b6040516001600160a01b039182169690911694909182913383612d09565b0390a45f5f805160206132278339815191525d005b60405162461bcd60e51b815260206004820152603460248201527f42616c616e63654b65657065723a20776974686472617746726f6d4c696d626f6044820152733a206e6f7420656e6f7567682062616c616e636560601b6064820152608490fd5b346101db5760a03660031901126101db57610c0761292f565b610c0f612945565b610c1761295b565b6064359160843560ff811681036101db575f54604051632105305360e01b815233600482015290602090829060249082906001600160a01b03165afa8015610e6a57610c6a915f91610e3b575b50612aea565b60018060a01b03821693845f52600a602052610c8d60ff60405f20541615612b4e565b60018060a01b03841695865f52600a602052610cb060ff60405f20541615612b4e565b610cb8612d3d565b60018060a01b031693845f52600260205260405f20865f526020528160405f205410610ddb5786855f80516020613207833981519152610dbd7fec02109b69235dc964dc3600685d13d211d8f05b663fac885f581f60da3fc2ca9760028b855f805160206131278339815191528399825f528460205260405f20845f5260205260405f20610d478d8254612bf5565b9055825f52600560205260405f20610d608d8254612bf5565b90558b610d7260405192839283612d24565b0390a4835f528560205260405f20855f5260205260405f20610d95888254612bac565b9055835f52600560205260405f20610dae888254612bac565b90556040519182918883612d24565b0390a46040805191825260ff90921660208201529081908101610b77565b60405162461bcd60e51b815260206004820152603260248201527f42616c616e63654b65657065723a206d6f76654672656542616c616e63653a206044820152716e6f7420656e6f7567682062616c616e636560701b6064820152608490fd5b610e5d915060203d602011610e63575b610e5581836129d5565b810190612ad2565b87610c64565b503d610e4b565b6040513d5f823e3d90fd5b346101db5760203660031901126101db576001600160a01b03610e9661292f565b165f526005602052602060405f2054604051908152f35b346101db5760203660031901126101db57610ec661292f565b610ed96001600160a01b036105e5612e0c565b600180546001600160a01b0319166001600160a01b039290921691821790556040513381527f770b8c4e13577f5ef5749f2e790fdb6a3f401e49bb3eded50a027c81f72c6a7c90602090a2005b346101db57610f3436612971565b5f54604051632105305360e01b81523360048201529293919290602090829060249082906001600160a01b03165afa8015610e6a57610f79915f916111615750612aea565b60018060a01b031692835f52600a602052610f9b60ff60405f20541615612b4e565b610fa3612d3d565b60018060a01b031690815f52600360205260405f20845f526020528260405f20541061111057815f5260066020528260405f2054106110b957610b777f1e579e7583af5383169584a02ef5981c4b4f8d7ff2c36ccfdabfa6280036b3dd91835f52600360205260405f20865f5260205260405f20611022868254612bf5565b9055835f52600660205260405f2061103b868254612bf5565b9055835f52600260205260405f20865f5260205260405f2061105e868254612bac565b9055835f52600560205260405f20611077868254612bac565b9055600186855f805160206132078339815191526040518061109a338c83612d24565b0390a460405191829133968390815260ff909116602082015260400190565b60405162461bcd60e51b815260206004820152603c60248201525f8051602061326783398151915260448201527b616c3a206e6f7420656e6f75676820746f74616c2062616c616e636560201b6064820152608490fd5b60405162461bcd60e51b815260206004820152603660248201525f80516020613267833981519152604482015275616c3a206e6f7420656e6f7567682062616c616e636560501b6064820152608490fd5b61117a915060203d602011610e6357610e5581836129d5565b86610c64565b346101db5761118e36612a74565b611196612d3d565b6111ab60018060a01b03600154163314612c21565b60018060a01b03831691825f5260056020528160405f2054106112fe57825f52600260205260405f2060018060a01b0382165f526020528160405f2054106112b1578161128e7fed3f8d40e0f7f69b8048638c399ff0c54ec9b89759e2b8f2207729452e1422f19361129c93865f52600260205260405f2060018060a01b0382165f5260205260405f20611240838254612bf5565b9055865f52600560205260405f20611259838254612bf5565b905560018060a01b03811697600889895f8051602061312783398151915260405180611286338a83612d24565b0390a4612d72565b604051918291339083612d24565b0390a35f5f805160206132278339815191525d005b60405162461bcd60e51b815260206004820152603260248201525f805160206132878339815191526044820152716e6f7420656e6f7567682062616c616e636560701b6064820152608490fd5b60405162461bcd60e51b815260206004820152603860248201525f805160206132878339815191526044820152776e6f7420656e6f75676820746f74616c2062616c616e636560401b6064820152608490fd5b346101db5761135f36612a74565b916113736001600160a01b036105e5612e0c565b60018060a01b031690815f52600860205260405f2060018060a01b0382165f526020528260405f20541061148d576114887fad800992a52028310197800abba2e1d874c3952c1622e9266ba9e0abac9ecbee91835f52600860205260405f2060018060a01b0382165f5260205260405f206113ef868254612bf5565b9055835f52600960205260405f20611408868254612bf5565b9055835f52600260205260405f2060018060a01b0382165f5260205260405f20611433868254612bac565b9055835f52600560205260405f2061144c868254612bac565b905560018060a01b031693600785855f8051602061320783398151915260405180611478338883612d24565b0390a46040519182913383612d09565b0390a3005b60405162461bcd60e51b815260206004820152603060248201527f42616c616e63654b65657065723a2066756e6446726f6d4c696d626f3a206e6f60448201526f7420656e6f7567682062616c616e636560801b6064820152608490fd5b346101db5760403660031901126101db5761150461292f565b61150c612945565b9061152260018060a01b03600154163314612c21565b60018060a01b03811690815f52600460205260405f2060018060a01b0384165f5260205260405f2054156115bd578261157a91835f52600460205260405f2060018060a01b0383165f526020525f6040812055612e99565b61158382612e5b565b6040513381526001600160a01b03909216917f578c57b9c6614c72323596d4a9a6a5676102b3adaa6814118c74afe38b6c8ae690602090a3005b60405162461bcd60e51b815260206004820152601f60248201527f42616c616e63654b65657065723a207665746f3a206e6f2072657175657374006044820152606490fd5b346101db5760203660031901126101db5761161b61292f565b61163060018060a01b03600154163314612c21565b60018060a01b0316805f52600a60205260405f2060ff1981541690555f80516020613147833981519152604080515f8152336020820152a2005b346101db5760203660031901126101db576001600160a01b0361168b61292f565b165f526007602052602060405f2054604051908152f35b346101db575f3660031901126101db577f00000000000000000000000000000000000000000000000000000000000000006001600160a01b031630036116f95760206040515f805160206131e78339815191528152f35b63703e46dd60e11b5f5260045ffd5b60403660031901126101db5761171c61292f565b6024356001600160401b0381116101db57366023820112156101db5761174c903690602481600401359101612a13565b6001600160a01b037f0000000000000000000000000000000000000000000000000000000000000000163081149081156118f6575b506116f9576117996001600160a01b036105e5612e0c565b6040516352d1902d60e01b81526001600160a01b0383169290602081600481875afa5f91816118c2575b506117db5783634c9c8ce360e01b5f5260045260245ffd5b805f805160206131e78339815191528592036118b05750813b1561189e575f805160206131e783398151915280546001600160a01b031916821790557fbc7cd75a20ee27fd9adebab32041f755214dbc6bffa90cc0225b39da2e5c2d3b5f80a2815115611886575f8083602061021595519101845af43d1561187e573d91611862836129f8565b9261187060405194856129d5565b83523d5f602085013e6130a8565b6060916130a8565b50503461188f57005b63b398979f60e01b5f5260045ffd5b634c9c8ce360e01b5f5260045260245ffd5b632a87526960e21b5f5260045260245ffd5b9091506020813d6020116118ee575b816118de602093836129d5565b810103126101db575190856117c3565b3d91506118d1565b5f805160206131e7833981519152546001600160a01b03161415905083611781565b346101db5760403660031901126101db5761193161292f565b6024359061193d612d3d565b6001546001600160a01b031633148015611a5a575b156119f2576119b460018060a01b03821691825f52600760205260405f2061197b858254612bac565b90556040516323b872dd60e01b602082015233602482015230604482015260648082018690528152906119af6084836129d5565b613050565b6040519182527fc5efc688606a98f36c8fcc0d9c778216b9db9aa4809a8de9f18e3cc8885c99a760203393a35f5f805160206132278339815191525d005b60405162461bcd60e51b815260206004820152604760248201525f8051602061316783398151915260448201527f6f72206469616d6f6e64206f776e65722063616e2063616c6c207468697320666064820152663ab731ba34b7b760c91b608482015260a490fd5b506001600160a01b03611a6b612e0c565b163314611952565b346101db5760403660031901126101db57600435602435818110611cfb57600d54811015611cbb57611aa58282612bf5565b9160018301809311611c5957611aba83612c79565b92611ac860405194856129d5565b808452611ad7601f1991612c79565b015f5b818110611c6d575050805b82811115611ba557836040518091602082016020835281518091526020604084019201905f5b818110611b19575050500390f35b9193509160206101206001926101008751858060a01b038151168352858060a01b03858201511685840152858060a01b036040820151166040840152611b6760608201516060850190612a67565b6080810151608084015260a081015160a084015260c081015160c084015260e081015160e08401520151610100820152019401910191849392611b0b565b611c48611bb182612bc5565b50611bbc8484612bf5565b90600760405191611bcc836129b9565b80546001600160a01b03908116845260018201548116602085015260028201549081166040850152611c079060a01c60ff1660608501612bb9565b60038101546080840152600481015460a0840152600581015460c0840152600681015460e08401520154610100820152611c418288612c90565b5285612c90565b505f198114611c5957600101611ae5565b634e487b7160e01b5f52601160045260245ffd5b602090604051611c7c816129b9565b5f81525f838201525f60408201525f60608201525f60808201525f60a08201525f60c08201525f60e08201525f61010082015282828801015201611ada565b60405162461bcd60e51b81526020600482015260186024820152776765744465706f736974496e666f3a206f766572666c6f7760401b6044820152606490fd5b60405162461bcd60e51b815260206004820152601660248201527573746f7265644465616c733a20746f203c2066726f6d60501b6044820152606490fd5b346101db575f3660031901126101db57611d5e60018060a01b03600154163314612c21565b600160ff19600c541617600c557ffc30ceacbbd28b9ae09ddbb48ae26fbe5ebc9eb59bb3470290fadd187d7c40246020604051338152a1005b346101db5760803660031901126101db57611db061292f565b611db8612945565b906044356064356001600160401b0381116101db57611ddb903690600401612a49565b9260018060a01b031691825f52600a602052611dfe60ff60405f20541615612b4e565b5f546040516302984ebd60e31b815290602090829060049082906001600160a01b03165afa908115610e6a575f9161207e575b506001600160a01b0316330361201e5760405160ff855191602081818901948086835e8101600b8152030190205416611fc0576020604051809287518091835e8101600b815203019020600160ff1982541617905560018060a01b031690815f5260076020528060405f205410611f5e577fd255d18d8ecbcbaa2126775ba49c6bddd4ec7bed71589374889bacdd0334bb4a90825f52600760205260405f20611edb828254612bf5565b9055825f52600260205260405f20845f5260205260405f20611efe828254612bac565b9055825f52600560205260405f20611f17828254612bac565b90555f84845f8051602061320783398151915260405180611f39338883612d24565b0390a46040519081526040602082015280611f5933966040830190612aae565b0390a4005b60405162461bcd60e51b815260206004820152603460248201527f42616c616e63654b65657065723a2075736572546f7055703a206e6f7420656e6044820152736f75676820676174657761792062616c616e636560601b6064820152608490fd5b60405162461bcd60e51b815260206004820152603060248201527f42616c616e63654b65657065723a2075736572546f7055703a20746f702d757060448201526f081a5908185b1c9958591e481d5cd95960821b6064820152608490fd5b60405162461bcd60e51b815260206004820152603260248201527f42616c616e63654b65657065723a204f6e6c7920766f646f7061642063616e2060448201527131b0b636103a3434b990333ab731ba34b7b760711b6064820152608490fd5b6120a0915060203d6020116120a6575b61209881836129d5565b810190612c02565b85611e31565b503d61208e565b346101db5760203660031901126101db576120c661292f565b335f52600a6020526120df60ff60405f20541615612b4e565b6001600160a01b03165f8181526003602090815260408083203384529091529020546122875760ff600c541615612234575f818152600260209081526040808320338452909152902054156121e7575f81815260046020908152604080832033845290915290205461219b57805f52600460205260405f2060018060a01b0333165f5260205260405f20429055604051903382527f4365d6807428f602d009451dbfac23489f573dc32f596c2e89dee5df4573575760203393a3005b60405162461bcd60e51b815260206004820152603160248201525f80516020613187833981519152604482015270185b1c9958591e481c995c5d595cdd1959607a1b6064820152608490fd5b60405162461bcd60e51b815260206004820152603260248201525f805160206131878339815191526044820152716e6f7420656e6f7567682062616c616e636560701b6064820152608490fd5b60405162461bcd60e51b815260206004820152603860248201525f805160206131878339815191526044820152771b585b9d585b081dda5d1a191c985dc8191a5cd8589b195960421b6064820152608490fd5b60405162461bcd60e51b815260206004820152603960248201525f805160206132878339815191526044820152786465616c2062616c616e6365206973206e6f7420656d70747960381b6064820152608490fd5b346101db575f3660031901126101db57602060ff600c54166040519015158152f35b346101db5760203660031901126101db576001600160a01b0361231e61292f565b165f526006602052602060405f2054604051908152f35b346101db5760803660031901126101db5761234e61292f565b612356612945565b604435906064359060028210156101db575f54604051632105305360e01b815233600482015290602090829060249082906001600160a01b03165afa8015610e6a576123a8915f916111615750612aea565b60018060a01b031692835f52600a6020526123ca60ff60405f20541615612b4e565b6123d2612d3d565b60018060a01b031690815f52600260205260405f20845f526020528260405f2054106126a157815f5260056020528260405f20541061264c57815f52600360205260405f20845f5260205260405f2061242c848254612bac565b9055815f52600660205260405f20612445848254612bac565b9055815f52600260205260405f20845f5260205260405f20612468848254612bf5565b9055815f52600560205260405f20612481848254612bf5565b9055600384835f80516020613127833981519152604051806124a4338a83612d24565b0390a46124af612da9565b6040516124bb816129b9565b838152602081013381526040820190878252606083016124db8682612bb9565b6080840188815260a0850186815260c08601915f835260e08701935f85526101008801955f8752600d54600160401b811015612638578060016125219201600d55612bc5565b999099612625575189546001600160a01b03199081166001600160a01b03928316178b55915160018b018054841691831691909117905597516002808b018054909316919099161781559051968710156126115760079681549060ff60a01b9060a01b169060ff60a01b191617905551600387015551600486015551600585015551600684015551910155600d54915f198301928311611c59576125cf906040519586526020860190612a67565b604084015260608301527f58a01cec638e44fd50f881445a9cedbc0c087ba39f0218de7ddc71ec1180129060803393a45f5f805160206132278339815191525d005b634e487b7160e01b5f52602160045260245ffd5b634e487b7160e01b5f525f60045260245ffd5b634e487b7160e01b5f52604160045260245ffd5b60405162461bcd60e51b815260206004820152603a60248201525f805160206131078339815191526044820152793a206e6f7420656e6f75676820746f74616c2062616c616e636560301b6064820152608490fd5b60405162461bcd60e51b815260206004820152603460248201525f805160206131078339815191526044820152733a206e6f7420656e6f7567682062616c616e636560601b6064820152608490fd5b346101db575f3660031901126101db576001546040516001600160a01b039091168152602090f35b346101db575f3660031901126101db576020600d54604051908152f35b346101db5761274336612971565b91909360208160248160018060a01b035f5416632105305360e01b82523360048301525afa8015610e6a5761277e915f916111615750612aea565b60018060a01b03811693845f52600a6020526127a160ff60405f20541615612b4e565b6127a9612d3d565b60018060a01b03841693845f52600260205260405f20865f526020528160405f2054106128e357845f5260056020528160405f205410612891577f266db432dd60d996c5eacf4e77fb6e9d1642097fad309f5fce95908bb09e15949361286c8360609560ff94895f52600260205260405f208b5f5260205260405f20612830848254612bf5565b9055895f52600560205260405f20612849848254612bf5565b905560048b8b5f8051602061312783398151915260405180611286338a83612d24565b604051928352166020820152336040820152a35f5f805160206132278339815191525d005b60405162461bcd60e51b815260206004820152603760248201525f805160206131c78339815191526044820152766f7420656e6f75676820746f74616c2062616c616e636560481b6064820152608490fd5b60405162461bcd60e51b815260206004820152603160248201525f805160206131c78339815191526044820152706f7420656e6f7567682062616c616e636560781b6064820152608490fd5b600435906001600160a01b03821682036101db57565b602435906001600160a01b03821682036101db57565b604435906001600160a01b03821682036101db57565b60809060031901126101db576004356001600160a01b03811681036101db57906024356001600160a01b03811681036101db57906044359060643560ff811681036101db5790565b61012081019081106001600160401b0382111761263857604052565b601f909101601f19168101906001600160401b0382119082101761263857604052565b6001600160401b03811161263857601f01601f191660200190565b929192612a1f826129f8565b91612a2d60405193846129d5565b8294818452818301116101db578281602093845f960137010152565b9080601f830112156101db57816020612a6493359101612a13565b90565b9060028210156126115752565b60609060031901126101db576004356001600160a01b03811681036101db57906024356001600160a01b03811681036101db579060443590565b805180835260209291819084018484015e5f828201840152601f01601f1916010190565b908160209103126101db575180151581036101db5790565b15612af157565b60405162461bcd60e51b815260206004820152602f60248201527f42616c616e63654b65657065723a204f6e6c79206465616c2063616e2063616c60448201526e36103a3434b990333ab731ba34b7b760891b6064820152608490fd5b15612b5557565b60405162461bcd60e51b815260206004820152602960248201527f42616c616e63654b65657065723a2055736572206973207065726d616e656e74604482015268363c90333937bd32b760b91b6064820152608490fd5b91908201809211611c5957565b60028210156126115752565b600d54811015612be157600d5f5260205f209060031b01905f90565b634e487b7160e01b5f52603260045260245ffd5b91908203918211611c5957565b908160209103126101db57516001600160a01b03811681036101db5790565b15612c2857565b60405162461bcd60e51b815260206004820152603660248201525f8051602061316783398151915260448201527531b0b71031b0b636103a3434b990333ab731ba34b7b760511b6064820152608490fd5b6001600160401b0381116126385760051b60200190565b8051821015612be15760209160051b010190565b15612cab57565b60405162461bcd60e51b815260206004820152603060248201527f42616c616e63654b65657065723a204f6e6c79206f776e65722063616e20636160448201526f3636103a3434b990333ab731ba34b7b760811b6064820152608490fd5b6001600160a01b039091168152602081019190915260400190565b9081526001600160a01b03909116602082015260400190565b5f805160206132278339815191525c612d635760015f805160206132278339815191525d565b633ee5aeb560e01b5f5260045ffd5b6119af612da79392612d9960405194859263a9059cbb60e01b602085015260248401612d09565b03601f1981018452836129d5565b565b60643b15612e085760405163a3b1b31d60e01b815260208160048160645afa908115610e6a575f91612dd9575090565b90506020813d602011612e00575b81612df4602093836129d5565b810103126101db575190565b3d9150612de7565b4390565b5f54604051638da5cb5b60e01b815290602090829060049082906001600160a01b03165afa908115610e6a575f91612e42575090565b612a64915060203d6020116120a65761209881836129d5565b60018060a01b0316805f52600a60205260405f20600160ff198254161790555f805160206131478339815191526040805160018152336020820152a2565b60018060a01b0316805f52600260205260405f2060018060a01b0383165f5260205260405f205491821561300657815f5260056020528260405f205410612fb657612fb17f8d6aa7cd13e7031d191d6fa5505e7bca293b15b474585bd0748c94280a1dfb0c91835f52600860205260405f2060018060a01b0382165f5260205260405f20612f28868254612bac565b9055835f52600960205260405f20612f41868254612bac565b9055835f52600260205260405f2060018060a01b0382165f5260205260405f20612f6c868254612bf5565b9055835f52600560205260405f20612f85868254612bf5565b905560018060a01b031693600685855f8051602061312783398151915260405180611478338883612d24565b0390a3565b60405162461bcd60e51b815260206004820152603560248201525f805160206131a783398151915260448201527420656e6f75676820746f74616c2062616c616e636560581b6064820152608490fd5b60405162461bcd60e51b815260206004820152602f60248201525f805160206131a783398151915260448201526e20656e6f7567682062616c616e636560881b6064820152608490fd5b905f602091828151910182855af115610e6a575f513d61309f57506001600160a01b0381163b155b61307f5750565b635274afe760e01b5f9081526001600160a01b0391909116600452602490fd5b60011415613078565b906130cc57508051156130bd57805190602001fd5b63d6bda27560e01b5f5260045ffd5b815115806130fd575b6130dd575090565b639996b31560e01b5f9081526001600160a01b0391909116600452602490fd5b50803b156130d556fe42616c616e63654b65657065723a206d6f766542616c616e6365546f4465616c69bee883171cca38453cbb97adc848425ea48ea1b0fcc40c53abc32e3ef7b0e5ebbe21d9a1cf17261291d004eb85252315dcfcbeb7780eb74ea43763e23bed0342616c616e63654b65657065723a204f6e6c7920636f6f7264696e61746f722042616c616e63654b65657065723a207769746864726177526571756573743a2042616c616e63654b65657065723a205f73656e64546f4c696d626f3a206e6f7442616c616e63654b65657065723a20776974686472617742794465616c3a206e360894a13ba1a3210667c828492db98dca3e2076cc3735a920a3ca505d382bbc8a574e0ee9236bf8a1f1625cca6131131ef4fba2e05aaa184e939ba4da397c8a9b779b17422d0df92223018b32b4d1fa46e071723d6817e2486d003becc55f00f0c57e16840df040f15088dc2f81fe391c3923bec73e23a9662efc9c229c6a0042616c616e63654b65657065723a206d6f766542616c616e636546726f6d446542616c616e63654b65657065723a20766f646f70616457697468647261773a20a2646970667358221220482f846ec3fad9f5c4a2898fbab36a1e0fa7f42449b5dad695d9b24b18b1317b64736f6c634300081a0033","opcodes":"PUSH1 0xA0 DUP1 PUSH1 0x40 MSTORE CALLVALUE PUSH2 0xF2 JUMPI ADDRESS PUSH1 0x80 MSTORE PUSH1 0xFF NOT PUSH1 0xC SLOAD AND PUSH1 0xC SSTORE PUSH32 0xF0C57E16840DF040F15088DC2F81FE391C3923BEC73E23A9662EFC9C229C6A00 SLOAD PUSH1 0xFF DUP2 PUSH1 0x40 SHR AND PUSH2 0xE3 JUMPI PUSH1 0x2 PUSH1 0x1 PUSH1 0x40 SHL SUB NOT PUSH1 0x1 PUSH1 0x1 PUSH1 0x40 SHL SUB DUP3 AND ADD PUSH2 0x7D JUMPI JUMPDEST PUSH1 0x40 MLOAD PUSH2 0x32DC SWAP1 DUP2 PUSH2 0xF7 DUP3 CODECOPY PUSH1 0x80 MLOAD DUP2 DUP2 DUP2 PUSH2 0x16B4 ADD MSTORE PUSH2 0x1756 ADD MSTORE RETURN JUMPDEST PUSH1 0x1 PUSH1 0x1 PUSH1 0x40 SHL SUB NOT AND PUSH1 0x1 PUSH1 0x1 PUSH1 0x40 SHL SUB SWAP1 DUP2 OR PUSH32 0xF0C57E16840DF040F15088DC2F81FE391C3923BEC73E23A9662EFC9C229C6A00 SSTORE DUP2 MSTORE PUSH32 0xC7F505B2F371AE2175EE4913F4499E1F2633A7B5936321EED1CDAEB6115181D2 SWAP1 PUSH1 0x20 SWAP1 LOG1 PUSH0 DUP1 PUSH2 0x5E JUMP JUMPDEST PUSH4 0xF92EE8A9 PUSH1 0xE0 SHL PUSH0 MSTORE PUSH1 0x4 PUSH0 REVERT JUMPDEST PUSH0 DUP1 REVERT INVALID PUSH1 0x80 DUP1 PUSH1 0x40 MSTORE PUSH1 0x4 CALLDATASIZE LT ISZERO PUSH2 0x12 JUMPI PUSH0 DUP1 REVERT JUMPDEST PUSH0 CALLDATALOAD PUSH1 0xE0 SHR SWAP1 DUP2 PUSH4 0x1627F56 EQ PUSH2 0x2735 JUMPI POP DUP1 PUSH4 0x4930575 EQ PUSH2 0x2718 JUMPI DUP1 PUSH4 0xA009097 EQ PUSH2 0x26F0 JUMPI DUP1 PUSH4 0x116424CC EQ PUSH2 0x2335 JUMPI DUP1 PUSH4 0x1229ADD5 EQ PUSH2 0x22FD JUMPI DUP1 PUSH4 0x1E4343EC EQ PUSH2 0x22DB JUMPI DUP1 PUSH4 0x301AAAC9 EQ PUSH2 0x20AD JUMPI DUP1 PUSH4 0x31ACC942 EQ PUSH2 0x1D97 JUMPI DUP1 PUSH4 0x3ADCE715 EQ PUSH2 0x1D39 JUMPI DUP1 PUSH4 0x3BF9BB0B EQ PUSH2 0x1A73 JUMPI DUP1 PUSH4 0x3EB026AF EQ PUSH2 0x1918 JUMPI DUP1 PUSH4 0x4F1EF286 EQ PUSH2 0x1708 JUMPI DUP1 PUSH4 0x52D1902D EQ PUSH2 0x16A2 JUMPI DUP1 PUSH4 0x68ABB5E0 EQ PUSH2 0x166A JUMPI DUP1 PUSH4 0x788649EA EQ PUSH2 0x1602 JUMPI DUP1 PUSH4 0x7DF5070F EQ PUSH2 0x14EB JUMPI DUP1 PUSH4 0x7FAD6401 EQ PUSH2 0x1351 JUMPI DUP1 PUSH4 0x82AD6F35 EQ PUSH2 0x1180 JUMPI DUP1 PUSH4 0x88081FCB EQ PUSH2 0xF26 JUMPI DUP1 PUSH4 0x8EA98117 EQ PUSH2 0xEAD JUMPI DUP1 PUSH4 0x933A6D5E EQ PUSH2 0xE75 JUMPI DUP1 PUSH4 0x95E1B418 EQ PUSH2 0xBEE JUMPI DUP1 PUSH4 0x985A3E1A EQ PUSH2 0xA6C JUMPI DUP1 PUSH4 0x9CF8FC36 EQ PUSH2 0xA11 JUMPI DUP1 PUSH4 0xAD3CB1CC EQ PUSH2 0x9C6 JUMPI DUP1 PUSH4 0xAE77DC10 EQ PUSH2 0x976 JUMPI DUP1 PUSH4 0xC08EA6E6 EQ PUSH2 0x91C JUMPI DUP1 PUSH4 0xC44EAD3C EQ PUSH2 0x8E4 JUMPI DUP1 PUSH4 0xC4D66DE8 EQ PUSH2 0x77B JUMPI DUP1 PUSH4 0xD0516650 EQ PUSH2 0x73E JUMPI DUP1 PUSH4 0xD4F4BA48 EQ PUSH2 0x6D1 JUMPI DUP1 PUSH4 0xDB2AA127 EQ PUSH2 0x5AD JUMPI DUP1 PUSH4 0xDE700DA6 EQ PUSH2 0x55D JUMPI DUP1 PUSH4 0xEC178C13 EQ PUSH2 0x51E JUMPI DUP1 PUSH4 0xEDB45529 EQ PUSH2 0x23E JUMPI DUP1 PUSH4 0xF0B7DB4E EQ PUSH2 0x217 JUMPI DUP1 PUSH4 0xF26C159F EQ PUSH2 0x1DF JUMPI PUSH4 0xFAC4BF22 EQ PUSH2 0x1BE JUMPI PUSH0 DUP1 REVERT JUMPDEST CALLVALUE PUSH2 0x1DB JUMPI PUSH0 CALLDATASIZE PUSH1 0x3 NOT ADD SLT PUSH2 0x1DB JUMPI PUSH1 0x20 PUSH1 0x40 MLOAD PUSH3 0x93A80 DUP2 MSTORE RETURN JUMPDEST PUSH0 DUP1 REVERT JUMPDEST CALLVALUE PUSH2 0x1DB JUMPI PUSH1 0x20 CALLDATASIZE PUSH1 0x3 NOT ADD SLT PUSH2 0x1DB JUMPI PUSH2 0x215 PUSH2 0x1FB PUSH2 0x292F JUMP JUMPDEST PUSH2 0x210 PUSH1 0x1 DUP1 PUSH1 0xA0 SHL SUB PUSH1 0x1 SLOAD AND CALLER EQ PUSH2 0x2C21 JUMP JUMPDEST PUSH2 0x2E5B JUMP JUMPDEST STOP JUMPDEST CALLVALUE PUSH2 0x1DB JUMPI PUSH0 CALLDATASIZE PUSH1 0x3 NOT ADD SLT PUSH2 0x1DB JUMPI PUSH0 SLOAD PUSH1 0x40 MLOAD PUSH1 0x1 PUSH1 0x1 PUSH1 0xA0 SHL SUB SWAP1 SWAP2 AND DUP2 MSTORE PUSH1 0x20 SWAP1 RETURN JUMPDEST CALLVALUE PUSH2 0x1DB JUMPI PUSH1 0x20 CALLDATASIZE PUSH1 0x3 NOT ADD SLT PUSH2 0x1DB JUMPI PUSH2 0x257 PUSH2 0x292F JUMP JUMPDEST CALLER PUSH0 MSTORE PUSH1 0xA PUSH1 0x20 MSTORE PUSH2 0x270 PUSH1 0xFF PUSH1 0x40 PUSH0 KECCAK256 SLOAD AND ISZERO PUSH2 0x2B4E JUMP JUMPDEST PUSH2 0x278 PUSH2 0x2D3D JUMP JUMPDEST PUSH1 0xFF PUSH1 0xC SLOAD AND ISZERO PUSH2 0x4BF JUMPI PUSH1 0x1 PUSH1 0x1 PUSH1 0xA0 SHL SUB DUP2 AND PUSH0 DUP2 DUP2 MSTORE PUSH1 0x4 PUSH1 0x20 SWAP1 DUP2 MSTORE PUSH1 0x40 DUP1 DUP4 KECCAK256 CALLER DUP5 MSTORE SWAP1 SWAP2 MSTORE SWAP1 KECCAK256 SLOAD SWAP1 SWAP2 SWAP1 ISZERO PUSH2 0x46E JUMPI DUP2 PUSH0 MSTORE PUSH1 0x4 PUSH1 0x20 MSTORE PUSH1 0x40 PUSH0 KECCAK256 PUSH1 0x1 DUP1 PUSH1 0xA0 SHL SUB CALLER AND PUSH0 MSTORE PUSH1 0x20 MSTORE PUSH3 0x93A80 PUSH2 0x2DA PUSH1 0x40 PUSH0 KECCAK256 SLOAD TIMESTAMP PUSH2 0x2BF5 JUMP JUMPDEST LT PUSH2 0x41E JUMPI PUSH0 DUP3 DUP2 MSTORE PUSH1 0x2 PUSH1 0x20 SWAP1 DUP2 MSTORE PUSH1 0x40 DUP1 DUP4 KECCAK256 CALLER DUP5 MSTORE SWAP1 SWAP2 MSTORE SWAP1 KECCAK256 SLOAD ISZERO PUSH2 0x3C5 JUMPI PUSH0 DUP3 DUP2 MSTORE PUSH1 0x2 PUSH1 0x20 SWAP1 DUP2 MSTORE PUSH1 0x40 DUP1 DUP4 KECCAK256 CALLER DUP5 MSTORE SWAP1 SWAP2 MSTORE SWAP1 KECCAK256 DUP1 SLOAD PUSH2 0x386 SWAP3 SWAP1 SWAP2 PUSH2 0x327 DUP4 DUP1 PUSH2 0x2BF5 JUMP JUMPDEST SWAP1 SSTORE DUP4 PUSH0 MSTORE PUSH1 0x5 PUSH1 0x20 MSTORE PUSH1 0x40 PUSH0 KECCAK256 PUSH2 0x340 DUP4 DUP3 SLOAD PUSH2 0x2BF5 JUMP JUMPDEST SWAP1 SSTORE PUSH1 0x5 PUSH1 0x40 MLOAD DUP4 DUP2 MSTORE PUSH0 PUSH1 0x20 DUP3 ADD MSTORE DUP6 PUSH0 DUP1 MLOAD PUSH1 0x20 PUSH2 0x3127 DUP4 CODECOPY DUP2 MLOAD SWAP2 MSTORE PUSH1 0x40 CALLER SWAP4 LOG4 PUSH0 DUP5 DUP2 MSTORE PUSH1 0x4 PUSH1 0x20 SWAP1 DUP2 MSTORE PUSH1 0x40 DUP1 DUP4 KECCAK256 CALLER DUP1 DUP6 MSTORE SWAP3 MSTORE DUP3 KECCAK256 SWAP2 SWAP1 SWAP2 SSTORE SWAP1 PUSH2 0x2D72 JUMP JUMPDEST PUSH1 0x40 MLOAD SWAP1 CALLER DUP3 MSTORE PUSH32 0x58C9B83F9C19BF10C1EABD844BD0371158317B08615FF5E11C9BA5761BCA6BA8 PUSH1 0x20 CALLER SWAP4 LOG3 PUSH0 PUSH0 DUP1 MLOAD PUSH1 0x20 PUSH2 0x3227 DUP4 CODECOPY DUP2 MLOAD SWAP2 MSTORE TSTORE STOP JUMPDEST PUSH1 0x40 MLOAD PUSH3 0x461BCD PUSH1 0xE5 SHL DUP2 MSTORE PUSH1 0x20 PUSH1 0x4 DUP3 ADD MSTORE PUSH1 0x2B PUSH1 0x24 DUP3 ADD MSTORE PUSH32 0x42616C616E63654B65657065723A2077697468647261773A206E6F7420656E6F PUSH1 0x44 DUP3 ADD MSTORE PUSH11 0x7567682062616C616E6365 PUSH1 0xA8 SHL PUSH1 0x64 DUP3 ADD MSTORE PUSH1 0x84 SWAP1 REVERT JUMPDEST PUSH1 0x40 MLOAD PUSH3 0x461BCD PUSH1 0xE5 SHL DUP2 MSTORE PUSH1 0x20 PUSH1 0x4 DUP3 ADD MSTORE PUSH1 0x22 PUSH1 0x24 DUP3 ADD MSTORE PUSH32 0x42616C616E63654B65657065723A2077697468647261773A20746F6F20656172 PUSH1 0x44 DUP3 ADD MSTORE PUSH2 0x6C79 PUSH1 0xF0 SHL PUSH1 0x64 DUP3 ADD MSTORE PUSH1 0x84 SWAP1 REVERT JUMPDEST PUSH1 0x40 MLOAD PUSH3 0x461BCD PUSH1 0xE5 SHL DUP2 MSTORE PUSH1 0x20 PUSH1 0x4 DUP3 ADD MSTORE PUSH1 0x23 PUSH1 0x24 DUP3 ADD MSTORE PUSH32 0x42616C616E63654B65657065723A2077697468647261773A206E6F2072657175 PUSH1 0x44 DUP3 ADD MSTORE PUSH3 0x195CDD PUSH1 0xEA SHL PUSH1 0x64 DUP3 ADD MSTORE PUSH1 0x84 SWAP1 REVERT JUMPDEST PUSH1 0x40 MLOAD PUSH3 0x461BCD PUSH1 0xE5 SHL DUP2 MSTORE PUSH1 0x20 PUSH1 0x4 DUP3 ADD MSTORE PUSH1 0x31 PUSH1 0x24 DUP3 ADD MSTORE PUSH32 0x42616C616E63654B65657065723A2077697468647261773A206D616E75616C20 PUSH1 0x44 DUP3 ADD MSTORE PUSH17 0x1DDA5D1A191C985DC8191A5CD8589B1959 PUSH1 0x7A SHL PUSH1 0x64 DUP3 ADD MSTORE PUSH1 0x84 SWAP1 REVERT JUMPDEST CALLVALUE PUSH2 0x1DB JUMPI PUSH1 0x40 CALLDATASIZE PUSH1 0x3 NOT ADD SLT PUSH2 0x1DB JUMPI PUSH2 0x215 PUSH2 0x53A PUSH2 0x292F JUMP JUMPDEST PUSH2 0x542 PUSH2 0x2945 JUMP JUMPDEST SWAP1 PUSH2 0x558 PUSH1 0x1 DUP1 PUSH1 0xA0 SHL SUB PUSH1 0x1 SLOAD AND CALLER EQ PUSH2 0x2C21 JUMP JUMPDEST PUSH2 0x2E99 JUMP JUMPDEST CALLVALUE PUSH2 0x1DB JUMPI PUSH1 0x40 CALLDATASIZE PUSH1 0x3 NOT ADD SLT PUSH2 0x1DB JUMPI PUSH2 0x576 PUSH2 0x292F JUMP JUMPDEST PUSH2 0x57E PUSH2 0x2945 JUMP JUMPDEST PUSH1 0x1 PUSH1 0x1 PUSH1 0xA0 SHL SUB SWAP2 DUP3 AND PUSH0 SWAP1 DUP2 MSTORE PUSH1 0x2 PUSH1 0x20 SWAP1 DUP2 MSTORE PUSH1 0x40 DUP1 DUP4 KECCAK256 SWAP5 SWAP1 SWAP4 AND DUP3 MSTORE SWAP3 DUP4 MSTORE DUP2 SWAP1 KECCAK256 SLOAD SWAP1 MLOAD SWAP1 DUP2 MSTORE RETURN JUMPDEST CALLVALUE PUSH2 0x1DB JUMPI PUSH1 0x40 CALLDATASIZE PUSH1 0x3 NOT ADD SLT PUSH2 0x1DB JUMPI PUSH2 0x5C6 PUSH2 0x292F JUMP JUMPDEST PUSH1 0x24 CALLDATALOAD SWAP1 PUSH2 0x5D2 PUSH2 0x2D3D JUMP JUMPDEST PUSH2 0x5ED PUSH1 0x1 PUSH1 0x1 PUSH1 0xA0 SHL SUB PUSH2 0x5E5 PUSH2 0x2E0C JUMP JUMPDEST AND CALLER EQ PUSH2 0x2CA4 JUMP JUMPDEST PUSH1 0x1 DUP1 PUSH1 0xA0 SHL SUB DUP2 AND SWAP1 DUP2 PUSH0 MSTORE PUSH1 0x7 PUSH1 0x20 MSTORE DUP3 PUSH1 0x40 PUSH0 KECCAK256 SLOAD LT PUSH2 0x66D JUMPI DUP3 PUSH2 0x62F SWAP2 DUP4 PUSH0 MSTORE PUSH1 0x7 PUSH1 0x20 MSTORE PUSH1 0x40 PUSH0 KECCAK256 PUSH2 0x626 DUP4 DUP3 SLOAD PUSH2 0x2BF5 JUMP JUMPDEST SWAP1 SSTORE CALLER SWAP1 PUSH2 0x2D72 JUMP JUMPDEST PUSH1 0x40 MLOAD SWAP2 DUP3 MSTORE PUSH32 0xAB8EE1A4A7DE523166C3532BE846A4090F08CCE2DCAD80E897E9DF474FC6A85A PUSH1 0x20 CALLER SWAP4 LOG3 PUSH0 PUSH0 DUP1 MLOAD PUSH1 0x20 PUSH2 0x3227 DUP4 CODECOPY DUP2 MLOAD SWAP2 MSTORE TSTORE STOP JUMPDEST PUSH1 0x40 MLOAD PUSH3 0x461BCD PUSH1 0xE5 SHL DUP2 MSTORE PUSH1 0x20 PUSH1 0x4 DUP3 ADD MSTORE PUSH1 0x36 PUSH1 0x24 DUP3 ADD MSTORE PUSH32 0x42616C616E63654B65657065723A206E6F7420656E6F75676820616D6F756E74 PUSH1 0x44 DUP3 ADD MSTORE PUSH22 0x81D1BC81DDA5D1A191C985DC8199C9BDB481C1BDBDB PUSH1 0x52 SHL PUSH1 0x64 DUP3 ADD MSTORE PUSH1 0x84 SWAP1 REVERT JUMPDEST CALLVALUE PUSH2 0x1DB JUMPI PUSH1 0x40 CALLDATASIZE PUSH1 0x3 NOT ADD SLT PUSH2 0x1DB JUMPI PUSH1 0x20 PUSH2 0x736 PUSH2 0x6EF PUSH2 0x292F JUMP JUMPDEST PUSH2 0x6F7 PUSH2 0x2945 JUMP JUMPDEST PUSH1 0x1 PUSH1 0x1 PUSH1 0xA0 SHL SUB SWAP2 DUP3 AND PUSH0 DUP2 DUP2 MSTORE PUSH1 0x2 DUP7 MSTORE PUSH1 0x40 DUP1 DUP3 KECCAK256 SWAP5 SWAP1 SWAP4 AND DUP1 DUP3 MSTORE SWAP4 DUP7 MSTORE DUP3 DUP2 KECCAK256 SLOAD SWAP2 DUP2 MSTORE PUSH1 0x3 DUP7 MSTORE DUP3 DUP2 KECCAK256 SWAP4 DUP2 MSTORE SWAP3 DUP6 MSTORE SWAP2 KECCAK256 SLOAD SWAP1 PUSH2 0x2BAC JUMP JUMPDEST PUSH1 0x40 MLOAD SWAP1 DUP2 MSTORE RETURN JUMPDEST CALLVALUE PUSH2 0x1DB JUMPI PUSH1 0x20 CALLDATASIZE PUSH1 0x3 NOT ADD SLT PUSH2 0x1DB JUMPI PUSH1 0x1 PUSH1 0x1 PUSH1 0xA0 SHL SUB PUSH2 0x75F PUSH2 0x292F JUMP JUMPDEST AND PUSH0 MSTORE PUSH1 0xA PUSH1 0x20 MSTORE PUSH1 0x20 PUSH1 0xFF PUSH1 0x40 PUSH0 KECCAK256 SLOAD AND PUSH1 0x40 MLOAD SWAP1 ISZERO ISZERO DUP2 MSTORE RETURN JUMPDEST CALLVALUE PUSH2 0x1DB JUMPI PUSH1 0x20 CALLDATASIZE PUSH1 0x3 NOT ADD SLT PUSH2 0x1DB JUMPI PUSH2 0x794 PUSH2 0x292F JUMP JUMPDEST PUSH0 DUP1 MLOAD PUSH1 0x20 PUSH2 0x3247 DUP4 CODECOPY DUP2 MLOAD SWAP2 MSTORE SLOAD PUSH1 0x40 DUP2 SWAP1 SHR PUSH1 0xFF AND ISZERO SWAP2 SWAP1 PUSH1 0x1 PUSH1 0x1 PUSH1 0x40 SHL SUB DUP2 AND DUP1 ISZERO SWAP1 DUP2 PUSH2 0x8DC JUMPI JUMPDEST PUSH1 0x1 EQ SWAP1 DUP2 PUSH2 0x8D2 JUMPI JUMPDEST ISZERO SWAP1 DUP2 PUSH2 0x8C9 JUMPI JUMPDEST POP PUSH2 0x8BA JUMPI PUSH1 0x1 PUSH1 0x1 PUSH1 0x40 SHL SUB NOT DUP2 AND PUSH1 0x1 OR PUSH0 DUP1 MLOAD PUSH1 0x20 PUSH2 0x3247 DUP4 CODECOPY DUP2 MLOAD SWAP2 MSTORE SSTORE DUP3 PUSH2 0x892 JUMPI JUMPDEST POP PUSH0 DUP1 SLOAD PUSH1 0x1 PUSH1 0x1 PUSH1 0xA0 SHL SUB NOT AND PUSH1 0x1 PUSH1 0x1 PUSH1 0xA0 SHL SUB SWAP3 SWAP1 SWAP3 AND SWAP2 SWAP1 SWAP2 OR SWAP1 SSTORE PUSH0 DUP1 MLOAD PUSH1 0x20 PUSH2 0x3247 DUP4 CODECOPY DUP2 MLOAD SWAP2 MSTORE SLOAD SWAP1 PUSH1 0x40 DUP3 SWAP1 SHR PUSH1 0xFF AND ISZERO PUSH2 0x883 JUMPI PUSH2 0x83E JUMPI STOP JUMPDEST PUSH1 0xFF PUSH1 0x40 SHL NOT AND PUSH0 DUP1 MLOAD PUSH1 0x20 PUSH2 0x3247 DUP4 CODECOPY DUP2 MLOAD SWAP2 MSTORE SSTORE PUSH1 0x40 MLOAD PUSH1 0x1 DUP2 MSTORE PUSH32 0xC7F505B2F371AE2175EE4913F4499E1F2633A7B5936321EED1CDAEB6115181D2 SWAP1 PUSH1 0x20 SWAP1 LOG1 STOP JUMPDEST PUSH4 0x1AFCD79F PUSH1 0xE3 SHL PUSH0 MSTORE PUSH1 0x4 PUSH0 REVERT JUMPDEST PUSH1 0x1 PUSH1 0x1 PUSH1 0x48 SHL SUB NOT AND PUSH1 0x1 PUSH1 0x1 PUSH1 0x40 SHL ADD OR PUSH0 DUP1 MLOAD PUSH1 0x20 PUSH2 0x3247 DUP4 CODECOPY DUP2 MLOAD SWAP2 MSTORE SSTORE DUP3 PUSH2 0x7FB JUMP JUMPDEST PUSH4 0xF92EE8A9 PUSH1 0xE0 SHL PUSH0 MSTORE PUSH1 0x4 PUSH0 REVERT JUMPDEST SWAP1 POP ISZERO DUP5 PUSH2 0x7D3 JUMP JUMPDEST ADDRESS EXTCODESIZE ISZERO SWAP2 POP PUSH2 0x7CB JUMP JUMPDEST DUP5 SWAP2 POP PUSH2 0x7C1 JUMP JUMPDEST CALLVALUE PUSH2 0x1DB JUMPI PUSH1 0x20 CALLDATASIZE PUSH1 0x3 NOT ADD SLT PUSH2 0x1DB JUMPI PUSH1 0x1 PUSH1 0x1 PUSH1 0xA0 SHL SUB PUSH2 0x905 PUSH2 0x292F JUMP JUMPDEST AND PUSH0 MSTORE PUSH1 0x9 PUSH1 0x20 MSTORE PUSH1 0x20 PUSH1 0x40 PUSH0 KECCAK256 SLOAD PUSH1 0x40 MLOAD SWAP1 DUP2 MSTORE RETURN JUMPDEST CALLVALUE PUSH2 0x1DB JUMPI PUSH1 0x20 CALLDATASIZE PUSH1 0x3 NOT ADD SLT PUSH2 0x1DB JUMPI PUSH1 0x4 CALLDATALOAD PUSH1 0x1 PUSH1 0x1 PUSH1 0x40 SHL SUB DUP2 GT PUSH2 0x1DB JUMPI PUSH1 0xFF PUSH1 0x20 DUP1 PUSH2 0x952 DUP2 SWAP5 CALLDATASIZE SWAP1 PUSH1 0x4 ADD PUSH2 0x2A49 JUMP JUMPDEST PUSH1 0x40 MLOAD SWAP3 DUP2 DUP5 SWAP3 MLOAD SWAP2 DUP3 SWAP2 ADD DUP4 MCOPY DUP2 ADD PUSH1 0xB DUP2 MSTORE SUB ADD SWAP1 KECCAK256 SLOAD AND PUSH1 0x40 MLOAD SWAP1 ISZERO ISZERO DUP2 MSTORE RETURN JUMPDEST CALLVALUE PUSH2 0x1DB JUMPI PUSH1 0x40 CALLDATASIZE PUSH1 0x3 NOT ADD SLT PUSH2 0x1DB JUMPI PUSH2 0x98F PUSH2 0x292F JUMP JUMPDEST PUSH2 0x997 PUSH2 0x2945 JUMP JUMPDEST PUSH1 0x1 PUSH1 0x1 PUSH1 0xA0 SHL SUB SWAP2 DUP3 AND PUSH0 SWAP1 DUP2 MSTORE PUSH1 0x8 PUSH1 0x20 SWAP1 DUP2 MSTORE PUSH1 0x40 DUP1 DUP4 KECCAK256 SWAP5 SWAP1 SWAP4 AND DUP3 MSTORE SWAP3 DUP4 MSTORE DUP2 SWAP1 KECCAK256 SLOAD SWAP1 MLOAD SWAP1 DUP2 MSTORE RETURN JUMPDEST CALLVALUE PUSH2 0x1DB JUMPI PUSH0 CALLDATASIZE PUSH1 0x3 NOT ADD SLT PUSH2 0x1DB JUMPI PUSH2 0xA0D PUSH1 0x40 MLOAD PUSH2 0x9E7 PUSH1 0x40 DUP3 PUSH2 0x29D5 JUMP JUMPDEST PUSH1 0x5 DUP2 MSTORE PUSH5 0x352E302E3 PUSH1 0xDC SHL PUSH1 0x20 DUP3 ADD MSTORE PUSH1 0x40 MLOAD SWAP2 DUP3 SWAP2 PUSH1 0x20 DUP4 MSTORE PUSH1 0x20 DUP4 ADD SWAP1 PUSH2 0x2AAE JUMP JUMPDEST SUB SWAP1 RETURN JUMPDEST CALLVALUE PUSH2 0x1DB JUMPI PUSH0 CALLDATASIZE PUSH1 0x3 NOT ADD SLT PUSH2 0x1DB JUMPI PUSH2 0xA36 PUSH1 0x1 DUP1 PUSH1 0xA0 SHL SUB PUSH1 0x1 SLOAD AND CALLER EQ PUSH2 0x2C21 JUMP JUMPDEST PUSH1 0xFF NOT PUSH1 0xC SLOAD AND PUSH1 0xC SSTORE PUSH32 0xC090BA447C2876286710FA3F84277E63B8C4B98A2691AFCA3435F79060A716CB PUSH1 0x20 PUSH1 0x40 MLOAD CALLER DUP2 MSTORE LOG1 STOP JUMPDEST CALLVALUE PUSH2 0x1DB JUMPI PUSH1 0x80 CALLDATASIZE PUSH1 0x3 NOT ADD SLT PUSH2 0x1DB JUMPI PUSH2 0xA85 PUSH2 0x292F JUMP JUMPDEST PUSH2 0xA8D PUSH2 0x2945 JUMP JUMPDEST SWAP1 PUSH2 0xA96 PUSH2 0x295B JUMP JUMPDEST SWAP1 PUSH1 0x64 CALLDATALOAD SWAP2 PUSH2 0xAA3 PUSH2 0x2D3D JUMP JUMPDEST PUSH2 0xAB6 PUSH1 0x1 PUSH1 0x1 PUSH1 0xA0 SHL SUB PUSH2 0x5E5 PUSH2 0x2E0C JUMP JUMPDEST PUSH1 0x1 DUP1 PUSH1 0xA0 SHL SUB DUP3 AND SWAP2 DUP3 PUSH0 MSTORE PUSH1 0x8 PUSH1 0x20 MSTORE PUSH1 0x40 PUSH0 KECCAK256 PUSH1 0x1 DUP1 PUSH1 0xA0 SHL SUB DUP7 AND PUSH0 MSTORE PUSH1 0x20 MSTORE DUP4 PUSH1 0x40 PUSH0 KECCAK256 SLOAD LT PUSH2 0xB8C JUMPI DUP2 PUSH2 0xB59 DUP6 PUSH32 0x5D16C4A1E4B62879FBF1BDA626A5A21DADED2FC836B50947712C5D595F947FBD SWAP5 PUSH2 0xB77 SWAP5 DUP8 PUSH0 MSTORE PUSH1 0x8 PUSH1 0x20 MSTORE PUSH1 0x40 PUSH0 KECCAK256 PUSH1 0x1 DUP1 PUSH1 0xA0 SHL SUB DUP12 AND PUSH0 MSTORE PUSH1 0x20 MSTORE PUSH1 0x40 PUSH0 KECCAK256 PUSH2 0xB39 DUP5 DUP3 SLOAD PUSH2 0x2BF5 JUMP JUMPDEST SWAP1 SSTORE DUP8 PUSH0 MSTORE PUSH1 0x9 PUSH1 0x20 MSTORE PUSH1 0x40 PUSH0 KECCAK256 PUSH2 0xB52 DUP5 DUP3 SLOAD PUSH2 0x2BF5 JUMP JUMPDEST SWAP1 SSTORE PUSH2 0x2D72 JUMP JUMPDEST PUSH1 0x40 MLOAD PUSH1 0x1 PUSH1 0x1 PUSH1 0xA0 SHL SUB SWAP2 DUP3 AND SWAP7 SWAP1 SWAP2 AND SWAP5 SWAP1 SWAP2 DUP3 SWAP2 CALLER DUP4 PUSH2 0x2D09 JUMP JUMPDEST SUB SWAP1 LOG4 PUSH0 PUSH0 DUP1 MLOAD PUSH1 0x20 PUSH2 0x3227 DUP4 CODECOPY DUP2 MLOAD SWAP2 MSTORE TSTORE STOP JUMPDEST PUSH1 0x40 MLOAD PUSH3 0x461BCD PUSH1 0xE5 SHL DUP2 MSTORE PUSH1 0x20 PUSH1 0x4 DUP3 ADD MSTORE PUSH1 0x34 PUSH1 0x24 DUP3 ADD MSTORE PUSH32 0x42616C616E63654B65657065723A20776974686472617746726F6D4C696D626F PUSH1 0x44 DUP3 ADD MSTORE PUSH20 0x3A206E6F7420656E6F7567682062616C616E6365 PUSH1 0x60 SHL PUSH1 0x64 DUP3 ADD MSTORE PUSH1 0x84 SWAP1 REVERT JUMPDEST CALLVALUE PUSH2 0x1DB JUMPI PUSH1 0xA0 CALLDATASIZE PUSH1 0x3 NOT ADD SLT PUSH2 0x1DB JUMPI PUSH2 0xC07 PUSH2 0x292F JUMP JUMPDEST PUSH2 0xC0F PUSH2 0x2945 JUMP JUMPDEST PUSH2 0xC17 PUSH2 0x295B JUMP JUMPDEST PUSH1 0x64 CALLDATALOAD SWAP2 PUSH1 0x84 CALLDATALOAD PUSH1 0xFF DUP2 AND DUP2 SUB PUSH2 0x1DB JUMPI PUSH0 SLOAD PUSH1 0x40 MLOAD PUSH4 0x21053053 PUSH1 0xE0 SHL DUP2 MSTORE CALLER PUSH1 0x4 DUP3 ADD MSTORE SWAP1 PUSH1 0x20 SWAP1 DUP3 SWAP1 PUSH1 0x24 SWAP1 DUP3 SWAP1 PUSH1 0x1 PUSH1 0x1 PUSH1 0xA0 SHL SUB AND GAS STATICCALL DUP1 ISZERO PUSH2 0xE6A JUMPI PUSH2 0xC6A SWAP2 PUSH0 SWAP2 PUSH2 0xE3B JUMPI JUMPDEST POP PUSH2 0x2AEA JUMP JUMPDEST PUSH1 0x1 DUP1 PUSH1 0xA0 SHL SUB DUP3 AND SWAP4 DUP5 PUSH0 MSTORE PUSH1 0xA PUSH1 0x20 MSTORE PUSH2 0xC8D PUSH1 0xFF PUSH1 0x40 PUSH0 KECCAK256 SLOAD AND ISZERO PUSH2 0x2B4E JUMP JUMPDEST PUSH1 0x1 DUP1 PUSH1 0xA0 SHL SUB DUP5 AND SWAP6 DUP7 PUSH0 MSTORE PUSH1 0xA PUSH1 0x20 MSTORE PUSH2 0xCB0 PUSH1 0xFF PUSH1 0x40 PUSH0 KECCAK256 SLOAD AND ISZERO PUSH2 0x2B4E JUMP JUMPDEST PUSH2 0xCB8 PUSH2 0x2D3D JUMP JUMPDEST PUSH1 0x1 DUP1 PUSH1 0xA0 SHL SUB AND SWAP4 DUP5 PUSH0 MSTORE PUSH1 0x2 PUSH1 0x20 MSTORE PUSH1 0x40 PUSH0 KECCAK256 DUP7 PUSH0 MSTORE PUSH1 0x20 MSTORE DUP2 PUSH1 0x40 PUSH0 KECCAK256 SLOAD LT PUSH2 0xDDB JUMPI DUP7 DUP6 PUSH0 DUP1 MLOAD PUSH1 0x20 PUSH2 0x3207 DUP4 CODECOPY DUP2 MLOAD SWAP2 MSTORE PUSH2 0xDBD PUSH32 0xEC02109B69235DC964DC3600685D13D211D8F05B663FAC885F581F60DA3FC2CA SWAP8 PUSH1 0x2 DUP12 DUP6 PUSH0 DUP1 MLOAD PUSH1 0x20 PUSH2 0x3127 DUP4 CODECOPY DUP2 MLOAD SWAP2 MSTORE DUP4 SWAP10 DUP3 PUSH0 MSTORE DUP5 PUSH1 0x20 MSTORE PUSH1 0x40 PUSH0 KECCAK256 DUP5 PUSH0 MSTORE PUSH1 0x20 MSTORE PUSH1 0x40 PUSH0 KECCAK256 PUSH2 0xD47 DUP14 DUP3 SLOAD PUSH2 0x2BF5 JUMP JUMPDEST SWAP1 SSTORE DUP3 PUSH0 MSTORE PUSH1 0x5 PUSH1 0x20 MSTORE PUSH1 0x40 PUSH0 KECCAK256 PUSH2 0xD60 DUP14 DUP3 SLOAD PUSH2 0x2BF5 JUMP JUMPDEST SWAP1 SSTORE DUP12 PUSH2 0xD72 PUSH1 0x40 MLOAD SWAP3 DUP4 SWAP3 DUP4 PUSH2 0x2D24 JUMP JUMPDEST SUB SWAP1 LOG4 DUP4 PUSH0 MSTORE DUP6 PUSH1 0x20 MSTORE PUSH1 0x40 PUSH0 KECCAK256 DUP6 PUSH0 MSTORE PUSH1 0x20 MSTORE PUSH1 0x40 PUSH0 KECCAK256 PUSH2 0xD95 DUP9 DUP3 SLOAD PUSH2 0x2BAC JUMP JUMPDEST SWAP1 SSTORE DUP4 PUSH0 MSTORE PUSH1 0x5 PUSH1 0x20 MSTORE PUSH1 0x40 PUSH0 KECCAK256 PUSH2 0xDAE DUP9 DUP3 SLOAD PUSH2 0x2BAC JUMP JUMPDEST SWAP1 SSTORE PUSH1 0x40 MLOAD SWAP2 DUP3 SWAP2 DUP9 DUP4 PUSH2 0x2D24 JUMP JUMPDEST SUB SWAP1 LOG4 PUSH1 0x40 DUP1 MLOAD SWAP2 DUP3 MSTORE PUSH1 0xFF SWAP1 SWAP3 AND PUSH1 0x20 DUP3 ADD MSTORE SWAP1 DUP2 SWAP1 DUP2 ADD PUSH2 0xB77 JUMP JUMPDEST PUSH1 0x40 MLOAD PUSH3 0x461BCD PUSH1 0xE5 SHL DUP2 MSTORE PUSH1 0x20 PUSH1 0x4 DUP3 ADD MSTORE PUSH1 0x32 PUSH1 0x24 DUP3 ADD MSTORE PUSH32 0x42616C616E63654B65657065723A206D6F76654672656542616C616E63653A20 PUSH1 0x44 DUP3 ADD MSTORE PUSH18 0x6E6F7420656E6F7567682062616C616E6365 PUSH1 0x70 SHL PUSH1 0x64 DUP3 ADD MSTORE PUSH1 0x84 SWAP1 REVERT JUMPDEST PUSH2 0xE5D SWAP2 POP PUSH1 0x20 RETURNDATASIZE PUSH1 0x20 GT PUSH2 0xE63 JUMPI JUMPDEST PUSH2 0xE55 DUP2 DUP4 PUSH2 0x29D5 JUMP JUMPDEST DUP2 ADD SWAP1 PUSH2 0x2AD2 JUMP JUMPDEST DUP8 PUSH2 0xC64 JUMP JUMPDEST POP RETURNDATASIZE PUSH2 0xE4B JUMP JUMPDEST PUSH1 0x40 MLOAD RETURNDATASIZE PUSH0 DUP3 RETURNDATACOPY RETURNDATASIZE SWAP1 REVERT JUMPDEST CALLVALUE PUSH2 0x1DB JUMPI PUSH1 0x20 CALLDATASIZE PUSH1 0x3 NOT ADD SLT PUSH2 0x1DB JUMPI PUSH1 0x1 PUSH1 0x1 PUSH1 0xA0 SHL SUB PUSH2 0xE96 PUSH2 0x292F JUMP JUMPDEST AND PUSH0 MSTORE PUSH1 0x5 PUSH1 0x20 MSTORE PUSH1 0x20 PUSH1 0x40 PUSH0 KECCAK256 SLOAD PUSH1 0x40 MLOAD SWAP1 DUP2 MSTORE RETURN JUMPDEST CALLVALUE PUSH2 0x1DB JUMPI PUSH1 0x20 CALLDATASIZE PUSH1 0x3 NOT ADD SLT PUSH2 0x1DB JUMPI PUSH2 0xEC6 PUSH2 0x292F JUMP JUMPDEST PUSH2 0xED9 PUSH1 0x1 PUSH1 0x1 PUSH1 0xA0 SHL SUB PUSH2 0x5E5 PUSH2 0x2E0C JUMP JUMPDEST PUSH1 0x1 DUP1 SLOAD PUSH1 0x1 PUSH1 0x1 PUSH1 0xA0 SHL SUB NOT AND PUSH1 0x1 PUSH1 0x1 PUSH1 0xA0 SHL SUB SWAP3 SWAP1 SWAP3 AND SWAP2 DUP3 OR SWAP1 SSTORE PUSH1 0x40 MLOAD CALLER DUP2 MSTORE PUSH32 0x770B8C4E13577F5EF5749F2E790FDB6A3F401E49BB3EDED50A027C81F72C6A7C SWAP1 PUSH1 0x20 SWAP1 LOG2 STOP JUMPDEST CALLVALUE PUSH2 0x1DB JUMPI PUSH2 0xF34 CALLDATASIZE PUSH2 0x2971 JUMP JUMPDEST PUSH0 SLOAD PUSH1 0x40 MLOAD PUSH4 0x21053053 PUSH1 0xE0 SHL DUP2 MSTORE CALLER PUSH1 0x4 DUP3 ADD MSTORE SWAP3 SWAP4 SWAP2 SWAP3 SWAP1 PUSH1 0x20 SWAP1 DUP3 SWAP1 PUSH1 0x24 SWAP1 DUP3 SWAP1 PUSH1 0x1 PUSH1 0x1 PUSH1 0xA0 SHL SUB AND GAS STATICCALL DUP1 ISZERO PUSH2 0xE6A JUMPI PUSH2 0xF79 SWAP2 PUSH0 SWAP2 PUSH2 0x1161 JUMPI POP PUSH2 0x2AEA JUMP JUMPDEST PUSH1 0x1 DUP1 PUSH1 0xA0 SHL SUB AND SWAP3 DUP4 PUSH0 MSTORE PUSH1 0xA PUSH1 0x20 MSTORE PUSH2 0xF9B PUSH1 0xFF PUSH1 0x40 PUSH0 KECCAK256 SLOAD AND ISZERO PUSH2 0x2B4E JUMP JUMPDEST PUSH2 0xFA3 PUSH2 0x2D3D JUMP JUMPDEST PUSH1 0x1 DUP1 PUSH1 0xA0 SHL SUB AND SWAP1 DUP2 PUSH0 MSTORE PUSH1 0x3 PUSH1 0x20 MSTORE PUSH1 0x40 PUSH0 KECCAK256 DUP5 PUSH0 MSTORE PUSH1 0x20 MSTORE DUP3 PUSH1 0x40 PUSH0 KECCAK256 SLOAD LT PUSH2 0x1110 JUMPI DUP2 PUSH0 MSTORE PUSH1 0x6 PUSH1 0x20 MSTORE DUP3 PUSH1 0x40 PUSH0 KECCAK256 SLOAD LT PUSH2 0x10B9 JUMPI PUSH2 0xB77 PUSH32 0x1E579E7583AF5383169584A02EF5981C4B4F8D7FF2C36CCFDABFA6280036B3DD SWAP2 DUP4 PUSH0 MSTORE PUSH1 0x3 PUSH1 0x20 MSTORE PUSH1 0x40 PUSH0 KECCAK256 DUP7 PUSH0 MSTORE PUSH1 0x20 MSTORE PUSH1 0x40 PUSH0 KECCAK256 PUSH2 0x1022 DUP7 DUP3 SLOAD PUSH2 0x2BF5 JUMP JUMPDEST SWAP1 SSTORE DUP4 PUSH0 MSTORE PUSH1 0x6 PUSH1 0x20 MSTORE PUSH1 0x40 PUSH0 KECCAK256 PUSH2 0x103B DUP7 DUP3 SLOAD PUSH2 0x2BF5 JUMP JUMPDEST SWAP1 SSTORE DUP4 PUSH0 MSTORE PUSH1 0x2 PUSH1 0x20 MSTORE PUSH1 0x40 PUSH0 KECCAK256 DUP7 PUSH0 MSTORE PUSH1 0x20 MSTORE PUSH1 0x40 PUSH0 KECCAK256 PUSH2 0x105E DUP7 DUP3 SLOAD PUSH2 0x2BAC JUMP JUMPDEST SWAP1 SSTORE DUP4 PUSH0 MSTORE PUSH1 0x5 PUSH1 0x20 MSTORE PUSH1 0x40 PUSH0 KECCAK256 PUSH2 0x1077 DUP7 DUP3 SLOAD PUSH2 0x2BAC JUMP JUMPDEST SWAP1 SSTORE PUSH1 0x1 DUP7 DUP6 PUSH0 DUP1 MLOAD PUSH1 0x20 PUSH2 0x3207 DUP4 CODECOPY DUP2 MLOAD SWAP2 MSTORE PUSH1 0x40 MLOAD DUP1 PUSH2 0x109A CALLER DUP13 DUP4 PUSH2 0x2D24 JUMP JUMPDEST SUB SWAP1 LOG4 PUSH1 0x40 MLOAD SWAP2 DUP3 SWAP2 CALLER SWAP7 DUP4 SWAP1 DUP2 MSTORE PUSH1 0xFF SWAP1 SWAP2 AND PUSH1 0x20 DUP3 ADD MSTORE PUSH1 0x40 ADD SWAP1 JUMP JUMPDEST PUSH1 0x40 MLOAD PUSH3 0x461BCD PUSH1 0xE5 SHL DUP2 MSTORE PUSH1 0x20 PUSH1 0x4 DUP3 ADD MSTORE PUSH1 0x3C PUSH1 0x24 DUP3 ADD MSTORE PUSH0 DUP1 MLOAD PUSH1 0x20 PUSH2 0x3267 DUP4 CODECOPY DUP2 MLOAD SWAP2 MSTORE PUSH1 0x44 DUP3 ADD MSTORE PUSH28 0x616C3A206E6F7420656E6F75676820746F74616C2062616C616E6365 PUSH1 0x20 SHL PUSH1 0x64 DUP3 ADD MSTORE PUSH1 0x84 SWAP1 REVERT JUMPDEST PUSH1 0x40 MLOAD PUSH3 0x461BCD PUSH1 0xE5 SHL DUP2 MSTORE PUSH1 0x20 PUSH1 0x4 DUP3 ADD MSTORE PUSH1 0x36 PUSH1 0x24 DUP3 ADD MSTORE PUSH0 DUP1 MLOAD PUSH1 0x20 PUSH2 0x3267 DUP4 CODECOPY DUP2 MLOAD SWAP2 MSTORE PUSH1 0x44 DUP3 ADD MSTORE PUSH22 0x616C3A206E6F7420656E6F7567682062616C616E6365 PUSH1 0x50 SHL PUSH1 0x64 DUP3 ADD MSTORE PUSH1 0x84 SWAP1 REVERT JUMPDEST PUSH2 0x117A SWAP2 POP PUSH1 0x20 RETURNDATASIZE PUSH1 0x20 GT PUSH2 0xE63 JUMPI PUSH2 0xE55 DUP2 DUP4 PUSH2 0x29D5 JUMP JUMPDEST DUP7 PUSH2 0xC64 JUMP JUMPDEST CALLVALUE PUSH2 0x1DB JUMPI PUSH2 0x118E CALLDATASIZE PUSH2 0x2A74 JUMP JUMPDEST PUSH2 0x1196 PUSH2 0x2D3D JUMP JUMPDEST PUSH2 0x11AB PUSH1 0x1 DUP1 PUSH1 0xA0 SHL SUB PUSH1 0x1 SLOAD AND CALLER EQ PUSH2 0x2C21 JUMP JUMPDEST PUSH1 0x1 DUP1 PUSH1 0xA0 SHL SUB DUP4 AND SWAP2 DUP3 PUSH0 MSTORE PUSH1 0x5 PUSH1 0x20 MSTORE DUP2 PUSH1 0x40 PUSH0 KECCAK256 SLOAD LT PUSH2 0x12FE JUMPI DUP3 PUSH0 MSTORE PUSH1 0x2 PUSH1 0x20 MSTORE PUSH1 0x40 PUSH0 KECCAK256 PUSH1 0x1 DUP1 PUSH1 0xA0 SHL SUB DUP3 AND PUSH0 MSTORE PUSH1 0x20 MSTORE DUP2 PUSH1 0x40 PUSH0 KECCAK256 SLOAD LT PUSH2 0x12B1 JUMPI DUP2 PUSH2 0x128E PUSH32 0xED3F8D40E0F7F69B8048638C399FF0C54EC9B89759E2B8F2207729452E1422F1 SWAP4 PUSH2 0x129C SWAP4 DUP7 PUSH0 MSTORE PUSH1 0x2 PUSH1 0x20 MSTORE PUSH1 0x40 PUSH0 KECCAK256 PUSH1 0x1 DUP1 PUSH1 0xA0 SHL SUB DUP3 AND PUSH0 MSTORE PUSH1 0x20 MSTORE PUSH1 0x40 PUSH0 KECCAK256 PUSH2 0x1240 DUP4 DUP3 SLOAD PUSH2 0x2BF5 JUMP JUMPDEST SWAP1 SSTORE DUP7 PUSH0 MSTORE PUSH1 0x5 PUSH1 0x20 MSTORE PUSH1 0x40 PUSH0 KECCAK256 PUSH2 0x1259 DUP4 DUP3 SLOAD PUSH2 0x2BF5 JUMP JUMPDEST SWAP1 SSTORE PUSH1 0x1 DUP1 PUSH1 0xA0 SHL SUB DUP2 AND SWAP8 PUSH1 0x8 DUP10 DUP10 PUSH0 DUP1 MLOAD PUSH1 0x20 PUSH2 0x3127 DUP4 CODECOPY DUP2 MLOAD SWAP2 MSTORE PUSH1 0x40 MLOAD DUP1 PUSH2 0x1286 CALLER DUP11 DUP4 PUSH2 0x2D24 JUMP JUMPDEST SUB SWAP1 LOG4 PUSH2 0x2D72 JUMP JUMPDEST PUSH1 0x40 MLOAD SWAP2 DUP3 SWAP2 CALLER SWAP1 DUP4 PUSH2 0x2D24 JUMP JUMPDEST SUB SWAP1 LOG3 PUSH0 PUSH0 DUP1 MLOAD PUSH1 0x20 PUSH2 0x3227 DUP4 CODECOPY DUP2 MLOAD SWAP2 MSTORE TSTORE STOP JUMPDEST PUSH1 0x40 MLOAD PUSH3 0x461BCD PUSH1 0xE5 SHL DUP2 MSTORE PUSH1 0x20 PUSH1 0x4 DUP3 ADD MSTORE PUSH1 0x32 PUSH1 0x24 DUP3 ADD MSTORE PUSH0 DUP1 MLOAD PUSH1 0x20 PUSH2 0x3287 DUP4 CODECOPY DUP2 MLOAD SWAP2 MSTORE PUSH1 0x44 DUP3 ADD MSTORE PUSH18 0x6E6F7420656E6F7567682062616C616E6365 PUSH1 0x70 SHL PUSH1 0x64 DUP3 ADD MSTORE PUSH1 0x84 SWAP1 REVERT JUMPDEST PUSH1 0x40 MLOAD PUSH3 0x461BCD PUSH1 0xE5 SHL DUP2 MSTORE PUSH1 0x20 PUSH1 0x4 DUP3 ADD MSTORE PUSH1 0x38 PUSH1 0x24 DUP3 ADD MSTORE PUSH0 DUP1 MLOAD PUSH1 0x20 PUSH2 0x3287 DUP4 CODECOPY DUP2 MLOAD SWAP2 MSTORE PUSH1 0x44 DUP3 ADD MSTORE PUSH24 0x6E6F7420656E6F75676820746F74616C2062616C616E6365 PUSH1 0x40 SHL PUSH1 0x64 DUP3 ADD MSTORE PUSH1 0x84 SWAP1 REVERT JUMPDEST CALLVALUE PUSH2 0x1DB JUMPI PUSH2 0x135F CALLDATASIZE PUSH2 0x2A74 JUMP JUMPDEST SWAP2 PUSH2 0x1373 PUSH1 0x1 PUSH1 0x1 PUSH1 0xA0 SHL SUB PUSH2 0x5E5 PUSH2 0x2E0C JUMP JUMPDEST PUSH1 0x1 DUP1 PUSH1 0xA0 SHL SUB AND SWAP1 DUP2 PUSH0 MSTORE PUSH1 0x8 PUSH1 0x20 MSTORE PUSH1 0x40 PUSH0 KECCAK256 PUSH1 0x1 DUP1 PUSH1 0xA0 SHL SUB DUP3 AND PUSH0 MSTORE PUSH1 0x20 MSTORE DUP3 PUSH1 0x40 PUSH0 KECCAK256 SLOAD LT PUSH2 0x148D JUMPI PUSH2 0x1488 PUSH32 0xAD800992A52028310197800ABBA2E1D874C3952C1622E9266BA9E0ABAC9ECBEE SWAP2 DUP4 PUSH0 MSTORE PUSH1 0x8 PUSH1 0x20 MSTORE PUSH1 0x40 PUSH0 KECCAK256 PUSH1 0x1 DUP1 PUSH1 0xA0 SHL SUB DUP3 AND PUSH0 MSTORE PUSH1 0x20 MSTORE PUSH1 0x40 PUSH0 KECCAK256 PUSH2 0x13EF DUP7 DUP3 SLOAD PUSH2 0x2BF5 JUMP JUMPDEST SWAP1 SSTORE DUP4 PUSH0 MSTORE PUSH1 0x9 PUSH1 0x20 MSTORE PUSH1 0x40 PUSH0 KECCAK256 PUSH2 0x1408 DUP7 DUP3 SLOAD PUSH2 0x2BF5 JUMP JUMPDEST SWAP1 SSTORE DUP4 PUSH0 MSTORE PUSH1 0x2 PUSH1 0x20 MSTORE PUSH1 0x40 PUSH0 KECCAK256 PUSH1 0x1 DUP1 PUSH1 0xA0 SHL SUB DUP3 AND PUSH0 MSTORE PUSH1 0x20 MSTORE PUSH1 0x40 PUSH0 KECCAK256 PUSH2 0x1433 DUP7 DUP3 SLOAD PUSH2 0x2BAC JUMP JUMPDEST SWAP1 SSTORE DUP4 PUSH0 MSTORE PUSH1 0x5 PUSH1 0x20 MSTORE PUSH1 0x40 PUSH0 KECCAK256 PUSH2 0x144C DUP7 DUP3 SLOAD PUSH2 0x2BAC JUMP JUMPDEST SWAP1 SSTORE PUSH1 0x1 DUP1 PUSH1 0xA0 SHL SUB AND SWAP4 PUSH1 0x7 DUP6 DUP6 PUSH0 DUP1 MLOAD PUSH1 0x20 PUSH2 0x3207 DUP4 CODECOPY DUP2 MLOAD SWAP2 MSTORE PUSH1 0x40 MLOAD DUP1 PUSH2 0x1478 CALLER DUP9 DUP4 PUSH2 0x2D24 JUMP JUMPDEST SUB SWAP1 LOG4 PUSH1 0x40 MLOAD SWAP2 DUP3 SWAP2 CALLER DUP4 PUSH2 0x2D09 JUMP JUMPDEST SUB SWAP1 LOG3 STOP JUMPDEST PUSH1 0x40 MLOAD PUSH3 0x461BCD PUSH1 0xE5 SHL DUP2 MSTORE PUSH1 0x20 PUSH1 0x4 DUP3 ADD MSTORE PUSH1 0x30 PUSH1 0x24 DUP3 ADD MSTORE PUSH32 0x42616C616E63654B65657065723A2066756E6446726F6D4C696D626F3A206E6F PUSH1 0x44 DUP3 ADD MSTORE PUSH16 0x7420656E6F7567682062616C616E6365 PUSH1 0x80 SHL PUSH1 0x64 DUP3 ADD MSTORE PUSH1 0x84 SWAP1 REVERT JUMPDEST CALLVALUE PUSH2 0x1DB JUMPI PUSH1 0x40 CALLDATASIZE PUSH1 0x3 NOT ADD SLT PUSH2 0x1DB JUMPI PUSH2 0x1504 PUSH2 0x292F JUMP JUMPDEST PUSH2 0x150C PUSH2 0x2945 JUMP JUMPDEST SWAP1 PUSH2 0x1522 PUSH1 0x1 DUP1 PUSH1 0xA0 SHL SUB PUSH1 0x1 SLOAD AND CALLER EQ PUSH2 0x2C21 JUMP JUMPDEST PUSH1 0x1 DUP1 PUSH1 0xA0 SHL SUB DUP2 AND SWAP1 DUP2 PUSH0 MSTORE PUSH1 0x4 PUSH1 0x20 MSTORE PUSH1 0x40 PUSH0 KECCAK256 PUSH1 0x1 DUP1 PUSH1 0xA0 SHL SUB DUP5 AND PUSH0 MSTORE PUSH1 0x20 MSTORE PUSH1 0x40 PUSH0 KECCAK256 SLOAD ISZERO PUSH2 0x15BD JUMPI DUP3 PUSH2 0x157A SWAP2 DUP4 PUSH0 MSTORE PUSH1 0x4 PUSH1 0x20 MSTORE PUSH1 0x40 PUSH0 KECCAK256 PUSH1 0x1 DUP1 PUSH1 0xA0 SHL SUB DUP4 AND PUSH0 MSTORE PUSH1 0x20 MSTORE PUSH0 PUSH1 0x40 DUP2 KECCAK256 SSTORE PUSH2 0x2E99 JUMP JUMPDEST PUSH2 0x1583 DUP3 PUSH2 0x2E5B JUMP JUMPDEST PUSH1 0x40 MLOAD CALLER DUP2 MSTORE PUSH1 0x1 PUSH1 0x1 PUSH1 0xA0 SHL SUB SWAP1 SWAP3 AND SWAP2 PUSH32 0x578C57B9C6614C72323596D4A9A6A5676102B3ADAA6814118C74AFE38B6C8AE6 SWAP1 PUSH1 0x20 SWAP1 LOG3 STOP JUMPDEST PUSH1 0x40 MLOAD PUSH3 0x461BCD PUSH1 0xE5 SHL DUP2 MSTORE PUSH1 0x20 PUSH1 0x4 DUP3 ADD MSTORE PUSH1 0x1F PUSH1 0x24 DUP3 ADD MSTORE PUSH32 0x42616C616E63654B65657065723A207665746F3A206E6F207265717565737400 PUSH1 0x44 DUP3 ADD MSTORE PUSH1 0x64 SWAP1 REVERT JUMPDEST CALLVALUE PUSH2 0x1DB JUMPI PUSH1 0x20 CALLDATASIZE PUSH1 0x3 NOT ADD SLT PUSH2 0x1DB JUMPI PUSH2 0x161B PUSH2 0x292F JUMP JUMPDEST PUSH2 0x1630 PUSH1 0x1 DUP1 PUSH1 0xA0 SHL SUB PUSH1 0x1 SLOAD AND CALLER EQ PUSH2 0x2C21 JUMP JUMPDEST PUSH1 0x1 DUP1 PUSH1 0xA0 SHL SUB AND DUP1 PUSH0 MSTORE PUSH1 0xA PUSH1 0x20 MSTORE PUSH1 0x40 PUSH0 KECCAK256 PUSH1 0xFF NOT DUP2 SLOAD AND SWAP1 SSTORE PUSH0 DUP1 MLOAD PUSH1 0x20 PUSH2 0x3147 DUP4 CODECOPY DUP2 MLOAD SWAP2 MSTORE PUSH1 0x40 DUP1 MLOAD PUSH0 DUP2 MSTORE CALLER PUSH1 0x20 DUP3 ADD MSTORE LOG2 STOP JUMPDEST CALLVALUE PUSH2 0x1DB JUMPI PUSH1 0x20 CALLDATASIZE PUSH1 0x3 NOT ADD SLT PUSH2 0x1DB JUMPI PUSH1 0x1 PUSH1 0x1 PUSH1 0xA0 SHL SUB PUSH2 0x168B PUSH2 0x292F JUMP JUMPDEST AND PUSH0 MSTORE PUSH1 0x7 PUSH1 0x20 MSTORE PUSH1 0x20 PUSH1 0x40 PUSH0 KECCAK256 SLOAD PUSH1 0x40 MLOAD SWAP1 DUP2 MSTORE RETURN JUMPDEST CALLVALUE PUSH2 0x1DB JUMPI PUSH0 CALLDATASIZE PUSH1 0x3 NOT ADD SLT PUSH2 0x1DB JUMPI PUSH32 0x0 PUSH1 0x1 PUSH1 0x1 PUSH1 0xA0 SHL SUB AND ADDRESS SUB PUSH2 0x16F9 JUMPI PUSH1 0x20 PUSH1 0x40 MLOAD PUSH0 DUP1 MLOAD PUSH1 0x20 PUSH2 0x31E7 DUP4 CODECOPY DUP2 MLOAD SWAP2 MSTORE DUP2 MSTORE RETURN JUMPDEST PUSH4 0x703E46DD PUSH1 0xE1 SHL PUSH0 MSTORE PUSH1 0x4 PUSH0 REVERT JUMPDEST PUSH1 0x40 CALLDATASIZE PUSH1 0x3 NOT ADD SLT PUSH2 0x1DB JUMPI PUSH2 0x171C PUSH2 0x292F JUMP JUMPDEST PUSH1 0x24 CALLDATALOAD PUSH1 0x1 PUSH1 0x1 PUSH1 0x40 SHL SUB DUP2 GT PUSH2 0x1DB JUMPI CALLDATASIZE PUSH1 0x23 DUP3 ADD SLT ISZERO PUSH2 0x1DB JUMPI PUSH2 0x174C SWAP1 CALLDATASIZE SWAP1 PUSH1 0x24 DUP2 PUSH1 0x4 ADD CALLDATALOAD SWAP2 ADD PUSH2 0x2A13 JUMP JUMPDEST PUSH1 0x1 PUSH1 0x1 PUSH1 0xA0 SHL SUB PUSH32 0x0 AND ADDRESS DUP2 EQ SWAP1 DUP2 ISZERO PUSH2 0x18F6 JUMPI JUMPDEST POP PUSH2 0x16F9 JUMPI PUSH2 0x1799 PUSH1 0x1 PUSH1 0x1 PUSH1 0xA0 SHL SUB PUSH2 0x5E5 PUSH2 0x2E0C JUMP JUMPDEST PUSH1 0x40 MLOAD PUSH4 0x52D1902D PUSH1 0xE0 SHL DUP2 MSTORE PUSH1 0x1 PUSH1 0x1 PUSH1 0xA0 SHL SUB DUP4 AND SWAP3 SWAP1 PUSH1 0x20 DUP2 PUSH1 0x4 DUP2 DUP8 GAS STATICCALL PUSH0 SWAP2 DUP2 PUSH2 0x18C2 JUMPI JUMPDEST POP PUSH2 0x17DB JUMPI DUP4 PUSH4 0x4C9C8CE3 PUSH1 0xE0 SHL PUSH0 MSTORE PUSH1 0x4 MSTORE PUSH1 0x24 PUSH0 REVERT JUMPDEST DUP1 PUSH0 DUP1 MLOAD PUSH1 0x20 PUSH2 0x31E7 DUP4 CODECOPY DUP2 MLOAD SWAP2 MSTORE DUP6 SWAP3 SUB PUSH2 0x18B0 JUMPI POP DUP2 EXTCODESIZE ISZERO PUSH2 0x189E JUMPI PUSH0 DUP1 MLOAD PUSH1 0x20 PUSH2 0x31E7 DUP4 CODECOPY DUP2 MLOAD SWAP2 MSTORE DUP1 SLOAD PUSH1 0x1 PUSH1 0x1 PUSH1 0xA0 SHL SUB NOT AND DUP3 OR SWAP1 SSTORE PUSH32 0xBC7CD75A20EE27FD9ADEBAB32041F755214DBC6BFFA90CC0225B39DA2E5C2D3B PUSH0 DUP1 LOG2 DUP2 MLOAD ISZERO PUSH2 0x1886 JUMPI PUSH0 DUP1 DUP4 PUSH1 0x20 PUSH2 0x215 SWAP6 MLOAD SWAP2 ADD DUP5 GAS DELEGATECALL RETURNDATASIZE ISZERO PUSH2 0x187E JUMPI RETURNDATASIZE SWAP2 PUSH2 0x1862 DUP4 PUSH2 0x29F8 JUMP JUMPDEST SWAP3 PUSH2 0x1870 PUSH1 0x40 MLOAD SWAP5 DUP6 PUSH2 0x29D5 JUMP JUMPDEST DUP4 MSTORE RETURNDATASIZE PUSH0 PUSH1 0x20 DUP6 ADD RETURNDATACOPY PUSH2 0x30A8 JUMP JUMPDEST PUSH1 0x60 SWAP2 PUSH2 0x30A8 JUMP JUMPDEST POP POP CALLVALUE PUSH2 0x188F JUMPI STOP JUMPDEST PUSH4 0xB398979F PUSH1 0xE0 SHL PUSH0 MSTORE PUSH1 0x4 PUSH0 REVERT JUMPDEST PUSH4 0x4C9C8CE3 PUSH1 0xE0 SHL PUSH0 MSTORE PUSH1 0x4 MSTORE PUSH1 0x24 PUSH0 REVERT JUMPDEST PUSH4 0x2A875269 PUSH1 0xE2 SHL PUSH0 MSTORE PUSH1 0x4 MSTORE PUSH1 0x24 PUSH0 REVERT JUMPDEST SWAP1 SWAP2 POP PUSH1 0x20 DUP2 RETURNDATASIZE PUSH1 0x20 GT PUSH2 0x18EE JUMPI JUMPDEST DUP2 PUSH2 0x18DE PUSH1 0x20 SWAP4 DUP4 PUSH2 0x29D5 JUMP JUMPDEST DUP2 ADD SUB SLT PUSH2 0x1DB JUMPI MLOAD SWAP1 DUP6 PUSH2 0x17C3 JUMP JUMPDEST RETURNDATASIZE SWAP2 POP PUSH2 0x18D1 JUMP JUMPDEST PUSH0 DUP1 MLOAD PUSH1 0x20 PUSH2 0x31E7 DUP4 CODECOPY DUP2 MLOAD SWAP2 MSTORE SLOAD PUSH1 0x1 PUSH1 0x1 PUSH1 0xA0 SHL SUB AND EQ ISZERO SWAP1 POP DUP4 PUSH2 0x1781 JUMP JUMPDEST CALLVALUE PUSH2 0x1DB JUMPI PUSH1 0x40 CALLDATASIZE PUSH1 0x3 NOT ADD SLT PUSH2 0x1DB JUMPI PUSH2 0x1931 PUSH2 0x292F JUMP JUMPDEST PUSH1 0x24 CALLDATALOAD SWAP1 PUSH2 0x193D PUSH2 0x2D3D JUMP JUMPDEST PUSH1 0x1 SLOAD PUSH1 0x1 PUSH1 0x1 PUSH1 0xA0 SHL SUB AND CALLER EQ DUP1 ISZERO PUSH2 0x1A5A JUMPI JUMPDEST ISZERO PUSH2 0x19F2 JUMPI PUSH2 0x19B4 PUSH1 0x1 DUP1 PUSH1 0xA0 SHL SUB DUP3 AND SWAP2 DUP3 PUSH0 MSTORE PUSH1 0x7 PUSH1 0x20 MSTORE PUSH1 0x40 PUSH0 KECCAK256 PUSH2 0x197B DUP6 DUP3 SLOAD PUSH2 0x2BAC JUMP JUMPDEST SWAP1 SSTORE PUSH1 0x40 MLOAD PUSH4 0x23B872DD PUSH1 0xE0 SHL PUSH1 0x20 DUP3 ADD MSTORE CALLER PUSH1 0x24 DUP3 ADD MSTORE ADDRESS PUSH1 0x44 DUP3 ADD MSTORE PUSH1 0x64 DUP1 DUP3 ADD DUP7 SWAP1 MSTORE DUP2 MSTORE SWAP1 PUSH2 0x19AF PUSH1 0x84 DUP4 PUSH2 0x29D5 JUMP JUMPDEST PUSH2 0x3050 JUMP JUMPDEST PUSH1 0x40 MLOAD SWAP2 DUP3 MSTORE PUSH32 0xC5EFC688606A98F36C8FCC0D9C778216B9DB9AA4809A8DE9F18E3CC8885C99A7 PUSH1 0x20 CALLER SWAP4 LOG3 PUSH0 PUSH0 DUP1 MLOAD PUSH1 0x20 PUSH2 0x3227 DUP4 CODECOPY DUP2 MLOAD SWAP2 MSTORE TSTORE STOP JUMPDEST PUSH1 0x40 MLOAD PUSH3 0x461BCD PUSH1 0xE5 SHL DUP2 MSTORE PUSH1 0x20 PUSH1 0x4 DUP3 ADD MSTORE PUSH1 0x47 PUSH1 0x24 DUP3 ADD MSTORE PUSH0 DUP1 MLOAD PUSH1 0x20 PUSH2 0x3167 DUP4 CODECOPY DUP2 MLOAD SWAP2 MSTORE PUSH1 0x44 DUP3 ADD MSTORE PUSH32 0x6F72206469616D6F6E64206F776E65722063616E2063616C6C20746869732066 PUSH1 0x64 DUP3 ADD MSTORE PUSH7 0x3AB731BA34B7B7 PUSH1 0xC9 SHL PUSH1 0x84 DUP3 ADD MSTORE PUSH1 0xA4 SWAP1 REVERT JUMPDEST POP PUSH1 0x1 PUSH1 0x1 PUSH1 0xA0 SHL SUB PUSH2 0x1A6B PUSH2 0x2E0C JUMP JUMPDEST AND CALLER EQ PUSH2 0x1952 JUMP JUMPDEST CALLVALUE PUSH2 0x1DB JUMPI PUSH1 0x40 CALLDATASIZE PUSH1 0x3 NOT ADD SLT PUSH2 0x1DB JUMPI PUSH1 0x4 CALLDATALOAD PUSH1 0x24 CALLDATALOAD DUP2 DUP2 LT PUSH2 0x1CFB JUMPI PUSH1 0xD SLOAD DUP2 LT ISZERO PUSH2 0x1CBB JUMPI PUSH2 0x1AA5 DUP3 DUP3 PUSH2 0x2BF5 JUMP JUMPDEST SWAP2 PUSH1 0x1 DUP4 ADD DUP1 SWAP4 GT PUSH2 0x1C59 JUMPI PUSH2 0x1ABA DUP4 PUSH2 0x2C79 JUMP JUMPDEST SWAP3 PUSH2 0x1AC8 PUSH1 0x40 MLOAD SWAP5 DUP6 PUSH2 0x29D5 JUMP JUMPDEST DUP1 DUP5 MSTORE PUSH2 0x1AD7 PUSH1 0x1F NOT SWAP2 PUSH2 0x2C79 JUMP JUMPDEST ADD PUSH0 JUMPDEST DUP2 DUP2 LT PUSH2 0x1C6D JUMPI POP POP DUP1 JUMPDEST DUP3 DUP2 GT ISZERO PUSH2 0x1BA5 JUMPI DUP4 PUSH1 0x40 MLOAD DUP1 SWAP2 PUSH1 0x20 DUP3 ADD PUSH1 0x20 DUP4 MSTORE DUP2 MLOAD DUP1 SWAP2 MSTORE PUSH1 0x20 PUSH1 0x40 DUP5 ADD SWAP3 ADD SWAP1 PUSH0 JUMPDEST DUP2 DUP2 LT PUSH2 0x1B19 JUMPI POP POP POP SUB SWAP1 RETURN JUMPDEST SWAP2 SWAP4 POP SWAP2 PUSH1 0x20 PUSH2 0x120 PUSH1 0x1 SWAP3 PUSH2 0x100 DUP8 MLOAD DUP6 DUP1 PUSH1 0xA0 SHL SUB DUP2 MLOAD AND DUP4 MSTORE DUP6 DUP1 PUSH1 0xA0 SHL SUB DUP6 DUP3 ADD MLOAD AND DUP6 DUP5 ADD MSTORE DUP6 DUP1 PUSH1 0xA0 SHL SUB PUSH1 0x40 DUP3 ADD MLOAD AND PUSH1 0x40 DUP5 ADD MSTORE PUSH2 0x1B67 PUSH1 0x60 DUP3 ADD MLOAD PUSH1 0x60 DUP6 ADD SWAP1 PUSH2 0x2A67 JUMP JUMPDEST PUSH1 0x80 DUP2 ADD MLOAD PUSH1 0x80 DUP5 ADD MSTORE PUSH1 0xA0 DUP2 ADD MLOAD PUSH1 0xA0 DUP5 ADD MSTORE PUSH1 0xC0 DUP2 ADD MLOAD PUSH1 0xC0 DUP5 ADD MSTORE PUSH1 0xE0 DUP2 ADD MLOAD PUSH1 0xE0 DUP5 ADD MSTORE ADD MLOAD PUSH2 0x100 DUP3 ADD MSTORE ADD SWAP5 ADD SWAP2 ADD SWAP2 DUP5 SWAP4 SWAP3 PUSH2 0x1B0B JUMP JUMPDEST PUSH2 0x1C48 PUSH2 0x1BB1 DUP3 PUSH2 0x2BC5 JUMP JUMPDEST POP PUSH2 0x1BBC DUP5 DUP5 PUSH2 0x2BF5 JUMP JUMPDEST SWAP1 PUSH1 0x7 PUSH1 0x40 MLOAD SWAP2 PUSH2 0x1BCC DUP4 PUSH2 0x29B9 JUMP JUMPDEST DUP1 SLOAD PUSH1 0x1 PUSH1 0x1 PUSH1 0xA0 SHL SUB SWAP1 DUP2 AND DUP5 MSTORE PUSH1 0x1 DUP3 ADD SLOAD DUP2 AND PUSH1 0x20 DUP6 ADD MSTORE PUSH1 0x2 DUP3 ADD SLOAD SWAP1 DUP2 AND PUSH1 0x40 DUP6 ADD MSTORE PUSH2 0x1C07 SWAP1 PUSH1 0xA0 SHR PUSH1 0xFF AND PUSH1 0x60 DUP6 ADD PUSH2 0x2BB9 JUMP JUMPDEST PUSH1 0x3 DUP2 ADD SLOAD PUSH1 0x80 DUP5 ADD MSTORE PUSH1 0x4 DUP2 ADD SLOAD PUSH1 0xA0 DUP5 ADD MSTORE PUSH1 0x5 DUP2 ADD SLOAD PUSH1 0xC0 DUP5 ADD MSTORE PUSH1 0x6 DUP2 ADD SLOAD PUSH1 0xE0 DUP5 ADD MSTORE ADD SLOAD PUSH2 0x100 DUP3 ADD MSTORE PUSH2 0x1C41 DUP3 DUP9 PUSH2 0x2C90 JUMP JUMPDEST MSTORE DUP6 PUSH2 0x2C90 JUMP JUMPDEST POP PUSH0 NOT DUP2 EQ PUSH2 0x1C59 JUMPI PUSH1 0x1 ADD PUSH2 0x1AE5 JUMP JUMPDEST PUSH4 0x4E487B71 PUSH1 0xE0 SHL PUSH0 MSTORE PUSH1 0x11 PUSH1 0x4 MSTORE PUSH1 0x24 PUSH0 REVERT JUMPDEST PUSH1 0x20 SWAP1 PUSH1 0x40 MLOAD PUSH2 0x1C7C DUP2 PUSH2 0x29B9 JUMP JUMPDEST PUSH0 DUP2 MSTORE PUSH0 DUP4 DUP3 ADD MSTORE PUSH0 PUSH1 0x40 DUP3 ADD MSTORE PUSH0 PUSH1 0x60 DUP3 ADD MSTORE PUSH0 PUSH1 0x80 DUP3 ADD MSTORE PUSH0 PUSH1 0xA0 DUP3 ADD MSTORE PUSH0 PUSH1 0xC0 DUP3 ADD MSTORE PUSH0 PUSH1 0xE0 DUP3 ADD MSTORE PUSH0 PUSH2 0x100 DUP3 ADD MSTORE DUP3 DUP3 DUP9 ADD ADD MSTORE ADD PUSH2 0x1ADA JUMP JUMPDEST PUSH1 0x40 MLOAD PUSH3 0x461BCD PUSH1 0xE5 SHL DUP2 MSTORE PUSH1 0x20 PUSH1 0x4 DUP3 ADD MSTORE PUSH1 0x18 PUSH1 0x24 DUP3 ADD MSTORE PUSH24 0x6765744465706F736974496E666F3A206F766572666C6F77 PUSH1 0x40 SHL PUSH1 0x44 DUP3 ADD MSTORE PUSH1 0x64 SWAP1 REVERT JUMPDEST PUSH1 0x40 MLOAD PUSH3 0x461BCD PUSH1 0xE5 SHL DUP2 MSTORE PUSH1 0x20 PUSH1 0x4 DUP3 ADD MSTORE PUSH1 0x16 PUSH1 0x24 DUP3 ADD MSTORE PUSH22 0x73746F7265644465616C733A20746F203C2066726F6D PUSH1 0x50 SHL PUSH1 0x44 DUP3 ADD MSTORE PUSH1 0x64 SWAP1 REVERT JUMPDEST CALLVALUE PUSH2 0x1DB JUMPI PUSH0 CALLDATASIZE PUSH1 0x3 NOT ADD SLT PUSH2 0x1DB JUMPI PUSH2 0x1D5E PUSH1 0x1 DUP1 PUSH1 0xA0 SHL SUB PUSH1 0x1 SLOAD AND CALLER EQ PUSH2 0x2C21 JUMP JUMPDEST PUSH1 0x1 PUSH1 0xFF NOT PUSH1 0xC SLOAD AND OR PUSH1 0xC SSTORE PUSH32 0xFC30CEACBBD28B9AE09DDBB48AE26FBE5EBC9EB59BB3470290FADD187D7C4024 PUSH1 0x20 PUSH1 0x40 MLOAD CALLER DUP2 MSTORE LOG1 STOP JUMPDEST CALLVALUE PUSH2 0x1DB JUMPI PUSH1 0x80 CALLDATASIZE PUSH1 0x3 NOT ADD SLT PUSH2 0x1DB JUMPI PUSH2 0x1DB0 PUSH2 0x292F JUMP JUMPDEST PUSH2 0x1DB8 PUSH2 0x2945 JUMP JUMPDEST SWAP1 PUSH1 0x44 CALLDATALOAD PUSH1 0x64 CALLDATALOAD PUSH1 0x1 PUSH1 0x1 PUSH1 0x40 SHL SUB DUP2 GT PUSH2 0x1DB JUMPI PUSH2 0x1DDB SWAP1 CALLDATASIZE SWAP1 PUSH1 0x4 ADD PUSH2 0x2A49 JUMP JUMPDEST SWAP3 PUSH1 0x1 DUP1 PUSH1 0xA0 SHL SUB AND SWAP2 DUP3 PUSH0 MSTORE PUSH1 0xA PUSH1 0x20 MSTORE PUSH2 0x1DFE PUSH1 0xFF PUSH1 0x40 PUSH0 KECCAK256 SLOAD AND ISZERO PUSH2 0x2B4E JUMP JUMPDEST PUSH0 SLOAD PUSH1 0x40 MLOAD PUSH4 0x2984EBD PUSH1 0xE3 SHL DUP2 MSTORE SWAP1 PUSH1 0x20 SWAP1 DUP3 SWAP1 PUSH1 0x4 SWAP1 DUP3 SWAP1 PUSH1 0x1 PUSH1 0x1 PUSH1 0xA0 SHL SUB AND GAS STATICCALL SWAP1 DUP2 ISZERO PUSH2 0xE6A JUMPI PUSH0 SWAP2 PUSH2 0x207E JUMPI JUMPDEST POP PUSH1 0x1 PUSH1 0x1 PUSH1 0xA0 SHL SUB AND CALLER SUB PUSH2 0x201E JUMPI PUSH1 0x40 MLOAD PUSH1 0xFF DUP6 MLOAD SWAP2 PUSH1 0x20 DUP2 DUP2 DUP10 ADD SWAP5 DUP1 DUP7 DUP4 MCOPY DUP2 ADD PUSH1 0xB DUP2 MSTORE SUB ADD SWAP1 KECCAK256 SLOAD AND PUSH2 0x1FC0 JUMPI PUSH1 0x20 PUSH1 0x40 MLOAD DUP1 SWAP3 DUP8 MLOAD DUP1 SWAP2 DUP4 MCOPY DUP2 ADD PUSH1 0xB DUP2 MSTORE SUB ADD SWAP1 KECCAK256 PUSH1 0x1 PUSH1 0xFF NOT DUP3 SLOAD AND OR SWAP1 SSTORE PUSH1 0x1 DUP1 PUSH1 0xA0 SHL SUB AND SWAP1 DUP2 PUSH0 MSTORE PUSH1 0x7 PUSH1 0x20 MSTORE DUP1 PUSH1 0x40 PUSH0 KECCAK256 SLOAD LT PUSH2 0x1F5E JUMPI PUSH32 0xD255D18D8ECBCBAA2126775BA49C6BDDD4EC7BED71589374889BACDD0334BB4A SWAP1 DUP3 PUSH0 MSTORE PUSH1 0x7 PUSH1 0x20 MSTORE PUSH1 0x40 PUSH0 KECCAK256 PUSH2 0x1EDB DUP3 DUP3 SLOAD PUSH2 0x2BF5 JUMP JUMPDEST SWAP1 SSTORE DUP3 PUSH0 MSTORE PUSH1 0x2 PUSH1 0x20 MSTORE PUSH1 0x40 PUSH0 KECCAK256 DUP5 PUSH0 MSTORE PUSH1 0x20 MSTORE PUSH1 0x40 PUSH0 KECCAK256 PUSH2 0x1EFE DUP3 DUP3 SLOAD PUSH2 0x2BAC JUMP JUMPDEST SWAP1 SSTORE DUP3 PUSH0 MSTORE PUSH1 0x5 PUSH1 0x20 MSTORE PUSH1 0x40 PUSH0 KECCAK256 PUSH2 0x1F17 DUP3 DUP3 SLOAD PUSH2 0x2BAC JUMP JUMPDEST SWAP1 SSTORE PUSH0 DUP5 DUP5 PUSH0 DUP1 MLOAD PUSH1 0x20 PUSH2 0x3207 DUP4 CODECOPY DUP2 MLOAD SWAP2 MSTORE PUSH1 0x40 MLOAD DUP1 PUSH2 0x1F39 CALLER DUP9 DUP4 PUSH2 0x2D24 JUMP JUMPDEST SUB SWAP1 LOG4 PUSH1 0x40 MLOAD SWAP1 DUP2 MSTORE PUSH1 0x40 PUSH1 0x20 DUP3 ADD MSTORE DUP1 PUSH2 0x1F59 CALLER SWAP7 PUSH1 0x40 DUP4 ADD SWAP1 PUSH2 0x2AAE JUMP JUMPDEST SUB SWAP1 LOG4 STOP JUMPDEST PUSH1 0x40 MLOAD PUSH3 0x461BCD PUSH1 0xE5 SHL DUP2 MSTORE PUSH1 0x20 PUSH1 0x4 DUP3 ADD MSTORE PUSH1 0x34 PUSH1 0x24 DUP3 ADD MSTORE PUSH32 0x42616C616E63654B65657065723A2075736572546F7055703A206E6F7420656E PUSH1 0x44 DUP3 ADD MSTORE PUSH20 0x6F75676820676174657761792062616C616E6365 PUSH1 0x60 SHL PUSH1 0x64 DUP3 ADD MSTORE PUSH1 0x84 SWAP1 REVERT JUMPDEST PUSH1 0x40 MLOAD PUSH3 0x461BCD PUSH1 0xE5 SHL DUP2 MSTORE PUSH1 0x20 PUSH1 0x4 DUP3 ADD MSTORE PUSH1 0x30 PUSH1 0x24 DUP3 ADD MSTORE PUSH32 0x42616C616E63654B65657065723A2075736572546F7055703A20746F702D7570 PUSH1 0x44 DUP3 ADD MSTORE PUSH16 0x81A5908185B1C9958591E481D5CD959 PUSH1 0x82 SHL PUSH1 0x64 DUP3 ADD MSTORE PUSH1 0x84 SWAP1 REVERT JUMPDEST PUSH1 0x40 MLOAD PUSH3 0x461BCD PUSH1 0xE5 SHL DUP2 MSTORE PUSH1 0x20 PUSH1 0x4 DUP3 ADD MSTORE PUSH1 0x32 PUSH1 0x24 DUP3 ADD MSTORE PUSH32 0x42616C616E63654B65657065723A204F6E6C7920766F646F7061642063616E20 PUSH1 0x44 DUP3 ADD MSTORE PUSH18 0x31B0B636103A3434B990333AB731BA34B7B7 PUSH1 0x71 SHL PUSH1 0x64 DUP3 ADD MSTORE PUSH1 0x84 SWAP1 REVERT JUMPDEST PUSH2 0x20A0 SWAP2 POP PUSH1 0x20 RETURNDATASIZE PUSH1 0x20 GT PUSH2 0x20A6 JUMPI JUMPDEST PUSH2 0x2098 DUP2 DUP4 PUSH2 0x29D5 JUMP JUMPDEST DUP2 ADD SWAP1 PUSH2 0x2C02 JUMP JUMPDEST DUP6 PUSH2 0x1E31 JUMP JUMPDEST POP RETURNDATASIZE PUSH2 0x208E JUMP JUMPDEST CALLVALUE PUSH2 0x1DB JUMPI PUSH1 0x20 CALLDATASIZE PUSH1 0x3 NOT ADD SLT PUSH2 0x1DB JUMPI PUSH2 0x20C6 PUSH2 0x292F JUMP JUMPDEST CALLER PUSH0 MSTORE PUSH1 0xA PUSH1 0x20 MSTORE PUSH2 0x20DF PUSH1 0xFF PUSH1 0x40 PUSH0 KECCAK256 SLOAD AND ISZERO PUSH2 0x2B4E JUMP JUMPDEST PUSH1 0x1 PUSH1 0x1 PUSH1 0xA0 SHL SUB AND PUSH0 DUP2 DUP2 MSTORE PUSH1 0x3 PUSH1 0x20 SWAP1 DUP2 MSTORE PUSH1 0x40 DUP1 DUP4 KECCAK256 CALLER DUP5 MSTORE SWAP1 SWAP2 MSTORE SWAP1 KECCAK256 SLOAD PUSH2 0x2287 JUMPI PUSH1 0xFF PUSH1 0xC SLOAD AND ISZERO PUSH2 0x2234 JUMPI PUSH0 DUP2 DUP2 MSTORE PUSH1 0x2 PUSH1 0x20 SWAP1 DUP2 MSTORE PUSH1 0x40 DUP1 DUP4 KECCAK256 CALLER DUP5 MSTORE SWAP1 SWAP2 MSTORE SWAP1 KECCAK256 SLOAD ISZERO PUSH2 0x21E7 JUMPI PUSH0 DUP2 DUP2 MSTORE PUSH1 0x4 PUSH1 0x20 SWAP1 DUP2 MSTORE PUSH1 0x40 DUP1 DUP4 KECCAK256 CALLER DUP5 MSTORE SWAP1 SWAP2 MSTORE SWAP1 KECCAK256 SLOAD PUSH2 0x219B JUMPI DUP1 PUSH0 MSTORE PUSH1 0x4 PUSH1 0x20 MSTORE PUSH1 0x40 PUSH0 KECCAK256 PUSH1 0x1 DUP1 PUSH1 0xA0 SHL SUB CALLER AND PUSH0 MSTORE PUSH1 0x20 MSTORE PUSH1 0x40 PUSH0 KECCAK256 TIMESTAMP SWAP1 SSTORE PUSH1 0x40 MLOAD SWAP1 CALLER DUP3 MSTORE PUSH32 0x4365D6807428F602D009451DBFAC23489F573DC32F596C2E89DEE5DF45735757 PUSH1 0x20 CALLER SWAP4 LOG3 STOP JUMPDEST PUSH1 0x40 MLOAD PUSH3 0x461BCD PUSH1 0xE5 SHL DUP2 MSTORE PUSH1 0x20 PUSH1 0x4 DUP3 ADD MSTORE PUSH1 0x31 PUSH1 0x24 DUP3 ADD MSTORE PUSH0 DUP1 MLOAD PUSH1 0x20 PUSH2 0x3187 DUP4 CODECOPY DUP2 MLOAD SWAP2 MSTORE PUSH1 0x44 DUP3 ADD MSTORE PUSH17 0x185B1C9958591E481C995C5D595CDD1959 PUSH1 0x7A SHL PUSH1 0x64 DUP3 ADD MSTORE PUSH1 0x84 SWAP1 REVERT JUMPDEST PUSH1 0x40 MLOAD PUSH3 0x461BCD PUSH1 0xE5 SHL DUP2 MSTORE PUSH1 0x20 PUSH1 0x4 DUP3 ADD MSTORE PUSH1 0x32 PUSH1 0x24 DUP3 ADD MSTORE PUSH0 DUP1 MLOAD PUSH1 0x20 PUSH2 0x3187 DUP4 CODECOPY DUP2 MLOAD SWAP2 MSTORE PUSH1 0x44 DUP3 ADD MSTORE PUSH18 0x6E6F7420656E6F7567682062616C616E6365 PUSH1 0x70 SHL PUSH1 0x64 DUP3 ADD MSTORE PUSH1 0x84 SWAP1 REVERT JUMPDEST PUSH1 0x40 MLOAD PUSH3 0x461BCD PUSH1 0xE5 SHL DUP2 MSTORE PUSH1 0x20 PUSH1 0x4 DUP3 ADD MSTORE PUSH1 0x38 PUSH1 0x24 DUP3 ADD MSTORE PUSH0 DUP1 MLOAD PUSH1 0x20 PUSH2 0x3187 DUP4 CODECOPY DUP2 MLOAD SWAP2 MSTORE PUSH1 0x44 DUP3 ADD MSTORE PUSH24 0x1B585B9D585B081DDA5D1A191C985DC8191A5CD8589B1959 PUSH1 0x42 SHL PUSH1 0x64 DUP3 ADD MSTORE PUSH1 0x84 SWAP1 REVERT JUMPDEST PUSH1 0x40 MLOAD PUSH3 0x461BCD PUSH1 0xE5 SHL DUP2 MSTORE PUSH1 0x20 PUSH1 0x4 DUP3 ADD MSTORE PUSH1 0x39 PUSH1 0x24 DUP3 ADD MSTORE PUSH0 DUP1 MLOAD PUSH1 0x20 PUSH2 0x3287 DUP4 CODECOPY DUP2 MLOAD SWAP2 MSTORE PUSH1 0x44 DUP3 ADD MSTORE PUSH25 0x6465616C2062616C616E6365206973206E6F7420656D707479 PUSH1 0x38 SHL PUSH1 0x64 DUP3 ADD MSTORE PUSH1 0x84 SWAP1 REVERT JUMPDEST CALLVALUE PUSH2 0x1DB JUMPI PUSH0 CALLDATASIZE PUSH1 0x3 NOT ADD SLT PUSH2 0x1DB JUMPI PUSH1 0x20 PUSH1 0xFF PUSH1 0xC SLOAD AND PUSH1 0x40 MLOAD SWAP1 ISZERO ISZERO DUP2 MSTORE RETURN JUMPDEST CALLVALUE PUSH2 0x1DB JUMPI PUSH1 0x20 CALLDATASIZE PUSH1 0x3 NOT ADD SLT PUSH2 0x1DB JUMPI PUSH1 0x1 PUSH1 0x1 PUSH1 0xA0 SHL SUB PUSH2 0x231E PUSH2 0x292F JUMP JUMPDEST AND PUSH0 MSTORE PUSH1 0x6 PUSH1 0x20 MSTORE PUSH1 0x20 PUSH1 0x40 PUSH0 KECCAK256 SLOAD PUSH1 0x40 MLOAD SWAP1 DUP2 MSTORE RETURN JUMPDEST CALLVALUE PUSH2 0x1DB JUMPI PUSH1 0x80 CALLDATASIZE PUSH1 0x3 NOT ADD SLT PUSH2 0x1DB JUMPI PUSH2 0x234E PUSH2 0x292F JUMP JUMPDEST PUSH2 0x2356 PUSH2 0x2945 JUMP JUMPDEST PUSH1 0x44 CALLDATALOAD SWAP1 PUSH1 0x64 CALLDATALOAD SWAP1 PUSH1 0x2 DUP3 LT ISZERO PUSH2 0x1DB JUMPI PUSH0 SLOAD PUSH1 0x40 MLOAD PUSH4 0x21053053 PUSH1 0xE0 SHL DUP2 MSTORE CALLER PUSH1 0x4 DUP3 ADD MSTORE SWAP1 PUSH1 0x20 SWAP1 DUP3 SWAP1 PUSH1 0x24 SWAP1 DUP3 SWAP1 PUSH1 0x1 PUSH1 0x1 PUSH1 0xA0 SHL SUB AND GAS STATICCALL DUP1 ISZERO PUSH2 0xE6A JUMPI PUSH2 0x23A8 SWAP2 PUSH0 SWAP2 PUSH2 0x1161 JUMPI POP PUSH2 0x2AEA JUMP JUMPDEST PUSH1 0x1 DUP1 PUSH1 0xA0 SHL SUB AND SWAP3 DUP4 PUSH0 MSTORE PUSH1 0xA PUSH1 0x20 MSTORE PUSH2 0x23CA PUSH1 0xFF PUSH1 0x40 PUSH0 KECCAK256 SLOAD AND ISZERO PUSH2 0x2B4E JUMP JUMPDEST PUSH2 0x23D2 PUSH2 0x2D3D JUMP JUMPDEST PUSH1 0x1 DUP1 PUSH1 0xA0 SHL SUB AND SWAP1 DUP2 PUSH0 MSTORE PUSH1 0x2 PUSH1 0x20 MSTORE PUSH1 0x40 PUSH0 KECCAK256 DUP5 PUSH0 MSTORE PUSH1 0x20 MSTORE DUP3 PUSH1 0x40 PUSH0 KECCAK256 SLOAD LT PUSH2 0x26A1 JUMPI DUP2 PUSH0 MSTORE PUSH1 0x5 PUSH1 0x20 MSTORE DUP3 PUSH1 0x40 PUSH0 KECCAK256 SLOAD LT PUSH2 0x264C JUMPI DUP2 PUSH0 MSTORE PUSH1 0x3 PUSH1 0x20 MSTORE PUSH1 0x40 PUSH0 KECCAK256 DUP5 PUSH0 MSTORE PUSH1 0x20 MSTORE PUSH1 0x40 PUSH0 KECCAK256 PUSH2 0x242C DUP5 DUP3 SLOAD PUSH2 0x2BAC JUMP JUMPDEST SWAP1 SSTORE DUP2 PUSH0 MSTORE PUSH1 0x6 PUSH1 0x20 MSTORE PUSH1 0x40 PUSH0 KECCAK256 PUSH2 0x2445 DUP5 DUP3 SLOAD PUSH2 0x2BAC JUMP JUMPDEST SWAP1 SSTORE DUP2 PUSH0 MSTORE PUSH1 0x2 PUSH1 0x20 MSTORE PUSH1 0x40 PUSH0 KECCAK256 DUP5 PUSH0 MSTORE PUSH1 0x20 MSTORE PUSH1 0x40 PUSH0 KECCAK256 PUSH2 0x2468 DUP5 DUP3 SLOAD PUSH2 0x2BF5 JUMP JUMPDEST SWAP1 SSTORE DUP2 PUSH0 MSTORE PUSH1 0x5 PUSH1 0x20 MSTORE PUSH1 0x40 PUSH0 KECCAK256 PUSH2 0x2481 DUP5 DUP3 SLOAD PUSH2 0x2BF5 JUMP JUMPDEST SWAP1 SSTORE PUSH1 0x3 DUP5 DUP4 PUSH0 DUP1 MLOAD PUSH1 0x20 PUSH2 0x3127 DUP4 CODECOPY DUP2 MLOAD SWAP2 MSTORE PUSH1 0x40 MLOAD DUP1 PUSH2 0x24A4 CALLER DUP11 DUP4 PUSH2 0x2D24 JUMP JUMPDEST SUB SWAP1 LOG4 PUSH2 0x24AF PUSH2 0x2DA9 JUMP JUMPDEST PUSH1 0x40 MLOAD PUSH2 0x24BB DUP2 PUSH2 0x29B9 JUMP JUMPDEST DUP4 DUP2 MSTORE PUSH1 0x20 DUP2 ADD CALLER DUP2 MSTORE PUSH1 0x40 DUP3 ADD SWAP1 DUP8 DUP3 MSTORE PUSH1 0x60 DUP4 ADD PUSH2 0x24DB DUP7 DUP3 PUSH2 0x2BB9 JUMP JUMPDEST PUSH1 0x80 DUP5 ADD DUP9 DUP2 MSTORE PUSH1 0xA0 DUP6 ADD DUP7 DUP2 MSTORE PUSH1 0xC0 DUP7 ADD SWAP2 PUSH0 DUP4 MSTORE PUSH1 0xE0 DUP8 ADD SWAP4 PUSH0 DUP6 MSTORE PUSH2 0x100 DUP9 ADD SWAP6 PUSH0 DUP8 MSTORE PUSH1 0xD SLOAD PUSH1 0x1 PUSH1 0x40 SHL DUP2 LT ISZERO PUSH2 0x2638 JUMPI DUP1 PUSH1 0x1 PUSH2 0x2521 SWAP3 ADD PUSH1 0xD SSTORE PUSH2 0x2BC5 JUMP JUMPDEST SWAP10 SWAP1 SWAP10 PUSH2 0x2625 JUMPI MLOAD DUP10 SLOAD PUSH1 0x1 PUSH1 0x1 PUSH1 0xA0 SHL SUB NOT SWAP1 DUP2 AND PUSH1 0x1 PUSH1 0x1 PUSH1 0xA0 SHL SUB SWAP3 DUP4 AND OR DUP12 SSTORE SWAP2 MLOAD PUSH1 0x1 DUP12 ADD DUP1 SLOAD DUP5 AND SWAP2 DUP4 AND SWAP2 SWAP1 SWAP2 OR SWAP1 SSTORE SWAP8 MLOAD PUSH1 0x2 DUP1 DUP12 ADD DUP1 SLOAD SWAP1 SWAP4 AND SWAP2 SWAP1 SWAP10 AND OR DUP2 SSTORE SWAP1 MLOAD SWAP7 DUP8 LT ISZERO PUSH2 0x2611 JUMPI PUSH1 0x7 SWAP7 DUP2 SLOAD SWAP1 PUSH1 0xFF PUSH1 0xA0 SHL SWAP1 PUSH1 0xA0 SHL AND SWAP1 PUSH1 0xFF PUSH1 0xA0 SHL NOT AND OR SWAP1 SSTORE MLOAD PUSH1 0x3 DUP8 ADD SSTORE MLOAD PUSH1 0x4 DUP7 ADD SSTORE MLOAD PUSH1 0x5 DUP6 ADD SSTORE MLOAD PUSH1 0x6 DUP5 ADD SSTORE MLOAD SWAP2 ADD SSTORE PUSH1 0xD SLOAD SWAP2 PUSH0 NOT DUP4 ADD SWAP3 DUP4 GT PUSH2 0x1C59 JUMPI PUSH2 0x25CF SWAP1 PUSH1 0x40 MLOAD SWAP6 DUP7 MSTORE PUSH1 0x20 DUP7 ADD SWAP1 PUSH2 0x2A67 JUMP JUMPDEST PUSH1 0x40 DUP5 ADD MSTORE PUSH1 0x60 DUP4 ADD MSTORE PUSH32 0x58A01CEC638E44FD50F881445A9CEDBC0C087BA39F0218DE7DDC71EC11801290 PUSH1 0x80 CALLER SWAP4 LOG4 PUSH0 PUSH0 DUP1 MLOAD PUSH1 0x20 PUSH2 0x3227 DUP4 CODECOPY DUP2 MLOAD SWAP2 MSTORE TSTORE STOP JUMPDEST PUSH4 0x4E487B71 PUSH1 0xE0 SHL PUSH0 MSTORE PUSH1 0x21 PUSH1 0x4 MSTORE PUSH1 0x24 PUSH0 REVERT JUMPDEST PUSH4 0x4E487B71 PUSH1 0xE0 SHL PUSH0 MSTORE PUSH0 PUSH1 0x4 MSTORE PUSH1 0x24 PUSH0 REVERT JUMPDEST PUSH4 0x4E487B71 PUSH1 0xE0 SHL PUSH0 MSTORE PUSH1 0x41 PUSH1 0x4 MSTORE PUSH1 0x24 PUSH0 REVERT JUMPDEST PUSH1 0x40 MLOAD PUSH3 0x461BCD PUSH1 0xE5 SHL DUP2 MSTORE PUSH1 0x20 PUSH1 0x4 DUP3 ADD MSTORE PUSH1 0x3A PUSH1 0x24 DUP3 ADD MSTORE PUSH0 DUP1 MLOAD PUSH1 0x20 PUSH2 0x3107 DUP4 CODECOPY DUP2 MLOAD SWAP2 MSTORE PUSH1 0x44 DUP3 ADD MSTORE PUSH26 0x3A206E6F7420656E6F75676820746F74616C2062616C616E6365 PUSH1 0x30 SHL PUSH1 0x64 DUP3 ADD MSTORE PUSH1 0x84 SWAP1 REVERT JUMPDEST PUSH1 0x40 MLOAD PUSH3 0x461BCD PUSH1 0xE5 SHL DUP2 MSTORE PUSH1 0x20 PUSH1 0x4 DUP3 ADD MSTORE PUSH1 0x34 PUSH1 0x24 DUP3 ADD MSTORE PUSH0 DUP1 MLOAD PUSH1 0x20 PUSH2 0x3107 DUP4 CODECOPY DUP2 MLOAD SWAP2 MSTORE PUSH1 0x44 DUP3 ADD MSTORE PUSH20 0x3A206E6F7420656E6F7567682062616C616E6365 PUSH1 0x60 SHL PUSH1 0x64 DUP3 ADD MSTORE PUSH1 0x84 SWAP1 REVERT JUMPDEST CALLVALUE PUSH2 0x1DB JUMPI PUSH0 CALLDATASIZE PUSH1 0x3 NOT ADD SLT PUSH2 0x1DB JUMPI PUSH1 0x1 SLOAD PUSH1 0x40 MLOAD PUSH1 0x1 PUSH1 0x1 PUSH1 0xA0 SHL SUB SWAP1 SWAP2 AND DUP2 MSTORE PUSH1 0x20 SWAP1 RETURN JUMPDEST CALLVALUE PUSH2 0x1DB JUMPI PUSH0 CALLDATASIZE PUSH1 0x3 NOT ADD SLT PUSH2 0x1DB JUMPI PUSH1 0x20 PUSH1 0xD SLOAD PUSH1 0x40 MLOAD SWAP1 DUP2 MSTORE RETURN JUMPDEST CALLVALUE PUSH2 0x1DB JUMPI PUSH2 0x2743 CALLDATASIZE PUSH2 0x2971 JUMP JUMPDEST SWAP2 SWAP1 SWAP4 PUSH1 0x20 DUP2 PUSH1 0x24 DUP2 PUSH1 0x1 DUP1 PUSH1 0xA0 SHL SUB PUSH0 SLOAD AND PUSH4 0x21053053 PUSH1 0xE0 SHL DUP3 MSTORE CALLER PUSH1 0x4 DUP4 ADD MSTORE GAS STATICCALL DUP1 ISZERO PUSH2 0xE6A JUMPI PUSH2 0x277E SWAP2 PUSH0 SWAP2 PUSH2 0x1161 JUMPI POP PUSH2 0x2AEA JUMP JUMPDEST PUSH1 0x1 DUP1 PUSH1 0xA0 SHL SUB DUP2 AND SWAP4 DUP5 PUSH0 MSTORE PUSH1 0xA PUSH1 0x20 MSTORE PUSH2 0x27A1 PUSH1 0xFF PUSH1 0x40 PUSH0 KECCAK256 SLOAD AND ISZERO PUSH2 0x2B4E JUMP JUMPDEST PUSH2 0x27A9 PUSH2 0x2D3D JUMP JUMPDEST PUSH1 0x1 DUP1 PUSH1 0xA0 SHL SUB DUP5 AND SWAP4 DUP5 PUSH0 MSTORE PUSH1 0x2 PUSH1 0x20 MSTORE PUSH1 0x40 PUSH0 KECCAK256 DUP7 PUSH0 MSTORE PUSH1 0x20 MSTORE DUP2 PUSH1 0x40 PUSH0 KECCAK256 SLOAD LT PUSH2 0x28E3 JUMPI DUP5 PUSH0 MSTORE PUSH1 0x5 PUSH1 0x20 MSTORE DUP2 PUSH1 0x40 PUSH0 KECCAK256 SLOAD LT PUSH2 0x2891 JUMPI PUSH32 0x266DB432DD60D996C5EACF4E77FB6E9D1642097FAD309F5FCE95908BB09E1594 SWAP4 PUSH2 0x286C DUP4 PUSH1 0x60 SWAP6 PUSH1 0xFF SWAP5 DUP10 PUSH0 MSTORE PUSH1 0x2 PUSH1 0x20 MSTORE PUSH1 0x40 PUSH0 KECCAK256 DUP12 PUSH0 MSTORE PUSH1 0x20 MSTORE PUSH1 0x40 PUSH0 KECCAK256 PUSH2 0x2830 DUP5 DUP3 SLOAD PUSH2 0x2BF5 JUMP JUMPDEST SWAP1 SSTORE DUP10 PUSH0 MSTORE PUSH1 0x5 PUSH1 0x20 MSTORE PUSH1 0x40 PUSH0 KECCAK256 PUSH2 0x2849 DUP5 DUP3 SLOAD PUSH2 0x2BF5 JUMP JUMPDEST SWAP1 SSTORE PUSH1 0x4 DUP12 DUP12 PUSH0 DUP1 MLOAD PUSH1 0x20 PUSH2 0x3127 DUP4 CODECOPY DUP2 MLOAD SWAP2 MSTORE PUSH1 0x40 MLOAD DUP1 PUSH2 0x1286 CALLER DUP11 DUP4 PUSH2 0x2D24 JUMP JUMPDEST PUSH1 0x40 MLOAD SWAP3 DUP4 MSTORE AND PUSH1 0x20 DUP3 ADD MSTORE CALLER PUSH1 0x40 DUP3 ADD MSTORE LOG3 PUSH0 PUSH0 DUP1 MLOAD PUSH1 0x20 PUSH2 0x3227 DUP4 CODECOPY DUP2 MLOAD SWAP2 MSTORE TSTORE STOP JUMPDEST PUSH1 0x40 MLOAD PUSH3 0x461BCD PUSH1 0xE5 SHL DUP2 MSTORE PUSH1 0x20 PUSH1 0x4 DUP3 ADD MSTORE PUSH1 0x37 PUSH1 0x24 DUP3 ADD MSTORE PUSH0 DUP1 MLOAD PUSH1 0x20 PUSH2 0x31C7 DUP4 CODECOPY DUP2 MLOAD SWAP2 MSTORE PUSH1 0x44 DUP3 ADD MSTORE PUSH23 0x6F7420656E6F75676820746F74616C2062616C616E6365 PUSH1 0x48 SHL PUSH1 0x64 DUP3 ADD MSTORE PUSH1 0x84 SWAP1 REVERT JUMPDEST PUSH1 0x40 MLOAD PUSH3 0x461BCD PUSH1 0xE5 SHL DUP2 MSTORE PUSH1 0x20 PUSH1 0x4 DUP3 ADD MSTORE PUSH1 0x31 PUSH1 0x24 DUP3 ADD MSTORE PUSH0 DUP1 MLOAD PUSH1 0x20 PUSH2 0x31C7 DUP4 CODECOPY DUP2 MLOAD SWAP2 MSTORE PUSH1 0x44 DUP3 ADD MSTORE PUSH17 0x6F7420656E6F7567682062616C616E6365 PUSH1 0x78 SHL PUSH1 0x64 DUP3 ADD MSTORE PUSH1 0x84 SWAP1 REVERT JUMPDEST PUSH1 0x4 CALLDATALOAD SWAP1 PUSH1 0x1 PUSH1 0x1 PUSH1 0xA0 SHL SUB DUP3 AND DUP3 SUB PUSH2 0x1DB JUMPI JUMP JUMPDEST PUSH1 0x24 CALLDATALOAD SWAP1 PUSH1 0x1 PUSH1 0x1 PUSH1 0xA0 SHL SUB DUP3 AND DUP3 SUB PUSH2 0x1DB JUMPI JUMP JUMPDEST PUSH1 0x44 CALLDATALOAD SWAP1 PUSH1 0x1 PUSH1 0x1 PUSH1 0xA0 SHL SUB DUP3 AND DUP3 SUB PUSH2 0x1DB JUMPI JUMP JUMPDEST PUSH1 0x80 SWAP1 PUSH1 0x3 NOT ADD SLT PUSH2 0x1DB JUMPI PUSH1 0x4 CALLDATALOAD PUSH1 0x1 PUSH1 0x1 PUSH1 0xA0 SHL SUB DUP2 AND DUP2 SUB PUSH2 0x1DB JUMPI SWAP1 PUSH1 0x24 CALLDATALOAD PUSH1 0x1 PUSH1 0x1 PUSH1 0xA0 SHL SUB DUP2 AND DUP2 SUB PUSH2 0x1DB JUMPI SWAP1 PUSH1 0x44 CALLDATALOAD SWAP1 PUSH1 0x64 CALLDATALOAD PUSH1 0xFF DUP2 AND DUP2 SUB PUSH2 0x1DB JUMPI SWAP1 JUMP JUMPDEST PUSH2 0x120 DUP2 ADD SWAP1 DUP2 LT PUSH1 0x1 PUSH1 0x1 PUSH1 0x40 SHL SUB DUP3 GT OR PUSH2 0x2638 JUMPI PUSH1 0x40 MSTORE JUMP JUMPDEST PUSH1 0x1F SWAP1 SWAP2 ADD PUSH1 0x1F NOT AND DUP2 ADD SWAP1 PUSH1 0x1 PUSH1 0x1 PUSH1 0x40 SHL SUB DUP3 GT SWAP1 DUP3 LT OR PUSH2 0x2638 JUMPI PUSH1 0x40 MSTORE JUMP JUMPDEST PUSH1 0x1 PUSH1 0x1 PUSH1 0x40 SHL SUB DUP2 GT PUSH2 0x2638 JUMPI PUSH1 0x1F ADD PUSH1 0x1F NOT AND PUSH1 0x20 ADD SWAP1 JUMP JUMPDEST SWAP3 SWAP2 SWAP3 PUSH2 0x2A1F DUP3 PUSH2 0x29F8 JUMP JUMPDEST SWAP2 PUSH2 0x2A2D PUSH1 0x40 MLOAD SWAP4 DUP5 PUSH2 0x29D5 JUMP JUMPDEST DUP3 SWAP5 DUP2 DUP5 MSTORE DUP2 DUP4 ADD GT PUSH2 0x1DB JUMPI DUP3 DUP2 PUSH1 0x20 SWAP4 DUP5 PUSH0 SWAP7 ADD CALLDATACOPY ADD ADD MSTORE JUMP JUMPDEST SWAP1 DUP1 PUSH1 0x1F DUP4 ADD SLT ISZERO PUSH2 0x1DB JUMPI DUP2 PUSH1 0x20 PUSH2 0x2A64 SWAP4 CALLDATALOAD SWAP2 ADD PUSH2 0x2A13 JUMP JUMPDEST SWAP1 JUMP JUMPDEST SWAP1 PUSH1 0x2 DUP3 LT ISZERO PUSH2 0x2611 JUMPI MSTORE JUMP JUMPDEST PUSH1 0x60 SWAP1 PUSH1 0x3 NOT ADD SLT PUSH2 0x1DB JUMPI PUSH1 0x4 CALLDATALOAD PUSH1 0x1 PUSH1 0x1 PUSH1 0xA0 SHL SUB DUP2 AND DUP2 SUB PUSH2 0x1DB JUMPI SWAP1 PUSH1 0x24 CALLDATALOAD PUSH1 0x1 PUSH1 0x1 PUSH1 0xA0 SHL SUB DUP2 AND DUP2 SUB PUSH2 0x1DB JUMPI SWAP1 PUSH1 0x44 CALLDATALOAD SWAP1 JUMP JUMPDEST DUP1 MLOAD DUP1 DUP4 MSTORE PUSH1 0x20 SWAP3 SWAP2 DUP2 SWAP1 DUP5 ADD DUP5 DUP5 ADD MCOPY PUSH0 DUP3 DUP3 ADD DUP5 ADD MSTORE PUSH1 0x1F ADD PUSH1 0x1F NOT AND ADD ADD SWAP1 JUMP JUMPDEST SWAP1 DUP2 PUSH1 0x20 SWAP2 SUB SLT PUSH2 0x1DB JUMPI MLOAD DUP1 ISZERO ISZERO DUP2 SUB PUSH2 0x1DB JUMPI SWAP1 JUMP JUMPDEST ISZERO PUSH2 0x2AF1 JUMPI JUMP JUMPDEST PUSH1 0x40 MLOAD PUSH3 0x461BCD PUSH1 0xE5 SHL DUP2 MSTORE PUSH1 0x20 PUSH1 0x4 DUP3 ADD MSTORE PUSH1 0x2F PUSH1 0x24 DUP3 ADD MSTORE PUSH32 0x42616C616E63654B65657065723A204F6E6C79206465616C2063616E2063616C PUSH1 0x44 DUP3 ADD MSTORE PUSH15 0x36103A3434B990333AB731BA34B7B7 PUSH1 0x89 SHL PUSH1 0x64 DUP3 ADD MSTORE PUSH1 0x84 SWAP1 REVERT JUMPDEST ISZERO PUSH2 0x2B55 JUMPI JUMP JUMPDEST PUSH1 0x40 MLOAD PUSH3 0x461BCD PUSH1 0xE5 SHL DUP2 MSTORE PUSH1 0x20 PUSH1 0x4 DUP3 ADD MSTORE PUSH1 0x29 PUSH1 0x24 DUP3 ADD MSTORE PUSH32 0x42616C616E63654B65657065723A2055736572206973207065726D616E656E74 PUSH1 0x44 DUP3 ADD MSTORE PUSH9 0x363C90333937BD32B7 PUSH1 0xB9 SHL PUSH1 0x64 DUP3 ADD MSTORE PUSH1 0x84 SWAP1 REVERT JUMPDEST SWAP2 SWAP1 DUP3 ADD DUP1 SWAP3 GT PUSH2 0x1C59 JUMPI JUMP JUMPDEST PUSH1 0x2 DUP3 LT ISZERO PUSH2 0x2611 JUMPI MSTORE JUMP JUMPDEST PUSH1 0xD SLOAD DUP2 LT ISZERO PUSH2 0x2BE1 JUMPI PUSH1 0xD PUSH0 MSTORE PUSH1 0x20 PUSH0 KECCAK256 SWAP1 PUSH1 0x3 SHL ADD SWAP1 PUSH0 SWAP1 JUMP JUMPDEST PUSH4 0x4E487B71 PUSH1 0xE0 SHL PUSH0 MSTORE PUSH1 0x32 PUSH1 0x4 MSTORE PUSH1 0x24 PUSH0 REVERT JUMPDEST SWAP2 SWAP1 DUP3 SUB SWAP2 DUP3 GT PUSH2 0x1C59 JUMPI JUMP JUMPDEST SWAP1 DUP2 PUSH1 0x20 SWAP2 SUB SLT PUSH2 0x1DB JUMPI MLOAD PUSH1 0x1 PUSH1 0x1 PUSH1 0xA0 SHL SUB DUP2 AND DUP2 SUB PUSH2 0x1DB JUMPI SWAP1 JUMP JUMPDEST ISZERO PUSH2 0x2C28 JUMPI JUMP JUMPDEST PUSH1 0x40 MLOAD PUSH3 0x461BCD PUSH1 0xE5 SHL DUP2 MSTORE PUSH1 0x20 PUSH1 0x4 DUP3 ADD MSTORE PUSH1 0x36 PUSH1 0x24 DUP3 ADD MSTORE PUSH0 DUP1 MLOAD PUSH1 0x20 PUSH2 0x3167 DUP4 CODECOPY DUP2 MLOAD SWAP2 MSTORE PUSH1 0x44 DUP3 ADD MSTORE PUSH22 0x31B0B71031B0B636103A3434B990333AB731BA34B7B7 PUSH1 0x51 SHL PUSH1 0x64 DUP3 ADD MSTORE PUSH1 0x84 SWAP1 REVERT JUMPDEST PUSH1 0x1 PUSH1 0x1 PUSH1 0x40 SHL SUB DUP2 GT PUSH2 0x2638 JUMPI PUSH1 0x5 SHL PUSH1 0x20 ADD SWAP1 JUMP JUMPDEST DUP1 MLOAD DUP3 LT ISZERO PUSH2 0x2BE1 JUMPI PUSH1 0x20 SWAP2 PUSH1 0x5 SHL ADD ADD SWAP1 JUMP JUMPDEST ISZERO PUSH2 0x2CAB JUMPI JUMP JUMPDEST PUSH1 0x40 MLOAD PUSH3 0x461BCD PUSH1 0xE5 SHL DUP2 MSTORE PUSH1 0x20 PUSH1 0x4 DUP3 ADD MSTORE PUSH1 0x30 PUSH1 0x24 DUP3 ADD MSTORE PUSH32 0x42616C616E63654B65657065723A204F6E6C79206F776E65722063616E206361 PUSH1 0x44 DUP3 ADD MSTORE PUSH16 0x3636103A3434B990333AB731BA34B7B7 PUSH1 0x81 SHL PUSH1 0x64 DUP3 ADD MSTORE PUSH1 0x84 SWAP1 REVERT JUMPDEST PUSH1 0x1 PUSH1 0x1 PUSH1 0xA0 SHL SUB SWAP1 SWAP2 AND DUP2 MSTORE PUSH1 0x20 DUP2 ADD SWAP2 SWAP1 SWAP2 MSTORE PUSH1 0x40 ADD SWAP1 JUMP JUMPDEST SWAP1 DUP2 MSTORE PUSH1 0x1 PUSH1 0x1 PUSH1 0xA0 SHL SUB SWAP1 SWAP2 AND PUSH1 0x20 DUP3 ADD MSTORE PUSH1 0x40 ADD SWAP1 JUMP JUMPDEST PUSH0 DUP1 MLOAD PUSH1 0x20 PUSH2 0x3227 DUP4 CODECOPY DUP2 MLOAD SWAP2 MSTORE TLOAD PUSH2 0x2D63 JUMPI PUSH1 0x1 PUSH0 DUP1 MLOAD PUSH1 0x20 PUSH2 0x3227 DUP4 CODECOPY DUP2 MLOAD SWAP2 MSTORE TSTORE JUMP JUMPDEST PUSH4 0x3EE5AEB5 PUSH1 0xE0 SHL PUSH0 MSTORE PUSH1 0x4 PUSH0 REVERT JUMPDEST PUSH2 0x19AF PUSH2 0x2DA7 SWAP4 SWAP3 PUSH2 0x2D99 PUSH1 0x40 MLOAD SWAP5 DUP6 SWAP3 PUSH4 0xA9059CBB PUSH1 0xE0 SHL PUSH1 0x20 DUP6 ADD MSTORE PUSH1 0x24 DUP5 ADD PUSH2 0x2D09 JUMP JUMPDEST SUB PUSH1 0x1F NOT DUP2 ADD DUP5 MSTORE DUP4 PUSH2 0x29D5 JUMP JUMPDEST JUMP JUMPDEST PUSH1 0x64 EXTCODESIZE ISZERO PUSH2 0x2E08 JUMPI PUSH1 0x40 MLOAD PUSH4 0xA3B1B31D PUSH1 0xE0 SHL DUP2 MSTORE PUSH1 0x20 DUP2 PUSH1 0x4 DUP2 PUSH1 0x64 GAS STATICCALL SWAP1 DUP2 ISZERO PUSH2 0xE6A JUMPI PUSH0 SWAP2 PUSH2 0x2DD9 JUMPI POP SWAP1 JUMP JUMPDEST SWAP1 POP PUSH1 0x20 DUP2 RETURNDATASIZE PUSH1 0x20 GT PUSH2 0x2E00 JUMPI JUMPDEST DUP2 PUSH2 0x2DF4 PUSH1 0x20 SWAP4 DUP4 PUSH2 0x29D5 JUMP JUMPDEST DUP2 ADD SUB SLT PUSH2 0x1DB JUMPI MLOAD SWAP1 JUMP JUMPDEST RETURNDATASIZE SWAP2 POP PUSH2 0x2DE7 JUMP JUMPDEST NUMBER SWAP1 JUMP JUMPDEST PUSH0 SLOAD PUSH1 0x40 MLOAD PUSH4 0x8DA5CB5B PUSH1 0xE0 SHL DUP2 MSTORE SWAP1 PUSH1 0x20 SWAP1 DUP3 SWAP1 PUSH1 0x4 SWAP1 DUP3 SWAP1 PUSH1 0x1 PUSH1 0x1 PUSH1 0xA0 SHL SUB AND GAS STATICCALL SWAP1 DUP2 ISZERO PUSH2 0xE6A JUMPI PUSH0 SWAP2 PUSH2 0x2E42 JUMPI POP SWAP1 JUMP JUMPDEST PUSH2 0x2A64 SWAP2 POP PUSH1 0x20 RETURNDATASIZE PUSH1 0x20 GT PUSH2 0x20A6 JUMPI PUSH2 0x2098 DUP2 DUP4 PUSH2 0x29D5 JUMP JUMPDEST PUSH1 0x1 DUP1 PUSH1 0xA0 SHL SUB AND DUP1 PUSH0 MSTORE PUSH1 0xA PUSH1 0x20 MSTORE PUSH1 0x40 PUSH0 KECCAK256 PUSH1 0x1 PUSH1 0xFF NOT DUP3 SLOAD AND OR SWAP1 SSTORE PUSH0 DUP1 MLOAD PUSH1 0x20 PUSH2 0x3147 DUP4 CODECOPY DUP2 MLOAD SWAP2 MSTORE PUSH1 0x40 DUP1 MLOAD PUSH1 0x1 DUP2 MSTORE CALLER PUSH1 0x20 DUP3 ADD MSTORE LOG2 JUMP JUMPDEST PUSH1 0x1 DUP1 PUSH1 0xA0 SHL SUB AND DUP1 PUSH0 MSTORE PUSH1 0x2 PUSH1 0x20 MSTORE PUSH1 0x40 PUSH0 KECCAK256 PUSH1 0x1 DUP1 PUSH1 0xA0 SHL SUB DUP4 AND PUSH0 MSTORE PUSH1 0x20 MSTORE PUSH1 0x40 PUSH0 KECCAK256 SLOAD SWAP2 DUP3 ISZERO PUSH2 0x3006 JUMPI DUP2 PUSH0 MSTORE PUSH1 0x5 PUSH1 0x20 MSTORE DUP3 PUSH1 0x40 PUSH0 KECCAK256 SLOAD LT PUSH2 0x2FB6 JUMPI PUSH2 0x2FB1 PUSH32 0x8D6AA7CD13E7031D191D6FA5505E7BCA293B15B474585BD0748C94280A1DFB0C SWAP2 DUP4 PUSH0 MSTORE PUSH1 0x8 PUSH1 0x20 MSTORE PUSH1 0x40 PUSH0 KECCAK256 PUSH1 0x1 DUP1 PUSH1 0xA0 SHL SUB DUP3 AND PUSH0 MSTORE PUSH1 0x20 MSTORE PUSH1 0x40 PUSH0 KECCAK256 PUSH2 0x2F28 DUP7 DUP3 SLOAD PUSH2 0x2BAC JUMP JUMPDEST SWAP1 SSTORE DUP4 PUSH0 MSTORE PUSH1 0x9 PUSH1 0x20 MSTORE PUSH1 0x40 PUSH0 KECCAK256 PUSH2 0x2F41 DUP7 DUP3 SLOAD PUSH2 0x2BAC JUMP JUMPDEST SWAP1 SSTORE DUP4 PUSH0 MSTORE PUSH1 0x2 PUSH1 0x20 MSTORE PUSH1 0x40 PUSH0 KECCAK256 PUSH1 0x1 DUP1 PUSH1 0xA0 SHL SUB DUP3 AND PUSH0 MSTORE PUSH1 0x20 MSTORE PUSH1 0x40 PUSH0 KECCAK256 PUSH2 0x2F6C DUP7 DUP3 SLOAD PUSH2 0x2BF5 JUMP JUMPDEST SWAP1 SSTORE DUP4 PUSH0 MSTORE PUSH1 0x5 PUSH1 0x20 MSTORE PUSH1 0x40 PUSH0 KECCAK256 PUSH2 0x2F85 DUP7 DUP3 SLOAD PUSH2 0x2BF5 JUMP JUMPDEST SWAP1 SSTORE PUSH1 0x1 DUP1 PUSH1 0xA0 SHL SUB AND SWAP4 PUSH1 0x6 DUP6 DUP6 PUSH0 DUP1 MLOAD PUSH1 0x20 PUSH2 0x3127 DUP4 CODECOPY DUP2 MLOAD SWAP2 MSTORE PUSH1 0x40 MLOAD DUP1 PUSH2 0x1478 CALLER DUP9 DUP4 PUSH2 0x2D24 JUMP JUMPDEST SUB SWAP1 LOG3 JUMP JUMPDEST PUSH1 0x40 MLOAD PUSH3 0x461BCD PUSH1 0xE5 SHL DUP2 MSTORE PUSH1 0x20 PUSH1 0x4 DUP3 ADD MSTORE PUSH1 0x35 PUSH1 0x24 DUP3 ADD MSTORE PUSH0 DUP1 MLOAD PUSH1 0x20 PUSH2 0x31A7 DUP4 CODECOPY DUP2 MLOAD SWAP2 MSTORE PUSH1 0x44 DUP3 ADD MSTORE PUSH21 0x20656E6F75676820746F74616C2062616C616E6365 PUSH1 0x58 SHL PUSH1 0x64 DUP3 ADD MSTORE PUSH1 0x84 SWAP1 REVERT JUMPDEST PUSH1 0x40 MLOAD PUSH3 0x461BCD PUSH1 0xE5 SHL DUP2 MSTORE PUSH1 0x20 PUSH1 0x4 DUP3 ADD MSTORE PUSH1 0x2F PUSH1 0x24 DUP3 ADD MSTORE PUSH0 DUP1 MLOAD PUSH1 0x20 PUSH2 0x31A7 DUP4 CODECOPY DUP2 MLOAD SWAP2 MSTORE PUSH1 0x44 DUP3 ADD MSTORE PUSH15 0x20656E6F7567682062616C616E6365 PUSH1 0x88 SHL PUSH1 0x64 DUP3 ADD MSTORE PUSH1 0x84 SWAP1 REVERT JUMPDEST SWAP1 PUSH0 PUSH1 0x20 SWAP2 DUP3 DUP2 MLOAD SWAP2 ADD DUP3 DUP6 GAS CALL ISZERO PUSH2 0xE6A JUMPI PUSH0 MLOAD RETURNDATASIZE PUSH2 0x309F JUMPI POP PUSH1 0x1 PUSH1 0x1 PUSH1 0xA0 SHL SUB DUP2 AND EXTCODESIZE ISZERO JUMPDEST PUSH2 0x307F JUMPI POP JUMP JUMPDEST PUSH4 0x5274AFE7 PUSH1 0xE0 SHL PUSH0 SWAP1 DUP2 MSTORE PUSH1 0x1 PUSH1 0x1 PUSH1 0xA0 SHL SUB SWAP2 SWAP1 SWAP2 AND PUSH1 0x4 MSTORE PUSH1 0x24 SWAP1 REVERT JUMPDEST PUSH1 0x1 EQ ISZERO PUSH2 0x3078 JUMP JUMPDEST SWAP1 PUSH2 0x30CC JUMPI POP DUP1 MLOAD ISZERO PUSH2 0x30BD JUMPI DUP1 MLOAD SWAP1 PUSH1 0x20 ADD REVERT JUMPDEST PUSH4 0xD6BDA275 PUSH1 0xE0 SHL PUSH0 MSTORE PUSH1 0x4 PUSH0 REVERT JUMPDEST DUP2 MLOAD ISZERO DUP1 PUSH2 0x30FD JUMPI JUMPDEST PUSH2 0x30DD JUMPI POP SWAP1 JUMP JUMPDEST PUSH4 0x9996B315 PUSH1 0xE0 SHL PUSH0 SWAP1 DUP2 MSTORE PUSH1 0x1 PUSH1 0x1 PUSH1 0xA0 SHL SUB SWAP2 SWAP1 SWAP2 AND PUSH1 0x4 MSTORE PUSH1 0x24 SWAP1 REVERT JUMPDEST POP DUP1 EXTCODESIZE ISZERO PUSH2 0x30D5 JUMP INVALID TIMESTAMP PUSH2 0x6C61 PUSH15 0x63654B65657065723A206D6F766542 PUSH2 0x6C61 PUSH15 0x6365546F4465616C69BEE883171CCA CODESIZE GASLIMIT EXTCODECOPY 0xBB SWAP8 0xAD 0xC8 BASEFEE TIMESTAMP MCOPY LOG4 DUP15 LOG1 0xB0 0xFC 0xC4 0xC MSTORE8 0xAB 0xC3 0x2E RETURNDATACOPY 0xF7 0xB0 0xE5 0xEB 0xBE 0x21 0xD9 LOG1 0xCF OR 0x26 SLT SWAP2 0xD0 DIV 0xEB DUP6 0x25 0x23 ISZERO 0xDC 0xFC 0xBE 0xB7 PUSH25 0xEB74EA43763E23BED0342616C616E63654B65657065723A20 0x4F PUSH15 0x6C7920636F6F7264696E61746F7220 TIMESTAMP PUSH2 0x6C61 PUSH15 0x63654B65657065723A207769746864 PUSH19 0x6177526571756573743A2042616C616E63654B PUSH6 0x657065723A20 PUSH0 PUSH20 0x656E64546F4C696D626F3A206E6F7442616C616E PUSH4 0x654B6565 PUSH17 0x65723A2077697468647261774279446561 PUSH13 0x3A206E360894A13BA1A3210667 0xC8 0x28 BLOBHASH 0x2D 0xB9 DUP14 0xCA RETURNDATACOPY KECCAK256 PUSH23 0xCC3735A920A3CA505D382BBC8A574E0EE9236BF8A1F162 TLOAD 0xCA PUSH2 0x3113 0x1E DELEGATECALL 0xFB LOG2 0xE0 GAS 0xAA XOR 0x4E SWAP4 SWAP12 LOG4 0xDA CODECOPY PUSH29 0x8A9B779B17422D0DF92223018B32B4D1FA46E071723D6817E2486D003B 0xEC 0xC5 PUSH0 STOP CREATE 0xC5 PUSH31 0x16840DF040F15088DC2F81FE391C3923BEC73E23A9662EFC9C229C6A004261 PUSH13 0x616E63654B65657065723A206D PUSH16 0x766542616C616E636546726F6D446542 PUSH2 0x6C61 PUSH15 0x63654B65657065723A20766F646F70 PUSH2 0x6457 PUSH10 0x7468647261773A20A264 PUSH10 0x70667358221220482F84 PUSH15 0xC3FAD9F5C4A2898FBAB36A1E0FA7F4 0x24 BLOBHASH 0xB5 0xDA 0xD6 SWAP6 0xD9 0xB2 0x4B XOR 0xB1 BALANCE PUSH28 0x64736F6C634300081A00330000000000000000000000000000000000 ","linkReferences":{}},"methodIdentifiers":{"UPGRADE_INTERFACE_VERSION()":"ad3cb1cc","WITHDRAW_REQUEST_DELAY()":"fac4bf22","coordinator()":"0a009097","dealBalancesTotal(address)":"1229add5","diamond()":"f0b7db4e","disableOnchainRefund()":"9cf8fc36","enableOnchainRefund()":"3adce715","freeBalanceTotal(address)":"933a6d5e","freezeAccount(address)":"f26c159f","frozen(address)":"d0516650","fundFromLimbo(address,address,uint256)":"7fad6401","getDepositInfo(uint256,uint256)":"3bf9bb0b","getDepositInfoLength()":"04930575","getFreeBalance(address,address)":"de700da6","getFullBalance(address,address)":"d4f4ba48","initialize(address)":"c4d66de8","limbo(address,address)":"ae77dc10","limboTotal(address)":"c44ead3c","manualWithdrawEnabled()":"1e4343ec","moveBalanceFromDeal(address,address,uint256,uint8)":"88081fcb","moveBalanceToDeal(address,address,uint256,uint8)":"116424cc","moveFreeBalance(address,address,address,uint256,uint8)":"95e1b418","poolBalance(address)":"68abb5e0","poolTopUp(address,uint256)":"3eb026af","poolWithdraw(address,uint256)":"db2aa127","proxiableUUID()":"52d1902d","refund(address,address,uint256)":"82ad6f35","sendToLimbo(address,address)":"ec178c13","setCoordinator(address)":"8ea98117","terminate(address)":"edb45529","terminationRequest(address)":"301aaac9","terminationVeto(address,address)":"7df5070f","topUpIds(string)":"c08ea6e6","unfreezeAccount(address)":"788649ea","upgradeToAndCall(address,bytes)":"4f1ef286","userTopUp(address,address,uint256,string)":"31acc942","withdrawByDeal(address,address,uint256,uint8)":"01627f56","withdrawFromLimbo(address,address,address,uint256)":"985a3e1a"}}}}}