{"abi":[{"type":"constructor","inputs":[{"name":"initialFltPrice","type":"uint256","internalType":"uint256"}],"stateMutability":"nonpayable"},{"type":"function","name":"EPOCH_DURATION","inputs":[],"outputs":[{"name":"","type":"uint256","internalType":"uint256"}],"stateMutability":"view"},{"type":"function","name":"INITIAL_EPOCH","inputs":[],"outputs":[{"name":"","type":"uint256","internalType":"uint256"}],"stateMutability":"view"},{"type":"function","name":"activeUnitCount","inputs":[],"outputs":[{"name":"","type":"uint256","internalType":"uint256"}],"stateMutability":"view"},{"type":"function","name":"calculateRewardPool","inputs":[],"outputs":[],"stateMutability":"nonpayable"},{"type":"function","name":"currentEpoch","inputs":[],"outputs":[{"name":"","type":"uint256","internalType":"uint256"}],"stateMutability":"view"},{"type":"function","name":"difficulty","inputs":[],"outputs":[{"name":"","type":"bytes32","internalType":"bytes32"}],"stateMutability":"view"},{"type":"function","name":"epochDuration","inputs":[],"outputs":[{"name":"","type":"uint256","internalType":"uint256"}],"stateMutability":"view"},{"type":"function","name":"epochTimestamp","inputs":[{"name":"epoch","type":"uint256","internalType":"uint256"}],"outputs":[{"name":"","type":"uint256","internalType":"uint256"}],"stateMutability":"view"},{"type":"function","name":"fltCollateralPerUnit","inputs":[],"outputs":[{"name":"","type":"uint256","internalType":"uint256"}],"stateMutability":"view"},{"type":"function","name":"fltPrice","inputs":[],"outputs":[{"name":"","type":"uint256","internalType":"uint256"}],"stateMutability":"view"},{"type":"function","name":"fltPriceAtEpoch","inputs":[{"name":"epoch","type":"uint256","internalType":"uint256"}],"outputs":[{"name":"","type":"uint256","internalType":"uint256"}],"stateMutability":"view"},{"type":"function","name":"getRewardPool","inputs":[{"name":"epoch","type":"uint256","internalType":"uint256"}],"outputs":[{"name":"","type":"uint256","internalType":"uint256"}],"stateMutability":"view"},{"type":"function","name":"init","inputs":[{"name":"initArgs","type":"tuple","internalType":"struct ICapacityConst.CapacityConstInitArgs","components":[{"name":"fltPrice","type":"uint256","internalType":"uint256"},{"name":"fltPriceUpdatePeriod","type":"uint256","internalType":"uint256"},{"name":"usdCollateralPerUnit","type":"uint256","internalType":"uint256"},{"name":"usdTargetRevenuePerEpoch","type":"uint256","internalType":"uint256"},{"name":"minDuration","type":"uint256","internalType":"uint256"},{"name":"maxDuration","type":"uint256","internalType":"uint256"},{"name":"minCUPerCommitment","type":"uint256","internalType":"uint256"},{"name":"maxCUPerCommitment","type":"uint256","internalType":"uint256"},{"name":"minRewardPerEpoch","type":"uint256","internalType":"uint256"},{"name":"maxRewardPerEpoch","type":"uint256","internalType":"uint256"},{"name":"vestingPeriodDuration","type":"uint256","internalType":"uint256"},{"name":"vestingPeriodCount","type":"uint256","internalType":"uint256"},{"name":"slashingRate","type":"uint256","internalType":"uint256"},{"name":"minProofsPerEpoch","type":"uint256","internalType":"uint256"},{"name":"maxProofsPerEpoch","type":"uint256","internalType":"uint256"},{"name":"withdrawEpochsAfterFailed","type":"uint256","internalType":"uint256"},{"name":"maxFailedRatio","type":"uint256","internalType":"uint256"},{"name":"difficulty","type":"bytes32","internalType":"bytes32"},{"name":"initRewardPool","type":"uint256","internalType":"uint256"},{"name":"randomXProxy","type":"address","internalType":"address"},{"name":"oracle","type":"address","internalType":"address"}]}],"outputs":[],"stateMutability":"nonpayable"},{"type":"function","name":"initTimestamp","inputs":[],"outputs":[{"name":"","type":"uint256","internalType":"uint256"}],"stateMutability":"view"},{"type":"function","name":"maxCUPerCommitment","inputs":[],"outputs":[{"name":"","type":"uint256","internalType":"uint256"}],"stateMutability":"view"},{"type":"function","name":"maxDuration","inputs":[],"outputs":[{"name":"","type":"uint256","internalType":"uint256"}],"stateMutability":"view"},{"type":"function","name":"maxFailedRatio","inputs":[],"outputs":[{"name":"","type":"uint256","internalType":"uint256"}],"stateMutability":"view"},{"type":"function","name":"maxProofsPerEpoch","inputs":[],"outputs":[{"name":"","type":"uint256","internalType":"uint256"}],"stateMutability":"view"},{"type":"function","name":"maxRewardPerEpoch","inputs":[],"outputs":[{"name":"","type":"uint256","internalType":"uint256"}],"stateMutability":"view"},{"type":"function","name":"meanFltPrice","inputs":[{"name":"fromEpoch","type":"uint256","internalType":"uint256"},{"name":"toEpoch","type":"uint256","internalType":"uint256"}],"outputs":[{"name":"","type":"uint256","internalType":"uint256"}],"stateMutability":"view"},{"type":"function","name":"minCUPerCommitment","inputs":[],"outputs":[{"name":"","type":"uint256","internalType":"uint256"}],"stateMutability":"view"},{"type":"function","name":"minDuration","inputs":[],"outputs":[{"name":"","type":"uint256","internalType":"uint256"}],"stateMutability":"view"},{"type":"function","name":"minProofsPerEpoch","inputs":[],"outputs":[{"name":"","type":"uint256","internalType":"uint256"}],"stateMutability":"view"},{"type":"function","name":"minRewardPerEpoch","inputs":[],"outputs":[{"name":"","type":"uint256","internalType":"uint256"}],"stateMutability":"view"},{"type":"function","name":"oracle","inputs":[],"outputs":[{"name":"","type":"address","internalType":"address"}],"stateMutability":"view"},{"type":"function","name":"randomXProxy","inputs":[],"outputs":[{"name":"","type":"address","internalType":"address"}],"stateMutability":"view"},{"type":"function","name":"setActiveUnitCount","inputs":[{"name":"activeUnitCount_","type":"uint256","internalType":"uint256"}],"outputs":[],"stateMutability":"nonpayable"},{"type":"function","name":"setCapacityConstant","inputs":[{"name":"constantType","type":"uint8","internalType":"enum ICapacityConst.CapacityConstantType"},{"name":"v","type":"uint256","internalType":"uint256"}],"outputs":[],"stateMutability":"nonpayable"},{"type":"function","name":"setDifficulty","inputs":[{"name":"difficulty_","type":"bytes32","internalType":"bytes32"}],"outputs":[],"stateMutability":"nonpayable"},{"type":"function","name":"setFLTPrice","inputs":[{"name":"fltPrice_","type":"uint256","internalType":"uint256"}],"outputs":[],"stateMutability":"nonpayable"},{"type":"function","name":"setOracle","inputs":[{"name":"oracle_","type":"address","internalType":"address"}],"outputs":[],"stateMutability":"nonpayable"},{"type":"function","name":"slashingRate","inputs":[],"outputs":[{"name":"","type":"uint256","internalType":"uint256"}],"stateMutability":"view"},{"type":"function","name":"usdCollateralPerUnit","inputs":[],"outputs":[{"name":"","type":"uint256","internalType":"uint256"}],"stateMutability":"view"},{"type":"function","name":"usdTargetRevenuePerEpoch","inputs":[],"outputs":[{"name":"","type":"uint256","internalType":"uint256"}],"stateMutability":"view"},{"type":"function","name":"vestingPeriodCount","inputs":[],"outputs":[{"name":"","type":"uint256","internalType":"uint256"}],"stateMutability":"view"},{"type":"function","name":"vestingPeriodDuration","inputs":[],"outputs":[{"name":"","type":"uint256","internalType":"uint256"}],"stateMutability":"view"},{"type":"function","name":"withdrawEpochsAfterFailed","inputs":[],"outputs":[{"name":"","type":"uint256","internalType":"uint256"}],"stateMutability":"view"},{"type":"event","name":"CapacityConstantUpdated","inputs":[{"name":"constantType","type":"uint8","indexed":false,"internalType":"enum ICapacityConst.CapacityConstantType"},{"name":"newValue","type":"uint256","indexed":false,"internalType":"uint256"}],"anonymous":false},{"type":"event","name":"DifficultyUpdated","inputs":[{"name":"difficulty","type":"bytes32","indexed":false,"internalType":"bytes32"}],"anonymous":false},{"type":"event","name":"FLTPriceUpdated","inputs":[{"name":"newValue","type":"uint256","indexed":false,"internalType":"uint256"}],"anonymous":false},{"type":"event","name":"Init","inputs":[{"name":"","type":"uint256","indexed":false,"internalType":"uint256"}],"anonymous":true},{"type":"event","name":"OracleSet","inputs":[{"name":"oracle","type":"address","indexed":false,"internalType":"address"}],"anonymous":false}],"bytecode":{"object":"0x608034609f5761245d9038829003601f8101601f191682016001600160401b0381118382101760a3576020938291604052833981010312609f577fc8fcad8db84d3cc18b4c41d551ea0ee66dd599cde068d998e57d5e09332c132080546001600160a01b03191633179055620151807f7d4f8ec43464738265ced6b7ed5f90007e9b7c34318bdd82d9249328b50bd358556040516123a590816100b88239f35b5f80fd5b634e487b7160e01b5f52604160045260245ffdfe60806040526004361015610011575f80fd5b5f3560e01c80630640d9411461134e57806312d693571461131057806313baa069146112e757806319cae462146112cd57806322cafa3a146112a4578063280c5e511461127b57806332da089e1461125d5780633932dbf5146111c35780634828bdf9146111635780634ff0876a1461113a5780634ff3dfd61461111157806356715761146110e85780635c11f4d4146110bf5780635cfa91f4146110a15780635ff244911461107857806366aaf7b91461104f5780636daecfbe14610a125780636db5c8fd146109e95780636f167977146109c05780637358c57a1461099757806376671808146109755780637adbf973146108b15780637dc0d1d01461087d5780637e81538114610854578063800fe1251461082b5780638b2e44d2146107f0578063919f49f9146107bc5780639ef9017614610793578063a376fb911461076a578063a70b9f0c1461074d578063b49b075814610714578063c2bae292146106eb578063dad01895146106c2578063e2175090146105d5578063e79c6270146105ac578063e7fe978a146101cf5763f9a06a9f146101b0575f80fd5b346101cb575f3660031901126101cb57602060405160018152f35b5f80fd5b346101cb576102a03660031901126101cb576040516102a081016001600160401b0381118282101761059857604090815260043582526024356020830152604435908201526064356060820152608435608082015260a43560a082015260c43560c082015260e43560e082015261010435610100820152610124356101208201526101443561014082015261016435610160820152610184356101808201526101a4356101a08201526101c4356101c08201526101e4356101e0820152610204356102008201526102243561022082015261024435610240820152610264356001600160a01b03811681036101cb57610260820152610284356001600160a01b03811681036101cb5761028082015260206040516101118152a080519060208101515f80516020612130833981519152905f80516020612010833981519152556103305f805160206120108339815191525461032b814261153a565b611465565b9055815f80516020611ff083398151915255610359825f80516020612230833981519152611832565b81156105845761038161056892655af3107a4000045f80516020612250833981519152611832565b60808101515f80516020611fd08339815191525560a08101515f805160206122b08339815191525560c08101515f80516020611f708339815191525560e08101515f805160206120d08339815191525560408101515f80516020612350833981519152556101808101515f80516020612210833981519152556101e08101515f80516020612050833981519152556102008101515f805160206121b08339815191525560608101515f80516020611fb0833981519152556101008101515f80516020612190833981519152556101208101515f805160206122f0833981519152556101408101515f80516020611f90833981519152556101608101515f80516020612170833981519152556101a08101515f805160206121f0833981519152556101c08101515f80516020612110833981519152556102208101515f805160206122d08339815191528190555f80516020612030833981519152556102608101515f805160206120f083398151915280546001600160a01b039283166001600160a01b0319918216179091556102808301515f80516020612270833981519152805491909316911617905561024081015161055b9061053e611377565b906001825260208201525f80516020611f508339815191526113d0565b60408101519051906117d2565b5f805160206120b08339815191525560206040516102228152a0005b634e487b7160e01b5f52601260045260245ffd5b634e487b7160e01b5f52604160045260245ffd5b346101cb575f3660031901126101cb5760205f805160206121f083398151915254604051908152f35b346101cb5760203660031901126101cb575f8051602061227083398151915254600435906001600160a01b0316330361067d576020816106357fd1deff9e525a11d14a1263bcc0b80d6863292470cc5c6e5c433dfdeaa7ef0e2d9361186d565b61064d5f805160206120908339815191525482611636565b610665815f80516020612350833981519152546117d2565b5f805160206120b083398151915255604051908152a1005b60405162461bcd60e51b815260206004820152601d60248201527f4f6e6c79206f7261636c652063616e2073657420464c542070726963650000006044820152606490fd5b346101cb575f3660031901126101cb5760205f8051602061217083398151915254604051908152f35b346101cb575f3660031901126101cb5760205f805160206120d083398151915254604051908152f35b346101cb575f3660031901126101cb5761074b5f80516020611ff0833981519152545f805160206120908339815191525490611636565b005b346101cb575f3660031901126101cb576020604051620151808152f35b346101cb575f3660031901126101cb5760205f805160206121b083398151915254604051908152f35b346101cb575f3660031901126101cb5760205f80516020611f7083398151915254604051908152f35b346101cb575f3660031901126101cb575f805160206120f0833981519152546040516001600160a01b039091168152602090f35b346101cb5760203660031901126101cb5761074b600435805f80516020612090833981519152555f80516020611ff083398151915254611636565b346101cb575f3660031901126101cb5760205f805160206122f083398151915254604051908152f35b346101cb575f3660031901126101cb5760205f8051602061209083398151915254604051908152f35b346101cb575f3660031901126101cb575f80516020612270833981519152546040516001600160a01b039091168152602090f35b346101cb5760203660031901126101cb576004356001600160a01b038116908190036101cb576108df6114b7565b8015610931575f8051602061227083398151915280546001600160a01b031916821790556040519081527f3f32684a32a11dabdbb8c0177de80aa3ae36a004d75210335b49e544e48cd0aa90602090a1005b606460405162461bcd60e51b815260206004820152602060248201527f4f7261636c652073686f756c646e2774206265207a65726f20616464726573736044820152fd5b346101cb575f3660031901126101cb57602061098f611544565b604051908152f35b346101cb575f3660031901126101cb5760205f8051602061233083398151915254604051908152f35b346101cb575f3660031901126101cb5760205f8051602061205083398151915254604051908152f35b346101cb575f3660031901126101cb5760205f805160206122b083398151915254604051908152f35b346101cb5760403660031901126101cb57600435600d8110156101cb5760243590610a3b6114b7565b5f81610b55578215610b0e575f805160206122b0833981519152548311610ab857825f80516020611fd0833981519152555b60405190610aa4577f12ef687a8e3257309ee19f0dd17e311b1e2d18c1d585528c4116af913b0c4af79260409282526020820152a1005b634e487b7160e01b5f52602160045260245ffd5b60405162461bcd60e51b815260206004820152603b60248201525f8051602061207083398151915260448201527a206e6f74206265206c6172676572207468616e206d6178696d756d60281b6064820152608490fd5b60405162461bcd60e51b815260206004820152602c60248201525f8051602061207083398151915260448201526b20626520706f73697469766560a01b6064820152608490fd5b505f60018203610bf257825f80516020611fd08339815191525411610b8a57825f805160206122b0833981519152555b610a6d565b60405162461bcd60e51b815260206004820152603a60248201527f6d6178696d756d20636f6d6d69746d656e74206475726174696f6e206d757374604482015279206e6f74206265206c6f776572207468616e206d696e696d756d60301b6064820152608490fd5b505f60028203610cdf578215610c90575f805160206120d0833981519152548311610c2c57825f80516020611f7083398151915255610a6d565b60405162461bcd60e51b815260206004820152604360248201525f8051602061231083398151915260448201527f656e74206d757374206e6f74206265206c6172676572207468616e206d6178696064820152626d756d60e81b608482015260a490fd5b60405162461bcd60e51b815260206004820152603460248201525f80516020612310833981519152604482015273656e74206d75737420626520706f73697469766560601b6064820152608490fd5b505f60038203610d8957825f80516020611f708339815191525411610d1357825f805160206120d083398151915255610a6d565b60405162461bcd60e51b815260206004820152604260248201527f6d6178696d756d206e756d626572206f662043557320696e20636f6d6d69746d60448201527f656e74206d757374206e6f74206265206c6f776572207468616e206d696e696d606482015261756d60f01b608482015260a490fd5b505f60048203610dcf57825f8051602061235083398151915255610dbb5f80516020611ff083398151915254846117d2565b5f805160206120b083398151915255610a6d565b505f60058203610dee57825f8051602061221083398151915255610a6d565b505f60068203610e0d57825f8051602061205083398151915255610a6d565b505f60078203610e2c57825f805160206121b083398151915255610a6d565b505f60088203610e6d57825f80516020611fb083398151915255610b855f80516020611ff0833981519152545f805160206120908339815191525490611636565b505f60098203610e8c57825f8051602061219083398151915255610a6d565b505f600a8203610eab57825f805160206122f083398151915255610a6d565b505f600b8203610f55575f80516020612110833981519152548311610edf57825f805160206121f083398151915255610a6d565b60405162461bcd60e51b815260206004820152604260248201527f6d696e696d756d206e756d626572206f662070726f6f6673207065722065706f60448201527f6368206d757374206e6f74206265206c6172676572207468616e206d6178696d606482015261756d60f01b608482015260a490fd5b505f600c8203610fff57825f805160206121f08339815191525411610f8957825f8051602061211083398151915255610a6d565b60405162461bcd60e51b815260206004820152604260248201527f6d6178696d756d206e756d626572206f662070726f6f6673207065722065706f60448201527f6368206d757374206e6f74206265206c6172676572207468616e206d696e696d606482015261756d60f01b608482015260a490fd5b60405162461bcd60e51b815260206004820152602260248201527f476c6f62616c436f6e73743a20756e6b6e6f776e20636f6e7374616e74207479604482015261706560f01b6064820152608490fd5b346101cb575f3660031901126101cb5760205f80516020611fb083398151915254604051908152f35b346101cb575f3660031901126101cb5760205f80516020611ff083398151915254604051908152f35b346101cb5760203660031901126101cb57602061098f600435611582565b346101cb575f3660031901126101cb5760205f8051602061219083398151915254604051908152f35b346101cb575f3660031901126101cb5760205f80516020611fd083398151915254604051908152f35b346101cb575f3660031901126101cb5760205f805160206120b083398151915254604051908152f35b346101cb575f3660031901126101cb5760205f8051602061215083398151915254604051908152f35b346101cb5760403660031901126101cb57602435611182600435611478565b90600181018091116111af5761119790611478565b5f198101919082116111af5760209161098f91611cb3565b634e487b7160e01b5f52601160045260245ffd5b346101cb5760203660031901126101cb576004356111df6114b7565b5f80516020612030833981519152545f805160206122d083398151915255805f8051602061203083398151915255611215611544565b600181018091116111af577f0b5731e9746c6761d5cc9e62a3f59221163bf9ea25d7eb047f33913153f23c97916020915f805160206121d083398151915255604051908152a1005b346101cb5760203660031901126101cb57602061098f600435611478565b346101cb575f3660031901126101cb5760205f8051602061211083398151915254604051908152f35b346101cb575f3660031901126101cb5760205f8051602061235083398151915254604051908152f35b346101cb575f3660031901126101cb57602061098f611424565b346101cb575f3660031901126101cb5760205f8051602061221083398151915254604051908152f35b346101cb5760203660031901126101cb57600435600181018091116111af5761133890611478565b5f1981019081116111af5761098f602091611b29565b346101cb575f3660031901126101cb5760205f80516020611f9083398151915254604051908152f35b60408051919082016001600160401b0381118382101761059857604052565b919082018092116111af57565b80548210156113bc575f5260205f209060011b01905f90565b634e487b7160e01b5f52603260045260245ffd5b8054600160401b811015610598576113ed916001820181556113a3565b919091611404576020816001925184550151910155565b634e487b7160e01b5f525f60045260245ffd5b919082039182116111af57565b61142c611544565b5f805160206121d0833981519152541115611453575f805160206122d08339815191525490565b5f805160206120308339815191525490565b818102929181159184041417156111af57565b5f80516020612330833981519152545f80516020612150833981519152545f1983019283116111af576114b4926114ae91611465565b90611396565b90565b7fc8fcad8db84d3cc18b4c41d551ea0ee66dd599cde068d998e57d5e09332c1320546001600160a01b031633036114ea57565b60405162461bcd60e51b815260206004820152602260248201527f4c69624469616d6f6e643a204d75737420626520636f6e7472616374206f776e60448201526132b960f11b6064820152608490fd5b8115610584570490565b61157461155f5f805160206123308339815191525442611417565b5f80516020612150833981519152549061153a565b600101806001116111af5790565b5f80516020611f50833981519152545f91905f1981019081116111af575f925b818111156115b05750505090565b6115ba8282611396565b60011c936115d5855f80516020611f508339815191526113a3565b509182548086115f1461160a57505050600101549260018101809111156115a257634e487b7160e01b5f52601160045260245ffd5b9195909350919084101561162a57505f1981019081116111af57906115a2565b60010154949350505050565b9061163f611544565b5f80516020611f50833981519152549180156117cc575f198301928084116111af57611678845f80516020611f508339815191526113a3565b5080548414929083156117b95750600282106117b15760011982019182116111af576116c460016116b96116c9945f80516020611f508339815191526113a3565b500154965b87611465565b61153a565b5f80516020611fb083398151915254101561176d575f805160206121908339815191525493628954408102908082046289544014901517156111af5762989680900493808510611765575b505b1561173a57506117356001915f80516020611f508339815191526113a3565b500155565b905061176391611748611377565b91825260208201525f80516020611f508339815191526113d0565b565b93505f611714565b5f805160206122f0833981519152549362a7d8c081029080820462a7d8c014901517156111af57629896809004938085116117a9575b50611716565b93505f6117a3565b505050505050565b6116c9925060016116c4910154966116be565b50505050565b90629896808202918083046298968014901517156111af576117f39161153a565b670de0b6b3a7640000810290808204670de0b6b3a764000014901517156111af5762989680900490565b80548210156113bc575f5260205f2001905f90565b80549190600160401b83101561059857826118559160016117639501815561181d565b90919082549060031b91821b915f19901b1916179055565b5f80516020612130833981519152905f80516020612230833981519152545f80516020611ff0833981519152549081156105845781655af3107a40000483156105845783655af3107a400004948215611b1557545f80516020612010833981519152545f198401938411939190846111af576116c46118f3611914936114ae8685611465565b61190f5f805160206120108339815191525461032b814261153a565b611417565b928315611a8d57600184116119db575b5050505050805f80516020611ff0833981519152555f80516020612230833981519152545f1981019081116111af576119909161197161197d925f8051602061223083398151915261181d565b90549060031b1c611396565b5f80516020612230833981519152611832565b5f80516020612250833981519152545f1981019081116111af57611763916119716119c8925f8051602061225083398151915261181d565b5f80516020612250833981519152611832565b96919492959093966111af57611a1c611a01855f8051602061223083398151915261181d565b90549060031b1c945f8051602061225083398151915261181d565b90549060031b1c925f965f19810190811197885b6111af5781811015611a795760018101908181116111af57611a726119c8611a6c84611a668f8d6114ae60019961197d93611465565b8c611465565b89611396565b0188611a30565b505094509450945050505f80808080611924565b509261185592509061190f611b049596611ad9611ac2611af09561190f8b6119718b5f8051602061223083398151915261181d565b611855885f8051602061223083398151915261181d565b611971865f8051602061225083398151915261181d565b915f8051602061225083398151915261181d565b5f80516020611ff083398151915255565b634e487b7160e01b5f52600160045260245ffd5b5f805160206121308339815191525490808211611c2b57611b6291611b4d91611417565b5f80516020612010833981519152549061153a565b5f8051602061223083398151915254811015611c18578015611bce57611b95815f8051602061223083398151915261181d565b90549060031b1c5f1982019182116111af57611bc16114b4925f8051602061223083398151915261181d565b90549060031b1c90611417565b505f8051602061223083398151915254156113bc575f805160206122308339815191525f527fbe06bae5d39cb7e0efc053b565594c50550d26af23bc11ab40fff03218cbf97c5490565b505f80516020611ff08339815191525490565b60405162461bcd60e51b815260206004820152605460248201527f4c69624f7261636c6550726963652e6765745072696365417454696d6573746160448201527f6d703a2074696d657374616d70206973206c6f776572207468616e2066697273606482015273074207265636f726465642074696d657374616d760641b608482015260a490fd5b905f805160206121308339815191525490828211611ec657808311611e4e57611cdc8284611417565b90611cf65f8051602061201083398151915254809361153a565b5f8051602061223083398151915254909281841015611e0257611d26845f8051602061223083398151915261181d565b90549060031b1c925b611d3d826116c48884611417565b9583871015611d9c5750505050611d61835f8051602061223083398151915261181d565b90549060031b1c5b828403611d7d57505050506114b490611b29565b6114b49450611d969291611d9091611417565b92611417565b9061153a565b611dae926116c461190f928694611417565b600181018091116111af575f1982019182116111af576114ae611de1611dfd935f8051602061223083398151915261181d565b90549060031b1c915f80516020611ff083398151915254611465565b611d69565b611e148261190f836116c4898b611417565b600181018091116111af575f198301908382116111af576114ae611de1611e48935f8051602061223083398151915261181d565b92611d2f565b60405162461bcd60e51b815260206004820152605760248201525f8051602061229083398151915260448201527f656e54696d657374616d70733a2066726f6d54696d657374616d7020697320676064820152760726561746572207468616e20746f54696d657374616d7604c1b608482015260a490fd5b60405162461bcd60e51b815260206004820152606260248201525f8051602061229083398151915260448201527f656e54696d657374616d70733a2066726f6d54696d657374616d70206973206c60648201527f6f776572207468616e206669727374207265636f726465642074696d6573746160848201526106d760f41b60a482015260c490fdfe8984d2d0d7a9f2f70f22692c7c8344aa50cbed8c00a03c924457a31793ee8fe68984d2d0d7a9f2f70f22692c7c8344aa50cbed8c00a03c924457a31793ee8fd58984d2d0d7a9f2f70f22692c7c8344aa50cbed8c00a03c924457a31793ee8fe48984d2d0d7a9f2f70f22692c7c8344aa50cbed8c00a03c924457a31793ee8fe18984d2d0d7a9f2f70f22692c7c8344aa50cbed8c00a03c924457a31793ee8fd362e26dda6281f8a7bde8d0de6ef3dc4300cca63258b4641529b5bae7dc08902a62e26dda6281f8a7bde8d0de6ef3dc4300cca63258b4641529b5bae7dc0890278984d2d0d7a9f2f70f22692c7c8344aa50cbed8c00a03c924457a31793ee8fdf8984d2d0d7a9f2f70f22692c7c8344aa50cbed8c00a03c924457a31793ee8fda6d696e696d756d20636f6d6d69746d656e74206475726174696f6e206d7573748984d2d0d7a9f2f70f22692c7c8344aa50cbed8c00a03c924457a31793ee8fd28984d2d0d7a9f2f70f22692c7c8344aa50cbed8c00a03c924457a31793ee8fd88984d2d0d7a9f2f70f22692c7c8344aa50cbed8c00a03c924457a31793ee8fd68984d2d0d7a9f2f70f22692c7c8344aa50cbed8c00a03c924457a31793ee8fd18984d2d0d7a9f2f70f22692c7c8344aa50cbed8c00a03c924457a31793ee8fdd62e26dda6281f8a7bde8d0de6ef3dc4300cca63258b4641529b5bae7dc0890267d4f8ec43464738265ced6b7ed5f90007e9b7c34318bdd82d9249328b50bd3588984d2d0d7a9f2f70f22692c7c8344aa50cbed8c00a03c924457a31793ee8fe58984d2d0d7a9f2f70f22692c7c8344aa50cbed8c00a03c924457a31793ee8fe28984d2d0d7a9f2f70f22692c7c8344aa50cbed8c00a03c924457a31793ee8fdb8984d2d0d7a9f2f70f22692c7c8344aa50cbed8c00a03c924457a31793ee8fe08984d2d0d7a9f2f70f22692c7c8344aa50cbed8c00a03c924457a31793ee8fdc8984d2d0d7a9f2f70f22692c7c8344aa50cbed8c00a03c924457a31793ee8fd962e26dda6281f8a7bde8d0de6ef3dc4300cca63258b4641529b5bae7dc08902862e26dda6281f8a7bde8d0de6ef3dc4300cca63258b4641529b5bae7dc0890298984d2d0d7a9f2f70f22692c7c8344aa50cbed8c00a03c924457a31793ee8fe74c69624f7261636c6550726963652e6765744d65616e507269636542657477658984d2d0d7a9f2f70f22692c7c8344aa50cbed8c00a03c924457a31793ee8fd48984d2d0d7a9f2f70f22692c7c8344aa50cbed8c00a03c924457a31793ee8fde8984d2d0d7a9f2f70f22692c7c8344aa50cbed8c00a03c924457a31793ee8fe36d696e696d756d206e756d626572206f662043557320696e20636f6d6d69746d7d4f8ec43464738265ced6b7ed5f90007e9b7c34318bdd82d9249328b50bd3578984d2d0d7a9f2f70f22692c7c8344aa50cbed8c00a03c924457a31793ee8fd7a264697066735822122011c1a4f4f6846bd0ce1d7b8d095074402d9adf2fbec19499ebf8e986b051ba1d64736f6c634300081a0033","linkReferences":{}},"methodIdentifiers":{"EPOCH_DURATION()":"a70b9f0c","INITIAL_EPOCH()":"f9a06a9f","activeUnitCount()":"7e815381","calculateRewardPool()":"b49b0758","currentEpoch()":"76671808","difficulty()":"19cae462","epochDuration()":"4ff0876a","epochTimestamp(uint256)":"32da089e","fltCollateralPerUnit()":"4ff3dfd6","fltPrice()":"5ff24491","fltPriceAtEpoch(uint256)":"12d69357","getRewardPool(uint256)":"5cfa91f4","init((uint256,uint256,uint256,uint256,uint256,uint256,uint256,uint256,uint256,uint256,uint256,uint256,uint256,uint256,uint256,uint256,uint256,bytes32,uint256,address,address))":"e7fe978a","initTimestamp()":"7358c57a","maxCUPerCommitment()":"c2bae292","maxDuration()":"6db5c8fd","maxFailedRatio()":"a376fb91","maxProofsPerEpoch()":"280c5e51","maxRewardPerEpoch()":"800fe125","meanFltPrice(uint256,uint256)":"4828bdf9","minCUPerCommitment()":"9ef90176","minDuration()":"56715761","minProofsPerEpoch()":"e79c6270","minRewardPerEpoch()":"5c11f4d4","oracle()":"7dc0d1d0","randomXProxy()":"919f49f9","setActiveUnitCount(uint256)":"8b2e44d2","setCapacityConstant(uint8,uint256)":"6daecfbe","setDifficulty(bytes32)":"3932dbf5","setFLTPrice(uint256)":"e2175090","setOracle(address)":"7adbf973","slashingRate()":"13baa069","usdCollateralPerUnit()":"22cafa3a","usdTargetRevenuePerEpoch()":"66aaf7b9","vestingPeriodCount()":"dad01895","vestingPeriodDuration()":"0640d941","withdrawEpochsAfterFailed()":"6f167977"},"storageLayout":{"storage":[],"types":{}},"devdoc":{"version":1,"kind":"dev","methods":{"activeUnitCount()":{"details":"Returns the active compute unit count"},"currentEpoch()":{"details":"This function mirrored in:- ts-client/src/dealMatcherClient/dealMatcherClient.ts- subgraph/src/contracts.ts"},"difficulty()":{"details":"Returns the difficulty for randomX"},"epochDuration()":{"details":"Returns epoch duration","returns":{"_0":"epochDuration in seconds"}},"epochTimestamp(uint256)":{"details":"Returns timestamp of the given epoch","returns":{"_0":"start epoch timestamp in seconds"}},"fltCollateralPerUnit()":{"details":"Returns the flt collateral per compute unit for creating CC"},"fltPrice()":{"details":"Returns the last set flt price in usd/flt"},"fltPriceAtEpoch(uint256)":{"details":"Returns the flt price at the end of the epoch previous to given one.It means that this function will always return the same result for the same arguments.Epoch must be less or equal than current epoch.","params":{"epoch":"- epoch where"},"returns":{"_0":"price in flt/usd"}},"getRewardPool(uint256)":{"details":"Returns the reward pool per epoch"},"initTimestamp()":{"details":"Returns epoch init timestamp","returns":{"_0":"initTimestamp in seconds"}},"maxCUPerCommitment()":{"details":"Returns the max number of CU in CC"},"maxDuration()":{"details":"Returns the max duration of CC in Epochs"},"maxFailedRatio()":{"details":"Returns the max failed ratio for CC"},"maxProofsPerEpoch()":{"details":"Returns the max randomX proofs per epoch"},"maxRewardPerEpoch()":{"details":"Returns the max reward pool per epoch"},"meanFltPrice(uint256,uint256)":{"details":"Returns the mean FLT price at [beginOfFromEpoch,  beginOfToEpoch).It means that this function will always return the same result for the same arguments.Epochs must be less or equal than current epoch.","params":{"fromEpoch":"- left boundary","toEpoch":"- right boundary"},"returns":{"_0":"price in usd/flt units multiplied by PRECISION"}},"minCUPerCommitment()":{"details":"Returns the min number of CU in CC"},"minDuration()":{"details":"Returns the min duration of CC in Epochs"},"minProofsPerEpoch()":{"details":"Returns the min required randomX proofs per epoch for the 1 CU.If lower than this - CU is failed and CC slashed."},"minRewardPerEpoch()":{"details":"Returns the min reward pool per epoch"},"randomXProxy()":{"details":"Returns the randomX proxy address for verification of randomX proofs"},"setCapacityConstant(uint8,uint256)":{"details":"Sets a constant with a uint256 value"},"setDifficulty(bytes32)":{"details":"Sets the randomX difficulty"},"setFLTPrice(uint256)":{"details":"Sets the flt price"},"setOracle(address)":{"details":"Sets a new oracle"},"slashingRate()":{"details":"Returns the slashing rate for failed CU"},"usdCollateralPerUnit()":{"details":"Returns the usd collateral per compute for creating CC"},"usdTargetRevenuePerEpoch()":{"details":"Returns the target revenue in usd value per epoch"},"vestingPeriodCount()":{"details":"Returns the total vesting periods"},"vestingPeriodDuration()":{"details":"Returns the vesting duration for one period in Epochs"},"withdrawEpochsAfterFailed()":{"details":"Returns the delay for withdraw collateral in Epochs after failed CC"}},"events":{"CapacityConstantUpdated(uint8,uint256)":{"details":"Emitted when a constant with a uint256 value is updated","params":{"constantType":"The type of the constant","newValue":"The new value of the constant"}},"DifficultyUpdated(bytes32)":{"details":"Emitted when the difficulty is updated","params":{"difficulty":"The new value of the difficulty"}},"FLTPriceUpdated(uint256)":{"details":"Emitted when the FLT price is updated","params":{"newValue":"The new value of the FLT price"}},"OracleSet(address)":{"details":"Emitted when new oracle address is set","params":{"oracle":"The oracle address"}}}},"id":85}