{"abi":[{"type":"constructor","inputs":[],"stateMutability":"nonpayable"},{"type":"function","name":"EPOCH_DURATION","inputs":[],"outputs":[{"name":"","type":"uint256","internalType":"uint256"}],"stateMutability":"view"},{"type":"function","name":"INITIAL_EPOCH","inputs":[],"outputs":[{"name":"","type":"uint256","internalType":"uint256"}],"stateMutability":"view"},{"type":"function","name":"activeUnitCount","inputs":[],"outputs":[{"name":"","type":"uint256","internalType":"uint256"}],"stateMutability":"view"},{"type":"function","name":"currentEpoch","inputs":[],"outputs":[{"name":"","type":"uint256","internalType":"uint256"}],"stateMutability":"view"},{"type":"function","name":"difficulty","inputs":[],"outputs":[{"name":"","type":"bytes32","internalType":"bytes32"}],"stateMutability":"view"},{"type":"function","name":"epochDuration","inputs":[],"outputs":[{"name":"","type":"uint256","internalType":"uint256"}],"stateMutability":"view"},{"type":"function","name":"epochTimestamp","inputs":[{"name":"epoch","type":"uint256","internalType":"uint256"}],"outputs":[{"name":"","type":"uint256","internalType":"uint256"}],"stateMutability":"view"},{"type":"function","name":"fltCollateralPerUnit","inputs":[],"outputs":[{"name":"","type":"uint256","internalType":"uint256"}],"stateMutability":"view"},{"type":"function","name":"fltPrice","inputs":[],"outputs":[{"name":"","type":"uint256","internalType":"uint256"}],"stateMutability":"view"},{"type":"function","name":"fltPriceAtEpoch","inputs":[{"name":"epoch","type":"uint256","internalType":"uint256"}],"outputs":[{"name":"","type":"uint256","internalType":"uint256"}],"stateMutability":"view"},{"type":"function","name":"getRewardPool","inputs":[{"name":"epoch","type":"uint256","internalType":"uint256"}],"outputs":[{"name":"","type":"uint256","internalType":"uint256"}],"stateMutability":"view"},{"type":"function","name":"init","inputs":[{"name":"initArgs","type":"tuple","internalType":"struct ICapacityConst.CapacityConstInitArgs","components":[{"name":"fltPrice","type":"uint256","internalType":"uint256"},{"name":"fltPriceUpdatePeriod","type":"uint256","internalType":"uint256"},{"name":"usdCollateralPerUnit","type":"uint256","internalType":"uint256"},{"name":"usdTargetRevenuePerEpoch","type":"uint256","internalType":"uint256"},{"name":"minDuration","type":"uint256","internalType":"uint256"},{"name":"maxDuration","type":"uint256","internalType":"uint256"},{"name":"minCUPerCommitment","type":"uint256","internalType":"uint256"},{"name":"maxCUPerCommitment","type":"uint256","internalType":"uint256"},{"name":"minRewardPerEpoch","type":"uint256","internalType":"uint256"},{"name":"maxRewardPerEpoch","type":"uint256","internalType":"uint256"},{"name":"vestingPeriodDuration","type":"uint256","internalType":"uint256"},{"name":"vestingPeriodCount","type":"uint256","internalType":"uint256"},{"name":"slashingRate","type":"uint256","internalType":"uint256"},{"name":"minProofsPerEpoch","type":"uint256","internalType":"uint256"},{"name":"maxProofsPerEpoch","type":"uint256","internalType":"uint256"},{"name":"withdrawEpochsAfterFailed","type":"uint256","internalType":"uint256"},{"name":"maxFailedRatio","type":"uint256","internalType":"uint256"},{"name":"difficulty","type":"bytes32","internalType":"bytes32"},{"name":"initRewardPool","type":"uint256","internalType":"uint256"},{"name":"randomXProxy","type":"address","internalType":"address"},{"name":"oracle","type":"address","internalType":"address"},{"name":"wfltAddress","type":"address","internalType":"address payable"}]}],"outputs":[],"stateMutability":"nonpayable"},{"type":"function","name":"initTimestamp","inputs":[],"outputs":[{"name":"","type":"uint256","internalType":"uint256"}],"stateMutability":"view"},{"type":"function","name":"lastPriceSetting","inputs":[],"outputs":[{"name":"timestamp","type":"uint256","internalType":"uint256"},{"name":"price","type":"uint256","internalType":"uint256"}],"stateMutability":"view"},{"type":"function","name":"maxCUPerCommitment","inputs":[],"outputs":[{"name":"","type":"uint256","internalType":"uint256"}],"stateMutability":"view"},{"type":"function","name":"maxDuration","inputs":[],"outputs":[{"name":"","type":"uint256","internalType":"uint256"}],"stateMutability":"view"},{"type":"function","name":"maxFailedRatio","inputs":[],"outputs":[{"name":"","type":"uint256","internalType":"uint256"}],"stateMutability":"view"},{"type":"function","name":"maxProofsPerEpoch","inputs":[],"outputs":[{"name":"","type":"uint256","internalType":"uint256"}],"stateMutability":"view"},{"type":"function","name":"maxRewardPerEpoch","inputs":[],"outputs":[{"name":"","type":"uint256","internalType":"uint256"}],"stateMutability":"view"},{"type":"function","name":"minCUPerCommitment","inputs":[],"outputs":[{"name":"","type":"uint256","internalType":"uint256"}],"stateMutability":"view"},{"type":"function","name":"minDuration","inputs":[],"outputs":[{"name":"","type":"uint256","internalType":"uint256"}],"stateMutability":"view"},{"type":"function","name":"minProofsPerEpoch","inputs":[],"outputs":[{"name":"","type":"uint256","internalType":"uint256"}],"stateMutability":"view"},{"type":"function","name":"minRewardPerEpoch","inputs":[],"outputs":[{"name":"","type":"uint256","internalType":"uint256"}],"stateMutability":"view"},{"type":"function","name":"oracle","inputs":[],"outputs":[{"name":"","type":"address","internalType":"address"}],"stateMutability":"view"},{"type":"function","name":"randomXProxy","inputs":[],"outputs":[{"name":"","type":"address","internalType":"address"}],"stateMutability":"view"},{"type":"function","name":"setActiveUnitCount","inputs":[{"name":"activeUnitCount_","type":"uint256","internalType":"uint256"}],"outputs":[],"stateMutability":"nonpayable"},{"type":"function","name":"setCapacityConstant","inputs":[{"name":"constantType","type":"uint8","internalType":"enum ICapacityConst.CapacityConstantType"},{"name":"v","type":"uint256","internalType":"uint256"}],"outputs":[],"stateMutability":"nonpayable"},{"type":"function","name":"setDifficulty","inputs":[{"name":"difficulty_","type":"bytes32","internalType":"bytes32"}],"outputs":[],"stateMutability":"nonpayable"},{"type":"function","name":"setFLTPrice","inputs":[{"name":"fltPrice_","type":"uint256","internalType":"uint256"}],"outputs":[],"stateMutability":"nonpayable"},{"type":"function","name":"setOracle","inputs":[{"name":"oracle_","type":"address","internalType":"address"}],"outputs":[],"stateMutability":"nonpayable"},{"type":"function","name":"slashingRate","inputs":[],"outputs":[{"name":"","type":"uint256","internalType":"uint256"}],"stateMutability":"view"},{"type":"function","name":"usdCollateralPerUnit","inputs":[],"outputs":[{"name":"","type":"uint256","internalType":"uint256"}],"stateMutability":"view"},{"type":"function","name":"usdTargetRevenuePerEpoch","inputs":[],"outputs":[{"name":"","type":"uint256","internalType":"uint256"}],"stateMutability":"view"},{"type":"function","name":"vestingPeriodCount","inputs":[],"outputs":[{"name":"","type":"uint256","internalType":"uint256"}],"stateMutability":"view"},{"type":"function","name":"vestingPeriodDuration","inputs":[],"outputs":[{"name":"","type":"uint256","internalType":"uint256"}],"stateMutability":"view"},{"type":"function","name":"withdrawEpochsAfterFailed","inputs":[],"outputs":[{"name":"","type":"uint256","internalType":"uint256"}],"stateMutability":"view"},{"type":"event","name":"CapacityConstantUpdated","inputs":[{"name":"constantType","type":"uint8","indexed":false,"internalType":"enum ICapacityConst.CapacityConstantType"},{"name":"newValue","type":"uint256","indexed":false,"internalType":"uint256"}],"anonymous":false},{"type":"event","name":"DifficultyUpdated","inputs":[{"name":"difficulty","type":"bytes32","indexed":false,"internalType":"bytes32"}],"anonymous":false},{"type":"event","name":"FLTPriceUpdated","inputs":[{"name":"newValue","type":"uint256","indexed":false,"internalType":"uint256"}],"anonymous":false},{"type":"event","name":"Init","inputs":[{"name":"","type":"uint256","indexed":false,"internalType":"uint256"}],"anonymous":true},{"type":"event","name":"OracleSet","inputs":[{"name":"oracle","type":"address","indexed":false,"internalType":"address"}],"anonymous":false}],"bytecode":{"object":"0x60808060405234606c577fc8fcad8db84d3cc18b4c41d551ea0ee66dd599cde068d998e57d5e09332c132080546001600160a01b03191633179055620151807f7d4f8ec43464738265ced6b7ed5f90007e9b7c34318bdd82d9249328b50bd358556121f390816100718239f35b5f80fdfe60806040526004361015610011575f80fd5b5f3560e01c806301c869b6146113f85780630640d941146113cf57806312d693571461139157806313baa0691461136857806319cae4621461134e57806322cafa3a14611325578063280c5e51146112fc57806332da089e146112de57806337681ba214610ee75780633932dbf514610e395780634ff0876a14610e105780634ff3dfd614610de75780635671576114610dbe5780635c11f4d414610d955780635cfa91f414610d775780635ff2449114610d4e57806366aaf7b914610d255780636daecfbe146105f35780636db5c8fd146105ca5780636f167977146105a15780637358c57a1461057857806376671808146105565780637adbf973146104925780637dc0d1d01461045e5780637e81538114610435578063800fe1251461040c5780638b2e44d2146103cf578063919f49f91461039b5780639ef9017614610372578063a376fb9114610349578063a70b9f0c1461032c578063c2bae29214610303578063dad01895146102da578063e2175090146101ed578063e79c6270146101c45763f9a06a9f146101a5575f80fd5b346101c0575f3660031901126101c057602060405160018152f35b5f80fd5b346101c0575f3660031901126101c05760205f8051602061205e83398151915254604051908152f35b346101c05760203660031901126101c0575f805160206120de83398151915254600435906001600160a01b031633036102955760208161024d7fd1deff9e525a11d14a1263bcc0b80d6863292470cc5c6e5c433dfdeaa7ef0e2d93611977565b6102655f80516020611efe83398151915254826117c8565b61027d815f8051602061219e83398151915254611608565b5f80516020611f1e83398151915255604051908152a1005b60405162461bcd60e51b815260206004820152601d60248201527f4f6e6c79206f7261636c652063616e2073657420464c542070726963650000006044820152606490fd5b346101c0575f3660031901126101c05760205f80516020611fde83398151915254604051908152f35b346101c0575f3660031901126101c05760205f80516020611f3e83398151915254604051908152f35b346101c0575f3660031901126101c0576020604051620151808152f35b346101c0575f3660031901126101c05760205f8051602061201e83398151915254604051908152f35b346101c0575f3660031901126101c05760205f80516020611dde83398151915254604051908152f35b346101c0575f3660031901126101c0575f80516020611f5e833981519152546040516001600160a01b039091168152602090f35b346101c05760203660031901126101c05761040a600435805f80516020611efe833981519152555f80516020611e5e833981519152546117c8565b005b346101c0575f3660031901126101c05760205f8051602061213e83398151915254604051908152f35b346101c0575f3660031901126101c05760205f80516020611efe83398151915254604051908152f35b346101c0575f3660031901126101c0575f805160206120de833981519152546040516001600160a01b039091168152602090f35b346101c05760203660031901126101c0576004356001600160a01b038116908190036101c0576104c0611653565b8015610512575f805160206120de83398151915280546001600160a01b031916821790556040519081527f3f32684a32a11dabdbb8c0177de80aa3ae36a004d75210335b49e544e48cd0aa90602090a1005b606460405162461bcd60e51b815260206004820152602060248201527f4f7261636c652073686f756c646e2774206265207a65726f20616464726573736044820152fd5b346101c0575f3660031901126101c05760206105706116d6565b604051908152f35b346101c0575f3660031901126101c05760205f8051602061217e83398151915254604051908152f35b346101c0575f3660031901126101c05760205f80516020611ebe83398151915254604051908152f35b346101c0575f3660031901126101c05760205f805160206120fe83398151915254604051908152f35b346101c05760403660031901126101c057600435600d8110156101c0576024359061061c611653565b5f816107365782156106ef575f805160206120fe83398151915254831161069957825f80516020611e3e833981519152555b60405190610685577f12ef687a8e3257309ee19f0dd17e311b1e2d18c1d585528c4116af913b0c4af79260409282526020820152a1005b634e487b7160e01b5f52602160045260245ffd5b60405162461bcd60e51b815260206004820152603b60248201525f80516020611ede83398151915260448201527a206e6f74206265206c6172676572207468616e206d6178696d756d60281b6064820152608490fd5b60405162461bcd60e51b815260206004820152602c60248201525f80516020611ede83398151915260448201526b20626520706f73697469766560a01b6064820152608490fd5b505f600182036107d357825f80516020611e3e833981519152541161076b57825f805160206120fe833981519152555b61064e565b60405162461bcd60e51b815260206004820152603a60248201527f6d6178696d756d20636f6d6d69746d656e74206475726174696f6e206d757374604482015279206e6f74206265206c6f776572207468616e206d696e696d756d60301b6064820152608490fd5b505f600282036108c0578215610871575f80516020611f3e83398151915254831161080d57825f80516020611dde8339815191525561064e565b60405162461bcd60e51b815260206004820152604360248201525f8051602061215e83398151915260448201527f656e74206d757374206e6f74206265206c6172676572207468616e206d6178696064820152626d756d60e81b608482015260a490fd5b60405162461bcd60e51b815260206004820152603460248201525f8051602061215e833981519152604482015273656e74206d75737420626520706f73697469766560601b6064820152608490fd5b505f6003820361096a57825f80516020611dde83398151915254116108f457825f80516020611f3e8339815191525561064e565b60405162461bcd60e51b815260206004820152604260248201527f6d6178696d756d206e756d626572206f662043557320696e20636f6d6d69746d60448201527f656e74206d757374206e6f74206265206c6f776572207468616e206d696e696d606482015261756d60f01b608482015260a490fd5b505f600482036109b057825f8051602061219e8339815191525561099c5f80516020611e5e8339815191525484611608565b5f80516020611f1e8339815191525561064e565b505f600582036109cf57825f8051602061207e8339815191525561064e565b505f600682036109ee57825f80516020611ebe8339815191525561064e565b505f60078203610a0d57825f8051602061201e8339815191525561064e565b505f60088203610a4e57825f80516020611e1e833981519152556107665f80516020611e5e833981519152545f80516020611efe83398151915254906117c8565b505f60098203610ae8575f8051602061213e833981519152548311610a8257825f80516020611ffe8339815191525561064e565b60405162461bcd60e51b815260206004820152603860248201527f6d696e696d756d20726577617264207065722065706f6368206d757374206e6f60448201527774206265206c6172676572207468616e206d6178696d756d60401b6064820152608490fd5b505f600a8203610b8157825f80516020611ffe8339815191525411610b1c57825f8051602061213e8339815191525561064e565b60405162461bcd60e51b815260206004820152603760248201527f6d6178696d756d20726577617264207065722065706f6368206d757374206e6f60448201527674206265206c6f776572207468616e206d696e696d756d60481b6064820152608490fd5b505f600b8203610c2b575f80516020611f7e833981519152548311610bb557825f8051602061205e8339815191525561064e565b60405162461bcd60e51b815260206004820152604260248201527f6d696e696d756d206e756d626572206f662070726f6f6673207065722065706f60448201527f6368206d757374206e6f74206265206c6172676572207468616e206d6178696d606482015261756d60f01b608482015260a490fd5b505f600c8203610cd557825f8051602061205e8339815191525411610c5f57825f80516020611f7e8339815191525561064e565b60405162461bcd60e51b815260206004820152604260248201527f6d6178696d756d206e756d626572206f662070726f6f6673207065722065706f60448201527f6368206d757374206e6f74206265206c6172676572207468616e206d696e696d606482015261756d60f01b608482015260a490fd5b60405162461bcd60e51b815260206004820152602260248201527f476c6f62616c436f6e73743a20756e6b6e6f776e20636f6e7374616e74207479604482015261706560f01b6064820152608490fd5b346101c0575f3660031901126101c05760205f80516020611e1e83398151915254604051908152f35b346101c0575f3660031901126101c05760205f80516020611e5e83398151915254604051908152f35b346101c05760203660031901126101c0576020610570600435611714565b346101c0575f3660031901126101c05760205f80516020611ffe83398151915254604051908152f35b346101c0575f3660031901126101c05760205f80516020611e3e83398151915254604051908152f35b346101c0575f3660031901126101c05760205f80516020611f1e83398151915254604051908152f35b346101c0575f3660031901126101c05760205f80516020611fbe83398151915254604051908152f35b346101c05760203660031901126101c057600435610e55611653565b5f80516020611e9e833981519152545f8051602061211e83398151915255805f80516020611e9e83398151915255610e8b6116d6565b60018101809111610ed3577f0b5731e9746c6761d5cc9e62a3f59221163bf9ea25d7eb047f33913153f23c97916020915f8051602061203e83398151915255604051908152a1005b634e487b7160e01b5f52601160045260245ffd5b346101c0576102c03660031901126101c0576040516102c081016001600160401b038111828210176112ca57604090815260043582526024356020830152604435908201526064356060820152608435608082015260a43560a082015260c43560c082015260e43560e082015261010435610100820152610124356101208201526101443561014082015261016435610160820152610184356101808201526101a4356101a08201526101c4356101c08201526101e4356101e0820152610204356102008201526102243561022082015261024435610240820152610264356001600160a01b03811681036101c057610260820152610284356001600160a01b03811681036101c0576102808201526102a4356001600160a01b03811681036101c0576102a082015260206040516101118152a080519060208101515f80516020611f9e833981519152905f80516020611e7e833981519152556110625f80516020611e7e8339815191525461105d81426115fe565b61151f565b9055815f80516020611e5e8339815191525561108b825f8051602061209e8339815191526115c1565b81156112b6576110b361129a92655af3107a4000045f805160206120be8339815191526115c1565b60808101515f80516020611e3e8339815191525560a08101515f805160206120fe8339815191525560c08101515f80516020611dde8339815191525560e08101515f80516020611f3e8339815191525560408101515f8051602061219e833981519152556101808101515f8051602061207e833981519152556101e08101515f80516020611ebe833981519152556102008101515f8051602061201e8339815191525560608101515f80516020611e1e833981519152556101008101515f80516020611ffe833981519152556101208101515f8051602061213e833981519152556101408101515f80516020611dfe833981519152556101608101515f80516020611fde833981519152556101a08101515f8051602061205e833981519152556101c08101515f80516020611f7e833981519152556102208101515f8051602061211e8339815191528190555f80516020611e9e833981519152556102608101515f80516020611f5e83398151915280546001600160a01b039283166001600160a01b0319918216179091556102808301515f805160206120de833981519152805491909316911617905561024081015161128d90611270611472565b906001825260208201525f80516020611dbe8339815191526114be565b6040810151905190611608565b5f80516020611f1e8339815191525560206040516102228152a0005b634e487b7160e01b5f52601260045260245ffd5b634e487b7160e01b5f52604160045260245ffd5b346101c05760203660031901126101c0576020610570600435611573565b346101c0575f3660031901126101c05760205f80516020611f7e83398151915254604051908152f35b346101c0575f3660031901126101c05760205f8051602061219e83398151915254604051908152f35b346101c0575f3660031901126101c0576020610570611532565b346101c0575f3660031901126101c05760205f8051602061207e83398151915254604051908152f35b346101c05760203660031901126101c05760043560018101809111610ed3576113b990611573565b5f198101908111610ed357610570602091611c33565b346101c0575f3660031901126101c05760205f80516020611dfe83398151915254604051908152f35b346101c0575f3660031901126101c0575f80516020611f9e833981519152545f80516020611e7e833981519152545f8051602061209e8339815191525490915f198201918211610ed3576114516114579260409461151f565b90611505565b5f80516020611e5e8339815191525482519182526020820152f35b60408051919082016001600160401b038111838210176112ca57604052565b80548210156114aa575f5260205f209060011b01905f90565b634e487b7160e01b5f52603260045260245ffd5b8054600160401b8110156112ca576114db91600182018155611491565b9190916114f2576020816001925184550151910155565b634e487b7160e01b5f525f60045260245ffd5b91908201809211610ed357565b91908203918211610ed357565b81810292918115918404141715610ed357565b61153a6116d6565b5f8051602061203e833981519152541115611561575f8051602061211e8339815191525490565b5f80516020611e9e8339815191525490565b5f8051602061217e833981519152545f80516020611fbe833981519152545f198301928311610ed3576115a9926114519161151f565b90565b80548210156114aa575f5260205f2001905f90565b80549190600160401b8310156112ca57826115e49160016115fc950181556115ac565b90919082549060031b91821b915f19901b1916179055565b565b81156112b6570490565b9062989680820291808304629896801490151715610ed357611629916115fe565b670de0b6b3a7640000810290808204670de0b6b3a76400001490151715610ed35762989680900490565b7fc8fcad8db84d3cc18b4c41d551ea0ee66dd599cde068d998e57d5e09332c1320546001600160a01b0316330361168657565b60405162461bcd60e51b815260206004820152602260248201527f4c69624469616d6f6e643a204d75737420626520636f6e7472616374206f776e60448201526132b960f11b6064820152608490fd5b6117066116f15f8051602061217e8339815191525442611512565b5f80516020611fbe83398151915254906115fe565b60010180600111610ed35790565b5f80516020611dbe833981519152545f91905f198101908111610ed3575f925b818111156117425750505090565b61174c8282611505565b60011c93611767855f80516020611dbe833981519152611491565b509182548086115f1461179c575050506001015492600181018091111561173457634e487b7160e01b5f52601160045260245ffd5b919590935091908410156117bc57505f198101908111610ed35790611734565b60010154949350505050565b906117d16116d6565b5f80516020611dbe83398151915254928215611971575f19840192848411610ed35761180a845f80516020611dbe833981519152611491565b50805484149590861561195457506002811061194c576001198101908111610ed357670de0b6b3a7640000916118606001611855611865945f80516020611dbe833981519152611491565b500154945b8561151f565b6115fe565b045f80516020611e1e83398151915254105f146119295762895440810290808204628954401490151715610ed357629896809004925b5f80516020611ffe833981519152545f8051602061213e8339815191525490808610611921575b50808511611919575b50156118f057506118eb6001915f80516020611dbe833981519152611491565b500155565b90506115fc916118fe611472565b91825260208201525f80516020611dbe8339815191526114be565b93505f6118cb565b94505f6118c2565b62a7d8c081029080820462a7d8c01490151715610ed3576298968090049261189b565b505050505050565b6118659150916118606001670de0b6b3a76400009401549461185a565b50505050565b5f80516020611f9e833981519152905f8051602061209e833981519152545f80516020611e5e833981519152549081156112b65781655af3107a40000483156112b65783655af3107a400004948215611c1f57545f80516020611e7e833981519152545f19840193841193919084610ed3576118606119fd611a1e93611451868561151f565b611a195f80516020611e7e8339815191525461105d81426115fe565b611512565b928315611b975760018411611ae5575b5050505050805f80516020611e5e833981519152555f8051602061209e833981519152545f198101908111610ed357611a9a91611a7b611a87925f8051602061209e8339815191526115ac565b90549060031b1c611505565b5f8051602061209e8339815191526115c1565b5f805160206120be833981519152545f198101908111610ed3576115fc91611a7b611ad2925f805160206120be8339815191526115ac565b5f805160206120be8339815191526115c1565b9691949295909396610ed357611b26611b0b855f8051602061209e8339815191526115ac565b90549060031b1c945f805160206120be8339815191526115ac565b90549060031b1c925f965f19810190811197885b610ed35781811015611b83576001810190818111610ed357611b7c611ad2611b7684611b708f8d611451600199611a879361151f565b8c61151f565b89611505565b0188611b3a565b505094509450945050505f80808080611a2e565b50926115e4925090611a19611c0e9596611be3611bcc611bfa95611a198b611a7b8b5f8051602061209e8339815191526115ac565b6115e4885f8051602061209e8339815191526115ac565b611a7b865f805160206120be8339815191526115ac565b915f805160206120be8339815191526115ac565b5f80516020611e5e83398151915255565b634e487b7160e01b5f52600160045260245ffd5b5f80516020611f9e8339815191525490808211611d3557611c6c91611c5791611512565b5f80516020611e7e83398151915254906115fe565b5f8051602061209e83398151915254811015611d22578015611cd857611c9f815f8051602061209e8339815191526115ac565b90549060031b1c5f198201918211610ed357611ccb6115a9925f8051602061209e8339815191526115ac565b90549060031b1c90611512565b505f8051602061209e83398151915254156114aa575f8051602061209e8339815191525f527fbe06bae5d39cb7e0efc053b565594c50550d26af23bc11ab40fff03218cbf97c5490565b505f80516020611e5e8339815191525490565b60405162461bcd60e51b815260206004820152605460248201527f4c69624f7261636c6550726963652e6765745072696365417454696d6573746160448201527f6d703a2074696d657374616d70206973206c6f776572207468616e2066697273606482015273074207265636f726465642074696d657374616d760641b608482015260a490fdfe8984d2d0d7a9f2f70f22692c7c8344aa50cbed8c00a03c924457a31793ee8fe68984d2d0d7a9f2f70f22692c7c8344aa50cbed8c00a03c924457a31793ee8fd58984d2d0d7a9f2f70f22692c7c8344aa50cbed8c00a03c924457a31793ee8fe48984d2d0d7a9f2f70f22692c7c8344aa50cbed8c00a03c924457a31793ee8fe18984d2d0d7a9f2f70f22692c7c8344aa50cbed8c00a03c924457a31793ee8fd362e26dda6281f8a7bde8d0de6ef3dc4300cca63258b4641529b5bae7dc08902a62e26dda6281f8a7bde8d0de6ef3dc4300cca63258b4641529b5bae7dc0890278984d2d0d7a9f2f70f22692c7c8344aa50cbed8c00a03c924457a31793ee8fdf8984d2d0d7a9f2f70f22692c7c8344aa50cbed8c00a03c924457a31793ee8fda6d696e696d756d20636f6d6d69746d656e74206475726174696f6e206d7573748984d2d0d7a9f2f70f22692c7c8344aa50cbed8c00a03c924457a31793ee8fd28984d2d0d7a9f2f70f22692c7c8344aa50cbed8c00a03c924457a31793ee8fd88984d2d0d7a9f2f70f22692c7c8344aa50cbed8c00a03c924457a31793ee8fd68984d2d0d7a9f2f70f22692c7c8344aa50cbed8c00a03c924457a31793ee8fd18984d2d0d7a9f2f70f22692c7c8344aa50cbed8c00a03c924457a31793ee8fdd62e26dda6281f8a7bde8d0de6ef3dc4300cca63258b4641529b5bae7dc0890267d4f8ec43464738265ced6b7ed5f90007e9b7c34318bdd82d9249328b50bd3588984d2d0d7a9f2f70f22692c7c8344aa50cbed8c00a03c924457a31793ee8fe58984d2d0d7a9f2f70f22692c7c8344aa50cbed8c00a03c924457a31793ee8fe28984d2d0d7a9f2f70f22692c7c8344aa50cbed8c00a03c924457a31793ee8fdb8984d2d0d7a9f2f70f22692c7c8344aa50cbed8c00a03c924457a31793ee8fe08984d2d0d7a9f2f70f22692c7c8344aa50cbed8c00a03c924457a31793ee8fdc8984d2d0d7a9f2f70f22692c7c8344aa50cbed8c00a03c924457a31793ee8fd962e26dda6281f8a7bde8d0de6ef3dc4300cca63258b4641529b5bae7dc08902862e26dda6281f8a7bde8d0de6ef3dc4300cca63258b4641529b5bae7dc0890298984d2d0d7a9f2f70f22692c7c8344aa50cbed8c00a03c924457a31793ee8fe78984d2d0d7a9f2f70f22692c7c8344aa50cbed8c00a03c924457a31793ee8fd48984d2d0d7a9f2f70f22692c7c8344aa50cbed8c00a03c924457a31793ee8fde8984d2d0d7a9f2f70f22692c7c8344aa50cbed8c00a03c924457a31793ee8fe36d696e696d756d206e756d626572206f662043557320696e20636f6d6d69746d7d4f8ec43464738265ced6b7ed5f90007e9b7c34318bdd82d9249328b50bd3578984d2d0d7a9f2f70f22692c7c8344aa50cbed8c00a03c924457a31793ee8fd7a264697066735822122024bc86e41b6f67c245f5fb268a7b945206049d7969909be63d1aed74a44c175064736f6c634300081a0033","linkReferences":{}},"methodIdentifiers":{"EPOCH_DURATION()":"a70b9f0c","INITIAL_EPOCH()":"f9a06a9f","activeUnitCount()":"7e815381","currentEpoch()":"76671808","difficulty()":"19cae462","epochDuration()":"4ff0876a","epochTimestamp(uint256)":"32da089e","fltCollateralPerUnit()":"4ff3dfd6","fltPrice()":"5ff24491","fltPriceAtEpoch(uint256)":"12d69357","getRewardPool(uint256)":"5cfa91f4","init((uint256,uint256,uint256,uint256,uint256,uint256,uint256,uint256,uint256,uint256,uint256,uint256,uint256,uint256,uint256,uint256,uint256,bytes32,uint256,address,address,address))":"37681ba2","initTimestamp()":"7358c57a","lastPriceSetting()":"01c869b6","maxCUPerCommitment()":"c2bae292","maxDuration()":"6db5c8fd","maxFailedRatio()":"a376fb91","maxProofsPerEpoch()":"280c5e51","maxRewardPerEpoch()":"800fe125","minCUPerCommitment()":"9ef90176","minDuration()":"56715761","minProofsPerEpoch()":"e79c6270","minRewardPerEpoch()":"5c11f4d4","oracle()":"7dc0d1d0","randomXProxy()":"919f49f9","setActiveUnitCount(uint256)":"8b2e44d2","setCapacityConstant(uint8,uint256)":"6daecfbe","setDifficulty(bytes32)":"3932dbf5","setFLTPrice(uint256)":"e2175090","setOracle(address)":"7adbf973","slashingRate()":"13baa069","usdCollateralPerUnit()":"22cafa3a","usdTargetRevenuePerEpoch()":"66aaf7b9","vestingPeriodCount()":"dad01895","vestingPeriodDuration()":"0640d941","withdrawEpochsAfterFailed()":"6f167977"},"storageLayout":{"storage":[],"types":{}},"devdoc":{"version":1,"kind":"dev","methods":{"activeUnitCount()":{"details":"Returns the active compute unit count"},"currentEpoch()":{"details":"This function mirrored in:- ts-client/src/dealMatcherClient/dealMatcherClient.ts- subgraph/src/contracts.ts"},"difficulty()":{"details":"Returns the difficulty for randomX"},"epochDuration()":{"details":"Returns epoch duration","returns":{"_0":"epochDuration in seconds"}},"epochTimestamp(uint256)":{"details":"Returns timestamp of the given epoch","returns":{"_0":"start epoch timestamp in seconds"}},"fltCollateralPerUnit()":{"details":"Returns the flt collateral per compute unit for creating CC"},"fltPrice()":{"details":"Returns the last set flt price in usd/flt"},"fltPriceAtEpoch(uint256)":{"details":"Returns the flt price at the end of the epoch previous to given one.It means that this function will always return the same result for the same arguments.Epoch must be less or equal than current epoch.","params":{"epoch":"- epoch where"},"returns":{"_0":"price in flt/usd"}},"getRewardPool(uint256)":{"details":"Returns the reward pool per epoch"},"initTimestamp()":{"details":"Returns epoch init timestamp","returns":{"_0":"initTimestamp in seconds"}},"lastPriceSetting()":{"details":"Gets last set flt price in usd/flt and timestamp of the last stored price"},"maxCUPerCommitment()":{"details":"Returns the max number of CU in CC"},"maxDuration()":{"details":"Returns the max duration of CC in Epochs"},"maxFailedRatio()":{"details":"Returns the max failed ratio for CC"},"maxProofsPerEpoch()":{"details":"Returns the max randomX proofs per epoch"},"maxRewardPerEpoch()":{"details":"Returns the max reward pool per epoch"},"minCUPerCommitment()":{"details":"Returns the min number of CU in CC"},"minDuration()":{"details":"Returns the min duration of CC in Epochs"},"minProofsPerEpoch()":{"details":"Returns the min required randomX proofs per epoch for the 1 CU.If lower than this - CU is failed and CC slashed."},"minRewardPerEpoch()":{"details":"Returns the min reward pool per epoch"},"oracle()":{"details":"Returns the oracle address"},"randomXProxy()":{"details":"Returns the randomX proxy address for verification of randomX proofs"},"setCapacityConstant(uint8,uint256)":{"details":"Sets a constant with a uint256 value"},"setDifficulty(bytes32)":{"details":"Sets the randomX difficulty"},"setFLTPrice(uint256)":{"details":"Sets the flt price"},"setOracle(address)":{"details":"Sets a new oracle"},"slashingRate()":{"details":"Returns the slashing rate for failed CU"},"usdCollateralPerUnit()":{"details":"Returns the usd collateral per compute for creating CC"},"usdTargetRevenuePerEpoch()":{"details":"Returns the target revenue in usd value per epoch"},"vestingPeriodCount()":{"details":"Returns the total vesting periods"},"vestingPeriodDuration()":{"details":"Returns the vesting duration for one period in Epochs"},"withdrawEpochsAfterFailed()":{"details":"Returns the delay for withdraw collateral in Epochs after failed CC"}},"events":{"CapacityConstantUpdated(uint8,uint256)":{"details":"Emitted when a constant with a uint256 value is updated","params":{"constantType":"The type of the constant","newValue":"The new value of the constant"}},"DifficultyUpdated(bytes32)":{"details":"Emitted when the difficulty is updated","params":{"difficulty":"The new value of the difficulty"}},"FLTPriceUpdated(uint256)":{"details":"Emitted when the FLT price is updated","params":{"newValue":"The new value of the FLT price"}},"OracleSet(address)":{"details":"Emitted when new oracle address is set","params":{"oracle":"The oracle address"}}}},"id":113}