{"abi":[{"type":"function","name":"addComputePeersV2","inputs":[{"name":"offerId","type":"bytes32","internalType":"bytes32"},{"name":"peers","type":"tuple[]","internalType":"struct IOfferV2.RegisterComputePeerV2[]","components":[{"name":"peerId","type":"bytes32","internalType":"bytes32"},{"name":"owner","type":"address","internalType":"address"},{"name":"resources","type":"tuple[]","internalType":"struct IOfferV2.RegisterPeerResource[]","components":[{"name":"resourceId","type":"bytes32","internalType":"bytes32"},{"name":"supply","type":"uint256","internalType":"uint256"},{"name":"details","type":"string","internalType":"string"}]},{"name":"unitIds","type":"bytes32[]","internalType":"bytes32[]"}]}],"outputs":[],"stateMutability":"nonpayable"},{"type":"function","name":"addComputeUnitsV2","inputs":[{"name":"peerId","type":"bytes32","internalType":"bytes32"},{"name":"unitIds","type":"bytes32[]","internalType":"bytes32[]"},{"name":"resource","type":"tuple","internalType":"struct IOfferV2.RegisterPeerResource","components":[{"name":"resourceId","type":"bytes32","internalType":"bytes32"},{"name":"supply","type":"uint256","internalType":"uint256"},{"name":"details","type":"string","internalType":"string"}]}],"outputs":[],"stateMutability":"nonpayable"},{"type":"function","name":"bytesPerRam","inputs":[],"outputs":[{"name":"","type":"uint256","internalType":"uint256"}],"stateMutability":"pure"},{"type":"function","name":"bytesPerStorage","inputs":[],"outputs":[{"name":"","type":"uint256","internalType":"uint256"}],"stateMutability":"pure"},{"type":"function","name":"changeResourceDetails","inputs":[{"name":"peerId","type":"bytes32","internalType":"bytes32"},{"name":"resourceId","type":"bytes32","internalType":"bytes32"},{"name":"details","type":"string","internalType":"string"}],"outputs":[],"stateMutability":"nonpayable"},{"type":"function","name":"changeResourceMaxSupplyV2","inputs":[{"name":"peerId","type":"bytes32","internalType":"bytes32"},{"name":"resourceId","type":"bytes32","internalType":"bytes32"},{"name":"newMaxSupply","type":"uint256","internalType":"uint256"}],"outputs":[],"stateMutability":"nonpayable"},{"type":"function","name":"changeResourcePriceV2","inputs":[{"name":"offerId","type":"bytes32","internalType":"bytes32"},{"name":"resourceId","type":"bytes32","internalType":"bytes32"},{"name":"newPrice","type":"uint256","internalType":"uint256"}],"outputs":[],"stateMutability":"nonpayable"},{"type":"function","name":"createDatacenter","inputs":[{"name":"datacenter","type":"tuple","internalType":"struct IOfferV2.RegisterDatacenter","components":[{"name":"countryCode","type":"string","internalType":"string"},{"name":"cityCode","type":"string","internalType":"string"},{"name":"index","type":"uint256","internalType":"uint256"},{"name":"tier","type":"uint256","internalType":"uint256"},{"name":"certifications","type":"string[]","internalType":"string[]"}]}],"outputs":[{"name":"","type":"bytes32","internalType":"bytes32"}],"stateMutability":"nonpayable"},{"type":"function","name":"createDatacenters","inputs":[{"name":"datacenters","type":"tuple[]","internalType":"struct IOfferV2.RegisterDatacenter[]","components":[{"name":"countryCode","type":"string","internalType":"string"},{"name":"cityCode","type":"string","internalType":"string"},{"name":"index","type":"uint256","internalType":"uint256"},{"name":"tier","type":"uint256","internalType":"uint256"},{"name":"certifications","type":"string[]","internalType":"string[]"}]}],"outputs":[{"name":"","type":"bytes32[]","internalType":"bytes32[]"}],"stateMutability":"nonpayable"},{"type":"function","name":"getOfferDatacenter","inputs":[{"name":"offerId","type":"bytes32","internalType":"bytes32"}],"outputs":[{"name":"","type":"bytes32","internalType":"bytes32"}],"stateMutability":"view"},{"type":"function","name":"ramPerVcpu","inputs":[],"outputs":[{"name":"","type":"uint256","internalType":"uint256"}],"stateMutability":"pure"},{"type":"function","name":"registerMarketOfferV2","inputs":[{"name":"paymentToken","type":"address","internalType":"address"},{"name":"resourcePrices","type":"tuple[]","internalType":"struct IOfferV2.RegisterResourcePrice[]","components":[{"name":"ty","type":"uint8","internalType":"enum IOfferV2.ResourceType"},{"name":"resourceId","type":"bytes32","internalType":"bytes32"},{"name":"price","type":"uint256","internalType":"uint256"}]},{"name":"peers","type":"tuple[]","internalType":"struct IOfferV2.RegisterComputePeerV2[]","components":[{"name":"peerId","type":"bytes32","internalType":"bytes32"},{"name":"owner","type":"address","internalType":"address"},{"name":"resources","type":"tuple[]","internalType":"struct IOfferV2.RegisterPeerResource[]","components":[{"name":"resourceId","type":"bytes32","internalType":"bytes32"},{"name":"supply","type":"uint256","internalType":"uint256"},{"name":"details","type":"string","internalType":"string"}]},{"name":"unitIds","type":"bytes32[]","internalType":"bytes32[]"}]},{"name":"datacenterId","type":"bytes32","internalType":"bytes32"}],"outputs":[{"name":"","type":"bytes32","internalType":"bytes32"}],"stateMutability":"nonpayable"},{"type":"function","name":"registerPeerResource","inputs":[{"name":"peerId","type":"bytes32","internalType":"bytes32"},{"name":"resource","type":"tuple","internalType":"struct IOfferV2.RegisterPeerResource","components":[{"name":"resourceId","type":"bytes32","internalType":"bytes32"},{"name":"supply","type":"uint256","internalType":"uint256"},{"name":"details","type":"string","internalType":"string"}]}],"outputs":[],"stateMutability":"nonpayable"},{"type":"function","name":"registerResource","inputs":[{"name":"ty","type":"uint8","internalType":"enum IOfferV2.ResourceType"},{"name":"metadata","type":"string","internalType":"string"}],"outputs":[{"name":"id","type":"bytes32","internalType":"bytes32"}],"stateMutability":"nonpayable"},{"type":"function","name":"registerResources","inputs":[{"name":"resources","type":"tuple[]","internalType":"struct IOfferV2.ResourceDescription[]","components":[{"name":"ty","type":"uint8","internalType":"enum IOfferV2.ResourceType"},{"name":"metadata","type":"string","internalType":"string"}]}],"outputs":[{"name":"","type":"bytes32[]","internalType":"bytes32[]"}],"stateMutability":"nonpayable"},{"type":"function","name":"removeComputePeerV2","inputs":[{"name":"peerId","type":"bytes32","internalType":"bytes32"}],"outputs":[],"stateMutability":"nonpayable"},{"type":"function","name":"removeComputeUnitV2","inputs":[{"name":"unitId","type":"bytes32","internalType":"bytes32"},{"name":"associatedResourceId","type":"bytes32","internalType":"bytes32"}],"outputs":[],"stateMutability":"nonpayable"},{"type":"function","name":"removeOfferV2","inputs":[{"name":"offerId","type":"bytes32","internalType":"bytes32"}],"outputs":[],"stateMutability":"nonpayable"},{"type":"function","name":"removePeerResource","inputs":[{"name":"peerId","type":"bytes32","internalType":"bytes32"},{"name":"resourceId","type":"bytes32","internalType":"bytes32"}],"outputs":[],"stateMutability":"nonpayable"},{"type":"function","name":"setOfferDatacenter","inputs":[{"name":"offerId","type":"bytes32","internalType":"bytes32"},{"name":"datacenterId","type":"bytes32","internalType":"bytes32"}],"outputs":[],"stateMutability":"nonpayable"},{"type":"function","name":"updateDatacenter","inputs":[{"name":"id","type":"bytes32","internalType":"bytes32"},{"name":"tier","type":"uint256","internalType":"uint256"},{"name":"certifications","type":"string[]","internalType":"string[]"}],"outputs":[],"stateMutability":"nonpayable"},{"type":"function","name":"updateResourceMetadata","inputs":[{"name":"resourceId","type":"bytes32","internalType":"bytes32"},{"name":"metadata","type":"string","internalType":"string"}],"outputs":[],"stateMutability":"nonpayable"},{"type":"function","name":"upgradeMarketOfferV2","inputs":[{"name":"offerId","type":"bytes32","internalType":"bytes32"},{"name":"resourcePrices","type":"tuple[]","internalType":"struct IOfferV2.RegisterResourcePrice[]","components":[{"name":"ty","type":"uint8","internalType":"enum IOfferV2.ResourceType"},{"name":"resourceId","type":"bytes32","internalType":"bytes32"},{"name":"price","type":"uint256","internalType":"uint256"}]},{"name":"peers","type":"tuple[]","internalType":"struct IOfferV2.UpgradeComputePeerV2[]","components":[{"name":"peerId","type":"bytes32","internalType":"bytes32"},{"name":"resources","type":"tuple[]","internalType":"struct IOfferV2.RegisterPeerResource[]","components":[{"name":"resourceId","type":"bytes32","internalType":"bytes32"},{"name":"supply","type":"uint256","internalType":"uint256"},{"name":"details","type":"string","internalType":"string"}]}]},{"name":"datacenterId","type":"bytes32","internalType":"bytes32"}],"outputs":[],"stateMutability":"nonpayable"},{"type":"function","name":"vcpuPerCu","inputs":[],"outputs":[{"name":"","type":"uint256","internalType":"uint256"}],"stateMutability":"pure"},{"type":"event","name":"ComputeUnitCreated","inputs":[{"name":"peerId","type":"bytes32","indexed":true,"internalType":"bytes32"},{"name":"unitId","type":"bytes32","indexed":false,"internalType":"bytes32"}],"anonymous":false},{"type":"event","name":"ComputeUnitRemoved","inputs":[{"name":"peerId","type":"bytes32","indexed":true,"internalType":"bytes32"},{"name":"unitId","type":"bytes32","indexed":true,"internalType":"bytes32"}],"anonymous":false},{"type":"event","name":"DatacenterCreated","inputs":[{"name":"id","type":"bytes32","indexed":true,"internalType":"bytes32"},{"name":"countryCode","type":"string","indexed":false,"internalType":"string"},{"name":"cityCode","type":"string","indexed":false,"internalType":"string"},{"name":"index","type":"uint256","indexed":false,"internalType":"uint256"},{"name":"tier","type":"uint256","indexed":false,"internalType":"uint256"},{"name":"certifications","type":"string[]","indexed":false,"internalType":"string[]"}],"anonymous":false},{"type":"event","name":"DatacenterUpdated","inputs":[{"name":"id","type":"bytes32","indexed":true,"internalType":"bytes32"},{"name":"tier","type":"uint256","indexed":false,"internalType":"uint256"},{"name":"certifications","type":"string[]","indexed":false,"internalType":"string[]"}],"anonymous":false},{"type":"event","name":"MarketOfferRegistered","inputs":[{"name":"provider","type":"address","indexed":true,"internalType":"address"},{"name":"offerId","type":"bytes32","indexed":false,"internalType":"bytes32"},{"name":"minPricePerCuPerEpoch","type":"uint256","indexed":false,"internalType":"uint256"},{"name":"paymentToken","type":"address","indexed":false,"internalType":"address"},{"name":"effectors","type":"tuple[]","indexed":false,"internalType":"struct CIDV1[]","components":[{"name":"prefixes","type":"bytes4","internalType":"bytes4"},{"name":"hash","type":"bytes32","internalType":"bytes32"}]},{"name":"minProtocolVersion","type":"uint256","indexed":false,"internalType":"uint256"},{"name":"maxProtocolVersion","type":"uint256","indexed":false,"internalType":"uint256"}],"anonymous":false},{"type":"event","name":"MarketOfferRemoved","inputs":[{"name":"offerId","type":"bytes32","indexed":true,"internalType":"bytes32"}],"anonymous":false},{"type":"event","name":"OfferDatacenterUpdated","inputs":[{"name":"offerId","type":"bytes32","indexed":true,"internalType":"bytes32"},{"name":"datacenterId","type":"bytes32","indexed":false,"internalType":"bytes32"}],"anonymous":false},{"type":"event","name":"OfferV2Created","inputs":[{"name":"offerId","type":"bytes32","indexed":true,"internalType":"bytes32"},{"name":"paymentToken","type":"address","indexed":false,"internalType":"address"},{"name":"provider","type":"address","indexed":false,"internalType":"address"},{"name":"datacenterId","type":"bytes32","indexed":false,"internalType":"bytes32"}],"anonymous":false},{"type":"event","name":"PeerCreated","inputs":[{"name":"offerId","type":"bytes32","indexed":true,"internalType":"bytes32"},{"name":"peerId","type":"bytes32","indexed":false,"internalType":"bytes32"},{"name":"owner","type":"address","indexed":false,"internalType":"address"}],"anonymous":false},{"type":"event","name":"PeerRemoved","inputs":[{"name":"offerId","type":"bytes32","indexed":true,"internalType":"bytes32"},{"name":"peerId","type":"bytes32","indexed":true,"internalType":"bytes32"}],"anonymous":false},{"type":"event","name":"PeerResourceDetailsUpdated","inputs":[{"name":"peerId","type":"bytes32","indexed":true,"internalType":"bytes32"},{"name":"resourceId","type":"bytes32","indexed":false,"internalType":"bytes32"},{"name":"details","type":"string","indexed":false,"internalType":"string"}],"anonymous":false},{"type":"event","name":"PeerResourceRegistered","inputs":[{"name":"peerId","type":"bytes32","indexed":true,"internalType":"bytes32"},{"name":"resourceId","type":"bytes32","indexed":false,"internalType":"bytes32"},{"name":"maxSupply","type":"uint256","indexed":false,"internalType":"uint256"},{"name":"details","type":"string","indexed":false,"internalType":"string"}],"anonymous":false},{"type":"event","name":"PeerResourceRemoved","inputs":[{"name":"peerId","type":"bytes32","indexed":true,"internalType":"bytes32"},{"name":"resourceId","type":"bytes32","indexed":false,"internalType":"bytes32"}],"anonymous":false},{"type":"event","name":"PeerResourceSupplyUpdated","inputs":[{"name":"peerId","type":"bytes32","indexed":true,"internalType":"bytes32"},{"name":"resourceId","type":"bytes32","indexed":false,"internalType":"bytes32"},{"name":"newAvailableSupply","type":"uint256","indexed":false,"internalType":"uint256"},{"name":"newMaxSupply","type":"uint256","indexed":false,"internalType":"uint256"}],"anonymous":false},{"type":"event","name":"ProtocolVersionUpgraded","inputs":[{"name":"offerId","type":"bytes32","indexed":true,"internalType":"bytes32"},{"name":"minProtocolVersion","type":"uint256","indexed":false,"internalType":"uint256"},{"name":"maxProtocolVersion","type":"uint256","indexed":false,"internalType":"uint256"}],"anonymous":false},{"type":"event","name":"ResourceCreated","inputs":[{"name":"resourceId","type":"bytes32","indexed":true,"internalType":"bytes32"},{"name":"ty","type":"uint8","indexed":false,"internalType":"enum IOfferV2.ResourceType"},{"name":"metadata","type":"string","indexed":false,"internalType":"string"}],"anonymous":false},{"type":"event","name":"ResourceMetadataUpdated","inputs":[{"name":"resourceId","type":"bytes32","indexed":true,"internalType":"bytes32"},{"name":"metadata","type":"string","indexed":false,"internalType":"string"}],"anonymous":false},{"type":"event","name":"ResourcePriceUpdated","inputs":[{"name":"offerId","type":"bytes32","indexed":true,"internalType":"bytes32"},{"name":"resourceId","type":"bytes32","indexed":false,"internalType":"bytes32"},{"name":"price","type":"uint256","indexed":false,"internalType":"uint256"}],"anonymous":false}],"bytecode":{"object":"0x60808060405234601557614a09908161001a8239f35b5f80fdfe60806040526004361015610011575f80fd5b5f3560e01c80630a91c23f1461269b5780630affe01f146125535780630ce79bf1146124ae5780633153741a146123315780633278808614611e2f578063336afed214611c1e578063364de31514611c195780633c9b9bc014611b85578063440dcb3014611b6a57806344a4e39514611a245780634c75eea8146119875780634fbe3e3a146119375780635dba7ae31461151b578063663e7fe01461135b578063675c0075146112f657806368a22c211461106a5780638da1420414610e505780639b0fbffe14610d23578063a57cd47514610d06578063a5d038df14610c3e578063da180c161461092f578063dafc3795146108e1578063dc8dd44c146107635763f4f9f54d14610121575f80fd5b3461075f5761012f36612799565b905f8051602061497483398151915290610154602061014d83613a26565b0151612dd0565b515f525f8051602061475483398151915260205261019860405f2061018360018060a01b0382541615156127c2565b60026004820154149081610750575b5061280b565b805f525f80516020614914833981519152602052600160405f200154801561070e575f525f805160206146f483398151915260205260405f20546101dd8115156129fe565b5f9081525f805160206147548339815191526020526040902054610216906001600160a01b031661020f8115156127c2565b3314612867565b61021f81613a26565b90805f525f8051602061491483398151915260205260405f209260018401549384156106af575f8581525f805160206146f483398151915260209081526040808320805484525f805160206147548339815191528352818420546001600160a01b03168085529590925290912092909190330361065457600182015461061957546001600160a01b03166105da576002018054918215610576576003019182541561050d576102cd906141f1565b90556102d981546141f1565b9055825f525f805160206149348339815191526020526102fc8160405f2061460e565b156104bd57602092815f525f8051602061491483398151915284525f60036040822082815582600182015582600282015501557f5abefe0a1fb3d6df34b14e459422791829e024e367c6df8eaf0bf218cf42fb365f80a30180515f525f805160206149b483398151915260205260405f20825f52602052600160405f20015490825f525f8051602061473483398151915260205260405f2060028310610468575460ff166006811015610454576103da57519160011982019182116103c6576103c4926137f2565b005b634e487b7160e01b5f52601160045260245ffd5b60405162461bcd60e51b815260206004820152604660248201527f4c69624f6666657256323a20726571756972656420746f2072656d6f7665206160448201527f2056435055207265736f7572636520616c6f6e67207769746820636f6d70757460648201526519481d5b9a5d60d21b608482015260a490fd5b634e487b7160e01b5f52602160045260245ffd5b60405162461bcd60e51b815260206004820152602760248201527f4c69624f6666657256323a206e6f7420656e6f756768207265736f757263652060448201526634b7103832b2b960c91b6064820152608490fd5b60405162461bcd60e51b815260206004820152602260248201527f496e76616c69642072656d6f76652066726f6d20656e756d657261626c652073604482015261195d60f21b6064820152608490fd5b60405162461bcd60e51b815260206004820152604860248201525f805160206148f483398151915260448201527f75746520756e697420626563617573652070726f766964657220686173207a65606482015267726f20756e69747360c01b608482015260a490fd5b60a460405162461bcd60e51b815260206004820152604460248201525f805160206148f483398151915260448201527f75746520756e69742062656361757365207065657220686173207a65726f20756064820152636e69747360e01b6084820152fd5b60405162461bcd60e51b815260206004820152601760248201527610dbdb5c1d5d19481d5b9a5d081a5cc81a5b881919585b604a1b6044820152606490fd5b60405162461bcd60e51b81526020600482015260136024820152721419595c881a185cc818dbdb5b5a5d1b595b9d606a1b6044820152606490fd5b60405162461bcd60e51b815260206004820152602d60248201527f4f666665723a2070726f746f636f6c2076657273696f6e206d69736d6174636860448201526c2c20726571756972656420763160981b6064820152608490fd5b60405162461bcd60e51b815260206004820152603160248201527f72656d6f766542617365436f6d70757465556e69743a20436f6d7075746520756044820152701b9a5d08191bd95cdb89dd08195e1a5cdd607a1b6064820152608490fd5b60405162461bcd60e51b815260206004820152601a60248201527913d999995c8e881d5b9a5d08191bd95cc81b9bdd08195e1a5cdd60321b6044820152606490fd5b6002915060050154145f610192565b5f80fd5b3461075f57604036600319011261075f576004356024356001600160401b03811161075f5761079690369060040161276c565b91906107a0612a54565b815f5260015f80516020614774833981519152016020526107c660405f20541515612e4d565b5f8281525f8051602061473483398151915260205260409020600101926001600160401b0381116108cd57610805816107ff8654612b16565b86612b64565b5f93601f821160011461085e5761083482805f805160206146d483398151915296975f91610853575b50612ba9565b90555b61084e604051928392602084526020840191612bbb565b0390a2005b90508501358861082e565b601f19821694815f5260205f20905f5b8781106108b55750835f805160206146d483398151915296971061089c575b5050600182811b019055610837565b8401355f19600385901b60f8161c19169055858061088d565b9091602060018192858901358155019301910161086e565b634e487b7160e01b5f52604160045260245ffd5b3461075f57602036600319011261075f576004356001600160401b03811161075f5760a0600319823603011261075f5761092760209161091f612a54565b600401613063565b604051908152f35b3461075f57606036600319011261075f576004356024356001600160401b03811161075f576109629036906004016126d3565b9091906044356001600160401b03811161075f5780600401936060600319833603011261075f5782610a369161099786612dd0565b515f525f805160206147548339815191526020526109da60405f206109c660018060a01b0382541615156127c2565b60026004820154149081610c2f575061280b565b855f525f805160206146f483398151915260205260405f20546109fe8115156129fe565b5f9081525f805160206147548339815191526020526040902054610a30906001600160a01b031661020f8115156127c2565b856141fd565b5f805160206147f483398151915293803591825f525f8051602061473483398151915260205260405f2095610a6a86612dd0565b515f5260205260ff60405f20965416600681101561045457610bb35760240135928060011b90808204600214901517156103c6578303610b4957610abc610ab78360016103c498016145fb565b6139a9565b835f525f805160206149b483398151915260205260405f20610ae183600183016145fb565b15610b3b575050610b2f610b3692845f525f805160206149b483398151915260205260405f20610b1c610b1785600184016145fb565b612eb4565b835f52602052600160405f200154612ac4565b90836137f2565b613ce0565b909150610b36925083613af9565b60405162461bcd60e51b815260206004820152603c60248201527f4c69624f6666657256323a20636f6d7075746520756e69747320636f756e742060448201527b0c2dcc840e4cae6deeae4c6ca40e6eae0e0d8f240dad2e6dac2e8c6d60231b6064820152608490fd5b60405162461bcd60e51b815260206004820152604860248201527f4c69624f6666657256323a207265676973746572696e6720636f6d707574652060448201527f756e69747320726571756972657320616464696e67206e65772056435055207260648201526765736f757263657360c01b608482015260a490fd5b60029150600501541489610192565b3461075f576103c4610c4f366126b9565b91610c5981612dd0565b515f525f80516020614754833981519152602052610c9c60405f20610c8860018060a01b0382541615156127c2565b60026004820154149081610cf7575061280b565b805f525f805160206146f483398151915260205260405f2054610cc08115156129fe565b5f9081525f805160206147548339815191526020526040902054610cf2906001600160a01b031661020f8115156127c2565b6137f2565b60029150600501541486610192565b3461075f575f36600319011261075f576020610800604051908152f35b3461075f57610d3136612799565b815f525f80516020614754833981519152602052610d7460405f20610d6060018060a01b0382541615156127c2565b60026004820154149081610e41575061280b565b5f8281525f8051602061475483398151915260205260409020545f8051602061495483398151915254336001600160a01b039283161491168115610e37575b5015610dc2576103c49161374a565b60405162461bcd60e51b815260206004820152604160248201527f4f6666657256323a206f6e6c79206f66666572206f776e6572206f662064696160448201527f6d6f6e64206f776e65642063616e2063616c6c20746869732066756e6374696f6064820152603760f91b608482015260a490fd5b9050331483610db3565b60029150600501541484610192565b3461075f57606036600319011261075f576024356004356044356001600160401b03811161075f57610e869036906004016126d3565b9092610e90612a54565b5f8381527f23a233ee73076c3cf570675cfe9ff168e5811fe06bf68358a371b89594cf424c60205260409020541561101b57825f525f80516020614834833981519152602052600560405f2082600482015501610eed8382612f98565b5f9081526020812090855b848210610f415750505061084e7f4d161fbdfae7c62050e8fdb6b3244c8c44ab905053a20861ce70b7866bb84cae93946040519384938452604060208501526040840191612fdf565b610f4b81886129b8565b906001600160401b0382116108cd57610f6e82610f688754612b16565b87612b64565b5f90601f8311600114610fb15792610f97836001959460209487965f92610fa6575b5050612ba9565b86555b01930191019091610ef8565b013590508d80610f90565b601f19831691865f5260205f20925f5b8181106110035750936020936001969387969383889510610fea575b505050811b018655610f9a565b01355f19600384901b60f8161c191690558c8080610fdd565b91936020600181928787013581550195019201610fc1565b60405162461bcd60e51b815260206004820152603460248201525f80516020614894833981519152604482015273657869737420696e20746865206e6574776f726b60601b6064820152608490fd5b3461075f57602036600319011261075f5760043561108781612dd0565b515f525f805160206147548339815191526020526110ca60405f206110b660018060a01b0382541615156127c2565b600260048201541490816112e7575061280b565b805f525f805160206146f483398151915260205260405f20546110ee8115156129fe565b5f9081525f805160206147548339815191526020526040902054611120906001600160a01b031661020f8115156127c2565b61112981612dd0565b51815f525f805160206146f483398151915260205260405f20805490815f525f80516020614754833981519152602052600260405f209161116b841515612d8f565b8254611181906001600160a01b03163314612867565b01546112a9576003019081549182156112335761119e85936141f1565b9055815f525f805160206146f48339815191526020525f60036040822082815582600182015582600282015501557f5f91ba2d62c13db8e4353c3b2d314e715907459581a42b764f350231f8ee0cf35f80a35f525f805160206148748339815191526020526112108160405f2061460e565b505f525f805160206149b48339815191526020526103c4600160405f200161371a565b60405162461bcd60e51b815260206004820152604260248201527f4c6962426173654f666665723a20617474656d707420746f2072656d6f76652060448201527f6120706565722066726f6d20616e206f6666657220776974686f757420706565606482015261727360f01b608482015260a490fd5b60405162461bcd60e51b8152602060048201526016602482015275506565722068617320636f6d7075746520756e69747360501b6044820152606490fd5b60029150600501541483610192565b3461075f57602036600319011261075f57600435805f525f8051602061475483398151915260205261133960405f206110b660018060a01b0382541615156127c2565b5f525f80516020614994833981519152602052602060405f2054604051908152f35b3461075f57602036600319011261075f57600435805f525f8051602061475483398151915260205261139e60405f206110b660018060a01b0382541615156127c2565b5f8181525f8051602061475483398151915260205260409020546113d0906001600160a01b031661020f8115156127c2565b5f805160206147f4833981519152815f525f80516020614754833981519152602052600360405f2061141060018060a01b0382541661020f8115156127c2565b01546114dc57815f525f805160206147548339815191526020525f6005604082208281558260018201558260028201558260038201558260048201550155817f0e2c810360f652bf120515b49756167e4b196601c40ce83c5df5a8fa22d7f9b85f80a261148a825f805160206147d483398151915261460e565b50815f525f805160206148748339815191526020526114ab60405f2061371a565b815f526020526114c0600160405f200161371a565b5f9081525f805160206149948339815191526020526040812055005b60405162461bcd60e51b81526020600482015260176024820152764f666665722068617320636f6d7075746520706565727360481b6044820152606490fd5b3461075f57608036600319011261075f576004356024356001600160401b03811161075f5761154e90369060040161273c565b906044356001600160401b03811161075f5761156e9036906004016126d3565b919092611579612a54565b5f8581525f8051602061475483398151915260205260408120600181019190915580546001600160a01b0316156118e7576004810190600282541161187a57600501600281541161180d57600280925555847f786a26b69624db8f77c87e5c9230662c4e561f7a99e1400f4ca6040b53d88453604080516002815260026020820152a25f608060405161160b816128e0565b8281528260208201528260408201528260608201520152845f525f805160206147548339815191526020528260405f2060018060a01b038154166116508115156127c2565b600282015460038301546004840154600590940154604051919490936080936001600160a01b031690611682846128e0565b835260208301528460408301526060820152015203611794576116a59185613f5c565b6116bc835f805160206147d4833981519152614598565b505f5b8181106116d2576103c46064358561374a565b6116dd818385612982565b90813591856116eb84612dd0565b51036117335760019261172761172d92885f525f8051602061487483398151915260205261171c8360405f20614598565b506020810190612f15565b91614159565b016116bf565b60405162461bcd60e51b815260206004820152603360248201527f4c69624f6666657256323a207065657220646f6573206e6f742062656c6f6e67604482015272103a37903a34329033b4bb32b71037b33332b960691b6064820152608490fd5b60405162461bcd60e51b815260206004820152604560248201527f4c69624f6666657256323a2063616e6e6f742075706772616465206f6666657260448201527f20776974686f75742074726176657273696e67207468726f75676820616c6c20606482015264706565727360d81b608482015260a490fd5b60405162461bcd60e51b815260206004820152604c60248201525f8051602061471483398151915260448201527f6465206d616e50726f746f636f6c56657273696f6e20647572696e672076657260648201526b73696f6e207570677261646560a01b608482015260a490fd5b60405162461bcd60e51b815260206004820152604c60248201525f8051602061471483398151915260448201527f6465206d696e50726f746f636f6c56657273696f6e20647572696e672076657260648201526b73696f6e207570677261646560a01b608482015260a490fd5b60405162461bcd60e51b815260206004820152602260248201527f4c6962426173654f666665723a206f6666657220646f6573206e6f74206578696044820152611cdd60f21b6064820152608490fd5b3461075f57604036600319011261075f57600435600681101561075f576024356001600160401b03811161075f5760209161197961092792369060040161276c565b91611982612a54565b612bdb565b3461075f57604036600319011261075f576024356004356001600160401b03821161075f576119bd6103c49236906004016126d3565b91805f525f805160206147548339815191526020526119ed60405f20610c8860018060a01b0382541615156127c2565b5f8181525f805160206147548339815191526020526040902054611a1f906001600160a01b031661020f8115156127c2565b6134c7565b3461075f5760207f70d46cd13334dda734a1cb401ea1e6978e6af966fbdf9e34b2a543a2fcca585c611a5536612799565b909290611a6184612dd0565b515f525f805160206147548339815191528252611a8f60405f20610c8860018060a01b0382541615156127c2565b835f525f805160206146f4833981519152825260405f2054611ab28115156129fe565b5f9081525f8051602061475483398151915283526040902054611ae3906001600160a01b031661020f8115156127c2565b835f525f805160206149b48339815191528252611b578160405f20815f5260015f80516020614774833981519152018552611b2360405f20541515612e4d565b6001810190611b35610b1784846145fb565b825f528552611b52600260405f205f81555f600182015501612f4a565b61460e565b50611b6184613ce0565b604051908152a2005b3461075f575f36600319011261075f57602060405160028152f35b3461075f57602036600319011261075f576004356001600160401b03811161075f57611bb59036906004016126d3565b611bbd612a54565b611bc681612950565b36839003609e1901925f5b83811015611c07578060051b820135908582121561075f57611bf66001928401613063565b611c0082866129ea565b5201611bd1565b60405180611c158582612703565b0390f35b61269b565b3461075f57606036600319011261075f576024356004356044356001600160401b03811161075f57611c5490369060040161276c565b9092611c5f83612dd0565b515f525f80516020614754833981519152602052611c8e60405f20610c8860018060a01b0382541615156127c2565b825f525f805160206146f483398151915260205260405f2054611cb28115156129fe565b5f9081525f805160206147548339815191526020526040902054611ce4906001600160a01b031661020f8115156127c2565b825f525f805160206149b483398151915260205260405f20815f5260015f8051602061477483398151915201602052611d2260405f20541515612e4d565b611d32610b1783600184016145fb565b815f52602052600260405f200160018060401b0383116108cd57611d6083611d5a8354612b16565b83612b64565b5f601f8411600114611db9579461084e91611d9285805f805160206147b483398151915298995f91611dae5750612ba9565b90555b6040519384938452604060208501526040840191612bbb565b90508401358a61082e565b601f19841690825f5260205f20915f5b818110611e1757509161084e9391865f805160206147b483398151915298999410611dfe575b5050600185811b019055611d95565b8301355f19600388901b60f8161c191690558780611def565b9192602060018192868c013581550194019201611dc9565b3461075f57608036600319011261075f576004356001600160a01b0381169081900361075f576024356001600160401b03811161075f57611e7490369060040161273c565b6044356001600160401b03811161075f57611e939036906004016126d3565b606435915f805160206149748339815191529360405160208101907febbe29d10864671a7296ae5158eb0df8533e86c62e6a8460f3029ae682538c5182523360601b6040820152436054820152365f6074830137611f046074823681015f838201520301601f198101835282612916565b5190209460018060a01b0333165f52602052611f2360405f2054612b16565b156122f3575f8581525f8051602061475483398151915260205260409020600201546001600160a01b03166122b7578615612261577f60ac4d56f7e69877e4b95a6e91f4b3612278b580a93ea7637885a480e015031a5460021061221c577f60ac4d56f7e69877e4b95a6e91f4b3612278b580a93ea7637885a480e015031b546002116121d857865f527f60ac4d56f7e69877e4b95a6e91f4b3612278b580a93ea7637885a480e015031d60205260ff60405f2054161561219457604051611fea816128c5565b3381525f602080830182815260408085018c81526060860185815260026080880181815260a089018281528e89525f80516020614754833981519152885297859020985189546001600160a01b039182166001600160a01b0319918216178b55965160018b015593519189018054929094169190951617909155516003860155905160048501559151600590930192909255519790969061208b888a612916565b5f895260405160c081018882525f8a83015282604083015260c060608301528a518091528960e083019b01905f5b81811061216b5750505091877fb3c599d3424c34594b558e069189acb9e8e9f0cc3fb704e513aca45a06db035b6060612165989796946109279b9c9d7f02b4bfba88db81e84c717b16bf874a79ecc39de3944a9f18dd7122ae32f09907886002608061215f9b0152600260a08201528033930390a2612145845f805160206147d4833981519152614598565b506040519081528d33908201528a6040820152a288613f5c565b856134c7565b8261374a565b825180516001600160e01b0319168e528c01518c8e01526040909c019b918b01916001016120b9565b60405162461bcd60e51b815260206004820152601c60248201527b14185e5b595b9d081d1bdad95b881a5cc81b9bdd08185b1b1bddd95960221b6044820152606490fd5b60405162461bcd60e51b815260206004820152601c60248201527b4d61782070726f746f636f6c2076657273696f6e20746f6f2062696760201b6044820152606490fd5b60405162461bcd60e51b815260206004820152601e60248201527f4d696e2070726f746f636f6c2076657273696f6e20746f6f20736d616c6c00006044820152606490fd5b60405162461bcd60e51b815260206004820152602860248201527f5061796d656e7420746f6b656e2073686f756c64206265206e6f74207a65726f604482015267206164647265737360c01b6064820152608490fd5b60405162461bcd60e51b81526020600482015260146024820152734f6666657220616c72656164792065786973747360601b6044820152606490fd5b60405162461bcd60e51b8152602060048201526016602482015275141c9bdd9a59195c88191bd95cdb89dd08195e1a5cdd60521b6044820152606490fd5b3461075f57604036600319011261075f576024356004356001600160401b03821161075f5760608260040192600319903603011261075f5761237281612dd0565b515f525f805160206147548339815191526020526123a160405f20610d6060018060a01b0382541615156127c2565b805f525f805160206146f483398151915260205260405f20546123c58115156129fe565b5f9081525f8051602061475483398151915260205260409020546123f7906001600160a01b031661020f8115156127c2565b61240081612dd0565b515f805160206147f4833981519152905f52602052612427600160405f20018335906145fb565b1561245157610b366103c492825f525f805160206149b483398151915260205260405f2083613af9565b60405162461bcd60e51b815260206004820152602f60248201527f4c69624f6666657256323a207265736f75726365206973206e6f74207265676960448201526e39ba32b932b21034b71037b33332b960891b6064820152608490fd5b3461075f57602036600319011261075f576004356001600160401b03811161075f576124de9036906004016126d3565b906124e7612a54565b6124f082612950565b905f5b8381106125085760405180611c158582612703565b612513818584612982565b3590600682101561075f5761254260019261253c612532848988612982565b60208101906129b8565b91612bdb565b61254c82866129ea565b52016124f3565b3461075f57612561366126b9565b90825f525f805160206147548339815191526020526125a560405f2061259160018060a01b0382541615156127c2565b6002600482015414908161268c575061280b565b5f8381525f8051602061475483398151915260205260409020546125d7906001600160a01b031661020f8115156127c2565b5f805160206147f4833981519152835f5260205260405f2090821561262e575f80516020614814833981519152928261261583600160409601614598565b50825f5260205280835f205582519182526020820152a2005b60405162461bcd60e51b815260206004820152603060248201527f4c69624f6666657256323a2063616e6e6f74206368616e6765207265736f757260448201526f636520707269636520746f207a65726f60801b6064820152608490fd5b60029150600501541485610192565b3461075f575f36600319011261075f57602062100000604051908152f35b606090600319011261075f57600435906024359060443590565b9181601f8401121561075f578235916001600160401b03831161075f576020808501948460051b01011161075f57565b60206040818301928281528451809452019201905f5b8181106127265750505090565b8251845260209384019390920191600101612719565b9181601f8401121561075f578235916001600160401b03831161075f576020808501946060850201011161075f57565b9181601f8401121561075f578235916001600160401b03831161075f576020838186019501011161075f57565b604090600319011261075f576004359060243590565b818102929181159184041417156103c657565b156127c957565b60405162461bcd60e51b815260206004820152601a60248201527913d999995c8e881bd999995c88191bd95cdb89dd08195e1a5cdd60321b6044820152606490fd5b1561281257565b60405162461bcd60e51b815260206004820152602760248201527f4f666665723a206d6574686f64206f6e6c7920776f726b732077697468205632604482015266206f666665727360c81b6064820152608490fd5b1561286e57565b60405162461bcd60e51b815260206004820152602960248201527f4f666665723a206f6e6c792070726f76696465722063616e2063616c6c2074686044820152681a5cc81b595d1a1bd960ba1b6064820152608490fd5b60c081019081106001600160401b038211176108cd57604052565b60a081019081106001600160401b038211176108cd57604052565b608081019081106001600160401b038211176108cd57604052565b601f909101601f19168101906001600160401b038211908210176108cd57604052565b6001600160401b0381116108cd5760051b60200190565b9061295a82612939565b6129676040519182612916565b8281528092612978601f1991612939565b0190602036910137565b91908110156129a45760051b81013590603e198136030182121561075f570190565b634e487b7160e01b5f52603260045260245ffd5b903590601e198136030182121561075f57018035906001600160401b03821161075f5760200191813603831361075f57565b80518210156129a45760209160051b010190565b15612a0557565b60405162461bcd60e51b815260206004820152601a60248201527913d999995c8e881c19595c88191bd95cc81b9bdd08195e1a5cdd60321b6044820152606490fd5b919082039182116103c657565b5f80516020614954833981519152546001600160a01b03163303612a7457565b60405162461bcd60e51b815260206004820152602260248201527f4c69624469616d6f6e643a204d75737420626520636f6e7472616374206f776e60448201526132b960f11b6064820152608490fd5b919082018092116103c657565b9192916001600160401b0382116108cd5760405191612afa601f8201601f191660200184612916565b82948184528183011161075f578281602093845f960137010152565b90600182811c92168015612b44575b6020831014612b3057565b634e487b7160e01b5f52602260045260245ffd5b91607f1691612b25565b818110612b59575050565b5f8155600101612b4e565b9190601f8111612b7357505050565b612b9d925f5260205f20906020601f840160051c83019310612b9f575b601f0160051c0190612b4e565b565b9091508190612b90565b8160011b915f199060031b1c19161790565b908060209392818452848401375f828201840152601f01601f1916010190565b905f805160206147748339815191525492600184018094116103c657612c0e845f80516020614774833981519152614598565b5060408051939084016001600160401b038111858210176108cd57604052600681101561045457808452612c43368385612ad1565b9360208101948552855f525f8051602061473483398151915260205260405f2090519060068210156104545760019160ff8019835416911617815501935192835160018060401b0381116108cd578694612ca782612ca18954612b16565b89612b64565b602090601f8311600114612cee5782612cdd94935f805160206148b4833981519152989993611d92935f92612ce3575050612ba9565b0390a290565b015190505f80610f90565b601f9792919719821690835f52885f20915f5b818110612d505750915f805160206148b483398151915298998492612cdd97969560019510612d38575b505050811b019055611d95565b01515f1960f88460031b161c191690555f8080612d2b565b828b0151845560209a8b019a8c9a5060019094019301612d01565b60405190612d78826128fb565b5f6060838281528260208201528260408201520152565b15612d9657565b60405162461bcd60e51b81526020600482015260126024820152711419595c88191bd95cdb89dd08195e1a5cdd60721b6044820152606490fd5b612dd8612d6b565b50805f525f805160206146f4833981519152602052612dfc60405f20541515612d8f565b5f525f805160206146f483398151915260205260405f2060405190612e20826128fb565b805482526001810154602083015260028101546040830152600301546001600160a01b0316606082015290565b15612e5457565b60405162461bcd60e51b815260206004820152603260248201527f4c69624f6666657256323a207265736f7572636520646f6573206e6f7420657860448201527169737420696e20746865206e6574776f726b60701b6064820152608490fd5b15612ebb57565b60405162461bcd60e51b815260206004820152602c60248201527f4c69624f6666657256323a207065657220646f6573206e6f742068617665207460448201526b686973207265736f7572636560a01b6064820152608490fd5b903590601e198136030182121561075f57018035906001600160401b03821161075f57602001918160051b3603831361075f57565b612f548154612b16565b9081612f5e575050565b81601f5f9311600114612f6f575055565b81835260208320612f8b91601f0160051c810190600101612b4e565b8082528160208120915555565b90600160401b81116108cd57815491818155828210612fb657505050565b5f5260205f2091820191015b818110612fcd575050565b80612fd9600192612f4a565b01612fc2565b90602083828152019060208160051b85010193835f915b8383106130065750505050505090565b909192939495601f198282030186528635601e198436030181121561075f578301602081019190356001600160401b03811161075f57803603831361075f576130556020928392600195612bbb565b980196019493019190612ff6565b5f805160206148d48339815191525490600182018092116103c65761308881806129b8565b91602081019261309884836129b8565b9091866040850135956060860135936130e460808801966130d56130bc898b612f15565b959097604051976130cc896128c5565b88523691612ad1565b92602086019384523691612ad1565b604084019081526060840191898352608085019387855261310481612939565b966131126040519889612916565b818852602088019160051b81019036821161075f5780925b82841061348b575050505060a085019586525f8c81525f80516020614834833981519152602052604090209451855551805160018601916001600160401b0382116108cd576131838261317d8554612b16565b85612b64565b602090601f8311600114613428576131a492915f9183612ce3575050612ba9565b90555b51805160028501916001600160401b0382116108cd576131cb8261317d8554612b16565b602090601f83116001146133b45791806131f392600598979695945f92612ce3575050612ba9565b9055908a9998979695949392915b516003830155516004820155019051602081519161321f8385612f98565b01915f5260205f20915f905b8282106132db57505050509261329392612cdd927fc02d21eab7c2b83cc37ebb11f403ad2734852bf12f7db14f3219b672a5be1e489695613279895f805160206148d4833981519152614598565b506132c361329b61328a85806129b8565b989099866129b8565b949095612f15565b9490936132b56040519a8b9a60a08c5260a08c0191612bbb565b9189830360208b0152612bbb565b93604087015260608601528483036080860152612fdf565b80919293949596979899505180519060018060401b0382116108cd5761330b826133058854612b16565b88612b64565b602090601f831160011461334b5792613334836001959460209487965f92612ce3575050612ba9565b87555b01940191018998979695949392919261322b565b90601f19831691875f52815f20925f5b81811061339c5750936020936001969387969383889510613384575b505050811b018755613337565b01515f1960f88460031b161c191690555f8080613377565b9293602060018192878601518155019501930161335b565b90601f19831691845f52815f20925f5b818110613410575091600193918560059a9998979694106133f8575b505050811b019055908a999897969594939291613201565b01515f1960f88460031b161c191690555f80806133e0565b929360206001819287860151815501950193016133c4565b90601f19831691845f52815f20925f5b818110613473575090846001959493921061345b575b505050811b0190556131a7565b01515f1960f88460031b161c191690555f808061344e565b92936020600181928786015181550195019301613438565b83356001600160401b03811161075f57820136601f8201121561075f576020916134bc839236908481359101612ad1565b81520193019261312a565b925f5b83811015613713578060051b830135607e198436030181121561075f5783019060208201356001600160a01b0381169083359082900361075f576135116060850185612f15565b9094825f525f805160206146f483398151915260205260405f208a5f525f8051602061475483398151915260205260405f2081546136b357841561365c5785156135ff578b8255600391820180546001600160a01b031916909617865501805490925f1982146103c6576001978c7f2a9c96970c242b218486fb3338450a874ff7ccad1fcad3d89b2781f48ece88d060406135f999611727988d6135cd980190558c8060a01b039054168151908a82526020820152a2856141fd565b895f525f805160206148748339815191526020526135ee8360405f20614598565b506040810190612f15565b016134ca565b60405162461bcd60e51b815260206004820152602f60248201527f4c6962426173654f666665723a204f776e657220616464726573732073686f7560448201526e6c64206265206e6f7420656d70747960881b6064820152608490fd5b60405162461bcd60e51b815260206004820152602960248201527f4c6962426173654f666665723a20506565722069642073686f756c64206265206044820152686e6f7420656d70747960b81b6064820152608490fd5b60405162461bcd60e51b815260206004820152603260248201527f4c6962426173654f666665723a205065657220616c7265616479206578697374604482015271399034b71030b737ba3432b91037b33332b960711b6064820152608490fd5b5092505050565b8054905f815581613729575050565b5f5260205f20908101905b81811061373f575050565b5f8155600101613734565b90805f5260015f805160206148d48339815191520160205260405f2054156137b25760207ffc2e2c567f0255728a7599aa8e2d0870a45e4ec9d8306044f53eac0153f2162891835f525f8051602061499483398151915282528060405f2055604051908152a2565b60405162461bcd60e51b815260206004820152602560248201525f80516020614894833981519152604482015264195e1a5cdd60da1b6064820152608490fd5b91825f525f805160206149b483398151915260205260405f2091805f528260205261382481600160405f2095016145fb565b156139505760018301805483811115613917575061384481549384612a47565b938054858110613897578560609561386d5f805160206148548339815191529861387494612a47565b8455612a47565b82555b61388086613ce0565b5490549060405192835260208301526040820152a2565b60405162461bcd60e51b815260206004820152604c60248201527f4c69624f6666657256323a2063616e6e6f74206465637265617365207065657260448201527f207265736f7572636520737570706c792062656361757365206974206973207560648201526b73656420696e204465616c7360a01b608482015260a490fd5b93613949856139365f8051602061485483398151915297606097612a47565b90613942828554612ac4565b8455612ac4565b8255613877565b60405162461bcd60e51b815260206004820152602b60248201527f4c69624f6666657256323a2070656572207265736f75726365206973206e6f7460448201526a081c9959da5cdd195c995960aa1b6064820152608490fd5b156139b057565b60405162461bcd60e51b815260206004820152604260248201527f4c69624f6666657256323a20617474656d707420746f2072656769737465722060448201527f61207265736f7572636520746f207065657220776974686f7574206120707269606482015261636560f01b608482015260a490fd5b613a2e612d6b565b50805f525f80516020614914833981519152602052600160405f20015415613aa1575f525f8051602061491483398151915260205260405f20600360405191613a76836128fb565b80546001600160a01b0316835260018101546020840152600281015460408401520154606082015290565b60405162461bcd60e51b815260206004820152602a60248201527f676574436f6d70757465556e69743a20436f6d7075746520756e697420646f656044820152691cdb89dd08195e1a5cdd60b21b6064820152608490fd5b919060208201359060408301613b0f81856129b8565b604051909391606082016001600160401b038111838210176108cd57600291613b479160405287845260208401968888523691612ad1565b9160408101928352873595865f528460205260405f209151825551600182015501905190815160018060401b0381116108cd578592613b8a8261317d8554612b16565b602090601f8311600114613c705782613bbc969360019593613bb3935f92612ce3575050612ba9565b90555b01614598565b15613c1257613bef613c0d917f1b7623d2e00fbadfcf401c65d366a9d6369da40d64b0d76a479ff47ce494a4fa956129b8565b60405194859485526020850152606060408501526060840191612bbb565b0390a2565b60405162461bcd60e51b815260206004820152603060248201527f4c69624f6666657256323a2070656572207265736f757263652077617320616c60448201526f1c9958591e481c9959da5cdd195c995960821b6064820152608490fd5b601f959392919519821690835f52865f20915f5b818110613cc5575091613bbc9784926001979695889510613cad575b505050811b019055613bb6565b01515f1960f88460031b161c191690555f8080613ca0565b8289015184556020988901988b985060019094019301613c84565b5f9081525f805160206146f4833981519152602090815260408083205f805160206149b48339815191529092528220600181018054849283928392839290915b828410613eac5750505050613d3861080080936127af565b11613e4357613d4790846127af565b11613de05760020154908160011b91808304600214901517156103c65703613d6b57565b60405162461bcd60e51b815260206004820152604160248201527f4c69624f6666657256323a2062726f6b656e20696e76617269616e742c20564360448201527f5055206e756d62657220646f6573206e6f74206d6174636820435520636f756e6064820152601d60fa1b608482015260a490fd5b60405162461bcd60e51b815260206004820152604260248201525f8051602061479483398151915260448201527f7420656e6f7567682052414d20746f20737570706f7274205643505520286d61606482015261782960f01b608482015260a490fd5b60405162461bcd60e51b815260206004820152604860248201525f8051602061479483398151915260448201527f7420656e6f7567682052414d20746f20737570706f727420564350552028617660648201526761696c61626c652960c01b608482015260a490fd5b90919297613eba8983614583565b90549060031b1c95865f525f8051602061473483398151915260205260405f20965f528360205260ff60405f2097541660068110156104545780613f20575060019182613f0c613f15938a5490612ac4565b98015490612ac4565b985b01929190613d20565b9199979096959091600103613f515760019182613f42613f4b93895490612ac4565b97015490612ac4565b96613f17565b945095600190613f17565b5f8181525f805160206147f4833981519152602052604081209491927f23a233ee73076c3cf570675cfe9ff168e5811fe06bf68358a371b89594cf42459260018701925b8681101561414f576060810283019060408201359182156140ec576020013591825f528660205260405f20541561407557825f52896020528060405f2055613fe88387614598565b15614013575f8051602061481483398151915260406001948a9382519182526020820152a201613fa0565b60405162461bcd60e51b815260206004820152603460248201527f4c69624f6666657256323a207265736f757263652077617320616c7265616479604482015273103932b3b4b9ba32b932b21034b71037b33332b960611b6064820152608490fd5b60405162461bcd60e51b815260206004820152604360248201527f4c69624f6666657256323a20417474656d707420746f2072656769737465722060448201527f61207265736f75726365206e6f74206b6e6f776e20746f20746865206e6574776064820152626f726b60e81b608482015260a490fd5b60405162461bcd60e51b815260206004820152603560248201527f4c69624f6666657256323a2063616e6e6f74207265676973746572203020617360448201527420707269636520666f722061207265736f7572636560581b6064820152608490fd5b5095505050505050565b925f805160206147f483398151915261417185612dd0565b515f5260205260405f2090845f525f805160206149b483398151915260205260405f20905f5b858110156141e1578060051b85013590605e198636030182121561075f576141db600192870180355f52866020526141d460405f205415156139a9565b858a613af9565b01614197565b509492505050612b9d9150613ce0565b80156103c6575f190190565b5f8181525f805160206146f483398151915260209081526040808320805484525f805160206147548339815191528352818420546001600160a01b031684525f805160206149748339815191529092529091209194909390918115614522576003019361426b828654612ac4565b7f60ac4d56f7e69877e4b95a6e91f4b3612278b580a93ea7637885a480e015031c54106144c3575f5b8281101561449c578060051b85013590811561444557815f525f80516020614914833981519152602052600160405f2001546143ee576040516142d6816128fb565b5f80825260208083018b81526040808501848152606086018581528886525f805160206149148339815191528552828620965187546001600160a01b0319166001600160a01b0391909116178755925160018701555160028601559051600394909401939093558a82525f8051602061493483398151915290522061435c908390614598565b1561439557877f47026182b34ce173abdac328faf5c45bef1648cf75d4b88723a745c9ee792c196020600194604051908152a201614294565b60405162461bcd60e51b815260206004820152602b60248201527f4c6962426173654f666665723a20496e76616c69642061646420746f20656e7560448201526a1b595c98589b19481cd95d60aa1b6064820152608490fd5b60405162461bcd60e51b815260206004820152602960248201527f4c6962426173654f666665723a20436f6d7075746520756e697420616c72656160448201526864792065786973747360b81b6064820152608490fd5b60405162461bcd60e51b815260206004820152602960248201527f4c6962426173654f666665723a20556e69742069642073686f756c64206265206044820152686e6f7420656d70747960b81b6064820152608490fd5b50909360029295506144bf93506144b4858254612ac4565b905501918254612ac4565b9055565b60405162461bcd60e51b815260206004820152603160248201527f4c6962426173654f666665723a204578636565646564206d6178204355206e7560448201527036b132b9103832b910283937bb34b232b960791b6064820152608490fd5b60405162461bcd60e51b815260206004820152603360248201527f4c6962426173654f666665723a20756e697473206c656e6774682073686f756c6044820152720642062652067726561746572207468616e203606c1b6064820152608490fd5b80548210156129a4575f5260205f2001905f90565b6145a282826145fb565b6145f557805490600160401b8210156108cd57826145e06145ca846001809601855584614583565b819391549060031b91821b915f19901b19161790565b90558054925f520160205260405f2055600190565b50505f90565b6001915f520160205260405f2054151590565b906001820191815f528260205260405f20548015155f146146cb575f1981018181116103c65782545f198101919082116103c657818103614696575b50505080548015614682575f1901906146638282614583565b8154905f199060031b1b19169055555f526020525f6040812055600190565b634e487b7160e01b5f52603160045260245ffd5b6146b66146a66145ca9386614583565b90549060031b1c92839286614583565b90555f528360205260405f20555f808061464a565b505050505f9056febcafe01e0e079c057fa6df17c4ff47af7cd29c91a21a66ae991220796420800e88681cafafd55573d275926fd208ef2ba36c6dd5169e88841d4bc9bcd22530214c6962426173654f666665723a20617474656d707420746f20646f776e67726123a233ee73076c3cf570675cfe9ff168e5811fe06bf68358a371b89594cf424388681cafafd55573d275926fd208ef2ba36c6dd5169e88841d4bc9bcd225302023a233ee73076c3cf570675cfe9ff168e5811fe06bf68358a371b89594cf42444c69624f6666657256323a2062726f6b656e20696e76617269616e742c206e6f060eac85deb3d96fbd5ae8195897d0dc06e08849b8e30148d172aa28661d3a5223a233ee73076c3cf570675cfe9ff168e5811fe06bf68358a371b89594cf424623a233ee73076c3cf570675cfe9ff168e5811fe06bf68358a371b89594cf4241b824cfa5fc227a07e42b7c6055218aa0f2361876cbb193e0f3e029810b30d42923a233ee73076c3cf570675cfe9ff168e5811fe06bf68358a371b89594cf42490289d684a5923185b066281c5024c185d157238d4cca423aa78874015e114ff723a233ee73076c3cf570675cfe9ff168e5811fe06bf68358a371b89594cf42484c69624f6666657256323a206461746163656e74657220646f6573206e6f742001e842b00fdbb1152aee25c3761b0932d2abd4bde9ee3d1416b68604f16029a123a233ee73076c3cf570675cfe9ff168e5811fe06bf68358a371b89594cf424b4c6962426173654f666665723a2063616e6e6f742072656d6f766520636f6d7088681cafafd55573d275926fd208ef2ba36c6dd5169e88841d4bc9bcd225302288681cafafd55573d275926fd208ef2ba36c6dd5169e88841d4bc9bcd2253024c8fcad8db84d3cc18b4c41d551ea0ee66dd599cde068d998e57d5e09332c132088681cafafd55573d275926fd208ef2ba36c6dd5169e88841d4bc9bcd225301f23a233ee73076c3cf570675cfe9ff168e5811fe06bf68358a371b89594cf424a23a233ee73076c3cf570675cfe9ff168e5811fe06bf68358a371b89594cf4242a2646970667358221220d1bebf051aba9b7d11bae1627a5ea96a7bdbb7b52960542a6ccf3057bb50b01364736f6c634300081a0033","linkReferences":{}},"methodIdentifiers":{"addComputePeersV2(bytes32,(bytes32,address,(bytes32,uint256,string)[],bytes32[])[])":"4c75eea8","addComputeUnitsV2(bytes32,bytes32[],(bytes32,uint256,string))":"da180c16","bytesPerRam()":"364de315","bytesPerStorage()":"0a91c23f","changeResourceDetails(bytes32,bytes32,string)":"336afed2","changeResourceMaxSupplyV2(bytes32,bytes32,uint256)":"a5d038df","changeResourcePriceV2(bytes32,bytes32,uint256)":"0affe01f","createDatacenter((string,string,uint256,uint256,string[]))":"dafc3795","createDatacenters((string,string,uint256,uint256,string[])[])":"3c9b9bc0","getOfferDatacenter(bytes32)":"675c0075","ramPerVcpu()":"a57cd475","registerMarketOfferV2(address,(uint8,bytes32,uint256)[],(bytes32,address,(bytes32,uint256,string)[],bytes32[])[],bytes32)":"32788086","registerPeerResource(bytes32,(bytes32,uint256,string))":"3153741a","registerResource(uint8,string)":"4fbe3e3a","registerResources((uint8,string)[])":"0ce79bf1","removeComputePeerV2(bytes32)":"68a22c21","removeComputeUnitV2(bytes32,bytes32)":"f4f9f54d","removeOfferV2(bytes32)":"663e7fe0","removePeerResource(bytes32,bytes32)":"44a4e395","setOfferDatacenter(bytes32,bytes32)":"9b0fbffe","updateDatacenter(bytes32,uint256,string[])":"8da14204","updateResourceMetadata(bytes32,string)":"dc8dd44c","upgradeMarketOfferV2(bytes32,(uint8,bytes32,uint256)[],(bytes32,(bytes32,uint256,string)[])[],bytes32)":"5dba7ae3","vcpuPerCu()":"440dcb30"},"storageLayout":{"storage":[],"types":{}},"devdoc":{"version":1,"kind":"dev","events":{"ComputeUnitCreated(bytes32,bytes32)":{"details":"Emitted when a compute unit created for a peer","params":{"peerId":"The peer id","unitId":"The compute unit id"}},"ComputeUnitRemoved(bytes32,bytes32)":{"details":"Emitted when a compute unit removed from a peer","params":{"peerId":"The peer id","unitId":"The compute unit id"}},"MarketOfferRegistered(address,bytes32,uint256,address,(bytes4,bytes32)[],uint256,uint256)":{"details":"Emitted when a new offer is registered","params":{"effectors":"The effectors of the offer","minPricePerCuPerEpoch":"The min price per cu per epoch which the provider specify for the matching with the deal","offerId":"The offer id","paymentToken":"The payment token of the offer","provider":"The provider address"}},"MarketOfferRemoved(bytes32)":{"details":"Emitted when an offer removed","params":{"offerId":"The offer i"}},"PeerCreated(bytes32,bytes32,address)":{"details":"Emitted when a peer created for an offer"},"PeerRemoved(bytes32,bytes32)":{"details":"Emitted when a peer removed from an offer","params":{"offerId":"The offer id","peerId":"The peer id"}},"ProtocolVersionUpgraded(bytes32,uint256,uint256)":{"details":"Emitted when protocol version of an offer is updated","params":{"maxProtocolVersion":"The new maximum supported protocol version","minProtocolVersion":"The new minimum supported protocol version","offerId":"The offer id"}}}},"id":124}