{"abi":[{"type":"function","name":"addComputePeersV2","inputs":[{"name":"offerId","type":"bytes32","internalType":"bytes32"},{"name":"peers","type":"tuple[]","internalType":"struct IOfferV2.RegisterComputePeerV2[]","components":[{"name":"peerId","type":"bytes32","internalType":"bytes32"},{"name":"owner","type":"address","internalType":"address"},{"name":"resources","type":"tuple[]","internalType":"struct IOfferV2.RegisterPeerResource[]","components":[{"name":"resourceId","type":"bytes32","internalType":"bytes32"},{"name":"supply","type":"uint256","internalType":"uint256"},{"name":"details","type":"string","internalType":"string"}]},{"name":"unitIds","type":"bytes32[]","internalType":"bytes32[]"}]}],"outputs":[],"stateMutability":"nonpayable"},{"type":"function","name":"addComputeUnitsV2","inputs":[{"name":"peerId","type":"bytes32","internalType":"bytes32"},{"name":"unitIds","type":"bytes32[]","internalType":"bytes32[]"},{"name":"resource","type":"tuple","internalType":"struct IOfferV2.RegisterPeerResource","components":[{"name":"resourceId","type":"bytes32","internalType":"bytes32"},{"name":"supply","type":"uint256","internalType":"uint256"},{"name":"details","type":"string","internalType":"string"}]}],"outputs":[],"stateMutability":"nonpayable"},{"type":"function","name":"bytesPerRam","inputs":[],"outputs":[{"name":"","type":"uint256","internalType":"uint256"}],"stateMutability":"pure"},{"type":"function","name":"bytesPerStorage","inputs":[],"outputs":[{"name":"","type":"uint256","internalType":"uint256"}],"stateMutability":"pure"},{"type":"function","name":"changeResourceDetails","inputs":[{"name":"peerId","type":"bytes32","internalType":"bytes32"},{"name":"resourceId","type":"bytes32","internalType":"bytes32"},{"name":"details","type":"string","internalType":"string"}],"outputs":[],"stateMutability":"nonpayable"},{"type":"function","name":"changeResourceMaxSupplyV2","inputs":[{"name":"peerId","type":"bytes32","internalType":"bytes32"},{"name":"resourceId","type":"bytes32","internalType":"bytes32"},{"name":"newMaxSupply","type":"uint256","internalType":"uint256"}],"outputs":[],"stateMutability":"nonpayable"},{"type":"function","name":"changeResourcePriceV2","inputs":[{"name":"offerId","type":"bytes32","internalType":"bytes32"},{"name":"resourceId","type":"bytes32","internalType":"bytes32"},{"name":"newPrice","type":"uint256","internalType":"uint256"}],"outputs":[],"stateMutability":"nonpayable"},{"type":"function","name":"createDatacenter","inputs":[{"name":"datacenter","type":"tuple","internalType":"struct IOfferV2.RegisterDatacenter","components":[{"name":"countryCode","type":"string","internalType":"string"},{"name":"cityCode","type":"string","internalType":"string"},{"name":"index","type":"uint256","internalType":"uint256"},{"name":"tier","type":"uint256","internalType":"uint256"},{"name":"certifications","type":"string[]","internalType":"string[]"}]}],"outputs":[{"name":"","type":"bytes32","internalType":"bytes32"}],"stateMutability":"nonpayable"},{"type":"function","name":"createDatacenters","inputs":[{"name":"datacenters","type":"tuple[]","internalType":"struct IOfferV2.RegisterDatacenter[]","components":[{"name":"countryCode","type":"string","internalType":"string"},{"name":"cityCode","type":"string","internalType":"string"},{"name":"index","type":"uint256","internalType":"uint256"},{"name":"tier","type":"uint256","internalType":"uint256"},{"name":"certifications","type":"string[]","internalType":"string[]"}]}],"outputs":[{"name":"","type":"bytes32[]","internalType":"bytes32[]"}],"stateMutability":"nonpayable"},{"type":"function","name":"getDatacenter","inputs":[{"name":"id","type":"bytes32","internalType":"bytes32"}],"outputs":[{"name":"","type":"tuple","internalType":"struct IOfferV2.Datacenter","components":[{"name":"id","type":"bytes32","internalType":"bytes32"},{"name":"countryCode","type":"string","internalType":"string"},{"name":"cityCode","type":"string","internalType":"string"},{"name":"index","type":"uint256","internalType":"uint256"},{"name":"tier","type":"uint256","internalType":"uint256"},{"name":"certifications","type":"string[]","internalType":"string[]"}]}],"stateMutability":"view"},{"type":"function","name":"getDatacenters","inputs":[],"outputs":[{"name":"","type":"tuple[]","internalType":"struct IOfferV2.Datacenter[]","components":[{"name":"id","type":"bytes32","internalType":"bytes32"},{"name":"countryCode","type":"string","internalType":"string"},{"name":"cityCode","type":"string","internalType":"string"},{"name":"index","type":"uint256","internalType":"uint256"},{"name":"tier","type":"uint256","internalType":"uint256"},{"name":"certifications","type":"string[]","internalType":"string[]"}]}],"stateMutability":"view"},{"type":"function","name":"getOfferDatacenter","inputs":[{"name":"offerId","type":"bytes32","internalType":"bytes32"}],"outputs":[{"name":"","type":"bytes32","internalType":"bytes32"}],"stateMutability":"view"},{"type":"function","name":"getOfferV2","inputs":[{"name":"offerId","type":"bytes32","internalType":"bytes32"}],"outputs":[{"name":"","type":"tuple","internalType":"struct IOfferV2.OfferV2View","components":[{"name":"offerId","type":"bytes32","internalType":"bytes32"},{"name":"provider","type":"address","internalType":"address"},{"name":"paymentToken","type":"address","internalType":"address"},{"name":"prices","type":"tuple[]","internalType":"struct IOfferV2.OfferV2PriceView[]","components":[{"name":"resourceId","type":"bytes32","internalType":"bytes32"},{"name":"ty","type":"uint8","internalType":"enum IOfferV2.ResourceType"},{"name":"metadata","type":"string","internalType":"string"},{"name":"price","type":"uint256","internalType":"uint256"}]}]}],"stateMutability":"view"},{"type":"function","name":"getOffersV2","inputs":[],"outputs":[{"name":"","type":"tuple[]","internalType":"struct IOfferV2.OfferV2View[]","components":[{"name":"offerId","type":"bytes32","internalType":"bytes32"},{"name":"provider","type":"address","internalType":"address"},{"name":"paymentToken","type":"address","internalType":"address"},{"name":"prices","type":"tuple[]","internalType":"struct IOfferV2.OfferV2PriceView[]","components":[{"name":"resourceId","type":"bytes32","internalType":"bytes32"},{"name":"ty","type":"uint8","internalType":"enum IOfferV2.ResourceType"},{"name":"metadata","type":"string","internalType":"string"},{"name":"price","type":"uint256","internalType":"uint256"}]}]}],"stateMutability":"view"},{"type":"function","name":"getPeerV2","inputs":[{"name":"peerId","type":"bytes32","internalType":"bytes32"}],"outputs":[{"name":"","type":"tuple","internalType":"struct IOfferV2.PeerV2View","components":[{"name":"offerId","type":"bytes32","internalType":"bytes32"},{"name":"peerId","type":"bytes32","internalType":"bytes32"},{"name":"commitmentId","type":"bytes32","internalType":"bytes32"},{"name":"unitIds","type":"tuple[]","internalType":"struct IBaseOffer.ComputeUnitView[]","components":[{"name":"id","type":"bytes32","internalType":"bytes32"},{"name":"deal","type":"address","internalType":"address"},{"name":"startEpoch","type":"uint256","internalType":"uint256"},{"name":"onchainWorkerId","type":"bytes32","internalType":"bytes32"}]},{"name":"resources","type":"tuple[]","internalType":"struct IOfferV2.PeerV2ResourceView[]","components":[{"name":"resourceId","type":"bytes32","internalType":"bytes32"},{"name":"ty","type":"uint8","internalType":"enum IOfferV2.ResourceType"},{"name":"metadata","type":"string","internalType":"string"},{"name":"details","type":"string","internalType":"string"},{"name":"availableSupply","type":"uint256","internalType":"uint256"},{"name":"maxSupply","type":"uint256","internalType":"uint256"}]}]}],"stateMutability":"view"},{"type":"function","name":"getPeersV2","inputs":[{"name":"offerId","type":"bytes32","internalType":"bytes32"}],"outputs":[{"name":"","type":"tuple[]","internalType":"struct IOfferV2.PeerV2View[]","components":[{"name":"offerId","type":"bytes32","internalType":"bytes32"},{"name":"peerId","type":"bytes32","internalType":"bytes32"},{"name":"commitmentId","type":"bytes32","internalType":"bytes32"},{"name":"unitIds","type":"tuple[]","internalType":"struct IBaseOffer.ComputeUnitView[]","components":[{"name":"id","type":"bytes32","internalType":"bytes32"},{"name":"deal","type":"address","internalType":"address"},{"name":"startEpoch","type":"uint256","internalType":"uint256"},{"name":"onchainWorkerId","type":"bytes32","internalType":"bytes32"}]},{"name":"resources","type":"tuple[]","internalType":"struct IOfferV2.PeerV2ResourceView[]","components":[{"name":"resourceId","type":"bytes32","internalType":"bytes32"},{"name":"ty","type":"uint8","internalType":"enum IOfferV2.ResourceType"},{"name":"metadata","type":"string","internalType":"string"},{"name":"details","type":"string","internalType":"string"},{"name":"availableSupply","type":"uint256","internalType":"uint256"},{"name":"maxSupply","type":"uint256","internalType":"uint256"}]}]}],"stateMutability":"view"},{"type":"function","name":"getResource","inputs":[{"name":"resourceId","type":"bytes32","internalType":"bytes32"}],"outputs":[{"name":"","type":"tuple","internalType":"struct IOfferV2.ResourceDescription","components":[{"name":"ty","type":"uint8","internalType":"enum IOfferV2.ResourceType"},{"name":"metadata","type":"string","internalType":"string"}]}],"stateMutability":"view"},{"type":"function","name":"getResources","inputs":[],"outputs":[{"name":"","type":"tuple[]","internalType":"struct IOfferV2.ResourceDescriptionView[]","components":[{"name":"id","type":"bytes32","internalType":"bytes32"},{"name":"ty","type":"uint8","internalType":"enum IOfferV2.ResourceType"},{"name":"metadata","type":"string","internalType":"string"}]}],"stateMutability":"view"},{"type":"function","name":"ramPerVcpu","inputs":[],"outputs":[{"name":"","type":"uint256","internalType":"uint256"}],"stateMutability":"pure"},{"type":"function","name":"registerMarketOfferV2","inputs":[{"name":"paymentToken","type":"address","internalType":"address"},{"name":"resourcePrices","type":"tuple[]","internalType":"struct IOfferV2.RegisterResourcePrice[]","components":[{"name":"ty","type":"uint8","internalType":"enum IOfferV2.ResourceType"},{"name":"resourceId","type":"bytes32","internalType":"bytes32"},{"name":"price","type":"uint256","internalType":"uint256"}]},{"name":"peers","type":"tuple[]","internalType":"struct IOfferV2.RegisterComputePeerV2[]","components":[{"name":"peerId","type":"bytes32","internalType":"bytes32"},{"name":"owner","type":"address","internalType":"address"},{"name":"resources","type":"tuple[]","internalType":"struct IOfferV2.RegisterPeerResource[]","components":[{"name":"resourceId","type":"bytes32","internalType":"bytes32"},{"name":"supply","type":"uint256","internalType":"uint256"},{"name":"details","type":"string","internalType":"string"}]},{"name":"unitIds","type":"bytes32[]","internalType":"bytes32[]"}]},{"name":"datacenterId","type":"bytes32","internalType":"bytes32"}],"outputs":[{"name":"","type":"bytes32","internalType":"bytes32"}],"stateMutability":"nonpayable"},{"type":"function","name":"registerPeerResource","inputs":[{"name":"peerId","type":"bytes32","internalType":"bytes32"},{"name":"resource","type":"tuple","internalType":"struct IOfferV2.RegisterPeerResource","components":[{"name":"resourceId","type":"bytes32","internalType":"bytes32"},{"name":"supply","type":"uint256","internalType":"uint256"},{"name":"details","type":"string","internalType":"string"}]}],"outputs":[],"stateMutability":"nonpayable"},{"type":"function","name":"registerResource","inputs":[{"name":"ty","type":"uint8","internalType":"enum IOfferV2.ResourceType"},{"name":"metadata","type":"string","internalType":"string"}],"outputs":[{"name":"id","type":"bytes32","internalType":"bytes32"}],"stateMutability":"nonpayable"},{"type":"function","name":"registerResources","inputs":[{"name":"resources","type":"tuple[]","internalType":"struct IOfferV2.ResourceDescription[]","components":[{"name":"ty","type":"uint8","internalType":"enum IOfferV2.ResourceType"},{"name":"metadata","type":"string","internalType":"string"}]}],"outputs":[{"name":"","type":"bytes32[]","internalType":"bytes32[]"}],"stateMutability":"nonpayable"},{"type":"function","name":"removeComputePeerV2","inputs":[{"name":"peerId","type":"bytes32","internalType":"bytes32"}],"outputs":[],"stateMutability":"nonpayable"},{"type":"function","name":"removeComputeUnitV2","inputs":[{"name":"unitId","type":"bytes32","internalType":"bytes32"},{"name":"associatedResourceId","type":"bytes32","internalType":"bytes32"}],"outputs":[],"stateMutability":"nonpayable"},{"type":"function","name":"removeOfferV2","inputs":[{"name":"offerId","type":"bytes32","internalType":"bytes32"}],"outputs":[],"stateMutability":"nonpayable"},{"type":"function","name":"removePeerResource","inputs":[{"name":"peerId","type":"bytes32","internalType":"bytes32"},{"name":"resourceId","type":"bytes32","internalType":"bytes32"}],"outputs":[],"stateMutability":"nonpayable"},{"type":"function","name":"setOfferDatacenter","inputs":[{"name":"offerId","type":"bytes32","internalType":"bytes32"},{"name":"datacenterId","type":"bytes32","internalType":"bytes32"}],"outputs":[],"stateMutability":"nonpayable"},{"type":"function","name":"updateDatacenter","inputs":[{"name":"id","type":"bytes32","internalType":"bytes32"},{"name":"tier","type":"uint256","internalType":"uint256"},{"name":"certifications","type":"string[]","internalType":"string[]"}],"outputs":[],"stateMutability":"nonpayable"},{"type":"function","name":"updateResourceMetadata","inputs":[{"name":"resourceId","type":"bytes32","internalType":"bytes32"},{"name":"metadata","type":"string","internalType":"string"}],"outputs":[],"stateMutability":"nonpayable"},{"type":"function","name":"vcpuPerCu","inputs":[],"outputs":[{"name":"","type":"uint256","internalType":"uint256"}],"stateMutability":"pure"},{"type":"event","name":"ComputeUnitCreated","inputs":[{"name":"peerId","type":"bytes32","indexed":true,"internalType":"bytes32"},{"name":"unitId","type":"bytes32","indexed":false,"internalType":"bytes32"}],"anonymous":false},{"type":"event","name":"ComputeUnitRemoved","inputs":[{"name":"peerId","type":"bytes32","indexed":true,"internalType":"bytes32"},{"name":"unitId","type":"bytes32","indexed":true,"internalType":"bytes32"}],"anonymous":false},{"type":"event","name":"DatacenterCreated","inputs":[{"name":"id","type":"bytes32","indexed":true,"internalType":"bytes32"},{"name":"countryCode","type":"string","indexed":false,"internalType":"string"},{"name":"cityCode","type":"string","indexed":false,"internalType":"string"},{"name":"index","type":"uint256","indexed":false,"internalType":"uint256"},{"name":"tier","type":"uint256","indexed":false,"internalType":"uint256"},{"name":"certifications","type":"string[]","indexed":false,"internalType":"string[]"}],"anonymous":false},{"type":"event","name":"DatacenterUpdated","inputs":[{"name":"id","type":"bytes32","indexed":true,"internalType":"bytes32"},{"name":"tier","type":"uint256","indexed":false,"internalType":"uint256"},{"name":"certifications","type":"string[]","indexed":false,"internalType":"string[]"}],"anonymous":false},{"type":"event","name":"MarketOfferRegistered","inputs":[{"name":"provider","type":"address","indexed":true,"internalType":"address"},{"name":"offerId","type":"bytes32","indexed":false,"internalType":"bytes32"},{"name":"minPricePerCuPerEpoch","type":"uint256","indexed":false,"internalType":"uint256"},{"name":"paymentToken","type":"address","indexed":false,"internalType":"address"},{"name":"effectors","type":"tuple[]","indexed":false,"internalType":"struct CIDV1[]","components":[{"name":"prefixes","type":"bytes4","internalType":"bytes4"},{"name":"hash","type":"bytes32","internalType":"bytes32"}]},{"name":"minProtocolVersion","type":"uint256","indexed":false,"internalType":"uint256"},{"name":"maxProtocolVersion","type":"uint256","indexed":false,"internalType":"uint256"}],"anonymous":false},{"type":"event","name":"MarketOfferRemoved","inputs":[{"name":"offerId","type":"bytes32","indexed":true,"internalType":"bytes32"}],"anonymous":false},{"type":"event","name":"OfferDatacenterUpdated","inputs":[{"name":"offerId","type":"bytes32","indexed":true,"internalType":"bytes32"},{"name":"datacenterId","type":"bytes32","indexed":false,"internalType":"bytes32"}],"anonymous":false},{"type":"event","name":"OfferV2Created","inputs":[{"name":"offerId","type":"bytes32","indexed":true,"internalType":"bytes32"},{"name":"paymentToken","type":"address","indexed":false,"internalType":"address"},{"name":"provider","type":"address","indexed":false,"internalType":"address"},{"name":"datacenterId","type":"bytes32","indexed":false,"internalType":"bytes32"}],"anonymous":false},{"type":"event","name":"PeerCreated","inputs":[{"name":"offerId","type":"bytes32","indexed":true,"internalType":"bytes32"},{"name":"peerId","type":"bytes32","indexed":false,"internalType":"bytes32"},{"name":"owner","type":"address","indexed":false,"internalType":"address"}],"anonymous":false},{"type":"event","name":"PeerRemoved","inputs":[{"name":"offerId","type":"bytes32","indexed":true,"internalType":"bytes32"},{"name":"peerId","type":"bytes32","indexed":true,"internalType":"bytes32"}],"anonymous":false},{"type":"event","name":"PeerResourceDetailsUpdated","inputs":[{"name":"peerId","type":"bytes32","indexed":true,"internalType":"bytes32"},{"name":"resourceId","type":"bytes32","indexed":false,"internalType":"bytes32"},{"name":"details","type":"string","indexed":false,"internalType":"string"}],"anonymous":false},{"type":"event","name":"PeerResourceRegistered","inputs":[{"name":"peerId","type":"bytes32","indexed":true,"internalType":"bytes32"},{"name":"resourceId","type":"bytes32","indexed":false,"internalType":"bytes32"},{"name":"maxSupply","type":"uint256","indexed":false,"internalType":"uint256"},{"name":"details","type":"string","indexed":false,"internalType":"string"}],"anonymous":false},{"type":"event","name":"PeerResourceRemoved","inputs":[{"name":"peerId","type":"bytes32","indexed":true,"internalType":"bytes32"},{"name":"resourceId","type":"bytes32","indexed":false,"internalType":"bytes32"}],"anonymous":false},{"type":"event","name":"PeerResourceSupplyUpdated","inputs":[{"name":"peerId","type":"bytes32","indexed":true,"internalType":"bytes32"},{"name":"resourceId","type":"bytes32","indexed":false,"internalType":"bytes32"},{"name":"newAvailableSupply","type":"uint256","indexed":false,"internalType":"uint256"},{"name":"newMaxSupply","type":"uint256","indexed":false,"internalType":"uint256"}],"anonymous":false},{"type":"event","name":"ResourceCreated","inputs":[{"name":"resourceId","type":"bytes32","indexed":true,"internalType":"bytes32"},{"name":"ty","type":"uint8","indexed":false,"internalType":"enum IOfferV2.ResourceType"},{"name":"metadata","type":"string","indexed":false,"internalType":"string"}],"anonymous":false},{"type":"event","name":"ResourceMetadataUpdated","inputs":[{"name":"resourceId","type":"bytes32","indexed":true,"internalType":"bytes32"},{"name":"metadata","type":"string","indexed":false,"internalType":"string"}],"anonymous":false},{"type":"event","name":"ResourcePriceUpdated","inputs":[{"name":"offerId","type":"bytes32","indexed":true,"internalType":"bytes32"},{"name":"resourceId","type":"bytes32","indexed":false,"internalType":"bytes32"},{"name":"price","type":"uint256","indexed":false,"internalType":"uint256"}],"anonymous":false}],"bytecode":{"object":"0x60808060405234601557615dd5908161001a8239f35b5f80fdfe60806040526004361015610011575f80fd5b5f3560e01c806304eea7bc14612ad95780630a91c23f14611cfe5780630affe01f146129b45780630ce79bf11461290f5780630e953e1a146128a457806312e74a5e1461278e5780633153741a146126115780633278808614611f14578063336afed214611d03578063364de31514611cfe5780633c9b9bc014611c6e578063440dcb3014611c5357806344a4e39514611b085780634c75eea814611a6b5780634fbe3e3a14611a1b578063651245a2146118c9578063663e7fe014611709578063675c0075146116a457806368a22c21146114185780638da14204146111fe5780639b0fbffe146110d1578063a57cd475146110b4578063a5d038df14610fec578063b4d6af8a14610f5e578063c1cc57b014610dc9578063d06007be14610d32578063d60ec19d14610c14578063da180c1614610959578063dafc37951461090b578063dc8dd44c1461078d5763f4f9f54d1461016e575f80fd5b346107895761017c36612f23565b905f80516020615d40833981519152906101a1602061019a83614d45565b0151613a1b565b515f525f80516020615b208339815191526020526101e560405f206101d060018060a01b038254161515613084565b6002600482015414908161077a575b506130cd565b805f525f80516020615ce0833981519152602052600160405f2001548015610738575f525f80516020615ae083398151915260205260405f205461022a811515613336565b5f9081525f80516020615b208339815191526020526040902054610263906001600160a01b031661025c811515613084565b3314613129565b61026c81614d45565b90805f525f80516020615ce083398151915260205260405f209260018401549384156106d9575f8581525f80516020615ae083398151915260209081526040808320805484525f80516020615b208339815191528352818420546001600160a01b03168085529590925290912092909190330361067e57600182015461064357546001600160a01b03166106045760020180549182156105a057600301918254156105375761031a90615264565b90556103268154615264565b9055825f525f80516020615d008339815191526020526103498160405f206156c9565b156104e757602092815f525f80516020615ce083398151915284525f60036040822082815582600182015582600282015501557f5abefe0a1fb3d6df34b14e459422791829e024e367c6df8eaf0bf218cf42fb365f80a30180515f525f80516020615d8083398151915260205260405f20825f52602052600160405f200154906103d2836146ad565b60028310610492575460ff166103e781612e17565b610418575191600119820191821161040457610402926144f6565b005b634e487b7160e01b5f52601160045260245ffd5b60405162461bcd60e51b815260206004820152604660248201527f4c69624f6666657256323a20726571756972656420746f2072656d6f7665206160448201527f2056435055207265736f7572636520616c6f6e67207769746820636f6d70757460648201526519481d5b9a5d60d21b608482015260a490fd5b60405162461bcd60e51b815260206004820152602760248201527f4c69624f6666657256323a206e6f7420656e6f756768207265736f757263652060448201526634b7103832b2b960c91b6064820152608490fd5b60405162461bcd60e51b815260206004820152602260248201527f496e76616c69642072656d6f76652066726f6d20656e756d657261626c652073604482015261195d60f21b6064820152608490fd5b60405162461bcd60e51b815260206004820152604860248201525f80516020615cc083398151915260448201527f75746520756e697420626563617573652070726f766964657220686173207a65606482015267726f20756e69747360c01b608482015260a490fd5b60a460405162461bcd60e51b815260206004820152604460248201525f80516020615cc083398151915260448201527f75746520756e69742062656361757365207065657220686173207a65726f20756064820152636e69747360e01b6084820152fd5b60405162461bcd60e51b815260206004820152601760248201527610dbdb5c1d5d19481d5b9a5d081a5cc81a5b881919585b604a1b6044820152606490fd5b60405162461bcd60e51b81526020600482015260136024820152721419595c881a185cc818dbdb5b5a5d1b595b9d606a1b6044820152606490fd5b60405162461bcd60e51b815260206004820152602d60248201527f4f666665723a2070726f746f636f6c2076657273696f6e206d69736d6174636860448201526c2c20726571756972656420763160981b6064820152608490fd5b60405162461bcd60e51b815260206004820152603160248201527f72656d6f766542617365436f6d70757465556e69743a20436f6d7075746520756044820152701b9a5d08191bd95cdb89dd08195e1a5cdd607a1b6064820152608490fd5b60405162461bcd60e51b815260206004820152601a60248201527913d999995c8e881d5b9a5d08191bd95cc81b9bdd08195e1a5cdd60321b6044820152606490fd5b6002915060050154145f6101df565b5f80fd5b34610789576040366003190112610789576004356024356001600160401b038111610789576107c0903690600401612ef6565b91906107ca6134dc565b815f5260015f80516020615b40833981519152016020526107f060405f20541515613a98565b5f8281525f80516020615b0083398151915260205260409020600101926001600160401b0381116108f75761082f81610829865461339d565b866135b4565b5f93601f82116001146108885761085e82805f80516020615ac083398151915296975f9161087d575b506135f7565b90555b610878604051928392602084526020840191613609565b0390a2005b905085013588610858565b601f19821694815f5260205f20905f5b8781106108df5750835f80516020615ac08339815191529697106108c6575b5050600182811b019055610861565b8401355f19600385901b60f8161c1916905585806108b7565b90916020600181928589013581550193019101610898565b634e487b7160e01b5f52604160045260245ffd5b34610789576020366003190112610789576004356001600160401b0381116107895760a06003198236030112610789576109516020916109496134dc565b600401613cae565b604051908152f35b34610789576060366003190112610789576004356024356001600160401b0381116107895761098c903690600401612dae565b6044359291906001600160401b038411610789578360040191606060031986360301126107895781610a60916109c186613a1b565b515f525f80516020615b20833981519152602052610a0460405f206109f060018060a01b038254161515613084565b60026004820154149081610c0557506130cd565b855f525f80516020615ae083398151915260205260405f2054610a28811515613336565b5f9081525f80516020615b208339815191526020526040902054610a5a906001600160a01b031661025c811515613084565b85615270565b8135610a6b816146ad565b94610a7585613a1b565b5f80516020615bc083398151915290515f5260205260ff60405f20965416610a9c81612e17565b610b895760240135918060011b9080820460021490151715610404578203610b1f57610ad6610ad182600161040298016156b6565b614cc8565b835f525f80516020615d8083398151915260205260405f2092610afc82600186016156b6565b15610b125750610b0d9250836144f6565b614fed565b915050610b0d9183614e18565b60405162461bcd60e51b815260206004820152603c60248201527f4c69624f6666657256323a20636f6d7075746520756e69747320636f756e742060448201527b0c2dcc840e4cae6deeae4c6ca40e6eae0e0d8f240dad2e6dac2e8c6d60231b6064820152608490fd5b60405162461bcd60e51b815260206004820152604860248201527f4c69624f6666657256323a207265676973746572696e6720636f6d707574652060448201527f756e69747320726571756972657320616464696e67206e65772056435055207260648201526765736f757263657360c01b608482015260a490fd5b600291506005015414896101df565b3461078957602036600319011261078957600435610c3061349f565b50610c3961349f565b50805f5260015f80516020615ca083398151915201602052610c6060405f20541515614443565b5f525f80516020615c0083398151915260205260405f20600560405191610c8683613187565b80548352610c96600182016133d5565b6020840152610ca7600282016133d5565b6040840152600381015460608401526004810154608084015201908154610ccd8161324d565b92610cdb604051948561322a565b81845260208401905f5260205f205f915b838310610d1557610d11858760a0820152604051918291602083526020830190612ccc565b0390f35b600160208192610d24856133d5565b815201920192019190610cec565b3461078957602036600319011261078957610d11610da6600435610d54613475565b50610d5e81613a1b565b515f525f80516020615b20833981519152602052610da160405f20610d8d60018060a01b038254161515613084565b60026004820154149081610dba57506130cd565b61474c565b604051918291602083526020830190612f39565b600291506005015414856101df565b34610789575f366003190112610789575f80516020615b4083398151915254610df18161324d565b90610dff604051928361322a565b808252601f19610e0e8261324d565b015f5b818110610f345750505f5b818110610eae57826040518091602082016020835281518091526040830190602060408260051b8601019301915f905b828210610e5b57505050500390f35b91936001919395506020610e9e8192603f198a8203018652606060408a518051845285810151610e8a81612e17565b868501520151918160408201520190612ca8565b9601920192018594939192610e4c565b80610ec86001925f80516020615b408339815191526155f6565b90549060031b1c805f525f80516020615b00833981519152602052610f138360405f2060ff81541660405194610efd866131bd565b8552610f0881612e17565b6020850152016133d5565b6040820152610f2282866132fe565b52610f2d81856132fe565b5001610e1c565b602090604051610f43816131bd565b5f81525f838201526060604082015282828701015201610e11565b346107895760203660031901126107895760606020604051610f7f816131a2565b5f81520152610f8f6004356146ad565b610fb7600160405192610fa1846131a2565b60ff815416610faf81612e17565b8452016133d5565b9060208101918252610d116040519283926020845251610fd681612e17565b6020840152516040808401526060830190612ca8565b3461078957610402610ffd36612d94565b9161100781613a1b565b515f525f80516020615b2083398151915260205261104a60405f2061103660018060a01b038254161515613084565b600260048201541490816110a557506130cd565b805f525f80516020615ae083398151915260205260405f205461106e811515613336565b5f9081525f80516020615b2083398151915260205260409020546110a0906001600160a01b031661025c811515613084565b6144f6565b600291506005015414866101df565b34610789575f366003190112610789576020610800604051908152f35b34610789576110df36612f23565b815f525f80516020615b2083398151915260205261112260405f2061110e60018060a01b038254161515613084565b600260048201541490816111ef57506130cd565b5f8281525f80516020615b2083398151915260205260409020545f80516020615d2083398151915254336001600160a01b0392831614911681156111e5575b5015611170576104029161448a565b60405162461bcd60e51b815260206004820152604160248201527f4f6666657256323a206f6e6c79206f66666572206f776e6572206f662064696160448201527f6d6f6e64206f776e65642063616e2063616c6c20746869732066756e6374696f6064820152603760f91b608482015260a490fd5b9050331483611161565b600291506005015414846101df565b34610789576060366003190112610789576024356004356044356001600160401b03811161078957611234903690600401612dae565b909261123e6134dc565b5f8381527f23a233ee73076c3cf570675cfe9ff168e5811fe06bf68358a371b89594cf424c6020526040902054156113c957825f525f80516020615c00833981519152602052600560405f208260048201550161129b8382613be3565b5f9081526020812090855b8482106112ef575050506108787f4d161fbdfae7c62050e8fdb6b3244c8c44ab905053a20861ce70b7866bb84cae93946040519384938452604060208501526040840191613c2a565b6112f981886132cc565b906001600160401b0382116108f75761131c82611316875461339d565b876135b4565b5f90601f831160011461135f5792611345836001959460209487965f92611354575b50506135f7565b86555b019301910190916112a6565b013590508d8061133e565b601f19831691865f5260205f20925f5b8181106113b15750936020936001969387969383889510611398575b505050811b018655611348565b01355f19600384901b60f8161c191690558c808061138b565b9193602060018192878701358155019501920161136f565b60405162461bcd60e51b815260206004820152603460248201525f80516020615c60833981519152604482015273657869737420696e20746865206e6574776f726b60601b6064820152608490fd5b346107895760203660031901126107895760043561143581613a1b565b515f525f80516020615b2083398151915260205261147860405f2061146460018060a01b038254161515613084565b6002600482015414908161169557506130cd565b805f525f80516020615ae083398151915260205260405f205461149c811515613336565b5f9081525f80516020615b2083398151915260205260409020546114ce906001600160a01b031661025c811515613084565b6114d781613a1b565b51815f525f80516020615ae083398151915260205260405f20805490815f525f80516020615b20833981519152602052600260405f20916115198415156139da565b825461152f906001600160a01b03163314613129565b0154611657576003019081549182156115e15761154c8593615264565b9055815f525f80516020615ae08339815191526020525f60036040822082815582600182015582600282015501557f5f91ba2d62c13db8e4353c3b2d314e715907459581a42b764f350231f8ee0cf35f80a35f525f80516020615c408339815191526020526115be8160405f206156c9565b505f525f80516020615d80833981519152602052610402600160405f2001614413565b60405162461bcd60e51b815260206004820152604260248201527f4c6962426173654f666665723a20617474656d707420746f2072656d6f76652060448201527f6120706565722066726f6d20616e206f6666657220776974686f757420706565606482015261727360f01b608482015260a490fd5b60405162461bcd60e51b8152602060048201526016602482015275506565722068617320636f6d7075746520756e69747360501b6044820152606490fd5b600291506005015414836101df565b3461078957602036600319011261078957600435805f525f80516020615b208339815191526020526116e760405f2061146460018060a01b038254161515613084565b5f525f80516020615d60833981519152602052602060405f2054604051908152f35b3461078957602036600319011261078957600435805f525f80516020615b2083398151915260205261174c60405f2061146460018060a01b038254161515613084565b5f8181525f80516020615b20833981519152602052604090205461177e906001600160a01b031661025c811515613084565b5f80516020615bc0833981519152815f525f80516020615b20833981519152602052600360405f206117be60018060a01b0382541661025c811515613084565b015461188a57815f525f80516020615b208339815191526020525f6005604082208281558260018201558260028201558260038201558260048201550155817f0e2c810360f652bf120515b49756167e4b196601c40ce83c5df5a8fa22d7f9b85f80a2611838825f80516020615ba08339815191526156c9565b50815f525f80516020615c4083398151915260205261185960405f20614413565b815f5260205261186e600160405f2001614413565b5f9081525f80516020615d608339815191526020526040812055005b60405162461bcd60e51b81526020600482015260176024820152764f666665722068617320636f6d7075746520706565727360481b6044820152606490fd5b3461078957602036600319011261078957600435805f525f80516020615b2083398151915260205261190c60405f2061146460018060a01b038254161515613084565b5f525f80516020615c4083398151915260205261192b60405f2061566e565b8051906119378261324d565b91611945604051938461322a565b808352611954601f199161324d565b015f5b818110611a045750505f5b815181101561199d578061198161197b600193856132fe565b5161474c565b61198b82866132fe565b5261199681856132fe565b5001611962565b826040518091602082016020835281518091526040830190602060408260051b8601019301915f905b8282106119d557505050500390f35b919360019193955060206119f48192603f198a82030186528851612f39565b96019201920185949391926119c6565b602090611a0f613475565b82828701015201611957565b34610789576040366003190112610789576004356006811015610789576024356001600160401b03811161078957602091611a5d610951923690600401612ef6565b91611a666134dc565b613629565b34610789576040366003190112610789576024356004356001600160401b03821161078957611aa1610402923690600401612dae565b91805f525f80516020615b20833981519152602052611ad160405f2061103660018060a01b038254161515613084565b5f8181525f80516020615b208339815191526020526040902054611b03906001600160a01b031661025c811515613084565b614112565b346107895760207f70d46cd13334dda734a1cb401ea1e6978e6af966fbdf9e34b2a543a2fcca585c611b3936612f23565b909290611b4584613a1b565b515f525f80516020615b208339815191528252611b7360405f2061103660018060a01b038254161515613084565b835f525f80516020615ae0833981519152825260405f2054611b96811515613336565b5f9081525f80516020615b2083398151915283526040902054611bc7906001600160a01b031661025c811515613084565b835f525f80516020615d808339815191528252611c408160405f20815f5260015f80516020615b40833981519152018552611c0760405f20541515613a98565b6001810190611c1e611c1984846156b6565b613aff565b825f528552611c3b600260405f205f81555f600182015501613b95565b6156c9565b50611c4a84614fed565b604051908152a2005b34610789575f36600319011261078957602060405160028152f35b34610789576020366003190112610789576004356001600160401b03811161078957611c9e903690600401612dae565b611ca66134dc565b611caf81613264565b36839003609e1901925f5b83811015611cf0578060051b820135908582121561078957611cdf6001928401613cae565b611ce982866132fe565b5201611cba565b60405180610d118582612dde565b612d76565b34610789576060366003190112610789576024356004356044356001600160401b03811161078957611d39903690600401612ef6565b9092611d4483613a1b565b515f525f80516020615b20833981519152602052611d7360405f2061103660018060a01b038254161515613084565b825f525f80516020615ae083398151915260205260405f2054611d97811515613336565b5f9081525f80516020615b208339815191526020526040902054611dc9906001600160a01b031661025c811515613084565b825f525f80516020615d8083398151915260205260405f20815f5260015f80516020615b4083398151915201602052611e0760405f20541515613a98565b611e17611c1983600184016156b6565b815f52602052600260405f200160018060401b0383116108f757611e4583611e3f835461339d565b836135b4565b5f601f8411600114611e9e579461087891611e7785805f80516020615b8083398151915298995f91611e9357506135f7565b90555b6040519384938452604060208501526040840191613609565b90508401358a610858565b601f19841690825f5260205f20915f5b818110611efc5750916108789391865f80516020615b8083398151915298999410611ee3575b5050600185811b019055611e7a565b8301355f19600388901b60f8161c191690558780611ed4565b9192602060018192868c013581550194019201611eae565b34610789576080366003190112610789576004356001600160a01b03811690819003610789576024356001600160401b0381116107895736602382011215610789576004810135906001600160401b038211610789573660246060840283010111610789576044356001600160401b03811161078957611f98903690600401612dae565b9290606435905f80516020615bc0833981519152935f80516020615d408339815191529460405160208101907febbe29d10864671a7296ae5158eb0df8533e86c62e6a8460f3029ae682538c5182523360601b6040820152436054820152365f607483013761201a6074823681015f838201520301601f19810183528261322a565b5190209560018060a01b0333165f5260205261203960405f205461339d565b156125d3575f8681525f80516020615b2083398151915260205260409020600201546001600160a01b0316612597578715612541577f60ac4d56f7e69877e4b95a6e91f4b3612278b580a93ea7637885a480e015031a546002106124fc577f60ac4d56f7e69877e4b95a6e91f4b3612278b580a93ea7637885a480e015031b546002116124b857875f527f60ac4d56f7e69877e4b95a6e91f4b3612278b580a93ea7637885a480e015031d60205260ff60405f205416156124745760405161210081613187565b3381525f602080830182815260408085018d81526060860185815260026080880181815260a089018281528f89525f80516020615b20833981519152885297859020985189546001600160a01b039182166001600160a01b0319918216178b55965160018b015593519189018054929094169190951617909155516003860155905160048501559151600590930192909255519098906121a08a8261322a565b5f815260409896985160c081018982525f8c83015283604083015260c0606083015282518091528b60e083019301905f5b8d82821061244b575050505088927fb3c599d3424c34594b558e069189acb9e8e9f0cc3fb704e513aca45a06db035b927f02b4bfba88db81e84c717b16bf874a79ecc39de3944a9f18dd7122ae32f0990783600260806060960152600260a08201528033930390a2612250845f80516020615ba083398151915261560b565b50604051908152338c820152876040820152a2855f52875260405f20925f94600185019360015f80516020615b4083398151915201965b898110156124345760608102850160648101359081156123d1576044013590815f52898d5260405f20541561235a57815f52888d528060405f20556122cc828961560b565b156122f8575f80516020615be08339815191526040600194938f938e948351928352820152a201612287565b60405162461bcd60e51b8152600481018e9052603460248201527f4c69624f6666657256323a207265736f757263652077617320616c7265616479604482015273103932b3b4b9ba32b932b21034b71037b33332b960611b6064820152608490fd5b60405162461bcd60e51b8152600481018e9052604360248201527f4c69624f6666657256323a20417474656d707420746f2072656769737465722060448201527f61207265736f75726365206e6f74206b6e6f776e20746f20746865206e6574776064820152626f726b60e81b608482015260a490fd5b60405162461bcd60e51b8152600481018e9052603560248201527f4c69624f6666657256323a2063616e6e6f74207265676973746572203020617360448201527420707269636520666f722061207265736f7572636560581b6064820152608490fd5b8a8961095186612445878785614112565b8261448a565b835180516001600160e01b031916875281015181870152604090950194909201916001016121d1565b60405162461bcd60e51b815260206004820152601c60248201527b14185e5b595b9d081d1bdad95b881a5cc81b9bdd08185b1b1bddd95960221b6044820152606490fd5b60405162461bcd60e51b815260206004820152601c60248201527b4d61782070726f746f636f6c2076657273696f6e20746f6f2062696760201b6044820152606490fd5b60405162461bcd60e51b815260206004820152601e60248201527f4d696e2070726f746f636f6c2076657273696f6e20746f6f20736d616c6c00006044820152606490fd5b60405162461bcd60e51b815260206004820152602860248201527f5061796d656e7420746f6b656e2073686f756c64206265206e6f74207a65726f604482015267206164647265737360c01b6064820152608490fd5b60405162461bcd60e51b81526020600482015260146024820152734f6666657220616c72656164792065786973747360601b6044820152606490fd5b60405162461bcd60e51b8152602060048201526016602482015275141c9bdd9a59195c88191bd95cdb89dd08195e1a5cdd60521b6044820152606490fd5b34610789576040366003190112610789576024356004356001600160401b038211610789576060826004019260031990360301126107895761265281613a1b565b515f525f80516020615b2083398151915260205261268160405f2061110e60018060a01b038254161515613084565b805f525f80516020615ae083398151915260205260405f20546126a5811515613336565b5f9081525f80516020615b2083398151915260205260409020546126d7906001600160a01b031661025c811515613084565b6126e081613a1b565b515f80516020615bc0833981519152905f52602052612707600160405f20018335906156b6565b1561273157610b0d61040292825f525f80516020615d8083398151915260205260405f2083614e18565b60405162461bcd60e51b815260206004820152602f60248201527f4c69624f6666657256323a207265736f75726365206973206e6f74207265676960448201526e39ba32b932b21034b71037b33332b960891b6064820152608490fd5b34610789575f366003190112610789576127b45f80516020615ba083398151915261566e565b8051906127c08261324d565b916127ce604051938461322a565b8083526127dd601f199161324d565b015f5b81811061288d5750505f5b8151811015612826578061280a612804600193856132fe565b516137d5565b61281482866132fe565b5261281f81856132fe565b50016127eb565b826040518091602082016020835281518091526040830190602060408260051b8601019301915f905b82821061285e57505050500390f35b9193600191939550602061287d8192603f198a82030186528851612e35565b960192019201859493919261284f565b602090612898613312565b828287010152016127e0565b3461078957602036600319011261078957610d116128fb6004356128c6613312565b50805f525f80516020615b208339815191526020526128f660405f20610d8d60018060a01b038254161515613084565b6137d5565b604051918291602083526020830190612e35565b34610789576020366003190112610789576004356001600160401b0381116107895761293f903690600401612dae565b906129486134dc565b61295182613264565b905f5b8381106129695760405180610d118582612dde565b612974818584613296565b35906006821015610789576129a360019261299d612993848988613296565b60208101906132cc565b91613629565b6129ad82866132fe565b5201612954565b34610789576129c236612d94565b90825f525f80516020615b208339815191526020526129f260405f20610d8d60018060a01b038254161515613084565b5f8381525f80516020615b208339815191526020526040902054612a24906001600160a01b031661025c811515613084565b5f80516020615bc0833981519152835f5260205260405f20908215612a7b575f80516020615be08339815191529282612a628360016040960161560b565b50825f5260205280835f205582519182526020820152a2005b60405162461bcd60e51b815260206004820152603060248201527f4c69624f6666657256323a2063616e6e6f74206368616e6765207265736f757260448201526f636520707269636520746f207a65726f60801b6064820152608490fd5b34610789575f366003190112610789575f80516020615ca083398151915254612b018161324d565b90612b0f604051928361322a565b808252601f19612b1e8261324d565b015f5b818110612c915750505f5b818110612b9a57826040518091602082016020835281518091526040830190602060408260051b8601019301915f905b828210612b6b57505050500390f35b91936001919395506020612b8a8192603f198a82030186528851612ccc565b9601920192018594939192612b5c565b612bb1815f80516020615ca08339815191526155f6565b90549060031b1c5f525f80516020615c0083398151915260205260405f20600560405191612bde83613187565b80548352612bee600182016133d5565b6020840152612bff600282016133d5565b60408401526003810154606084015260048101546080840152018054612c248161324d565b91612c32604051938461322a565b81835260208301905f5260205f20905f905b838210612c74575050505060a082015260019190612c6282866132fe565b52612c6d81856132fe565b5001612b2c565b600160208192612c83866133d5565b815201930191019091612c44565b602090612c9c61349f565b82828701015201612b21565b805180835260209291819084018484015e5f828201840152601f01601f1916010190565b8051825260a0612d00612cee602084015160c0602087015260c0860190612ca8565b60408401518582036040870152612ca8565b91606081015160608501526080810151608085015201519160a0818303910152815180825260208201916020808360051b8301019401925f915b838310612d4957505050505090565b9091929394602080612d67600193601f198682030187528951612ca8565b97019301930191939290612d3a565b34610789575f36600319011261078957602062100000604051908152f35b606090600319011261078957600435906024359060443590565b9181601f84011215610789578235916001600160401b038311610789576020808501948460051b01011161078957565b60206040818301928281528451809452019201905f5b818110612e015750505090565b8251845260209384019390920191600101612df4565b60061115612e2157565b634e487b7160e01b5f52602160045260245ffd5b90606060808201928051835260018060a01b03602082015116602084015260018060a01b03604082015116604084015201519160806060830152825180915260a0820191602060a08360051b8301019401925f915b838310612e9957505050505090565b9091929394602080600192609f198582030186528851908151815282820151612ec181612e17565b83820152606080612ee16040850151608060408601526080850190612ca8565b93015191015297019301930191939290612e8a565b9181601f84011215610789578235916001600160401b038311610789576020838186019501011161078957565b6040906003190112610789576004359060243590565b60a082019080518352602081015160208401526040810151604084015260608101519160a060608501528251809152602060c085019301905f5b81811061302f5750505060800151916080818303910152815180825260208201916020808360051b8301019401925f915b838310612fb357505050505090565b9091929394602080600192601f198582030186528851908151815282820151612fdb81612e17565b8382015260a080613010612ffe604086015160c0604087015260c0860190612ca8565b60608601518582036060870152612ca8565b9360808101516080850152015191015297019301930191939290612fa4565b8251805186526020818101516001600160a01b031681880152604080830151908801526060918201519187019190915260809095019490920191600101612f73565b8181029291811591840414171561040457565b1561308b57565b60405162461bcd60e51b815260206004820152601a60248201527913d999995c8e881bd999995c88191bd95cdb89dd08195e1a5cdd60321b6044820152606490fd5b156130d457565b60405162461bcd60e51b815260206004820152602760248201527f4f666665723a206d6574686f64206f6e6c7920776f726b732077697468205632604482015266206f666665727360c81b6064820152608490fd5b1561313057565b60405162461bcd60e51b815260206004820152602960248201527f4f666665723a206f6e6c792070726f76696465722063616e2063616c6c2074686044820152681a5cc81b595d1a1bd960ba1b6064820152608490fd5b60c081019081106001600160401b038211176108f757604052565b604081019081106001600160401b038211176108f757604052565b606081019081106001600160401b038211176108f757604052565b608081019081106001600160401b038211176108f757604052565b60a081019081106001600160401b038211176108f757604052565b61016081019081106001600160401b038211176108f757604052565b601f909101601f19168101906001600160401b038211908210176108f757604052565b6001600160401b0381116108f75760051b60200190565b9061326e8261324d565b61327b604051918261322a565b828152809261328c601f199161324d565b0190602036910137565b91908110156132b85760051b81013590603e1981360301821215610789570190565b634e487b7160e01b5f52603260045260245ffd5b903590601e198136030182121561078957018035906001600160401b0382116107895760200191813603831361078957565b80518210156132b85760209160051b010190565b6040519061331f826131d8565b606080835f81525f60208201525f60408201520152565b1561333d57565b60405162461bcd60e51b815260206004820152601a60248201527913d999995c8e881c19595c88191bd95cc81b9bdd08195e1a5cdd60321b6044820152606490fd5b8115613389570490565b634e487b7160e01b5f52601260045260245ffd5b90600182811c921680156133cb575b60208310146133b757565b634e487b7160e01b5f52602260045260245ffd5b91607f16916133ac565b9060405191825f8254926133e88461339d565b8084529360018116908115613453575060011461340f575b5061340d9250038361322a565b565b90505f9291925260205f20905f915b81831061343757505090602061340d928201015f613400565b602091935080600191548385890101520191019091849261341e565b90506020925061340d94915060ff191682840152151560051b8201015f613400565b60405190613482826131f3565b60606080835f81525f60208201525f604082015282808201520152565b604051906134ac82613187565b606060a0835f81528260208201528260408201525f838201525f60808201520152565b9190820391821161040457565b5f80516020615d20833981519152546001600160a01b031633036134fc57565b60405162461bcd60e51b815260206004820152602260248201527f4c69624469616d6f6e643a204d75737420626520636f6e7472616374206f776e60448201526132b960f11b6064820152608490fd5b9190820180921161040457565b9192916001600160401b0382116108f75760405191613582601f8201601f19166020018461322a565b829481845281830111610789578281602093845f960137010152565b8181106135a9575050565b5f815560010161359e565b9190601f81116135c357505050565b61340d925f5260205f20906020601f840160051c830193106135ed575b601f0160051c019061359e565b90915081906135e0565b8160011b915f199060031b1c19161790565b908060209392818452848401375f828201840152601f01601f1916010190565b905f80516020615b408339815191525492600184018094116104045761365c845f80516020615b4083398151915261560b565b506040519261366a846131a2565b61367381612e17565b8084526001613683368486613559565b9460208101958652865f525f80516020615b0083398151915260205260405f2090516136ae81612e17565b6136b781612e17565b60ff8019835416911617815501935192835160018060401b0381116108f75786946136ec826136e6895461339d565b896135b4565b602090601f8311600114613758578261374794935f80516020615c80833981519152989993613722935f9261374d5750506135f7565b90555b60405193836137348695612e17565b8452604060208501526040840191613609565b0390a290565b015190505f8061133e565b601f9792919719821690835f52885f20915f5b8181106137ba5750915f80516020615c8083398151915298998492613747979695600195106137a2575b505050811b019055613725565b01515f1960f88460031b161c191690555f8080613795565b828b0151845560209a8b019a8c9a506001909401930161376b565b6137dd613312565b505f60806040516137ed816131f3565b8281528260208201528260408201528260608201520152805f525f80516020615b2083398151915260205260405f2060018060a01b0381541691613832831515613084565b60018060a01b03600283015416916080600382015460056004840154930154926040519161385f836131f3565b8783528660208401526040830152606082015201525f80516020615bc0833981519152815f5260205260405f20936138996001860161566e565b918251936138a68561324d565b946138b4604051968761322a565b8086526138c3601f199161324d565b015f5b8181106139865750505f5b845181101561395e57806138e7600192876132fe565b51805f528960205260405f2054815f525f80516020615b008339815191526020526139388460405f2060ff81541660405195613922876131d8565b865261392d81612e17565b6020860152016133d5565b6040830152606082015261394c82896132fe565b5261395781886132fe565b50016138d1565b5092509390945060405193613972856131d8565b845260208401526040830152606082015290565b602090604051613995816131d8565b5f81525f83820152606060408201525f606082015282828a010152016138c6565b604051906139c3826131d8565b5f6060838281528260208201528260408201520152565b156139e157565b60405162461bcd60e51b81526020600482015260126024820152711419595c88191bd95cdb89dd08195e1a5cdd60721b6044820152606490fd5b613a236139b6565b50805f525f80516020615ae0833981519152602052613a4760405f205415156139da565b5f525f80516020615ae083398151915260205260405f2060405190613a6b826131d8565b805482526001810154602083015260028101546040830152600301546001600160a01b0316606082015290565b15613a9f57565b60405162461bcd60e51b815260206004820152603260248201527f4c69624f6666657256323a207265736f7572636520646f6573206e6f7420657860448201527169737420696e20746865206e6574776f726b60701b6064820152608490fd5b15613b0657565b60405162461bcd60e51b815260206004820152602c60248201527f4c69624f6666657256323a207065657220646f6573206e6f742068617665207460448201526b686973207265736f7572636560a01b6064820152608490fd5b903590601e198136030182121561078957018035906001600160401b03821161078957602001918160051b3603831361078957565b613b9f815461339d565b9081613ba9575050565b81601f5f9311600114613bba575055565b81835260208320613bd691601f0160051c81019060010161359e565b8082528160208120915555565b90600160401b81116108f757815491818155828210613c0157505050565b5f5260205f2091820191015b818110613c18575050565b80613c24600192613b95565b01613c0d565b90602083828152019060208160051b85010193835f915b838310613c515750505050505090565b909192939495601f198282030186528635601e1984360301811215610789578301602081019190356001600160401b03811161078957803603831361078957613ca06020928392600195613609565b980196019493019190613c41565b5f80516020615ca083398151915254906001820180921161040457613cd381806132cc565b916020810192613ce384836132cc565b909186604085013595606086013593613d2f6080880196613d20613d07898b613b60565b95909760405197613d1789613187565b88523691613559565b92602086019384523691613559565b6040840190815260608401918983526080850193878552613d4f8161324d565b96613d5d604051988961322a565b818852602088019160051b8101903682116107895780925b8284106140d6575050505060a085019586525f8c81525f80516020615c00833981519152602052604090209451855551805160018601916001600160401b0382116108f757613dce82613dc8855461339d565b856135b4565b602090601f831160011461407357613def92915f918361374d5750506135f7565b90555b51805160028501916001600160401b0382116108f757613e1682613dc8855461339d565b602090601f8311600114613fff579180613e3e92600598979695945f9261374d5750506135f7565b9055908a9998979695949392915b5160038301555160048201550190516020815191613e6a8385613be3565b01915f5260205f20915f905b828210613f26575050505092613ede92613747927fc02d21eab7c2b83cc37ebb11f403ad2734852bf12f7db14f3219b672a5be1e489695613ec4895f80516020615ca083398151915261560b565b50613f0e613ee6613ed585806132cc565b989099866132cc565b949095613b60565b949093613f006040519a8b9a60a08c5260a08c0191613609565b9189830360208b0152613609565b93604087015260608601528483036080860152613c2a565b80919293949596979899505180519060018060401b0382116108f757613f5682613f50885461339d565b886135b4565b602090601f8311600114613f965792613f7f836001959460209487965f9261374d5750506135f7565b87555b019401910189989796959493929192613e76565b90601f19831691875f52815f20925f5b818110613fe75750936020936001969387969383889510613fcf575b505050811b018755613f82565b01515f1960f88460031b161c191690555f8080613fc2565b92936020600181928786015181550195019301613fa6565b90601f19831691845f52815f20925f5b81811061405b575091600193918560059a999897969410614043575b505050811b019055908a999897969594939291613e4c565b01515f1960f88460031b161c191690555f808061402b565b9293602060018192878601518155019501930161400f565b90601f19831691845f52815f20925f5b8181106140be57509084600195949392106140a6575b505050811b019055613df2565b01515f1960f88460031b161c191690555f8080614099565b92936020600181928786015181550195019301614083565b83356001600160401b03811161078957820136601f8201121561078957602091614107839236908481359101613559565b815201930192613d75565b9190915f915b8083101561440d578260051b840135607e19853603018112156107895784015f80516020615bc08339815191529381359160208101359060018060a01b0382168092036107895761416c6060820182613b60565b5f93919350855f525f80516020615ae083398151915260205260405f20885f525f80516020615b2083398151915260205260405f2081546143ad5787156143565783156142f957898255600391820180546001600160a01b0319169094178455018054909490925f198414610404577f2a9c96970c242b218486fb3338450a874ff7ccad1fcad3d89b2781f48ece88d060408b929d9e9d61425898600161422c9801905560018060a01b039054168151908b82526020820152a286615270565b855f525f80516020615c4083398151915260205261424d8460405f2061560b565b506040810190613b60565b96909561426484613a1b565b515f5260205260405f2094835f525f80516020615d8083398151915260205260405f20945f99605e19893603019a5b8a8110156142d7578060051b8a0135908c821215610789576142d16001928c0180355f528b6020526142ca60405f20541515614cc8565b8a8a614e18565b01614293565b50975097509750935090600192506142ee90614fed565b019192939093614118565b60405162461bcd60e51b815260206004820152602f60248201527f4c6962426173654f666665723a204f776e657220616464726573732073686f7560448201526e6c64206265206e6f7420656d70747960881b6064820152608490fd5b60405162461bcd60e51b815260206004820152602960248201527f4c6962426173654f666665723a20506565722069642073686f756c64206265206044820152686e6f7420656d70747960b81b6064820152608490fd5b60405162461bcd60e51b815260206004820152603260248201527f4c6962426173654f666665723a205065657220616c7265616479206578697374604482015271399034b71030b737ba3432b91037b33332b960711b6064820152608490fd5b50505050565b8054905f815581614422575050565b5f5260205f20908101905b818110614438575050565b5f815560010161442d565b1561444a57565b60405162461bcd60e51b815260206004820152602560248201525f80516020615c60833981519152604482015264195e1a5cdd60da1b6064820152608490fd5b9060207ffc2e2c567f0255728a7599aa8e2d0870a45e4ec9d8306044f53eac0153f2162891805f5260015f80516020615ca08339815191520182526144d460405f20541515614443565b835f525f80516020615d6083398151915282528060405f2055604051908152a2565b91825f525f80516020615d8083398151915260205260405f2091805f528260205261452881600160405f2095016156b6565b15614654576001830180548381111561461b5750614548815493846134cf565b93805485811061459b57856060956145715f80516020615c2083398151915298614578946134cf565b84556134cf565b82555b61458486614fed565b5490549060405192835260208301526040820152a2565b60405162461bcd60e51b815260206004820152604c60248201527f4c69624f6666657256323a2063616e6e6f74206465637265617365207065657260448201527f207265736f7572636520737570706c792062656361757365206974206973207560648201526b73656420696e204465616c7360a01b608482015260a490fd5b9361464d8561463a5f80516020615c20833981519152976060976134cf565b9061464682855461354c565b845561354c565b825561457b565b60405162461bcd60e51b815260206004820152602b60248201527f4c69624f6666657256323a2070656572207265736f75726365206973206e6f7460448201526a081c9959da5cdd195c995960aa1b6064820152608490fd5b5f8181527f23a233ee73076c3cf570675cfe9ff168e5811fe06bf68358a371b89594cf42456020526040902054156146f9575f525f80516020615b0083398151915260205260405f2090565b60405162461bcd60e51b815260206004820152602560248201527f4c69624f6666657256323a207265736f75726365496420646f6573206e6f7420604482015264195e1a5cdd60da1b6064820152608490fd5b90614755613475565b5061475f82613a1b565b6020815191015190835f525f80516020615d0083398151915260205261478760405f2061566e565b908151946147948661324d565b956147a2604051978861322a565b8087526147b1601f199161324d565b015f5b818110614cb1575050805f525f80516020615ae0833981519152602052600160405f200154935f94806149e8575b505f5b845181101561487057806147fb600192876132fe565b51805f525f80516020615ce083398151915260205260405f2060028101548015614869575b6003858060a01b03835416920154916040519361483c856131d8565b8452602084015260408301526060820152614857828b6132fe565b52614862818a6132fe565b50016147e5565b5088614820565b5093509390949150835f525f80516020615d8083398151915260205260405f209461489d6001870161566e565b928351946148aa8661324d565b956148b8604051978861322a565b8087526148c7601f199161324d565b015f5b8181106149ac5750505f5b855181101561497f57806148eb600192886132fe565b51805f528a60205260405f20815f525f80516020615b0083398151915260205260405f20614954600260ff83541693614949888254958184015497604051996149338b613187565b8a5261493e81612e17565b60208a0152016133d5565b6040870152016133d5565b6060840152608083015260a082015261496d828a6132fe565b5261497881896132fe565b50016148d5565b5092965092509360405194614993866131f3565b8552602085015260408401526060830152608082015290565b6020906040516149bb81613187565b5f81525f83820152606060408201526060808201525f60808201525f60a082015282828b010152016148ca565b9094505f6101406040516149fb8161320e565b8281528260208201528260408201528260608201528260808201528260a08201528260c08201528260e0820152826101008201528261012082015201525f527fa8de0abb18de6e730ac24d7fe02c877d293683811fc3ac5d8e62e2a52c0d20d760205260405f2060018101548015614c6257614ac3614a9b7f7d4f8ec43464738265ced6b7ed5f90007e9b7c34318bdd82d9249328b50bd35754426134cf565b7f7d4f8ec43464738265ced6b7ed5f90007e9b7c34318bdd82d9249328b50bd358549061337f565b600101806001116104045761014090600684015493600381015491614ae8838761354c565b90614bd6614af587613a1b565b9260405192614b03846131a2565b614b0b61578e565b8452846020850194614b1b61578e565b865260ff8854168151614b2d82612e17565b52600c8801546020825101526008880154604082510152600a880154606082510152600b880154608082510152600988015460a082510152600788015460c082510152805151614b7c81612e17565b8651614b8782612e17565b5260208151015160208751015260408151015160408751015260608151015160608751015260808151015160808751015260a08151015160a08751015260c08151015160c087510152876157d4565b93614beb60406002860154940151918961354c565b60048501549160018060a01b03600587015416935194600d602060408801519701519701549960405198614c1e8a61320e565b614c2781612e17565b895260208901526040880152606087015288608087015260a086015260c085015260e08401526101008301526101208201520152935f6147e2565b60405162461bcd60e51b815260206004820152602160248201527f436170616369747920636f6d6d69746d656e7420646f65736e277420657869736044820152601d60fa1b6064820152608490fd5b602090614cbc6139b6565b82828b010152016147b4565b15614ccf57565b60405162461bcd60e51b815260206004820152604260248201527f4c69624f6666657256323a20617474656d707420746f2072656769737465722060448201527f61207265736f7572636520746f207065657220776974686f7574206120707269606482015261636560f01b608482015260a490fd5b614d4d6139b6565b50805f525f80516020615ce0833981519152602052600160405f20015415614dc0575f525f80516020615ce083398151915260205260405f20600360405191614d95836131d8565b80546001600160a01b0316835260018101546020840152600281015460408401520154606082015290565b60405162461bcd60e51b815260206004820152602a60248201527f676574436f6d70757465556e69743a20436f6d7075746520756e697420646f656044820152691cdb89dd08195e1a5cdd60b21b6064820152608490fd5b919060208201359060408301614e2e81856132cc565b92906002614e5460405192614e42846131bd565b87845260208401968888523691613559565b9160408101928352873595865f528460205260405f209151825551600182015501905190815160018060401b0381116108f7578592614e9782613dc8855461339d565b602090601f8311600114614f7d5782614ec9969360019593614ec0935f9261374d5750506135f7565b90555b0161560b565b15614f1f57614efc614f1a917f1b7623d2e00fbadfcf401c65d366a9d6369da40d64b0d76a479ff47ce494a4fa956132cc565b60405194859485526020850152606060408501526060840191613609565b0390a2565b60405162461bcd60e51b815260206004820152603060248201527f4c69624f6666657256323a2070656572207265736f757263652077617320616c60448201526f1c9958591e481c9959da5cdd195c995960821b6064820152608490fd5b601f959392919519821690835f52865f20915f5b818110614fd2575091614ec99784926001979695889510614fba575b505050811b019055614ec3565b01515f1960f88460031b161c191690555f8080614fad565b8289015184556020988901988b985060019094019301614f91565b5f9081525f80516020615ae0833981519152602090815260408083205f80516020615d808339815191529092528220600181018054849283928392839290915b8284106151b957505050506150456108008093613071565b11615150576150549084613071565b116150ed5760020154908160011b9180830460021490151715610404570361507857565b60405162461bcd60e51b815260206004820152604160248201527f4c69624f6666657256323a2062726f6b656e20696e76617269616e742c20564360448201527f5055206e756d62657220646f6573206e6f74206d6174636820435520636f756e6064820152601d60fa1b608482015260a490fd5b60405162461bcd60e51b815260206004820152604260248201525f80516020615b6083398151915260448201527f7420656e6f7567682052414d20746f20737570706f7274205643505520286d61606482015261782960f01b608482015260a490fd5b60405162461bcd60e51b815260206004820152604860248201525f80516020615b6083398151915260448201527f7420656e6f7567682052414d20746f20737570706f727420564350552028617660648201526761696c61626c652960c01b608482015260a490fd5b909192976151c789836155f6565b90549060031b1c956151d8876146ad565b965f528360205260ff60405f209754166151f181612e17565b8061521e57506001918261520a615213938a549061354c565b9801549061354c565b985b0192919061502d565b919997909695909160019061523281612e17565b03615259576001918261524a6152539389549061354c565b9701549061354c565b96615215565b945095600190615215565b8015610404575f190190565b5f8181525f80516020615ae083398151915260209081526040808320805484525f80516020615b208339815191528352818420546001600160a01b031684525f80516020615d40833981519152909252909120919490939091811561559557600301936152de82865461354c565b7f60ac4d56f7e69877e4b95a6e91f4b3612278b580a93ea7637885a480e015031c5410615536575f5b8281101561550f578060051b8501359081156154b857815f525f80516020615ce0833981519152602052600160405f20015461546157604051615349816131d8565b5f80825260208083018b81526040808501848152606086018581528886525f80516020615ce08339815191528552828620965187546001600160a01b0319166001600160a01b0391909116178755925160018701555160028601559051600394909401939093558a82525f80516020615d008339815191529052206153cf90839061560b565b1561540857877f47026182b34ce173abdac328faf5c45bef1648cf75d4b88723a745c9ee792c196020600194604051908152a201615307565b60405162461bcd60e51b815260206004820152602b60248201527f4c6962426173654f666665723a20496e76616c69642061646420746f20656e7560448201526a1b595c98589b19481cd95d60aa1b6064820152608490fd5b60405162461bcd60e51b815260206004820152602960248201527f4c6962426173654f666665723a20436f6d7075746520756e697420616c72656160448201526864792065786973747360b81b6064820152608490fd5b60405162461bcd60e51b815260206004820152602960248201527f4c6962426173654f666665723a20556e69742069642073686f756c64206265206044820152686e6f7420656d70747960b81b6064820152608490fd5b5090936002929550615532935061552785825461354c565b90550191825461354c565b9055565b60405162461bcd60e51b815260206004820152603160248201527f4c6962426173654f666665723a204578636565646564206d6178204355206e7560448201527036b132b9103832b910283937bb34b232b960791b6064820152608490fd5b60405162461bcd60e51b815260206004820152603360248201527f4c6962426173654f666665723a20756e697473206c656e6774682073686f756c6044820152720642062652067726561746572207468616e203606c1b6064820152608490fd5b80548210156132b8575f5260205f2001905f90565b61561582826156b6565b61566857805490600160401b8210156108f7578261565361563d8460018096018555846155f6565b819391549060031b91821b915f19901b19161790565b90558054925f520160205260405f2055600190565b50505f90565b90604051918281549182825260208201905f5260205f20925f5b81811061569d57505061340d9250038361322a565b8454835260019485019487945060209093019201615688565b6001915f520160205260405f2054151590565b906001820191815f528260205260405f20548015155f14615786575f1981018181116104045782545f1981019190821161040457818103615751575b5050508054801561573d575f19019061571e82826155f6565b8154905f199060031b1b19169055555f526020525f6040812055600190565b634e487b7160e01b5f52603160045260245ffd5b61577161576161563d93866155f6565b90549060031b1c928392866155f6565b90555f528360205260405f20555f8080615705565b505050505f90565b6040519060e082016001600160401b038111838210176108f7576040525f60c0838281528260208201528260408201528260608201528260808201528260a08201520152565b91906020909493940192835151906157eb82612e17565b60a085510151915f198701968088116104045760068896015480155f1461581a57505050505050505050600290565b11615ab35761582881612e17565b60018114801590615aa9575b615a9f57506001955f19820191821161040457811115615a94575b507f8984d2d0d7a9f2f70f22692c7c8344aa50cbed8c00a03c924457a31793ee8fdb5484519260608401519260808501519160408601519560c087910151945f92868811615a78575b604001516158a591613071565b946158cb856158c66158b7878d6134cf565b6158c1838c61354c565b613071565b6134cf565b808210615a5b575b505084871015615956575b5050505050509160c0915f93604083510152815160808101519081615937575b505061590985612e17565b6001850361591e575b60a08251015251015290565b8360608351015284825161593182612e17565b52615912565b6060615946910191825161354c565b9052836080835101525f806158fe565b90929498508361596992949650956134cf565b6004979093908483106159b3575050509050600181018091116159a05791839160c09360205f965101525b919381935f80806158de565b601185634e487b7160e01b5f525260245ffd5b6159c792916159c19161354c565b936134cf565b916159d2818461337f565b806001019182600111615a485782948115615a355706615a0a575b5050916159ff60c094925f969461354c565b602084510152615994565b60029192935001809111615a2257906159ff5f6159ed565b601186634e487b7160e01b5f525260245ffd5b60128a634e487b7160e01b5f525260245ffd5b601189634e487b7160e01b5f525260245ffd5b615a70929891615a6a916134cf565b9061354c565b955f806158d3565b92506158a5906040615a8a888a6134cf565b9491925050615898565b5f955092508461584f565b9550505050505090565b5082871115615834565b5050505050505060039056febcafe01e0e079c057fa6df17c4ff47af7cd29c91a21a66ae991220796420800e88681cafafd55573d275926fd208ef2ba36c6dd5169e88841d4bc9bcd225302123a233ee73076c3cf570675cfe9ff168e5811fe06bf68358a371b89594cf424388681cafafd55573d275926fd208ef2ba36c6dd5169e88841d4bc9bcd225302023a233ee73076c3cf570675cfe9ff168e5811fe06bf68358a371b89594cf42444c69624f6666657256323a2062726f6b656e20696e76617269616e742c206e6f060eac85deb3d96fbd5ae8195897d0dc06e08849b8e30148d172aa28661d3a5223a233ee73076c3cf570675cfe9ff168e5811fe06bf68358a371b89594cf424623a233ee73076c3cf570675cfe9ff168e5811fe06bf68358a371b89594cf4241b824cfa5fc227a07e42b7c6055218aa0f2361876cbb193e0f3e029810b30d42923a233ee73076c3cf570675cfe9ff168e5811fe06bf68358a371b89594cf42490289d684a5923185b066281c5024c185d157238d4cca423aa78874015e114ff723a233ee73076c3cf570675cfe9ff168e5811fe06bf68358a371b89594cf42484c69624f6666657256323a206461746163656e74657220646f6573206e6f742001e842b00fdbb1152aee25c3761b0932d2abd4bde9ee3d1416b68604f16029a123a233ee73076c3cf570675cfe9ff168e5811fe06bf68358a371b89594cf424b4c6962426173654f666665723a2063616e6e6f742072656d6f766520636f6d7088681cafafd55573d275926fd208ef2ba36c6dd5169e88841d4bc9bcd225302288681cafafd55573d275926fd208ef2ba36c6dd5169e88841d4bc9bcd2253024c8fcad8db84d3cc18b4c41d551ea0ee66dd599cde068d998e57d5e09332c132088681cafafd55573d275926fd208ef2ba36c6dd5169e88841d4bc9bcd225301f23a233ee73076c3cf570675cfe9ff168e5811fe06bf68358a371b89594cf424a23a233ee73076c3cf570675cfe9ff168e5811fe06bf68358a371b89594cf4242a264697066735822122006fa4c5f8c088bf15ced02e9e25d82e9eddea275b0282fdaf979e675e8238f4864736f6c634300081a0033","linkReferences":{}},"methodIdentifiers":{"addComputePeersV2(bytes32,(bytes32,address,(bytes32,uint256,string)[],bytes32[])[])":"4c75eea8","addComputeUnitsV2(bytes32,bytes32[],(bytes32,uint256,string))":"da180c16","bytesPerRam()":"364de315","bytesPerStorage()":"0a91c23f","changeResourceDetails(bytes32,bytes32,string)":"336afed2","changeResourceMaxSupplyV2(bytes32,bytes32,uint256)":"a5d038df","changeResourcePriceV2(bytes32,bytes32,uint256)":"0affe01f","createDatacenter((string,string,uint256,uint256,string[]))":"dafc3795","createDatacenters((string,string,uint256,uint256,string[])[])":"3c9b9bc0","getDatacenter(bytes32)":"d60ec19d","getDatacenters()":"04eea7bc","getOfferDatacenter(bytes32)":"675c0075","getOfferV2(bytes32)":"0e953e1a","getOffersV2()":"12e74a5e","getPeerV2(bytes32)":"d06007be","getPeersV2(bytes32)":"651245a2","getResource(bytes32)":"b4d6af8a","getResources()":"c1cc57b0","ramPerVcpu()":"a57cd475","registerMarketOfferV2(address,(uint8,bytes32,uint256)[],(bytes32,address,(bytes32,uint256,string)[],bytes32[])[],bytes32)":"32788086","registerPeerResource(bytes32,(bytes32,uint256,string))":"3153741a","registerResource(uint8,string)":"4fbe3e3a","registerResources((uint8,string)[])":"0ce79bf1","removeComputePeerV2(bytes32)":"68a22c21","removeComputeUnitV2(bytes32,bytes32)":"f4f9f54d","removeOfferV2(bytes32)":"663e7fe0","removePeerResource(bytes32,bytes32)":"44a4e395","setOfferDatacenter(bytes32,bytes32)":"9b0fbffe","updateDatacenter(bytes32,uint256,string[])":"8da14204","updateResourceMetadata(bytes32,string)":"dc8dd44c","vcpuPerCu()":"440dcb30"},"storageLayout":{"storage":[],"types":{}},"devdoc":{"version":1,"kind":"dev","events":{"ComputeUnitCreated(bytes32,bytes32)":{"details":"Emitted when a compute unit created for a peer","params":{"peerId":"The peer id","unitId":"The compute unit id"}},"ComputeUnitRemoved(bytes32,bytes32)":{"details":"Emitted when a compute unit removed from a peer","params":{"peerId":"The peer id","unitId":"The compute unit id"}},"MarketOfferRegistered(address,bytes32,uint256,address,(bytes4,bytes32)[],uint256,uint256)":{"details":"Emitted when a new offer is registered","params":{"effectors":"The effectors of the offer","minPricePerCuPerEpoch":"The min price per cu per epoch which the provider specify for the matching with the deal","offerId":"The offer id","paymentToken":"The payment token of the offer","provider":"The provider address"}},"MarketOfferRemoved(bytes32)":{"details":"Emitted when an offer removed","params":{"offerId":"The offer i"}},"PeerCreated(bytes32,bytes32,address)":{"details":"Emitted when a peer created for an offer"},"PeerRemoved(bytes32,bytes32)":{"details":"Emitted when a peer removed from an offer","params":{"offerId":"The offer id","peerId":"The peer id"}}}},"id":135}