{"abi":[{"type":"function","name":"addComputePeersV2","inputs":[{"name":"offerId","type":"bytes32","internalType":"bytes32"},{"name":"peers","type":"tuple[]","internalType":"struct IOfferV2.RegisterComputePeerV2[]","components":[{"name":"peerId","type":"bytes32","internalType":"bytes32"},{"name":"owner","type":"address","internalType":"address"},{"name":"resources","type":"tuple[]","internalType":"struct IOfferV2.RegisterPeerResource[]","components":[{"name":"resourceId","type":"bytes32","internalType":"bytes32"},{"name":"supply","type":"uint256","internalType":"uint256"},{"name":"details","type":"string","internalType":"string"}]},{"name":"unitIds","type":"bytes32[]","internalType":"bytes32[]"}]}],"outputs":[],"stateMutability":"nonpayable"},{"type":"function","name":"addComputeUnitsV2","inputs":[{"name":"peerId","type":"bytes32","internalType":"bytes32"},{"name":"unitIds","type":"bytes32[]","internalType":"bytes32[]"},{"name":"resource","type":"tuple","internalType":"struct IOfferV2.RegisterPeerResource","components":[{"name":"resourceId","type":"bytes32","internalType":"bytes32"},{"name":"supply","type":"uint256","internalType":"uint256"},{"name":"details","type":"string","internalType":"string"}]}],"outputs":[],"stateMutability":"nonpayable"},{"type":"function","name":"bytesPerRam","inputs":[],"outputs":[{"name":"","type":"uint256","internalType":"uint256"}],"stateMutability":"pure"},{"type":"function","name":"bytesPerStorage","inputs":[],"outputs":[{"name":"","type":"uint256","internalType":"uint256"}],"stateMutability":"pure"},{"type":"function","name":"changeResourceDetails","inputs":[{"name":"peerId","type":"bytes32","internalType":"bytes32"},{"name":"resourceId","type":"bytes32","internalType":"bytes32"},{"name":"details","type":"string","internalType":"string"}],"outputs":[],"stateMutability":"nonpayable"},{"type":"function","name":"changeResourceMaxSupplyV2","inputs":[{"name":"peerId","type":"bytes32","internalType":"bytes32"},{"name":"resourceId","type":"bytes32","internalType":"bytes32"},{"name":"newMaxSupply","type":"uint256","internalType":"uint256"}],"outputs":[],"stateMutability":"nonpayable"},{"type":"function","name":"changeResourcePriceV2","inputs":[{"name":"offerId","type":"bytes32","internalType":"bytes32"},{"name":"resourceId","type":"bytes32","internalType":"bytes32"},{"name":"newPrice","type":"uint256","internalType":"uint256"}],"outputs":[],"stateMutability":"nonpayable"},{"type":"function","name":"createDatacenter","inputs":[{"name":"datacenter","type":"tuple","internalType":"struct IOfferV2.RegisterDatacenter","components":[{"name":"countryCode","type":"string","internalType":"string"},{"name":"cityCode","type":"string","internalType":"string"},{"name":"index","type":"uint256","internalType":"uint256"},{"name":"tier","type":"uint256","internalType":"uint256"},{"name":"certifications","type":"string[]","internalType":"string[]"}]}],"outputs":[{"name":"","type":"bytes32","internalType":"bytes32"}],"stateMutability":"nonpayable"},{"type":"function","name":"createDatacenters","inputs":[{"name":"datacenters","type":"tuple[]","internalType":"struct IOfferV2.RegisterDatacenter[]","components":[{"name":"countryCode","type":"string","internalType":"string"},{"name":"cityCode","type":"string","internalType":"string"},{"name":"index","type":"uint256","internalType":"uint256"},{"name":"tier","type":"uint256","internalType":"uint256"},{"name":"certifications","type":"string[]","internalType":"string[]"}]}],"outputs":[{"name":"","type":"bytes32[]","internalType":"bytes32[]"}],"stateMutability":"nonpayable"},{"type":"function","name":"getDatacenter","inputs":[{"name":"id","type":"bytes32","internalType":"bytes32"}],"outputs":[{"name":"","type":"tuple","internalType":"struct IOfferV2.Datacenter","components":[{"name":"id","type":"bytes32","internalType":"bytes32"},{"name":"countryCode","type":"string","internalType":"string"},{"name":"cityCode","type":"string","internalType":"string"},{"name":"index","type":"uint256","internalType":"uint256"},{"name":"tier","type":"uint256","internalType":"uint256"},{"name":"certifications","type":"string[]","internalType":"string[]"}]}],"stateMutability":"view"},{"type":"function","name":"getDatacenters","inputs":[],"outputs":[{"name":"","type":"tuple[]","internalType":"struct IOfferV2.Datacenter[]","components":[{"name":"id","type":"bytes32","internalType":"bytes32"},{"name":"countryCode","type":"string","internalType":"string"},{"name":"cityCode","type":"string","internalType":"string"},{"name":"index","type":"uint256","internalType":"uint256"},{"name":"tier","type":"uint256","internalType":"uint256"},{"name":"certifications","type":"string[]","internalType":"string[]"}]}],"stateMutability":"view"},{"type":"function","name":"getOfferDatacenter","inputs":[{"name":"offerId","type":"bytes32","internalType":"bytes32"}],"outputs":[{"name":"","type":"bytes32","internalType":"bytes32"}],"stateMutability":"view"},{"type":"function","name":"getOfferV2","inputs":[{"name":"offerId","type":"bytes32","internalType":"bytes32"}],"outputs":[{"name":"","type":"tuple","internalType":"struct IOfferV2.OfferV2View","components":[{"name":"offerId","type":"bytes32","internalType":"bytes32"},{"name":"provider","type":"address","internalType":"address"},{"name":"paymentToken","type":"address","internalType":"address"},{"name":"prices","type":"tuple[]","internalType":"struct IOfferV2.OfferV2PriceView[]","components":[{"name":"resourceId","type":"bytes32","internalType":"bytes32"},{"name":"ty","type":"uint8","internalType":"enum IOfferV2.ResourceType"},{"name":"metadata","type":"string","internalType":"string"},{"name":"price","type":"uint256","internalType":"uint256"}]}]}],"stateMutability":"view"},{"type":"function","name":"getOffersV2","inputs":[],"outputs":[{"name":"","type":"tuple[]","internalType":"struct IOfferV2.OfferV2View[]","components":[{"name":"offerId","type":"bytes32","internalType":"bytes32"},{"name":"provider","type":"address","internalType":"address"},{"name":"paymentToken","type":"address","internalType":"address"},{"name":"prices","type":"tuple[]","internalType":"struct IOfferV2.OfferV2PriceView[]","components":[{"name":"resourceId","type":"bytes32","internalType":"bytes32"},{"name":"ty","type":"uint8","internalType":"enum IOfferV2.ResourceType"},{"name":"metadata","type":"string","internalType":"string"},{"name":"price","type":"uint256","internalType":"uint256"}]}]}],"stateMutability":"view"},{"type":"function","name":"getPeerV2","inputs":[{"name":"peerId","type":"bytes32","internalType":"bytes32"}],"outputs":[{"name":"","type":"tuple","internalType":"struct IOfferV2.PeerV2View","components":[{"name":"offerId","type":"bytes32","internalType":"bytes32"},{"name":"peerId","type":"bytes32","internalType":"bytes32"},{"name":"commitmentId","type":"bytes32","internalType":"bytes32"},{"name":"unitIds","type":"tuple[]","internalType":"struct IBaseOffer.ComputeUnitView[]","components":[{"name":"id","type":"bytes32","internalType":"bytes32"},{"name":"deal","type":"address","internalType":"address"},{"name":"startEpoch","type":"uint256","internalType":"uint256"},{"name":"onchainWorkerId","type":"bytes32","internalType":"bytes32"}]},{"name":"resources","type":"tuple[]","internalType":"struct IOfferV2.PeerV2ResourceView[]","components":[{"name":"resourceId","type":"bytes32","internalType":"bytes32"},{"name":"ty","type":"uint8","internalType":"enum IOfferV2.ResourceType"},{"name":"metadata","type":"string","internalType":"string"},{"name":"details","type":"string","internalType":"string"},{"name":"availableSupply","type":"uint256","internalType":"uint256"},{"name":"maxSupply","type":"uint256","internalType":"uint256"}]}]}],"stateMutability":"view"},{"type":"function","name":"getPeersV2","inputs":[{"name":"offerId","type":"bytes32","internalType":"bytes32"}],"outputs":[{"name":"","type":"tuple[]","internalType":"struct IOfferV2.PeerV2View[]","components":[{"name":"offerId","type":"bytes32","internalType":"bytes32"},{"name":"peerId","type":"bytes32","internalType":"bytes32"},{"name":"commitmentId","type":"bytes32","internalType":"bytes32"},{"name":"unitIds","type":"tuple[]","internalType":"struct IBaseOffer.ComputeUnitView[]","components":[{"name":"id","type":"bytes32","internalType":"bytes32"},{"name":"deal","type":"address","internalType":"address"},{"name":"startEpoch","type":"uint256","internalType":"uint256"},{"name":"onchainWorkerId","type":"bytes32","internalType":"bytes32"}]},{"name":"resources","type":"tuple[]","internalType":"struct IOfferV2.PeerV2ResourceView[]","components":[{"name":"resourceId","type":"bytes32","internalType":"bytes32"},{"name":"ty","type":"uint8","internalType":"enum IOfferV2.ResourceType"},{"name":"metadata","type":"string","internalType":"string"},{"name":"details","type":"string","internalType":"string"},{"name":"availableSupply","type":"uint256","internalType":"uint256"},{"name":"maxSupply","type":"uint256","internalType":"uint256"}]}]}],"stateMutability":"view"},{"type":"function","name":"getResource","inputs":[{"name":"resourceId","type":"bytes32","internalType":"bytes32"}],"outputs":[{"name":"","type":"tuple","internalType":"struct IOfferV2.ResourceDescription","components":[{"name":"ty","type":"uint8","internalType":"enum IOfferV2.ResourceType"},{"name":"metadata","type":"string","internalType":"string"}]}],"stateMutability":"view"},{"type":"function","name":"getResources","inputs":[],"outputs":[{"name":"","type":"tuple[]","internalType":"struct IOfferV2.ResourceDescriptionView[]","components":[{"name":"id","type":"bytes32","internalType":"bytes32"},{"name":"ty","type":"uint8","internalType":"enum IOfferV2.ResourceType"},{"name":"metadata","type":"string","internalType":"string"}]}],"stateMutability":"view"},{"type":"function","name":"ramPerVcpu","inputs":[],"outputs":[{"name":"","type":"uint256","internalType":"uint256"}],"stateMutability":"pure"},{"type":"function","name":"registerMarketOfferV2","inputs":[{"name":"paymentToken","type":"address","internalType":"address"},{"name":"resourcePrices","type":"tuple[]","internalType":"struct IOfferV2.RegisterResourcePrice[]","components":[{"name":"ty","type":"uint8","internalType":"enum IOfferV2.ResourceType"},{"name":"resourceId","type":"bytes32","internalType":"bytes32"},{"name":"price","type":"uint256","internalType":"uint256"}]},{"name":"peers","type":"tuple[]","internalType":"struct IOfferV2.RegisterComputePeerV2[]","components":[{"name":"peerId","type":"bytes32","internalType":"bytes32"},{"name":"owner","type":"address","internalType":"address"},{"name":"resources","type":"tuple[]","internalType":"struct IOfferV2.RegisterPeerResource[]","components":[{"name":"resourceId","type":"bytes32","internalType":"bytes32"},{"name":"supply","type":"uint256","internalType":"uint256"},{"name":"details","type":"string","internalType":"string"}]},{"name":"unitIds","type":"bytes32[]","internalType":"bytes32[]"}]},{"name":"datacenterId","type":"bytes32","internalType":"bytes32"}],"outputs":[{"name":"","type":"bytes32","internalType":"bytes32"}],"stateMutability":"nonpayable"},{"type":"function","name":"registerPeerResource","inputs":[{"name":"peerId","type":"bytes32","internalType":"bytes32"},{"name":"resource","type":"tuple","internalType":"struct IOfferV2.RegisterPeerResource","components":[{"name":"resourceId","type":"bytes32","internalType":"bytes32"},{"name":"supply","type":"uint256","internalType":"uint256"},{"name":"details","type":"string","internalType":"string"}]}],"outputs":[],"stateMutability":"nonpayable"},{"type":"function","name":"registerResource","inputs":[{"name":"ty","type":"uint8","internalType":"enum IOfferV2.ResourceType"},{"name":"metadata","type":"string","internalType":"string"}],"outputs":[{"name":"id","type":"bytes32","internalType":"bytes32"}],"stateMutability":"nonpayable"},{"type":"function","name":"registerResources","inputs":[{"name":"resources","type":"tuple[]","internalType":"struct IOfferV2.ResourceDescription[]","components":[{"name":"ty","type":"uint8","internalType":"enum IOfferV2.ResourceType"},{"name":"metadata","type":"string","internalType":"string"}]}],"outputs":[{"name":"","type":"bytes32[]","internalType":"bytes32[]"}],"stateMutability":"nonpayable"},{"type":"function","name":"removeComputePeerV2","inputs":[{"name":"peerId","type":"bytes32","internalType":"bytes32"}],"outputs":[],"stateMutability":"nonpayable"},{"type":"function","name":"removeComputeUnitV2","inputs":[{"name":"unitId","type":"bytes32","internalType":"bytes32"},{"name":"associatedResourceId","type":"bytes32","internalType":"bytes32"}],"outputs":[],"stateMutability":"nonpayable"},{"type":"function","name":"removeOfferV2","inputs":[{"name":"offerId","type":"bytes32","internalType":"bytes32"}],"outputs":[],"stateMutability":"nonpayable"},{"type":"function","name":"removePeerResource","inputs":[{"name":"peerId","type":"bytes32","internalType":"bytes32"},{"name":"resourceId","type":"bytes32","internalType":"bytes32"}],"outputs":[],"stateMutability":"nonpayable"},{"type":"function","name":"setOfferDatacenter","inputs":[{"name":"offerId","type":"bytes32","internalType":"bytes32"},{"name":"datacenterId","type":"bytes32","internalType":"bytes32"}],"outputs":[],"stateMutability":"nonpayable"},{"type":"function","name":"updateDatacenter","inputs":[{"name":"id","type":"bytes32","internalType":"bytes32"},{"name":"tier","type":"uint256","internalType":"uint256"},{"name":"certifications","type":"string[]","internalType":"string[]"}],"outputs":[],"stateMutability":"nonpayable"},{"type":"function","name":"updateResourceMetadata","inputs":[{"name":"resourceId","type":"bytes32","internalType":"bytes32"},{"name":"metadata","type":"string","internalType":"string"}],"outputs":[],"stateMutability":"nonpayable"},{"type":"function","name":"upgradeMarketOfferV2","inputs":[{"name":"offerId","type":"bytes32","internalType":"bytes32"},{"name":"resourcePrices","type":"tuple[]","internalType":"struct IOfferV2.RegisterResourcePrice[]","components":[{"name":"ty","type":"uint8","internalType":"enum IOfferV2.ResourceType"},{"name":"resourceId","type":"bytes32","internalType":"bytes32"},{"name":"price","type":"uint256","internalType":"uint256"}]},{"name":"peers","type":"tuple[]","internalType":"struct IOfferV2.UpgradeComputePeerV2[]","components":[{"name":"peerId","type":"bytes32","internalType":"bytes32"},{"name":"resources","type":"tuple[]","internalType":"struct IOfferV2.RegisterPeerResource[]","components":[{"name":"resourceId","type":"bytes32","internalType":"bytes32"},{"name":"supply","type":"uint256","internalType":"uint256"},{"name":"details","type":"string","internalType":"string"}]}]},{"name":"datacenterId","type":"bytes32","internalType":"bytes32"}],"outputs":[],"stateMutability":"nonpayable"},{"type":"function","name":"vcpuPerCu","inputs":[],"outputs":[{"name":"","type":"uint256","internalType":"uint256"}],"stateMutability":"pure"},{"type":"event","name":"ComputeUnitCreated","inputs":[{"name":"peerId","type":"bytes32","indexed":true,"internalType":"bytes32"},{"name":"unitId","type":"bytes32","indexed":false,"internalType":"bytes32"}],"anonymous":false},{"type":"event","name":"ComputeUnitRemoved","inputs":[{"name":"peerId","type":"bytes32","indexed":true,"internalType":"bytes32"},{"name":"unitId","type":"bytes32","indexed":true,"internalType":"bytes32"}],"anonymous":false},{"type":"event","name":"DatacenterCreated","inputs":[{"name":"id","type":"bytes32","indexed":true,"internalType":"bytes32"},{"name":"countryCode","type":"string","indexed":false,"internalType":"string"},{"name":"cityCode","type":"string","indexed":false,"internalType":"string"},{"name":"index","type":"uint256","indexed":false,"internalType":"uint256"},{"name":"tier","type":"uint256","indexed":false,"internalType":"uint256"},{"name":"certifications","type":"string[]","indexed":false,"internalType":"string[]"}],"anonymous":false},{"type":"event","name":"DatacenterUpdated","inputs":[{"name":"id","type":"bytes32","indexed":true,"internalType":"bytes32"},{"name":"tier","type":"uint256","indexed":false,"internalType":"uint256"},{"name":"certifications","type":"string[]","indexed":false,"internalType":"string[]"}],"anonymous":false},{"type":"event","name":"MarketOfferRegistered","inputs":[{"name":"provider","type":"address","indexed":true,"internalType":"address"},{"name":"offerId","type":"bytes32","indexed":false,"internalType":"bytes32"},{"name":"minPricePerCuPerEpoch","type":"uint256","indexed":false,"internalType":"uint256"},{"name":"paymentToken","type":"address","indexed":false,"internalType":"address"},{"name":"effectors","type":"tuple[]","indexed":false,"internalType":"struct CIDV1[]","components":[{"name":"prefixes","type":"bytes4","internalType":"bytes4"},{"name":"hash","type":"bytes32","internalType":"bytes32"}]},{"name":"minProtocolVersion","type":"uint256","indexed":false,"internalType":"uint256"},{"name":"maxProtocolVersion","type":"uint256","indexed":false,"internalType":"uint256"}],"anonymous":false},{"type":"event","name":"MarketOfferRemoved","inputs":[{"name":"offerId","type":"bytes32","indexed":true,"internalType":"bytes32"}],"anonymous":false},{"type":"event","name":"OfferDatacenterUpdated","inputs":[{"name":"offerId","type":"bytes32","indexed":true,"internalType":"bytes32"},{"name":"datacenterId","type":"bytes32","indexed":false,"internalType":"bytes32"}],"anonymous":false},{"type":"event","name":"OfferV2Created","inputs":[{"name":"offerId","type":"bytes32","indexed":true,"internalType":"bytes32"},{"name":"paymentToken","type":"address","indexed":false,"internalType":"address"},{"name":"provider","type":"address","indexed":false,"internalType":"address"},{"name":"datacenterId","type":"bytes32","indexed":false,"internalType":"bytes32"}],"anonymous":false},{"type":"event","name":"PeerCreated","inputs":[{"name":"offerId","type":"bytes32","indexed":true,"internalType":"bytes32"},{"name":"peerId","type":"bytes32","indexed":false,"internalType":"bytes32"},{"name":"owner","type":"address","indexed":false,"internalType":"address"}],"anonymous":false},{"type":"event","name":"PeerRemoved","inputs":[{"name":"offerId","type":"bytes32","indexed":true,"internalType":"bytes32"},{"name":"peerId","type":"bytes32","indexed":true,"internalType":"bytes32"}],"anonymous":false},{"type":"event","name":"PeerResourceDetailsUpdated","inputs":[{"name":"peerId","type":"bytes32","indexed":true,"internalType":"bytes32"},{"name":"resourceId","type":"bytes32","indexed":false,"internalType":"bytes32"},{"name":"details","type":"string","indexed":false,"internalType":"string"}],"anonymous":false},{"type":"event","name":"PeerResourceRegistered","inputs":[{"name":"peerId","type":"bytes32","indexed":true,"internalType":"bytes32"},{"name":"resourceId","type":"bytes32","indexed":false,"internalType":"bytes32"},{"name":"maxSupply","type":"uint256","indexed":false,"internalType":"uint256"},{"name":"details","type":"string","indexed":false,"internalType":"string"}],"anonymous":false},{"type":"event","name":"PeerResourceRemoved","inputs":[{"name":"peerId","type":"bytes32","indexed":true,"internalType":"bytes32"},{"name":"resourceId","type":"bytes32","indexed":false,"internalType":"bytes32"}],"anonymous":false},{"type":"event","name":"PeerResourceSupplyUpdated","inputs":[{"name":"peerId","type":"bytes32","indexed":true,"internalType":"bytes32"},{"name":"resourceId","type":"bytes32","indexed":false,"internalType":"bytes32"},{"name":"newAvailableSupply","type":"uint256","indexed":false,"internalType":"uint256"},{"name":"newMaxSupply","type":"uint256","indexed":false,"internalType":"uint256"}],"anonymous":false},{"type":"event","name":"ProtocolVersionUpgraded","inputs":[{"name":"offerId","type":"bytes32","indexed":true,"internalType":"bytes32"},{"name":"minProtocolVersion","type":"uint256","indexed":false,"internalType":"uint256"},{"name":"maxProtocolVersion","type":"uint256","indexed":false,"internalType":"uint256"}],"anonymous":false},{"type":"event","name":"ResourceCreated","inputs":[{"name":"resourceId","type":"bytes32","indexed":true,"internalType":"bytes32"},{"name":"ty","type":"uint8","indexed":false,"internalType":"enum IOfferV2.ResourceType"},{"name":"metadata","type":"string","indexed":false,"internalType":"string"}],"anonymous":false},{"type":"event","name":"ResourceMetadataUpdated","inputs":[{"name":"resourceId","type":"bytes32","indexed":true,"internalType":"bytes32"},{"name":"metadata","type":"string","indexed":false,"internalType":"string"}],"anonymous":false},{"type":"event","name":"ResourcePriceUpdated","inputs":[{"name":"offerId","type":"bytes32","indexed":true,"internalType":"bytes32"},{"name":"resourceId","type":"bytes32","indexed":false,"internalType":"bytes32"},{"name":"price","type":"uint256","indexed":false,"internalType":"uint256"}],"anonymous":false}],"bytecode":{"object":"0x608080604052346015576161b5908161001a8239f35b5f80fdfe60806040526004361015610011575f80fd5b5f3560e01c806304eea7bc14612c795780630a91c23f146120995780630affe01f14612b545780630ce79bf114612aaf5780630e953e1a14612a4457806312e74a5e1461292e5780633153741a146127b157806332788086146122af578063336afed21461209e578063364de315146120995780633c9b9bc014612009578063440dcb3014611fee57806344a4e39514611ea35780634c75eea814611e065780634fbe3e3a14611db65780635dba7ae314611a26578063651245a2146118d4578063663e7fe014611714578063675c0075146116af57806368a22c21146114235780638da14204146112095780639b0fbffe146110dc578063a57cd475146110bf578063a5d038df14610ff7578063b4d6af8a14610f69578063c1cc57b014610dd4578063d06007be14610d3d578063d60ec19d14610c1f578063da180c1614610964578063dafc379514610916578063dc8dd44c146107985763f4f9f54d14610179575f80fd5b3461079457610187366130f3565b905f80516020616120833981519152906101ac60206101a583614de1565b0151613b78565b515f525f80516020615ee08339815191526020526101f060405f206101db60018060a01b038254161515613254565b60026004820154149081610785575b5061329d565b805f525f805160206160c0833981519152602052600160405f2001548015610743575f525f80516020615e8083398151915260205260405f2054610235811515613506565b5f9081525f80516020615ee0833981519152602052604090205461026e906001600160a01b0316610267811515613254565b33146132f9565b61027781614de1565b90805f525f805160206160c083398151915260205260405f209260018401549384156106e4575f8581525f80516020615e8083398151915260209081526040808320805484525f80516020615ee08339815191528352818420546001600160a01b03168085529590925290912092909190330361068957600182015461064e57546001600160a01b031661060f5760020180549182156105ab57600301918254156105425761032590615604565b90556103318154615604565b9055825f525f805160206160e08339815191526020526103548160405f20615a69565b156104f257602092815f525f805160206160c083398151915284525f60036040822082815582600182015582600282015501557f5abefe0a1fb3d6df34b14e459422791829e024e367c6df8eaf0bf218cf42fb365f80a30180515f525f8051602061616083398151915260205260405f20825f52602052600160405f200154906103dd8361475c565b6002831061049d575460ff166103f281612fb7565b610423575191600119820191821161040f5761040d926145a5565b005b634e487b7160e01b5f52601160045260245ffd5b60405162461bcd60e51b815260206004820152604660248201527f4c69624f6666657256323a20726571756972656420746f2072656d6f7665206160448201527f2056435055207265736f7572636520616c6f6e67207769746820636f6d70757460648201526519481d5b9a5d60d21b608482015260a490fd5b60405162461bcd60e51b815260206004820152602760248201527f4c69624f6666657256323a206e6f7420656e6f756768207265736f757263652060448201526634b7103832b2b960c91b6064820152608490fd5b60405162461bcd60e51b815260206004820152602260248201527f496e76616c69642072656d6f76652066726f6d20656e756d657261626c652073604482015261195d60f21b6064820152608490fd5b60405162461bcd60e51b815260206004820152604860248201525f805160206160a083398151915260448201527f75746520756e697420626563617573652070726f766964657220686173207a65606482015267726f20756e69747360c01b608482015260a490fd5b60a460405162461bcd60e51b815260206004820152604460248201525f805160206160a083398151915260448201527f75746520756e69742062656361757365207065657220686173207a65726f20756064820152636e69747360e01b6084820152fd5b60405162461bcd60e51b815260206004820152601760248201527610dbdb5c1d5d19481d5b9a5d081a5cc81a5b881919585b604a1b6044820152606490fd5b60405162461bcd60e51b81526020600482015260136024820152721419595c881a185cc818dbdb5b5a5d1b595b9d606a1b6044820152606490fd5b60405162461bcd60e51b815260206004820152602d60248201527f4f666665723a2070726f746f636f6c2076657273696f6e206d69736d6174636860448201526c2c20726571756972656420763160981b6064820152608490fd5b60405162461bcd60e51b815260206004820152603160248201527f72656d6f766542617365436f6d70757465556e69743a20436f6d7075746520756044820152701b9a5d08191bd95cdb89dd08195e1a5cdd607a1b6064820152608490fd5b60405162461bcd60e51b815260206004820152601a60248201527913d999995c8e881d5b9a5d08191bd95cc81b9bdd08195e1a5cdd60321b6044820152606490fd5b6002915060050154145f6101ea565b5f80fd5b34610794576040366003190112610794576004356024356001600160401b038111610794576107cb9036906004016130c6565b91906107d56136ac565b815f5260015f80516020615f00833981519152016020526107fb60405f20541515613bf5565b5f8281525f80516020615ec083398151915260205260409020600101926001600160401b0381116109025761083a81610834865461356d565b86613784565b5f93601f82116001146108935761086982805f80516020615e6083398151915296975f91610888575b506137c7565b90555b6108836040519283926020845260208401916137d9565b0390a2005b905085013588610863565b601f19821694815f5260205f20905f5b8781106108ea5750835f80516020615e608339815191529697106108d1575b5050600182811b01905561086c565b8401355f19600385901b60f8161c1916905585806108c2565b909160206001819285890135815501930191016108a3565b634e487b7160e01b5f52604160045260245ffd5b34610794576020366003190112610794576004356001600160401b0381116107945760a060031982360301126107945761095c6020916109546136ac565b600401613e0b565b604051908152f35b34610794576060366003190112610794576004356024356001600160401b03811161079457610997903690600401612f4e565b6044359291906001600160401b038411610794578360040191606060031986360301126107945781610a6b916109cc86613b78565b515f525f80516020615ee0833981519152602052610a0f60405f206109fb60018060a01b038254161515613254565b60026004820154149081610c10575061329d565b855f525f80516020615e8083398151915260205260405f2054610a33811515613506565b5f9081525f80516020615ee08339815191526020526040902054610a65906001600160a01b0316610267811515613254565b85615610565b8135610a768161475c565b94610a8085613b78565b5f80516020615f8083398151915290515f5260205260ff60405f20965416610aa781612fb7565b610b945760240135918060011b908082046002149015171561040f578203610b2a57610ae1610adc82600161040d9801615a56565b614d64565b835f525f8051602061616083398151915260205260405f2092610b078260018601615a56565b15610b1d5750610b189250836145a5565b61510b565b915050610b189183614f36565b60405162461bcd60e51b815260206004820152603c60248201527f4c69624f6666657256323a20636f6d7075746520756e69747320636f756e742060448201527b0c2dcc840e4cae6deeae4c6ca40e6eae0e0d8f240dad2e6dac2e8c6d60231b6064820152608490fd5b60405162461bcd60e51b815260206004820152604860248201527f4c69624f6666657256323a207265676973746572696e6720636f6d707574652060448201527f756e69747320726571756972657320616464696e67206e65772056435055207260648201526765736f757263657360c01b608482015260a490fd5b600291506005015414896101ea565b3461079457602036600319011261079457600435610c3b61366f565b50610c4461366f565b50805f5260015f8051602061608083398151915201602052610c6b60405f205415156144f2565b5f525f80516020615fc083398151915260205260405f20600560405191610c9183613357565b80548352610ca1600182016135a5565b6020840152610cb2600282016135a5565b6040840152600381015460608401526004810154608084015201908154610cd88161341d565b92610ce660405194856133fa565b81845260208401905f5260205f205f915b838310610d2057610d1c858760a0820152604051918291602083526020830190612e6c565b0390f35b600160208192610d2f856135a5565b815201920192019190610cf7565b3461079457602036600319011261079457610d1c610db1600435610d5f613645565b50610d6981613b78565b515f525f80516020615ee0833981519152602052610dac60405f20610d9860018060a01b038254161515613254565b60026004820154149081610dc5575061329d565b6147e8565b604051918291602083526020830190613109565b600291506005015414856101ea565b34610794575f366003190112610794575f80516020615f0083398151915254610dfc8161341d565b90610e0a60405192836133fa565b808252601f19610e198261341d565b015f5b818110610f3f5750505f5b818110610eb957826040518091602082016020835281518091526040830190602060408260051b8601019301915f905b828210610e6657505050500390f35b91936001919395506020610ea98192603f198a8203018652606060408a518051845285810151610e9581612fb7565b868501520151918160408201520190612e48565b9601920192018594939192610e57565b80610ed36001925f80516020615f00833981519152615996565b90549060031b1c805f525f80516020615ec0833981519152602052610f1e8360405f2060ff81541660405194610f088661338d565b8552610f1381612fb7565b6020850152016135a5565b6040820152610f2d82866134ce565b52610f3881856134ce565b5001610e27565b602090604051610f4e8161338d565b5f81525f838201526060604082015282828701015201610e1c565b346107945760203660031901126107945760606020604051610f8a81613372565b5f81520152610f9a60043561475c565b610fc2600160405192610fac84613372565b60ff815416610fba81612fb7565b8452016135a5565b9060208101918252610d1c6040519283926020845251610fe181612fb7565b6020840152516040808401526060830190612e48565b346107945761040d61100836612f34565b9161101281613b78565b515f525f80516020615ee083398151915260205261105560405f2061104160018060a01b038254161515613254565b600260048201541490816110b0575061329d565b805f525f80516020615e8083398151915260205260405f2054611079811515613506565b5f9081525f80516020615ee083398151915260205260409020546110ab906001600160a01b0316610267811515613254565b6145a5565b600291506005015414866101ea565b34610794575f366003190112610794576020610800604051908152f35b34610794576110ea366130f3565b815f525f80516020615ee083398151915260205261112d60405f2061111960018060a01b038254161515613254565b600260048201541490816111fa575061329d565b5f8281525f80516020615ee083398151915260205260409020545f8051602061610083398151915254336001600160a01b0392831614911681156111f0575b501561117b5761040d91614539565b60405162461bcd60e51b815260206004820152604160248201527f4f6666657256323a206f6e6c79206f66666572206f776e6572206f662064696160448201527f6d6f6e64206f776e65642063616e2063616c6c20746869732066756e6374696f6064820152603760f91b608482015260a490fd5b905033148361116c565b600291506005015414846101ea565b34610794576060366003190112610794576024356004356044356001600160401b0381116107945761123f903690600401612f4e565b90926112496136ac565b5f8381527f23a233ee73076c3cf570675cfe9ff168e5811fe06bf68358a371b89594cf424c6020526040902054156113d457825f525f80516020615fc0833981519152602052600560405f20826004820155016112a68382613d40565b5f9081526020812090855b8482106112fa575050506108837f4d161fbdfae7c62050e8fdb6b3244c8c44ab905053a20861ce70b7866bb84cae93946040519384938452604060208501526040840191613d87565b611304818861349c565b906001600160401b0382116109025761132782611321875461356d565b87613784565b5f90601f831160011461136a5792611350836001959460209487965f9261135f575b50506137c7565b86555b019301910190916112b1565b013590508d80611349565b601f19831691865f5260205f20925f5b8181106113bc57509360209360019693879693838895106113a3575b505050811b018655611353565b01355f19600384901b60f8161c191690558c8080611396565b9193602060018192878701358155019501920161137a565b60405162461bcd60e51b815260206004820152603460248201525f80516020616020833981519152604482015273657869737420696e20746865206e6574776f726b60601b6064820152608490fd5b346107945760203660031901126107945760043561144081613b78565b515f525f80516020615ee083398151915260205261148360405f2061146f60018060a01b038254161515613254565b600260048201541490816116a0575061329d565b805f525f80516020615e8083398151915260205260405f20546114a7811515613506565b5f9081525f80516020615ee083398151915260205260409020546114d9906001600160a01b0316610267811515613254565b6114e281613b78565b51815f525f80516020615e8083398151915260205260405f20805490815f525f80516020615ee0833981519152602052600260405f2091611524841515613b37565b825461153a906001600160a01b031633146132f9565b0154611662576003019081549182156115ec576115578593615604565b9055815f525f80516020615e808339815191526020525f60036040822082815582600182015582600282015501557f5f91ba2d62c13db8e4353c3b2d314e715907459581a42b764f350231f8ee0cf35f80a35f525f805160206160008339815191526020526115c98160405f20615a69565b505f525f8051602061616083398151915260205261040d600160405f20016144c2565b60405162461bcd60e51b815260206004820152604260248201527f4c6962426173654f666665723a20617474656d707420746f2072656d6f76652060448201527f6120706565722066726f6d20616e206f6666657220776974686f757420706565606482015261727360f01b608482015260a490fd5b60405162461bcd60e51b8152602060048201526016602482015275506565722068617320636f6d7075746520756e69747360501b6044820152606490fd5b600291506005015414836101ea565b3461079457602036600319011261079457600435805f525f80516020615ee08339815191526020526116f260405f2061146f60018060a01b038254161515613254565b5f525f80516020616140833981519152602052602060405f2054604051908152f35b3461079457602036600319011261079457600435805f525f80516020615ee083398151915260205261175760405f2061146f60018060a01b038254161515613254565b5f8181525f80516020615ee08339815191526020526040902054611789906001600160a01b0316610267811515613254565b5f80516020615f80833981519152815f525f80516020615ee0833981519152602052600360405f206117c960018060a01b03825416610267811515613254565b015461189557815f525f80516020615ee08339815191526020525f6005604082208281558260018201558260028201558260038201558260048201550155817f0e2c810360f652bf120515b49756167e4b196601c40ce83c5df5a8fa22d7f9b85f80a2611843825f80516020615f60833981519152615a69565b50815f525f8051602061600083398151915260205261186460405f206144c2565b815f52602052611879600160405f20016144c2565b5f9081525f805160206161408339815191526020526040812055005b60405162461bcd60e51b81526020600482015260176024820152764f666665722068617320636f6d7075746520706565727360481b6044820152606490fd5b3461079457602036600319011261079457600435805f525f80516020615ee083398151915260205261191760405f2061146f60018060a01b038254161515613254565b5f525f8051602061600083398151915260205261193660405f20615a0e565b8051906119428261341d565b9161195060405193846133fa565b80835261195f601f199161341d565b015f5b818110611a0f5750505f5b81518110156119a8578061198c611986600193856134ce565b516147e8565b61199682866134ce565b526119a181856134ce565b500161196d565b826040518091602082016020835281518091526040830190602060408260051b8601019301915f905b8282106119e057505050500390f35b919360019193955060206119ff8192603f198a82030186528851613109565b96019201920185949391926119d1565b602090611a1a613645565b82828701015201611962565b34610794576080366003190112610794576004356024356001600160401b03811161079457611a59903690600401613096565b906044356001600160401b03811161079457611a79903690600401612f4e565b919092611a846136ac565b5f8581525f80516020615ee083398151915260205260408120600181019190915580546001600160a01b031615611d665760048101906002825411611cf9576005016002815411611c8c57600280925555847f786a26b69624db8f77c87e5c9230662c4e561f7a99e1400f4ca6040b53d88453604080516002815260026020820152a2826040611b1387614eb4565b015103611c1357611b249185615382565b611b3b835f80516020615f608339815191526159ab565b505f5b818110611b515761040d60643585614539565b611b5c818385613466565b9081359185611b6a84613b78565b5103611bb257600192611ba6611bac92885f525f80516020616000833981519152602052611b9b8360405f206159ab565b506020810190613cbd565b9161556c565b01611b3e565b60405162461bcd60e51b815260206004820152603360248201527f4c69624f6666657256323a207065657220646f6573206e6f742062656c6f6e67604482015272103a37903a34329033b4bb32b71037b33332b960691b6064820152608490fd5b60405162461bcd60e51b815260206004820152604560248201527f4c69624f6666657256323a2063616e6e6f742075706772616465206f6666657260448201527f20776974686f75742074726176657273696e67207468726f75676820616c6c20606482015264706565727360d81b608482015260a490fd5b60405162461bcd60e51b815260206004820152604c60248201525f80516020615ea083398151915260448201527f6465206d616e50726f746f636f6c56657273696f6e20647572696e672076657260648201526b73696f6e207570677261646560a01b608482015260a490fd5b60405162461bcd60e51b815260206004820152604c60248201525f80516020615ea083398151915260448201527f6465206d696e50726f746f636f6c56657273696f6e20647572696e672076657260648201526b73696f6e207570677261646560a01b608482015260a490fd5b60405162461bcd60e51b815260206004820152602260248201527f4c6962426173654f666665723a206f6666657220646f6573206e6f74206578696044820152611cdd60f21b6064820152608490fd5b34610794576040366003190112610794576004356006811015610794576024356001600160401b03811161079457602091611df861095c9236906004016130c6565b91611e016136ac565b6137f9565b34610794576040366003190112610794576024356004356001600160401b03821161079457611e3c61040d923690600401612f4e565b91805f525f80516020615ee0833981519152602052611e6c60405f2061104160018060a01b038254161515613254565b5f8181525f80516020615ee08339815191526020526040902054611e9e906001600160a01b0316610267811515613254565b61426f565b346107945760207f70d46cd13334dda734a1cb401ea1e6978e6af966fbdf9e34b2a543a2fcca585c611ed4366130f3565b909290611ee084613b78565b515f525f80516020615ee08339815191528252611f0e60405f2061104160018060a01b038254161515613254565b835f525f80516020615e80833981519152825260405f2054611f31811515613506565b5f9081525f80516020615ee083398151915283526040902054611f62906001600160a01b0316610267811515613254565b835f525f805160206161608339815191528252611fdb8160405f20815f5260015f80516020615f00833981519152018552611fa260405f20541515613bf5565b6001810190611fb9611fb48484615a56565b613c5c565b825f528552611fd6600260405f205f81555f600182015501613cf2565b615a69565b50611fe58461510b565b604051908152a2005b34610794575f36600319011261079457602060405160028152f35b34610794576020366003190112610794576004356001600160401b03811161079457612039903690600401612f4e565b6120416136ac565b61204a81613434565b36839003609e1901925f5b8381101561208b578060051b82013590858212156107945761207a6001928401613e0b565b61208482866134ce565b5201612055565b60405180610d1c8582612f7e565b612f16565b34610794576060366003190112610794576024356004356044356001600160401b038111610794576120d49036906004016130c6565b90926120df83613b78565b515f525f80516020615ee083398151915260205261210e60405f2061104160018060a01b038254161515613254565b825f525f80516020615e8083398151915260205260405f2054612132811515613506565b5f9081525f80516020615ee08339815191526020526040902054612164906001600160a01b0316610267811515613254565b825f525f8051602061616083398151915260205260405f20815f5260015f80516020615f00833981519152016020526121a260405f20541515613bf5565b6121b2611fb48360018401615a56565b815f52602052600260405f200160018060401b038311610902576121e0836121da835461356d565b83613784565b5f601f841160011461223957946108839161221285805f80516020615f4083398151915298995f9161222e57506137c7565b90555b60405193849384526040602085015260408401916137d9565b90508401358a610863565b601f19841690825f5260205f20915f5b8181106122975750916108839391865f80516020615f408339815191529899941061227e575b5050600185811b019055612215565b8301355f19600388901b60f8161c19169055878061226f565b9192602060018192868c013581550194019201612249565b34610794576080366003190112610794576004356001600160a01b03811690819003610794576024356001600160401b038111610794576122f4903690600401613096565b6044356001600160401b03811161079457612313903690600401612f4e565b606435915f805160206161208339815191529360405160208101907febbe29d10864671a7296ae5158eb0df8533e86c62e6a8460f3029ae682538c5182523360601b6040820152436054820152365f60748301376123846074823681015f838201520301601f1981018352826133fa565b5190209460018060a01b0333165f526020526123a360405f205461356d565b15612773575f8581525f80516020615ee083398151915260205260409020600201546001600160a01b03166127375786156126e1577f60ac4d56f7e69877e4b95a6e91f4b3612278b580a93ea7637885a480e015031a5460021061269c577f60ac4d56f7e69877e4b95a6e91f4b3612278b580a93ea7637885a480e015031b5460021161265857865f527f60ac4d56f7e69877e4b95a6e91f4b3612278b580a93ea7637885a480e015031d60205260ff60405f205416156126145760405161246a81613357565b3381525f602080830182815260408085018c81526060860185815260026080880181815260a089018281528e89525f80516020615ee0833981519152885297859020985189546001600160a01b039182166001600160a01b0319918216178b55965160018b015593519189018054929094169190951617909155516003860155905160048501559151600590930192909255519790969061250b888a6133fa565b5f895260405160c081018882525f8a83015282604083015260c060608301528a518091528960e083019b01905f5b8181106125eb5750505091877fb3c599d3424c34594b558e069189acb9e8e9f0cc3fb704e513aca45a06db035b60606125e59897969461095c9b9c9d7f02b4bfba88db81e84c717b16bf874a79ecc39de3944a9f18dd7122ae32f0990788600260806125df9b0152600260a08201528033930390a26125c5845f80516020615f608339815191526159ab565b506040519081528d33908201528a6040820152a288615382565b8561426f565b82614539565b825180516001600160e01b0319168e528c01518c8e01526040909c019b918b0191600101612539565b60405162461bcd60e51b815260206004820152601c60248201527b14185e5b595b9d081d1bdad95b881a5cc81b9bdd08185b1b1bddd95960221b6044820152606490fd5b60405162461bcd60e51b815260206004820152601c60248201527b4d61782070726f746f636f6c2076657273696f6e20746f6f2062696760201b6044820152606490fd5b60405162461bcd60e51b815260206004820152601e60248201527f4d696e2070726f746f636f6c2076657273696f6e20746f6f20736d616c6c00006044820152606490fd5b60405162461bcd60e51b815260206004820152602860248201527f5061796d656e7420746f6b656e2073686f756c64206265206e6f74207a65726f604482015267206164647265737360c01b6064820152608490fd5b60405162461bcd60e51b81526020600482015260146024820152734f6666657220616c72656164792065786973747360601b6044820152606490fd5b60405162461bcd60e51b8152602060048201526016602482015275141c9bdd9a59195c88191bd95cdb89dd08195e1a5cdd60521b6044820152606490fd5b34610794576040366003190112610794576024356004356001600160401b03821161079457606082600401926003199036030112610794576127f281613b78565b515f525f80516020615ee083398151915260205261282160405f2061111960018060a01b038254161515613254565b805f525f80516020615e8083398151915260205260405f2054612845811515613506565b5f9081525f80516020615ee08339815191526020526040902054612877906001600160a01b0316610267811515613254565b61288081613b78565b515f80516020615f80833981519152905f526020526128a7600160405f2001833590615a56565b156128d157610b1861040d92825f525f8051602061616083398151915260205260405f2083614f36565b60405162461bcd60e51b815260206004820152602f60248201527f4c69624f6666657256323a207265736f75726365206973206e6f74207265676960448201526e39ba32b932b21034b71037b33332b960891b6064820152608490fd5b34610794575f366003190112610794576129545f80516020615f60833981519152615a0e565b8051906129608261341d565b9161296e60405193846133fa565b80835261297d601f199161341d565b015f5b818110612a2d5750505f5b81518110156129c657806129aa6129a4600193856134ce565b516139a5565b6129b482866134ce565b526129bf81856134ce565b500161298b565b826040518091602082016020835281518091526040830190602060408260051b8601019301915f905b8282106129fe57505050500390f35b91936001919395506020612a1d8192603f198a82030186528851612fd5565b96019201920185949391926129ef565b602090612a386134e2565b82828701015201612980565b3461079457602036600319011261079457610d1c612a9b600435612a666134e2565b50805f525f80516020615ee0833981519152602052612a9660405f20610d9860018060a01b038254161515613254565b6139a5565b604051918291602083526020830190612fd5565b34610794576020366003190112610794576004356001600160401b03811161079457612adf903690600401612f4e565b90612ae86136ac565b612af182613434565b905f5b838110612b095760405180610d1c8582612f7e565b612b14818584613466565b3590600682101561079457612b43600192612b3d612b33848988613466565b602081019061349c565b916137f9565b612b4d82866134ce565b5201612af4565b3461079457612b6236612f34565b90825f525f80516020615ee0833981519152602052612b9260405f20610d9860018060a01b038254161515613254565b5f8381525f80516020615ee08339815191526020526040902054612bc4906001600160a01b0316610267811515613254565b5f80516020615f80833981519152835f5260205260405f20908215612c1b575f80516020615fa08339815191529282612c02836001604096016159ab565b50825f5260205280835f205582519182526020820152a2005b60405162461bcd60e51b815260206004820152603060248201527f4c69624f6666657256323a2063616e6e6f74206368616e6765207265736f757260448201526f636520707269636520746f207a65726f60801b6064820152608490fd5b34610794575f366003190112610794575f8051602061608083398151915254612ca18161341d565b90612caf60405192836133fa565b808252601f19612cbe8261341d565b015f5b818110612e315750505f5b818110612d3a57826040518091602082016020835281518091526040830190602060408260051b8601019301915f905b828210612d0b57505050500390f35b91936001919395506020612d2a8192603f198a82030186528851612e6c565b9601920192018594939192612cfc565b612d51815f80516020616080833981519152615996565b90549060031b1c5f525f80516020615fc083398151915260205260405f20600560405191612d7e83613357565b80548352612d8e600182016135a5565b6020840152612d9f600282016135a5565b60408401526003810154606084015260048101546080840152018054612dc48161341d565b91612dd260405193846133fa565b81835260208301905f5260205f20905f905b838210612e14575050505060a082015260019190612e0282866134ce565b52612e0d81856134ce565b5001612ccc565b600160208192612e23866135a5565b815201930191019091612de4565b602090612e3c61366f565b82828701015201612cc1565b805180835260209291819084018484015e5f828201840152601f01601f1916010190565b8051825260a0612ea0612e8e602084015160c0602087015260c0860190612e48565b60408401518582036040870152612e48565b91606081015160608501526080810151608085015201519160a0818303910152815180825260208201916020808360051b8301019401925f915b838310612ee957505050505090565b9091929394602080612f07600193601f198682030187528951612e48565b97019301930191939290612eda565b34610794575f36600319011261079457602062100000604051908152f35b606090600319011261079457600435906024359060443590565b9181601f84011215610794578235916001600160401b038311610794576020808501948460051b01011161079457565b60206040818301928281528451809452019201905f5b818110612fa15750505090565b8251845260209384019390920191600101612f94565b60061115612fc157565b634e487b7160e01b5f52602160045260245ffd5b90606060808201928051835260018060a01b03602082015116602084015260018060a01b03604082015116604084015201519160806060830152825180915260a0820191602060a08360051b8301019401925f915b83831061303957505050505090565b9091929394602080600192609f19858203018652885190815181528282015161306181612fb7565b838201526060806130816040850151608060408601526080850190612e48565b9301519101529701930193019193929061302a565b9181601f84011215610794578235916001600160401b038311610794576020808501946060850201011161079457565b9181601f84011215610794578235916001600160401b038311610794576020838186019501011161079457565b6040906003190112610794576004359060243590565b60a082019080518352602081015160208401526040810151604084015260608101519160a060608501528251809152602060c085019301905f5b8181106131ff5750505060800151916080818303910152815180825260208201916020808360051b8301019401925f915b83831061318357505050505090565b9091929394602080600192601f1985820301865288519081518152828201516131ab81612fb7565b8382015260a0806131e06131ce604086015160c0604087015260c0860190612e48565b60608601518582036060870152612e48565b9360808101516080850152015191015297019301930191939290613174565b8251805186526020818101516001600160a01b031681880152604080830151908801526060918201519187019190915260809095019490920191600101613143565b8181029291811591840414171561040f57565b1561325b57565b60405162461bcd60e51b815260206004820152601a60248201527913d999995c8e881bd999995c88191bd95cdb89dd08195e1a5cdd60321b6044820152606490fd5b156132a457565b60405162461bcd60e51b815260206004820152602760248201527f4f666665723a206d6574686f64206f6e6c7920776f726b732077697468205632604482015266206f666665727360c81b6064820152608490fd5b1561330057565b60405162461bcd60e51b815260206004820152602960248201527f4f666665723a206f6e6c792070726f76696465722063616e2063616c6c2074686044820152681a5cc81b595d1a1bd960ba1b6064820152608490fd5b60c081019081106001600160401b0382111761090257604052565b604081019081106001600160401b0382111761090257604052565b606081019081106001600160401b0382111761090257604052565b608081019081106001600160401b0382111761090257604052565b60a081019081106001600160401b0382111761090257604052565b61016081019081106001600160401b0382111761090257604052565b601f909101601f19168101906001600160401b0382119082101761090257604052565b6001600160401b0381116109025760051b60200190565b9061343e8261341d565b61344b60405191826133fa565b828152809261345c601f199161341d565b0190602036910137565b91908110156134885760051b81013590603e1981360301821215610794570190565b634e487b7160e01b5f52603260045260245ffd5b903590601e198136030182121561079457018035906001600160401b0382116107945760200191813603831361079457565b80518210156134885760209160051b010190565b604051906134ef826133a8565b606080835f81525f60208201525f60408201520152565b1561350d57565b60405162461bcd60e51b815260206004820152601a60248201527913d999995c8e881c19595c88191bd95cc81b9bdd08195e1a5cdd60321b6044820152606490fd5b8115613559570490565b634e487b7160e01b5f52601260045260245ffd5b90600182811c9216801561359b575b602083101461358757565b634e487b7160e01b5f52602260045260245ffd5b91607f169161357c565b9060405191825f8254926135b88461356d565b808452936001811690811561362357506001146135df575b506135dd925003836133fa565b565b90505f9291925260205f20905f915b8183106136075750509060206135dd928201015f6135d0565b60209193508060019154838589010152019101909184926135ee565b9050602092506135dd94915060ff191682840152151560051b8201015f6135d0565b60405190613652826133c3565b60606080835f81525f60208201525f604082015282808201520152565b6040519061367c82613357565b606060a0835f81528260208201528260408201525f838201525f60808201520152565b9190820391821161040f57565b5f80516020616100833981519152546001600160a01b031633036136cc57565b60405162461bcd60e51b815260206004820152602260248201527f4c69624469616d6f6e643a204d75737420626520636f6e7472616374206f776e60448201526132b960f11b6064820152608490fd5b9190820180921161040f57565b9192916001600160401b0382116109025760405191613752601f8201601f1916602001846133fa565b829481845281830111610794578281602093845f960137010152565b818110613779575050565b5f815560010161376e565b9190601f811161379357505050565b6135dd925f5260205f20906020601f840160051c830193106137bd575b601f0160051c019061376e565b90915081906137b0565b8160011b915f199060031b1c19161790565b908060209392818452848401375f828201840152601f01601f1916010190565b905f80516020615f0083398151915254926001840180941161040f5761382c845f80516020615f008339815191526159ab565b506040519261383a84613372565b61384381612fb7565b8084526001613853368486613729565b9460208101958652865f525f80516020615ec083398151915260205260405f20905161387e81612fb7565b61388781612fb7565b60ff8019835416911617815501935192835160018060401b0381116109025786946138bc826138b6895461356d565b89613784565b602090601f8311600114613928578261391794935f805160206160408339815191529899936138f2935f9261391d5750506137c7565b90555b60405193836139048695612fb7565b84526040602085015260408401916137d9565b0390a290565b015190505f80611349565b601f9792919719821690835f52885f20915f5b81811061398a5750915f805160206160408339815191529899849261391797969560019510613972575b505050811b0190556138f5565b01515f1960f88460031b161c191690555f8080613965565b828b0151845560209a8b019a8c9a506001909401930161393b565b6139ad6134e2565b506139b781614eb4565b9060018060a01b0382511691602060018060a01b0391015116905f80516020615f80833981519152815f5260205260405f20936139f660018601615a0e565b91825193613a038561341d565b94613a1160405196876133fa565b808652613a20601f199161341d565b015f5b818110613ae35750505f5b8451811015613abb5780613a44600192876134ce565b51805f528960205260405f2054815f525f80516020615ec0833981519152602052613a958460405f2060ff81541660405195613a7f876133a8565b8652613a8a81612fb7565b6020860152016135a5565b60408301526060820152613aa982896134ce565b52613ab481886134ce565b5001613a2e565b5092509390945060405193613acf856133a8565b845260208401526040830152606082015290565b602090604051613af2816133a8565b5f81525f83820152606060408201525f606082015282828a01015201613a23565b60405190613b20826133a8565b5f6060838281528260208201528260408201520152565b15613b3e57565b60405162461bcd60e51b81526020600482015260126024820152711419595c88191bd95cdb89dd08195e1a5cdd60721b6044820152606490fd5b613b80613b13565b50805f525f80516020615e80833981519152602052613ba460405f20541515613b37565b5f525f80516020615e8083398151915260205260405f2060405190613bc8826133a8565b805482526001810154602083015260028101546040830152600301546001600160a01b0316606082015290565b15613bfc57565b60405162461bcd60e51b815260206004820152603260248201527f4c69624f6666657256323a207265736f7572636520646f6573206e6f7420657860448201527169737420696e20746865206e6574776f726b60701b6064820152608490fd5b15613c6357565b60405162461bcd60e51b815260206004820152602c60248201527f4c69624f6666657256323a207065657220646f6573206e6f742068617665207460448201526b686973207265736f7572636560a01b6064820152608490fd5b903590601e198136030182121561079457018035906001600160401b03821161079457602001918160051b3603831361079457565b613cfc815461356d565b9081613d06575050565b81601f5f9311600114613d17575055565b81835260208320613d3391601f0160051c81019060010161376e565b8082528160208120915555565b90600160401b811161090257815491818155828210613d5e57505050565b5f5260205f2091820191015b818110613d75575050565b80613d81600192613cf2565b01613d6a565b90602083828152019060208160051b85010193835f915b838310613dae5750505050505090565b909192939495601f198282030186528635601e1984360301811215610794578301602081019190356001600160401b03811161079457803603831361079457613dfd60209283926001956137d9565b980196019493019190613d9e565b5f8051602061608083398151915254906001820180921161040f57613e30818061349c565b916020810192613e40848361349c565b909186604085013595606086013593613e8c6080880196613e7d613e64898b613cbd565b95909760405197613e7489613357565b88523691613729565b92602086019384523691613729565b6040840190815260608401918983526080850193878552613eac8161341d565b96613eba60405198896133fa565b818852602088019160051b8101903682116107945780925b828410614233575050505060a085019586525f8c81525f80516020615fc0833981519152602052604090209451855551805160018601916001600160401b03821161090257613f2b82613f25855461356d565b85613784565b602090601f83116001146141d057613f4c92915f918361391d5750506137c7565b90555b51805160028501916001600160401b03821161090257613f7382613f25855461356d565b602090601f831160011461415c579180613f9b92600598979695945f9261391d5750506137c7565b9055908a9998979695949392915b5160038301555160048201550190516020815191613fc78385613d40565b01915f5260205f20915f905b82821061408357505050509261403b92613917927fc02d21eab7c2b83cc37ebb11f403ad2734852bf12f7db14f3219b672a5be1e489695614021895f805160206160808339815191526159ab565b5061406b614043614032858061349c565b9890998661349c565b949095613cbd565b94909361405d6040519a8b9a60a08c5260a08c01916137d9565b9189830360208b01526137d9565b93604087015260608601528483036080860152613d87565b80919293949596979899505180519060018060401b038211610902576140b3826140ad885461356d565b88613784565b602090601f83116001146140f357926140dc836001959460209487965f9261391d5750506137c7565b87555b019401910189989796959493929192613fd3565b90601f19831691875f52815f20925f5b818110614144575093602093600196938796938388951061412c575b505050811b0187556140df565b01515f1960f88460031b161c191690555f808061411f565b92936020600181928786015181550195019301614103565b90601f19831691845f52815f20925f5b8181106141b8575091600193918560059a9998979694106141a0575b505050811b019055908a999897969594939291613fa9565b01515f1960f88460031b161c191690555f8080614188565b9293602060018192878601518155019501930161416c565b90601f19831691845f52815f20925f5b81811061421b5750908460019594939210614203575b505050811b019055613f4f565b01515f1960f88460031b161c191690555f80806141f6565b929360206001819287860151815501950193016141e0565b83356001600160401b03811161079457820136601f8201121561079457602091614264839236908481359101613729565b815201930192613ed2565b925f5b838110156144bb578060051b830135607e19843603018112156107945783019060208201356001600160a01b03811690833590829003610794576142b96060850185613cbd565b9094825f525f80516020615e8083398151915260205260405f208a5f525f80516020615ee083398151915260205260405f20815461445b5784156144045785156143a7578b8255600391820180546001600160a01b031916909617865501805490925f19821461040f576001978c7f2a9c96970c242b218486fb3338450a874ff7ccad1fcad3d89b2781f48ece88d060406143a199611ba6988d614375980190558c8060a01b039054168151908a82526020820152a285615610565b895f525f805160206160008339815191526020526143968360405f206159ab565b506040810190613cbd565b01614272565b60405162461bcd60e51b815260206004820152602f60248201527f4c6962426173654f666665723a204f776e657220616464726573732073686f7560448201526e6c64206265206e6f7420656d70747960881b6064820152608490fd5b60405162461bcd60e51b815260206004820152602960248201527f4c6962426173654f666665723a20506565722069642073686f756c64206265206044820152686e6f7420656d70747960b81b6064820152608490fd5b60405162461bcd60e51b815260206004820152603260248201527f4c6962426173654f666665723a205065657220616c7265616479206578697374604482015271399034b71030b737ba3432b91037b33332b960711b6064820152608490fd5b5092505050565b8054905f8155816144d1575050565b5f5260205f20908101905b8181106144e7575050565b5f81556001016144dc565b156144f957565b60405162461bcd60e51b815260206004820152602560248201525f80516020616020833981519152604482015264195e1a5cdd60da1b6064820152608490fd5b9060207ffc2e2c567f0255728a7599aa8e2d0870a45e4ec9d8306044f53eac0153f2162891805f5260015f8051602061608083398151915201825261458360405f205415156144f2565b835f525f8051602061614083398151915282528060405f2055604051908152a2565b91825f525f8051602061616083398151915260205260405f2091805f52826020526145d781600160405f209501615a56565b1561470357600183018054838111156146ca57506145f78154938461369f565b93805485811061464a57856060956146205f80516020615fe0833981519152986146279461369f565b845561369f565b82555b6146338661510b565b5490549060405192835260208301526040820152a2565b60405162461bcd60e51b815260206004820152604c60248201527f4c69624f6666657256323a2063616e6e6f74206465637265617365207065657260448201527f207265736f7572636520737570706c792062656361757365206974206973207560648201526b73656420696e204465616c7360a01b608482015260a490fd5b936146fc856146e95f80516020615fe08339815191529760609761369f565b906146f582855461371c565b845561371c565b825561462a565b60405162461bcd60e51b815260206004820152602b60248201527f4c69624f6666657256323a2070656572207265736f75726365206973206e6f7460448201526a081c9959da5cdd195c995960aa1b6064820152608490fd5b5f8181525f80516020616060833981519152602052604090205415614795575f525f80516020615ec083398151915260205260405f2090565b60405162461bcd60e51b815260206004820152602560248201527f4c69624f6666657256323a207265736f75726365496420646f6573206e6f7420604482015264195e1a5cdd60da1b6064820152608490fd5b906147f1613645565b506147fb82613b78565b6020815191015190835f525f805160206160e083398151915260205261482360405f20615a0e565b908151946148308661341d565b9561483e60405197886133fa565b80875261484d601f199161341d565b015f5b818110614d4d575050805f525f80516020615e80833981519152602052600160405f200154935f9480614a84575b505f5b845181101561490c5780614897600192876134ce565b51805f525f805160206160c083398151915260205260405f2060028101548015614905575b6003858060a01b0383541692015491604051936148d8856133a8565b84526020840152604083015260608201526148f3828b6134ce565b526148fe818a6134ce565b5001614881565b50886148bc565b5093509390949150835f525f8051602061616083398151915260205260405f209461493960018701615a0e565b928351946149468661341d565b9561495460405197886133fa565b808752614963601f199161341d565b015f5b818110614a485750505f5b8551811015614a1b5780614987600192886134ce565b51805f528a60205260405f20815f525f80516020615ec083398151915260205260405f206149f0600260ff835416936149e5888254958184015497604051996149cf8b613357565b8a526149da81612fb7565b60208a0152016135a5565b6040870152016135a5565b6060840152608083015260a0820152614a09828a6134ce565b52614a1481896134ce565b5001614971565b5092965092509360405194614a2f866133c3565b8552602085015260408401526060830152608082015290565b602090604051614a5781613357565b5f81525f83820152606060408201526060808201525f60808201525f60a082015282828b01015201614966565b9094505f610140604051614a97816133de565b8281528260208201528260408201528260608201528260808201528260a08201528260c08201528260e0820152826101008201528261012082015201525f527fa8de0abb18de6e730ac24d7fe02c877d293683811fc3ac5d8e62e2a52c0d20d760205260405f2060018101548015614cfe57614b5f614b377f7d4f8ec43464738265ced6b7ed5f90007e9b7c34318bdd82d9249328b50bd357544261369f565b7f7d4f8ec43464738265ced6b7ed5f90007e9b7c34318bdd82d9249328b50bd358549061354f565b6001018060011161040f5761014090600684015493600381015491614b84838761371c565b90614c72614b9187613b78565b9260405192614b9f84613372565b614ba7615b2e565b8452846020850194614bb7615b2e565b865260ff8854168151614bc982612fb7565b52600c8801546020825101526008880154604082510152600a880154606082510152600b880154608082510152600988015460a082510152600788015460c082510152805151614c1881612fb7565b8651614c2382612fb7565b5260208151015160208751015260408151015160408751015260608151015160608751015260808151015160808751015260a08151015160a08751015260c08151015160c08751015287615b74565b93614c8760406002860154940151918961371c565b60048501549160018060a01b03600587015416935194600d602060408801519701519701549960405198614cba8a6133de565b614cc381612fb7565b895260208901526040880152606087015288608087015260a086015260c085015260e08401526101008301526101208201520152935f61487e565b60405162461bcd60e51b815260206004820152602160248201527f436170616369747920636f6d6d69746d656e7420646f65736e277420657869736044820152601d60fa1b6064820152608490fd5b602090614d58613b13565b82828b01015201614850565b15614d6b57565b60405162461bcd60e51b815260206004820152604260248201527f4c69624f6666657256323a20617474656d707420746f2072656769737465722060448201527f61207265736f7572636520746f207065657220776974686f7574206120707269606482015261636560f01b608482015260a490fd5b614de9613b13565b50805f525f805160206160c0833981519152602052600160405f20015415614e5c575f525f805160206160c083398151915260205260405f20600360405191614e31836133a8565b80546001600160a01b0316835260018101546020840152600281015460408401520154606082015290565b60405162461bcd60e51b815260206004820152602a60248201527f676574436f6d70757465556e69743a20436f6d7075746520756e697420646f656044820152691cdb89dd08195e1a5cdd60b21b6064820152608490fd5b5f6080604051614ec3816133c3565b82815282602082015282604082015282606082015201525f525f80516020615ee083398151915260205260405f2060018060a01b0381541690614f07821515613254565b600281015460038201546004830154600590930154604051949093926001600160a01b031690614a2f866133c3565b919060208201359060408301614f4c818561349c565b92906002614f7260405192614f608461338d565b87845260208401968888523691613729565b9160408101928352873595865f528460205260405f209151825551600182015501905190815160018060401b038111610902578592614fb582613f25855461356d565b602090601f831160011461509b5782614fe7969360019593614fde935f9261391d5750506137c7565b90555b016159ab565b1561503d5761501a615038917f1b7623d2e00fbadfcf401c65d366a9d6369da40d64b0d76a479ff47ce494a4fa9561349c565b604051948594855260208501526060604085015260608401916137d9565b0390a2565b60405162461bcd60e51b815260206004820152603060248201527f4c69624f6666657256323a2070656572207265736f757263652077617320616c60448201526f1c9958591e481c9959da5cdd195c995960821b6064820152608490fd5b601f959392919519821690835f52865f20915f5b8181106150f0575091614fe797849260019796958895106150d8575b505050811b019055614fe1565b01515f1960f88460031b161c191690555f80806150cb565b8289015184556020988901988b9850600190940193016150af565b5f9081525f80516020615e80833981519152602090815260408083205f805160206161608339815191529092528220600181018054849283928392839290915b8284106152d757505050506151636108008093613241565b1161526e576151729084613241565b1161520b5760020154908160011b918083046002149015171561040f570361519657565b60405162461bcd60e51b815260206004820152604160248201527f4c69624f6666657256323a2062726f6b656e20696e76617269616e742c20564360448201527f5055206e756d62657220646f6573206e6f74206d6174636820435520636f756e6064820152601d60fa1b608482015260a490fd5b60405162461bcd60e51b815260206004820152604260248201525f80516020615f2083398151915260448201527f7420656e6f7567682052414d20746f20737570706f7274205643505520286d61606482015261782960f01b608482015260a490fd5b60405162461bcd60e51b815260206004820152604860248201525f80516020615f2083398151915260448201527f7420656e6f7567682052414d20746f20737570706f727420564350552028617660648201526761696c61626c652960c01b608482015260a490fd5b909192976152e58983615996565b90549060031b1c956152f68761475c565b965f528360205260ff60405f2097541661530f81612fb7565b8061533c575060019182615328615331938a549061371c565b9801549061371c565b985b0192919061514b565b919997909695909160019061535081612fb7565b0361537757600191826153686153719389549061371c565b9701549061371c565b96615333565b945095600190615333565b5f8181525f80516020615f80833981519152602052604081209491925f805160206160608339815191529260018701925b86811015615562576060810283019060408201359182156154ff576020013591825f528660205260405f20541561548857825f52896020528060405f20556153fb83876159ab565b15615426575f80516020615fa083398151915260406001948a9382519182526020820152a2016153b3565b60405162461bcd60e51b815260206004820152603460248201527f4c69624f6666657256323a207265736f757263652077617320616c7265616479604482015273103932b3b4b9ba32b932b21034b71037b33332b960611b6064820152608490fd5b60405162461bcd60e51b815260206004820152604360248201527f4c69624f6666657256323a20417474656d707420746f2072656769737465722060448201527f61207265736f75726365206e6f74206b6e6f776e20746f20746865206e6574776064820152626f726b60e81b608482015260a490fd5b60405162461bcd60e51b815260206004820152603560248201527f4c69624f6666657256323a2063616e6e6f74207265676973746572203020617360448201527420707269636520666f722061207265736f7572636560581b6064820152608490fd5b5095505050505050565b925f80516020615f8083398151915261558485613b78565b515f5260205260405f2090845f525f8051602061616083398151915260205260405f20905f5b858110156155f4578060051b85013590605e1986360301821215610794576155ee600192870180355f52866020526155e760405f20541515614d64565b858a614f36565b016155aa565b5094925050506135dd915061510b565b801561040f575f190190565b5f8181525f80516020615e8083398151915260209081526040808320805484525f80516020615ee08339815191528352818420546001600160a01b031684525f805160206161208339815191529092529091209194909390918115615935576003019361567e82865461371c565b7f60ac4d56f7e69877e4b95a6e91f4b3612278b580a93ea7637885a480e015031c54106158d6575f5b828110156158af578060051b85013590811561585857815f525f805160206160c0833981519152602052600160405f200154615801576040516156e9816133a8565b5f80825260208083018b81526040808501848152606086018581528886525f805160206160c08339815191528552828620965187546001600160a01b0319166001600160a01b0391909116178755925160018701555160028601559051600394909401939093558a82525f805160206160e083398151915290522061576f9083906159ab565b156157a857877f47026182b34ce173abdac328faf5c45bef1648cf75d4b88723a745c9ee792c196020600194604051908152a2016156a7565b60405162461bcd60e51b815260206004820152602b60248201527f4c6962426173654f666665723a20496e76616c69642061646420746f20656e7560448201526a1b595c98589b19481cd95d60aa1b6064820152608490fd5b60405162461bcd60e51b815260206004820152602960248201527f4c6962426173654f666665723a20436f6d7075746520756e697420616c72656160448201526864792065786973747360b81b6064820152608490fd5b60405162461bcd60e51b815260206004820152602960248201527f4c6962426173654f666665723a20556e69742069642073686f756c64206265206044820152686e6f7420656d70747960b81b6064820152608490fd5b50909360029295506158d293506158c785825461371c565b90550191825461371c565b9055565b60405162461bcd60e51b815260206004820152603160248201527f4c6962426173654f666665723a204578636565646564206d6178204355206e7560448201527036b132b9103832b910283937bb34b232b960791b6064820152608490fd5b60405162461bcd60e51b815260206004820152603360248201527f4c6962426173654f666665723a20756e697473206c656e6774682073686f756c6044820152720642062652067726561746572207468616e203606c1b6064820152608490fd5b8054821015613488575f5260205f2001905f90565b6159b58282615a56565b615a0857805490600160401b82101561090257826159f36159dd846001809601855584615996565b819391549060031b91821b915f19901b19161790565b90558054925f520160205260405f2055600190565b50505f90565b90604051918281549182825260208201905f5260205f20925f5b818110615a3d5750506135dd925003836133fa565b8454835260019485019487945060209093019201615a28565b6001915f520160205260405f2054151590565b906001820191815f528260205260405f20548015155f14615b26575f19810181811161040f5782545f1981019190821161040f57818103615af1575b50505080548015615add575f190190615abe8282615996565b8154905f199060031b1b19169055555f526020525f6040812055600190565b634e487b7160e01b5f52603160045260245ffd5b615b11615b016159dd9386615996565b90549060031b1c92839286615996565b90555f528360205260405f20555f8080615aa5565b505050505f90565b6040519060e082016001600160401b03811183821017610902576040525f60c0838281528260208201528260408201528260608201528260808201528260a08201520152565b9190602090949394019283515190615b8b82612fb7565b60a085510151915f1987019680881161040f5760068896015480155f14615bba57505050505050505050600290565b11615e5357615bc881612fb7565b60018114801590615e49575b615e3f57506001955f19820191821161040f57811115615e34575b507f8984d2d0d7a9f2f70f22692c7c8344aa50cbed8c00a03c924457a31793ee8fdb5484519260608401519260808501519160408601519560c087910151945f92868811615e18575b60400151615c4591613241565b94615c6b85615c66615c57878d61369f565b615c61838c61371c565b613241565b61369f565b808210615dfb575b505084871015615cf6575b5050505050509160c0915f93604083510152815160808101519081615cd7575b5050615ca985612fb7565b60018503615cbe575b60a08251015251015290565b83606083510152848251615cd182612fb7565b52615cb2565b6060615ce6910191825161371c565b9052836080835101525f80615c9e565b909294985083615d09929496509561369f565b600497909390848310615d5357505050905060018101809111615d405791839160c09360205f965101525b919381935f8080615c7e565b601185634e487b7160e01b5f525260245ffd5b615d679291615d619161371c565b9361369f565b91615d72818461354f565b806001019182600111615de85782948115615dd55706615daa575b505091615d9f60c094925f969461371c565b602084510152615d34565b60029192935001809111615dc25790615d9f5f615d8d565b601186634e487b7160e01b5f525260245ffd5b60128a634e487b7160e01b5f525260245ffd5b601189634e487b7160e01b5f525260245ffd5b615e10929891615e0a9161369f565b9061371c565b955f80615c73565b9250615c45906040615e2a888a61369f565b9491925050615c38565b5f9550925084615bef565b9550505050505090565b5082871115615bd4565b5050505050505060039056febcafe01e0e079c057fa6df17c4ff47af7cd29c91a21a66ae991220796420800e88681cafafd55573d275926fd208ef2ba36c6dd5169e88841d4bc9bcd22530214c6962426173654f666665723a20617474656d707420746f20646f776e67726123a233ee73076c3cf570675cfe9ff168e5811fe06bf68358a371b89594cf424388681cafafd55573d275926fd208ef2ba36c6dd5169e88841d4bc9bcd225302023a233ee73076c3cf570675cfe9ff168e5811fe06bf68358a371b89594cf42444c69624f6666657256323a2062726f6b656e20696e76617269616e742c206e6f060eac85deb3d96fbd5ae8195897d0dc06e08849b8e30148d172aa28661d3a5223a233ee73076c3cf570675cfe9ff168e5811fe06bf68358a371b89594cf424623a233ee73076c3cf570675cfe9ff168e5811fe06bf68358a371b89594cf4241b824cfa5fc227a07e42b7c6055218aa0f2361876cbb193e0f3e029810b30d42923a233ee73076c3cf570675cfe9ff168e5811fe06bf68358a371b89594cf42490289d684a5923185b066281c5024c185d157238d4cca423aa78874015e114ff723a233ee73076c3cf570675cfe9ff168e5811fe06bf68358a371b89594cf42484c69624f6666657256323a206461746163656e74657220646f6573206e6f742001e842b00fdbb1152aee25c3761b0932d2abd4bde9ee3d1416b68604f16029a123a233ee73076c3cf570675cfe9ff168e5811fe06bf68358a371b89594cf424523a233ee73076c3cf570675cfe9ff168e5811fe06bf68358a371b89594cf424b4c6962426173654f666665723a2063616e6e6f742072656d6f766520636f6d7088681cafafd55573d275926fd208ef2ba36c6dd5169e88841d4bc9bcd225302288681cafafd55573d275926fd208ef2ba36c6dd5169e88841d4bc9bcd2253024c8fcad8db84d3cc18b4c41d551ea0ee66dd599cde068d998e57d5e09332c132088681cafafd55573d275926fd208ef2ba36c6dd5169e88841d4bc9bcd225301f23a233ee73076c3cf570675cfe9ff168e5811fe06bf68358a371b89594cf424a23a233ee73076c3cf570675cfe9ff168e5811fe06bf68358a371b89594cf4242a264697066735822122059eb0e10b989b25a9450841ced7ae54c80e1623467dd1a8cc7783d5fe83c399864736f6c634300081a0033","linkReferences":{}},"methodIdentifiers":{"addComputePeersV2(bytes32,(bytes32,address,(bytes32,uint256,string)[],bytes32[])[])":"4c75eea8","addComputeUnitsV2(bytes32,bytes32[],(bytes32,uint256,string))":"da180c16","bytesPerRam()":"364de315","bytesPerStorage()":"0a91c23f","changeResourceDetails(bytes32,bytes32,string)":"336afed2","changeResourceMaxSupplyV2(bytes32,bytes32,uint256)":"a5d038df","changeResourcePriceV2(bytes32,bytes32,uint256)":"0affe01f","createDatacenter((string,string,uint256,uint256,string[]))":"dafc3795","createDatacenters((string,string,uint256,uint256,string[])[])":"3c9b9bc0","getDatacenter(bytes32)":"d60ec19d","getDatacenters()":"04eea7bc","getOfferDatacenter(bytes32)":"675c0075","getOfferV2(bytes32)":"0e953e1a","getOffersV2()":"12e74a5e","getPeerV2(bytes32)":"d06007be","getPeersV2(bytes32)":"651245a2","getResource(bytes32)":"b4d6af8a","getResources()":"c1cc57b0","ramPerVcpu()":"a57cd475","registerMarketOfferV2(address,(uint8,bytes32,uint256)[],(bytes32,address,(bytes32,uint256,string)[],bytes32[])[],bytes32)":"32788086","registerPeerResource(bytes32,(bytes32,uint256,string))":"3153741a","registerResource(uint8,string)":"4fbe3e3a","registerResources((uint8,string)[])":"0ce79bf1","removeComputePeerV2(bytes32)":"68a22c21","removeComputeUnitV2(bytes32,bytes32)":"f4f9f54d","removeOfferV2(bytes32)":"663e7fe0","removePeerResource(bytes32,bytes32)":"44a4e395","setOfferDatacenter(bytes32,bytes32)":"9b0fbffe","updateDatacenter(bytes32,uint256,string[])":"8da14204","updateResourceMetadata(bytes32,string)":"dc8dd44c","upgradeMarketOfferV2(bytes32,(uint8,bytes32,uint256)[],(bytes32,(bytes32,uint256,string)[])[],bytes32)":"5dba7ae3","vcpuPerCu()":"440dcb30"},"storageLayout":{"storage":[],"types":{}},"devdoc":{"version":1,"kind":"dev","events":{"ComputeUnitCreated(bytes32,bytes32)":{"details":"Emitted when a compute unit created for a peer","params":{"peerId":"The peer id","unitId":"The compute unit id"}},"ComputeUnitRemoved(bytes32,bytes32)":{"details":"Emitted when a compute unit removed from a peer","params":{"peerId":"The peer id","unitId":"The compute unit id"}},"MarketOfferRegistered(address,bytes32,uint256,address,(bytes4,bytes32)[],uint256,uint256)":{"details":"Emitted when a new offer is registered","params":{"effectors":"The effectors of the offer","minPricePerCuPerEpoch":"The min price per cu per epoch which the provider specify for the matching with the deal","offerId":"The offer id","paymentToken":"The payment token of the offer","provider":"The provider address"}},"MarketOfferRemoved(bytes32)":{"details":"Emitted when an offer removed","params":{"offerId":"The offer i"}},"PeerCreated(bytes32,bytes32,address)":{"details":"Emitted when a peer created for an offer"},"PeerRemoved(bytes32,bytes32)":{"details":"Emitted when a peer removed from an offer","params":{"offerId":"The offer id","peerId":"The peer id"}},"ProtocolVersionUpgraded(bytes32,uint256,uint256)":{"details":"Emitted when protocol version of an offer is updated","params":{"maxProtocolVersion":"The new maximum supported protocol version","minProtocolVersion":"The new minimum supported protocol version","offerId":"The offer id"}}}},"id":136}