{"abi":[{"type":"function","name":"addComputePeersV2","inputs":[{"name":"offerId","type":"bytes32","internalType":"bytes32"},{"name":"peers","type":"tuple[]","internalType":"struct IOfferV2.RegisterComputePeerV2[]","components":[{"name":"peerId","type":"bytes32","internalType":"bytes32"},{"name":"owner","type":"address","internalType":"address"},{"name":"resources","type":"tuple[]","internalType":"struct IOfferV2.RegisterPeerResource[]","components":[{"name":"resourceId","type":"bytes32","internalType":"bytes32"},{"name":"supply","type":"uint256","internalType":"uint256"},{"name":"details","type":"string","internalType":"string"}]},{"name":"unitIds","type":"bytes32[]","internalType":"bytes32[]"}]}],"outputs":[],"stateMutability":"nonpayable"},{"type":"function","name":"addComputeUnitsV2","inputs":[{"name":"peerId","type":"bytes32","internalType":"bytes32"},{"name":"unitIds","type":"bytes32[]","internalType":"bytes32[]"},{"name":"resource","type":"tuple","internalType":"struct IOfferV2.RegisterPeerResource","components":[{"name":"resourceId","type":"bytes32","internalType":"bytes32"},{"name":"supply","type":"uint256","internalType":"uint256"},{"name":"details","type":"string","internalType":"string"}]}],"outputs":[],"stateMutability":"nonpayable"},{"type":"function","name":"changeResourceMaxSupplyV2","inputs":[{"name":"peerId","type":"bytes32","internalType":"bytes32"},{"name":"resourceId","type":"bytes32","internalType":"bytes32"},{"name":"newMaxSupply","type":"uint256","internalType":"uint256"}],"outputs":[],"stateMutability":"nonpayable"},{"type":"function","name":"changeResourcePriceV2","inputs":[{"name":"offerId","type":"bytes32","internalType":"bytes32"},{"name":"resourceId","type":"bytes32","internalType":"bytes32"},{"name":"newPrice","type":"uint256","internalType":"uint256"}],"outputs":[],"stateMutability":"nonpayable"},{"type":"function","name":"getOfferV2","inputs":[{"name":"offerId","type":"bytes32","internalType":"bytes32"}],"outputs":[{"name":"","type":"tuple","internalType":"struct IOfferV2.OfferV2View","components":[{"name":"offerId","type":"bytes32","internalType":"bytes32"},{"name":"provider","type":"address","internalType":"address"},{"name":"paymentToken","type":"address","internalType":"address"},{"name":"prices","type":"tuple[]","internalType":"struct IOfferV2.OfferV2PriceView[]","components":[{"name":"resourceId","type":"bytes32","internalType":"bytes32"},{"name":"ty","type":"uint8","internalType":"enum IOfferV2.ResourceType"},{"name":"metadata","type":"string","internalType":"string"},{"name":"price","type":"uint256","internalType":"uint256"}]}]}],"stateMutability":"view"},{"type":"function","name":"getOffersV2","inputs":[],"outputs":[{"name":"","type":"tuple[]","internalType":"struct IOfferV2.OfferV2View[]","components":[{"name":"offerId","type":"bytes32","internalType":"bytes32"},{"name":"provider","type":"address","internalType":"address"},{"name":"paymentToken","type":"address","internalType":"address"},{"name":"prices","type":"tuple[]","internalType":"struct IOfferV2.OfferV2PriceView[]","components":[{"name":"resourceId","type":"bytes32","internalType":"bytes32"},{"name":"ty","type":"uint8","internalType":"enum IOfferV2.ResourceType"},{"name":"metadata","type":"string","internalType":"string"},{"name":"price","type":"uint256","internalType":"uint256"}]}]}],"stateMutability":"view"},{"type":"function","name":"getPeerV2","inputs":[{"name":"peerId","type":"bytes32","internalType":"bytes32"}],"outputs":[{"name":"","type":"tuple","internalType":"struct IOfferV2.PeerV2View","components":[{"name":"offerId","type":"bytes32","internalType":"bytes32"},{"name":"peerId","type":"bytes32","internalType":"bytes32"},{"name":"commitmentId","type":"bytes32","internalType":"bytes32"},{"name":"unitIds","type":"tuple[]","internalType":"struct IBaseOffer.ComputeUnitView[]","components":[{"name":"id","type":"bytes32","internalType":"bytes32"},{"name":"deal","type":"address","internalType":"address"},{"name":"startEpoch","type":"uint256","internalType":"uint256"},{"name":"onchainWorkerId","type":"bytes32","internalType":"bytes32"}]},{"name":"resources","type":"tuple[]","internalType":"struct IOfferV2.PeerV2ResourceView[]","components":[{"name":"resourceId","type":"bytes32","internalType":"bytes32"},{"name":"ty","type":"uint8","internalType":"enum IOfferV2.ResourceType"},{"name":"metadata","type":"string","internalType":"string"},{"name":"details","type":"string","internalType":"string"},{"name":"availableSupply","type":"uint256","internalType":"uint256"},{"name":"maxSupply","type":"uint256","internalType":"uint256"}]}]}],"stateMutability":"view"},{"type":"function","name":"getPeersV2","inputs":[{"name":"offerId","type":"bytes32","internalType":"bytes32"}],"outputs":[{"name":"","type":"tuple[]","internalType":"struct IOfferV2.PeerV2View[]","components":[{"name":"offerId","type":"bytes32","internalType":"bytes32"},{"name":"peerId","type":"bytes32","internalType":"bytes32"},{"name":"commitmentId","type":"bytes32","internalType":"bytes32"},{"name":"unitIds","type":"tuple[]","internalType":"struct IBaseOffer.ComputeUnitView[]","components":[{"name":"id","type":"bytes32","internalType":"bytes32"},{"name":"deal","type":"address","internalType":"address"},{"name":"startEpoch","type":"uint256","internalType":"uint256"},{"name":"onchainWorkerId","type":"bytes32","internalType":"bytes32"}]},{"name":"resources","type":"tuple[]","internalType":"struct IOfferV2.PeerV2ResourceView[]","components":[{"name":"resourceId","type":"bytes32","internalType":"bytes32"},{"name":"ty","type":"uint8","internalType":"enum IOfferV2.ResourceType"},{"name":"metadata","type":"string","internalType":"string"},{"name":"details","type":"string","internalType":"string"},{"name":"availableSupply","type":"uint256","internalType":"uint256"},{"name":"maxSupply","type":"uint256","internalType":"uint256"}]}]}],"stateMutability":"view"},{"type":"function","name":"getResource","inputs":[{"name":"resourceId","type":"bytes32","internalType":"bytes32"}],"outputs":[{"name":"","type":"tuple","internalType":"struct IOfferV2.ResourceDescription","components":[{"name":"ty","type":"uint8","internalType":"enum IOfferV2.ResourceType"},{"name":"metadata","type":"string","internalType":"string"}]}],"stateMutability":"view"},{"type":"function","name":"getResources","inputs":[],"outputs":[{"name":"","type":"tuple[]","internalType":"struct IOfferV2.ResourceDescriptionView[]","components":[{"name":"id","type":"bytes32","internalType":"bytes32"},{"name":"ty","type":"uint8","internalType":"enum IOfferV2.ResourceType"},{"name":"metadata","type":"string","internalType":"string"}]}],"stateMutability":"view"},{"type":"function","name":"ramPerVcpu","inputs":[],"outputs":[{"name":"","type":"uint256","internalType":"uint256"}],"stateMutability":"pure"},{"type":"function","name":"registerMarketOfferV2","inputs":[{"name":"paymentToken","type":"address","internalType":"address"},{"name":"resourcePrices","type":"tuple[]","internalType":"struct IOfferV2.RegisterResourcePrice[]","components":[{"name":"ty","type":"uint8","internalType":"enum IOfferV2.ResourceType"},{"name":"resourceId","type":"bytes32","internalType":"bytes32"},{"name":"price","type":"uint256","internalType":"uint256"}]},{"name":"peers","type":"tuple[]","internalType":"struct IOfferV2.RegisterComputePeerV2[]","components":[{"name":"peerId","type":"bytes32","internalType":"bytes32"},{"name":"owner","type":"address","internalType":"address"},{"name":"resources","type":"tuple[]","internalType":"struct IOfferV2.RegisterPeerResource[]","components":[{"name":"resourceId","type":"bytes32","internalType":"bytes32"},{"name":"supply","type":"uint256","internalType":"uint256"},{"name":"details","type":"string","internalType":"string"}]},{"name":"unitIds","type":"bytes32[]","internalType":"bytes32[]"}]}],"outputs":[{"name":"","type":"bytes32","internalType":"bytes32"}],"stateMutability":"nonpayable"},{"type":"function","name":"registerPeerResource","inputs":[{"name":"peerId","type":"bytes32","internalType":"bytes32"},{"name":"resource","type":"tuple","internalType":"struct IOfferV2.RegisterPeerResource","components":[{"name":"resourceId","type":"bytes32","internalType":"bytes32"},{"name":"supply","type":"uint256","internalType":"uint256"},{"name":"details","type":"string","internalType":"string"}]}],"outputs":[],"stateMutability":"nonpayable"},{"type":"function","name":"registerResource","inputs":[{"name":"ty","type":"uint8","internalType":"enum IOfferV2.ResourceType"},{"name":"metadata","type":"string","internalType":"string"}],"outputs":[{"name":"id","type":"bytes32","internalType":"bytes32"}],"stateMutability":"nonpayable"},{"type":"function","name":"registerResources","inputs":[{"name":"resources","type":"tuple[]","internalType":"struct IOfferV2.ResourceDescription[]","components":[{"name":"ty","type":"uint8","internalType":"enum IOfferV2.ResourceType"},{"name":"metadata","type":"string","internalType":"string"}]}],"outputs":[{"name":"","type":"bytes32[]","internalType":"bytes32[]"}],"stateMutability":"nonpayable"},{"type":"function","name":"removeComputePeerV2","inputs":[{"name":"peerId","type":"bytes32","internalType":"bytes32"}],"outputs":[],"stateMutability":"nonpayable"},{"type":"function","name":"removeComputeUnitV2","inputs":[{"name":"unitId","type":"bytes32","internalType":"bytes32"},{"name":"associatedResourceId","type":"bytes32","internalType":"bytes32"}],"outputs":[],"stateMutability":"nonpayable"},{"type":"function","name":"removeOfferV2","inputs":[{"name":"offerId","type":"bytes32","internalType":"bytes32"}],"outputs":[],"stateMutability":"nonpayable"},{"type":"function","name":"removePeerResource","inputs":[{"name":"peerId","type":"bytes32","internalType":"bytes32"},{"name":"resourceId","type":"bytes32","internalType":"bytes32"}],"outputs":[],"stateMutability":"nonpayable"},{"type":"function","name":"vcpuPerCu","inputs":[],"outputs":[{"name":"","type":"uint256","internalType":"uint256"}],"stateMutability":"pure"},{"type":"event","name":"ComputeUnitCreated","inputs":[{"name":"peerId","type":"bytes32","indexed":true,"internalType":"bytes32"},{"name":"unitId","type":"bytes32","indexed":false,"internalType":"bytes32"}],"anonymous":false},{"type":"event","name":"ComputeUnitRemoved","inputs":[{"name":"peerId","type":"bytes32","indexed":true,"internalType":"bytes32"},{"name":"unitId","type":"bytes32","indexed":true,"internalType":"bytes32"}],"anonymous":false},{"type":"event","name":"MarketOfferRegistered","inputs":[{"name":"provider","type":"address","indexed":true,"internalType":"address"},{"name":"offerId","type":"bytes32","indexed":false,"internalType":"bytes32"},{"name":"minPricePerCuPerEpoch","type":"uint256","indexed":false,"internalType":"uint256"},{"name":"paymentToken","type":"address","indexed":false,"internalType":"address"},{"name":"effectors","type":"tuple[]","indexed":false,"internalType":"struct CIDV1[]","components":[{"name":"prefixes","type":"bytes4","internalType":"bytes4"},{"name":"hash","type":"bytes32","internalType":"bytes32"}]},{"name":"minProtocolVersion","type":"uint256","indexed":false,"internalType":"uint256"},{"name":"maxProtocolVersion","type":"uint256","indexed":false,"internalType":"uint256"}],"anonymous":false},{"type":"event","name":"MarketOfferRemoved","inputs":[{"name":"offerId","type":"bytes32","indexed":true,"internalType":"bytes32"}],"anonymous":false},{"type":"event","name":"OfferDatacenterUpdated","inputs":[{"name":"offerId","type":"bytes32","indexed":true,"internalType":"bytes32"},{"name":"datacenterId","type":"bytes32","indexed":false,"internalType":"bytes32"}],"anonymous":false},{"type":"event","name":"PeerCreated","inputs":[{"name":"offerId","type":"bytes32","indexed":true,"internalType":"bytes32"},{"name":"peerId","type":"bytes32","indexed":false,"internalType":"bytes32"},{"name":"owner","type":"address","indexed":false,"internalType":"address"}],"anonymous":false},{"type":"event","name":"PeerRemoved","inputs":[{"name":"offerId","type":"bytes32","indexed":true,"internalType":"bytes32"},{"name":"peerId","type":"bytes32","indexed":true,"internalType":"bytes32"}],"anonymous":false},{"type":"event","name":"PeerResourceRegistered","inputs":[{"name":"peerId","type":"bytes32","indexed":true,"internalType":"bytes32"},{"name":"resourceId","type":"bytes32","indexed":false,"internalType":"bytes32"},{"name":"maxSupply","type":"uint256","indexed":false,"internalType":"uint256"},{"name":"details","type":"string","indexed":false,"internalType":"string"}],"anonymous":false},{"type":"event","name":"PeerResourceSupplyUpdated","inputs":[{"name":"peerId","type":"bytes32","indexed":true,"internalType":"bytes32"},{"name":"resourceId","type":"bytes32","indexed":false,"internalType":"bytes32"},{"name":"newAvailableSupply","type":"uint256","indexed":false,"internalType":"uint256"},{"name":"newMaxSupply","type":"uint256","indexed":false,"internalType":"uint256"}],"anonymous":false},{"type":"event","name":"ResourceCreated","inputs":[{"name":"resourceId","type":"bytes32","indexed":true,"internalType":"bytes32"},{"name":"ty","type":"uint8","indexed":false,"internalType":"enum IOfferV2.ResourceType"},{"name":"metadata","type":"string","indexed":false,"internalType":"string"}],"anonymous":false},{"type":"event","name":"ResourcePriceUpdated","inputs":[{"name":"offerId","type":"bytes32","indexed":true,"internalType":"bytes32"},{"name":"resourceId","type":"bytes32","indexed":false,"internalType":"bytes32"},{"name":"price","type":"uint256","indexed":false,"internalType":"uint256"}],"anonymous":false}],"bytecode":{"object":"0x608080604052346015576147ac908161001a8239f35b5f80fdfe60806040526004361015610011575f80fd5b5f3560e01c80630affe01f14611dfa5780630ce79bf114611cf95780630e953e1a14611cbd57806312e74a5e14611ba75780631d0aa53f146114f05780633153741a146113ae578063440dcb3014610ca657806344a4e395146113445780634c75eea8146112a75780634fbe3e3a1461122f578063651245a21461110c578063663e7fe014610f3957806368a22c2114610cab578063a57cd47514610ca6578063a5d038df14610bdc578063b4d6af8a14610b4e578063c1cc57b0146109b9578063d06007be14610979578063da180c16146106bc5763f4f9f54d146100f5575f80fd5b346106b857610103366120ac565b905f80516020614737833981519152610127602061012084613780565b0151612e6b565b515f525f805160206145b783398151915260205261016c60405f2061015660018060a01b0382541615156121fa565b60026004820154101590816106a8575b50612243565b815f525f805160206146f7833981519152602052600160405f2001548015610666575f525f8051602061457783398151915260205260405f20546101b181151561248e565b5f9081525f805160206145b783398151915260205260409020546101ea906001600160a01b03166101e38115156121fa565b331461229f565b815f525f805160206146f783398151915260205260405f2090600182015491610214831515613737565b5f8381525f8051602061457783398151915260209081526040808320805484525f805160206145b78339815191528352818420546001600160a01b03168085529590925290912092909190330361060b5760018201546105d057546001600160a01b031661059157600201805491821561052d57600301918254156104c45761029c90613a76565b90556102a88154613a76565b9055805f525f805160206147178339815191526020526102cb8260405f20614162565b1561047457818061032c926020945f525f805160206146f783398151915285525f60036040822082815582600182015582600282015501557f5abefe0a1fb3d6df34b14e459422791829e024e367c6df8eaf0bf218cf42fb365f80a3613780565b0180515f525f8051602061475783398151915260205260405f20825f52602052600160405f2001549061035e8361309f565b6002831061041f575460ff1661037381611f8e565b6103a457519160011982019182116103905761038e92612ee8565b005b634e487b7160e01b5f52601160045260245ffd5b60405162461bcd60e51b815260206004820152604760248201527f4c69624f6666657256323a20726571756972656420746f6f2072656d6f76652060448201527f612056435055207265736f7572636520616c6f6e67207769746820636f6d70756064820152661d19481d5b9a5d60ca1b608482015260a490fd5b60405162461bcd60e51b815260206004820152602760248201527f4c69624f6666657256323a206e6f7420656e6f756768207265736f757263652060448201526634b7103832b2b960c91b6064820152608490fd5b60405162461bcd60e51b815260206004820152602260248201527f496e76616c69642072656d6f76652066726f6d20656e756d657261626c652073604482015261195d60f21b6064820152608490fd5b60405162461bcd60e51b815260206004820152604860248201525f805160206146d783398151915260448201527f75746520756e697420626563617573652070726f766964657220686173207a65606482015267726f20756e69747360c01b608482015260a490fd5b60a460405162461bcd60e51b815260206004820152604460248201525f805160206146d783398151915260448201527f75746520756e69742062656361757365207065657220686173207a65726f20756064820152636e69747360e01b6084820152fd5b60405162461bcd60e51b815260206004820152601760248201527610dbdb5c1d5d19481d5b9a5d081a5cc81a5b881919585b604a1b6044820152606490fd5b60405162461bcd60e51b81526020600482015260136024820152721419595c881a185cc818dbdb5b5a5d1b595b9d606a1b6044820152606490fd5b60405162461bcd60e51b815260206004820152602d60248201527f4f666665723a2070726f746f636f6c2076657273696f6e206d69736d6174636860448201526c2c20726571756972656420763160981b6064820152608490fd5b60405162461bcd60e51b815260206004820152601a60248201527913d999995c8e881d5b9a5d08191bd95cc81b9bdd08195e1a5cdd60321b6044820152606490fd5b600291506005015411155f610166565b5f80fd5b346106b85760603660031901126106b8576004356024356001600160401b0381116106b8576106ef903690600401611f5e565b6044359291906001600160401b0384116106b8578360040191606060031986360301126106b857816107c49161072486612e6b565b515f525f805160206145b783398151915260205261076860405f2061075360018060a01b0382541615156121fa565b60026004820154101590816109695750612243565b855f525f8051602061457783398151915260205260405f205461078c81151561248e565b5f9081525f805160206145b783398151915260205260409020546107be906001600160a01b03166101e38115156121fa565b85613d09565b81356107cf8161309f565b946107d985612e6b565b5f8051602061463783398151915290515f5260205260ff60405f2096541661080081611f8e565b6108ed5760240135918060011b90808204600214901517156103905782036108835761083a61083582600161038e980161414f565b6136ba565b835f525f8051602061475783398151915260205260405f2092610860826001860161414f565b156108765750610871925083612ee8565b613a82565b9150506108719183613800565b60405162461bcd60e51b815260206004820152603c60248201527f4c69624f6666657256323a20636f6d7075746520756e69747320636f756e742060448201527b0c2dcc840e4cae6deeae4c6ca40e6eae0e0d8f240dad2e6dac2e8c6d60231b6064820152608490fd5b60405162461bcd60e51b815260206004820152604860248201527f4c69624f6666657256323a207265676973746572696e6720636f6d707574652060448201527f756e69747320726571756972657320616464696e67206e65772056435055207260648201526765736f757263657360c01b608482015260a490fd5b6002915060050154111589610166565b346106b85760203660031901126106b8576109926125b4565b506109b56109a160043561313e565b6040519182916020835260208301906120c2565b0390f35b346106b8575f3660031901126106b8575f805160206145d7833981519152546109e1816123d7565b906109ef60405192836123b4565b808252601f196109fe826123d7565b015f5b818110610b245750505f5b818110610a9e57826040518091602082016020835281518091526040830190602060408260051b8601019301915f905b828210610a4b57505050500390f35b91936001919395506020610a8e8192603f198a8203018652606060408a518051845285810151610a7a81611f8e565b868501520151918160408201520190611fac565b9601920192018594939192610a3c565b80610ab86001925f805160206145d783398151915261408f565b90549060031b1c805f525f80516020614597833981519152602052610b038360405f2060ff81541660405194610aed86612347565b8552610af881611f8e565b602085015201612514565b6040820152610b128286612456565b52610b1d8185612456565b5001610a0c565b602090604051610b3381612347565b5f81525f838201526060604082015282828701015201610a01565b346106b85760203660031901126106b85760606020604051610b6f8161232c565b5f81520152610b7f60043561309f565b610ba7600160405192610b918461232c565b60ff815416610b9f81611f8e565b845201612514565b90602081019182526109b56040519283926020845251610bc681611f8e565b6020840152516040808401526060830190611fac565b346106b85761038e610bed36611f44565b91610bf781612e6b565b515f525f805160206145b7833981519152602052610c3b60405f20610c2660018060a01b0382541615156121fa565b6002600482015410159081610c965750612243565b805f525f8051602061457783398151915260205260405f2054610c5f81151561248e565b5f9081525f805160206145b78339815191526020526040902054610c91906001600160a01b03166101e38115156121fa565b612ee8565b6002915060050154111586610166565b612091565b346106b85760203660031901126106b857600435610cc881612e6b565b515f525f805160206145b7833981519152602052610d0c60405f20610cf760018060a01b0382541615156121fa565b6002600482015410159081610f295750612243565b805f525f8051602061457783398151915260205260405f2054610d3081151561248e565b5f9081525f805160206145b78339815191526020526040902054610d62906001600160a01b03166101e38115156121fa565b610d6b81612e6b565b51815f525f8051602061457783398151915260205260405f20805490815f525f805160206145b7833981519152602052600260405f2091610dad841515612e2a565b8254610dc3906001600160a01b0316331461229f565b0154610eeb57600301908154918215610e7557610de08593613a76565b9055815f525f805160206145778339815191526020525f60036040822082815582600182015582600282015501557f5f91ba2d62c13db8e4353c3b2d314e715907459581a42b764f350231f8ee0cf35f80a35f525f80516020614697833981519152602052610e528160405f20614162565b505f525f8051602061475783398151915260205261038e600160405f2001612dd6565b60405162461bcd60e51b815260206004820152604260248201527f4c6962426173654f666665723a20617474656d707420746f2072656d6f76652060448201527f6120706565722066726f6d20616e206f6666657220776974686f757420706565606482015261727360f01b608482015260a490fd5b60405162461bcd60e51b8152602060048201526016602482015275506565722068617320636f6d7075746520756e69747360501b6044820152606490fd5b6002915060050154111583610166565b346106b85760203660031901126106b857600435805f525f805160206145b7833981519152602052610f7c60405f20610cf760018060a01b0382541615156121fa565b5f8181525f805160206145b78339815191526020526040902054610fae906001600160a01b03166101e38115156121fa565b5f80516020614637833981519152815f525f805160206145b7833981519152602052600360405f20610fee60018060a01b038254166101e38115156121fa565b01546110cd57815f525f805160206145b78339815191526020525f6005604082208281558260018201558260028201558260038201558260048201550155817f0e2c810360f652bf120515b49756167e4b196601c40ce83c5df5a8fa22d7f9b85f80a2611068825f80516020614617833981519152614162565b50815f525f8051602061469783398151915260205261108960405f20612dd6565b815f5260205261109e600160405f2001612dd6565b5f9081527f23a233ee73076c3cf570675cfe9ff168e5811fe06bf68358a371b89594cf424a6020526040812055005b60405162461bcd60e51b81526020600482015260176024820152764f666665722068617320636f6d7075746520706565727360481b6044820152606490fd5b346106b85760203660031901126106b8576004355f525f8051602061469783398151915260205261113f60405f20614107565b80519061114b826123d7565b9161115960405193846123b4565b808352611168601f19916123d7565b015f5b8181106112185750505f5b81518110156111b1578061119561118f60019385612456565b5161313e565b61119f8286612456565b526111aa8185612456565b5001611176565b826040518091602082016020835281518091526040830190602060408260051b8601019301915f905b8282106111e957505050500390f35b919360019193955060206112088192603f198a820301865288516120c2565b96019201920185949391926111da565b6020906112236125b4565b8282870101520161116b565b346106b85760403660031901126106b85760043560068110156106b8576024356001600160401b0381116106b857366023820112156106b85760048101356001600160401b0381116106b85736602482840101116106b857602092602461129f936112986125eb565b01906126e0565b604051908152f35b346106b85760403660031901126106b8576024356004356001600160401b0382116106b8576112dd61038e923690600401611f5e565b91805f525f805160206145b783398151915260205261130d60405f20610c2660018060a01b0382541615156121fa565b5f8181525f805160206145b7833981519152602052604090205461133f906001600160a01b03166101e38115156121fa565b612ac2565b346106b857611352366120ac565b90805f525f8051602061457783398151915260205260405f205461137781151561248e565b5f9081525f805160206145b783398151915260205260409020546113a9906001600160a01b03166101e38115156121fa565b6124d7565b346106b85760403660031901126106b8576004356024356001600160401b0381116106b8576060816004019160031990360301126106b857815f525f8051602061457783398151915260205260405f205461140a81151561248e565b5f9081525f805160206145b7833981519152602052604090205461143c906001600160a01b03166101e38115156121fa565b61144582612e6b565b515f80516020614637833981519152905f5260205261146c600160405f200182359061414f565b15611493578161038e925f525f8051602061475783398151915260205260405f2090613800565b60405162461bcd60e51b815260206004820152602f60248201527f4c69624f6666657256323a207265736f75726365206973206e6f74207265676960448201526e39ba32b932b21034b71037b33332b960891b6064820152608490fd5b346106b85760603660031901126106b8576004356001600160a01b038116908190036106b8576024356001600160401b0381116106b857366023820112156106b8576004810135906001600160401b0382116106b85736602460608402830101116106b8576044356001600160401b0381116106b857611574903690600401611f5e565b9290915f80516020614637833981519152925f805160206147378339815191529360405160208101907febbe29d10864671a7296ae5158eb0df8533e86c62e6a8460f3029ae682538c5182523360601b6040820152436054820152365f60748301376115f36074823681015f838201520301601f1981018352826123b4565b5190209460018060a01b0333165f5260205261161260405f20546124dc565b15611b69575f8581525f805160206145b783398151915260205260409020600201546001600160a01b0316611b2d578615611ad7577f60ac4d56f7e69877e4b95a6e91f4b3612278b580a93ea7637885a480e015031a54600210611a92577f60ac4d56f7e69877e4b95a6e91f4b3612278b580a93ea7637885a480e015031b54600211611a4e57865f527f60ac4d56f7e69877e4b95a6e91f4b3612278b580a93ea7637885a480e015031d60205260ff60405f20541615611a0a576040516116d9816122fd565b3381525f602080830182815260408085018c81526060860185815260026080880181815260a089018281528e89525f805160206145b7833981519152885297859020985189546001600160a01b039182166001600160a01b0319918216178b55965160018b01559351918901805492909416919095161790915551600386015590516004850155915160059093019290925551909761177889836123b4565b5f82526040979597519060c08201908883525f8b840152604083015260c0606083015282518091528960e083019301905f5b8b8282106119e1575050505080600260807f02b4bfba88db81e84c717b16bf874a79ecc39de3944a9f18dd7122ae32f09907930152600260a08201528033930390a2611803855f805160206146178339815191526140a4565b50845f52865260405f20915f93600184019260015f805160206145d783398151915201955b888110156119d4576060810284016064810135908115611971576044013590815f52888c5260405f2054156118fa57815f52878c528060405f205561186d82886140a4565b15611898575f805160206146578339815191526040600194938c938f8351928352820152a201611828565b60405162461bcd60e51b8152600481018d9052603460248201527f4c69624f6666657256323a207265736f757263652077617320616c7265616479604482015273103932b3b4b9ba32b932b21034b71037b33332b960611b6064820152608490fd5b60405162461bcd60e51b8152600481018d9052604360248201527f4c69624f6666657256323a20417474656d707420746f2072656769737465722060448201527f61207265736f75726365206e6f74206b6e6f776e20746f20746865206e6574776064820152626f726b60e81b608482015260a490fd5b60405162461bcd60e51b8152600481018d9052603560248201527f4c69624f6666657256323a2063616e6e6f74207265676973746572203020617360448201527420707269636520666f722061207265736f7572636560581b6064820152608490fd5b898861129f858583612ac2565b835180516001600160e01b031916875281015181870152604090950194909201916001016117aa565b60405162461bcd60e51b815260206004820152601c60248201527b14185e5b595b9d081d1bdad95b881a5cc81b9bdd08185b1b1bddd95960221b6044820152606490fd5b60405162461bcd60e51b815260206004820152601c60248201527b4d61782070726f746f636f6c2076657273696f6e20746f6f2062696760201b6044820152606490fd5b60405162461bcd60e51b815260206004820152601e60248201527f4d696e2070726f746f636f6c2076657273696f6e20746f6f20736d616c6c00006044820152606490fd5b60405162461bcd60e51b815260206004820152602860248201527f5061796d656e7420746f6b656e2073686f756c64206265206e6f74207a65726f604482015267206164647265737360c01b6064820152608490fd5b60405162461bcd60e51b81526020600482015260146024820152734f6666657220616c72656164792065786973747360601b6044820152606490fd5b60405162461bcd60e51b8152602060048201526016602482015275141c9bdd9a59195c88191bd95cdb89dd08195e1a5cdd60521b6044820152606490fd5b346106b8575f3660031901126106b857611bcd5f80516020614617833981519152614107565b805190611bd9826123d7565b91611be760405193846123b4565b808352611bf6601f19916123d7565b015f5b818110611ca65750505f5b8151811015611c3f5780611c23611c1d60019385612456565b516128e1565b611c2d8286612456565b52611c388185612456565b5001611c04565b826040518091602082016020835281518091526040830190602060408260051b8601019301915f905b828210611c7757505050500390f35b91936001919395506020611c968192603f198a82030186528851611fd0565b9601920192018594939192611c68565b602090611cb161246a565b82828701015201611bf9565b346106b85760203660031901126106b857611cd661246a565b506109b5611ce56004356128e1565b604051918291602083526020830190611fd0565b346106b85760203660031901126106b8576004356001600160401b0381116106b857611d29903690600401611f5e565b90611d326125eb565b611d3b826123d7565b91611d4960405193846123b4565b808352611d55816123d7565b602084019290601f19013684375f5b828110611daf578385604051918291602083019060208452518091526040830191905f5b818110611d96575050500390f35b8251845285945060209384019390920191600101611d88565b611dba8184846123ee565b359060068210156106b857611de9600192611de3611dd98488886123ee565b6020810190612424565b916126e0565b611df38288612456565b5201611d64565b346106b857611e0836611f44565b90825f525f805160206145b7833981519152602052611e4d60405f20611e3860018060a01b0382541615156121fa565b6002600482015410159081611f345750612243565b5f8381525f805160206145b78339815191526020526040902054611e7f906001600160a01b03166101e38115156121fa565b5f80516020614637833981519152835f5260205260405f20908215611ed6575f805160206146578339815191529282611ebd836001604096016140a4565b50825f5260205280835f205582519182526020820152a2005b60405162461bcd60e51b815260206004820152603060248201527f4c69624f6666657256323a2063616e6e6f74206368616e6765207265736f757260448201526f636520707269636520746f207a65726f60801b6064820152608490fd5b6002915060050154111585610166565b60609060031901126106b857600435906024359060443590565b9181601f840112156106b8578235916001600160401b0383116106b8576020808501948460051b0101116106b857565b60061115611f9857565b634e487b7160e01b5f52602160045260245ffd5b805180835260209291819084018484015e5f828201840152601f01601f1916010190565b90606060808201928051835260018060a01b03602082015116602084015260018060a01b03604082015116604084015201519160806060830152825180915260a0820191602060a08360051b8301019401925f915b83831061203457505050505090565b9091929394602080600192609f19858203018652885190815181528282015161205c81611f8e565b8382015260608061207c6040850151608060408601526080850190611fac565b93015191015297019301930191939290612025565b346106b8575f3660031901126106b857602060405160028152f35b60409060031901126106b8576004359060243590565b60a082019080518352602081015160208401526040810151604084015260608101519160a060608501528251809152602060c085019301905f5b8181106121b85750505060800151916080818303910152815180825260208201916020808360051b8301019401925f915b83831061213c57505050505090565b9091929394602080600192601f19858203018652885190815181528282015161216481611f8e565b8382015260a080612199612187604086015160c0604087015260c0860190611fac565b60608601518582036060870152611fac565b936080810151608085015201519101529701930193019193929061212d565b8251805186526020818101516001600160a01b0316818801526040808301519088015260609182015191870191909152608090950194909201916001016120fc565b1561220157565b60405162461bcd60e51b815260206004820152601a60248201527913d999995c8e881bd999995c88191bd95cdb89dd08195e1a5cdd60321b6044820152606490fd5b1561224a57565b60405162461bcd60e51b815260206004820152602760248201527f4f666665723a206d6574686f64206f6e6c7920776f726b732077697468205631604482015266206f666665727360c81b6064820152608490fd5b156122a657565b60405162461bcd60e51b815260206004820152602960248201527f4f666665723a206f6e6c792070726f76696465722063616e2063616c6c2074686044820152681a5cc81b595d1a1bd960ba1b6064820152608490fd5b60c081019081106001600160401b0382111761231857604052565b634e487b7160e01b5f52604160045260245ffd5b604081019081106001600160401b0382111761231857604052565b606081019081106001600160401b0382111761231857604052565b608081019081106001600160401b0382111761231857604052565b60a081019081106001600160401b0382111761231857604052565b61016081019081106001600160401b0382111761231857604052565b601f909101601f19168101906001600160401b0382119082101761231857604052565b6001600160401b0381116123185760051b60200190565b91908110156124105760051b81013590603e19813603018212156106b8570190565b634e487b7160e01b5f52603260045260245ffd5b903590601e19813603018212156106b857018035906001600160401b0382116106b8576020019181360383136106b857565b80518210156124105760209160051b010190565b6040519061247782612362565b606080835f81525f60208201525f60408201520152565b1561249557565b60405162461bcd60e51b815260206004820152601a60248201527913d999995c8e881c19595c88191bd95cc81b9bdd08195e1a5cdd60321b6044820152606490fd5b6124d7565b90600182811c9216801561250a575b60208310146124f657565b634e487b7160e01b5f52602260045260245ffd5b91607f16916124eb565b9060405191825f825492612527846124dc565b8084529360018116908115612592575060011461254e575b5061254c925003836123b4565b565b90505f9291925260205f20905f915b81831061257657505090602061254c928201015f61253f565b602091935080600191548385890101520191019091849261255d565b90506020925061254c94915060ff191682840152151560051b8201015f61253f565b604051906125c18261237d565b60606080835f81525f60208201525f604082015282808201520152565b9190820391821161039057565b7fc8fcad8db84d3cc18b4c41d551ea0ee66dd599cde068d998e57d5e09332c1320546001600160a01b0316330361261e57565b60405162461bcd60e51b815260206004820152602260248201527f4c69624469616d6f6e643a204d75737420626520636f6e7472616374206f776e60448201526132b960f11b6064820152608490fd5b9190820180921161039057565b9192916001600160401b03821161231857604051916126a4601f8201601f1916602001846123b4565b8294818452818301116106b8578281602093845f960137010152565b908060209392818452848401375f828201840152601f01601f1916010190565b5f805160206145d7833981519152549193926001830192831061039057612714835f805160206145d78339815191526140a4565b50604051916127228361232c565b61272b81611f8e565b808352600161273b36848961267b565b9360208101948552855f525f8051602061459783398151915260205260405f20905161276681611f8e565b61276f81611f8e565b60ff8019835416911617815501925195865160018060401b0381116123185761279885546124dc565b97601f891161289c575b869798505f96959650602090601f831160011461281f5791805f805160206146b783398151915297989261280e95945f92612814575b50508160011b915f199060031b1c19161790555b60405193836127fb8695611f8e565b84526040602085015260408401916126c0565b0390a290565b015190505f806127d8565b601f9792919719821690835f52885f20915f5b8181106128815750915f805160206146b78339815191529899849261280e97969560019510612869575b505050811b0190556127ec565b01515f1960f88460031b161c191690555f808061285c565b828b0151845560209a8b019a8c9a5060019094019301612832565b855f5260205f20601f830160051c810199602084106128d7575b601f0160051c01985b8981106128cc57506127a2565b5f81556001016128bf565b90995089906128b6565b6128e961246a565b505f60806040516128f98161237d565b8281528260208201528260408201528260608201520152805f525f805160206145b783398151915260205260405f2060018060a01b038154169161293e8315156121fa565b60018060a01b03600283015416916080600382015460056004840154930154926040519161296b8361237d565b8783528660208401526040830152606082015201525f80516020614637833981519152815f5260205260405f20936129a560018601614107565b918251936129b2856123d7565b946129c060405196876123b4565b8086526129cf601f19916123d7565b015f5b818110612a925750505f5b8451811015612a6a57806129f360019287612456565b51805f528960205260405f2054815f525f80516020614597833981519152602052612a448460405f2060ff81541660405195612a2e87612362565b8652612a3981611f8e565b602086015201612514565b60408301526060820152612a588289612456565b52612a638188612456565b50016129dd565b5092509390945060405193612a7e85612362565b845260208401526040830152606082015290565b602090604051612aa181612362565b5f81525f83820152606060408201525f606082015282828a010152016129d2565b9190915f915b80831015612dbd578260051b840135607e19853603018112156106b85784015f805160206146378339815191529381359160208101359060018060a01b0382168092036106b857612b1c6060820182613a41565b5f93919350855f525f8051602061457783398151915260205260405f20885f525f805160206145b783398151915260205260405f208154612d5d578715612d06578315612ca957898255600391820180546001600160a01b0319169094178455018054909490925f198414610390577f2a9c96970c242b218486fb3338450a874ff7ccad1fcad3d89b2781f48ece88d060408b929d9e9d612c08986001612bdc9801905560018060a01b039054168151908b82526020820152a286613d09565b855f525f80516020614697833981519152602052612bfd8460405f206140a4565b506040810190613a41565b969095612c1484612e6b565b515f5260205260405f2094835f525f8051602061475783398151915260205260405f20945f99605e19893603019a5b8a811015612c87578060051b8a0135908c8212156106b857612c816001928c0180355f528b602052612c7a60405f205415156136ba565b8a8a613800565b01612c43565b5097509750975093509060019250612c9e90613a82565b019192939093612ac8565b60405162461bcd60e51b815260206004820152602f60248201527f4c6962426173654f666665723a204f776e657220616464726573732073686f7560448201526e6c64206265206e6f7420656d70747960881b6064820152608490fd5b60405162461bcd60e51b815260206004820152602960248201527f4c6962426173654f666665723a20506565722069642073686f756c64206265206044820152686e6f7420656d70747960b81b6064820152608490fd5b60405162461bcd60e51b815260206004820152603260248201527f4c6962426173654f666665723a205065657220616c7265616479206578697374604482015271399034b71030b737ba3432b91037b33332b960711b6064820152608490fd5b50505050565b8181029291811591840414171561039057565b8054905f815581612de5575050565b5f5260205f20908101905b818110612dfb575050565b5f8155600101612df0565b60405190612e1382612362565b5f6060838281528260208201528260408201520152565b15612e3157565b60405162461bcd60e51b81526020600482015260126024820152711419595c88191bd95cdb89dd08195e1a5cdd60721b6044820152606490fd5b612e73612e06565b50805f525f80516020614577833981519152602052612e9760405f20541515612e2a565b5f525f8051602061457783398151915260205260405f2060405190612ebb82612362565b805482526001810154602083015260028101546040830152600301546001600160a01b0316606082015290565b91825f525f8051602061475783398151915260205260405f2091805f5282602052612f1a81600160405f20950161414f565b15613046576001830180548381111561300d5750612f3a815493846125de565b938054858110612f8d5785606095612f635f8051602061467783398151915298612f6a946125de565b84556125de565b82555b612f7686613a82565b5490549060405192835260208301526040820152a2565b60405162461bcd60e51b815260206004820152604c60248201527f4c69624f6666657256323a2063616e6e6f74206465637265617365207065657260448201527f207265736f7572636520737570706c792062656361757365206974206973207560648201526b73656420696e204465616c7360a01b608482015260a490fd5b9361303f8561302c5f80516020614677833981519152976060976125de565b9061303882855461266e565b845561266e565b8255612f6d565b60405162461bcd60e51b815260206004820152602b60248201527f4c69624f6666657256323a2070656572207265736f75726365206973206e6f7460448201526a081c9959da5cdd195c995960aa1b6064820152608490fd5b5f8181527f23a233ee73076c3cf570675cfe9ff168e5811fe06bf68358a371b89594cf42456020526040902054156130eb575f525f8051602061459783398151915260205260405f2090565b60405162461bcd60e51b815260206004820152602560248201527f4c69624f6666657256323a207265736f75726365496420646f6573206e6f7420604482015264195e1a5cdd60da1b6064820152608490fd5b906131476125b4565b5061315182612e6b565b6020815191015190835f525f8051602061471783398151915260205261317960405f20614107565b90815194613186866123d7565b9561319460405197886123b4565b8087526131a3601f19916123d7565b015f5b8181106136a3575050805f525f80516020614577833981519152602052600160405f200154935f94806133da575b505f5b845181101561326257806131ed60019287612456565b51805f525f805160206146f783398151915260205260405f206002810154801561325b575b6003858060a01b03835416920154916040519361322e85612362565b8452602084015260408301526060820152613249828b612456565b52613254818a612456565b50016131d7565b5088613212565b5093509390949150835f525f8051602061475783398151915260205260405f209461328f60018701614107565b9283519461329c866123d7565b956132aa60405197886123b4565b8087526132b9601f19916123d7565b015f5b81811061339e5750505f5b855181101561337157806132dd60019288612456565b51805f528a60205260405f20815f525f8051602061459783398151915260205260405f20613346600260ff8354169361333b888254958184015497604051996133258b6122fd565b8a5261333081611f8e565b60208a015201612514565b604087015201612514565b6060840152608083015260a082015261335f828a612456565b5261336a8189612456565b50016132c7565b50929650925093604051946133858661237d565b8552602085015260408401526060830152608082015290565b6020906040516133ad816122fd565b5f81525f83820152606060408201526060808201525f60808201525f60a082015282828b010152016132bc565b9094505f6101406040516133ed81612398565b8281528260208201528260408201528260608201528260808201528260a08201528260c08201528260e0820152826101008201528261012082015201525f527fa8de0abb18de6e730ac24d7fe02c877d293683811fc3ac5d8e62e2a52c0d20d760205260405f2060018101548015613654576134b561348d7f7d4f8ec43464738265ced6b7ed5f90007e9b7c34318bdd82d9249328b50bd35754426125de565b7f7d4f8ec43464738265ced6b7ed5f90007e9b7c34318bdd82d9249328b50bd3585490614227565b6001018060011161039057610140906006840154936003810154916134da838761266e565b906135c86134e787612e6b565b92604051926134f58461232c565b6134fd614245565b845284602085019461350d614245565b865260ff885416815161351f82611f8e565b52600c8801546020825101526008880154604082510152600a880154606082510152600b880154608082510152600988015460a082510152600788015460c08251015280515161356e81611f8e565b865161357982611f8e565b5260208151015160208751015260408151015160408751015260608151015160608751015260808151015160808751015260a08151015160a08751015260c08151015160c0875101528761428b565b936135dd60406002860154940151918961266e565b60048501549160018060a01b03600587015416935194600d6020604088015197015197015499604051986136108a612398565b61361981611f8e565b895260208901526040880152606087015288608087015260a086015260c085015260e08401526101008301526101208201520152935f6131d4565b60405162461bcd60e51b815260206004820152602160248201527f436170616369747920636f6d6d69746d656e7420646f65736e277420657869736044820152601d60fa1b6064820152608490fd5b6020906136ae612e06565b82828b010152016131a6565b156136c157565b60405162461bcd60e51b815260206004820152604260248201527f4c69624f6666657256323a20617474656d707420746f2072656769737465722060448201527f61207265736f7572636520746f207065657220776974686f7574206120707269606482015261636560f01b608482015260a490fd5b1561373e57565b60405162461bcd60e51b815260206004820152601a60248201527910dbdb5c1d5d19481d5b9a5d08191bd95cdb89dd08195e1a5cdd60321b6044820152606490fd5b613788612e06565b50805f525f805160206146f78339815191526020526137af600160405f2001541515613737565b5f525f805160206146f783398151915260205260405f206003604051916137d583612362565b80546001600160a01b0316835260018101546020840152600281015460408401520154606082015290565b9190602082013590604083016138168185612424565b9290600261383c6040519261382a84612347565b8784526020840196888852369161267b565b9160408101928352873595865f528460205260405f209151825551600182015501905190815160018060401b03811161231857859261387b83546124dc565b601f81116139ed575b50602090601f831160011461397d579180600194926138be97945f92613972575b50505f19600383901b1c191690841b1790555b016140a4565b15613914576138f161390f917f1b7623d2e00fbadfcf401c65d366a9d6369da40d64b0d76a479ff47ce494a4fa95612424565b604051948594855260208501526060604085015260608401916126c0565b0390a2565b60405162461bcd60e51b815260206004820152603060248201527f4c69624f6666657256323a2070656572207265736f757263652077617320616c60448201526f1c9958591e481c9959da5cdd195c995960821b6064820152608490fd5b015190505f806138a5565b601f959392919519821690835f52865f20915f5b8181106139d25750916138be97849260019796958895106139ba575b505050811b0190556138b8565b01515f1960f88460031b161c191690555f80806139ad565b8289015184556020988901988b985060019094019301613991565b9091928094505f5260205f20601f840160051c81019160208510613a37575b90601f8996959493920160051c01905b818110613a295750613884565b5f8155889550600101613a1c565b9091508190613a0c565b903590601e19813603018212156106b857018035906001600160401b0382116106b857602001918160051b360383136106b857565b8015610390575f190190565b5f905f915f8091835f525f8051602061457783398151915260205260405f20935f525f8051602061475783398151915260205260405f2060018101908154905f925b828410613c5e57505050508060011b90808204600214901517156103905711613bf5578260011b838104600214841517156103905711613b925760020154908160011b91808304600214901517156103905703613b1d57565b60405162461bcd60e51b815260206004820152604160248201527f4c69624f6666657256323a2062726f6b656e20696e76617269616e742c20564360448201527f5055206e756d62657220646f6573206e6f74206d6174636820435520636f756e6064820152601d60fa1b608482015260a490fd5b60405162461bcd60e51b815260206004820152604260248201525f805160206145f783398151915260448201527f7420656e6f7567682052414d20746f20737570706f7274205643505520286d61606482015261782960f01b608482015260a490fd5b60405162461bcd60e51b815260206004820152604860248201525f805160206145f783398151915260448201527f7420656e6f7567682052414d20746f20737570706f727420564350552028617660648201526761696c61626c652960c01b608482015260a490fd5b90919297613c6c898361408f565b90549060031b1c94613c7d8661309f565b955f528360205260ff60405f20965416613c9681611f8e565b80613cc3575060019182613caf613cb89389549061266e565b9701549061266e565b985b01929190613ac4565b9199979596909591600190613cd781611f8e565b03613cfe5760019182613cef613cf8938a549061266e565b9801549061266e565b96613cba565b955095600190613cba565b5f8181525f8051602061457783398151915260209081526040808320805484525f805160206145b78339815191528352818420546001600160a01b031684525f80516020614737833981519152909252909120919490939091811561402e5760030193613d7782865461266e565b7f60ac4d56f7e69877e4b95a6e91f4b3612278b580a93ea7637885a480e015031c5410613fcf575f5b82811015613fa8578060051b850135908115613f5157815f525f805160206146f7833981519152602052600160405f200154613efa57604051613de281612362565b5f80825260208083018b81526040808501848152606086018581528886525f805160206146f78339815191528552828620965187546001600160a01b0319166001600160a01b0391909116178755925160018701555160028601559051600394909401939093558a82525f80516020614717833981519152905220613e689083906140a4565b15613ea157877f47026182b34ce173abdac328faf5c45bef1648cf75d4b88723a745c9ee792c196020600194604051908152a201613da0565b60405162461bcd60e51b815260206004820152602b60248201527f4c6962426173654f666665723a20496e76616c69642061646420746f20656e7560448201526a1b595c98589b19481cd95d60aa1b6064820152608490fd5b60405162461bcd60e51b815260206004820152602960248201527f4c6962426173654f666665723a20436f6d7075746520756e697420616c72656160448201526864792065786973747360b81b6064820152608490fd5b60405162461bcd60e51b815260206004820152602960248201527f4c6962426173654f666665723a20556e69742069642073686f756c64206265206044820152686e6f7420656d70747960b81b6064820152608490fd5b5090936002929550613fcb9350613fc085825461266e565b90550191825461266e565b9055565b60405162461bcd60e51b815260206004820152603160248201527f4c6962426173654f666665723a204578636565646564206d6178204355206e7560448201527036b132b9103832b910283937bb34b232b960791b6064820152608490fd5b60405162461bcd60e51b815260206004820152603360248201527f4c6962426173654f666665723a20756e697473206c656e6774682073686f756c6044820152720642062652067726561746572207468616e203606c1b6064820152608490fd5b8054821015612410575f5260205f2001905f90565b6140ae828261414f565b61410157805490600160401b82101561231857826140ec6140d684600180960185558461408f565b819391549060031b91821b915f19901b19161790565b90558054925f520160205260405f2055600190565b50505f90565b90604051918281549182825260208201905f5260205f20925f5b81811061413657505061254c925003836123b4565b8454835260019485019487945060209093019201614121565b6001915f520160205260405f2054151590565b906001820191815f528260205260405f20548015155f1461421f575f1981018181116103905782545f19810191908211610390578181036141ea575b505050805480156141d6575f1901906141b7828261408f565b8154905f199060031b1b19169055555f526020525f6040812055600190565b634e487b7160e01b5f52603160045260245ffd5b61420a6141fa6140d6938661408f565b90549060031b1c9283928661408f565b90555f528360205260405f20555f808061419e565b505050505f90565b8115614231570490565b634e487b7160e01b5f52601260045260245ffd5b6040519060e082016001600160401b03811183821017612318576040525f60c0838281528260208201528260408201528260608201528260808201528260a08201520152565b91906020909493940192835151906142a282611f8e565b60a085510151915f198701968088116103905760068896015480155f146142d157505050505050505050600290565b1161456a576142df81611f8e565b60018114801590614560575b61455657506001955f1982019182116103905781111561454b575b507f8984d2d0d7a9f2f70f22692c7c8344aa50cbed8c00a03c924457a31793ee8fdb5484519260608401519260808501519160408601519560c087910151945f9286881161452f575b6040015161435c91612dc3565b946143828561437d61436e878d6125de565b614378838c61266e565b612dc3565b6125de565b808210614512575b50508487101561440d575b5050505050509160c0915f936040835101528151608081015190816143ee575b50506143c085611f8e565b600185036143d5575b60a08251015251015290565b836060835101528482516143e882611f8e565b526143c9565b60606143fd910191825161266e565b9052836080835101525f806143b5565b90929498508361442092949650956125de565b60049790939084831061446a575050509050600181018091116144575791839160c09360205f965101525b919381935f8080614395565b601185634e487b7160e01b5f525260245ffd5b61447e92916144789161266e565b936125de565b916144898184614227565b8060010191826001116144ff57829481156144ec57066144c1575b5050916144b660c094925f969461266e565b60208451015261444b565b600291929350018091116144d957906144b65f6144a4565b601186634e487b7160e01b5f525260245ffd5b60128a634e487b7160e01b5f525260245ffd5b601189634e487b7160e01b5f525260245ffd5b614527929891614521916125de565b9061266e565b955f8061438a565b925061435c906040614541888a6125de565b949192505061434f565b5f9550925084614306565b9550505050505090565b50828711156142eb565b5050505050505060039056fe88681cafafd55573d275926fd208ef2ba36c6dd5169e88841d4bc9bcd225302123a233ee73076c3cf570675cfe9ff168e5811fe06bf68358a371b89594cf424388681cafafd55573d275926fd208ef2ba36c6dd5169e88841d4bc9bcd225302023a233ee73076c3cf570675cfe9ff168e5811fe06bf68358a371b89594cf42444c69624f6666657256323a2062726f6b656e20696e76617269616e742c206e6f23a233ee73076c3cf570675cfe9ff168e5811fe06bf68358a371b89594cf424623a233ee73076c3cf570675cfe9ff168e5811fe06bf68358a371b89594cf4241b824cfa5fc227a07e42b7c6055218aa0f2361876cbb193e0f3e029810b30d4290289d684a5923185b066281c5024c185d157238d4cca423aa78874015e114ff723a233ee73076c3cf570675cfe9ff168e5811fe06bf68358a371b89594cf424801e842b00fdbb1152aee25c3761b0932d2abd4bde9ee3d1416b68604f16029a14c6962426173654f666665723a2063616e6e6f742072656d6f766520636f6d7088681cafafd55573d275926fd208ef2ba36c6dd5169e88841d4bc9bcd225302288681cafafd55573d275926fd208ef2ba36c6dd5169e88841d4bc9bcd225302488681cafafd55573d275926fd208ef2ba36c6dd5169e88841d4bc9bcd225301f23a233ee73076c3cf570675cfe9ff168e5811fe06bf68358a371b89594cf4242a264697066735822122070bffb01e36ead688e1c87e6c897e94be51c62d5033a7bb413d916761dcb1ce364736f6c634300081a0033","linkReferences":{}},"methodIdentifiers":{"addComputePeersV2(bytes32,(bytes32,address,(bytes32,uint256,string)[],bytes32[])[])":"4c75eea8","addComputeUnitsV2(bytes32,bytes32[],(bytes32,uint256,string))":"da180c16","changeResourceMaxSupplyV2(bytes32,bytes32,uint256)":"a5d038df","changeResourcePriceV2(bytes32,bytes32,uint256)":"0affe01f","getOfferV2(bytes32)":"0e953e1a","getOffersV2()":"12e74a5e","getPeerV2(bytes32)":"d06007be","getPeersV2(bytes32)":"651245a2","getResource(bytes32)":"b4d6af8a","getResources()":"c1cc57b0","ramPerVcpu()":"a57cd475","registerMarketOfferV2(address,(uint8,bytes32,uint256)[],(bytes32,address,(bytes32,uint256,string)[],bytes32[])[])":"1d0aa53f","registerPeerResource(bytes32,(bytes32,uint256,string))":"3153741a","registerResource(uint8,string)":"4fbe3e3a","registerResources((uint8,string)[])":"0ce79bf1","removeComputePeerV2(bytes32)":"68a22c21","removeComputeUnitV2(bytes32,bytes32)":"f4f9f54d","removeOfferV2(bytes32)":"663e7fe0","removePeerResource(bytes32,bytes32)":"44a4e395","vcpuPerCu()":"440dcb30"},"storageLayout":{"storage":[],"types":{}},"devdoc":{"version":1,"kind":"dev","events":{"ComputeUnitCreated(bytes32,bytes32)":{"details":"Emitted when a compute unit created for a peer","params":{"peerId":"The peer id","unitId":"The compute unit id"}},"ComputeUnitRemoved(bytes32,bytes32)":{"details":"Emitted when a compute unit removed from a peer","params":{"peerId":"The peer id","unitId":"The compute unit id"}},"MarketOfferRegistered(address,bytes32,uint256,address,(bytes4,bytes32)[],uint256,uint256)":{"details":"Emitted when a new offer is registered","params":{"effectors":"The effectors of the offer","minPricePerCuPerEpoch":"The min price per cu per epoch which the provider specify for the matching with the deal","offerId":"The offer id","paymentToken":"The payment token of the offer","provider":"The provider address"}},"MarketOfferRemoved(bytes32)":{"details":"Emitted when an offer removed","params":{"offerId":"The offer i"}},"PeerCreated(bytes32,bytes32,address)":{"details":"Emitted when a peer created for an offer"},"PeerRemoved(bytes32,bytes32)":{"details":"Emitted when a peer removed from an offer","params":{"offerId":"The offer id","peerId":"The peer id"}}}},"id":131}