{"abi":[{"type":"function","name":"getWorkerData","inputs":[{"name":"onchainWorkerId","type":"bytes32","internalType":"bytes32"}],"outputs":[{"name":"workerData","type":"tuple","internalType":"struct IMarketV2.WorkerData","components":[{"name":"deal","type":"address","internalType":"address"},{"name":"peerId","type":"bytes32","internalType":"bytes32"},{"name":"offchainWorkerId","type":"bytes32","internalType":"bytes32"},{"name":"reserved","type":"uint256[3]","internalType":"uint256[3]"},{"name":"unitIds","type":"bytes32[]","internalType":"bytes32[]"},{"name":"resources","type":"tuple[]","internalType":"struct IMarketV2.WorkerResourceAllocation[]","components":[{"name":"resourceId","type":"bytes32","internalType":"bytes32"},{"name":"ty","type":"uint8","internalType":"enum IOfferV2.ResourceType"},{"name":"metadata","type":"string","internalType":"string"},{"name":"details","type":"string","internalType":"string"},{"name":"quantity","type":"uint256","internalType":"uint256"}]}]}],"stateMutability":"view"},{"type":"function","name":"matchDealV2","inputs":[{"name":"deal","type":"address","internalType":"contract IDealV2"},{"name":"peerIds","type":"bytes32[]","internalType":"bytes32[]"},{"name":"computeUnitIds","type":"bytes32[][]","internalType":"bytes32[][]"}],"outputs":[],"stateMutability":"nonpayable"},{"type":"function","name":"moveResourcesFromDealV2","inputs":[{"name":"onchainWorkerId","type":"bytes32","internalType":"bytes32"}],"outputs":[],"stateMutability":"nonpayable"},{"type":"function","name":"reportAppCIDUpdatedV2","inputs":[{"name":"newAppCID","type":"tuple","internalType":"struct CIDV1","components":[{"name":"prefixes","type":"bytes4","internalType":"bytes4"},{"name":"hash","type":"bytes32","internalType":"bytes32"}]}],"outputs":[],"stateMutability":"nonpayable"},{"type":"function","name":"reportWorkerActivatedV2","inputs":[{"name":"peerId","type":"bytes32","internalType":"bytes32"},{"name":"onchainWorkerId","type":"bytes32","internalType":"bytes32"},{"name":"offchainWorkerId","type":"bytes32","internalType":"bytes32"}],"outputs":[],"stateMutability":"nonpayable"},{"type":"event","name":"CommitmentFailed","inputs":[{"name":"commitmentId","type":"bytes32","indexed":true,"internalType":"bytes32"},{"name":"failedEpoch","type":"uint256","indexed":false,"internalType":"uint256"}],"anonymous":false},{"type":"event","name":"CommitmentStatsUpdated","inputs":[{"name":"commitmentId","type":"bytes32","indexed":false,"internalType":"bytes32"},{"name":"totalFailCount","type":"uint256","indexed":false,"internalType":"uint256"},{"name":"exitedUnitCount","type":"uint256","indexed":false,"internalType":"uint256"},{"name":"activeUnitCount","type":"uint256","indexed":false,"internalType":"uint256"},{"name":"nextAdditionalActiveUnitCount","type":"uint256","indexed":false,"internalType":"uint256"},{"name":"changedEpoch","type":"uint256","indexed":false,"internalType":"uint256"}],"anonymous":false},{"type":"event","name":"DealAppCIDChangedV2","inputs":[{"name":"deal","type":"address","indexed":true,"internalType":"contract IDealV2"},{"name":"newCID","type":"tuple","indexed":false,"internalType":"struct CIDV1","components":[{"name":"prefixes","type":"bytes4","internalType":"bytes4"},{"name":"hash","type":"bytes32","internalType":"bytes32"}]}],"anonymous":false},{"type":"event","name":"EntityAdded","inputs":[{"name":"commitmentId","type":"bytes32","indexed":true,"internalType":"bytes32"},{"name":"entityId","type":"bytes32","indexed":false,"internalType":"bytes32"},{"name":"rewardPerEpoch","type":"uint256","indexed":false,"internalType":"uint256"},{"name":"currentEpoch","type":"uint256","indexed":false,"internalType":"uint256"}],"anonymous":false},{"type":"event","name":"EntityRemoved","inputs":[{"name":"commitmentId","type":"bytes32","indexed":true,"internalType":"bytes32"},{"name":"entityId","type":"bytes32","indexed":false,"internalType":"bytes32"},{"name":"currentEpoch","type":"uint256","indexed":false,"internalType":"uint256"}],"anonymous":false},{"type":"event","name":"StateUpdated","inputs":[{"name":"commitmentId","type":"bytes32","indexed":true,"internalType":"bytes32"},{"name":"state","type":"tuple","indexed":false,"internalType":"struct DealStakerRewards.VestingState","components":[{"name":"items","type":"uint256[]","internalType":"uint256[]"},{"name":"accumulatedUnlockedFlt","type":"uint256","internalType":"uint256"}]}],"anonymous":false},{"type":"event","name":"UnitActivated","inputs":[{"name":"commitmentId","type":"bytes32","indexed":true,"internalType":"bytes32"},{"name":"unitId","type":"bytes32","indexed":true,"internalType":"bytes32"},{"name":"startEpoch","type":"uint256","indexed":false,"internalType":"uint256"}],"anonymous":false},{"type":"event","name":"UnitDeactivated","inputs":[{"name":"commitmentId","type":"bytes32","indexed":true,"internalType":"bytes32"},{"name":"unitId","type":"bytes32","indexed":true,"internalType":"bytes32"}],"anonymous":false},{"type":"event","name":"VestingScheduleItem","inputs":[{"name":"commitmentId","type":"bytes32","indexed":true,"internalType":"bytes32"},{"name":"id","type":"uint256","indexed":true,"internalType":"uint256"},{"name":"epoch","type":"uint256","indexed":true,"internalType":"uint256"},{"name":"cumulativeAmount","type":"uint256","indexed":false,"internalType":"uint256"}],"anonymous":false},{"type":"event","name":"VestingUpdateItem","inputs":[{"name":"commitmentId","type":"bytes32","indexed":true,"internalType":"bytes32"},{"name":"id","type":"uint256","indexed":true,"internalType":"uint256"},{"name":"cumulativeAmount","type":"uint256","indexed":false,"internalType":"uint256"}],"anonymous":false},{"type":"event","name":"WorkerActivatedV2","inputs":[{"name":"peerId","type":"bytes32","indexed":true,"internalType":"bytes32"},{"name":"deal","type":"address","indexed":false,"internalType":"contract IDealV2"},{"name":"onchainWorkerId","type":"bytes32","indexed":false,"internalType":"bytes32"},{"name":"offchainWorkerId","type":"bytes32","indexed":false,"internalType":"bytes32"}],"anonymous":false},{"type":"event","name":"WorkerCreatedV2","inputs":[{"name":"peerId","type":"bytes32","indexed":true,"internalType":"bytes32"},{"name":"deal","type":"address","indexed":false,"internalType":"contract IDealV2"},{"name":"onchainWorkerId","type":"bytes32","indexed":false,"internalType":"bytes32"},{"name":"cuIds","type":"bytes32[]","indexed":false,"internalType":"bytes32[]"},{"name":"appCID","type":"tuple","indexed":false,"internalType":"struct CIDV1","components":[{"name":"prefixes","type":"bytes4","internalType":"bytes4"},{"name":"hash","type":"bytes32","internalType":"bytes32"}]},{"name":"resources","type":"tuple[]","indexed":false,"internalType":"struct IMarketV2.WorkerResourceAllocation[]","components":[{"name":"resourceId","type":"bytes32","internalType":"bytes32"},{"name":"ty","type":"uint8","internalType":"enum IOfferV2.ResourceType"},{"name":"metadata","type":"string","internalType":"string"},{"name":"details","type":"string","internalType":"string"},{"name":"quantity","type":"uint256","internalType":"uint256"}]}],"anonymous":false},{"type":"event","name":"WorkerRemovedV2","inputs":[{"name":"peerId","type":"bytes32","indexed":true,"internalType":"bytes32"},{"name":"deal","type":"address","indexed":false,"internalType":"contract IDealV2"},{"name":"onchainWorkerId","type":"bytes32","indexed":false,"internalType":"bytes32"},{"name":"cuIds","type":"bytes32[]","indexed":false,"internalType":"bytes32[]"},{"name":"resources","type":"tuple[]","indexed":false,"internalType":"struct IMarketV2.WorkerResourceAllocation[]","components":[{"name":"resourceId","type":"bytes32","internalType":"bytes32"},{"name":"ty","type":"uint8","internalType":"enum IOfferV2.ResourceType"},{"name":"metadata","type":"string","internalType":"string"},{"name":"details","type":"string","internalType":"string"},{"name":"quantity","type":"uint256","internalType":"uint256"}]}],"anonymous":false},{"type":"error","name":"CapacityCommitmentIsNotActive","inputs":[{"name":"status","type":"uint8","internalType":"enum ICapacity.CCStatus"}]}],"bytecode":{"object":"0x60808060405234601557614d7a908161001a8239f35b5f80fdfe610240806040526004361015610013575f80fd5b5f3560e01c9081634492bd6b14612afe57508063852cdb0114612a15578063a7533612146127ba578063aa8673f0146104115763ee22bfb714610054575f80fd5b3461040d57602036600319011261040d576004355f8181525f80516020614a858339815191526020526040902080546001600160a01b031633036103ab5790600182019081545f525f80516020614aa583398151915260205260405f20905f936001600682019301945b8354811015610192576100d18185612ee0565b90549060031b1c90815f525f80516020614c8583398151915260205260405f2091600183015415610131575f6003600194858060a01b03198154168155015587549081610121575b5050016100be565b61012a91613226565b5f80610119565b60405162461bcd60e51b815260206004820152603360248201527f6d6f76655265736f757263657346726f6d4465616c56323a20436f6d70757465604482015272081d5b9a5d08191bd95cdb89dd08195e1a5cdd606a1b6064820152608490fd5b508383915f9060078101915b82548110156101da57600190835f5260205f2060058202016101d260046101c8885484549061306e565b9201548254612e01565b90550161019e565b50929161020b90549360018060a01b0390541692604051938452856020850152608060408501526080840190612cfa565b82810360608401528154808252602082019160208260051b820101935f5260205f20925f915b8383106103395788887f9f5719b0d3b74a224d2c17ba0f56eae656fcd444b977a2c5104e0506e9a579818989038aa25f525f80516020614a8583398151915260205260405f205f81555f60018201555f6002820155600681016102978160038401612ef5565b8054905f81558161031b575b50506007018054905f8155816102b557005b81600502916005830403610307575f5260205f20908101905b8181106102d757005b6005905f81555f60018201556102ef60028201612f0b565b6102fb60038201612f0b565b5f6004820155016102ce565b634e487b7160e01b5f52601160045260245ffd5b5f5260205f20908101905b818110156102a3575f8155600101610326565b909192939460206005600192601f198582030186528854815260ff848a01541661036281612b55565b8382015260a0604082015261039161038060a0830160028c01612d80565b828103606084015260038b01612d80565b90608060048b015491015297019301930191939290610231565b60405162461bcd60e51b815260206004820152603460248201527f4d61726b657456323a206f6e6c79206465616c2063616e2063616c6c206d6f7660448201527332a932b9b7bab931b2b9a33937b6a232b0b62b1960611b6064820152608490fd5b5f80fd5b3461040d57606036600319011261040d576004356102208190526001600160a01b038116900361040d576024356001600160401b03811161040d5761045a903690600401612c20565b60a0919091526044356001600160401b03811161040d5761047f903690600401612c20565b6101c0526101a0527f13f5ac65dc9f5b2765e76eb17d53fe3e7065903823eb36bdd7841fa3f8dacbbe60e052610220516001600160a01b03165f9081527f21811dc5bb11da2b2076245a2c14796806445512606a02297e6b92fb11728107602052604090205460ff161561277557604051638da5cb5b60e01b815261022051602090829060049082906001600160a01b03165afa9081156113ef575f91612733575b506001600160a01b031633148015612700575b156126a6576040516319e749ff60e11b815261022051602090829060049082906001600160a01b03165afa80156113ef575f90612673575b60029150036125f2576101c051810361258a576040516302734eab60e51b815261022051602090829060049082906001600160a01b03165afa9081156113ef575f9161254f575b5060058110159081611ea95760018114918215612542575b8215612531575b5050156124ee57610220516001600160a01b03165f90815260e05160205260409020546105fd612f5a565b81159182156124b8575b505015612473576040516317f23d6760e21b815261022051602090829060049082906001600160a01b03165afa80156113ef575f6101605261243f575b5060405190633013ce2960e01b825260208260048160018060a01b0361022051165afa9182156113ef575f926123fb575b50604051634d7599f160e01b815261022051602090829060049082906001600160a01b03165afa9081156113ef575f916123c9575b5060405190632943dcab60e01b825260208260048160018060a01b0361022051165afa80156113ef575f90612395575b6106e49250612e0e565b604051638a0c725b60e01b815261022051602090829060049082906001600160a01b03165afa80156113ef575f608052612362575b506040516309c9af5f60e31b8152610220515f90829060049082906001600160a01b03165afa80156113ef575f61012052612295575b505f60c0525f5b61012051518110156107b2578061077260019261012051612e1b565b51602081015161078181612b55565b61078a81612b55565b15610797575b5001610756565b60406107a9910151831c60c051612e01565b60c05285610790565b5090604051631378cd0d60e31b815260408160048160018060a01b0361022051165afa80156113ef575f61018052612235575b5060405191630d4773ff60e41b835260208360048160018060a01b0361022051165afa9283156113ef575f936121f8575b5081116121815782905f6101e0525b806101e0511061085557610837612f5a565b610220516001600160a01b03165f90815260e0516020526040902055005b6108656101e0518260a051612e61565b356102005261087661020051612fbc565b6101405261014051515f608060405161088e81612c6b565b82815282602082015282604082015282606082015201525f527f88681cafafd55573d275926fd208ef2ba36c6dd5169e88841d4bc9bcd225302060205260405f209260018060a01b0384541693841561213f5760018060a01b0360028201541690600260038201549160056004820154910154926040519861090f8a612c6b565b8952602089019485526040890152806060890152826080890152149081612134575b50156120d6578451604051631f4570d760e11b81526001600160a01b03918216600482015261022051909160209183916024918391165afa9081156113ef575f916120b8575b501561206257516001600160a01b039081169084160361201d57835160405163016712bf60e61b81526001600160a01b03918216600482015261022051909160209183916024918391165afa9081156113ef575f91611fec575b506080511115611f88576109ef6101e0516101c0516101a051612e89565b905060c05103611f43576040516305e8c93760e51b815261020051600482015261022051602090829060249082906001600160a01b03165afa9081156113ef575f91611f15575b50611ebd576003811015611ea95760018103611d78575b5f5b610a636101e0516101c0516101a051612e89565b9050811015610c1a57610a8a81610a846101e0516101c0516101a051612e89565b90612e61565b35610a93612f98565b50805f525f80516020614c85833981519152602052600160405f20015415610bc2575f525f80516020614c8583398151915260205260405f2060405190610ad982612cbc565b80546001600160a01b031682526001810154602083018190526002820154604084015260039091015460608301526102005103610b6b57516001600160a01b0316610b2657600101610a4f565b60405162461bcd60e51b815260206004820152601f60248201527f4d6174636865723a2070726f766964656420435520697320696e206465616c006044820152606490fd5b60405162461bcd60e51b815260206004820152602960248201527f4d6174636865723a2070726f76696465642043552069732066726f6d20616e6f6044820152683a3432b9103832b2b960b91b6064820152608490fd5b60405162461bcd60e51b815260206004820152602a60248201527f676574436f6d70757465556e69743a20436f6d7075746520756e697420646f656044820152691cdb89dd08195e1a5cdd60b21b6064820152608490fd5b509092916101205151610c3f610c2f82612d31565b6040516101005261010051612cd7565b806101005152610c51601f1991612d31565b015f5b818110611d3f5750505f915f925b6101205151841015610f5757610c7b8461010051612e1b565b5190610c8a8561012051612e1b565b5190610c9a82516102005161306e565b928251805f5260017f23a233ee73076c3cf570675cfe9ff168e5811fe06bf68358a371b89594cf42440160205260405f205415610f04575f525f80516020614b0583398151915260205260405f20928454946040820180518710610eaa57610db8610ea296610e9c956002610d6e610e9696610d1a60019d885190612e0e565b8155885184528c610d5960208b01968751610d3481612b55565b610d3d81612b55565b6020880152610d526040518094819301612d80565b0382612cd7565b6040850152610d526040518094819301612d80565b60608201526080845191015251610d8481612b55565b610d8d81612b55565b604051610d9b604082612cd7565b600b81526a7265736f7572636520747960a81b60208201526130fe565b610de58151604051610dcb604082612cd7565b60088152677175616e7469747960c01b60208201526130fe565b610e1d610df86101405151855190613158565b604051610e06604082612cd7565b6005815264707269636560d81b60208201526130fe565b5f80610e64610e72604051610e33604082612cd7565b8b8152600560f91b602082015260405192839163104c13eb60e21b6020840152602060248401526044830190612b5f565b03601f198101835282612cd7565b6020815191016a636f6e736f6c652e6c6f675afa5051916101405151905190613158565b90612ecd565b90612e01565b930192610c62565b60405162461bcd60e51b815260206004820152602c60248201527f4d6174636865723a207065657220646f6573206e6f74206861766520656e6f7560448201526b6768207265736f757263657360a01b6064820152608490fd5b60405162461bcd60e51b815260206004820152602560248201527f4c69624f6666657256323a207265736f75726365496420646f6573206e6f7420604482015264195e1a5cdd60da1b6064820152608490fd5b909391949250610f8b81604051610f6f604082612cd7565b600a8152697065657220707269636560b01b60208201526130fe565b610fbd604051610f9c604082612cd7565b600a8152696465616c20707269636560b01b602082015261016051906130fe565b6101605110611cd4575f805f80610200515f525f80516020614aa583398151915260205260405f2092610200515f525f80516020614d2583398151915260205260405f206001810154905f915b808310611c195750505061080081029080820461080014901517156103075711611bb057610800830283810461080014841517156103075711611b4d5760020154908160011b91808304600214901517156103075703611ad8575f80516020614ae583398151915254905f19821461030757600182015f80516020614ae58339815191525560405191602083016001600160401b038111848210176115b7576040526001810183526110c66101e0516101c0516101a051612e89565b610200929192515f525f80516020614aa583398151915260205260405f208115611a7f576040516317f23d6760e21b815261022051602090829060049082906001600160a01b03165afa80156113ef5783905f90611a4a575b6111299250612e43565b905f5b8381106117335750505060405161114281612c86565b5f81525f60208201525f60408201526040519361115e85612c50565b610220516001600160a01b0316855261020051602086019081525f60408701908152606087019384529161119185612d31565b9461119f6040519687612cd7565b808652602086019060051b82019136831161040d57905b82821061172357505050608086019384526101005160a0870190815260019586015f9081525f80516020614a8583398151915260205260408120975188546001600160a01b0319166001600160a01b0391909116178855915195870195909555905160028601559051905b6003811061170c5750505180519060068401906001600160401b0383116115b757600160401b83116115b75781548383558084106116e6575b50602001905f5260205f205f5b8381106116d2575050505051805190600160401b82116115b7576007830154826007850155808310611669575b5060206007910192015f5260205f205f925b8284106113fa5750509151610220516001600160a01b039182169350163b15905061040d576040519063cef74c8b60e01b82526004820152815160248201526102005160448201525f816064818360018060a01b0361022051165af180156113ef576113df575b50516113236101e0516101c0516101a051612e89565b60408051610220516001600160a01b03168152602081019490945260c09084018190528301819052906001600160fb1b03821161040d577f38f3229d8b9135cc7cfc59ddec00d69d465e3e6cda6336ff0740d1b7105c9e109160051b809160e085013782019163ffffffff60e01b61018051511660608201526020610180510151608082015260e08184030160a0820152806113c960e061020051950161010051612b83565b0390a260016101e051016101e052919091610825565b5f6113e991612cd7565b8461130d565b6040513d5f823e3d90fd5b80518051835560018301602082015161141281612b55565b61141b81612b55565b60ff8019835416911617905560028301604082015180519060018060401b0382116115b75761144a8354612d48565b601f8111611639575b50602090601f83116001146115d65761148392915f91836115cb575b50508160011b915f199060031b1c19161790565b90555b6060810151805160038501916001600160401b0382116115b7576114aa8354612d48565b601f811161157c575b50602090601f831160011461150f57936020936114ee84600198956080956005995f926115045750508160011b915f199060031b1c19161790565b90555b01516004860155019201930192906112a6565b015190505f8061146f565b90601f19831691845f52815f20925f5b818110611564575084608094600598946020989460019b988c951061154c575b505050811b0190556114f1565b01515f1960f88460031b161c191690555f808061153f565b9293602060018192878601518155019501930161151f565b6115a790845f5260205f20601f850160051c810191602086106115ad575b601f0160051c0190612ef5565b8d6114b3565b909150819061159a565b634e487b7160e01b5f52604160045260245ffd5b015190508e8061146f565b90601f19831691845f52815f20925f5b8181106116215750908460019594939210611609575b505050811b019055611486565b01515f1960f88460031b161c191690558d80806115fc565b929360206001819287860151815501950193016115e6565b61166390845f5260205f20601f850160051c810191602086106115ad57601f0160051c0190612ef5565b8d611453565b80600502906005820403610307578260050260058104840361030757600785015f5260205f2091820191015b8181106116a25750611294565b6005905f81555f60018201556116ba60028201612f0b565b6116c660038201612f0b565b5f600482015501611695565b600190602084519401938184015501611267565b825f528360205f2091820191015b818110611701575061125a565b5f81556001016116f4565b600190602083519301926003828801015501611221565b81358152602091820191016111b6565b61173e818588612e61565b355f8181525f80516020614c858339815191526020526040902080549192916001600160a01b03166119ef576102205181546001600160a01b0319166001600160a01b0391909116178155600187810160039092019190915583015491826117ac575b50600191500161112c565b5f80516020614cc5833981519152926117c3612f5a565b93815f5260205260405f206117db6001820154612fbc565b835f526012820160205260405f20906117fd6006840154600385015490612e01565b90611814828961180c87613482565b938488613565565b61181f828688613845565b61182881612b55565b600181036119d557509161184a6001926020808b960151015190858885613aa6565b805460ff19168217815501540361196f57600b81016118698154613839565b90555b629896806118965f80516020614b25833981519152546004840154908a8082109118028a18612ecd565b047fecc2a9581aa0ec66253fe6dd29ab490ad7a55cde02026a17baa162151745bb556060601484016118c8898261408d565b865f52601685016020528360405f2055601785016118e7858254612e01565b90555492604051908782526020820152886040820152a26008810154600d82015490600b600a840154930154925f198801978811610307576001975f80516020614b85833981519152946119429260405195869589876131fe565b0390a17fbd9cde1bbc961036d34368ae328c38917036a98eacfb025a1ff6d2c6235d0a145f80a38c6117a1565b600a810161197d8154613839565b90555f80516020614c058339815191525f80516020614ba5833981519152545f198101908111610307576119d09150805f80516020614ba5833981519152555f80516020614b4583398151915254613ea0565b61186c565b6242963960e51b5f526119e781612b55565b60045260245ffd5b60405162461bcd60e51b815260206004820152602d60248201527f4d61726b657456323a20436f6d7075746520756e6974206d617463686564206d60448201526c756c7469706c652074696d657360981b6064820152608490fd5b50506020813d8211611a77575b81611a6460209383612cd7565b8101031261040d5782611129915161111f565b3d9150611a57565b60405162461bcd60e51b815260206004820152602b60248201527f4d61726b657456323a20747279696e6720746f206d6f7665207a65726f20756e60448201526a1a5d1cc81d1bc81919585b60aa1b6064820152608490fd5b60405162461bcd60e51b815260206004820152604160248201527f4c69624f6666657256323a2062726f6b656e20696e76617269616e742c20564360448201527f5055206e756d62657220646f6573206e6f74206d6174636820435520636f756e6064820152601d60fa1b608482015260a490fd5b60405162461bcd60e51b815260206004820152604260248201525f80516020614bc583398151915260448201527f7420656e6f7567682052414d20746f20737570706f7274205643505520286d61606482015261782960f01b608482015260a490fd5b60405162461bcd60e51b815260206004820152604860248201525f80516020614bc583398151915260448201527f7420656e6f7567682052414d20746f20737570706f727420564350552028617660648201526761696c61626c652960c01b608482015260a490fd5b909196611c298860018501612ee0565b90549060031b1c93845f525f80516020614b0583398151915260205260405f20945f528360205260ff60405f20955416611c6281612b55565b80611c8e575060019182611c7b611c8493885490612e01565b96015490612e01565b975b01919061100a565b9198969495909491600190611ca281612b55565b03611cc95760019182611cba611cc393895490612e01565b97015490612e01565b95611c86565b945094600190611c86565b60405162461bcd60e51b815260206004820152603d60248201527f4d6174636865723a2070656572207265736f757263657320707269636520657860448201527f6365656473207072696365207065722065706f636820696e206465616c0000006064820152608490fd5b602090604051611d4e81612c6b565b5f81525f83820152606060408201526060808201525f608082015282826101005101015201610c54565b60206101405101518015159081611dea575b50610a4d5760405162461bcd60e51b815260206004820152602d60248201527f4d6174636865723a207065657220646f6573206e6f742068617665206163746960448201526c1d994818dbdb5b5a5d1b595b9d609a1b6064820152608490fd5b90505f80516020614cc5833981519152905f5260205260405f2060018101548015611e5a57600191611e1e611e4a92612fbc565b611e2782613482565b90611e30612f5a565b91611e446006850154600386015490612e01565b93613565565b611e5381612b55565b1485611d8a565b60405162461bcd60e51b815260206004820152602160248201527f436170616369747920636f6d6d69746d656e7420646f65736e277420657869736044820152601d60fa1b6064820152608490fd5b634e487b7160e01b5f52602160045260245ffd5b60405162461bcd60e51b815260206004820152602a60248201527f4d6174636865723a207065657220697320616c7265616479207573656420696e604482015269081d1a1a5cc81919585b60b21b6064820152608490fd5b611f36915060203d8111611f3c575b611f2e8183612cd7565b810190612e71565b85610a36565b503d611f24565b60405162461bcd60e51b815260206004820152601f60248201527f4d6174636865723a206e6f7420656e6f7567682043557320696e2070656572006044820152606490fd5b60405162461bcd60e51b815260206004820152603660248201527f4d6174636865723a2063616e6e6f74206d61746368206d6f72652070656572736044820152752066726f6d206f6e65206f662070726f76696465727360501b6064820152608490fd5b90506020813d8211612015575b8161200660209383612cd7565b8101031261040d5751856109d1565b3d9150611ff9565b60405162461bcd60e51b815260206004820152601f60248201527f4d6174636865723a207061796d656e7420746f6b656e206d69736d61746368006044820152606490fd5b60405162461bcd60e51b815260206004820152602860248201527f4d6174636865723a2070726f7669646572206973206e6f7420616c6c6f77656460448201526708189e481919585b60c21b6064820152608490fd5b6120d0915060203d8111611f3c57611f2e8183612cd7565b86610977565b60405162461bcd60e51b815260206004820152603060248201527f4d6174636865723a206f6e6c792070656572732066726f6d205632206f66666560448201526f727320617265206d6174636861626c6560801b6064820152608490fd5b600291501486610931565b60405162461bcd60e51b815260206004820152601a60248201527913d999995c8e881bd999995c88191bd95cdb89dd08195e1a5cdd60321b6044820152606490fd5b60405162461bcd60e51b815260206004820152604360248201527f4d6174636865723a20617474656d707420746f206d61746368206d6f7265207060448201527f65657273207468616e206d6178696d756d20737065636966696564206279206460648201526219585b60ea1b608482015260a490fd5b9092506020813d60201161222d575b8161221460209383612cd7565b8101031261040d5751600381101561040d579184610816565b3d9150612207565b6040813d60401161228d575b8161224e60409383612cd7565b8101031261040d576040519061226382612ca1565b8051906001600160e01b03198216820361040d5760209183520151602082015261018052836107e5565b3d9150612241565b3d805f833e6122a48183612cd7565b81019060208183031261040d578051906001600160401b03821161040d570181601f8201121561040d578051906122da82612d31565b926122e86040519485612cd7565b8284526020606081860194028301019181831161040d57602001925b8284106123195750505050610120528361074f565b60608483031261040d576040519061233082612c86565b84518252602085015190600682101561040d578260209283606095015260408701516040820152815201930192612304565b6020813d60201161238d575b8161237b60209383612cd7565b8101031261040d575160805283610719565b3d915061236e565b506020823d6020116123c1575b816123af60209383612cd7565b8101031261040d576106e491516106da565b3d91506123a2565b90506020813d6020116123f3575b816123e460209383612cd7565b8101031261040d5751836106aa565b3d91506123d7565b9091506020813d602011612437575b8161241760209383612cd7565b8101031261040d57516001600160a01b038116810361040d579082610675565b3d915061240a565b6020813d60201161246b575b8161245860209383612cd7565b8101031261040d57516101605281610644565b3d915061244b565b60405162461bcd60e51b815260206004820152601d60248201527f4d6174636865723a20746f6f206561726c7920746f2072656d617463680000006044820152606490fd5b6124e69192507f60ac4d56f7e69877e4b95a6e91f4b3612278b580a93ea7637885a480e01503195490612e01565b108280610607565b60405162461bcd60e51b815260206004820152601b60248201527a4d6174636865723a206465616c206973206e6f742061637469766560281b6044820152606490fd5b909150611ea95760031482806105d2565b506004811491505f6105cb565b90506020813d602011612582575b8161256a60209383612cd7565b8101031261040d5751600581101561040d57826105b3565b3d915061255d565b60405162461bcd60e51b815260206004820152603a60248201527f4d6174636865723a2070656572496473206c656e67746820616e6420636f6d706044820152790eae8caaadcd2e892c8e65cd8cadccee8d040dad2e6dac2e8c6d60331b6064820152608490fd5b60405162461bcd60e51b815260206004820152604d60248201527f4d6174636865723a2072657175697265642070726f746f636f6c206d69736d6160448201527f7463682c2072657175697265642076322c20757365206f74686572206d61746360648201526c3434b73390333ab731ba34b7b760991b608482015260a490fd5b506020813d60201161269e575b8161268d60209383612cd7565b8101031261040d576002905161056c565b3d9150612680565b60405162461bcd60e51b815260206004820152602c60248201527f4d6174636865723a2073656e646572206973206e6f74206465616c206f776e6560448201526b1c881bdc881d9bd91bdc185960a21b6064820152608490fd5b507f21811dc5bb11da2b2076245a2c14796806445512606a02297e6b92fb11728109546001600160a01b03163314610534565b90506020813d60201161276d575b8161274e60209383612cd7565b8101031261040d57516001600160a01b038116810361040d5782610521565b3d9150612741565b60405162461bcd60e51b815260206004820152601f60248201527f4d6174636865723a206465616c206973206e6f742072656769737465726564006044820152606490fd5b3461040d57602036600319011261040d5760a06040516127d981612c50565b5f81525f60208201525f604082015260609182916040516127fa8482612cd7565b833682378382015282608082015201526004355f525f80516020614a8583398151915260205260405f206040519161283183612c50565b81546001600160a01b03168352600182015460208401908152600283015460408086019182525191939092909190600383015f835b600382106129ff5750505061287b8183612cd7565b80860191825260076040519361289f856128988160068501612cfa565b0386612cd7565b60808801948552019384546128b381612d31565b956128c16040519788612cd7565b81875260208701905f5260205f205f915b83831061298b575050505060a08701948552604051956020875261012087019760018060a01b039051166020880152516040870152519085015251608084015f905b6003821061297557505050519261010060e08401528351809152602061014084019401905f5b81811061295f57848061295b888751601f1984830301610100850152612b83565b0390f35b825186526020958601959092019160010161293a565b6020806001928551815201930191019091612914565b6005602060019260405161299e81612c6b565b8554815260ff85870154166129b281612b55565b838201526040516129ca81610d528160028b01612d80565b60408201526040516129e381610d528160038b01612d80565b8a820152600486015460808201528152019201920191906128d2565b6001602081928554815201930191019091612866565b3461040d57606036600319011261040d576024355f8181525f80516020614a858339815191526020526040902080546001600160a01b03169160443591338403612a9957600283910155604051928352602083015260408201527f0964de486fc3f6ca82fcd99a0d4b1ab8947418660350ce949d7071ce7d33b54e606060043592a2005b60405162461bcd60e51b815260206004820152603760248201527f4d61726b657456323a206f6e6c79206f776e696e67204465616c2063616e207260448201527632b837b93a103bb7b935b2b91030b1ba34bb30ba34b7b760491b6064820152608490fd5b3461040d57604036600319011261040d5760043563ffffffff60e01b811680910361040d57815260243560208201527f12202a859f75ef16418e3797f0c661c310a4fba25313c6ac28e7f7483260cdab60403392a2005b60061115611ea957565b805180835260209291819084018484015e5f828201840152601f01601f1916010190565b9080602083519182815201916020808360051b8301019401925f915b838310612bae57505050505090565b9091929394602080600192601f198582030186528851908151815282820151612bd681612b55565b83820152608080612c0b612bf9604086015160a0604087015260a0860190612b5f565b60608601518582036060870152612b5f565b93015191015297019301930191939290612b9f565b9181601f8401121561040d578235916001600160401b03831161040d576020808501948460051b01011161040d57565b60c081019081106001600160401b038211176115b757604052565b60a081019081106001600160401b038211176115b757604052565b606081019081106001600160401b038211176115b757604052565b604081019081106001600160401b038211176115b757604052565b608081019081106001600160401b038211176115b757604052565b601f909101601f19168101906001600160401b038211908210176115b757604052565b90602082549182815201915f5260205f20905f5b818110612d1b5750505090565b8254845260209093019260019283019201612d0e565b6001600160401b0381116115b75760051b60200190565b90600182811c92168015612d76575b6020831014612d6257565b634e487b7160e01b5f52602260045260245ffd5b91607f1691612d57565b5f9291815491612d8f83612d48565b8083529260018116908115612de45750600114612dab57505050565b5f9081526020812093945091925b838310612dca575060209250010190565b600181602092949394548385870101520191019190612db9565b915050602093945060ff929192191683830152151560051b010190565b9190820180921161030757565b9190820391821161030757565b8051821015612e2f5760209160051b010190565b634e487b7160e01b5f52603260045260245ffd5b8115612e4d570490565b634e487b7160e01b5f52601260045260245ffd5b9190811015612e2f5760051b0190565b9081602091031261040d5751801515810361040d5790565b9190811015612e2f5760051b81013590601e198136030182121561040d5701803591906001600160401b03831161040d576020018260051b3603811361040d579190565b8181029291811591840414171561030757565b8054821015612e2f575f5260205f2001905f90565b818110612f00575050565b5f8155600101612ef5565b612f158154612d48565b9081612f1f575050565b81601f5f9311600114612f315750555b565b81835260208320612f4d91601f0160051c810190600101612ef5565b8082528160208120915555565b612f8a612f755f80516020614d058339815191525442612e0e565b5f80516020614c458339815191525490612e43565b600101806001116103075790565b60405190612fa582612cbc565b5f6060838281528260208201528260408201520152565b612fc4612f98565b50805f525f80516020614aa583398151915260205260405f205415613034575f525f80516020614aa583398151915260205260405f206040519061300782612cbc565b805482526001810154602083015260028101546040830152600301546001600160a01b0316606082015290565b60405162461bcd60e51b81526020600482015260126024820152711419595c88191bd95cdb89dd08195e1a5cdd60721b6044820152606490fd5b5f525f80516020614d2583398151915260205260405f20906130938160018401613a93565b156130a4575f5260205260405f2090565b60405162461bcd60e51b815260206004820152602c60248201527f4c69624f6666657256323a207065657220646f6573206e6f742068617665207460448201526b686973207265736f7572636560a01b6064820152608490fd5b61312d6131415f939284936040519384926309710a9d60e41b6020850152604060248501526064840190612b5f565b90604483015203601f198101835282612cd7565b6020815191016a636f6e736f6c652e6c6f675afa50565b7f23a233ee73076c3cf570675cfe9ff168e5811fe06bf68358a371b89594cf4241905f5260205260405f20906131918160018401613a93565b156131a3575f5260205260405f205490565b60405162461bcd60e51b815260206004820152602d60248201527f4c69624f6666657256323a206f6666657220646f6573206e6f7420686176652060448201526c74686973207265736f7572636560981b6064820152608490fd5b9260a094919796959260c0850198855260208501526040840152606083015260808201520152565b5f80516020614cc58339815191529061323d612f5a565b6001810192838211610307575f1982019082821161030757835f5260205260405f2061326c6001820154612fbc565b865f526012820160205283600160405f206132b06132a86132966006880154600389015490612e01565b856132a089613482565b97888a613565565b94868a613845565b60ff198154168155015586857f8e4b27eeb3194deef0b3140997e6b82f53eb7350daceb9355268009b92f70add60206040518a8152a36132ef81612b55565b8015908115613428575b5061342057600b8101948554600181018091116103075786555f80516020614c05833981519152965f80516020614ba58339815191525494600186018096116103075761337761341b965f80516020614b858339815191529a50805f80516020614ba5833981519152555f80516020614b4583398151915254613ea0565b7fc68e8cb1dc96033edd3ea2af8f58e28c84f27bc0c225295e9b1c873226f775e66040601486016133a8848261408d565b60168701855f5280602052825f20546133c660178a01918254612e0e565b9055855f526020525f8281205554928151908582526020820152a25f525f80516020614c85833981519152602052600260405f200155600881015494600a600d830154920154905491604051968796876131fe565b0390a1565b505050505050565b6004915061343581612b55565b145f6132f9565b6040519060e082016001600160401b038111838210176115b7576040525f60c0838281528260208201528260408201528260608201528260808201528260a08201520152565b9060405161348f81612ca1565b61349761343c565b815260c08060208301926134a961343c565b84526007819660ff81541683516134bf82612b55565b52600c8101546020845101526008810154604084510152600a810154606084510152600b810154608084510152600981015460a0845101520154828251015280515161350a81612b55565b845161351582612b55565b5260208151015160208551015260408151015160408551015260608151015160608551015260808151015160808551015260a08151015160a08551015251015191510152565b8115612e4d570690565b919060209094939401928351519061357c82612b55565b60a085510151915f198701968088116103075760068896015480155f146135ab57505050505050505050600290565b1161382d576135b981612b55565b60018114801590613823575b61381957506001955f1982019182116103075781111561380e575b507f8984d2d0d7a9f2f70f22692c7c8344aa50cbed8c00a03c924457a31793ee8fdb5484519260608401519260808501519160408601519560c087910151945f928688116137f2575b6040015161363691612ecd565b9461365c85613657613648878d612e0e565b613652838c612e01565b612ecd565b612e0e565b8082106137db575b5050848710156136e7575b5050505050509160c0915f936040835101528151608081015190816136c8575b505061369a85612b55565b600185036136af575b60a08251015251015290565b836060835101528482516136c282612b55565b526136a3565b60606136d79101918251612e01565b9052836080835101525f8061368f565b9092949850836136fa9294965095612e0e565b600497909390848310613744575050509050600181018091116137315791839160c09360205f965101525b919381935f808061366f565b601185634e487b7160e01b5f525260245ffd5b613758929161375291612e01565b93612e0e565b916137638184612e43565b8060010191826001116137c85761377b90839561355b565b61379d575b50509161379260c094925f9694612e01565b602084510152613725565b600291929350018091116137b557906137925f613780565b601186634e487b7160e01b5f525260245ffd5b601189634e487b7160e01b5f525260245ffd5b6137ea929891610e9c91612e0e565b955f80613664565b9250613636906040613804888a612e0e565b9491925050613629565b5f95509250846135e0565b9550505050505090565b50828711156135c5565b50505050505050600390565b8015610307575f190190565b9160c080918051519461385786612b55565b60208201958651519061386982612b55565b61387282612b55565b61387b81612b55565b03613989575b5080515161388e81612b55565b8551519061389b82612b55565b6138a482612b55565b6138ad81612b55565b03613963575b5160208101519451946020860151809103613958575b506040810151604086015180910361394d575b5060608101516060860151809103613942575b5060808101516080860151809103613937575b5060a081015160a086015180910361392c575b500151920151809203613926575050565b60070155565b60098501555f613915565b600b8501555f613902565b600a8501555f6138ef565b60088501555f6138dc565b600c8501555f6138c9565b84515161396f81612b55565b61397881612b55565b60ff801986541691161784556138b3565b61399e82516080606082015191015190612e01565b9060048751516139ad81612b55565b6139b681612b55565b03613a415790613a3b917f1ec6d9e2b340c6cc9d5b6690a2d2a1558f252aa30668b45dbdb83bb7728984f26020808a510151604051908152a2613a155f80516020614c05833981519152915f80516020614ba583398151915254612e0e565b9050805f80516020614ba5833981519152555f80516020614b4583398151915254613ea0565b5f613881565b50855151613a4e81612b55565b613a5781612b55565b15613a63575b50613a3b565b613a8d90613a155f80516020614c05833981519152915f80516020614ba583398151915254612e0e565b5f613a5d565b6001915f520160205260405f2054151590565b92939190915f80516020614cc5833981519152835f5260205260405f20945f198301928311610307578260ff865416613e24575f198201918211610307578110613e56575b5080151580613e4d575b613e45575b5060018301928354938415613e2d575b8483111561342057829055815f525f80516020614c65833981519152602052600184018094116103075760030193835f528460205260405f2054845f525f80516020614c6583398151915260205260405f2080548210613e2457600201548015613e2457613b7e613b83926136528861416f565b612e43565b9283613b9b575b505050505f526020525f6040812055565b7f8984d2d0d7a9f2f70f22692c7c8344aa50cbed8c00a03c924457a31793ee8fe454917f8984d2d0d7a9f2f70f22692c7c8344aa50cbed8c00a03c924457a31793ee8fe554936010613c176011840193613c0e613bfa8987549b612e43565b94610e9c613c088a8361355b565b8a612e0e565b92839101614421565b945f19861480613e1b575b613dbc575f925f87121580613da8575b613d87575b5f965b888810613c4c57505050505050613b8a565b6001880180891161030757613c619083612ecd565b945f82121580613d7e575b15613cd85750613ccf8180897f86c93961d1a070b7b56fd1214cf06ccc18a89a3869681be8b74533f85ddc82606020613cc38b6001613cad8f9a829b613e5e565b5001613cbb81549e8f612e01565b90558c612e01565b604051908152a3614223565b975b0196613c3a565b949097613cee613ce88286612ecd565b86612e01565b613cf88388612e01565b60405190613d0582612ca1565b8282526020820152885490600160401b8210156115b757613d2f826001613d3594018c558b613e5e565b90613e77565b87545f19810190811161030757897fd2337a844680345b0a7ba3392e6ddbbf8ff6e72cc99a633764c322c920576b7a6020613d726001978c612e01565b604051908152a4613cd1565b508a8212613c6c565b959250613da26001613d998587613e5e565b50015493614223565b95613c37565b5082613db48887613e5e565b505410613c32565b60405162461bcd60e51b815260206004820152603160248201527f56657374696e673a20737461727445706f63682069732062656c6f77207468616044820152706e20616c6c207365656e2065706f63687360781b6064820152608490fd5b50871515613c22565b50505050505050565b935060068501545f1981019081116103075793613b0a565b90505f613afa565b50808211613af5565b91505f613aeb565b8054821015612e2f575f5260205f209060011b01905f90565b9190613e8d576020816001925184550151910155565b634e487b7160e01b5f525f60045260245ffd5b613ea8612f5a565b5f80516020614ac583398151915254908315614087575f1982019282841161030757613ee1845f80516020614ac5833981519152613e5e565b50805483149590861561406c57506002841061342057600119840184811161030757670de0b6b3a764000091613b7e6001613f2c613f37945f80516020614ac5833981519152613e5e565b500154945b85612ecd565b045f80516020614b2583398151915254105f14614049576289544081029080820462895440149015171561030757629896809004935b7f8984d2d0d7a9f2f70f22692c7c8344aa50cbed8c00a03c924457a31793ee8fe2547f8984d2d0d7a9f2f70f22692c7c8344aa50cbed8c00a03c924457a31793ee8fe35490808710614041575b50808611614039575b5015613fe9575050613fe46001915f80516020614ac5833981519152613e5e565b500155565b91509160405191613ff983612ca1565b82526020820152600160401b8210156115b757613d2f826001612f2f94015f80516020614ac5833981519152555f80516020614ac5833981519152613e5e565b94505f613fc3565b95505f613fba565b62a7d8c081029080820462a7d8c014901517156103075762989680900493613f6d565b670de0b6b3a764000091613b7e6001613f3793015494613f31565b50505050565b6140978282614237565b80518051600684019392916001600160401b0382116115b757600160401b82116115b7576020908554838755808410614154575b5001845f5260205f205f5b8381106141405750505050916141359160207f8b5d520ecd83f8a909da38eaeb49b5c1fb3d8d69e22e2b36ec0f5814b5c4aa43940151948560078301556008820155549360405192839260208452604060208501526060840190612cfa565b9060408301520390a2565b6001906020845194019381840155016140d6565b61416990875f5284845f209182019101612ef5565b5f6140cb565b5f80516020614ac5833981519152545f91905f198101908111610307575f925b8181111561419d5750505090565b6141a78282612e01565b60011c936141c2855f80516020614ac5833981519152613e5e565b509182548086115f146141f7575050506001015492600181018091111561418f57634e487b7160e01b5f52601160045260245ffd5b9195909350919084101561421757505f198101908111610307579061418f565b60010154949350505050565b6001600160ff1b0381146103075760010190565b9060405161424481612ca1565b606081525f6020820152506040519161425c83612ca1565b60405161427081610d528160068601612cfa565b83526007810154916020840192835260088201549081811461441a576142968282612e0e565b91815f1981011161030757614301916142f7916142b35f916145d5565b5f80516020614c258339815191525f80516020614b658339815191525491828111614406575b50805483106143fb575b506136576142f192936145d5565b9061460e565b6003840154612ecd565b91670de0b6b3a7640000830292808404670de0b6b3a764000014901517156103075761433f6005655af3107a400061434895049201548092846144fa565b93908551612e01565b84525f5b81811061435b57505050505090565b8083600192106143de575b826143718583612e01565b10156143cc5761438c87516143868684612e01565b90612e1b565b51614398828951612e1b565b525b6143a48186612e1b565b516143c5826143bf8a51936143b98386612e1b565b51612e01565b92612e1b565b520161434c565b5f6143d8828951612e1b565b5261439a565b6143f46143ec828951612e1b565b518751612e01565b8652614366565b5491506136576142e3565b6144139193508290612e0e565b915f6142d9565b5050505090565b60010180545f1993929080156144c3575f905f19810190811161030757929190925b808411156144515750505050565b9091929461445f8287612e01565b60011c9561446d8786613e5e565b50548085111561448f575050508460018101809111610307575b929190614443565b9196909250908310156144bc57806144ab57505f199450505050565b5f1981019081116103075790614487565b9450505050565b505050565b906144d282612d31565b6144df6040519182612cd7565b82815280926144f0601f1991612d31565b0190602036910137565b92919080156145c5578161450d91612e43565b905f61451985836147d4565b85818097116145b4575b5060010190818611610307576136528491610e9c8561454561454e968b612ecd565b60011c92612ecd565b91614558826144c8565b945f5b83811061456a57505050509190565b836145758284612e01565b101561459a575b6001906145898484612ecd565b614593828a612e1b565b520161455b565b811561457c57906145ac600191613839565b91905061457c565b6145be9250612e0e565b845f614523565b506145d19192506144c8565b5f91565b5f80516020614d05833981519152545f80516020614c45833981519152545f1983019283116103075761460b92610e9c91612ecd565b90565b905f80516020614c258339815191526146395f80516020614b65833981519152546136528142612e43565b82101561477b57829054116147025780821161469a576146649061465c836147e6565b9290916147e6565b90929082840361467b575050505061460b906148e9565b61460b9450614694929161468e91612e0e565b92612e0e565b90612e43565b60405162461bcd60e51b815260206004820152605a60248201525f80516020614be583398151915260448201525f80516020614ca58339815191526064820152790732067726561746572207468616e20746f54696d657374616d760341b608482015260a490fd5b60405162461bcd60e51b815260206004820152606560248201525f80516020614be583398151915260448201525f80516020614ca583398151915260648201527f73206c6f776572207468616e206669727374207265636f726465642074696d6560848201526407374616d760dc1b60a482015260c490fd5b60405162461bcd60e51b815260206004820152602b60248201527f4d65616e2070726963652063616e206368616e676520696e207375676765737460448201526a1959081a5b9d195c9d985b60aa1b6064820152608490fd5b90808210156147e1575090565b905090565b905f80516020614c2583398151915254916148018382612e0e565b61481a5f80516020614b65833981519152548092612e43565b937f62e26dda6281f8a7bde8d0de6ef3dc4300cca63258b4641529b5bae7dc08902854918286105f1461486c5750505050614862825f80516020614ce5833981519152612ee0565b90549060031b1c90565b613b7e6136579261487c95612e0e565b60018101809111610307575f80516020614b45833981519152548015612e4d57655af3107a4000045f80516020614ce5833981519152545f1981019081116103075761460b926148dc610e9c925f80516020614ce5833981519152612ee0565b90549060031b1c92612ecd565b5f80516020614c2583398151915254908082116149f9576149229161490d91612e0e565b5f80516020614b658339815191525490612e43565b5f80516020614ce5833981519152548110156149d857801561498e57614955815f80516020614ce5833981519152612ee0565b90549060031b1c5f1982019182116103075761498161460b925f80516020614ce5833981519152612ee0565b90549060031b1c90612e0e565b505f80516020614ce58339815191525415612e2f575f80516020614ce58339815191525f527fd4d5257edb89e07e8d010c6ff96326eddf1fc220d3213e3ef3ddd6c1b3b706415490565b505f80516020614b45833981519152548015612e4d57655af3107a40000490565b60405162461bcd60e51b815260206004820152605760248201527f4c69624f7261636c6550726963652e6765745265765072696365417454696d6560448201527f7374616d703a2074696d657374616d70206973206c6f776572207468616e2066606482015276069727374207265636f726465642074696d657374616d7604c1b608482015260a490fdfe13f5ac65dc9f5b2765e76eb17d53fe3e7065903823eb36bdd7841fa3f8dacbc088681cafafd55573d275926fd208ef2ba36c6dd5169e88841d4bc9bcd22530218984d2d0d7a9f2f70f22692c7c8344aa50cbed8c00a03c924457a31793ee8fe613f5ac65dc9f5b2765e76eb17d53fe3e7065903823eb36bdd7841fa3f8dacbbf23a233ee73076c3cf570675cfe9ff168e5811fe06bf68358a371b89594cf42438984d2d0d7a9f2f70f22692c7c8344aa50cbed8c00a03c924457a31793ee8fe162e26dda6281f8a7bde8d0de6ef3dc4300cca63258b4641529b5bae7dc08902a62e26dda6281f8a7bde8d0de6ef3dc4300cca63258b4641529b5bae7dc089027bd5605b4405616555ea2583cbd913ecf346c52c37520187117aadcea54e7d1498984d2d0d7a9f2f70f22692c7c8344aa50cbed8c00a03c924457a31793ee8fd24c69624f6666657256323a2062726f6b656e20696e76617269616e742c206e6f4c69624f7261636c6550726963652e6765744d65616e526576507269636542658984d2d0d7a9f2f70f22692c7c8344aa50cbed8c00a03c924457a31793ee8fd162e26dda6281f8a7bde8d0de6ef3dc4300cca63258b4641529b5bae7dc0890267d4f8ec43464738265ced6b7ed5f90007e9b7c34318bdd82d9249328b50bd358a8de0abb18de6e730ac24d7fe02c877d293683811fc3ac5d8e62e2a52c0d20d888681cafafd55573d275926fd208ef2ba36c6dd5169e88841d4bc9bcd2253022747765656e54696d657374616d70733a2066726f6d54696d657374616d702069a8de0abb18de6e730ac24d7fe02c877d293683811fc3ac5d8e62e2a52c0d20d762e26dda6281f8a7bde8d0de6ef3dc4300cca63258b4641529b5bae7dc0890297d4f8ec43464738265ced6b7ed5f90007e9b7c34318bdd82d9249328b50bd35723a233ee73076c3cf570675cfe9ff168e5811fe06bf68358a371b89594cf4242a2646970667358221220e468df894c76ce50260f9811046658e9f64c42d2f1c63c3b82bd20a28653e69664736f6c634300081a0033","linkReferences":{}},"methodIdentifiers":{"getWorkerData(bytes32)":"a7533612","matchDealV2(address,bytes32[],bytes32[][])":"aa8673f0","moveResourcesFromDealV2(bytes32)":"ee22bfb7","reportAppCIDUpdatedV2((bytes4,bytes32))":"4492bd6b","reportWorkerActivatedV2(bytes32,bytes32,bytes32)":"852cdb01"},"storageLayout":{"storage":[],"types":{}},"devdoc":{"version":1,"kind":"dev","methods":{"matchDealV2(address,bytes32[],bytes32[][])":{"details":"Match Deal with Compute Units provided.There should be `bytes32[][] calldata peers` as well, but it is not supported by subgraph codegen.Ref to https://github.com/graphprotocol/graph-tooling/issues/342.","params":{"computeUnitIds":": PeerIds array that represents peers to match with Deal.","deal":": Deal to match.","peerIds":": PeerIds array that represents peers to match with Deal."}}},"events":{"UnitActivated(bytes32,bytes32,uint256)":{"details":"Emitted when a unit activated. Unit is activated when it returned from deal","params":{"commitmentId":"Commitment id","unitId":"Compute unit id which activated"}},"UnitDeactivated(bytes32,bytes32)":{"details":"Emitted when a unit deactivated. Unit is deactivated when it moved to deal","params":{"commitmentId":"Commitment id","unitId":"Compute unit id which deactivated"}}},"errors":{"CapacityCommitmentIsNotActive(uint8)":[{"details":"Capacity commitment is not active"}]}},"id":121}