{"abi":[{"type":"function","name":"getWorkerData","inputs":[{"name":"onchainWorkerId","type":"bytes32","internalType":"bytes32"}],"outputs":[{"name":"workerData","type":"tuple","internalType":"struct IMarketV2.WorkerData","components":[{"name":"deal","type":"address","internalType":"address"},{"name":"peerId","type":"bytes32","internalType":"bytes32"},{"name":"offchainWorkerId","type":"bytes32","internalType":"bytes32"},{"name":"reserved","type":"uint256[3]","internalType":"uint256[3]"},{"name":"unitIds","type":"bytes32[]","internalType":"bytes32[]"},{"name":"resources","type":"tuple[]","internalType":"struct IMarketV2.ResourceDataExtendedV2[]","components":[{"name":"resourceId","type":"bytes32","internalType":"bytes32"},{"name":"ty","type":"uint8","internalType":"enum IOfferV2.ResourceType"},{"name":"metadata","type":"string","internalType":"string"},{"name":"details","type":"string","internalType":"string"},{"name":"quantity","type":"uint256","internalType":"uint256"}]}]}],"stateMutability":"view"},{"type":"function","name":"matchDealV2","inputs":[{"name":"deal","type":"address","internalType":"contract IDealV2"},{"name":"peerIds","type":"bytes32[]","internalType":"bytes32[]"},{"name":"computeUnitIds","type":"bytes32[][]","internalType":"bytes32[][]"}],"outputs":[],"stateMutability":"nonpayable"},{"type":"function","name":"moveResourcesFromDealV2","inputs":[{"name":"onchainWorkerId","type":"bytes32","internalType":"bytes32"}],"outputs":[],"stateMutability":"nonpayable"},{"type":"function","name":"reportAppCIDUpdatedV2","inputs":[{"name":"newAppCID","type":"tuple","internalType":"struct CIDV1","components":[{"name":"prefixes","type":"bytes4","internalType":"bytes4"},{"name":"hash","type":"bytes32","internalType":"bytes32"}]}],"outputs":[],"stateMutability":"nonpayable"},{"type":"function","name":"reportWorkerActivatedV2","inputs":[{"name":"peerId","type":"bytes32","internalType":"bytes32"},{"name":"onchainWorkerId","type":"bytes32","internalType":"bytes32"},{"name":"offchainWorkerId","type":"bytes32","internalType":"bytes32"}],"outputs":[],"stateMutability":"nonpayable"},{"type":"event","name":"CommitmentFailed","inputs":[{"name":"commitmentId","type":"bytes32","indexed":true,"internalType":"bytes32"},{"name":"failedEpoch","type":"uint256","indexed":false,"internalType":"uint256"}],"anonymous":false},{"type":"event","name":"CommitmentStatsUpdated","inputs":[{"name":"commitmentId","type":"bytes32","indexed":false,"internalType":"bytes32"},{"name":"totalFailCount","type":"uint256","indexed":false,"internalType":"uint256"},{"name":"exitedUnitCount","type":"uint256","indexed":false,"internalType":"uint256"},{"name":"activeUnitCount","type":"uint256","indexed":false,"internalType":"uint256"},{"name":"nextAdditionalActiveUnitCount","type":"uint256","indexed":false,"internalType":"uint256"},{"name":"changedEpoch","type":"uint256","indexed":false,"internalType":"uint256"}],"anonymous":false},{"type":"event","name":"DealAppCIDChangedV2","inputs":[{"name":"deal","type":"address","indexed":true,"internalType":"contract IDealV2"},{"name":"newCID","type":"tuple","indexed":false,"internalType":"struct CIDV1","components":[{"name":"prefixes","type":"bytes4","internalType":"bytes4"},{"name":"hash","type":"bytes32","internalType":"bytes32"}]}],"anonymous":false},{"type":"event","name":"EntityAdded","inputs":[{"name":"commitmentId","type":"bytes32","indexed":true,"internalType":"bytes32"},{"name":"entityId","type":"bytes32","indexed":false,"internalType":"bytes32"},{"name":"rewardPerEpoch","type":"uint256","indexed":false,"internalType":"uint256"},{"name":"currentEpoch","type":"uint256","indexed":false,"internalType":"uint256"}],"anonymous":false},{"type":"event","name":"EntityRemoved","inputs":[{"name":"commitmentId","type":"bytes32","indexed":true,"internalType":"bytes32"},{"name":"entityId","type":"bytes32","indexed":false,"internalType":"bytes32"},{"name":"currentEpoch","type":"uint256","indexed":false,"internalType":"uint256"}],"anonymous":false},{"type":"event","name":"StateUpdated","inputs":[{"name":"commitmentId","type":"bytes32","indexed":true,"internalType":"bytes32"},{"name":"state","type":"tuple","indexed":false,"internalType":"struct DealStakerRewards.VestingState","components":[{"name":"items","type":"uint256[]","internalType":"uint256[]"},{"name":"accumulatedUnlockedFlt","type":"uint256","internalType":"uint256"}]}],"anonymous":false},{"type":"event","name":"UnitActivated","inputs":[{"name":"commitmentId","type":"bytes32","indexed":true,"internalType":"bytes32"},{"name":"unitId","type":"bytes32","indexed":true,"internalType":"bytes32"},{"name":"startEpoch","type":"uint256","indexed":false,"internalType":"uint256"}],"anonymous":false},{"type":"event","name":"UnitDeactivated","inputs":[{"name":"commitmentId","type":"bytes32","indexed":true,"internalType":"bytes32"},{"name":"unitId","type":"bytes32","indexed":true,"internalType":"bytes32"}],"anonymous":false},{"type":"event","name":"VestingScheduleItem","inputs":[{"name":"commitmentId","type":"bytes32","indexed":true,"internalType":"bytes32"},{"name":"id","type":"uint256","indexed":true,"internalType":"uint256"},{"name":"epoch","type":"uint256","indexed":true,"internalType":"uint256"},{"name":"cumulativeAmount","type":"uint256","indexed":false,"internalType":"uint256"}],"anonymous":false},{"type":"event","name":"VestingUpdateItem","inputs":[{"name":"commitmentId","type":"bytes32","indexed":true,"internalType":"bytes32"},{"name":"id","type":"uint256","indexed":true,"internalType":"uint256"},{"name":"cumulativeAmount","type":"uint256","indexed":false,"internalType":"uint256"}],"anonymous":false},{"type":"event","name":"WorkerActivatedV2","inputs":[{"name":"peerId","type":"bytes32","indexed":true,"internalType":"bytes32"},{"name":"deal","type":"address","indexed":false,"internalType":"contract IDealV2"},{"name":"onchainWorkerId","type":"bytes32","indexed":false,"internalType":"bytes32"},{"name":"offchainWorkerId","type":"bytes32","indexed":false,"internalType":"bytes32"}],"anonymous":false},{"type":"event","name":"WorkerCreatedV2","inputs":[{"name":"peerId","type":"bytes32","indexed":true,"internalType":"bytes32"},{"name":"deal","type":"address","indexed":false,"internalType":"contract IDealV2"},{"name":"onchainWorkerId","type":"bytes32","indexed":false,"internalType":"bytes32"},{"name":"cuIds","type":"bytes32[]","indexed":false,"internalType":"bytes32[]"},{"name":"appCID","type":"tuple","indexed":false,"internalType":"struct CIDV1","components":[{"name":"prefixes","type":"bytes4","internalType":"bytes4"},{"name":"hash","type":"bytes32","internalType":"bytes32"}]},{"name":"resources","type":"tuple[]","indexed":false,"internalType":"struct IMarketV2.ResourceDataExtendedV2[]","components":[{"name":"resourceId","type":"bytes32","internalType":"bytes32"},{"name":"ty","type":"uint8","internalType":"enum IOfferV2.ResourceType"},{"name":"metadata","type":"string","internalType":"string"},{"name":"details","type":"string","internalType":"string"},{"name":"quantity","type":"uint256","internalType":"uint256"}]}],"anonymous":false},{"type":"event","name":"WorkerRemovedV2","inputs":[{"name":"peerId","type":"bytes32","indexed":true,"internalType":"bytes32"},{"name":"deal","type":"address","indexed":false,"internalType":"contract IDealV2"},{"name":"onchainWorkerId","type":"bytes32","indexed":false,"internalType":"bytes32"},{"name":"cuIds","type":"bytes32[]","indexed":false,"internalType":"bytes32[]"},{"name":"resources","type":"tuple[]","indexed":false,"internalType":"struct IMarketV2.ResourceDataExtendedV2[]","components":[{"name":"resourceId","type":"bytes32","internalType":"bytes32"},{"name":"ty","type":"uint8","internalType":"enum IOfferV2.ResourceType"},{"name":"metadata","type":"string","internalType":"string"},{"name":"details","type":"string","internalType":"string"},{"name":"quantity","type":"uint256","internalType":"uint256"}]}],"anonymous":false},{"type":"error","name":"CapacityCommitmentIsNotActive","inputs":[{"name":"status","type":"uint8","internalType":"enum ICapacity.CCStatus"}]}],"bytecode":{"object":"0x60808060405234601557614afb908161001a8239f35b5f80fdfe6102206040526004361015610012575f80fd5b5f3560e01c80634492bd6b14612781578063852cdb0114612698578063a75336121461243d578063aa8673f0146103ae5763ee22bfb714610051575f80fd5b346103aa5760203660031901126103aa576004355f8181525f805160206148268339815191526020526040902080546001600160a01b0316330361034857600181019081545f525f8051602061484683398151915260205260405f20925f916001600682019501925b855481101561012f57806100d060019288612c06565b90549060031b1c805f525f80516020614a068339815191526020525f600360408220610100868201541515612c1b565b858060a01b0319815416815501558554908161011f575b5050016100ba565b61012891612fc7565b5f80610117565b508385915f9060078101915b825481101561017757600190835f5260205f20600582020161016f60046101658854845490612e5d565b9201548254612b27565b90550161013b565b5092916101a890549360018060a01b03905416926040519384528560208501526080604085015260808401906129e8565b82810360608401528154808252602082019160208260051b820101935f5260205f20925f915b8383106102d65788887f9f5719b0d3b74a224d2c17ba0f56eae656fcd444b977a2c5104e0506e9a579818989038aa25f525f8051602061482683398151915260205260405f205f81555f60018201555f6002820155600681016102348160038401612c64565b8054905f8155816102b8575b50506007018054905f81558161025257005b816005029160058304036102a4575f5260205f20908101905b81811061027457005b6005905f81555f600182015561028c60028201612c7a565b61029860038201612c7a565b5f60048201550161026b565b634e487b7160e01b5f52601160045260245ffd5b5f5260205f20908101905b81811015610240575f81556001016102c3565b909192939460206005600192601f198582030186528854815260ff848a0154166102ff81612843565b8382015260a0604082015261032e61031d60a0830160028c01612a6e565b828103606084015260038b01612a6e565b90608060048b0154910152970193019301919392906101ce565b60405162461bcd60e51b815260206004820152603460248201527f4d61726b657456323a206f6e6c79206465616c2063616e2063616c6c206d6f7660448201527332a932b9b7bab931b2b9a33937b6a232b0b62b1960611b6064820152608490fd5b5f80fd5b346103aa5760603660031901126103aa576004356102008190526001600160a01b03811690036103aa576024356001600160401b0381116103aa576103f790369060040161290e565b6080919091526044356001600160401b0381116103aa5761041c90369060040161290e565b6101a052610180527f13f5ac65dc9f5b2765e76eb17d53fe3e7065903823eb36bdd7841fa3f8dacbbe60c0526102005160ff90610461906001600160a01b0316612aef565b5416156123f857604051638da5cb5b60e01b815261020051602090829060049082906001600160a01b03165afa9081156110dc575f916123b6575b50336001600160a01b0390911603612367576040516319e749ff60e11b815261020051602090829060049082906001600160a01b03165afa80156110dc575f90612334575b60029150036122b3576101a051810361224b576040516302734eab60e51b815261020051602090829060049082906001600160a01b03165afa9081156110dc575f91612210575b5060058110159081611b675760018114918215612203575b82156121f2575b5050156121af57610200516001600160a01b03165f90815260c0516020526040902054610572612cc9565b8115918215612179575b505015612134576040516317f23d6760e21b815261020051602090829060049082906001600160a01b03165afa80156110dc575f61012052612100575b5060405190633013ce2960e01b825260208260048160018060a01b0361020051165afa9182156110dc575f926120bc575b50604051634d7599f160e01b815261020051602090829060049082906001600160a01b03165afa9081156110dc575f9161208a575b5060405190632943dcab60e01b825260208260048160018060a01b0361020051165afa80156110dc575f90612056575b6106599250612b34565b604051638a0c725b60e01b815261020051602090829060049082906001600160a01b03165afa9081156110dc575f91612024575b506040516309c9af5f60e31b8152610200515f90829060049082906001600160a01b03165afa80156110dc575f61010052611f57575b505f60a0525f5b610100515181101561072657806106e660019261010051612b41565b5160208101516106f581612843565b6106fe81612843565b1561070b575b50016106ca565b604061071d910151831c60a051612b27565b60a05286610704565b509091604051631378cd0d60e31b815260408160048160018060a01b0361020051165afa80156110dc575f61016052611ef7575b5060405192630d4773ff60e41b845260208460048160018060a01b0361020051165afa9384156110dc575f94611eba575b508111611e4357905f6101c0525b816101c051106107c9576107ab612cc9565b610200516001600160a01b03165f90815260c0516020526040902055005b6107d96101c05183608051612b87565b356101e0526107ea6101e051612d2b565b6101405261014051515f608060405161080281612959565b82815282602082015282604082015282606082015201525f527f88681cafafd55573d275926fd208ef2ba36c6dd5169e88841d4bc9bcd225302060205260405f209360018060a01b03855416948515611e015760018060a01b036002820154169060026003820154916005600482015491015492604051996108838b612959565b8a5260208a0194855260408a01528060608a01528260808a015211159081611df5575b5015611d97578551604051631f4570d760e11b81526001600160a01b03918216600482015261020051909160209183916024918391165afa9081156110dc575f91611d79575b5015611d2357516001600160a01b0390811690821603611cde57845160405163016712bf60e61b81526001600160a01b03918216600482015261020051909160209183916024918391165afa80156110dc5783915f91611caa575b501015611c46576109626101c0516101a05161018051612baf565b905060a05103611c01576040516305e8c93760e51b81526101e051600482015261020051602090829060249082906001600160a01b03165afa9081156110dc575f91611bd3575b50611b7b576003841015611b675760018403611a36575b5f5b6109d66101c0516101a05161018051612baf565b9050811015610ac657610a06610a00826109fa6101c0516101a05161018051612baf565b90612b87565b35612ddd565b60208101516101e05103610a6f57516001600160a01b0316610a2a576001016109c2565b60405162461bcd60e51b815260206004820152601f60248201527f4d6174636865723a2070726f766964656420435520697320696e206465616c006044820152606490fd5b60405162461bcd60e51b815260206004820152602960248201527f4d6174636865723a2070726f76696465642043552069732066726f6d20616e6f6044820152683a3432b9103832b2b960b91b6064820152608490fd5b50909193926101005151610aea610adc82612a1f565b60405160e05260e0516129c5565b8060e05152610afb601f1991612a1f565b015f5b8181106119fe5750505f925f935b6101005151851015610cf357610b248560e051612b41565b51610b328661010051612b41565b5190610b4282516101e051612e5d565b90610b4d8351612eed565b8254604085019384518210610c99576001610bac600294610b73610bc195895190612b34565b8455885187526020890151610b8781612843565b610b9081612843565b6020880152610ba56040518094819301612a6e565b03826129c5565b6040850152610ba56040518094819301612a6e565b606082015260808251910152519161014051519151917f23a233ee73076c3cf570675cfe9ff168e5811fe06bf68358a371b89594cf4241905f5260205260405f2091610c108160018501613834565b15610c3e57600193610c3693610c30925f5260205260405f205490612bf3565b90612b27565b940193610b0c565b60405162461bcd60e51b815260206004820152602d60248201527f4c69624f6666657256323a206f6666657220646f6573206e6f7420686176652060448201526c74686973207265736f7572636560981b6064820152608490fd5b60405162461bcd60e51b815260206004820152602c60248201527f4d6174636865723a207065657220646f6573206e6f74206861766520656e6f7560448201526b6768207265736f757263657360a01b6064820152608490fd5b9093509491949390936101205110611993575f805f806101e0515f525f8051602061484683398151915260205260405f20926101e0515f525f80516020614aa683398151915260205260405f206001810180545f925b8184106118e857505050508060011b90808204600214901517156102a4571161187f578260011b838104600214841517156102a4571161181c5760020154908160011b91808304600214901517156102a457036117a7575f8051602061488683398151915254905f1982146102a457600182015f8051602061488683398151915255604051916001600160401b0360208401908111908411176112a45760208301604052600181018352610e076101c0516101a05161018051612baf565b6101e0515f525f8051602061484683398151915260205260405f205f5b82811061141d575050604051610e3981612974565b5f81525f60208201525f604082015260405192610e558461293e565b610200516001600160a01b031684526101e051602085019081525f604086019081526060860193845291610e8885612a1f565b94610e9660405196876129c5565b808652602086019060051b8201913683116103aa57905b82821061140d575050506080850193845260e05160a0860190815260019687015f9081525f8051602061482683398151915260205260408120965187546001600160a01b0319166001600160a01b0391909116178755915196860196909655905160028501559051905b600381106113f65750505180519060068301906001600160401b0383116112a457600160401b83116112a45781548383558084106113d0575b50602001905f5260205f205f5b8381106113bc57505050506007019051805190600160401b82116112a4578254828455808310611356575b50602001915f5260205f205f925b8284106110e75750509151610200516001600160a01b039182169350163b1590506103aa576040519063cef74c8b60e01b82526004820152815160248201526101e05160448201525f816064818360018060a01b0361020051165af180156110dc576110cc575b50516110136101c0516101a05161018051612baf565b60408051610200516001600160a01b03168152602081019490945260c09084018190528301819052906001600160fb1b0382116103aa577f38f3229d8b9135cc7cfc59ddec00d69d465e3e6cda6336ff0740d1b7105c9e109160051b809160e085013782019163ffffffff60e01b61016051511660608201526020610160510151608082015260e08184030160a0820152806110b860e06101e051950160e051612871565b0390a260016101c051016101c05290610799565b5f6110d6916129c5565b85610ffd565b6040513d5f823e3d90fd5b8051805183556001830160208201516110ff81612843565b61110881612843565b60ff8019835416911617905560028301604082015180519060018060401b0382116112a4576111378354612a36565b601f8111611326575b50602090601f83116001146112c35761117092915f91836112b8575b50508160011b915f199060031b1c19161790565b90555b6060810151805160038501916001600160401b0382116112a4576111978354612a36565b601f8111611269575b50602090601f83116001146111fc57936020936111db84600198956080956005995f926111f15750508160011b915f199060031b1c19161790565b90555b0151600486015501920193019290610f96565b015190505f8061115c565b90601f19831691845f52815f20925f5b818110611251575084608094600598946020989460019b988c9510611239575b505050811b0190556111de565b01515f1960f88460031b161c191690555f808061122c565b9293602060018192878601518155019501930161120c565b61129490845f5260205f20601f850160051c8101916020861061129a575b601f0160051c0190612c64565b8e6111a0565b9091508190611287565b634e487b7160e01b5f52604160045260245ffd5b015190508f8061115c565b90601f19831691845f52815f20925f5b81811061130e57509084600195949392106112f6575b505050811b019055611173565b01515f1960f88460031b161c191690558e80806112e9565b929360206001819287860151815501950193016112d3565b61135090845f5260205f20601f850160051c8101916020861061129a57601f0160051c0190612c64565b8e611140565b806005029060058204036102a457826005026005810484036102a457845f5260205f2091820191015b81811061138c5750610f88565b6005905f81555f60018201556113a460028201612c7a565b6113b060038201612c7a565b5f60048201550161137f565b600190602084519401938184015501610f5d565b825f528360205f2091820191015b8181106113eb5750610f50565b5f81556001016113de565b600190602083519301926003828701015501610f17565b8135815260209182019101610ead565b611428818486612b87565b355f8181525f80516020614a068339815191526020526040902080549192916001600160a01b031661174c576102005181546001600160a01b0319166001600160a01b039190911617815560018781016003909201919091558301549182611496575b506001915001610e24565b5f80516020614a46833981519152926114ad612cc9565b93815f5260205260405f206114c56001820154612d2b565b6114ce84612ddd565b90845f526012830160205260405f20906114f16006850154600386015490612b27565b90611508828a61150088613223565b938489613306565b6115138287896135e6565b61151c81612843565b6001810361173257509161153e6001926020808c960151015190858985613847565b805460ff1916821781550154036116cc57600b820161155d81546135da565b90555b5f805160206148a68339815191525490516040516370220a9b60e01b815290602090829060049082906001600160a01b03165afa9081156110dc575f91611698575b5062989680916115bf916004850154918180821091180218612bf3565b047fecc2a9581aa0ec66253fe6dd29ab490ad7a55cde02026a17baa162151745bb556060601484016115f18982613e2e565b865f52601685016020528360405f205560178501611610858254612b27565b90555492604051908782526020820152886040820152a26008810154600d82015490600b600a840154930154925f1988019788116102a4576001975f805160206149068339815191529461166b926040519586958987612f9f565b0390a17fbd9cde1bbc961036d34368ae328c38917036a98eacfb025a1ff6d2c6235d0a145f80a38c61148b565b90506020813d82116116c4575b816116b2602093836129c5565b810103126103aa5751629896806115a2565b3d91506116a5565b600a82016116da81546135da565b90555f805160206149868339815191525f80516020614926833981519152545f1981019081116102a45761172d9150805f80516020614926833981519152555f805160206148c683398151915254613c41565b611560565b6242963960e51b5f5261174481612843565b60045260245ffd5b60405162461bcd60e51b815260206004820152602d60248201527f4d61726b657456323a20436f6d7075746520756e6974206d617463686564206d60448201526c756c7469706c652074696d657360981b6064820152608490fd5b60405162461bcd60e51b815260206004820152604160248201527f4c69624f6666657256323a2062726f6b656e20696e76617269616e742c20564360448201527f5055206e756d62657220646f6573206e6f74206d6174636820435520636f756e6064820152601d60fa1b608482015260a490fd5b60405162461bcd60e51b815260206004820152604260248201525f8051602061494683398151915260448201527f7420656e6f7567682052414d20746f20737570706f7274205643505520286d61606482015261782960f01b608482015260a490fd5b60405162461bcd60e51b815260206004820152604860248201525f8051602061494683398151915260448201527f7420656e6f7567682052414d20746f20737570706f727420564350552028617660648201526761696c61626c652960c01b608482015260a490fd5b909192976118f68985612c06565b90549060031b1c9461190786612eed565b955f528260205260ff60405f2096541661192081612843565b8061194d57506001918261193961194293895490612b27565b97015490612b27565b985b01929190610d49565b919997959690959160019061196181612843565b036119885760019182611979611982938a5490612b27565b98015490612b27565b96611944565b955095600190611944565b60405162461bcd60e51b815260206004820152603d60248201527f4d6174636865723a2070656572207265736f757263657320707269636520657860448201527f6365656473207072696365207065722065706f636820696e206465616c0000006064820152608490fd5b602090604051611a0d81612959565b5f81525f83820152606060408201526060808201525f6080820152828260e05101015201610afe565b60206101405101518015159081611aa8575b506109c05760405162461bcd60e51b815260206004820152602d60248201527f4d6174636865723a207065657220646f6573206e6f742068617665206163746960448201526c1d994818dbdb5b5a5d1b595b9d609a1b6064820152608490fd5b90505f80516020614a46833981519152905f5260205260405f2060018101548015611b1857600191611adc611b0892612d2b565b611ae582613223565b90611aee612cc9565b91611b026006850154600386015490612b27565b93613306565b611b1181612843565b1486611a48565b60405162461bcd60e51b815260206004820152602160248201527f436170616369747920636f6d6d69746d656e7420646f65736e277420657869736044820152601d60fa1b6064820152608490fd5b634e487b7160e01b5f52602160045260245ffd5b60405162461bcd60e51b815260206004820152602a60248201527f4d6174636865723a207065657220697320616c7265616479207573656420696e604482015269081d1a1a5cc81919585b60b21b6064820152608490fd5b611bf4915060203d8111611bfa575b611bec81836129c5565b810190612b97565b866109a9565b503d611be2565b60405162461bcd60e51b815260206004820152601f60248201527f4d6174636865723a206e6f7420656e6f7567682043557320696e2070656572006044820152606490fd5b60405162461bcd60e51b815260206004820152603660248201527f4d6174636865723a2063616e6e6f74206d61746368206d6f72652070656572736044820152752066726f6d206f6e65206f662070726f76696465727360501b6064820152608490fd5b9150506020813d8211611cd6575b81611cc5602093836129c5565b810103126103aa5782905187610947565b3d9150611cb8565b60405162461bcd60e51b815260206004820152601f60248201527f4d6174636865723a207061796d656e7420746f6b656e206d69736d61746368006044820152606490fd5b60405162461bcd60e51b815260206004820152602860248201527f4d6174636865723a2070726f7669646572206973206e6f7420616c6c6f77656460448201526708189e481919585b60c21b6064820152608490fd5b611d91915060203d8111611bfa57611bec81836129c5565b876108ec565b60405162461bcd60e51b815260206004820152603060248201527f4d6174636865723a206f6e6c792070656572732066726f6d205632206f66666560448201526f727320617265206d6174636861626c6560801b6064820152608490fd5b600291501015876108a6565b60405162461bcd60e51b815260206004820152601a60248201527913d999995c8e881bd999995c88191bd95cdb89dd08195e1a5cdd60321b6044820152606490fd5b60405162461bcd60e51b815260206004820152604360248201527f4d6174636865723a20617474656d707420746f206d61746368206d6f7265207060448201527f65657273207468616e206d6178696d756d20737065636966696564206279206460648201526219585b60ea1b608482015260a490fd5b9093506020813d602011611eef575b81611ed6602093836129c5565b810103126103aa575160038110156103aa57928561078b565b3d9150611ec9565b6040813d604011611f4f575b81611f10604093836129c5565b810103126103aa5760405190611f258261298f565b8051906001600160e01b0319821682036103aa57602091835201516020820152610160528461075a565b3d9150611f03565b3d805f833e611f6681836129c5565b8101906020818303126103aa578051906001600160401b0382116103aa570181601f820112156103aa57805190611f9c82612a1f565b92611faa60405194856129c5565b828452602060608186019402830101918183116103aa57602001925b828410611fdb575050505061010052846106c3565b6060848303126103aa5760405190611ff282612974565b8451825260208501519060068210156103aa578260209283606095015260408701516040820152815201930192611fc6565b90506020813d60201161204e575b8161203f602093836129c5565b810103126103aa57518461068d565b3d9150612032565b506020823d602011612082575b81612070602093836129c5565b810103126103aa57610659915161064f565b3d9150612063565b90506020813d6020116120b4575b816120a5602093836129c5565b810103126103aa57518361061f565b3d9150612098565b9091506020813d6020116120f8575b816120d8602093836129c5565b810103126103aa57516001600160a01b03811681036103aa5790826105ea565b3d91506120cb565b6020813d60201161212c575b81612119602093836129c5565b810103126103aa575161012052816105b9565b3d915061210c565b60405162461bcd60e51b815260206004820152601d60248201527f4d6174636865723a20746f6f206561726c7920746f2072656d617463680000006044820152606490fd5b6121a79192507f60ac4d56f7e69877e4b95a6e91f4b3612278b580a93ea7637885a480e01503195490612b27565b10828061057c565b60405162461bcd60e51b815260206004820152601b60248201527a4d6174636865723a206465616c206973206e6f742061637469766560281b6044820152606490fd5b909150611b67576003148280610547565b506004811491505f610540565b90506020813d602011612243575b8161222b602093836129c5565b810103126103aa575160058110156103aa5782610528565b3d915061221e565b60405162461bcd60e51b815260206004820152603a60248201527f4d6174636865723a2070656572496473206c656e67746820616e6420636f6d706044820152790eae8caaadcd2e892c8e65cd8cadccee8d040dad2e6dac2e8c6d60331b6064820152608490fd5b60405162461bcd60e51b815260206004820152604d60248201527f4d6174636865723a2072657175697265642070726f746f636f6c206d69736d6160448201527f7463682c2072657175697265642076322c20757365206f74686572206d61746360648201526c3434b73390333ab731ba34b7b760991b608482015260a490fd5b506020813d60201161235f575b8161234e602093836129c5565b810103126103aa57600290516104e1565b3d9150612341565b60405162461bcd60e51b815260206004820152602160248201527f4d6174636865723a2073656e646572206973206e6f74206465616c206f776e656044820152603960f91b6064820152608490fd5b90506020813d6020116123f0575b816123d1602093836129c5565b810103126103aa57516001600160a01b03811681036103aa578261049c565b3d91506123c4565b60405162461bcd60e51b815260206004820152601f60248201527f4d6174636865723a206465616c206973206e6f742072656769737465726564006044820152606490fd5b346103aa5760203660031901126103aa5760a060405161245c8161293e565b5f81525f60208201525f6040820152606091829160405161247d84826129c5565b833682378382015282608082015201526004355f525f8051602061482683398151915260205260405f20604051916124b48361293e565b81546001600160a01b03168352600182015460208401908152600283015460408086019182525191939092909190600383015f835b60038210612682575050506124fe81836129c5565b8086019182526007604051936125228561251b81600685016129e8565b03866129c5565b608088019485520193845461253681612a1f565b9561254460405197886129c5565b81875260208701905f5260205f205f915b83831061260e575050505060a08701948552604051956020875261012087019760018060a01b039051166020880152516040870152519085015251608084015f905b600382106125f857505050519261010060e08401528351809152602061014084019401905f5b8181106125e25784806125de888751601f1984830301610100850152612871565b0390f35b82518652602095860195909201916001016125bd565b6020806001928551815201930191019091612597565b6005602060019260405161262181612959565b8554815260ff858701541661263581612843565b8382015260405161264d81610ba58160028b01612a6e565b604082015260405161266681610ba58160038b01612a6e565b8a82015260048601546080820152815201920192019190612555565b60016020819285548152019301910190916124e9565b346103aa5760603660031901126103aa576024355f8181525f805160206148268339815191526020526040902080546001600160a01b0316916044359133840361271c57600283910155604051928352602083015260408201527f0964de486fc3f6ca82fcd99a0d4b1ab8947418660350ce949d7071ce7d33b54e606060043592a2005b60405162461bcd60e51b815260206004820152603760248201527f4d61726b657456323a206f6e6c79206f776e696e67204465616c2063616e207260448201527632b837b93a103bb7b935b2b91030b1ba34bb30ba34b7b760491b6064820152608490fd5b346103aa5760403660031901126103aa5760ff61279d33612aef565b5416156127ed5760405160043563ffffffff60e01b81168091036103aa57815260243560208201527f12202a859f75ef16418e3797f0c661c310a4fba25313c6ac28e7f7483260cdab60403392a2005b60405162461bcd60e51b815260206004820152602860248201527f4d61726b657456323a206f6e6c79206465616c2063616e2063616c6c207468696044820152671cc81b595d1a1bd960c21b6064820152608490fd5b60061115611b6757565b805180835260209291819084018484015e5f828201840152601f01601f1916010190565b9080602083519182815201916020808360051b8301019401925f915b83831061289c57505050505090565b9091929394602080600192601f1985820301865288519081518152828201516128c481612843565b838201526080806128f96128e7604086015160a0604087015260a086019061284d565b6060860151858203606087015261284d565b9301519101529701930193019193929061288d565b9181601f840112156103aa578235916001600160401b0383116103aa576020808501948460051b0101116103aa57565b60c081019081106001600160401b038211176112a457604052565b60a081019081106001600160401b038211176112a457604052565b606081019081106001600160401b038211176112a457604052565b604081019081106001600160401b038211176112a457604052565b608081019081106001600160401b038211176112a457604052565b601f909101601f19168101906001600160401b038211908210176112a457604052565b90602082549182815201915f5260205f20905f5b818110612a095750505090565b82548452602090930192600192830192016129fc565b6001600160401b0381116112a45760051b60200190565b90600182811c92168015612a64575b6020831014612a5057565b634e487b7160e01b5f52602260045260245ffd5b91607f1691612a45565b5f9291815491612a7d83612a36565b8083529260018116908115612ad25750600114612a9957505050565b5f9081526020812093945091925b838310612ab8575060209250010190565b600181602092949394548385870101520191019190612aa7565b915050602093945060ff929192191683830152151560051b010190565b6001600160a01b03165f9081527f21811dc5bb11da2b2076245a2c14796806445512606a02297e6b92fb117281076020526040902090565b919082018092116102a457565b919082039182116102a457565b8051821015612b555760209160051b010190565b634e487b7160e01b5f52603260045260245ffd5b8115612b73570490565b634e487b7160e01b5f52601260045260245ffd5b9190811015612b555760051b0190565b908160209103126103aa575180151581036103aa5790565b9190811015612b555760051b81013590601e19813603018212156103aa5701803591906001600160401b0383116103aa576020018260051b360381136103aa579190565b818102929181159184041417156102a457565b8054821015612b55575f5260205f2001905f90565b15612c2257565b60405162461bcd60e51b815260206004820152601a60248201527910dbdb5c1d5d19481d5b9a5d08191bd95cdb89dd08195e1a5cdd60321b6044820152606490fd5b818110612c6f575050565b5f8155600101612c64565b612c848154612a36565b9081612c8e575050565b81601f5f9311600114612ca05750555b565b81835260208320612cbc91601f0160051c810190600101612c64565b8082528160208120915555565b612cf9612ce45f80516020614a868339815191525442612b34565b5f805160206149c68339815191525490612b69565b600101806001116102a45790565b60405190612d14826129aa565b5f6060838281528260208201528260408201520152565b612d33612d07565b50805f525f8051602061484683398151915260205260405f205415612da3575f525f8051602061484683398151915260205260405f2060405190612d76826129aa565b805482526001810154602083015260028101546040830152600301546001600160a01b0316606082015290565b60405162461bcd60e51b81526020600482015260126024820152711419595c88191bd95cdb89dd08195e1a5cdd60721b6044820152606490fd5b612de5612d07565b50805f525f80516020614a06833981519152602052612e0c600160405f2001541515612c1b565b5f525f80516020614a0683398151915260205260405f20600360405191612e32836129aa565b80546001600160a01b0316835260018101546020840152600281015460408401520154606082015290565b5f525f80516020614aa683398151915260205260405f2090612e828160018401613834565b15612e93575f5260205260405f2090565b60405162461bcd60e51b815260206004820152602c60248201527f4c69624f6666657256323a207065657220646f6573206e6f742068617665207460448201526b686973207265736f7572636560a01b6064820152608490fd5b5f8181527f23a233ee73076c3cf570675cfe9ff168e5811fe06bf68358a371b89594cf4245602052604090205415612f4c575f527f23a233ee73076c3cf570675cfe9ff168e5811fe06bf68358a371b89594cf424360205260405f2090565b60405162461bcd60e51b815260206004820152602560248201527f4c69624f6666657256323a207265736f75726365496420646f6573206e6f7420604482015264195e1a5cdd60da1b6064820152608490fd5b9260a094919796959260c0850198855260208501526040840152606083015260808201520152565b5f80516020614a4683398151915290612fde612cc9565b60018101928382116102a4575f198201908282116102a457835f5260205260405f2061300d6001820154612d2b565b865f526012820160205283600160405f206130516130496130376006880154600389015490612b27565b8561304189613223565b97888a613306565b94868a6135e6565b60ff198154168155015586857f8e4b27eeb3194deef0b3140997e6b82f53eb7350daceb9355268009b92f70add60206040518a8152a361309081612843565b80159081156131c9575b506131c157600b8101948554600181018091116102a45786555f80516020614986833981519152965f805160206149268339815191525494600186018096116102a4576131186131bc965f805160206149068339815191529a50805f80516020614926833981519152555f805160206148c683398151915254613c41565b7fc68e8cb1dc96033edd3ea2af8f58e28c84f27bc0c225295e9b1c873226f775e66040601486016131498482613e2e565b60168701855f5280602052825f205461316760178a01918254612b34565b9055855f526020525f8281205554928151908582526020820152a25f525f80516020614a06833981519152602052600260405f200155600881015494600a600d83015492015490549160405196879687612f9f565b0390a1565b505050505050565b600491506131d681612843565b145f61309a565b6040519060e082016001600160401b038111838210176112a4576040525f60c0838281528260208201528260408201528260608201528260808201528260a08201520152565b906040516132308161298f565b6132386131dd565b815260c080602083019261324a6131dd565b84526007819660ff815416835161326082612843565b52600c8101546020845101526008810154604084510152600a810154606084510152600b810154608084510152600981015460a084510152015482825101528051516132ab81612843565b84516132b682612843565b5260208151015160208551015260408151015160408551015260608151015160608551015260808151015160808551015260a08151015160a08551015251015191510152565b8115612b73570690565b919060209094939401928351519061331d82612843565b60a085510151915f198701968088116102a45760068896015480155f1461334c57505050505050505050600290565b116135ce5761335a81612843565b600181148015906135c4575b6135ba57506001955f1982019182116102a4578111156135af575b507f8984d2d0d7a9f2f70f22692c7c8344aa50cbed8c00a03c924457a31793ee8fdb5484519260608401519260808501519160408601519560c087910151945f92868811613593575b604001516133d791612bf3565b946133fd856133f86133e9878d612b34565b6133f3838c612b27565b612bf3565b612b34565b80821061357c575b505084871015613488575b5050505050509160c0915f93604083510152815160808101519081613469575b505061343b85612843565b60018503613450575b60a08251015251015290565b8360608351015284825161346382612843565b52613444565b60606134789101918251612b27565b9052836080835101525f80613430565b90929498508361349b9294965095612b34565b6004979093908483106134e5575050509050600181018091116134d25791839160c09360205f965101525b919381935f8080613410565b601185634e487b7160e01b5f525260245ffd5b6134f992916134f391612b27565b93612b34565b916135048184612b69565b8060010191826001116135695761351c9083956132fc565b61353e575b50509161353360c094925f9694612b27565b6020845101526134c6565b6002919293500180911161355657906135335f613521565b601186634e487b7160e01b5f525260245ffd5b601189634e487b7160e01b5f525260245ffd5b61358b929891610c3091612b34565b955f80613405565b92506133d79060406135a5888a612b34565b94919250506133ca565b5f9550925084613381565b9550505050505090565b5082871115613366565b50505050505050600390565b80156102a4575f190190565b9160c08091805151946135f886612843565b60208201958651519061360a82612843565b61361382612843565b61361c81612843565b0361372a575b5080515161362f81612843565b8551519061363c82612843565b61364582612843565b61364e81612843565b03613704575b51602081015194519460208601518091036136f9575b50604081015160408601518091036136ee575b50606081015160608601518091036136e3575b50608081015160808601518091036136d8575b5060a081015160a08601518091036136cd575b5001519201518092036136c7575050565b60070155565b60098501555f6136b6565b600b8501555f6136a3565b600a8501555f613690565b60088501555f61367d565b600c8501555f61366a565b84515161371081612843565b61371981612843565b60ff80198654169116178455613654565b61373f82516080606082015191015190612b27565b90600487515161374e81612843565b61375781612843565b036137e257906137dc917f1ec6d9e2b340c6cc9d5b6690a2d2a1558f252aa30668b45dbdb83bb7728984f26020808a510151604051908152a26137b65f80516020614986833981519152915f8051602061492683398151915254612b34565b9050805f80516020614926833981519152555f805160206148c683398151915254613c41565b5f613622565b508551516137ef81612843565b6137f881612843565b15613804575b506137dc565b61382e906137b65f80516020614986833981519152915f8051602061492683398151915254612b34565b5f6137fe565b6001915f520160205260405f2054151590565b92939190915f80516020614a46833981519152835f5260205260405f20945f1983019283116102a4578260ff865416613bc5575f1982019182116102a4578110613bf7575b5080151580613bee575b613be6575b5060018301928354938415613bce575b848311156131c157829055815f525f805160206149e6833981519152602052600184018094116102a45760030193835f528460205260405f2054845f525f805160206149e683398151915260205260405f2080548210613bc557600201548015613bc55761391f613924926133f388613f10565b612b69565b928361393c575b505050505f526020525f6040812055565b7f8984d2d0d7a9f2f70f22692c7c8344aa50cbed8c00a03c924457a31793ee8fe454917f8984d2d0d7a9f2f70f22692c7c8344aa50cbed8c00a03c924457a31793ee8fe5549360106139b860118401936139af61399b8987549b612b69565b94610c306139a98a836132fc565b8a612b34565b928391016141c2565b945f19861480613bbc575b613b5d575f925f87121580613b49575b613b28575b5f965b8888106139ed5750505050505061392b565b600188018089116102a457613a029083612bf3565b945f82121580613b1f575b15613a795750613a708180897f86c93961d1a070b7b56fd1214cf06ccc18a89a3869681be8b74533f85ddc82606020613a648b6001613a4e8f9a829b613bff565b5001613a5c81549e8f612b27565b90558c612b27565b604051908152a3613fc4565b975b01966139db565b949097613a8f613a898286612bf3565b86612b27565b613a998388612b27565b60405190613aa68261298f565b8282526020820152885490600160401b8210156112a457613ad0826001613ad694018c558b613bff565b90613c18565b87545f1981019081116102a457897fd2337a844680345b0a7ba3392e6ddbbf8ff6e72cc99a633764c322c920576b7a6020613b136001978c612b27565b604051908152a4613a72565b508a8212613a0d565b959250613b436001613b3a8587613bff565b50015493613fc4565b956139d8565b5082613b558887613bff565b5054106139d3565b60405162461bcd60e51b815260206004820152603160248201527f56657374696e673a20737461727445706f63682069732062656c6f77207468616044820152706e20616c6c207365656e2065706f63687360781b6064820152608490fd5b508715156139c3565b50505050505050565b935060068501545f1981019081116102a457936138ab565b90505f61389b565b50808211613896565b91505f61388c565b8054821015612b55575f5260205f209060011b01905f90565b9190613c2e576020816001925184550151910155565b634e487b7160e01b5f525f60045260245ffd5b613c49612cc9565b5f8051602061486683398151915254908315613e28575f198201928284116102a457613c82845f80516020614866833981519152613bff565b508054831495908615613e0d5750600284106131c15760011984018481116102a457670de0b6b3a76400009161391f6001613ccd613cd8945f80516020614866833981519152613bff565b500154945b85612bf3565b045f805160206148a683398151915254105f14613dea57628954408102908082046289544014901517156102a457629896809004935b7f8984d2d0d7a9f2f70f22692c7c8344aa50cbed8c00a03c924457a31793ee8fe2547f8984d2d0d7a9f2f70f22692c7c8344aa50cbed8c00a03c924457a31793ee8fe35490808710613de2575b50808611613dda575b5015613d8a575050613d856001915f80516020614866833981519152613bff565b500155565b91509160405191613d9a8361298f565b82526020820152600160401b8210156112a457613ad0826001612c9e94015f80516020614866833981519152555f80516020614866833981519152613bff565b94505f613d64565b95505f613d5b565b62a7d8c081029080820462a7d8c014901517156102a45762989680900493613d0e565b670de0b6b3a76400009161391f6001613cd893015494613cd2565b50505050565b613e388282613fd8565b80518051600684019392916001600160401b0382116112a457600160401b82116112a4576020908554838755808410613ef5575b5001845f5260205f205f5b838110613ee1575050505091613ed69160207f8b5d520ecd83f8a909da38eaeb49b5c1fb3d8d69e22e2b36ec0f5814b5c4aa439401519485600783015560088201555493604051928392602084526040602085015260608401906129e8565b9060408301520390a2565b600190602084519401938184015501613e77565b613f0a90875f5284845f209182019101612c64565b5f613e6c565b5f80516020614866833981519152545f91905f1981019081116102a4575f925b81811115613f3e5750505090565b613f488282612b27565b60011c93613f63855f80516020614866833981519152613bff565b509182548086115f14613f985750505060010154926001810180911115613f3057634e487b7160e01b5f52601160045260245ffd5b91959093509190841015613fb857505f1981019081116102a45790613f30565b60010154949350505050565b6001600160ff1b0381146102a45760010190565b90604051613fe58161298f565b606081525f60208201525060405191613ffd8361298f565b60405161401181610ba581600686016129e8565b8352600781015491602084019283526008820154908181146141bb576140378282612b34565b91815f198101116102a4576140a291614098916140545f91614376565b5f805160206149a68339815191525f805160206148e683398151915254918281116141a7575b508054831061419c575b506133f86140929293614376565b906143af565b6003840154612bf3565b91670de0b6b3a7640000830292808404670de0b6b3a764000014901517156102a4576140e06005655af3107a40006140e9950492015480928461429b565b93908551612b27565b84525f5b8181106140fc57505050505090565b80836001921061417f575b826141128583612b27565b101561416d5761412d87516141278684612b27565b90612b41565b51614139828951612b41565b525b6141458186612b41565b51614166826141608a519361415a8386612b41565b51612b27565b92612b41565b52016140ed565b5f614179828951612b41565b5261413b565b61419561418d828951612b41565b518751612b27565b8652614107565b5491506133f8614084565b6141b49193508290612b34565b915f61407a565b5050505090565b60010180545f199392908015614264575f905f1981019081116102a457929190925b808411156141f25750505050565b909192946142008287612b27565b60011c9561420e8786613bff565b5054808511156142305750505084600181018091116102a4575b9291906141e4565b91969092509083101561425d578061424c57505f199450505050565b5f1981019081116102a45790614228565b9450505050565b505050565b9061427382612a1f565b61428060405191826129c5565b8281528092614291601f1991612a1f565b0190602036910137565b929190801561436657816142ae91612b69565b905f6142ba8583614575565b8581809711614355575b50600101908186116102a4576133f38491610c30856142e66142ef968b612bf3565b60011c92612bf3565b916142f982614269565b945f5b83811061430b57505050509190565b836143168284612b27565b101561433b575b60019061432a8484612bf3565b614334828a612b41565b52016142fc565b811561431d579061434d6001916135da565b91905061431d565b61435f9250612b34565b845f6142c4565b50614372919250614269565b5f91565b5f80516020614a86833981519152545f805160206149c6833981519152545f1983019283116102a4576143ac92610c3091612bf3565b90565b905f805160206149a68339815191526143da5f805160206148e6833981519152546133f38142612b69565b82101561451c57829054116144a35780821161443b57614405906143fd83614587565b929091614587565b90929082840361441c57505050506143ac9061468a565b6143ac9450614435929161442f91612b34565b92612b34565b90612b69565b60405162461bcd60e51b815260206004820152605a60248201525f8051602061496683398151915260448201525f80516020614a268339815191526064820152790732067726561746572207468616e20746f54696d657374616d760341b608482015260a490fd5b60405162461bcd60e51b815260206004820152606560248201525f8051602061496683398151915260448201525f80516020614a2683398151915260648201527f73206c6f776572207468616e206669727374207265636f726465642074696d6560848201526407374616d760dc1b60a482015260c490fd5b60405162461bcd60e51b815260206004820152602b60248201527f4d65616e2070726963652063616e206368616e676520696e207375676765737460448201526a1959081a5b9d195c9d985b60aa1b6064820152608490fd5b9080821015614582575090565b905090565b905f805160206149a683398151915254916145a28382612b34565b6145bb5f805160206148e6833981519152548092612b69565b937f62e26dda6281f8a7bde8d0de6ef3dc4300cca63258b4641529b5bae7dc08902854918286105f1461460d5750505050614603825f80516020614a66833981519152612c06565b90549060031b1c90565b61391f6133f89261461d95612b34565b600181018091116102a4575f805160206148c6833981519152548015612b7357655af3107a4000045f80516020614a66833981519152545f1981019081116102a4576143ac9261467d610c30925f80516020614a66833981519152612c06565b90549060031b1c92612bf3565b5f805160206149a6833981519152549080821161479a576146c3916146ae91612b34565b5f805160206148e68339815191525490612b69565b5f80516020614a668339815191525481101561477957801561472f576146f6815f80516020614a66833981519152612c06565b90549060031b1c5f1982019182116102a4576147226143ac925f80516020614a66833981519152612c06565b90549060031b1c90612b34565b505f80516020614a668339815191525415612b55575f80516020614a668339815191525f527fd4d5257edb89e07e8d010c6ff96326eddf1fc220d3213e3ef3ddd6c1b3b706415490565b505f805160206148c6833981519152548015612b7357655af3107a40000490565b60405162461bcd60e51b815260206004820152605760248201527f4c69624f7261636c6550726963652e6765745265765072696365417454696d6560448201527f7374616d703a2074696d657374616d70206973206c6f776572207468616e2066606482015276069727374207265636f726465642074696d657374616d7604c1b608482015260a490fdfe13f5ac65dc9f5b2765e76eb17d53fe3e7065903823eb36bdd7841fa3f8dacbc088681cafafd55573d275926fd208ef2ba36c6dd5169e88841d4bc9bcd22530218984d2d0d7a9f2f70f22692c7c8344aa50cbed8c00a03c924457a31793ee8fe613f5ac65dc9f5b2765e76eb17d53fe3e7065903823eb36bdd7841fa3f8dacbbf8984d2d0d7a9f2f70f22692c7c8344aa50cbed8c00a03c924457a31793ee8fe162e26dda6281f8a7bde8d0de6ef3dc4300cca63258b4641529b5bae7dc08902a62e26dda6281f8a7bde8d0de6ef3dc4300cca63258b4641529b5bae7dc089027bd5605b4405616555ea2583cbd913ecf346c52c37520187117aadcea54e7d1498984d2d0d7a9f2f70f22692c7c8344aa50cbed8c00a03c924457a31793ee8fd24c69624f6666657256323a2062726f6b656e20696e76617269616e742c206e6f4c69624f7261636c6550726963652e6765744d65616e526576507269636542658984d2d0d7a9f2f70f22692c7c8344aa50cbed8c00a03c924457a31793ee8fd162e26dda6281f8a7bde8d0de6ef3dc4300cca63258b4641529b5bae7dc0890267d4f8ec43464738265ced6b7ed5f90007e9b7c34318bdd82d9249328b50bd358a8de0abb18de6e730ac24d7fe02c877d293683811fc3ac5d8e62e2a52c0d20d888681cafafd55573d275926fd208ef2ba36c6dd5169e88841d4bc9bcd2253022747765656e54696d657374616d70733a2066726f6d54696d657374616d702069a8de0abb18de6e730ac24d7fe02c877d293683811fc3ac5d8e62e2a52c0d20d762e26dda6281f8a7bde8d0de6ef3dc4300cca63258b4641529b5bae7dc0890297d4f8ec43464738265ced6b7ed5f90007e9b7c34318bdd82d9249328b50bd35723a233ee73076c3cf570675cfe9ff168e5811fe06bf68358a371b89594cf4242a264697066735822122035899c01086dfa9c3106cd59792afdc2f95ac9d9de509d418902f1035f9835f464736f6c634300081a0033","linkReferences":{}},"methodIdentifiers":{"getWorkerData(bytes32)":"a7533612","matchDealV2(address,bytes32[],bytes32[][])":"aa8673f0","moveResourcesFromDealV2(bytes32)":"ee22bfb7","reportAppCIDUpdatedV2((bytes4,bytes32))":"4492bd6b","reportWorkerActivatedV2(bytes32,bytes32,bytes32)":"852cdb01"},"storageLayout":{"storage":[],"types":{}},"devdoc":{"version":1,"kind":"dev","methods":{"matchDealV2(address,bytes32[],bytes32[][])":{"details":"Match Deal with Compute Units provided.There should be `bytes32[][] calldata peers` as well, but it is not supported by subgraph codegen.Ref to https://github.com/graphprotocol/graph-tooling/issues/342.","params":{"computeUnitIds":": PeerIds array that represents peers to match with Deal.","deal":": Deal to match.","peerIds":": PeerIds array that represents peers to match with Deal."}}},"events":{"UnitActivated(bytes32,bytes32,uint256)":{"details":"Emitted when a unit activated. Unit is activated when it returned from deal","params":{"commitmentId":"Commitment id","unitId":"Compute unit id which activated"}},"UnitDeactivated(bytes32,bytes32)":{"details":"Emitted when a unit deactivated. Unit is deactivated when it moved to deal","params":{"commitmentId":"Commitment id","unitId":"Compute unit id which deactivated"}}},"errors":{"CapacityCommitmentIsNotActive(uint8)":[{"details":"Capacity commitment is not active"}]}},"id":128}