{"abi":[{"type":"constructor","inputs":[],"stateMutability":"nonpayable"},{"type":"function","name":"activeUnitCount","inputs":[],"outputs":[{"name":"","type":"uint256","internalType":"uint256"}],"stateMutability":"view"},{"type":"function","name":"calculateRewardPool","inputs":[],"outputs":[],"stateMutability":"nonpayable"},{"type":"function","name":"capacity","inputs":[],"outputs":[{"name":"","type":"address","internalType":"contract ICapacity"}],"stateMutability":"view"},{"type":"function","name":"currentEpoch","inputs":[],"outputs":[{"name":"","type":"uint256","internalType":"uint256"}],"stateMutability":"view"},{"type":"function","name":"dealFactory","inputs":[],"outputs":[{"name":"","type":"address","internalType":"contract IDealFactory"}],"stateMutability":"view"},{"type":"function","name":"dealImpl","inputs":[],"outputs":[{"name":"","type":"address","internalType":"contract IDeal"}],"stateMutability":"view"},{"type":"function","name":"difficulty","inputs":[],"outputs":[{"name":"","type":"bytes32","internalType":"bytes32"}],"stateMutability":"view"},{"type":"function","name":"epochDuration","inputs":[],"outputs":[{"name":"","type":"uint256","internalType":"uint256"}],"stateMutability":"view"},{"type":"function","name":"fltCollateralPerUnit","inputs":[],"outputs":[{"name":"","type":"uint256","internalType":"uint256"}],"stateMutability":"view"},{"type":"function","name":"fltPrice","inputs":[],"outputs":[{"name":"","type":"uint256","internalType":"uint256"}],"stateMutability":"view"},{"type":"function","name":"getRewardPool","inputs":[{"name":"epoch","type":"uint256","internalType":"uint256"}],"outputs":[{"name":"","type":"uint256","internalType":"uint256"}],"stateMutability":"view"},{"type":"function","name":"grantAccess","inputs":[{"name":"account","type":"address","internalType":"address"}],"outputs":[],"stateMutability":"nonpayable"},{"type":"function","name":"initTimestamp","inputs":[],"outputs":[{"name":"","type":"uint256","internalType":"uint256"}],"stateMutability":"view"},{"type":"function","name":"initialize","inputs":[{"name":"epochDuration_","type":"uint256","internalType":"uint256"},{"name":"minDepositedEpochs_","type":"uint256","internalType":"uint256"},{"name":"minRematchingEpochs_","type":"uint256","internalType":"uint256"},{"name":"minProtocolVersion_","type":"uint256","internalType":"uint256"},{"name":"maxProtocolVersion_","type":"uint256","internalType":"uint256"},{"name":"dealImpl_","type":"address","internalType":"contract IDeal"},{"name":"isWhitelistEnabled_","type":"bool","internalType":"bool"},{"name":"fltPrice_","type":"uint256","internalType":"uint256"},{"name":"usdCollateralPerUnit_","type":"uint256","internalType":"uint256"},{"name":"usdTargetRevenuePerEpoch_","type":"uint256","internalType":"uint256"},{"name":"minDuration_","type":"uint256","internalType":"uint256"},{"name":"minRewardPerEpoch_","type":"uint256","internalType":"uint256"},{"name":"maxRewardPerEpoch_","type":"uint256","internalType":"uint256"},{"name":"vestingPeriodDuration_","type":"uint256","internalType":"uint256"},{"name":"vestingPeriodCount_","type":"uint256","internalType":"uint256"},{"name":"slashingRate_","type":"uint256","internalType":"uint256"},{"name":"minProofsPerEpoch_","type":"uint256","internalType":"uint256"},{"name":"maxProofsPerEpoch_","type":"uint256","internalType":"uint256"},{"name":"withdrawEpochsAfterFailed_","type":"uint256","internalType":"uint256"},{"name":"maxFailedRatio_","type":"uint256","internalType":"uint256"},{"name":"difficulty_","type":"bytes32","internalType":"bytes32"},{"name":"initRewardPool_","type":"uint256","internalType":"uint256"},{"name":"randomXProxy_","type":"address","internalType":"address"}],"outputs":[],"stateMutability":"nonpayable"},{"type":"function","name":"initializeModules","inputs":[{"name":"capacity_","type":"address","internalType":"contract ICapacity"},{"name":"market_","type":"address","internalType":"contract IMarket"},{"name":"dealFactory_","type":"address","internalType":"contract IDealFactory"}],"outputs":[],"stateMutability":"nonpayable"},{"type":"function","name":"isApproved","inputs":[{"name":"account","type":"address","internalType":"address"}],"outputs":[{"name":"","type":"bool","internalType":"bool"}],"stateMutability":"view"},{"type":"function","name":"market","inputs":[],"outputs":[{"name":"","type":"address","internalType":"contract IMarket"}],"stateMutability":"view"},{"type":"function","name":"maxFailedRatio","inputs":[],"outputs":[{"name":"","type":"uint256","internalType":"uint256"}],"stateMutability":"view"},{"type":"function","name":"maxProofsPerEpoch","inputs":[],"outputs":[{"name":"","type":"uint256","internalType":"uint256"}],"stateMutability":"view"},{"type":"function","name":"maxProtocolVersion","inputs":[],"outputs":[{"name":"","type":"uint256","internalType":"uint256"}],"stateMutability":"view"},{"type":"function","name":"maxRewardPerEpoch","inputs":[],"outputs":[{"name":"","type":"uint256","internalType":"uint256"}],"stateMutability":"view"},{"type":"function","name":"minDealDepositedEpochs","inputs":[],"outputs":[{"name":"","type":"uint256","internalType":"uint256"}],"stateMutability":"view"},{"type":"function","name":"minDealRematchingEpochs","inputs":[],"outputs":[{"name":"","type":"uint256","internalType":"uint256"}],"stateMutability":"view"},{"type":"function","name":"minDuration","inputs":[],"outputs":[{"name":"","type":"uint256","internalType":"uint256"}],"stateMutability":"view"},{"type":"function","name":"minProofsPerEpoch","inputs":[],"outputs":[{"name":"","type":"uint256","internalType":"uint256"}],"stateMutability":"view"},{"type":"function","name":"minProtocolVersion","inputs":[],"outputs":[{"name":"","type":"uint256","internalType":"uint256"}],"stateMutability":"view"},{"type":"function","name":"minRewardPerEpoch","inputs":[],"outputs":[{"name":"","type":"uint256","internalType":"uint256"}],"stateMutability":"view"},{"type":"function","name":"owner","inputs":[],"outputs":[{"name":"","type":"address","internalType":"address"}],"stateMutability":"view"},{"type":"function","name":"precision","inputs":[],"outputs":[{"name":"","type":"uint256","internalType":"uint256"}],"stateMutability":"pure"},{"type":"function","name":"proxiableUUID","inputs":[],"outputs":[{"name":"","type":"bytes32","internalType":"bytes32"}],"stateMutability":"view"},{"type":"function","name":"randomXProxy","inputs":[],"outputs":[{"name":"","type":"address","internalType":"address"}],"stateMutability":"view"},{"type":"function","name":"renounceOwnership","inputs":[],"outputs":[],"stateMutability":"nonpayable"},{"type":"function","name":"revokeAccess","inputs":[{"name":"account","type":"address","internalType":"address"}],"outputs":[],"stateMutability":"nonpayable"},{"type":"function","name":"setActiveUnitCount","inputs":[{"name":"activeUnitCount_","type":"uint256","internalType":"uint256"}],"outputs":[],"stateMutability":"nonpayable"},{"type":"function","name":"setCapacityConstant","inputs":[{"name":"constantType","type":"uint8","internalType":"enum ICapacityConst.CapacityConstantType"},{"name":"v","type":"uint256","internalType":"uint256"}],"outputs":[],"stateMutability":"nonpayable"},{"type":"function","name":"setConstant","inputs":[{"name":"constantType","type":"uint8","internalType":"enum IGlobalConst.ConstantType"},{"name":"v","type":"uint256","internalType":"uint256"}],"outputs":[],"stateMutability":"nonpayable"},{"type":"function","name":"setDealImpl","inputs":[{"name":"dealImpl_","type":"address","internalType":"contract IDeal"}],"outputs":[],"stateMutability":"nonpayable"},{"type":"function","name":"setDifficulty","inputs":[{"name":"difficulty_","type":"bytes32","internalType":"bytes32"}],"outputs":[],"stateMutability":"nonpayable"},{"type":"function","name":"setFLTPrice","inputs":[{"name":"fltPrice_","type":"uint256","internalType":"uint256"}],"outputs":[],"stateMutability":"nonpayable"},{"type":"function","name":"slashingRate","inputs":[],"outputs":[{"name":"","type":"uint256","internalType":"uint256"}],"stateMutability":"view"},{"type":"function","name":"transferOwnership","inputs":[{"name":"newOwner","type":"address","internalType":"address"}],"outputs":[],"stateMutability":"nonpayable"},{"type":"function","name":"upgradeTo","inputs":[{"name":"newImplementation","type":"address","internalType":"address"}],"outputs":[],"stateMutability":"nonpayable"},{"type":"function","name":"upgradeToAndCall","inputs":[{"name":"newImplementation","type":"address","internalType":"address"},{"name":"data","type":"bytes","internalType":"bytes"}],"outputs":[],"stateMutability":"payable"},{"type":"function","name":"usdCollateralPerUnit","inputs":[],"outputs":[{"name":"","type":"uint256","internalType":"uint256"}],"stateMutability":"view"},{"type":"function","name":"usdTargetRevenuePerEpoch","inputs":[],"outputs":[{"name":"","type":"uint256","internalType":"uint256"}],"stateMutability":"view"},{"type":"function","name":"vestingPeriodCount","inputs":[],"outputs":[{"name":"","type":"uint256","internalType":"uint256"}],"stateMutability":"view"},{"type":"function","name":"vestingPeriodDuration","inputs":[],"outputs":[{"name":"","type":"uint256","internalType":"uint256"}],"stateMutability":"view"},{"type":"function","name":"withdrawEpochsAfterFailed","inputs":[],"outputs":[{"name":"","type":"uint256","internalType":"uint256"}],"stateMutability":"view"},{"type":"event","name":"AdminChanged","inputs":[{"name":"previousAdmin","type":"address","indexed":false,"internalType":"address"},{"name":"newAdmin","type":"address","indexed":false,"internalType":"address"}],"anonymous":false},{"type":"event","name":"BeaconUpgraded","inputs":[{"name":"beacon","type":"address","indexed":true,"internalType":"address"}],"anonymous":false},{"type":"event","name":"CapacityConstantUpdated","inputs":[{"name":"constantType","type":"uint8","indexed":false,"internalType":"enum ICapacityConst.CapacityConstantType"},{"name":"newValue","type":"uint256","indexed":false,"internalType":"uint256"}],"anonymous":false},{"type":"event","name":"ConstantUpdated","inputs":[{"name":"constantType","type":"uint8","indexed":false,"internalType":"enum IGlobalConst.ConstantType"},{"name":"newValue","type":"uint256","indexed":false,"internalType":"uint256"}],"anonymous":false},{"type":"event","name":"DealImplSet","inputs":[{"name":"dealImpl","type":"address","indexed":false,"internalType":"contract IDeal"}],"anonymous":false},{"type":"event","name":"DifficultyUpdated","inputs":[{"name":"difficulty","type":"bytes32","indexed":false,"internalType":"bytes32"}],"anonymous":false},{"type":"event","name":"FLTPriceUpdated","inputs":[{"name":"newValue","type":"uint256","indexed":false,"internalType":"uint256"}],"anonymous":false},{"type":"event","name":"Initialized","inputs":[{"name":"version","type":"uint8","indexed":false,"internalType":"uint8"}],"anonymous":false},{"type":"event","name":"OwnershipTransferred","inputs":[{"name":"previousOwner","type":"address","indexed":true,"internalType":"address"},{"name":"newOwner","type":"address","indexed":true,"internalType":"address"}],"anonymous":false},{"type":"event","name":"Upgraded","inputs":[{"name":"implementation","type":"address","indexed":true,"internalType":"address"}],"anonymous":false},{"type":"event","name":"WhitelistAccessGranted","inputs":[{"name":"account","type":"address","indexed":false,"internalType":"address"}],"anonymous":false},{"type":"event","name":"WhitelistAccessRevoked","inputs":[{"name":"account","type":"address","indexed":false,"internalType":"address"}],"anonymous":false},{"type":"error","name":"OwnableInvalidOwner","inputs":[{"name":"owner","type":"address","internalType":"address"}]},{"type":"error","name":"OwnableUnauthorizedAccount","inputs":[{"name":"account","type":"address","internalType":"address"}]}],"bytecode":{"object":"0x60a080604052346100dc57306080526000549060ff8260081c1661008a575060ff8082160361004f575b60405161272f90816100e28239608051818181610e920152818161100b015261134f0152f35b60ff90811916176000557f7f26b83ff96e1f2b6a682f133852f6798a09c465da95921460cefb3847402498602060405160ff8152a138610029565b62461bcd60e51b815260206004820152602760248201527f496e697469616c697a61626c653a20636f6e747261637420697320696e697469604482015266616c697a696e6760c81b6064820152608490fd5b600080fdfe60806040908082526004918236101561001757600080fd5b600092833560e01c92836303eed73e14611a51575082630640d94114611a25578263069f7a64146119f95782630ae5e7391461197e57826313baa0691461195257826319cae4621461193557826321f39a531461154057826322cafa3a14611514578263280c5e51146114e85782633659cfe6146113285782633932dbf5146112845782634469ac9b146112585782634f1ef28614610f925782634ff0876a14610f665782634ff3dfd614610f3a57826352d1902d14610e7e5782635671576114610e525782635c11f4d414610e265782635cfa91f414610e065782635cfc1a5114610dd05782635ff2449114610da457826366aaf7b914610d78578263673448dd14610d065782636daecfbe14610b195782636f16797714610aed578263715018a614610a9557826372ea4f2314610a695782637358c57a14610a3d5782637667180814610a195782637e815381146109ed578263800fe125146109c157826380f556051461098b57826385e685311461091357826389e4a0ba146108505782638b2e44d2146107ac5782638da5cb5b14610776578263919f49f91461074057826392fd22b91461070a578263a376fb91146106de578263b49b0758146106a4578263d039ca44146104bb578263d3b5dc3b1461049d578263d6a5a04b14610467578263d6f563d814610364578263dad0189514610338578263e21750901461029657508163e79c627014610266575063f2fde38b1461023757600080fd5b3461026357602036600319011261026357610260610253611a7a565b61025b611de5565b611d83565b80f35b80fd5b90503461029257816003193601126102925760209060008051602061235a833981519152549051908152f35b5080fd5b90915034610334576020366003190112610334577fd1deff9e525a11d14a1263bcc0b80d6863292470cc5c6e5c433dfdeaa7ef0e2d9160209135906102d9611de5565b816000805160206123da833981519152556103036000805160206122da8339815191525483611ed7565b61031c826000805160206121fa83398151915254612058565b6000805160206123ba8339815191525551908152a180f35b8280fd5b83823461029257816003193601126102925760209060008051602061267a833981519152549051908152f35b8382346102925780600319360112610292578235838110156103345760243561038b611de5565b8391806103ed578160008051602061223a833981519152555b8351926103da577f201e1b27d7e31716378e28dd51ab57b07c4387abf9d578358af3b12737872f0e94955082526020820152a180f35b634e487b7160e01b855260218652602485fd5b8492506001810361040e578160008051602061247a833981519152556103a4565b835162461bcd60e51b81528061046381890160809060208152602260208201527f476c6f62616c436f6e73743a20756e6b6e6f776e20636f6e7374616e74207479604082015261706560f01b60608201520190565b0390fd5b8382346102925781600319360112610292576000805160206125ba8339815191525490516001600160a01b039091168152602090f35b83823461029257816003193601126102925760209051629896808152f35b90915034610334576060366003190112610334576001600160a01b0391813583811691908290036106a0576024359184831680930361069c57604435938585168095036106985761050a611de5565b60008051602061227a83398151915292835496871661064b5782156106085784156105c65785156105785750506001600160a01b03199485161790556000805160206122fa83398151915280548416909117905560008051602061233a833981519152805490921617905580f35b906020608492519162461bcd60e51b8352820152602260248201527f436f72653a206465616c20666163746f7279206973207a65726f206164647265604482015261737360f01b6064820152fd5b906020606492519162461bcd60e51b8352820152601c60248201527b436f72653a206d61726b6574206973207a65726f206164647265737360201b6044820152fd5b906020606492519162461bcd60e51b8352820152601e60248201527f436f72653a206361706163697479206973207a65726f206164647265737300006044820152fd5b906020608492519162461bcd60e51b8352820152602160248201527f436f72653a206d6f64756c657320616c726561647920696e697469616c697a656044820152601960fa1b6064820152fd5b8680fd5b8580fd5b8480fd5b83346102635780600319360112610263576102606000805160206123da833981519152546000805160206122da8339815191525490611ed7565b83823461029257816003193601126102925760209060008051602061259a833981519152549051908152f35b83823461029257816003193601126102925760008051602061233a8339815191525490516001600160a01b039091168152602090f35b83823461029257816003193601126102925760008051602061237a8339815191525490516001600160a01b039091168152602090f35b83823461029257816003193601126102925760008051602061257a8339815191525490516001600160a01b039091168152602090f35b909150346103345760203660031901126103345760008051602061227a83398151915254813592906001600160a01b0316330361080e578361026084806000805160206122da833981519152556000805160206123da83398151915254611ed7565b906020606492519162461bcd60e51b8352820152601c60248201527b436f72653a2063616c6c6572206973206e6f7420636170616369747960201b6044820152fd5b9150346103345760203660031901126103345761086b611a7a565b610873611de5565b6001600160a01b031691823b156108bf57506000805160206125ba83398151915280546001600160a01b031916831790555190815260008051602061221a83398151915290602090a180f35b6020608492519162461bcd60e51b8352820152602960248201527f4e6577206465616c20696d706c656d656e746174696f6e206973206e6f7420616044820152680818dbdb9d1c9858dd60ba1b6064820152fd5b8382346102925760203660031901126102925760207fbf16401515c3259ef6fd204d106ff51a2a7185ecd4e3ed51d42612a218fc8c7791610952611a7a565b61095a611de5565b6001600160a01b031680855260008051602061261a8339815191528352818520805460ff191690559051908152a180f35b8382346102925781600319360112610292576000805160206122fa8339815191525490516001600160a01b039091168152602090f35b8382346102925781600319360112610292576020906000805160206122ba833981519152549051908152f35b8382346102925781600319360112610292576020906000805160206122da833981519152549051908152f35b838234610292578160031936011261029257602090610a36611d43565b9051908152f35b8382346102925781600319360112610292576020906000805160206126ba833981519152549051908152f35b83823461029257816003193601126102925760209060008051602061223a833981519152549051908152f35b8334610263578060031936011261026357610aae611de5565b60008051602061257a83398151915280546001600160a01b0319811690915581906001600160a01b031660008051602061251a8339815191528280a380f35b83823461029257816003193601126102925760209060008051602061239a833981519152549051908152f35b8382346102925780600319360112610292578235600a81101561033457602435610b41611de5565b839180610b90578160008051602061263a833981519152555b8351926103da577f12ef687a8e3257309ee19f0dd17e311b1e2d18c1d585528c4116af913b0c4af794955082526020820152a180f35b84925060018103610bdb57816000805160206121fa83398151915255610bc56000805160206123da8339815191525483612058565b6000805160206123ba833981519152555b610b5a565b84925060028103610bfc57816000805160206126da83398151915255610b5a565b84925060038103610c1d578160008051602061239a83398151915255610b5a565b849250858103610c3d578160008051602061259a83398151915255610b5a565b84925060058103610c82578160008051602061231a83398151915255610bd66000805160206123da833981519152546000805160206122da8339815191525490611ed7565b84925060068103610ca357816000805160206124da83398151915255610b5a565b84925060078103610cc457816000805160206122ba83398151915255610b5a565b84925060088103610ce5578160008051602061235a83398151915255610b5a565b8492506009810361040e578160008051602061249a83398151915255610b5a565b8382346102925760203660031901126102925790602091610d25611a7a565b9160ff60008051602061255a833981519152541615928315610d4c575b5050519015158152f35b6001600160a01b0316815260008051602061261a83398151915284528190205460ff1691508380610d42565b83823461029257816003193601126102925760209060008051602061231a833981519152549051908152f35b8382346102925781600319360112610292576020906000805160206123da833981519152549051908152f35b83823461029257816003193601126102925760008051602061227a8339815191525490516001600160a01b039091168152602090f35b9083346102635760203660031901126102635750610a3660209235611c62565b8382346102925781600319360112610292576020906000805160206124da833981519152549051908152f35b83823461029257816003193601126102925760209060008051602061263a833981519152549051908152f35b8334610263578060031936011261026357507f00000000000000000000000000000000000000000000000000000000000000006001600160a01b03163003610ed757602082516000805160206124ba8339815191528152f35b6020608492519162461bcd60e51b8352820152603860248201527f555550535570677261646561626c653a206d757374206e6f742062652063616c6044820152771b1959081d1a1c9bdd59da0819195b1959d85d1958d85b1b60421b6064820152fd5b8382346102925781600319360112610292576020906000805160206123ba833981519152549051908152f35b83823461029257816003193601126102925760209060008051602061241a833981519152549051908152f35b91508060031936011261033457610fa7611a7a565b90602435906001600160401b0382116106a057366023830112156106a05781840135610fd281611b04565b610fde83519182611ae1565b81815286602094858301933660248284010111610334578060248893018637830101526001600160a01b037f000000000000000000000000000000000000000000000000000000000000000081169061103930831415611b63565b6110566000805160206124ba833981519152928284541614611bb2565b61105e611de5565b60008051602061225a8339815191525460ff1615611086575050505050506102609150612095565b869293949596169085516352d1902d60e01b815287818a81865afa8a9181611225575b506110f657865162461bcd60e51b8152808a01899052602e602482015260008051602061269a83398151915260448201526d6f6e206973206e6f74205555505360901b6064820152608490fd5b9791929396959497036111d0575061110d82612095565b60008051602061253a8339815191528780a2858451158015906111c8575b611139575b50505050505080f35b806111b29684519661114a88611ac6565b602788527f416464726573733a206c6f772d6c6576656c2064656c65676174652063616c6c87890152660819985a5b195960ca1b868901525190845af4913d156111be573d6111a461119b82611b04565b92519283611ae1565b81528681943d92013e612125565b50388080808085611130565b5060609250612125565b50600161112b565b835162461bcd60e51b8152908101859052602960248201527f45524331393637557067726164653a20756e737570706f727465642070726f786044820152681a58589b195555525160ba1b6064820152608490fd5b9091508881813d8311611251575b61123d8183611ae1565b8101031261124d575190386110a9565b8a80fd5b503d611233565b8382346102925781600319360112610292576020906000805160206125da833981519152549051908152f35b838234610292576020366003190112610292578235906112a2611de5565b816000805160206123fa83398151915280546000805160206124fa83398151915255556112cd611d43565b600181018091116113155760008051602061265a83398151915255519081527f0b5731e9746c6761d5cc9e62a3f59221163bf9ea25d7eb047f33913153f23c9790602090a180f35b634e487b7160e01b845260118552602484fd5b915034610334576020806003193601126114e457611344611a7a565b916001600160a01b037f0000000000000000000000000000000000000000000000000000000000000000811661137c30821415611b63565b6113996000805160206124ba833981519152918383541614611bb2565b6113a1611de5565b8251848101929091906001600160401b038411838510176114d15783855288835260008051602061225a8339815191525460ff16156113ea575050505050506102609150612095565b869293949596169085516352d1902d60e01b815287818a81865afa8a91816114a2575b5061145a57865162461bcd60e51b8152808a01899052602e602482015260008051602061269a83398151915260448201526d6f6e206973206e6f74205555505360901b6064820152608490fd5b9791929396959497036111d0575061147182612095565b60008051602061253a8339815191528780a28584511580159061149b576111395750505050505080f35b508061112b565b9091508881813d83116114ca575b6114ba8183611ae1565b8101031261124d5751903861140d565b503d6114b0565b634e487b7160e01b895260418852602489fd5b8380fd5b83823461029257816003193601126102925760209060008051602061249a833981519152549051908152f35b8382346102925781600319360112610292576020906000805160206121fa833981519152549051908152f35b90915034610334576102e03660031901126103345760a4356001600160a01b03818116918290036106a05760c4359283151580940361069c5760e43590610104359061028435906102c4359485168095036119315788549660ff808960081c16159889809a611925575b801561190f575b156118b55760008051602061221a8339815191529896938a6020999794848f9561183999966116cb9660ff199560018783161783556118a4575b5061160482825460081c166115ff81611e1e565b611e1e565b61160d33611d83565b5460081c169361161c85611e1e565b426000805160206126ba833981519152553560008051602061241a8339815191525561164784611e1e565b60243560008051602061223a8339815191525560443560008051602061247a833981519152556064356000805160206125da833981519152556084356000805160206125fa8339815191525561169c84611e1e565b6116a584611e1e565b6116ae84611e1e565b60008051602061255a833981519152928354169116179055611e1e565b6101443560008051602061263a833981519152556000805160206121fa8339815191528290556101e4356000805160206126da833981519152556102443560008051602061239a833981519152556102643560008051602061259a833981519152556101243560008051602061231a83398151915255610164356000805160206124da83398151915255610184356000805160206122ba833981519152556101a43560008051602061245a833981519152556101c43560008051602061267a833981519152556102043560008051602061235a833981519152556102243560008051602061249a833981519152556000805160206124fa8339815191528190556000805160206123fa8339815191525560008051602061237a83398151915280546001600160a01b03199081169095179055611823611808611d43565b8a519061181482611a95565b81526102a43588820152611e7e565b816000805160206123da83398151915255612058565b6000805160206123ba83398151915255816000805160206125ba833981519152918254161790558451908152a161186e575080f35b60207f7f26b83ff96e1f2b6a682f133852f6798a09c465da95921460cefb38474024989161ff001984541684555160018152a180f35b61ffff1916610101178155386115eb565b8a5162461bcd60e51b8152602081860152602e60248201527f496e697469616c697a61626c653a20636f6e747261637420697320616c72656160448201526d191e481a5b9a5d1a585b1a5e995960921b6064820152608490fd5b50303b1580156115b157506001828216146115b1565b506001828216106115aa565b8880fd5b838234610292578160031936011261029257602090610a36611b1f565b8382346102925781600319360112610292576020906000805160206126da833981519152549051908152f35b8382346102925760203660031901126102925760207fab9a16269e54e8ae681de331f196f57a4b158e28d53818a27ff5e5698e291749916119bd611a7a565b6119c5611de5565b6001600160a01b031680855260008051602061261a8339815191528352818520805460ff191660011790559051908152a180f35b83823461029257816003193601126102925760209060008051602061247a833981519152549051908152f35b83823461029257816003193601126102925760209060008051602061245a833981519152549051908152f35b8490346102925781600319360112610292576020906000805160206125fa833981519152548152f35b600435906001600160a01b0382168203611a9057565b600080fd5b604081019081106001600160401b03821117611ab057604052565b634e487b7160e01b600052604160045260246000fd5b606081019081106001600160401b03821117611ab057604052565b601f909101601f19168101906001600160401b03821190821017611ab057604052565b6001600160401b038111611ab057601f01601f191660200190565b611b27611d43565b60008051602061265a833981519152541115611b50576000805160206124fa8339815191525490565b6000805160206123fa8339815191525490565b15611b6a57565b60405162461bcd60e51b815260206004820152602c602482015260008051602061243a83398151915260448201526b19195b1959d85d1958d85b1b60a21b6064820152608490fd5b15611bb957565b60405162461bcd60e51b815260206004820152602c602482015260008051602061243a83398151915260448201526b6163746976652070726f787960a01b6064820152608490fd5b8115611c0b570490565b634e487b7160e01b600052601260045260246000fd5b60008051602061229a8339815191528054821015611c4c5760005260206000209060011b0190600090565b634e487b7160e01b600052603260045260246000fd5b60008051602061229a833981519152546000801991828101908111611d2f5791909182935b81841115611c96575050505090565b9091929382850194858111611cdd57600195861c91611cb483611c21565b50918254808611600014611cf357505050850154948101809111611cdd57915b90929192611c87565b634e487b7160e01b600052601160045260246000fd5b91979095509190841015611d2457505083810190811115611cd457634e487b7160e01b600052601160045260246000fd5b015495945050505050565b634e487b7160e01b82526011600452602482fd5b6000805160206126ba833981519152544203428111611cdd5760008051602061241a83398151915254611d7591611c01565b60010180600111611cdd5790565b6001600160a01b03908116908115611dcc5760008051602061257a83398151915280546001600160a01b0319811684179091551660008051602061251a833981519152600080a3565b604051631e4fbdf760e01b815260006004820152602490fd5b60008051602061257a833981519152546001600160a01b03163303611e0657565b60405163118cdaa760e01b8152336004820152602490fd5b15611e2557565b60405162461bcd60e51b815260206004820152602b60248201527f496e697469616c697a61626c653a20636f6e7472616374206973206e6f74206960448201526a6e697469616c697a696e6760a81b6064820152608490fd5b60008051602061229a8339815191528054600160401b811015611ab057611eaa91600182019055611c21565b919091611ec1576020816001925184550151910155565b634e487b7160e01b600052600060045260246000fd5b90611ee0611d43565b60008051602061229a83398151915254821561205257600019810192600082851161202a5750611f0f84611c21565b50805484149290831561204657506002811061203e576001198101908111611cdd57611f3c600191611c21565b500154905b8582029082159683830414871715611cdd57611f5c91611c01565b60009060008051602061231a8339815191525410600014611fea57506000805160206124da833981519152549462895440808302928304141715611cdd5762989680900493808510611fe2575b505b15611fc15750611fbc600191611c21565b500155565b9050611fe09160405191611fd483611a95565b82526020820152611e7e565b565b935038611fa9565b6000805160206122ba833981519152549562a7d8c080840293840414171561202a575062989680900493808511612022575b50611fab565b93503861201c565b634e487b7160e01b81526011600452602490fd5b505050505050565b60019150015490611f41565b50505050565b629896809182820291808304841490151715611cdd5761207791611c01565b670de0b6b3a764000090818102918183041490151715611cdd570490565b803b156120ca576000805160206124ba83398151915280546001600160a01b0319166001600160a01b03909216919091179055565b60405162461bcd60e51b815260206004820152602d60248201527f455243313936373a206e657720696d706c656d656e746174696f6e206973206e60448201526c1bdd08184818dbdb9d1c9858dd609a1b6064820152608490fd5b919290156121875750815115612139575090565b3b156121425790565b60405162461bcd60e51b815260206004820152601d60248201527f416464726573733a2063616c6c20746f206e6f6e2d636f6e74726163740000006044820152606490fd5b82519091501561219a5750805190602001fd5b6040519062461bcd60e51b82528160208060048301528251908160248401526000935b8285106121e0575050604492506000838284010152601f80199101168101030190fd5b84810182015186860160440152938101938593506121bd56fe8984d2d0d7a9f2f70f22692c7c8344aa50cbed8c00a03c924457a31793ee8fd57af5c74f6888b661f9fb5dd1005c495f8e7d547682930c3dd1697dad117f69fc60ac4d56f7e69877e4b95a6e91f4b3612278b580a93ea7637885a480e01503184910fdfa16fed3260ed0e7147f7cc6da11a60208b5b9406d12a635614ffd91432aa6b2026f27b721aa31227fdbd84cf04c442933bec8e7f3be70f27c62fe42a08984d2d0d7a9f2f70f22692c7c8344aa50cbed8c00a03c924457a31793ee8fe48984d2d0d7a9f2f70f22692c7c8344aa50cbed8c00a03c924457a31793ee8fe18984d2d0d7a9f2f70f22692c7c8344aa50cbed8c00a03c924457a31793ee8fd32aa6b2026f27b721aa31227fdbd84cf04c442933bec8e7f3be70f27c62fe42a18984d2d0d7a9f2f70f22692c7c8344aa50cbed8c00a03c924457a31793ee8fdf2aa6b2026f27b721aa31227fdbd84cf04c442933bec8e7f3be70f27c62fe42a38984d2d0d7a9f2f70f22692c7c8344aa50cbed8c00a03c924457a31793ee8fda8984d2d0d7a9f2f70f22692c7c8344aa50cbed8c00a03c924457a31793ee8fd28984d2d0d7a9f2f70f22692c7c8344aa50cbed8c00a03c924457a31793ee8fd88984d2d0d7a9f2f70f22692c7c8344aa50cbed8c00a03c924457a31793ee8fd68984d2d0d7a9f2f70f22692c7c8344aa50cbed8c00a03c924457a31793ee8fd18984d2d0d7a9f2f70f22692c7c8344aa50cbed8c00a03c924457a31793ee8fdd7d4f8ec43464738265ced6b7ed5f90007e9b7c34318bdd82d9249328b50bd35846756e6374696f6e206d7573742062652063616c6c6564207468726f756768208984d2d0d7a9f2f70f22692c7c8344aa50cbed8c00a03c924457a31793ee8fe260ac4d56f7e69877e4b95a6e91f4b3612278b580a93ea7637885a480e01503198984d2d0d7a9f2f70f22692c7c8344aa50cbed8c00a03c924457a31793ee8fdb360894a13ba1a3210667c828492db98dca3e2076cc3735a920a3ca505d382bbc8984d2d0d7a9f2f70f22692c7c8344aa50cbed8c00a03c924457a31793ee8fe08984d2d0d7a9f2f70f22692c7c8344aa50cbed8c00a03c924457a31793ee8fdc8be0079c531659141344cd1fd0a4f28419497f9722a3daafe3b4186f6b6457e0bc7cd75a20ee27fd9adebab32041f755214dbc6bffa90cc0225b39da2e5c2d3b1f364d5cd815a7922b0808e606a82391642c337151b3addb3f98eaf82cfb172eb13d3e7783d509d8d65d3e1e62ec0b103a07e0cbfa1ee74ae19127f297dddfcc8984d2d0d7a9f2f70f22692c7c8344aa50cbed8c00a03c924457a31793ee8fd92aa6b2026f27b721aa31227fdbd84cf04c442933bec8e7f3be70f27c62fe42a260ac4d56f7e69877e4b95a6e91f4b3612278b580a93ea7637885a480e015031a60ac4d56f7e69877e4b95a6e91f4b3612278b580a93ea7637885a480e015031b1f364d5cd815a7922b0808e606a82391642c337151b3addb3f98eaf82cfb172f8984d2d0d7a9f2f70f22692c7c8344aa50cbed8c00a03c924457a31793ee8fd48984d2d0d7a9f2f70f22692c7c8344aa50cbed8c00a03c924457a31793ee8fde8984d2d0d7a9f2f70f22692c7c8344aa50cbed8c00a03c924457a31793ee8fe345524331393637557067726164653a206e657720696d706c656d656e746174697d4f8ec43464738265ced6b7ed5f90007e9b7c34318bdd82d9249328b50bd3578984d2d0d7a9f2f70f22692c7c8344aa50cbed8c00a03c924457a31793ee8fd7a2646970667358221220dda2d70a6ad7c2b86d2434ad8c8eaadc6e7f45ee1eaf6f915711966068783cca64736f6c63430008180033","linkReferences":{}},"methodIdentifiers":{"activeUnitCount()":"7e815381","calculateRewardPool()":"b49b0758","capacity()":"5cfc1a51","currentEpoch()":"76671808","dealFactory()":"92fd22b9","dealImpl()":"d6a5a04b","difficulty()":"19cae462","epochDuration()":"4ff0876a","fltCollateralPerUnit()":"4ff3dfd6","fltPrice()":"5ff24491","getRewardPool(uint256)":"5cfa91f4","grantAccess(address)":"0ae5e739","initTimestamp()":"7358c57a","initialize(uint256,uint256,uint256,uint256,uint256,address,bool,uint256,uint256,uint256,uint256,uint256,uint256,uint256,uint256,uint256,uint256,uint256,uint256,uint256,bytes32,uint256,address)":"21f39a53","initializeModules(address,address,address)":"d039ca44","isApproved(address)":"673448dd","market()":"80f55605","maxFailedRatio()":"a376fb91","maxProofsPerEpoch()":"280c5e51","maxProtocolVersion()":"03eed73e","maxRewardPerEpoch()":"800fe125","minDealDepositedEpochs()":"72ea4f23","minDealRematchingEpochs()":"069f7a64","minDuration()":"56715761","minProofsPerEpoch()":"e79c6270","minProtocolVersion()":"4469ac9b","minRewardPerEpoch()":"5c11f4d4","owner()":"8da5cb5b","precision()":"d3b5dc3b","proxiableUUID()":"52d1902d","randomXProxy()":"919f49f9","renounceOwnership()":"715018a6","revokeAccess(address)":"85e68531","setActiveUnitCount(uint256)":"8b2e44d2","setCapacityConstant(uint8,uint256)":"6daecfbe","setConstant(uint8,uint256)":"d6f563d8","setDealImpl(address)":"89e4a0ba","setDifficulty(bytes32)":"3932dbf5","setFLTPrice(uint256)":"e2175090","slashingRate()":"13baa069","transferOwnership(address)":"f2fde38b","upgradeTo(address)":"3659cfe6","upgradeToAndCall(address,bytes)":"4f1ef286","usdCollateralPerUnit()":"22cafa3a","usdTargetRevenuePerEpoch()":"66aaf7b9","vestingPeriodCount()":"dad01895","vestingPeriodDuration()":"0640d941","withdrawEpochsAfterFailed()":"6f167977"},"storageLayout":{"storage":[{"astId":4469,"contract":"src/core/Core.sol:Core","label":"_initialized","offset":0,"slot":"0","type":"t_uint8"},{"astId":4472,"contract":"src/core/Core.sol:Core","label":"_initializing","offset":1,"slot":"0","type":"t_bool"},{"astId":4451,"contract":"src/core/Core.sol:Core","label":"__gap","offset":0,"slot":"1","type":"t_array(t_uint256)50_storage"},{"astId":4766,"contract":"src/core/Core.sol:Core","label":"__gap","offset":0,"slot":"51","type":"t_array(t_uint256)50_storage"}],"types":{"t_array(t_uint256)50_storage":{"encoding":"inplace","label":"uint256[50]","numberOfBytes":"1600","base":"t_uint256"},"t_bool":{"encoding":"inplace","label":"bool","numberOfBytes":"1"},"t_uint256":{"encoding":"inplace","label":"uint256","numberOfBytes":"32"},"t_uint8":{"encoding":"inplace","label":"uint8","numberOfBytes":"1"}}},"devdoc":{"version":1,"kind":"dev","methods":{"activeUnitCount()":{"details":"Returns the active compute unit count"},"capacity()":{"details":"Returns capacity module","returns":{"_0":"capacity module address"}},"currentEpoch()":{"details":"This function mirrored in:- ts-client/src/dealMatcherClient/dealMatcherClient.ts- subgraph/src/contracts.ts"},"difficulty()":{"details":"Returns the difficulty for randomX"},"epochDuration()":{"details":"Returns epoch duration","returns":{"_0":"epochDuration in seconds"}},"fltCollateralPerUnit()":{"details":"Returns the flt collateral per compute unit for creating CC"},"fltPrice()":{"details":"Returns the flt price"},"getRewardPool(uint256)":{"details":"Returns the reward pool per epoch"},"initTimestamp()":{"details":"Returns epoch init timestamp","returns":{"_0":"initTimestamp in seconds"}},"initialize(uint256,uint256,uint256,uint256,uint256,address,bool,uint256,uint256,uint256,uint256,uint256,uint256,uint256,uint256,uint256,uint256,uint256,uint256,uint256,bytes32,uint256,address)":{"details":"initializes the contract","params":{"dealImpl_":"Deal implementation contract address","epochDuration_":"Epoch duration in seconds","minDepositedEpochs_":"Min deposited Epochs constant for new deals","minRematchingEpochs_":"Min rematching Epochs constant for all deals"}},"market()":{"details":"Returns market module","returns":{"_0":"market module address"}},"maxFailedRatio()":{"details":"Returns the max failed ratio for CC"},"maxProofsPerEpoch()":{"details":"Returns the max randomX proofs per epoch"},"maxProtocolVersion()":{"details":"Returns max protocol version which can be specified in offers and deals","returns":{"_0":"max protocol version"}},"maxRewardPerEpoch()":{"details":"Returns the max reward pool per epoch"},"minDealDepositedEpochs()":{"details":"Returns min deposited Epochs constant for new deals","returns":{"_0":"min deposited Epochs for new deals"}},"minDealRematchingEpochs()":{"details":"Returns min rematching Epochs constant for all deals","returns":{"_0":"min rematching Epochs for all deals"}},"minDuration()":{"details":"Returns the min duration of CC in Epochs"},"minProofsPerEpoch()":{"details":"Returns the min required randomX proofs per epoch for the 1 CU.If lower than this - CU is failed and CC slashed."},"minProtocolVersion()":{"details":"Returns min protocol version which can be specified in offers and deals","returns":{"_0":"min protocol version"}},"minRewardPerEpoch()":{"details":"Returns the min reward pool per epoch"},"owner()":{"details":"Returns the address of the current owner."},"precision()":{"details":"Returns precision for decimal values (USD, percentage)"},"proxiableUUID()":{"details":"Implementation of the ERC1822 {proxiableUUID} function. This returns the storage slot used by the implementation. It is used to validate the implementation's compatibility when performing an upgrade. IMPORTANT: A proxy pointing at a proxiable contract should not be considered proxiable itself, because this risks bricking a proxy that upgrades to it, by delegating to itself until out of gas. Thus it is critical that this function revert if invoked through a proxy. This is guaranteed by the `notDelegated` modifier."},"randomXProxy()":{"details":"Returns the randomX proxy address for verification of randomX proofs"},"renounceOwnership()":{"details":"Leaves the contract without owner. It will not be possible to call `onlyOwner` functions. Can only be called by the current owner. NOTE: Renouncing ownership will leave the contract without an owner, thereby disabling any functionality that is only available to the owner."},"setCapacityConstant(uint8,uint256)":{"details":"Sets a constant with a uint256 value"},"setConstant(uint8,uint256)":{"details":"Sets constant with uint256 value","params":{"constantType":"Constant type","v":"New uint256 value"}},"setDifficulty(bytes32)":{"details":"Sets the randomX difficulty"},"setFLTPrice(uint256)":{"details":"Sets the flt price"},"slashingRate()":{"details":"Returns the slashing rate for failed CU"},"transferOwnership(address)":{"details":"Transfers ownership of the contract to a new account (`newOwner`). Can only be called by the current owner."},"upgradeTo(address)":{"details":"Upgrade the implementation of the proxy to `newImplementation`. Calls {_authorizeUpgrade}. Emits an {Upgraded} event."},"upgradeToAndCall(address,bytes)":{"details":"Upgrade the implementation of the proxy to `newImplementation`, and subsequently execute the function call encoded in `data`. Calls {_authorizeUpgrade}. Emits an {Upgraded} event."},"usdCollateralPerUnit()":{"details":"Returns the usd collateral per compute for creating CC"},"usdTargetRevenuePerEpoch()":{"details":"Returns the target revenue in usd value per epoch"},"vestingPeriodCount()":{"details":"Returns the total vesting periods"},"vestingPeriodDuration()":{"details":"Returns the vesting duration for one period in Epochs"},"withdrawEpochsAfterFailed()":{"details":"Returns the delay for withdraw collateral in Epochs after failed CC"}},"events":{"AdminChanged(address,address)":{"details":"Emitted when the admin account has changed."},"BeaconUpgraded(address)":{"details":"Emitted when the beacon is changed."},"CapacityConstantUpdated(uint8,uint256)":{"details":"Emitted when a constant with a uint256 value is updated","params":{"constantType":"The type of the constant","newValue":"The new value of the constant"}},"ConstantUpdated(uint8,uint256)":{"details":"Emitted when a constant with uint256 value is updated","params":{"constantType":"Constant type","newValue":"New uint256 value"}},"DifficultyUpdated(bytes32)":{"details":"Emitted when the difficulty is updated","params":{"difficulty":"The new value of the difficulty"}},"FLTPriceUpdated(uint256)":{"details":"Emitted when the FLT price is updated","params":{"newValue":"The new value of the FLT price"}},"Initialized(uint8)":{"details":"Triggered when the contract has been initialized or reinitialized."},"Upgraded(address)":{"details":"Emitted when the implementation is upgraded."}},"errors":{"OwnableInvalidOwner(address)":[{"details":"The owner is not a valid owner account. (eg. `address(0)`)"}],"OwnableUnauthorizedAccount(address)":[{"details":"The caller account is not authorized to perform an operation."}]}},"id":70}