{"abi":[{"type":"function","name":"commonParent","inputs":[{"name":"subnet1","type":"tuple","internalType":"struct SubnetID","components":[{"name":"root","type":"uint64","internalType":"uint64"},{"name":"route","type":"address[]","internalType":"address[]"}]},{"name":"subnet2","type":"tuple","internalType":"struct SubnetID","components":[{"name":"root","type":"uint64","internalType":"uint64"},{"name":"route","type":"address[]","internalType":"address[]"}]}],"outputs":[{"name":"","type":"tuple","internalType":"struct SubnetID","components":[{"name":"root","type":"uint64","internalType":"uint64"},{"name":"route","type":"address[]","internalType":"address[]"}]}],"stateMutability":"pure"},{"type":"function","name":"createSubnetId","inputs":[{"name":"subnet","type":"tuple","internalType":"struct SubnetID","components":[{"name":"root","type":"uint64","internalType":"uint64"},{"name":"route","type":"address[]","internalType":"address[]"}]},{"name":"actor","type":"address","internalType":"address"}],"outputs":[{"name":"newSubnet","type":"tuple","internalType":"struct SubnetID","components":[{"name":"root","type":"uint64","internalType":"uint64"},{"name":"route","type":"address[]","internalType":"address[]"}]}],"stateMutability":"pure"},{"type":"function","name":"down","inputs":[{"name":"subnet1","type":"tuple","internalType":"struct SubnetID","components":[{"name":"root","type":"uint64","internalType":"uint64"},{"name":"route","type":"address[]","internalType":"address[]"}]},{"name":"subnet2","type":"tuple","internalType":"struct SubnetID","components":[{"name":"root","type":"uint64","internalType":"uint64"},{"name":"route","type":"address[]","internalType":"address[]"}]}],"outputs":[{"name":"","type":"tuple","internalType":"struct SubnetID","components":[{"name":"root","type":"uint64","internalType":"uint64"},{"name":"route","type":"address[]","internalType":"address[]"}]}],"stateMutability":"pure"},{"type":"function","name":"equals","inputs":[{"name":"subnet1","type":"tuple","internalType":"struct SubnetID","components":[{"name":"root","type":"uint64","internalType":"uint64"},{"name":"route","type":"address[]","internalType":"address[]"}]},{"name":"subnet2","type":"tuple","internalType":"struct SubnetID","components":[{"name":"root","type":"uint64","internalType":"uint64"},{"name":"route","type":"address[]","internalType":"address[]"}]}],"outputs":[{"name":"","type":"bool","internalType":"bool"}],"stateMutability":"pure"},{"type":"function","name":"getActor","inputs":[{"name":"subnet","type":"tuple","internalType":"struct SubnetID","components":[{"name":"root","type":"uint64","internalType":"uint64"},{"name":"route","type":"address[]","internalType":"address[]"}]}],"outputs":[{"name":"","type":"address","internalType":"address"}],"stateMutability":"pure"},{"type":"function","name":"getAddress","inputs":[{"name":"subnet","type":"tuple","internalType":"struct SubnetID","components":[{"name":"root","type":"uint64","internalType":"uint64"},{"name":"route","type":"address[]","internalType":"address[]"}]}],"outputs":[{"name":"","type":"address","internalType":"address"}],"stateMutability":"pure"},{"type":"function","name":"getParentSubnet","inputs":[{"name":"subnet","type":"tuple","internalType":"struct SubnetID","components":[{"name":"root","type":"uint64","internalType":"uint64"},{"name":"route","type":"address[]","internalType":"address[]"}]}],"outputs":[{"name":"","type":"tuple","internalType":"struct SubnetID","components":[{"name":"root","type":"uint64","internalType":"uint64"},{"name":"route","type":"address[]","internalType":"address[]"}]}],"stateMutability":"pure"},{"type":"function","name":"isEmpty","inputs":[{"name":"subnetId","type":"tuple","internalType":"struct SubnetID","components":[{"name":"root","type":"uint64","internalType":"uint64"},{"name":"route","type":"address[]","internalType":"address[]"}]}],"outputs":[{"name":"","type":"bool","internalType":"bool"}],"stateMutability":"pure"},{"type":"function","name":"isRoot","inputs":[{"name":"subnet","type":"tuple","internalType":"struct SubnetID","components":[{"name":"root","type":"uint64","internalType":"uint64"},{"name":"route","type":"address[]","internalType":"address[]"}]}],"outputs":[{"name":"","type":"bool","internalType":"bool"}],"stateMutability":"pure"},{"type":"function","name":"toHash","inputs":[{"name":"subnet","type":"tuple","internalType":"struct SubnetID","components":[{"name":"root","type":"uint64","internalType":"uint64"},{"name":"route","type":"address[]","internalType":"address[]"}]}],"outputs":[{"name":"","type":"bytes32","internalType":"bytes32"}],"stateMutability":"pure"},{"type":"function","name":"toString","inputs":[{"name":"subnet","type":"tuple","internalType":"struct SubnetID","components":[{"name":"root","type":"uint64","internalType":"uint64"},{"name":"route","type":"address[]","internalType":"address[]"}]}],"outputs":[{"name":"","type":"string","internalType":"string"}],"stateMutability":"pure"},{"type":"error","name":"DifferentRootNetwork","inputs":[]},{"type":"error","name":"EmptySubnet","inputs":[]},{"type":"error","name":"InvalidRoute","inputs":[]},{"type":"error","name":"NoAddressForRoot","inputs":[]},{"type":"error","name":"NoParentForSubnet","inputs":[]},{"type":"error","name":"StringsInsufficientHexLength","inputs":[{"name":"value","type":"uint256","internalType":"uint256"},{"name":"length","type":"uint256","internalType":"uint256"}]}],"bytecode":{"object":"0x6114b361003a600b82828239805160001a60731461002d57634e487b7160e01b600052600060045260246000fd5b30600052607381538281f3fe73000000000000000000000000000000000000000030146080604052600436106100b35760003560e01c80636099e8981161007b5780636099e89814610145578063862a88f81461016857806390ba52cf1461017b578063aa5106cb1461019c578063c836244d146101af578063e4ebe92c146101c257600080fd5b8063089032d5146100b8578063118e84ee146100e1578063138e13fc146100f4578063399912661461011f57806359feac4214610132575b600080fd5b6100cb6100c6366004610ef9565b6101e2565b6040516100d89190610f5c565b60405180910390f35b6100cb6100ef366004611067565b610419565b610107610102366004611067565b61052b565b6040516001600160a01b0390911681526020016100d8565b6100cb61012d366004610ef9565b610584565b610107610140366004611152565b610807565b610158610153366004611152565b610872565b60405190151581526020016100d8565b610158610176366004611152565b6108a8565b61018e610189366004611152565b6108df565b6040519081526020016100d8565b6100cb6101aa366004611186565b61090f565b6101586101bd366004610ef9565b610a61565b6101d56101d0366004611152565b610ae1565b6040516100d891906111f7565b604080518082019091526000815260606020820152610204602083018361122a565b6001600160401b031661021a602085018561122a565b6001600160401b03161461024157604051637185935560e01b815260040160405180910390fd5b61024e602083018361124c565b905061025d602085018561124c565b90501161027d5760405163427282e960e11b815260040160405180910390fd5b60008061028d602085018561124c565b9150505b808210801561031357506102a8602085018561124c565b838181106102b8576102b861129c565b90506020020160208101906102cd91906112b2565b6001600160a01b03166102e3602087018761124c565b848181106102f3576102f361129c565b905060200201602081019061030891906112b2565b6001600160a01b0316145b1561032357816001019150610291565b61032c826112e3565b91506000826001600160401b0381111561034857610348610fc6565b604051908082528060200260200182016040528015610371578160200160208202803683370190505b50905060005b838110156103e35761038c602088018861124c565b8281811061039c5761039c61129c565b90506020020160208101906103b191906112b2565b8282815181106103c3576103c361129c565b6001600160a01b0390921660209283029190910190910152600101610377565b5060408051808201909152806103fc602089018961122a565b6001600160401b0316815260200191909152925050505b92915050565b60408051808201909152600081526060602082015281602001515160000361045457604051632f10c6c160e01b815260040160405180910390fd5b6000600183602001515161046891906112fc565b6001600160401b0381111561047f5761047f610fc6565b6040519080825280602002602001820160405280156104a8578160200160208202803683370190505b50805190915060005b8181101561050957846020015181815181106104cf576104cf61129c565b60200260200101518382815181106104e9576104e961129c565b6001600160a01b03909216602092830291909101909101526001016104b1565b50506040805180820190915292516001600160401b0316835260208301525090565b6020810151516000908082036105545760405163142b83b360e31b815260040160405180910390fd5b60208301516105646001836112fc565b815181106105745761057461129c565b6020026020010151915050919050565b6040805180820190915260008152606060208201526105a6602083018361122a565b6001600160401b03166105bc602085018561122a565b6001600160401b0316146105f2575060408051808201825260008082528251908152602080820190935291810191909152610413565b600080610602602086018661124c565b915060009050610615602086018661124c565b9150505b818310801561062757508083105b80156106a6575061063b602086018661124c565b8481811061064b5761064b61129c565b905060200201602081019061066091906112b2565b6001600160a01b0316610676602088018861124c565b858181106106865761068661129c565b905060200201602081019061069b91906112b2565b6001600160a01b0316145b156106b657826001019250610619565b8260000361071d5760408051808201909152806106d6602089018961122a565b6001600160401b03168152602001600060405190808252806020026020018201604052801561070f578160200160208202803683370190505b508152509350505050610413565b6000836001600160401b0381111561073757610737610fc6565b604051908082528060200260200182016040528015610760578160200160208202803683370190505b50905060005b848110156107d25761077b602089018961124c565b8281811061078b5761078b61129c565b90506020020160208101906107a091906112b2565b8282815181106107b2576107b261129c565b6001600160a01b0390921660209283029190910190910152600101610766565b5060408051808201909152806107eb60208a018a61122a565b6001600160401b03168152602001919091529695505050505050565b6000610816602083018361124c565b905060000361082757506000919050565b610834602083018361124c565b6001610843602086018661124c565b61084e9291506112fc565b81811061085d5761085d61129c565b905060200201602081019061041391906112b2565b6000610881602083018361124c565b15905080156104135750610898602083018361122a565b6001600160401b03161592915050565b60006108b7602083018361124c565b159050801561041357506108ce602083018361122a565b6001600160401b0316151592915050565b6000816040516020016108f2919061130f565b604051602081830303815290604052805190602001209050919050565b604080518082019091526000815260606020820152610931602084018461122a565b6001600160401b03168152600061094b602085018561124c565b915061095a90508160016113be565b6001600160401b0381111561097157610971610fc6565b60405190808252806020026020018201604052801561099a578160200160208202803683370190505b50602083015260005b81811015610a13576109b8602086018661124c565b828181106109c8576109c861129c565b90506020020160208101906109dd91906112b2565b836020015182815181106109f3576109f361129c565b6001600160a01b03909216602092830291909101909101526001016109a3565b5060208201518051849190610a2a906001906112fc565b81518110610a3a57610a3a61129c565b60200260200101906001600160a01b031690816001600160a01b0316815250505092915050565b6000610a70602083018361122a565b6001600160401b0316610a86602085018561122a565b6001600160401b031614610a9c57506000610413565b610aa9602083018361124c565b9050610ab8602085018561124c565b905014610ac757506000610413565b610ad0826108df565b610ad9846108df565b149392505050565b60606000610b03610af5602085018561122a565b6001600160401b0316610bde565b604051602001610b1391906113d1565b60408051601f1981840301815291905290506000610b34602085018561124c565b9050905060005b81811015610bd55782604051602001610b5491906113fb565b60408051601f19818403018152919052925082610baa610b77602088018861124c565b84818110610b8757610b8761129c565b9050602002016020810190610b9c91906112b2565b6001600160a01b0316610c70565b604051602001610bbb929190611420565b60408051601f198184030181529190529250600101610b3b565b50909392505050565b60606000610beb83610c86565b60010190506000816001600160401b03811115610c0a57610c0a610fc6565b6040519080825280601f01601f191660200182016040528015610c34576020820181803683370190505b5090508181016020015b600019016f181899199a1a9b1b9c1cb0b131b232b360811b600a86061a8153600a8504945084610c3e57509392505050565b60606104136001600160a01b0383166014610d5e565b60008072184f03e93ff9f4daa797ed6e38ed64bf6a1f0160401b8310610cc55772184f03e93ff9f4daa797ed6e38ed64bf6a1f0160401b830492506040015b6d04ee2d6d415b85acef81000000008310610cf1576d04ee2d6d415b85acef8100000000830492506020015b662386f26fc100008310610d0f57662386f26fc10000830492506010015b6305f5e1008310610d27576305f5e100830492506008015b6127108310610d3b57612710830492506004015b60648310610d4d576064830492506002015b600a83106104135760010192915050565b6060826000610d6e84600261144f565b610d799060026113be565b6001600160401b03811115610d9057610d90610fc6565b6040519080825280601f01601f191660200182016040528015610dba576020820181803683370190505b509050600360fc1b81600081518110610dd557610dd561129c565b60200101906001600160f81b031916908160001a905350600f60fb1b81600181518110610e0457610e0461129c565b60200101906001600160f81b031916908160001a9053506000610e2885600261144f565b610e339060016113be565b90505b6001811115610eab576f181899199a1a9b1b9c1cb0b131b232b360811b83600f1660108110610e6757610e6761129c565b1a60f81b828281518110610e7d57610e7d61129c565b60200101906001600160f81b031916908160001a90535060049290921c91610ea481611466565b9050610e36565b508115610ed95760405163e22e27eb60e01b8152600481018690526024810185905260440160405180910390fd5b949350505050565b600060408284031215610ef357600080fd5b50919050565b60008060408385031215610f0c57600080fd5b82356001600160401b0380821115610f2357600080fd5b610f2f86838701610ee1565b93506020850135915080821115610f4557600080fd5b50610f5285828601610ee1565b9150509250929050565b602080825282516001600160401b0316828201528281015160408084015280516060840181905260009291820190839060808601905b80831015610fbb5783516001600160a01b03168252928401926001929092019190840190610f92565b509695505050505050565b634e487b7160e01b600052604160045260246000fd5b604080519081016001600160401b0381118282101715610ffe57610ffe610fc6565b60405290565b604051601f8201601f191681016001600160401b038111828210171561102c5761102c610fc6565b604052919050565b80356001600160401b038116811461104b57600080fd5b919050565b80356001600160a01b038116811461104b57600080fd5b6000602080838503121561107a57600080fd5b82356001600160401b038082111561109157600080fd5b90840190604082870312156110a557600080fd5b6110ad610fdc565b6110b683611034565b815283830135828111156110c957600080fd5b80840193505086601f8401126110de57600080fd5b8235828111156110f0576110f0610fc6565b8060051b9250611101858401611004565b818152928401850192858101908985111561111b57600080fd5b948601945b848610156111405761113186611050565b82529486019490860190611120565b95830195909552509695505050505050565b60006020828403121561116457600080fd5b81356001600160401b0381111561117a57600080fd5b610ed984828501610ee1565b6000806040838503121561119957600080fd5b82356001600160401b038111156111af57600080fd5b6111bb85828601610ee1565b9250506111ca60208401611050565b90509250929050565b60005b838110156111ee5781810151838201526020016111d6565b50506000910152565b60208152600082518060208401526112168160408501602087016111d3565b601f01601f19169190910160400192915050565b60006020828403121561123c57600080fd5b61124582611034565b9392505050565b6000808335601e1984360301811261126357600080fd5b8301803591506001600160401b0382111561127d57600080fd5b6020019150600581901b360382131561129557600080fd5b9250929050565b634e487b7160e01b600052603260045260246000fd5b6000602082840312156112c457600080fd5b61124582611050565b634e487b7160e01b600052601160045260246000fd5b6000600182016112f5576112f56112cd565b5060010190565b81810381811115610413576104136112cd565b60006020808352606083016001600160401b038061132c87611034565b168386015282860135601e1987360301811261134757600080fd5b860183810190358281111561135b57600080fd5b8060051b360382131561136d57600080fd5b60408781015292839052916080860191506000905b808210156113b2576001600160a01b0361139b85611050565b168352928401929184019160019190910190611382565b50909695505050505050565b80820180821115610413576104136112cd565b6117b960f11b8152600082516113ee8160028501602087016111d3565b9190910160020192915050565b6000825161140d8184602087016111d3565b602f60f81b920191825250600101919050565b600083516114328184602088016111d3565b8351908301906114468183602088016111d3565b01949350505050565b8082028115828204841417610413576104136112cd565b600081611475576114756112cd565b50600019019056fea26469706673582212209e25990f946908b77364e9db550392e9dc89b109255b90d2f41cc8697b9381d964736f6c63430008180033","linkReferences":{}},"methodIdentifiers":{"commonParent(SubnetID,SubnetID)":"39991266","createSubnetId(SubnetID,address)":"aa5106cb","down(SubnetID,SubnetID)":"089032d5","equals(SubnetID,SubnetID)":"c836244d","getActor(SubnetID)":"59feac42","getAddress(SubnetID)":"138e13fc","getParentSubnet(SubnetID)":"118e84ee","isEmpty(SubnetID)":"6099e898","isRoot(SubnetID)":"862a88f8","toHash(SubnetID)":"90ba52cf","toString(SubnetID)":"e4ebe92c"},"id":85}